{"abi":[{"inputs":[{"internalType":"string","name":"_borrowedCrypto","type":"string"},{"internalType":"uint256","name":"_borrowedAskAmount","type":"uint256"},{"internalType":"uint256","name":"_rpbInterest","type":"uint256"},{"components":[{"internalType":"uint256","name":"minRpb","type":"uint256"},{"internalType":"uint256","name":"earlySettlementWindow","type":"uint256"},{"internalType":"uint256","name":"foreclosureWindow","type":"uint256"},{"internalType":"uint256","name":"foreclosureRatio","type":"uint256"},{"internalType":"uint256","name":"instantForeclosureRatio","type":"uint256"},{"internalType":"uint256","name":"earlySettlementFee","type":"uint256"}],"internalType":"struct IJLoan.params","name":"_passedParams","type":"tuple"},{"internalType":"address","name":"_faddress","type":"address"}],"stateMutability":"nonpayable","type":"constructor"},{"anonymous":false,"inputs":[{"indexed":false,"internalType":"address","name":"sender","type":"address"},{"indexed":false,"internalType":"uint256","name":"value","type":"uint256"}],"name":"EthReceived","type":"event"},{"anonymous":false,"inputs":[{"indexed":false,"internalType":"uint256","name":"creationBlock","type":"uint256"}],"name":"LoanContractDeployed","type":"event"},{"anonymous":false,"inputs":[{"indexed":true,"internalType":"address","name":"previousOwner","type":"address"},{"indexed":true,"internalType":"address","name":"newOwner","type":"address"}],"name":"OwnershipTransferred","type":"event"},{"anonymous":false,"inputs":[{"indexed":false,"internalType":"uint256","name":"depositAmount","type":"uint256"}],"name":"newDeposit","type":"event"},{"inputs":[],"name":"askedBorrowAmount","outputs":[{"internalType":"uint256","name":"","type":"uint256"}],"stateMutability":"view","type":"function"},{"inputs":[],"name":"borrowerBalance","outputs":[{"internalType":"uint256","name":"","type":"uint256"}],"stateMutability":"view","type":"function"},{"inputs":[],"name":"chosenBorrowedCrypto","outputs":[{"internalType":"string","name":"","type":"string"}],"stateMutability":"view","type":"function"},{"inputs":[],"name":"creationBlock","outputs":[{"internalType":"uint256","name":"","type":"uint256"}],"stateMutability":"view","type":"function"},{"inputs":[],"name":"cryptoFromBorrower","outputs":[{"internalType":"contract IERC20","name":"","type":"address"}],"stateMutability":"view","type":"function"},{"inputs":[],"name":"cryptoFromLender","outputs":[{"internalType":"contract IERC20","name":"","type":"address"}],"stateMutability":"view","type":"function"},{"inputs":[{"internalType":"uint256","name":"_depositAmount","type":"uint256"}],"name":"depositCollateral","outputs":[],"stateMutability":"payable","type":"function"},{"inputs":[],"name":"getContractBalance","outputs":[{"internalType":"uint256","name":"","type":"uint256"}],"stateMutability":"view","type":"function"},{"inputs":[],"name":"jntContractAddress","outputs":[{"internalType":"address","name":"","type":"address"}],"stateMutability":"view","type":"function"},{"inputs":[],"name":"lastDepositBlock","outputs":[{"internalType":"uint256","name":"","type":"uint256"}],"stateMutability":"view","type":"function"},{"inputs":[{"internalType":"address","name":"_lenderAddress","type":"address"}],"name":"lenderAcceptance","outputs":[],"stateMutability":"nonpayable","type":"function"},{"inputs":[],"name":"lenderBalance","outputs":[{"internalType":"uint256","name":"","type":"uint256"}],"stateMutability":"view","type":"function"},{"inputs":[],"name":"loanActiveBlock","outputs":[{"internalType":"uint256","name":"","type":"uint256"}],"stateMutability":"view","type":"function"},{"inputs":[],"name":"loanForeClosure","outputs":[],"stateMutability":"nonpayable","type":"function"},{"inputs":[],"name":"loanForeclosureBlock","outputs":[{"internalType":"uint256","name":"","type":"uint256"}],"stateMutability":"view","type":"function"},{"inputs":[],"name":"loanParams","outputs":[{"internalType":"uint256","name":"minRpb","type":"uint256"},{"internalType":"uint256","name":"earlySettlementWindow","type":"uint256"},{"internalType":"uint256","name":"foreclosureWindow","type":"uint256"},{"internalType":"uint256","name":"foreclosureRatio","type":"uint256"},{"internalType":"uint256","name":"instantForeclosureRatio","type":"uint256"},{"internalType":"uint256","name":"earlySettlementFee","type":"uint256"}],"stateMutability":"view","type":"function"},{"inputs":[],"name":"loanStatus","outputs":[{"internalType":"enum IJLoan.Status","name":"","type":"uint8"}],"stateMutability":"view","type":"function"},{"inputs":[],"name":"owner","outputs":[{"internalType":"address","name":"","type":"address"}],"stateMutability":"view","type":"function"},{"inputs":[],"name":"renounceOwnership","outputs":[],"stateMutability":"nonpayable","type":"function"},{"inputs":[],"name":"rpbInterest","outputs":[{"internalType":"uint256","name":"","type":"uint256"}],"stateMutability":"view","type":"function"},{"inputs":[{"components":[{"internalType":"uint256","name":"minRpb","type":"uint256"},{"internalType":"uint256","name":"earlySettlementWindow","type":"uint256"},{"internalType":"uint256","name":"foreclosureWindow","type":"uint256"},{"internalType":"uint256","name":"foreclosureRatio","type":"uint256"},{"internalType":"uint256","name":"instantForeclosureRatio","type":"uint256"},{"internalType":"uint256","name":"earlySettlementFee","type":"uint256"}],"internalType":"struct IJLoan.params","name":"_newLoanParams","type":"tuple"}],"name":"setNewParams","outputs":[],"stateMutability":"nonpayable","type":"function"},{"inputs":[{"internalType":"address","name":"_tkn","type":"address"}],"name":"testToken","outputs":[],"stateMutability":"nonpayable","type":"function"},{"inputs":[{"internalType":"address","name":"newOwner","type":"address"}],"name":"transferOwnership","outputs":[],"stateMutability":"nonpayable","type":"function"},{"inputs":[{"internalType":"address payable","name":"_to","type":"address"}],"name":"withdrawEth","outputs":[],"stateMutability":"payable","type":"function"},{"stateMutability":"payable","type":"receive"}],"devdoc":{"kind":"dev","methods":{"owner()":{"details":"Returns the address of the current owner."},"renounceOwnership()":{"details":"Leaves the contract without owner. It will not be possible to call `onlyOwner` functions anymore. Can only be called by the current owner. NOTE: Renouncing ownership will leave the contract without an owner, thereby removing any functionality that is only available to the owner."},"transferOwnership(address)":{"details":"Transfers ownership of the contract to a new account (`newOwner`). Can only be called by the current owner."}},"version":1},"evm":{"assembly":"    /* \"JLoansFactory.sol\":11760:15596  contract JLoan is Ownable, IJLoan {... */\n  mstore(0x40, 0x80)\n    /* \"JLoansFactory.sol\":11878:11881  0x1 */\n  0x01\n    /* \"JLoansFactory.sol\":11834:11882  address public jntContractAddress = address(0x1) */\n  dup1\n  exp(0x0100, 0x00)\n  dup2\n  sload\n  dup2\n  0xffffffffffffffffffffffffffffffffffffffff\n  mul\n  not\n  and\n  swap1\n  dup4\n  0xffffffffffffffffffffffffffffffffffffffff\n  and\n  mul\n  or\n  swap1\n  sstore\n  pop\n    /* \"JLoansFactory.sol\":12538:13397  constructor(string memory _borrowedCrypto, uint _borrowedAskAmount, uint _rpbInterest, params memory _passedParams, address _faddress) public {... */\n  callvalue\n  dup1\n  iszero\n  tag_1\n  jumpi\n  0x00\n  dup1\n  revert\ntag_1:\n  pop\n  mload(0x40)\n  sub(codesize, bytecodeSize)\n  dup1\n  bytecodeSize\n  dup4\n  codecopy\n  dup2\n  dup2\n  add\n  0x40\n  mstore\n  dup2\n  add\n  swap1\n  tag_2\n  swap2\n  swap1\n  tag_3\n  jump\t// in\ntag_2:\n    /* \"JLoansFactory.sol\":6971:6988  address msgSender */\n  0x00\n    /* \"JLoansFactory.sol\":6991:7003  _msgSender() */\n  tag_7\n    /* \"JLoansFactory.sol\":6991:7001  _msgSender */\n  shl(0x20, tag_8)\n    /* \"JLoansFactory.sol\":6991:7003  _msgSender() */\n  0x20\n  shr\n  jump\t// in\ntag_7:\n    /* \"JLoansFactory.sol\":6971:7003  address msgSender = _msgSender() */\n  swap1\n  pop\n    /* \"JLoansFactory.sol\":7022:7031  msgSender */\n  dup1\n    /* \"JLoansFactory.sol\":7013:7019  _owner */\n  0x00\n  dup1\n    /* \"JLoansFactory.sol\":7013:7031  _owner = msgSender */\n  0x0100\n  exp\n  dup2\n  sload\n  dup2\n  0xffffffffffffffffffffffffffffffffffffffff\n  mul\n  not\n  and\n  swap1\n  dup4\n  0xffffffffffffffffffffffffffffffffffffffff\n  and\n  mul\n  or\n  swap1\n  sstore\n  pop\n    /* \"JLoansFactory.sol\":7079:7088  msgSender */\n  dup1\n    /* \"JLoansFactory.sol\":7046:7089  OwnershipTransferred(address(0), msgSender) */\n  0xffffffffffffffffffffffffffffffffffffffff\n  and\n    /* \"JLoansFactory.sol\":7075:7076  0 */\n  0x00\n    /* \"JLoansFactory.sol\":7046:7089  OwnershipTransferred(address(0), msgSender) */\n  0xffffffffffffffffffffffffffffffffffffffff\n  and\n  0x8be0079c531659141344cd1fd0a4f28419497f9722a3daafe3b4186f6b6457e0\n  mload(0x40)\n  mload(0x40)\n  dup1\n  swap2\n  sub\n  swap1\n  log3\n    /* \"JLoansFactory.sol\":6937:7096  constructor () internal {... */\n  pop\n    /* \"JLoansFactory.sol\":12703:12716  _passedParams */\n  dup2\n    /* \"JLoansFactory.sol\":12690:12700  loanParams */\n  0x02\n    /* \"JLoansFactory.sol\":12690:12716  loanParams = _passedParams */\n  0x00\n  dup3\n  add\n  mload\n  dup2\n  0x00\n  add\n  sstore\n  0x20\n  dup3\n  add\n  mload\n  dup2\n  0x01\n  add\n  sstore\n  0x40\n  dup3\n  add\n  mload\n  dup2\n  0x02\n  add\n  sstore\n  0x60\n  dup3\n  add\n  mload\n  dup2\n  0x03\n  add\n  sstore\n  0x80\n  dup3\n  add\n  mload\n  dup2\n  0x04\n  add\n  sstore\n  0xa0\n  dup3\n  add\n  mload\n  dup2\n  0x05\n  add\n  sstore\n  swap1\n  pop\n  pop\n    /* \"JLoansFactory.sol\":12750:12760  loanParams */\n  0x02\n    /* \"JLoansFactory.sol\":12750:12767  loanParams.minRpb */\n  0x00\n  add\n  sload\n    /* \"JLoansFactory.sol\":12734:12746  _rpbInterest */\n  dup4\n    /* \"JLoansFactory.sol\":12734:12767  _rpbInterest >= loanParams.minRpb */\n  lt\n  iszero\n    /* \"JLoansFactory.sol\":12726:12789  require(_rpbInterest >= loanParams.minRpb, \"Interest too low!\") */\n  tag_10\n  jumpi\n  mload(0x40)\n  0x08c379a000000000000000000000000000000000000000000000000000000000\n  dup2\n  mstore\n  0x04\n  add\n  tag_11\n  swap1\n  tag_12\n  jump\t// in\ntag_11:\n  mload(0x40)\n  dup1\n  swap2\n  sub\n  swap1\n  revert\ntag_10:\n    /* \"JLoansFactory.sol\":12816:12825  _faddress */\n  dup1\n    /* \"JLoansFactory.sol\":12799:12813  factoryAddress */\n  0x14\n  0x00\n    /* \"JLoansFactory.sol\":12799:12825  factoryAddress = _faddress */\n  0x0100\n  exp\n  dup2\n  sload\n  dup2\n  0xffffffffffffffffffffffffffffffffffffffff\n  mul\n  not\n  and\n  swap1\n  dup4\n  0xffffffffffffffffffffffffffffffffffffffff\n  and\n  mul\n  or\n  swap1\n  sstore\n  pop\n    /* \"JLoansFactory.sol\":12849:12861  _rpbInterest */\n  dup3\n    /* \"JLoansFactory.sol\":12835:12846  rpbInterest */\n  0x0b\n    /* \"JLoansFactory.sol\":12835:12861  rpbInterest = _rpbInterest */\n  dup2\n  swap1\n  sstore\n  pop\n    /* \"JLoansFactory.sol\":12894:12909  _borrowedCrypto */\n  dup5\n    /* \"JLoansFactory.sol\":12871:12891  chosenBorrowedCrypto */\n  0x09\n    /* \"JLoansFactory.sol\":12871:12909  chosenBorrowedCrypto = _borrowedCrypto */\n  swap1\n  dup1\n  mload\n  swap1\n  0x20\n  add\n  swap1\n  tag_13\n  swap3\n  swap2\n  swap1\n  tag_14\n  jump\t// in\ntag_13:\n  pop\n    /* \"JLoansFactory.sol\":12987:13011  abi.encodePacked(\"EURS\") */\n  add(0x20, mload(0x40))\n  tag_15\n  swap1\n  tag_16\n  jump\t// in\ntag_15:\n  mload(0x40)\n  0x20\n  dup2\n  dup4\n  sub\n  sub\n  dup2\n  mstore\n  swap1\n  0x40\n  mstore\n    /* \"JLoansFactory.sol\":12977:13012  keccak256(abi.encodePacked(\"EURS\")) */\n  dup1\n  mload\n  swap1\n  0x20\n  add\n  keccak256\n    /* \"JLoansFactory.sol\":12951:12971  chosenBorrowedCrypto */\n  0x09\n    /* \"JLoansFactory.sol\":12934:12972  abi.encodePacked(chosenBorrowedCrypto) */\n  add(0x20, mload(0x40))\n  tag_17\n  swap2\n  swap1\n  tag_18\n  jump\t// in\ntag_17:\n  mload(0x40)\n  0x20\n  dup2\n  dup4\n  sub\n  sub\n  dup2\n  mstore\n  swap1\n  0x40\n  mstore\n    /* \"JLoansFactory.sol\":12924:12973  keccak256(abi.encodePacked(chosenBorrowedCrypto)) */\n  dup1\n  mload\n  swap1\n  0x20\n  add\n  keccak256\n    /* \"JLoansFactory.sol\":12924:13012  keccak256(abi.encodePacked(chosenBorrowedCrypto)) == keccak256(abi.encodePacked(\"EURS\")) */\n  eq\n    /* \"JLoansFactory.sol\":12919:13162  if ( keccak256(abi.encodePacked(chosenBorrowedCrypto)) == keccak256(abi.encodePacked(\"EURS\")) ) {... */\n  iszero\n  tag_19\n  jumpi\n    /* \"JLoansFactory.sol\":13057:13075  jntContractAddress */\n  0x01\n  0x00\n  swap1\n  sload\n  swap1\n  0x0100\n  exp\n  swap1\n  div\n  0xffffffffffffffffffffffffffffffffffffffff\n  and\n    /* \"JLoansFactory.sol\":13029:13047  cryptoFromBorrower */\n  0x12\n  0x00\n    /* \"JLoansFactory.sol\":13029:13076  cryptoFromBorrower = IERC20(jntContractAddress) */\n  0x0100\n  exp\n  dup2\n  sload\n  dup2\n  0xffffffffffffffffffffffffffffffffffffffff\n  mul\n  not\n  and\n  swap1\n  dup4\n  0xffffffffffffffffffffffffffffffffffffffff\n  and\n  mul\n  or\n  swap1\n  sstore\n  pop\n    /* \"JLoansFactory.sol\":12919:13162  if ( keccak256(abi.encodePacked(chosenBorrowedCrypto)) == keccak256(abi.encodePacked(\"EURS\")) ) {... */\n  jump(tag_20)\ntag_19:\n    /* \"JLoansFactory.sol\":13141:13144  0x0 */\n  0x00\n    /* \"JLoansFactory.sol\":13113:13131  cryptoFromBorrower */\n  0x12\n  0x00\n    /* \"JLoansFactory.sol\":13113:13145  cryptoFromBorrower = IERC20(0x0) */\n  0x0100\n  exp\n  dup2\n  sload\n  dup2\n  0xffffffffffffffffffffffffffffffffffffffff\n  mul\n  not\n  and\n  swap1\n  dup4\n  0xffffffffffffffffffffffffffffffffffffffff\n  and\n  mul\n  or\n  swap1\n  sstore\n  pop\n    /* \"JLoansFactory.sol\":12919:13162  if ( keccak256(abi.encodePacked(chosenBorrowedCrypto)) == keccak256(abi.encodePacked(\"EURS\")) ) {... */\ntag_20:\n    /* \"JLoansFactory.sol\":13191:13209  _borrowedAskAmount */\n  dup4\n    /* \"JLoansFactory.sol\":13171:13188  askedBorrowAmount */\n  0x0a\n    /* \"JLoansFactory.sol\":13171:13209  askedBorrowAmount = _borrowedAskAmount */\n  dup2\n  swap1\n  sstore\n  pop\n    /* \"JLoansFactory.sol\":13235:13247  block.number */\n  number\n    /* \"JLoansFactory.sol\":13219:13232  creationBlock */\n  0x0c\n    /* \"JLoansFactory.sol\":13219:13247  creationBlock = block.number */\n  dup2\n  swap1\n  sstore\n  pop\n    /* \"JLoansFactory.sol\":13270:13284  Status.pending */\n  0x00\n    /* \"JLoansFactory.sol\":13257:13267  loanStatus */\n  0x08\n  0x00\n    /* \"JLoansFactory.sol\":13257:13284  loanStatus = Status.pending */\n  0x0100\n  exp\n  dup2\n  sload\n  dup2\n  0xff\n  mul\n  not\n  and\n  swap1\n  dup4\n  0x04\n  dup2\n  gt\n  iszero\n  tag_21\n  jumpi\n  invalid\ntag_21:\n  mul\n  or\n  swap1\n  sstore\n  pop\n    /* \"JLoansFactory.sol\":13312:13313  0 */\n  0x00\n    /* \"JLoansFactory.sol\":13294:13309  borrowerBalance */\n  0x10\n    /* \"JLoansFactory.sol\":13294:13313  borrowerBalance = 0 */\n  dup2\n  swap1\n  sstore\n  pop\n    /* \"JLoansFactory.sol\":13339:13340  0 */\n  0x00\n    /* \"JLoansFactory.sol\":13323:13336  lenderBalance */\n  0x11\n    /* \"JLoansFactory.sol\":13323:13340  lenderBalance = 0 */\n  dup2\n  swap1\n  sstore\n  pop\n    /* \"JLoansFactory.sol\":13355:13390  LoanContractDeployed(creationBlock) */\n  0x656ad37b815087d90f0c4cbdbf28a9ef3e92cfeb045dd15eaa452cc8b1d34e00\n    /* \"JLoansFactory.sol\":13376:13389  creationBlock */\n  sload(0x0c)\n    /* \"JLoansFactory.sol\":13355:13390  LoanContractDeployed(creationBlock) */\n  mload(0x40)\n  tag_22\n  swap2\n  swap1\n  tag_23\n  jump\t// in\ntag_22:\n  mload(0x40)\n  dup1\n  swap2\n  sub\n  swap1\n  log1\n    /* \"JLoansFactory.sol\":12538:13397  constructor(string memory _borrowedCrypto, uint _borrowedAskAmount, uint _rpbInterest, params memory _passedParams, address _faddress) public {... */\n  pop\n  pop\n  pop\n  pop\n  pop\n    /* \"JLoansFactory.sol\":11760:15596  contract JLoan is Ownable, IJLoan {... */\n  jump(tag_24)\n    /* \"JLoansFactory.sol\":5738:5842  function _msgSender() internal view virtual returns (address payable) {... */\ntag_8:\n    /* \"JLoansFactory.sol\":5791:5806  address payable */\n  0x00\n    /* \"JLoansFactory.sol\":5825:5835  msg.sender */\n  caller\n    /* \"JLoansFactory.sol\":5818:5835  return msg.sender */\n  swap1\n  pop\n    /* \"JLoansFactory.sol\":5738:5842  function _msgSender() internal view virtual returns (address payable) {... */\n  swap1\n  jump\t// out\n    /* \"JLoansFactory.sol\":11760:15596  contract JLoan is Ownable, IJLoan {... */\ntag_14:\n  dup3\n  dup1\n  sload\n  0x01\n  dup2\n  0x01\n  and\n  iszero\n  0x0100\n  mul\n  sub\n  and\n  0x02\n  swap1\n  div\n  swap1\n  0x00\n  mstore\n  keccak256(0x00, 0x20)\n  swap1\n  0x1f\n  add\n  0x20\n  swap1\n  div\n  dup2\n  add\n  swap3\n  dup3\n  0x1f\n  lt\n  tag_27\n  jumpi\n  dup1\n  mload\n  not(0xff)\n  and\n  dup4\n  dup1\n  add\n  or\n  dup6\n  sstore\n  jump(tag_26)\ntag_27:\n  dup3\n  dup1\n  add\n  0x01\n  add\n  dup6\n  sstore\n  dup3\n  iszero\n  tag_26\n  jumpi\n  swap2\n  dup3\n  add\ntag_28:\n  dup3\n  dup2\n  gt\n  iszero\n  tag_29\n  jumpi\n  dup3\n  mload\n  dup3\n  sstore\n  swap2\n  0x20\n  add\n  swap2\n  swap1\n  0x01\n  add\n  swap1\n  jump(tag_28)\ntag_29:\ntag_26:\n  pop\n  swap1\n  pop\n  tag_30\n  swap2\n  swap1\n  tag_31\n  jump\t// in\ntag_30:\n  pop\n  swap1\n  jump\t// out\ntag_31:\ntag_32:\n  dup1\n  dup3\n  gt\n  iszero\n  tag_33\n  jumpi\n  0x00\n  dup2\n  0x00\n  swap1\n  sstore\n  pop\n  0x01\n  add\n  jump(tag_32)\ntag_33:\n  pop\n  swap1\n  jump\t// out\n    /* \"--CODEGEN--\":5:139   */\ntag_35:\n  0x00\n    /* \"--CODEGEN--\":89:95   */\n  dup2\n    /* \"--CODEGEN--\":83:96   */\n  mload\n    /* \"--CODEGEN--\":74:96   */\n  swap1\n  pop\n    /* \"--CODEGEN--\":101:134   */\n  tag_37\n    /* \"--CODEGEN--\":128:133   */\n  dup2\n    /* \"--CODEGEN--\":101:134   */\n  tag_38\n  jump\t// in\ntag_37:\n    /* \"--CODEGEN--\":68:139   */\n  swap3\n  swap2\n  pop\n  pop\n  jump\t// out\n    /* \"--CODEGEN--\":147:591   */\ntag_39:\n  0x00\n    /* \"--CODEGEN--\":260:263   */\n  dup3\n    /* \"--CODEGEN--\":253:257   */\n  0x1f\n    /* \"--CODEGEN--\":245:251   */\n  dup4\n    /* \"--CODEGEN--\":241:258   */\n  add\n    /* \"--CODEGEN--\":237:264   */\n  slt\n    /* \"--CODEGEN--\":227:229   */\n  tag_41\n  jumpi\n    /* \"--CODEGEN--\":278:279   */\n  0x00\n    /* \"--CODEGEN--\":275:276   */\n  dup1\n    /* \"--CODEGEN--\":268:280   */\n  revert\n    /* \"--CODEGEN--\":227:229   */\ntag_41:\n    /* \"--CODEGEN--\":308:314   */\n  dup2\n    /* \"--CODEGEN--\":302:315   */\n  mload\n    /* \"--CODEGEN--\":330:395   */\n  tag_42\n    /* \"--CODEGEN--\":345:394   */\n  tag_43\n    /* \"--CODEGEN--\":387:393   */\n  dup3\n    /* \"--CODEGEN--\":345:394   */\n  tag_44\n  jump\t// in\ntag_43:\n    /* \"--CODEGEN--\":330:395   */\n  tag_45\n  jump\t// in\ntag_42:\n    /* \"--CODEGEN--\":321:395   */\n  swap2\n  pop\n    /* \"--CODEGEN--\":415:421   */\n  dup1\n    /* \"--CODEGEN--\":408:413   */\n  dup3\n    /* \"--CODEGEN--\":401:422   */\n  mstore\n    /* \"--CODEGEN--\":451:455   */\n  0x20\n    /* \"--CODEGEN--\":443:449   */\n  dup4\n    /* \"--CODEGEN--\":439:456   */\n  add\n    /* \"--CODEGEN--\":484:488   */\n  0x20\n    /* \"--CODEGEN--\":477:482   */\n  dup4\n    /* \"--CODEGEN--\":473:489   */\n  add\n    /* \"--CODEGEN--\":519:522   */\n  dup6\n    /* \"--CODEGEN--\":510:516   */\n  dup4\n    /* \"--CODEGEN--\":505:508   */\n  dup4\n    /* \"--CODEGEN--\":501:517   */\n  add\n    /* \"--CODEGEN--\":498:523   */\n  gt\n    /* \"--CODEGEN--\":495:497   */\n  iszero\n  tag_46\n  jumpi\n    /* \"--CODEGEN--\":536:537   */\n  0x00\n    /* \"--CODEGEN--\":533:534   */\n  dup1\n    /* \"--CODEGEN--\":526:538   */\n  revert\n    /* \"--CODEGEN--\":495:497   */\ntag_46:\n    /* \"--CODEGEN--\":546:585   */\n  tag_47\n    /* \"--CODEGEN--\":578:584   */\n  dup4\n    /* \"--CODEGEN--\":573:576   */\n  dup3\n    /* \"--CODEGEN--\":568:571   */\n  dup5\n    /* \"--CODEGEN--\":546:585   */\n  tag_48\n  jump\t// in\ntag_47:\n    /* \"--CODEGEN--\":220:591   */\n  pop\n  pop\n  pop\n  swap3\n  swap2\n  pop\n  pop\n  jump\t// out\n    /* \"--CODEGEN--\":626:1823   */\ntag_49:\n  0x00\n    /* \"--CODEGEN--\":749:753   */\n  0xc0\n    /* \"--CODEGEN--\":737:746   */\n  dup3\n    /* \"--CODEGEN--\":732:735   */\n  dup5\n    /* \"--CODEGEN--\":728:747   */\n  sub\n    /* \"--CODEGEN--\":724:754   */\n  slt\n    /* \"--CODEGEN--\":721:723   */\n  iszero\n  tag_51\n  jumpi\n    /* \"--CODEGEN--\":767:768   */\n  0x00\n    /* \"--CODEGEN--\":764:765   */\n  dup1\n    /* \"--CODEGEN--\":757:769   */\n  revert\n    /* \"--CODEGEN--\":721:723   */\ntag_51:\n    /* \"--CODEGEN--\":785:805   */\n  tag_52\n    /* \"--CODEGEN--\":800:804   */\n  0xc0\n    /* \"--CODEGEN--\":785:805   */\n  tag_45\n  jump\t// in\ntag_52:\n    /* \"--CODEGEN--\":776:805   */\n  swap1\n  pop\n    /* \"--CODEGEN--\":857:858   */\n  0x00\n    /* \"--CODEGEN--\":889:949   */\n  tag_53\n    /* \"--CODEGEN--\":945:948   */\n  dup5\n    /* \"--CODEGEN--\":936:942   */\n  dup3\n    /* \"--CODEGEN--\":925:934   */\n  dup6\n    /* \"--CODEGEN--\":921:943   */\n  add\n    /* \"--CODEGEN--\":889:949   */\n  tag_54\n  jump\t// in\ntag_53:\n    /* \"--CODEGEN--\":882:886   */\n  0x00\n    /* \"--CODEGEN--\":875:880   */\n  dup4\n    /* \"--CODEGEN--\":871:887   */\n  add\n    /* \"--CODEGEN--\":864:950   */\n  mstore\n    /* \"--CODEGEN--\":815:961   */\n  pop\n    /* \"--CODEGEN--\":1028:1030   */\n  0x20\n    /* \"--CODEGEN--\":1061:1121   */\n  tag_55\n    /* \"--CODEGEN--\":1117:1120   */\n  dup5\n    /* \"--CODEGEN--\":1108:1114   */\n  dup3\n    /* \"--CODEGEN--\":1097:1106   */\n  dup6\n    /* \"--CODEGEN--\":1093:1115   */\n  add\n    /* \"--CODEGEN--\":1061:1121   */\n  tag_54\n  jump\t// in\ntag_55:\n    /* \"--CODEGEN--\":1054:1058   */\n  0x20\n    /* \"--CODEGEN--\":1047:1052   */\n  dup4\n    /* \"--CODEGEN--\":1043:1059   */\n  add\n    /* \"--CODEGEN--\":1036:1122   */\n  mstore\n    /* \"--CODEGEN--\":971:1133   */\n  pop\n    /* \"--CODEGEN--\":1196:1198   */\n  0x40\n    /* \"--CODEGEN--\":1229:1289   */\n  tag_56\n    /* \"--CODEGEN--\":1285:1288   */\n  dup5\n    /* \"--CODEGEN--\":1276:1282   */\n  dup3\n    /* \"--CODEGEN--\":1265:1274   */\n  dup6\n    /* \"--CODEGEN--\":1261:1283   */\n  add\n    /* \"--CODEGEN--\":1229:1289   */\n  tag_54\n  jump\t// in\ntag_56:\n    /* \"--CODEGEN--\":1222:1226   */\n  0x40\n    /* \"--CODEGEN--\":1215:1220   */\n  dup4\n    /* \"--CODEGEN--\":1211:1227   */\n  add\n    /* \"--CODEGEN--\":1204:1290   */\n  mstore\n    /* \"--CODEGEN--\":1143:1301   */\n  pop\n    /* \"--CODEGEN--\":1363:1365   */\n  0x60\n    /* \"--CODEGEN--\":1396:1456   */\n  tag_57\n    /* \"--CODEGEN--\":1452:1455   */\n  dup5\n    /* \"--CODEGEN--\":1443:1449   */\n  dup3\n    /* \"--CODEGEN--\":1432:1441   */\n  dup6\n    /* \"--CODEGEN--\":1428:1450   */\n  add\n    /* \"--CODEGEN--\":1396:1456   */\n  tag_54\n  jump\t// in\ntag_57:\n    /* \"--CODEGEN--\":1389:1393   */\n  0x60\n    /* \"--CODEGEN--\":1382:1387   */\n  dup4\n    /* \"--CODEGEN--\":1378:1394   */\n  add\n    /* \"--CODEGEN--\":1371:1457   */\n  mstore\n    /* \"--CODEGEN--\":1311:1468   */\n  pop\n    /* \"--CODEGEN--\":1537:1540   */\n  0x80\n    /* \"--CODEGEN--\":1571:1631   */\n  tag_58\n    /* \"--CODEGEN--\":1627:1630   */\n  dup5\n    /* \"--CODEGEN--\":1618:1624   */\n  dup3\n    /* \"--CODEGEN--\":1607:1616   */\n  dup6\n    /* \"--CODEGEN--\":1603:1625   */\n  add\n    /* \"--CODEGEN--\":1571:1631   */\n  tag_54\n  jump\t// in\ntag_58:\n    /* \"--CODEGEN--\":1564:1568   */\n  0x80\n    /* \"--CODEGEN--\":1557:1562   */\n  dup4\n    /* \"--CODEGEN--\":1553:1569   */\n  add\n    /* \"--CODEGEN--\":1546:1632   */\n  mstore\n    /* \"--CODEGEN--\":1478:1643   */\n  pop\n    /* \"--CODEGEN--\":1707:1710   */\n  0xa0\n    /* \"--CODEGEN--\":1741:1801   */\n  tag_59\n    /* \"--CODEGEN--\":1797:1800   */\n  dup5\n    /* \"--CODEGEN--\":1788:1794   */\n  dup3\n    /* \"--CODEGEN--\":1777:1786   */\n  dup6\n    /* \"--CODEGEN--\":1773:1795   */\n  add\n    /* \"--CODEGEN--\":1741:1801   */\n  tag_54\n  jump\t// in\ntag_59:\n    /* \"--CODEGEN--\":1734:1738   */\n  0xa0\n    /* \"--CODEGEN--\":1727:1732   */\n  dup4\n    /* \"--CODEGEN--\":1723:1739   */\n  add\n    /* \"--CODEGEN--\":1716:1802   */\n  mstore\n    /* \"--CODEGEN--\":1653:1813   */\n  pop\n    /* \"--CODEGEN--\":715:1823   */\n  swap3\n  swap2\n  pop\n  pop\n  jump\t// out\n    /* \"--CODEGEN--\":1830:1964   */\ntag_54:\n  0x00\n    /* \"--CODEGEN--\":1914:1920   */\n  dup2\n    /* \"--CODEGEN--\":1908:1921   */\n  mload\n    /* \"--CODEGEN--\":1899:1921   */\n  swap1\n  pop\n    /* \"--CODEGEN--\":1926:1959   */\n  tag_61\n    /* \"--CODEGEN--\":1953:1958   */\n  dup2\n    /* \"--CODEGEN--\":1926:1959   */\n  tag_62\n  jump\t// in\ntag_61:\n    /* \"--CODEGEN--\":1893:1964   */\n  swap3\n  swap2\n  pop\n  pop\n  jump\t// out\n    /* \"--CODEGEN--\":1971:2925   */\ntag_3:\n  0x00\n  dup1\n  0x00\n  dup1\n  0x00\n    /* \"--CODEGEN--\":2187:2190   */\n  0x0140\n    /* \"--CODEGEN--\":2175:2184   */\n  dup7\n    /* \"--CODEGEN--\":2166:2173   */\n  dup9\n    /* \"--CODEGEN--\":2162:2185   */\n  sub\n    /* \"--CODEGEN--\":2158:2191   */\n  slt\n    /* \"--CODEGEN--\":2155:2157   */\n  iszero\n  tag_64\n  jumpi\n    /* \"--CODEGEN--\":2204:2205   */\n  0x00\n    /* \"--CODEGEN--\":2201:2202   */\n  dup1\n    /* \"--CODEGEN--\":2194:2206   */\n  revert\n    /* \"--CODEGEN--\":2155:2157   */\ntag_64:\n    /* \"--CODEGEN--\":2260:2261   */\n  0x00\n    /* \"--CODEGEN--\":2249:2258   */\n  dup7\n    /* \"--CODEGEN--\":2245:2262   */\n  add\n    /* \"--CODEGEN--\":2239:2263   */\n  mload\n    /* \"--CODEGEN--\":2283:2301   */\n  0xffffffffffffffff\n    /* \"--CODEGEN--\":2275:2281   */\n  dup2\n    /* \"--CODEGEN--\":2272:2302   */\n  gt\n    /* \"--CODEGEN--\":2269:2271   */\n  iszero\n  tag_65\n  jumpi\n    /* \"--CODEGEN--\":2315:2316   */\n  0x00\n    /* \"--CODEGEN--\":2312:2313   */\n  dup1\n    /* \"--CODEGEN--\":2305:2317   */\n  revert\n    /* \"--CODEGEN--\":2269:2271   */\ntag_65:\n    /* \"--CODEGEN--\":2335:2409   */\n  tag_66\n    /* \"--CODEGEN--\":2401:2408   */\n  dup9\n    /* \"--CODEGEN--\":2392:2398   */\n  dup3\n    /* \"--CODEGEN--\":2381:2390   */\n  dup10\n    /* \"--CODEGEN--\":2377:2399   */\n  add\n    /* \"--CODEGEN--\":2335:2409   */\n  tag_39\n  jump\t// in\ntag_66:\n    /* \"--CODEGEN--\":2325:2409   */\n  swap6\n  pop\n    /* \"--CODEGEN--\":2218:2415   */\n  pop\n    /* \"--CODEGEN--\":2446:2448   */\n  0x20\n    /* \"--CODEGEN--\":2464:2528   */\n  tag_67\n    /* \"--CODEGEN--\":2520:2527   */\n  dup9\n    /* \"--CODEGEN--\":2511:2517   */\n  dup3\n    /* \"--CODEGEN--\":2500:2509   */\n  dup10\n    /* \"--CODEGEN--\":2496:2518   */\n  add\n    /* \"--CODEGEN--\":2464:2528   */\n  tag_54\n  jump\t// in\ntag_67:\n    /* \"--CODEGEN--\":2454:2528   */\n  swap5\n  pop\n    /* \"--CODEGEN--\":2425:2534   */\n  pop\n    /* \"--CODEGEN--\":2565:2567   */\n  0x40\n    /* \"--CODEGEN--\":2583:2647   */\n  tag_68\n    /* \"--CODEGEN--\":2639:2646   */\n  dup9\n    /* \"--CODEGEN--\":2630:2636   */\n  dup3\n    /* \"--CODEGEN--\":2619:2628   */\n  dup10\n    /* \"--CODEGEN--\":2615:2637   */\n  add\n    /* \"--CODEGEN--\":2583:2647   */\n  tag_54\n  jump\t// in\ntag_68:\n    /* \"--CODEGEN--\":2573:2647   */\n  swap4\n  pop\n    /* \"--CODEGEN--\":2544:2653   */\n  pop\n    /* \"--CODEGEN--\":2684:2686   */\n  0x60\n    /* \"--CODEGEN--\":2702:2789   */\n  tag_69\n    /* \"--CODEGEN--\":2781:2788   */\n  dup9\n    /* \"--CODEGEN--\":2772:2778   */\n  dup3\n    /* \"--CODEGEN--\":2761:2770   */\n  dup10\n    /* \"--CODEGEN--\":2757:2779   */\n  add\n    /* \"--CODEGEN--\":2702:2789   */\n  tag_49\n  jump\t// in\ntag_69:\n    /* \"--CODEGEN--\":2692:2789   */\n  swap3\n  pop\n    /* \"--CODEGEN--\":2663:2795   */\n  pop\n    /* \"--CODEGEN--\":2826:2829   */\n  0x0120\n    /* \"--CODEGEN--\":2845:2909   */\n  tag_70\n    /* \"--CODEGEN--\":2901:2908   */\n  dup9\n    /* \"--CODEGEN--\":2892:2898   */\n  dup3\n    /* \"--CODEGEN--\":2881:2890   */\n  dup10\n    /* \"--CODEGEN--\":2877:2899   */\n  add\n    /* \"--CODEGEN--\":2845:2909   */\n  tag_35\n  jump\t// in\ntag_70:\n    /* \"--CODEGEN--\":2835:2909   */\n  swap2\n  pop\n    /* \"--CODEGEN--\":2805:2915   */\n  pop\n    /* \"--CODEGEN--\":2149:2925   */\n  swap3\n  swap6\n  pop\n  swap3\n  swap6\n  swap1\n  swap4\n  pop\n  jump\t// out\n    /* \"--CODEGEN--\":2957:3841   */\ntag_71:\n  0x00\n    /* \"--CODEGEN--\":3094:3099   */\n  dup2\n    /* \"--CODEGEN--\":3088:3100   */\n  sload\n    /* \"--CODEGEN--\":3128:3129   */\n  0x01\n    /* \"--CODEGEN--\":3117:3126   */\n  dup2\n    /* \"--CODEGEN--\":3113:3130   */\n  and\n    /* \"--CODEGEN--\":3141:3142   */\n  0x00\n    /* \"--CODEGEN--\":3136:3404   */\n  dup2\n  eq\n  tag_74\n  jumpi\n    /* \"--CODEGEN--\":3415:3416   */\n  0x01\n    /* \"--CODEGEN--\":3410:3835   */\n  dup2\n  eq\n  tag_75\n  jumpi\n    /* \"--CODEGEN--\":3106:3835   */\n  jump(tag_73)\n    /* \"--CODEGEN--\":3136:3404   */\ntag_74:\n    /* \"--CODEGEN--\":3214:3218   */\n  0x7f\n    /* \"--CODEGEN--\":3210:3211   */\n  0x02\n    /* \"--CODEGEN--\":3199:3208   */\n  dup4\n    /* \"--CODEGEN--\":3195:3212   */\n  div\n    /* \"--CODEGEN--\":3191:3219   */\n  and\n    /* \"--CODEGEN--\":3233:3322   */\n  tag_76\n    /* \"--CODEGEN--\":3315:3321   */\n  dup2\n    /* \"--CODEGEN--\":3310:3313   */\n  dup8\n    /* \"--CODEGEN--\":3233:3322   */\n  tag_77\n  jump\t// in\ntag_76:\n    /* \"--CODEGEN--\":3226:3322   */\n  swap6\n  pop\n    /* \"--CODEGEN--\":3360:3364   */\n  0xff\n    /* \"--CODEGEN--\":3356:3365   */\n  not\n    /* \"--CODEGEN--\":3345:3354   */\n  dup4\n    /* \"--CODEGEN--\":3341:3366   */\n  and\n    /* \"--CODEGEN--\":3336:3339   */\n  dup7\n    /* \"--CODEGEN--\":3329:3367   */\n  mstore\n    /* \"--CODEGEN--\":3390:3396   */\n  dup1\n    /* \"--CODEGEN--\":3385:3388   */\n  dup7\n    /* \"--CODEGEN--\":3381:3397   */\n  add\n    /* \"--CODEGEN--\":3374:3397   */\n  swap4\n  pop\n    /* \"--CODEGEN--\":3143:3404   */\n  pop\n    /* \"--CODEGEN--\":3136:3404   */\n  jump(tag_73)\n    /* \"--CODEGEN--\":3410:3835   */\ntag_75:\n    /* \"--CODEGEN--\":3479:3480   */\n  0x02\n    /* \"--CODEGEN--\":3468:3477   */\n  dup3\n    /* \"--CODEGEN--\":3464:3481   */\n  div\n    /* \"--CODEGEN--\":3495:3584   */\n  tag_78\n    /* \"--CODEGEN--\":3577:3583   */\n  dup2\n    /* \"--CODEGEN--\":3572:3575   */\n  dup8\n    /* \"--CODEGEN--\":3495:3584   */\n  tag_77\n  jump\t// in\ntag_78:\n    /* \"--CODEGEN--\":3488:3584   */\n  swap6\n  pop\n    /* \"--CODEGEN--\":3606:3644   */\n  tag_79\n    /* \"--CODEGEN--\":3638:3643   */\n  dup6\n    /* \"--CODEGEN--\":3606:3644   */\n  tag_80\n  jump\t// in\ntag_79:\n    /* \"--CODEGEN--\":3660:3661   */\n  0x00\n    /* \"--CODEGEN--\":3668:3798   */\ntag_81:\n    /* \"--CODEGEN--\":3682:3688   */\n  dup3\n    /* \"--CODEGEN--\":3679:3680   */\n  dup2\n    /* \"--CODEGEN--\":3676:3689   */\n  lt\n    /* \"--CODEGEN--\":3668:3798   */\n  iszero\n  tag_83\n  jumpi\n    /* \"--CODEGEN--\":3747:3754   */\n  dup2\n    /* \"--CODEGEN--\":3741:3755   */\n  sload\n    /* \"--CODEGEN--\":3737:3738   */\n  dup2\n    /* \"--CODEGEN--\":3732:3735   */\n  dup10\n    /* \"--CODEGEN--\":3728:3739   */\n  add\n    /* \"--CODEGEN--\":3721:3756   */\n  mstore\n    /* \"--CODEGEN--\":3788:3789   */\n  0x01\n    /* \"--CODEGEN--\":3779:3786   */\n  dup3\n    /* \"--CODEGEN--\":3775:3790   */\n  add\n    /* \"--CODEGEN--\":3764:3790   */\n  swap2\n  pop\n    /* \"--CODEGEN--\":3704:3708   */\n  0x20\n    /* \"--CODEGEN--\":3701:3702   */\n  dup2\n    /* \"--CODEGEN--\":3697:3709   */\n  add\n    /* \"--CODEGEN--\":3692:3709   */\n  swap1\n  pop\n    /* \"--CODEGEN--\":3668:3798   */\n  jump(tag_81)\ntag_83:\n    /* \"--CODEGEN--\":3821:3827   */\n  dup3\n    /* \"--CODEGEN--\":3816:3819   */\n  dup9\n    /* \"--CODEGEN--\":3812:3828   */\n  add\n    /* \"--CODEGEN--\":3805:3828   */\n  swap6\n  pop\n    /* \"--CODEGEN--\":3417:3835   */\n  pop\n  pop\n  pop\n    /* \"--CODEGEN--\":3106:3835   */\ntag_73:\n  pop\n    /* \"--CODEGEN--\":3064:3841   */\n  pop\n  swap3\n  swap2\n  pop\n  pop\n  jump\t// out\n    /* \"--CODEGEN--\":3850:4188   */\ntag_84:\n  0x00\n    /* \"--CODEGEN--\":4028:4112   */\n  tag_86\n    /* \"--CODEGEN--\":4110:4111   */\n  0x04\n    /* \"--CODEGEN--\":4105:4108   */\n  dup4\n    /* \"--CODEGEN--\":4028:4112   */\n  tag_77\n  jump\t// in\ntag_86:\n    /* \"--CODEGEN--\":4021:4112   */\n  swap2\n  pop\n    /* \"--CODEGEN--\":4145:4151   */\n  0x4555525300000000000000000000000000000000000000000000000000000000\n    /* \"--CODEGEN--\":4141:4142   */\n  0x00\n    /* \"--CODEGEN--\":4136:4139   */\n  dup4\n    /* \"--CODEGEN--\":4132:4143   */\n  add\n    /* \"--CODEGEN--\":4125:4152   */\n  mstore\n    /* \"--CODEGEN--\":4180:4181   */\n  0x04\n    /* \"--CODEGEN--\":4175:4178   */\n  dup3\n    /* \"--CODEGEN--\":4171:4182   */\n  add\n    /* \"--CODEGEN--\":4164:4182   */\n  swap1\n  pop\n    /* \"--CODEGEN--\":4014:4188   */\n  swap2\n  swap1\n  pop\n  jump\t// out\n    /* \"--CODEGEN--\":4197:4514   */\ntag_87:\n  0x00\n    /* \"--CODEGEN--\":4357:4424   */\n  tag_89\n    /* \"--CODEGEN--\":4421:4423   */\n  0x11\n    /* \"--CODEGEN--\":4416:4419   */\n  dup4\n    /* \"--CODEGEN--\":4357:4424   */\n  tag_90\n  jump\t// in\ntag_89:\n    /* \"--CODEGEN--\":4350:4424   */\n  swap2\n  pop\n    /* \"--CODEGEN--\":4457:4476   */\n  0x496e74657265737420746f6f206c6f7721000000000000000000000000000000\n    /* \"--CODEGEN--\":4453:4454   */\n  0x00\n    /* \"--CODEGEN--\":4448:4451   */\n  dup4\n    /* \"--CODEGEN--\":4444:4455   */\n  add\n    /* \"--CODEGEN--\":4437:4477   */\n  mstore\n    /* \"--CODEGEN--\":4505:4507   */\n  0x20\n    /* \"--CODEGEN--\":4500:4503   */\n  dup3\n    /* \"--CODEGEN--\":4496:4508   */\n  add\n    /* \"--CODEGEN--\":4489:4508   */\n  swap1\n  pop\n    /* \"--CODEGEN--\":4343:4514   */\n  swap2\n  swap1\n  pop\n  jump\t// out\n    /* \"--CODEGEN--\":4522:4635   */\ntag_91:\n    /* \"--CODEGEN--\":4605:4629   */\n  tag_93\n    /* \"--CODEGEN--\":4623:4628   */\n  dup2\n    /* \"--CODEGEN--\":4605:4629   */\n  tag_94\n  jump\t// in\ntag_93:\n    /* \"--CODEGEN--\":4600:4603   */\n  dup3\n    /* \"--CODEGEN--\":4593:4630   */\n  mstore\n    /* \"--CODEGEN--\":4587:4635   */\n  pop\n  pop\n  jump\t// out\n    /* \"--CODEGEN--\":4642:4911   */\ntag_18:\n  0x00\n    /* \"--CODEGEN--\":4794:4886   */\n  tag_96\n    /* \"--CODEGEN--\":4882:4885   */\n  dup3\n    /* \"--CODEGEN--\":4873:4879   */\n  dup5\n    /* \"--CODEGEN--\":4794:4886   */\n  tag_71\n  jump\t// in\ntag_96:\n    /* \"--CODEGEN--\":4787:4886   */\n  swap2\n  pop\n    /* \"--CODEGEN--\":4903:4906   */\n  dup2\n    /* \"--CODEGEN--\":4896:4906   */\n  swap1\n  pop\n    /* \"--CODEGEN--\":4775:4911   */\n  swap3\n  swap2\n  pop\n  pop\n  jump\t// out\n    /* \"--CODEGEN--\":4918:5299   */\ntag_16:\n  0x00\n    /* \"--CODEGEN--\":5126:5274   */\n  tag_98\n    /* \"--CODEGEN--\":5270:5273   */\n  dup3\n    /* \"--CODEGEN--\":5126:5274   */\n  tag_84\n  jump\t// in\ntag_98:\n    /* \"--CODEGEN--\":5119:5274   */\n  swap2\n  pop\n    /* \"--CODEGEN--\":5291:5294   */\n  dup2\n    /* \"--CODEGEN--\":5284:5294   */\n  swap1\n  pop\n    /* \"--CODEGEN--\":5107:5299   */\n  swap2\n  swap1\n  pop\n  jump\t// out\n    /* \"--CODEGEN--\":5306:5722   */\ntag_12:\n  0x00\n    /* \"--CODEGEN--\":5506:5508   */\n  0x20\n    /* \"--CODEGEN--\":5495:5504   */\n  dup3\n    /* \"--CODEGEN--\":5491:5509   */\n  add\n    /* \"--CODEGEN--\":5483:5509   */\n  swap1\n  pop\n    /* \"--CODEGEN--\":5556:5565   */\n  dup2\n    /* \"--CODEGEN--\":5550:5554   */\n  dup2\n    /* \"--CODEGEN--\":5546:5566   */\n  sub\n    /* \"--CODEGEN--\":5542:5543   */\n  0x00\n    /* \"--CODEGEN--\":5531:5540   */\n  dup4\n    /* \"--CODEGEN--\":5527:5544   */\n  add\n    /* \"--CODEGEN--\":5520:5567   */\n  mstore\n    /* \"--CODEGEN--\":5581:5712   */\n  tag_100\n    /* \"--CODEGEN--\":5707:5711   */\n  dup2\n    /* \"--CODEGEN--\":5581:5712   */\n  tag_87\n  jump\t// in\ntag_100:\n    /* \"--CODEGEN--\":5573:5712   */\n  swap1\n  pop\n    /* \"--CODEGEN--\":5477:5722   */\n  swap2\n  swap1\n  pop\n  jump\t// out\n    /* \"--CODEGEN--\":5729:5951   */\ntag_23:\n  0x00\n    /* \"--CODEGEN--\":5856:5858   */\n  0x20\n    /* \"--CODEGEN--\":5845:5854   */\n  dup3\n    /* \"--CODEGEN--\":5841:5859   */\n  add\n    /* \"--CODEGEN--\":5833:5859   */\n  swap1\n  pop\n    /* \"--CODEGEN--\":5870:5941   */\n  tag_102\n    /* \"--CODEGEN--\":5938:5939   */\n  0x00\n    /* \"--CODEGEN--\":5927:5936   */\n  dup4\n    /* \"--CODEGEN--\":5923:5940   */\n  add\n    /* \"--CODEGEN--\":5914:5920   */\n  dup5\n    /* \"--CODEGEN--\":5870:5941   */\n  tag_91\n  jump\t// in\ntag_102:\n    /* \"--CODEGEN--\":5827:5951   */\n  swap3\n  swap2\n  pop\n  pop\n  jump\t// out\n    /* \"--CODEGEN--\":5958:6214   */\ntag_45:\n  0x00\n    /* \"--CODEGEN--\":6020:6022   */\n  0x40\n    /* \"--CODEGEN--\":6014:6023   */\n  mload\n    /* \"--CODEGEN--\":6004:6023   */\n  swap1\n  pop\n    /* \"--CODEGEN--\":6058:6062   */\n  dup2\n    /* \"--CODEGEN--\":6050:6056   */\n  dup2\n    /* \"--CODEGEN--\":6046:6063   */\n  add\n    /* \"--CODEGEN--\":6157:6163   */\n  dup2\n    /* \"--CODEGEN--\":6145:6155   */\n  dup2\n    /* \"--CODEGEN--\":6142:6164   */\n  lt\n    /* \"--CODEGEN--\":6121:6139   */\n  0xffffffffffffffff\n    /* \"--CODEGEN--\":6109:6119   */\n  dup3\n    /* \"--CODEGEN--\":6106:6140   */\n  gt\n    /* \"--CODEGEN--\":6103:6165   */\n  or\n    /* \"--CODEGEN--\":6100:6102   */\n  iszero\n  tag_104\n  jumpi\n    /* \"--CODEGEN--\":6178:6179   */\n  0x00\n    /* \"--CODEGEN--\":6175:6176   */\n  dup1\n    /* \"--CODEGEN--\":6168:6180   */\n  revert\n    /* \"--CODEGEN--\":6100:6102   */\ntag_104:\n    /* \"--CODEGEN--\":6198:6208   */\n  dup1\n    /* \"--CODEGEN--\":6194:6196   */\n  0x40\n    /* \"--CODEGEN--\":6187:6209   */\n  mstore\n    /* \"--CODEGEN--\":5998:6214   */\n  pop\n  swap2\n  swap1\n  pop\n  jump\t// out\n    /* \"--CODEGEN--\":6221:6543   */\ntag_44:\n  0x00\n    /* \"--CODEGEN--\":6365:6383   */\n  0xffffffffffffffff\n    /* \"--CODEGEN--\":6357:6363   */\n  dup3\n    /* \"--CODEGEN--\":6354:6384   */\n  gt\n    /* \"--CODEGEN--\":6351:6353   */\n  iszero\n  tag_106\n  jumpi\n    /* \"--CODEGEN--\":6397:6398   */\n  0x00\n    /* \"--CODEGEN--\":6394:6395   */\n  dup1\n    /* \"--CODEGEN--\":6387:6399   */\n  revert\n    /* \"--CODEGEN--\":6351:6353   */\ntag_106:\n    /* \"--CODEGEN--\":6464:6468   */\n  0x1f\n    /* \"--CODEGEN--\":6460:6469   */\n  not\n    /* \"--CODEGEN--\":6453:6457   */\n  0x1f\n    /* \"--CODEGEN--\":6445:6451   */\n  dup4\n    /* \"--CODEGEN--\":6441:6458   */\n  add\n    /* \"--CODEGEN--\":6437:6470   */\n  and\n    /* \"--CODEGEN--\":6429:6470   */\n  swap1\n  pop\n    /* \"--CODEGEN--\":6528:6532   */\n  0x20\n    /* \"--CODEGEN--\":6522:6526   */\n  dup2\n    /* \"--CODEGEN--\":6518:6533   */\n  add\n    /* \"--CODEGEN--\":6510:6533   */\n  swap1\n  pop\n    /* \"--CODEGEN--\":6288:6543   */\n  swap2\n  swap1\n  pop\n  jump\t// out\n    /* \"--CODEGEN--\":6550:6708   */\ntag_80:\n  0x00\n    /* \"--CODEGEN--\":6618:6621   */\n  dup2\n    /* \"--CODEGEN--\":6610:6621   */\n  swap1\n  pop\n    /* \"--CODEGEN--\":6655:6658   */\n  dup2\n    /* \"--CODEGEN--\":6652:6653   */\n  0x00\n    /* \"--CODEGEN--\":6645:6659   */\n  mstore\n    /* \"--CODEGEN--\":6687:6691   */\n  0x20\n    /* \"--CODEGEN--\":6684:6685   */\n  0x00\n    /* \"--CODEGEN--\":6674:6692   */\n  keccak256\n    /* \"--CODEGEN--\":6666:6692   */\n  swap1\n  pop\n    /* \"--CODEGEN--\":6604:6708   */\n  swap2\n  swap1\n  pop\n  jump\t// out\n    /* \"--CODEGEN--\":6716:6879   */\ntag_90:\n  0x00\n    /* \"--CODEGEN--\":6831:6837   */\n  dup3\n    /* \"--CODEGEN--\":6826:6829   */\n  dup3\n    /* \"--CODEGEN--\":6819:6838   */\n  mstore\n    /* \"--CODEGEN--\":6868:6872   */\n  0x20\n    /* \"--CODEGEN--\":6863:6866   */\n  dup3\n    /* \"--CODEGEN--\":6859:6873   */\n  add\n    /* \"--CODEGEN--\":6844:6873   */\n  swap1\n  pop\n    /* \"--CODEGEN--\":6812:6879   */\n  swap3\n  swap2\n  pop\n  pop\n  jump\t// out\n    /* \"--CODEGEN--\":6888:7033   */\ntag_77:\n  0x00\n    /* \"--CODEGEN--\":7024:7027   */\n  dup2\n    /* \"--CODEGEN--\":7009:7027   */\n  swap1\n  pop\n    /* \"--CODEGEN--\":7002:7033   */\n  swap3\n  swap2\n  pop\n  pop\n  jump\t// out\n    /* \"--CODEGEN--\":7041:7132   */\ntag_110:\n  0x00\n    /* \"--CODEGEN--\":7103:7127   */\n  tag_112\n    /* \"--CODEGEN--\":7121:7126   */\n  dup3\n    /* \"--CODEGEN--\":7103:7127   */\n  tag_113\n  jump\t// in\ntag_112:\n    /* \"--CODEGEN--\":7092:7127   */\n  swap1\n  pop\n    /* \"--CODEGEN--\":7086:7132   */\n  swap2\n  swap1\n  pop\n  jump\t// out\n    /* \"--CODEGEN--\":7139:7260   */\ntag_113:\n  0x00\n    /* \"--CODEGEN--\":7212:7254   */\n  0xffffffffffffffffffffffffffffffffffffffff\n    /* \"--CODEGEN--\":7205:7210   */\n  dup3\n    /* \"--CODEGEN--\":7201:7255   */\n  and\n    /* \"--CODEGEN--\":7190:7255   */\n  swap1\n  pop\n    /* \"--CODEGEN--\":7184:7260   */\n  swap2\n  swap1\n  pop\n  jump\t// out\n    /* \"--CODEGEN--\":7267:7339   */\ntag_94:\n  0x00\n    /* \"--CODEGEN--\":7329:7334   */\n  dup2\n    /* \"--CODEGEN--\":7318:7334   */\n  swap1\n  pop\n    /* \"--CODEGEN--\":7312:7339   */\n  swap2\n  swap1\n  pop\n  jump\t// out\n    /* \"--CODEGEN--\":7347:7615   */\ntag_48:\n    /* \"--CODEGEN--\":7412:7413   */\n  0x00\n    /* \"--CODEGEN--\":7419:7520   */\ntag_117:\n    /* \"--CODEGEN--\":7433:7439   */\n  dup4\n    /* \"--CODEGEN--\":7430:7431   */\n  dup2\n    /* \"--CODEGEN--\":7427:7440   */\n  lt\n    /* \"--CODEGEN--\":7419:7520   */\n  iszero\n  tag_119\n  jumpi\n    /* \"--CODEGEN--\":7509:7510   */\n  dup1\n    /* \"--CODEGEN--\":7504:7507   */\n  dup3\n    /* \"--CODEGEN--\":7500:7511   */\n  add\n    /* \"--CODEGEN--\":7494:7512   */\n  mload\n    /* \"--CODEGEN--\":7490:7491   */\n  dup2\n    /* \"--CODEGEN--\":7485:7488   */\n  dup5\n    /* \"--CODEGEN--\":7481:7492   */\n  add\n    /* \"--CODEGEN--\":7474:7513   */\n  mstore\n    /* \"--CODEGEN--\":7455:7457   */\n  0x20\n    /* \"--CODEGEN--\":7452:7453   */\n  dup2\n    /* \"--CODEGEN--\":7448:7458   */\n  add\n    /* \"--CODEGEN--\":7443:7458   */\n  swap1\n  pop\n    /* \"--CODEGEN--\":7419:7520   */\n  jump(tag_117)\ntag_119:\n    /* \"--CODEGEN--\":7535:7541   */\n  dup4\n    /* \"--CODEGEN--\":7532:7533   */\n  dup2\n    /* \"--CODEGEN--\":7529:7542   */\n  gt\n    /* \"--CODEGEN--\":7526:7528   */\n  iszero\n  tag_120\n  jumpi\n    /* \"--CODEGEN--\":7600:7601   */\n  0x00\n    /* \"--CODEGEN--\":7591:7597   */\n  dup5\n    /* \"--CODEGEN--\":7586:7589   */\n  dup5\n    /* \"--CODEGEN--\":7582:7598   */\n  add\n    /* \"--CODEGEN--\":7575:7602   */\n  mstore\n    /* \"--CODEGEN--\":7526:7528   */\ntag_120:\n    /* \"--CODEGEN--\":7396:7615   */\n  pop\n  pop\n  pop\n  pop\n  jump\t// out\n    /* \"--CODEGEN--\":7623:7740   */\ntag_38:\n    /* \"--CODEGEN--\":7692:7716   */\n  tag_122\n    /* \"--CODEGEN--\":7710:7715   */\n  dup2\n    /* \"--CODEGEN--\":7692:7716   */\n  tag_110\n  jump\t// in\ntag_122:\n    /* \"--CODEGEN--\":7685:7690   */\n  dup2\n    /* \"--CODEGEN--\":7682:7717   */\n  eq\n    /* \"--CODEGEN--\":7672:7674   */\n  tag_123\n  jumpi\n    /* \"--CODEGEN--\":7731:7732   */\n  0x00\n    /* \"--CODEGEN--\":7728:7729   */\n  dup1\n    /* \"--CODEGEN--\":7721:7733   */\n  revert\n    /* \"--CODEGEN--\":7672:7674   */\ntag_123:\n    /* \"--CODEGEN--\":7666:7740   */\n  pop\n  jump\t// out\n    /* \"--CODEGEN--\":7747:7864   */\ntag_62:\n    /* \"--CODEGEN--\":7816:7840   */\n  tag_125\n    /* \"--CODEGEN--\":7834:7839   */\n  dup2\n    /* \"--CODEGEN--\":7816:7840   */\n  tag_94\n  jump\t// in\ntag_125:\n    /* \"--CODEGEN--\":7809:7814   */\n  dup2\n    /* \"--CODEGEN--\":7806:7841   */\n  eq\n    /* \"--CODEGEN--\":7796:7798   */\n  tag_126\n  jumpi\n    /* \"--CODEGEN--\":7855:7856   */\n  0x00\n    /* \"--CODEGEN--\":7852:7853   */\n  dup1\n    /* \"--CODEGEN--\":7845:7857   */\n  revert\n    /* \"--CODEGEN--\":7796:7798   */\ntag_126:\n    /* \"--CODEGEN--\":7790:7864   */\n  pop\n  jump\t// out\n    /* \"JLoansFactory.sol\":11760:15596  contract JLoan is Ownable, IJLoan {... */\ntag_24:\n  dataSize(sub_0)\n  dup1\n  dataOffset(sub_0)\n  0x00\n  codecopy\n  0x00\n  return\nstop\n\nsub_0: assembly {\n        /* \"JLoansFactory.sol\":11760:15596  contract JLoan is Ownable, IJLoan {... */\n      mstore(0x40, 0x80)\n      jumpi(tag_1, lt(calldatasize, 0x04))\n      shr(0xe0, calldataload(0x00))\n      dup1\n      0x8a0dac21\n      gt\n      tag_27\n      jumpi\n      dup1\n      0xbad4a01f\n      gt\n      tag_28\n      jumpi\n      dup1\n      0xbad4a01f\n      eq\n      tag_21\n      jumpi\n      dup1\n      0xc6cb6770\n      eq\n      tag_22\n      jumpi\n      dup1\n      0xe5acc187\n      eq\n      tag_23\n      jumpi\n      dup1\n      0xeaea4fc9\n      eq\n      tag_24\n      jumpi\n      dup1\n      0xeaf3a62e\n      eq\n      tag_25\n      jumpi\n      dup1\n      0xf2fde38b\n      eq\n      tag_26\n      jumpi\n      jump(tag_2)\n    tag_28:\n      dup1\n      0x8a0dac21\n      eq\n      tag_15\n      jumpi\n      dup1\n      0x8d803a1e\n      eq\n      tag_16\n      jumpi\n      dup1\n      0x8da5cb5b\n      eq\n      tag_17\n      jumpi\n      dup1\n      0x94a83eeb\n      eq\n      tag_18\n      jumpi\n      dup1\n      0xadc38b06\n      eq\n      tag_19\n      jumpi\n      dup1\n      0xb2ca1805\n      eq\n      tag_20\n      jumpi\n      jump(tag_2)\n    tag_27:\n      dup1\n      0x3cb85225\n      gt\n      tag_29\n      jumpi\n      dup1\n      0x3cb85225\n      eq\n      tag_9\n      jumpi\n      dup1\n      0x44dc7fbc\n      eq\n      tag_10\n      jumpi\n      dup1\n      0x54f197e0\n      eq\n      tag_11\n      jumpi\n      dup1\n      0x5dc334bf\n      eq\n      tag_12\n      jumpi\n      dup1\n      0x6f9fb98a\n      eq\n      tag_13\n      jumpi\n      dup1\n      0x715018a6\n      eq\n      tag_14\n      jumpi\n      jump(tag_2)\n    tag_29:\n      dup1\n      0x074ca966\n      eq\n      tag_3\n      jumpi\n      dup1\n      0x09e94d98\n      eq\n      tag_4\n      jumpi\n      dup1\n      0x17634514\n      eq\n      tag_5\n      jumpi\n      dup1\n      0x1cbd8380\n      eq\n      tag_6\n      jumpi\n      dup1\n      0x25e16063\n      eq\n      tag_7\n      jumpi\n      dup1\n      0x2a3d7c81\n      eq\n      tag_8\n      jumpi\n      jump(tag_2)\n    tag_1:\n      jumpi(tag_2, calldatasize)\n        /* \"JLoansFactory.sol\":14355:14389  EthReceived(msg.sender, msg.value) */\n      0x85177f287940f2f05425a4029951af0e047a7f9c4eaa9a6e6917bcd869f86695\n        /* \"JLoansFactory.sol\":14367:14377  msg.sender */\n      caller\n        /* \"JLoansFactory.sol\":14379:14388  msg.value */\n      callvalue\n        /* \"JLoansFactory.sol\":14355:14389  EthReceived(msg.sender, msg.value) */\n      mload(0x40)\n      tag_32\n      swap3\n      swap2\n      swap1\n      tag_33\n      jump\t// in\n    tag_32:\n      mload(0x40)\n      dup1\n      swap2\n      sub\n      swap1\n      log1\n        /* \"JLoansFactory.sol\":11760:15596  contract JLoan is Ownable, IJLoan {... */\n      stop\n    tag_2:\n      0x00\n      dup1\n      revert\n        /* \"JLoansFactory.sol\":11923:11947  Status public loanStatus */\n    tag_3:\n      callvalue\n      dup1\n      iszero\n      tag_34\n      jumpi\n      0x00\n      dup1\n      revert\n    tag_34:\n      pop\n      tag_35\n      tag_36\n      jump\t// in\n    tag_35:\n      mload(0x40)\n      tag_37\n      swap2\n      swap1\n      tag_38\n      jump\t// in\n    tag_37:\n      mload(0x40)\n      dup1\n      swap2\n      sub\n      swap1\n      return\n        /* \"JLoansFactory.sol\":11893:11917  params public loanParams */\n    tag_4:\n      callvalue\n      dup1\n      iszero\n      tag_39\n      jumpi\n      0x00\n      dup1\n      revert\n    tag_39:\n      pop\n      tag_40\n      tag_41\n      jump\t// in\n    tag_40:\n      mload(0x40)\n      tag_42\n      swap7\n      swap6\n      swap5\n      swap4\n      swap3\n      swap2\n      swap1\n      tag_43\n      jump\t// in\n    tag_42:\n      mload(0x40)\n      dup1\n      swap2\n      sub\n      swap1\n      return\n        /* \"JLoansFactory.sol\":12078:12103  uint public creationBlock */\n    tag_5:\n      callvalue\n      dup1\n      iszero\n      tag_44\n      jumpi\n      0x00\n      dup1\n      revert\n    tag_44:\n      pop\n      tag_45\n      tag_46\n      jump\t// in\n    tag_45:\n      mload(0x40)\n      tag_47\n      swap2\n      swap1\n      tag_48\n      jump\t// in\n    tag_47:\n      mload(0x40)\n      dup1\n      swap2\n      sub\n      swap1\n      return\n        /* \"JLoansFactory.sol\":12215:12242  uint public borrowerBalance */\n    tag_6:\n      callvalue\n      dup1\n      iszero\n      tag_49\n      jumpi\n      0x00\n      dup1\n      revert\n    tag_49:\n      pop\n      tag_50\n      tag_51\n      jump\t// in\n    tag_50:\n      mload(0x40)\n      tag_52\n      swap2\n      swap1\n      tag_48\n      jump\t// in\n    tag_52:\n      mload(0x40)\n      dup1\n      swap2\n      sub\n      swap1\n      return\n        /* \"JLoansFactory.sol\":14402:14633  function withdrawEth(address payable _to) override public payable onlyOwner {... */\n    tag_7:\n      tag_53\n      0x04\n      dup1\n      calldatasize\n      sub\n      dup2\n      add\n      swap1\n      tag_54\n      swap2\n      swap1\n      tag_55\n      jump\t// in\n    tag_54:\n      tag_56\n      jump\t// in\n    tag_53:\n      stop\n        /* \"JLoansFactory.sol\":12109:12137  uint public lastDepositBlock */\n    tag_8:\n      callvalue\n      dup1\n      iszero\n      tag_57\n      jumpi\n      0x00\n      dup1\n      revert\n    tag_57:\n      pop\n      tag_58\n      tag_59\n      jump\t// in\n    tag_58:\n      mload(0x40)\n      tag_60\n      swap2\n      swap1\n      tag_48\n      jump\t// in\n    tag_60:\n      mload(0x40)\n      dup1\n      swap2\n      sub\n      swap1\n      return\n        /* \"JLoansFactory.sol\":12280:12312  IERC20 public cryptoFromBorrower */\n    tag_9:\n      callvalue\n      dup1\n      iszero\n      tag_61\n      jumpi\n      0x00\n      dup1\n      revert\n    tag_61:\n      pop\n      tag_62\n      tag_63\n      jump\t// in\n    tag_62:\n      mload(0x40)\n      tag_64\n      swap2\n      swap1\n      tag_65\n      jump\t// in\n    tag_64:\n      mload(0x40)\n      dup1\n      swap2\n      sub\n      swap1\n      return\n        /* \"JLoansFactory.sol\":12318:12348  IERC20 public cryptoFromLender */\n    tag_10:\n      callvalue\n      dup1\n      iszero\n      tag_66\n      jumpi\n      0x00\n      dup1\n      revert\n    tag_66:\n      pop\n      tag_67\n      tag_68\n      jump\t// in\n    tag_67:\n      mload(0x40)\n      tag_69\n      swap2\n      swap1\n      tag_65\n      jump\t// in\n    tag_69:\n      mload(0x40)\n      dup1\n      swap2\n      sub\n      swap1\n      return\n        /* \"JLoansFactory.sol\":11834:11882  address public jntContractAddress = address(0x1) */\n    tag_11:\n      callvalue\n      dup1\n      iszero\n      tag_70\n      jumpi\n      0x00\n      dup1\n      revert\n    tag_70:\n      pop\n      tag_71\n      tag_72\n      jump\t// in\n    tag_71:\n      mload(0x40)\n      tag_73\n      swap2\n      swap1\n      tag_74\n      jump\t// in\n    tag_73:\n      mload(0x40)\n      dup1\n      swap2\n      sub\n      swap1\n      return\n        /* \"JLoansFactory.sol\":14931:15209  function lenderAcceptance(address _lenderAddress) override external onlyOwner{... */\n    tag_12:\n      callvalue\n      dup1\n      iszero\n      tag_75\n      jumpi\n      0x00\n      dup1\n      revert\n    tag_75:\n      pop\n      tag_76\n      0x04\n      dup1\n      calldatasize\n      sub\n      dup2\n      add\n      swap1\n      tag_77\n      swap2\n      swap1\n      tag_78\n      jump\t// in\n    tag_77:\n      tag_79\n      jump\t// in\n    tag_76:\n      stop\n        /* \"JLoansFactory.sol\":14639:14925  function getContractBalance() override external view returns (uint) {... */\n    tag_13:\n      callvalue\n      dup1\n      iszero\n      tag_80\n      jumpi\n      0x00\n      dup1\n      revert\n    tag_80:\n      pop\n      tag_81\n      tag_82\n      jump\t// in\n    tag_81:\n      mload(0x40)\n      tag_83\n      swap2\n      swap1\n      tag_48\n      jump\t// in\n    tag_83:\n      mload(0x40)\n      dup1\n      swap2\n      sub\n      swap1\n      return\n        /* \"JLoansFactory.sol\":7795:7940  function renounceOwnership() public virtual onlyOwner {... */\n    tag_14:\n      callvalue\n      dup1\n      iszero\n      tag_84\n      jumpi\n      0x00\n      dup1\n      revert\n    tag_84:\n      pop\n      tag_85\n      tag_86\n      jump\t// in\n    tag_85:\n      stop\n        /* \"JLoansFactory.sol\":12176:12208  uint public loanForeclosureBlock */\n    tag_15:\n      callvalue\n      dup1\n      iszero\n      tag_87\n      jumpi\n      0x00\n      dup1\n      revert\n    tag_87:\n      pop\n      tag_88\n      tag_89\n      jump\t// in\n    tag_88:\n      mload(0x40)\n      tag_90\n      swap2\n      swap1\n      tag_48\n      jump\t// in\n    tag_90:\n      mload(0x40)\n      dup1\n      swap2\n      sub\n      swap1\n      return\n        /* \"JLoansFactory.sol\":12048:12071  uint public rpbInterest */\n    tag_16:\n      callvalue\n      dup1\n      iszero\n      tag_91\n      jumpi\n      0x00\n      dup1\n      revert\n    tag_91:\n      pop\n      tag_92\n      tag_93\n      jump\t// in\n    tag_92:\n      mload(0x40)\n      tag_94\n      swap2\n      swap1\n      tag_48\n      jump\t// in\n    tag_94:\n      mload(0x40)\n      dup1\n      swap2\n      sub\n      swap1\n      return\n        /* \"JLoansFactory.sol\":7172:7249  function owner() public view returns (address) {... */\n    tag_17:\n      callvalue\n      dup1\n      iszero\n      tag_95\n      jumpi\n      0x00\n      dup1\n      revert\n    tag_95:\n      pop\n      tag_96\n      tag_97\n      jump\t// in\n    tag_96:\n      mload(0x40)\n      tag_98\n      swap2\n      swap1\n      tag_74\n      jump\t// in\n    tag_98:\n      mload(0x40)\n      dup1\n      swap2\n      sub\n      swap1\n      return\n        /* \"JLoansFactory.sol\":15215:15464  function loanForeClosure() override external onlyOwner {... */\n    tag_18:\n      callvalue\n      dup1\n      iszero\n      tag_99\n      jumpi\n      0x00\n      dup1\n      revert\n    tag_99:\n      pop\n      tag_100\n      tag_101\n      jump\t// in\n    tag_100:\n      stop\n        /* \"JLoansFactory.sol\":11958:11992  string public chosenBorrowedCrypto */\n    tag_19:\n      callvalue\n      dup1\n      iszero\n      tag_102\n      jumpi\n      0x00\n      dup1\n      revert\n    tag_102:\n      pop\n      tag_103\n      tag_104\n      jump\t// in\n    tag_103:\n      mload(0x40)\n      tag_105\n      swap2\n      swap1\n      tag_106\n      jump\t// in\n    tag_105:\n      mload(0x40)\n      dup1\n      swap2\n      sub\n      swap1\n      return\n        /* \"JLoansFactory.sol\":12143:12170  uint public loanActiveBlock */\n    tag_20:\n      callvalue\n      dup1\n      iszero\n      tag_107\n      jumpi\n      0x00\n      dup1\n      revert\n    tag_107:\n      pop\n      tag_108\n      tag_109\n      jump\t// in\n    tag_108:\n      mload(0x40)\n      tag_110\n      swap2\n      swap1\n      tag_48\n      jump\t// in\n    tag_110:\n      mload(0x40)\n      dup1\n      swap2\n      sub\n      swap1\n      return\n        /* \"JLoansFactory.sol\":13676:14306  function depositCollateral(uint _depositAmount) override public payable {... */\n    tag_21:\n      tag_111\n      0x04\n      dup1\n      calldatasize\n      sub\n      dup2\n      add\n      swap1\n      tag_112\n      swap2\n      swap1\n      tag_113\n      jump\t// in\n    tag_112:\n      tag_114\n      jump\t// in\n    tag_111:\n      stop\n        /* \"JLoansFactory.sol\":15470:15594  function setNewParams(params memory _newLoanParams) override public onlyFactory {... */\n    tag_22:\n      callvalue\n      dup1\n      iszero\n      tag_115\n      jumpi\n      0x00\n      dup1\n      revert\n    tag_115:\n      pop\n      tag_116\n      0x04\n      dup1\n      calldatasize\n      sub\n      dup2\n      add\n      swap1\n      tag_117\n      swap2\n      swap1\n      tag_118\n      jump\t// in\n    tag_117:\n      tag_119\n      jump\t// in\n    tag_116:\n      stop\n        /* \"JLoansFactory.sol\":12013:12042  uint public askedBorrowAmount */\n    tag_23:\n      callvalue\n      dup1\n      iszero\n      tag_120\n      jumpi\n      0x00\n      dup1\n      revert\n    tag_120:\n      pop\n      tag_121\n      tag_122\n      jump\t// in\n    tag_121:\n      mload(0x40)\n      tag_123\n      swap2\n      swap1\n      tag_48\n      jump\t// in\n    tag_123:\n      mload(0x40)\n      dup1\n      swap2\n      sub\n      swap1\n      return\n        /* \"JLoansFactory.sol\":13403:13553  function testToken(address _tkn) override external {... */\n    tag_24:\n      callvalue\n      dup1\n      iszero\n      tag_124\n      jumpi\n      0x00\n      dup1\n      revert\n    tag_124:\n      pop\n      tag_125\n      0x04\n      dup1\n      calldatasize\n      sub\n      dup2\n      add\n      swap1\n      tag_126\n      swap2\n      swap1\n      tag_78\n      jump\t// in\n    tag_126:\n      tag_127\n      jump\t// in\n    tag_125:\n      stop\n        /* \"JLoansFactory.sol\":12248:12273  uint public lenderBalance */\n    tag_25:\n      callvalue\n      dup1\n      iszero\n      tag_128\n      jumpi\n      0x00\n      dup1\n      revert\n    tag_128:\n      pop\n      tag_129\n      tag_130\n      jump\t// in\n    tag_129:\n      mload(0x40)\n      tag_131\n      swap2\n      swap1\n      tag_48\n      jump\t// in\n    tag_131:\n      mload(0x40)\n      dup1\n      swap2\n      sub\n      swap1\n      return\n        /* \"JLoansFactory.sol\":8089:8329  function transferOwnership(address newOwner) public virtual onlyOwner {... */\n    tag_26:\n      callvalue\n      dup1\n      iszero\n      tag_132\n      jumpi\n      0x00\n      dup1\n      revert\n    tag_132:\n      pop\n      tag_133\n      0x04\n      dup1\n      calldatasize\n      sub\n      dup2\n      add\n      swap1\n      tag_134\n      swap2\n      swap1\n      tag_78\n      jump\t// in\n    tag_134:\n      tag_135\n      jump\t// in\n    tag_133:\n      stop\n        /* \"JLoansFactory.sol\":11923:11947  Status public loanStatus */\n    tag_36:\n      0x08\n      0x00\n      swap1\n      sload\n      swap1\n      0x0100\n      exp\n      swap1\n      div\n      0xff\n      and\n      dup2\n      jump\t// out\n        /* \"JLoansFactory.sol\":11893:11917  params public loanParams */\n    tag_41:\n      0x02\n      dup1\n      0x00\n      add\n      sload\n      swap1\n      dup1\n      0x01\n      add\n      sload\n      swap1\n      dup1\n      0x02\n      add\n      sload\n      swap1\n      dup1\n      0x03\n      add\n      sload\n      swap1\n      dup1\n      0x04\n      add\n      sload\n      swap1\n      dup1\n      0x05\n      add\n      sload\n      swap1\n      pop\n      dup7\n      jump\t// out\n        /* \"JLoansFactory.sol\":12078:12103  uint public creationBlock */\n    tag_46:\n      sload(0x0c)\n      dup2\n      jump\t// out\n        /* \"JLoansFactory.sol\":12215:12242  uint public borrowerBalance */\n    tag_51:\n      sload(0x10)\n      dup2\n      jump\t// out\n        /* \"JLoansFactory.sol\":14402:14633  function withdrawEth(address payable _to) override public payable onlyOwner {... */\n    tag_56:\n        /* \"JLoansFactory.sol\":7386:7398  _msgSender() */\n      tag_137\n        /* \"JLoansFactory.sol\":7386:7396  _msgSender */\n      tag_138\n        /* \"JLoansFactory.sol\":7386:7398  _msgSender() */\n      jump\t// in\n    tag_137:\n        /* \"JLoansFactory.sol\":7376:7398  _owner == _msgSender() */\n      0xffffffffffffffffffffffffffffffffffffffff\n      and\n        /* \"JLoansFactory.sol\":7376:7382  _owner */\n      0x00\n      dup1\n      sload\n      swap1\n      0x0100\n      exp\n      swap1\n      div\n      0xffffffffffffffffffffffffffffffffffffffff\n      and\n        /* \"JLoansFactory.sol\":7376:7398  _owner == _msgSender() */\n      0xffffffffffffffffffffffffffffffffffffffff\n      and\n      eq\n        /* \"JLoansFactory.sol\":7368:7435  require(_owner == _msgSender(), \"Ownable: caller is not the owner\") */\n      tag_139\n      jumpi\n      mload(0x40)\n      0x08c379a000000000000000000000000000000000000000000000000000000000\n      dup2\n      mstore\n      0x04\n      add\n      tag_140\n      swap1\n      tag_141\n      jump\t// in\n    tag_140:\n      mload(0x40)\n      dup1\n      swap2\n      sub\n      swap1\n      revert\n    tag_139:\n        /* \"JLoansFactory.sol\":14510:14524  Status.closing */\n      0x03\n        /* \"JLoansFactory.sol\":14496:14524  loanStatus == Status.closing */\n      0x04\n      dup2\n      gt\n      iszero\n      tag_143\n      jumpi\n      invalid\n    tag_143:\n        /* \"JLoansFactory.sol\":14496:14506  loanStatus */\n      0x08\n      0x00\n      swap1\n      sload\n      swap1\n      0x0100\n      exp\n      swap1\n      div\n      0xff\n      and\n        /* \"JLoansFactory.sol\":14496:14524  loanStatus == Status.closing */\n      0x04\n      dup2\n      gt\n      iszero\n      tag_144\n      jumpi\n      invalid\n    tag_144:\n      eq\n        /* \"JLoansFactory.sol\":14488:14581  require(loanStatus == Status.closing, \"Loan status not compatible with foreclosing actions\" ) */\n      tag_145\n      jumpi\n      mload(0x40)\n      0x08c379a000000000000000000000000000000000000000000000000000000000\n      dup2\n      mstore\n      0x04\n      add\n      tag_146\n      swap1\n      tag_147\n      jump\t// in\n    tag_146:\n      mload(0x40)\n      dup1\n      swap2\n      sub\n      swap1\n      revert\n    tag_145:\n        /* \"JLoansFactory.sol\":14591:14594  _to */\n      dup1\n        /* \"JLoansFactory.sol\":14591:14603  _to.transfer */\n      0xffffffffffffffffffffffffffffffffffffffff\n      and\n        /* \"JLoansFactory.sol\":14591:14626  _to.transfer(address(this).balance) */\n      0x08fc\n        /* \"JLoansFactory.sol\":14604:14625  address(this).balance */\n      selfbalance\n        /* \"JLoansFactory.sol\":14591:14626  _to.transfer(address(this).balance) */\n      swap1\n      dup2\n      iszero\n      mul\n      swap1\n      mload(0x40)\n      0x00\n      mload(0x40)\n      dup1\n      dup4\n      sub\n      dup2\n      dup6\n      dup9\n      dup9\n      call\n      swap4\n      pop\n      pop\n      pop\n      pop\n      iszero\n      dup1\n      iszero\n      tag_149\n      jumpi\n      returndatasize\n      0x00\n      dup1\n      returndatacopy\n      revert(0x00, returndatasize)\n    tag_149:\n      pop\n        /* \"JLoansFactory.sol\":14402:14633  function withdrawEth(address payable _to) override public payable onlyOwner {... */\n      pop\n      jump\t// out\n        /* \"JLoansFactory.sol\":12109:12137  uint public lastDepositBlock */\n    tag_59:\n      sload(0x0d)\n      dup2\n      jump\t// out\n        /* \"JLoansFactory.sol\":12280:12312  IERC20 public cryptoFromBorrower */\n    tag_63:\n      0x12\n      0x00\n      swap1\n      sload\n      swap1\n      0x0100\n      exp\n      swap1\n      div\n      0xffffffffffffffffffffffffffffffffffffffff\n      and\n      dup2\n      jump\t// out\n        /* \"JLoansFactory.sol\":12318:12348  IERC20 public cryptoFromLender */\n    tag_68:\n      0x13\n      0x00\n      swap1\n      sload\n      swap1\n      0x0100\n      exp\n      swap1\n      div\n      0xffffffffffffffffffffffffffffffffffffffff\n      and\n      dup2\n      jump\t// out\n        /* \"JLoansFactory.sol\":11834:11882  address public jntContractAddress = address(0x1) */\n    tag_72:\n      0x01\n      0x00\n      swap1\n      sload\n      swap1\n      0x0100\n      exp\n      swap1\n      div\n      0xffffffffffffffffffffffffffffffffffffffff\n      and\n      dup2\n      jump\t// out\n        /* \"JLoansFactory.sol\":14931:15209  function lenderAcceptance(address _lenderAddress) override external onlyOwner{... */\n    tag_79:\n        /* \"JLoansFactory.sol\":7386:7398  _msgSender() */\n      tag_151\n        /* \"JLoansFactory.sol\":7386:7396  _msgSender */\n      tag_138\n        /* \"JLoansFactory.sol\":7386:7398  _msgSender() */\n      jump\t// in\n    tag_151:\n        /* \"JLoansFactory.sol\":7376:7398  _owner == _msgSender() */\n      0xffffffffffffffffffffffffffffffffffffffff\n      and\n        /* \"JLoansFactory.sol\":7376:7382  _owner */\n      0x00\n      dup1\n      sload\n      swap1\n      0x0100\n      exp\n      swap1\n      div\n      0xffffffffffffffffffffffffffffffffffffffff\n      and\n        /* \"JLoansFactory.sol\":7376:7398  _owner == _msgSender() */\n      0xffffffffffffffffffffffffffffffffffffffff\n      and\n      eq\n        /* \"JLoansFactory.sol\":7368:7435  require(_owner == _msgSender(), \"Ownable: caller is not the owner\") */\n      tag_152\n      jumpi\n      mload(0x40)\n      0x08c379a000000000000000000000000000000000000000000000000000000000\n      dup2\n      mstore\n      0x04\n      add\n      tag_153\n      swap1\n      tag_141\n      jump\t// in\n    tag_153:\n      mload(0x40)\n      dup1\n      swap2\n      sub\n      swap1\n      revert\n    tag_152:\n        /* \"JLoansFactory.sol\":15052:15053  0 */\n      0x00\n        /* \"JLoansFactory.sol\":15026:15054  _lenderAddress != address(0) */\n      0xffffffffffffffffffffffffffffffffffffffff\n      and\n        /* \"JLoansFactory.sol\":15026:15040  _lenderAddress */\n      dup2\n        /* \"JLoansFactory.sol\":15026:15054  _lenderAddress != address(0) */\n      0xffffffffffffffffffffffffffffffffffffffff\n      and\n      eq\n      iszero\n        /* \"JLoansFactory.sol\":15018:15078  require(_lenderAddress != address(0), \"Address not allowed\") */\n      tag_155\n      jumpi\n      mload(0x40)\n      0x08c379a000000000000000000000000000000000000000000000000000000000\n      dup2\n      mstore\n      0x04\n      add\n      tag_156\n      swap1\n      tag_157\n      jump\t// in\n    tag_156:\n      mload(0x40)\n      dup1\n      swap2\n      sub\n      swap1\n      revert\n    tag_155:\n        /* \"JLoansFactory.sol\":15088:15092  this */\n      address\n        /* \"JLoansFactory.sol\":15088:15110  this.transferOwnership */\n      0xffffffffffffffffffffffffffffffffffffffff\n      and\n      0xf2fde38b\n        /* \"JLoansFactory.sol\":15111:15125  _lenderAddress */\n      dup3\n        /* \"JLoansFactory.sol\":15088:15126  this.transferOwnership(_lenderAddress) */\n      mload(0x40)\n      dup3\n      0xffffffff\n      and\n      0xe0\n      shl\n      dup2\n      mstore\n      0x04\n      add\n      tag_158\n      swap2\n      swap1\n      tag_74\n      jump\t// in\n    tag_158:\n      0x00\n      mload(0x40)\n      dup1\n      dup4\n      sub\n      dup2\n      0x00\n      dup8\n      dup1\n      extcodesize\n      iszero\n      dup1\n      iszero\n      tag_159\n      jumpi\n      0x00\n      dup1\n      revert\n    tag_159:\n      pop\n      gas\n      call\n      iszero\n      dup1\n      iszero\n      tag_161\n      jumpi\n      returndatasize\n      0x00\n      dup1\n      returndatacopy\n      revert(0x00, returndatasize)\n    tag_161:\n      pop\n      pop\n      pop\n      pop\n        /* \"JLoansFactory.sol\":15154:15166  block.number */\n      number\n        /* \"JLoansFactory.sol\":15136:15151  loanActiveBlock */\n      0x0e\n        /* \"JLoansFactory.sol\":15136:15166  loanActiveBlock = block.number */\n      dup2\n      swap1\n      sstore\n      pop\n        /* \"JLoansFactory.sol\":15189:15202  Status.active */\n      0x01\n        /* \"JLoansFactory.sol\":15176:15186  loanStatus */\n      0x08\n      0x00\n        /* \"JLoansFactory.sol\":15176:15202  loanStatus = Status.active */\n      0x0100\n      exp\n      dup2\n      sload\n      dup2\n      0xff\n      mul\n      not\n      and\n      swap1\n      dup4\n      0x04\n      dup2\n      gt\n      iszero\n      tag_162\n      jumpi\n      invalid\n    tag_162:\n      mul\n      or\n      swap1\n      sstore\n      pop\n        /* \"JLoansFactory.sol\":14931:15209  function lenderAcceptance(address _lenderAddress) override external onlyOwner{... */\n      pop\n      jump\t// out\n        /* \"JLoansFactory.sol\":14639:14925  function getContractBalance() override external view returns (uint) {... */\n    tag_82:\n        /* \"JLoansFactory.sol\":14701:14705  uint */\n      0x00\n        /* \"JLoansFactory.sol\":14785:14809  abi.encodePacked(\"EURS\") */\n      add(0x20, mload(0x40))\n      tag_164\n      swap1\n      tag_165\n      jump\t// in\n    tag_164:\n      mload(0x40)\n      0x20\n      dup2\n      dup4\n      sub\n      sub\n      dup2\n      mstore\n      swap1\n      0x40\n      mstore\n        /* \"JLoansFactory.sol\":14775:14810  keccak256(abi.encodePacked(\"EURS\")) */\n      dup1\n      mload\n      swap1\n      0x20\n      add\n      keccak256\n        /* \"JLoansFactory.sol\":14749:14769  chosenBorrowedCrypto */\n      0x09\n        /* \"JLoansFactory.sol\":14732:14770  abi.encodePacked(chosenBorrowedCrypto) */\n      add(0x20, mload(0x40))\n      tag_166\n      swap2\n      swap1\n      tag_167\n      jump\t// in\n    tag_166:\n      mload(0x40)\n      0x20\n      dup2\n      dup4\n      sub\n      sub\n      dup2\n      mstore\n      swap1\n      0x40\n      mstore\n        /* \"JLoansFactory.sol\":14722:14771  keccak256(abi.encodePacked(chosenBorrowedCrypto)) */\n      dup1\n      mload\n      swap1\n      0x20\n      add\n      keccak256\n        /* \"JLoansFactory.sol\":14722:14810  keccak256(abi.encodePacked(chosenBorrowedCrypto)) == keccak256(abi.encodePacked(\"EURS\")) */\n      eq\n        /* \"JLoansFactory.sol\":14717:14919  if ( keccak256(abi.encodePacked(chosenBorrowedCrypto)) == keccak256(abi.encodePacked(\"EURS\")) ) {... */\n      iszero\n      tag_168\n      jumpi\n        /* \"JLoansFactory.sol\":14834:14849  borrowerBalance */\n      sload(0x10)\n        /* \"JLoansFactory.sol\":14827:14849  return borrowerBalance */\n      swap1\n      pop\n      jump(tag_163)\n        /* \"JLoansFactory.sol\":14717:14919  if ( keccak256(abi.encodePacked(chosenBorrowedCrypto)) == keccak256(abi.encodePacked(\"EURS\")) ) {... */\n    tag_168:\n        /* \"JLoansFactory.sol\":14887:14908  address(this).balance */\n      selfbalance\n        /* \"JLoansFactory.sol\":14880:14908  return address(this).balance */\n      swap1\n      pop\n        /* \"JLoansFactory.sol\":14639:14925  function getContractBalance() override external view returns (uint) {... */\n    tag_163:\n      swap1\n      jump\t// out\n        /* \"JLoansFactory.sol\":7795:7940  function renounceOwnership() public virtual onlyOwner {... */\n    tag_86:\n        /* \"JLoansFactory.sol\":7386:7398  _msgSender() */\n      tag_171\n        /* \"JLoansFactory.sol\":7386:7396  _msgSender */\n      tag_138\n        /* \"JLoansFactory.sol\":7386:7398  _msgSender() */\n      jump\t// in\n    tag_171:\n        /* \"JLoansFactory.sol\":7376:7398  _owner == _msgSender() */\n      0xffffffffffffffffffffffffffffffffffffffff\n      and\n        /* \"JLoansFactory.sol\":7376:7382  _owner */\n      0x00\n      dup1\n      sload\n      swap1\n      0x0100\n      exp\n      swap1\n      div\n      0xffffffffffffffffffffffffffffffffffffffff\n      and\n        /* \"JLoansFactory.sol\":7376:7398  _owner == _msgSender() */\n      0xffffffffffffffffffffffffffffffffffffffff\n      and\n      eq\n        /* \"JLoansFactory.sol\":7368:7435  require(_owner == _msgSender(), \"Ownable: caller is not the owner\") */\n      tag_172\n      jumpi\n      mload(0x40)\n      0x08c379a000000000000000000000000000000000000000000000000000000000\n      dup2\n      mstore\n      0x04\n      add\n      tag_173\n      swap1\n      tag_141\n      jump\t// in\n    tag_173:\n      mload(0x40)\n      dup1\n      swap2\n      sub\n      swap1\n      revert\n    tag_172:\n        /* \"JLoansFactory.sol\":7901:7902  0 */\n      0x00\n        /* \"JLoansFactory.sol\":7864:7904  OwnershipTransferred(_owner, address(0)) */\n      0xffffffffffffffffffffffffffffffffffffffff\n      and\n        /* \"JLoansFactory.sol\":7885:7891  _owner */\n      0x00\n      dup1\n      sload\n      swap1\n      0x0100\n      exp\n      swap1\n      div\n      0xffffffffffffffffffffffffffffffffffffffff\n      and\n        /* \"JLoansFactory.sol\":7864:7904  OwnershipTransferred(_owner, address(0)) */\n      0xffffffffffffffffffffffffffffffffffffffff\n      and\n      0x8be0079c531659141344cd1fd0a4f28419497f9722a3daafe3b4186f6b6457e0\n      mload(0x40)\n      mload(0x40)\n      dup1\n      swap2\n      sub\n      swap1\n      log3\n        /* \"JLoansFactory.sol\":7931:7932  0 */\n      0x00\n        /* \"JLoansFactory.sol\":7914:7920  _owner */\n      dup1\n      0x00\n        /* \"JLoansFactory.sol\":7914:7933  _owner = address(0) */\n      0x0100\n      exp\n      dup2\n      sload\n      dup2\n      0xffffffffffffffffffffffffffffffffffffffff\n      mul\n      not\n      and\n      swap1\n      dup4\n      0xffffffffffffffffffffffffffffffffffffffff\n      and\n      mul\n      or\n      swap1\n      sstore\n      pop\n        /* \"JLoansFactory.sol\":7795:7940  function renounceOwnership() public virtual onlyOwner {... */\n      jump\t// out\n        /* \"JLoansFactory.sol\":12176:12208  uint public loanForeclosureBlock */\n    tag_89:\n      sload(0x0f)\n      dup2\n      jump\t// out\n        /* \"JLoansFactory.sol\":12048:12071  uint public rpbInterest */\n    tag_93:\n      sload(0x0b)\n      dup2\n      jump\t// out\n        /* \"JLoansFactory.sol\":7172:7249  function owner() public view returns (address) {... */\n    tag_97:\n        /* \"JLoansFactory.sol\":7210:7217  address */\n      0x00\n        /* \"JLoansFactory.sol\":7236:7242  _owner */\n      dup1\n      0x00\n      swap1\n      sload\n      swap1\n      0x0100\n      exp\n      swap1\n      div\n      0xffffffffffffffffffffffffffffffffffffffff\n      and\n        /* \"JLoansFactory.sol\":7229:7242  return _owner */\n      swap1\n      pop\n        /* \"JLoansFactory.sol\":7172:7249  function owner() public view returns (address) {... */\n      swap1\n      jump\t// out\n        /* \"JLoansFactory.sol\":15215:15464  function loanForeClosure() override external onlyOwner {... */\n    tag_101:\n        /* \"JLoansFactory.sol\":7386:7398  _msgSender() */\n      tag_177\n        /* \"JLoansFactory.sol\":7386:7396  _msgSender */\n      tag_138\n        /* \"JLoansFactory.sol\":7386:7398  _msgSender() */\n      jump\t// in\n    tag_177:\n        /* \"JLoansFactory.sol\":7376:7398  _owner == _msgSender() */\n      0xffffffffffffffffffffffffffffffffffffffff\n      and\n        /* \"JLoansFactory.sol\":7376:7382  _owner */\n      0x00\n      dup1\n      sload\n      swap1\n      0x0100\n      exp\n      swap1\n      div\n      0xffffffffffffffffffffffffffffffffffffffff\n      and\n        /* \"JLoansFactory.sol\":7376:7398  _owner == _msgSender() */\n      0xffffffffffffffffffffffffffffffffffffffff\n      and\n      eq\n        /* \"JLoansFactory.sol\":7368:7435  require(_owner == _msgSender(), \"Ownable: caller is not the owner\") */\n      tag_178\n      jumpi\n      mload(0x40)\n      0x08c379a000000000000000000000000000000000000000000000000000000000\n      dup2\n      mstore\n      0x04\n      add\n      tag_179\n      swap1\n      tag_141\n      jump\t// in\n    tag_179:\n      mload(0x40)\n      dup1\n      swap2\n      sub\n      swap1\n      revert\n    tag_178:\n        /* \"JLoansFactory.sol\":15302:15315  Status.active */\n      0x01\n        /* \"JLoansFactory.sol\":15288:15315  loanStatus == Status.active */\n      0x04\n      dup2\n      gt\n      iszero\n      tag_181\n      jumpi\n      invalid\n    tag_181:\n        /* \"JLoansFactory.sol\":15288:15298  loanStatus */\n      0x08\n      0x00\n      swap1\n      sload\n      swap1\n      0x0100\n      exp\n      swap1\n      div\n      0xff\n      and\n        /* \"JLoansFactory.sol\":15288:15315  loanStatus == Status.active */\n      0x04\n      dup2\n      gt\n      iszero\n      tag_182\n      jumpi\n      invalid\n    tag_182:\n      eq\n        /* \"JLoansFactory.sol\":15280:15371  require(loanStatus == Status.active, \"Loan status not compatible with foreclosing actions\") */\n      tag_183\n      jumpi\n      mload(0x40)\n      0x08c379a000000000000000000000000000000000000000000000000000000000\n      dup2\n      mstore\n      0x04\n      add\n      tag_184\n      swap1\n      tag_147\n      jump\t// in\n    tag_184:\n      mload(0x40)\n      dup1\n      swap2\n      sub\n      swap1\n      revert\n    tag_183:\n        /* \"JLoansFactory.sol\":15404:15416  block.number */\n      number\n        /* \"JLoansFactory.sol\":15381:15401  loanForeclosureBlock */\n      0x0f\n        /* \"JLoansFactory.sol\":15381:15416  loanForeclosureBlock = block.number */\n      dup2\n      swap1\n      sstore\n      pop\n        /* \"JLoansFactory.sol\":15439:15457  Status.foreclosing */\n      0x02\n        /* \"JLoansFactory.sol\":15426:15436  loanStatus */\n      0x08\n      0x00\n        /* \"JLoansFactory.sol\":15426:15457  loanStatus = Status.foreclosing */\n      0x0100\n      exp\n      dup2\n      sload\n      dup2\n      0xff\n      mul\n      not\n      and\n      swap1\n      dup4\n      0x04\n      dup2\n      gt\n      iszero\n      tag_185\n      jumpi\n      invalid\n    tag_185:\n      mul\n      or\n      swap1\n      sstore\n      pop\n        /* \"JLoansFactory.sol\":15215:15464  function loanForeClosure() override external onlyOwner {... */\n      jump\t// out\n        /* \"JLoansFactory.sol\":11958:11992  string public chosenBorrowedCrypto */\n    tag_104:\n      0x09\n      dup1\n      sload\n      0x01\n      dup2\n      0x01\n      and\n      iszero\n      0x0100\n      mul\n      sub\n      and\n      0x02\n      swap1\n      div\n      dup1\n      0x1f\n      add\n      0x20\n      dup1\n      swap2\n      div\n      mul\n      0x20\n      add\n      mload(0x40)\n      swap1\n      dup2\n      add\n      0x40\n      mstore\n      dup1\n      swap3\n      swap2\n      swap1\n      dup2\n      dup2\n      mstore\n      0x20\n      add\n      dup3\n      dup1\n      sload\n      0x01\n      dup2\n      0x01\n      and\n      iszero\n      0x0100\n      mul\n      sub\n      and\n      0x02\n      swap1\n      div\n      dup1\n      iszero\n      tag_186\n      jumpi\n      dup1\n      0x1f\n      lt\n      tag_187\n      jumpi\n      0x0100\n      dup1\n      dup4\n      sload\n      div\n      mul\n      dup4\n      mstore\n      swap2\n      0x20\n      add\n      swap2\n      jump(tag_186)\n    tag_187:\n      dup3\n      add\n      swap2\n      swap1\n      0x00\n      mstore\n      keccak256(0x00, 0x20)\n      swap1\n    tag_188:\n      dup2\n      sload\n      dup2\n      mstore\n      swap1\n      0x01\n      add\n      swap1\n      0x20\n      add\n      dup1\n      dup4\n      gt\n      tag_188\n      jumpi\n      dup3\n      swap1\n      sub\n      0x1f\n      and\n      dup3\n      add\n      swap2\n    tag_186:\n      pop\n      pop\n      pop\n      pop\n      pop\n      dup2\n      jump\t// out\n        /* \"JLoansFactory.sol\":12143:12170  uint public loanActiveBlock */\n    tag_109:\n      sload(0x0e)\n      dup2\n      jump\t// out\n        /* \"JLoansFactory.sol\":13676:14306  function depositCollateral(uint _depositAmount) override public payable {... */\n    tag_114:\n        /* \"JLoansFactory.sol\":13826:13850  abi.encodePacked(\"EURS\") */\n      add(0x20, mload(0x40))\n      tag_190\n      swap1\n      tag_165\n      jump\t// in\n    tag_190:\n      mload(0x40)\n      0x20\n      dup2\n      dup4\n      sub\n      sub\n      dup2\n      mstore\n      swap1\n      0x40\n      mstore\n        /* \"JLoansFactory.sol\":13816:13851  keccak256(abi.encodePacked(\"EURS\")) */\n      dup1\n      mload\n      swap1\n      0x20\n      add\n      keccak256\n        /* \"JLoansFactory.sol\":13790:13810  chosenBorrowedCrypto */\n      0x09\n        /* \"JLoansFactory.sol\":13773:13811  abi.encodePacked(chosenBorrowedCrypto) */\n      add(0x20, mload(0x40))\n      tag_191\n      swap2\n      swap1\n      tag_167\n      jump\t// in\n    tag_191:\n      mload(0x40)\n      0x20\n      dup2\n      dup4\n      sub\n      sub\n      dup2\n      mstore\n      swap1\n      0x40\n      mstore\n        /* \"JLoansFactory.sol\":13763:13812  keccak256(abi.encodePacked(chosenBorrowedCrypto)) */\n      dup1\n      mload\n      swap1\n      0x20\n      add\n      keccak256\n        /* \"JLoansFactory.sol\":13763:13851  keccak256(abi.encodePacked(chosenBorrowedCrypto)) == keccak256(abi.encodePacked(\"EURS\")) */\n      eq\n        /* \"JLoansFactory.sol\":13758:14291  if ( keccak256(abi.encodePacked(chosenBorrowedCrypto)) == keccak256(abi.encodePacked(\"EURS\")) ) {... */\n      iszero\n      tag_192\n      jumpi\n        /* \"JLoansFactory.sol\":13920:13934  _depositAmount */\n      dup1\n        /* \"JLoansFactory.sol\":13876:13894  cryptoFromBorrower */\n      0x12\n      0x00\n      swap1\n      sload\n      swap1\n      0x0100\n      exp\n      swap1\n      div\n      0xffffffffffffffffffffffffffffffffffffffff\n      and\n        /* \"JLoansFactory.sol\":13876:13904  cryptoFromBorrower.balanceOf */\n      0xffffffffffffffffffffffffffffffffffffffff\n      and\n      0x70a08231\n        /* \"JLoansFactory.sol\":13905:13915  msg.sender */\n      caller\n        /* \"JLoansFactory.sol\":13876:13916  cryptoFromBorrower.balanceOf(msg.sender) */\n      mload(0x40)\n      dup3\n      0xffffffff\n      and\n      0xe0\n      shl\n      dup2\n      mstore\n      0x04\n      add\n      tag_193\n      swap2\n      swap1\n      tag_194\n      jump\t// in\n    tag_193:\n      0x20\n      mload(0x40)\n      dup1\n      dup4\n      sub\n      dup2\n      dup7\n      dup1\n      extcodesize\n      iszero\n      dup1\n      iszero\n      tag_195\n      jumpi\n      0x00\n      dup1\n      revert\n    tag_195:\n      pop\n      gas\n      staticcall\n      iszero\n      dup1\n      iszero\n      tag_197\n      jumpi\n      returndatasize\n      0x00\n      dup1\n      returndatacopy\n      revert(0x00, returndatasize)\n    tag_197:\n      pop\n      pop\n      pop\n      pop\n      mload(0x40)\n      returndatasize\n      not(0x1f)\n      0x1f\n      dup3\n      add\n      and\n      dup3\n      add\n      dup1\n      0x40\n      mstore\n      pop\n      dup2\n      add\n      swap1\n      tag_198\n      swap2\n      swap1\n      tag_199\n      jump\t// in\n    tag_198:\n        /* \"JLoansFactory.sol\":13876:13934  cryptoFromBorrower.balanceOf(msg.sender) >= _depositAmount */\n      lt\n      iszero\n        /* \"JLoansFactory.sol\":13868:13977  require(cryptoFromBorrower.balanceOf(msg.sender) >= _depositAmount, \"Not enough JNT tokens in sender wallet\") */\n      tag_200\n      jumpi\n      mload(0x40)\n      0x08c379a000000000000000000000000000000000000000000000000000000000\n      dup2\n      mstore\n      0x04\n      add\n      tag_201\n      swap1\n      tag_202\n      jump\t// in\n    tag_201:\n      mload(0x40)\n      dup1\n      swap2\n      sub\n      swap1\n      revert\n    tag_200:\n        /* \"JLoansFactory.sol\":13991:14009  cryptoFromBorrower */\n      0x12\n      0x00\n      swap1\n      sload\n      swap1\n      0x0100\n      exp\n      swap1\n      div\n      0xffffffffffffffffffffffffffffffffffffffff\n      and\n        /* \"JLoansFactory.sol\":13991:14022  cryptoFromBorrower.transferFrom */\n      0xffffffffffffffffffffffffffffffffffffffff\n      and\n      0x23b872dd\n        /* \"JLoansFactory.sol\":14023:14033  msg.sender */\n      caller\n        /* \"JLoansFactory.sol\":14043:14047  this */\n      address\n        /* \"JLoansFactory.sol\":14050:14064  _depositAmount */\n      dup5\n        /* \"JLoansFactory.sol\":13991:14065  cryptoFromBorrower.transferFrom(msg.sender, address(this), _depositAmount) */\n      mload(0x40)\n      dup5\n      0xffffffff\n      and\n      0xe0\n      shl\n      dup2\n      mstore\n      0x04\n      add\n      tag_203\n      swap4\n      swap3\n      swap2\n      swap1\n      tag_204\n      jump\t// in\n    tag_203:\n      0x20\n      mload(0x40)\n      dup1\n      dup4\n      sub\n      dup2\n      0x00\n      dup8\n      dup1\n      extcodesize\n      iszero\n      dup1\n      iszero\n      tag_205\n      jumpi\n      0x00\n      dup1\n      revert\n    tag_205:\n      pop\n      gas\n      call\n      iszero\n      dup1\n      iszero\n      tag_207\n      jumpi\n      returndatasize\n      0x00\n      dup1\n      returndatacopy\n      revert(0x00, returndatasize)\n    tag_207:\n      pop\n      pop\n      pop\n      pop\n      mload(0x40)\n      returndatasize\n      not(0x1f)\n      0x1f\n      dup3\n      add\n      and\n      dup3\n      add\n      dup1\n      0x40\n      mstore\n      pop\n      dup2\n      add\n      swap1\n      tag_208\n      swap2\n      swap1\n      tag_209\n      jump\t// in\n    tag_208:\n      pop\n        /* \"JLoansFactory.sol\":14097:14132  borrowerBalance.add(_depositAmount) */\n      tag_210\n        /* \"JLoansFactory.sol\":14117:14131  _depositAmount */\n      dup2\n        /* \"JLoansFactory.sol\":14097:14112  borrowerBalance */\n      sload(0x10)\n        /* \"JLoansFactory.sol\":14097:14116  borrowerBalance.add */\n      tag_211\n      swap1\n        /* \"JLoansFactory.sol\":14097:14132  borrowerBalance.add(_depositAmount) */\n      swap2\n      swap1\n      0xffffffff\n      and\n      jump\t// in\n    tag_210:\n        /* \"JLoansFactory.sol\":14079:14094  borrowerBalance */\n      0x10\n        /* \"JLoansFactory.sol\":14079:14132  borrowerBalance = borrowerBalance.add(_depositAmount) */\n      dup2\n      swap1\n      sstore\n      pop\n        /* \"JLoansFactory.sol\":14165:14177  block.number */\n      number\n        /* \"JLoansFactory.sol\":14146:14162  lastDepositBlock */\n      0x0d\n        /* \"JLoansFactory.sol\":14146:14177  lastDepositBlock = block.number */\n      dup2\n      swap1\n      sstore\n      pop\n        /* \"JLoansFactory.sol\":14196:14222  newDeposit(_depositAmount) */\n      0x3f478372607b68e147b903a0b92f830c8d6468755dc7ac8ac400b95f3d987e4f\n        /* \"JLoansFactory.sol\":14207:14221  _depositAmount */\n      dup2\n        /* \"JLoansFactory.sol\":14196:14222  newDeposit(_depositAmount) */\n      mload(0x40)\n      tag_212\n      swap2\n      swap1\n      tag_48\n      jump\t// in\n    tag_212:\n      mload(0x40)\n      dup1\n      swap2\n      sub\n      swap1\n      log1\n        /* \"JLoansFactory.sol\":13758:14291  if ( keccak256(abi.encodePacked(chosenBorrowedCrypto)) == keccak256(abi.encodePacked(\"EURS\")) ) {... */\n      jump(tag_213)\n    tag_192:\n        /* \"JLoansFactory.sol\":14252:14280  revert(\"Not accepted token\") */\n      mload(0x40)\n      0x08c379a000000000000000000000000000000000000000000000000000000000\n      dup2\n      mstore\n      0x04\n      add\n      tag_214\n      swap1\n      tag_215\n      jump\t// in\n    tag_214:\n      mload(0x40)\n      dup1\n      swap2\n      sub\n      swap1\n      revert\n        /* \"JLoansFactory.sol\":13758:14291  if ( keccak256(abi.encodePacked(chosenBorrowedCrypto)) == keccak256(abi.encodePacked(\"EURS\")) ) {... */\n    tag_213:\n        /* \"JLoansFactory.sol\":13676:14306  function depositCollateral(uint _depositAmount) override public payable {... */\n      pop\n      jump\t// out\n        /* \"JLoansFactory.sol\":15470:15594  function setNewParams(params memory _newLoanParams) override public onlyFactory {... */\n    tag_119:\n        /* \"JLoansFactory.sol\":13614:13628  factoryAddress */\n      0x14\n      0x00\n      swap1\n      sload\n      swap1\n      0x0100\n      exp\n      swap1\n      div\n      0xffffffffffffffffffffffffffffffffffffffff\n      and\n        /* \"JLoansFactory.sol\":13600:13628  msg.sender == factoryAddress */\n      0xffffffffffffffffffffffffffffffffffffffff\n      and\n        /* \"JLoansFactory.sol\":13600:13610  msg.sender */\n      caller\n        /* \"JLoansFactory.sol\":13600:13628  msg.sender == factoryAddress */\n      0xffffffffffffffffffffffffffffffffffffffff\n      and\n      eq\n        /* \"JLoansFactory.sol\":13592:13652  require(msg.sender == factoryAddress, \"Address not allowed\") */\n      tag_217\n      jumpi\n      mload(0x40)\n      0x08c379a000000000000000000000000000000000000000000000000000000000\n      dup2\n      mstore\n      0x04\n      add\n      tag_218\n      swap1\n      tag_157\n      jump\t// in\n    tag_218:\n      mload(0x40)\n      dup1\n      swap2\n      sub\n      swap1\n      revert\n    tag_217:\n        /* \"JLoansFactory.sol\":15573:15587  _newLoanParams */\n      dup1\n        /* \"JLoansFactory.sol\":15560:15570  loanParams */\n      0x02\n        /* \"JLoansFactory.sol\":15560:15587  loanParams = _newLoanParams */\n      0x00\n      dup3\n      add\n      mload\n      dup2\n      0x00\n      add\n      sstore\n      0x20\n      dup3\n      add\n      mload\n      dup2\n      0x01\n      add\n      sstore\n      0x40\n      dup3\n      add\n      mload\n      dup2\n      0x02\n      add\n      sstore\n      0x60\n      dup3\n      add\n      mload\n      dup2\n      0x03\n      add\n      sstore\n      0x80\n      dup3\n      add\n      mload\n      dup2\n      0x04\n      add\n      sstore\n      0xa0\n      dup3\n      add\n      mload\n      dup2\n      0x05\n      add\n      sstore\n      swap1\n      pop\n      pop\n        /* \"JLoansFactory.sol\":15470:15594  function setNewParams(params memory _newLoanParams) override public onlyFactory {... */\n      pop\n      jump\t// out\n        /* \"JLoansFactory.sol\":12013:12042  uint public askedBorrowAmount */\n    tag_122:\n      sload(0x0a)\n      dup2\n      jump\t// out\n        /* \"JLoansFactory.sol\":13403:13553  function testToken(address _tkn) override external {... */\n    tag_127:\n        /* \"JLoansFactory.sol\":13485:13489  _tkn */\n      dup1\n        /* \"JLoansFactory.sol\":13464:13482  jntContractAddress */\n      0x01\n      0x00\n        /* \"JLoansFactory.sol\":13464:13489  jntContractAddress = _tkn */\n      0x0100\n      exp\n      dup2\n      sload\n      dup2\n      0xffffffffffffffffffffffffffffffffffffffff\n      mul\n      not\n      and\n      swap1\n      dup4\n      0xffffffffffffffffffffffffffffffffffffffff\n      and\n      mul\n      or\n      swap1\n      sstore\n      pop\n        /* \"JLoansFactory.sol\":13527:13545  jntContractAddress */\n      0x01\n      0x00\n      swap1\n      sload\n      swap1\n      0x0100\n      exp\n      swap1\n      div\n      0xffffffffffffffffffffffffffffffffffffffff\n      and\n        /* \"JLoansFactory.sol\":13499:13517  cryptoFromBorrower */\n      0x12\n      0x00\n        /* \"JLoansFactory.sol\":13499:13546  cryptoFromBorrower = IERC20(jntContractAddress) */\n      0x0100\n      exp\n      dup2\n      sload\n      dup2\n      0xffffffffffffffffffffffffffffffffffffffff\n      mul\n      not\n      and\n      swap1\n      dup4\n      0xffffffffffffffffffffffffffffffffffffffff\n      and\n      mul\n      or\n      swap1\n      sstore\n      pop\n        /* \"JLoansFactory.sol\":13403:13553  function testToken(address _tkn) override external {... */\n      pop\n      jump\t// out\n        /* \"JLoansFactory.sol\":12248:12273  uint public lenderBalance */\n    tag_130:\n      sload(0x11)\n      dup2\n      jump\t// out\n        /* \"JLoansFactory.sol\":8089:8329  function transferOwnership(address newOwner) public virtual onlyOwner {... */\n    tag_135:\n        /* \"JLoansFactory.sol\":7386:7398  _msgSender() */\n      tag_222\n        /* \"JLoansFactory.sol\":7386:7396  _msgSender */\n      tag_138\n        /* \"JLoansFactory.sol\":7386:7398  _msgSender() */\n      jump\t// in\n    tag_222:\n        /* \"JLoansFactory.sol\":7376:7398  _owner == _msgSender() */\n      0xffffffffffffffffffffffffffffffffffffffff\n      and\n        /* \"JLoansFactory.sol\":7376:7382  _owner */\n      0x00\n      dup1\n      sload\n      swap1\n      0x0100\n      exp\n      swap1\n      div\n      0xffffffffffffffffffffffffffffffffffffffff\n      and\n        /* \"JLoansFactory.sol\":7376:7398  _owner == _msgSender() */\n      0xffffffffffffffffffffffffffffffffffffffff\n      and\n      eq\n        /* \"JLoansFactory.sol\":7368:7435  require(_owner == _msgSender(), \"Ownable: caller is not the owner\") */\n      tag_223\n      jumpi\n      mload(0x40)\n      0x08c379a000000000000000000000000000000000000000000000000000000000\n      dup2\n      mstore\n      0x04\n      add\n      tag_224\n      swap1\n      tag_141\n      jump\t// in\n    tag_224:\n      mload(0x40)\n      dup1\n      swap2\n      sub\n      swap1\n      revert\n    tag_223:\n        /* \"JLoansFactory.sol\":8197:8198  0 */\n      0x00\n        /* \"JLoansFactory.sol\":8177:8199  newOwner != address(0) */\n      0xffffffffffffffffffffffffffffffffffffffff\n      and\n        /* \"JLoansFactory.sol\":8177:8185  newOwner */\n      dup2\n        /* \"JLoansFactory.sol\":8177:8199  newOwner != address(0) */\n      0xffffffffffffffffffffffffffffffffffffffff\n      and\n      eq\n      iszero\n        /* \"JLoansFactory.sol\":8169:8242  require(newOwner != address(0), \"Ownable: new owner is the zero address\") */\n      tag_226\n      jumpi\n      mload(0x40)\n      0x08c379a000000000000000000000000000000000000000000000000000000000\n      dup2\n      mstore\n      0x04\n      add\n      tag_227\n      swap1\n      tag_228\n      jump\t// in\n    tag_227:\n      mload(0x40)\n      dup1\n      swap2\n      sub\n      swap1\n      revert\n    tag_226:\n        /* \"JLoansFactory.sol\":8286:8294  newOwner */\n      dup1\n        /* \"JLoansFactory.sol\":8257:8295  OwnershipTransferred(_owner, newOwner) */\n      0xffffffffffffffffffffffffffffffffffffffff\n      and\n        /* \"JLoansFactory.sol\":8278:8284  _owner */\n      0x00\n      dup1\n      sload\n      swap1\n      0x0100\n      exp\n      swap1\n      div\n      0xffffffffffffffffffffffffffffffffffffffff\n      and\n        /* \"JLoansFactory.sol\":8257:8295  OwnershipTransferred(_owner, newOwner) */\n      0xffffffffffffffffffffffffffffffffffffffff\n      and\n      0x8be0079c531659141344cd1fd0a4f28419497f9722a3daafe3b4186f6b6457e0\n      mload(0x40)\n      mload(0x40)\n      dup1\n      swap2\n      sub\n      swap1\n      log3\n        /* \"JLoansFactory.sol\":8314:8322  newOwner */\n      dup1\n        /* \"JLoansFactory.sol\":8305:8311  _owner */\n      0x00\n      dup1\n        /* \"JLoansFactory.sol\":8305:8322  _owner = newOwner */\n      0x0100\n      exp\n      dup2\n      sload\n      dup2\n      0xffffffffffffffffffffffffffffffffffffffff\n      mul\n      not\n      and\n      swap1\n      dup4\n      0xffffffffffffffffffffffffffffffffffffffff\n      and\n      mul\n      or\n      swap1\n      sstore\n      pop\n        /* \"JLoansFactory.sol\":8089:8329  function transferOwnership(address newOwner) public virtual onlyOwner {... */\n      pop\n      jump\t// out\n        /* \"JLoansFactory.sol\":5738:5842  function _msgSender() internal view virtual returns (address payable) {... */\n    tag_138:\n        /* \"JLoansFactory.sol\":5791:5806  address payable */\n      0x00\n        /* \"JLoansFactory.sol\":5825:5835  msg.sender */\n      caller\n        /* \"JLoansFactory.sol\":5818:5835  return msg.sender */\n      swap1\n      pop\n        /* \"JLoansFactory.sol\":5738:5842  function _msgSender() internal view virtual returns (address payable) {... */\n      swap1\n      jump\t// out\n        /* \"JLoansFactory.sol\":877:1053  function add(uint256 a, uint256 b) internal pure returns (uint256) {... */\n    tag_211:\n        /* \"JLoansFactory.sol\":935:942  uint256 */\n      0x00\n        /* \"JLoansFactory.sol\":954:963  uint256 c */\n      dup1\n        /* \"JLoansFactory.sol\":970:971  b */\n      dup3\n        /* \"JLoansFactory.sol\":966:967  a */\n      dup5\n        /* \"JLoansFactory.sol\":966:971  a + b */\n      add\n        /* \"JLoansFactory.sol\":954:971  uint256 c = a + b */\n      swap1\n      pop\n        /* \"JLoansFactory.sol\":994:995  a */\n      dup4\n        /* \"JLoansFactory.sol\":989:990  c */\n      dup2\n        /* \"JLoansFactory.sol\":989:995  c >= a */\n      lt\n      iszero\n        /* \"JLoansFactory.sol\":981:1027  require(c >= a, \"SafeMath: addition overflow\") */\n      tag_231\n      jumpi\n      mload(0x40)\n      0x08c379a000000000000000000000000000000000000000000000000000000000\n      dup2\n      mstore\n      0x04\n      add\n      tag_232\n      swap1\n      tag_233\n      jump\t// in\n    tag_232:\n      mload(0x40)\n      dup1\n      swap2\n      sub\n      swap1\n      revert\n    tag_231:\n        /* \"JLoansFactory.sol\":1045:1046  c */\n      dup1\n        /* \"JLoansFactory.sol\":1038:1046  return c */\n      swap2\n      pop\n      pop\n        /* \"JLoansFactory.sol\":877:1053  function add(uint256 a, uint256 b) internal pure returns (uint256) {... */\n      swap3\n      swap2\n      pop\n      pop\n      jump\t// out\n        /* \"--CODEGEN--\":5:135   */\n    tag_235:\n      0x00\n        /* \"--CODEGEN--\":85:91   */\n      dup2\n        /* \"--CODEGEN--\":72:92   */\n      calldataload\n        /* \"--CODEGEN--\":63:92   */\n      swap1\n      pop\n        /* \"--CODEGEN--\":97:130   */\n      tag_237\n        /* \"--CODEGEN--\":124:129   */\n      dup2\n        /* \"--CODEGEN--\":97:130   */\n      tag_238\n      jump\t// in\n    tag_237:\n        /* \"--CODEGEN--\":57:135   */\n      swap3\n      swap2\n      pop\n      pop\n      jump\t// out\n        /* \"--CODEGEN--\":142:288   */\n    tag_239:\n      0x00\n        /* \"--CODEGEN--\":230:236   */\n      dup2\n        /* \"--CODEGEN--\":217:237   */\n      calldataload\n        /* \"--CODEGEN--\":208:237   */\n      swap1\n      pop\n        /* \"--CODEGEN--\":242:283   */\n      tag_241\n        /* \"--CODEGEN--\":277:282   */\n      dup2\n        /* \"--CODEGEN--\":242:283   */\n      tag_242\n      jump\t// in\n    tag_241:\n        /* \"--CODEGEN--\":202:288   */\n      swap3\n      swap2\n      pop\n      pop\n      jump\t// out\n        /* \"--CODEGEN--\":295:423   */\n    tag_243:\n      0x00\n        /* \"--CODEGEN--\":376:382   */\n      dup2\n        /* \"--CODEGEN--\":370:383   */\n      mload\n        /* \"--CODEGEN--\":361:383   */\n      swap1\n      pop\n        /* \"--CODEGEN--\":388:418   */\n      tag_245\n        /* \"--CODEGEN--\":412:417   */\n      dup2\n        /* \"--CODEGEN--\":388:418   */\n      tag_246\n      jump\t// in\n    tag_245:\n        /* \"--CODEGEN--\":355:423   */\n      swap3\n      swap2\n      pop\n      pop\n      jump\t// out\n        /* \"--CODEGEN--\":457:1577   */\n    tag_247:\n      0x00\n        /* \"--CODEGEN--\":569:573   */\n      0xc0\n        /* \"--CODEGEN--\":557:566   */\n      dup3\n        /* \"--CODEGEN--\":552:555   */\n      dup5\n        /* \"--CODEGEN--\":548:567   */\n      sub\n        /* \"--CODEGEN--\":544:574   */\n      slt\n        /* \"--CODEGEN--\":541:543   */\n      iszero\n      tag_249\n      jumpi\n        /* \"--CODEGEN--\":587:588   */\n      0x00\n        /* \"--CODEGEN--\":584:585   */\n      dup1\n        /* \"--CODEGEN--\":577:589   */\n      revert\n        /* \"--CODEGEN--\":541:543   */\n    tag_249:\n        /* \"--CODEGEN--\":605:625   */\n      tag_250\n        /* \"--CODEGEN--\":620:624   */\n      0xc0\n        /* \"--CODEGEN--\":605:625   */\n      tag_251\n      jump\t// in\n    tag_250:\n        /* \"--CODEGEN--\":596:625   */\n      swap1\n      pop\n        /* \"--CODEGEN--\":677:678   */\n      0x00\n        /* \"--CODEGEN--\":709:758   */\n      tag_252\n        /* \"--CODEGEN--\":754:757   */\n      dup5\n        /* \"--CODEGEN--\":745:751   */\n      dup3\n        /* \"--CODEGEN--\":734:743   */\n      dup6\n        /* \"--CODEGEN--\":730:752   */\n      add\n        /* \"--CODEGEN--\":709:758   */\n      tag_253\n      jump\t// in\n    tag_252:\n        /* \"--CODEGEN--\":702:706   */\n      0x00\n        /* \"--CODEGEN--\":695:700   */\n      dup4\n        /* \"--CODEGEN--\":691:707   */\n      add\n        /* \"--CODEGEN--\":684:759   */\n      mstore\n        /* \"--CODEGEN--\":635:770   */\n      pop\n        /* \"--CODEGEN--\":837:839   */\n      0x20\n        /* \"--CODEGEN--\":870:919   */\n      tag_254\n        /* \"--CODEGEN--\":915:918   */\n      dup5\n        /* \"--CODEGEN--\":906:912   */\n      dup3\n        /* \"--CODEGEN--\":895:904   */\n      dup6\n        /* \"--CODEGEN--\":891:913   */\n      add\n        /* \"--CODEGEN--\":870:919   */\n      tag_253\n      jump\t// in\n    tag_254:\n        /* \"--CODEGEN--\":863:867   */\n      0x20\n        /* \"--CODEGEN--\":856:861   */\n      dup4\n        /* \"--CODEGEN--\":852:868   */\n      add\n        /* \"--CODEGEN--\":845:920   */\n      mstore\n        /* \"--CODEGEN--\":780:931   */\n      pop\n        /* \"--CODEGEN--\":994:996   */\n      0x40\n        /* \"--CODEGEN--\":1027:1076   */\n      tag_255\n        /* \"--CODEGEN--\":1072:1075   */\n      dup5\n        /* \"--CODEGEN--\":1063:1069   */\n      dup3\n        /* \"--CODEGEN--\":1052:1061   */\n      dup6\n        /* \"--CODEGEN--\":1048:1070   */\n      add\n        /* \"--CODEGEN--\":1027:1076   */\n      tag_253\n      jump\t// in\n    tag_255:\n        /* \"--CODEGEN--\":1020:1024   */\n      0x40\n        /* \"--CODEGEN--\":1013:1018   */\n      dup4\n        /* \"--CODEGEN--\":1009:1025   */\n      add\n        /* \"--CODEGEN--\":1002:1077   */\n      mstore\n        /* \"--CODEGEN--\":941:1088   */\n      pop\n        /* \"--CODEGEN--\":1150:1152   */\n      0x60\n        /* \"--CODEGEN--\":1183:1232   */\n      tag_256\n        /* \"--CODEGEN--\":1228:1231   */\n      dup5\n        /* \"--CODEGEN--\":1219:1225   */\n      dup3\n        /* \"--CODEGEN--\":1208:1217   */\n      dup6\n        /* \"--CODEGEN--\":1204:1226   */\n      add\n        /* \"--CODEGEN--\":1183:1232   */\n      tag_253\n      jump\t// in\n    tag_256:\n        /* \"--CODEGEN--\":1176:1180   */\n      0x60\n        /* \"--CODEGEN--\":1169:1174   */\n      dup4\n        /* \"--CODEGEN--\":1165:1181   */\n      add\n        /* \"--CODEGEN--\":1158:1233   */\n      mstore\n        /* \"--CODEGEN--\":1098:1244   */\n      pop\n        /* \"--CODEGEN--\":1313:1316   */\n      0x80\n        /* \"--CODEGEN--\":1347:1396   */\n      tag_257\n        /* \"--CODEGEN--\":1392:1395   */\n      dup5\n        /* \"--CODEGEN--\":1383:1389   */\n      dup3\n        /* \"--CODEGEN--\":1372:1381   */\n      dup6\n        /* \"--CODEGEN--\":1368:1390   */\n      add\n        /* \"--CODEGEN--\":1347:1396   */\n      tag_253\n      jump\t// in\n    tag_257:\n        /* \"--CODEGEN--\":1340:1344   */\n      0x80\n        /* \"--CODEGEN--\":1333:1338   */\n      dup4\n        /* \"--CODEGEN--\":1329:1345   */\n      add\n        /* \"--CODEGEN--\":1322:1397   */\n      mstore\n        /* \"--CODEGEN--\":1254:1408   */\n      pop\n        /* \"--CODEGEN--\":1472:1475   */\n      0xa0\n        /* \"--CODEGEN--\":1506:1555   */\n      tag_258\n        /* \"--CODEGEN--\":1551:1554   */\n      dup5\n        /* \"--CODEGEN--\":1542:1548   */\n      dup3\n        /* \"--CODEGEN--\":1531:1540   */\n      dup6\n        /* \"--CODEGEN--\":1527:1549   */\n      add\n        /* \"--CODEGEN--\":1506:1555   */\n      tag_253\n      jump\t// in\n    tag_258:\n        /* \"--CODEGEN--\":1499:1503   */\n      0xa0\n        /* \"--CODEGEN--\":1492:1497   */\n      dup4\n        /* \"--CODEGEN--\":1488:1504   */\n      add\n        /* \"--CODEGEN--\":1481:1556   */\n      mstore\n        /* \"--CODEGEN--\":1418:1567   */\n      pop\n        /* \"--CODEGEN--\":535:1577   */\n      swap3\n      swap2\n      pop\n      pop\n      jump\t// out\n        /* \"--CODEGEN--\":1584:1714   */\n    tag_253:\n      0x00\n        /* \"--CODEGEN--\":1664:1670   */\n      dup2\n        /* \"--CODEGEN--\":1651:1671   */\n      calldataload\n        /* \"--CODEGEN--\":1642:1671   */\n      swap1\n      pop\n        /* \"--CODEGEN--\":1676:1709   */\n      tag_260\n        /* \"--CODEGEN--\":1703:1708   */\n      dup2\n        /* \"--CODEGEN--\":1676:1709   */\n      tag_261\n      jump\t// in\n    tag_260:\n        /* \"--CODEGEN--\":1636:1714   */\n      swap3\n      swap2\n      pop\n      pop\n      jump\t// out\n        /* \"--CODEGEN--\":1721:1855   */\n    tag_262:\n      0x00\n        /* \"--CODEGEN--\":1805:1811   */\n      dup2\n        /* \"--CODEGEN--\":1799:1812   */\n      mload\n        /* \"--CODEGEN--\":1790:1812   */\n      swap1\n      pop\n        /* \"--CODEGEN--\":1817:1850   */\n      tag_264\n        /* \"--CODEGEN--\":1844:1849   */\n      dup2\n        /* \"--CODEGEN--\":1817:1850   */\n      tag_261\n      jump\t// in\n    tag_264:\n        /* \"--CODEGEN--\":1784:1855   */\n      swap3\n      swap2\n      pop\n      pop\n      jump\t// out\n        /* \"--CODEGEN--\":1862:2103   */\n    tag_78:\n      0x00\n        /* \"--CODEGEN--\":1966:1968   */\n      0x20\n        /* \"--CODEGEN--\":1954:1963   */\n      dup3\n        /* \"--CODEGEN--\":1945:1952   */\n      dup5\n        /* \"--CODEGEN--\":1941:1964   */\n      sub\n        /* \"--CODEGEN--\":1937:1969   */\n      slt\n        /* \"--CODEGEN--\":1934:1936   */\n      iszero\n      tag_266\n      jumpi\n        /* \"--CODEGEN--\":1982:1983   */\n      0x00\n        /* \"--CODEGEN--\":1979:1980   */\n      dup1\n        /* \"--CODEGEN--\":1972:1984   */\n      revert\n        /* \"--CODEGEN--\":1934:1936   */\n    tag_266:\n        /* \"--CODEGEN--\":2017:2018   */\n      0x00\n        /* \"--CODEGEN--\":2034:2087   */\n      tag_267\n        /* \"--CODEGEN--\":2079:2086   */\n      dup5\n        /* \"--CODEGEN--\":2070:2076   */\n      dup3\n        /* \"--CODEGEN--\":2059:2068   */\n      dup6\n        /* \"--CODEGEN--\":2055:2077   */\n      add\n        /* \"--CODEGEN--\":2034:2087   */\n      tag_235\n      jump\t// in\n    tag_267:\n        /* \"--CODEGEN--\":2024:2087   */\n      swap2\n      pop\n        /* \"--CODEGEN--\":1996:2093   */\n      pop\n        /* \"--CODEGEN--\":1928:2103   */\n      swap3\n      swap2\n      pop\n      pop\n      jump\t// out\n        /* \"--CODEGEN--\":2110:2367   */\n    tag_55:\n      0x00\n        /* \"--CODEGEN--\":2222:2224   */\n      0x20\n        /* \"--CODEGEN--\":2210:2219   */\n      dup3\n        /* \"--CODEGEN--\":2201:2208   */\n      dup5\n        /* \"--CODEGEN--\":2197:2220   */\n      sub\n        /* \"--CODEGEN--\":2193:2225   */\n      slt\n        /* \"--CODEGEN--\":2190:2192   */\n      iszero\n      tag_269\n      jumpi\n        /* \"--CODEGEN--\":2238:2239   */\n      0x00\n        /* \"--CODEGEN--\":2235:2236   */\n      dup1\n        /* \"--CODEGEN--\":2228:2240   */\n      revert\n        /* \"--CODEGEN--\":2190:2192   */\n    tag_269:\n        /* \"--CODEGEN--\":2273:2274   */\n      0x00\n        /* \"--CODEGEN--\":2290:2351   */\n      tag_270\n        /* \"--CODEGEN--\":2343:2350   */\n      dup5\n        /* \"--CODEGEN--\":2334:2340   */\n      dup3\n        /* \"--CODEGEN--\":2323:2332   */\n      dup6\n        /* \"--CODEGEN--\":2319:2341   */\n      add\n        /* \"--CODEGEN--\":2290:2351   */\n      tag_239\n      jump\t// in\n    tag_270:\n        /* \"--CODEGEN--\":2280:2351   */\n      swap2\n      pop\n        /* \"--CODEGEN--\":2252:2357   */\n      pop\n        /* \"--CODEGEN--\":2184:2367   */\n      swap3\n      swap2\n      pop\n      pop\n      jump\t// out\n        /* \"--CODEGEN--\":2374:2631   */\n    tag_209:\n      0x00\n        /* \"--CODEGEN--\":2486:2488   */\n      0x20\n        /* \"--CODEGEN--\":2474:2483   */\n      dup3\n        /* \"--CODEGEN--\":2465:2472   */\n      dup5\n        /* \"--CODEGEN--\":2461:2484   */\n      sub\n        /* \"--CODEGEN--\":2457:2489   */\n      slt\n        /* \"--CODEGEN--\":2454:2456   */\n      iszero\n      tag_272\n      jumpi\n        /* \"--CODEGEN--\":2502:2503   */\n      0x00\n        /* \"--CODEGEN--\":2499:2500   */\n      dup1\n        /* \"--CODEGEN--\":2492:2504   */\n      revert\n        /* \"--CODEGEN--\":2454:2456   */\n    tag_272:\n        /* \"--CODEGEN--\":2537:2538   */\n      0x00\n        /* \"--CODEGEN--\":2554:2615   */\n      tag_273\n        /* \"--CODEGEN--\":2607:2614   */\n      dup5\n        /* \"--CODEGEN--\":2598:2604   */\n      dup3\n        /* \"--CODEGEN--\":2587:2596   */\n      dup6\n        /* \"--CODEGEN--\":2583:2605   */\n      add\n        /* \"--CODEGEN--\":2554:2615   */\n      tag_243\n      jump\t// in\n    tag_273:\n        /* \"--CODEGEN--\":2544:2615   */\n      swap2\n      pop\n        /* \"--CODEGEN--\":2516:2621   */\n      pop\n        /* \"--CODEGEN--\":2448:2631   */\n      swap3\n      swap2\n      pop\n      pop\n      jump\t// out\n        /* \"--CODEGEN--\":2638:2926   */\n    tag_118:\n      0x00\n        /* \"--CODEGEN--\":2765:2768   */\n      0xc0\n        /* \"--CODEGEN--\":2753:2762   */\n      dup3\n        /* \"--CODEGEN--\":2744:2751   */\n      dup5\n        /* \"--CODEGEN--\":2740:2763   */\n      sub\n        /* \"--CODEGEN--\":2736:2769   */\n      slt\n        /* \"--CODEGEN--\":2733:2735   */\n      iszero\n      tag_275\n      jumpi\n        /* \"--CODEGEN--\":2782:2783   */\n      0x00\n        /* \"--CODEGEN--\":2779:2780   */\n      dup1\n        /* \"--CODEGEN--\":2772:2784   */\n      revert\n        /* \"--CODEGEN--\":2733:2735   */\n    tag_275:\n        /* \"--CODEGEN--\":2817:2818   */\n      0x00\n        /* \"--CODEGEN--\":2834:2910   */\n      tag_276\n        /* \"--CODEGEN--\":2902:2909   */\n      dup5\n        /* \"--CODEGEN--\":2893:2899   */\n      dup3\n        /* \"--CODEGEN--\":2882:2891   */\n      dup6\n        /* \"--CODEGEN--\":2878:2900   */\n      add\n        /* \"--CODEGEN--\":2834:2910   */\n      tag_247\n      jump\t// in\n    tag_276:\n        /* \"--CODEGEN--\":2824:2910   */\n      swap2\n      pop\n        /* \"--CODEGEN--\":2796:2916   */\n      pop\n        /* \"--CODEGEN--\":2727:2926   */\n      swap3\n      swap2\n      pop\n      pop\n      jump\t// out\n        /* \"--CODEGEN--\":2933:3174   */\n    tag_113:\n      0x00\n        /* \"--CODEGEN--\":3037:3039   */\n      0x20\n        /* \"--CODEGEN--\":3025:3034   */\n      dup3\n        /* \"--CODEGEN--\":3016:3023   */\n      dup5\n        /* \"--CODEGEN--\":3012:3035   */\n      sub\n        /* \"--CODEGEN--\":3008:3040   */\n      slt\n        /* \"--CODEGEN--\":3005:3007   */\n      iszero\n      tag_278\n      jumpi\n        /* \"--CODEGEN--\":3053:3054   */\n      0x00\n        /* \"--CODEGEN--\":3050:3051   */\n      dup1\n        /* \"--CODEGEN--\":3043:3055   */\n      revert\n        /* \"--CODEGEN--\":3005:3007   */\n    tag_278:\n        /* \"--CODEGEN--\":3088:3089   */\n      0x00\n        /* \"--CODEGEN--\":3105:3158   */\n      tag_279\n        /* \"--CODEGEN--\":3150:3157   */\n      dup5\n        /* \"--CODEGEN--\":3141:3147   */\n      dup3\n        /* \"--CODEGEN--\":3130:3139   */\n      dup6\n        /* \"--CODEGEN--\":3126:3148   */\n      add\n        /* \"--CODEGEN--\":3105:3158   */\n      tag_253\n      jump\t// in\n    tag_279:\n        /* \"--CODEGEN--\":3095:3158   */\n      swap2\n      pop\n        /* \"--CODEGEN--\":3067:3164   */\n      pop\n        /* \"--CODEGEN--\":2999:3174   */\n      swap3\n      swap2\n      pop\n      pop\n      jump\t// out\n        /* \"--CODEGEN--\":3181:3444   */\n    tag_199:\n      0x00\n        /* \"--CODEGEN--\":3296:3298   */\n      0x20\n        /* \"--CODEGEN--\":3284:3293   */\n      dup3\n        /* \"--CODEGEN--\":3275:3282   */\n      dup5\n        /* \"--CODEGEN--\":3271:3294   */\n      sub\n        /* \"--CODEGEN--\":3267:3299   */\n      slt\n        /* \"--CODEGEN--\":3264:3266   */\n      iszero\n      tag_281\n      jumpi\n        /* \"--CODEGEN--\":3312:3313   */\n      0x00\n        /* \"--CODEGEN--\":3309:3310   */\n      dup1\n        /* \"--CODEGEN--\":3302:3314   */\n      revert\n        /* \"--CODEGEN--\":3264:3266   */\n    tag_281:\n        /* \"--CODEGEN--\":3347:3348   */\n      0x00\n        /* \"--CODEGEN--\":3364:3428   */\n      tag_282\n        /* \"--CODEGEN--\":3420:3427   */\n      dup5\n        /* \"--CODEGEN--\":3411:3417   */\n      dup3\n        /* \"--CODEGEN--\":3400:3409   */\n      dup6\n        /* \"--CODEGEN--\":3396:3418   */\n      add\n        /* \"--CODEGEN--\":3364:3428   */\n      tag_262\n      jump\t// in\n    tag_282:\n        /* \"--CODEGEN--\":3354:3428   */\n      swap2\n      pop\n        /* \"--CODEGEN--\":3326:3434   */\n      pop\n        /* \"--CODEGEN--\":3258:3444   */\n      swap3\n      swap2\n      pop\n      pop\n      jump\t// out\n        /* \"--CODEGEN--\":3451:3593   */\n    tag_283:\n        /* \"--CODEGEN--\":3542:3587   */\n      tag_285\n        /* \"--CODEGEN--\":3581:3586   */\n      dup2\n        /* \"--CODEGEN--\":3542:3587   */\n      tag_286\n      jump\t// in\n    tag_285:\n        /* \"--CODEGEN--\":3537:3540   */\n      dup3\n        /* \"--CODEGEN--\":3530:3588   */\n      mstore\n        /* \"--CODEGEN--\":3524:3593   */\n      pop\n      pop\n      jump\t// out\n        /* \"--CODEGEN--\":3600:3713   */\n    tag_287:\n        /* \"--CODEGEN--\":3683:3707   */\n      tag_289\n        /* \"--CODEGEN--\":3701:3706   */\n      dup2\n        /* \"--CODEGEN--\":3683:3707   */\n      tag_290\n      jump\t// in\n    tag_289:\n        /* \"--CODEGEN--\":3678:3681   */\n      dup3\n        /* \"--CODEGEN--\":3671:3708   */\n      mstore\n        /* \"--CODEGEN--\":3665:3713   */\n      pop\n      pop\n      jump\t// out\n        /* \"--CODEGEN--\":3720:3874   */\n    tag_291:\n        /* \"--CODEGEN--\":3817:3868   */\n      tag_293\n        /* \"--CODEGEN--\":3862:3867   */\n      dup2\n        /* \"--CODEGEN--\":3817:3868   */\n      tag_294\n      jump\t// in\n    tag_293:\n        /* \"--CODEGEN--\":3812:3815   */\n      dup3\n        /* \"--CODEGEN--\":3805:3869   */\n      mstore\n        /* \"--CODEGEN--\":3799:3874   */\n      pop\n      pop\n      jump\t// out\n        /* \"--CODEGEN--\":3881:4023   */\n    tag_295:\n        /* \"--CODEGEN--\":3972:4017   */\n      tag_297\n        /* \"--CODEGEN--\":4011:4016   */\n      dup2\n        /* \"--CODEGEN--\":3972:4017   */\n      tag_298\n      jump\t// in\n    tag_297:\n        /* \"--CODEGEN--\":3967:3970   */\n      dup3\n        /* \"--CODEGEN--\":3960:4018   */\n      mstore\n        /* \"--CODEGEN--\":3954:4023   */\n      pop\n      pop\n      jump\t// out\n        /* \"--CODEGEN--\":4030:4377   */\n    tag_299:\n      0x00\n        /* \"--CODEGEN--\":4142:4181   */\n      tag_301\n        /* \"--CODEGEN--\":4175:4180   */\n      dup3\n        /* \"--CODEGEN--\":4142:4181   */\n      tag_302\n      jump\t// in\n    tag_301:\n        /* \"--CODEGEN--\":4193:4264   */\n      tag_303\n        /* \"--CODEGEN--\":4257:4263   */\n      dup2\n        /* \"--CODEGEN--\":4252:4255   */\n      dup6\n        /* \"--CODEGEN--\":4193:4264   */\n      tag_304\n      jump\t// in\n    tag_303:\n        /* \"--CODEGEN--\":4186:4264   */\n      swap4\n      pop\n        /* \"--CODEGEN--\":4269:4321   */\n      tag_305\n        /* \"--CODEGEN--\":4314:4320   */\n      dup2\n        /* \"--CODEGEN--\":4309:4312   */\n      dup6\n        /* \"--CODEGEN--\":4302:4306   */\n      0x20\n        /* \"--CODEGEN--\":4295:4300   */\n      dup7\n        /* \"--CODEGEN--\":4291:4307   */\n      add\n        /* \"--CODEGEN--\":4269:4321   */\n      tag_306\n      jump\t// in\n    tag_305:\n        /* \"--CODEGEN--\":4342:4371   */\n      tag_307\n        /* \"--CODEGEN--\":4364:4370   */\n      dup2\n        /* \"--CODEGEN--\":4342:4371   */\n      tag_308\n      jump\t// in\n    tag_307:\n        /* \"--CODEGEN--\":4337:4340   */\n      dup5\n        /* \"--CODEGEN--\":4333:4372   */\n      add\n        /* \"--CODEGEN--\":4326:4372   */\n      swap2\n      pop\n        /* \"--CODEGEN--\":4122:4377   */\n      pop\n      swap3\n      swap2\n      pop\n      pop\n      jump\t// out\n        /* \"--CODEGEN--\":4409:5293   */\n    tag_309:\n      0x00\n        /* \"--CODEGEN--\":4546:4551   */\n      dup2\n        /* \"--CODEGEN--\":4540:4552   */\n      sload\n        /* \"--CODEGEN--\":4580:4581   */\n      0x01\n        /* \"--CODEGEN--\":4569:4578   */\n      dup2\n        /* \"--CODEGEN--\":4565:4582   */\n      and\n        /* \"--CODEGEN--\":4593:4594   */\n      0x00\n        /* \"--CODEGEN--\":4588:4856   */\n      dup2\n      eq\n      tag_312\n      jumpi\n        /* \"--CODEGEN--\":4867:4868   */\n      0x01\n        /* \"--CODEGEN--\":4862:5287   */\n      dup2\n      eq\n      tag_313\n      jumpi\n        /* \"--CODEGEN--\":4558:5287   */\n      jump(tag_311)\n        /* \"--CODEGEN--\":4588:4856   */\n    tag_312:\n        /* \"--CODEGEN--\":4666:4670   */\n      0x7f\n        /* \"--CODEGEN--\":4662:4663   */\n      0x02\n        /* \"--CODEGEN--\":4651:4660   */\n      dup4\n        /* \"--CODEGEN--\":4647:4664   */\n      div\n        /* \"--CODEGEN--\":4643:4671   */\n      and\n        /* \"--CODEGEN--\":4685:4774   */\n      tag_314\n        /* \"--CODEGEN--\":4767:4773   */\n      dup2\n        /* \"--CODEGEN--\":4762:4765   */\n      dup8\n        /* \"--CODEGEN--\":4685:4774   */\n      tag_315\n      jump\t// in\n    tag_314:\n        /* \"--CODEGEN--\":4678:4774   */\n      swap6\n      pop\n        /* \"--CODEGEN--\":4812:4816   */\n      0xff\n        /* \"--CODEGEN--\":4808:4817   */\n      not\n        /* \"--CODEGEN--\":4797:4806   */\n      dup4\n        /* \"--CODEGEN--\":4793:4818   */\n      and\n        /* \"--CODEGEN--\":4788:4791   */\n      dup7\n        /* \"--CODEGEN--\":4781:4819   */\n      mstore\n        /* \"--CODEGEN--\":4842:4848   */\n      dup1\n        /* \"--CODEGEN--\":4837:4840   */\n      dup7\n        /* \"--CODEGEN--\":4833:4849   */\n      add\n        /* \"--CODEGEN--\":4826:4849   */\n      swap4\n      pop\n        /* \"--CODEGEN--\":4595:4856   */\n      pop\n        /* \"--CODEGEN--\":4588:4856   */\n      jump(tag_311)\n        /* \"--CODEGEN--\":4862:5287   */\n    tag_313:\n        /* \"--CODEGEN--\":4931:4932   */\n      0x02\n        /* \"--CODEGEN--\":4920:4929   */\n      dup3\n        /* \"--CODEGEN--\":4916:4933   */\n      div\n        /* \"--CODEGEN--\":4947:5036   */\n      tag_316\n        /* \"--CODEGEN--\":5029:5035   */\n      dup2\n        /* \"--CODEGEN--\":5024:5027   */\n      dup8\n        /* \"--CODEGEN--\":4947:5036   */\n      tag_315\n      jump\t// in\n    tag_316:\n        /* \"--CODEGEN--\":4940:5036   */\n      swap6\n      pop\n        /* \"--CODEGEN--\":5058:5096   */\n      tag_317\n        /* \"--CODEGEN--\":5090:5095   */\n      dup6\n        /* \"--CODEGEN--\":5058:5096   */\n      tag_318\n      jump\t// in\n    tag_317:\n        /* \"--CODEGEN--\":5112:5113   */\n      0x00\n        /* \"--CODEGEN--\":5120:5250   */\n    tag_319:\n        /* \"--CODEGEN--\":5134:5140   */\n      dup3\n        /* \"--CODEGEN--\":5131:5132   */\n      dup2\n        /* \"--CODEGEN--\":5128:5141   */\n      lt\n        /* \"--CODEGEN--\":5120:5250   */\n      iszero\n      tag_321\n      jumpi\n        /* \"--CODEGEN--\":5199:5206   */\n      dup2\n        /* \"--CODEGEN--\":5193:5207   */\n      sload\n        /* \"--CODEGEN--\":5189:5190   */\n      dup2\n        /* \"--CODEGEN--\":5184:5187   */\n      dup10\n        /* \"--CODEGEN--\":5180:5191   */\n      add\n        /* \"--CODEGEN--\":5173:5208   */\n      mstore\n        /* \"--CODEGEN--\":5240:5241   */\n      0x01\n        /* \"--CODEGEN--\":5231:5238   */\n      dup3\n        /* \"--CODEGEN--\":5227:5242   */\n      add\n        /* \"--CODEGEN--\":5216:5242   */\n      swap2\n      pop\n        /* \"--CODEGEN--\":5156:5160   */\n      0x20\n        /* \"--CODEGEN--\":5153:5154   */\n      dup2\n        /* \"--CODEGEN--\":5149:5161   */\n      add\n        /* \"--CODEGEN--\":5144:5161   */\n      swap1\n      pop\n        /* \"--CODEGEN--\":5120:5250   */\n      jump(tag_319)\n    tag_321:\n        /* \"--CODEGEN--\":5273:5279   */\n      dup3\n        /* \"--CODEGEN--\":5268:5271   */\n      dup9\n        /* \"--CODEGEN--\":5264:5280   */\n      add\n        /* \"--CODEGEN--\":5257:5280   */\n      swap6\n      pop\n        /* \"--CODEGEN--\":4869:5287   */\n      pop\n      pop\n      pop\n        /* \"--CODEGEN--\":4558:5287   */\n    tag_311:\n      pop\n        /* \"--CODEGEN--\":4516:5293   */\n      pop\n      swap3\n      swap2\n      pop\n      pop\n      jump\t// out\n        /* \"--CODEGEN--\":5302:5677   */\n    tag_322:\n      0x00\n        /* \"--CODEGEN--\":5462:5529   */\n      tag_324\n        /* \"--CODEGEN--\":5526:5528   */\n      0x26\n        /* \"--CODEGEN--\":5521:5524   */\n      dup4\n        /* \"--CODEGEN--\":5462:5529   */\n      tag_304\n      jump\t// in\n    tag_324:\n        /* \"--CODEGEN--\":5455:5529   */\n      swap2\n      pop\n        /* \"--CODEGEN--\":5562:5596   */\n      0x4f776e61626c653a206e6577206f776e657220697320746865207a65726f2061\n        /* \"--CODEGEN--\":5558:5559   */\n      0x00\n        /* \"--CODEGEN--\":5553:5556   */\n      dup4\n        /* \"--CODEGEN--\":5549:5560   */\n      add\n        /* \"--CODEGEN--\":5542:5597   */\n      mstore\n        /* \"--CODEGEN--\":5631:5639   */\n      0x6464726573730000000000000000000000000000000000000000000000000000\n        /* \"--CODEGEN--\":5626:5628   */\n      0x20\n        /* \"--CODEGEN--\":5621:5624   */\n      dup4\n        /* \"--CODEGEN--\":5617:5629   */\n      add\n        /* \"--CODEGEN--\":5610:5640   */\n      mstore\n        /* \"--CODEGEN--\":5668:5670   */\n      0x40\n        /* \"--CODEGEN--\":5663:5666   */\n      dup3\n        /* \"--CODEGEN--\":5659:5671   */\n      add\n        /* \"--CODEGEN--\":5652:5671   */\n      swap1\n      pop\n        /* \"--CODEGEN--\":5448:5677   */\n      swap2\n      swap1\n      pop\n      jump\t// out\n        /* \"--CODEGEN--\":5686:6013   */\n    tag_325:\n      0x00\n        /* \"--CODEGEN--\":5846:5913   */\n      tag_327\n        /* \"--CODEGEN--\":5910:5912   */\n      0x1b\n        /* \"--CODEGEN--\":5905:5908   */\n      dup4\n        /* \"--CODEGEN--\":5846:5913   */\n      tag_304\n      jump\t// in\n    tag_327:\n        /* \"--CODEGEN--\":5839:5913   */\n      swap2\n      pop\n        /* \"--CODEGEN--\":5946:5975   */\n      0x536166654d6174683a206164646974696f6e206f766572666c6f770000000000\n        /* \"--CODEGEN--\":5942:5943   */\n      0x00\n        /* \"--CODEGEN--\":5937:5940   */\n      dup4\n        /* \"--CODEGEN--\":5933:5944   */\n      add\n        /* \"--CODEGEN--\":5926:5976   */\n      mstore\n        /* \"--CODEGEN--\":6004:6006   */\n      0x20\n        /* \"--CODEGEN--\":5999:6002   */\n      dup3\n        /* \"--CODEGEN--\":5995:6007   */\n      add\n        /* \"--CODEGEN--\":5988:6007   */\n      swap1\n      pop\n        /* \"--CODEGEN--\":5832:6013   */\n      swap2\n      swap1\n      pop\n      jump\t// out\n        /* \"--CODEGEN--\":6022:6360   */\n    tag_328:\n      0x00\n        /* \"--CODEGEN--\":6200:6284   */\n      tag_330\n        /* \"--CODEGEN--\":6282:6283   */\n      0x04\n        /* \"--CODEGEN--\":6277:6280   */\n      dup4\n        /* \"--CODEGEN--\":6200:6284   */\n      tag_315\n      jump\t// in\n    tag_330:\n        /* \"--CODEGEN--\":6193:6284   */\n      swap2\n      pop\n        /* \"--CODEGEN--\":6317:6323   */\n      0x4555525300000000000000000000000000000000000000000000000000000000\n        /* \"--CODEGEN--\":6313:6314   */\n      0x00\n        /* \"--CODEGEN--\":6308:6311   */\n      dup4\n        /* \"--CODEGEN--\":6304:6315   */\n      add\n        /* \"--CODEGEN--\":6297:6324   */\n      mstore\n        /* \"--CODEGEN--\":6352:6353   */\n      0x04\n        /* \"--CODEGEN--\":6347:6350   */\n      dup3\n        /* \"--CODEGEN--\":6343:6354   */\n      add\n        /* \"--CODEGEN--\":6336:6354   */\n      swap1\n      pop\n        /* \"--CODEGEN--\":6186:6360   */\n      swap2\n      swap1\n      pop\n      jump\t// out\n        /* \"--CODEGEN--\":6369:6687   */\n    tag_331:\n      0x00\n        /* \"--CODEGEN--\":6529:6596   */\n      tag_333\n        /* \"--CODEGEN--\":6593:6595   */\n      0x12\n        /* \"--CODEGEN--\":6588:6591   */\n      dup4\n        /* \"--CODEGEN--\":6529:6596   */\n      tag_304\n      jump\t// in\n    tag_333:\n        /* \"--CODEGEN--\":6522:6596   */\n      swap2\n      pop\n        /* \"--CODEGEN--\":6629:6649   */\n      0x4e6f7420616363657074656420746f6b656e0000000000000000000000000000\n        /* \"--CODEGEN--\":6625:6626   */\n      0x00\n        /* \"--CODEGEN--\":6620:6623   */\n      dup4\n        /* \"--CODEGEN--\":6616:6627   */\n      add\n        /* \"--CODEGEN--\":6609:6650   */\n      mstore\n        /* \"--CODEGEN--\":6678:6680   */\n      0x20\n        /* \"--CODEGEN--\":6673:6676   */\n      dup3\n        /* \"--CODEGEN--\":6669:6681   */\n      add\n        /* \"--CODEGEN--\":6662:6681   */\n      swap1\n      pop\n        /* \"--CODEGEN--\":6515:6687   */\n      swap2\n      swap1\n      pop\n      jump\t// out\n        /* \"--CODEGEN--\":6696:7015   */\n    tag_334:\n      0x00\n        /* \"--CODEGEN--\":6856:6923   */\n      tag_336\n        /* \"--CODEGEN--\":6920:6922   */\n      0x13\n        /* \"--CODEGEN--\":6915:6918   */\n      dup4\n        /* \"--CODEGEN--\":6856:6923   */\n      tag_304\n      jump\t// in\n    tag_336:\n        /* \"--CODEGEN--\":6849:6923   */\n      swap2\n      pop\n        /* \"--CODEGEN--\":6956:6977   */\n      0x41646472657373206e6f7420616c6c6f77656400000000000000000000000000\n        /* \"--CODEGEN--\":6952:6953   */\n      0x00\n        /* \"--CODEGEN--\":6947:6950   */\n      dup4\n        /* \"--CODEGEN--\":6943:6954   */\n      add\n        /* \"--CODEGEN--\":6936:6978   */\n      mstore\n        /* \"--CODEGEN--\":7006:7008   */\n      0x20\n        /* \"--CODEGEN--\":7001:7004   */\n      dup3\n        /* \"--CODEGEN--\":6997:7009   */\n      add\n        /* \"--CODEGEN--\":6990:7009   */\n      swap1\n      pop\n        /* \"--CODEGEN--\":6842:7015   */\n      swap2\n      swap1\n      pop\n      jump\t// out\n        /* \"--CODEGEN--\":7024:7412   */\n    tag_337:\n      0x00\n        /* \"--CODEGEN--\":7184:7251   */\n      tag_339\n        /* \"--CODEGEN--\":7248:7250   */\n      0x33\n        /* \"--CODEGEN--\":7243:7246   */\n      dup4\n        /* \"--CODEGEN--\":7184:7251   */\n      tag_304\n      jump\t// in\n    tag_339:\n        /* \"--CODEGEN--\":7177:7251   */\n      swap2\n      pop\n        /* \"--CODEGEN--\":7284:7318   */\n      0x4c6f616e20737461747573206e6f7420636f6d70617469626c65207769746820\n        /* \"--CODEGEN--\":7280:7281   */\n      0x00\n        /* \"--CODEGEN--\":7275:7278   */\n      dup4\n        /* \"--CODEGEN--\":7271:7282   */\n      add\n        /* \"--CODEGEN--\":7264:7319   */\n      mstore\n        /* \"--CODEGEN--\":7353:7374   */\n      0x666f7265636c6f73696e6720616374696f6e7300000000000000000000000000\n        /* \"--CODEGEN--\":7348:7350   */\n      0x20\n        /* \"--CODEGEN--\":7343:7346   */\n      dup4\n        /* \"--CODEGEN--\":7339:7351   */\n      add\n        /* \"--CODEGEN--\":7332:7375   */\n      mstore\n        /* \"--CODEGEN--\":7403:7405   */\n      0x40\n        /* \"--CODEGEN--\":7398:7401   */\n      dup3\n        /* \"--CODEGEN--\":7394:7406   */\n      add\n        /* \"--CODEGEN--\":7387:7406   */\n      swap1\n      pop\n        /* \"--CODEGEN--\":7170:7412   */\n      swap2\n      swap1\n      pop\n      jump\t// out\n        /* \"--CODEGEN--\":7421:7753   */\n    tag_340:\n      0x00\n        /* \"--CODEGEN--\":7581:7648   */\n      tag_342\n        /* \"--CODEGEN--\":7645:7647   */\n      0x20\n        /* \"--CODEGEN--\":7640:7643   */\n      dup4\n        /* \"--CODEGEN--\":7581:7648   */\n      tag_304\n      jump\t// in\n    tag_342:\n        /* \"--CODEGEN--\":7574:7648   */\n      swap2\n      pop\n        /* \"--CODEGEN--\":7681:7715   */\n      0x4f776e61626c653a2063616c6c6572206973206e6f7420746865206f776e6572\n        /* \"--CODEGEN--\":7677:7678   */\n      0x00\n        /* \"--CODEGEN--\":7672:7675   */\n      dup4\n        /* \"--CODEGEN--\":7668:7679   */\n      add\n        /* \"--CODEGEN--\":7661:7716   */\n      mstore\n        /* \"--CODEGEN--\":7744:7746   */\n      0x20\n        /* \"--CODEGEN--\":7739:7742   */\n      dup3\n        /* \"--CODEGEN--\":7735:7747   */\n      add\n        /* \"--CODEGEN--\":7728:7747   */\n      swap1\n      pop\n        /* \"--CODEGEN--\":7567:7753   */\n      swap2\n      swap1\n      pop\n      jump\t// out\n        /* \"--CODEGEN--\":7762:8137   */\n    tag_343:\n      0x00\n        /* \"--CODEGEN--\":7922:7989   */\n      tag_345\n        /* \"--CODEGEN--\":7986:7988   */\n      0x26\n        /* \"--CODEGEN--\":7981:7984   */\n      dup4\n        /* \"--CODEGEN--\":7922:7989   */\n      tag_304\n      jump\t// in\n    tag_345:\n        /* \"--CODEGEN--\":7915:7989   */\n      swap2\n      pop\n        /* \"--CODEGEN--\":8022:8056   */\n      0x4e6f7420656e6f756768204a4e5420746f6b656e7320696e2073656e64657220\n        /* \"--CODEGEN--\":8018:8019   */\n      0x00\n        /* \"--CODEGEN--\":8013:8016   */\n      dup4\n        /* \"--CODEGEN--\":8009:8020   */\n      add\n        /* \"--CODEGEN--\":8002:8057   */\n      mstore\n        /* \"--CODEGEN--\":8091:8099   */\n      0x77616c6c65740000000000000000000000000000000000000000000000000000\n        /* \"--CODEGEN--\":8086:8088   */\n      0x20\n        /* \"--CODEGEN--\":8081:8084   */\n      dup4\n        /* \"--CODEGEN--\":8077:8089   */\n      add\n        /* \"--CODEGEN--\":8070:8100   */\n      mstore\n        /* \"--CODEGEN--\":8128:8130   */\n      0x40\n        /* \"--CODEGEN--\":8123:8126   */\n      dup3\n        /* \"--CODEGEN--\":8119:8131   */\n      add\n        /* \"--CODEGEN--\":8112:8131   */\n      swap1\n      pop\n        /* \"--CODEGEN--\":7908:8137   */\n      swap2\n      swap1\n      pop\n      jump\t// out\n        /* \"--CODEGEN--\":8145:8258   */\n    tag_346:\n        /* \"--CODEGEN--\":8228:8252   */\n      tag_348\n        /* \"--CODEGEN--\":8246:8251   */\n      dup2\n        /* \"--CODEGEN--\":8228:8252   */\n      tag_349\n      jump\t// in\n    tag_348:\n        /* \"--CODEGEN--\":8223:8226   */\n      dup3\n        /* \"--CODEGEN--\":8216:8253   */\n      mstore\n        /* \"--CODEGEN--\":8210:8258   */\n      pop\n      pop\n      jump\t// out\n        /* \"--CODEGEN--\":8265:8534   */\n    tag_167:\n      0x00\n        /* \"--CODEGEN--\":8417:8509   */\n      tag_351\n        /* \"--CODEGEN--\":8505:8508   */\n      dup3\n        /* \"--CODEGEN--\":8496:8502   */\n      dup5\n        /* \"--CODEGEN--\":8417:8509   */\n      tag_309\n      jump\t// in\n    tag_351:\n        /* \"--CODEGEN--\":8410:8509   */\n      swap2\n      pop\n        /* \"--CODEGEN--\":8526:8529   */\n      dup2\n        /* \"--CODEGEN--\":8519:8529   */\n      swap1\n      pop\n        /* \"--CODEGEN--\":8398:8534   */\n      swap3\n      swap2\n      pop\n      pop\n      jump\t// out\n        /* \"--CODEGEN--\":8541:8922   */\n    tag_165:\n      0x00\n        /* \"--CODEGEN--\":8749:8897   */\n      tag_353\n        /* \"--CODEGEN--\":8893:8896   */\n      dup3\n        /* \"--CODEGEN--\":8749:8897   */\n      tag_328\n      jump\t// in\n    tag_353:\n        /* \"--CODEGEN--\":8742:8897   */\n      swap2\n      pop\n        /* \"--CODEGEN--\":8914:8917   */\n      dup2\n        /* \"--CODEGEN--\":8907:8917   */\n      swap1\n      pop\n        /* \"--CODEGEN--\":8730:8922   */\n      swap2\n      swap1\n      pop\n      jump\t// out\n        /* \"--CODEGEN--\":8929:9151   */\n    tag_74:\n      0x00\n        /* \"--CODEGEN--\":9056:9058   */\n      0x20\n        /* \"--CODEGEN--\":9045:9054   */\n      dup3\n        /* \"--CODEGEN--\":9041:9059   */\n      add\n        /* \"--CODEGEN--\":9033:9059   */\n      swap1\n      pop\n        /* \"--CODEGEN--\":9070:9141   */\n      tag_355\n        /* \"--CODEGEN--\":9138:9139   */\n      0x00\n        /* \"--CODEGEN--\":9127:9136   */\n      dup4\n        /* \"--CODEGEN--\":9123:9140   */\n      add\n        /* \"--CODEGEN--\":9114:9120   */\n      dup5\n        /* \"--CODEGEN--\":9070:9141   */\n      tag_287\n      jump\t// in\n    tag_355:\n        /* \"--CODEGEN--\":9027:9151   */\n      swap3\n      swap2\n      pop\n      pop\n      jump\t// out\n        /* \"--CODEGEN--\":9158:9396   */\n    tag_194:\n      0x00\n        /* \"--CODEGEN--\":9293:9295   */\n      0x20\n        /* \"--CODEGEN--\":9282:9291   */\n      dup3\n        /* \"--CODEGEN--\":9278:9296   */\n      add\n        /* \"--CODEGEN--\":9270:9296   */\n      swap1\n      pop\n        /* \"--CODEGEN--\":9307:9386   */\n      tag_357\n        /* \"--CODEGEN--\":9383:9384   */\n      0x00\n        /* \"--CODEGEN--\":9372:9381   */\n      dup4\n        /* \"--CODEGEN--\":9368:9385   */\n      add\n        /* \"--CODEGEN--\":9359:9365   */\n      dup5\n        /* \"--CODEGEN--\":9307:9386   */\n      tag_283\n      jump\t// in\n    tag_357:\n        /* \"--CODEGEN--\":9264:9396   */\n      swap3\n      swap2\n      pop\n      pop\n      jump\t// out\n        /* \"--CODEGEN--\":9403:9879   */\n    tag_204:\n      0x00\n        /* \"--CODEGEN--\":9602:9604   */\n      0x60\n        /* \"--CODEGEN--\":9591:9600   */\n      dup3\n        /* \"--CODEGEN--\":9587:9605   */\n      add\n        /* \"--CODEGEN--\":9579:9605   */\n      swap1\n      pop\n        /* \"--CODEGEN--\":9616:9695   */\n      tag_359\n        /* \"--CODEGEN--\":9692:9693   */\n      0x00\n        /* \"--CODEGEN--\":9681:9690   */\n      dup4\n        /* \"--CODEGEN--\":9677:9694   */\n      add\n        /* \"--CODEGEN--\":9668:9674   */\n      dup7\n        /* \"--CODEGEN--\":9616:9695   */\n      tag_283\n      jump\t// in\n    tag_359:\n        /* \"--CODEGEN--\":9706:9786   */\n      tag_360\n        /* \"--CODEGEN--\":9782:9784   */\n      0x20\n        /* \"--CODEGEN--\":9771:9780   */\n      dup4\n        /* \"--CODEGEN--\":9767:9785   */\n      add\n        /* \"--CODEGEN--\":9758:9764   */\n      dup6\n        /* \"--CODEGEN--\":9706:9786   */\n      tag_283\n      jump\t// in\n    tag_360:\n        /* \"--CODEGEN--\":9797:9869   */\n      tag_361\n        /* \"--CODEGEN--\":9865:9867   */\n      0x40\n        /* \"--CODEGEN--\":9854:9863   */\n      dup4\n        /* \"--CODEGEN--\":9850:9868   */\n      add\n        /* \"--CODEGEN--\":9841:9847   */\n      dup5\n        /* \"--CODEGEN--\":9797:9869   */\n      tag_346\n      jump\t// in\n    tag_361:\n        /* \"--CODEGEN--\":9573:9879   */\n      swap5\n      swap4\n      pop\n      pop\n      pop\n      pop\n      jump\t// out\n        /* \"--CODEGEN--\":9886:10235   */\n    tag_33:\n      0x00\n        /* \"--CODEGEN--\":10049:10051   */\n      0x40\n        /* \"--CODEGEN--\":10038:10047   */\n      dup3\n        /* \"--CODEGEN--\":10034:10052   */\n      add\n        /* \"--CODEGEN--\":10026:10052   */\n      swap1\n      pop\n        /* \"--CODEGEN--\":10063:10142   */\n      tag_363\n        /* \"--CODEGEN--\":10139:10140   */\n      0x00\n        /* \"--CODEGEN--\":10128:10137   */\n      dup4\n        /* \"--CODEGEN--\":10124:10141   */\n      add\n        /* \"--CODEGEN--\":10115:10121   */\n      dup6\n        /* \"--CODEGEN--\":10063:10142   */\n      tag_283\n      jump\t// in\n    tag_363:\n        /* \"--CODEGEN--\":10153:10225   */\n      tag_364\n        /* \"--CODEGEN--\":10221:10223   */\n      0x20\n        /* \"--CODEGEN--\":10210:10219   */\n      dup4\n        /* \"--CODEGEN--\":10206:10224   */\n      add\n        /* \"--CODEGEN--\":10197:10203   */\n      dup5\n        /* \"--CODEGEN--\":10153:10225   */\n      tag_346\n      jump\t// in\n    tag_364:\n        /* \"--CODEGEN--\":10020:10235   */\n      swap4\n      swap3\n      pop\n      pop\n      pop\n      jump\t// out\n        /* \"--CODEGEN--\":10242:10492   */\n    tag_65:\n      0x00\n        /* \"--CODEGEN--\":10383:10385   */\n      0x20\n        /* \"--CODEGEN--\":10372:10381   */\n      dup3\n        /* \"--CODEGEN--\":10368:10386   */\n      add\n        /* \"--CODEGEN--\":10360:10386   */\n      swap1\n      pop\n        /* \"--CODEGEN--\":10397:10482   */\n      tag_366\n        /* \"--CODEGEN--\":10479:10480   */\n      0x00\n        /* \"--CODEGEN--\":10468:10477   */\n      dup4\n        /* \"--CODEGEN--\":10464:10481   */\n      add\n        /* \"--CODEGEN--\":10455:10461   */\n      dup5\n        /* \"--CODEGEN--\":10397:10482   */\n      tag_291\n      jump\t// in\n    tag_366:\n        /* \"--CODEGEN--\":10354:10492   */\n      swap3\n      swap2\n      pop\n      pop\n      jump\t// out\n        /* \"--CODEGEN--\":10499:10737   */\n    tag_38:\n      0x00\n        /* \"--CODEGEN--\":10634:10636   */\n      0x20\n        /* \"--CODEGEN--\":10623:10632   */\n      dup3\n        /* \"--CODEGEN--\":10619:10637   */\n      add\n        /* \"--CODEGEN--\":10611:10637   */\n      swap1\n      pop\n        /* \"--CODEGEN--\":10648:10727   */\n      tag_368\n        /* \"--CODEGEN--\":10724:10725   */\n      0x00\n        /* \"--CODEGEN--\":10713:10722   */\n      dup4\n        /* \"--CODEGEN--\":10709:10726   */\n      add\n        /* \"--CODEGEN--\":10700:10706   */\n      dup5\n        /* \"--CODEGEN--\":10648:10727   */\n      tag_295\n      jump\t// in\n    tag_368:\n        /* \"--CODEGEN--\":10605:10737   */\n      swap3\n      swap2\n      pop\n      pop\n      jump\t// out\n        /* \"--CODEGEN--\":10744:11054   */\n    tag_106:\n      0x00\n        /* \"--CODEGEN--\":10891:10893   */\n      0x20\n        /* \"--CODEGEN--\":10880:10889   */\n      dup3\n        /* \"--CODEGEN--\":10876:10894   */\n      add\n        /* \"--CODEGEN--\":10868:10894   */\n      swap1\n      pop\n        /* \"--CODEGEN--\":10941:10950   */\n      dup2\n        /* \"--CODEGEN--\":10935:10939   */\n      dup2\n        /* \"--CODEGEN--\":10931:10951   */\n      sub\n        /* \"--CODEGEN--\":10927:10928   */\n      0x00\n        /* \"--CODEGEN--\":10916:10925   */\n      dup4\n        /* \"--CODEGEN--\":10912:10929   */\n      add\n        /* \"--CODEGEN--\":10905:10952   */\n      mstore\n        /* \"--CODEGEN--\":10966:11044   */\n      tag_370\n        /* \"--CODEGEN--\":11039:11043   */\n      dup2\n        /* \"--CODEGEN--\":11030:11036   */\n      dup5\n        /* \"--CODEGEN--\":10966:11044   */\n      tag_299\n      jump\t// in\n    tag_370:\n        /* \"--CODEGEN--\":10958:11044   */\n      swap1\n      pop\n        /* \"--CODEGEN--\":10862:11054   */\n      swap3\n      swap2\n      pop\n      pop\n      jump\t// out\n        /* \"--CODEGEN--\":11061:11477   */\n    tag_228:\n      0x00\n        /* \"--CODEGEN--\":11261:11263   */\n      0x20\n        /* \"--CODEGEN--\":11250:11259   */\n      dup3\n        /* \"--CODEGEN--\":11246:11264   */\n      add\n        /* \"--CODEGEN--\":11238:11264   */\n      swap1\n      pop\n        /* \"--CODEGEN--\":11311:11320   */\n      dup2\n        /* \"--CODEGEN--\":11305:11309   */\n      dup2\n        /* \"--CODEGEN--\":11301:11321   */\n      sub\n        /* \"--CODEGEN--\":11297:11298   */\n      0x00\n        /* \"--CODEGEN--\":11286:11295   */\n      dup4\n        /* \"--CODEGEN--\":11282:11299   */\n      add\n        /* \"--CODEGEN--\":11275:11322   */\n      mstore\n        /* \"--CODEGEN--\":11336:11467   */\n      tag_372\n        /* \"--CODEGEN--\":11462:11466   */\n      dup2\n        /* \"--CODEGEN--\":11336:11467   */\n      tag_322\n      jump\t// in\n    tag_372:\n        /* \"--CODEGEN--\":11328:11467   */\n      swap1\n      pop\n        /* \"--CODEGEN--\":11232:11477   */\n      swap2\n      swap1\n      pop\n      jump\t// out\n        /* \"--CODEGEN--\":11484:11900   */\n    tag_233:\n      0x00\n        /* \"--CODEGEN--\":11684:11686   */\n      0x20\n        /* \"--CODEGEN--\":11673:11682   */\n      dup3\n        /* \"--CODEGEN--\":11669:11687   */\n      add\n        /* \"--CODEGEN--\":11661:11687   */\n      swap1\n      pop\n        /* \"--CODEGEN--\":11734:11743   */\n      dup2\n        /* \"--CODEGEN--\":11728:11732   */\n      dup2\n        /* \"--CODEGEN--\":11724:11744   */\n      sub\n        /* \"--CODEGEN--\":11720:11721   */\n      0x00\n        /* \"--CODEGEN--\":11709:11718   */\n      dup4\n        /* \"--CODEGEN--\":11705:11722   */\n      add\n        /* \"--CODEGEN--\":11698:11745   */\n      mstore\n        /* \"--CODEGEN--\":11759:11890   */\n      tag_374\n        /* \"--CODEGEN--\":11885:11889   */\n      dup2\n        /* \"--CODEGEN--\":11759:11890   */\n      tag_325\n      jump\t// in\n    tag_374:\n        /* \"--CODEGEN--\":11751:11890   */\n      swap1\n      pop\n        /* \"--CODEGEN--\":11655:11900   */\n      swap2\n      swap1\n      pop\n      jump\t// out\n        /* \"--CODEGEN--\":11907:12323   */\n    tag_215:\n      0x00\n        /* \"--CODEGEN--\":12107:12109   */\n      0x20\n        /* \"--CODEGEN--\":12096:12105   */\n      dup3\n        /* \"--CODEGEN--\":12092:12110   */\n      add\n        /* \"--CODEGEN--\":12084:12110   */\n      swap1\n      pop\n        /* \"--CODEGEN--\":12157:12166   */\n      dup2\n        /* \"--CODEGEN--\":12151:12155   */\n      dup2\n        /* \"--CODEGEN--\":12147:12167   */\n      sub\n        /* \"--CODEGEN--\":12143:12144   */\n      0x00\n        /* \"--CODEGEN--\":12132:12141   */\n      dup4\n        /* \"--CODEGEN--\":12128:12145   */\n      add\n        /* \"--CODEGEN--\":12121:12168   */\n      mstore\n        /* \"--CODEGEN--\":12182:12313   */\n      tag_376\n        /* \"--CODEGEN--\":12308:12312   */\n      dup2\n        /* \"--CODEGEN--\":12182:12313   */\n      tag_331\n      jump\t// in\n    tag_376:\n        /* \"--CODEGEN--\":12174:12313   */\n      swap1\n      pop\n        /* \"--CODEGEN--\":12078:12323   */\n      swap2\n      swap1\n      pop\n      jump\t// out\n        /* \"--CODEGEN--\":12330:12746   */\n    tag_157:\n      0x00\n        /* \"--CODEGEN--\":12530:12532   */\n      0x20\n        /* \"--CODEGEN--\":12519:12528   */\n      dup3\n        /* \"--CODEGEN--\":12515:12533   */\n      add\n        /* \"--CODEGEN--\":12507:12533   */\n      swap1\n      pop\n        /* \"--CODEGEN--\":12580:12589   */\n      dup2\n        /* \"--CODEGEN--\":12574:12578   */\n      dup2\n        /* \"--CODEGEN--\":12570:12590   */\n      sub\n        /* \"--CODEGEN--\":12566:12567   */\n      0x00\n        /* \"--CODEGEN--\":12555:12564   */\n      dup4\n        /* \"--CODEGEN--\":12551:12568   */\n      add\n        /* \"--CODEGEN--\":12544:12591   */\n      mstore\n        /* \"--CODEGEN--\":12605:12736   */\n      tag_378\n        /* \"--CODEGEN--\":12731:12735   */\n      dup2\n        /* \"--CODEGEN--\":12605:12736   */\n      tag_334\n      jump\t// in\n    tag_378:\n        /* \"--CODEGEN--\":12597:12736   */\n      swap1\n      pop\n        /* \"--CODEGEN--\":12501:12746   */\n      swap2\n      swap1\n      pop\n      jump\t// out\n        /* \"--CODEGEN--\":12753:13169   */\n    tag_147:\n      0x00\n        /* \"--CODEGEN--\":12953:12955   */\n      0x20\n        /* \"--CODEGEN--\":12942:12951   */\n      dup3\n        /* \"--CODEGEN--\":12938:12956   */\n      add\n        /* \"--CODEGEN--\":12930:12956   */\n      swap1\n      pop\n        /* \"--CODEGEN--\":13003:13012   */\n      dup2\n        /* \"--CODEGEN--\":12997:13001   */\n      dup2\n        /* \"--CODEGEN--\":12993:13013   */\n      sub\n        /* \"--CODEGEN--\":12989:12990   */\n      0x00\n        /* \"--CODEGEN--\":12978:12987   */\n      dup4\n        /* \"--CODEGEN--\":12974:12991   */\n      add\n        /* \"--CODEGEN--\":12967:13014   */\n      mstore\n        /* \"--CODEGEN--\":13028:13159   */\n      tag_380\n        /* \"--CODEGEN--\":13154:13158   */\n      dup2\n        /* \"--CODEGEN--\":13028:13159   */\n      tag_337\n      jump\t// in\n    tag_380:\n        /* \"--CODEGEN--\":13020:13159   */\n      swap1\n      pop\n        /* \"--CODEGEN--\":12924:13169   */\n      swap2\n      swap1\n      pop\n      jump\t// out\n        /* \"--CODEGEN--\":13176:13592   */\n    tag_141:\n      0x00\n        /* \"--CODEGEN--\":13376:13378   */\n      0x20\n        /* \"--CODEGEN--\":13365:13374   */\n      dup3\n        /* \"--CODEGEN--\":13361:13379   */\n      add\n        /* \"--CODEGEN--\":13353:13379   */\n      swap1\n      pop\n        /* \"--CODEGEN--\":13426:13435   */\n      dup2\n        /* \"--CODEGEN--\":13420:13424   */\n      dup2\n        /* \"--CODEGEN--\":13416:13436   */\n      sub\n        /* \"--CODEGEN--\":13412:13413   */\n      0x00\n        /* \"--CODEGEN--\":13401:13410   */\n      dup4\n        /* \"--CODEGEN--\":13397:13414   */\n      add\n        /* \"--CODEGEN--\":13390:13437   */\n      mstore\n        /* \"--CODEGEN--\":13451:13582   */\n      tag_382\n        /* \"--CODEGEN--\":13577:13581   */\n      dup2\n        /* \"--CODEGEN--\":13451:13582   */\n      tag_340\n      jump\t// in\n    tag_382:\n        /* \"--CODEGEN--\":13443:13582   */\n      swap1\n      pop\n        /* \"--CODEGEN--\":13347:13592   */\n      swap2\n      swap1\n      pop\n      jump\t// out\n        /* \"--CODEGEN--\":13599:14015   */\n    tag_202:\n      0x00\n        /* \"--CODEGEN--\":13799:13801   */\n      0x20\n        /* \"--CODEGEN--\":13788:13797   */\n      dup3\n        /* \"--CODEGEN--\":13784:13802   */\n      add\n        /* \"--CODEGEN--\":13776:13802   */\n      swap1\n      pop\n        /* \"--CODEGEN--\":13849:13858   */\n      dup2\n        /* \"--CODEGEN--\":13843:13847   */\n      dup2\n        /* \"--CODEGEN--\":13839:13859   */\n      sub\n        /* \"--CODEGEN--\":13835:13836   */\n      0x00\n        /* \"--CODEGEN--\":13824:13833   */\n      dup4\n        /* \"--CODEGEN--\":13820:13837   */\n      add\n        /* \"--CODEGEN--\":13813:13860   */\n      mstore\n        /* \"--CODEGEN--\":13874:14005   */\n      tag_384\n        /* \"--CODEGEN--\":14000:14004   */\n      dup2\n        /* \"--CODEGEN--\":13874:14005   */\n      tag_343\n      jump\t// in\n    tag_384:\n        /* \"--CODEGEN--\":13866:14005   */\n      swap1\n      pop\n        /* \"--CODEGEN--\":13770:14015   */\n      swap2\n      swap1\n      pop\n      jump\t// out\n        /* \"--CODEGEN--\":14022:14244   */\n    tag_48:\n      0x00\n        /* \"--CODEGEN--\":14149:14151   */\n      0x20\n        /* \"--CODEGEN--\":14138:14147   */\n      dup3\n        /* \"--CODEGEN--\":14134:14152   */\n      add\n        /* \"--CODEGEN--\":14126:14152   */\n      swap1\n      pop\n        /* \"--CODEGEN--\":14163:14234   */\n      tag_386\n        /* \"--CODEGEN--\":14231:14232   */\n      0x00\n        /* \"--CODEGEN--\":14220:14229   */\n      dup4\n        /* \"--CODEGEN--\":14216:14233   */\n      add\n        /* \"--CODEGEN--\":14207:14213   */\n      dup5\n        /* \"--CODEGEN--\":14163:14234   */\n      tag_346\n      jump\t// in\n    tag_386:\n        /* \"--CODEGEN--\":14120:14244   */\n      swap3\n      swap2\n      pop\n      pop\n      jump\t// out\n        /* \"--CODEGEN--\":14251:15031   */\n    tag_43:\n      0x00\n        /* \"--CODEGEN--\":14518:14521   */\n      0xc0\n        /* \"--CODEGEN--\":14507:14516   */\n      dup3\n        /* \"--CODEGEN--\":14503:14522   */\n      add\n        /* \"--CODEGEN--\":14495:14522   */\n      swap1\n      pop\n        /* \"--CODEGEN--\":14533:14604   */\n      tag_388\n        /* \"--CODEGEN--\":14601:14602   */\n      0x00\n        /* \"--CODEGEN--\":14590:14599   */\n      dup4\n        /* \"--CODEGEN--\":14586:14603   */\n      add\n        /* \"--CODEGEN--\":14577:14583   */\n      dup10\n        /* \"--CODEGEN--\":14533:14604   */\n      tag_346\n      jump\t// in\n    tag_388:\n        /* \"--CODEGEN--\":14615:14687   */\n      tag_389\n        /* \"--CODEGEN--\":14683:14685   */\n      0x20\n        /* \"--CODEGEN--\":14672:14681   */\n      dup4\n        /* \"--CODEGEN--\":14668:14686   */\n      add\n        /* \"--CODEGEN--\":14659:14665   */\n      dup9\n        /* \"--CODEGEN--\":14615:14687   */\n      tag_346\n      jump\t// in\n    tag_389:\n        /* \"--CODEGEN--\":14698:14770   */\n      tag_390\n        /* \"--CODEGEN--\":14766:14768   */\n      0x40\n        /* \"--CODEGEN--\":14755:14764   */\n      dup4\n        /* \"--CODEGEN--\":14751:14769   */\n      add\n        /* \"--CODEGEN--\":14742:14748   */\n      dup8\n        /* \"--CODEGEN--\":14698:14770   */\n      tag_346\n      jump\t// in\n    tag_390:\n        /* \"--CODEGEN--\":14781:14853   */\n      tag_391\n        /* \"--CODEGEN--\":14849:14851   */\n      0x60\n        /* \"--CODEGEN--\":14838:14847   */\n      dup4\n        /* \"--CODEGEN--\":14834:14852   */\n      add\n        /* \"--CODEGEN--\":14825:14831   */\n      dup7\n        /* \"--CODEGEN--\":14781:14853   */\n      tag_346\n      jump\t// in\n    tag_391:\n        /* \"--CODEGEN--\":14864:14937   */\n      tag_392\n        /* \"--CODEGEN--\":14932:14935   */\n      0x80\n        /* \"--CODEGEN--\":14921:14930   */\n      dup4\n        /* \"--CODEGEN--\":14917:14936   */\n      add\n        /* \"--CODEGEN--\":14908:14914   */\n      dup6\n        /* \"--CODEGEN--\":14864:14937   */\n      tag_346\n      jump\t// in\n    tag_392:\n        /* \"--CODEGEN--\":14948:15021   */\n      tag_393\n        /* \"--CODEGEN--\":15016:15019   */\n      0xa0\n        /* \"--CODEGEN--\":15005:15014   */\n      dup4\n        /* \"--CODEGEN--\":15001:15020   */\n      add\n        /* \"--CODEGEN--\":14992:14998   */\n      dup5\n        /* \"--CODEGEN--\":14948:15021   */\n      tag_346\n      jump\t// in\n    tag_393:\n        /* \"--CODEGEN--\":14489:15031   */\n      swap8\n      swap7\n      pop\n      pop\n      pop\n      pop\n      pop\n      pop\n      pop\n      jump\t// out\n        /* \"--CODEGEN--\":15038:15294   */\n    tag_251:\n      0x00\n        /* \"--CODEGEN--\":15100:15102   */\n      0x40\n        /* \"--CODEGEN--\":15094:15103   */\n      mload\n        /* \"--CODEGEN--\":15084:15103   */\n      swap1\n      pop\n        /* \"--CODEGEN--\":15138:15142   */\n      dup2\n        /* \"--CODEGEN--\":15130:15136   */\n      dup2\n        /* \"--CODEGEN--\":15126:15143   */\n      add\n        /* \"--CODEGEN--\":15237:15243   */\n      dup2\n        /* \"--CODEGEN--\":15225:15235   */\n      dup2\n        /* \"--CODEGEN--\":15222:15244   */\n      lt\n        /* \"--CODEGEN--\":15201:15219   */\n      0xffffffffffffffff\n        /* \"--CODEGEN--\":15189:15199   */\n      dup3\n        /* \"--CODEGEN--\":15186:15220   */\n      gt\n        /* \"--CODEGEN--\":15183:15245   */\n      or\n        /* \"--CODEGEN--\":15180:15182   */\n      iszero\n      tag_395\n      jumpi\n        /* \"--CODEGEN--\":15258:15259   */\n      0x00\n        /* \"--CODEGEN--\":15255:15256   */\n      dup1\n        /* \"--CODEGEN--\":15248:15260   */\n      revert\n        /* \"--CODEGEN--\":15180:15182   */\n    tag_395:\n        /* \"--CODEGEN--\":15278:15288   */\n      dup1\n        /* \"--CODEGEN--\":15274:15276   */\n      0x40\n        /* \"--CODEGEN--\":15267:15289   */\n      mstore\n        /* \"--CODEGEN--\":15078:15294   */\n      pop\n      swap2\n      swap1\n      pop\n      jump\t// out\n        /* \"--CODEGEN--\":15301:15459   */\n    tag_318:\n      0x00\n        /* \"--CODEGEN--\":15369:15372   */\n      dup2\n        /* \"--CODEGEN--\":15361:15372   */\n      swap1\n      pop\n        /* \"--CODEGEN--\":15406:15409   */\n      dup2\n        /* \"--CODEGEN--\":15403:15404   */\n      0x00\n        /* \"--CODEGEN--\":15396:15410   */\n      mstore\n        /* \"--CODEGEN--\":15438:15442   */\n      0x20\n        /* \"--CODEGEN--\":15435:15436   */\n      0x00\n        /* \"--CODEGEN--\":15425:15443   */\n      keccak256\n        /* \"--CODEGEN--\":15417:15443   */\n      swap1\n      pop\n        /* \"--CODEGEN--\":15355:15459   */\n      swap2\n      swap1\n      pop\n      jump\t// out\n        /* \"--CODEGEN--\":15466:15588   */\n    tag_302:\n      0x00\n        /* \"--CODEGEN--\":15560:15565   */\n      dup2\n        /* \"--CODEGEN--\":15554:15566   */\n      mload\n        /* \"--CODEGEN--\":15544:15566   */\n      swap1\n      pop\n        /* \"--CODEGEN--\":15525:15588   */\n      swap2\n      swap1\n      pop\n      jump\t// out\n        /* \"--CODEGEN--\":15596:15759   */\n    tag_304:\n      0x00\n        /* \"--CODEGEN--\":15711:15717   */\n      dup3\n        /* \"--CODEGEN--\":15706:15709   */\n      dup3\n        /* \"--CODEGEN--\":15699:15718   */\n      mstore\n        /* \"--CODEGEN--\":15748:15752   */\n      0x20\n        /* \"--CODEGEN--\":15743:15746   */\n      dup3\n        /* \"--CODEGEN--\":15739:15753   */\n      add\n        /* \"--CODEGEN--\":15724:15753   */\n      swap1\n      pop\n        /* \"--CODEGEN--\":15692:15759   */\n      swap3\n      swap2\n      pop\n      pop\n      jump\t// out\n        /* \"--CODEGEN--\":15768:15913   */\n    tag_315:\n      0x00\n        /* \"--CODEGEN--\":15904:15907   */\n      dup2\n        /* \"--CODEGEN--\":15889:15907   */\n      swap1\n      pop\n        /* \"--CODEGEN--\":15882:15913   */\n      swap3\n      swap2\n      pop\n      pop\n      jump\t// out\n        /* \"--CODEGEN--\":15921:16012   */\n    tag_290:\n      0x00\n        /* \"--CODEGEN--\":15983:16007   */\n      tag_401\n        /* \"--CODEGEN--\":16001:16006   */\n      dup3\n        /* \"--CODEGEN--\":15983:16007   */\n      tag_402\n      jump\t// in\n    tag_401:\n        /* \"--CODEGEN--\":15972:16007   */\n      swap1\n      pop\n        /* \"--CODEGEN--\":15966:16012   */\n      swap2\n      swap1\n      pop\n      jump\t// out\n        /* \"--CODEGEN--\":16019:16118   */\n    tag_403:\n      0x00\n        /* \"--CODEGEN--\":16089:16113   */\n      tag_405\n        /* \"--CODEGEN--\":16107:16112   */\n      dup3\n        /* \"--CODEGEN--\":16089:16113   */\n      tag_402\n      jump\t// in\n    tag_405:\n        /* \"--CODEGEN--\":16078:16113   */\n      swap1\n      pop\n        /* \"--CODEGEN--\":16072:16118   */\n      swap2\n      swap1\n      pop\n      jump\t// out\n        /* \"--CODEGEN--\":16125:16210   */\n    tag_406:\n      0x00\n        /* \"--CODEGEN--\":16198:16203   */\n      dup2\n        /* \"--CODEGEN--\":16191:16204   */\n      iszero\n        /* \"--CODEGEN--\":16184:16205   */\n      iszero\n        /* \"--CODEGEN--\":16173:16205   */\n      swap1\n      pop\n        /* \"--CODEGEN--\":16167:16210   */\n      swap2\n      swap1\n      pop\n      jump\t// out\n        /* \"--CODEGEN--\":16217:16343   */\n    tag_408:\n      0x00\n        /* \"--CODEGEN--\":16289:16294   */\n      dup2\n        /* \"--CODEGEN--\":16278:16294   */\n      swap1\n      pop\n        /* \"--CODEGEN--\":16295:16338   */\n      tag_410\n        /* \"--CODEGEN--\":16332:16337   */\n      dup3\n        /* \"--CODEGEN--\":16295:16338   */\n      tag_411\n      jump\t// in\n    tag_410:\n        /* \"--CODEGEN--\":16272:16343   */\n      swap2\n      swap1\n      pop\n      jump\t// out\n        /* \"--CODEGEN--\":16350:16471   */\n    tag_402:\n      0x00\n        /* \"--CODEGEN--\":16423:16465   */\n      0xffffffffffffffffffffffffffffffffffffffff\n        /* \"--CODEGEN--\":16416:16421   */\n      dup3\n        /* \"--CODEGEN--\":16412:16466   */\n      and\n        /* \"--CODEGEN--\":16401:16466   */\n      swap1\n      pop\n        /* \"--CODEGEN--\":16395:16471   */\n      swap2\n      swap1\n      pop\n      jump\t// out\n        /* \"--CODEGEN--\":16478:16550   */\n    tag_349:\n      0x00\n        /* \"--CODEGEN--\":16540:16545   */\n      dup2\n        /* \"--CODEGEN--\":16529:16545   */\n      swap1\n      pop\n        /* \"--CODEGEN--\":16523:16550   */\n      swap2\n      swap1\n      pop\n      jump\t// out\n        /* \"--CODEGEN--\":16557:16686   */\n    tag_286:\n      0x00\n        /* \"--CODEGEN--\":16644:16681   */\n      tag_415\n        /* \"--CODEGEN--\":16675:16680   */\n      dup3\n        /* \"--CODEGEN--\":16644:16681   */\n      tag_416\n      jump\t// in\n    tag_415:\n        /* \"--CODEGEN--\":16631:16681   */\n      swap1\n      pop\n        /* \"--CODEGEN--\":16625:16686   */\n      swap2\n      swap1\n      pop\n      jump\t// out\n        /* \"--CODEGEN--\":16693:16842   */\n    tag_294:\n      0x00\n        /* \"--CODEGEN--\":16786:16837   */\n      tag_418\n        /* \"--CODEGEN--\":16831:16836   */\n      dup3\n        /* \"--CODEGEN--\":16786:16837   */\n      tag_419\n      jump\t// in\n    tag_418:\n        /* \"--CODEGEN--\":16773:16837   */\n      swap1\n      pop\n        /* \"--CODEGEN--\":16767:16842   */\n      swap2\n      swap1\n      pop\n      jump\t// out\n        /* \"--CODEGEN--\":16849:16971   */\n    tag_419:\n      0x00\n        /* \"--CODEGEN--\":16942:16966   */\n      tag_421\n        /* \"--CODEGEN--\":16960:16965   */\n      dup3\n        /* \"--CODEGEN--\":16942:16966   */\n      tag_402\n      jump\t// in\n    tag_421:\n        /* \"--CODEGEN--\":16929:16966   */\n      swap1\n      pop\n        /* \"--CODEGEN--\":16923:16971   */\n      swap2\n      swap1\n      pop\n      jump\t// out\n        /* \"--CODEGEN--\":16978:17104   */\n    tag_298:\n      0x00\n        /* \"--CODEGEN--\":17065:17099   */\n      tag_423\n        /* \"--CODEGEN--\":17093:17098   */\n      dup3\n        /* \"--CODEGEN--\":17065:17099   */\n      tag_408\n      jump\t// in\n    tag_423:\n        /* \"--CODEGEN--\":17052:17099   */\n      swap1\n      pop\n        /* \"--CODEGEN--\":17046:17104   */\n      swap2\n      swap1\n      pop\n      jump\t// out\n        /* \"--CODEGEN--\":17111:17232   */\n    tag_416:\n      0x00\n        /* \"--CODEGEN--\":17190:17227   */\n      tag_425\n        /* \"--CODEGEN--\":17221:17226   */\n      dup3\n        /* \"--CODEGEN--\":17190:17227   */\n      tag_426\n      jump\t// in\n    tag_425:\n        /* \"--CODEGEN--\":17177:17227   */\n      swap1\n      pop\n        /* \"--CODEGEN--\":17171:17232   */\n      swap2\n      swap1\n      pop\n      jump\t// out\n        /* \"--CODEGEN--\":17239:17347   */\n    tag_426:\n      0x00\n        /* \"--CODEGEN--\":17318:17342   */\n      tag_428\n        /* \"--CODEGEN--\":17336:17341   */\n      dup3\n        /* \"--CODEGEN--\":17318:17342   */\n      tag_402\n      jump\t// in\n    tag_428:\n        /* \"--CODEGEN--\":17305:17342   */\n      swap1\n      pop\n        /* \"--CODEGEN--\":17299:17347   */\n      swap2\n      swap1\n      pop\n      jump\t// out\n        /* \"--CODEGEN--\":17355:17623   */\n    tag_306:\n        /* \"--CODEGEN--\":17420:17421   */\n      0x00\n        /* \"--CODEGEN--\":17427:17528   */\n    tag_430:\n        /* \"--CODEGEN--\":17441:17447   */\n      dup4\n        /* \"--CODEGEN--\":17438:17439   */\n      dup2\n        /* \"--CODEGEN--\":17435:17448   */\n      lt\n        /* \"--CODEGEN--\":17427:17528   */\n      iszero\n      tag_432\n      jumpi\n        /* \"--CODEGEN--\":17517:17518   */\n      dup1\n        /* \"--CODEGEN--\":17512:17515   */\n      dup3\n        /* \"--CODEGEN--\":17508:17519   */\n      add\n        /* \"--CODEGEN--\":17502:17520   */\n      mload\n        /* \"--CODEGEN--\":17498:17499   */\n      dup2\n        /* \"--CODEGEN--\":17493:17496   */\n      dup5\n        /* \"--CODEGEN--\":17489:17500   */\n      add\n        /* \"--CODEGEN--\":17482:17521   */\n      mstore\n        /* \"--CODEGEN--\":17463:17465   */\n      0x20\n        /* \"--CODEGEN--\":17460:17461   */\n      dup2\n        /* \"--CODEGEN--\":17456:17466   */\n      add\n        /* \"--CODEGEN--\":17451:17466   */\n      swap1\n      pop\n        /* \"--CODEGEN--\":17427:17528   */\n      jump(tag_430)\n    tag_432:\n        /* \"--CODEGEN--\":17543:17549   */\n      dup4\n        /* \"--CODEGEN--\":17540:17541   */\n      dup2\n        /* \"--CODEGEN--\":17537:17550   */\n      gt\n        /* \"--CODEGEN--\":17534:17536   */\n      iszero\n      tag_433\n      jumpi\n        /* \"--CODEGEN--\":17608:17609   */\n      0x00\n        /* \"--CODEGEN--\":17599:17605   */\n      dup5\n        /* \"--CODEGEN--\":17594:17597   */\n      dup5\n        /* \"--CODEGEN--\":17590:17606   */\n      add\n        /* \"--CODEGEN--\":17583:17610   */\n      mstore\n        /* \"--CODEGEN--\":17534:17536   */\n    tag_433:\n        /* \"--CODEGEN--\":17404:17623   */\n      pop\n      pop\n      pop\n      pop\n      jump\t// out\n        /* \"--CODEGEN--\":17631:17728   */\n    tag_308:\n      0x00\n        /* \"--CODEGEN--\":17719:17721   */\n      0x1f\n        /* \"--CODEGEN--\":17715:17722   */\n      not\n        /* \"--CODEGEN--\":17710:17712   */\n      0x1f\n        /* \"--CODEGEN--\":17703:17708   */\n      dup4\n        /* \"--CODEGEN--\":17699:17713   */\n      add\n        /* \"--CODEGEN--\":17695:17723   */\n      and\n        /* \"--CODEGEN--\":17685:17723   */\n      swap1\n      pop\n        /* \"--CODEGEN--\":17679:17728   */\n      swap2\n      swap1\n      pop\n      jump\t// out\n        /* \"--CODEGEN--\":17736:17837   */\n    tag_411:\n        /* \"--CODEGEN--\":17815:17816   */\n      0x05\n        /* \"--CODEGEN--\":17808:17813   */\n      dup2\n        /* \"--CODEGEN--\":17805:17817   */\n      lt\n        /* \"--CODEGEN--\":17795:17797   */\n      tag_436\n      jumpi\n        /* \"--CODEGEN--\":17821:17830   */\n      invalid\n        /* \"--CODEGEN--\":17795:17797   */\n    tag_436:\n        /* \"--CODEGEN--\":17789:17837   */\n      pop\n      jump\t// out\n        /* \"--CODEGEN--\":17844:17961   */\n    tag_238:\n        /* \"--CODEGEN--\":17913:17937   */\n      tag_438\n        /* \"--CODEGEN--\":17931:17936   */\n      dup2\n        /* \"--CODEGEN--\":17913:17937   */\n      tag_290\n      jump\t// in\n    tag_438:\n        /* \"--CODEGEN--\":17906:17911   */\n      dup2\n        /* \"--CODEGEN--\":17903:17938   */\n      eq\n        /* \"--CODEGEN--\":17893:17895   */\n      tag_439\n      jumpi\n        /* \"--CODEGEN--\":17952:17953   */\n      0x00\n        /* \"--CODEGEN--\":17949:17950   */\n      dup1\n        /* \"--CODEGEN--\":17942:17954   */\n      revert\n        /* \"--CODEGEN--\":17893:17895   */\n    tag_439:\n        /* \"--CODEGEN--\":17887:17961   */\n      pop\n      jump\t// out\n        /* \"--CODEGEN--\":17968:18101   */\n    tag_242:\n        /* \"--CODEGEN--\":18045:18077   */\n      tag_441\n        /* \"--CODEGEN--\":18071:18076   */\n      dup2\n        /* \"--CODEGEN--\":18045:18077   */\n      tag_403\n      jump\t// in\n    tag_441:\n        /* \"--CODEGEN--\":18038:18043   */\n      dup2\n        /* \"--CODEGEN--\":18035:18078   */\n      eq\n        /* \"--CODEGEN--\":18025:18027   */\n      tag_442\n      jumpi\n        /* \"--CODEGEN--\":18092:18093   */\n      0x00\n        /* \"--CODEGEN--\":18089:18090   */\n      dup1\n        /* \"--CODEGEN--\":18082:18094   */\n      revert\n        /* \"--CODEGEN--\":18025:18027   */\n    tag_442:\n        /* \"--CODEGEN--\":18019:18101   */\n      pop\n      jump\t// out\n        /* \"--CODEGEN--\":18108:18219   */\n    tag_246:\n        /* \"--CODEGEN--\":18174:18195   */\n      tag_444\n        /* \"--CODEGEN--\":18189:18194   */\n      dup2\n        /* \"--CODEGEN--\":18174:18195   */\n      tag_406\n      jump\t// in\n    tag_444:\n        /* \"--CODEGEN--\":18167:18172   */\n      dup2\n        /* \"--CODEGEN--\":18164:18196   */\n      eq\n        /* \"--CODEGEN--\":18154:18156   */\n      tag_445\n      jumpi\n        /* \"--CODEGEN--\":18210:18211   */\n      0x00\n        /* \"--CODEGEN--\":18207:18208   */\n      dup1\n        /* \"--CODEGEN--\":18200:18212   */\n      revert\n        /* \"--CODEGEN--\":18154:18156   */\n    tag_445:\n        /* \"--CODEGEN--\":18148:18219   */\n      pop\n      jump\t// out\n        /* \"--CODEGEN--\":18226:18343   */\n    tag_261:\n        /* \"--CODEGEN--\":18295:18319   */\n      tag_447\n        /* \"--CODEGEN--\":18313:18318   */\n      dup2\n        /* \"--CODEGEN--\":18295:18319   */\n      tag_349\n      jump\t// in\n    tag_447:\n        /* \"--CODEGEN--\":18288:18293   */\n      dup2\n        /* \"--CODEGEN--\":18285:18320   */\n      eq\n        /* \"--CODEGEN--\":18275:18277   */\n      tag_448\n      jumpi\n        /* \"--CODEGEN--\":18334:18335   */\n      0x00\n        /* \"--CODEGEN--\":18331:18332   */\n      dup1\n        /* \"--CODEGEN--\":18324:18336   */\n      revert\n        /* \"--CODEGEN--\":18275:18277   */\n    tag_448:\n        /* \"--CODEGEN--\":18269:18343   */\n      pop\n      jump\t// out\n\n    auxdata: 0xa264697066735822122086ea9e3e7154e64795c00b5654a2ddfa726a9d0fc706cf227f11f8aad6e4abe164736f6c634300060c0033\n}\n","bytecode":{"linkReferences":{},"object":"608060405260018060006101000a81548173ffffffffffffffffffffffffffffffffffffffff021916908373ffffffffffffffffffffffffffffffffffffffff1602179055503480156200005257600080fd5b506040516200260938038062002609833981810160405281019062000078919062000586565b60006200008a620003a360201b60201c565b9050806000806101000a81548173ffffffffffffffffffffffffffffffffffffffff021916908373ffffffffffffffffffffffffffffffffffffffff1602179055508073ffffffffffffffffffffffffffffffffffffffff16600073ffffffffffffffffffffffffffffffffffffffff167f8be0079c531659141344cd1fd0a4f28419497f9722a3daafe3b4186f6b6457e060405160405180910390a350816002600082015181600001556020820151816001015560408201518160020155606082015181600301556080820151816004015560a08201518160050155905050600260000154831015620001b5576040517f08c379a0000000000000000000000000000000000000000000000000000000008152600401620001ac9062000782565b60405180910390fd5b80601460006101000a81548173ffffffffffffffffffffffffffffffffffffffff021916908373ffffffffffffffffffffffffffffffffffffffff16021790555082600b81905550846009908051906020019062000215929190620003ab565b5060405160200162000227906200076b565b60405160208183030381529060405280519060200120600960405160200162000251919062000752565b604051602081830303815290604052805190602001201415620002d757600160009054906101000a900473ffffffffffffffffffffffffffffffffffffffff16601260006101000a81548173ffffffffffffffffffffffffffffffffffffffff021916908373ffffffffffffffffffffffffffffffffffffffff1602179055506200031a565b6000601260006101000a81548173ffffffffffffffffffffffffffffffffffffffff021916908373ffffffffffffffffffffffffffffffffffffffff1602179055505b83600a8190555043600c819055506000600860006101000a81548160ff021916908360048111156200034857fe5b0217905550600060108190555060006011819055507f656ad37b815087d90f0c4cbdbf28a9ef3e92cfeb045dd15eaa452cc8b1d34e00600c54604051620003909190620007a4565b60405180910390a15050505050620008f5565b600033905090565b828054600181600116156101000203166002900490600052602060002090601f016020900481019282601f10620003ee57805160ff19168380011785556200041f565b828001600101855582156200041f579182015b828111156200041e57825182559160200191906001019062000401565b5b5090506200042e919062000432565b5090565b5b808211156200044d57600081600090555060010162000433565b5090565b6000815190506200046281620008c1565b92915050565b600082601f8301126200047a57600080fd5b8151620004916200048b82620007ef565b620007c1565b91508082526020830160208301858383011115620004ae57600080fd5b620004bb8382846200088b565b50505092915050565b600060c08284031215620004d757600080fd5b620004e360c0620007c1565b90506000620004f5848285016200056f565b60008301525060206200050b848285016200056f565b602083015250604062000521848285016200056f565b604083015250606062000537848285016200056f565b60608301525060806200054d848285016200056f565b60808301525060a062000563848285016200056f565b60a08301525092915050565b6000815190506200058081620008db565b92915050565b60008060008060006101408688031215620005a057600080fd5b600086015167ffffffffffffffff811115620005bb57600080fd5b620005c98882890162000468565b9550506020620005dc888289016200056f565b9450506040620005ef888289016200056f565b93505060606200060288828901620004c4565b925050610120620006168882890162000451565b9150509295509295909350565b6000815460018116600081146200064357600181146200066b57620006b5565b607f600283041662000656818762000842565b955060ff1983168652808601935050620006b5565b600282046200067b818762000842565b955062000688856200081c565b60005b82811015620006ac578154818901526001820191506020810190506200068b565b82880195505050505b505092915050565b6000620006cc60048362000842565b91507f45555253000000000000000000000000000000000000000000000000000000006000830152600482019050919050565b60006200070e60118362000831565b91507f496e74657265737420746f6f206c6f77210000000000000000000000000000006000830152602082019050919050565b6200074c8162000881565b82525050565b600062000760828462000623565b915081905092915050565b60006200077882620006bd565b9150819050919050565b600060208201905081810360008301526200079d81620006ff565b9050919050565b6000602082019050620007bb600083018462000741565b92915050565b6000604051905081810181811067ffffffffffffffff82111715620007e557600080fd5b8060405250919050565b600067ffffffffffffffff8211156200080757600080fd5b601f19601f8301169050602081019050919050565b60008190508160005260206000209050919050565b600082825260208201905092915050565b600081905092915050565b60006200085a8262000861565b9050919050565b600073ffffffffffffffffffffffffffffffffffffffff82169050919050565b6000819050919050565b60005b83811015620008ab5780820151818401526020810190506200088e565b83811115620008bb576000848401525b50505050565b620008cc816200084d565b8114620008d857600080fd5b50565b620008e68162000881565b8114620008f257600080fd5b50565b611d0480620009056000396000f3fe60806040526004361061014f5760003560e01c80638a0dac21116100b6578063bad4a01f1161006f578063bad4a01f14610466578063c6cb677014610482578063e5acc187146104ab578063eaea4fc9146104d6578063eaf3a62e146104ff578063f2fde38b1461052a5761018f565b80638a0dac21146103785780638d803a1e146103a35780638da5cb5b146103ce57806394a83eeb146103f9578063adc38b0614610410578063b2ca18051461043b5761018f565b80633cb85225116101085780633cb852251461028c57806344dc7fbc146102b757806354f197e0146102e25780635dc334bf1461030d5780636f9fb98a14610336578063715018a6146103615761018f565b8063074ca9661461019457806309e94d98146101bf57806317634514146101ef5780631cbd83801461021a57806325e16063146102455780632a3d7c81146102615761018f565b3661018f577f85177f287940f2f05425a4029951af0e047a7f9c4eaa9a6e6917bcd869f866953334604051610185929190611902565b60405180910390a1005b600080fd5b3480156101a057600080fd5b506101a9610553565b6040516101b69190611946565b60405180910390f35b3480156101cb57600080fd5b506101d4610566565b6040516101e696959493929190611a7e565b60405180910390f35b3480156101fb57600080fd5b50610204610590565b6040516102119190611a63565b60405180910390f35b34801561022657600080fd5b5061022f610596565b60405161023c9190611a63565b60405180910390f35b61025f600480360381019061025a9190611418565b61059c565b005b34801561026d57600080fd5b506102766106e3565b6040516102839190611a63565b60405180910390f35b34801561029857600080fd5b506102a16106e9565b6040516102ae919061192b565b60405180910390f35b3480156102c357600080fd5b506102cc61070f565b6040516102d9919061192b565b60405180910390f35b3480156102ee57600080fd5b506102f7610735565b6040516103049190611895565b60405180910390f35b34801561031957600080fd5b50610334600480360381019061032f91906113ef565b61075b565b005b34801561034257600080fd5b5061034b6108f9565b6040516103589190611a63565b60405180910390f35b34801561036d57600080fd5b5061037661095f565b005b34801561038457600080fd5b5061038d610ab2565b60405161039a9190611a63565b60405180910390f35b3480156103af57600080fd5b506103b8610ab8565b6040516103c59190611a63565b60405180910390f35b3480156103da57600080fd5b506103e3610abe565b6040516103f09190611895565b60405180910390f35b34801561040557600080fd5b5061040e610ae7565b005b34801561041c57600080fd5b50610425610c11565b6040516104329190611961565b60405180910390f35b34801561044757600080fd5b50610450610caf565b60405161045d9190611a63565b60405180910390f35b610480600480360381019061047b9190611493565b610cb5565b005b34801561048e57600080fd5b506104a960048036038101906104a4919061146a565b610f43565b005b3480156104b757600080fd5b506104c0611018565b6040516104cd9190611a63565b60405180910390f35b3480156104e257600080fd5b506104fd60048036038101906104f891906113ef565b61101e565b005b34801561050b57600080fd5b506105146110c5565b6040516105219190611a63565b60405180910390f35b34801561053657600080fd5b50610551600480360381019061054c91906113ef565b6110cb565b005b600860009054906101000a900460ff1681565b60028060000154908060010154908060020154908060030154908060040154908060050154905086565b600c5481565b60105481565b6105a461128d565b73ffffffffffffffffffffffffffffffffffffffff1660008054906101000a900473ffffffffffffffffffffffffffffffffffffffff1673ffffffffffffffffffffffffffffffffffffffff1614610631576040517f08c379a000000000000000000000000000000000000000000000000000000000815260040161062890611a23565b60405180910390fd5b6003600481111561063e57fe5b600860009054906101000a900460ff16600481111561065957fe5b14610699576040517f08c379a000000000000000000000000000000000000000000000000000000000815260040161069090611a03565b60405180910390fd5b8073ffffffffffffffffffffffffffffffffffffffff166108fc479081150290604051600060405180830381858888f193505050501580156106df573d6000803e3d6000fd5b5050565b600d5481565b601260009054906101000a900473ffffffffffffffffffffffffffffffffffffffff1681565b601360009054906101000a900473ffffffffffffffffffffffffffffffffffffffff1681565b600160009054906101000a900473ffffffffffffffffffffffffffffffffffffffff1681565b61076361128d565b73ffffffffffffffffffffffffffffffffffffffff1660008054906101000a900473ffffffffffffffffffffffffffffffffffffffff1673ffffffffffffffffffffffffffffffffffffffff16146107f0576040517f08c379a00000000000000000000000000000000000000000000000000000000081526004016107e790611a23565b60405180910390fd5b600073ffffffffffffffffffffffffffffffffffffffff168173ffffffffffffffffffffffffffffffffffffffff161415610860576040517f08c379a0000000000000000000000000000000000000000000000000000000008152600401610857906119e3565b60405180910390fd5b3073ffffffffffffffffffffffffffffffffffffffff1663f2fde38b826040518263ffffffff1660e01b81526004016108999190611895565b600060405180830381600087803b1580156108b357600080fd5b505af11580156108c7573d6000803e3d6000fd5b5050505043600e819055506001600860006101000a81548160ff021916908360048111156108f157fe5b021790555050565b600060405160200161090a90611880565b6040516020818303038152906040528051906020012060096040516020016109329190611869565b60405160208183030381529060405280519060200120141561095857601054905061095c565b4790505b90565b61096761128d565b73ffffffffffffffffffffffffffffffffffffffff1660008054906101000a900473ffffffffffffffffffffffffffffffffffffffff1673ffffffffffffffffffffffffffffffffffffffff16146109f4576040517f08c379a00000000000000000000000000000000000000000000000000000000081526004016109eb90611a23565b60405180910390fd5b600073ffffffffffffffffffffffffffffffffffffffff1660008054906101000a900473ffffffffffffffffffffffffffffffffffffffff1673ffffffffffffffffffffffffffffffffffffffff167f8be0079c531659141344cd1fd0a4f28419497f9722a3daafe3b4186f6b6457e060405160405180910390a360008060006101000a81548173ffffffffffffffffffffffffffffffffffffffff021916908373ffffffffffffffffffffffffffffffffffffffff160217905550565b600f5481565b600b5481565b60008060009054906101000a900473ffffffffffffffffffffffffffffffffffffffff16905090565b610aef61128d565b73ffffffffffffffffffffffffffffffffffffffff1660008054906101000a900473ffffffffffffffffffffffffffffffffffffffff1673ffffffffffffffffffffffffffffffffffffffff1614610b7c576040517f08c379a0000000000000000000000000000000000000000000000000000000008152600401610b7390611a23565b60405180910390fd5b60016004811115610b8957fe5b600860009054906101000a900460ff166004811115610ba457fe5b14610be4576040517f08c379a0000000000000000000000000000000000000000000000000000000008152600401610bdb90611a03565b60405180910390fd5b43600f819055506002600860006101000a81548160ff02191690836004811115610c0a57fe5b0217905550565b60098054600181600116156101000203166002900480601f016020809104026020016040519081016040528092919081815260200182805460018160011615610100020316600290048015610ca75780601f10610c7c57610100808354040283529160200191610ca7565b820191906000526020600020905b815481529060010190602001808311610c8a57829003601f168201915b505050505081565b600e5481565b604051602001610cc490611880565b604051602081830303815290604052805190602001206009604051602001610cec9190611869565b604051602081830303815290604052805190602001201415610f055780601260009054906101000a900473ffffffffffffffffffffffffffffffffffffffff1673ffffffffffffffffffffffffffffffffffffffff166370a08231336040518263ffffffff1660e01b8152600401610d6491906118b0565b60206040518083038186803b158015610d7c57600080fd5b505afa158015610d90573d6000803e3d6000fd5b505050506040513d601f19601f82011682018060405250810190610db491906114bc565b1015610df5576040517f08c379a0000000000000000000000000000000000000000000000000000000008152600401610dec90611a43565b60405180910390fd5b601260009054906101000a900473ffffffffffffffffffffffffffffffffffffffff1673ffffffffffffffffffffffffffffffffffffffff166323b872dd3330846040518463ffffffff1660e01b8152600401610e54939291906118cb565b602060405180830381600087803b158015610e6e57600080fd5b505af1158015610e82573d6000803e3d6000fd5b505050506040513d601f19601f82011682018060405250810190610ea69190611441565b50610ebc8160105461129590919063ffffffff16565b60108190555043600d819055507f3f478372607b68e147b903a0b92f830c8d6468755dc7ac8ac400b95f3d987e4f81604051610ef89190611a63565b60405180910390a1610f40565b6040517f08c379a0000000000000000000000000000000000000000000000000000000008152600401610f37906119c3565b60405180910390fd5b50565b601460009054906101000a900473ffffffffffffffffffffffffffffffffffffffff1673ffffffffffffffffffffffffffffffffffffffff163373ffffffffffffffffffffffffffffffffffffffff1614610fd3576040517f08c379a0000000000000000000000000000000000000000000000000000000008152600401610fca906119e3565b60405180910390fd5b806002600082015181600001556020820151816001015560408201518160020155606082015181600301556080820151816004015560a0820151816005015590505050565b600a5481565b80600160006101000a81548173ffffffffffffffffffffffffffffffffffffffff021916908373ffffffffffffffffffffffffffffffffffffffff160217905550600160009054906101000a900473ffffffffffffffffffffffffffffffffffffffff16601260006101000a81548173ffffffffffffffffffffffffffffffffffffffff021916908373ffffffffffffffffffffffffffffffffffffffff16021790555050565b60115481565b6110d361128d565b73ffffffffffffffffffffffffffffffffffffffff1660008054906101000a900473ffffffffffffffffffffffffffffffffffffffff1673ffffffffffffffffffffffffffffffffffffffff1614611160576040517f08c379a000000000000000000000000000000000000000000000000000000000815260040161115790611a23565b60405180910390fd5b600073ffffffffffffffffffffffffffffffffffffffff168173ffffffffffffffffffffffffffffffffffffffff1614156111d0576040517f08c379a00000000000000000000000000000000000000000000000000000000081526004016111c790611983565b60405180910390fd5b8073ffffffffffffffffffffffffffffffffffffffff1660008054906101000a900473ffffffffffffffffffffffffffffffffffffffff1673ffffffffffffffffffffffffffffffffffffffff167f8be0079c531659141344cd1fd0a4f28419497f9722a3daafe3b4186f6b6457e060405160405180910390a3806000806101000a81548173ffffffffffffffffffffffffffffffffffffffff021916908373ffffffffffffffffffffffffffffffffffffffff16021790555050565b600033905090565b6000808284019050838110156112e0576040517f08c379a00000000000000000000000000000000000000000000000000000000081526004016112d7906119a3565b60405180910390fd5b8091505092915050565b6000813590506112f981611c72565b92915050565b60008135905061130e81611c89565b92915050565b60008151905061132381611ca0565b92915050565b600060c0828403121561133b57600080fd5b61134560c0611adf565b90506000611355848285016113c5565b6000830152506020611369848285016113c5565b602083015250604061137d848285016113c5565b6040830152506060611391848285016113c5565b60608301525060806113a5848285016113c5565b60808301525060a06113b9848285016113c5565b60a08301525092915050565b6000813590506113d481611cb7565b92915050565b6000815190506113e981611cb7565b92915050565b60006020828403121561140157600080fd5b600061140f848285016112ea565b91505092915050565b60006020828403121561142a57600080fd5b6000611438848285016112ff565b91505092915050565b60006020828403121561145357600080fd5b600061146184828501611314565b91505092915050565b600060c0828403121561147c57600080fd5b600061148a84828501611329565b91505092915050565b6000602082840312156114a557600080fd5b60006114b3848285016113c5565b91505092915050565b6000602082840312156114ce57600080fd5b60006114dc848285016113da565b91505092915050565b6114ee81611bb5565b82525050565b6114fd81611b48565b82525050565b61150c81611bc7565b82525050565b61151b81611beb565b82525050565b600061152c82611b21565b6115368185611b2c565b9350611546818560208601611c21565b61154f81611c54565b840191505092915050565b600081546001811660008114611577576001811461159c576115e0565b607f60028304166115888187611b3d565b955060ff19831686528086019350506115e0565b600282046115aa8187611b3d565b95506115b585611b0c565b60005b828110156115d7578154818901526001820191506020810190506115b8565b82880195505050505b505092915050565b60006115f5602683611b2c565b91507f4f776e61626c653a206e6577206f776e657220697320746865207a65726f206160008301527f64647265737300000000000000000000000000000000000000000000000000006020830152604082019050919050565b600061165b601b83611b2c565b91507f536166654d6174683a206164646974696f6e206f766572666c6f7700000000006000830152602082019050919050565b600061169b600483611b3d565b91507f45555253000000000000000000000000000000000000000000000000000000006000830152600482019050919050565b60006116db601283611b2c565b91507f4e6f7420616363657074656420746f6b656e00000000000000000000000000006000830152602082019050919050565b600061171b601383611b2c565b91507f41646472657373206e6f7420616c6c6f776564000000000000000000000000006000830152602082019050919050565b600061175b603383611b2c565b91507f4c6f616e20737461747573206e6f7420636f6d70617469626c6520776974682060008301527f666f7265636c6f73696e6720616374696f6e73000000000000000000000000006020830152604082019050919050565b60006117c1602083611b2c565b91507f4f776e61626c653a2063616c6c6572206973206e6f7420746865206f776e65726000830152602082019050919050565b6000611801602683611b2c565b91507f4e6f7420656e6f756768204a4e5420746f6b656e7320696e2073656e6465722060008301527f77616c6c657400000000000000000000000000000000000000000000000000006020830152604082019050919050565b61186381611bab565b82525050565b6000611875828461155a565b915081905092915050565b600061188b8261168e565b9150819050919050565b60006020820190506118aa60008301846114f4565b92915050565b60006020820190506118c560008301846114e5565b92915050565b60006060820190506118e060008301866114e5565b6118ed60208301856114e5565b6118fa604083018461185a565b949350505050565b600060408201905061191760008301856114e5565b611924602083018461185a565b9392505050565b60006020820190506119406000830184611503565b92915050565b600060208201905061195b6000830184611512565b92915050565b6000602082019050818103600083015261197b8184611521565b905092915050565b6000602082019050818103600083015261199c816115e8565b9050919050565b600060208201905081810360008301526119bc8161164e565b9050919050565b600060208201905081810360008301526119dc816116ce565b9050919050565b600060208201905081810360008301526119fc8161170e565b9050919050565b60006020820190508181036000830152611a1c8161174e565b9050919050565b60006020820190508181036000830152611a3c816117b4565b9050919050565b60006020820190508181036000830152611a5c816117f4565b9050919050565b6000602082019050611a78600083018461185a565b92915050565b600060c082019050611a93600083018961185a565b611aa0602083018861185a565b611aad604083018761185a565b611aba606083018661185a565b611ac7608083018561185a565b611ad460a083018461185a565b979650505050505050565b6000604051905081810181811067ffffffffffffffff82111715611b0257600080fd5b8060405250919050565b60008190508160005260206000209050919050565b600081519050919050565b600082825260208201905092915050565b600081905092915050565b6000611b5382611b8b565b9050919050565b6000611b6582611b8b565b9050919050565b60008115159050919050565b6000819050611b8682611c65565b919050565b600073ffffffffffffffffffffffffffffffffffffffff82169050919050565b6000819050919050565b6000611bc082611bfd565b9050919050565b6000611bd282611bd9565b9050919050565b6000611be482611b8b565b9050919050565b6000611bf682611b78565b9050919050565b6000611c0882611c0f565b9050919050565b6000611c1a82611b8b565b9050919050565b60005b83811015611c3f578082015181840152602081019050611c24565b83811115611c4e576000848401525b50505050565b6000601f19601f8301169050919050565b60058110611c6f57fe5b50565b611c7b81611b48565b8114611c8657600080fd5b50565b611c9281611b5a565b8114611c9d57600080fd5b50565b611ca981611b6c565b8114611cb457600080fd5b50565b611cc081611bab565b8114611ccb57600080fd5b5056fea264697066735822122086ea9e3e7154e64795c00b5654a2ddfa726a9d0fc706cf227f11f8aad6e4abe164736f6c634300060c0033","opcodes":"PUSH1 0x80 PUSH1 0x40 MSTORE PUSH1 0x1 DUP1 PUSH1 0x0 PUSH2 0x100 EXP DUP2 SLOAD DUP2 PUSH20 0xFFFFFFFFFFFFFFFFFFFFFFFFFFFFFFFFFFFFFFFF MUL NOT AND SWAP1 DUP4 PUSH20 0xFFFFFFFFFFFFFFFFFFFFFFFFFFFFFFFFFFFFFFFF AND MUL OR SWAP1 SSTORE POP CALLVALUE DUP1 ISZERO PUSH3 0x52 JUMPI PUSH1 0x0 DUP1 REVERT JUMPDEST POP PUSH1 0x40 MLOAD PUSH3 0x2609 CODESIZE SUB DUP1 PUSH3 0x2609 DUP4 CODECOPY DUP2 DUP2 ADD PUSH1 0x40 MSTORE DUP2 ADD SWAP1 PUSH3 0x78 SWAP2 SWAP1 PUSH3 0x586 JUMP JUMPDEST PUSH1 0x0 PUSH3 0x8A PUSH3 0x3A3 PUSH1 0x20 SHL PUSH1 0x20 SHR JUMP JUMPDEST SWAP1 POP DUP1 PUSH1 0x0 DUP1 PUSH2 0x100 EXP DUP2 SLOAD DUP2 PUSH20 0xFFFFFFFFFFFFFFFFFFFFFFFFFFFFFFFFFFFFFFFF MUL NOT AND SWAP1 DUP4 PUSH20 0xFFFFFFFFFFFFFFFFFFFFFFFFFFFFFFFFFFFFFFFF AND MUL OR SWAP1 SSTORE POP DUP1 PUSH20 0xFFFFFFFFFFFFFFFFFFFFFFFFFFFFFFFFFFFFFFFF AND PUSH1 0x0 PUSH20 0xFFFFFFFFFFFFFFFFFFFFFFFFFFFFFFFFFFFFFFFF AND PUSH32 0x8BE0079C531659141344CD1FD0A4F28419497F9722A3DAAFE3B4186F6B6457E0 PUSH1 0x40 MLOAD PUSH1 0x40 MLOAD DUP1 SWAP2 SUB SWAP1 LOG3 POP DUP2 PUSH1 0x2 PUSH1 0x0 DUP3 ADD MLOAD DUP2 PUSH1 0x0 ADD SSTORE PUSH1 0x20 DUP3 ADD MLOAD DUP2 PUSH1 0x1 ADD SSTORE PUSH1 0x40 DUP3 ADD MLOAD DUP2 PUSH1 0x2 ADD SSTORE PUSH1 0x60 DUP3 ADD MLOAD DUP2 PUSH1 0x3 ADD SSTORE PUSH1 0x80 DUP3 ADD MLOAD DUP2 PUSH1 0x4 ADD SSTORE PUSH1 0xA0 DUP3 ADD MLOAD DUP2 PUSH1 0x5 ADD SSTORE SWAP1 POP POP PUSH1 0x2 PUSH1 0x0 ADD SLOAD DUP4 LT ISZERO PUSH3 0x1B5 JUMPI PUSH1 0x40 MLOAD PUSH32 0x8C379A000000000000000000000000000000000000000000000000000000000 DUP2 MSTORE PUSH1 0x4 ADD PUSH3 0x1AC SWAP1 PUSH3 0x782 JUMP JUMPDEST PUSH1 0x40 MLOAD DUP1 SWAP2 SUB SWAP1 REVERT JUMPDEST DUP1 PUSH1 0x14 PUSH1 0x0 PUSH2 0x100 EXP DUP2 SLOAD DUP2 PUSH20 0xFFFFFFFFFFFFFFFFFFFFFFFFFFFFFFFFFFFFFFFF MUL NOT AND SWAP1 DUP4 PUSH20 0xFFFFFFFFFFFFFFFFFFFFFFFFFFFFFFFFFFFFFFFF AND MUL OR SWAP1 SSTORE POP DUP3 PUSH1 0xB DUP2 SWAP1 SSTORE POP DUP5 PUSH1 0x9 SWAP1 DUP1 MLOAD SWAP1 PUSH1 0x20 ADD SWAP1 PUSH3 0x215 SWAP3 SWAP2 SWAP1 PUSH3 0x3AB JUMP JUMPDEST POP PUSH1 0x40 MLOAD PUSH1 0x20 ADD PUSH3 0x227 SWAP1 PUSH3 0x76B JUMP JUMPDEST PUSH1 0x40 MLOAD PUSH1 0x20 DUP2 DUP4 SUB SUB DUP2 MSTORE SWAP1 PUSH1 0x40 MSTORE DUP1 MLOAD SWAP1 PUSH1 0x20 ADD KECCAK256 PUSH1 0x9 PUSH1 0x40 MLOAD PUSH1 0x20 ADD PUSH3 0x251 SWAP2 SWAP1 PUSH3 0x752 JUMP JUMPDEST PUSH1 0x40 MLOAD PUSH1 0x20 DUP2 DUP4 SUB SUB DUP2 MSTORE SWAP1 PUSH1 0x40 MSTORE DUP1 MLOAD SWAP1 PUSH1 0x20 ADD KECCAK256 EQ ISZERO PUSH3 0x2D7 JUMPI PUSH1 0x1 PUSH1 0x0 SWAP1 SLOAD SWAP1 PUSH2 0x100 EXP SWAP1 DIV PUSH20 0xFFFFFFFFFFFFFFFFFFFFFFFFFFFFFFFFFFFFFFFF AND PUSH1 0x12 PUSH1 0x0 PUSH2 0x100 EXP DUP2 SLOAD DUP2 PUSH20 0xFFFFFFFFFFFFFFFFFFFFFFFFFFFFFFFFFFFFFFFF MUL NOT AND SWAP1 DUP4 PUSH20 0xFFFFFFFFFFFFFFFFFFFFFFFFFFFFFFFFFFFFFFFF AND MUL OR SWAP1 SSTORE POP PUSH3 0x31A JUMP JUMPDEST PUSH1 0x0 PUSH1 0x12 PUSH1 0x0 PUSH2 0x100 EXP DUP2 SLOAD DUP2 PUSH20 0xFFFFFFFFFFFFFFFFFFFFFFFFFFFFFFFFFFFFFFFF MUL NOT AND SWAP1 DUP4 PUSH20 0xFFFFFFFFFFFFFFFFFFFFFFFFFFFFFFFFFFFFFFFF AND MUL OR SWAP1 SSTORE POP JUMPDEST DUP4 PUSH1 0xA DUP2 SWAP1 SSTORE POP NUMBER PUSH1 0xC DUP2 SWAP1 SSTORE POP PUSH1 0x0 PUSH1 0x8 PUSH1 0x0 PUSH2 0x100 EXP DUP2 SLOAD DUP2 PUSH1 0xFF MUL NOT AND SWAP1 DUP4 PUSH1 0x4 DUP2 GT ISZERO PUSH3 0x348 JUMPI INVALID JUMPDEST MUL OR SWAP1 SSTORE POP PUSH1 0x0 PUSH1 0x10 DUP2 SWAP1 SSTORE POP PUSH1 0x0 PUSH1 0x11 DUP2 SWAP1 SSTORE POP PUSH32 0x656AD37B815087D90F0C4CBDBF28A9EF3E92CFEB045DD15EAA452CC8B1D34E00 PUSH1 0xC SLOAD PUSH1 0x40 MLOAD PUSH3 0x390 SWAP2 SWAP1 PUSH3 0x7A4 JUMP JUMPDEST PUSH1 0x40 MLOAD DUP1 SWAP2 SUB SWAP1 LOG1 POP POP POP POP POP PUSH3 0x8F5 JUMP JUMPDEST PUSH1 0x0 CALLER SWAP1 POP SWAP1 JUMP JUMPDEST DUP3 DUP1 SLOAD PUSH1 0x1 DUP2 PUSH1 0x1 AND ISZERO PUSH2 0x100 MUL SUB AND PUSH1 0x2 SWAP1 DIV SWAP1 PUSH1 0x0 MSTORE PUSH1 0x20 PUSH1 0x0 KECCAK256 SWAP1 PUSH1 0x1F ADD PUSH1 0x20 SWAP1 DIV DUP2 ADD SWAP3 DUP3 PUSH1 0x1F LT PUSH3 0x3EE JUMPI DUP1 MLOAD PUSH1 0xFF NOT AND DUP4 DUP1 ADD OR DUP6 SSTORE PUSH3 0x41F JUMP JUMPDEST DUP3 DUP1 ADD PUSH1 0x1 ADD DUP6 SSTORE DUP3 ISZERO PUSH3 0x41F JUMPI SWAP2 DUP3 ADD JUMPDEST DUP3 DUP2 GT ISZERO PUSH3 0x41E JUMPI DUP3 MLOAD DUP3 SSTORE SWAP2 PUSH1 0x20 ADD SWAP2 SWAP1 PUSH1 0x1 ADD SWAP1 PUSH3 0x401 JUMP JUMPDEST JUMPDEST POP SWAP1 POP PUSH3 0x42E SWAP2 SWAP1 PUSH3 0x432 JUMP JUMPDEST POP SWAP1 JUMP JUMPDEST JUMPDEST DUP1 DUP3 GT ISZERO PUSH3 0x44D JUMPI PUSH1 0x0 DUP2 PUSH1 0x0 SWAP1 SSTORE POP PUSH1 0x1 ADD PUSH3 0x433 JUMP JUMPDEST POP SWAP1 JUMP JUMPDEST PUSH1 0x0 DUP2 MLOAD SWAP1 POP PUSH3 0x462 DUP2 PUSH3 0x8C1 JUMP JUMPDEST SWAP3 SWAP2 POP POP JUMP JUMPDEST PUSH1 0x0 DUP3 PUSH1 0x1F DUP4 ADD SLT PUSH3 0x47A JUMPI PUSH1 0x0 DUP1 REVERT JUMPDEST DUP2 MLOAD PUSH3 0x491 PUSH3 0x48B DUP3 PUSH3 0x7EF JUMP JUMPDEST PUSH3 0x7C1 JUMP JUMPDEST SWAP2 POP DUP1 DUP3 MSTORE PUSH1 0x20 DUP4 ADD PUSH1 0x20 DUP4 ADD DUP6 DUP4 DUP4 ADD GT ISZERO PUSH3 0x4AE JUMPI PUSH1 0x0 DUP1 REVERT JUMPDEST PUSH3 0x4BB DUP4 DUP3 DUP5 PUSH3 0x88B JUMP JUMPDEST POP POP POP SWAP3 SWAP2 POP POP JUMP JUMPDEST PUSH1 0x0 PUSH1 0xC0 DUP3 DUP5 SUB SLT ISZERO PUSH3 0x4D7 JUMPI PUSH1 0x0 DUP1 REVERT JUMPDEST PUSH3 0x4E3 PUSH1 0xC0 PUSH3 0x7C1 JUMP JUMPDEST SWAP1 POP PUSH1 0x0 PUSH3 0x4F5 DUP5 DUP3 DUP6 ADD PUSH3 0x56F JUMP JUMPDEST PUSH1 0x0 DUP4 ADD MSTORE POP PUSH1 0x20 PUSH3 0x50B DUP5 DUP3 DUP6 ADD PUSH3 0x56F JUMP JUMPDEST PUSH1 0x20 DUP4 ADD MSTORE POP PUSH1 0x40 PUSH3 0x521 DUP5 DUP3 DUP6 ADD PUSH3 0x56F JUMP JUMPDEST PUSH1 0x40 DUP4 ADD MSTORE POP PUSH1 0x60 PUSH3 0x537 DUP5 DUP3 DUP6 ADD PUSH3 0x56F JUMP JUMPDEST PUSH1 0x60 DUP4 ADD MSTORE POP PUSH1 0x80 PUSH3 0x54D DUP5 DUP3 DUP6 ADD PUSH3 0x56F JUMP JUMPDEST PUSH1 0x80 DUP4 ADD MSTORE POP PUSH1 0xA0 PUSH3 0x563 DUP5 DUP3 DUP6 ADD PUSH3 0x56F JUMP JUMPDEST PUSH1 0xA0 DUP4 ADD MSTORE POP SWAP3 SWAP2 POP POP JUMP JUMPDEST PUSH1 0x0 DUP2 MLOAD SWAP1 POP PUSH3 0x580 DUP2 PUSH3 0x8DB JUMP JUMPDEST SWAP3 SWAP2 POP POP JUMP JUMPDEST PUSH1 0x0 DUP1 PUSH1 0x0 DUP1 PUSH1 0x0 PUSH2 0x140 DUP7 DUP9 SUB SLT ISZERO PUSH3 0x5A0 JUMPI PUSH1 0x0 DUP1 REVERT JUMPDEST PUSH1 0x0 DUP7 ADD MLOAD PUSH8 0xFFFFFFFFFFFFFFFF DUP2 GT ISZERO PUSH3 0x5BB JUMPI PUSH1 0x0 DUP1 REVERT JUMPDEST PUSH3 0x5C9 DUP9 DUP3 DUP10 ADD PUSH3 0x468 JUMP JUMPDEST SWAP6 POP POP PUSH1 0x20 PUSH3 0x5DC DUP9 DUP3 DUP10 ADD PUSH3 0x56F JUMP JUMPDEST SWAP5 POP POP PUSH1 0x40 PUSH3 0x5EF DUP9 DUP3 DUP10 ADD PUSH3 0x56F JUMP JUMPDEST SWAP4 POP POP PUSH1 0x60 PUSH3 0x602 DUP9 DUP3 DUP10 ADD PUSH3 0x4C4 JUMP JUMPDEST SWAP3 POP POP PUSH2 0x120 PUSH3 0x616 DUP9 DUP3 DUP10 ADD PUSH3 0x451 JUMP JUMPDEST SWAP2 POP POP SWAP3 SWAP6 POP SWAP3 SWAP6 SWAP1 SWAP4 POP JUMP JUMPDEST PUSH1 0x0 DUP2 SLOAD PUSH1 0x1 DUP2 AND PUSH1 0x0 DUP2 EQ PUSH3 0x643 JUMPI PUSH1 0x1 DUP2 EQ PUSH3 0x66B JUMPI PUSH3 0x6B5 JUMP JUMPDEST PUSH1 0x7F PUSH1 0x2 DUP4 DIV AND PUSH3 0x656 DUP2 DUP8 PUSH3 0x842 JUMP JUMPDEST SWAP6 POP PUSH1 0xFF NOT DUP4 AND DUP7 MSTORE DUP1 DUP7 ADD SWAP4 POP POP PUSH3 0x6B5 JUMP JUMPDEST PUSH1 0x2 DUP3 DIV PUSH3 0x67B DUP2 DUP8 PUSH3 0x842 JUMP JUMPDEST SWAP6 POP PUSH3 0x688 DUP6 PUSH3 0x81C JUMP JUMPDEST PUSH1 0x0 JUMPDEST DUP3 DUP2 LT ISZERO PUSH3 0x6AC JUMPI DUP2 SLOAD DUP2 DUP10 ADD MSTORE PUSH1 0x1 DUP3 ADD SWAP2 POP PUSH1 0x20 DUP2 ADD SWAP1 POP PUSH3 0x68B JUMP JUMPDEST DUP3 DUP9 ADD SWAP6 POP POP POP POP JUMPDEST POP POP SWAP3 SWAP2 POP POP JUMP JUMPDEST PUSH1 0x0 PUSH3 0x6CC PUSH1 0x4 DUP4 PUSH3 0x842 JUMP JUMPDEST SWAP2 POP PUSH32 0x4555525300000000000000000000000000000000000000000000000000000000 PUSH1 0x0 DUP4 ADD MSTORE PUSH1 0x4 DUP3 ADD SWAP1 POP SWAP2 SWAP1 POP JUMP JUMPDEST PUSH1 0x0 PUSH3 0x70E PUSH1 0x11 DUP4 PUSH3 0x831 JUMP JUMPDEST SWAP2 POP PUSH32 0x496E74657265737420746F6F206C6F7721000000000000000000000000000000 PUSH1 0x0 DUP4 ADD MSTORE PUSH1 0x20 DUP3 ADD SWAP1 POP SWAP2 SWAP1 POP JUMP JUMPDEST PUSH3 0x74C DUP2 PUSH3 0x881 JUMP JUMPDEST DUP3 MSTORE POP POP JUMP JUMPDEST PUSH1 0x0 PUSH3 0x760 DUP3 DUP5 PUSH3 0x623 JUMP JUMPDEST SWAP2 POP DUP2 SWAP1 POP SWAP3 SWAP2 POP POP JUMP JUMPDEST PUSH1 0x0 PUSH3 0x778 DUP3 PUSH3 0x6BD JUMP JUMPDEST SWAP2 POP DUP2 SWAP1 POP SWAP2 SWAP1 POP JUMP JUMPDEST PUSH1 0x0 PUSH1 0x20 DUP3 ADD SWAP1 POP DUP2 DUP2 SUB PUSH1 0x0 DUP4 ADD MSTORE PUSH3 0x79D DUP2 PUSH3 0x6FF JUMP JUMPDEST SWAP1 POP SWAP2 SWAP1 POP JUMP JUMPDEST PUSH1 0x0 PUSH1 0x20 DUP3 ADD SWAP1 POP PUSH3 0x7BB PUSH1 0x0 DUP4 ADD DUP5 PUSH3 0x741 JUMP JUMPDEST SWAP3 SWAP2 POP POP JUMP JUMPDEST PUSH1 0x0 PUSH1 0x40 MLOAD SWAP1 POP DUP2 DUP2 ADD DUP2 DUP2 LT PUSH8 0xFFFFFFFFFFFFFFFF DUP3 GT OR ISZERO PUSH3 0x7E5 JUMPI PUSH1 0x0 DUP1 REVERT JUMPDEST DUP1 PUSH1 0x40 MSTORE POP SWAP2 SWAP1 POP JUMP JUMPDEST PUSH1 0x0 PUSH8 0xFFFFFFFFFFFFFFFF DUP3 GT ISZERO PUSH3 0x807 JUMPI PUSH1 0x0 DUP1 REVERT JUMPDEST PUSH1 0x1F NOT PUSH1 0x1F DUP4 ADD AND SWAP1 POP PUSH1 0x20 DUP2 ADD SWAP1 POP SWAP2 SWAP1 POP JUMP JUMPDEST PUSH1 0x0 DUP2 SWAP1 POP DUP2 PUSH1 0x0 MSTORE PUSH1 0x20 PUSH1 0x0 KECCAK256 SWAP1 POP SWAP2 SWAP1 POP JUMP JUMPDEST PUSH1 0x0 DUP3 DUP3 MSTORE PUSH1 0x20 DUP3 ADD SWAP1 POP SWAP3 SWAP2 POP POP JUMP JUMPDEST PUSH1 0x0 DUP2 SWAP1 POP SWAP3 SWAP2 POP POP JUMP JUMPDEST PUSH1 0x0 PUSH3 0x85A DUP3 PUSH3 0x861 JUMP JUMPDEST SWAP1 POP SWAP2 SWAP1 POP JUMP JUMPDEST PUSH1 0x0 PUSH20 0xFFFFFFFFFFFFFFFFFFFFFFFFFFFFFFFFFFFFFFFF DUP3 AND SWAP1 POP SWAP2 SWAP1 POP JUMP JUMPDEST PUSH1 0x0 DUP2 SWAP1 POP SWAP2 SWAP1 POP JUMP JUMPDEST PUSH1 0x0 JUMPDEST DUP4 DUP2 LT ISZERO PUSH3 0x8AB JUMPI DUP1 DUP3 ADD MLOAD DUP2 DUP5 ADD MSTORE PUSH1 0x20 DUP2 ADD SWAP1 POP PUSH3 0x88E JUMP JUMPDEST DUP4 DUP2 GT ISZERO PUSH3 0x8BB JUMPI PUSH1 0x0 DUP5 DUP5 ADD MSTORE JUMPDEST POP POP POP POP JUMP JUMPDEST PUSH3 0x8CC DUP2 PUSH3 0x84D JUMP JUMPDEST DUP2 EQ PUSH3 0x8D8 JUMPI PUSH1 0x0 DUP1 REVERT JUMPDEST POP JUMP JUMPDEST PUSH3 0x8E6 DUP2 PUSH3 0x881 JUMP JUMPDEST DUP2 EQ PUSH3 0x8F2 JUMPI PUSH1 0x0 DUP1 REVERT JUMPDEST POP JUMP JUMPDEST PUSH2 0x1D04 DUP1 PUSH3 0x905 PUSH1 0x0 CODECOPY PUSH1 0x0 RETURN INVALID PUSH1 0x80 PUSH1 0x40 MSTORE PUSH1 0x4 CALLDATASIZE LT PUSH2 0x14F JUMPI PUSH1 0x0 CALLDATALOAD PUSH1 0xE0 SHR DUP1 PUSH4 0x8A0DAC21 GT PUSH2 0xB6 JUMPI DUP1 PUSH4 0xBAD4A01F GT PUSH2 0x6F JUMPI DUP1 PUSH4 0xBAD4A01F EQ PUSH2 0x466 JUMPI DUP1 PUSH4 0xC6CB6770 EQ PUSH2 0x482 JUMPI DUP1 PUSH4 0xE5ACC187 EQ PUSH2 0x4AB JUMPI DUP1 PUSH4 0xEAEA4FC9 EQ PUSH2 0x4D6 JUMPI DUP1 PUSH4 0xEAF3A62E EQ PUSH2 0x4FF JUMPI DUP1 PUSH4 0xF2FDE38B EQ PUSH2 0x52A JUMPI PUSH2 0x18F JUMP JUMPDEST DUP1 PUSH4 0x8A0DAC21 EQ PUSH2 0x378 JUMPI DUP1 PUSH4 0x8D803A1E EQ PUSH2 0x3A3 JUMPI DUP1 PUSH4 0x8DA5CB5B EQ PUSH2 0x3CE JUMPI DUP1 PUSH4 0x94A83EEB EQ PUSH2 0x3F9 JUMPI DUP1 PUSH4 0xADC38B06 EQ PUSH2 0x410 JUMPI DUP1 PUSH4 0xB2CA1805 EQ PUSH2 0x43B JUMPI PUSH2 0x18F JUMP JUMPDEST DUP1 PUSH4 0x3CB85225 GT PUSH2 0x108 JUMPI DUP1 PUSH4 0x3CB85225 EQ PUSH2 0x28C JUMPI DUP1 PUSH4 0x44DC7FBC EQ PUSH2 0x2B7 JUMPI DUP1 PUSH4 0x54F197E0 EQ PUSH2 0x2E2 JUMPI DUP1 PUSH4 0x5DC334BF EQ PUSH2 0x30D JUMPI DUP1 PUSH4 0x6F9FB98A EQ PUSH2 0x336 JUMPI DUP1 PUSH4 0x715018A6 EQ PUSH2 0x361 JUMPI PUSH2 0x18F JUMP JUMPDEST DUP1 PUSH4 0x74CA966 EQ PUSH2 0x194 JUMPI DUP1 PUSH4 0x9E94D98 EQ PUSH2 0x1BF JUMPI DUP1 PUSH4 0x17634514 EQ PUSH2 0x1EF JUMPI DUP1 PUSH4 0x1CBD8380 EQ PUSH2 0x21A JUMPI DUP1 PUSH4 0x25E16063 EQ PUSH2 0x245 JUMPI DUP1 PUSH4 0x2A3D7C81 EQ PUSH2 0x261 JUMPI PUSH2 0x18F JUMP JUMPDEST CALLDATASIZE PUSH2 0x18F JUMPI PUSH32 0x85177F287940F2F05425A4029951AF0E047A7F9C4EAA9A6E6917BCD869F86695 CALLER CALLVALUE PUSH1 0x40 MLOAD PUSH2 0x185 SWAP3 SWAP2 SWAP1 PUSH2 0x1902 JUMP JUMPDEST PUSH1 0x40 MLOAD DUP1 SWAP2 SUB SWAP1 LOG1 STOP JUMPDEST PUSH1 0x0 DUP1 REVERT JUMPDEST CALLVALUE DUP1 ISZERO PUSH2 0x1A0 JUMPI PUSH1 0x0 DUP1 REVERT JUMPDEST POP PUSH2 0x1A9 PUSH2 0x553 JUMP JUMPDEST PUSH1 0x40 MLOAD PUSH2 0x1B6 SWAP2 SWAP1 PUSH2 0x1946 JUMP JUMPDEST PUSH1 0x40 MLOAD DUP1 SWAP2 SUB SWAP1 RETURN JUMPDEST CALLVALUE DUP1 ISZERO PUSH2 0x1CB JUMPI PUSH1 0x0 DUP1 REVERT JUMPDEST POP PUSH2 0x1D4 PUSH2 0x566 JUMP JUMPDEST PUSH1 0x40 MLOAD PUSH2 0x1E6 SWAP7 SWAP6 SWAP5 SWAP4 SWAP3 SWAP2 SWAP1 PUSH2 0x1A7E JUMP JUMPDEST PUSH1 0x40 MLOAD DUP1 SWAP2 SUB SWAP1 RETURN JUMPDEST CALLVALUE DUP1 ISZERO PUSH2 0x1FB JUMPI PUSH1 0x0 DUP1 REVERT JUMPDEST POP PUSH2 0x204 PUSH2 0x590 JUMP JUMPDEST PUSH1 0x40 MLOAD PUSH2 0x211 SWAP2 SWAP1 PUSH2 0x1A63 JUMP JUMPDEST PUSH1 0x40 MLOAD DUP1 SWAP2 SUB SWAP1 RETURN JUMPDEST CALLVALUE DUP1 ISZERO PUSH2 0x226 JUMPI PUSH1 0x0 DUP1 REVERT JUMPDEST POP PUSH2 0x22F PUSH2 0x596 JUMP JUMPDEST PUSH1 0x40 MLOAD PUSH2 0x23C SWAP2 SWAP1 PUSH2 0x1A63 JUMP JUMPDEST PUSH1 0x40 MLOAD DUP1 SWAP2 SUB SWAP1 RETURN JUMPDEST PUSH2 0x25F PUSH1 0x4 DUP1 CALLDATASIZE SUB DUP2 ADD SWAP1 PUSH2 0x25A SWAP2 SWAP1 PUSH2 0x1418 JUMP JUMPDEST PUSH2 0x59C JUMP JUMPDEST STOP JUMPDEST CALLVALUE DUP1 ISZERO PUSH2 0x26D JUMPI PUSH1 0x0 DUP1 REVERT JUMPDEST POP PUSH2 0x276 PUSH2 0x6E3 JUMP JUMPDEST PUSH1 0x40 MLOAD PUSH2 0x283 SWAP2 SWAP1 PUSH2 0x1A63 JUMP JUMPDEST PUSH1 0x40 MLOAD DUP1 SWAP2 SUB SWAP1 RETURN JUMPDEST CALLVALUE DUP1 ISZERO PUSH2 0x298 JUMPI PUSH1 0x0 DUP1 REVERT JUMPDEST POP PUSH2 0x2A1 PUSH2 0x6E9 JUMP JUMPDEST PUSH1 0x40 MLOAD PUSH2 0x2AE SWAP2 SWAP1 PUSH2 0x192B JUMP JUMPDEST PUSH1 0x40 MLOAD DUP1 SWAP2 SUB SWAP1 RETURN JUMPDEST CALLVALUE DUP1 ISZERO PUSH2 0x2C3 JUMPI PUSH1 0x0 DUP1 REVERT JUMPDEST POP PUSH2 0x2CC PUSH2 0x70F JUMP JUMPDEST PUSH1 0x40 MLOAD PUSH2 0x2D9 SWAP2 SWAP1 PUSH2 0x192B JUMP JUMPDEST PUSH1 0x40 MLOAD DUP1 SWAP2 SUB SWAP1 RETURN JUMPDEST CALLVALUE DUP1 ISZERO PUSH2 0x2EE JUMPI PUSH1 0x0 DUP1 REVERT JUMPDEST POP PUSH2 0x2F7 PUSH2 0x735 JUMP JUMPDEST PUSH1 0x40 MLOAD PUSH2 0x304 SWAP2 SWAP1 PUSH2 0x1895 JUMP JUMPDEST PUSH1 0x40 MLOAD DUP1 SWAP2 SUB SWAP1 RETURN JUMPDEST CALLVALUE DUP1 ISZERO PUSH2 0x319 JUMPI PUSH1 0x0 DUP1 REVERT JUMPDEST POP PUSH2 0x334 PUSH1 0x4 DUP1 CALLDATASIZE SUB DUP2 ADD SWAP1 PUSH2 0x32F SWAP2 SWAP1 PUSH2 0x13EF JUMP JUMPDEST PUSH2 0x75B JUMP JUMPDEST STOP JUMPDEST CALLVALUE DUP1 ISZERO PUSH2 0x342 JUMPI PUSH1 0x0 DUP1 REVERT JUMPDEST POP PUSH2 0x34B PUSH2 0x8F9 JUMP JUMPDEST PUSH1 0x40 MLOAD PUSH2 0x358 SWAP2 SWAP1 PUSH2 0x1A63 JUMP JUMPDEST PUSH1 0x40 MLOAD DUP1 SWAP2 SUB SWAP1 RETURN JUMPDEST CALLVALUE DUP1 ISZERO PUSH2 0x36D JUMPI PUSH1 0x0 DUP1 REVERT JUMPDEST POP PUSH2 0x376 PUSH2 0x95F JUMP JUMPDEST STOP JUMPDEST CALLVALUE DUP1 ISZERO PUSH2 0x384 JUMPI PUSH1 0x0 DUP1 REVERT JUMPDEST POP PUSH2 0x38D PUSH2 0xAB2 JUMP JUMPDEST PUSH1 0x40 MLOAD PUSH2 0x39A SWAP2 SWAP1 PUSH2 0x1A63 JUMP JUMPDEST PUSH1 0x40 MLOAD DUP1 SWAP2 SUB SWAP1 RETURN JUMPDEST CALLVALUE DUP1 ISZERO PUSH2 0x3AF JUMPI PUSH1 0x0 DUP1 REVERT JUMPDEST POP PUSH2 0x3B8 PUSH2 0xAB8 JUMP JUMPDEST PUSH1 0x40 MLOAD PUSH2 0x3C5 SWAP2 SWAP1 PUSH2 0x1A63 JUMP JUMPDEST PUSH1 0x40 MLOAD DUP1 SWAP2 SUB SWAP1 RETURN JUMPDEST CALLVALUE DUP1 ISZERO PUSH2 0x3DA JUMPI PUSH1 0x0 DUP1 REVERT JUMPDEST POP PUSH2 0x3E3 PUSH2 0xABE JUMP JUMPDEST PUSH1 0x40 MLOAD PUSH2 0x3F0 SWAP2 SWAP1 PUSH2 0x1895 JUMP JUMPDEST PUSH1 0x40 MLOAD DUP1 SWAP2 SUB SWAP1 RETURN JUMPDEST CALLVALUE DUP1 ISZERO PUSH2 0x405 JUMPI PUSH1 0x0 DUP1 REVERT JUMPDEST POP PUSH2 0x40E PUSH2 0xAE7 JUMP JUMPDEST STOP JUMPDEST CALLVALUE DUP1 ISZERO PUSH2 0x41C JUMPI PUSH1 0x0 DUP1 REVERT JUMPDEST POP PUSH2 0x425 PUSH2 0xC11 JUMP JUMPDEST PUSH1 0x40 MLOAD PUSH2 0x432 SWAP2 SWAP1 PUSH2 0x1961 JUMP JUMPDEST PUSH1 0x40 MLOAD DUP1 SWAP2 SUB SWAP1 RETURN JUMPDEST CALLVALUE DUP1 ISZERO PUSH2 0x447 JUMPI PUSH1 0x0 DUP1 REVERT JUMPDEST POP PUSH2 0x450 PUSH2 0xCAF JUMP JUMPDEST PUSH1 0x40 MLOAD PUSH2 0x45D SWAP2 SWAP1 PUSH2 0x1A63 JUMP JUMPDEST PUSH1 0x40 MLOAD DUP1 SWAP2 SUB SWAP1 RETURN JUMPDEST PUSH2 0x480 PUSH1 0x4 DUP1 CALLDATASIZE SUB DUP2 ADD SWAP1 PUSH2 0x47B SWAP2 SWAP1 PUSH2 0x1493 JUMP JUMPDEST PUSH2 0xCB5 JUMP JUMPDEST STOP JUMPDEST CALLVALUE DUP1 ISZERO PUSH2 0x48E JUMPI PUSH1 0x0 DUP1 REVERT JUMPDEST POP PUSH2 0x4A9 PUSH1 0x4 DUP1 CALLDATASIZE SUB DUP2 ADD SWAP1 PUSH2 0x4A4 SWAP2 SWAP1 PUSH2 0x146A JUMP JUMPDEST PUSH2 0xF43 JUMP JUMPDEST STOP JUMPDEST CALLVALUE DUP1 ISZERO PUSH2 0x4B7 JUMPI PUSH1 0x0 DUP1 REVERT JUMPDEST POP PUSH2 0x4C0 PUSH2 0x1018 JUMP JUMPDEST PUSH1 0x40 MLOAD PUSH2 0x4CD SWAP2 SWAP1 PUSH2 0x1A63 JUMP JUMPDEST PUSH1 0x40 MLOAD DUP1 SWAP2 SUB SWAP1 RETURN JUMPDEST CALLVALUE DUP1 ISZERO PUSH2 0x4E2 JUMPI PUSH1 0x0 DUP1 REVERT JUMPDEST POP PUSH2 0x4FD PUSH1 0x4 DUP1 CALLDATASIZE SUB DUP2 ADD SWAP1 PUSH2 0x4F8 SWAP2 SWAP1 PUSH2 0x13EF JUMP JUMPDEST PUSH2 0x101E JUMP JUMPDEST STOP JUMPDEST CALLVALUE DUP1 ISZERO PUSH2 0x50B JUMPI PUSH1 0x0 DUP1 REVERT JUMPDEST POP PUSH2 0x514 PUSH2 0x10C5 JUMP JUMPDEST PUSH1 0x40 MLOAD PUSH2 0x521 SWAP2 SWAP1 PUSH2 0x1A63 JUMP JUMPDEST PUSH1 0x40 MLOAD DUP1 SWAP2 SUB SWAP1 RETURN JUMPDEST CALLVALUE DUP1 ISZERO PUSH2 0x536 JUMPI PUSH1 0x0 DUP1 REVERT JUMPDEST POP PUSH2 0x551 PUSH1 0x4 DUP1 CALLDATASIZE SUB DUP2 ADD SWAP1 PUSH2 0x54C SWAP2 SWAP1 PUSH2 0x13EF JUMP JUMPDEST PUSH2 0x10CB JUMP JUMPDEST STOP JUMPDEST PUSH1 0x8 PUSH1 0x0 SWAP1 SLOAD SWAP1 PUSH2 0x100 EXP SWAP1 DIV PUSH1 0xFF AND DUP2 JUMP JUMPDEST PUSH1 0x2 DUP1 PUSH1 0x0 ADD SLOAD SWAP1 DUP1 PUSH1 0x1 ADD SLOAD SWAP1 DUP1 PUSH1 0x2 ADD SLOAD SWAP1 DUP1 PUSH1 0x3 ADD SLOAD SWAP1 DUP1 PUSH1 0x4 ADD SLOAD SWAP1 DUP1 PUSH1 0x5 ADD SLOAD SWAP1 POP DUP7 JUMP JUMPDEST PUSH1 0xC SLOAD DUP2 JUMP JUMPDEST PUSH1 0x10 SLOAD DUP2 JUMP JUMPDEST PUSH2 0x5A4 PUSH2 0x128D JUMP JUMPDEST PUSH20 0xFFFFFFFFFFFFFFFFFFFFFFFFFFFFFFFFFFFFFFFF AND PUSH1 0x0 DUP1 SLOAD SWAP1 PUSH2 0x100 EXP SWAP1 DIV PUSH20 0xFFFFFFFFFFFFFFFFFFFFFFFFFFFFFFFFFFFFFFFF AND PUSH20 0xFFFFFFFFFFFFFFFFFFFFFFFFFFFFFFFFFFFFFFFF AND EQ PUSH2 0x631 JUMPI PUSH1 0x40 MLOAD PUSH32 0x8C379A000000000000000000000000000000000000000000000000000000000 DUP2 MSTORE PUSH1 0x4 ADD PUSH2 0x628 SWAP1 PUSH2 0x1A23 JUMP JUMPDEST PUSH1 0x40 MLOAD DUP1 SWAP2 SUB SWAP1 REVERT JUMPDEST PUSH1 0x3 PUSH1 0x4 DUP2 GT ISZERO PUSH2 0x63E JUMPI INVALID JUMPDEST PUSH1 0x8 PUSH1 0x0 SWAP1 SLOAD SWAP1 PUSH2 0x100 EXP SWAP1 DIV PUSH1 0xFF AND PUSH1 0x4 DUP2 GT ISZERO PUSH2 0x659 JUMPI INVALID JUMPDEST EQ PUSH2 0x699 JUMPI PUSH1 0x40 MLOAD PUSH32 0x8C379A000000000000000000000000000000000000000000000000000000000 DUP2 MSTORE PUSH1 0x4 ADD PUSH2 0x690 SWAP1 PUSH2 0x1A03 JUMP JUMPDEST PUSH1 0x40 MLOAD DUP1 SWAP2 SUB SWAP1 REVERT JUMPDEST DUP1 PUSH20 0xFFFFFFFFFFFFFFFFFFFFFFFFFFFFFFFFFFFFFFFF AND PUSH2 0x8FC SELFBALANCE SWAP1 DUP2 ISZERO MUL SWAP1 PUSH1 0x40 MLOAD PUSH1 0x0 PUSH1 0x40 MLOAD DUP1 DUP4 SUB DUP2 DUP6 DUP9 DUP9 CALL SWAP4 POP POP POP POP ISZERO DUP1 ISZERO PUSH2 0x6DF JUMPI RETURNDATASIZE PUSH1 0x0 DUP1 RETURNDATACOPY RETURNDATASIZE PUSH1 0x0 REVERT JUMPDEST POP POP JUMP JUMPDEST PUSH1 0xD SLOAD DUP2 JUMP JUMPDEST PUSH1 0x12 PUSH1 0x0 SWAP1 SLOAD SWAP1 PUSH2 0x100 EXP SWAP1 DIV PUSH20 0xFFFFFFFFFFFFFFFFFFFFFFFFFFFFFFFFFFFFFFFF AND DUP2 JUMP JUMPDEST PUSH1 0x13 PUSH1 0x0 SWAP1 SLOAD SWAP1 PUSH2 0x100 EXP SWAP1 DIV PUSH20 0xFFFFFFFFFFFFFFFFFFFFFFFFFFFFFFFFFFFFFFFF AND DUP2 JUMP JUMPDEST PUSH1 0x1 PUSH1 0x0 SWAP1 SLOAD SWAP1 PUSH2 0x100 EXP SWAP1 DIV PUSH20 0xFFFFFFFFFFFFFFFFFFFFFFFFFFFFFFFFFFFFFFFF AND DUP2 JUMP JUMPDEST PUSH2 0x763 PUSH2 0x128D JUMP JUMPDEST PUSH20 0xFFFFFFFFFFFFFFFFFFFFFFFFFFFFFFFFFFFFFFFF AND PUSH1 0x0 DUP1 SLOAD SWAP1 PUSH2 0x100 EXP SWAP1 DIV PUSH20 0xFFFFFFFFFFFFFFFFFFFFFFFFFFFFFFFFFFFFFFFF AND PUSH20 0xFFFFFFFFFFFFFFFFFFFFFFFFFFFFFFFFFFFFFFFF AND EQ PUSH2 0x7F0 JUMPI PUSH1 0x40 MLOAD PUSH32 0x8C379A000000000000000000000000000000000000000000000000000000000 DUP2 MSTORE PUSH1 0x4 ADD PUSH2 0x7E7 SWAP1 PUSH2 0x1A23 JUMP JUMPDEST PUSH1 0x40 MLOAD DUP1 SWAP2 SUB SWAP1 REVERT JUMPDEST PUSH1 0x0 PUSH20 0xFFFFFFFFFFFFFFFFFFFFFFFFFFFFFFFFFFFFFFFF AND DUP2 PUSH20 0xFFFFFFFFFFFFFFFFFFFFFFFFFFFFFFFFFFFFFFFF AND EQ ISZERO PUSH2 0x860 JUMPI PUSH1 0x40 MLOAD PUSH32 0x8C379A000000000000000000000000000000000000000000000000000000000 DUP2 MSTORE PUSH1 0x4 ADD PUSH2 0x857 SWAP1 PUSH2 0x19E3 JUMP JUMPDEST PUSH1 0x40 MLOAD DUP1 SWAP2 SUB SWAP1 REVERT JUMPDEST ADDRESS PUSH20 0xFFFFFFFFFFFFFFFFFFFFFFFFFFFFFFFFFFFFFFFF AND PUSH4 0xF2FDE38B DUP3 PUSH1 0x40 MLOAD DUP3 PUSH4 0xFFFFFFFF AND PUSH1 0xE0 SHL DUP2 MSTORE PUSH1 0x4 ADD PUSH2 0x899 SWAP2 SWAP1 PUSH2 0x1895 JUMP JUMPDEST PUSH1 0x0 PUSH1 0x40 MLOAD DUP1 DUP4 SUB DUP2 PUSH1 0x0 DUP8 DUP1 EXTCODESIZE ISZERO DUP1 ISZERO PUSH2 0x8B3 JUMPI PUSH1 0x0 DUP1 REVERT JUMPDEST POP GAS CALL ISZERO DUP1 ISZERO PUSH2 0x8C7 JUMPI RETURNDATASIZE PUSH1 0x0 DUP1 RETURNDATACOPY RETURNDATASIZE PUSH1 0x0 REVERT JUMPDEST POP POP POP POP NUMBER PUSH1 0xE DUP2 SWAP1 SSTORE POP PUSH1 0x1 PUSH1 0x8 PUSH1 0x0 PUSH2 0x100 EXP DUP2 SLOAD DUP2 PUSH1 0xFF MUL NOT AND SWAP1 DUP4 PUSH1 0x4 DUP2 GT ISZERO PUSH2 0x8F1 JUMPI INVALID JUMPDEST MUL OR SWAP1 SSTORE POP POP JUMP JUMPDEST PUSH1 0x0 PUSH1 0x40 MLOAD PUSH1 0x20 ADD PUSH2 0x90A SWAP1 PUSH2 0x1880 JUMP JUMPDEST PUSH1 0x40 MLOAD PUSH1 0x20 DUP2 DUP4 SUB SUB DUP2 MSTORE SWAP1 PUSH1 0x40 MSTORE DUP1 MLOAD SWAP1 PUSH1 0x20 ADD KECCAK256 PUSH1 0x9 PUSH1 0x40 MLOAD PUSH1 0x20 ADD PUSH2 0x932 SWAP2 SWAP1 PUSH2 0x1869 JUMP JUMPDEST PUSH1 0x40 MLOAD PUSH1 0x20 DUP2 DUP4 SUB SUB DUP2 MSTORE SWAP1 PUSH1 0x40 MSTORE DUP1 MLOAD SWAP1 PUSH1 0x20 ADD KECCAK256 EQ ISZERO PUSH2 0x958 JUMPI PUSH1 0x10 SLOAD SWAP1 POP PUSH2 0x95C JUMP JUMPDEST SELFBALANCE SWAP1 POP JUMPDEST SWAP1 JUMP JUMPDEST PUSH2 0x967 PUSH2 0x128D JUMP JUMPDEST PUSH20 0xFFFFFFFFFFFFFFFFFFFFFFFFFFFFFFFFFFFFFFFF AND PUSH1 0x0 DUP1 SLOAD SWAP1 PUSH2 0x100 EXP SWAP1 DIV PUSH20 0xFFFFFFFFFFFFFFFFFFFFFFFFFFFFFFFFFFFFFFFF AND PUSH20 0xFFFFFFFFFFFFFFFFFFFFFFFFFFFFFFFFFFFFFFFF AND EQ PUSH2 0x9F4 JUMPI PUSH1 0x40 MLOAD PUSH32 0x8C379A000000000000000000000000000000000000000000000000000000000 DUP2 MSTORE PUSH1 0x4 ADD PUSH2 0x9EB SWAP1 PUSH2 0x1A23 JUMP JUMPDEST PUSH1 0x40 MLOAD DUP1 SWAP2 SUB SWAP1 REVERT JUMPDEST PUSH1 0x0 PUSH20 0xFFFFFFFFFFFFFFFFFFFFFFFFFFFFFFFFFFFFFFFF AND PUSH1 0x0 DUP1 SLOAD SWAP1 PUSH2 0x100 EXP SWAP1 DIV PUSH20 0xFFFFFFFFFFFFFFFFFFFFFFFFFFFFFFFFFFFFFFFF AND PUSH20 0xFFFFFFFFFFFFFFFFFFFFFFFFFFFFFFFFFFFFFFFF AND PUSH32 0x8BE0079C531659141344CD1FD0A4F28419497F9722A3DAAFE3B4186F6B6457E0 PUSH1 0x40 MLOAD PUSH1 0x40 MLOAD DUP1 SWAP2 SUB SWAP1 LOG3 PUSH1 0x0 DUP1 PUSH1 0x0 PUSH2 0x100 EXP DUP2 SLOAD DUP2 PUSH20 0xFFFFFFFFFFFFFFFFFFFFFFFFFFFFFFFFFFFFFFFF MUL NOT AND SWAP1 DUP4 PUSH20 0xFFFFFFFFFFFFFFFFFFFFFFFFFFFFFFFFFFFFFFFF AND MUL OR SWAP1 SSTORE POP JUMP JUMPDEST PUSH1 0xF SLOAD DUP2 JUMP JUMPDEST PUSH1 0xB SLOAD DUP2 JUMP JUMPDEST PUSH1 0x0 DUP1 PUSH1 0x0 SWAP1 SLOAD SWAP1 PUSH2 0x100 EXP SWAP1 DIV PUSH20 0xFFFFFFFFFFFFFFFFFFFFFFFFFFFFFFFFFFFFFFFF AND SWAP1 POP SWAP1 JUMP JUMPDEST PUSH2 0xAEF PUSH2 0x128D JUMP JUMPDEST PUSH20 0xFFFFFFFFFFFFFFFFFFFFFFFFFFFFFFFFFFFFFFFF AND PUSH1 0x0 DUP1 SLOAD SWAP1 PUSH2 0x100 EXP SWAP1 DIV PUSH20 0xFFFFFFFFFFFFFFFFFFFFFFFFFFFFFFFFFFFFFFFF AND PUSH20 0xFFFFFFFFFFFFFFFFFFFFFFFFFFFFFFFFFFFFFFFF AND EQ PUSH2 0xB7C JUMPI PUSH1 0x40 MLOAD PUSH32 0x8C379A000000000000000000000000000000000000000000000000000000000 DUP2 MSTORE PUSH1 0x4 ADD PUSH2 0xB73 SWAP1 PUSH2 0x1A23 JUMP JUMPDEST PUSH1 0x40 MLOAD DUP1 SWAP2 SUB SWAP1 REVERT JUMPDEST PUSH1 0x1 PUSH1 0x4 DUP2 GT ISZERO PUSH2 0xB89 JUMPI INVALID JUMPDEST PUSH1 0x8 PUSH1 0x0 SWAP1 SLOAD SWAP1 PUSH2 0x100 EXP SWAP1 DIV PUSH1 0xFF AND PUSH1 0x4 DUP2 GT ISZERO PUSH2 0xBA4 JUMPI INVALID JUMPDEST EQ PUSH2 0xBE4 JUMPI PUSH1 0x40 MLOAD PUSH32 0x8C379A000000000000000000000000000000000000000000000000000000000 DUP2 MSTORE PUSH1 0x4 ADD PUSH2 0xBDB SWAP1 PUSH2 0x1A03 JUMP JUMPDEST PUSH1 0x40 MLOAD DUP1 SWAP2 SUB SWAP1 REVERT JUMPDEST NUMBER PUSH1 0xF DUP2 SWAP1 SSTORE POP PUSH1 0x2 PUSH1 0x8 PUSH1 0x0 PUSH2 0x100 EXP DUP2 SLOAD DUP2 PUSH1 0xFF MUL NOT AND SWAP1 DUP4 PUSH1 0x4 DUP2 GT ISZERO PUSH2 0xC0A JUMPI INVALID JUMPDEST MUL OR SWAP1 SSTORE POP JUMP JUMPDEST PUSH1 0x9 DUP1 SLOAD PUSH1 0x1 DUP2 PUSH1 0x1 AND ISZERO PUSH2 0x100 MUL SUB AND PUSH1 0x2 SWAP1 DIV DUP1 PUSH1 0x1F ADD PUSH1 0x20 DUP1 SWAP2 DIV MUL PUSH1 0x20 ADD PUSH1 0x40 MLOAD SWAP1 DUP2 ADD PUSH1 0x40 MSTORE DUP1 SWAP3 SWAP2 SWAP1 DUP2 DUP2 MSTORE PUSH1 0x20 ADD DUP3 DUP1 SLOAD PUSH1 0x1 DUP2 PUSH1 0x1 AND ISZERO PUSH2 0x100 MUL SUB AND PUSH1 0x2 SWAP1 DIV DUP1 ISZERO PUSH2 0xCA7 JUMPI DUP1 PUSH1 0x1F LT PUSH2 0xC7C JUMPI PUSH2 0x100 DUP1 DUP4 SLOAD DIV MUL DUP4 MSTORE SWAP2 PUSH1 0x20 ADD SWAP2 PUSH2 0xCA7 JUMP JUMPDEST DUP3 ADD SWAP2 SWAP1 PUSH1 0x0 MSTORE PUSH1 0x20 PUSH1 0x0 KECCAK256 SWAP1 JUMPDEST DUP2 SLOAD DUP2 MSTORE SWAP1 PUSH1 0x1 ADD SWAP1 PUSH1 0x20 ADD DUP1 DUP4 GT PUSH2 0xC8A JUMPI DUP3 SWAP1 SUB PUSH1 0x1F AND DUP3 ADD SWAP2 JUMPDEST POP POP POP POP POP DUP2 JUMP JUMPDEST PUSH1 0xE SLOAD DUP2 JUMP JUMPDEST PUSH1 0x40 MLOAD PUSH1 0x20 ADD PUSH2 0xCC4 SWAP1 PUSH2 0x1880 JUMP JUMPDEST PUSH1 0x40 MLOAD PUSH1 0x20 DUP2 DUP4 SUB SUB DUP2 MSTORE SWAP1 PUSH1 0x40 MSTORE DUP1 MLOAD SWAP1 PUSH1 0x20 ADD KECCAK256 PUSH1 0x9 PUSH1 0x40 MLOAD PUSH1 0x20 ADD PUSH2 0xCEC SWAP2 SWAP1 PUSH2 0x1869 JUMP JUMPDEST PUSH1 0x40 MLOAD PUSH1 0x20 DUP2 DUP4 SUB SUB DUP2 MSTORE SWAP1 PUSH1 0x40 MSTORE DUP1 MLOAD SWAP1 PUSH1 0x20 ADD KECCAK256 EQ ISZERO PUSH2 0xF05 JUMPI DUP1 PUSH1 0x12 PUSH1 0x0 SWAP1 SLOAD SWAP1 PUSH2 0x100 EXP SWAP1 DIV PUSH20 0xFFFFFFFFFFFFFFFFFFFFFFFFFFFFFFFFFFFFFFFF AND PUSH20 0xFFFFFFFFFFFFFFFFFFFFFFFFFFFFFFFFFFFFFFFF AND PUSH4 0x70A08231 CALLER PUSH1 0x40 MLOAD DUP3 PUSH4 0xFFFFFFFF AND PUSH1 0xE0 SHL DUP2 MSTORE PUSH1 0x4 ADD PUSH2 0xD64 SWAP2 SWAP1 PUSH2 0x18B0 JUMP JUMPDEST PUSH1 0x20 PUSH1 0x40 MLOAD DUP1 DUP4 SUB DUP2 DUP7 DUP1 EXTCODESIZE ISZERO DUP1 ISZERO PUSH2 0xD7C JUMPI PUSH1 0x0 DUP1 REVERT JUMPDEST POP GAS STATICCALL ISZERO DUP1 ISZERO PUSH2 0xD90 JUMPI RETURNDATASIZE PUSH1 0x0 DUP1 RETURNDATACOPY RETURNDATASIZE PUSH1 0x0 REVERT JUMPDEST POP POP POP POP PUSH1 0x40 MLOAD RETURNDATASIZE PUSH1 0x1F NOT PUSH1 0x1F DUP3 ADD AND DUP3 ADD DUP1 PUSH1 0x40 MSTORE POP DUP2 ADD SWAP1 PUSH2 0xDB4 SWAP2 SWAP1 PUSH2 0x14BC JUMP JUMPDEST LT ISZERO PUSH2 0xDF5 JUMPI PUSH1 0x40 MLOAD PUSH32 0x8C379A000000000000000000000000000000000000000000000000000000000 DUP2 MSTORE PUSH1 0x4 ADD PUSH2 0xDEC SWAP1 PUSH2 0x1A43 JUMP JUMPDEST PUSH1 0x40 MLOAD DUP1 SWAP2 SUB SWAP1 REVERT JUMPDEST PUSH1 0x12 PUSH1 0x0 SWAP1 SLOAD SWAP1 PUSH2 0x100 EXP SWAP1 DIV PUSH20 0xFFFFFFFFFFFFFFFFFFFFFFFFFFFFFFFFFFFFFFFF AND PUSH20 0xFFFFFFFFFFFFFFFFFFFFFFFFFFFFFFFFFFFFFFFF AND PUSH4 0x23B872DD CALLER ADDRESS DUP5 PUSH1 0x40 MLOAD DUP5 PUSH4 0xFFFFFFFF AND PUSH1 0xE0 SHL DUP2 MSTORE PUSH1 0x4 ADD PUSH2 0xE54 SWAP4 SWAP3 SWAP2 SWAP1 PUSH2 0x18CB JUMP JUMPDEST PUSH1 0x20 PUSH1 0x40 MLOAD DUP1 DUP4 SUB DUP2 PUSH1 0x0 DUP8 DUP1 EXTCODESIZE ISZERO DUP1 ISZERO PUSH2 0xE6E JUMPI PUSH1 0x0 DUP1 REVERT JUMPDEST POP GAS CALL ISZERO DUP1 ISZERO PUSH2 0xE82 JUMPI RETURNDATASIZE PUSH1 0x0 DUP1 RETURNDATACOPY RETURNDATASIZE PUSH1 0x0 REVERT JUMPDEST POP POP POP POP PUSH1 0x40 MLOAD RETURNDATASIZE PUSH1 0x1F NOT PUSH1 0x1F DUP3 ADD AND DUP3 ADD DUP1 PUSH1 0x40 MSTORE POP DUP2 ADD SWAP1 PUSH2 0xEA6 SWAP2 SWAP1 PUSH2 0x1441 JUMP JUMPDEST POP PUSH2 0xEBC DUP2 PUSH1 0x10 SLOAD PUSH2 0x1295 SWAP1 SWAP2 SWAP1 PUSH4 0xFFFFFFFF AND JUMP JUMPDEST PUSH1 0x10 DUP2 SWAP1 SSTORE POP NUMBER PUSH1 0xD DUP2 SWAP1 SSTORE POP PUSH32 0x3F478372607B68E147B903A0B92F830C8D6468755DC7AC8AC400B95F3D987E4F DUP2 PUSH1 0x40 MLOAD PUSH2 0xEF8 SWAP2 SWAP1 PUSH2 0x1A63 JUMP JUMPDEST PUSH1 0x40 MLOAD DUP1 SWAP2 SUB SWAP1 LOG1 PUSH2 0xF40 JUMP JUMPDEST PUSH1 0x40 MLOAD PUSH32 0x8C379A000000000000000000000000000000000000000000000000000000000 DUP2 MSTORE PUSH1 0x4 ADD PUSH2 0xF37 SWAP1 PUSH2 0x19C3 JUMP JUMPDEST PUSH1 0x40 MLOAD DUP1 SWAP2 SUB SWAP1 REVERT JUMPDEST POP JUMP JUMPDEST PUSH1 0x14 PUSH1 0x0 SWAP1 SLOAD SWAP1 PUSH2 0x100 EXP SWAP1 DIV PUSH20 0xFFFFFFFFFFFFFFFFFFFFFFFFFFFFFFFFFFFFFFFF AND PUSH20 0xFFFFFFFFFFFFFFFFFFFFFFFFFFFFFFFFFFFFFFFF AND CALLER PUSH20 0xFFFFFFFFFFFFFFFFFFFFFFFFFFFFFFFFFFFFFFFF AND EQ PUSH2 0xFD3 JUMPI PUSH1 0x40 MLOAD PUSH32 0x8C379A000000000000000000000000000000000000000000000000000000000 DUP2 MSTORE PUSH1 0x4 ADD PUSH2 0xFCA SWAP1 PUSH2 0x19E3 JUMP JUMPDEST PUSH1 0x40 MLOAD DUP1 SWAP2 SUB SWAP1 REVERT JUMPDEST DUP1 PUSH1 0x2 PUSH1 0x0 DUP3 ADD MLOAD DUP2 PUSH1 0x0 ADD SSTORE PUSH1 0x20 DUP3 ADD MLOAD DUP2 PUSH1 0x1 ADD SSTORE PUSH1 0x40 DUP3 ADD MLOAD DUP2 PUSH1 0x2 ADD SSTORE PUSH1 0x60 DUP3 ADD MLOAD DUP2 PUSH1 0x3 ADD SSTORE PUSH1 0x80 DUP3 ADD MLOAD DUP2 PUSH1 0x4 ADD SSTORE PUSH1 0xA0 DUP3 ADD MLOAD DUP2 PUSH1 0x5 ADD SSTORE SWAP1 POP POP POP JUMP JUMPDEST PUSH1 0xA SLOAD DUP2 JUMP JUMPDEST DUP1 PUSH1 0x1 PUSH1 0x0 PUSH2 0x100 EXP DUP2 SLOAD DUP2 PUSH20 0xFFFFFFFFFFFFFFFFFFFFFFFFFFFFFFFFFFFFFFFF MUL NOT AND SWAP1 DUP4 PUSH20 0xFFFFFFFFFFFFFFFFFFFFFFFFFFFFFFFFFFFFFFFF AND MUL OR SWAP1 SSTORE POP PUSH1 0x1 PUSH1 0x0 SWAP1 SLOAD SWAP1 PUSH2 0x100 EXP SWAP1 DIV PUSH20 0xFFFFFFFFFFFFFFFFFFFFFFFFFFFFFFFFFFFFFFFF AND PUSH1 0x12 PUSH1 0x0 PUSH2 0x100 EXP DUP2 SLOAD DUP2 PUSH20 0xFFFFFFFFFFFFFFFFFFFFFFFFFFFFFFFFFFFFFFFF MUL NOT AND SWAP1 DUP4 PUSH20 0xFFFFFFFFFFFFFFFFFFFFFFFFFFFFFFFFFFFFFFFF AND MUL OR SWAP1 SSTORE POP POP JUMP JUMPDEST PUSH1 0x11 SLOAD DUP2 JUMP JUMPDEST PUSH2 0x10D3 PUSH2 0x128D JUMP JUMPDEST PUSH20 0xFFFFFFFFFFFFFFFFFFFFFFFFFFFFFFFFFFFFFFFF AND PUSH1 0x0 DUP1 SLOAD SWAP1 PUSH2 0x100 EXP SWAP1 DIV PUSH20 0xFFFFFFFFFFFFFFFFFFFFFFFFFFFFFFFFFFFFFFFF AND PUSH20 0xFFFFFFFFFFFFFFFFFFFFFFFFFFFFFFFFFFFFFFFF AND EQ PUSH2 0x1160 JUMPI PUSH1 0x40 MLOAD PUSH32 0x8C379A000000000000000000000000000000000000000000000000000000000 DUP2 MSTORE PUSH1 0x4 ADD PUSH2 0x1157 SWAP1 PUSH2 0x1A23 JUMP JUMPDEST PUSH1 0x40 MLOAD DUP1 SWAP2 SUB SWAP1 REVERT JUMPDEST PUSH1 0x0 PUSH20 0xFFFFFFFFFFFFFFFFFFFFFFFFFFFFFFFFFFFFFFFF AND DUP2 PUSH20 0xFFFFFFFFFFFFFFFFFFFFFFFFFFFFFFFFFFFFFFFF AND EQ ISZERO PUSH2 0x11D0 JUMPI PUSH1 0x40 MLOAD PUSH32 0x8C379A000000000000000000000000000000000000000000000000000000000 DUP2 MSTORE PUSH1 0x4 ADD PUSH2 0x11C7 SWAP1 PUSH2 0x1983 JUMP JUMPDEST PUSH1 0x40 MLOAD DUP1 SWAP2 SUB SWAP1 REVERT JUMPDEST DUP1 PUSH20 0xFFFFFFFFFFFFFFFFFFFFFFFFFFFFFFFFFFFFFFFF AND PUSH1 0x0 DUP1 SLOAD SWAP1 PUSH2 0x100 EXP SWAP1 DIV PUSH20 0xFFFFFFFFFFFFFFFFFFFFFFFFFFFFFFFFFFFFFFFF AND PUSH20 0xFFFFFFFFFFFFFFFFFFFFFFFFFFFFFFFFFFFFFFFF AND PUSH32 0x8BE0079C531659141344CD1FD0A4F28419497F9722A3DAAFE3B4186F6B6457E0 PUSH1 0x40 MLOAD PUSH1 0x40 MLOAD DUP1 SWAP2 SUB SWAP1 LOG3 DUP1 PUSH1 0x0 DUP1 PUSH2 0x100 EXP DUP2 SLOAD DUP2 PUSH20 0xFFFFFFFFFFFFFFFFFFFFFFFFFFFFFFFFFFFFFFFF MUL NOT AND SWAP1 DUP4 PUSH20 0xFFFFFFFFFFFFFFFFFFFFFFFFFFFFFFFFFFFFFFFF AND MUL OR SWAP1 SSTORE POP POP JUMP JUMPDEST PUSH1 0x0 CALLER SWAP1 POP SWAP1 JUMP JUMPDEST PUSH1 0x0 DUP1 DUP3 DUP5 ADD SWAP1 POP DUP4 DUP2 LT ISZERO PUSH2 0x12E0 JUMPI PUSH1 0x40 MLOAD PUSH32 0x8C379A000000000000000000000000000000000000000000000000000000000 DUP2 MSTORE PUSH1 0x4 ADD PUSH2 0x12D7 SWAP1 PUSH2 0x19A3 JUMP JUMPDEST PUSH1 0x40 MLOAD DUP1 SWAP2 SUB SWAP1 REVERT JUMPDEST DUP1 SWAP2 POP POP SWAP3 SWAP2 POP POP JUMP JUMPDEST PUSH1 0x0 DUP2 CALLDATALOAD SWAP1 POP PUSH2 0x12F9 DUP2 PUSH2 0x1C72 JUMP JUMPDEST SWAP3 SWAP2 POP POP JUMP JUMPDEST PUSH1 0x0 DUP2 CALLDATALOAD SWAP1 POP PUSH2 0x130E DUP2 PUSH2 0x1C89 JUMP JUMPDEST SWAP3 SWAP2 POP POP JUMP JUMPDEST PUSH1 0x0 DUP2 MLOAD SWAP1 POP PUSH2 0x1323 DUP2 PUSH2 0x1CA0 JUMP JUMPDEST SWAP3 SWAP2 POP POP JUMP JUMPDEST PUSH1 0x0 PUSH1 0xC0 DUP3 DUP5 SUB SLT ISZERO PUSH2 0x133B JUMPI PUSH1 0x0 DUP1 REVERT JUMPDEST PUSH2 0x1345 PUSH1 0xC0 PUSH2 0x1ADF JUMP JUMPDEST SWAP1 POP PUSH1 0x0 PUSH2 0x1355 DUP5 DUP3 DUP6 ADD PUSH2 0x13C5 JUMP JUMPDEST PUSH1 0x0 DUP4 ADD MSTORE POP PUSH1 0x20 PUSH2 0x1369 DUP5 DUP3 DUP6 ADD PUSH2 0x13C5 JUMP JUMPDEST PUSH1 0x20 DUP4 ADD MSTORE POP PUSH1 0x40 PUSH2 0x137D DUP5 DUP3 DUP6 ADD PUSH2 0x13C5 JUMP JUMPDEST PUSH1 0x40 DUP4 ADD MSTORE POP PUSH1 0x60 PUSH2 0x1391 DUP5 DUP3 DUP6 ADD PUSH2 0x13C5 JUMP JUMPDEST PUSH1 0x60 DUP4 ADD MSTORE POP PUSH1 0x80 PUSH2 0x13A5 DUP5 DUP3 DUP6 ADD PUSH2 0x13C5 JUMP JUMPDEST PUSH1 0x80 DUP4 ADD MSTORE POP PUSH1 0xA0 PUSH2 0x13B9 DUP5 DUP3 DUP6 ADD PUSH2 0x13C5 JUMP JUMPDEST PUSH1 0xA0 DUP4 ADD MSTORE POP SWAP3 SWAP2 POP POP JUMP JUMPDEST PUSH1 0x0 DUP2 CALLDATALOAD SWAP1 POP PUSH2 0x13D4 DUP2 PUSH2 0x1CB7 JUMP JUMPDEST SWAP3 SWAP2 POP POP JUMP JUMPDEST PUSH1 0x0 DUP2 MLOAD SWAP1 POP PUSH2 0x13E9 DUP2 PUSH2 0x1CB7 JUMP JUMPDEST SWAP3 SWAP2 POP POP JUMP JUMPDEST PUSH1 0x0 PUSH1 0x20 DUP3 DUP5 SUB SLT ISZERO PUSH2 0x1401 JUMPI PUSH1 0x0 DUP1 REVERT JUMPDEST PUSH1 0x0 PUSH2 0x140F DUP5 DUP3 DUP6 ADD PUSH2 0x12EA JUMP JUMPDEST SWAP2 POP POP SWAP3 SWAP2 POP POP JUMP JUMPDEST PUSH1 0x0 PUSH1 0x20 DUP3 DUP5 SUB SLT ISZERO PUSH2 0x142A JUMPI PUSH1 0x0 DUP1 REVERT JUMPDEST PUSH1 0x0 PUSH2 0x1438 DUP5 DUP3 DUP6 ADD PUSH2 0x12FF JUMP JUMPDEST SWAP2 POP POP SWAP3 SWAP2 POP POP JUMP JUMPDEST PUSH1 0x0 PUSH1 0x20 DUP3 DUP5 SUB SLT ISZERO PUSH2 0x1453 JUMPI PUSH1 0x0 DUP1 REVERT JUMPDEST PUSH1 0x0 PUSH2 0x1461 DUP5 DUP3 DUP6 ADD PUSH2 0x1314 JUMP JUMPDEST SWAP2 POP POP SWAP3 SWAP2 POP POP JUMP JUMPDEST PUSH1 0x0 PUSH1 0xC0 DUP3 DUP5 SUB SLT ISZERO PUSH2 0x147C JUMPI PUSH1 0x0 DUP1 REVERT JUMPDEST PUSH1 0x0 PUSH2 0x148A DUP5 DUP3 DUP6 ADD PUSH2 0x1329 JUMP JUMPDEST SWAP2 POP POP SWAP3 SWAP2 POP POP JUMP JUMPDEST PUSH1 0x0 PUSH1 0x20 DUP3 DUP5 SUB SLT ISZERO PUSH2 0x14A5 JUMPI PUSH1 0x0 DUP1 REVERT JUMPDEST PUSH1 0x0 PUSH2 0x14B3 DUP5 DUP3 DUP6 ADD PUSH2 0x13C5 JUMP JUMPDEST SWAP2 POP POP SWAP3 SWAP2 POP POP JUMP JUMPDEST PUSH1 0x0 PUSH1 0x20 DUP3 DUP5 SUB SLT ISZERO PUSH2 0x14CE JUMPI PUSH1 0x0 DUP1 REVERT JUMPDEST PUSH1 0x0 PUSH2 0x14DC DUP5 DUP3 DUP6 ADD PUSH2 0x13DA JUMP JUMPDEST SWAP2 POP POP SWAP3 SWAP2 POP POP JUMP JUMPDEST PUSH2 0x14EE DUP2 PUSH2 0x1BB5 JUMP JUMPDEST DUP3 MSTORE POP POP JUMP JUMPDEST PUSH2 0x14FD DUP2 PUSH2 0x1B48 JUMP JUMPDEST DUP3 MSTORE POP POP JUMP JUMPDEST PUSH2 0x150C DUP2 PUSH2 0x1BC7 JUMP JUMPDEST DUP3 MSTORE POP POP JUMP JUMPDEST PUSH2 0x151B DUP2 PUSH2 0x1BEB JUMP JUMPDEST DUP3 MSTORE POP POP JUMP JUMPDEST PUSH1 0x0 PUSH2 0x152C DUP3 PUSH2 0x1B21 JUMP JUMPDEST PUSH2 0x1536 DUP2 DUP6 PUSH2 0x1B2C JUMP JUMPDEST SWAP4 POP PUSH2 0x1546 DUP2 DUP6 PUSH1 0x20 DUP7 ADD PUSH2 0x1C21 JUMP JUMPDEST PUSH2 0x154F DUP2 PUSH2 0x1C54 JUMP JUMPDEST DUP5 ADD SWAP2 POP POP SWAP3 SWAP2 POP POP JUMP JUMPDEST PUSH1 0x0 DUP2 SLOAD PUSH1 0x1 DUP2 AND PUSH1 0x0 DUP2 EQ PUSH2 0x1577 JUMPI PUSH1 0x1 DUP2 EQ PUSH2 0x159C JUMPI PUSH2 0x15E0 JUMP JUMPDEST PUSH1 0x7F PUSH1 0x2 DUP4 DIV AND PUSH2 0x1588 DUP2 DUP8 PUSH2 0x1B3D JUMP JUMPDEST SWAP6 POP PUSH1 0xFF NOT DUP4 AND DUP7 MSTORE DUP1 DUP7 ADD SWAP4 POP POP PUSH2 0x15E0 JUMP JUMPDEST PUSH1 0x2 DUP3 DIV PUSH2 0x15AA DUP2 DUP8 PUSH2 0x1B3D JUMP JUMPDEST SWAP6 POP PUSH2 0x15B5 DUP6 PUSH2 0x1B0C JUMP JUMPDEST PUSH1 0x0 JUMPDEST DUP3 DUP2 LT ISZERO PUSH2 0x15D7 JUMPI DUP2 SLOAD DUP2 DUP10 ADD MSTORE PUSH1 0x1 DUP3 ADD SWAP2 POP PUSH1 0x20 DUP2 ADD SWAP1 POP PUSH2 0x15B8 JUMP JUMPDEST DUP3 DUP9 ADD SWAP6 POP POP POP POP JUMPDEST POP POP SWAP3 SWAP2 POP POP JUMP JUMPDEST PUSH1 0x0 PUSH2 0x15F5 PUSH1 0x26 DUP4 PUSH2 0x1B2C JUMP JUMPDEST SWAP2 POP PUSH32 0x4F776E61626C653A206E6577206F776E657220697320746865207A65726F2061 PUSH1 0x0 DUP4 ADD MSTORE PUSH32 0x6464726573730000000000000000000000000000000000000000000000000000 PUSH1 0x20 DUP4 ADD MSTORE PUSH1 0x40 DUP3 ADD SWAP1 POP SWAP2 SWAP1 POP JUMP JUMPDEST PUSH1 0x0 PUSH2 0x165B PUSH1 0x1B DUP4 PUSH2 0x1B2C JUMP JUMPDEST SWAP2 POP PUSH32 0x536166654D6174683A206164646974696F6E206F766572666C6F770000000000 PUSH1 0x0 DUP4 ADD MSTORE PUSH1 0x20 DUP3 ADD SWAP1 POP SWAP2 SWAP1 POP JUMP JUMPDEST PUSH1 0x0 PUSH2 0x169B PUSH1 0x4 DUP4 PUSH2 0x1B3D JUMP JUMPDEST SWAP2 POP PUSH32 0x4555525300000000000000000000000000000000000000000000000000000000 PUSH1 0x0 DUP4 ADD MSTORE PUSH1 0x4 DUP3 ADD SWAP1 POP SWAP2 SWAP1 POP JUMP JUMPDEST PUSH1 0x0 PUSH2 0x16DB PUSH1 0x12 DUP4 PUSH2 0x1B2C JUMP JUMPDEST SWAP2 POP PUSH32 0x4E6F7420616363657074656420746F6B656E0000000000000000000000000000 PUSH1 0x0 DUP4 ADD MSTORE PUSH1 0x20 DUP3 ADD SWAP1 POP SWAP2 SWAP1 POP JUMP JUMPDEST PUSH1 0x0 PUSH2 0x171B PUSH1 0x13 DUP4 PUSH2 0x1B2C JUMP JUMPDEST SWAP2 POP PUSH32 0x41646472657373206E6F7420616C6C6F77656400000000000000000000000000 PUSH1 0x0 DUP4 ADD MSTORE PUSH1 0x20 DUP3 ADD SWAP1 POP SWAP2 SWAP1 POP JUMP JUMPDEST PUSH1 0x0 PUSH2 0x175B PUSH1 0x33 DUP4 PUSH2 0x1B2C JUMP JUMPDEST SWAP2 POP PUSH32 0x4C6F616E20737461747573206E6F7420636F6D70617469626C65207769746820 PUSH1 0x0 DUP4 ADD MSTORE PUSH32 0x666F7265636C6F73696E6720616374696F6E7300000000000000000000000000 PUSH1 0x20 DUP4 ADD MSTORE PUSH1 0x40 DUP3 ADD SWAP1 POP SWAP2 SWAP1 POP JUMP JUMPDEST PUSH1 0x0 PUSH2 0x17C1 PUSH1 0x20 DUP4 PUSH2 0x1B2C JUMP JUMPDEST SWAP2 POP PUSH32 0x4F776E61626C653A2063616C6C6572206973206E6F7420746865206F776E6572 PUSH1 0x0 DUP4 ADD MSTORE PUSH1 0x20 DUP3 ADD SWAP1 POP SWAP2 SWAP1 POP JUMP JUMPDEST PUSH1 0x0 PUSH2 0x1801 PUSH1 0x26 DUP4 PUSH2 0x1B2C JUMP JUMPDEST SWAP2 POP PUSH32 0x4E6F7420656E6F756768204A4E5420746F6B656E7320696E2073656E64657220 PUSH1 0x0 DUP4 ADD MSTORE PUSH32 0x77616C6C65740000000000000000000000000000000000000000000000000000 PUSH1 0x20 DUP4 ADD MSTORE PUSH1 0x40 DUP3 ADD SWAP1 POP SWAP2 SWAP1 POP JUMP JUMPDEST PUSH2 0x1863 DUP2 PUSH2 0x1BAB JUMP JUMPDEST DUP3 MSTORE POP POP JUMP JUMPDEST PUSH1 0x0 PUSH2 0x1875 DUP3 DUP5 PUSH2 0x155A JUMP JUMPDEST SWAP2 POP DUP2 SWAP1 POP SWAP3 SWAP2 POP POP JUMP JUMPDEST PUSH1 0x0 PUSH2 0x188B DUP3 PUSH2 0x168E JUMP JUMPDEST SWAP2 POP DUP2 SWAP1 POP SWAP2 SWAP1 POP JUMP JUMPDEST PUSH1 0x0 PUSH1 0x20 DUP3 ADD SWAP1 POP PUSH2 0x18AA PUSH1 0x0 DUP4 ADD DUP5 PUSH2 0x14F4 JUMP JUMPDEST SWAP3 SWAP2 POP POP JUMP JUMPDEST PUSH1 0x0 PUSH1 0x20 DUP3 ADD SWAP1 POP PUSH2 0x18C5 PUSH1 0x0 DUP4 ADD DUP5 PUSH2 0x14E5 JUMP JUMPDEST SWAP3 SWAP2 POP POP JUMP JUMPDEST PUSH1 0x0 PUSH1 0x60 DUP3 ADD SWAP1 POP PUSH2 0x18E0 PUSH1 0x0 DUP4 ADD DUP7 PUSH2 0x14E5 JUMP JUMPDEST PUSH2 0x18ED PUSH1 0x20 DUP4 ADD DUP6 PUSH2 0x14E5 JUMP JUMPDEST PUSH2 0x18FA PUSH1 0x40 DUP4 ADD DUP5 PUSH2 0x185A JUMP JUMPDEST SWAP5 SWAP4 POP POP POP POP JUMP JUMPDEST PUSH1 0x0 PUSH1 0x40 DUP3 ADD SWAP1 POP PUSH2 0x1917 PUSH1 0x0 DUP4 ADD DUP6 PUSH2 0x14E5 JUMP JUMPDEST PUSH2 0x1924 PUSH1 0x20 DUP4 ADD DUP5 PUSH2 0x185A JUMP JUMPDEST SWAP4 SWAP3 POP POP POP JUMP JUMPDEST PUSH1 0x0 PUSH1 0x20 DUP3 ADD SWAP1 POP PUSH2 0x1940 PUSH1 0x0 DUP4 ADD DUP5 PUSH2 0x1503 JUMP JUMPDEST SWAP3 SWAP2 POP POP JUMP JUMPDEST PUSH1 0x0 PUSH1 0x20 DUP3 ADD SWAP1 POP PUSH2 0x195B PUSH1 0x0 DUP4 ADD DUP5 PUSH2 0x1512 JUMP JUMPDEST SWAP3 SWAP2 POP POP JUMP JUMPDEST PUSH1 0x0 PUSH1 0x20 DUP3 ADD SWAP1 POP DUP2 DUP2 SUB PUSH1 0x0 DUP4 ADD MSTORE PUSH2 0x197B DUP2 DUP5 PUSH2 0x1521 JUMP JUMPDEST SWAP1 POP SWAP3 SWAP2 POP POP JUMP JUMPDEST PUSH1 0x0 PUSH1 0x20 DUP3 ADD SWAP1 POP DUP2 DUP2 SUB PUSH1 0x0 DUP4 ADD MSTORE PUSH2 0x199C DUP2 PUSH2 0x15E8 JUMP JUMPDEST SWAP1 POP SWAP2 SWAP1 POP JUMP JUMPDEST PUSH1 0x0 PUSH1 0x20 DUP3 ADD SWAP1 POP DUP2 DUP2 SUB PUSH1 0x0 DUP4 ADD MSTORE PUSH2 0x19BC DUP2 PUSH2 0x164E JUMP JUMPDEST SWAP1 POP SWAP2 SWAP1 POP JUMP JUMPDEST PUSH1 0x0 PUSH1 0x20 DUP3 ADD SWAP1 POP DUP2 DUP2 SUB PUSH1 0x0 DUP4 ADD MSTORE PUSH2 0x19DC DUP2 PUSH2 0x16CE JUMP JUMPDEST SWAP1 POP SWAP2 SWAP1 POP JUMP JUMPDEST PUSH1 0x0 PUSH1 0x20 DUP3 ADD SWAP1 POP DUP2 DUP2 SUB PUSH1 0x0 DUP4 ADD MSTORE PUSH2 0x19FC DUP2 PUSH2 0x170E JUMP JUMPDEST SWAP1 POP SWAP2 SWAP1 POP JUMP JUMPDEST PUSH1 0x0 PUSH1 0x20 DUP3 ADD SWAP1 POP DUP2 DUP2 SUB PUSH1 0x0 DUP4 ADD MSTORE PUSH2 0x1A1C DUP2 PUSH2 0x174E JUMP JUMPDEST SWAP1 POP SWAP2 SWAP1 POP JUMP JUMPDEST PUSH1 0x0 PUSH1 0x20 DUP3 ADD SWAP1 POP DUP2 DUP2 SUB PUSH1 0x0 DUP4 ADD MSTORE PUSH2 0x1A3C DUP2 PUSH2 0x17B4 JUMP JUMPDEST SWAP1 POP SWAP2 SWAP1 POP JUMP JUMPDEST PUSH1 0x0 PUSH1 0x20 DUP3 ADD SWAP1 POP DUP2 DUP2 SUB PUSH1 0x0 DUP4 ADD MSTORE PUSH2 0x1A5C DUP2 PUSH2 0x17F4 JUMP JUMPDEST SWAP1 POP SWAP2 SWAP1 POP JUMP JUMPDEST PUSH1 0x0 PUSH1 0x20 DUP3 ADD SWAP1 POP PUSH2 0x1A78 PUSH1 0x0 DUP4 ADD DUP5 PUSH2 0x185A JUMP JUMPDEST SWAP3 SWAP2 POP POP JUMP JUMPDEST PUSH1 0x0 PUSH1 0xC0 DUP3 ADD SWAP1 POP PUSH2 0x1A93 PUSH1 0x0 DUP4 ADD DUP10 PUSH2 0x185A JUMP JUMPDEST PUSH2 0x1AA0 PUSH1 0x20 DUP4 ADD DUP9 PUSH2 0x185A JUMP JUMPDEST PUSH2 0x1AAD PUSH1 0x40 DUP4 ADD DUP8 PUSH2 0x185A JUMP JUMPDEST PUSH2 0x1ABA PUSH1 0x60 DUP4 ADD DUP7 PUSH2 0x185A JUMP JUMPDEST PUSH2 0x1AC7 PUSH1 0x80 DUP4 ADD DUP6 PUSH2 0x185A JUMP JUMPDEST PUSH2 0x1AD4 PUSH1 0xA0 DUP4 ADD DUP5 PUSH2 0x185A JUMP JUMPDEST SWAP8 SWAP7 POP POP POP POP POP POP POP JUMP JUMPDEST PUSH1 0x0 PUSH1 0x40 MLOAD SWAP1 POP DUP2 DUP2 ADD DUP2 DUP2 LT PUSH8 0xFFFFFFFFFFFFFFFF DUP3 GT OR ISZERO PUSH2 0x1B02 JUMPI PUSH1 0x0 DUP1 REVERT JUMPDEST DUP1 PUSH1 0x40 MSTORE POP SWAP2 SWAP1 POP JUMP JUMPDEST PUSH1 0x0 DUP2 SWAP1 POP DUP2 PUSH1 0x0 MSTORE PUSH1 0x20 PUSH1 0x0 KECCAK256 SWAP1 POP SWAP2 SWAP1 POP JUMP JUMPDEST PUSH1 0x0 DUP2 MLOAD SWAP1 POP SWAP2 SWAP1 POP JUMP JUMPDEST PUSH1 0x0 DUP3 DUP3 MSTORE PUSH1 0x20 DUP3 ADD SWAP1 POP SWAP3 SWAP2 POP POP JUMP JUMPDEST PUSH1 0x0 DUP2 SWAP1 POP SWAP3 SWAP2 POP POP JUMP JUMPDEST PUSH1 0x0 PUSH2 0x1B53 DUP3 PUSH2 0x1B8B JUMP JUMPDEST SWAP1 POP SWAP2 SWAP1 POP JUMP JUMPDEST PUSH1 0x0 PUSH2 0x1B65 DUP3 PUSH2 0x1B8B JUMP JUMPDEST SWAP1 POP SWAP2 SWAP1 POP JUMP JUMPDEST PUSH1 0x0 DUP2 ISZERO ISZERO SWAP1 POP SWAP2 SWAP1 POP JUMP JUMPDEST PUSH1 0x0 DUP2 SWAP1 POP PUSH2 0x1B86 DUP3 PUSH2 0x1C65 JUMP JUMPDEST SWAP2 SWAP1 POP JUMP JUMPDEST PUSH1 0x0 PUSH20 0xFFFFFFFFFFFFFFFFFFFFFFFFFFFFFFFFFFFFFFFF DUP3 AND SWAP1 POP SWAP2 SWAP1 POP JUMP JUMPDEST PUSH1 0x0 DUP2 SWAP1 POP SWAP2 SWAP1 POP JUMP JUMPDEST PUSH1 0x0 PUSH2 0x1BC0 DUP3 PUSH2 0x1BFD JUMP JUMPDEST SWAP1 POP SWAP2 SWAP1 POP JUMP JUMPDEST PUSH1 0x0 PUSH2 0x1BD2 DUP3 PUSH2 0x1BD9 JUMP JUMPDEST SWAP1 POP SWAP2 SWAP1 POP JUMP JUMPDEST PUSH1 0x0 PUSH2 0x1BE4 DUP3 PUSH2 0x1B8B JUMP JUMPDEST SWAP1 POP SWAP2 SWAP1 POP JUMP JUMPDEST PUSH1 0x0 PUSH2 0x1BF6 DUP3 PUSH2 0x1B78 JUMP JUMPDEST SWAP1 POP SWAP2 SWAP1 POP JUMP JUMPDEST PUSH1 0x0 PUSH2 0x1C08 DUP3 PUSH2 0x1C0F JUMP JUMPDEST SWAP1 POP SWAP2 SWAP1 POP JUMP JUMPDEST PUSH1 0x0 PUSH2 0x1C1A DUP3 PUSH2 0x1B8B JUMP JUMPDEST SWAP1 POP SWAP2 SWAP1 POP JUMP JUMPDEST PUSH1 0x0 JUMPDEST DUP4 DUP2 LT ISZERO PUSH2 0x1C3F JUMPI DUP1 DUP3 ADD MLOAD DUP2 DUP5 ADD MSTORE PUSH1 0x20 DUP2 ADD SWAP1 POP PUSH2 0x1C24 JUMP JUMPDEST DUP4 DUP2 GT ISZERO PUSH2 0x1C4E JUMPI PUSH1 0x0 DUP5 DUP5 ADD MSTORE JUMPDEST POP POP POP POP JUMP JUMPDEST PUSH1 0x0 PUSH1 0x1F NOT PUSH1 0x1F DUP4 ADD AND SWAP1 POP SWAP2 SWAP1 POP JUMP JUMPDEST PUSH1 0x5 DUP2 LT PUSH2 0x1C6F JUMPI INVALID JUMPDEST POP JUMP JUMPDEST PUSH2 0x1C7B DUP2 PUSH2 0x1B48 JUMP JUMPDEST DUP2 EQ PUSH2 0x1C86 JUMPI PUSH1 0x0 DUP1 REVERT JUMPDEST POP JUMP JUMPDEST PUSH2 0x1C92 DUP2 PUSH2 0x1B5A JUMP JUMPDEST DUP2 EQ PUSH2 0x1C9D JUMPI PUSH1 0x0 DUP1 REVERT JUMPDEST POP JUMP JUMPDEST PUSH2 0x1CA9 DUP2 PUSH2 0x1B6C JUMP JUMPDEST DUP2 EQ PUSH2 0x1CB4 JUMPI PUSH1 0x0 DUP1 REVERT JUMPDEST POP JUMP JUMPDEST PUSH2 0x1CC0 DUP2 PUSH2 0x1BAB JUMP JUMPDEST DUP2 EQ PUSH2 0x1CCB JUMPI PUSH1 0x0 DUP1 REVERT JUMPDEST POP JUMP INVALID LOG2 PUSH5 0x6970667358 0x22 SLT KECCAK256 DUP7 0xEA SWAP15 RETURNDATACOPY PUSH18 0x54E64795C00B5654A2DDFA726A9D0FC706CF 0x22 PUSH32 0x11F8AAD6E4ABE164736F6C634300060C00330000000000000000000000000000 "},"gasEstimates":{"creation":{"codeDepositCost":"1485600","executionCost":"infinite","totalCost":"infinite"},"external":{"askedBorrowAmount()":"1195","borrowerBalance()":"1219","chosenBorrowedCrypto()":"infinite","creationBlock()":"1197","cryptoFromBorrower()":"1280","cryptoFromLender()":"1302","depositCollateral(uint256)":"infinite","getContractBalance()":"infinite","jntContractAddress()":"1281","lastDepositBlock()":"1263","lenderAcceptance(address)":"infinite","lenderBalance()":"1239","loanActiveBlock()":"1262","loanForeClosure()":"42946","loanForeclosureBlock()":"1152","loanParams()":"infinite","loanStatus()":"1284","owner()":"1289","renounceOwnership()":"24424","rpbInterest()":"1174","setNewParams((uint256,uint256,uint256,uint256,uint256,uint256))":"infinite","testToken(address)":"43113","transferOwnership(address)":"24772","withdrawEth(address)":"infinite"}},"methodIdentifiers":{"askedBorrowAmount()":"e5acc187","borrowerBalance()":"1cbd8380","chosenBorrowedCrypto()":"adc38b06","creationBlock()":"17634514","cryptoFromBorrower()":"3cb85225","cryptoFromLender()":"44dc7fbc","depositCollateral(uint256)":"bad4a01f","getContractBalance()":"6f9fb98a","jntContractAddress()":"54f197e0","lastDepositBlock()":"2a3d7c81","lenderAcceptance(address)":"5dc334bf","lenderBalance()":"eaf3a62e","loanActiveBlock()":"b2ca1805","loanForeClosure()":"94a83eeb","loanForeclosureBlock()":"8a0dac21","loanParams()":"09e94d98","loanStatus()":"074ca966","owner()":"8da5cb5b","renounceOwnership()":"715018a6","rpbInterest()":"8d803a1e","setNewParams((uint256,uint256,uint256,uint256,uint256,uint256))":"c6cb6770","testToken(address)":"eaea4fc9","transferOwnership(address)":"f2fde38b","withdrawEth(address)":"25e16063"}},"storageLayout":{"storage":[{"astId":223,"contract":"JLoansFactory.sol:JLoan","label":"_owner","offset":0,"slot":"0","type":"t_address"},{"astId":466,"contract":"JLoansFactory.sol:JLoan","label":"jntContractAddress","offset":0,"slot":"1","type":"t_address"},{"astId":468,"contract":"JLoansFactory.sol:JLoan","label":"loanParams","offset":0,"slot":"2","type":"t_struct(params)413_storage"},{"astId":470,"contract":"JLoansFactory.sol:JLoan","label":"loanStatus","offset":0,"slot":"8","type":"t_enum(Status)419"},{"astId":472,"contract":"JLoansFactory.sol:JLoan","label":"chosenBorrowedCrypto","offset":0,"slot":"9","type":"t_string_storage"},{"astId":474,"contract":"JLoansFactory.sol:JLoan","label":"askedBorrowAmount","offset":0,"slot":"10","type":"t_uint256"},{"astId":476,"contract":"JLoansFactory.sol:JLoan","label":"rpbInterest","offset":0,"slot":"11","type":"t_uint256"},{"astId":478,"contract":"JLoansFactory.sol:JLoan","label":"creationBlock","offset":0,"slot":"12","type":"t_uint256"},{"astId":480,"contract":"JLoansFactory.sol:JLoan","label":"lastDepositBlock","offset":0,"slot":"13","type":"t_uint256"},{"astId":482,"contract":"JLoansFactory.sol:JLoan","label":"loanActiveBlock","offset":0,"slot":"14","type":"t_uint256"},{"astId":484,"contract":"JLoansFactory.sol:JLoan","label":"loanForeclosureBlock","offset":0,"slot":"15","type":"t_uint256"},{"astId":486,"contract":"JLoansFactory.sol:JLoan","label":"borrowerBalance","offset":0,"slot":"16","type":"t_uint256"},{"astId":488,"contract":"JLoansFactory.sol:JLoan","label":"lenderBalance","offset":0,"slot":"17","type":"t_uint256"},{"astId":490,"contract":"JLoansFactory.sol:JLoan","label":"cryptoFromBorrower","offset":0,"slot":"18","type":"t_contract(IERC20)400"},{"astId":492,"contract":"JLoansFactory.sol:JLoan","label":"cryptoFromLender","offset":0,"slot":"19","type":"t_contract(IERC20)400"},{"astId":494,"contract":"JLoansFactory.sol:JLoan","label":"factoryAddress","offset":0,"slot":"20","type":"t_address"}],"types":{"t_address":{"encoding":"inplace","label":"address","numberOfBytes":"20"},"t_contract(IERC20)400":{"encoding":"inplace","label":"contract IERC20","numberOfBytes":"20"},"t_enum(Status)419":{"encoding":"inplace","label":"enum IJLoan.Status","numberOfBytes":"1"},"t_string_storage":{"encoding":"bytes","label":"string","numberOfBytes":"32"},"t_struct(params)413_storage":{"encoding":"inplace","label":"struct IJLoan.params","members":[{"astId":402,"contract":"JLoansFactory.sol:JLoan","label":"minRpb","offset":0,"slot":"0","type":"t_uint256"},{"astId":404,"contract":"JLoansFactory.sol:JLoan","label":"earlySettlementWindow","offset":0,"slot":"1","type":"t_uint256"},{"astId":406,"contract":"JLoansFactory.sol:JLoan","label":"foreclosureWindow","offset":0,"slot":"2","type":"t_uint256"},{"astId":408,"contract":"JLoansFactory.sol:JLoan","label":"foreclosureRatio","offset":0,"slot":"3","type":"t_uint256"},{"astId":410,"contract":"JLoansFactory.sol:JLoan","label":"instantForeclosureRatio","offset":0,"slot":"4","type":"t_uint256"},{"astId":412,"contract":"JLoansFactory.sol:JLoan","label":"earlySettlementFee","offset":0,"slot":"5","type":"t_uint256"}],"numberOfBytes":"192"},"t_uint256":{"encoding":"inplace","label":"uint256","numberOfBytes":"32"}}},"userdoc":{"kind":"user","methods":{},"version":1}}