{"abi":[{"inputs":[{"internalType":"string","name":"_name","type":"string"},{"internalType":"string","name":"_borrowedCrypto","type":"string"},{"internalType":"uint256","name":"_borrowedAskAmount","type":"uint256"},{"internalType":"uint256","name":"_rpbRate","type":"uint256"},{"internalType":"uint256","name":"_startPrice","type":"uint256"},{"components":[{"internalType":"uint256","name":"minRpbRate","type":"uint256"},{"internalType":"uint256","name":"earlySettlementWindow","type":"uint256"},{"internalType":"uint256","name":"foreclosureWindow","type":"uint256"},{"internalType":"uint256","name":"foreclosureRatio","type":"uint256"},{"internalType":"uint256","name":"instantForeclosureRatio","type":"uint256"},{"internalType":"uint256","name":"earlySettlementFee","type":"uint256"}],"internalType":"struct IJLoanCommons.params","name":"_passedParams","type":"tuple"},{"internalType":"address","name":"_faddress","type":"address"}],"stateMutability":"nonpayable","type":"constructor"},{"anonymous":false,"inputs":[{"indexed":false,"internalType":"address","name":"sender","type":"address"},{"indexed":false,"internalType":"uint256","name":"value","type":"uint256"}],"name":"EthReceived","type":"event"},{"anonymous":false,"inputs":[{"indexed":false,"internalType":"uint256","name":"creationBlock","type":"uint256"}],"name":"LoanContractDeployed","type":"event"},{"anonymous":false,"inputs":[{"indexed":true,"internalType":"address","name":"previousOwner","type":"address"},{"indexed":true,"internalType":"address","name":"newOwner","type":"address"}],"name":"OwnershipTransferred","type":"event"},{"anonymous":false,"inputs":[{"indexed":false,"internalType":"uint256","name":"depositAmount","type":"uint256"}],"name":"newDeposit","type":"event"},{"inputs":[],"name":"askedBorrowAmount","outputs":[{"internalType":"uint256","name":"","type":"uint256"}],"stateMutability":"view","type":"function"},{"inputs":[],"name":"borrowerBalance","outputs":[{"internalType":"uint256","name":"","type":"uint256"}],"stateMutability":"view","type":"function"},{"inputs":[],"name":"chosenBorrowedCryptoName","outputs":[{"internalType":"string","name":"","type":"string"}],"stateMutability":"view","type":"function"},{"inputs":[],"name":"collateralContractAddress","outputs":[{"internalType":"address","name":"","type":"address"}],"stateMutability":"view","type":"function"},{"inputs":[],"name":"creationBlock","outputs":[{"internalType":"uint256","name":"","type":"uint256"}],"stateMutability":"view","type":"function"},{"inputs":[],"name":"cryptoFromBorrower","outputs":[{"internalType":"contract IERC20","name":"","type":"address"}],"stateMutability":"view","type":"function"},{"inputs":[],"name":"cryptoFromLender","outputs":[{"internalType":"contract IERC20","name":"","type":"address"}],"stateMutability":"view","type":"function"},{"inputs":[{"internalType":"uint256","name":"_depositAmount","type":"uint256"}],"name":"depositCollateral","outputs":[],"stateMutability":"payable","type":"function"},{"inputs":[],"name":"getContractBalance","outputs":[{"internalType":"uint256","name":"","type":"uint256"}],"stateMutability":"view","type":"function"},{"inputs":[],"name":"lastDepositBlock","outputs":[{"internalType":"uint256","name":"","type":"uint256"}],"stateMutability":"view","type":"function"},{"inputs":[{"internalType":"address","name":"_lenderAddress","type":"address"}],"name":"lenderAcceptance","outputs":[],"stateMutability":"nonpayable","type":"function"},{"inputs":[],"name":"lenderBalance","outputs":[{"internalType":"uint256","name":"","type":"uint256"}],"stateMutability":"view","type":"function"},{"inputs":[],"name":"loanActiveBlock","outputs":[{"internalType":"uint256","name":"","type":"uint256"}],"stateMutability":"view","type":"function"},{"inputs":[],"name":"loanForeClosure","outputs":[],"stateMutability":"nonpayable","type":"function"},{"inputs":[],"name":"loanForeclosureBlock","outputs":[{"internalType":"uint256","name":"","type":"uint256"}],"stateMutability":"view","type":"function"},{"inputs":[],"name":"loanName","outputs":[{"internalType":"string","name":"","type":"string"}],"stateMutability":"view","type":"function"},{"inputs":[],"name":"loanParams","outputs":[{"internalType":"uint256","name":"minRpbRate","type":"uint256"},{"internalType":"uint256","name":"earlySettlementWindow","type":"uint256"},{"internalType":"uint256","name":"foreclosureWindow","type":"uint256"},{"internalType":"uint256","name":"foreclosureRatio","type":"uint256"},{"internalType":"uint256","name":"instantForeclosureRatio","type":"uint256"},{"internalType":"uint256","name":"earlySettlementFee","type":"uint256"}],"stateMutability":"view","type":"function"},{"inputs":[],"name":"loanStatus","outputs":[{"internalType":"enum IJLoanCommons.Status","name":"","type":"uint8"}],"stateMutability":"view","type":"function"},{"inputs":[],"name":"owner","outputs":[{"internalType":"address","name":"","type":"address"}],"stateMutability":"view","type":"function"},{"inputs":[],"name":"renounceOwnership","outputs":[],"stateMutability":"nonpayable","type":"function"},{"inputs":[],"name":"rpbRate","outputs":[{"internalType":"uint256","name":"","type":"uint256"}],"stateMutability":"view","type":"function"},{"inputs":[{"components":[{"internalType":"uint256","name":"minRpbRate","type":"uint256"},{"internalType":"uint256","name":"earlySettlementWindow","type":"uint256"},{"internalType":"uint256","name":"foreclosureWindow","type":"uint256"},{"internalType":"uint256","name":"foreclosureRatio","type":"uint256"},{"internalType":"uint256","name":"instantForeclosureRatio","type":"uint256"},{"internalType":"uint256","name":"earlySettlementFee","type":"uint256"}],"internalType":"struct IJLoanCommons.params","name":"_newLoanParams","type":"tuple"}],"name":"setNewParams","outputs":[],"stateMutability":"nonpayable","type":"function"},{"inputs":[{"internalType":"uint256","name":"_newStatus","type":"uint256"}],"name":"setNewStatus","outputs":[],"stateMutability":"nonpayable","type":"function"},{"inputs":[],"name":"stableContractAddress","outputs":[{"internalType":"address","name":"","type":"address"}],"stateMutability":"view","type":"function"},{"inputs":[],"name":"startCollateralRatio","outputs":[{"internalType":"uint256","name":"","type":"uint256"}],"stateMutability":"view","type":"function"},{"inputs":[],"name":"startPrice","outputs":[{"internalType":"uint256","name":"","type":"uint256"}],"stateMutability":"view","type":"function"},{"inputs":[{"internalType":"address","name":"_tkn","type":"address"}],"name":"testToken","outputs":[],"stateMutability":"nonpayable","type":"function"},{"inputs":[{"internalType":"address","name":"newOwner","type":"address"}],"name":"transferOwnership","outputs":[],"stateMutability":"nonpayable","type":"function"}],"devdoc":{"kind":"dev","methods":{"owner()":{"details":"Returns the address of the current owner."},"renounceOwnership()":{"details":"Leaves the contract without owner. It will not be possible to call `onlyOwner` functions anymore. Can only be called by the current owner. NOTE: Renouncing ownership will leave the contract without an owner, thereby removing any functionality that is only available to the owner."},"transferOwnership(address)":{"details":"Transfers ownership of the contract to a new account (`newOwner`). Can only be called by the current owner."}},"version":1},"evm":{"assembly":"    /* \"JLoansFactory.sol\":16401:18772  contract JLoanTokenPair is JLoanCommons, IJLoanTokenPair {\r... */\n  mstore(0x40, 0x80)\n    /* \"JLoansFactory.sol\":16962:17687  constructor(string memory _name, \r... */\n  callvalue\n  dup1\n  iszero\n  tag_1\n  jumpi\n  0x00\n  dup1\n  revert\ntag_1:\n  pop\n  mload(0x40)\n  sub(codesize, bytecodeSize)\n  dup1\n  bytecodeSize\n  dup4\n  codecopy\n  dup2\n  dup2\n  add\n  0x40\n  mstore\n  dup2\n  add\n  swap1\n  tag_2\n  swap2\n  swap1\n  tag_3\n  jump\t// in\ntag_2:\n    /* \"JLoansFactory.sol\":17254:17259  _name */\n  dup7\n    /* \"JLoansFactory.sol\":17262:17270  _rpbRate */\n  dup5\n    /* \"JLoansFactory.sol\":17272:17283  _startPrice */\n  dup5\n    /* \"JLoansFactory.sol\":17285:17298  _passedParams */\n  dup5\n    /* \"JLoansFactory.sol\":17300:17309  _faddress */\n  dup5\n    /* \"JLoansFactory.sol\":7102:7119  address msgSender */\n  0x00\n    /* \"JLoansFactory.sol\":7122:7134  _msgSender() */\n  tag_8\n    /* \"JLoansFactory.sol\":7122:7132  _msgSender */\n  shl(0x20, tag_9)\n    /* \"JLoansFactory.sol\":7122:7134  _msgSender() */\n  0x20\n  shr\n  jump\t// in\ntag_8:\n    /* \"JLoansFactory.sol\":7102:7134  address msgSender = _msgSender() */\n  swap1\n  pop\n    /* \"JLoansFactory.sol\":7154:7163  msgSender */\n  dup1\n    /* \"JLoansFactory.sol\":7145:7151  _owner */\n  0x00\n  dup1\n    /* \"JLoansFactory.sol\":7145:7163  _owner = msgSender */\n  0x0100\n  exp\n  dup2\n  sload\n  dup2\n  0xffffffffffffffffffffffffffffffffffffffff\n  mul\n  not\n  and\n  swap1\n  dup4\n  0xffffffffffffffffffffffffffffffffffffffff\n  and\n  mul\n  or\n  swap1\n  sstore\n  pop\n    /* \"JLoansFactory.sol\":7212:7221  msgSender */\n  dup1\n    /* \"JLoansFactory.sol\":7179:7222  OwnershipTransferred(address(0), msgSender) */\n  0xffffffffffffffffffffffffffffffffffffffff\n  and\n    /* \"JLoansFactory.sol\":7208:7209  0 */\n  0x00\n    /* \"JLoansFactory.sol\":7179:7222  OwnershipTransferred(address(0), msgSender) */\n  0xffffffffffffffffffffffffffffffffffffffff\n  and\n  0x8be0079c531659141344cd1fd0a4f28419497f9722a3daafe3b4186f6b6457e0\n  mload(0x40)\n  mload(0x40)\n  dup1\n  swap2\n  sub\n  swap1\n  log3\n    /* \"JLoansFactory.sol\":7067:7230  constructor () internal {\r... */\n  pop\n    /* \"JLoansFactory.sol\":12777:12790  _passedParams */\n  dup2\n    /* \"JLoansFactory.sol\":12764:12774  loanParams */\n  0x01\n    /* \"JLoansFactory.sol\":12764:12790  loanParams = _passedParams */\n  0x00\n  dup3\n  add\n  mload\n  dup2\n  0x00\n  add\n  sstore\n  0x20\n  dup3\n  add\n  mload\n  dup2\n  0x01\n  add\n  sstore\n  0x40\n  dup3\n  add\n  mload\n  dup2\n  0x02\n  add\n  sstore\n  0x60\n  dup3\n  add\n  mload\n  dup2\n  0x03\n  add\n  sstore\n  0x80\n  dup3\n  add\n  mload\n  dup2\n  0x04\n  add\n  sstore\n  0xa0\n  dup3\n  add\n  mload\n  dup2\n  0x05\n  add\n  sstore\n  swap1\n  pop\n  pop\n    /* \"JLoansFactory.sol\":12821:12831  loanParams */\n  0x01\n    /* \"JLoansFactory.sol\":12821:12842  loanParams.minRpbRate */\n  0x00\n  add\n  sload\n    /* \"JLoansFactory.sol\":12809:12817  _rpbRate */\n  dup5\n    /* \"JLoansFactory.sol\":12809:12842  _rpbRate >= loanParams.minRpbRate */\n  lt\n  iszero\n    /* \"JLoansFactory.sol\":12801:12864  require(_rpbRate >= loanParams.minRpbRate, \"Interest too low!\") */\n  tag_11\n  jumpi\n  mload(0x40)\n  0x08c379a000000000000000000000000000000000000000000000000000000000\n  dup2\n  mstore\n  0x04\n  add\n  tag_12\n  swap1\n  tag_13\n  jump\t// in\ntag_12:\n  mload(0x40)\n  dup1\n  swap2\n  sub\n  swap1\n  revert\ntag_11:\n    /* \"JLoansFactory.sol\":12886:12891  _name */\n  dup5\n    /* \"JLoansFactory.sol\":12875:12883  loanName */\n  0x08\n    /* \"JLoansFactory.sol\":12875:12891  loanName = _name */\n  swap1\n  dup1\n  mload\n  swap1\n  0x20\n  add\n  swap1\n  tag_14\n  swap3\n  swap2\n  swap1\n  tag_15\n  jump\t// in\ntag_14:\n  pop\n    /* \"JLoansFactory.sol\":12915:12926  _startPrice */\n  dup3\n    /* \"JLoansFactory.sol\":12902:12912  startPrice */\n  0x0a\n    /* \"JLoansFactory.sol\":12902:12926  startPrice = _startPrice */\n  dup2\n  swap1\n  sstore\n  pop\n    /* \"JLoansFactory.sol\":12954:12963  _faddress */\n  dup1\n    /* \"JLoansFactory.sol\":12937:12951  factoryAddress */\n  0x12\n  0x00\n    /* \"JLoansFactory.sol\":12937:12963  factoryAddress = _faddress */\n  0x0100\n  exp\n  dup2\n  sload\n  dup2\n  0xffffffffffffffffffffffffffffffffffffffff\n  mul\n  not\n  and\n  swap1\n  dup4\n  0xffffffffffffffffffffffffffffffffffffffff\n  and\n  mul\n  or\n  swap1\n  sstore\n  pop\n    /* \"JLoansFactory.sol\":12984:12992  _rpbRate */\n  dup4\n    /* \"JLoansFactory.sol\":12974:12981  rpbRate */\n  0x09\n    /* \"JLoansFactory.sol\":12974:12992  rpbRate = _rpbRate */\n  dup2\n  swap1\n  sstore\n  pop\n    /* \"JLoansFactory.sol\":13019:13031  block.number */\n  number\n    /* \"JLoansFactory.sol\":13003:13016  creationBlock */\n  0x0c\n    /* \"JLoansFactory.sol\":13003:13031  creationBlock = block.number */\n  dup2\n  swap1\n  sstore\n  pop\n    /* \"JLoansFactory.sol\":13047:13082  LoanContractDeployed(creationBlock) */\n  0x656ad37b815087d90f0c4cbdbf28a9ef3e92cfeb045dd15eaa452cc8b1d34e00\n    /* \"JLoansFactory.sol\":13068:13081  creationBlock */\n  sload(0x0c)\n    /* \"JLoansFactory.sol\":13047:13082  LoanContractDeployed(creationBlock) */\n  mload(0x40)\n  tag_16\n  swap2\n  swap1\n  tag_17\n  jump\t// in\ntag_16:\n  mload(0x40)\n  dup1\n  swap2\n  sub\n  swap1\n  log1\n    /* \"JLoansFactory.sol\":12561:13090  constructor(string memory _name, \r... */\n  pop\n  pop\n  pop\n  pop\n  pop\n    /* \"JLoansFactory.sol\":17358:17373  _borrowedCrypto */\n  dup6\n    /* \"JLoansFactory.sol\":17331:17355  chosenBorrowedCryptoName */\n  0x15\n    /* \"JLoansFactory.sol\":17331:17373  chosenBorrowedCryptoName = _borrowedCrypto */\n  swap1\n  dup1\n  mload\n  swap1\n  0x20\n  add\n  swap1\n  tag_19\n  swap3\n  swap2\n  swap1\n  tag_15\n  jump\t// in\ntag_19:\n  pop\n    /* \"JLoansFactory.sol\":17412:17437  collateralContractAddress */\n  0x13\n  0x00\n  swap1\n  sload\n  swap1\n  0x0100\n  exp\n  swap1\n  div\n  0xffffffffffffffffffffffffffffffffffffffff\n  and\n    /* \"JLoansFactory.sol\":17384:17402  cryptoFromBorrower */\n  0x17\n  0x00\n    /* \"JLoansFactory.sol\":17384:17438  cryptoFromBorrower = IERC20(collateralContractAddress) */\n  0x0100\n  exp\n  dup2\n  sload\n  dup2\n  0xffffffffffffffffffffffffffffffffffffffff\n  mul\n  not\n  and\n  swap1\n  dup4\n  0xffffffffffffffffffffffffffffffffffffffff\n  and\n  mul\n  or\n  swap1\n  sstore\n  pop\n    /* \"JLoansFactory.sol\":17475:17493  _borrowedAskAmount */\n  dup5\n    /* \"JLoansFactory.sol\":17455:17472  askedBorrowAmount */\n  0x16\n    /* \"JLoansFactory.sol\":17455:17493  askedBorrowAmount = _borrowedAskAmount */\n  dup2\n  swap1\n  sstore\n  pop\n    /* \"JLoansFactory.sol\":17520:17532  block.number */\n  number\n    /* \"JLoansFactory.sol\":17504:17517  creationBlock */\n  0x0c\n    /* \"JLoansFactory.sol\":17504:17532  creationBlock = block.number */\n  dup2\n  swap1\n  sstore\n  pop\n    /* \"JLoansFactory.sol\":17556:17570  Status.pending */\n  0x00\n    /* \"JLoansFactory.sol\":17543:17553  loanStatus */\n  0x07\n  0x00\n    /* \"JLoansFactory.sol\":17543:17570  loanStatus = Status.pending */\n  0x0100\n  exp\n  dup2\n  sload\n  dup2\n  0xff\n  mul\n  not\n  and\n  swap1\n  dup4\n  0x04\n  dup2\n  gt\n  iszero\n  tag_20\n  jumpi\n  invalid\ntag_20:\n  mul\n  or\n  swap1\n  sstore\n  pop\n    /* \"JLoansFactory.sol\":17599:17600  0 */\n  0x00\n    /* \"JLoansFactory.sol\":17581:17596  borrowerBalance */\n  0x10\n    /* \"JLoansFactory.sol\":17581:17600  borrowerBalance = 0 */\n  dup2\n  swap1\n  sstore\n  pop\n    /* \"JLoansFactory.sol\":17627:17628  0 */\n  0x00\n    /* \"JLoansFactory.sol\":17611:17624  lenderBalance */\n  0x11\n    /* \"JLoansFactory.sol\":17611:17628  lenderBalance = 0 */\n  dup2\n  swap1\n  sstore\n  pop\n    /* \"JLoansFactory.sol\":17644:17679  LoanContractDeployed(creationBlock) */\n  0x656ad37b815087d90f0c4cbdbf28a9ef3e92cfeb045dd15eaa452cc8b1d34e00\n    /* \"JLoansFactory.sol\":17665:17678  creationBlock */\n  sload(0x0c)\n    /* \"JLoansFactory.sol\":17644:17679  LoanContractDeployed(creationBlock) */\n  mload(0x40)\n  tag_21\n  swap2\n  swap1\n  tag_17\n  jump\t// in\ntag_21:\n  mload(0x40)\n  dup1\n  swap2\n  sub\n  swap1\n  log1\n    /* \"JLoansFactory.sol\":16962:17687  constructor(string memory _name, \r... */\n  pop\n  pop\n  pop\n  pop\n  pop\n  pop\n  pop\n    /* \"JLoansFactory.sol\":16401:18772  contract JLoanTokenPair is JLoanCommons, IJLoanTokenPair {\r... */\n  jump(tag_22)\n    /* \"JLoansFactory.sol\":5945:6051  function _msgSender() internal view virtual returns (address payable) {\r... */\ntag_9:\n    /* \"JLoansFactory.sol\":5998:6013  address payable */\n  0x00\n    /* \"JLoansFactory.sol\":6033:6043  msg.sender */\n  caller\n    /* \"JLoansFactory.sol\":6026:6043  return msg.sender */\n  swap1\n  pop\n    /* \"JLoansFactory.sol\":5945:6051  function _msgSender() internal view virtual returns (address payable) {\r... */\n  swap1\n  jump\t// out\n    /* \"JLoansFactory.sol\":16401:18772  contract JLoanTokenPair is JLoanCommons, IJLoanTokenPair {\r... */\ntag_15:\n  dup3\n  dup1\n  sload\n  0x01\n  dup2\n  0x01\n  and\n  iszero\n  0x0100\n  mul\n  sub\n  and\n  0x02\n  swap1\n  div\n  swap1\n  0x00\n  mstore\n  keccak256(0x00, 0x20)\n  swap1\n  0x1f\n  add\n  0x20\n  swap1\n  div\n  dup2\n  add\n  swap3\n  dup3\n  0x1f\n  lt\n  tag_25\n  jumpi\n  dup1\n  mload\n  not(0xff)\n  and\n  dup4\n  dup1\n  add\n  or\n  dup6\n  sstore\n  jump(tag_24)\ntag_25:\n  dup3\n  dup1\n  add\n  0x01\n  add\n  dup6\n  sstore\n  dup3\n  iszero\n  tag_24\n  jumpi\n  swap2\n  dup3\n  add\ntag_26:\n  dup3\n  dup2\n  gt\n  iszero\n  tag_27\n  jumpi\n  dup3\n  mload\n  dup3\n  sstore\n  swap2\n  0x20\n  add\n  swap2\n  swap1\n  0x01\n  add\n  swap1\n  jump(tag_26)\ntag_27:\ntag_24:\n  pop\n  swap1\n  pop\n  tag_28\n  swap2\n  swap1\n  tag_29\n  jump\t// in\ntag_28:\n  pop\n  swap1\n  jump\t// out\ntag_29:\ntag_30:\n  dup1\n  dup3\n  gt\n  iszero\n  tag_31\n  jumpi\n  0x00\n  dup2\n  0x00\n  swap1\n  sstore\n  pop\n  0x01\n  add\n  jump(tag_30)\ntag_31:\n  pop\n  swap1\n  jump\t// out\n    /* \"--CODEGEN--\":5:139   */\ntag_33:\n  0x00\n    /* \"--CODEGEN--\":89:95   */\n  dup2\n    /* \"--CODEGEN--\":83:96   */\n  mload\n    /* \"--CODEGEN--\":74:96   */\n  swap1\n  pop\n    /* \"--CODEGEN--\":101:134   */\n  tag_35\n    /* \"--CODEGEN--\":128:133   */\n  dup2\n    /* \"--CODEGEN--\":101:134   */\n  tag_36\n  jump\t// in\ntag_35:\n    /* \"--CODEGEN--\":68:139   */\n  swap3\n  swap2\n  pop\n  pop\n  jump\t// out\n    /* \"--CODEGEN--\":147:591   */\ntag_37:\n  0x00\n    /* \"--CODEGEN--\":260:263   */\n  dup3\n    /* \"--CODEGEN--\":253:257   */\n  0x1f\n    /* \"--CODEGEN--\":245:251   */\n  dup4\n    /* \"--CODEGEN--\":241:258   */\n  add\n    /* \"--CODEGEN--\":237:264   */\n  slt\n    /* \"--CODEGEN--\":227:229   */\n  tag_39\n  jumpi\n    /* \"--CODEGEN--\":278:279   */\n  0x00\n    /* \"--CODEGEN--\":275:276   */\n  dup1\n    /* \"--CODEGEN--\":268:280   */\n  revert\n    /* \"--CODEGEN--\":227:229   */\ntag_39:\n    /* \"--CODEGEN--\":308:314   */\n  dup2\n    /* \"--CODEGEN--\":302:315   */\n  mload\n    /* \"--CODEGEN--\":330:395   */\n  tag_40\n    /* \"--CODEGEN--\":345:394   */\n  tag_41\n    /* \"--CODEGEN--\":387:393   */\n  dup3\n    /* \"--CODEGEN--\":345:394   */\n  tag_42\n  jump\t// in\ntag_41:\n    /* \"--CODEGEN--\":330:395   */\n  tag_43\n  jump\t// in\ntag_40:\n    /* \"--CODEGEN--\":321:395   */\n  swap2\n  pop\n    /* \"--CODEGEN--\":415:421   */\n  dup1\n    /* \"--CODEGEN--\":408:413   */\n  dup3\n    /* \"--CODEGEN--\":401:422   */\n  mstore\n    /* \"--CODEGEN--\":451:455   */\n  0x20\n    /* \"--CODEGEN--\":443:449   */\n  dup4\n    /* \"--CODEGEN--\":439:456   */\n  add\n    /* \"--CODEGEN--\":484:488   */\n  0x20\n    /* \"--CODEGEN--\":477:482   */\n  dup4\n    /* \"--CODEGEN--\":473:489   */\n  add\n    /* \"--CODEGEN--\":519:522   */\n  dup6\n    /* \"--CODEGEN--\":510:516   */\n  dup4\n    /* \"--CODEGEN--\":505:508   */\n  dup4\n    /* \"--CODEGEN--\":501:517   */\n  add\n    /* \"--CODEGEN--\":498:523   */\n  gt\n    /* \"--CODEGEN--\":495:497   */\n  iszero\n  tag_44\n  jumpi\n    /* \"--CODEGEN--\":536:537   */\n  0x00\n    /* \"--CODEGEN--\":533:534   */\n  dup1\n    /* \"--CODEGEN--\":526:538   */\n  revert\n    /* \"--CODEGEN--\":495:497   */\ntag_44:\n    /* \"--CODEGEN--\":546:585   */\n  tag_45\n    /* \"--CODEGEN--\":578:584   */\n  dup4\n    /* \"--CODEGEN--\":573:576   */\n  dup3\n    /* \"--CODEGEN--\":568:571   */\n  dup5\n    /* \"--CODEGEN--\":546:585   */\n  tag_46\n  jump\t// in\ntag_45:\n    /* \"--CODEGEN--\":220:591   */\n  pop\n  pop\n  pop\n  swap3\n  swap2\n  pop\n  pop\n  jump\t// out\n    /* \"--CODEGEN--\":633:1834   */\ntag_47:\n  0x00\n    /* \"--CODEGEN--\":756:760   */\n  0xc0\n    /* \"--CODEGEN--\":744:753   */\n  dup3\n    /* \"--CODEGEN--\":739:742   */\n  dup5\n    /* \"--CODEGEN--\":735:754   */\n  sub\n    /* \"--CODEGEN--\":731:761   */\n  slt\n    /* \"--CODEGEN--\":728:730   */\n  iszero\n  tag_49\n  jumpi\n    /* \"--CODEGEN--\":774:775   */\n  0x00\n    /* \"--CODEGEN--\":771:772   */\n  dup1\n    /* \"--CODEGEN--\":764:776   */\n  revert\n    /* \"--CODEGEN--\":728:730   */\ntag_49:\n    /* \"--CODEGEN--\":792:812   */\n  tag_50\n    /* \"--CODEGEN--\":807:811   */\n  0xc0\n    /* \"--CODEGEN--\":792:812   */\n  tag_43\n  jump\t// in\ntag_50:\n    /* \"--CODEGEN--\":783:812   */\n  swap1\n  pop\n    /* \"--CODEGEN--\":868:869   */\n  0x00\n    /* \"--CODEGEN--\":900:960   */\n  tag_51\n    /* \"--CODEGEN--\":956:959   */\n  dup5\n    /* \"--CODEGEN--\":947:953   */\n  dup3\n    /* \"--CODEGEN--\":936:945   */\n  dup6\n    /* \"--CODEGEN--\":932:954   */\n  add\n    /* \"--CODEGEN--\":900:960   */\n  tag_52\n  jump\t// in\ntag_51:\n    /* \"--CODEGEN--\":893:897   */\n  0x00\n    /* \"--CODEGEN--\":886:891   */\n  dup4\n    /* \"--CODEGEN--\":882:898   */\n  add\n    /* \"--CODEGEN--\":875:961   */\n  mstore\n    /* \"--CODEGEN--\":822:972   */\n  pop\n    /* \"--CODEGEN--\":1039:1041   */\n  0x20\n    /* \"--CODEGEN--\":1072:1132   */\n  tag_53\n    /* \"--CODEGEN--\":1128:1131   */\n  dup5\n    /* \"--CODEGEN--\":1119:1125   */\n  dup3\n    /* \"--CODEGEN--\":1108:1117   */\n  dup6\n    /* \"--CODEGEN--\":1104:1126   */\n  add\n    /* \"--CODEGEN--\":1072:1132   */\n  tag_52\n  jump\t// in\ntag_53:\n    /* \"--CODEGEN--\":1065:1069   */\n  0x20\n    /* \"--CODEGEN--\":1058:1063   */\n  dup4\n    /* \"--CODEGEN--\":1054:1070   */\n  add\n    /* \"--CODEGEN--\":1047:1133   */\n  mstore\n    /* \"--CODEGEN--\":982:1144   */\n  pop\n    /* \"--CODEGEN--\":1207:1209   */\n  0x40\n    /* \"--CODEGEN--\":1240:1300   */\n  tag_54\n    /* \"--CODEGEN--\":1296:1299   */\n  dup5\n    /* \"--CODEGEN--\":1287:1293   */\n  dup3\n    /* \"--CODEGEN--\":1276:1285   */\n  dup6\n    /* \"--CODEGEN--\":1272:1294   */\n  add\n    /* \"--CODEGEN--\":1240:1300   */\n  tag_52\n  jump\t// in\ntag_54:\n    /* \"--CODEGEN--\":1233:1237   */\n  0x40\n    /* \"--CODEGEN--\":1226:1231   */\n  dup4\n    /* \"--CODEGEN--\":1222:1238   */\n  add\n    /* \"--CODEGEN--\":1215:1301   */\n  mstore\n    /* \"--CODEGEN--\":1154:1312   */\n  pop\n    /* \"--CODEGEN--\":1374:1376   */\n  0x60\n    /* \"--CODEGEN--\":1407:1467   */\n  tag_55\n    /* \"--CODEGEN--\":1463:1466   */\n  dup5\n    /* \"--CODEGEN--\":1454:1460   */\n  dup3\n    /* \"--CODEGEN--\":1443:1452   */\n  dup6\n    /* \"--CODEGEN--\":1439:1461   */\n  add\n    /* \"--CODEGEN--\":1407:1467   */\n  tag_52\n  jump\t// in\ntag_55:\n    /* \"--CODEGEN--\":1400:1404   */\n  0x60\n    /* \"--CODEGEN--\":1393:1398   */\n  dup4\n    /* \"--CODEGEN--\":1389:1405   */\n  add\n    /* \"--CODEGEN--\":1382:1468   */\n  mstore\n    /* \"--CODEGEN--\":1322:1479   */\n  pop\n    /* \"--CODEGEN--\":1548:1551   */\n  0x80\n    /* \"--CODEGEN--\":1582:1642   */\n  tag_56\n    /* \"--CODEGEN--\":1638:1641   */\n  dup5\n    /* \"--CODEGEN--\":1629:1635   */\n  dup3\n    /* \"--CODEGEN--\":1618:1627   */\n  dup6\n    /* \"--CODEGEN--\":1614:1636   */\n  add\n    /* \"--CODEGEN--\":1582:1642   */\n  tag_52\n  jump\t// in\ntag_56:\n    /* \"--CODEGEN--\":1575:1579   */\n  0x80\n    /* \"--CODEGEN--\":1568:1573   */\n  dup4\n    /* \"--CODEGEN--\":1564:1580   */\n  add\n    /* \"--CODEGEN--\":1557:1643   */\n  mstore\n    /* \"--CODEGEN--\":1489:1654   */\n  pop\n    /* \"--CODEGEN--\":1718:1721   */\n  0xa0\n    /* \"--CODEGEN--\":1752:1812   */\n  tag_57\n    /* \"--CODEGEN--\":1808:1811   */\n  dup5\n    /* \"--CODEGEN--\":1799:1805   */\n  dup3\n    /* \"--CODEGEN--\":1788:1797   */\n  dup6\n    /* \"--CODEGEN--\":1784:1806   */\n  add\n    /* \"--CODEGEN--\":1752:1812   */\n  tag_52\n  jump\t// in\ntag_57:\n    /* \"--CODEGEN--\":1745:1749   */\n  0xa0\n    /* \"--CODEGEN--\":1738:1743   */\n  dup4\n    /* \"--CODEGEN--\":1734:1750   */\n  add\n    /* \"--CODEGEN--\":1727:1813   */\n  mstore\n    /* \"--CODEGEN--\":1664:1824   */\n  pop\n    /* \"--CODEGEN--\":722:1834   */\n  swap3\n  swap2\n  pop\n  pop\n  jump\t// out\n    /* \"--CODEGEN--\":1841:1975   */\ntag_52:\n  0x00\n    /* \"--CODEGEN--\":1925:1931   */\n  dup2\n    /* \"--CODEGEN--\":1919:1932   */\n  mload\n    /* \"--CODEGEN--\":1910:1932   */\n  swap1\n  pop\n    /* \"--CODEGEN--\":1937:1970   */\n  tag_59\n    /* \"--CODEGEN--\":1964:1969   */\n  dup2\n    /* \"--CODEGEN--\":1937:1970   */\n  tag_60\n  jump\t// in\ntag_59:\n    /* \"--CODEGEN--\":1904:1975   */\n  swap3\n  swap2\n  pop\n  pop\n  jump\t// out\n    /* \"--CODEGEN--\":1982:3309   */\ntag_3:\n  0x00\n  dup1\n  0x00\n  dup1\n  0x00\n  dup1\n  0x00\n    /* \"--CODEGEN--\":2242:2245   */\n  0x0180\n    /* \"--CODEGEN--\":2230:2239   */\n  dup9\n    /* \"--CODEGEN--\":2221:2228   */\n  dup11\n    /* \"--CODEGEN--\":2217:2240   */\n  sub\n    /* \"--CODEGEN--\":2213:2246   */\n  slt\n    /* \"--CODEGEN--\":2210:2212   */\n  iszero\n  tag_62\n  jumpi\n    /* \"--CODEGEN--\":2259:2260   */\n  0x00\n    /* \"--CODEGEN--\":2256:2257   */\n  dup1\n    /* \"--CODEGEN--\":2249:2261   */\n  revert\n    /* \"--CODEGEN--\":2210:2212   */\ntag_62:\n    /* \"--CODEGEN--\":2315:2316   */\n  0x00\n    /* \"--CODEGEN--\":2304:2313   */\n  dup9\n    /* \"--CODEGEN--\":2300:2317   */\n  add\n    /* \"--CODEGEN--\":2294:2318   */\n  mload\n    /* \"--CODEGEN--\":2338:2356   */\n  0xffffffffffffffff\n    /* \"--CODEGEN--\":2330:2336   */\n  dup2\n    /* \"--CODEGEN--\":2327:2357   */\n  gt\n    /* \"--CODEGEN--\":2324:2326   */\n  iszero\n  tag_63\n  jumpi\n    /* \"--CODEGEN--\":2370:2371   */\n  0x00\n    /* \"--CODEGEN--\":2367:2368   */\n  dup1\n    /* \"--CODEGEN--\":2360:2372   */\n  revert\n    /* \"--CODEGEN--\":2324:2326   */\ntag_63:\n    /* \"--CODEGEN--\":2390:2464   */\n  tag_64\n    /* \"--CODEGEN--\":2456:2463   */\n  dup11\n    /* \"--CODEGEN--\":2447:2453   */\n  dup3\n    /* \"--CODEGEN--\":2436:2445   */\n  dup12\n    /* \"--CODEGEN--\":2432:2454   */\n  add\n    /* \"--CODEGEN--\":2390:2464   */\n  tag_37\n  jump\t// in\ntag_64:\n    /* \"--CODEGEN--\":2380:2464   */\n  swap8\n  pop\n    /* \"--CODEGEN--\":2273:2470   */\n  pop\n    /* \"--CODEGEN--\":2522:2524   */\n  0x20\n    /* \"--CODEGEN--\":2511:2520   */\n  dup9\n    /* \"--CODEGEN--\":2507:2525   */\n  add\n    /* \"--CODEGEN--\":2501:2526   */\n  mload\n    /* \"--CODEGEN--\":2546:2564   */\n  0xffffffffffffffff\n    /* \"--CODEGEN--\":2538:2544   */\n  dup2\n    /* \"--CODEGEN--\":2535:2565   */\n  gt\n    /* \"--CODEGEN--\":2532:2534   */\n  iszero\n  tag_65\n  jumpi\n    /* \"--CODEGEN--\":2578:2579   */\n  0x00\n    /* \"--CODEGEN--\":2575:2576   */\n  dup1\n    /* \"--CODEGEN--\":2568:2580   */\n  revert\n    /* \"--CODEGEN--\":2532:2534   */\ntag_65:\n    /* \"--CODEGEN--\":2598:2672   */\n  tag_66\n    /* \"--CODEGEN--\":2664:2671   */\n  dup11\n    /* \"--CODEGEN--\":2655:2661   */\n  dup3\n    /* \"--CODEGEN--\":2644:2653   */\n  dup12\n    /* \"--CODEGEN--\":2640:2662   */\n  add\n    /* \"--CODEGEN--\":2598:2672   */\n  tag_37\n  jump\t// in\ntag_66:\n    /* \"--CODEGEN--\":2588:2672   */\n  swap7\n  pop\n    /* \"--CODEGEN--\":2480:2678   */\n  pop\n    /* \"--CODEGEN--\":2709:2711   */\n  0x40\n    /* \"--CODEGEN--\":2727:2791   */\n  tag_67\n    /* \"--CODEGEN--\":2783:2790   */\n  dup11\n    /* \"--CODEGEN--\":2774:2780   */\n  dup3\n    /* \"--CODEGEN--\":2763:2772   */\n  dup12\n    /* \"--CODEGEN--\":2759:2781   */\n  add\n    /* \"--CODEGEN--\":2727:2791   */\n  tag_52\n  jump\t// in\ntag_67:\n    /* \"--CODEGEN--\":2717:2791   */\n  swap6\n  pop\n    /* \"--CODEGEN--\":2688:2797   */\n  pop\n    /* \"--CODEGEN--\":2828:2830   */\n  0x60\n    /* \"--CODEGEN--\":2846:2910   */\n  tag_68\n    /* \"--CODEGEN--\":2902:2909   */\n  dup11\n    /* \"--CODEGEN--\":2893:2899   */\n  dup3\n    /* \"--CODEGEN--\":2882:2891   */\n  dup12\n    /* \"--CODEGEN--\":2878:2900   */\n  add\n    /* \"--CODEGEN--\":2846:2910   */\n  tag_52\n  jump\t// in\ntag_68:\n    /* \"--CODEGEN--\":2836:2910   */\n  swap5\n  pop\n    /* \"--CODEGEN--\":2807:2916   */\n  pop\n    /* \"--CODEGEN--\":2947:2950   */\n  0x80\n    /* \"--CODEGEN--\":2966:3030   */\n  tag_69\n    /* \"--CODEGEN--\":3022:3029   */\n  dup11\n    /* \"--CODEGEN--\":3013:3019   */\n  dup3\n    /* \"--CODEGEN--\":3002:3011   */\n  dup12\n    /* \"--CODEGEN--\":2998:3020   */\n  add\n    /* \"--CODEGEN--\":2966:3030   */\n  tag_52\n  jump\t// in\ntag_69:\n    /* \"--CODEGEN--\":2956:3030   */\n  swap4\n  pop\n    /* \"--CODEGEN--\":2926:3036   */\n  pop\n    /* \"--CODEGEN--\":3067:3070   */\n  0xa0\n    /* \"--CODEGEN--\":3086:3173   */\n  tag_70\n    /* \"--CODEGEN--\":3165:3172   */\n  dup11\n    /* \"--CODEGEN--\":3156:3162   */\n  dup3\n    /* \"--CODEGEN--\":3145:3154   */\n  dup12\n    /* \"--CODEGEN--\":3141:3163   */\n  add\n    /* \"--CODEGEN--\":3086:3173   */\n  tag_47\n  jump\t// in\ntag_70:\n    /* \"--CODEGEN--\":3076:3173   */\n  swap3\n  pop\n    /* \"--CODEGEN--\":3046:3179   */\n  pop\n    /* \"--CODEGEN--\":3210:3213   */\n  0x0160\n    /* \"--CODEGEN--\":3229:3293   */\n  tag_71\n    /* \"--CODEGEN--\":3285:3292   */\n  dup11\n    /* \"--CODEGEN--\":3276:3282   */\n  dup3\n    /* \"--CODEGEN--\":3265:3274   */\n  dup12\n    /* \"--CODEGEN--\":3261:3283   */\n  add\n    /* \"--CODEGEN--\":3229:3293   */\n  tag_33\n  jump\t// in\ntag_71:\n    /* \"--CODEGEN--\":3219:3293   */\n  swap2\n  pop\n    /* \"--CODEGEN--\":3189:3299   */\n  pop\n    /* \"--CODEGEN--\":2204:3309   */\n  swap3\n  swap6\n  swap9\n  swap2\n  swap5\n  swap8\n  pop\n  swap3\n  swap6\n  pop\n  jump\t// out\n    /* \"--CODEGEN--\":3317:3634   */\ntag_72:\n  0x00\n    /* \"--CODEGEN--\":3477:3544   */\n  tag_74\n    /* \"--CODEGEN--\":3541:3543   */\n  0x11\n    /* \"--CODEGEN--\":3536:3539   */\n  dup4\n    /* \"--CODEGEN--\":3477:3544   */\n  tag_75\n  jump\t// in\ntag_74:\n    /* \"--CODEGEN--\":3470:3544   */\n  swap2\n  pop\n    /* \"--CODEGEN--\":3577:3596   */\n  0x496e74657265737420746f6f206c6f7721000000000000000000000000000000\n    /* \"--CODEGEN--\":3573:3574   */\n  0x00\n    /* \"--CODEGEN--\":3568:3571   */\n  dup4\n    /* \"--CODEGEN--\":3564:3575   */\n  add\n    /* \"--CODEGEN--\":3557:3597   */\n  mstore\n    /* \"--CODEGEN--\":3625:3627   */\n  0x20\n    /* \"--CODEGEN--\":3620:3623   */\n  dup3\n    /* \"--CODEGEN--\":3616:3628   */\n  add\n    /* \"--CODEGEN--\":3609:3628   */\n  swap1\n  pop\n    /* \"--CODEGEN--\":3463:3634   */\n  swap2\n  swap1\n  pop\n  jump\t// out\n    /* \"--CODEGEN--\":3642:3755   */\ntag_76:\n    /* \"--CODEGEN--\":3725:3749   */\n  tag_78\n    /* \"--CODEGEN--\":3743:3748   */\n  dup2\n    /* \"--CODEGEN--\":3725:3749   */\n  tag_79\n  jump\t// in\ntag_78:\n    /* \"--CODEGEN--\":3720:3723   */\n  dup3\n    /* \"--CODEGEN--\":3713:3750   */\n  mstore\n    /* \"--CODEGEN--\":3707:3755   */\n  pop\n  pop\n  jump\t// out\n    /* \"--CODEGEN--\":3762:4178   */\ntag_13:\n  0x00\n    /* \"--CODEGEN--\":3962:3964   */\n  0x20\n    /* \"--CODEGEN--\":3951:3960   */\n  dup3\n    /* \"--CODEGEN--\":3947:3965   */\n  add\n    /* \"--CODEGEN--\":3939:3965   */\n  swap1\n  pop\n    /* \"--CODEGEN--\":4012:4021   */\n  dup2\n    /* \"--CODEGEN--\":4006:4010   */\n  dup2\n    /* \"--CODEGEN--\":4002:4022   */\n  sub\n    /* \"--CODEGEN--\":3998:3999   */\n  0x00\n    /* \"--CODEGEN--\":3987:3996   */\n  dup4\n    /* \"--CODEGEN--\":3983:4000   */\n  add\n    /* \"--CODEGEN--\":3976:4023   */\n  mstore\n    /* \"--CODEGEN--\":4037:4168   */\n  tag_81\n    /* \"--CODEGEN--\":4163:4167   */\n  dup2\n    /* \"--CODEGEN--\":4037:4168   */\n  tag_72\n  jump\t// in\ntag_81:\n    /* \"--CODEGEN--\":4029:4168   */\n  swap1\n  pop\n    /* \"--CODEGEN--\":3933:4178   */\n  swap2\n  swap1\n  pop\n  jump\t// out\n    /* \"--CODEGEN--\":4185:4407   */\ntag_17:\n  0x00\n    /* \"--CODEGEN--\":4312:4314   */\n  0x20\n    /* \"--CODEGEN--\":4301:4310   */\n  dup3\n    /* \"--CODEGEN--\":4297:4315   */\n  add\n    /* \"--CODEGEN--\":4289:4315   */\n  swap1\n  pop\n    /* \"--CODEGEN--\":4326:4397   */\n  tag_83\n    /* \"--CODEGEN--\":4394:4395   */\n  0x00\n    /* \"--CODEGEN--\":4383:4392   */\n  dup4\n    /* \"--CODEGEN--\":4379:4396   */\n  add\n    /* \"--CODEGEN--\":4370:4376   */\n  dup5\n    /* \"--CODEGEN--\":4326:4397   */\n  tag_76\n  jump\t// in\ntag_83:\n    /* \"--CODEGEN--\":4283:4407   */\n  swap3\n  swap2\n  pop\n  pop\n  jump\t// out\n    /* \"--CODEGEN--\":4414:4670   */\ntag_43:\n  0x00\n    /* \"--CODEGEN--\":4476:4478   */\n  0x40\n    /* \"--CODEGEN--\":4470:4479   */\n  mload\n    /* \"--CODEGEN--\":4460:4479   */\n  swap1\n  pop\n    /* \"--CODEGEN--\":4514:4518   */\n  dup2\n    /* \"--CODEGEN--\":4506:4512   */\n  dup2\n    /* \"--CODEGEN--\":4502:4519   */\n  add\n    /* \"--CODEGEN--\":4613:4619   */\n  dup2\n    /* \"--CODEGEN--\":4601:4611   */\n  dup2\n    /* \"--CODEGEN--\":4598:4620   */\n  lt\n    /* \"--CODEGEN--\":4577:4595   */\n  0xffffffffffffffff\n    /* \"--CODEGEN--\":4565:4575   */\n  dup3\n    /* \"--CODEGEN--\":4562:4596   */\n  gt\n    /* \"--CODEGEN--\":4559:4621   */\n  or\n    /* \"--CODEGEN--\":4556:4558   */\n  iszero\n  tag_85\n  jumpi\n    /* \"--CODEGEN--\":4634:4635   */\n  0x00\n    /* \"--CODEGEN--\":4631:4632   */\n  dup1\n    /* \"--CODEGEN--\":4624:4636   */\n  revert\n    /* \"--CODEGEN--\":4556:4558   */\ntag_85:\n    /* \"--CODEGEN--\":4654:4664   */\n  dup1\n    /* \"--CODEGEN--\":4650:4652   */\n  0x40\n    /* \"--CODEGEN--\":4643:4665   */\n  mstore\n    /* \"--CODEGEN--\":4454:4670   */\n  pop\n  swap2\n  swap1\n  pop\n  jump\t// out\n    /* \"--CODEGEN--\":4677:4999   */\ntag_42:\n  0x00\n    /* \"--CODEGEN--\":4821:4839   */\n  0xffffffffffffffff\n    /* \"--CODEGEN--\":4813:4819   */\n  dup3\n    /* \"--CODEGEN--\":4810:4840   */\n  gt\n    /* \"--CODEGEN--\":4807:4809   */\n  iszero\n  tag_87\n  jumpi\n    /* \"--CODEGEN--\":4853:4854   */\n  0x00\n    /* \"--CODEGEN--\":4850:4851   */\n  dup1\n    /* \"--CODEGEN--\":4843:4855   */\n  revert\n    /* \"--CODEGEN--\":4807:4809   */\ntag_87:\n    /* \"--CODEGEN--\":4920:4924   */\n  0x1f\n    /* \"--CODEGEN--\":4916:4925   */\n  not\n    /* \"--CODEGEN--\":4909:4913   */\n  0x1f\n    /* \"--CODEGEN--\":4901:4907   */\n  dup4\n    /* \"--CODEGEN--\":4897:4914   */\n  add\n    /* \"--CODEGEN--\":4893:4926   */\n  and\n    /* \"--CODEGEN--\":4885:4926   */\n  swap1\n  pop\n    /* \"--CODEGEN--\":4984:4988   */\n  0x20\n    /* \"--CODEGEN--\":4978:4982   */\n  dup2\n    /* \"--CODEGEN--\":4974:4989   */\n  add\n    /* \"--CODEGEN--\":4966:4989   */\n  swap1\n  pop\n    /* \"--CODEGEN--\":4744:4999   */\n  swap2\n  swap1\n  pop\n  jump\t// out\n    /* \"--CODEGEN--\":5007:5170   */\ntag_75:\n  0x00\n    /* \"--CODEGEN--\":5122:5128   */\n  dup3\n    /* \"--CODEGEN--\":5117:5120   */\n  dup3\n    /* \"--CODEGEN--\":5110:5129   */\n  mstore\n    /* \"--CODEGEN--\":5159:5163   */\n  0x20\n    /* \"--CODEGEN--\":5154:5157   */\n  dup3\n    /* \"--CODEGEN--\":5150:5164   */\n  add\n    /* \"--CODEGEN--\":5135:5164   */\n  swap1\n  pop\n    /* \"--CODEGEN--\":5103:5170   */\n  swap3\n  swap2\n  pop\n  pop\n  jump\t// out\n    /* \"--CODEGEN--\":5178:5269   */\ntag_89:\n  0x00\n    /* \"--CODEGEN--\":5240:5264   */\n  tag_91\n    /* \"--CODEGEN--\":5258:5263   */\n  dup3\n    /* \"--CODEGEN--\":5240:5264   */\n  tag_92\n  jump\t// in\ntag_91:\n    /* \"--CODEGEN--\":5229:5264   */\n  swap1\n  pop\n    /* \"--CODEGEN--\":5223:5269   */\n  swap2\n  swap1\n  pop\n  jump\t// out\n    /* \"--CODEGEN--\":5276:5397   */\ntag_92:\n  0x00\n    /* \"--CODEGEN--\":5349:5391   */\n  0xffffffffffffffffffffffffffffffffffffffff\n    /* \"--CODEGEN--\":5342:5347   */\n  dup3\n    /* \"--CODEGEN--\":5338:5392   */\n  and\n    /* \"--CODEGEN--\":5327:5392   */\n  swap1\n  pop\n    /* \"--CODEGEN--\":5321:5397   */\n  swap2\n  swap1\n  pop\n  jump\t// out\n    /* \"--CODEGEN--\":5404:5476   */\ntag_79:\n  0x00\n    /* \"--CODEGEN--\":5466:5471   */\n  dup2\n    /* \"--CODEGEN--\":5455:5471   */\n  swap1\n  pop\n    /* \"--CODEGEN--\":5449:5476   */\n  swap2\n  swap1\n  pop\n  jump\t// out\n    /* \"--CODEGEN--\":5484:5752   */\ntag_46:\n    /* \"--CODEGEN--\":5549:5550   */\n  0x00\n    /* \"--CODEGEN--\":5556:5657   */\ntag_96:\n    /* \"--CODEGEN--\":5570:5576   */\n  dup4\n    /* \"--CODEGEN--\":5567:5568   */\n  dup2\n    /* \"--CODEGEN--\":5564:5577   */\n  lt\n    /* \"--CODEGEN--\":5556:5657   */\n  iszero\n  tag_98\n  jumpi\n    /* \"--CODEGEN--\":5646:5647   */\n  dup1\n    /* \"--CODEGEN--\":5641:5644   */\n  dup3\n    /* \"--CODEGEN--\":5637:5648   */\n  add\n    /* \"--CODEGEN--\":5631:5649   */\n  mload\n    /* \"--CODEGEN--\":5627:5628   */\n  dup2\n    /* \"--CODEGEN--\":5622:5625   */\n  dup5\n    /* \"--CODEGEN--\":5618:5629   */\n  add\n    /* \"--CODEGEN--\":5611:5650   */\n  mstore\n    /* \"--CODEGEN--\":5592:5594   */\n  0x20\n    /* \"--CODEGEN--\":5589:5590   */\n  dup2\n    /* \"--CODEGEN--\":5585:5595   */\n  add\n    /* \"--CODEGEN--\":5580:5595   */\n  swap1\n  pop\n    /* \"--CODEGEN--\":5556:5657   */\n  jump(tag_96)\ntag_98:\n    /* \"--CODEGEN--\":5672:5678   */\n  dup4\n    /* \"--CODEGEN--\":5669:5670   */\n  dup2\n    /* \"--CODEGEN--\":5666:5679   */\n  gt\n    /* \"--CODEGEN--\":5663:5665   */\n  iszero\n  tag_99\n  jumpi\n    /* \"--CODEGEN--\":5737:5738   */\n  0x00\n    /* \"--CODEGEN--\":5728:5734   */\n  dup5\n    /* \"--CODEGEN--\":5723:5726   */\n  dup5\n    /* \"--CODEGEN--\":5719:5735   */\n  add\n    /* \"--CODEGEN--\":5712:5739   */\n  mstore\n    /* \"--CODEGEN--\":5663:5665   */\ntag_99:\n    /* \"--CODEGEN--\":5533:5752   */\n  pop\n  pop\n  pop\n  pop\n  jump\t// out\n    /* \"--CODEGEN--\":5760:5877   */\ntag_36:\n    /* \"--CODEGEN--\":5829:5853   */\n  tag_101\n    /* \"--CODEGEN--\":5847:5852   */\n  dup2\n    /* \"--CODEGEN--\":5829:5853   */\n  tag_89\n  jump\t// in\ntag_101:\n    /* \"--CODEGEN--\":5822:5827   */\n  dup2\n    /* \"--CODEGEN--\":5819:5854   */\n  eq\n    /* \"--CODEGEN--\":5809:5811   */\n  tag_102\n  jumpi\n    /* \"--CODEGEN--\":5868:5869   */\n  0x00\n    /* \"--CODEGEN--\":5865:5866   */\n  dup1\n    /* \"--CODEGEN--\":5858:5870   */\n  revert\n    /* \"--CODEGEN--\":5809:5811   */\ntag_102:\n    /* \"--CODEGEN--\":5803:5877   */\n  pop\n  jump\t// out\n    /* \"--CODEGEN--\":5884:6001   */\ntag_60:\n    /* \"--CODEGEN--\":5953:5977   */\n  tag_104\n    /* \"--CODEGEN--\":5971:5976   */\n  dup2\n    /* \"--CODEGEN--\":5953:5977   */\n  tag_79\n  jump\t// in\ntag_104:\n    /* \"--CODEGEN--\":5946:5951   */\n  dup2\n    /* \"--CODEGEN--\":5943:5978   */\n  eq\n    /* \"--CODEGEN--\":5933:5935   */\n  tag_105\n  jumpi\n    /* \"--CODEGEN--\":5992:5993   */\n  0x00\n    /* \"--CODEGEN--\":5989:5990   */\n  dup1\n    /* \"--CODEGEN--\":5982:5994   */\n  revert\n    /* \"--CODEGEN--\":5933:5935   */\ntag_105:\n    /* \"--CODEGEN--\":5927:6001   */\n  pop\n  jump\t// out\n    /* \"JLoansFactory.sol\":16401:18772  contract JLoanTokenPair is JLoanCommons, IJLoanTokenPair {\r... */\ntag_22:\n  dataSize(sub_0)\n  dup1\n  dataOffset(sub_0)\n  0x00\n  codecopy\n  0x00\n  return\nstop\n\nsub_0: assembly {\n        /* \"JLoansFactory.sol\":16401:18772  contract JLoanTokenPair is JLoanCommons, IJLoanTokenPair {\r... */\n      mstore(0x40, 0x80)\n      jumpi(tag_1, lt(calldatasize, 0x04))\n      shr(0xe0, calldataload(0x00))\n      dup1\n      0x80cc0269\n      gt\n      tag_30\n      jumpi\n      dup1\n      0xc6cb6770\n      gt\n      tag_31\n      jumpi\n      dup1\n      0xeaf3a62e\n      gt\n      tag_32\n      jumpi\n      dup1\n      0xeaf3a62e\n      eq\n      tag_26\n      jumpi\n      dup1\n      0xf1a9af89\n      eq\n      tag_27\n      jumpi\n      dup1\n      0xf2fde38b\n      eq\n      tag_28\n      jumpi\n      dup1\n      0xfcbbd574\n      eq\n      tag_29\n      jumpi\n      jump(tag_1)\n    tag_32:\n      dup1\n      0xc6cb6770\n      eq\n      tag_23\n      jumpi\n      dup1\n      0xe5acc187\n      eq\n      tag_24\n      jumpi\n      dup1\n      0xeaea4fc9\n      eq\n      tag_25\n      jumpi\n      jump(tag_1)\n    tag_31:\n      dup1\n      0x94a83eeb\n      gt\n      tag_33\n      jumpi\n      dup1\n      0x94a83eeb\n      eq\n      tag_19\n      jumpi\n      dup1\n      0xa2df9b1f\n      eq\n      tag_20\n      jumpi\n      dup1\n      0xb2ca1805\n      eq\n      tag_21\n      jumpi\n      dup1\n      0xbad4a01f\n      eq\n      tag_22\n      jumpi\n      jump(tag_1)\n    tag_33:\n      dup1\n      0x80cc0269\n      eq\n      tag_16\n      jumpi\n      dup1\n      0x8a0dac21\n      eq\n      tag_17\n      jumpi\n      dup1\n      0x8da5cb5b\n      eq\n      tag_18\n      jumpi\n      jump(tag_1)\n    tag_30:\n      dup1\n      0x3cb85225\n      gt\n      tag_34\n      jumpi\n      dup1\n      0x68c8d54c\n      gt\n      tag_35\n      jumpi\n      dup1\n      0x68c8d54c\n      eq\n      tag_12\n      jumpi\n      dup1\n      0x6f9fb98a\n      eq\n      tag_13\n      jumpi\n      dup1\n      0x708196ae\n      eq\n      tag_14\n      jumpi\n      dup1\n      0x715018a6\n      eq\n      tag_15\n      jumpi\n      jump(tag_1)\n    tag_35:\n      dup1\n      0x3cb85225\n      eq\n      tag_9\n      jumpi\n      dup1\n      0x44dc7fbc\n      eq\n      tag_10\n      jumpi\n      dup1\n      0x5dc334bf\n      eq\n      tag_11\n      jumpi\n      jump(tag_1)\n    tag_34:\n      dup1\n      0x17634514\n      gt\n      tag_36\n      jumpi\n      dup1\n      0x17634514\n      eq\n      tag_5\n      jumpi\n      dup1\n      0x1cbd8380\n      eq\n      tag_6\n      jumpi\n      dup1\n      0x2a3d7c81\n      eq\n      tag_7\n      jumpi\n      dup1\n      0x3702e6cb\n      eq\n      tag_8\n      jumpi\n      jump(tag_1)\n    tag_36:\n      dup1\n      0x074ca966\n      eq\n      tag_2\n      jumpi\n      dup1\n      0x09e94d98\n      eq\n      tag_3\n      jumpi\n      dup1\n      0x0e031a94\n      eq\n      tag_4\n      jumpi\n    tag_1:\n      0x00\n      dup1\n      revert\n        /* \"JLoansFactory.sol\":12050:12074  Status public loanStatus */\n    tag_2:\n      callvalue\n      dup1\n      iszero\n      tag_37\n      jumpi\n      0x00\n      dup1\n      revert\n    tag_37:\n      pop\n      tag_38\n      tag_39\n      jump\t// in\n    tag_38:\n      mload(0x40)\n      tag_40\n      swap2\n      swap1\n      tag_41\n      jump\t// in\n    tag_40:\n      mload(0x40)\n      dup1\n      swap2\n      sub\n      swap1\n      return\n        /* \"JLoansFactory.sol\":12019:12043  params public loanParams */\n    tag_3:\n      callvalue\n      dup1\n      iszero\n      tag_42\n      jumpi\n      0x00\n      dup1\n      revert\n    tag_42:\n      pop\n      tag_43\n      tag_44\n      jump\t// in\n    tag_43:\n      mload(0x40)\n      tag_45\n      swap7\n      swap6\n      swap5\n      swap4\n      swap3\n      swap2\n      swap1\n      tag_46\n      jump\t// in\n    tag_45:\n      mload(0x40)\n      dup1\n      swap2\n      sub\n      swap1\n      return\n        /* \"JLoansFactory.sol\":12118:12137  uint public rpbRate */\n    tag_4:\n      callvalue\n      dup1\n      iszero\n      tag_47\n      jumpi\n      0x00\n      dup1\n      revert\n    tag_47:\n      pop\n      tag_48\n      tag_49\n      jump\t// in\n    tag_48:\n      mload(0x40)\n      tag_50\n      swap2\n      swap1\n      tag_51\n      jump\t// in\n    tag_50:\n      mload(0x40)\n      dup1\n      swap2\n      sub\n      swap1\n      return\n        /* \"JLoansFactory.sol\":12214:12239  uint public creationBlock */\n    tag_5:\n      callvalue\n      dup1\n      iszero\n      tag_52\n      jumpi\n      0x00\n      dup1\n      revert\n    tag_52:\n      pop\n      tag_53\n      tag_54\n      jump\t// in\n    tag_53:\n      mload(0x40)\n      tag_55\n      swap2\n      swap1\n      tag_51\n      jump\t// in\n    tag_55:\n      mload(0x40)\n      dup1\n      swap2\n      sub\n      swap1\n      return\n        /* \"JLoansFactory.sol\":12356:12383  uint public borrowerBalance */\n    tag_6:\n      callvalue\n      dup1\n      iszero\n      tag_56\n      jumpi\n      0x00\n      dup1\n      revert\n    tag_56:\n      pop\n      tag_57\n      tag_58\n      jump\t// in\n    tag_57:\n      mload(0x40)\n      tag_59\n      swap2\n      swap1\n      tag_51\n      jump\t// in\n    tag_59:\n      mload(0x40)\n      dup1\n      swap2\n      sub\n      swap1\n      return\n        /* \"JLoansFactory.sol\":12246:12274  uint public lastDepositBlock */\n    tag_7:\n      callvalue\n      dup1\n      iszero\n      tag_60\n      jumpi\n      0x00\n      dup1\n      revert\n    tag_60:\n      pop\n      tag_61\n      tag_62\n      jump\t// in\n    tag_61:\n      mload(0x40)\n      tag_63\n      swap2\n      swap1\n      tag_51\n      jump\t// in\n    tag_63:\n      mload(0x40)\n      dup1\n      swap2\n      sub\n      swap1\n      return\n        /* \"JLoansFactory.sol\":16548:16584  address public stableContractAddress */\n    tag_8:\n      callvalue\n      dup1\n      iszero\n      tag_64\n      jumpi\n      0x00\n      dup1\n      revert\n    tag_64:\n      pop\n      tag_65\n      tag_66\n      jump\t// in\n    tag_65:\n      mload(0x40)\n      tag_67\n      swap2\n      swap1\n      tag_68\n      jump\t// in\n    tag_67:\n      mload(0x40)\n      dup1\n      swap2\n      sub\n      swap1\n      return\n        /* \"JLoansFactory.sol\":16695:16727  IERC20 public cryptoFromBorrower */\n    tag_9:\n      callvalue\n      dup1\n      iszero\n      tag_69\n      jumpi\n      0x00\n      dup1\n      revert\n    tag_69:\n      pop\n      tag_70\n      tag_71\n      jump\t// in\n    tag_70:\n      mload(0x40)\n      tag_72\n      swap2\n      swap1\n      tag_73\n      jump\t// in\n    tag_72:\n      mload(0x40)\n      dup1\n      swap2\n      sub\n      swap1\n      return\n        /* \"JLoansFactory.sol\":16734:16764  IERC20 public cryptoFromLender */\n    tag_10:\n      callvalue\n      dup1\n      iszero\n      tag_74\n      jumpi\n      0x00\n      dup1\n      revert\n    tag_74:\n      pop\n      tag_75\n      tag_76\n      jump\t// in\n    tag_75:\n      mload(0x40)\n      tag_77\n      swap2\n      swap1\n      tag_73\n      jump\t// in\n    tag_77:\n      mload(0x40)\n      dup1\n      swap2\n      sub\n      swap1\n      return\n        /* \"JLoansFactory.sol\":13220:13503  function lenderAcceptance(address _lenderAddress) override external onlyOwner{\r... */\n    tag_11:\n      callvalue\n      dup1\n      iszero\n      tag_78\n      jumpi\n      0x00\n      dup1\n      revert\n    tag_78:\n      pop\n      tag_79\n      0x04\n      dup1\n      calldatasize\n      sub\n      dup2\n      add\n      swap1\n      tag_80\n      swap2\n      swap1\n      tag_81\n      jump\t// in\n    tag_80:\n      tag_82\n      jump\t// in\n    tag_79:\n      stop\n        /* \"JLoansFactory.sol\":16597:16635  string public chosenBorrowedCryptoName */\n    tag_12:\n      callvalue\n      dup1\n      iszero\n      tag_83\n      jumpi\n      0x00\n      dup1\n      revert\n    tag_83:\n      pop\n      tag_84\n      tag_85\n      jump\t// in\n    tag_84:\n      mload(0x40)\n      tag_86\n      swap2\n      swap1\n      tag_87\n      jump\t// in\n    tag_86:\n      mload(0x40)\n      dup1\n      swap2\n      sub\n      swap1\n      return\n        /* \"JLoansFactory.sol\":18498:18767  function getContractBalance() override external view returns (uint) {\r... */\n    tag_13:\n      callvalue\n      dup1\n      iszero\n      tag_88\n      jumpi\n      0x00\n      dup1\n      revert\n    tag_88:\n      pop\n      tag_89\n      tag_90\n      jump\t// in\n    tag_89:\n      mload(0x40)\n      tag_91\n      swap2\n      swap1\n      tag_51\n      jump\t// in\n    tag_91:\n      mload(0x40)\n      dup1\n      swap2\n      sub\n      swap1\n      return\n        /* \"JLoansFactory.sol\":13906:14201  function setNewStatus(uint _newStatus) override public onlyFactory {\r... */\n    tag_14:\n      callvalue\n      dup1\n      iszero\n      tag_92\n      jumpi\n      0x00\n      dup1\n      revert\n    tag_92:\n      pop\n      tag_93\n      0x04\n      dup1\n      calldatasize\n      sub\n      dup2\n      add\n      swap1\n      tag_94\n      swap2\n      swap1\n      tag_95\n      jump\t// in\n    tag_94:\n      tag_96\n      jump\t// in\n    tag_93:\n      stop\n        /* \"JLoansFactory.sol\":7953:8101  function renounceOwnership() public virtual onlyOwner {\r... */\n    tag_15:\n      callvalue\n      dup1\n      iszero\n      tag_97\n      jumpi\n      0x00\n      dup1\n      revert\n    tag_97:\n      pop\n      tag_98\n      tag_99\n      jump\t// in\n    tag_98:\n      stop\n        /* \"JLoansFactory.sol\":12087:12109  string public loanName */\n    tag_16:\n      callvalue\n      dup1\n      iszero\n      tag_100\n      jumpi\n      0x00\n      dup1\n      revert\n    tag_100:\n      pop\n      tag_101\n      tag_102\n      jump\t// in\n    tag_101:\n      mload(0x40)\n      tag_103\n      swap2\n      swap1\n      tag_87\n      jump\t// in\n    tag_103:\n      mload(0x40)\n      dup1\n      swap2\n      sub\n      swap1\n      return\n        /* \"JLoansFactory.sol\":12315:12347  uint public loanForeclosureBlock */\n    tag_17:\n      callvalue\n      dup1\n      iszero\n      tag_104\n      jumpi\n      0x00\n      dup1\n      revert\n    tag_104:\n      pop\n      tag_105\n      tag_106\n      jump\t// in\n    tag_105:\n      mload(0x40)\n      tag_107\n      swap2\n      swap1\n      tag_51\n      jump\t// in\n    tag_107:\n      mload(0x40)\n      dup1\n      swap2\n      sub\n      swap1\n      return\n        /* \"JLoansFactory.sol\":7311:7390  function owner() public view returns (address) {\r... */\n    tag_18:\n      callvalue\n      dup1\n      iszero\n      tag_108\n      jumpi\n      0x00\n      dup1\n      revert\n    tag_108:\n      pop\n      tag_109\n      tag_110\n      jump\t// in\n    tag_109:\n      mload(0x40)\n      tag_111\n      swap2\n      swap1\n      tag_68\n      jump\t// in\n    tag_111:\n      mload(0x40)\n      dup1\n      swap2\n      sub\n      swap1\n      return\n        /* \"JLoansFactory.sol\":13511:13764  function loanForeClosure() override external onlyOwner {\r... */\n    tag_19:\n      callvalue\n      dup1\n      iszero\n      tag_112\n      jumpi\n      0x00\n      dup1\n      revert\n    tag_112:\n      pop\n      tag_113\n      tag_114\n      jump\t// in\n    tag_113:\n      stop\n        /* \"JLoansFactory.sol\":12173:12205  uint public startCollateralRatio */\n    tag_20:\n      callvalue\n      dup1\n      iszero\n      tag_115\n      jumpi\n      0x00\n      dup1\n      revert\n    tag_115:\n      pop\n      tag_116\n      tag_117\n      jump\t// in\n    tag_116:\n      mload(0x40)\n      tag_118\n      swap2\n      swap1\n      tag_51\n      jump\t// in\n    tag_118:\n      mload(0x40)\n      dup1\n      swap2\n      sub\n      swap1\n      return\n        /* \"JLoansFactory.sol\":12281:12308  uint public loanActiveBlock */\n    tag_21:\n      callvalue\n      dup1\n      iszero\n      tag_119\n      jumpi\n      0x00\n      dup1\n      revert\n    tag_119:\n      pop\n      tag_120\n      tag_121\n      jump\t// in\n    tag_120:\n      mload(0x40)\n      tag_122\n      swap2\n      swap1\n      tag_51\n      jump\t// in\n    tag_122:\n      mload(0x40)\n      dup1\n      swap2\n      sub\n      swap1\n      return\n        /* \"JLoansFactory.sol\":17872:18490  function depositCollateral(uint _depositAmount) override public payable {\r... */\n    tag_22:\n      tag_123\n      0x04\n      dup1\n      calldatasize\n      sub\n      dup2\n      add\n      swap1\n      tag_124\n      swap2\n      swap1\n      tag_95\n      jump\t// in\n    tag_124:\n      tag_125\n      jump\t// in\n    tag_123:\n      stop\n        /* \"JLoansFactory.sol\":13772:13898  function setNewParams(params memory _newLoanParams) override public onlyFactory {\r... */\n    tag_23:\n      callvalue\n      dup1\n      iszero\n      tag_126\n      jumpi\n      0x00\n      dup1\n      revert\n    tag_126:\n      pop\n      tag_127\n      0x04\n      dup1\n      calldatasize\n      sub\n      dup2\n      add\n      swap1\n      tag_128\n      swap2\n      swap1\n      tag_129\n      jump\t// in\n    tag_128:\n      tag_130\n      jump\t// in\n    tag_127:\n      stop\n        /* \"JLoansFactory.sol\":16657:16686  uint public askedBorrowAmount */\n    tag_24:\n      callvalue\n      dup1\n      iszero\n      tag_131\n      jumpi\n      0x00\n      dup1\n      revert\n    tag_131:\n      pop\n      tag_132\n      tag_133\n      jump\t// in\n    tag_132:\n      mload(0x40)\n      tag_134\n      swap2\n      swap1\n      tag_51\n      jump\t// in\n    tag_134:\n      mload(0x40)\n      dup1\n      swap2\n      sub\n      swap1\n      return\n        /* \"JLoansFactory.sol\":17695:17862  function testToken(address _tkn) override external {\r... */\n    tag_25:\n      callvalue\n      dup1\n      iszero\n      tag_135\n      jumpi\n      0x00\n      dup1\n      revert\n    tag_135:\n      pop\n      tag_136\n      0x04\n      dup1\n      calldatasize\n      sub\n      dup2\n      add\n      swap1\n      tag_137\n      swap2\n      swap1\n      tag_81\n      jump\t// in\n    tag_137:\n      tag_138\n      jump\t// in\n    tag_136:\n      stop\n        /* \"JLoansFactory.sol\":12390:12415  uint public lenderBalance */\n    tag_26:\n      callvalue\n      dup1\n      iszero\n      tag_139\n      jumpi\n      0x00\n      dup1\n      revert\n    tag_139:\n      pop\n      tag_140\n      tag_141\n      jump\t// in\n    tag_140:\n      mload(0x40)\n      tag_142\n      swap2\n      swap1\n      tag_51\n      jump\t// in\n    tag_142:\n      mload(0x40)\n      dup1\n      swap2\n      sub\n      swap1\n      return\n        /* \"JLoansFactory.sol\":12144:12166  uint public startPrice */\n    tag_27:\n      callvalue\n      dup1\n      iszero\n      tag_143\n      jumpi\n      0x00\n      dup1\n      revert\n    tag_143:\n      pop\n      tag_144\n      tag_145\n      jump\t// in\n    tag_144:\n      mload(0x40)\n      tag_146\n      swap2\n      swap1\n      tag_51\n      jump\t// in\n    tag_146:\n      mload(0x40)\n      dup1\n      swap2\n      sub\n      swap1\n      return\n        /* \"JLoansFactory.sol\":8256:8500  function transferOwnership(address newOwner) public virtual onlyOwner {\r... */\n    tag_28:\n      callvalue\n      dup1\n      iszero\n      tag_147\n      jumpi\n      0x00\n      dup1\n      revert\n    tag_147:\n      pop\n      tag_148\n      0x04\n      dup1\n      calldatasize\n      sub\n      dup2\n      add\n      swap1\n      tag_149\n      swap2\n      swap1\n      tag_81\n      jump\t// in\n    tag_149:\n      tag_150\n      jump\t// in\n    tag_148:\n      stop\n        /* \"JLoansFactory.sol\":16501:16541  address public collateralContractAddress */\n    tag_29:\n      callvalue\n      dup1\n      iszero\n      tag_151\n      jumpi\n      0x00\n      dup1\n      revert\n    tag_151:\n      pop\n      tag_152\n      tag_153\n      jump\t// in\n    tag_152:\n      mload(0x40)\n      tag_154\n      swap2\n      swap1\n      tag_68\n      jump\t// in\n    tag_154:\n      mload(0x40)\n      dup1\n      swap2\n      sub\n      swap1\n      return\n        /* \"JLoansFactory.sol\":12050:12074  Status public loanStatus */\n    tag_39:\n      0x07\n      0x00\n      swap1\n      sload\n      swap1\n      0x0100\n      exp\n      swap1\n      div\n      0xff\n      and\n      dup2\n      jump\t// out\n        /* \"JLoansFactory.sol\":12019:12043  params public loanParams */\n    tag_44:\n      0x01\n      dup1\n      0x00\n      add\n      sload\n      swap1\n      dup1\n      0x01\n      add\n      sload\n      swap1\n      dup1\n      0x02\n      add\n      sload\n      swap1\n      dup1\n      0x03\n      add\n      sload\n      swap1\n      dup1\n      0x04\n      add\n      sload\n      swap1\n      dup1\n      0x05\n      add\n      sload\n      swap1\n      pop\n      dup7\n      jump\t// out\n        /* \"JLoansFactory.sol\":12118:12137  uint public rpbRate */\n    tag_49:\n      sload(0x09)\n      dup2\n      jump\t// out\n        /* \"JLoansFactory.sol\":12214:12239  uint public creationBlock */\n    tag_54:\n      sload(0x0c)\n      dup2\n      jump\t// out\n        /* \"JLoansFactory.sol\":12356:12383  uint public borrowerBalance */\n    tag_58:\n      sload(0x10)\n      dup2\n      jump\t// out\n        /* \"JLoansFactory.sol\":12246:12274  uint public lastDepositBlock */\n    tag_62:\n      sload(0x0d)\n      dup2\n      jump\t// out\n        /* \"JLoansFactory.sol\":16548:16584  address public stableContractAddress */\n    tag_66:\n      0x14\n      0x00\n      swap1\n      sload\n      swap1\n      0x0100\n      exp\n      swap1\n      div\n      0xffffffffffffffffffffffffffffffffffffffff\n      and\n      dup2\n      jump\t// out\n        /* \"JLoansFactory.sol\":16695:16727  IERC20 public cryptoFromBorrower */\n    tag_71:\n      0x17\n      0x00\n      swap1\n      sload\n      swap1\n      0x0100\n      exp\n      swap1\n      div\n      0xffffffffffffffffffffffffffffffffffffffff\n      and\n      dup2\n      jump\t// out\n        /* \"JLoansFactory.sol\":16734:16764  IERC20 public cryptoFromLender */\n    tag_76:\n      0x18\n      0x00\n      swap1\n      sload\n      swap1\n      0x0100\n      exp\n      swap1\n      div\n      0xffffffffffffffffffffffffffffffffffffffff\n      and\n      dup2\n      jump\t// out\n        /* \"JLoansFactory.sol\":13220:13503  function lenderAcceptance(address _lenderAddress) override external onlyOwner{\r... */\n    tag_82:\n        /* \"JLoansFactory.sol\":7533:7545  _msgSender() */\n      tag_156\n        /* \"JLoansFactory.sol\":7533:7543  _msgSender */\n      tag_157\n        /* \"JLoansFactory.sol\":7533:7545  _msgSender() */\n      jump\t// in\n    tag_156:\n        /* \"JLoansFactory.sol\":7523:7545  _owner == _msgSender() */\n      0xffffffffffffffffffffffffffffffffffffffff\n      and\n        /* \"JLoansFactory.sol\":7523:7529  _owner */\n      0x00\n      dup1\n      sload\n      swap1\n      0x0100\n      exp\n      swap1\n      div\n      0xffffffffffffffffffffffffffffffffffffffff\n      and\n        /* \"JLoansFactory.sol\":7523:7545  _owner == _msgSender() */\n      0xffffffffffffffffffffffffffffffffffffffff\n      and\n      eq\n        /* \"JLoansFactory.sol\":7515:7582  require(_owner == _msgSender(), \"Ownable: caller is not the owner\") */\n      tag_158\n      jumpi\n      mload(0x40)\n      0x08c379a000000000000000000000000000000000000000000000000000000000\n      dup2\n      mstore\n      0x04\n      add\n      tag_159\n      swap1\n      tag_160\n      jump\t// in\n    tag_159:\n      mload(0x40)\n      dup1\n      swap2\n      sub\n      swap1\n      revert\n    tag_158:\n        /* \"JLoansFactory.sol\":13342:13343  0 */\n      0x00\n        /* \"JLoansFactory.sol\":13316:13344  _lenderAddress != address(0) */\n      0xffffffffffffffffffffffffffffffffffffffff\n      and\n        /* \"JLoansFactory.sol\":13316:13330  _lenderAddress */\n      dup2\n        /* \"JLoansFactory.sol\":13316:13344  _lenderAddress != address(0) */\n      0xffffffffffffffffffffffffffffffffffffffff\n      and\n      eq\n      iszero\n        /* \"JLoansFactory.sol\":13308:13368  require(_lenderAddress != address(0), \"Address not allowed\") */\n      tag_162\n      jumpi\n      mload(0x40)\n      0x08c379a000000000000000000000000000000000000000000000000000000000\n      dup2\n      mstore\n      0x04\n      add\n      tag_163\n      swap1\n      tag_164\n      jump\t// in\n    tag_163:\n      mload(0x40)\n      dup1\n      swap2\n      sub\n      swap1\n      revert\n    tag_162:\n        /* \"JLoansFactory.sol\":13379:13383  this */\n      address\n        /* \"JLoansFactory.sol\":13379:13401  this.transferOwnership */\n      0xffffffffffffffffffffffffffffffffffffffff\n      and\n      0xf2fde38b\n        /* \"JLoansFactory.sol\":13402:13416  _lenderAddress */\n      dup3\n        /* \"JLoansFactory.sol\":13379:13417  this.transferOwnership(_lenderAddress) */\n      mload(0x40)\n      dup3\n      0xffffffff\n      and\n      0xe0\n      shl\n      dup2\n      mstore\n      0x04\n      add\n      tag_165\n      swap2\n      swap1\n      tag_68\n      jump\t// in\n    tag_165:\n      0x00\n      mload(0x40)\n      dup1\n      dup4\n      sub\n      dup2\n      0x00\n      dup8\n      dup1\n      extcodesize\n      iszero\n      dup1\n      iszero\n      tag_166\n      jumpi\n      0x00\n      dup1\n      revert\n    tag_166:\n      pop\n      gas\n      call\n      iszero\n      dup1\n      iszero\n      tag_168\n      jumpi\n      returndatasize\n      0x00\n      dup1\n      returndatacopy\n      revert(0x00, returndatasize)\n    tag_168:\n      pop\n      pop\n      pop\n      pop\n        /* \"JLoansFactory.sol\":13446:13458  block.number */\n      number\n        /* \"JLoansFactory.sol\":13428:13443  loanActiveBlock */\n      0x0e\n        /* \"JLoansFactory.sol\":13428:13458  loanActiveBlock = block.number */\n      dup2\n      swap1\n      sstore\n      pop\n        /* \"JLoansFactory.sol\":13482:13495  Status.active */\n      0x01\n        /* \"JLoansFactory.sol\":13469:13479  loanStatus */\n      0x07\n      0x00\n        /* \"JLoansFactory.sol\":13469:13495  loanStatus = Status.active */\n      0x0100\n      exp\n      dup2\n      sload\n      dup2\n      0xff\n      mul\n      not\n      and\n      swap1\n      dup4\n      0x04\n      dup2\n      gt\n      iszero\n      tag_169\n      jumpi\n      invalid\n    tag_169:\n      mul\n      or\n      swap1\n      sstore\n      pop\n        /* \"JLoansFactory.sol\":13220:13503  function lenderAcceptance(address _lenderAddress) override external onlyOwner{\r... */\n      pop\n      jump\t// out\n        /* \"JLoansFactory.sol\":16597:16635  string public chosenBorrowedCryptoName */\n    tag_85:\n      0x15\n      dup1\n      sload\n      0x01\n      dup2\n      0x01\n      and\n      iszero\n      0x0100\n      mul\n      sub\n      and\n      0x02\n      swap1\n      div\n      dup1\n      0x1f\n      add\n      0x20\n      dup1\n      swap2\n      div\n      mul\n      0x20\n      add\n      mload(0x40)\n      swap1\n      dup2\n      add\n      0x40\n      mstore\n      dup1\n      swap3\n      swap2\n      swap1\n      dup2\n      dup2\n      mstore\n      0x20\n      add\n      dup3\n      dup1\n      sload\n      0x01\n      dup2\n      0x01\n      and\n      iszero\n      0x0100\n      mul\n      sub\n      and\n      0x02\n      swap1\n      div\n      dup1\n      iszero\n      tag_170\n      jumpi\n      dup1\n      0x1f\n      lt\n      tag_171\n      jumpi\n      0x0100\n      dup1\n      dup4\n      sload\n      div\n      mul\n      dup4\n      mstore\n      swap2\n      0x20\n      add\n      swap2\n      jump(tag_170)\n    tag_171:\n      dup3\n      add\n      swap2\n      swap1\n      0x00\n      mstore\n      keccak256(0x00, 0x20)\n      swap1\n    tag_172:\n      dup2\n      sload\n      dup2\n      mstore\n      swap1\n      0x01\n      add\n      swap1\n      0x20\n      add\n      dup1\n      dup4\n      gt\n      tag_172\n      jumpi\n      dup3\n      swap1\n      sub\n      0x1f\n      and\n      dup3\n      add\n      swap2\n    tag_170:\n      pop\n      pop\n      pop\n      pop\n      pop\n      dup2\n      jump\t// out\n        /* \"JLoansFactory.sol\":18498:18767  function getContractBalance() override external view returns (uint) {\r... */\n    tag_90:\n        /* \"JLoansFactory.sol\":18560:18564  uint */\n      0x00\n        /* \"JLoansFactory.sol\":18621:18646  collateralContractAddress */\n      0x13\n      0x00\n      swap1\n      sload\n      swap1\n      0x0100\n      exp\n      swap1\n      div\n      0xffffffffffffffffffffffffffffffffffffffff\n      and\n        /* \"JLoansFactory.sol\":18582:18647  address(cryptoFromBorrower) == address(collateralContractAddress) */\n      0xffffffffffffffffffffffffffffffffffffffff\n      and\n        /* \"JLoansFactory.sol\":18590:18608  cryptoFromBorrower */\n      0x17\n      0x00\n      swap1\n      sload\n      swap1\n      0x0100\n      exp\n      swap1\n      div\n      0xffffffffffffffffffffffffffffffffffffffff\n      and\n        /* \"JLoansFactory.sol\":18582:18647  address(cryptoFromBorrower) == address(collateralContractAddress) */\n      0xffffffffffffffffffffffffffffffffffffffff\n      and\n      eq\n        /* \"JLoansFactory.sol\":18577:18760  if ( address(cryptoFromBorrower) == address(collateralContractAddress) ) {\r... */\n      iszero\n      tag_174\n      jumpi\n        /* \"JLoansFactory.sol\":18672:18687  borrowerBalance */\n      sload(0x10)\n        /* \"JLoansFactory.sol\":18665:18687  return borrowerBalance */\n      swap1\n      pop\n      jump(tag_173)\n        /* \"JLoansFactory.sol\":18577:18760  if ( address(cryptoFromBorrower) == address(collateralContractAddress) ) {\r... */\n    tag_174:\n        /* \"JLoansFactory.sol\":18727:18748  address(this).balance */\n      selfbalance\n        /* \"JLoansFactory.sol\":18720:18748  return address(this).balance */\n      swap1\n      pop\n        /* \"JLoansFactory.sol\":18498:18767  function getContractBalance() override external view returns (uint) {\r... */\n    tag_173:\n      swap1\n      jump\t// out\n        /* \"JLoansFactory.sol\":13906:14201  function setNewStatus(uint _newStatus) override public onlyFactory {\r... */\n    tag_96:\n        /* \"JLoansFactory.sol\":13154:13168  factoryAddress */\n      0x12\n      0x00\n      swap1\n      sload\n      swap1\n      0x0100\n      exp\n      swap1\n      div\n      0xffffffffffffffffffffffffffffffffffffffff\n      and\n        /* \"JLoansFactory.sol\":13140:13168  msg.sender == factoryAddress */\n      0xffffffffffffffffffffffffffffffffffffffff\n      and\n        /* \"JLoansFactory.sol\":13140:13150  msg.sender */\n      caller\n        /* \"JLoansFactory.sol\":13140:13168  msg.sender == factoryAddress */\n      0xffffffffffffffffffffffffffffffffffffffff\n      and\n      eq\n        /* \"JLoansFactory.sol\":13132:13192  require(msg.sender == factoryAddress, \"Address not allowed\") */\n      tag_177\n      jumpi\n      mload(0x40)\n      0x08c379a000000000000000000000000000000000000000000000000000000000\n      dup2\n      mstore\n      0x04\n      add\n      tag_178\n      swap1\n      tag_164\n      jump\t// in\n    tag_178:\n      mload(0x40)\n      dup1\n      swap2\n      sub\n      swap1\n      revert\n    tag_177:\n        /* \"JLoansFactory.sol\":14006:14007  0 */\n      0x00\n        /* \"JLoansFactory.sol\":13992:14002  _newStatus */\n      dup2\n        /* \"JLoansFactory.sol\":13992:14007  _newStatus >= 0 */\n      lt\n      iszero\n        /* \"JLoansFactory.sol\":13992:14026  _newStatus >= 0 && _newStatus <= 4 */\n      dup1\n      iszero\n      tag_180\n      jumpi\n      pop\n        /* \"JLoansFactory.sol\":14025:14026  4 */\n      0x04\n        /* \"JLoansFactory.sol\":14011:14021  _newStatus */\n      dup2\n        /* \"JLoansFactory.sol\":14011:14026  _newStatus <= 4 */\n      gt\n      iszero\n        /* \"JLoansFactory.sol\":13992:14026  _newStatus >= 0 && _newStatus <= 4 */\n    tag_180:\n        /* \"JLoansFactory.sol\":13984:14050  require(_newStatus >= 0 && _newStatus <= 4, \"New state not valid\") */\n      tag_181\n      jumpi\n      mload(0x40)\n      0x08c379a000000000000000000000000000000000000000000000000000000000\n      dup2\n      mstore\n      0x04\n      add\n      tag_182\n      swap1\n      tag_183\n      jump\t// in\n    tag_182:\n      mload(0x40)\n      dup1\n      swap2\n      sub\n      swap1\n      revert\n    tag_181:\n        /* \"JLoansFactory.sol\":14095:14105  loanStatus */\n      0x07\n      0x00\n      swap1\n      sload\n      swap1\n      0x0100\n      exp\n      swap1\n      div\n      0xff\n      and\n        /* \"JLoansFactory.sol\":14083:14107  uint(Status(loanStatus)) */\n      0x04\n      dup2\n      gt\n      iszero\n      tag_184\n      jumpi\n      invalid\n    tag_184:\n        /* \"JLoansFactory.sol\":14069:14079  _newStatus */\n      dup2\n        /* \"JLoansFactory.sol\":14069:14107  _newStatus != uint(Status(loanStatus)) */\n      eq\n      iszero\n        /* \"JLoansFactory.sol\":14061:14151  require(_newStatus != uint(Status(loanStatus)), \"New status is the same like present one\") */\n      tag_185\n      jumpi\n      mload(0x40)\n      0x08c379a000000000000000000000000000000000000000000000000000000000\n      dup2\n      mstore\n      0x04\n      add\n      tag_186\n      swap1\n      tag_187\n      jump\t// in\n    tag_186:\n      mload(0x40)\n      dup1\n      swap2\n      sub\n      swap1\n      revert\n    tag_185:\n        /* \"JLoansFactory.sol\":14182:14192  _newStatus */\n      dup1\n        /* \"JLoansFactory.sol\":14175:14193  Status(_newStatus) */\n      0x04\n      dup2\n      gt\n      iszero\n      tag_188\n      jumpi\n      invalid\n    tag_188:\n        /* \"JLoansFactory.sol\":14162:14172  loanStatus */\n      0x07\n      0x00\n        /* \"JLoansFactory.sol\":14162:14193  loanStatus = Status(_newStatus) */\n      0x0100\n      exp\n      dup2\n      sload\n      dup2\n      0xff\n      mul\n      not\n      and\n      swap1\n      dup4\n      0x04\n      dup2\n      gt\n      iszero\n      tag_189\n      jumpi\n      invalid\n    tag_189:\n      mul\n      or\n      swap1\n      sstore\n      pop\n        /* \"JLoansFactory.sol\":13906:14201  function setNewStatus(uint _newStatus) override public onlyFactory {\r... */\n      pop\n      jump\t// out\n        /* \"JLoansFactory.sol\":7953:8101  function renounceOwnership() public virtual onlyOwner {\r... */\n    tag_99:\n        /* \"JLoansFactory.sol\":7533:7545  _msgSender() */\n      tag_191\n        /* \"JLoansFactory.sol\":7533:7543  _msgSender */\n      tag_157\n        /* \"JLoansFactory.sol\":7533:7545  _msgSender() */\n      jump\t// in\n    tag_191:\n        /* \"JLoansFactory.sol\":7523:7545  _owner == _msgSender() */\n      0xffffffffffffffffffffffffffffffffffffffff\n      and\n        /* \"JLoansFactory.sol\":7523:7529  _owner */\n      0x00\n      dup1\n      sload\n      swap1\n      0x0100\n      exp\n      swap1\n      div\n      0xffffffffffffffffffffffffffffffffffffffff\n      and\n        /* \"JLoansFactory.sol\":7523:7545  _owner == _msgSender() */\n      0xffffffffffffffffffffffffffffffffffffffff\n      and\n      eq\n        /* \"JLoansFactory.sol\":7515:7582  require(_owner == _msgSender(), \"Ownable: caller is not the owner\") */\n      tag_192\n      jumpi\n      mload(0x40)\n      0x08c379a000000000000000000000000000000000000000000000000000000000\n      dup2\n      mstore\n      0x04\n      add\n      tag_193\n      swap1\n      tag_160\n      jump\t// in\n    tag_193:\n      mload(0x40)\n      dup1\n      swap2\n      sub\n      swap1\n      revert\n    tag_192:\n        /* \"JLoansFactory.sol\":8060:8061  0 */\n      0x00\n        /* \"JLoansFactory.sol\":8023:8063  OwnershipTransferred(_owner, address(0)) */\n      0xffffffffffffffffffffffffffffffffffffffff\n      and\n        /* \"JLoansFactory.sol\":8044:8050  _owner */\n      0x00\n      dup1\n      sload\n      swap1\n      0x0100\n      exp\n      swap1\n      div\n      0xffffffffffffffffffffffffffffffffffffffff\n      and\n        /* \"JLoansFactory.sol\":8023:8063  OwnershipTransferred(_owner, address(0)) */\n      0xffffffffffffffffffffffffffffffffffffffff\n      and\n      0x8be0079c531659141344cd1fd0a4f28419497f9722a3daafe3b4186f6b6457e0\n      mload(0x40)\n      mload(0x40)\n      dup1\n      swap2\n      sub\n      swap1\n      log3\n        /* \"JLoansFactory.sol\":8091:8092  0 */\n      0x00\n        /* \"JLoansFactory.sol\":8074:8080  _owner */\n      dup1\n      0x00\n        /* \"JLoansFactory.sol\":8074:8093  _owner = address(0) */\n      0x0100\n      exp\n      dup2\n      sload\n      dup2\n      0xffffffffffffffffffffffffffffffffffffffff\n      mul\n      not\n      and\n      swap1\n      dup4\n      0xffffffffffffffffffffffffffffffffffffffff\n      and\n      mul\n      or\n      swap1\n      sstore\n      pop\n        /* \"JLoansFactory.sol\":7953:8101  function renounceOwnership() public virtual onlyOwner {\r... */\n      jump\t// out\n        /* \"JLoansFactory.sol\":12087:12109  string public loanName */\n    tag_102:\n      0x08\n      dup1\n      sload\n      0x01\n      dup2\n      0x01\n      and\n      iszero\n      0x0100\n      mul\n      sub\n      and\n      0x02\n      swap1\n      div\n      dup1\n      0x1f\n      add\n      0x20\n      dup1\n      swap2\n      div\n      mul\n      0x20\n      add\n      mload(0x40)\n      swap1\n      dup2\n      add\n      0x40\n      mstore\n      dup1\n      swap3\n      swap2\n      swap1\n      dup2\n      dup2\n      mstore\n      0x20\n      add\n      dup3\n      dup1\n      sload\n      0x01\n      dup2\n      0x01\n      and\n      iszero\n      0x0100\n      mul\n      sub\n      and\n      0x02\n      swap1\n      div\n      dup1\n      iszero\n      tag_195\n      jumpi\n      dup1\n      0x1f\n      lt\n      tag_196\n      jumpi\n      0x0100\n      dup1\n      dup4\n      sload\n      div\n      mul\n      dup4\n      mstore\n      swap2\n      0x20\n      add\n      swap2\n      jump(tag_195)\n    tag_196:\n      dup3\n      add\n      swap2\n      swap1\n      0x00\n      mstore\n      keccak256(0x00, 0x20)\n      swap1\n    tag_197:\n      dup2\n      sload\n      dup2\n      mstore\n      swap1\n      0x01\n      add\n      swap1\n      0x20\n      add\n      dup1\n      dup4\n      gt\n      tag_197\n      jumpi\n      dup3\n      swap1\n      sub\n      0x1f\n      and\n      dup3\n      add\n      swap2\n    tag_195:\n      pop\n      pop\n      pop\n      pop\n      pop\n      dup2\n      jump\t// out\n        /* \"JLoansFactory.sol\":12315:12347  uint public loanForeclosureBlock */\n    tag_106:\n      sload(0x0f)\n      dup2\n      jump\t// out\n        /* \"JLoansFactory.sol\":7311:7390  function owner() public view returns (address) {\r... */\n    tag_110:\n        /* \"JLoansFactory.sol\":7349:7356  address */\n      0x00\n        /* \"JLoansFactory.sol\":7376:7382  _owner */\n      dup1\n      0x00\n      swap1\n      sload\n      swap1\n      0x0100\n      exp\n      swap1\n      div\n      0xffffffffffffffffffffffffffffffffffffffff\n      and\n        /* \"JLoansFactory.sol\":7369:7382  return _owner */\n      swap1\n      pop\n        /* \"JLoansFactory.sol\":7311:7390  function owner() public view returns (address) {\r... */\n      swap1\n      jump\t// out\n        /* \"JLoansFactory.sol\":13511:13764  function loanForeClosure() override external onlyOwner {\r... */\n    tag_114:\n        /* \"JLoansFactory.sol\":7533:7545  _msgSender() */\n      tag_200\n        /* \"JLoansFactory.sol\":7533:7543  _msgSender */\n      tag_157\n        /* \"JLoansFactory.sol\":7533:7545  _msgSender() */\n      jump\t// in\n    tag_200:\n        /* \"JLoansFactory.sol\":7523:7545  _owner == _msgSender() */\n      0xffffffffffffffffffffffffffffffffffffffff\n      and\n        /* \"JLoansFactory.sol\":7523:7529  _owner */\n      0x00\n      dup1\n      sload\n      swap1\n      0x0100\n      exp\n      swap1\n      div\n      0xffffffffffffffffffffffffffffffffffffffff\n      and\n        /* \"JLoansFactory.sol\":7523:7545  _owner == _msgSender() */\n      0xffffffffffffffffffffffffffffffffffffffff\n      and\n      eq\n        /* \"JLoansFactory.sol\":7515:7582  require(_owner == _msgSender(), \"Ownable: caller is not the owner\") */\n      tag_201\n      jumpi\n      mload(0x40)\n      0x08c379a000000000000000000000000000000000000000000000000000000000\n      dup2\n      mstore\n      0x04\n      add\n      tag_202\n      swap1\n      tag_160\n      jump\t// in\n    tag_202:\n      mload(0x40)\n      dup1\n      swap2\n      sub\n      swap1\n      revert\n    tag_201:\n        /* \"JLoansFactory.sol\":13599:13612  Status.active */\n      0x01\n        /* \"JLoansFactory.sol\":13585:13612  loanStatus == Status.active */\n      0x04\n      dup2\n      gt\n      iszero\n      tag_204\n      jumpi\n      invalid\n    tag_204:\n        /* \"JLoansFactory.sol\":13585:13595  loanStatus */\n      0x07\n      0x00\n      swap1\n      sload\n      swap1\n      0x0100\n      exp\n      swap1\n      div\n      0xff\n      and\n        /* \"JLoansFactory.sol\":13585:13612  loanStatus == Status.active */\n      0x04\n      dup2\n      gt\n      iszero\n      tag_205\n      jumpi\n      invalid\n    tag_205:\n      eq\n        /* \"JLoansFactory.sol\":13577:13668  require(loanStatus == Status.active, \"Loan status not compatible with foreclosing actions\") */\n      tag_206\n      jumpi\n      mload(0x40)\n      0x08c379a000000000000000000000000000000000000000000000000000000000\n      dup2\n      mstore\n      0x04\n      add\n      tag_207\n      swap1\n      tag_208\n      jump\t// in\n    tag_207:\n      mload(0x40)\n      dup1\n      swap2\n      sub\n      swap1\n      revert\n    tag_206:\n        /* \"JLoansFactory.sol\":13702:13714  block.number */\n      number\n        /* \"JLoansFactory.sol\":13679:13699  loanForeclosureBlock */\n      0x0f\n        /* \"JLoansFactory.sol\":13679:13714  loanForeclosureBlock = block.number */\n      dup2\n      swap1\n      sstore\n      pop\n        /* \"JLoansFactory.sol\":13738:13756  Status.foreclosing */\n      0x02\n        /* \"JLoansFactory.sol\":13725:13735  loanStatus */\n      0x07\n      0x00\n        /* \"JLoansFactory.sol\":13725:13756  loanStatus = Status.foreclosing */\n      0x0100\n      exp\n      dup2\n      sload\n      dup2\n      0xff\n      mul\n      not\n      and\n      swap1\n      dup4\n      0x04\n      dup2\n      gt\n      iszero\n      tag_209\n      jumpi\n      invalid\n    tag_209:\n      mul\n      or\n      swap1\n      sstore\n      pop\n        /* \"JLoansFactory.sol\":13511:13764  function loanForeClosure() override external onlyOwner {\r... */\n      jump\t// out\n        /* \"JLoansFactory.sol\":12173:12205  uint public startCollateralRatio */\n    tag_117:\n      sload(0x0b)\n      dup2\n      jump\t// out\n        /* \"JLoansFactory.sol\":12281:12308  uint public loanActiveBlock */\n    tag_121:\n      sload(0x0e)\n      dup2\n      jump\t// out\n        /* \"JLoansFactory.sol\":17872:18490  function depositCollateral(uint _depositAmount) override public payable {\r... */\n    tag_125:\n        /* \"JLoansFactory.sol\":17999:18024  collateralContractAddress */\n      0x13\n      0x00\n      swap1\n      sload\n      swap1\n      0x0100\n      exp\n      swap1\n      div\n      0xffffffffffffffffffffffffffffffffffffffff\n      and\n        /* \"JLoansFactory.sol\":17960:18025  address(cryptoFromBorrower) == address(collateralContractAddress) */\n      0xffffffffffffffffffffffffffffffffffffffff\n      and\n        /* \"JLoansFactory.sol\":17968:17986  cryptoFromBorrower */\n      0x17\n      0x00\n      swap1\n      sload\n      swap1\n      0x0100\n      exp\n      swap1\n      div\n      0xffffffffffffffffffffffffffffffffffffffff\n      and\n        /* \"JLoansFactory.sol\":17960:18025  address(cryptoFromBorrower) == address(collateralContractAddress) */\n      0xffffffffffffffffffffffffffffffffffffffff\n      and\n      eq\n        /* \"JLoansFactory.sol\":17955:18473  if ( address(cryptoFromBorrower) == address(collateralContractAddress) ) {\r... */\n      iszero\n      tag_211\n      jumpi\n        /* \"JLoansFactory.sol\":18095:18109  _depositAmount */\n      dup1\n        /* \"JLoansFactory.sol\":18051:18069  cryptoFromBorrower */\n      0x17\n      0x00\n      swap1\n      sload\n      swap1\n      0x0100\n      exp\n      swap1\n      div\n      0xffffffffffffffffffffffffffffffffffffffff\n      and\n        /* \"JLoansFactory.sol\":18051:18079  cryptoFromBorrower.balanceOf */\n      0xffffffffffffffffffffffffffffffffffffffff\n      and\n      0x70a08231\n        /* \"JLoansFactory.sol\":18080:18090  msg.sender */\n      caller\n        /* \"JLoansFactory.sol\":18051:18091  cryptoFromBorrower.balanceOf(msg.sender) */\n      mload(0x40)\n      dup3\n      0xffffffff\n      and\n      0xe0\n      shl\n      dup2\n      mstore\n      0x04\n      add\n      tag_212\n      swap2\n      swap1\n      tag_213\n      jump\t// in\n    tag_212:\n      0x20\n      mload(0x40)\n      dup1\n      dup4\n      sub\n      dup2\n      dup7\n      dup1\n      extcodesize\n      iszero\n      dup1\n      iszero\n      tag_214\n      jumpi\n      0x00\n      dup1\n      revert\n    tag_214:\n      pop\n      gas\n      staticcall\n      iszero\n      dup1\n      iszero\n      tag_216\n      jumpi\n      returndatasize\n      0x00\n      dup1\n      returndatacopy\n      revert(0x00, returndatasize)\n    tag_216:\n      pop\n      pop\n      pop\n      pop\n      mload(0x40)\n      returndatasize\n      not(0x1f)\n      0x1f\n      dup3\n      add\n      and\n      dup3\n      add\n      dup1\n      0x40\n      mstore\n      pop\n      dup2\n      add\n      swap1\n      tag_217\n      swap2\n      swap1\n      tag_218\n      jump\t// in\n    tag_217:\n        /* \"JLoansFactory.sol\":18051:18109  cryptoFromBorrower.balanceOf(msg.sender) >= _depositAmount */\n      lt\n      iszero\n        /* \"JLoansFactory.sol\":18043:18152  require(cryptoFromBorrower.balanceOf(msg.sender) >= _depositAmount, \"Not enough JNT tokens in sender wallet\") */\n      tag_219\n      jumpi\n      mload(0x40)\n      0x08c379a000000000000000000000000000000000000000000000000000000000\n      dup2\n      mstore\n      0x04\n      add\n      tag_220\n      swap1\n      tag_221\n      jump\t// in\n    tag_220:\n      mload(0x40)\n      dup1\n      swap2\n      sub\n      swap1\n      revert\n    tag_219:\n        /* \"JLoansFactory.sol\":18167:18185  cryptoFromBorrower */\n      0x17\n      0x00\n      swap1\n      sload\n      swap1\n      0x0100\n      exp\n      swap1\n      div\n      0xffffffffffffffffffffffffffffffffffffffff\n      and\n        /* \"JLoansFactory.sol\":18167:18198  cryptoFromBorrower.transferFrom */\n      0xffffffffffffffffffffffffffffffffffffffff\n      and\n      0x23b872dd\n        /* \"JLoansFactory.sol\":18199:18209  msg.sender */\n      caller\n        /* \"JLoansFactory.sol\":18219:18223  this */\n      address\n        /* \"JLoansFactory.sol\":18226:18240  _depositAmount */\n      dup5\n        /* \"JLoansFactory.sol\":18167:18241  cryptoFromBorrower.transferFrom(msg.sender, address(this), _depositAmount) */\n      mload(0x40)\n      dup5\n      0xffffffff\n      and\n      0xe0\n      shl\n      dup2\n      mstore\n      0x04\n      add\n      tag_222\n      swap4\n      swap3\n      swap2\n      swap1\n      tag_223\n      jump\t// in\n    tag_222:\n      0x20\n      mload(0x40)\n      dup1\n      dup4\n      sub\n      dup2\n      0x00\n      dup8\n      dup1\n      extcodesize\n      iszero\n      dup1\n      iszero\n      tag_224\n      jumpi\n      0x00\n      dup1\n      revert\n    tag_224:\n      pop\n      gas\n      call\n      iszero\n      dup1\n      iszero\n      tag_226\n      jumpi\n      returndatasize\n      0x00\n      dup1\n      returndatacopy\n      revert(0x00, returndatasize)\n    tag_226:\n      pop\n      pop\n      pop\n      pop\n      mload(0x40)\n      returndatasize\n      not(0x1f)\n      0x1f\n      dup3\n      add\n      and\n      dup3\n      add\n      dup1\n      0x40\n      mstore\n      pop\n      dup2\n      add\n      swap1\n      tag_227\n      swap2\n      swap1\n      tag_228\n      jump\t// in\n    tag_227:\n      pop\n        /* \"JLoansFactory.sol\":18274:18309  borrowerBalance.add(_depositAmount) */\n      tag_229\n        /* \"JLoansFactory.sol\":18294:18308  _depositAmount */\n      dup2\n        /* \"JLoansFactory.sol\":18274:18289  borrowerBalance */\n      sload(0x10)\n        /* \"JLoansFactory.sol\":18274:18293  borrowerBalance.add */\n      tag_230\n      swap1\n        /* \"JLoansFactory.sol\":18274:18309  borrowerBalance.add(_depositAmount) */\n      swap2\n      swap1\n      0xffffffff\n      and\n      jump\t// in\n    tag_229:\n        /* \"JLoansFactory.sol\":18256:18271  borrowerBalance */\n      0x10\n        /* \"JLoansFactory.sol\":18256:18309  borrowerBalance = borrowerBalance.add(_depositAmount) */\n      dup2\n      swap1\n      sstore\n      pop\n        /* \"JLoansFactory.sol\":18343:18355  block.number */\n      number\n        /* \"JLoansFactory.sol\":18324:18340  lastDepositBlock */\n      0x0d\n        /* \"JLoansFactory.sol\":18324:18355  lastDepositBlock = block.number */\n      dup2\n      swap1\n      sstore\n      pop\n        /* \"JLoansFactory.sol\":18375:18401  newDeposit(_depositAmount) */\n      0x3f478372607b68e147b903a0b92f830c8d6468755dc7ac8ac400b95f3d987e4f\n        /* \"JLoansFactory.sol\":18386:18400  _depositAmount */\n      dup2\n        /* \"JLoansFactory.sol\":18375:18401  newDeposit(_depositAmount) */\n      mload(0x40)\n      tag_231\n      swap2\n      swap1\n      tag_51\n      jump\t// in\n    tag_231:\n      mload(0x40)\n      dup1\n      swap2\n      sub\n      swap1\n      log1\n        /* \"JLoansFactory.sol\":17955:18473  if ( address(cryptoFromBorrower) == address(collateralContractAddress) ) {\r... */\n      jump(tag_232)\n    tag_211:\n        /* \"JLoansFactory.sol\":18433:18461  revert(\"Not accepted token\") */\n      mload(0x40)\n      0x08c379a000000000000000000000000000000000000000000000000000000000\n      dup2\n      mstore\n      0x04\n      add\n      tag_233\n      swap1\n      tag_234\n      jump\t// in\n    tag_233:\n      mload(0x40)\n      dup1\n      swap2\n      sub\n      swap1\n      revert\n        /* \"JLoansFactory.sol\":17955:18473  if ( address(cryptoFromBorrower) == address(collateralContractAddress) ) {\r... */\n    tag_232:\n        /* \"JLoansFactory.sol\":17872:18490  function depositCollateral(uint _depositAmount) override public payable {\r... */\n      pop\n      jump\t// out\n        /* \"JLoansFactory.sol\":13772:13898  function setNewParams(params memory _newLoanParams) override public onlyFactory {\r... */\n    tag_130:\n        /* \"JLoansFactory.sol\":13154:13168  factoryAddress */\n      0x12\n      0x00\n      swap1\n      sload\n      swap1\n      0x0100\n      exp\n      swap1\n      div\n      0xffffffffffffffffffffffffffffffffffffffff\n      and\n        /* \"JLoansFactory.sol\":13140:13168  msg.sender == factoryAddress */\n      0xffffffffffffffffffffffffffffffffffffffff\n      and\n        /* \"JLoansFactory.sol\":13140:13150  msg.sender */\n      caller\n        /* \"JLoansFactory.sol\":13140:13168  msg.sender == factoryAddress */\n      0xffffffffffffffffffffffffffffffffffffffff\n      and\n      eq\n        /* \"JLoansFactory.sol\":13132:13192  require(msg.sender == factoryAddress, \"Address not allowed\") */\n      tag_236\n      jumpi\n      mload(0x40)\n      0x08c379a000000000000000000000000000000000000000000000000000000000\n      dup2\n      mstore\n      0x04\n      add\n      tag_237\n      swap1\n      tag_164\n      jump\t// in\n    tag_237:\n      mload(0x40)\n      dup1\n      swap2\n      sub\n      swap1\n      revert\n    tag_236:\n        /* \"JLoansFactory.sol\":13876:13890  _newLoanParams */\n      dup1\n        /* \"JLoansFactory.sol\":13863:13873  loanParams */\n      0x01\n        /* \"JLoansFactory.sol\":13863:13890  loanParams = _newLoanParams */\n      0x00\n      dup3\n      add\n      mload\n      dup2\n      0x00\n      add\n      sstore\n      0x20\n      dup3\n      add\n      mload\n      dup2\n      0x01\n      add\n      sstore\n      0x40\n      dup3\n      add\n      mload\n      dup2\n      0x02\n      add\n      sstore\n      0x60\n      dup3\n      add\n      mload\n      dup2\n      0x03\n      add\n      sstore\n      0x80\n      dup3\n      add\n      mload\n      dup2\n      0x04\n      add\n      sstore\n      0xa0\n      dup3\n      add\n      mload\n      dup2\n      0x05\n      add\n      sstore\n      swap1\n      pop\n      pop\n        /* \"JLoansFactory.sol\":13772:13898  function setNewParams(params memory _newLoanParams) override public onlyFactory {\r... */\n      pop\n      jump\t// out\n        /* \"JLoansFactory.sol\":16657:16686  uint public askedBorrowAmount */\n    tag_133:\n      sload(0x16)\n      dup2\n      jump\t// out\n        /* \"JLoansFactory.sol\":17695:17862  function testToken(address _tkn) override external {\r... */\n    tag_138:\n        /* \"JLoansFactory.sol\":17785:17789  _tkn */\n      dup1\n        /* \"JLoansFactory.sol\":17757:17782  collateralContractAddress */\n      0x13\n      0x00\n        /* \"JLoansFactory.sol\":17757:17789  collateralContractAddress = _tkn */\n      0x0100\n      exp\n      dup2\n      sload\n      dup2\n      0xffffffffffffffffffffffffffffffffffffffff\n      mul\n      not\n      and\n      swap1\n      dup4\n      0xffffffffffffffffffffffffffffffffffffffff\n      and\n      mul\n      or\n      swap1\n      sstore\n      pop\n        /* \"JLoansFactory.sol\":17828:17853  collateralContractAddress */\n      0x13\n      0x00\n      swap1\n      sload\n      swap1\n      0x0100\n      exp\n      swap1\n      div\n      0xffffffffffffffffffffffffffffffffffffffff\n      and\n        /* \"JLoansFactory.sol\":17800:17818  cryptoFromBorrower */\n      0x17\n      0x00\n        /* \"JLoansFactory.sol\":17800:17854  cryptoFromBorrower = IERC20(collateralContractAddress) */\n      0x0100\n      exp\n      dup2\n      sload\n      dup2\n      0xffffffffffffffffffffffffffffffffffffffff\n      mul\n      not\n      and\n      swap1\n      dup4\n      0xffffffffffffffffffffffffffffffffffffffff\n      and\n      mul\n      or\n      swap1\n      sstore\n      pop\n        /* \"JLoansFactory.sol\":17695:17862  function testToken(address _tkn) override external {\r... */\n      pop\n      jump\t// out\n        /* \"JLoansFactory.sol\":12390:12415  uint public lenderBalance */\n    tag_141:\n      sload(0x11)\n      dup2\n      jump\t// out\n        /* \"JLoansFactory.sol\":12144:12166  uint public startPrice */\n    tag_145:\n      sload(0x0a)\n      dup2\n      jump\t// out\n        /* \"JLoansFactory.sol\":8256:8500  function transferOwnership(address newOwner) public virtual onlyOwner {\r... */\n    tag_150:\n        /* \"JLoansFactory.sol\":7533:7545  _msgSender() */\n      tag_241\n        /* \"JLoansFactory.sol\":7533:7543  _msgSender */\n      tag_157\n        /* \"JLoansFactory.sol\":7533:7545  _msgSender() */\n      jump\t// in\n    tag_241:\n        /* \"JLoansFactory.sol\":7523:7545  _owner == _msgSender() */\n      0xffffffffffffffffffffffffffffffffffffffff\n      and\n        /* \"JLoansFactory.sol\":7523:7529  _owner */\n      0x00\n      dup1\n      sload\n      swap1\n      0x0100\n      exp\n      swap1\n      div\n      0xffffffffffffffffffffffffffffffffffffffff\n      and\n        /* \"JLoansFactory.sol\":7523:7545  _owner == _msgSender() */\n      0xffffffffffffffffffffffffffffffffffffffff\n      and\n      eq\n        /* \"JLoansFactory.sol\":7515:7582  require(_owner == _msgSender(), \"Ownable: caller is not the owner\") */\n      tag_242\n      jumpi\n      mload(0x40)\n      0x08c379a000000000000000000000000000000000000000000000000000000000\n      dup2\n      mstore\n      0x04\n      add\n      tag_243\n      swap1\n      tag_160\n      jump\t// in\n    tag_243:\n      mload(0x40)\n      dup1\n      swap2\n      sub\n      swap1\n      revert\n    tag_242:\n        /* \"JLoansFactory.sol\":8365:8366  0 */\n      0x00\n        /* \"JLoansFactory.sol\":8345:8367  newOwner != address(0) */\n      0xffffffffffffffffffffffffffffffffffffffff\n      and\n        /* \"JLoansFactory.sol\":8345:8353  newOwner */\n      dup2\n        /* \"JLoansFactory.sol\":8345:8367  newOwner != address(0) */\n      0xffffffffffffffffffffffffffffffffffffffff\n      and\n      eq\n      iszero\n        /* \"JLoansFactory.sol\":8337:8410  require(newOwner != address(0), \"Ownable: new owner is the zero address\") */\n      tag_245\n      jumpi\n      mload(0x40)\n      0x08c379a000000000000000000000000000000000000000000000000000000000\n      dup2\n      mstore\n      0x04\n      add\n      tag_246\n      swap1\n      tag_247\n      jump\t// in\n    tag_246:\n      mload(0x40)\n      dup1\n      swap2\n      sub\n      swap1\n      revert\n    tag_245:\n        /* \"JLoansFactory.sol\":8455:8463  newOwner */\n      dup1\n        /* \"JLoansFactory.sol\":8426:8464  OwnershipTransferred(_owner, newOwner) */\n      0xffffffffffffffffffffffffffffffffffffffff\n      and\n        /* \"JLoansFactory.sol\":8447:8453  _owner */\n      0x00\n      dup1\n      sload\n      swap1\n      0x0100\n      exp\n      swap1\n      div\n      0xffffffffffffffffffffffffffffffffffffffff\n      and\n        /* \"JLoansFactory.sol\":8426:8464  OwnershipTransferred(_owner, newOwner) */\n      0xffffffffffffffffffffffffffffffffffffffff\n      and\n      0x8be0079c531659141344cd1fd0a4f28419497f9722a3daafe3b4186f6b6457e0\n      mload(0x40)\n      mload(0x40)\n      dup1\n      swap2\n      sub\n      swap1\n      log3\n        /* \"JLoansFactory.sol\":8484:8492  newOwner */\n      dup1\n        /* \"JLoansFactory.sol\":8475:8481  _owner */\n      0x00\n      dup1\n        /* \"JLoansFactory.sol\":8475:8492  _owner = newOwner */\n      0x0100\n      exp\n      dup2\n      sload\n      dup2\n      0xffffffffffffffffffffffffffffffffffffffff\n      mul\n      not\n      and\n      swap1\n      dup4\n      0xffffffffffffffffffffffffffffffffffffffff\n      and\n      mul\n      or\n      swap1\n      sstore\n      pop\n        /* \"JLoansFactory.sol\":8256:8500  function transferOwnership(address newOwner) public virtual onlyOwner {\r... */\n      pop\n      jump\t// out\n        /* \"JLoansFactory.sol\":16501:16541  address public collateralContractAddress */\n    tag_153:\n      0x13\n      0x00\n      swap1\n      sload\n      swap1\n      0x0100\n      exp\n      swap1\n      div\n      0xffffffffffffffffffffffffffffffffffffffff\n      and\n      dup2\n      jump\t// out\n        /* \"JLoansFactory.sol\":5945:6051  function _msgSender() internal view virtual returns (address payable) {\r... */\n    tag_157:\n        /* \"JLoansFactory.sol\":5998:6013  address payable */\n      0x00\n        /* \"JLoansFactory.sol\":6033:6043  msg.sender */\n      caller\n        /* \"JLoansFactory.sol\":6026:6043  return msg.sender */\n      swap1\n      pop\n        /* \"JLoansFactory.sol\":5945:6051  function _msgSender() internal view virtual returns (address payable) {\r... */\n      swap1\n      jump\t// out\n        /* \"JLoansFactory.sol\":938:1119  function add(uint256 a, uint256 b) internal pure returns (uint256) {\r... */\n    tag_230:\n        /* \"JLoansFactory.sol\":996:1003  uint256 */\n      0x00\n        /* \"JLoansFactory.sol\":1016:1025  uint256 c */\n      dup1\n        /* \"JLoansFactory.sol\":1032:1033  b */\n      dup3\n        /* \"JLoansFactory.sol\":1028:1029  a */\n      dup5\n        /* \"JLoansFactory.sol\":1028:1033  a + b */\n      add\n        /* \"JLoansFactory.sol\":1016:1033  uint256 c = a + b */\n      swap1\n      pop\n        /* \"JLoansFactory.sol\":1057:1058  a */\n      dup4\n        /* \"JLoansFactory.sol\":1052:1053  c */\n      dup2\n        /* \"JLoansFactory.sol\":1052:1058  c >= a */\n      lt\n      iszero\n        /* \"JLoansFactory.sol\":1044:1090  require(c >= a, \"SafeMath: addition overflow\") */\n      tag_250\n      jumpi\n      mload(0x40)\n      0x08c379a000000000000000000000000000000000000000000000000000000000\n      dup2\n      mstore\n      0x04\n      add\n      tag_251\n      swap1\n      tag_252\n      jump\t// in\n    tag_251:\n      mload(0x40)\n      dup1\n      swap2\n      sub\n      swap1\n      revert\n    tag_250:\n        /* \"JLoansFactory.sol\":1110:1111  c */\n      dup1\n        /* \"JLoansFactory.sol\":1103:1111  return c */\n      swap2\n      pop\n      pop\n        /* \"JLoansFactory.sol\":938:1119  function add(uint256 a, uint256 b) internal pure returns (uint256) {\r... */\n      swap3\n      swap2\n      pop\n      pop\n      jump\t// out\n        /* \"--CODEGEN--\":5:135   */\n    tag_254:\n      0x00\n        /* \"--CODEGEN--\":85:91   */\n      dup2\n        /* \"--CODEGEN--\":72:92   */\n      calldataload\n        /* \"--CODEGEN--\":63:92   */\n      swap1\n      pop\n        /* \"--CODEGEN--\":97:130   */\n      tag_256\n        /* \"--CODEGEN--\":124:129   */\n      dup2\n        /* \"--CODEGEN--\":97:130   */\n      tag_257\n      jump\t// in\n    tag_256:\n        /* \"--CODEGEN--\":57:135   */\n      swap3\n      swap2\n      pop\n      pop\n      jump\t// out\n        /* \"--CODEGEN--\":142:270   */\n    tag_258:\n      0x00\n        /* \"--CODEGEN--\":223:229   */\n      dup2\n        /* \"--CODEGEN--\":217:230   */\n      mload\n        /* \"--CODEGEN--\":208:230   */\n      swap1\n      pop\n        /* \"--CODEGEN--\":235:265   */\n      tag_260\n        /* \"--CODEGEN--\":259:264   */\n      dup2\n        /* \"--CODEGEN--\":235:265   */\n      tag_261\n      jump\t// in\n    tag_260:\n        /* \"--CODEGEN--\":202:270   */\n      swap3\n      swap2\n      pop\n      pop\n      jump\t// out\n        /* \"--CODEGEN--\":311:1435   */\n    tag_262:\n      0x00\n        /* \"--CODEGEN--\":423:427   */\n      0xc0\n        /* \"--CODEGEN--\":411:420   */\n      dup3\n        /* \"--CODEGEN--\":406:409   */\n      dup5\n        /* \"--CODEGEN--\":402:421   */\n      sub\n        /* \"--CODEGEN--\":398:428   */\n      slt\n        /* \"--CODEGEN--\":395:397   */\n      iszero\n      tag_264\n      jumpi\n        /* \"--CODEGEN--\":441:442   */\n      0x00\n        /* \"--CODEGEN--\":438:439   */\n      dup1\n        /* \"--CODEGEN--\":431:443   */\n      revert\n        /* \"--CODEGEN--\":395:397   */\n    tag_264:\n        /* \"--CODEGEN--\":459:479   */\n      tag_265\n        /* \"--CODEGEN--\":474:478   */\n      0xc0\n        /* \"--CODEGEN--\":459:479   */\n      tag_266\n      jump\t// in\n    tag_265:\n        /* \"--CODEGEN--\":450:479   */\n      swap1\n      pop\n        /* \"--CODEGEN--\":535:536   */\n      0x00\n        /* \"--CODEGEN--\":567:616   */\n      tag_267\n        /* \"--CODEGEN--\":612:615   */\n      dup5\n        /* \"--CODEGEN--\":603:609   */\n      dup3\n        /* \"--CODEGEN--\":592:601   */\n      dup6\n        /* \"--CODEGEN--\":588:610   */\n      add\n        /* \"--CODEGEN--\":567:616   */\n      tag_268\n      jump\t// in\n    tag_267:\n        /* \"--CODEGEN--\":560:564   */\n      0x00\n        /* \"--CODEGEN--\":553:558   */\n      dup4\n        /* \"--CODEGEN--\":549:565   */\n      add\n        /* \"--CODEGEN--\":542:617   */\n      mstore\n        /* \"--CODEGEN--\":489:628   */\n      pop\n        /* \"--CODEGEN--\":695:697   */\n      0x20\n        /* \"--CODEGEN--\":728:777   */\n      tag_269\n        /* \"--CODEGEN--\":773:776   */\n      dup5\n        /* \"--CODEGEN--\":764:770   */\n      dup3\n        /* \"--CODEGEN--\":753:762   */\n      dup6\n        /* \"--CODEGEN--\":749:771   */\n      add\n        /* \"--CODEGEN--\":728:777   */\n      tag_268\n      jump\t// in\n    tag_269:\n        /* \"--CODEGEN--\":721:725   */\n      0x20\n        /* \"--CODEGEN--\":714:719   */\n      dup4\n        /* \"--CODEGEN--\":710:726   */\n      add\n        /* \"--CODEGEN--\":703:778   */\n      mstore\n        /* \"--CODEGEN--\":638:789   */\n      pop\n        /* \"--CODEGEN--\":852:854   */\n      0x40\n        /* \"--CODEGEN--\":885:934   */\n      tag_270\n        /* \"--CODEGEN--\":930:933   */\n      dup5\n        /* \"--CODEGEN--\":921:927   */\n      dup3\n        /* \"--CODEGEN--\":910:919   */\n      dup6\n        /* \"--CODEGEN--\":906:928   */\n      add\n        /* \"--CODEGEN--\":885:934   */\n      tag_268\n      jump\t// in\n    tag_270:\n        /* \"--CODEGEN--\":878:882   */\n      0x40\n        /* \"--CODEGEN--\":871:876   */\n      dup4\n        /* \"--CODEGEN--\":867:883   */\n      add\n        /* \"--CODEGEN--\":860:935   */\n      mstore\n        /* \"--CODEGEN--\":799:946   */\n      pop\n        /* \"--CODEGEN--\":1008:1010   */\n      0x60\n        /* \"--CODEGEN--\":1041:1090   */\n      tag_271\n        /* \"--CODEGEN--\":1086:1089   */\n      dup5\n        /* \"--CODEGEN--\":1077:1083   */\n      dup3\n        /* \"--CODEGEN--\":1066:1075   */\n      dup6\n        /* \"--CODEGEN--\":1062:1084   */\n      add\n        /* \"--CODEGEN--\":1041:1090   */\n      tag_268\n      jump\t// in\n    tag_271:\n        /* \"--CODEGEN--\":1034:1038   */\n      0x60\n        /* \"--CODEGEN--\":1027:1032   */\n      dup4\n        /* \"--CODEGEN--\":1023:1039   */\n      add\n        /* \"--CODEGEN--\":1016:1091   */\n      mstore\n        /* \"--CODEGEN--\":956:1102   */\n      pop\n        /* \"--CODEGEN--\":1171:1174   */\n      0x80\n        /* \"--CODEGEN--\":1205:1254   */\n      tag_272\n        /* \"--CODEGEN--\":1250:1253   */\n      dup5\n        /* \"--CODEGEN--\":1241:1247   */\n      dup3\n        /* \"--CODEGEN--\":1230:1239   */\n      dup6\n        /* \"--CODEGEN--\":1226:1248   */\n      add\n        /* \"--CODEGEN--\":1205:1254   */\n      tag_268\n      jump\t// in\n    tag_272:\n        /* \"--CODEGEN--\":1198:1202   */\n      0x80\n        /* \"--CODEGEN--\":1191:1196   */\n      dup4\n        /* \"--CODEGEN--\":1187:1203   */\n      add\n        /* \"--CODEGEN--\":1180:1255   */\n      mstore\n        /* \"--CODEGEN--\":1112:1266   */\n      pop\n        /* \"--CODEGEN--\":1330:1333   */\n      0xa0\n        /* \"--CODEGEN--\":1364:1413   */\n      tag_273\n        /* \"--CODEGEN--\":1409:1412   */\n      dup5\n        /* \"--CODEGEN--\":1400:1406   */\n      dup3\n        /* \"--CODEGEN--\":1389:1398   */\n      dup6\n        /* \"--CODEGEN--\":1385:1407   */\n      add\n        /* \"--CODEGEN--\":1364:1413   */\n      tag_268\n      jump\t// in\n    tag_273:\n        /* \"--CODEGEN--\":1357:1361   */\n      0xa0\n        /* \"--CODEGEN--\":1350:1355   */\n      dup4\n        /* \"--CODEGEN--\":1346:1362   */\n      add\n        /* \"--CODEGEN--\":1339:1414   */\n      mstore\n        /* \"--CODEGEN--\":1276:1425   */\n      pop\n        /* \"--CODEGEN--\":389:1435   */\n      swap3\n      swap2\n      pop\n      pop\n      jump\t// out\n        /* \"--CODEGEN--\":1442:1572   */\n    tag_268:\n      0x00\n        /* \"--CODEGEN--\":1522:1528   */\n      dup2\n        /* \"--CODEGEN--\":1509:1529   */\n      calldataload\n        /* \"--CODEGEN--\":1500:1529   */\n      swap1\n      pop\n        /* \"--CODEGEN--\":1534:1567   */\n      tag_275\n        /* \"--CODEGEN--\":1561:1566   */\n      dup2\n        /* \"--CODEGEN--\":1534:1567   */\n      tag_276\n      jump\t// in\n    tag_275:\n        /* \"--CODEGEN--\":1494:1572   */\n      swap3\n      swap2\n      pop\n      pop\n      jump\t// out\n        /* \"--CODEGEN--\":1579:1713   */\n    tag_277:\n      0x00\n        /* \"--CODEGEN--\":1663:1669   */\n      dup2\n        /* \"--CODEGEN--\":1657:1670   */\n      mload\n        /* \"--CODEGEN--\":1648:1670   */\n      swap1\n      pop\n        /* \"--CODEGEN--\":1675:1708   */\n      tag_279\n        /* \"--CODEGEN--\":1702:1707   */\n      dup2\n        /* \"--CODEGEN--\":1675:1708   */\n      tag_276\n      jump\t// in\n    tag_279:\n        /* \"--CODEGEN--\":1642:1713   */\n      swap3\n      swap2\n      pop\n      pop\n      jump\t// out\n        /* \"--CODEGEN--\":1720:1961   */\n    tag_81:\n      0x00\n        /* \"--CODEGEN--\":1824:1826   */\n      0x20\n        /* \"--CODEGEN--\":1812:1821   */\n      dup3\n        /* \"--CODEGEN--\":1803:1810   */\n      dup5\n        /* \"--CODEGEN--\":1799:1822   */\n      sub\n        /* \"--CODEGEN--\":1795:1827   */\n      slt\n        /* \"--CODEGEN--\":1792:1794   */\n      iszero\n      tag_281\n      jumpi\n        /* \"--CODEGEN--\":1840:1841   */\n      0x00\n        /* \"--CODEGEN--\":1837:1838   */\n      dup1\n        /* \"--CODEGEN--\":1830:1842   */\n      revert\n        /* \"--CODEGEN--\":1792:1794   */\n    tag_281:\n        /* \"--CODEGEN--\":1875:1876   */\n      0x00\n        /* \"--CODEGEN--\":1892:1945   */\n      tag_282\n        /* \"--CODEGEN--\":1937:1944   */\n      dup5\n        /* \"--CODEGEN--\":1928:1934   */\n      dup3\n        /* \"--CODEGEN--\":1917:1926   */\n      dup6\n        /* \"--CODEGEN--\":1913:1935   */\n      add\n        /* \"--CODEGEN--\":1892:1945   */\n      tag_254\n      jump\t// in\n    tag_282:\n        /* \"--CODEGEN--\":1882:1945   */\n      swap2\n      pop\n        /* \"--CODEGEN--\":1854:1951   */\n      pop\n        /* \"--CODEGEN--\":1786:1961   */\n      swap3\n      swap2\n      pop\n      pop\n      jump\t// out\n        /* \"--CODEGEN--\":1968:2225   */\n    tag_228:\n      0x00\n        /* \"--CODEGEN--\":2080:2082   */\n      0x20\n        /* \"--CODEGEN--\":2068:2077   */\n      dup3\n        /* \"--CODEGEN--\":2059:2066   */\n      dup5\n        /* \"--CODEGEN--\":2055:2078   */\n      sub\n        /* \"--CODEGEN--\":2051:2083   */\n      slt\n        /* \"--CODEGEN--\":2048:2050   */\n      iszero\n      tag_284\n      jumpi\n        /* \"--CODEGEN--\":2096:2097   */\n      0x00\n        /* \"--CODEGEN--\":2093:2094   */\n      dup1\n        /* \"--CODEGEN--\":2086:2098   */\n      revert\n        /* \"--CODEGEN--\":2048:2050   */\n    tag_284:\n        /* \"--CODEGEN--\":2131:2132   */\n      0x00\n        /* \"--CODEGEN--\":2148:2209   */\n      tag_285\n        /* \"--CODEGEN--\":2201:2208   */\n      dup5\n        /* \"--CODEGEN--\":2192:2198   */\n      dup3\n        /* \"--CODEGEN--\":2181:2190   */\n      dup6\n        /* \"--CODEGEN--\":2177:2199   */\n      add\n        /* \"--CODEGEN--\":2148:2209   */\n      tag_258\n      jump\t// in\n    tag_285:\n        /* \"--CODEGEN--\":2138:2209   */\n      swap2\n      pop\n        /* \"--CODEGEN--\":2110:2215   */\n      pop\n        /* \"--CODEGEN--\":2042:2225   */\n      swap3\n      swap2\n      pop\n      pop\n      jump\t// out\n        /* \"--CODEGEN--\":2232:2520   */\n    tag_129:\n      0x00\n        /* \"--CODEGEN--\":2359:2362   */\n      0xc0\n        /* \"--CODEGEN--\":2347:2356   */\n      dup3\n        /* \"--CODEGEN--\":2338:2345   */\n      dup5\n        /* \"--CODEGEN--\":2334:2357   */\n      sub\n        /* \"--CODEGEN--\":2330:2363   */\n      slt\n        /* \"--CODEGEN--\":2327:2329   */\n      iszero\n      tag_287\n      jumpi\n        /* \"--CODEGEN--\":2376:2377   */\n      0x00\n        /* \"--CODEGEN--\":2373:2374   */\n      dup1\n        /* \"--CODEGEN--\":2366:2378   */\n      revert\n        /* \"--CODEGEN--\":2327:2329   */\n    tag_287:\n        /* \"--CODEGEN--\":2411:2412   */\n      0x00\n        /* \"--CODEGEN--\":2428:2504   */\n      tag_288\n        /* \"--CODEGEN--\":2496:2503   */\n      dup5\n        /* \"--CODEGEN--\":2487:2493   */\n      dup3\n        /* \"--CODEGEN--\":2476:2485   */\n      dup6\n        /* \"--CODEGEN--\":2472:2494   */\n      add\n        /* \"--CODEGEN--\":2428:2504   */\n      tag_262\n      jump\t// in\n    tag_288:\n        /* \"--CODEGEN--\":2418:2504   */\n      swap2\n      pop\n        /* \"--CODEGEN--\":2390:2510   */\n      pop\n        /* \"--CODEGEN--\":2321:2520   */\n      swap3\n      swap2\n      pop\n      pop\n      jump\t// out\n        /* \"--CODEGEN--\":2527:2768   */\n    tag_95:\n      0x00\n        /* \"--CODEGEN--\":2631:2633   */\n      0x20\n        /* \"--CODEGEN--\":2619:2628   */\n      dup3\n        /* \"--CODEGEN--\":2610:2617   */\n      dup5\n        /* \"--CODEGEN--\":2606:2629   */\n      sub\n        /* \"--CODEGEN--\":2602:2634   */\n      slt\n        /* \"--CODEGEN--\":2599:2601   */\n      iszero\n      tag_290\n      jumpi\n        /* \"--CODEGEN--\":2647:2648   */\n      0x00\n        /* \"--CODEGEN--\":2644:2645   */\n      dup1\n        /* \"--CODEGEN--\":2637:2649   */\n      revert\n        /* \"--CODEGEN--\":2599:2601   */\n    tag_290:\n        /* \"--CODEGEN--\":2682:2683   */\n      0x00\n        /* \"--CODEGEN--\":2699:2752   */\n      tag_291\n        /* \"--CODEGEN--\":2744:2751   */\n      dup5\n        /* \"--CODEGEN--\":2735:2741   */\n      dup3\n        /* \"--CODEGEN--\":2724:2733   */\n      dup6\n        /* \"--CODEGEN--\":2720:2742   */\n      add\n        /* \"--CODEGEN--\":2699:2752   */\n      tag_268\n      jump\t// in\n    tag_291:\n        /* \"--CODEGEN--\":2689:2752   */\n      swap2\n      pop\n        /* \"--CODEGEN--\":2661:2758   */\n      pop\n        /* \"--CODEGEN--\":2593:2768   */\n      swap3\n      swap2\n      pop\n      pop\n      jump\t// out\n        /* \"--CODEGEN--\":2775:3038   */\n    tag_218:\n      0x00\n        /* \"--CODEGEN--\":2890:2892   */\n      0x20\n        /* \"--CODEGEN--\":2878:2887   */\n      dup3\n        /* \"--CODEGEN--\":2869:2876   */\n      dup5\n        /* \"--CODEGEN--\":2865:2888   */\n      sub\n        /* \"--CODEGEN--\":2861:2893   */\n      slt\n        /* \"--CODEGEN--\":2858:2860   */\n      iszero\n      tag_293\n      jumpi\n        /* \"--CODEGEN--\":2906:2907   */\n      0x00\n        /* \"--CODEGEN--\":2903:2904   */\n      dup1\n        /* \"--CODEGEN--\":2896:2908   */\n      revert\n        /* \"--CODEGEN--\":2858:2860   */\n    tag_293:\n        /* \"--CODEGEN--\":2941:2942   */\n      0x00\n        /* \"--CODEGEN--\":2958:3022   */\n      tag_294\n        /* \"--CODEGEN--\":3014:3021   */\n      dup5\n        /* \"--CODEGEN--\":3005:3011   */\n      dup3\n        /* \"--CODEGEN--\":2994:3003   */\n      dup6\n        /* \"--CODEGEN--\":2990:3012   */\n      add\n        /* \"--CODEGEN--\":2958:3022   */\n      tag_277\n      jump\t// in\n    tag_294:\n        /* \"--CODEGEN--\":2948:3022   */\n      swap2\n      pop\n        /* \"--CODEGEN--\":2920:3028   */\n      pop\n        /* \"--CODEGEN--\":2852:3038   */\n      swap3\n      swap2\n      pop\n      pop\n      jump\t// out\n        /* \"--CODEGEN--\":3045:3187   */\n    tag_295:\n        /* \"--CODEGEN--\":3136:3181   */\n      tag_297\n        /* \"--CODEGEN--\":3175:3180   */\n      dup2\n        /* \"--CODEGEN--\":3136:3181   */\n      tag_298\n      jump\t// in\n    tag_297:\n        /* \"--CODEGEN--\":3131:3134   */\n      dup3\n        /* \"--CODEGEN--\":3124:3182   */\n      mstore\n        /* \"--CODEGEN--\":3118:3187   */\n      pop\n      pop\n      jump\t// out\n        /* \"--CODEGEN--\":3194:3307   */\n    tag_299:\n        /* \"--CODEGEN--\":3277:3301   */\n      tag_301\n        /* \"--CODEGEN--\":3295:3300   */\n      dup2\n        /* \"--CODEGEN--\":3277:3301   */\n      tag_302\n      jump\t// in\n    tag_301:\n        /* \"--CODEGEN--\":3272:3275   */\n      dup3\n        /* \"--CODEGEN--\":3265:3302   */\n      mstore\n        /* \"--CODEGEN--\":3259:3307   */\n      pop\n      pop\n      jump\t// out\n        /* \"--CODEGEN--\":3314:3468   */\n    tag_303:\n        /* \"--CODEGEN--\":3411:3462   */\n      tag_305\n        /* \"--CODEGEN--\":3456:3461   */\n      dup2\n        /* \"--CODEGEN--\":3411:3462   */\n      tag_306\n      jump\t// in\n    tag_305:\n        /* \"--CODEGEN--\":3406:3409   */\n      dup3\n        /* \"--CODEGEN--\":3399:3463   */\n      mstore\n        /* \"--CODEGEN--\":3393:3468   */\n      pop\n      pop\n      jump\t// out\n        /* \"--CODEGEN--\":3475:3617   */\n    tag_307:\n        /* \"--CODEGEN--\":3566:3611   */\n      tag_309\n        /* \"--CODEGEN--\":3605:3610   */\n      dup2\n        /* \"--CODEGEN--\":3566:3611   */\n      tag_310\n      jump\t// in\n    tag_309:\n        /* \"--CODEGEN--\":3561:3564   */\n      dup3\n        /* \"--CODEGEN--\":3554:3612   */\n      mstore\n        /* \"--CODEGEN--\":3548:3617   */\n      pop\n      pop\n      jump\t// out\n        /* \"--CODEGEN--\":3624:3971   */\n    tag_311:\n      0x00\n        /* \"--CODEGEN--\":3736:3775   */\n      tag_313\n        /* \"--CODEGEN--\":3769:3774   */\n      dup3\n        /* \"--CODEGEN--\":3736:3775   */\n      tag_314\n      jump\t// in\n    tag_313:\n        /* \"--CODEGEN--\":3787:3858   */\n      tag_315\n        /* \"--CODEGEN--\":3851:3857   */\n      dup2\n        /* \"--CODEGEN--\":3846:3849   */\n      dup6\n        /* \"--CODEGEN--\":3787:3858   */\n      tag_316\n      jump\t// in\n    tag_315:\n        /* \"--CODEGEN--\":3780:3858   */\n      swap4\n      pop\n        /* \"--CODEGEN--\":3863:3915   */\n      tag_317\n        /* \"--CODEGEN--\":3908:3914   */\n      dup2\n        /* \"--CODEGEN--\":3903:3906   */\n      dup6\n        /* \"--CODEGEN--\":3896:3900   */\n      0x20\n        /* \"--CODEGEN--\":3889:3894   */\n      dup7\n        /* \"--CODEGEN--\":3885:3901   */\n      add\n        /* \"--CODEGEN--\":3863:3915   */\n      tag_318\n      jump\t// in\n    tag_317:\n        /* \"--CODEGEN--\":3936:3965   */\n      tag_319\n        /* \"--CODEGEN--\":3958:3964   */\n      dup2\n        /* \"--CODEGEN--\":3936:3965   */\n      tag_320\n      jump\t// in\n    tag_319:\n        /* \"--CODEGEN--\":3931:3934   */\n      dup5\n        /* \"--CODEGEN--\":3927:3966   */\n      add\n        /* \"--CODEGEN--\":3920:3966   */\n      swap2\n      pop\n        /* \"--CODEGEN--\":3716:3971   */\n      pop\n      swap3\n      swap2\n      pop\n      pop\n      jump\t// out\n        /* \"--CODEGEN--\":3979:4354   */\n    tag_321:\n      0x00\n        /* \"--CODEGEN--\":4139:4206   */\n      tag_323\n        /* \"--CODEGEN--\":4203:4205   */\n      0x26\n        /* \"--CODEGEN--\":4198:4201   */\n      dup4\n        /* \"--CODEGEN--\":4139:4206   */\n      tag_316\n      jump\t// in\n    tag_323:\n        /* \"--CODEGEN--\":4132:4206   */\n      swap2\n      pop\n        /* \"--CODEGEN--\":4239:4273   */\n      0x4f776e61626c653a206e6577206f776e657220697320746865207a65726f2061\n        /* \"--CODEGEN--\":4235:4236   */\n      0x00\n        /* \"--CODEGEN--\":4230:4233   */\n      dup4\n        /* \"--CODEGEN--\":4226:4237   */\n      add\n        /* \"--CODEGEN--\":4219:4274   */\n      mstore\n        /* \"--CODEGEN--\":4308:4316   */\n      0x6464726573730000000000000000000000000000000000000000000000000000\n        /* \"--CODEGEN--\":4303:4305   */\n      0x20\n        /* \"--CODEGEN--\":4298:4301   */\n      dup4\n        /* \"--CODEGEN--\":4294:4306   */\n      add\n        /* \"--CODEGEN--\":4287:4317   */\n      mstore\n        /* \"--CODEGEN--\":4345:4347   */\n      0x40\n        /* \"--CODEGEN--\":4340:4343   */\n      dup3\n        /* \"--CODEGEN--\":4336:4348   */\n      add\n        /* \"--CODEGEN--\":4329:4348   */\n      swap1\n      pop\n        /* \"--CODEGEN--\":4125:4354   */\n      swap2\n      swap1\n      pop\n      jump\t// out\n        /* \"--CODEGEN--\":4363:4690   */\n    tag_324:\n      0x00\n        /* \"--CODEGEN--\":4523:4590   */\n      tag_326\n        /* \"--CODEGEN--\":4587:4589   */\n      0x1b\n        /* \"--CODEGEN--\":4582:4585   */\n      dup4\n        /* \"--CODEGEN--\":4523:4590   */\n      tag_316\n      jump\t// in\n    tag_326:\n        /* \"--CODEGEN--\":4516:4590   */\n      swap2\n      pop\n        /* \"--CODEGEN--\":4623:4652   */\n      0x536166654d6174683a206164646974696f6e206f766572666c6f770000000000\n        /* \"--CODEGEN--\":4619:4620   */\n      0x00\n        /* \"--CODEGEN--\":4614:4617   */\n      dup4\n        /* \"--CODEGEN--\":4610:4621   */\n      add\n        /* \"--CODEGEN--\":4603:4653   */\n      mstore\n        /* \"--CODEGEN--\":4681:4683   */\n      0x20\n        /* \"--CODEGEN--\":4676:4679   */\n      dup3\n        /* \"--CODEGEN--\":4672:4684   */\n      add\n        /* \"--CODEGEN--\":4665:4684   */\n      swap1\n      pop\n        /* \"--CODEGEN--\":4509:4690   */\n      swap2\n      swap1\n      pop\n      jump\t// out\n        /* \"--CODEGEN--\":4699:5017   */\n    tag_327:\n      0x00\n        /* \"--CODEGEN--\":4859:4926   */\n      tag_329\n        /* \"--CODEGEN--\":4923:4925   */\n      0x12\n        /* \"--CODEGEN--\":4918:4921   */\n      dup4\n        /* \"--CODEGEN--\":4859:4926   */\n      tag_316\n      jump\t// in\n    tag_329:\n        /* \"--CODEGEN--\":4852:4926   */\n      swap2\n      pop\n        /* \"--CODEGEN--\":4959:4979   */\n      0x4e6f7420616363657074656420746f6b656e0000000000000000000000000000\n        /* \"--CODEGEN--\":4955:4956   */\n      0x00\n        /* \"--CODEGEN--\":4950:4953   */\n      dup4\n        /* \"--CODEGEN--\":4946:4957   */\n      add\n        /* \"--CODEGEN--\":4939:4980   */\n      mstore\n        /* \"--CODEGEN--\":5008:5010   */\n      0x20\n        /* \"--CODEGEN--\":5003:5006   */\n      dup3\n        /* \"--CODEGEN--\":4999:5011   */\n      add\n        /* \"--CODEGEN--\":4992:5011   */\n      swap1\n      pop\n        /* \"--CODEGEN--\":4845:5017   */\n      swap2\n      swap1\n      pop\n      jump\t// out\n        /* \"--CODEGEN--\":5026:5345   */\n    tag_330:\n      0x00\n        /* \"--CODEGEN--\":5186:5253   */\n      tag_332\n        /* \"--CODEGEN--\":5250:5252   */\n      0x13\n        /* \"--CODEGEN--\":5245:5248   */\n      dup4\n        /* \"--CODEGEN--\":5186:5253   */\n      tag_316\n      jump\t// in\n    tag_332:\n        /* \"--CODEGEN--\":5179:5253   */\n      swap2\n      pop\n        /* \"--CODEGEN--\":5286:5307   */\n      0x41646472657373206e6f7420616c6c6f77656400000000000000000000000000\n        /* \"--CODEGEN--\":5282:5283   */\n      0x00\n        /* \"--CODEGEN--\":5277:5280   */\n      dup4\n        /* \"--CODEGEN--\":5273:5284   */\n      add\n        /* \"--CODEGEN--\":5266:5308   */\n      mstore\n        /* \"--CODEGEN--\":5336:5338   */\n      0x20\n        /* \"--CODEGEN--\":5331:5334   */\n      dup3\n        /* \"--CODEGEN--\":5327:5339   */\n      add\n        /* \"--CODEGEN--\":5320:5339   */\n      swap1\n      pop\n        /* \"--CODEGEN--\":5172:5345   */\n      swap2\n      swap1\n      pop\n      jump\t// out\n        /* \"--CODEGEN--\":5354:5742   */\n    tag_333:\n      0x00\n        /* \"--CODEGEN--\":5514:5581   */\n      tag_335\n        /* \"--CODEGEN--\":5578:5580   */\n      0x33\n        /* \"--CODEGEN--\":5573:5576   */\n      dup4\n        /* \"--CODEGEN--\":5514:5581   */\n      tag_316\n      jump\t// in\n    tag_335:\n        /* \"--CODEGEN--\":5507:5581   */\n      swap2\n      pop\n        /* \"--CODEGEN--\":5614:5648   */\n      0x4c6f616e20737461747573206e6f7420636f6d70617469626c65207769746820\n        /* \"--CODEGEN--\":5610:5611   */\n      0x00\n        /* \"--CODEGEN--\":5605:5608   */\n      dup4\n        /* \"--CODEGEN--\":5601:5612   */\n      add\n        /* \"--CODEGEN--\":5594:5649   */\n      mstore\n        /* \"--CODEGEN--\":5683:5704   */\n      0x666f7265636c6f73696e6720616374696f6e7300000000000000000000000000\n        /* \"--CODEGEN--\":5678:5680   */\n      0x20\n        /* \"--CODEGEN--\":5673:5676   */\n      dup4\n        /* \"--CODEGEN--\":5669:5681   */\n      add\n        /* \"--CODEGEN--\":5662:5705   */\n      mstore\n        /* \"--CODEGEN--\":5733:5735   */\n      0x40\n        /* \"--CODEGEN--\":5728:5731   */\n      dup3\n        /* \"--CODEGEN--\":5724:5736   */\n      add\n        /* \"--CODEGEN--\":5717:5736   */\n      swap1\n      pop\n        /* \"--CODEGEN--\":5500:5742   */\n      swap2\n      swap1\n      pop\n      jump\t// out\n        /* \"--CODEGEN--\":5751:6070   */\n    tag_336:\n      0x00\n        /* \"--CODEGEN--\":5911:5978   */\n      tag_338\n        /* \"--CODEGEN--\":5975:5977   */\n      0x13\n        /* \"--CODEGEN--\":5970:5973   */\n      dup4\n        /* \"--CODEGEN--\":5911:5978   */\n      tag_316\n      jump\t// in\n    tag_338:\n        /* \"--CODEGEN--\":5904:5978   */\n      swap2\n      pop\n        /* \"--CODEGEN--\":6011:6032   */\n      0x4e6577207374617465206e6f742076616c696400000000000000000000000000\n        /* \"--CODEGEN--\":6007:6008   */\n      0x00\n        /* \"--CODEGEN--\":6002:6005   */\n      dup4\n        /* \"--CODEGEN--\":5998:6009   */\n      add\n        /* \"--CODEGEN--\":5991:6033   */\n      mstore\n        /* \"--CODEGEN--\":6061:6063   */\n      0x20\n        /* \"--CODEGEN--\":6056:6059   */\n      dup3\n        /* \"--CODEGEN--\":6052:6064   */\n      add\n        /* \"--CODEGEN--\":6045:6064   */\n      swap1\n      pop\n        /* \"--CODEGEN--\":5897:6070   */\n      swap2\n      swap1\n      pop\n      jump\t// out\n        /* \"--CODEGEN--\":6079:6411   */\n    tag_339:\n      0x00\n        /* \"--CODEGEN--\":6239:6306   */\n      tag_341\n        /* \"--CODEGEN--\":6303:6305   */\n      0x20\n        /* \"--CODEGEN--\":6298:6301   */\n      dup4\n        /* \"--CODEGEN--\":6239:6306   */\n      tag_316\n      jump\t// in\n    tag_341:\n        /* \"--CODEGEN--\":6232:6306   */\n      swap2\n      pop\n        /* \"--CODEGEN--\":6339:6373   */\n      0x4f776e61626c653a2063616c6c6572206973206e6f7420746865206f776e6572\n        /* \"--CODEGEN--\":6335:6336   */\n      0x00\n        /* \"--CODEGEN--\":6330:6333   */\n      dup4\n        /* \"--CODEGEN--\":6326:6337   */\n      add\n        /* \"--CODEGEN--\":6319:6374   */\n      mstore\n        /* \"--CODEGEN--\":6402:6404   */\n      0x20\n        /* \"--CODEGEN--\":6397:6400   */\n      dup3\n        /* \"--CODEGEN--\":6393:6405   */\n      add\n        /* \"--CODEGEN--\":6386:6405   */\n      swap1\n      pop\n        /* \"--CODEGEN--\":6225:6411   */\n      swap2\n      swap1\n      pop\n      jump\t// out\n        /* \"--CODEGEN--\":6420:6795   */\n    tag_342:\n      0x00\n        /* \"--CODEGEN--\":6580:6647   */\n      tag_344\n        /* \"--CODEGEN--\":6644:6646   */\n      0x26\n        /* \"--CODEGEN--\":6639:6642   */\n      dup4\n        /* \"--CODEGEN--\":6580:6647   */\n      tag_316\n      jump\t// in\n    tag_344:\n        /* \"--CODEGEN--\":6573:6647   */\n      swap2\n      pop\n        /* \"--CODEGEN--\":6680:6714   */\n      0x4e6f7420656e6f756768204a4e5420746f6b656e7320696e2073656e64657220\n        /* \"--CODEGEN--\":6676:6677   */\n      0x00\n        /* \"--CODEGEN--\":6671:6674   */\n      dup4\n        /* \"--CODEGEN--\":6667:6678   */\n      add\n        /* \"--CODEGEN--\":6660:6715   */\n      mstore\n        /* \"--CODEGEN--\":6749:6757   */\n      0x77616c6c65740000000000000000000000000000000000000000000000000000\n        /* \"--CODEGEN--\":6744:6746   */\n      0x20\n        /* \"--CODEGEN--\":6739:6742   */\n      dup4\n        /* \"--CODEGEN--\":6735:6747   */\n      add\n        /* \"--CODEGEN--\":6728:6758   */\n      mstore\n        /* \"--CODEGEN--\":6786:6788   */\n      0x40\n        /* \"--CODEGEN--\":6781:6784   */\n      dup3\n        /* \"--CODEGEN--\":6777:6789   */\n      add\n        /* \"--CODEGEN--\":6770:6789   */\n      swap1\n      pop\n        /* \"--CODEGEN--\":6566:6795   */\n      swap2\n      swap1\n      pop\n      jump\t// out\n        /* \"--CODEGEN--\":6804:7180   */\n    tag_345:\n      0x00\n        /* \"--CODEGEN--\":6964:7031   */\n      tag_347\n        /* \"--CODEGEN--\":7028:7030   */\n      0x27\n        /* \"--CODEGEN--\":7023:7026   */\n      dup4\n        /* \"--CODEGEN--\":6964:7031   */\n      tag_316\n      jump\t// in\n    tag_347:\n        /* \"--CODEGEN--\":6957:7031   */\n      swap2\n      pop\n        /* \"--CODEGEN--\":7064:7098   */\n      0x4e657720737461747573206973207468652073616d65206c696b652070726573\n        /* \"--CODEGEN--\":7060:7061   */\n      0x00\n        /* \"--CODEGEN--\":7055:7058   */\n      dup4\n        /* \"--CODEGEN--\":7051:7062   */\n      add\n        /* \"--CODEGEN--\":7044:7099   */\n      mstore\n        /* \"--CODEGEN--\":7133:7142   */\n      0x656e74206f6e6500000000000000000000000000000000000000000000000000\n        /* \"--CODEGEN--\":7128:7130   */\n      0x20\n        /* \"--CODEGEN--\":7123:7126   */\n      dup4\n        /* \"--CODEGEN--\":7119:7131   */\n      add\n        /* \"--CODEGEN--\":7112:7143   */\n      mstore\n        /* \"--CODEGEN--\":7171:7173   */\n      0x40\n        /* \"--CODEGEN--\":7166:7169   */\n      dup3\n        /* \"--CODEGEN--\":7162:7174   */\n      add\n        /* \"--CODEGEN--\":7155:7174   */\n      swap1\n      pop\n        /* \"--CODEGEN--\":6950:7180   */\n      swap2\n      swap1\n      pop\n      jump\t// out\n        /* \"--CODEGEN--\":7188:7301   */\n    tag_348:\n        /* \"--CODEGEN--\":7271:7295   */\n      tag_350\n        /* \"--CODEGEN--\":7289:7294   */\n      dup2\n        /* \"--CODEGEN--\":7271:7295   */\n      tag_351\n      jump\t// in\n    tag_350:\n        /* \"--CODEGEN--\":7266:7269   */\n      dup3\n        /* \"--CODEGEN--\":7259:7296   */\n      mstore\n        /* \"--CODEGEN--\":7253:7301   */\n      pop\n      pop\n      jump\t// out\n        /* \"--CODEGEN--\":7308:7530   */\n    tag_68:\n      0x00\n        /* \"--CODEGEN--\":7435:7437   */\n      0x20\n        /* \"--CODEGEN--\":7424:7433   */\n      dup3\n        /* \"--CODEGEN--\":7420:7438   */\n      add\n        /* \"--CODEGEN--\":7412:7438   */\n      swap1\n      pop\n        /* \"--CODEGEN--\":7449:7520   */\n      tag_353\n        /* \"--CODEGEN--\":7517:7518   */\n      0x00\n        /* \"--CODEGEN--\":7506:7515   */\n      dup4\n        /* \"--CODEGEN--\":7502:7519   */\n      add\n        /* \"--CODEGEN--\":7493:7499   */\n      dup5\n        /* \"--CODEGEN--\":7449:7520   */\n      tag_299\n      jump\t// in\n    tag_353:\n        /* \"--CODEGEN--\":7406:7530   */\n      swap3\n      swap2\n      pop\n      pop\n      jump\t// out\n        /* \"--CODEGEN--\":7537:7775   */\n    tag_213:\n      0x00\n        /* \"--CODEGEN--\":7672:7674   */\n      0x20\n        /* \"--CODEGEN--\":7661:7670   */\n      dup3\n        /* \"--CODEGEN--\":7657:7675   */\n      add\n        /* \"--CODEGEN--\":7649:7675   */\n      swap1\n      pop\n        /* \"--CODEGEN--\":7686:7765   */\n      tag_355\n        /* \"--CODEGEN--\":7762:7763   */\n      0x00\n        /* \"--CODEGEN--\":7751:7760   */\n      dup4\n        /* \"--CODEGEN--\":7747:7764   */\n      add\n        /* \"--CODEGEN--\":7738:7744   */\n      dup5\n        /* \"--CODEGEN--\":7686:7765   */\n      tag_295\n      jump\t// in\n    tag_355:\n        /* \"--CODEGEN--\":7643:7775   */\n      swap3\n      swap2\n      pop\n      pop\n      jump\t// out\n        /* \"--CODEGEN--\":7782:8242   */\n    tag_223:\n      0x00\n        /* \"--CODEGEN--\":7973:7975   */\n      0x60\n        /* \"--CODEGEN--\":7962:7971   */\n      dup3\n        /* \"--CODEGEN--\":7958:7976   */\n      add\n        /* \"--CODEGEN--\":7950:7976   */\n      swap1\n      pop\n        /* \"--CODEGEN--\":7987:8066   */\n      tag_357\n        /* \"--CODEGEN--\":8063:8064   */\n      0x00\n        /* \"--CODEGEN--\":8052:8061   */\n      dup4\n        /* \"--CODEGEN--\":8048:8065   */\n      add\n        /* \"--CODEGEN--\":8039:8045   */\n      dup7\n        /* \"--CODEGEN--\":7987:8066   */\n      tag_295\n      jump\t// in\n    tag_357:\n        /* \"--CODEGEN--\":8077:8149   */\n      tag_358\n        /* \"--CODEGEN--\":8145:8147   */\n      0x20\n        /* \"--CODEGEN--\":8134:8143   */\n      dup4\n        /* \"--CODEGEN--\":8130:8148   */\n      add\n        /* \"--CODEGEN--\":8121:8127   */\n      dup6\n        /* \"--CODEGEN--\":8077:8149   */\n      tag_299\n      jump\t// in\n    tag_358:\n        /* \"--CODEGEN--\":8160:8232   */\n      tag_359\n        /* \"--CODEGEN--\":8228:8230   */\n      0x40\n        /* \"--CODEGEN--\":8217:8226   */\n      dup4\n        /* \"--CODEGEN--\":8213:8231   */\n      add\n        /* \"--CODEGEN--\":8204:8210   */\n      dup5\n        /* \"--CODEGEN--\":8160:8232   */\n      tag_348\n      jump\t// in\n    tag_359:\n        /* \"--CODEGEN--\":7944:8242   */\n      swap5\n      swap4\n      pop\n      pop\n      pop\n      pop\n      jump\t// out\n        /* \"--CODEGEN--\":8249:8499   */\n    tag_73:\n      0x00\n        /* \"--CODEGEN--\":8390:8392   */\n      0x20\n        /* \"--CODEGEN--\":8379:8388   */\n      dup3\n        /* \"--CODEGEN--\":8375:8393   */\n      add\n        /* \"--CODEGEN--\":8367:8393   */\n      swap1\n      pop\n        /* \"--CODEGEN--\":8404:8489   */\n      tag_361\n        /* \"--CODEGEN--\":8486:8487   */\n      0x00\n        /* \"--CODEGEN--\":8475:8484   */\n      dup4\n        /* \"--CODEGEN--\":8471:8488   */\n      add\n        /* \"--CODEGEN--\":8462:8468   */\n      dup5\n        /* \"--CODEGEN--\":8404:8489   */\n      tag_303\n      jump\t// in\n    tag_361:\n        /* \"--CODEGEN--\":8361:8499   */\n      swap3\n      swap2\n      pop\n      pop\n      jump\t// out\n        /* \"--CODEGEN--\":8506:8744   */\n    tag_41:\n      0x00\n        /* \"--CODEGEN--\":8641:8643   */\n      0x20\n        /* \"--CODEGEN--\":8630:8639   */\n      dup3\n        /* \"--CODEGEN--\":8626:8644   */\n      add\n        /* \"--CODEGEN--\":8618:8644   */\n      swap1\n      pop\n        /* \"--CODEGEN--\":8655:8734   */\n      tag_363\n        /* \"--CODEGEN--\":8731:8732   */\n      0x00\n        /* \"--CODEGEN--\":8720:8729   */\n      dup4\n        /* \"--CODEGEN--\":8716:8733   */\n      add\n        /* \"--CODEGEN--\":8707:8713   */\n      dup5\n        /* \"--CODEGEN--\":8655:8734   */\n      tag_307\n      jump\t// in\n    tag_363:\n        /* \"--CODEGEN--\":8612:8744   */\n      swap3\n      swap2\n      pop\n      pop\n      jump\t// out\n        /* \"--CODEGEN--\":8751:9061   */\n    tag_87:\n      0x00\n        /* \"--CODEGEN--\":8898:8900   */\n      0x20\n        /* \"--CODEGEN--\":8887:8896   */\n      dup3\n        /* \"--CODEGEN--\":8883:8901   */\n      add\n        /* \"--CODEGEN--\":8875:8901   */\n      swap1\n      pop\n        /* \"--CODEGEN--\":8948:8957   */\n      dup2\n        /* \"--CODEGEN--\":8942:8946   */\n      dup2\n        /* \"--CODEGEN--\":8938:8958   */\n      sub\n        /* \"--CODEGEN--\":8934:8935   */\n      0x00\n        /* \"--CODEGEN--\":8923:8932   */\n      dup4\n        /* \"--CODEGEN--\":8919:8936   */\n      add\n        /* \"--CODEGEN--\":8912:8959   */\n      mstore\n        /* \"--CODEGEN--\":8973:9051   */\n      tag_365\n        /* \"--CODEGEN--\":9046:9050   */\n      dup2\n        /* \"--CODEGEN--\":9037:9043   */\n      dup5\n        /* \"--CODEGEN--\":8973:9051   */\n      tag_311\n      jump\t// in\n    tag_365:\n        /* \"--CODEGEN--\":8965:9051   */\n      swap1\n      pop\n        /* \"--CODEGEN--\":8869:9061   */\n      swap3\n      swap2\n      pop\n      pop\n      jump\t// out\n        /* \"--CODEGEN--\":9068:9484   */\n    tag_247:\n      0x00\n        /* \"--CODEGEN--\":9268:9270   */\n      0x20\n        /* \"--CODEGEN--\":9257:9266   */\n      dup3\n        /* \"--CODEGEN--\":9253:9271   */\n      add\n        /* \"--CODEGEN--\":9245:9271   */\n      swap1\n      pop\n        /* \"--CODEGEN--\":9318:9327   */\n      dup2\n        /* \"--CODEGEN--\":9312:9316   */\n      dup2\n        /* \"--CODEGEN--\":9308:9328   */\n      sub\n        /* \"--CODEGEN--\":9304:9305   */\n      0x00\n        /* \"--CODEGEN--\":9293:9302   */\n      dup4\n        /* \"--CODEGEN--\":9289:9306   */\n      add\n        /* \"--CODEGEN--\":9282:9329   */\n      mstore\n        /* \"--CODEGEN--\":9343:9474   */\n      tag_367\n        /* \"--CODEGEN--\":9469:9473   */\n      dup2\n        /* \"--CODEGEN--\":9343:9474   */\n      tag_321\n      jump\t// in\n    tag_367:\n        /* \"--CODEGEN--\":9335:9474   */\n      swap1\n      pop\n        /* \"--CODEGEN--\":9239:9484   */\n      swap2\n      swap1\n      pop\n      jump\t// out\n        /* \"--CODEGEN--\":9491:9907   */\n    tag_252:\n      0x00\n        /* \"--CODEGEN--\":9691:9693   */\n      0x20\n        /* \"--CODEGEN--\":9680:9689   */\n      dup3\n        /* \"--CODEGEN--\":9676:9694   */\n      add\n        /* \"--CODEGEN--\":9668:9694   */\n      swap1\n      pop\n        /* \"--CODEGEN--\":9741:9750   */\n      dup2\n        /* \"--CODEGEN--\":9735:9739   */\n      dup2\n        /* \"--CODEGEN--\":9731:9751   */\n      sub\n        /* \"--CODEGEN--\":9727:9728   */\n      0x00\n        /* \"--CODEGEN--\":9716:9725   */\n      dup4\n        /* \"--CODEGEN--\":9712:9729   */\n      add\n        /* \"--CODEGEN--\":9705:9752   */\n      mstore\n        /* \"--CODEGEN--\":9766:9897   */\n      tag_369\n        /* \"--CODEGEN--\":9892:9896   */\n      dup2\n        /* \"--CODEGEN--\":9766:9897   */\n      tag_324\n      jump\t// in\n    tag_369:\n        /* \"--CODEGEN--\":9758:9897   */\n      swap1\n      pop\n        /* \"--CODEGEN--\":9662:9907   */\n      swap2\n      swap1\n      pop\n      jump\t// out\n        /* \"--CODEGEN--\":9914:10330   */\n    tag_234:\n      0x00\n        /* \"--CODEGEN--\":10114:10116   */\n      0x20\n        /* \"--CODEGEN--\":10103:10112   */\n      dup3\n        /* \"--CODEGEN--\":10099:10117   */\n      add\n        /* \"--CODEGEN--\":10091:10117   */\n      swap1\n      pop\n        /* \"--CODEGEN--\":10164:10173   */\n      dup2\n        /* \"--CODEGEN--\":10158:10162   */\n      dup2\n        /* \"--CODEGEN--\":10154:10174   */\n      sub\n        /* \"--CODEGEN--\":10150:10151   */\n      0x00\n        /* \"--CODEGEN--\":10139:10148   */\n      dup4\n        /* \"--CODEGEN--\":10135:10152   */\n      add\n        /* \"--CODEGEN--\":10128:10175   */\n      mstore\n        /* \"--CODEGEN--\":10189:10320   */\n      tag_371\n        /* \"--CODEGEN--\":10315:10319   */\n      dup2\n        /* \"--CODEGEN--\":10189:10320   */\n      tag_327\n      jump\t// in\n    tag_371:\n        /* \"--CODEGEN--\":10181:10320   */\n      swap1\n      pop\n        /* \"--CODEGEN--\":10085:10330   */\n      swap2\n      swap1\n      pop\n      jump\t// out\n        /* \"--CODEGEN--\":10337:10753   */\n    tag_164:\n      0x00\n        /* \"--CODEGEN--\":10537:10539   */\n      0x20\n        /* \"--CODEGEN--\":10526:10535   */\n      dup3\n        /* \"--CODEGEN--\":10522:10540   */\n      add\n        /* \"--CODEGEN--\":10514:10540   */\n      swap1\n      pop\n        /* \"--CODEGEN--\":10587:10596   */\n      dup2\n        /* \"--CODEGEN--\":10581:10585   */\n      dup2\n        /* \"--CODEGEN--\":10577:10597   */\n      sub\n        /* \"--CODEGEN--\":10573:10574   */\n      0x00\n        /* \"--CODEGEN--\":10562:10571   */\n      dup4\n        /* \"--CODEGEN--\":10558:10575   */\n      add\n        /* \"--CODEGEN--\":10551:10598   */\n      mstore\n        /* \"--CODEGEN--\":10612:10743   */\n      tag_373\n        /* \"--CODEGEN--\":10738:10742   */\n      dup2\n        /* \"--CODEGEN--\":10612:10743   */\n      tag_330\n      jump\t// in\n    tag_373:\n        /* \"--CODEGEN--\":10604:10743   */\n      swap1\n      pop\n        /* \"--CODEGEN--\":10508:10753   */\n      swap2\n      swap1\n      pop\n      jump\t// out\n        /* \"--CODEGEN--\":10760:11176   */\n    tag_208:\n      0x00\n        /* \"--CODEGEN--\":10960:10962   */\n      0x20\n        /* \"--CODEGEN--\":10949:10958   */\n      dup3\n        /* \"--CODEGEN--\":10945:10963   */\n      add\n        /* \"--CODEGEN--\":10937:10963   */\n      swap1\n      pop\n        /* \"--CODEGEN--\":11010:11019   */\n      dup2\n        /* \"--CODEGEN--\":11004:11008   */\n      dup2\n        /* \"--CODEGEN--\":11000:11020   */\n      sub\n        /* \"--CODEGEN--\":10996:10997   */\n      0x00\n        /* \"--CODEGEN--\":10985:10994   */\n      dup4\n        /* \"--CODEGEN--\":10981:10998   */\n      add\n        /* \"--CODEGEN--\":10974:11021   */\n      mstore\n        /* \"--CODEGEN--\":11035:11166   */\n      tag_375\n        /* \"--CODEGEN--\":11161:11165   */\n      dup2\n        /* \"--CODEGEN--\":11035:11166   */\n      tag_333\n      jump\t// in\n    tag_375:\n        /* \"--CODEGEN--\":11027:11166   */\n      swap1\n      pop\n        /* \"--CODEGEN--\":10931:11176   */\n      swap2\n      swap1\n      pop\n      jump\t// out\n        /* \"--CODEGEN--\":11183:11599   */\n    tag_183:\n      0x00\n        /* \"--CODEGEN--\":11383:11385   */\n      0x20\n        /* \"--CODEGEN--\":11372:11381   */\n      dup3\n        /* \"--CODEGEN--\":11368:11386   */\n      add\n        /* \"--CODEGEN--\":11360:11386   */\n      swap1\n      pop\n        /* \"--CODEGEN--\":11433:11442   */\n      dup2\n        /* \"--CODEGEN--\":11427:11431   */\n      dup2\n        /* \"--CODEGEN--\":11423:11443   */\n      sub\n        /* \"--CODEGEN--\":11419:11420   */\n      0x00\n        /* \"--CODEGEN--\":11408:11417   */\n      dup4\n        /* \"--CODEGEN--\":11404:11421   */\n      add\n        /* \"--CODEGEN--\":11397:11444   */\n      mstore\n        /* \"--CODEGEN--\":11458:11589   */\n      tag_377\n        /* \"--CODEGEN--\":11584:11588   */\n      dup2\n        /* \"--CODEGEN--\":11458:11589   */\n      tag_336\n      jump\t// in\n    tag_377:\n        /* \"--CODEGEN--\":11450:11589   */\n      swap1\n      pop\n        /* \"--CODEGEN--\":11354:11599   */\n      swap2\n      swap1\n      pop\n      jump\t// out\n        /* \"--CODEGEN--\":11606:12022   */\n    tag_160:\n      0x00\n        /* \"--CODEGEN--\":11806:11808   */\n      0x20\n        /* \"--CODEGEN--\":11795:11804   */\n      dup3\n        /* \"--CODEGEN--\":11791:11809   */\n      add\n        /* \"--CODEGEN--\":11783:11809   */\n      swap1\n      pop\n        /* \"--CODEGEN--\":11856:11865   */\n      dup2\n        /* \"--CODEGEN--\":11850:11854   */\n      dup2\n        /* \"--CODEGEN--\":11846:11866   */\n      sub\n        /* \"--CODEGEN--\":11842:11843   */\n      0x00\n        /* \"--CODEGEN--\":11831:11840   */\n      dup4\n        /* \"--CODEGEN--\":11827:11844   */\n      add\n        /* \"--CODEGEN--\":11820:11867   */\n      mstore\n        /* \"--CODEGEN--\":11881:12012   */\n      tag_379\n        /* \"--CODEGEN--\":12007:12011   */\n      dup2\n        /* \"--CODEGEN--\":11881:12012   */\n      tag_339\n      jump\t// in\n    tag_379:\n        /* \"--CODEGEN--\":11873:12012   */\n      swap1\n      pop\n        /* \"--CODEGEN--\":11777:12022   */\n      swap2\n      swap1\n      pop\n      jump\t// out\n        /* \"--CODEGEN--\":12029:12445   */\n    tag_221:\n      0x00\n        /* \"--CODEGEN--\":12229:12231   */\n      0x20\n        /* \"--CODEGEN--\":12218:12227   */\n      dup3\n        /* \"--CODEGEN--\":12214:12232   */\n      add\n        /* \"--CODEGEN--\":12206:12232   */\n      swap1\n      pop\n        /* \"--CODEGEN--\":12279:12288   */\n      dup2\n        /* \"--CODEGEN--\":12273:12277   */\n      dup2\n        /* \"--CODEGEN--\":12269:12289   */\n      sub\n        /* \"--CODEGEN--\":12265:12266   */\n      0x00\n        /* \"--CODEGEN--\":12254:12263   */\n      dup4\n        /* \"--CODEGEN--\":12250:12267   */\n      add\n        /* \"--CODEGEN--\":12243:12290   */\n      mstore\n        /* \"--CODEGEN--\":12304:12435   */\n      tag_381\n        /* \"--CODEGEN--\":12430:12434   */\n      dup2\n        /* \"--CODEGEN--\":12304:12435   */\n      tag_342\n      jump\t// in\n    tag_381:\n        /* \"--CODEGEN--\":12296:12435   */\n      swap1\n      pop\n        /* \"--CODEGEN--\":12200:12445   */\n      swap2\n      swap1\n      pop\n      jump\t// out\n        /* \"--CODEGEN--\":12452:12868   */\n    tag_187:\n      0x00\n        /* \"--CODEGEN--\":12652:12654   */\n      0x20\n        /* \"--CODEGEN--\":12641:12650   */\n      dup3\n        /* \"--CODEGEN--\":12637:12655   */\n      add\n        /* \"--CODEGEN--\":12629:12655   */\n      swap1\n      pop\n        /* \"--CODEGEN--\":12702:12711   */\n      dup2\n        /* \"--CODEGEN--\":12696:12700   */\n      dup2\n        /* \"--CODEGEN--\":12692:12712   */\n      sub\n        /* \"--CODEGEN--\":12688:12689   */\n      0x00\n        /* \"--CODEGEN--\":12677:12686   */\n      dup4\n        /* \"--CODEGEN--\":12673:12690   */\n      add\n        /* \"--CODEGEN--\":12666:12713   */\n      mstore\n        /* \"--CODEGEN--\":12727:12858   */\n      tag_383\n        /* \"--CODEGEN--\":12853:12857   */\n      dup2\n        /* \"--CODEGEN--\":12727:12858   */\n      tag_345\n      jump\t// in\n    tag_383:\n        /* \"--CODEGEN--\":12719:12858   */\n      swap1\n      pop\n        /* \"--CODEGEN--\":12623:12868   */\n      swap2\n      swap1\n      pop\n      jump\t// out\n        /* \"--CODEGEN--\":12875:13097   */\n    tag_51:\n      0x00\n        /* \"--CODEGEN--\":13002:13004   */\n      0x20\n        /* \"--CODEGEN--\":12991:13000   */\n      dup3\n        /* \"--CODEGEN--\":12987:13005   */\n      add\n        /* \"--CODEGEN--\":12979:13005   */\n      swap1\n      pop\n        /* \"--CODEGEN--\":13016:13087   */\n      tag_385\n        /* \"--CODEGEN--\":13084:13085   */\n      0x00\n        /* \"--CODEGEN--\":13073:13082   */\n      dup4\n        /* \"--CODEGEN--\":13069:13086   */\n      add\n        /* \"--CODEGEN--\":13060:13066   */\n      dup5\n        /* \"--CODEGEN--\":13016:13087   */\n      tag_348\n      jump\t// in\n    tag_385:\n        /* \"--CODEGEN--\":12973:13097   */\n      swap3\n      swap2\n      pop\n      pop\n      jump\t// out\n        /* \"--CODEGEN--\":13104:13884   */\n    tag_46:\n      0x00\n        /* \"--CODEGEN--\":13371:13374   */\n      0xc0\n        /* \"--CODEGEN--\":13360:13369   */\n      dup3\n        /* \"--CODEGEN--\":13356:13375   */\n      add\n        /* \"--CODEGEN--\":13348:13375   */\n      swap1\n      pop\n        /* \"--CODEGEN--\":13386:13457   */\n      tag_387\n        /* \"--CODEGEN--\":13454:13455   */\n      0x00\n        /* \"--CODEGEN--\":13443:13452   */\n      dup4\n        /* \"--CODEGEN--\":13439:13456   */\n      add\n        /* \"--CODEGEN--\":13430:13436   */\n      dup10\n        /* \"--CODEGEN--\":13386:13457   */\n      tag_348\n      jump\t// in\n    tag_387:\n        /* \"--CODEGEN--\":13468:13540   */\n      tag_388\n        /* \"--CODEGEN--\":13536:13538   */\n      0x20\n        /* \"--CODEGEN--\":13525:13534   */\n      dup4\n        /* \"--CODEGEN--\":13521:13539   */\n      add\n        /* \"--CODEGEN--\":13512:13518   */\n      dup9\n        /* \"--CODEGEN--\":13468:13540   */\n      tag_348\n      jump\t// in\n    tag_388:\n        /* \"--CODEGEN--\":13551:13623   */\n      tag_389\n        /* \"--CODEGEN--\":13619:13621   */\n      0x40\n        /* \"--CODEGEN--\":13608:13617   */\n      dup4\n        /* \"--CODEGEN--\":13604:13622   */\n      add\n        /* \"--CODEGEN--\":13595:13601   */\n      dup8\n        /* \"--CODEGEN--\":13551:13623   */\n      tag_348\n      jump\t// in\n    tag_389:\n        /* \"--CODEGEN--\":13634:13706   */\n      tag_390\n        /* \"--CODEGEN--\":13702:13704   */\n      0x60\n        /* \"--CODEGEN--\":13691:13700   */\n      dup4\n        /* \"--CODEGEN--\":13687:13705   */\n      add\n        /* \"--CODEGEN--\":13678:13684   */\n      dup7\n        /* \"--CODEGEN--\":13634:13706   */\n      tag_348\n      jump\t// in\n    tag_390:\n        /* \"--CODEGEN--\":13717:13790   */\n      tag_391\n        /* \"--CODEGEN--\":13785:13788   */\n      0x80\n        /* \"--CODEGEN--\":13774:13783   */\n      dup4\n        /* \"--CODEGEN--\":13770:13789   */\n      add\n        /* \"--CODEGEN--\":13761:13767   */\n      dup6\n        /* \"--CODEGEN--\":13717:13790   */\n      tag_348\n      jump\t// in\n    tag_391:\n        /* \"--CODEGEN--\":13801:13874   */\n      tag_392\n        /* \"--CODEGEN--\":13869:13872   */\n      0xa0\n        /* \"--CODEGEN--\":13858:13867   */\n      dup4\n        /* \"--CODEGEN--\":13854:13873   */\n      add\n        /* \"--CODEGEN--\":13845:13851   */\n      dup5\n        /* \"--CODEGEN--\":13801:13874   */\n      tag_348\n      jump\t// in\n    tag_392:\n        /* \"--CODEGEN--\":13342:13884   */\n      swap8\n      swap7\n      pop\n      pop\n      pop\n      pop\n      pop\n      pop\n      pop\n      jump\t// out\n        /* \"--CODEGEN--\":13891:14147   */\n    tag_266:\n      0x00\n        /* \"--CODEGEN--\":13953:13955   */\n      0x40\n        /* \"--CODEGEN--\":13947:13956   */\n      mload\n        /* \"--CODEGEN--\":13937:13956   */\n      swap1\n      pop\n        /* \"--CODEGEN--\":13991:13995   */\n      dup2\n        /* \"--CODEGEN--\":13983:13989   */\n      dup2\n        /* \"--CODEGEN--\":13979:13996   */\n      add\n        /* \"--CODEGEN--\":14090:14096   */\n      dup2\n        /* \"--CODEGEN--\":14078:14088   */\n      dup2\n        /* \"--CODEGEN--\":14075:14097   */\n      lt\n        /* \"--CODEGEN--\":14054:14072   */\n      0xffffffffffffffff\n        /* \"--CODEGEN--\":14042:14052   */\n      dup3\n        /* \"--CODEGEN--\":14039:14073   */\n      gt\n        /* \"--CODEGEN--\":14036:14098   */\n      or\n        /* \"--CODEGEN--\":14033:14035   */\n      iszero\n      tag_394\n      jumpi\n        /* \"--CODEGEN--\":14111:14112   */\n      0x00\n        /* \"--CODEGEN--\":14108:14109   */\n      dup1\n        /* \"--CODEGEN--\":14101:14113   */\n      revert\n        /* \"--CODEGEN--\":14033:14035   */\n    tag_394:\n        /* \"--CODEGEN--\":14131:14141   */\n      dup1\n        /* \"--CODEGEN--\":14127:14129   */\n      0x40\n        /* \"--CODEGEN--\":14120:14142   */\n      mstore\n        /* \"--CODEGEN--\":13931:14147   */\n      pop\n      swap2\n      swap1\n      pop\n      jump\t// out\n        /* \"--CODEGEN--\":14154:14276   */\n    tag_314:\n      0x00\n        /* \"--CODEGEN--\":14248:14253   */\n      dup2\n        /* \"--CODEGEN--\":14242:14254   */\n      mload\n        /* \"--CODEGEN--\":14232:14254   */\n      swap1\n      pop\n        /* \"--CODEGEN--\":14213:14276   */\n      swap2\n      swap1\n      pop\n      jump\t// out\n        /* \"--CODEGEN--\":14284:14447   */\n    tag_316:\n      0x00\n        /* \"--CODEGEN--\":14399:14405   */\n      dup3\n        /* \"--CODEGEN--\":14394:14397   */\n      dup3\n        /* \"--CODEGEN--\":14387:14406   */\n      mstore\n        /* \"--CODEGEN--\":14436:14440   */\n      0x20\n        /* \"--CODEGEN--\":14431:14434   */\n      dup3\n        /* \"--CODEGEN--\":14427:14441   */\n      add\n        /* \"--CODEGEN--\":14412:14441   */\n      swap1\n      pop\n        /* \"--CODEGEN--\":14380:14447   */\n      swap3\n      swap2\n      pop\n      pop\n      jump\t// out\n        /* \"--CODEGEN--\":14455:14546   */\n    tag_302:\n      0x00\n        /* \"--CODEGEN--\":14517:14541   */\n      tag_398\n        /* \"--CODEGEN--\":14535:14540   */\n      dup3\n        /* \"--CODEGEN--\":14517:14541   */\n      tag_399\n      jump\t// in\n    tag_398:\n        /* \"--CODEGEN--\":14506:14541   */\n      swap1\n      pop\n        /* \"--CODEGEN--\":14500:14546   */\n      swap2\n      swap1\n      pop\n      jump\t// out\n        /* \"--CODEGEN--\":14553:14638   */\n    tag_400:\n      0x00\n        /* \"--CODEGEN--\":14626:14631   */\n      dup2\n        /* \"--CODEGEN--\":14619:14632   */\n      iszero\n        /* \"--CODEGEN--\":14612:14633   */\n      iszero\n        /* \"--CODEGEN--\":14601:14633   */\n      swap1\n      pop\n        /* \"--CODEGEN--\":14595:14638   */\n      swap2\n      swap1\n      pop\n      jump\t// out\n        /* \"--CODEGEN--\":14645:14771   */\n    tag_402:\n      0x00\n        /* \"--CODEGEN--\":14717:14722   */\n      dup2\n        /* \"--CODEGEN--\":14706:14722   */\n      swap1\n      pop\n        /* \"--CODEGEN--\":14723:14766   */\n      tag_404\n        /* \"--CODEGEN--\":14760:14765   */\n      dup3\n        /* \"--CODEGEN--\":14723:14766   */\n      tag_405\n      jump\t// in\n    tag_404:\n        /* \"--CODEGEN--\":14700:14771   */\n      swap2\n      swap1\n      pop\n      jump\t// out\n        /* \"--CODEGEN--\":14778:14899   */\n    tag_399:\n      0x00\n        /* \"--CODEGEN--\":14851:14893   */\n      0xffffffffffffffffffffffffffffffffffffffff\n        /* \"--CODEGEN--\":14844:14849   */\n      dup3\n        /* \"--CODEGEN--\":14840:14894   */\n      and\n        /* \"--CODEGEN--\":14829:14894   */\n      swap1\n      pop\n        /* \"--CODEGEN--\":14823:14899   */\n      swap2\n      swap1\n      pop\n      jump\t// out\n        /* \"--CODEGEN--\":14906:14978   */\n    tag_351:\n      0x00\n        /* \"--CODEGEN--\":14968:14973   */\n      dup2\n        /* \"--CODEGEN--\":14957:14973   */\n      swap1\n      pop\n        /* \"--CODEGEN--\":14951:14978   */\n      swap2\n      swap1\n      pop\n      jump\t// out\n        /* \"--CODEGEN--\":14985:15114   */\n    tag_298:\n      0x00\n        /* \"--CODEGEN--\":15072:15109   */\n      tag_409\n        /* \"--CODEGEN--\":15103:15108   */\n      dup3\n        /* \"--CODEGEN--\":15072:15109   */\n      tag_410\n      jump\t// in\n    tag_409:\n        /* \"--CODEGEN--\":15059:15109   */\n      swap1\n      pop\n        /* \"--CODEGEN--\":15053:15114   */\n      swap2\n      swap1\n      pop\n      jump\t// out\n        /* \"--CODEGEN--\":15121:15270   */\n    tag_306:\n      0x00\n        /* \"--CODEGEN--\":15214:15265   */\n      tag_412\n        /* \"--CODEGEN--\":15259:15264   */\n      dup3\n        /* \"--CODEGEN--\":15214:15265   */\n      tag_413\n      jump\t// in\n    tag_412:\n        /* \"--CODEGEN--\":15201:15265   */\n      swap1\n      pop\n        /* \"--CODEGEN--\":15195:15270   */\n      swap2\n      swap1\n      pop\n      jump\t// out\n        /* \"--CODEGEN--\":15277:15399   */\n    tag_413:\n      0x00\n        /* \"--CODEGEN--\":15370:15394   */\n      tag_415\n        /* \"--CODEGEN--\":15388:15393   */\n      dup3\n        /* \"--CODEGEN--\":15370:15394   */\n      tag_399\n      jump\t// in\n    tag_415:\n        /* \"--CODEGEN--\":15357:15394   */\n      swap1\n      pop\n        /* \"--CODEGEN--\":15351:15399   */\n      swap2\n      swap1\n      pop\n      jump\t// out\n        /* \"--CODEGEN--\":15406:15532   */\n    tag_310:\n      0x00\n        /* \"--CODEGEN--\":15493:15527   */\n      tag_417\n        /* \"--CODEGEN--\":15521:15526   */\n      dup3\n        /* \"--CODEGEN--\":15493:15527   */\n      tag_402\n      jump\t// in\n    tag_417:\n        /* \"--CODEGEN--\":15480:15527   */\n      swap1\n      pop\n        /* \"--CODEGEN--\":15474:15532   */\n      swap2\n      swap1\n      pop\n      jump\t// out\n        /* \"--CODEGEN--\":15539:15660   */\n    tag_410:\n      0x00\n        /* \"--CODEGEN--\":15618:15655   */\n      tag_419\n        /* \"--CODEGEN--\":15649:15654   */\n      dup3\n        /* \"--CODEGEN--\":15618:15655   */\n      tag_420\n      jump\t// in\n    tag_419:\n        /* \"--CODEGEN--\":15605:15655   */\n      swap1\n      pop\n        /* \"--CODEGEN--\":15599:15660   */\n      swap2\n      swap1\n      pop\n      jump\t// out\n        /* \"--CODEGEN--\":15667:15775   */\n    tag_420:\n      0x00\n        /* \"--CODEGEN--\":15746:15770   */\n      tag_422\n        /* \"--CODEGEN--\":15764:15769   */\n      dup3\n        /* \"--CODEGEN--\":15746:15770   */\n      tag_399\n      jump\t// in\n    tag_422:\n        /* \"--CODEGEN--\":15733:15770   */\n      swap1\n      pop\n        /* \"--CODEGEN--\":15727:15775   */\n      swap2\n      swap1\n      pop\n      jump\t// out\n        /* \"--CODEGEN--\":15783:16051   */\n    tag_318:\n        /* \"--CODEGEN--\":15848:15849   */\n      0x00\n        /* \"--CODEGEN--\":15855:15956   */\n    tag_424:\n        /* \"--CODEGEN--\":15869:15875   */\n      dup4\n        /* \"--CODEGEN--\":15866:15867   */\n      dup2\n        /* \"--CODEGEN--\":15863:15876   */\n      lt\n        /* \"--CODEGEN--\":15855:15956   */\n      iszero\n      tag_426\n      jumpi\n        /* \"--CODEGEN--\":15945:15946   */\n      dup1\n        /* \"--CODEGEN--\":15940:15943   */\n      dup3\n        /* \"--CODEGEN--\":15936:15947   */\n      add\n        /* \"--CODEGEN--\":15930:15948   */\n      mload\n        /* \"--CODEGEN--\":15926:15927   */\n      dup2\n        /* \"--CODEGEN--\":15921:15924   */\n      dup5\n        /* \"--CODEGEN--\":15917:15928   */\n      add\n        /* \"--CODEGEN--\":15910:15949   */\n      mstore\n        /* \"--CODEGEN--\":15891:15893   */\n      0x20\n        /* \"--CODEGEN--\":15888:15889   */\n      dup2\n        /* \"--CODEGEN--\":15884:15894   */\n      add\n        /* \"--CODEGEN--\":15879:15894   */\n      swap1\n      pop\n        /* \"--CODEGEN--\":15855:15956   */\n      jump(tag_424)\n    tag_426:\n        /* \"--CODEGEN--\":15971:15977   */\n      dup4\n        /* \"--CODEGEN--\":15968:15969   */\n      dup2\n        /* \"--CODEGEN--\":15965:15978   */\n      gt\n        /* \"--CODEGEN--\":15962:15964   */\n      iszero\n      tag_427\n      jumpi\n        /* \"--CODEGEN--\":16036:16037   */\n      0x00\n        /* \"--CODEGEN--\":16027:16033   */\n      dup5\n        /* \"--CODEGEN--\":16022:16025   */\n      dup5\n        /* \"--CODEGEN--\":16018:16034   */\n      add\n        /* \"--CODEGEN--\":16011:16038   */\n      mstore\n        /* \"--CODEGEN--\":15962:15964   */\n    tag_427:\n        /* \"--CODEGEN--\":15832:16051   */\n      pop\n      pop\n      pop\n      pop\n      jump\t// out\n        /* \"--CODEGEN--\":16059:16156   */\n    tag_320:\n      0x00\n        /* \"--CODEGEN--\":16147:16149   */\n      0x1f\n        /* \"--CODEGEN--\":16143:16150   */\n      not\n        /* \"--CODEGEN--\":16138:16140   */\n      0x1f\n        /* \"--CODEGEN--\":16131:16136   */\n      dup4\n        /* \"--CODEGEN--\":16127:16141   */\n      add\n        /* \"--CODEGEN--\":16123:16151   */\n      and\n        /* \"--CODEGEN--\":16113:16151   */\n      swap1\n      pop\n        /* \"--CODEGEN--\":16107:16156   */\n      swap2\n      swap1\n      pop\n      jump\t// out\n        /* \"--CODEGEN--\":16164:16265   */\n    tag_405:\n        /* \"--CODEGEN--\":16243:16244   */\n      0x05\n        /* \"--CODEGEN--\":16236:16241   */\n      dup2\n        /* \"--CODEGEN--\":16233:16245   */\n      lt\n        /* \"--CODEGEN--\":16223:16225   */\n      tag_430\n      jumpi\n        /* \"--CODEGEN--\":16249:16258   */\n      invalid\n        /* \"--CODEGEN--\":16223:16225   */\n    tag_430:\n        /* \"--CODEGEN--\":16217:16265   */\n      pop\n      jump\t// out\n        /* \"--CODEGEN--\":16272:16389   */\n    tag_257:\n        /* \"--CODEGEN--\":16341:16365   */\n      tag_432\n        /* \"--CODEGEN--\":16359:16364   */\n      dup2\n        /* \"--CODEGEN--\":16341:16365   */\n      tag_302\n      jump\t// in\n    tag_432:\n        /* \"--CODEGEN--\":16334:16339   */\n      dup2\n        /* \"--CODEGEN--\":16331:16366   */\n      eq\n        /* \"--CODEGEN--\":16321:16323   */\n      tag_433\n      jumpi\n        /* \"--CODEGEN--\":16380:16381   */\n      0x00\n        /* \"--CODEGEN--\":16377:16378   */\n      dup1\n        /* \"--CODEGEN--\":16370:16382   */\n      revert\n        /* \"--CODEGEN--\":16321:16323   */\n    tag_433:\n        /* \"--CODEGEN--\":16315:16389   */\n      pop\n      jump\t// out\n        /* \"--CODEGEN--\":16396:16507   */\n    tag_261:\n        /* \"--CODEGEN--\":16462:16483   */\n      tag_435\n        /* \"--CODEGEN--\":16477:16482   */\n      dup2\n        /* \"--CODEGEN--\":16462:16483   */\n      tag_400\n      jump\t// in\n    tag_435:\n        /* \"--CODEGEN--\":16455:16460   */\n      dup2\n        /* \"--CODEGEN--\":16452:16484   */\n      eq\n        /* \"--CODEGEN--\":16442:16444   */\n      tag_436\n      jumpi\n        /* \"--CODEGEN--\":16498:16499   */\n      0x00\n        /* \"--CODEGEN--\":16495:16496   */\n      dup1\n        /* \"--CODEGEN--\":16488:16500   */\n      revert\n        /* \"--CODEGEN--\":16442:16444   */\n    tag_436:\n        /* \"--CODEGEN--\":16436:16507   */\n      pop\n      jump\t// out\n        /* \"--CODEGEN--\":16514:16631   */\n    tag_276:\n        /* \"--CODEGEN--\":16583:16607   */\n      tag_438\n        /* \"--CODEGEN--\":16601:16606   */\n      dup2\n        /* \"--CODEGEN--\":16583:16607   */\n      tag_351\n      jump\t// in\n    tag_438:\n        /* \"--CODEGEN--\":16576:16581   */\n      dup2\n        /* \"--CODEGEN--\":16573:16608   */\n      eq\n        /* \"--CODEGEN--\":16563:16565   */\n      tag_439\n      jumpi\n        /* \"--CODEGEN--\":16622:16623   */\n      0x00\n        /* \"--CODEGEN--\":16619:16620   */\n      dup1\n        /* \"--CODEGEN--\":16612:16624   */\n      revert\n        /* \"--CODEGEN--\":16563:16565   */\n    tag_439:\n        /* \"--CODEGEN--\":16557:16631   */\n      pop\n      jump\t// out\n\n    auxdata: 0xa26469706673582212208a1ddea9193413b3b06ee915aa33d0407b891ea80f3a8516df8b3e14c2079eeb64736f6c634300060c0033\n}\n","bytecode":{"linkReferences":{},"object":"60806040523480156200001157600080fd5b506040516200260c3803806200260c833981810160405281019062000037919062000512565b868484848460006200004e6200032f60201b60201c565b9050806000806101000a81548173ffffffffffffffffffffffffffffffffffffffff021916908373ffffffffffffffffffffffffffffffffffffffff1602179055508073ffffffffffffffffffffffffffffffffffffffff16600073ffffffffffffffffffffffffffffffffffffffff167f8be0079c531659141344cd1fd0a4f28419497f9722a3daafe3b4186f6b6457e060405160405180910390a350816001600082015181600001556020820151816001015560408201518160020155606082015181600301556080820151816004015560a0820151816005015590505060016000015484101562000179576040517f08c379a0000000000000000000000000000000000000000000000000000000008152600401620001709062000646565b60405180910390fd5b84600890805190602001906200019192919062000337565b5082600a8190555080601260006101000a81548173ffffffffffffffffffffffffffffffffffffffff021916908373ffffffffffffffffffffffffffffffffffffffff1602179055508360098190555043600c819055507f656ad37b815087d90f0c4cbdbf28a9ef3e92cfeb045dd15eaa452cc8b1d34e00600c546040516200021b919062000668565b60405180910390a1505050505085601590805190602001906200024092919062000337565b50601360009054906101000a900473ffffffffffffffffffffffffffffffffffffffff16601760006101000a81548173ffffffffffffffffffffffffffffffffffffffff021916908373ffffffffffffffffffffffffffffffffffffffff1602179055508460168190555043600c819055506000600760006101000a81548160ff02191690836004811115620002d257fe5b0217905550600060108190555060006011819055507f656ad37b815087d90f0c4cbdbf28a9ef3e92cfeb045dd15eaa452cc8b1d34e00600c546040516200031a919062000668565b60405180910390a15050505050505062000799565b600033905090565b828054600181600116156101000203166002900490600052602060002090601f016020900481019282601f106200037a57805160ff1916838001178555620003ab565b82800160010185558215620003ab579182015b82811115620003aa5782518255916020019190600101906200038d565b5b509050620003ba9190620003be565b5090565b5b80821115620003d9576000816000905550600101620003bf565b5090565b600081519050620003ee8162000765565b92915050565b600082601f8301126200040657600080fd5b81516200041d6200041782620006b3565b62000685565b915080825260208301602083018583830111156200043a57600080fd5b620004478382846200072f565b50505092915050565b600060c082840312156200046357600080fd5b6200046f60c062000685565b905060006200048184828501620004fb565b60008301525060206200049784828501620004fb565b6020830152506040620004ad84828501620004fb565b6040830152506060620004c384828501620004fb565b6060830152506080620004d984828501620004fb565b60808301525060a0620004ef84828501620004fb565b60a08301525092915050565b6000815190506200050c816200077f565b92915050565b6000806000806000806000610180888a0312156200052f57600080fd5b600088015167ffffffffffffffff8111156200054a57600080fd5b620005588a828b01620003f4565b975050602088015167ffffffffffffffff8111156200057657600080fd5b620005848a828b01620003f4565b9650506040620005978a828b01620004fb565b9550506060620005aa8a828b01620004fb565b9450506080620005bd8a828b01620004fb565b93505060a0620005d08a828b0162000450565b925050610160620005e48a828b01620003dd565b91505092959891949750929550565b600062000602601183620006e0565b91507f496e74657265737420746f6f206c6f77210000000000000000000000000000006000830152602082019050919050565b620006408162000725565b82525050565b600060208201905081810360008301526200066181620005f3565b9050919050565b60006020820190506200067f600083018462000635565b92915050565b6000604051905081810181811067ffffffffffffffff82111715620006a957600080fd5b8060405250919050565b600067ffffffffffffffff821115620006cb57600080fd5b601f19601f8301169050602081019050919050565b600082825260208201905092915050565b6000620006fe8262000705565b9050919050565b600073ffffffffffffffffffffffffffffffffffffffff82169050919050565b6000819050919050565b60005b838110156200074f57808201518184015260208101905062000732565b838111156200075f576000848401525b50505050565b6200077081620006f1565b81146200077c57600080fd5b50565b6200078a8162000725565b81146200079657600080fd5b50565b611e6380620007a96000396000f3fe6080604052600436106101b75760003560e01c806380cc0269116100ec578063c6cb67701161008a578063eaf3a62e11610064578063eaf3a62e1461058a578063f1a9af89146105b5578063f2fde38b146105e0578063fcbbd57414610609576101b7565b8063c6cb67701461050d578063e5acc18714610536578063eaea4fc914610561576101b7565b806394a83eeb116100c657806394a83eeb14610484578063a2df9b1f1461049b578063b2ca1805146104c6578063bad4a01f146104f1576101b7565b806380cc0269146104035780638a0dac211461042e5780638da5cb5b14610459576101b7565b80633cb852251161015957806368c8d54c1161013357806368c8d54c1461036d5780636f9fb98a14610398578063708196ae146103c3578063715018a6146103ec576101b7565b80633cb85225146102ee57806344dc7fbc146103195780635dc334bf14610344576101b7565b8063176345141161019557806317634514146102425780631cbd83801461026d5780632a3d7c81146102985780633702e6cb146102c3576101b7565b8063074ca966146101bc57806309e94d98146101e75780630e031a9414610217575b600080fd5b3480156101c857600080fd5b506101d1610634565b6040516101de9190611aae565b60405180910390f35b3480156101f357600080fd5b506101fc610647565b60405161020e96959493929190611c26565b60405180910390f35b34801561022357600080fd5b5061022c610671565b6040516102399190611c0b565b60405180910390f35b34801561024e57600080fd5b50610257610677565b6040516102649190611c0b565b60405180910390f35b34801561027957600080fd5b5061028261067d565b60405161028f9190611c0b565b60405180910390f35b3480156102a457600080fd5b506102ad610683565b6040516102ba9190611c0b565b60405180910390f35b3480156102cf57600080fd5b506102d8610689565b6040516102e59190611a26565b60405180910390f35b3480156102fa57600080fd5b506103036106af565b6040516103109190611a93565b60405180910390f35b34801561032557600080fd5b5061032e6106d5565b60405161033b9190611a93565b60405180910390f35b34801561035057600080fd5b5061036b600480360381019061036691906115fd565b6106fb565b005b34801561037957600080fd5b50610382610899565b60405161038f9190611ac9565b60405180910390f35b3480156103a457600080fd5b506103ad610937565b6040516103ba9190611c0b565b60405180910390f35b3480156103cf57600080fd5b506103ea60048036038101906103e59190611678565b6109c2565b005b3480156103f857600080fd5b50610401610b31565b005b34801561040f57600080fd5b50610418610c84565b6040516104259190611ac9565b60405180910390f35b34801561043a57600080fd5b50610443610d22565b6040516104509190611c0b565b60405180910390f35b34801561046557600080fd5b5061046e610d28565b60405161047b9190611a26565b60405180910390f35b34801561049057600080fd5b50610499610d51565b005b3480156104a757600080fd5b506104b0610e7b565b6040516104bd9190611c0b565b60405180910390f35b3480156104d257600080fd5b506104db610e81565b6040516104e89190611c0b565b60405180910390f35b61050b60048036038101906105069190611678565b610e87565b005b34801561051957600080fd5b50610534600480360381019061052f919061164f565b61113a565b005b34801561054257600080fd5b5061054b61120f565b6040516105589190611c0b565b60405180910390f35b34801561056d57600080fd5b50610588600480360381019061058391906115fd565b611215565b005b34801561059657600080fd5b5061059f6112bc565b6040516105ac9190611c0b565b60405180910390f35b3480156105c157600080fd5b506105ca6112c2565b6040516105d79190611c0b565b60405180910390f35b3480156105ec57600080fd5b50610607600480360381019061060291906115fd565b6112c8565b005b34801561061557600080fd5b5061061e61148a565b60405161062b9190611a26565b60405180910390f35b600760009054906101000a900460ff1681565b60018060000154908060010154908060020154908060030154908060040154908060050154905086565b60095481565b600c5481565b60105481565b600d5481565b601460009054906101000a900473ffffffffffffffffffffffffffffffffffffffff1681565b601760009054906101000a900473ffffffffffffffffffffffffffffffffffffffff1681565b601860009054906101000a900473ffffffffffffffffffffffffffffffffffffffff1681565b6107036114b0565b73ffffffffffffffffffffffffffffffffffffffff1660008054906101000a900473ffffffffffffffffffffffffffffffffffffffff1673ffffffffffffffffffffffffffffffffffffffff1614610790576040517f08c379a000000000000000000000000000000000000000000000000000000000815260040161078790611bab565b60405180910390fd5b600073ffffffffffffffffffffffffffffffffffffffff168173ffffffffffffffffffffffffffffffffffffffff161415610800576040517f08c379a00000000000000000000000000000000000000000000000000000000081526004016107f790611b4b565b60405180910390fd5b3073ffffffffffffffffffffffffffffffffffffffff1663f2fde38b826040518263ffffffff1660e01b81526004016108399190611a26565b600060405180830381600087803b15801561085357600080fd5b505af1158015610867573d6000803e3d6000fd5b5050505043600e819055506001600760006101000a81548160ff0219169083600481111561089157fe5b021790555050565b60158054600181600116156101000203166002900480601f01602080910402602001604051908101604052809291908181526020018280546001816001161561010002031660029004801561092f5780601f106109045761010080835404028352916020019161092f565b820191906000526020600020905b81548152906001019060200180831161091257829003601f168201915b505050505081565b6000601360009054906101000a900473ffffffffffffffffffffffffffffffffffffffff1673ffffffffffffffffffffffffffffffffffffffff16601760009054906101000a900473ffffffffffffffffffffffffffffffffffffffff1673ffffffffffffffffffffffffffffffffffffffff1614156109bb5760105490506109bf565b4790505b90565b601260009054906101000a900473ffffffffffffffffffffffffffffffffffffffff1673ffffffffffffffffffffffffffffffffffffffff163373ffffffffffffffffffffffffffffffffffffffff1614610a52576040517f08c379a0000000000000000000000000000000000000000000000000000000008152600401610a4990611b4b565b60405180910390fd5b60008110158015610a64575060048111155b610aa3576040517f08c379a0000000000000000000000000000000000000000000000000000000008152600401610a9a90611b8b565b60405180910390fd5b600760009054906101000a900460ff166004811115610abe57fe5b811415610b00576040517f08c379a0000000000000000000000000000000000000000000000000000000008152600401610af790611beb565b60405180910390fd5b806004811115610b0c57fe5b600760006101000a81548160ff02191690836004811115610b2957fe5b021790555050565b610b396114b0565b73ffffffffffffffffffffffffffffffffffffffff1660008054906101000a900473ffffffffffffffffffffffffffffffffffffffff1673ffffffffffffffffffffffffffffffffffffffff1614610bc6576040517f08c379a0000000000000000000000000000000000000000000000000000000008152600401610bbd90611bab565b60405180910390fd5b600073ffffffffffffffffffffffffffffffffffffffff1660008054906101000a900473ffffffffffffffffffffffffffffffffffffffff1673ffffffffffffffffffffffffffffffffffffffff167f8be0079c531659141344cd1fd0a4f28419497f9722a3daafe3b4186f6b6457e060405160405180910390a360008060006101000a81548173ffffffffffffffffffffffffffffffffffffffff021916908373ffffffffffffffffffffffffffffffffffffffff160217905550565b60088054600181600116156101000203166002900480601f016020809104026020016040519081016040528092919081815260200182805460018160011615610100020316600290048015610d1a5780601f10610cef57610100808354040283529160200191610d1a565b820191906000526020600020905b815481529060010190602001808311610cfd57829003601f168201915b505050505081565b600f5481565b60008060009054906101000a900473ffffffffffffffffffffffffffffffffffffffff16905090565b610d596114b0565b73ffffffffffffffffffffffffffffffffffffffff1660008054906101000a900473ffffffffffffffffffffffffffffffffffffffff1673ffffffffffffffffffffffffffffffffffffffff1614610de6576040517f08c379a0000000000000000000000000000000000000000000000000000000008152600401610ddd90611bab565b60405180910390fd5b60016004811115610df357fe5b600760009054906101000a900460ff166004811115610e0e57fe5b14610e4e576040517f08c379a0000000000000000000000000000000000000000000000000000000008152600401610e4590611b6b565b60405180910390fd5b43600f819055506002600760006101000a81548160ff02191690836004811115610e7457fe5b0217905550565b600b5481565b600e5481565b601360009054906101000a900473ffffffffffffffffffffffffffffffffffffffff1673ffffffffffffffffffffffffffffffffffffffff16601760009054906101000a900473ffffffffffffffffffffffffffffffffffffffff1673ffffffffffffffffffffffffffffffffffffffff1614156110fc5780601760009054906101000a900473ffffffffffffffffffffffffffffffffffffffff1673ffffffffffffffffffffffffffffffffffffffff166370a08231336040518263ffffffff1660e01b8152600401610f5b9190611a41565b60206040518083038186803b158015610f7357600080fd5b505afa158015610f87573d6000803e3d6000fd5b505050506040513d601f19601f82011682018060405250810190610fab91906116a1565b1015610fec576040517f08c379a0000000000000000000000000000000000000000000000000000000008152600401610fe390611bcb565b60405180910390fd5b601760009054906101000a900473ffffffffffffffffffffffffffffffffffffffff1673ffffffffffffffffffffffffffffffffffffffff166323b872dd3330846040518463ffffffff1660e01b815260040161104b93929190611a5c565b602060405180830381600087803b15801561106557600080fd5b505af1158015611079573d6000803e3d6000fd5b505050506040513d601f19601f8201168201806040525081019061109d9190611626565b506110b3816010546114b890919063ffffffff16565b60108190555043600d819055507f3f478372607b68e147b903a0b92f830c8d6468755dc7ac8ac400b95f3d987e4f816040516110ef9190611c0b565b60405180910390a1611137565b6040517f08c379a000000000000000000000000000000000000000000000000000000000815260040161112e90611b2b565b60405180910390fd5b50565b601260009054906101000a900473ffffffffffffffffffffffffffffffffffffffff1673ffffffffffffffffffffffffffffffffffffffff163373ffffffffffffffffffffffffffffffffffffffff16146111ca576040517f08c379a00000000000000000000000000000000000000000000000000000000081526004016111c190611b4b565b60405180910390fd5b806001600082015181600001556020820151816001015560408201518160020155606082015181600301556080820151816004015560a0820151816005015590505050565b60165481565b80601360006101000a81548173ffffffffffffffffffffffffffffffffffffffff021916908373ffffffffffffffffffffffffffffffffffffffff160217905550601360009054906101000a900473ffffffffffffffffffffffffffffffffffffffff16601760006101000a81548173ffffffffffffffffffffffffffffffffffffffff021916908373ffffffffffffffffffffffffffffffffffffffff16021790555050565b60115481565b600a5481565b6112d06114b0565b73ffffffffffffffffffffffffffffffffffffffff1660008054906101000a900473ffffffffffffffffffffffffffffffffffffffff1673ffffffffffffffffffffffffffffffffffffffff161461135d576040517f08c379a000000000000000000000000000000000000000000000000000000000815260040161135490611bab565b60405180910390fd5b600073ffffffffffffffffffffffffffffffffffffffff168173ffffffffffffffffffffffffffffffffffffffff1614156113cd576040517f08c379a00000000000000000000000000000000000000000000000000000000081526004016113c490611aeb565b60405180910390fd5b8073ffffffffffffffffffffffffffffffffffffffff1660008054906101000a900473ffffffffffffffffffffffffffffffffffffffff1673ffffffffffffffffffffffffffffffffffffffff167f8be0079c531659141344cd1fd0a4f28419497f9722a3daafe3b4186f6b6457e060405160405180910390a3806000806101000a81548173ffffffffffffffffffffffffffffffffffffffff021916908373ffffffffffffffffffffffffffffffffffffffff16021790555050565b601360009054906101000a900473ffffffffffffffffffffffffffffffffffffffff1681565b600033905090565b600080828401905083811015611503576040517f08c379a00000000000000000000000000000000000000000000000000000000081526004016114fa90611b0b565b60405180910390fd5b8091505092915050565b60008135905061151c81611de8565b92915050565b60008151905061153181611dff565b92915050565b600060c0828403121561154957600080fd5b61155360c0611c87565b90506000611563848285016115d3565b6000830152506020611577848285016115d3565b602083015250604061158b848285016115d3565b604083015250606061159f848285016115d3565b60608301525060806115b3848285016115d3565b60808301525060a06115c7848285016115d3565b60a08301525092915050565b6000813590506115e281611e16565b92915050565b6000815190506115f781611e16565b92915050565b60006020828403121561160f57600080fd5b600061161d8482850161150d565b91505092915050565b60006020828403121561163857600080fd5b600061164684828501611522565b91505092915050565b600060c0828403121561166157600080fd5b600061166f84828501611537565b91505092915050565b60006020828403121561168a57600080fd5b6000611698848285016115d3565b91505092915050565b6000602082840312156116b357600080fd5b60006116c1848285016115e8565b91505092915050565b6116d381611d2b565b82525050565b6116e281611cd0565b82525050565b6116f181611d3d565b82525050565b61170081611d61565b82525050565b600061171182611cb4565b61171b8185611cbf565b935061172b818560208601611d97565b61173481611dca565b840191505092915050565b600061174c602683611cbf565b91507f4f776e61626c653a206e6577206f776e657220697320746865207a65726f206160008301527f64647265737300000000000000000000000000000000000000000000000000006020830152604082019050919050565b60006117b2601b83611cbf565b91507f536166654d6174683a206164646974696f6e206f766572666c6f7700000000006000830152602082019050919050565b60006117f2601283611cbf565b91507f4e6f7420616363657074656420746f6b656e00000000000000000000000000006000830152602082019050919050565b6000611832601383611cbf565b91507f41646472657373206e6f7420616c6c6f776564000000000000000000000000006000830152602082019050919050565b6000611872603383611cbf565b91507f4c6f616e20737461747573206e6f7420636f6d70617469626c6520776974682060008301527f666f7265636c6f73696e6720616374696f6e73000000000000000000000000006020830152604082019050919050565b60006118d8601383611cbf565b91507f4e6577207374617465206e6f742076616c6964000000000000000000000000006000830152602082019050919050565b6000611918602083611cbf565b91507f4f776e61626c653a2063616c6c6572206973206e6f7420746865206f776e65726000830152602082019050919050565b6000611958602683611cbf565b91507f4e6f7420656e6f756768204a4e5420746f6b656e7320696e2073656e6465722060008301527f77616c6c657400000000000000000000000000000000000000000000000000006020830152604082019050919050565b60006119be602783611cbf565b91507f4e657720737461747573206973207468652073616d65206c696b65207072657360008301527f656e74206f6e65000000000000000000000000000000000000000000000000006020830152604082019050919050565b611a2081611d21565b82525050565b6000602082019050611a3b60008301846116d9565b92915050565b6000602082019050611a5660008301846116ca565b92915050565b6000606082019050611a7160008301866116ca565b611a7e60208301856116d9565b611a8b6040830184611a17565b949350505050565b6000602082019050611aa860008301846116e8565b92915050565b6000602082019050611ac360008301846116f7565b92915050565b60006020820190508181036000830152611ae38184611706565b905092915050565b60006020820190508181036000830152611b048161173f565b9050919050565b60006020820190508181036000830152611b24816117a5565b9050919050565b60006020820190508181036000830152611b44816117e5565b9050919050565b60006020820190508181036000830152611b6481611825565b9050919050565b60006020820190508181036000830152611b8481611865565b9050919050565b60006020820190508181036000830152611ba4816118cb565b9050919050565b60006020820190508181036000830152611bc48161190b565b9050919050565b60006020820190508181036000830152611be48161194b565b9050919050565b60006020820190508181036000830152611c04816119b1565b9050919050565b6000602082019050611c206000830184611a17565b92915050565b600060c082019050611c3b6000830189611a17565b611c486020830188611a17565b611c556040830187611a17565b611c626060830186611a17565b611c6f6080830185611a17565b611c7c60a0830184611a17565b979650505050505050565b6000604051905081810181811067ffffffffffffffff82111715611caa57600080fd5b8060405250919050565b600081519050919050565b600082825260208201905092915050565b6000611cdb82611d01565b9050919050565b60008115159050919050565b6000819050611cfc82611ddb565b919050565b600073ffffffffffffffffffffffffffffffffffffffff82169050919050565b6000819050919050565b6000611d3682611d73565b9050919050565b6000611d4882611d4f565b9050919050565b6000611d5a82611d01565b9050919050565b6000611d6c82611cee565b9050919050565b6000611d7e82611d85565b9050919050565b6000611d9082611d01565b9050919050565b60005b83811015611db5578082015181840152602081019050611d9a565b83811115611dc4576000848401525b50505050565b6000601f19601f8301169050919050565b60058110611de557fe5b50565b611df181611cd0565b8114611dfc57600080fd5b50565b611e0881611ce2565b8114611e1357600080fd5b50565b611e1f81611d21565b8114611e2a57600080fd5b5056fea26469706673582212208a1ddea9193413b3b06ee915aa33d0407b891ea80f3a8516df8b3e14c2079eeb64736f6c634300060c0033","opcodes":"PUSH1 0x80 PUSH1 0x40 MSTORE CALLVALUE DUP1 ISZERO PUSH3 0x11 JUMPI PUSH1 0x0 DUP1 REVERT JUMPDEST POP PUSH1 0x40 MLOAD PUSH3 0x260C CODESIZE SUB DUP1 PUSH3 0x260C DUP4 CODECOPY DUP2 DUP2 ADD PUSH1 0x40 MSTORE DUP2 ADD SWAP1 PUSH3 0x37 SWAP2 SWAP1 PUSH3 0x512 JUMP JUMPDEST DUP7 DUP5 DUP5 DUP5 DUP5 PUSH1 0x0 PUSH3 0x4E PUSH3 0x32F PUSH1 0x20 SHL PUSH1 0x20 SHR JUMP JUMPDEST SWAP1 POP DUP1 PUSH1 0x0 DUP1 PUSH2 0x100 EXP DUP2 SLOAD DUP2 PUSH20 0xFFFFFFFFFFFFFFFFFFFFFFFFFFFFFFFFFFFFFFFF MUL NOT AND SWAP1 DUP4 PUSH20 0xFFFFFFFFFFFFFFFFFFFFFFFFFFFFFFFFFFFFFFFF AND MUL OR SWAP1 SSTORE POP DUP1 PUSH20 0xFFFFFFFFFFFFFFFFFFFFFFFFFFFFFFFFFFFFFFFF AND PUSH1 0x0 PUSH20 0xFFFFFFFFFFFFFFFFFFFFFFFFFFFFFFFFFFFFFFFF AND PUSH32 0x8BE0079C531659141344CD1FD0A4F28419497F9722A3DAAFE3B4186F6B6457E0 PUSH1 0x40 MLOAD PUSH1 0x40 MLOAD DUP1 SWAP2 SUB SWAP1 LOG3 POP DUP2 PUSH1 0x1 PUSH1 0x0 DUP3 ADD MLOAD DUP2 PUSH1 0x0 ADD SSTORE PUSH1 0x20 DUP3 ADD MLOAD DUP2 PUSH1 0x1 ADD SSTORE PUSH1 0x40 DUP3 ADD MLOAD DUP2 PUSH1 0x2 ADD SSTORE PUSH1 0x60 DUP3 ADD MLOAD DUP2 PUSH1 0x3 ADD SSTORE PUSH1 0x80 DUP3 ADD MLOAD DUP2 PUSH1 0x4 ADD SSTORE PUSH1 0xA0 DUP3 ADD MLOAD DUP2 PUSH1 0x5 ADD SSTORE SWAP1 POP POP PUSH1 0x1 PUSH1 0x0 ADD SLOAD DUP5 LT ISZERO PUSH3 0x179 JUMPI PUSH1 0x40 MLOAD PUSH32 0x8C379A000000000000000000000000000000000000000000000000000000000 DUP2 MSTORE PUSH1 0x4 ADD PUSH3 0x170 SWAP1 PUSH3 0x646 JUMP JUMPDEST PUSH1 0x40 MLOAD DUP1 SWAP2 SUB SWAP1 REVERT JUMPDEST DUP5 PUSH1 0x8 SWAP1 DUP1 MLOAD SWAP1 PUSH1 0x20 ADD SWAP1 PUSH3 0x191 SWAP3 SWAP2 SWAP1 PUSH3 0x337 JUMP JUMPDEST POP DUP3 PUSH1 0xA DUP2 SWAP1 SSTORE POP DUP1 PUSH1 0x12 PUSH1 0x0 PUSH2 0x100 EXP DUP2 SLOAD DUP2 PUSH20 0xFFFFFFFFFFFFFFFFFFFFFFFFFFFFFFFFFFFFFFFF MUL NOT AND SWAP1 DUP4 PUSH20 0xFFFFFFFFFFFFFFFFFFFFFFFFFFFFFFFFFFFFFFFF AND MUL OR SWAP1 SSTORE POP DUP4 PUSH1 0x9 DUP2 SWAP1 SSTORE POP NUMBER PUSH1 0xC DUP2 SWAP1 SSTORE POP PUSH32 0x656AD37B815087D90F0C4CBDBF28A9EF3E92CFEB045DD15EAA452CC8B1D34E00 PUSH1 0xC SLOAD PUSH1 0x40 MLOAD PUSH3 0x21B SWAP2 SWAP1 PUSH3 0x668 JUMP JUMPDEST PUSH1 0x40 MLOAD DUP1 SWAP2 SUB SWAP1 LOG1 POP POP POP POP POP DUP6 PUSH1 0x15 SWAP1 DUP1 MLOAD SWAP1 PUSH1 0x20 ADD SWAP1 PUSH3 0x240 SWAP3 SWAP2 SWAP1 PUSH3 0x337 JUMP JUMPDEST POP PUSH1 0x13 PUSH1 0x0 SWAP1 SLOAD SWAP1 PUSH2 0x100 EXP SWAP1 DIV PUSH20 0xFFFFFFFFFFFFFFFFFFFFFFFFFFFFFFFFFFFFFFFF AND PUSH1 0x17 PUSH1 0x0 PUSH2 0x100 EXP DUP2 SLOAD DUP2 PUSH20 0xFFFFFFFFFFFFFFFFFFFFFFFFFFFFFFFFFFFFFFFF MUL NOT AND SWAP1 DUP4 PUSH20 0xFFFFFFFFFFFFFFFFFFFFFFFFFFFFFFFFFFFFFFFF AND MUL OR SWAP1 SSTORE POP DUP5 PUSH1 0x16 DUP2 SWAP1 SSTORE POP NUMBER PUSH1 0xC DUP2 SWAP1 SSTORE POP PUSH1 0x0 PUSH1 0x7 PUSH1 0x0 PUSH2 0x100 EXP DUP2 SLOAD DUP2 PUSH1 0xFF MUL NOT AND SWAP1 DUP4 PUSH1 0x4 DUP2 GT ISZERO PUSH3 0x2D2 JUMPI INVALID JUMPDEST MUL OR SWAP1 SSTORE POP PUSH1 0x0 PUSH1 0x10 DUP2 SWAP1 SSTORE POP PUSH1 0x0 PUSH1 0x11 DUP2 SWAP1 SSTORE POP PUSH32 0x656AD37B815087D90F0C4CBDBF28A9EF3E92CFEB045DD15EAA452CC8B1D34E00 PUSH1 0xC SLOAD PUSH1 0x40 MLOAD PUSH3 0x31A SWAP2 SWAP1 PUSH3 0x668 JUMP JUMPDEST PUSH1 0x40 MLOAD DUP1 SWAP2 SUB SWAP1 LOG1 POP POP POP POP POP POP POP PUSH3 0x799 JUMP JUMPDEST PUSH1 0x0 CALLER SWAP1 POP SWAP1 JUMP JUMPDEST DUP3 DUP1 SLOAD PUSH1 0x1 DUP2 PUSH1 0x1 AND ISZERO PUSH2 0x100 MUL SUB AND PUSH1 0x2 SWAP1 DIV SWAP1 PUSH1 0x0 MSTORE PUSH1 0x20 PUSH1 0x0 KECCAK256 SWAP1 PUSH1 0x1F ADD PUSH1 0x20 SWAP1 DIV DUP2 ADD SWAP3 DUP3 PUSH1 0x1F LT PUSH3 0x37A JUMPI DUP1 MLOAD PUSH1 0xFF NOT AND DUP4 DUP1 ADD OR DUP6 SSTORE PUSH3 0x3AB JUMP JUMPDEST DUP3 DUP1 ADD PUSH1 0x1 ADD DUP6 SSTORE DUP3 ISZERO PUSH3 0x3AB JUMPI SWAP2 DUP3 ADD JUMPDEST DUP3 DUP2 GT ISZERO PUSH3 0x3AA JUMPI DUP3 MLOAD DUP3 SSTORE SWAP2 PUSH1 0x20 ADD SWAP2 SWAP1 PUSH1 0x1 ADD SWAP1 PUSH3 0x38D JUMP JUMPDEST JUMPDEST POP SWAP1 POP PUSH3 0x3BA SWAP2 SWAP1 PUSH3 0x3BE JUMP JUMPDEST POP SWAP1 JUMP JUMPDEST JUMPDEST DUP1 DUP3 GT ISZERO PUSH3 0x3D9 JUMPI PUSH1 0x0 DUP2 PUSH1 0x0 SWAP1 SSTORE POP PUSH1 0x1 ADD PUSH3 0x3BF JUMP JUMPDEST POP SWAP1 JUMP JUMPDEST PUSH1 0x0 DUP2 MLOAD SWAP1 POP PUSH3 0x3EE DUP2 PUSH3 0x765 JUMP JUMPDEST SWAP3 SWAP2 POP POP JUMP JUMPDEST PUSH1 0x0 DUP3 PUSH1 0x1F DUP4 ADD SLT PUSH3 0x406 JUMPI PUSH1 0x0 DUP1 REVERT JUMPDEST DUP2 MLOAD PUSH3 0x41D PUSH3 0x417 DUP3 PUSH3 0x6B3 JUMP JUMPDEST PUSH3 0x685 JUMP JUMPDEST SWAP2 POP DUP1 DUP3 MSTORE PUSH1 0x20 DUP4 ADD PUSH1 0x20 DUP4 ADD DUP6 DUP4 DUP4 ADD GT ISZERO PUSH3 0x43A JUMPI PUSH1 0x0 DUP1 REVERT JUMPDEST PUSH3 0x447 DUP4 DUP3 DUP5 PUSH3 0x72F JUMP JUMPDEST POP POP POP SWAP3 SWAP2 POP POP JUMP JUMPDEST PUSH1 0x0 PUSH1 0xC0 DUP3 DUP5 SUB SLT ISZERO PUSH3 0x463 JUMPI PUSH1 0x0 DUP1 REVERT JUMPDEST PUSH3 0x46F PUSH1 0xC0 PUSH3 0x685 JUMP JUMPDEST SWAP1 POP PUSH1 0x0 PUSH3 0x481 DUP5 DUP3 DUP6 ADD PUSH3 0x4FB JUMP JUMPDEST PUSH1 0x0 DUP4 ADD MSTORE POP PUSH1 0x20 PUSH3 0x497 DUP5 DUP3 DUP6 ADD PUSH3 0x4FB JUMP JUMPDEST PUSH1 0x20 DUP4 ADD MSTORE POP PUSH1 0x40 PUSH3 0x4AD DUP5 DUP3 DUP6 ADD PUSH3 0x4FB JUMP JUMPDEST PUSH1 0x40 DUP4 ADD MSTORE POP PUSH1 0x60 PUSH3 0x4C3 DUP5 DUP3 DUP6 ADD PUSH3 0x4FB JUMP JUMPDEST PUSH1 0x60 DUP4 ADD MSTORE POP PUSH1 0x80 PUSH3 0x4D9 DUP5 DUP3 DUP6 ADD PUSH3 0x4FB JUMP JUMPDEST PUSH1 0x80 DUP4 ADD MSTORE POP PUSH1 0xA0 PUSH3 0x4EF DUP5 DUP3 DUP6 ADD PUSH3 0x4FB JUMP JUMPDEST PUSH1 0xA0 DUP4 ADD MSTORE POP SWAP3 SWAP2 POP POP JUMP JUMPDEST PUSH1 0x0 DUP2 MLOAD SWAP1 POP PUSH3 0x50C DUP2 PUSH3 0x77F JUMP JUMPDEST SWAP3 SWAP2 POP POP JUMP JUMPDEST PUSH1 0x0 DUP1 PUSH1 0x0 DUP1 PUSH1 0x0 DUP1 PUSH1 0x0 PUSH2 0x180 DUP9 DUP11 SUB SLT ISZERO PUSH3 0x52F JUMPI PUSH1 0x0 DUP1 REVERT JUMPDEST PUSH1 0x0 DUP9 ADD MLOAD PUSH8 0xFFFFFFFFFFFFFFFF DUP2 GT ISZERO PUSH3 0x54A JUMPI PUSH1 0x0 DUP1 REVERT JUMPDEST PUSH3 0x558 DUP11 DUP3 DUP12 ADD PUSH3 0x3F4 JUMP JUMPDEST SWAP8 POP POP PUSH1 0x20 DUP9 ADD MLOAD PUSH8 0xFFFFFFFFFFFFFFFF DUP2 GT ISZERO PUSH3 0x576 JUMPI PUSH1 0x0 DUP1 REVERT JUMPDEST PUSH3 0x584 DUP11 DUP3 DUP12 ADD PUSH3 0x3F4 JUMP JUMPDEST SWAP7 POP POP PUSH1 0x40 PUSH3 0x597 DUP11 DUP3 DUP12 ADD PUSH3 0x4FB JUMP JUMPDEST SWAP6 POP POP PUSH1 0x60 PUSH3 0x5AA DUP11 DUP3 DUP12 ADD PUSH3 0x4FB JUMP JUMPDEST SWAP5 POP POP PUSH1 0x80 PUSH3 0x5BD DUP11 DUP3 DUP12 ADD PUSH3 0x4FB JUMP JUMPDEST SWAP4 POP POP PUSH1 0xA0 PUSH3 0x5D0 DUP11 DUP3 DUP12 ADD PUSH3 0x450 JUMP JUMPDEST SWAP3 POP POP PUSH2 0x160 PUSH3 0x5E4 DUP11 DUP3 DUP12 ADD PUSH3 0x3DD JUMP JUMPDEST SWAP2 POP POP SWAP3 SWAP6 SWAP9 SWAP2 SWAP5 SWAP8 POP SWAP3 SWAP6 POP JUMP JUMPDEST PUSH1 0x0 PUSH3 0x602 PUSH1 0x11 DUP4 PUSH3 0x6E0 JUMP JUMPDEST SWAP2 POP PUSH32 0x496E74657265737420746F6F206C6F7721000000000000000000000000000000 PUSH1 0x0 DUP4 ADD MSTORE PUSH1 0x20 DUP3 ADD SWAP1 POP SWAP2 SWAP1 POP JUMP JUMPDEST PUSH3 0x640 DUP2 PUSH3 0x725 JUMP JUMPDEST DUP3 MSTORE POP POP JUMP JUMPDEST PUSH1 0x0 PUSH1 0x20 DUP3 ADD SWAP1 POP DUP2 DUP2 SUB PUSH1 0x0 DUP4 ADD MSTORE PUSH3 0x661 DUP2 PUSH3 0x5F3 JUMP JUMPDEST SWAP1 POP SWAP2 SWAP1 POP JUMP JUMPDEST PUSH1 0x0 PUSH1 0x20 DUP3 ADD SWAP1 POP PUSH3 0x67F PUSH1 0x0 DUP4 ADD DUP5 PUSH3 0x635 JUMP JUMPDEST SWAP3 SWAP2 POP POP JUMP JUMPDEST PUSH1 0x0 PUSH1 0x40 MLOAD SWAP1 POP DUP2 DUP2 ADD DUP2 DUP2 LT PUSH8 0xFFFFFFFFFFFFFFFF DUP3 GT OR ISZERO PUSH3 0x6A9 JUMPI PUSH1 0x0 DUP1 REVERT JUMPDEST DUP1 PUSH1 0x40 MSTORE POP SWAP2 SWAP1 POP JUMP JUMPDEST PUSH1 0x0 PUSH8 0xFFFFFFFFFFFFFFFF DUP3 GT ISZERO PUSH3 0x6CB JUMPI PUSH1 0x0 DUP1 REVERT JUMPDEST PUSH1 0x1F NOT PUSH1 0x1F DUP4 ADD AND SWAP1 POP PUSH1 0x20 DUP2 ADD SWAP1 POP SWAP2 SWAP1 POP JUMP JUMPDEST PUSH1 0x0 DUP3 DUP3 MSTORE PUSH1 0x20 DUP3 ADD SWAP1 POP SWAP3 SWAP2 POP POP JUMP JUMPDEST PUSH1 0x0 PUSH3 0x6FE DUP3 PUSH3 0x705 JUMP JUMPDEST SWAP1 POP SWAP2 SWAP1 POP JUMP JUMPDEST PUSH1 0x0 PUSH20 0xFFFFFFFFFFFFFFFFFFFFFFFFFFFFFFFFFFFFFFFF DUP3 AND SWAP1 POP SWAP2 SWAP1 POP JUMP JUMPDEST PUSH1 0x0 DUP2 SWAP1 POP SWAP2 SWAP1 POP JUMP JUMPDEST PUSH1 0x0 JUMPDEST DUP4 DUP2 LT ISZERO PUSH3 0x74F JUMPI DUP1 DUP3 ADD MLOAD DUP2 DUP5 ADD MSTORE PUSH1 0x20 DUP2 ADD SWAP1 POP PUSH3 0x732 JUMP JUMPDEST DUP4 DUP2 GT ISZERO PUSH3 0x75F JUMPI PUSH1 0x0 DUP5 DUP5 ADD MSTORE JUMPDEST POP POP POP POP JUMP JUMPDEST PUSH3 0x770 DUP2 PUSH3 0x6F1 JUMP JUMPDEST DUP2 EQ PUSH3 0x77C JUMPI PUSH1 0x0 DUP1 REVERT JUMPDEST POP JUMP JUMPDEST PUSH3 0x78A DUP2 PUSH3 0x725 JUMP JUMPDEST DUP2 EQ PUSH3 0x796 JUMPI PUSH1 0x0 DUP1 REVERT JUMPDEST POP JUMP JUMPDEST PUSH2 0x1E63 DUP1 PUSH3 0x7A9 PUSH1 0x0 CODECOPY PUSH1 0x0 RETURN INVALID PUSH1 0x80 PUSH1 0x40 MSTORE PUSH1 0x4 CALLDATASIZE LT PUSH2 0x1B7 JUMPI PUSH1 0x0 CALLDATALOAD PUSH1 0xE0 SHR DUP1 PUSH4 0x80CC0269 GT PUSH2 0xEC JUMPI DUP1 PUSH4 0xC6CB6770 GT PUSH2 0x8A JUMPI DUP1 PUSH4 0xEAF3A62E GT PUSH2 0x64 JUMPI DUP1 PUSH4 0xEAF3A62E EQ PUSH2 0x58A JUMPI DUP1 PUSH4 0xF1A9AF89 EQ PUSH2 0x5B5 JUMPI DUP1 PUSH4 0xF2FDE38B EQ PUSH2 0x5E0 JUMPI DUP1 PUSH4 0xFCBBD574 EQ PUSH2 0x609 JUMPI PUSH2 0x1B7 JUMP JUMPDEST DUP1 PUSH4 0xC6CB6770 EQ PUSH2 0x50D JUMPI DUP1 PUSH4 0xE5ACC187 EQ PUSH2 0x536 JUMPI DUP1 PUSH4 0xEAEA4FC9 EQ PUSH2 0x561 JUMPI PUSH2 0x1B7 JUMP JUMPDEST DUP1 PUSH4 0x94A83EEB GT PUSH2 0xC6 JUMPI DUP1 PUSH4 0x94A83EEB EQ PUSH2 0x484 JUMPI DUP1 PUSH4 0xA2DF9B1F EQ PUSH2 0x49B JUMPI DUP1 PUSH4 0xB2CA1805 EQ PUSH2 0x4C6 JUMPI DUP1 PUSH4 0xBAD4A01F EQ PUSH2 0x4F1 JUMPI PUSH2 0x1B7 JUMP JUMPDEST DUP1 PUSH4 0x80CC0269 EQ PUSH2 0x403 JUMPI DUP1 PUSH4 0x8A0DAC21 EQ PUSH2 0x42E JUMPI DUP1 PUSH4 0x8DA5CB5B EQ PUSH2 0x459 JUMPI PUSH2 0x1B7 JUMP JUMPDEST DUP1 PUSH4 0x3CB85225 GT PUSH2 0x159 JUMPI DUP1 PUSH4 0x68C8D54C GT PUSH2 0x133 JUMPI DUP1 PUSH4 0x68C8D54C EQ PUSH2 0x36D JUMPI DUP1 PUSH4 0x6F9FB98A EQ PUSH2 0x398 JUMPI DUP1 PUSH4 0x708196AE EQ PUSH2 0x3C3 JUMPI DUP1 PUSH4 0x715018A6 EQ PUSH2 0x3EC JUMPI PUSH2 0x1B7 JUMP JUMPDEST DUP1 PUSH4 0x3CB85225 EQ PUSH2 0x2EE JUMPI DUP1 PUSH4 0x44DC7FBC EQ PUSH2 0x319 JUMPI DUP1 PUSH4 0x5DC334BF EQ PUSH2 0x344 JUMPI PUSH2 0x1B7 JUMP JUMPDEST DUP1 PUSH4 0x17634514 GT PUSH2 0x195 JUMPI DUP1 PUSH4 0x17634514 EQ PUSH2 0x242 JUMPI DUP1 PUSH4 0x1CBD8380 EQ PUSH2 0x26D JUMPI DUP1 PUSH4 0x2A3D7C81 EQ PUSH2 0x298 JUMPI DUP1 PUSH4 0x3702E6CB EQ PUSH2 0x2C3 JUMPI PUSH2 0x1B7 JUMP JUMPDEST DUP1 PUSH4 0x74CA966 EQ PUSH2 0x1BC JUMPI DUP1 PUSH4 0x9E94D98 EQ PUSH2 0x1E7 JUMPI DUP1 PUSH4 0xE031A94 EQ PUSH2 0x217 JUMPI JUMPDEST PUSH1 0x0 DUP1 REVERT JUMPDEST CALLVALUE DUP1 ISZERO PUSH2 0x1C8 JUMPI PUSH1 0x0 DUP1 REVERT JUMPDEST POP PUSH2 0x1D1 PUSH2 0x634 JUMP JUMPDEST PUSH1 0x40 MLOAD PUSH2 0x1DE SWAP2 SWAP1 PUSH2 0x1AAE JUMP JUMPDEST PUSH1 0x40 MLOAD DUP1 SWAP2 SUB SWAP1 RETURN JUMPDEST CALLVALUE DUP1 ISZERO PUSH2 0x1F3 JUMPI PUSH1 0x0 DUP1 REVERT JUMPDEST POP PUSH2 0x1FC PUSH2 0x647 JUMP JUMPDEST PUSH1 0x40 MLOAD PUSH2 0x20E SWAP7 SWAP6 SWAP5 SWAP4 SWAP3 SWAP2 SWAP1 PUSH2 0x1C26 JUMP JUMPDEST PUSH1 0x40 MLOAD DUP1 SWAP2 SUB SWAP1 RETURN JUMPDEST CALLVALUE DUP1 ISZERO PUSH2 0x223 JUMPI PUSH1 0x0 DUP1 REVERT JUMPDEST POP PUSH2 0x22C PUSH2 0x671 JUMP JUMPDEST PUSH1 0x40 MLOAD PUSH2 0x239 SWAP2 SWAP1 PUSH2 0x1C0B JUMP JUMPDEST PUSH1 0x40 MLOAD DUP1 SWAP2 SUB SWAP1 RETURN JUMPDEST CALLVALUE DUP1 ISZERO PUSH2 0x24E JUMPI PUSH1 0x0 DUP1 REVERT JUMPDEST POP PUSH2 0x257 PUSH2 0x677 JUMP JUMPDEST PUSH1 0x40 MLOAD PUSH2 0x264 SWAP2 SWAP1 PUSH2 0x1C0B JUMP JUMPDEST PUSH1 0x40 MLOAD DUP1 SWAP2 SUB SWAP1 RETURN JUMPDEST CALLVALUE DUP1 ISZERO PUSH2 0x279 JUMPI PUSH1 0x0 DUP1 REVERT JUMPDEST POP PUSH2 0x282 PUSH2 0x67D JUMP JUMPDEST PUSH1 0x40 MLOAD PUSH2 0x28F SWAP2 SWAP1 PUSH2 0x1C0B JUMP JUMPDEST PUSH1 0x40 MLOAD DUP1 SWAP2 SUB SWAP1 RETURN JUMPDEST CALLVALUE DUP1 ISZERO PUSH2 0x2A4 JUMPI PUSH1 0x0 DUP1 REVERT JUMPDEST POP PUSH2 0x2AD PUSH2 0x683 JUMP JUMPDEST PUSH1 0x40 MLOAD PUSH2 0x2BA SWAP2 SWAP1 PUSH2 0x1C0B JUMP JUMPDEST PUSH1 0x40 MLOAD DUP1 SWAP2 SUB SWAP1 RETURN JUMPDEST CALLVALUE DUP1 ISZERO PUSH2 0x2CF JUMPI PUSH1 0x0 DUP1 REVERT JUMPDEST POP PUSH2 0x2D8 PUSH2 0x689 JUMP JUMPDEST PUSH1 0x40 MLOAD PUSH2 0x2E5 SWAP2 SWAP1 PUSH2 0x1A26 JUMP JUMPDEST PUSH1 0x40 MLOAD DUP1 SWAP2 SUB SWAP1 RETURN JUMPDEST CALLVALUE DUP1 ISZERO PUSH2 0x2FA JUMPI PUSH1 0x0 DUP1 REVERT JUMPDEST POP PUSH2 0x303 PUSH2 0x6AF JUMP JUMPDEST PUSH1 0x40 MLOAD PUSH2 0x310 SWAP2 SWAP1 PUSH2 0x1A93 JUMP JUMPDEST PUSH1 0x40 MLOAD DUP1 SWAP2 SUB SWAP1 RETURN JUMPDEST CALLVALUE DUP1 ISZERO PUSH2 0x325 JUMPI PUSH1 0x0 DUP1 REVERT JUMPDEST POP PUSH2 0x32E PUSH2 0x6D5 JUMP JUMPDEST PUSH1 0x40 MLOAD PUSH2 0x33B SWAP2 SWAP1 PUSH2 0x1A93 JUMP JUMPDEST PUSH1 0x40 MLOAD DUP1 SWAP2 SUB SWAP1 RETURN JUMPDEST CALLVALUE DUP1 ISZERO PUSH2 0x350 JUMPI PUSH1 0x0 DUP1 REVERT JUMPDEST POP PUSH2 0x36B PUSH1 0x4 DUP1 CALLDATASIZE SUB DUP2 ADD SWAP1 PUSH2 0x366 SWAP2 SWAP1 PUSH2 0x15FD JUMP JUMPDEST PUSH2 0x6FB JUMP JUMPDEST STOP JUMPDEST CALLVALUE DUP1 ISZERO PUSH2 0x379 JUMPI PUSH1 0x0 DUP1 REVERT JUMPDEST POP PUSH2 0x382 PUSH2 0x899 JUMP JUMPDEST PUSH1 0x40 MLOAD PUSH2 0x38F SWAP2 SWAP1 PUSH2 0x1AC9 JUMP JUMPDEST PUSH1 0x40 MLOAD DUP1 SWAP2 SUB SWAP1 RETURN JUMPDEST CALLVALUE DUP1 ISZERO PUSH2 0x3A4 JUMPI PUSH1 0x0 DUP1 REVERT JUMPDEST POP PUSH2 0x3AD PUSH2 0x937 JUMP JUMPDEST PUSH1 0x40 MLOAD PUSH2 0x3BA SWAP2 SWAP1 PUSH2 0x1C0B JUMP JUMPDEST PUSH1 0x40 MLOAD DUP1 SWAP2 SUB SWAP1 RETURN JUMPDEST CALLVALUE DUP1 ISZERO PUSH2 0x3CF JUMPI PUSH1 0x0 DUP1 REVERT JUMPDEST POP PUSH2 0x3EA PUSH1 0x4 DUP1 CALLDATASIZE SUB DUP2 ADD SWAP1 PUSH2 0x3E5 SWAP2 SWAP1 PUSH2 0x1678 JUMP JUMPDEST PUSH2 0x9C2 JUMP JUMPDEST STOP JUMPDEST CALLVALUE DUP1 ISZERO PUSH2 0x3F8 JUMPI PUSH1 0x0 DUP1 REVERT JUMPDEST POP PUSH2 0x401 PUSH2 0xB31 JUMP JUMPDEST STOP JUMPDEST CALLVALUE DUP1 ISZERO PUSH2 0x40F JUMPI PUSH1 0x0 DUP1 REVERT JUMPDEST POP PUSH2 0x418 PUSH2 0xC84 JUMP JUMPDEST PUSH1 0x40 MLOAD PUSH2 0x425 SWAP2 SWAP1 PUSH2 0x1AC9 JUMP JUMPDEST PUSH1 0x40 MLOAD DUP1 SWAP2 SUB SWAP1 RETURN JUMPDEST CALLVALUE DUP1 ISZERO PUSH2 0x43A JUMPI PUSH1 0x0 DUP1 REVERT JUMPDEST POP PUSH2 0x443 PUSH2 0xD22 JUMP JUMPDEST PUSH1 0x40 MLOAD PUSH2 0x450 SWAP2 SWAP1 PUSH2 0x1C0B JUMP JUMPDEST PUSH1 0x40 MLOAD DUP1 SWAP2 SUB SWAP1 RETURN JUMPDEST CALLVALUE DUP1 ISZERO PUSH2 0x465 JUMPI PUSH1 0x0 DUP1 REVERT JUMPDEST POP PUSH2 0x46E PUSH2 0xD28 JUMP JUMPDEST PUSH1 0x40 MLOAD PUSH2 0x47B SWAP2 SWAP1 PUSH2 0x1A26 JUMP JUMPDEST PUSH1 0x40 MLOAD DUP1 SWAP2 SUB SWAP1 RETURN JUMPDEST CALLVALUE DUP1 ISZERO PUSH2 0x490 JUMPI PUSH1 0x0 DUP1 REVERT JUMPDEST POP PUSH2 0x499 PUSH2 0xD51 JUMP JUMPDEST STOP JUMPDEST CALLVALUE DUP1 ISZERO PUSH2 0x4A7 JUMPI PUSH1 0x0 DUP1 REVERT JUMPDEST POP PUSH2 0x4B0 PUSH2 0xE7B JUMP JUMPDEST PUSH1 0x40 MLOAD PUSH2 0x4BD SWAP2 SWAP1 PUSH2 0x1C0B JUMP JUMPDEST PUSH1 0x40 MLOAD DUP1 SWAP2 SUB SWAP1 RETURN JUMPDEST CALLVALUE DUP1 ISZERO PUSH2 0x4D2 JUMPI PUSH1 0x0 DUP1 REVERT JUMPDEST POP PUSH2 0x4DB PUSH2 0xE81 JUMP JUMPDEST PUSH1 0x40 MLOAD PUSH2 0x4E8 SWAP2 SWAP1 PUSH2 0x1C0B JUMP JUMPDEST PUSH1 0x40 MLOAD DUP1 SWAP2 SUB SWAP1 RETURN JUMPDEST PUSH2 0x50B PUSH1 0x4 DUP1 CALLDATASIZE SUB DUP2 ADD SWAP1 PUSH2 0x506 SWAP2 SWAP1 PUSH2 0x1678 JUMP JUMPDEST PUSH2 0xE87 JUMP JUMPDEST STOP JUMPDEST CALLVALUE DUP1 ISZERO PUSH2 0x519 JUMPI PUSH1 0x0 DUP1 REVERT JUMPDEST POP PUSH2 0x534 PUSH1 0x4 DUP1 CALLDATASIZE SUB DUP2 ADD SWAP1 PUSH2 0x52F SWAP2 SWAP1 PUSH2 0x164F JUMP JUMPDEST PUSH2 0x113A JUMP JUMPDEST STOP JUMPDEST CALLVALUE DUP1 ISZERO PUSH2 0x542 JUMPI PUSH1 0x0 DUP1 REVERT JUMPDEST POP PUSH2 0x54B PUSH2 0x120F JUMP JUMPDEST PUSH1 0x40 MLOAD PUSH2 0x558 SWAP2 SWAP1 PUSH2 0x1C0B JUMP JUMPDEST PUSH1 0x40 MLOAD DUP1 SWAP2 SUB SWAP1 RETURN JUMPDEST CALLVALUE DUP1 ISZERO PUSH2 0x56D JUMPI PUSH1 0x0 DUP1 REVERT JUMPDEST POP PUSH2 0x588 PUSH1 0x4 DUP1 CALLDATASIZE SUB DUP2 ADD SWAP1 PUSH2 0x583 SWAP2 SWAP1 PUSH2 0x15FD JUMP JUMPDEST PUSH2 0x1215 JUMP JUMPDEST STOP JUMPDEST CALLVALUE DUP1 ISZERO PUSH2 0x596 JUMPI PUSH1 0x0 DUP1 REVERT JUMPDEST POP PUSH2 0x59F PUSH2 0x12BC JUMP JUMPDEST PUSH1 0x40 MLOAD PUSH2 0x5AC SWAP2 SWAP1 PUSH2 0x1C0B JUMP JUMPDEST PUSH1 0x40 MLOAD DUP1 SWAP2 SUB SWAP1 RETURN JUMPDEST CALLVALUE DUP1 ISZERO PUSH2 0x5C1 JUMPI PUSH1 0x0 DUP1 REVERT JUMPDEST POP PUSH2 0x5CA PUSH2 0x12C2 JUMP JUMPDEST PUSH1 0x40 MLOAD PUSH2 0x5D7 SWAP2 SWAP1 PUSH2 0x1C0B JUMP JUMPDEST PUSH1 0x40 MLOAD DUP1 SWAP2 SUB SWAP1 RETURN JUMPDEST CALLVALUE DUP1 ISZERO PUSH2 0x5EC JUMPI PUSH1 0x0 DUP1 REVERT JUMPDEST POP PUSH2 0x607 PUSH1 0x4 DUP1 CALLDATASIZE SUB DUP2 ADD SWAP1 PUSH2 0x602 SWAP2 SWAP1 PUSH2 0x15FD JUMP JUMPDEST PUSH2 0x12C8 JUMP JUMPDEST STOP JUMPDEST CALLVALUE DUP1 ISZERO PUSH2 0x615 JUMPI PUSH1 0x0 DUP1 REVERT JUMPDEST POP PUSH2 0x61E PUSH2 0x148A JUMP JUMPDEST PUSH1 0x40 MLOAD PUSH2 0x62B SWAP2 SWAP1 PUSH2 0x1A26 JUMP JUMPDEST PUSH1 0x40 MLOAD DUP1 SWAP2 SUB SWAP1 RETURN JUMPDEST PUSH1 0x7 PUSH1 0x0 SWAP1 SLOAD SWAP1 PUSH2 0x100 EXP SWAP1 DIV PUSH1 0xFF AND DUP2 JUMP JUMPDEST PUSH1 0x1 DUP1 PUSH1 0x0 ADD SLOAD SWAP1 DUP1 PUSH1 0x1 ADD SLOAD SWAP1 DUP1 PUSH1 0x2 ADD SLOAD SWAP1 DUP1 PUSH1 0x3 ADD SLOAD SWAP1 DUP1 PUSH1 0x4 ADD SLOAD SWAP1 DUP1 PUSH1 0x5 ADD SLOAD SWAP1 POP DUP7 JUMP JUMPDEST PUSH1 0x9 SLOAD DUP2 JUMP JUMPDEST PUSH1 0xC SLOAD DUP2 JUMP JUMPDEST PUSH1 0x10 SLOAD DUP2 JUMP JUMPDEST PUSH1 0xD SLOAD DUP2 JUMP JUMPDEST PUSH1 0x14 PUSH1 0x0 SWAP1 SLOAD SWAP1 PUSH2 0x100 EXP SWAP1 DIV PUSH20 0xFFFFFFFFFFFFFFFFFFFFFFFFFFFFFFFFFFFFFFFF AND DUP2 JUMP JUMPDEST PUSH1 0x17 PUSH1 0x0 SWAP1 SLOAD SWAP1 PUSH2 0x100 EXP SWAP1 DIV PUSH20 0xFFFFFFFFFFFFFFFFFFFFFFFFFFFFFFFFFFFFFFFF AND DUP2 JUMP JUMPDEST PUSH1 0x18 PUSH1 0x0 SWAP1 SLOAD SWAP1 PUSH2 0x100 EXP SWAP1 DIV PUSH20 0xFFFFFFFFFFFFFFFFFFFFFFFFFFFFFFFFFFFFFFFF AND DUP2 JUMP JUMPDEST PUSH2 0x703 PUSH2 0x14B0 JUMP JUMPDEST PUSH20 0xFFFFFFFFFFFFFFFFFFFFFFFFFFFFFFFFFFFFFFFF AND PUSH1 0x0 DUP1 SLOAD SWAP1 PUSH2 0x100 EXP SWAP1 DIV PUSH20 0xFFFFFFFFFFFFFFFFFFFFFFFFFFFFFFFFFFFFFFFF AND PUSH20 0xFFFFFFFFFFFFFFFFFFFFFFFFFFFFFFFFFFFFFFFF AND EQ PUSH2 0x790 JUMPI PUSH1 0x40 MLOAD PUSH32 0x8C379A000000000000000000000000000000000000000000000000000000000 DUP2 MSTORE PUSH1 0x4 ADD PUSH2 0x787 SWAP1 PUSH2 0x1BAB JUMP JUMPDEST PUSH1 0x40 MLOAD DUP1 SWAP2 SUB SWAP1 REVERT JUMPDEST PUSH1 0x0 PUSH20 0xFFFFFFFFFFFFFFFFFFFFFFFFFFFFFFFFFFFFFFFF AND DUP2 PUSH20 0xFFFFFFFFFFFFFFFFFFFFFFFFFFFFFFFFFFFFFFFF AND EQ ISZERO PUSH2 0x800 JUMPI PUSH1 0x40 MLOAD PUSH32 0x8C379A000000000000000000000000000000000000000000000000000000000 DUP2 MSTORE PUSH1 0x4 ADD PUSH2 0x7F7 SWAP1 PUSH2 0x1B4B JUMP JUMPDEST PUSH1 0x40 MLOAD DUP1 SWAP2 SUB SWAP1 REVERT JUMPDEST ADDRESS PUSH20 0xFFFFFFFFFFFFFFFFFFFFFFFFFFFFFFFFFFFFFFFF AND PUSH4 0xF2FDE38B DUP3 PUSH1 0x40 MLOAD DUP3 PUSH4 0xFFFFFFFF AND PUSH1 0xE0 SHL DUP2 MSTORE PUSH1 0x4 ADD PUSH2 0x839 SWAP2 SWAP1 PUSH2 0x1A26 JUMP JUMPDEST PUSH1 0x0 PUSH1 0x40 MLOAD DUP1 DUP4 SUB DUP2 PUSH1 0x0 DUP8 DUP1 EXTCODESIZE ISZERO DUP1 ISZERO PUSH2 0x853 JUMPI PUSH1 0x0 DUP1 REVERT JUMPDEST POP GAS CALL ISZERO DUP1 ISZERO PUSH2 0x867 JUMPI RETURNDATASIZE PUSH1 0x0 DUP1 RETURNDATACOPY RETURNDATASIZE PUSH1 0x0 REVERT JUMPDEST POP POP POP POP NUMBER PUSH1 0xE DUP2 SWAP1 SSTORE POP PUSH1 0x1 PUSH1 0x7 PUSH1 0x0 PUSH2 0x100 EXP DUP2 SLOAD DUP2 PUSH1 0xFF MUL NOT AND SWAP1 DUP4 PUSH1 0x4 DUP2 GT ISZERO PUSH2 0x891 JUMPI INVALID JUMPDEST MUL OR SWAP1 SSTORE POP POP JUMP JUMPDEST PUSH1 0x15 DUP1 SLOAD PUSH1 0x1 DUP2 PUSH1 0x1 AND ISZERO PUSH2 0x100 MUL SUB AND PUSH1 0x2 SWAP1 DIV DUP1 PUSH1 0x1F ADD PUSH1 0x20 DUP1 SWAP2 DIV MUL PUSH1 0x20 ADD PUSH1 0x40 MLOAD SWAP1 DUP2 ADD PUSH1 0x40 MSTORE DUP1 SWAP3 SWAP2 SWAP1 DUP2 DUP2 MSTORE PUSH1 0x20 ADD DUP3 DUP1 SLOAD PUSH1 0x1 DUP2 PUSH1 0x1 AND ISZERO PUSH2 0x100 MUL SUB AND PUSH1 0x2 SWAP1 DIV DUP1 ISZERO PUSH2 0x92F JUMPI DUP1 PUSH1 0x1F LT PUSH2 0x904 JUMPI PUSH2 0x100 DUP1 DUP4 SLOAD DIV MUL DUP4 MSTORE SWAP2 PUSH1 0x20 ADD SWAP2 PUSH2 0x92F JUMP JUMPDEST DUP3 ADD SWAP2 SWAP1 PUSH1 0x0 MSTORE PUSH1 0x20 PUSH1 0x0 KECCAK256 SWAP1 JUMPDEST DUP2 SLOAD DUP2 MSTORE SWAP1 PUSH1 0x1 ADD SWAP1 PUSH1 0x20 ADD DUP1 DUP4 GT PUSH2 0x912 JUMPI DUP3 SWAP1 SUB PUSH1 0x1F AND DUP3 ADD SWAP2 JUMPDEST POP POP POP POP POP DUP2 JUMP JUMPDEST PUSH1 0x0 PUSH1 0x13 PUSH1 0x0 SWAP1 SLOAD SWAP1 PUSH2 0x100 EXP SWAP1 DIV PUSH20 0xFFFFFFFFFFFFFFFFFFFFFFFFFFFFFFFFFFFFFFFF AND PUSH20 0xFFFFFFFFFFFFFFFFFFFFFFFFFFFFFFFFFFFFFFFF AND PUSH1 0x17 PUSH1 0x0 SWAP1 SLOAD SWAP1 PUSH2 0x100 EXP SWAP1 DIV PUSH20 0xFFFFFFFFFFFFFFFFFFFFFFFFFFFFFFFFFFFFFFFF AND PUSH20 0xFFFFFFFFFFFFFFFFFFFFFFFFFFFFFFFFFFFFFFFF AND EQ ISZERO PUSH2 0x9BB JUMPI PUSH1 0x10 SLOAD SWAP1 POP PUSH2 0x9BF JUMP JUMPDEST SELFBALANCE SWAP1 POP JUMPDEST SWAP1 JUMP JUMPDEST PUSH1 0x12 PUSH1 0x0 SWAP1 SLOAD SWAP1 PUSH2 0x100 EXP SWAP1 DIV PUSH20 0xFFFFFFFFFFFFFFFFFFFFFFFFFFFFFFFFFFFFFFFF AND PUSH20 0xFFFFFFFFFFFFFFFFFFFFFFFFFFFFFFFFFFFFFFFF AND CALLER PUSH20 0xFFFFFFFFFFFFFFFFFFFFFFFFFFFFFFFFFFFFFFFF AND EQ PUSH2 0xA52 JUMPI PUSH1 0x40 MLOAD PUSH32 0x8C379A000000000000000000000000000000000000000000000000000000000 DUP2 MSTORE PUSH1 0x4 ADD PUSH2 0xA49 SWAP1 PUSH2 0x1B4B JUMP JUMPDEST PUSH1 0x40 MLOAD DUP1 SWAP2 SUB SWAP1 REVERT JUMPDEST PUSH1 0x0 DUP2 LT ISZERO DUP1 ISZERO PUSH2 0xA64 JUMPI POP PUSH1 0x4 DUP2 GT ISZERO JUMPDEST PUSH2 0xAA3 JUMPI PUSH1 0x40 MLOAD PUSH32 0x8C379A000000000000000000000000000000000000000000000000000000000 DUP2 MSTORE PUSH1 0x4 ADD PUSH2 0xA9A SWAP1 PUSH2 0x1B8B JUMP JUMPDEST PUSH1 0x40 MLOAD DUP1 SWAP2 SUB SWAP1 REVERT JUMPDEST PUSH1 0x7 PUSH1 0x0 SWAP1 SLOAD SWAP1 PUSH2 0x100 EXP SWAP1 DIV PUSH1 0xFF AND PUSH1 0x4 DUP2 GT ISZERO PUSH2 0xABE JUMPI INVALID JUMPDEST DUP2 EQ ISZERO PUSH2 0xB00 JUMPI PUSH1 0x40 MLOAD PUSH32 0x8C379A000000000000000000000000000000000000000000000000000000000 DUP2 MSTORE PUSH1 0x4 ADD PUSH2 0xAF7 SWAP1 PUSH2 0x1BEB JUMP JUMPDEST PUSH1 0x40 MLOAD DUP1 SWAP2 SUB SWAP1 REVERT JUMPDEST DUP1 PUSH1 0x4 DUP2 GT ISZERO PUSH2 0xB0C JUMPI INVALID JUMPDEST PUSH1 0x7 PUSH1 0x0 PUSH2 0x100 EXP DUP2 SLOAD DUP2 PUSH1 0xFF MUL NOT AND SWAP1 DUP4 PUSH1 0x4 DUP2 GT ISZERO PUSH2 0xB29 JUMPI INVALID JUMPDEST MUL OR SWAP1 SSTORE POP POP JUMP JUMPDEST PUSH2 0xB39 PUSH2 0x14B0 JUMP JUMPDEST PUSH20 0xFFFFFFFFFFFFFFFFFFFFFFFFFFFFFFFFFFFFFFFF AND PUSH1 0x0 DUP1 SLOAD SWAP1 PUSH2 0x100 EXP SWAP1 DIV PUSH20 0xFFFFFFFFFFFFFFFFFFFFFFFFFFFFFFFFFFFFFFFF AND PUSH20 0xFFFFFFFFFFFFFFFFFFFFFFFFFFFFFFFFFFFFFFFF AND EQ PUSH2 0xBC6 JUMPI PUSH1 0x40 MLOAD PUSH32 0x8C379A000000000000000000000000000000000000000000000000000000000 DUP2 MSTORE PUSH1 0x4 ADD PUSH2 0xBBD SWAP1 PUSH2 0x1BAB JUMP JUMPDEST PUSH1 0x40 MLOAD DUP1 SWAP2 SUB SWAP1 REVERT JUMPDEST PUSH1 0x0 PUSH20 0xFFFFFFFFFFFFFFFFFFFFFFFFFFFFFFFFFFFFFFFF AND PUSH1 0x0 DUP1 SLOAD SWAP1 PUSH2 0x100 EXP SWAP1 DIV PUSH20 0xFFFFFFFFFFFFFFFFFFFFFFFFFFFFFFFFFFFFFFFF AND PUSH20 0xFFFFFFFFFFFFFFFFFFFFFFFFFFFFFFFFFFFFFFFF AND PUSH32 0x8BE0079C531659141344CD1FD0A4F28419497F9722A3DAAFE3B4186F6B6457E0 PUSH1 0x40 MLOAD PUSH1 0x40 MLOAD DUP1 SWAP2 SUB SWAP1 LOG3 PUSH1 0x0 DUP1 PUSH1 0x0 PUSH2 0x100 EXP DUP2 SLOAD DUP2 PUSH20 0xFFFFFFFFFFFFFFFFFFFFFFFFFFFFFFFFFFFFFFFF MUL NOT AND SWAP1 DUP4 PUSH20 0xFFFFFFFFFFFFFFFFFFFFFFFFFFFFFFFFFFFFFFFF AND MUL OR SWAP1 SSTORE POP JUMP JUMPDEST PUSH1 0x8 DUP1 SLOAD PUSH1 0x1 DUP2 PUSH1 0x1 AND ISZERO PUSH2 0x100 MUL SUB AND PUSH1 0x2 SWAP1 DIV DUP1 PUSH1 0x1F ADD PUSH1 0x20 DUP1 SWAP2 DIV MUL PUSH1 0x20 ADD PUSH1 0x40 MLOAD SWAP1 DUP2 ADD PUSH1 0x40 MSTORE DUP1 SWAP3 SWAP2 SWAP1 DUP2 DUP2 MSTORE PUSH1 0x20 ADD DUP3 DUP1 SLOAD PUSH1 0x1 DUP2 PUSH1 0x1 AND ISZERO PUSH2 0x100 MUL SUB AND PUSH1 0x2 SWAP1 DIV DUP1 ISZERO PUSH2 0xD1A JUMPI DUP1 PUSH1 0x1F LT PUSH2 0xCEF JUMPI PUSH2 0x100 DUP1 DUP4 SLOAD DIV MUL DUP4 MSTORE SWAP2 PUSH1 0x20 ADD SWAP2 PUSH2 0xD1A JUMP JUMPDEST DUP3 ADD SWAP2 SWAP1 PUSH1 0x0 MSTORE PUSH1 0x20 PUSH1 0x0 KECCAK256 SWAP1 JUMPDEST DUP2 SLOAD DUP2 MSTORE SWAP1 PUSH1 0x1 ADD SWAP1 PUSH1 0x20 ADD DUP1 DUP4 GT PUSH2 0xCFD JUMPI DUP3 SWAP1 SUB PUSH1 0x1F AND DUP3 ADD SWAP2 JUMPDEST POP POP POP POP POP DUP2 JUMP JUMPDEST PUSH1 0xF SLOAD DUP2 JUMP JUMPDEST PUSH1 0x0 DUP1 PUSH1 0x0 SWAP1 SLOAD SWAP1 PUSH2 0x100 EXP SWAP1 DIV PUSH20 0xFFFFFFFFFFFFFFFFFFFFFFFFFFFFFFFFFFFFFFFF AND SWAP1 POP SWAP1 JUMP JUMPDEST PUSH2 0xD59 PUSH2 0x14B0 JUMP JUMPDEST PUSH20 0xFFFFFFFFFFFFFFFFFFFFFFFFFFFFFFFFFFFFFFFF AND PUSH1 0x0 DUP1 SLOAD SWAP1 PUSH2 0x100 EXP SWAP1 DIV PUSH20 0xFFFFFFFFFFFFFFFFFFFFFFFFFFFFFFFFFFFFFFFF AND PUSH20 0xFFFFFFFFFFFFFFFFFFFFFFFFFFFFFFFFFFFFFFFF AND EQ PUSH2 0xDE6 JUMPI PUSH1 0x40 MLOAD PUSH32 0x8C379A000000000000000000000000000000000000000000000000000000000 DUP2 MSTORE PUSH1 0x4 ADD PUSH2 0xDDD SWAP1 PUSH2 0x1BAB JUMP JUMPDEST PUSH1 0x40 MLOAD DUP1 SWAP2 SUB SWAP1 REVERT JUMPDEST PUSH1 0x1 PUSH1 0x4 DUP2 GT ISZERO PUSH2 0xDF3 JUMPI INVALID JUMPDEST PUSH1 0x7 PUSH1 0x0 SWAP1 SLOAD SWAP1 PUSH2 0x100 EXP SWAP1 DIV PUSH1 0xFF AND PUSH1 0x4 DUP2 GT ISZERO PUSH2 0xE0E JUMPI INVALID JUMPDEST EQ PUSH2 0xE4E JUMPI PUSH1 0x40 MLOAD PUSH32 0x8C379A000000000000000000000000000000000000000000000000000000000 DUP2 MSTORE PUSH1 0x4 ADD PUSH2 0xE45 SWAP1 PUSH2 0x1B6B JUMP JUMPDEST PUSH1 0x40 MLOAD DUP1 SWAP2 SUB SWAP1 REVERT JUMPDEST NUMBER PUSH1 0xF DUP2 SWAP1 SSTORE POP PUSH1 0x2 PUSH1 0x7 PUSH1 0x0 PUSH2 0x100 EXP DUP2 SLOAD DUP2 PUSH1 0xFF MUL NOT AND SWAP1 DUP4 PUSH1 0x4 DUP2 GT ISZERO PUSH2 0xE74 JUMPI INVALID JUMPDEST MUL OR SWAP1 SSTORE POP JUMP JUMPDEST PUSH1 0xB SLOAD DUP2 JUMP JUMPDEST PUSH1 0xE SLOAD DUP2 JUMP JUMPDEST PUSH1 0x13 PUSH1 0x0 SWAP1 SLOAD SWAP1 PUSH2 0x100 EXP SWAP1 DIV PUSH20 0xFFFFFFFFFFFFFFFFFFFFFFFFFFFFFFFFFFFFFFFF AND PUSH20 0xFFFFFFFFFFFFFFFFFFFFFFFFFFFFFFFFFFFFFFFF AND PUSH1 0x17 PUSH1 0x0 SWAP1 SLOAD SWAP1 PUSH2 0x100 EXP SWAP1 DIV PUSH20 0xFFFFFFFFFFFFFFFFFFFFFFFFFFFFFFFFFFFFFFFF AND PUSH20 0xFFFFFFFFFFFFFFFFFFFFFFFFFFFFFFFFFFFFFFFF AND EQ ISZERO PUSH2 0x10FC JUMPI DUP1 PUSH1 0x17 PUSH1 0x0 SWAP1 SLOAD SWAP1 PUSH2 0x100 EXP SWAP1 DIV PUSH20 0xFFFFFFFFFFFFFFFFFFFFFFFFFFFFFFFFFFFFFFFF AND PUSH20 0xFFFFFFFFFFFFFFFFFFFFFFFFFFFFFFFFFFFFFFFF AND PUSH4 0x70A08231 CALLER PUSH1 0x40 MLOAD DUP3 PUSH4 0xFFFFFFFF AND PUSH1 0xE0 SHL DUP2 MSTORE PUSH1 0x4 ADD PUSH2 0xF5B SWAP2 SWAP1 PUSH2 0x1A41 JUMP JUMPDEST PUSH1 0x20 PUSH1 0x40 MLOAD DUP1 DUP4 SUB DUP2 DUP7 DUP1 EXTCODESIZE ISZERO DUP1 ISZERO PUSH2 0xF73 JUMPI PUSH1 0x0 DUP1 REVERT JUMPDEST POP GAS STATICCALL ISZERO DUP1 ISZERO PUSH2 0xF87 JUMPI RETURNDATASIZE PUSH1 0x0 DUP1 RETURNDATACOPY RETURNDATASIZE PUSH1 0x0 REVERT JUMPDEST POP POP POP POP PUSH1 0x40 MLOAD RETURNDATASIZE PUSH1 0x1F NOT PUSH1 0x1F DUP3 ADD AND DUP3 ADD DUP1 PUSH1 0x40 MSTORE POP DUP2 ADD SWAP1 PUSH2 0xFAB SWAP2 SWAP1 PUSH2 0x16A1 JUMP JUMPDEST LT ISZERO PUSH2 0xFEC JUMPI PUSH1 0x40 MLOAD PUSH32 0x8C379A000000000000000000000000000000000000000000000000000000000 DUP2 MSTORE PUSH1 0x4 ADD PUSH2 0xFE3 SWAP1 PUSH2 0x1BCB JUMP JUMPDEST PUSH1 0x40 MLOAD DUP1 SWAP2 SUB SWAP1 REVERT JUMPDEST PUSH1 0x17 PUSH1 0x0 SWAP1 SLOAD SWAP1 PUSH2 0x100 EXP SWAP1 DIV PUSH20 0xFFFFFFFFFFFFFFFFFFFFFFFFFFFFFFFFFFFFFFFF AND PUSH20 0xFFFFFFFFFFFFFFFFFFFFFFFFFFFFFFFFFFFFFFFF AND PUSH4 0x23B872DD CALLER ADDRESS DUP5 PUSH1 0x40 MLOAD DUP5 PUSH4 0xFFFFFFFF AND PUSH1 0xE0 SHL DUP2 MSTORE PUSH1 0x4 ADD PUSH2 0x104B SWAP4 SWAP3 SWAP2 SWAP1 PUSH2 0x1A5C JUMP JUMPDEST PUSH1 0x20 PUSH1 0x40 MLOAD DUP1 DUP4 SUB DUP2 PUSH1 0x0 DUP8 DUP1 EXTCODESIZE ISZERO DUP1 ISZERO PUSH2 0x1065 JUMPI PUSH1 0x0 DUP1 REVERT JUMPDEST POP GAS CALL ISZERO DUP1 ISZERO PUSH2 0x1079 JUMPI RETURNDATASIZE PUSH1 0x0 DUP1 RETURNDATACOPY RETURNDATASIZE PUSH1 0x0 REVERT JUMPDEST POP POP POP POP PUSH1 0x40 MLOAD RETURNDATASIZE PUSH1 0x1F NOT PUSH1 0x1F DUP3 ADD AND DUP3 ADD DUP1 PUSH1 0x40 MSTORE POP DUP2 ADD SWAP1 PUSH2 0x109D SWAP2 SWAP1 PUSH2 0x1626 JUMP JUMPDEST POP PUSH2 0x10B3 DUP2 PUSH1 0x10 SLOAD PUSH2 0x14B8 SWAP1 SWAP2 SWAP1 PUSH4 0xFFFFFFFF AND JUMP JUMPDEST PUSH1 0x10 DUP2 SWAP1 SSTORE POP NUMBER PUSH1 0xD DUP2 SWAP1 SSTORE POP PUSH32 0x3F478372607B68E147B903A0B92F830C8D6468755DC7AC8AC400B95F3D987E4F DUP2 PUSH1 0x40 MLOAD PUSH2 0x10EF SWAP2 SWAP1 PUSH2 0x1C0B JUMP JUMPDEST PUSH1 0x40 MLOAD DUP1 SWAP2 SUB SWAP1 LOG1 PUSH2 0x1137 JUMP JUMPDEST PUSH1 0x40 MLOAD PUSH32 0x8C379A000000000000000000000000000000000000000000000000000000000 DUP2 MSTORE PUSH1 0x4 ADD PUSH2 0x112E SWAP1 PUSH2 0x1B2B JUMP JUMPDEST PUSH1 0x40 MLOAD DUP1 SWAP2 SUB SWAP1 REVERT JUMPDEST POP JUMP JUMPDEST PUSH1 0x12 PUSH1 0x0 SWAP1 SLOAD SWAP1 PUSH2 0x100 EXP SWAP1 DIV PUSH20 0xFFFFFFFFFFFFFFFFFFFFFFFFFFFFFFFFFFFFFFFF AND PUSH20 0xFFFFFFFFFFFFFFFFFFFFFFFFFFFFFFFFFFFFFFFF AND CALLER PUSH20 0xFFFFFFFFFFFFFFFFFFFFFFFFFFFFFFFFFFFFFFFF AND EQ PUSH2 0x11CA JUMPI PUSH1 0x40 MLOAD PUSH32 0x8C379A000000000000000000000000000000000000000000000000000000000 DUP2 MSTORE PUSH1 0x4 ADD PUSH2 0x11C1 SWAP1 PUSH2 0x1B4B JUMP JUMPDEST PUSH1 0x40 MLOAD DUP1 SWAP2 SUB SWAP1 REVERT JUMPDEST DUP1 PUSH1 0x1 PUSH1 0x0 DUP3 ADD MLOAD DUP2 PUSH1 0x0 ADD SSTORE PUSH1 0x20 DUP3 ADD MLOAD DUP2 PUSH1 0x1 ADD SSTORE PUSH1 0x40 DUP3 ADD MLOAD DUP2 PUSH1 0x2 ADD SSTORE PUSH1 0x60 DUP3 ADD MLOAD DUP2 PUSH1 0x3 ADD SSTORE PUSH1 0x80 DUP3 ADD MLOAD DUP2 PUSH1 0x4 ADD SSTORE PUSH1 0xA0 DUP3 ADD MLOAD DUP2 PUSH1 0x5 ADD SSTORE SWAP1 POP POP POP JUMP JUMPDEST PUSH1 0x16 SLOAD DUP2 JUMP JUMPDEST DUP1 PUSH1 0x13 PUSH1 0x0 PUSH2 0x100 EXP DUP2 SLOAD DUP2 PUSH20 0xFFFFFFFFFFFFFFFFFFFFFFFFFFFFFFFFFFFFFFFF MUL NOT AND SWAP1 DUP4 PUSH20 0xFFFFFFFFFFFFFFFFFFFFFFFFFFFFFFFFFFFFFFFF AND MUL OR SWAP1 SSTORE POP PUSH1 0x13 PUSH1 0x0 SWAP1 SLOAD SWAP1 PUSH2 0x100 EXP SWAP1 DIV PUSH20 0xFFFFFFFFFFFFFFFFFFFFFFFFFFFFFFFFFFFFFFFF AND PUSH1 0x17 PUSH1 0x0 PUSH2 0x100 EXP DUP2 SLOAD DUP2 PUSH20 0xFFFFFFFFFFFFFFFFFFFFFFFFFFFFFFFFFFFFFFFF MUL NOT AND SWAP1 DUP4 PUSH20 0xFFFFFFFFFFFFFFFFFFFFFFFFFFFFFFFFFFFFFFFF AND MUL OR SWAP1 SSTORE POP POP JUMP JUMPDEST PUSH1 0x11 SLOAD DUP2 JUMP JUMPDEST PUSH1 0xA SLOAD DUP2 JUMP JUMPDEST PUSH2 0x12D0 PUSH2 0x14B0 JUMP JUMPDEST PUSH20 0xFFFFFFFFFFFFFFFFFFFFFFFFFFFFFFFFFFFFFFFF AND PUSH1 0x0 DUP1 SLOAD SWAP1 PUSH2 0x100 EXP SWAP1 DIV PUSH20 0xFFFFFFFFFFFFFFFFFFFFFFFFFFFFFFFFFFFFFFFF AND PUSH20 0xFFFFFFFFFFFFFFFFFFFFFFFFFFFFFFFFFFFFFFFF AND EQ PUSH2 0x135D JUMPI PUSH1 0x40 MLOAD PUSH32 0x8C379A000000000000000000000000000000000000000000000000000000000 DUP2 MSTORE PUSH1 0x4 ADD PUSH2 0x1354 SWAP1 PUSH2 0x1BAB JUMP JUMPDEST PUSH1 0x40 MLOAD DUP1 SWAP2 SUB SWAP1 REVERT JUMPDEST PUSH1 0x0 PUSH20 0xFFFFFFFFFFFFFFFFFFFFFFFFFFFFFFFFFFFFFFFF AND DUP2 PUSH20 0xFFFFFFFFFFFFFFFFFFFFFFFFFFFFFFFFFFFFFFFF AND EQ ISZERO PUSH2 0x13CD JUMPI PUSH1 0x40 MLOAD PUSH32 0x8C379A000000000000000000000000000000000000000000000000000000000 DUP2 MSTORE PUSH1 0x4 ADD PUSH2 0x13C4 SWAP1 PUSH2 0x1AEB JUMP JUMPDEST PUSH1 0x40 MLOAD DUP1 SWAP2 SUB SWAP1 REVERT JUMPDEST DUP1 PUSH20 0xFFFFFFFFFFFFFFFFFFFFFFFFFFFFFFFFFFFFFFFF AND PUSH1 0x0 DUP1 SLOAD SWAP1 PUSH2 0x100 EXP SWAP1 DIV PUSH20 0xFFFFFFFFFFFFFFFFFFFFFFFFFFFFFFFFFFFFFFFF AND PUSH20 0xFFFFFFFFFFFFFFFFFFFFFFFFFFFFFFFFFFFFFFFF AND PUSH32 0x8BE0079C531659141344CD1FD0A4F28419497F9722A3DAAFE3B4186F6B6457E0 PUSH1 0x40 MLOAD PUSH1 0x40 MLOAD DUP1 SWAP2 SUB SWAP1 LOG3 DUP1 PUSH1 0x0 DUP1 PUSH2 0x100 EXP DUP2 SLOAD DUP2 PUSH20 0xFFFFFFFFFFFFFFFFFFFFFFFFFFFFFFFFFFFFFFFF MUL NOT AND SWAP1 DUP4 PUSH20 0xFFFFFFFFFFFFFFFFFFFFFFFFFFFFFFFFFFFFFFFF AND MUL OR SWAP1 SSTORE POP POP JUMP JUMPDEST PUSH1 0x13 PUSH1 0x0 SWAP1 SLOAD SWAP1 PUSH2 0x100 EXP SWAP1 DIV PUSH20 0xFFFFFFFFFFFFFFFFFFFFFFFFFFFFFFFFFFFFFFFF AND DUP2 JUMP JUMPDEST PUSH1 0x0 CALLER SWAP1 POP SWAP1 JUMP JUMPDEST PUSH1 0x0 DUP1 DUP3 DUP5 ADD SWAP1 POP DUP4 DUP2 LT ISZERO PUSH2 0x1503 JUMPI PUSH1 0x40 MLOAD PUSH32 0x8C379A000000000000000000000000000000000000000000000000000000000 DUP2 MSTORE PUSH1 0x4 ADD PUSH2 0x14FA SWAP1 PUSH2 0x1B0B JUMP JUMPDEST PUSH1 0x40 MLOAD DUP1 SWAP2 SUB SWAP1 REVERT JUMPDEST DUP1 SWAP2 POP POP SWAP3 SWAP2 POP POP JUMP JUMPDEST PUSH1 0x0 DUP2 CALLDATALOAD SWAP1 POP PUSH2 0x151C DUP2 PUSH2 0x1DE8 JUMP JUMPDEST SWAP3 SWAP2 POP POP JUMP JUMPDEST PUSH1 0x0 DUP2 MLOAD SWAP1 POP PUSH2 0x1531 DUP2 PUSH2 0x1DFF JUMP JUMPDEST SWAP3 SWAP2 POP POP JUMP JUMPDEST PUSH1 0x0 PUSH1 0xC0 DUP3 DUP5 SUB SLT ISZERO PUSH2 0x1549 JUMPI PUSH1 0x0 DUP1 REVERT JUMPDEST PUSH2 0x1553 PUSH1 0xC0 PUSH2 0x1C87 JUMP JUMPDEST SWAP1 POP PUSH1 0x0 PUSH2 0x1563 DUP5 DUP3 DUP6 ADD PUSH2 0x15D3 JUMP JUMPDEST PUSH1 0x0 DUP4 ADD MSTORE POP PUSH1 0x20 PUSH2 0x1577 DUP5 DUP3 DUP6 ADD PUSH2 0x15D3 JUMP JUMPDEST PUSH1 0x20 DUP4 ADD MSTORE POP PUSH1 0x40 PUSH2 0x158B DUP5 DUP3 DUP6 ADD PUSH2 0x15D3 JUMP JUMPDEST PUSH1 0x40 DUP4 ADD MSTORE POP PUSH1 0x60 PUSH2 0x159F DUP5 DUP3 DUP6 ADD PUSH2 0x15D3 JUMP JUMPDEST PUSH1 0x60 DUP4 ADD MSTORE POP PUSH1 0x80 PUSH2 0x15B3 DUP5 DUP3 DUP6 ADD PUSH2 0x15D3 JUMP JUMPDEST PUSH1 0x80 DUP4 ADD MSTORE POP PUSH1 0xA0 PUSH2 0x15C7 DUP5 DUP3 DUP6 ADD PUSH2 0x15D3 JUMP JUMPDEST PUSH1 0xA0 DUP4 ADD MSTORE POP SWAP3 SWAP2 POP POP JUMP JUMPDEST PUSH1 0x0 DUP2 CALLDATALOAD SWAP1 POP PUSH2 0x15E2 DUP2 PUSH2 0x1E16 JUMP JUMPDEST SWAP3 SWAP2 POP POP JUMP JUMPDEST PUSH1 0x0 DUP2 MLOAD SWAP1 POP PUSH2 0x15F7 DUP2 PUSH2 0x1E16 JUMP JUMPDEST SWAP3 SWAP2 POP POP JUMP JUMPDEST PUSH1 0x0 PUSH1 0x20 DUP3 DUP5 SUB SLT ISZERO PUSH2 0x160F JUMPI PUSH1 0x0 DUP1 REVERT JUMPDEST PUSH1 0x0 PUSH2 0x161D DUP5 DUP3 DUP6 ADD PUSH2 0x150D JUMP JUMPDEST SWAP2 POP POP SWAP3 SWAP2 POP POP JUMP JUMPDEST PUSH1 0x0 PUSH1 0x20 DUP3 DUP5 SUB SLT ISZERO PUSH2 0x1638 JUMPI PUSH1 0x0 DUP1 REVERT JUMPDEST PUSH1 0x0 PUSH2 0x1646 DUP5 DUP3 DUP6 ADD PUSH2 0x1522 JUMP JUMPDEST SWAP2 POP POP SWAP3 SWAP2 POP POP JUMP JUMPDEST PUSH1 0x0 PUSH1 0xC0 DUP3 DUP5 SUB SLT ISZERO PUSH2 0x1661 JUMPI PUSH1 0x0 DUP1 REVERT JUMPDEST PUSH1 0x0 PUSH2 0x166F DUP5 DUP3 DUP6 ADD PUSH2 0x1537 JUMP JUMPDEST SWAP2 POP POP SWAP3 SWAP2 POP POP JUMP JUMPDEST PUSH1 0x0 PUSH1 0x20 DUP3 DUP5 SUB SLT ISZERO PUSH2 0x168A JUMPI PUSH1 0x0 DUP1 REVERT JUMPDEST PUSH1 0x0 PUSH2 0x1698 DUP5 DUP3 DUP6 ADD PUSH2 0x15D3 JUMP JUMPDEST SWAP2 POP POP SWAP3 SWAP2 POP POP JUMP JUMPDEST PUSH1 0x0 PUSH1 0x20 DUP3 DUP5 SUB SLT ISZERO PUSH2 0x16B3 JUMPI PUSH1 0x0 DUP1 REVERT JUMPDEST PUSH1 0x0 PUSH2 0x16C1 DUP5 DUP3 DUP6 ADD PUSH2 0x15E8 JUMP JUMPDEST SWAP2 POP POP SWAP3 SWAP2 POP POP JUMP JUMPDEST PUSH2 0x16D3 DUP2 PUSH2 0x1D2B JUMP JUMPDEST DUP3 MSTORE POP POP JUMP JUMPDEST PUSH2 0x16E2 DUP2 PUSH2 0x1CD0 JUMP JUMPDEST DUP3 MSTORE POP POP JUMP JUMPDEST PUSH2 0x16F1 DUP2 PUSH2 0x1D3D JUMP JUMPDEST DUP3 MSTORE POP POP JUMP JUMPDEST PUSH2 0x1700 DUP2 PUSH2 0x1D61 JUMP JUMPDEST DUP3 MSTORE POP POP JUMP JUMPDEST PUSH1 0x0 PUSH2 0x1711 DUP3 PUSH2 0x1CB4 JUMP JUMPDEST PUSH2 0x171B DUP2 DUP6 PUSH2 0x1CBF JUMP JUMPDEST SWAP4 POP PUSH2 0x172B DUP2 DUP6 PUSH1 0x20 DUP7 ADD PUSH2 0x1D97 JUMP JUMPDEST PUSH2 0x1734 DUP2 PUSH2 0x1DCA JUMP JUMPDEST DUP5 ADD SWAP2 POP POP SWAP3 SWAP2 POP POP JUMP JUMPDEST PUSH1 0x0 PUSH2 0x174C PUSH1 0x26 DUP4 PUSH2 0x1CBF JUMP JUMPDEST SWAP2 POP PUSH32 0x4F776E61626C653A206E6577206F776E657220697320746865207A65726F2061 PUSH1 0x0 DUP4 ADD MSTORE PUSH32 0x6464726573730000000000000000000000000000000000000000000000000000 PUSH1 0x20 DUP4 ADD MSTORE PUSH1 0x40 DUP3 ADD SWAP1 POP SWAP2 SWAP1 POP JUMP JUMPDEST PUSH1 0x0 PUSH2 0x17B2 PUSH1 0x1B DUP4 PUSH2 0x1CBF JUMP JUMPDEST SWAP2 POP PUSH32 0x536166654D6174683A206164646974696F6E206F766572666C6F770000000000 PUSH1 0x0 DUP4 ADD MSTORE PUSH1 0x20 DUP3 ADD SWAP1 POP SWAP2 SWAP1 POP JUMP JUMPDEST PUSH1 0x0 PUSH2 0x17F2 PUSH1 0x12 DUP4 PUSH2 0x1CBF JUMP JUMPDEST SWAP2 POP PUSH32 0x4E6F7420616363657074656420746F6B656E0000000000000000000000000000 PUSH1 0x0 DUP4 ADD MSTORE PUSH1 0x20 DUP3 ADD SWAP1 POP SWAP2 SWAP1 POP JUMP JUMPDEST PUSH1 0x0 PUSH2 0x1832 PUSH1 0x13 DUP4 PUSH2 0x1CBF JUMP JUMPDEST SWAP2 POP PUSH32 0x41646472657373206E6F7420616C6C6F77656400000000000000000000000000 PUSH1 0x0 DUP4 ADD MSTORE PUSH1 0x20 DUP3 ADD SWAP1 POP SWAP2 SWAP1 POP JUMP JUMPDEST PUSH1 0x0 PUSH2 0x1872 PUSH1 0x33 DUP4 PUSH2 0x1CBF JUMP JUMPDEST SWAP2 POP PUSH32 0x4C6F616E20737461747573206E6F7420636F6D70617469626C65207769746820 PUSH1 0x0 DUP4 ADD MSTORE PUSH32 0x666F7265636C6F73696E6720616374696F6E7300000000000000000000000000 PUSH1 0x20 DUP4 ADD MSTORE PUSH1 0x40 DUP3 ADD SWAP1 POP SWAP2 SWAP1 POP JUMP JUMPDEST PUSH1 0x0 PUSH2 0x18D8 PUSH1 0x13 DUP4 PUSH2 0x1CBF JUMP JUMPDEST SWAP2 POP PUSH32 0x4E6577207374617465206E6F742076616C696400000000000000000000000000 PUSH1 0x0 DUP4 ADD MSTORE PUSH1 0x20 DUP3 ADD SWAP1 POP SWAP2 SWAP1 POP JUMP JUMPDEST PUSH1 0x0 PUSH2 0x1918 PUSH1 0x20 DUP4 PUSH2 0x1CBF JUMP JUMPDEST SWAP2 POP PUSH32 0x4F776E61626C653A2063616C6C6572206973206E6F7420746865206F776E6572 PUSH1 0x0 DUP4 ADD MSTORE PUSH1 0x20 DUP3 ADD SWAP1 POP SWAP2 SWAP1 POP JUMP JUMPDEST PUSH1 0x0 PUSH2 0x1958 PUSH1 0x26 DUP4 PUSH2 0x1CBF JUMP JUMPDEST SWAP2 POP PUSH32 0x4E6F7420656E6F756768204A4E5420746F6B656E7320696E2073656E64657220 PUSH1 0x0 DUP4 ADD MSTORE PUSH32 0x77616C6C65740000000000000000000000000000000000000000000000000000 PUSH1 0x20 DUP4 ADD MSTORE PUSH1 0x40 DUP3 ADD SWAP1 POP SWAP2 SWAP1 POP JUMP JUMPDEST PUSH1 0x0 PUSH2 0x19BE PUSH1 0x27 DUP4 PUSH2 0x1CBF JUMP JUMPDEST SWAP2 POP PUSH32 0x4E657720737461747573206973207468652073616D65206C696B652070726573 PUSH1 0x0 DUP4 ADD MSTORE PUSH32 0x656E74206F6E6500000000000000000000000000000000000000000000000000 PUSH1 0x20 DUP4 ADD MSTORE PUSH1 0x40 DUP3 ADD SWAP1 POP SWAP2 SWAP1 POP JUMP JUMPDEST PUSH2 0x1A20 DUP2 PUSH2 0x1D21 JUMP JUMPDEST DUP3 MSTORE POP POP JUMP JUMPDEST PUSH1 0x0 PUSH1 0x20 DUP3 ADD SWAP1 POP PUSH2 0x1A3B PUSH1 0x0 DUP4 ADD DUP5 PUSH2 0x16D9 JUMP JUMPDEST SWAP3 SWAP2 POP POP JUMP JUMPDEST PUSH1 0x0 PUSH1 0x20 DUP3 ADD SWAP1 POP PUSH2 0x1A56 PUSH1 0x0 DUP4 ADD DUP5 PUSH2 0x16CA JUMP JUMPDEST SWAP3 SWAP2 POP POP JUMP JUMPDEST PUSH1 0x0 PUSH1 0x60 DUP3 ADD SWAP1 POP PUSH2 0x1A71 PUSH1 0x0 DUP4 ADD DUP7 PUSH2 0x16CA JUMP JUMPDEST PUSH2 0x1A7E PUSH1 0x20 DUP4 ADD DUP6 PUSH2 0x16D9 JUMP JUMPDEST PUSH2 0x1A8B PUSH1 0x40 DUP4 ADD DUP5 PUSH2 0x1A17 JUMP JUMPDEST SWAP5 SWAP4 POP POP POP POP JUMP JUMPDEST PUSH1 0x0 PUSH1 0x20 DUP3 ADD SWAP1 POP PUSH2 0x1AA8 PUSH1 0x0 DUP4 ADD DUP5 PUSH2 0x16E8 JUMP JUMPDEST SWAP3 SWAP2 POP POP JUMP JUMPDEST PUSH1 0x0 PUSH1 0x20 DUP3 ADD SWAP1 POP PUSH2 0x1AC3 PUSH1 0x0 DUP4 ADD DUP5 PUSH2 0x16F7 JUMP JUMPDEST SWAP3 SWAP2 POP POP JUMP JUMPDEST PUSH1 0x0 PUSH1 0x20 DUP3 ADD SWAP1 POP DUP2 DUP2 SUB PUSH1 0x0 DUP4 ADD MSTORE PUSH2 0x1AE3 DUP2 DUP5 PUSH2 0x1706 JUMP JUMPDEST SWAP1 POP SWAP3 SWAP2 POP POP JUMP JUMPDEST PUSH1 0x0 PUSH1 0x20 DUP3 ADD SWAP1 POP DUP2 DUP2 SUB PUSH1 0x0 DUP4 ADD MSTORE PUSH2 0x1B04 DUP2 PUSH2 0x173F JUMP JUMPDEST SWAP1 POP SWAP2 SWAP1 POP JUMP JUMPDEST PUSH1 0x0 PUSH1 0x20 DUP3 ADD SWAP1 POP DUP2 DUP2 SUB PUSH1 0x0 DUP4 ADD MSTORE PUSH2 0x1B24 DUP2 PUSH2 0x17A5 JUMP JUMPDEST SWAP1 POP SWAP2 SWAP1 POP JUMP JUMPDEST PUSH1 0x0 PUSH1 0x20 DUP3 ADD SWAP1 POP DUP2 DUP2 SUB PUSH1 0x0 DUP4 ADD MSTORE PUSH2 0x1B44 DUP2 PUSH2 0x17E5 JUMP JUMPDEST SWAP1 POP SWAP2 SWAP1 POP JUMP JUMPDEST PUSH1 0x0 PUSH1 0x20 DUP3 ADD SWAP1 POP DUP2 DUP2 SUB PUSH1 0x0 DUP4 ADD MSTORE PUSH2 0x1B64 DUP2 PUSH2 0x1825 JUMP JUMPDEST SWAP1 POP SWAP2 SWAP1 POP JUMP JUMPDEST PUSH1 0x0 PUSH1 0x20 DUP3 ADD SWAP1 POP DUP2 DUP2 SUB PUSH1 0x0 DUP4 ADD MSTORE PUSH2 0x1B84 DUP2 PUSH2 0x1865 JUMP JUMPDEST SWAP1 POP SWAP2 SWAP1 POP JUMP JUMPDEST PUSH1 0x0 PUSH1 0x20 DUP3 ADD SWAP1 POP DUP2 DUP2 SUB PUSH1 0x0 DUP4 ADD MSTORE PUSH2 0x1BA4 DUP2 PUSH2 0x18CB JUMP JUMPDEST SWAP1 POP SWAP2 SWAP1 POP JUMP JUMPDEST PUSH1 0x0 PUSH1 0x20 DUP3 ADD SWAP1 POP DUP2 DUP2 SUB PUSH1 0x0 DUP4 ADD MSTORE PUSH2 0x1BC4 DUP2 PUSH2 0x190B JUMP JUMPDEST SWAP1 POP SWAP2 SWAP1 POP JUMP JUMPDEST PUSH1 0x0 PUSH1 0x20 DUP3 ADD SWAP1 POP DUP2 DUP2 SUB PUSH1 0x0 DUP4 ADD MSTORE PUSH2 0x1BE4 DUP2 PUSH2 0x194B JUMP JUMPDEST SWAP1 POP SWAP2 SWAP1 POP JUMP JUMPDEST PUSH1 0x0 PUSH1 0x20 DUP3 ADD SWAP1 POP DUP2 DUP2 SUB PUSH1 0x0 DUP4 ADD MSTORE PUSH2 0x1C04 DUP2 PUSH2 0x19B1 JUMP JUMPDEST SWAP1 POP SWAP2 SWAP1 POP JUMP JUMPDEST PUSH1 0x0 PUSH1 0x20 DUP3 ADD SWAP1 POP PUSH2 0x1C20 PUSH1 0x0 DUP4 ADD DUP5 PUSH2 0x1A17 JUMP JUMPDEST SWAP3 SWAP2 POP POP JUMP JUMPDEST PUSH1 0x0 PUSH1 0xC0 DUP3 ADD SWAP1 POP PUSH2 0x1C3B PUSH1 0x0 DUP4 ADD DUP10 PUSH2 0x1A17 JUMP JUMPDEST PUSH2 0x1C48 PUSH1 0x20 DUP4 ADD DUP9 PUSH2 0x1A17 JUMP JUMPDEST PUSH2 0x1C55 PUSH1 0x40 DUP4 ADD DUP8 PUSH2 0x1A17 JUMP JUMPDEST PUSH2 0x1C62 PUSH1 0x60 DUP4 ADD DUP7 PUSH2 0x1A17 JUMP JUMPDEST PUSH2 0x1C6F PUSH1 0x80 DUP4 ADD DUP6 PUSH2 0x1A17 JUMP JUMPDEST PUSH2 0x1C7C PUSH1 0xA0 DUP4 ADD DUP5 PUSH2 0x1A17 JUMP JUMPDEST SWAP8 SWAP7 POP POP POP POP POP POP POP JUMP JUMPDEST PUSH1 0x0 PUSH1 0x40 MLOAD SWAP1 POP DUP2 DUP2 ADD DUP2 DUP2 LT PUSH8 0xFFFFFFFFFFFFFFFF DUP3 GT OR ISZERO PUSH2 0x1CAA JUMPI PUSH1 0x0 DUP1 REVERT JUMPDEST DUP1 PUSH1 0x40 MSTORE POP SWAP2 SWAP1 POP JUMP JUMPDEST PUSH1 0x0 DUP2 MLOAD SWAP1 POP SWAP2 SWAP1 POP JUMP JUMPDEST PUSH1 0x0 DUP3 DUP3 MSTORE PUSH1 0x20 DUP3 ADD SWAP1 POP SWAP3 SWAP2 POP POP JUMP JUMPDEST PUSH1 0x0 PUSH2 0x1CDB DUP3 PUSH2 0x1D01 JUMP JUMPDEST SWAP1 POP SWAP2 SWAP1 POP JUMP JUMPDEST PUSH1 0x0 DUP2 ISZERO ISZERO SWAP1 POP SWAP2 SWAP1 POP JUMP JUMPDEST PUSH1 0x0 DUP2 SWAP1 POP PUSH2 0x1CFC DUP3 PUSH2 0x1DDB JUMP JUMPDEST SWAP2 SWAP1 POP JUMP JUMPDEST PUSH1 0x0 PUSH20 0xFFFFFFFFFFFFFFFFFFFFFFFFFFFFFFFFFFFFFFFF DUP3 AND SWAP1 POP SWAP2 SWAP1 POP JUMP JUMPDEST PUSH1 0x0 DUP2 SWAP1 POP SWAP2 SWAP1 POP JUMP JUMPDEST PUSH1 0x0 PUSH2 0x1D36 DUP3 PUSH2 0x1D73 JUMP JUMPDEST SWAP1 POP SWAP2 SWAP1 POP JUMP JUMPDEST PUSH1 0x0 PUSH2 0x1D48 DUP3 PUSH2 0x1D4F JUMP JUMPDEST SWAP1 POP SWAP2 SWAP1 POP JUMP JUMPDEST PUSH1 0x0 PUSH2 0x1D5A DUP3 PUSH2 0x1D01 JUMP JUMPDEST SWAP1 POP SWAP2 SWAP1 POP JUMP JUMPDEST PUSH1 0x0 PUSH2 0x1D6C DUP3 PUSH2 0x1CEE JUMP JUMPDEST SWAP1 POP SWAP2 SWAP1 POP JUMP JUMPDEST PUSH1 0x0 PUSH2 0x1D7E DUP3 PUSH2 0x1D85 JUMP JUMPDEST SWAP1 POP SWAP2 SWAP1 POP JUMP JUMPDEST PUSH1 0x0 PUSH2 0x1D90 DUP3 PUSH2 0x1D01 JUMP JUMPDEST SWAP1 POP SWAP2 SWAP1 POP JUMP JUMPDEST PUSH1 0x0 JUMPDEST DUP4 DUP2 LT ISZERO PUSH2 0x1DB5 JUMPI DUP1 DUP3 ADD MLOAD DUP2 DUP5 ADD MSTORE PUSH1 0x20 DUP2 ADD SWAP1 POP PUSH2 0x1D9A JUMP JUMPDEST DUP4 DUP2 GT ISZERO PUSH2 0x1DC4 JUMPI PUSH1 0x0 DUP5 DUP5 ADD MSTORE JUMPDEST POP POP POP POP JUMP JUMPDEST PUSH1 0x0 PUSH1 0x1F NOT PUSH1 0x1F DUP4 ADD AND SWAP1 POP SWAP2 SWAP1 POP JUMP JUMPDEST PUSH1 0x5 DUP2 LT PUSH2 0x1DE5 JUMPI INVALID JUMPDEST POP JUMP JUMPDEST PUSH2 0x1DF1 DUP2 PUSH2 0x1CD0 JUMP JUMPDEST DUP2 EQ PUSH2 0x1DFC JUMPI PUSH1 0x0 DUP1 REVERT JUMPDEST POP JUMP JUMPDEST PUSH2 0x1E08 DUP2 PUSH2 0x1CE2 JUMP JUMPDEST DUP2 EQ PUSH2 0x1E13 JUMPI PUSH1 0x0 DUP1 REVERT JUMPDEST POP JUMP JUMPDEST PUSH2 0x1E1F DUP2 PUSH2 0x1D21 JUMP JUMPDEST DUP2 EQ PUSH2 0x1E2A JUMPI PUSH1 0x0 DUP1 REVERT JUMPDEST POP JUMP INVALID LOG2 PUSH5 0x6970667358 0x22 SLT KECCAK256 DUP11 SAR 0xDE 0xA9 NOT CALLVALUE SGT 0xB3 0xB0 PUSH15 0xE915AA33D0407B891EA80F3A8516DF DUP12 RETURNDATACOPY EQ 0xC2 SMOD SWAP15 0xEB PUSH5 0x736F6C6343 STOP MOD 0xC STOP CALLER "},"gasEstimates":{"creation":{"codeDepositCost":"1555800","executionCost":"infinite","totalCost":"infinite"},"external":{"askedBorrowAmount()":"1196","borrowerBalance()":"1197","chosenBorrowedCryptoName()":"infinite","collateralContractAddress()":"1324","creationBlock()":"1175","cryptoFromBorrower()":"1303","cryptoFromLender()":"1325","depositCollateral(uint256)":"infinite","getContractBalance()":"2925","lastDepositBlock()":"1219","lenderAcceptance(address)":"infinite","lenderBalance()":"1173","loanActiveBlock()":"1218","loanForeClosure()":"42902","loanForeclosureBlock()":"1197","loanName()":"infinite","loanParams()":"infinite","loanStatus()":"1307","owner()":"1312","renounceOwnership()":"24402","rpbRate()":"1220","setNewParams((uint256,uint256,uint256,uint256,uint256,uint256))":"infinite","setNewStatus(uint256)":"23226","stableContractAddress()":"1326","startCollateralRatio()":"1196","startPrice()":"1195","testToken(address)":"43114","transferOwnership(address)":"24728"}},"methodIdentifiers":{"askedBorrowAmount()":"e5acc187","borrowerBalance()":"1cbd8380","chosenBorrowedCryptoName()":"68c8d54c","collateralContractAddress()":"fcbbd574","creationBlock()":"17634514","cryptoFromBorrower()":"3cb85225","cryptoFromLender()":"44dc7fbc","depositCollateral(uint256)":"bad4a01f","getContractBalance()":"6f9fb98a","lastDepositBlock()":"2a3d7c81","lenderAcceptance(address)":"5dc334bf","lenderBalance()":"eaf3a62e","loanActiveBlock()":"b2ca1805","loanForeClosure()":"94a83eeb","loanForeclosureBlock()":"8a0dac21","loanName()":"80cc0269","loanParams()":"09e94d98","loanStatus()":"074ca966","owner()":"8da5cb5b","renounceOwnership()":"715018a6","rpbRate()":"0e031a94","setNewParams((uint256,uint256,uint256,uint256,uint256,uint256))":"c6cb6770","setNewStatus(uint256)":"708196ae","stableContractAddress()":"3702e6cb","startCollateralRatio()":"a2df9b1f","startPrice()":"f1a9af89","testToken(address)":"eaea4fc9","transferOwnership(address)":"f2fde38b"}},"storageLayout":{"storage":[{"astId":222,"contract":"JLoansFactory.sol:JLoanTokenPair","label":"_owner","offset":0,"slot":"0","type":"t_address"},{"astId":446,"contract":"JLoansFactory.sol:JLoanTokenPair","label":"loanParams","offset":0,"slot":"1","type":"t_struct(params)412_storage"},{"astId":448,"contract":"JLoansFactory.sol:JLoanTokenPair","label":"loanStatus","offset":0,"slot":"7","type":"t_enum(Status)418"},{"astId":450,"contract":"JLoansFactory.sol:JLoanTokenPair","label":"loanName","offset":0,"slot":"8","type":"t_string_storage"},{"astId":452,"contract":"JLoansFactory.sol:JLoanTokenPair","label":"rpbRate","offset":0,"slot":"9","type":"t_uint256"},{"astId":454,"contract":"JLoansFactory.sol:JLoanTokenPair","label":"startPrice","offset":0,"slot":"10","type":"t_uint256"},{"astId":456,"contract":"JLoansFactory.sol:JLoanTokenPair","label":"startCollateralRatio","offset":0,"slot":"11","type":"t_uint256"},{"astId":458,"contract":"JLoansFactory.sol:JLoanTokenPair","label":"creationBlock","offset":0,"slot":"12","type":"t_uint256"},{"astId":460,"contract":"JLoansFactory.sol:JLoanTokenPair","label":"lastDepositBlock","offset":0,"slot":"13","type":"t_uint256"},{"astId":462,"contract":"JLoansFactory.sol:JLoanTokenPair","label":"loanActiveBlock","offset":0,"slot":"14","type":"t_uint256"},{"astId":464,"contract":"JLoansFactory.sol:JLoanTokenPair","label":"loanForeclosureBlock","offset":0,"slot":"15","type":"t_uint256"},{"astId":466,"contract":"JLoansFactory.sol:JLoanTokenPair","label":"borrowerBalance","offset":0,"slot":"16","type":"t_uint256"},{"astId":468,"contract":"JLoansFactory.sol:JLoanTokenPair","label":"lenderBalance","offset":0,"slot":"17","type":"t_uint256"},{"astId":470,"contract":"JLoansFactory.sol:JLoanTokenPair","label":"factoryAddress","offset":0,"slot":"18","type":"t_address"},{"astId":840,"contract":"JLoansFactory.sol:JLoanTokenPair","label":"collateralContractAddress","offset":0,"slot":"19","type":"t_address"},{"astId":842,"contract":"JLoansFactory.sol:JLoanTokenPair","label":"stableContractAddress","offset":0,"slot":"20","type":"t_address"},{"astId":844,"contract":"JLoansFactory.sol:JLoanTokenPair","label":"chosenBorrowedCryptoName","offset":0,"slot":"21","type":"t_string_storage"},{"astId":846,"contract":"JLoansFactory.sol:JLoanTokenPair","label":"askedBorrowAmount","offset":0,"slot":"22","type":"t_uint256"},{"astId":848,"contract":"JLoansFactory.sol:JLoanTokenPair","label":"cryptoFromBorrower","offset":0,"slot":"23","type":"t_contract(IERC20)399"},{"astId":850,"contract":"JLoansFactory.sol:JLoanTokenPair","label":"cryptoFromLender","offset":0,"slot":"24","type":"t_contract(IERC20)399"},{"astId":852,"contract":"JLoansFactory.sol:JLoanTokenPair","label":"factoryAddress","offset":0,"slot":"25","type":"t_address"}],"types":{"t_address":{"encoding":"inplace","label":"address","numberOfBytes":"20"},"t_contract(IERC20)399":{"encoding":"inplace","label":"contract IERC20","numberOfBytes":"20"},"t_enum(Status)418":{"encoding":"inplace","label":"enum IJLoanCommons.Status","numberOfBytes":"1"},"t_string_storage":{"encoding":"bytes","label":"string","numberOfBytes":"32"},"t_struct(params)412_storage":{"encoding":"inplace","label":"struct IJLoanCommons.params","members":[{"astId":401,"contract":"JLoansFactory.sol:JLoanTokenPair","label":"minRpbRate","offset":0,"slot":"0","type":"t_uint256"},{"astId":403,"contract":"JLoansFactory.sol:JLoanTokenPair","label":"earlySettlementWindow","offset":0,"slot":"1","type":"t_uint256"},{"astId":405,"contract":"JLoansFactory.sol:JLoanTokenPair","label":"foreclosureWindow","offset":0,"slot":"2","type":"t_uint256"},{"astId":407,"contract":"JLoansFactory.sol:JLoanTokenPair","label":"foreclosureRatio","offset":0,"slot":"3","type":"t_uint256"},{"astId":409,"contract":"JLoansFactory.sol:JLoanTokenPair","label":"instantForeclosureRatio","offset":0,"slot":"4","type":"t_uint256"},{"astId":411,"contract":"JLoansFactory.sol:JLoanTokenPair","label":"earlySettlementFee","offset":0,"slot":"5","type":"t_uint256"}],"numberOfBytes":"192"},"t_uint256":{"encoding":"inplace","label":"uint256","numberOfBytes":"32"}}},"userdoc":{"kind":"user","methods":{},"version":1}}