{"abi":[{"inputs":[{"internalType":"address","name":"_jntAddress","type":"address"}],"stateMutability":"nonpayable","type":"constructor"},{"anonymous":false,"inputs":[{"indexed":true,"internalType":"address","name":"sender","type":"address"},{"indexed":true,"internalType":"address","name":"newLoanContract","type":"address"},{"indexed":false,"internalType":"uint256","name":"borrowerLength","type":"uint256"}],"name":"NewLoanCreated","type":"event"},{"anonymous":false,"inputs":[{"indexed":true,"internalType":"address","name":"previousOwner","type":"address"},{"indexed":true,"internalType":"address","name":"newOwner","type":"address"}],"name":"OwnershipTransferred","type":"event"},{"inputs":[],"name":"borrowerLength","outputs":[{"internalType":"uint256","name":"","type":"uint256"}],"stateMutability":"view","type":"function"},{"inputs":[{"internalType":"uint256","name":"","type":"uint256"}],"name":"borrowerList","outputs":[{"internalType":"address","name":"","type":"address"}],"stateMutability":"view","type":"function"},{"inputs":[{"internalType":"address","name":"","type":"address"}],"name":"borrowers","outputs":[{"internalType":"bool","name":"","type":"bool"}],"stateMutability":"view","type":"function"},{"inputs":[{"internalType":"string","name":"_name","type":"string"},{"internalType":"string","name":"_borrowedCrypto","type":"string"},{"internalType":"uint256","name":"_borrowedAskAmount","type":"uint256"},{"internalType":"uint256","name":"_rpbRate","type":"uint256"},{"internalType":"uint256","name":"_startPrice","type":"uint256"}],"name":"deployNewEthLoanContract","outputs":[],"stateMutability":"nonpayable","type":"function"},{"inputs":[{"internalType":"string","name":"_name","type":"string"},{"internalType":"string","name":"_borrowedCrypto","type":"string"},{"internalType":"uint256","name":"_borrowedAskAmount","type":"uint256"},{"internalType":"uint256","name":"_rpbRate","type":"uint256"},{"internalType":"uint256","name":"_startPrice","type":"uint256"}],"name":"deployNewTokensLoanContract","outputs":[],"stateMutability":"nonpayable","type":"function"},{"inputs":[{"internalType":"address","name":"","type":"address"}],"name":"ethLoanContracts","outputs":[{"internalType":"bool","name":"","type":"bool"}],"stateMutability":"view","type":"function"},{"inputs":[{"internalType":"uint256","name":"","type":"uint256"}],"name":"ethLoanContractsList","outputs":[{"internalType":"address","name":"","type":"address"}],"stateMutability":"view","type":"function"},{"inputs":[],"name":"factoryDeployBlock","outputs":[{"internalType":"uint256","name":"","type":"uint256"}],"stateMutability":"view","type":"function"},{"inputs":[],"name":"getLoanParams","outputs":[{"components":[{"internalType":"uint256","name":"minRpbRate","type":"uint256"},{"internalType":"uint256","name":"earlySettlementWindow","type":"uint256"},{"internalType":"uint256","name":"foreclosureWindow","type":"uint256"},{"internalType":"uint256","name":"foreclosureRatio","type":"uint256"},{"internalType":"uint256","name":"instantForeclosureRatio","type":"uint256"},{"internalType":"uint256","name":"earlySettlementFee","type":"uint256"}],"internalType":"struct IJLoanCommons.params","name":"","type":"tuple"}],"stateMutability":"view","type":"function"},{"inputs":[],"name":"jntContract","outputs":[{"internalType":"contract IERC20","name":"","type":"address"}],"stateMutability":"view","type":"function"},{"inputs":[],"name":"jntContractAddress","outputs":[{"internalType":"address","name":"","type":"address"}],"stateMutability":"view","type":"function"},{"inputs":[],"name":"lenderLength","outputs":[{"internalType":"uint256","name":"","type":"uint256"}],"stateMutability":"view","type":"function"},{"inputs":[{"internalType":"uint256","name":"","type":"uint256"}],"name":"lenderList","outputs":[{"internalType":"address","name":"","type":"address"}],"stateMutability":"view","type":"function"},{"inputs":[{"internalType":"address","name":"","type":"address"}],"name":"lenders","outputs":[{"internalType":"bool","name":"","type":"bool"}],"stateMutability":"view","type":"function"},{"inputs":[],"name":"loanParams","outputs":[{"internalType":"uint256","name":"minRpbRate","type":"uint256"},{"internalType":"uint256","name":"earlySettlementWindow","type":"uint256"},{"internalType":"uint256","name":"foreclosureWindow","type":"uint256"},{"internalType":"uint256","name":"foreclosureRatio","type":"uint256"},{"internalType":"uint256","name":"instantForeclosureRatio","type":"uint256"},{"internalType":"uint256","name":"earlySettlementFee","type":"uint256"}],"stateMutability":"view","type":"function"},{"inputs":[],"name":"owner","outputs":[{"internalType":"address","name":"","type":"address"}],"stateMutability":"view","type":"function"},{"inputs":[],"name":"renounceOwnership","outputs":[],"stateMutability":"nonpayable","type":"function"},{"inputs":[{"internalType":"uint256","name":"_value","type":"uint256"}],"name":"setEarlySettlementFee","outputs":[],"stateMutability":"nonpayable","type":"function"},{"inputs":[{"internalType":"uint256","name":"_value","type":"uint256"}],"name":"setEarlySettlementWindow","outputs":[],"stateMutability":"nonpayable","type":"function"},{"inputs":[{"internalType":"uint256","name":"_value","type":"uint256"}],"name":"setForeclosureRatio","outputs":[],"stateMutability":"nonpayable","type":"function"},{"inputs":[{"internalType":"uint256","name":"_value","type":"uint256"}],"name":"setForeclosureWindow","outputs":[],"stateMutability":"nonpayable","type":"function"},{"inputs":[{"internalType":"uint256","name":"_value","type":"uint256"}],"name":"setInstantForeclosureRatio","outputs":[],"stateMutability":"nonpayable","type":"function"},{"inputs":[{"internalType":"uint256","name":"_idx","type":"uint256"}],"name":"setLoanParamsInContract","outputs":[],"stateMutability":"nonpayable","type":"function"},{"inputs":[{"internalType":"uint256","name":"_value","type":"uint256"}],"name":"setMinRpb","outputs":[],"stateMutability":"nonpayable","type":"function"},{"inputs":[{"internalType":"uint256","name":"_idx","type":"uint256"},{"internalType":"uint256","name":"_newStatus","type":"uint256"}],"name":"setStatusInEthContract","outputs":[],"stateMutability":"nonpayable","type":"function"},{"inputs":[{"internalType":"address","name":"","type":"address"}],"name":"tokenLoanContracts","outputs":[{"internalType":"bool","name":"","type":"bool"}],"stateMutability":"view","type":"function"},{"inputs":[{"internalType":"uint256","name":"","type":"uint256"}],"name":"tokenLoanContractsList","outputs":[{"internalType":"address","name":"","type":"address"}],"stateMutability":"view","type":"function"},{"inputs":[{"internalType":"address","name":"newOwner","type":"address"}],"name":"transferOwnership","outputs":[],"stateMutability":"nonpayable","type":"function"}],"devdoc":{"kind":"dev","methods":{"owner()":{"details":"Returns the address of the current owner."},"renounceOwnership()":{"details":"Leaves the contract without owner. It will not be possible to call `onlyOwner` functions anymore. Can only be called by the current owner. NOTE: Renouncing ownership will leave the contract without an owner, thereby removing any functionality that is only available to the owner."},"transferOwnership(address)":{"details":"Transfers ownership of the contract to a new account (`newOwner`). Can only be called by the current owner."}},"version":1},"evm":{"assembly":"    /* \"JLoansFactory.sol\":18778:23041  contract JLoansFactory is Ownable {\r... */\n  mstore(0x40, 0x80)\n    /* \"JLoansFactory.sol\":19559:20031  constructor (address _jntAddress) public {\r... */\n  callvalue\n  dup1\n  iszero\n  tag_1\n  jumpi\n  0x00\n  dup1\n  revert\ntag_1:\n  pop\n  mload(0x40)\n  sub(codesize, bytecodeSize)\n  dup1\n  bytecodeSize\n  dup4\n  codecopy\n  dup2\n  dup2\n  add\n  0x40\n  mstore\n  dup2\n  add\n  swap1\n  tag_2\n  swap2\n  swap1\n  tag_3\n  jump\t// in\ntag_2:\n    /* \"JLoansFactory.sol\":7102:7119  address msgSender */\n  0x00\n    /* \"JLoansFactory.sol\":7122:7134  _msgSender() */\n  tag_7\n    /* \"JLoansFactory.sol\":7122:7132  _msgSender */\n  shl(0x20, tag_8)\n    /* \"JLoansFactory.sol\":7122:7134  _msgSender() */\n  0x20\n  shr\n  jump\t// in\ntag_7:\n    /* \"JLoansFactory.sol\":7102:7134  address msgSender = _msgSender() */\n  swap1\n  pop\n    /* \"JLoansFactory.sol\":7154:7163  msgSender */\n  dup1\n    /* \"JLoansFactory.sol\":7145:7151  _owner */\n  0x00\n  dup1\n    /* \"JLoansFactory.sol\":7145:7163  _owner = msgSender */\n  0x0100\n  exp\n  dup2\n  sload\n  dup2\n  0xffffffffffffffffffffffffffffffffffffffff\n  mul\n  not\n  and\n  swap1\n  dup4\n  0xffffffffffffffffffffffffffffffffffffffff\n  and\n  mul\n  or\n  swap1\n  sstore\n  pop\n    /* \"JLoansFactory.sol\":7212:7221  msgSender */\n  dup1\n    /* \"JLoansFactory.sol\":7179:7222  OwnershipTransferred(address(0), msgSender) */\n  0xffffffffffffffffffffffffffffffffffffffff\n  and\n    /* \"JLoansFactory.sol\":7208:7209  0 */\n  0x00\n    /* \"JLoansFactory.sol\":7179:7222  OwnershipTransferred(address(0), msgSender) */\n  0xffffffffffffffffffffffffffffffffffffffff\n  and\n  0x8be0079c531659141344cd1fd0a4f28419497f9722a3daafe3b4186f6b6457e0\n  mload(0x40)\n  mload(0x40)\n  dup1\n  swap2\n  sub\n  swap1\n  log3\n    /* \"JLoansFactory.sol\":7067:7230  constructor () internal {\r... */\n  pop\n    /* \"JLoansFactory.sol\":19632:19643  _jntAddress */\n  dup1\n    /* \"JLoansFactory.sol\":19611:19629  jntContractAddress */\n  0x0c\n  0x00\n    /* \"JLoansFactory.sol\":19611:19643  jntContractAddress = _jntAddress */\n  0x0100\n  exp\n  dup2\n  sload\n  dup2\n  0xffffffffffffffffffffffffffffffffffffffff\n  mul\n  not\n  and\n  swap1\n  dup4\n  0xffffffffffffffffffffffffffffffffffffffff\n  and\n  mul\n  or\n  swap1\n  sstore\n  pop\n    /* \"JLoansFactory.sol\":19675:19693  jntContractAddress */\n  0x0c\n  0x00\n  swap1\n  sload\n  swap1\n  0x0100\n  exp\n  swap1\n  div\n  0xffffffffffffffffffffffffffffffffffffffff\n  and\n    /* \"JLoansFactory.sol\":19654:19665  jntContract */\n  0x0d\n  0x00\n    /* \"JLoansFactory.sol\":19654:19694  jntContract = IERC20(jntContractAddress) */\n  0x0100\n  exp\n  dup2\n  sload\n  dup2\n  0xffffffffffffffffffffffffffffffffffffffff\n  mul\n  not\n  and\n  swap1\n  dup4\n  0xffffffffffffffffffffffffffffffffffffffff\n  and\n  mul\n  or\n  swap1\n  sstore\n  pop\n    /* \"JLoansFactory.sol\":19740:19746  540000 */\n  0x083d60\n    /* \"JLoansFactory.sol\":19705:19715  loanParams */\n  0x0e\n    /* \"JLoansFactory.sol\":19705:19737  loanParams.earlySettlementWindow */\n  0x01\n  add\n    /* \"JLoansFactory.sol\":19705:19746  loanParams.earlySettlementWindow = 540000 */\n  dup2\n  swap1\n  sstore\n  pop\n    /* \"JLoansFactory.sol\":19788:19793  18000 */\n  0x4650\n    /* \"JLoansFactory.sol\":19757:19767  loanParams */\n  0x0e\n    /* \"JLoansFactory.sol\":19757:19785  loanParams.foreclosureWindow */\n  0x02\n  add\n    /* \"JLoansFactory.sol\":19757:19793  loanParams.foreclosureWindow = 18000 */\n  dup2\n  swap1\n  sstore\n  pop\n    /* \"JLoansFactory.sol\":19834:19837  150 */\n  0x96\n    /* \"JLoansFactory.sol\":19804:19814  loanParams */\n  0x0e\n    /* \"JLoansFactory.sol\":19804:19831  loanParams.foreclosureRatio */\n  0x03\n  add\n    /* \"JLoansFactory.sol\":19804:19837  loanParams.foreclosureRatio = 150 */\n  dup2\n  swap1\n  sstore\n  pop\n    /* \"JLoansFactory.sol\":19885:19888  120 */\n  0x78\n    /* \"JLoansFactory.sol\":19848:19858  loanParams */\n  0x0e\n    /* \"JLoansFactory.sol\":19848:19882  loanParams.instantForeclosureRatio */\n  0x04\n  add\n    /* \"JLoansFactory.sol\":19848:19888  loanParams.instantForeclosureRatio = 120 */\n  dup2\n  swap1\n  sstore\n  pop\n    /* \"JLoansFactory.sol\":19931:19938  1080000 */\n  0x107ac0\n    /* \"JLoansFactory.sol\":19899:19909  loanParams */\n  0x0e\n    /* \"JLoansFactory.sol\":19899:19928  loanParams.earlySettlementFee */\n  0x05\n  add\n    /* \"JLoansFactory.sol\":19899:19938  loanParams.earlySettlementFee = 1080000 */\n  dup2\n  swap1\n  sstore\n  pop\n    /* \"JLoansFactory.sol\":19974:19979  10000 */\n  0x2710\n    /* \"JLoansFactory.sol\":19950:19960  loanParams */\n  0x0e\n    /* \"JLoansFactory.sol\":19950:19971  loanParams.minRpbRate */\n  0x00\n  add\n    /* \"JLoansFactory.sol\":19950:19979  loanParams.minRpbRate = 10000 */\n  dup2\n  swap1\n  sstore\n  pop\n    /* \"JLoansFactory.sol\":20011:20023  block.number */\n  number\n    /* \"JLoansFactory.sol\":19990:20008  factoryDeployBlock */\n  0x0b\n    /* \"JLoansFactory.sol\":19990:20023  factoryDeployBlock = block.number */\n  dup2\n  swap1\n  sstore\n  pop\n    /* \"JLoansFactory.sol\":19559:20031  constructor (address _jntAddress) public {\r... */\n  pop\n    /* \"JLoansFactory.sol\":18778:23041  contract JLoansFactory is Ownable {\r... */\n  jump(tag_10)\n    /* \"JLoansFactory.sol\":5945:6051  function _msgSender() internal view virtual returns (address payable) {\r... */\ntag_8:\n    /* \"JLoansFactory.sol\":5998:6013  address payable */\n  0x00\n    /* \"JLoansFactory.sol\":6033:6043  msg.sender */\n  caller\n    /* \"JLoansFactory.sol\":6026:6043  return msg.sender */\n  swap1\n  pop\n    /* \"JLoansFactory.sol\":5945:6051  function _msgSender() internal view virtual returns (address payable) {\r... */\n  swap1\n  jump\t// out\n    /* \"--CODEGEN--\":5:139   */\ntag_13:\n  0x00\n    /* \"--CODEGEN--\":89:95   */\n  dup2\n    /* \"--CODEGEN--\":83:96   */\n  mload\n    /* \"--CODEGEN--\":74:96   */\n  swap1\n  pop\n    /* \"--CODEGEN--\":101:134   */\n  tag_15\n    /* \"--CODEGEN--\":128:133   */\n  dup2\n    /* \"--CODEGEN--\":101:134   */\n  tag_16\n  jump\t// in\ntag_15:\n    /* \"--CODEGEN--\":68:139   */\n  swap3\n  swap2\n  pop\n  pop\n  jump\t// out\n    /* \"--CODEGEN--\":146:409   */\ntag_3:\n  0x00\n    /* \"--CODEGEN--\":261:263   */\n  0x20\n    /* \"--CODEGEN--\":249:258   */\n  dup3\n    /* \"--CODEGEN--\":240:247   */\n  dup5\n    /* \"--CODEGEN--\":236:259   */\n  sub\n    /* \"--CODEGEN--\":232:264   */\n  slt\n    /* \"--CODEGEN--\":229:231   */\n  iszero\n  tag_18\n  jumpi\n    /* \"--CODEGEN--\":277:278   */\n  0x00\n    /* \"--CODEGEN--\":274:275   */\n  dup1\n    /* \"--CODEGEN--\":267:279   */\n  revert\n    /* \"--CODEGEN--\":229:231   */\ntag_18:\n    /* \"--CODEGEN--\":312:313   */\n  0x00\n    /* \"--CODEGEN--\":329:393   */\n  tag_19\n    /* \"--CODEGEN--\":385:392   */\n  dup5\n    /* \"--CODEGEN--\":376:382   */\n  dup3\n    /* \"--CODEGEN--\":365:374   */\n  dup6\n    /* \"--CODEGEN--\":361:383   */\n  add\n    /* \"--CODEGEN--\":329:393   */\n  tag_13\n  jump\t// in\ntag_19:\n    /* \"--CODEGEN--\":319:393   */\n  swap2\n  pop\n    /* \"--CODEGEN--\":291:399   */\n  pop\n    /* \"--CODEGEN--\":223:409   */\n  swap3\n  swap2\n  pop\n  pop\n  jump\t// out\n    /* \"--CODEGEN--\":416:507   */\ntag_20:\n  0x00\n    /* \"--CODEGEN--\":478:502   */\n  tag_22\n    /* \"--CODEGEN--\":496:501   */\n  dup3\n    /* \"--CODEGEN--\":478:502   */\n  tag_23\n  jump\t// in\ntag_22:\n    /* \"--CODEGEN--\":467:502   */\n  swap1\n  pop\n    /* \"--CODEGEN--\":461:507   */\n  swap2\n  swap1\n  pop\n  jump\t// out\n    /* \"--CODEGEN--\":514:635   */\ntag_23:\n  0x00\n    /* \"--CODEGEN--\":587:629   */\n  0xffffffffffffffffffffffffffffffffffffffff\n    /* \"--CODEGEN--\":580:585   */\n  dup3\n    /* \"--CODEGEN--\":576:630   */\n  and\n    /* \"--CODEGEN--\":565:630   */\n  swap1\n  pop\n    /* \"--CODEGEN--\":559:635   */\n  swap2\n  swap1\n  pop\n  jump\t// out\n    /* \"--CODEGEN--\":642:759   */\ntag_16:\n    /* \"--CODEGEN--\":711:735   */\n  tag_26\n    /* \"--CODEGEN--\":729:734   */\n  dup2\n    /* \"--CODEGEN--\":711:735   */\n  tag_20\n  jump\t// in\ntag_26:\n    /* \"--CODEGEN--\":704:709   */\n  dup2\n    /* \"--CODEGEN--\":701:736   */\n  eq\n    /* \"--CODEGEN--\":691:693   */\n  tag_27\n  jumpi\n    /* \"--CODEGEN--\":750:751   */\n  0x00\n    /* \"--CODEGEN--\":747:748   */\n  dup1\n    /* \"--CODEGEN--\":740:752   */\n  revert\n    /* \"--CODEGEN--\":691:693   */\ntag_27:\n    /* \"--CODEGEN--\":685:759   */\n  pop\n  jump\t// out\n    /* \"JLoansFactory.sol\":18778:23041  contract JLoansFactory is Ownable {\r... */\ntag_10:\n  dataSize(sub_0)\n  dup1\n  dataOffset(sub_0)\n  0x00\n  codecopy\n  0x00\n  return\nstop\n\nsub_0: assembly {\n        /* \"JLoansFactory.sol\":18778:23041  contract JLoansFactory is Ownable {\r... */\n      mstore(0x40, 0x80)\n      callvalue\n      dup1\n      iszero\n      tag_1\n      jumpi\n      0x00\n      dup1\n      revert\n    tag_1:\n      pop\n      jumpi(tag_2, lt(calldatasize, 0x04))\n      shr(0xe0, calldataload(0x00))\n      dup1\n      0x8da5cb5b\n      gt\n      tag_31\n      jumpi\n      dup1\n      0xc7c89628\n      gt\n      tag_32\n      jumpi\n      dup1\n      0xe7bafd1a\n      gt\n      tag_33\n      jumpi\n      dup1\n      0xe7bafd1a\n      eq\n      tag_27\n      jumpi\n      dup1\n      0xf0427dff\n      eq\n      tag_28\n      jumpi\n      dup1\n      0xf2fde38b\n      eq\n      tag_29\n      jumpi\n      dup1\n      0xf450abdd\n      eq\n      tag_30\n      jumpi\n      jump(tag_2)\n    tag_33:\n      dup1\n      0xc7c89628\n      eq\n      tag_24\n      jumpi\n      dup1\n      0xcf611d33\n      eq\n      tag_25\n      jumpi\n      dup1\n      0xd00109f9\n      eq\n      tag_26\n      jumpi\n      jump(tag_2)\n    tag_32:\n      dup1\n      0xb3a66524\n      gt\n      tag_34\n      jumpi\n      dup1\n      0xb3a66524\n      eq\n      tag_20\n      jumpi\n      dup1\n      0xbf5d50c4\n      eq\n      tag_21\n      jumpi\n      dup1\n      0xbff3de22\n      eq\n      tag_22\n      jumpi\n      dup1\n      0xc2c1e340\n      eq\n      tag_23\n      jumpi\n      jump(tag_2)\n    tag_34:\n      dup1\n      0x8da5cb5b\n      eq\n      tag_17\n      jumpi\n      dup1\n      0xa2b20fe3\n      eq\n      tag_18\n      jumpi\n      dup1\n      0xaeec8c9b\n      eq\n      tag_19\n      jumpi\n      jump(tag_2)\n    tag_31:\n      dup1\n      0x54f197e0\n      gt\n      tag_35\n      jumpi\n      dup1\n      0x6bfab938\n      gt\n      tag_36\n      jumpi\n      dup1\n      0x6bfab938\n      eq\n      tag_13\n      jumpi\n      dup1\n      0x715018a6\n      eq\n      tag_14\n      jumpi\n      dup1\n      0x73aa3028\n      eq\n      tag_15\n      jumpi\n      dup1\n      0x799d564c\n      eq\n      tag_16\n      jumpi\n      jump(tag_2)\n    tag_36:\n      dup1\n      0x54f197e0\n      eq\n      tag_10\n      jumpi\n      dup1\n      0x57159584\n      eq\n      tag_11\n      jumpi\n      dup1\n      0x6085c7df\n      eq\n      tag_12\n      jumpi\n      jump(tag_2)\n    tag_35:\n      dup1\n      0x26e9fdd8\n      gt\n      tag_37\n      jumpi\n      dup1\n      0x26e9fdd8\n      eq\n      tag_6\n      jumpi\n      dup1\n      0x28964fef\n      eq\n      tag_7\n      jumpi\n      dup1\n      0x28fd10d7\n      eq\n      tag_8\n      jumpi\n      dup1\n      0x39075d89\n      eq\n      tag_9\n      jumpi\n      jump(tag_2)\n    tag_37:\n      dup1\n      0x09e94d98\n      eq\n      tag_3\n      jumpi\n      dup1\n      0x0c8731ab\n      eq\n      tag_4\n      jumpi\n      dup1\n      0x20600a37\n      eq\n      tag_5\n      jumpi\n    tag_2:\n      0x00\n      dup1\n      revert\n        /* \"JLoansFactory.sol\":19405:19443  IJLoanCommons.params public loanParams */\n    tag_3:\n      tag_38\n      tag_39\n      jump\t// in\n    tag_38:\n      mload(0x40)\n      tag_40\n      swap7\n      swap6\n      swap5\n      swap4\n      swap3\n      swap2\n      swap1\n      tag_41\n      jump\t// in\n    tag_40:\n      mload(0x40)\n      dup1\n      swap2\n      sub\n      swap1\n      return\n        /* \"JLoansFactory.sol\":22484:22585  function setMinRpb (uint _value) external onlyOwner {\r... */\n    tag_4:\n      tag_42\n      0x04\n      dup1\n      calldatasize\n      sub\n      dup2\n      add\n      swap1\n      tag_43\n      swap2\n      swap1\n      tag_44\n      jump\t// in\n    tag_43:\n      tag_45\n      jump\t// in\n    tag_42:\n      stop\n        /* \"JLoansFactory.sol\":22593:22706  function getLoanParams () external view returns (IJLoanCommons.params memory){\r... */\n    tag_5:\n      tag_46\n      tag_47\n      jump\t// in\n    tag_46:\n      mload(0x40)\n      tag_48\n      swap2\n      swap1\n      tag_49\n      jump\t// in\n    tag_48:\n      mload(0x40)\n      dup1\n      swap2\n      sub\n      swap1\n      return\n        /* \"JLoansFactory.sol\":22092:22208  function setForeclosureRatio(uint _value) external onlyOwner {\r... */\n    tag_6:\n      tag_50\n      0x04\n      dup1\n      calldatasize\n      sub\n      dup2\n      add\n      swap1\n      tag_51\n      swap2\n      swap1\n      tag_44\n      jump\t// in\n    tag_51:\n      tag_52\n      jump\t// in\n    tag_50:\n      stop\n        /* \"JLoansFactory.sol\":18854:18880  uint public borrowerLength */\n    tag_7:\n      tag_53\n      tag_54\n      jump\t// in\n    tag_53:\n      mload(0x40)\n      tag_55\n      swap2\n      swap1\n      tag_56\n      jump\t// in\n    tag_55:\n      mload(0x40)\n      dup1\n      swap2\n      sub\n      swap1\n      return\n        /* \"JLoansFactory.sol\":19036:19075  mapping(address => bool) public lenders */\n    tag_8:\n      tag_57\n      0x04\n      dup1\n      calldatasize\n      sub\n      dup2\n      add\n      swap1\n      tag_58\n      swap2\n      swap1\n      tag_59\n      jump\t// in\n    tag_58:\n      tag_60\n      jump\t// in\n    tag_57:\n      mload(0x40)\n      tag_61\n      swap2\n      swap1\n      tag_62\n      jump\t// in\n    tag_61:\n      mload(0x40)\n      dup1\n      swap2\n      sub\n      swap1\n      return\n        /* \"JLoansFactory.sol\":19292:19322  uint public factoryDeployBlock */\n    tag_9:\n      tag_63\n      tag_64\n      jump\t// in\n    tag_63:\n      mload(0x40)\n      tag_65\n      swap2\n      swap1\n      tag_56\n      jump\t// in\n    tag_65:\n      mload(0x40)\n      dup1\n      swap2\n      sub\n      swap1\n      return\n        /* \"JLoansFactory.sol\":19331:19364  address public jntContractAddress */\n    tag_10:\n      tag_66\n      tag_67\n      jump\t// in\n    tag_66:\n      mload(0x40)\n      tag_68\n      swap2\n      swap1\n      tag_69\n      jump\t// in\n    tag_68:\n      mload(0x40)\n      dup1\n      swap2\n      sub\n      swap1\n      return\n        /* \"JLoansFactory.sol\":19132:19180  mapping(address => bool) public ethLoanContracts */\n    tag_11:\n      tag_70\n      0x04\n      dup1\n      calldatasize\n      sub\n      dup2\n      add\n      swap1\n      tag_71\n      swap2\n      swap1\n      tag_59\n      jump\t// in\n    tag_71:\n      tag_72\n      jump\t// in\n    tag_70:\n      mload(0x40)\n      tag_73\n      swap2\n      swap1\n      tag_62\n      jump\t// in\n    tag_73:\n      mload(0x40)\n      dup1\n      swap2\n      sub\n      swap1\n      return\n        /* \"JLoansFactory.sol\":18954:18981  address[] public lenderList */\n    tag_12:\n      tag_74\n      0x04\n      dup1\n      calldatasize\n      sub\n      dup2\n      add\n      swap1\n      tag_75\n      swap2\n      swap1\n      tag_44\n      jump\t// in\n    tag_75:\n      tag_76\n      jump\t// in\n    tag_74:\n      mload(0x40)\n      tag_77\n      swap2\n      swap1\n      tag_69\n      jump\t// in\n    tag_77:\n      mload(0x40)\n      dup1\n      swap2\n      sub\n      swap1\n      return\n        /* \"JLoansFactory.sol\":19187:19226  address[] public tokenLoanContractsList */\n    tag_13:\n      tag_78\n      0x04\n      dup1\n      calldatasize\n      sub\n      dup2\n      add\n      swap1\n      tag_79\n      swap2\n      swap1\n      tag_44\n      jump\t// in\n    tag_79:\n      tag_80\n      jump\t// in\n    tag_78:\n      mload(0x40)\n      tag_81\n      swap2\n      swap1\n      tag_69\n      jump\t// in\n    tag_81:\n      mload(0x40)\n      dup1\n      swap2\n      sub\n      swap1\n      return\n        /* \"JLoansFactory.sol\":7953:8101  function renounceOwnership() public virtual onlyOwner {\r... */\n    tag_14:\n      tag_82\n      tag_83\n      jump\t// in\n    tag_82:\n      stop\n        /* \"JLoansFactory.sol\":21965:22084  function setForeclosureWindow (uint _value) external onlyOwner {\r... */\n    tag_15:\n      tag_84\n      0x04\n      dup1\n      calldatasize\n      sub\n      dup2\n      add\n      swap1\n      tag_85\n      swap2\n      swap1\n      tag_44\n      jump\t// in\n    tag_85:\n      tag_86\n      jump\t// in\n    tag_84:\n      stop\n        /* \"JLoansFactory.sol\":22355:22476  function setEarlySettlementFee (uint _value) external onlyOwner {\r... */\n    tag_16:\n      tag_87\n      0x04\n      dup1\n      calldatasize\n      sub\n      dup2\n      add\n      swap1\n      tag_88\n      swap2\n      swap1\n      tag_44\n      jump\t// in\n    tag_88:\n      tag_89\n      jump\t// in\n    tag_87:\n      stop\n        /* \"JLoansFactory.sol\":7311:7390  function owner() public view returns (address) {\r... */\n    tag_17:\n      tag_90\n      tag_91\n      jump\t// in\n    tag_90:\n      mload(0x40)\n      tag_92\n      swap2\n      swap1\n      tag_69\n      jump\t// in\n    tag_92:\n      mload(0x40)\n      dup1\n      swap2\n      sub\n      swap1\n      return\n        /* \"JLoansFactory.sol\":19088:19125  address[] public ethLoanContractsList */\n    tag_18:\n      tag_93\n      0x04\n      dup1\n      calldatasize\n      sub\n      dup2\n      add\n      swap1\n      tag_94\n      swap2\n      swap1\n      tag_44\n      jump\t// in\n    tag_94:\n      tag_95\n      jump\t// in\n    tag_93:\n      mload(0x40)\n      tag_96\n      swap2\n      swap1\n      tag_69\n      jump\t// in\n    tag_96:\n      mload(0x40)\n      dup1\n      swap2\n      sub\n      swap1\n      return\n        /* \"JLoansFactory.sol\":22871:23036  function setStatusInEthContract (uint _idx, uint _newStatus) external onlyOwner {\r... */\n    tag_19:\n      tag_97\n      0x04\n      dup1\n      calldatasize\n      sub\n      dup2\n      add\n      swap1\n      tag_98\n      swap2\n      swap1\n      tag_99\n      jump\t// in\n    tag_98:\n      tag_100\n      jump\t// in\n    tag_97:\n      stop\n        /* \"JLoansFactory.sol\":18887:18916  address[] public borrowerList */\n    tag_20:\n      tag_101\n      0x04\n      dup1\n      calldatasize\n      sub\n      dup2\n      add\n      swap1\n      tag_102\n      swap2\n      swap1\n      tag_44\n      jump\t// in\n    tag_102:\n      tag_103\n      jump\t// in\n    tag_101:\n      mload(0x40)\n      tag_104\n      swap2\n      swap1\n      tag_69\n      jump\t// in\n    tag_104:\n      mload(0x40)\n      dup1\n      swap2\n      sub\n      swap1\n      return\n        /* \"JLoansFactory.sol\":18988:19029  mapping(address => bool) public borrowers */\n    tag_21:\n      tag_105\n      0x04\n      dup1\n      calldatasize\n      sub\n      dup2\n      add\n      swap1\n      tag_106\n      swap2\n      swap1\n      tag_59\n      jump\t// in\n    tag_106:\n      tag_107\n      jump\t// in\n    tag_105:\n      mload(0x40)\n      tag_108\n      swap2\n      swap1\n      tag_62\n      jump\t// in\n    tag_108:\n      mload(0x40)\n      dup1\n      swap2\n      sub\n      swap1\n      return\n        /* \"JLoansFactory.sol\":22714:22863  function setLoanParamsInContract (uint _idx) external onlyOwner {\r... */\n    tag_22:\n      tag_109\n      0x04\n      dup1\n      calldatasize\n      sub\n      dup2\n      add\n      swap1\n      tag_110\n      swap2\n      swap1\n      tag_44\n      jump\t// in\n    tag_110:\n      tag_111\n      jump\t// in\n    tag_109:\n      stop\n        /* \"JLoansFactory.sol\":21830:21957  function setEarlySettlementWindow (uint _value) external onlyOwner {\r... */\n    tag_23:\n      tag_112\n      0x04\n      dup1\n      calldatasize\n      sub\n      dup2\n      add\n      swap1\n      tag_113\n      swap2\n      swap1\n      tag_44\n      jump\t// in\n    tag_113:\n      tag_114\n      jump\t// in\n    tag_112:\n      stop\n        /* \"JLoansFactory.sol\":18923:18947  uint public lenderLength */\n    tag_24:\n      tag_115\n      tag_116\n      jump\t// in\n    tag_115:\n      mload(0x40)\n      tag_117\n      swap2\n      swap1\n      tag_56\n      jump\t// in\n    tag_117:\n      mload(0x40)\n      dup1\n      swap2\n      sub\n      swap1\n      return\n        /* \"JLoansFactory.sol\":19371:19396  IERC20 public jntContract */\n    tag_25:\n      tag_118\n      tag_119\n      jump\t// in\n    tag_118:\n      mload(0x40)\n      tag_120\n      swap2\n      swap1\n      tag_121\n      jump\t// in\n    tag_120:\n      mload(0x40)\n      dup1\n      swap2\n      sub\n      swap1\n      return\n        /* \"JLoansFactory.sol\":20039:20917  function deployNewEthLoanContract(string memory _name, string memory _borrowedCrypto, uint _borrowedAskAmount, uint _rpbRate, uint _startPrice) public {\r... */\n    tag_26:\n      tag_122\n      0x04\n      dup1\n      calldatasize\n      sub\n      dup2\n      add\n      swap1\n      tag_123\n      swap2\n      swap1\n      tag_124\n      jump\t// in\n    tag_123:\n      tag_125\n      jump\t// in\n    tag_122:\n      stop\n        /* \"JLoansFactory.sol\":19233:19283  mapping(address => bool) public tokenLoanContracts */\n    tag_27:\n      tag_126\n      0x04\n      dup1\n      calldatasize\n      sub\n      dup2\n      add\n      swap1\n      tag_127\n      swap2\n      swap1\n      tag_59\n      jump\t// in\n    tag_127:\n      tag_128\n      jump\t// in\n    tag_126:\n      mload(0x40)\n      tag_129\n      swap2\n      swap1\n      tag_62\n      jump\t// in\n    tag_129:\n      mload(0x40)\n      dup1\n      swap2\n      sub\n      swap1\n      return\n        /* \"JLoansFactory.sol\":22216:22347  function setInstantForeclosureRatio (uint _value) external onlyOwner {\r... */\n    tag_28:\n      tag_130\n      0x04\n      dup1\n      calldatasize\n      sub\n      dup2\n      add\n      swap1\n      tag_131\n      swap2\n      swap1\n      tag_44\n      jump\t// in\n    tag_131:\n      tag_132\n      jump\t// in\n    tag_130:\n      stop\n        /* \"JLoansFactory.sol\":8256:8500  function transferOwnership(address newOwner) public virtual onlyOwner {\r... */\n    tag_29:\n      tag_133\n      0x04\n      dup1\n      calldatasize\n      sub\n      dup2\n      add\n      swap1\n      tag_134\n      swap2\n      swap1\n      tag_59\n      jump\t// in\n    tag_134:\n      tag_135\n      jump\t// in\n    tag_133:\n      stop\n        /* \"JLoansFactory.sol\":20925:21822  function deployNewTokensLoanContract(string memory _name, string memory _borrowedCrypto, uint _borrowedAskAmount, uint _rpbRate, uint _startPrice) public {\r... */\n    tag_30:\n      tag_136\n      0x04\n      dup1\n      calldatasize\n      sub\n      dup2\n      add\n      swap1\n      tag_137\n      swap2\n      swap1\n      tag_124\n      jump\t// in\n    tag_137:\n      tag_138\n      jump\t// in\n    tag_136:\n      stop\n        /* \"JLoansFactory.sol\":19405:19443  IJLoanCommons.params public loanParams */\n    tag_39:\n      0x0e\n      dup1\n      0x00\n      add\n      sload\n      swap1\n      dup1\n      0x01\n      add\n      sload\n      swap1\n      dup1\n      0x02\n      add\n      sload\n      swap1\n      dup1\n      0x03\n      add\n      sload\n      swap1\n      dup1\n      0x04\n      add\n      sload\n      swap1\n      dup1\n      0x05\n      add\n      sload\n      swap1\n      pop\n      dup7\n      jump\t// out\n        /* \"JLoansFactory.sol\":22484:22585  function setMinRpb (uint _value) external onlyOwner {\r... */\n    tag_45:\n        /* \"JLoansFactory.sol\":7533:7545  _msgSender() */\n      tag_140\n        /* \"JLoansFactory.sol\":7533:7543  _msgSender */\n      tag_141\n        /* \"JLoansFactory.sol\":7533:7545  _msgSender() */\n      jump\t// in\n    tag_140:\n        /* \"JLoansFactory.sol\":7523:7545  _owner == _msgSender() */\n      0xffffffffffffffffffffffffffffffffffffffff\n      and\n        /* \"JLoansFactory.sol\":7523:7529  _owner */\n      0x00\n      dup1\n      sload\n      swap1\n      0x0100\n      exp\n      swap1\n      div\n      0xffffffffffffffffffffffffffffffffffffffff\n      and\n        /* \"JLoansFactory.sol\":7523:7545  _owner == _msgSender() */\n      0xffffffffffffffffffffffffffffffffffffffff\n      and\n      eq\n        /* \"JLoansFactory.sol\":7515:7582  require(_owner == _msgSender(), \"Ownable: caller is not the owner\") */\n      tag_142\n      jumpi\n      mload(0x40)\n      0x08c379a000000000000000000000000000000000000000000000000000000000\n      dup2\n      mstore\n      0x04\n      add\n      tag_143\n      swap1\n      tag_144\n      jump\t// in\n    tag_143:\n      mload(0x40)\n      dup1\n      swap2\n      sub\n      swap1\n      revert\n    tag_142:\n        /* \"JLoansFactory.sol\":22571:22577  _value */\n      dup1\n        /* \"JLoansFactory.sol\":22547:22557  loanParams */\n      0x0e\n        /* \"JLoansFactory.sol\":22547:22568  loanParams.minRpbRate */\n      0x00\n      add\n        /* \"JLoansFactory.sol\":22547:22577  loanParams.minRpbRate = _value */\n      dup2\n      swap1\n      sstore\n      pop\n        /* \"JLoansFactory.sol\":22484:22585  function setMinRpb (uint _value) external onlyOwner {\r... */\n      pop\n      jump\t// out\n        /* \"JLoansFactory.sol\":22593:22706  function getLoanParams () external view returns (IJLoanCommons.params memory){\r... */\n    tag_47:\n        /* \"JLoansFactory.sol\":22642:22669  IJLoanCommons.params memory */\n      tag_146\n      tag_147\n      jump\t// in\n    tag_146:\n        /* \"JLoansFactory.sol\":22688:22698  loanParams */\n      0x0e\n        /* \"JLoansFactory.sol\":22681:22698  return loanParams */\n      mload(0x40)\n      dup1\n      0xc0\n      add\n      0x40\n      mstore\n      swap1\n      dup2\n      0x00\n      dup3\n      add\n      sload\n      dup2\n      mstore\n      0x20\n      add\n      0x01\n      dup3\n      add\n      sload\n      dup2\n      mstore\n      0x20\n      add\n      0x02\n      dup3\n      add\n      sload\n      dup2\n      mstore\n      0x20\n      add\n      0x03\n      dup3\n      add\n      sload\n      dup2\n      mstore\n      0x20\n      add\n      0x04\n      dup3\n      add\n      sload\n      dup2\n      mstore\n      0x20\n      add\n      0x05\n      dup3\n      add\n      sload\n      dup2\n      mstore\n      pop\n      pop\n      swap1\n      pop\n        /* \"JLoansFactory.sol\":22593:22706  function getLoanParams () external view returns (IJLoanCommons.params memory){\r... */\n      swap1\n      jump\t// out\n        /* \"JLoansFactory.sol\":22092:22208  function setForeclosureRatio(uint _value) external onlyOwner {\r... */\n    tag_52:\n        /* \"JLoansFactory.sol\":7533:7545  _msgSender() */\n      tag_150\n        /* \"JLoansFactory.sol\":7533:7543  _msgSender */\n      tag_141\n        /* \"JLoansFactory.sol\":7533:7545  _msgSender() */\n      jump\t// in\n    tag_150:\n        /* \"JLoansFactory.sol\":7523:7545  _owner == _msgSender() */\n      0xffffffffffffffffffffffffffffffffffffffff\n      and\n        /* \"JLoansFactory.sol\":7523:7529  _owner */\n      0x00\n      dup1\n      sload\n      swap1\n      0x0100\n      exp\n      swap1\n      div\n      0xffffffffffffffffffffffffffffffffffffffff\n      and\n        /* \"JLoansFactory.sol\":7523:7545  _owner == _msgSender() */\n      0xffffffffffffffffffffffffffffffffffffffff\n      and\n      eq\n        /* \"JLoansFactory.sol\":7515:7582  require(_owner == _msgSender(), \"Ownable: caller is not the owner\") */\n      tag_151\n      jumpi\n      mload(0x40)\n      0x08c379a000000000000000000000000000000000000000000000000000000000\n      dup2\n      mstore\n      0x04\n      add\n      tag_152\n      swap1\n      tag_144\n      jump\t// in\n    tag_152:\n      mload(0x40)\n      dup1\n      swap2\n      sub\n      swap1\n      revert\n    tag_151:\n        /* \"JLoansFactory.sol\":22194:22200  _value */\n      dup1\n        /* \"JLoansFactory.sol\":22164:22174  loanParams */\n      0x0e\n        /* \"JLoansFactory.sol\":22164:22191  loanParams.foreclosureRatio */\n      0x03\n      add\n        /* \"JLoansFactory.sol\":22164:22200  loanParams.foreclosureRatio = _value */\n      dup2\n      swap1\n      sstore\n      pop\n        /* \"JLoansFactory.sol\":22092:22208  function setForeclosureRatio(uint _value) external onlyOwner {\r... */\n      pop\n      jump\t// out\n        /* \"JLoansFactory.sol\":18854:18880  uint public borrowerLength */\n    tag_54:\n      sload(0x01)\n      dup2\n      jump\t// out\n        /* \"JLoansFactory.sol\":19036:19075  mapping(address => bool) public lenders */\n    tag_60:\n      mstore(0x20, 0x06)\n      dup1\n      0x00\n      mstore\n      keccak256(0x00, 0x40)\n      0x00\n      swap2\n      pop\n      sload\n      swap1\n      0x0100\n      exp\n      swap1\n      div\n      0xff\n      and\n      dup2\n      jump\t// out\n        /* \"JLoansFactory.sol\":19292:19322  uint public factoryDeployBlock */\n    tag_64:\n      sload(0x0b)\n      dup2\n      jump\t// out\n        /* \"JLoansFactory.sol\":19331:19364  address public jntContractAddress */\n    tag_67:\n      0x0c\n      0x00\n      swap1\n      sload\n      swap1\n      0x0100\n      exp\n      swap1\n      div\n      0xffffffffffffffffffffffffffffffffffffffff\n      and\n      dup2\n      jump\t// out\n        /* \"JLoansFactory.sol\":19132:19180  mapping(address => bool) public ethLoanContracts */\n    tag_72:\n      mstore(0x20, 0x08)\n      dup1\n      0x00\n      mstore\n      keccak256(0x00, 0x40)\n      0x00\n      swap2\n      pop\n      sload\n      swap1\n      0x0100\n      exp\n      swap1\n      div\n      0xff\n      and\n      dup2\n      jump\t// out\n        /* \"JLoansFactory.sol\":18954:18981  address[] public lenderList */\n    tag_76:\n      0x04\n      dup2\n      dup2\n      sload\n      dup2\n      lt\n      tag_154\n      jumpi\n      invalid\n    tag_154:\n      swap1\n      0x00\n      mstore\n      keccak256(0x00, 0x20)\n      add\n      0x00\n      swap2\n      pop\n      sload\n      swap1\n      0x0100\n      exp\n      swap1\n      div\n      0xffffffffffffffffffffffffffffffffffffffff\n      and\n      dup2\n      jump\t// out\n        /* \"JLoansFactory.sol\":19187:19226  address[] public tokenLoanContractsList */\n    tag_80:\n      0x09\n      dup2\n      dup2\n      sload\n      dup2\n      lt\n      tag_156\n      jumpi\n      invalid\n    tag_156:\n      swap1\n      0x00\n      mstore\n      keccak256(0x00, 0x20)\n      add\n      0x00\n      swap2\n      pop\n      sload\n      swap1\n      0x0100\n      exp\n      swap1\n      div\n      0xffffffffffffffffffffffffffffffffffffffff\n      and\n      dup2\n      jump\t// out\n        /* \"JLoansFactory.sol\":7953:8101  function renounceOwnership() public virtual onlyOwner {\r... */\n    tag_83:\n        /* \"JLoansFactory.sol\":7533:7545  _msgSender() */\n      tag_159\n        /* \"JLoansFactory.sol\":7533:7543  _msgSender */\n      tag_141\n        /* \"JLoansFactory.sol\":7533:7545  _msgSender() */\n      jump\t// in\n    tag_159:\n        /* \"JLoansFactory.sol\":7523:7545  _owner == _msgSender() */\n      0xffffffffffffffffffffffffffffffffffffffff\n      and\n        /* \"JLoansFactory.sol\":7523:7529  _owner */\n      0x00\n      dup1\n      sload\n      swap1\n      0x0100\n      exp\n      swap1\n      div\n      0xffffffffffffffffffffffffffffffffffffffff\n      and\n        /* \"JLoansFactory.sol\":7523:7545  _owner == _msgSender() */\n      0xffffffffffffffffffffffffffffffffffffffff\n      and\n      eq\n        /* \"JLoansFactory.sol\":7515:7582  require(_owner == _msgSender(), \"Ownable: caller is not the owner\") */\n      tag_160\n      jumpi\n      mload(0x40)\n      0x08c379a000000000000000000000000000000000000000000000000000000000\n      dup2\n      mstore\n      0x04\n      add\n      tag_161\n      swap1\n      tag_144\n      jump\t// in\n    tag_161:\n      mload(0x40)\n      dup1\n      swap2\n      sub\n      swap1\n      revert\n    tag_160:\n        /* \"JLoansFactory.sol\":8060:8061  0 */\n      0x00\n        /* \"JLoansFactory.sol\":8023:8063  OwnershipTransferred(_owner, address(0)) */\n      0xffffffffffffffffffffffffffffffffffffffff\n      and\n        /* \"JLoansFactory.sol\":8044:8050  _owner */\n      0x00\n      dup1\n      sload\n      swap1\n      0x0100\n      exp\n      swap1\n      div\n      0xffffffffffffffffffffffffffffffffffffffff\n      and\n        /* \"JLoansFactory.sol\":8023:8063  OwnershipTransferred(_owner, address(0)) */\n      0xffffffffffffffffffffffffffffffffffffffff\n      and\n      0x8be0079c531659141344cd1fd0a4f28419497f9722a3daafe3b4186f6b6457e0\n      mload(0x40)\n      mload(0x40)\n      dup1\n      swap2\n      sub\n      swap1\n      log3\n        /* \"JLoansFactory.sol\":8091:8092  0 */\n      0x00\n        /* \"JLoansFactory.sol\":8074:8080  _owner */\n      dup1\n      0x00\n        /* \"JLoansFactory.sol\":8074:8093  _owner = address(0) */\n      0x0100\n      exp\n      dup2\n      sload\n      dup2\n      0xffffffffffffffffffffffffffffffffffffffff\n      mul\n      not\n      and\n      swap1\n      dup4\n      0xffffffffffffffffffffffffffffffffffffffff\n      and\n      mul\n      or\n      swap1\n      sstore\n      pop\n        /* \"JLoansFactory.sol\":7953:8101  function renounceOwnership() public virtual onlyOwner {\r... */\n      jump\t// out\n        /* \"JLoansFactory.sol\":21965:22084  function setForeclosureWindow (uint _value) external onlyOwner {\r... */\n    tag_86:\n        /* \"JLoansFactory.sol\":7533:7545  _msgSender() */\n      tag_164\n        /* \"JLoansFactory.sol\":7533:7543  _msgSender */\n      tag_141\n        /* \"JLoansFactory.sol\":7533:7545  _msgSender() */\n      jump\t// in\n    tag_164:\n        /* \"JLoansFactory.sol\":7523:7545  _owner == _msgSender() */\n      0xffffffffffffffffffffffffffffffffffffffff\n      and\n        /* \"JLoansFactory.sol\":7523:7529  _owner */\n      0x00\n      dup1\n      sload\n      swap1\n      0x0100\n      exp\n      swap1\n      div\n      0xffffffffffffffffffffffffffffffffffffffff\n      and\n        /* \"JLoansFactory.sol\":7523:7545  _owner == _msgSender() */\n      0xffffffffffffffffffffffffffffffffffffffff\n      and\n      eq\n        /* \"JLoansFactory.sol\":7515:7582  require(_owner == _msgSender(), \"Ownable: caller is not the owner\") */\n      tag_165\n      jumpi\n      mload(0x40)\n      0x08c379a000000000000000000000000000000000000000000000000000000000\n      dup2\n      mstore\n      0x04\n      add\n      tag_166\n      swap1\n      tag_144\n      jump\t// in\n    tag_166:\n      mload(0x40)\n      dup1\n      swap2\n      sub\n      swap1\n      revert\n    tag_165:\n        /* \"JLoansFactory.sol\":22070:22076  _value */\n      dup1\n        /* \"JLoansFactory.sol\":22039:22049  loanParams */\n      0x0e\n        /* \"JLoansFactory.sol\":22039:22067  loanParams.foreclosureWindow */\n      0x02\n      add\n        /* \"JLoansFactory.sol\":22039:22076  loanParams.foreclosureWindow = _value */\n      dup2\n      swap1\n      sstore\n      pop\n        /* \"JLoansFactory.sol\":21965:22084  function setForeclosureWindow (uint _value) external onlyOwner {\r... */\n      pop\n      jump\t// out\n        /* \"JLoansFactory.sol\":22355:22476  function setEarlySettlementFee (uint _value) external onlyOwner {\r... */\n    tag_89:\n        /* \"JLoansFactory.sol\":7533:7545  _msgSender() */\n      tag_169\n        /* \"JLoansFactory.sol\":7533:7543  _msgSender */\n      tag_141\n        /* \"JLoansFactory.sol\":7533:7545  _msgSender() */\n      jump\t// in\n    tag_169:\n        /* \"JLoansFactory.sol\":7523:7545  _owner == _msgSender() */\n      0xffffffffffffffffffffffffffffffffffffffff\n      and\n        /* \"JLoansFactory.sol\":7523:7529  _owner */\n      0x00\n      dup1\n      sload\n      swap1\n      0x0100\n      exp\n      swap1\n      div\n      0xffffffffffffffffffffffffffffffffffffffff\n      and\n        /* \"JLoansFactory.sol\":7523:7545  _owner == _msgSender() */\n      0xffffffffffffffffffffffffffffffffffffffff\n      and\n      eq\n        /* \"JLoansFactory.sol\":7515:7582  require(_owner == _msgSender(), \"Ownable: caller is not the owner\") */\n      tag_170\n      jumpi\n      mload(0x40)\n      0x08c379a000000000000000000000000000000000000000000000000000000000\n      dup2\n      mstore\n      0x04\n      add\n      tag_171\n      swap1\n      tag_144\n      jump\t// in\n    tag_171:\n      mload(0x40)\n      dup1\n      swap2\n      sub\n      swap1\n      revert\n    tag_170:\n        /* \"JLoansFactory.sol\":22462:22468  _value */\n      dup1\n        /* \"JLoansFactory.sol\":22430:22440  loanParams */\n      0x0e\n        /* \"JLoansFactory.sol\":22430:22459  loanParams.earlySettlementFee */\n      0x05\n      add\n        /* \"JLoansFactory.sol\":22430:22468  loanParams.earlySettlementFee = _value */\n      dup2\n      swap1\n      sstore\n      pop\n        /* \"JLoansFactory.sol\":22355:22476  function setEarlySettlementFee (uint _value) external onlyOwner {\r... */\n      pop\n      jump\t// out\n        /* \"JLoansFactory.sol\":7311:7390  function owner() public view returns (address) {\r... */\n    tag_91:\n        /* \"JLoansFactory.sol\":7349:7356  address */\n      0x00\n        /* \"JLoansFactory.sol\":7376:7382  _owner */\n      dup1\n      0x00\n      swap1\n      sload\n      swap1\n      0x0100\n      exp\n      swap1\n      div\n      0xffffffffffffffffffffffffffffffffffffffff\n      and\n        /* \"JLoansFactory.sol\":7369:7382  return _owner */\n      swap1\n      pop\n        /* \"JLoansFactory.sol\":7311:7390  function owner() public view returns (address) {\r... */\n      swap1\n      jump\t// out\n        /* \"JLoansFactory.sol\":19088:19125  address[] public ethLoanContractsList */\n    tag_95:\n      0x07\n      dup2\n      dup2\n      sload\n      dup2\n      lt\n      tag_174\n      jumpi\n      invalid\n    tag_174:\n      swap1\n      0x00\n      mstore\n      keccak256(0x00, 0x20)\n      add\n      0x00\n      swap2\n      pop\n      sload\n      swap1\n      0x0100\n      exp\n      swap1\n      div\n      0xffffffffffffffffffffffffffffffffffffffff\n      and\n      dup2\n      jump\t// out\n        /* \"JLoansFactory.sol\":22871:23036  function setStatusInEthContract (uint _idx, uint _newStatus) external onlyOwner {\r... */\n    tag_100:\n        /* \"JLoansFactory.sol\":7533:7545  _msgSender() */\n      tag_177\n        /* \"JLoansFactory.sol\":7533:7543  _msgSender */\n      tag_141\n        /* \"JLoansFactory.sol\":7533:7545  _msgSender() */\n      jump\t// in\n    tag_177:\n        /* \"JLoansFactory.sol\":7523:7545  _owner == _msgSender() */\n      0xffffffffffffffffffffffffffffffffffffffff\n      and\n        /* \"JLoansFactory.sol\":7523:7529  _owner */\n      0x00\n      dup1\n      sload\n      swap1\n      0x0100\n      exp\n      swap1\n      div\n      0xffffffffffffffffffffffffffffffffffffffff\n      and\n        /* \"JLoansFactory.sol\":7523:7545  _owner == _msgSender() */\n      0xffffffffffffffffffffffffffffffffffffffff\n      and\n      eq\n        /* \"JLoansFactory.sol\":7515:7582  require(_owner == _msgSender(), \"Ownable: caller is not the owner\") */\n      tag_178\n      jumpi\n      mload(0x40)\n      0x08c379a000000000000000000000000000000000000000000000000000000000\n      dup2\n      mstore\n      0x04\n      add\n      tag_179\n      swap1\n      tag_144\n      jump\t// in\n    tag_179:\n      mload(0x40)\n      dup1\n      swap2\n      sub\n      swap1\n      revert\n    tag_178:\n        /* \"JLoansFactory.sol\":22976:22996  ethLoanContractsList */\n      0x07\n        /* \"JLoansFactory.sol\":22997:23001  _idx */\n      dup3\n        /* \"JLoansFactory.sol\":22976:23002  ethLoanContractsList[_idx] */\n      dup2\n      sload\n      dup2\n      lt\n      tag_181\n      jumpi\n      invalid\n    tag_181:\n      swap1\n      0x00\n      mstore\n      keccak256(0x00, 0x20)\n      add\n      0x00\n      swap1\n      sload\n      swap1\n      0x0100\n      exp\n      swap1\n      div\n      0xffffffffffffffffffffffffffffffffffffffff\n      and\n        /* \"JLoansFactory.sol\":22962:23016  IJLoanCommons(ethLoanContractsList[_idx]).setNewStatus */\n      0xffffffffffffffffffffffffffffffffffffffff\n      and\n      0x708196ae\n        /* \"JLoansFactory.sol\":23017:23027  _newStatus */\n      dup3\n        /* \"JLoansFactory.sol\":22962:23028  IJLoanCommons(ethLoanContractsList[_idx]).setNewStatus(_newStatus) */\n      mload(0x40)\n      dup3\n      0xffffffff\n      and\n      0xe0\n      shl\n      dup2\n      mstore\n      0x04\n      add\n      tag_183\n      swap2\n      swap1\n      tag_56\n      jump\t// in\n    tag_183:\n      0x00\n      mload(0x40)\n      dup1\n      dup4\n      sub\n      dup2\n      0x00\n      dup8\n      dup1\n      extcodesize\n      iszero\n      dup1\n      iszero\n      tag_184\n      jumpi\n      0x00\n      dup1\n      revert\n    tag_184:\n      pop\n      gas\n      call\n      iszero\n      dup1\n      iszero\n      tag_186\n      jumpi\n      returndatasize\n      0x00\n      dup1\n      returndatacopy\n      revert(0x00, returndatasize)\n    tag_186:\n      pop\n      pop\n      pop\n      pop\n        /* \"JLoansFactory.sol\":22871:23036  function setStatusInEthContract (uint _idx, uint _newStatus) external onlyOwner {\r... */\n      pop\n      pop\n      jump\t// out\n        /* \"JLoansFactory.sol\":18887:18916  address[] public borrowerList */\n    tag_103:\n      0x02\n      dup2\n      dup2\n      sload\n      dup2\n      lt\n      tag_187\n      jumpi\n      invalid\n    tag_187:\n      swap1\n      0x00\n      mstore\n      keccak256(0x00, 0x20)\n      add\n      0x00\n      swap2\n      pop\n      sload\n      swap1\n      0x0100\n      exp\n      swap1\n      div\n      0xffffffffffffffffffffffffffffffffffffffff\n      and\n      dup2\n      jump\t// out\n        /* \"JLoansFactory.sol\":18988:19029  mapping(address => bool) public borrowers */\n    tag_107:\n      mstore(0x20, 0x05)\n      dup1\n      0x00\n      mstore\n      keccak256(0x00, 0x40)\n      0x00\n      swap2\n      pop\n      sload\n      swap1\n      0x0100\n      exp\n      swap1\n      div\n      0xff\n      and\n      dup2\n      jump\t// out\n        /* \"JLoansFactory.sol\":22714:22863  function setLoanParamsInContract (uint _idx) external onlyOwner {\r... */\n    tag_111:\n        /* \"JLoansFactory.sol\":7533:7545  _msgSender() */\n      tag_190\n        /* \"JLoansFactory.sol\":7533:7543  _msgSender */\n      tag_141\n        /* \"JLoansFactory.sol\":7533:7545  _msgSender() */\n      jump\t// in\n    tag_190:\n        /* \"JLoansFactory.sol\":7523:7545  _owner == _msgSender() */\n      0xffffffffffffffffffffffffffffffffffffffff\n      and\n        /* \"JLoansFactory.sol\":7523:7529  _owner */\n      0x00\n      dup1\n      sload\n      swap1\n      0x0100\n      exp\n      swap1\n      div\n      0xffffffffffffffffffffffffffffffffffffffff\n      and\n        /* \"JLoansFactory.sol\":7523:7545  _owner == _msgSender() */\n      0xffffffffffffffffffffffffffffffffffffffff\n      and\n      eq\n        /* \"JLoansFactory.sol\":7515:7582  require(_owner == _msgSender(), \"Ownable: caller is not the owner\") */\n      tag_191\n      jumpi\n      mload(0x40)\n      0x08c379a000000000000000000000000000000000000000000000000000000000\n      dup2\n      mstore\n      0x04\n      add\n      tag_192\n      swap1\n      tag_144\n      jump\t// in\n    tag_192:\n      mload(0x40)\n      dup1\n      swap2\n      sub\n      swap1\n      revert\n    tag_191:\n        /* \"JLoansFactory.sol\":22803:22823  ethLoanContractsList */\n      0x07\n        /* \"JLoansFactory.sol\":22824:22828  _idx */\n      dup2\n        /* \"JLoansFactory.sol\":22803:22829  ethLoanContractsList[_idx] */\n      dup2\n      sload\n      dup2\n      lt\n      tag_194\n      jumpi\n      invalid\n    tag_194:\n      swap1\n      0x00\n      mstore\n      keccak256(0x00, 0x20)\n      add\n      0x00\n      swap1\n      sload\n      swap1\n      0x0100\n      exp\n      swap1\n      div\n      0xffffffffffffffffffffffffffffffffffffffff\n      and\n        /* \"JLoansFactory.sol\":22789:22843  IJLoanCommons(ethLoanContractsList[_idx]).setNewParams */\n      0xffffffffffffffffffffffffffffffffffffffff\n      and\n      0xc6cb6770\n        /* \"JLoansFactory.sol\":22844:22854  loanParams */\n      0x0e\n        /* \"JLoansFactory.sol\":22789:22855  IJLoanCommons(ethLoanContractsList[_idx]).setNewParams(loanParams) */\n      mload(0x40)\n      dup3\n      0xffffffff\n      and\n      0xe0\n      shl\n      dup2\n      mstore\n      0x04\n      add\n      tag_196\n      swap2\n      swap1\n      tag_197\n      jump\t// in\n    tag_196:\n      0x00\n      mload(0x40)\n      dup1\n      dup4\n      sub\n      dup2\n      0x00\n      dup8\n      dup1\n      extcodesize\n      iszero\n      dup1\n      iszero\n      tag_198\n      jumpi\n      0x00\n      dup1\n      revert\n    tag_198:\n      pop\n      gas\n      call\n      iszero\n      dup1\n      iszero\n      tag_200\n      jumpi\n      returndatasize\n      0x00\n      dup1\n      returndatacopy\n      revert(0x00, returndatasize)\n    tag_200:\n      pop\n      pop\n      pop\n      pop\n        /* \"JLoansFactory.sol\":22714:22863  function setLoanParamsInContract (uint _idx) external onlyOwner {\r... */\n      pop\n      jump\t// out\n        /* \"JLoansFactory.sol\":21830:21957  function setEarlySettlementWindow (uint _value) external onlyOwner {\r... */\n    tag_114:\n        /* \"JLoansFactory.sol\":7533:7545  _msgSender() */\n      tag_202\n        /* \"JLoansFactory.sol\":7533:7543  _msgSender */\n      tag_141\n        /* \"JLoansFactory.sol\":7533:7545  _msgSender() */\n      jump\t// in\n    tag_202:\n        /* \"JLoansFactory.sol\":7523:7545  _owner == _msgSender() */\n      0xffffffffffffffffffffffffffffffffffffffff\n      and\n        /* \"JLoansFactory.sol\":7523:7529  _owner */\n      0x00\n      dup1\n      sload\n      swap1\n      0x0100\n      exp\n      swap1\n      div\n      0xffffffffffffffffffffffffffffffffffffffff\n      and\n        /* \"JLoansFactory.sol\":7523:7545  _owner == _msgSender() */\n      0xffffffffffffffffffffffffffffffffffffffff\n      and\n      eq\n        /* \"JLoansFactory.sol\":7515:7582  require(_owner == _msgSender(), \"Ownable: caller is not the owner\") */\n      tag_203\n      jumpi\n      mload(0x40)\n      0x08c379a000000000000000000000000000000000000000000000000000000000\n      dup2\n      mstore\n      0x04\n      add\n      tag_204\n      swap1\n      tag_144\n      jump\t// in\n    tag_204:\n      mload(0x40)\n      dup1\n      swap2\n      sub\n      swap1\n      revert\n    tag_203:\n        /* \"JLoansFactory.sol\":21943:21949  _value */\n      dup1\n        /* \"JLoansFactory.sol\":21908:21918  loanParams */\n      0x0e\n        /* \"JLoansFactory.sol\":21908:21940  loanParams.earlySettlementWindow */\n      0x01\n      add\n        /* \"JLoansFactory.sol\":21908:21949  loanParams.earlySettlementWindow = _value */\n      dup2\n      swap1\n      sstore\n      pop\n        /* \"JLoansFactory.sol\":21830:21957  function setEarlySettlementWindow (uint _value) external onlyOwner {\r... */\n      pop\n      jump\t// out\n        /* \"JLoansFactory.sol\":18923:18947  uint public lenderLength */\n    tag_116:\n      sload(0x03)\n      dup2\n      jump\t// out\n        /* \"JLoansFactory.sol\":19371:19396  IERC20 public jntContract */\n    tag_119:\n      0x0d\n      0x00\n      swap1\n      sload\n      swap1\n      0x0100\n      exp\n      swap1\n      div\n      0xffffffffffffffffffffffffffffffffffffffff\n      and\n      dup2\n      jump\t// out\n        /* \"JLoansFactory.sol\":20039:20917  function deployNewEthLoanContract(string memory _name, string memory _borrowedCrypto, uint _borrowedAskAmount, uint _rpbRate, uint _startPrice) public {\r... */\n    tag_125:\n        /* \"JLoansFactory.sol\":20201:20215  address sender */\n      0x00\n        /* \"JLoansFactory.sol\":20218:20228  msg.sender */\n      caller\n        /* \"JLoansFactory.sol\":20201:20228  address sender = msg.sender */\n      swap1\n      pop\n        /* \"JLoansFactory.sol\":20265:20266  0 */\n      0x00\n        /* \"JLoansFactory.sol\":20247:20267  sender != address(0) */\n      0xffffffffffffffffffffffffffffffffffffffff\n      and\n        /* \"JLoansFactory.sol\":20247:20253  sender */\n      dup2\n        /* \"JLoansFactory.sol\":20247:20267  sender != address(0) */\n      0xffffffffffffffffffffffffffffffffffffffff\n      and\n      eq\n      iszero\n        /* \"JLoansFactory.sol\":20239:20294  require(sender != address(0), \"Sender Address is zero\") */\n      tag_207\n      jumpi\n      mload(0x40)\n      0x08c379a000000000000000000000000000000000000000000000000000000000\n      dup2\n      mstore\n      0x04\n      add\n      tag_208\n      swap1\n      tag_209\n      jump\t// in\n    tag_208:\n      mload(0x40)\n      dup1\n      swap2\n      sub\n      swap1\n      revert\n    tag_207:\n        /* \"JLoansFactory.sol\":20325:20329  true */\n      0x01\n        /* \"JLoansFactory.sol\":20305:20314  borrowers */\n      0x05\n        /* \"JLoansFactory.sol\":20305:20322  borrowers[sender] */\n      0x00\n        /* \"JLoansFactory.sol\":20315:20321  sender */\n      dup4\n        /* \"JLoansFactory.sol\":20305:20322  borrowers[sender] */\n      0xffffffffffffffffffffffffffffffffffffffff\n      and\n      0xffffffffffffffffffffffffffffffffffffffff\n      and\n      dup2\n      mstore\n      0x20\n      add\n      swap1\n      dup2\n      mstore\n      0x20\n      add\n      0x00\n      keccak256\n      0x00\n        /* \"JLoansFactory.sol\":20305:20329  borrowers[sender] = true */\n      0x0100\n      exp\n      dup2\n      sload\n      dup2\n      0xff\n      mul\n      not\n      and\n      swap1\n      dup4\n      iszero\n      iszero\n      mul\n      or\n      swap1\n      sstore\n      pop\n        /* \"JLoansFactory.sol\":20340:20352  borrowerList */\n      0x02\n        /* \"JLoansFactory.sol\":20358:20364  sender */\n      dup2\n        /* \"JLoansFactory.sol\":20340:20365  borrowerList.push(sender) */\n      swap1\n      dup1\n      0x01\n      dup2\n      sload\n      add\n      dup1\n      dup3\n      sstore\n      dup1\n      swap2\n      pop\n      pop\n      0x01\n      swap1\n      sub\n      swap1\n      0x00\n      mstore\n      keccak256(0x00, 0x20)\n      add\n      0x00\n      swap1\n      swap2\n      swap1\n      swap2\n      swap1\n      swap2\n      0x0100\n      exp\n      dup2\n      sload\n      dup2\n      0xffffffffffffffffffffffffffffffffffffffff\n      mul\n      not\n      and\n      swap1\n      dup4\n      0xffffffffffffffffffffffffffffffffffffffff\n      and\n      mul\n      or\n      swap1\n      sstore\n      pop\n        /* \"JLoansFactory.sol\":20393:20405  borrowerList */\n      0x02\n        /* \"JLoansFactory.sol\":20393:20412  borrowerList.length */\n      dup1\n      sload\n      swap1\n      pop\n        /* \"JLoansFactory.sol\":20376:20390  borrowerLength */\n      0x01\n        /* \"JLoansFactory.sol\":20376:20412  borrowerLength = borrowerList.length */\n      dup2\n      swap1\n      sstore\n      pop\n        /* \"JLoansFactory.sol\":20423:20449  address newEthLoanContract */\n      0x00\n        /* \"JLoansFactory.sol\":20477:20482  _name */\n      dup7\n        /* \"JLoansFactory.sol\":20484:20499  _borrowedCrypto */\n      dup7\n        /* \"JLoansFactory.sol\":20501:20519  _borrowedAskAmount */\n      dup7\n        /* \"JLoansFactory.sol\":20521:20529  _rpbRate */\n      dup7\n        /* \"JLoansFactory.sol\":20531:20542  _startPrice */\n      dup7\n        /* \"JLoansFactory.sol\":20544:20554  loanParams */\n      0x0e\n        /* \"JLoansFactory.sol\":20564:20568  this */\n      address\n        /* \"JLoansFactory.sol\":20460:20570  new JLoanEthPair(_name, _borrowedCrypto, _borrowedAskAmount, _rpbRate, _startPrice, loanParams, address(this)) */\n      mload(0x40)\n      tag_211\n      swap1\n      tag_212\n      jump\t// in\n    tag_211:\n      tag_213\n      swap8\n      swap7\n      swap6\n      swap5\n      swap4\n      swap3\n      swap2\n      swap1\n      tag_214\n      jump\t// in\n    tag_213:\n      mload(0x40)\n      dup1\n      swap2\n      sub\n      swap1\n      0x00\n      create\n      dup1\n      iszero\n      dup1\n      iszero\n      tag_215\n      jumpi\n      returndatasize\n      0x00\n      dup1\n      returndatacopy\n      revert(0x00, returndatasize)\n    tag_215:\n      pop\n        /* \"JLoansFactory.sol\":20423:20571  address newEthLoanContract = address(new JLoanEthPair(_name, _borrowedCrypto, _borrowedAskAmount, _rpbRate, _startPrice, loanParams, address(this))) */\n      swap1\n      pop\n        /* \"JLoansFactory.sol\":20621:20625  true */\n      0x01\n        /* \"JLoansFactory.sol\":20582:20598  ethLoanContracts */\n      0x08\n        /* \"JLoansFactory.sol\":20582:20618  ethLoanContracts[newEthLoanContract] */\n      0x00\n        /* \"JLoansFactory.sol\":20599:20617  newEthLoanContract */\n      dup4\n        /* \"JLoansFactory.sol\":20582:20618  ethLoanContracts[newEthLoanContract] */\n      0xffffffffffffffffffffffffffffffffffffffff\n      and\n      0xffffffffffffffffffffffffffffffffffffffff\n      and\n      dup2\n      mstore\n      0x20\n      add\n      swap1\n      dup2\n      mstore\n      0x20\n      add\n      0x00\n      keccak256\n      0x00\n        /* \"JLoansFactory.sol\":20582:20625  ethLoanContracts[newEthLoanContract] = true */\n      0x0100\n      exp\n      dup2\n      sload\n      dup2\n      0xff\n      mul\n      not\n      and\n      swap1\n      dup4\n      iszero\n      iszero\n      mul\n      or\n      swap1\n      sstore\n      pop\n        /* \"JLoansFactory.sol\":20636:20656  ethLoanContractsList */\n      0x07\n        /* \"JLoansFactory.sol\":20662:20680  newEthLoanContract */\n      dup2\n        /* \"JLoansFactory.sol\":20636:20681  ethLoanContractsList.push(newEthLoanContract) */\n      swap1\n      dup1\n      0x01\n      dup2\n      sload\n      add\n      dup1\n      dup3\n      sstore\n      dup1\n      swap2\n      pop\n      pop\n      0x01\n      swap1\n      sub\n      swap1\n      0x00\n      mstore\n      keccak256(0x00, 0x20)\n      add\n      0x00\n      swap1\n      swap2\n      swap1\n      swap2\n      swap1\n      swap2\n      0x0100\n      exp\n      dup2\n      sload\n      dup2\n      0xffffffffffffffffffffffffffffffffffffffff\n      mul\n      not\n      and\n      swap1\n      dup4\n      0xffffffffffffffffffffffffffffffffffffffff\n      and\n      mul\n      or\n      swap1\n      sstore\n      pop\n        /* \"JLoansFactory.sol\":20734:20755  Ownable customOwnable */\n      0x00\n        /* \"JLoansFactory.sol\":20766:20784  newEthLoanContract */\n      dup2\n        /* \"JLoansFactory.sol\":20734:20785  Ownable customOwnable = Ownable(newEthLoanContract) */\n      swap1\n      pop\n        /* \"JLoansFactory.sol\":20796:20809  customOwnable */\n      dup1\n        /* \"JLoansFactory.sol\":20796:20827  customOwnable.transferOwnership */\n      0xffffffffffffffffffffffffffffffffffffffff\n      and\n      0xf2fde38b\n        /* \"JLoansFactory.sol\":20828:20834  sender */\n      dup5\n        /* \"JLoansFactory.sol\":20796:20835  customOwnable.transferOwnership(sender) */\n      mload(0x40)\n      dup3\n      0xffffffff\n      and\n      0xe0\n      shl\n      dup2\n      mstore\n      0x04\n      add\n      tag_217\n      swap2\n      swap1\n      tag_69\n      jump\t// in\n    tag_217:\n      0x00\n      mload(0x40)\n      dup1\n      dup4\n      sub\n      dup2\n      0x00\n      dup8\n      dup1\n      extcodesize\n      iszero\n      dup1\n      iszero\n      tag_218\n      jumpi\n      0x00\n      dup1\n      revert\n    tag_218:\n      pop\n      gas\n      call\n      iszero\n      dup1\n      iszero\n      tag_220\n      jumpi\n      returndatasize\n      0x00\n      dup1\n      returndatacopy\n      revert(0x00, returndatasize)\n    tag_220:\n      pop\n      pop\n      pop\n      pop\n        /* \"JLoansFactory.sol\":20874:20892  newEthLoanContract */\n      dup2\n        /* \"JLoansFactory.sol\":20851:20909  NewLoanCreated(sender, newEthLoanContract, borrowerLength) */\n      0xffffffffffffffffffffffffffffffffffffffff\n      and\n        /* \"JLoansFactory.sol\":20866:20872  sender */\n      dup4\n        /* \"JLoansFactory.sol\":20851:20909  NewLoanCreated(sender, newEthLoanContract, borrowerLength) */\n      0xffffffffffffffffffffffffffffffffffffffff\n      and\n      0x1519d7f9990f04680be1a1b64a5e8ef2c24c9a5f94de2c3c50f9e3aef18fc55f\n        /* \"JLoansFactory.sol\":20894:20908  borrowerLength */\n      sload(0x01)\n        /* \"JLoansFactory.sol\":20851:20909  NewLoanCreated(sender, newEthLoanContract, borrowerLength) */\n      mload(0x40)\n      tag_221\n      swap2\n      swap1\n      tag_56\n      jump\t// in\n    tag_221:\n      mload(0x40)\n      dup1\n      swap2\n      sub\n      swap1\n      log3\n        /* \"JLoansFactory.sol\":20039:20917  function deployNewEthLoanContract(string memory _name, string memory _borrowedCrypto, uint _borrowedAskAmount, uint _rpbRate, uint _startPrice) public {\r... */\n      pop\n      pop\n      pop\n      pop\n      pop\n      pop\n      pop\n      pop\n      jump\t// out\n        /* \"JLoansFactory.sol\":19233:19283  mapping(address => bool) public tokenLoanContracts */\n    tag_128:\n      mstore(0x20, 0x0a)\n      dup1\n      0x00\n      mstore\n      keccak256(0x00, 0x40)\n      0x00\n      swap2\n      pop\n      sload\n      swap1\n      0x0100\n      exp\n      swap1\n      div\n      0xff\n      and\n      dup2\n      jump\t// out\n        /* \"JLoansFactory.sol\":22216:22347  function setInstantForeclosureRatio (uint _value) external onlyOwner {\r... */\n    tag_132:\n        /* \"JLoansFactory.sol\":7533:7545  _msgSender() */\n      tag_223\n        /* \"JLoansFactory.sol\":7533:7543  _msgSender */\n      tag_141\n        /* \"JLoansFactory.sol\":7533:7545  _msgSender() */\n      jump\t// in\n    tag_223:\n        /* \"JLoansFactory.sol\":7523:7545  _owner == _msgSender() */\n      0xffffffffffffffffffffffffffffffffffffffff\n      and\n        /* \"JLoansFactory.sol\":7523:7529  _owner */\n      0x00\n      dup1\n      sload\n      swap1\n      0x0100\n      exp\n      swap1\n      div\n      0xffffffffffffffffffffffffffffffffffffffff\n      and\n        /* \"JLoansFactory.sol\":7523:7545  _owner == _msgSender() */\n      0xffffffffffffffffffffffffffffffffffffffff\n      and\n      eq\n        /* \"JLoansFactory.sol\":7515:7582  require(_owner == _msgSender(), \"Ownable: caller is not the owner\") */\n      tag_224\n      jumpi\n      mload(0x40)\n      0x08c379a000000000000000000000000000000000000000000000000000000000\n      dup2\n      mstore\n      0x04\n      add\n      tag_225\n      swap1\n      tag_144\n      jump\t// in\n    tag_225:\n      mload(0x40)\n      dup1\n      swap2\n      sub\n      swap1\n      revert\n    tag_224:\n        /* \"JLoansFactory.sol\":22333:22339  _value */\n      dup1\n        /* \"JLoansFactory.sol\":22296:22306  loanParams */\n      0x0e\n        /* \"JLoansFactory.sol\":22296:22330  loanParams.instantForeclosureRatio */\n      0x04\n      add\n        /* \"JLoansFactory.sol\":22296:22339  loanParams.instantForeclosureRatio = _value */\n      dup2\n      swap1\n      sstore\n      pop\n        /* \"JLoansFactory.sol\":22216:22347  function setInstantForeclosureRatio (uint _value) external onlyOwner {\r... */\n      pop\n      jump\t// out\n        /* \"JLoansFactory.sol\":8256:8500  function transferOwnership(address newOwner) public virtual onlyOwner {\r... */\n    tag_135:\n        /* \"JLoansFactory.sol\":7533:7545  _msgSender() */\n      tag_228\n        /* \"JLoansFactory.sol\":7533:7543  _msgSender */\n      tag_141\n        /* \"JLoansFactory.sol\":7533:7545  _msgSender() */\n      jump\t// in\n    tag_228:\n        /* \"JLoansFactory.sol\":7523:7545  _owner == _msgSender() */\n      0xffffffffffffffffffffffffffffffffffffffff\n      and\n        /* \"JLoansFactory.sol\":7523:7529  _owner */\n      0x00\n      dup1\n      sload\n      swap1\n      0x0100\n      exp\n      swap1\n      div\n      0xffffffffffffffffffffffffffffffffffffffff\n      and\n        /* \"JLoansFactory.sol\":7523:7545  _owner == _msgSender() */\n      0xffffffffffffffffffffffffffffffffffffffff\n      and\n      eq\n        /* \"JLoansFactory.sol\":7515:7582  require(_owner == _msgSender(), \"Ownable: caller is not the owner\") */\n      tag_229\n      jumpi\n      mload(0x40)\n      0x08c379a000000000000000000000000000000000000000000000000000000000\n      dup2\n      mstore\n      0x04\n      add\n      tag_230\n      swap1\n      tag_144\n      jump\t// in\n    tag_230:\n      mload(0x40)\n      dup1\n      swap2\n      sub\n      swap1\n      revert\n    tag_229:\n        /* \"JLoansFactory.sol\":8365:8366  0 */\n      0x00\n        /* \"JLoansFactory.sol\":8345:8367  newOwner != address(0) */\n      0xffffffffffffffffffffffffffffffffffffffff\n      and\n        /* \"JLoansFactory.sol\":8345:8353  newOwner */\n      dup2\n        /* \"JLoansFactory.sol\":8345:8367  newOwner != address(0) */\n      0xffffffffffffffffffffffffffffffffffffffff\n      and\n      eq\n      iszero\n        /* \"JLoansFactory.sol\":8337:8410  require(newOwner != address(0), \"Ownable: new owner is the zero address\") */\n      tag_232\n      jumpi\n      mload(0x40)\n      0x08c379a000000000000000000000000000000000000000000000000000000000\n      dup2\n      mstore\n      0x04\n      add\n      tag_233\n      swap1\n      tag_234\n      jump\t// in\n    tag_233:\n      mload(0x40)\n      dup1\n      swap2\n      sub\n      swap1\n      revert\n    tag_232:\n        /* \"JLoansFactory.sol\":8455:8463  newOwner */\n      dup1\n        /* \"JLoansFactory.sol\":8426:8464  OwnershipTransferred(_owner, newOwner) */\n      0xffffffffffffffffffffffffffffffffffffffff\n      and\n        /* \"JLoansFactory.sol\":8447:8453  _owner */\n      0x00\n      dup1\n      sload\n      swap1\n      0x0100\n      exp\n      swap1\n      div\n      0xffffffffffffffffffffffffffffffffffffffff\n      and\n        /* \"JLoansFactory.sol\":8426:8464  OwnershipTransferred(_owner, newOwner) */\n      0xffffffffffffffffffffffffffffffffffffffff\n      and\n      0x8be0079c531659141344cd1fd0a4f28419497f9722a3daafe3b4186f6b6457e0\n      mload(0x40)\n      mload(0x40)\n      dup1\n      swap2\n      sub\n      swap1\n      log3\n        /* \"JLoansFactory.sol\":8484:8492  newOwner */\n      dup1\n        /* \"JLoansFactory.sol\":8475:8481  _owner */\n      0x00\n      dup1\n        /* \"JLoansFactory.sol\":8475:8492  _owner = newOwner */\n      0x0100\n      exp\n      dup2\n      sload\n      dup2\n      0xffffffffffffffffffffffffffffffffffffffff\n      mul\n      not\n      and\n      swap1\n      dup4\n      0xffffffffffffffffffffffffffffffffffffffff\n      and\n      mul\n      or\n      swap1\n      sstore\n      pop\n        /* \"JLoansFactory.sol\":8256:8500  function transferOwnership(address newOwner) public virtual onlyOwner {\r... */\n      pop\n      jump\t// out\n        /* \"JLoansFactory.sol\":20925:21822  function deployNewTokensLoanContract(string memory _name, string memory _borrowedCrypto, uint _borrowedAskAmount, uint _rpbRate, uint _startPrice) public {\r... */\n    tag_138:\n        /* \"JLoansFactory.sol\":21090:21104  address sender */\n      0x00\n        /* \"JLoansFactory.sol\":21107:21117  msg.sender */\n      caller\n        /* \"JLoansFactory.sol\":21090:21117  address sender = msg.sender */\n      swap1\n      pop\n        /* \"JLoansFactory.sol\":21154:21155  0 */\n      0x00\n        /* \"JLoansFactory.sol\":21136:21156  sender != address(0) */\n      0xffffffffffffffffffffffffffffffffffffffff\n      and\n        /* \"JLoansFactory.sol\":21136:21142  sender */\n      dup2\n        /* \"JLoansFactory.sol\":21136:21156  sender != address(0) */\n      0xffffffffffffffffffffffffffffffffffffffff\n      and\n      eq\n      iszero\n        /* \"JLoansFactory.sol\":21128:21183  require(sender != address(0), \"Sender Address is zero\") */\n      tag_236\n      jumpi\n      mload(0x40)\n      0x08c379a000000000000000000000000000000000000000000000000000000000\n      dup2\n      mstore\n      0x04\n      add\n      tag_237\n      swap1\n      tag_209\n      jump\t// in\n    tag_237:\n      mload(0x40)\n      dup1\n      swap2\n      sub\n      swap1\n      revert\n    tag_236:\n        /* \"JLoansFactory.sol\":21214:21218  true */\n      0x01\n        /* \"JLoansFactory.sol\":21194:21203  borrowers */\n      0x05\n        /* \"JLoansFactory.sol\":21194:21211  borrowers[sender] */\n      0x00\n        /* \"JLoansFactory.sol\":21204:21210  sender */\n      dup4\n        /* \"JLoansFactory.sol\":21194:21211  borrowers[sender] */\n      0xffffffffffffffffffffffffffffffffffffffff\n      and\n      0xffffffffffffffffffffffffffffffffffffffff\n      and\n      dup2\n      mstore\n      0x20\n      add\n      swap1\n      dup2\n      mstore\n      0x20\n      add\n      0x00\n      keccak256\n      0x00\n        /* \"JLoansFactory.sol\":21194:21218  borrowers[sender] = true */\n      0x0100\n      exp\n      dup2\n      sload\n      dup2\n      0xff\n      mul\n      not\n      and\n      swap1\n      dup4\n      iszero\n      iszero\n      mul\n      or\n      swap1\n      sstore\n      pop\n        /* \"JLoansFactory.sol\":21229:21241  borrowerList */\n      0x02\n        /* \"JLoansFactory.sol\":21247:21253  sender */\n      dup2\n        /* \"JLoansFactory.sol\":21229:21254  borrowerList.push(sender) */\n      swap1\n      dup1\n      0x01\n      dup2\n      sload\n      add\n      dup1\n      dup3\n      sstore\n      dup1\n      swap2\n      pop\n      pop\n      0x01\n      swap1\n      sub\n      swap1\n      0x00\n      mstore\n      keccak256(0x00, 0x20)\n      add\n      0x00\n      swap1\n      swap2\n      swap1\n      swap2\n      swap1\n      swap2\n      0x0100\n      exp\n      dup2\n      sload\n      dup2\n      0xffffffffffffffffffffffffffffffffffffffff\n      mul\n      not\n      and\n      swap1\n      dup4\n      0xffffffffffffffffffffffffffffffffffffffff\n      and\n      mul\n      or\n      swap1\n      sstore\n      pop\n        /* \"JLoansFactory.sol\":21282:21294  borrowerList */\n      0x02\n        /* \"JLoansFactory.sol\":21282:21301  borrowerList.length */\n      dup1\n      sload\n      swap1\n      pop\n        /* \"JLoansFactory.sol\":21265:21279  borrowerLength */\n      0x01\n        /* \"JLoansFactory.sol\":21265:21301  borrowerLength = borrowerList.length */\n      dup2\n      swap1\n      sstore\n      pop\n        /* \"JLoansFactory.sol\":21312:21340  address newTokenLoanContract */\n      0x00\n        /* \"JLoansFactory.sol\":21370:21375  _name */\n      dup7\n        /* \"JLoansFactory.sol\":21377:21392  _borrowedCrypto */\n      dup7\n        /* \"JLoansFactory.sol\":21394:21412  _borrowedAskAmount */\n      dup7\n        /* \"JLoansFactory.sol\":21414:21422  _rpbRate */\n      dup7\n        /* \"JLoansFactory.sol\":21424:21435  _startPrice */\n      dup7\n        /* \"JLoansFactory.sol\":21437:21447  loanParams */\n      0x0e\n        /* \"JLoansFactory.sol\":21457:21461  this */\n      address\n        /* \"JLoansFactory.sol\":21351:21463  new JLoanTokenPair(_name, _borrowedCrypto, _borrowedAskAmount, _rpbRate, _startPrice, loanParams, address(this)) */\n      mload(0x40)\n      tag_239\n      swap1\n      tag_240\n      jump\t// in\n    tag_239:\n      tag_241\n      swap8\n      swap7\n      swap6\n      swap5\n      swap4\n      swap3\n      swap2\n      swap1\n      tag_214\n      jump\t// in\n    tag_241:\n      mload(0x40)\n      dup1\n      swap2\n      sub\n      swap1\n      0x00\n      create\n      dup1\n      iszero\n      dup1\n      iszero\n      tag_242\n      jumpi\n      returndatasize\n      0x00\n      dup1\n      returndatacopy\n      revert(0x00, returndatasize)\n    tag_242:\n      pop\n        /* \"JLoansFactory.sol\":21312:21464  address newTokenLoanContract = address(new JLoanTokenPair(_name, _borrowedCrypto, _borrowedAskAmount, _rpbRate, _startPrice, loanParams, address(this))) */\n      swap1\n      pop\n        /* \"JLoansFactory.sol\":21518:21522  true */\n      0x01\n        /* \"JLoansFactory.sol\":21475:21493  tokenLoanContracts */\n      0x0a\n        /* \"JLoansFactory.sol\":21475:21515  tokenLoanContracts[newTokenLoanContract] */\n      0x00\n        /* \"JLoansFactory.sol\":21494:21514  newTokenLoanContract */\n      dup4\n        /* \"JLoansFactory.sol\":21475:21515  tokenLoanContracts[newTokenLoanContract] */\n      0xffffffffffffffffffffffffffffffffffffffff\n      and\n      0xffffffffffffffffffffffffffffffffffffffff\n      and\n      dup2\n      mstore\n      0x20\n      add\n      swap1\n      dup2\n      mstore\n      0x20\n      add\n      0x00\n      keccak256\n      0x00\n        /* \"JLoansFactory.sol\":21475:21522  tokenLoanContracts[newTokenLoanContract] = true */\n      0x0100\n      exp\n      dup2\n      sload\n      dup2\n      0xff\n      mul\n      not\n      and\n      swap1\n      dup4\n      iszero\n      iszero\n      mul\n      or\n      swap1\n      sstore\n      pop\n        /* \"JLoansFactory.sol\":21533:21555  tokenLoanContractsList */\n      0x09\n        /* \"JLoansFactory.sol\":21561:21581  newTokenLoanContract */\n      dup2\n        /* \"JLoansFactory.sol\":21533:21582  tokenLoanContractsList.push(newTokenLoanContract) */\n      swap1\n      dup1\n      0x01\n      dup2\n      sload\n      add\n      dup1\n      dup3\n      sstore\n      dup1\n      swap2\n      pop\n      pop\n      0x01\n      swap1\n      sub\n      swap1\n      0x00\n      mstore\n      keccak256(0x00, 0x20)\n      add\n      0x00\n      swap1\n      swap2\n      swap1\n      swap2\n      swap1\n      swap2\n      0x0100\n      exp\n      dup2\n      sload\n      dup2\n      0xffffffffffffffffffffffffffffffffffffffff\n      mul\n      not\n      and\n      swap1\n      dup4\n      0xffffffffffffffffffffffffffffffffffffffff\n      and\n      mul\n      or\n      swap1\n      sstore\n      pop\n        /* \"JLoansFactory.sol\":21635:21656  Ownable customOwnable */\n      0x00\n        /* \"JLoansFactory.sol\":21667:21687  newTokenLoanContract */\n      dup2\n        /* \"JLoansFactory.sol\":21635:21688  Ownable customOwnable = Ownable(newTokenLoanContract) */\n      swap1\n      pop\n        /* \"JLoansFactory.sol\":21699:21712  customOwnable */\n      dup1\n        /* \"JLoansFactory.sol\":21699:21730  customOwnable.transferOwnership */\n      0xffffffffffffffffffffffffffffffffffffffff\n      and\n      0xf2fde38b\n        /* \"JLoansFactory.sol\":21731:21737  sender */\n      dup5\n        /* \"JLoansFactory.sol\":21699:21738  customOwnable.transferOwnership(sender) */\n      mload(0x40)\n      dup3\n      0xffffffff\n      and\n      0xe0\n      shl\n      dup2\n      mstore\n      0x04\n      add\n      tag_244\n      swap2\n      swap1\n      tag_69\n      jump\t// in\n    tag_244:\n      0x00\n      mload(0x40)\n      dup1\n      dup4\n      sub\n      dup2\n      0x00\n      dup8\n      dup1\n      extcodesize\n      iszero\n      dup1\n      iszero\n      tag_245\n      jumpi\n      0x00\n      dup1\n      revert\n    tag_245:\n      pop\n      gas\n      call\n      iszero\n      dup1\n      iszero\n      tag_247\n      jumpi\n      returndatasize\n      0x00\n      dup1\n      returndatacopy\n      revert(0x00, returndatasize)\n    tag_247:\n      pop\n      pop\n      pop\n      pop\n        /* \"JLoansFactory.sol\":21777:21797  newTokenLoanContract */\n      dup2\n        /* \"JLoansFactory.sol\":21754:21814  NewLoanCreated(sender, newTokenLoanContract, borrowerLength) */\n      0xffffffffffffffffffffffffffffffffffffffff\n      and\n        /* \"JLoansFactory.sol\":21769:21775  sender */\n      dup4\n        /* \"JLoansFactory.sol\":21754:21814  NewLoanCreated(sender, newTokenLoanContract, borrowerLength) */\n      0xffffffffffffffffffffffffffffffffffffffff\n      and\n      0x1519d7f9990f04680be1a1b64a5e8ef2c24c9a5f94de2c3c50f9e3aef18fc55f\n        /* \"JLoansFactory.sol\":21799:21813  borrowerLength */\n      sload(0x01)\n        /* \"JLoansFactory.sol\":21754:21814  NewLoanCreated(sender, newTokenLoanContract, borrowerLength) */\n      mload(0x40)\n      tag_248\n      swap2\n      swap1\n      tag_56\n      jump\t// in\n    tag_248:\n      mload(0x40)\n      dup1\n      swap2\n      sub\n      swap1\n      log3\n        /* \"JLoansFactory.sol\":20925:21822  function deployNewTokensLoanContract(string memory _name, string memory _borrowedCrypto, uint _borrowedAskAmount, uint _rpbRate, uint _startPrice) public {\r... */\n      pop\n      pop\n      pop\n      pop\n      pop\n      pop\n      pop\n      pop\n      jump\t// out\n        /* \"JLoansFactory.sol\":5945:6051  function _msgSender() internal view virtual returns (address payable) {\r... */\n    tag_141:\n        /* \"JLoansFactory.sol\":5998:6013  address payable */\n      0x00\n        /* \"JLoansFactory.sol\":6033:6043  msg.sender */\n      caller\n        /* \"JLoansFactory.sol\":6026:6043  return msg.sender */\n      swap1\n      pop\n        /* \"JLoansFactory.sol\":5945:6051  function _msgSender() internal view virtual returns (address payable) {\r... */\n      swap1\n      jump\t// out\n    tag_147:\n      mload(0x40)\n      dup1\n      0xc0\n      add\n      0x40\n      mstore\n      dup1\n      0x00\n      dup2\n      mstore\n      0x20\n      add\n      0x00\n      dup2\n      mstore\n      0x20\n      add\n      0x00\n      dup2\n      mstore\n      0x20\n      add\n      0x00\n      dup2\n      mstore\n      0x20\n      add\n      0x00\n      dup2\n      mstore\n      0x20\n      add\n      0x00\n      dup2\n      mstore\n      pop\n      swap1\n      jump\t// out\n    tag_212:\n      dataSize(sub_0)\n      dup1\n      dataOffset(sub_0)\n      dup4\n      codecopy\n      add\n      swap1\n      jump\t// out\n    tag_240:\n      dataSize(sub_1)\n      dup1\n      dataOffset(sub_1)\n      dup4\n      codecopy\n      add\n      swap1\n      jump\t// out\n        /* \"--CODEGEN--\":5:135   */\n    tag_251:\n      0x00\n        /* \"--CODEGEN--\":85:91   */\n      dup2\n        /* \"--CODEGEN--\":72:92   */\n      calldataload\n        /* \"--CODEGEN--\":63:92   */\n      swap1\n      pop\n        /* \"--CODEGEN--\":97:130   */\n      tag_253\n        /* \"--CODEGEN--\":124:129   */\n      dup2\n        /* \"--CODEGEN--\":97:130   */\n      tag_254\n      jump\t// in\n    tag_253:\n        /* \"--CODEGEN--\":57:135   */\n      swap3\n      swap2\n      pop\n      pop\n      jump\t// out\n        /* \"--CODEGEN--\":143:585   */\n    tag_255:\n      0x00\n        /* \"--CODEGEN--\":245:248   */\n      dup3\n        /* \"--CODEGEN--\":238:242   */\n      0x1f\n        /* \"--CODEGEN--\":230:236   */\n      dup4\n        /* \"--CODEGEN--\":226:243   */\n      add\n        /* \"--CODEGEN--\":222:249   */\n      slt\n        /* \"--CODEGEN--\":212:214   */\n      tag_257\n      jumpi\n        /* \"--CODEGEN--\":263:264   */\n      0x00\n        /* \"--CODEGEN--\":260:261   */\n      dup1\n        /* \"--CODEGEN--\":253:265   */\n      revert\n        /* \"--CODEGEN--\":212:214   */\n    tag_257:\n        /* \"--CODEGEN--\":300:306   */\n      dup2\n        /* \"--CODEGEN--\":287:307   */\n      calldataload\n        /* \"--CODEGEN--\":322:387   */\n      tag_258\n        /* \"--CODEGEN--\":337:386   */\n      tag_259\n        /* \"--CODEGEN--\":379:385   */\n      dup3\n        /* \"--CODEGEN--\":337:386   */\n      tag_260\n      jump\t// in\n    tag_259:\n        /* \"--CODEGEN--\":322:387   */\n      tag_261\n      jump\t// in\n    tag_258:\n        /* \"--CODEGEN--\":313:387   */\n      swap2\n      pop\n        /* \"--CODEGEN--\":407:413   */\n      dup1\n        /* \"--CODEGEN--\":400:405   */\n      dup3\n        /* \"--CODEGEN--\":393:414   */\n      mstore\n        /* \"--CODEGEN--\":443:447   */\n      0x20\n        /* \"--CODEGEN--\":435:441   */\n      dup4\n        /* \"--CODEGEN--\":431:448   */\n      add\n        /* \"--CODEGEN--\":476:480   */\n      0x20\n        /* \"--CODEGEN--\":469:474   */\n      dup4\n        /* \"--CODEGEN--\":465:481   */\n      add\n        /* \"--CODEGEN--\":511:514   */\n      dup6\n        /* \"--CODEGEN--\":502:508   */\n      dup4\n        /* \"--CODEGEN--\":497:500   */\n      dup4\n        /* \"--CODEGEN--\":493:509   */\n      add\n        /* \"--CODEGEN--\":490:515   */\n      gt\n        /* \"--CODEGEN--\":487:489   */\n      iszero\n      tag_262\n      jumpi\n        /* \"--CODEGEN--\":528:529   */\n      0x00\n        /* \"--CODEGEN--\":525:526   */\n      dup1\n        /* \"--CODEGEN--\":518:530   */\n      revert\n        /* \"--CODEGEN--\":487:489   */\n    tag_262:\n        /* \"--CODEGEN--\":538:579   */\n      tag_263\n        /* \"--CODEGEN--\":572:578   */\n      dup4\n        /* \"--CODEGEN--\":567:570   */\n      dup3\n        /* \"--CODEGEN--\":562:565   */\n      dup5\n        /* \"--CODEGEN--\":538:579   */\n      tag_264\n      jump\t// in\n    tag_263:\n        /* \"--CODEGEN--\":205:585   */\n      pop\n      pop\n      pop\n      swap3\n      swap2\n      pop\n      pop\n      jump\t// out\n        /* \"--CODEGEN--\":593:723   */\n    tag_265:\n      0x00\n        /* \"--CODEGEN--\":673:679   */\n      dup2\n        /* \"--CODEGEN--\":660:680   */\n      calldataload\n        /* \"--CODEGEN--\":651:680   */\n      swap1\n      pop\n        /* \"--CODEGEN--\":685:718   */\n      tag_267\n        /* \"--CODEGEN--\":712:717   */\n      dup2\n        /* \"--CODEGEN--\":685:718   */\n      tag_268\n      jump\t// in\n    tag_267:\n        /* \"--CODEGEN--\":645:723   */\n      swap3\n      swap2\n      pop\n      pop\n      jump\t// out\n        /* \"--CODEGEN--\":730:971   */\n    tag_59:\n      0x00\n        /* \"--CODEGEN--\":834:836   */\n      0x20\n        /* \"--CODEGEN--\":822:831   */\n      dup3\n        /* \"--CODEGEN--\":813:820   */\n      dup5\n        /* \"--CODEGEN--\":809:832   */\n      sub\n        /* \"--CODEGEN--\":805:837   */\n      slt\n        /* \"--CODEGEN--\":802:804   */\n      iszero\n      tag_270\n      jumpi\n        /* \"--CODEGEN--\":850:851   */\n      0x00\n        /* \"--CODEGEN--\":847:848   */\n      dup1\n        /* \"--CODEGEN--\":840:852   */\n      revert\n        /* \"--CODEGEN--\":802:804   */\n    tag_270:\n        /* \"--CODEGEN--\":885:886   */\n      0x00\n        /* \"--CODEGEN--\":902:955   */\n      tag_271\n        /* \"--CODEGEN--\":947:954   */\n      dup5\n        /* \"--CODEGEN--\":938:944   */\n      dup3\n        /* \"--CODEGEN--\":927:936   */\n      dup6\n        /* \"--CODEGEN--\":923:945   */\n      add\n        /* \"--CODEGEN--\":902:955   */\n      tag_251\n      jump\t// in\n    tag_271:\n        /* \"--CODEGEN--\":892:955   */\n      swap2\n      pop\n        /* \"--CODEGEN--\":864:961   */\n      pop\n        /* \"--CODEGEN--\":796:971   */\n      swap3\n      swap2\n      pop\n      pop\n      jump\t// out\n        /* \"--CODEGEN--\":978:1933   */\n    tag_124:\n      0x00\n      dup1\n      0x00\n      dup1\n      0x00\n        /* \"--CODEGEN--\":1170:1173   */\n      0xa0\n        /* \"--CODEGEN--\":1158:1167   */\n      dup7\n        /* \"--CODEGEN--\":1149:1156   */\n      dup9\n        /* \"--CODEGEN--\":1145:1168   */\n      sub\n        /* \"--CODEGEN--\":1141:1174   */\n      slt\n        /* \"--CODEGEN--\":1138:1140   */\n      iszero\n      tag_273\n      jumpi\n        /* \"--CODEGEN--\":1187:1188   */\n      0x00\n        /* \"--CODEGEN--\":1184:1185   */\n      dup1\n        /* \"--CODEGEN--\":1177:1189   */\n      revert\n        /* \"--CODEGEN--\":1138:1140   */\n    tag_273:\n        /* \"--CODEGEN--\":1250:1251   */\n      0x00\n        /* \"--CODEGEN--\":1239:1248   */\n      dup7\n        /* \"--CODEGEN--\":1235:1252   */\n      add\n        /* \"--CODEGEN--\":1222:1253   */\n      calldataload\n        /* \"--CODEGEN--\":1273:1291   */\n      0xffffffffffffffff\n        /* \"--CODEGEN--\":1265:1271   */\n      dup2\n        /* \"--CODEGEN--\":1262:1292   */\n      gt\n        /* \"--CODEGEN--\":1259:1261   */\n      iszero\n      tag_274\n      jumpi\n        /* \"--CODEGEN--\":1305:1306   */\n      0x00\n        /* \"--CODEGEN--\":1302:1303   */\n      dup1\n        /* \"--CODEGEN--\":1295:1307   */\n      revert\n        /* \"--CODEGEN--\":1259:1261   */\n    tag_274:\n        /* \"--CODEGEN--\":1325:1388   */\n      tag_275\n        /* \"--CODEGEN--\":1380:1387   */\n      dup9\n        /* \"--CODEGEN--\":1371:1377   */\n      dup3\n        /* \"--CODEGEN--\":1360:1369   */\n      dup10\n        /* \"--CODEGEN--\":1356:1378   */\n      add\n        /* \"--CODEGEN--\":1325:1388   */\n      tag_255\n      jump\t// in\n    tag_275:\n        /* \"--CODEGEN--\":1315:1388   */\n      swap6\n      pop\n        /* \"--CODEGEN--\":1201:1394   */\n      pop\n        /* \"--CODEGEN--\":1453:1455   */\n      0x20\n        /* \"--CODEGEN--\":1442:1451   */\n      dup7\n        /* \"--CODEGEN--\":1438:1456   */\n      add\n        /* \"--CODEGEN--\":1425:1457   */\n      calldataload\n        /* \"--CODEGEN--\":1477:1495   */\n      0xffffffffffffffff\n        /* \"--CODEGEN--\":1469:1475   */\n      dup2\n        /* \"--CODEGEN--\":1466:1496   */\n      gt\n        /* \"--CODEGEN--\":1463:1465   */\n      iszero\n      tag_276\n      jumpi\n        /* \"--CODEGEN--\":1509:1510   */\n      0x00\n        /* \"--CODEGEN--\":1506:1507   */\n      dup1\n        /* \"--CODEGEN--\":1499:1511   */\n      revert\n        /* \"--CODEGEN--\":1463:1465   */\n    tag_276:\n        /* \"--CODEGEN--\":1529:1592   */\n      tag_277\n        /* \"--CODEGEN--\":1584:1591   */\n      dup9\n        /* \"--CODEGEN--\":1575:1581   */\n      dup3\n        /* \"--CODEGEN--\":1564:1573   */\n      dup10\n        /* \"--CODEGEN--\":1560:1582   */\n      add\n        /* \"--CODEGEN--\":1529:1592   */\n      tag_255\n      jump\t// in\n    tag_277:\n        /* \"--CODEGEN--\":1519:1592   */\n      swap5\n      pop\n        /* \"--CODEGEN--\":1404:1598   */\n      pop\n        /* \"--CODEGEN--\":1629:1631   */\n      0x40\n        /* \"--CODEGEN--\":1647:1700   */\n      tag_278\n        /* \"--CODEGEN--\":1692:1699   */\n      dup9\n        /* \"--CODEGEN--\":1683:1689   */\n      dup3\n        /* \"--CODEGEN--\":1672:1681   */\n      dup10\n        /* \"--CODEGEN--\":1668:1690   */\n      add\n        /* \"--CODEGEN--\":1647:1700   */\n      tag_265\n      jump\t// in\n    tag_278:\n        /* \"--CODEGEN--\":1637:1700   */\n      swap4\n      pop\n        /* \"--CODEGEN--\":1608:1706   */\n      pop\n        /* \"--CODEGEN--\":1737:1739   */\n      0x60\n        /* \"--CODEGEN--\":1755:1808   */\n      tag_279\n        /* \"--CODEGEN--\":1800:1807   */\n      dup9\n        /* \"--CODEGEN--\":1791:1797   */\n      dup3\n        /* \"--CODEGEN--\":1780:1789   */\n      dup10\n        /* \"--CODEGEN--\":1776:1798   */\n      add\n        /* \"--CODEGEN--\":1755:1808   */\n      tag_265\n      jump\t// in\n    tag_279:\n        /* \"--CODEGEN--\":1745:1808   */\n      swap3\n      pop\n        /* \"--CODEGEN--\":1716:1814   */\n      pop\n        /* \"--CODEGEN--\":1845:1848   */\n      0x80\n        /* \"--CODEGEN--\":1864:1917   */\n      tag_280\n        /* \"--CODEGEN--\":1909:1916   */\n      dup9\n        /* \"--CODEGEN--\":1900:1906   */\n      dup3\n        /* \"--CODEGEN--\":1889:1898   */\n      dup10\n        /* \"--CODEGEN--\":1885:1907   */\n      add\n        /* \"--CODEGEN--\":1864:1917   */\n      tag_265\n      jump\t// in\n    tag_280:\n        /* \"--CODEGEN--\":1854:1917   */\n      swap2\n      pop\n        /* \"--CODEGEN--\":1824:1923   */\n      pop\n        /* \"--CODEGEN--\":1132:1933   */\n      swap3\n      swap6\n      pop\n      swap3\n      swap6\n      swap1\n      swap4\n      pop\n      jump\t// out\n        /* \"--CODEGEN--\":1940:2181   */\n    tag_44:\n      0x00\n        /* \"--CODEGEN--\":2044:2046   */\n      0x20\n        /* \"--CODEGEN--\":2032:2041   */\n      dup3\n        /* \"--CODEGEN--\":2023:2030   */\n      dup5\n        /* \"--CODEGEN--\":2019:2042   */\n      sub\n        /* \"--CODEGEN--\":2015:2047   */\n      slt\n        /* \"--CODEGEN--\":2012:2014   */\n      iszero\n      tag_282\n      jumpi\n        /* \"--CODEGEN--\":2060:2061   */\n      0x00\n        /* \"--CODEGEN--\":2057:2058   */\n      dup1\n        /* \"--CODEGEN--\":2050:2062   */\n      revert\n        /* \"--CODEGEN--\":2012:2014   */\n    tag_282:\n        /* \"--CODEGEN--\":2095:2096   */\n      0x00\n        /* \"--CODEGEN--\":2112:2165   */\n      tag_283\n        /* \"--CODEGEN--\":2157:2164   */\n      dup5\n        /* \"--CODEGEN--\":2148:2154   */\n      dup3\n        /* \"--CODEGEN--\":2137:2146   */\n      dup6\n        /* \"--CODEGEN--\":2133:2155   */\n      add\n        /* \"--CODEGEN--\":2112:2165   */\n      tag_265\n      jump\t// in\n    tag_283:\n        /* \"--CODEGEN--\":2102:2165   */\n      swap2\n      pop\n        /* \"--CODEGEN--\":2074:2171   */\n      pop\n        /* \"--CODEGEN--\":2006:2181   */\n      swap3\n      swap2\n      pop\n      pop\n      jump\t// out\n        /* \"--CODEGEN--\":2188:2554   */\n    tag_99:\n      0x00\n      dup1\n        /* \"--CODEGEN--\":2309:2311   */\n      0x40\n        /* \"--CODEGEN--\":2297:2306   */\n      dup4\n        /* \"--CODEGEN--\":2288:2295   */\n      dup6\n        /* \"--CODEGEN--\":2284:2307   */\n      sub\n        /* \"--CODEGEN--\":2280:2312   */\n      slt\n        /* \"--CODEGEN--\":2277:2279   */\n      iszero\n      tag_285\n      jumpi\n        /* \"--CODEGEN--\":2325:2326   */\n      0x00\n        /* \"--CODEGEN--\":2322:2323   */\n      dup1\n        /* \"--CODEGEN--\":2315:2327   */\n      revert\n        /* \"--CODEGEN--\":2277:2279   */\n    tag_285:\n        /* \"--CODEGEN--\":2360:2361   */\n      0x00\n        /* \"--CODEGEN--\":2377:2430   */\n      tag_286\n        /* \"--CODEGEN--\":2422:2429   */\n      dup6\n        /* \"--CODEGEN--\":2413:2419   */\n      dup3\n        /* \"--CODEGEN--\":2402:2411   */\n      dup7\n        /* \"--CODEGEN--\":2398:2420   */\n      add\n        /* \"--CODEGEN--\":2377:2430   */\n      tag_265\n      jump\t// in\n    tag_286:\n        /* \"--CODEGEN--\":2367:2430   */\n      swap3\n      pop\n        /* \"--CODEGEN--\":2339:2436   */\n      pop\n        /* \"--CODEGEN--\":2467:2469   */\n      0x20\n        /* \"--CODEGEN--\":2485:2538   */\n      tag_287\n        /* \"--CODEGEN--\":2530:2537   */\n      dup6\n        /* \"--CODEGEN--\":2521:2527   */\n      dup3\n        /* \"--CODEGEN--\":2510:2519   */\n      dup7\n        /* \"--CODEGEN--\":2506:2528   */\n      add\n        /* \"--CODEGEN--\":2485:2538   */\n      tag_265\n      jump\t// in\n    tag_287:\n        /* \"--CODEGEN--\":2475:2538   */\n      swap2\n      pop\n        /* \"--CODEGEN--\":2446:2544   */\n      pop\n        /* \"--CODEGEN--\":2271:2554   */\n      swap3\n      pop\n      swap3\n      swap1\n      pop\n      jump\t// out\n        /* \"--CODEGEN--\":2561:2674   */\n    tag_288:\n        /* \"--CODEGEN--\":2644:2668   */\n      tag_290\n        /* \"--CODEGEN--\":2662:2667   */\n      dup2\n        /* \"--CODEGEN--\":2644:2668   */\n      tag_291\n      jump\t// in\n    tag_290:\n        /* \"--CODEGEN--\":2639:2642   */\n      dup3\n        /* \"--CODEGEN--\":2632:2669   */\n      mstore\n        /* \"--CODEGEN--\":2626:2674   */\n      pop\n      pop\n      jump\t// out\n        /* \"--CODEGEN--\":2681:2785   */\n    tag_292:\n        /* \"--CODEGEN--\":2758:2779   */\n      tag_294\n        /* \"--CODEGEN--\":2773:2778   */\n      dup2\n        /* \"--CODEGEN--\":2758:2779   */\n      tag_295\n      jump\t// in\n    tag_294:\n        /* \"--CODEGEN--\":2753:2756   */\n      dup3\n        /* \"--CODEGEN--\":2746:2780   */\n      mstore\n        /* \"--CODEGEN--\":2740:2785   */\n      pop\n      pop\n      jump\t// out\n        /* \"--CODEGEN--\":2792:2946   */\n    tag_296:\n        /* \"--CODEGEN--\":2889:2940   */\n      tag_298\n        /* \"--CODEGEN--\":2934:2939   */\n      dup2\n        /* \"--CODEGEN--\":2889:2940   */\n      tag_299\n      jump\t// in\n    tag_298:\n        /* \"--CODEGEN--\":2884:2887   */\n      dup3\n        /* \"--CODEGEN--\":2877:2941   */\n      mstore\n        /* \"--CODEGEN--\":2871:2946   */\n      pop\n      pop\n      jump\t// out\n        /* \"--CODEGEN--\":2953:3300   */\n    tag_300:\n      0x00\n        /* \"--CODEGEN--\":3065:3104   */\n      tag_302\n        /* \"--CODEGEN--\":3098:3103   */\n      dup3\n        /* \"--CODEGEN--\":3065:3104   */\n      tag_303\n      jump\t// in\n    tag_302:\n        /* \"--CODEGEN--\":3116:3187   */\n      tag_304\n        /* \"--CODEGEN--\":3180:3186   */\n      dup2\n        /* \"--CODEGEN--\":3175:3178   */\n      dup6\n        /* \"--CODEGEN--\":3116:3187   */\n      tag_305\n      jump\t// in\n    tag_304:\n        /* \"--CODEGEN--\":3109:3187   */\n      swap4\n      pop\n        /* \"--CODEGEN--\":3192:3244   */\n      tag_306\n        /* \"--CODEGEN--\":3237:3243   */\n      dup2\n        /* \"--CODEGEN--\":3232:3235   */\n      dup6\n        /* \"--CODEGEN--\":3225:3229   */\n      0x20\n        /* \"--CODEGEN--\":3218:3223   */\n      dup7\n        /* \"--CODEGEN--\":3214:3230   */\n      add\n        /* \"--CODEGEN--\":3192:3244   */\n      tag_307\n      jump\t// in\n    tag_306:\n        /* \"--CODEGEN--\":3265:3294   */\n      tag_308\n        /* \"--CODEGEN--\":3287:3293   */\n      dup2\n        /* \"--CODEGEN--\":3265:3294   */\n      tag_309\n      jump\t// in\n    tag_308:\n        /* \"--CODEGEN--\":3260:3263   */\n      dup5\n        /* \"--CODEGEN--\":3256:3295   */\n      add\n        /* \"--CODEGEN--\":3249:3295   */\n      swap2\n      pop\n        /* \"--CODEGEN--\":3045:3300   */\n      pop\n      swap3\n      swap2\n      pop\n      pop\n      jump\t// out\n        /* \"--CODEGEN--\":3308:3683   */\n    tag_310:\n      0x00\n        /* \"--CODEGEN--\":3468:3535   */\n      tag_312\n        /* \"--CODEGEN--\":3532:3534   */\n      0x26\n        /* \"--CODEGEN--\":3527:3530   */\n      dup4\n        /* \"--CODEGEN--\":3468:3535   */\n      tag_305\n      jump\t// in\n    tag_312:\n        /* \"--CODEGEN--\":3461:3535   */\n      swap2\n      pop\n        /* \"--CODEGEN--\":3568:3602   */\n      0x4f776e61626c653a206e6577206f776e657220697320746865207a65726f2061\n        /* \"--CODEGEN--\":3564:3565   */\n      0x00\n        /* \"--CODEGEN--\":3559:3562   */\n      dup4\n        /* \"--CODEGEN--\":3555:3566   */\n      add\n        /* \"--CODEGEN--\":3548:3603   */\n      mstore\n        /* \"--CODEGEN--\":3637:3645   */\n      0x6464726573730000000000000000000000000000000000000000000000000000\n        /* \"--CODEGEN--\":3632:3634   */\n      0x20\n        /* \"--CODEGEN--\":3627:3630   */\n      dup4\n        /* \"--CODEGEN--\":3623:3635   */\n      add\n        /* \"--CODEGEN--\":3616:3646   */\n      mstore\n        /* \"--CODEGEN--\":3674:3676   */\n      0x40\n        /* \"--CODEGEN--\":3669:3672   */\n      dup3\n        /* \"--CODEGEN--\":3665:3677   */\n      add\n        /* \"--CODEGEN--\":3658:3677   */\n      swap1\n      pop\n        /* \"--CODEGEN--\":3454:3683   */\n      swap2\n      swap1\n      pop\n      jump\t// out\n        /* \"--CODEGEN--\":3692:4014   */\n    tag_313:\n      0x00\n        /* \"--CODEGEN--\":3852:3919   */\n      tag_315\n        /* \"--CODEGEN--\":3916:3918   */\n      0x16\n        /* \"--CODEGEN--\":3911:3914   */\n      dup4\n        /* \"--CODEGEN--\":3852:3919   */\n      tag_305\n      jump\t// in\n    tag_315:\n        /* \"--CODEGEN--\":3845:3919   */\n      swap2\n      pop\n        /* \"--CODEGEN--\":3952:3976   */\n      0x53656e6465722041646472657373206973207a65726f00000000000000000000\n        /* \"--CODEGEN--\":3948:3949   */\n      0x00\n        /* \"--CODEGEN--\":3943:3946   */\n      dup4\n        /* \"--CODEGEN--\":3939:3950   */\n      add\n        /* \"--CODEGEN--\":3932:3977   */\n      mstore\n        /* \"--CODEGEN--\":4005:4007   */\n      0x20\n        /* \"--CODEGEN--\":4000:4003   */\n      dup3\n        /* \"--CODEGEN--\":3996:4008   */\n      add\n        /* \"--CODEGEN--\":3989:4008   */\n      swap1\n      pop\n        /* \"--CODEGEN--\":3838:4014   */\n      swap2\n      swap1\n      pop\n      jump\t// out\n        /* \"--CODEGEN--\":4023:4355   */\n    tag_316:\n      0x00\n        /* \"--CODEGEN--\":4183:4250   */\n      tag_318\n        /* \"--CODEGEN--\":4247:4249   */\n      0x20\n        /* \"--CODEGEN--\":4242:4245   */\n      dup4\n        /* \"--CODEGEN--\":4183:4250   */\n      tag_305\n      jump\t// in\n    tag_318:\n        /* \"--CODEGEN--\":4176:4250   */\n      swap2\n      pop\n        /* \"--CODEGEN--\":4283:4317   */\n      0x4f776e61626c653a2063616c6c6572206973206e6f7420746865206f776e6572\n        /* \"--CODEGEN--\":4279:4280   */\n      0x00\n        /* \"--CODEGEN--\":4274:4277   */\n      dup4\n        /* \"--CODEGEN--\":4270:4281   */\n      add\n        /* \"--CODEGEN--\":4263:4318   */\n      mstore\n        /* \"--CODEGEN--\":4346:4348   */\n      0x20\n        /* \"--CODEGEN--\":4341:4344   */\n      dup3\n        /* \"--CODEGEN--\":4337:4349   */\n      add\n        /* \"--CODEGEN--\":4330:4349   */\n      swap1\n      pop\n        /* \"--CODEGEN--\":4169:4355   */\n      swap2\n      swap1\n      pop\n      jump\t// out\n        /* \"--CODEGEN--\":4428:5597   */\n    tag_319:\n        /* \"--CODEGEN--\":4567:4571   */\n      0xc0\n        /* \"--CODEGEN--\":4562:4565   */\n      dup3\n        /* \"--CODEGEN--\":4558:4572   */\n      add\n        /* \"--CODEGEN--\":4656:4660   */\n      0x00\n        /* \"--CODEGEN--\":4649:4654   */\n      dup3\n        /* \"--CODEGEN--\":4645:4661   */\n      add\n        /* \"--CODEGEN--\":4639:4662   */\n      mload\n        /* \"--CODEGEN--\":4668:4731   */\n      tag_321\n        /* \"--CODEGEN--\":4725:4729   */\n      0x00\n        /* \"--CODEGEN--\":4720:4723   */\n      dup6\n        /* \"--CODEGEN--\":4716:4730   */\n      add\n        /* \"--CODEGEN--\":4702:4714   */\n      dup3\n        /* \"--CODEGEN--\":4668:4731   */\n      tag_322\n      jump\t// in\n    tag_321:\n        /* \"--CODEGEN--\":4587:4737   */\n      pop\n        /* \"--CODEGEN--\":4827:4831   */\n      0x20\n        /* \"--CODEGEN--\":4820:4825   */\n      dup3\n        /* \"--CODEGEN--\":4816:4832   */\n      add\n        /* \"--CODEGEN--\":4810:4833   */\n      mload\n        /* \"--CODEGEN--\":4839:4902   */\n      tag_323\n        /* \"--CODEGEN--\":4896:4900   */\n      0x20\n        /* \"--CODEGEN--\":4891:4894   */\n      dup6\n        /* \"--CODEGEN--\":4887:4901   */\n      add\n        /* \"--CODEGEN--\":4873:4885   */\n      dup3\n        /* \"--CODEGEN--\":4839:4902   */\n      tag_322\n      jump\t// in\n    tag_323:\n        /* \"--CODEGEN--\":4747:4908   */\n      pop\n        /* \"--CODEGEN--\":4994:4998   */\n      0x40\n        /* \"--CODEGEN--\":4987:4992   */\n      dup3\n        /* \"--CODEGEN--\":4983:4999   */\n      add\n        /* \"--CODEGEN--\":4977:5000   */\n      mload\n        /* \"--CODEGEN--\":5006:5069   */\n      tag_324\n        /* \"--CODEGEN--\":5063:5067   */\n      0x40\n        /* \"--CODEGEN--\":5058:5061   */\n      dup6\n        /* \"--CODEGEN--\":5054:5068   */\n      add\n        /* \"--CODEGEN--\":5040:5052   */\n      dup3\n        /* \"--CODEGEN--\":5006:5069   */\n      tag_322\n      jump\t// in\n    tag_324:\n        /* \"--CODEGEN--\":4918:5075   */\n      pop\n        /* \"--CODEGEN--\":5160:5164   */\n      0x60\n        /* \"--CODEGEN--\":5153:5158   */\n      dup3\n        /* \"--CODEGEN--\":5149:5165   */\n      add\n        /* \"--CODEGEN--\":5143:5166   */\n      mload\n        /* \"--CODEGEN--\":5172:5235   */\n      tag_325\n        /* \"--CODEGEN--\":5229:5233   */\n      0x60\n        /* \"--CODEGEN--\":5224:5227   */\n      dup6\n        /* \"--CODEGEN--\":5220:5234   */\n      add\n        /* \"--CODEGEN--\":5206:5218   */\n      dup3\n        /* \"--CODEGEN--\":5172:5235   */\n      tag_322\n      jump\t// in\n    tag_325:\n        /* \"--CODEGEN--\":5085:5241   */\n      pop\n        /* \"--CODEGEN--\":5333:5337   */\n      0x80\n        /* \"--CODEGEN--\":5326:5331   */\n      dup3\n        /* \"--CODEGEN--\":5322:5338   */\n      add\n        /* \"--CODEGEN--\":5316:5339   */\n      mload\n        /* \"--CODEGEN--\":5345:5408   */\n      tag_326\n        /* \"--CODEGEN--\":5402:5406   */\n      0x80\n        /* \"--CODEGEN--\":5397:5400   */\n      dup6\n        /* \"--CODEGEN--\":5393:5407   */\n      add\n        /* \"--CODEGEN--\":5379:5391   */\n      dup3\n        /* \"--CODEGEN--\":5345:5408   */\n      tag_322\n      jump\t// in\n    tag_326:\n        /* \"--CODEGEN--\":5251:5414   */\n      pop\n        /* \"--CODEGEN--\":5501:5505   */\n      0xa0\n        /* \"--CODEGEN--\":5494:5499   */\n      dup3\n        /* \"--CODEGEN--\":5490:5506   */\n      add\n        /* \"--CODEGEN--\":5484:5507   */\n      mload\n        /* \"--CODEGEN--\":5513:5576   */\n      tag_327\n        /* \"--CODEGEN--\":5570:5574   */\n      0xa0\n        /* \"--CODEGEN--\":5565:5568   */\n      dup6\n        /* \"--CODEGEN--\":5561:5575   */\n      add\n        /* \"--CODEGEN--\":5547:5559   */\n      dup3\n        /* \"--CODEGEN--\":5513:5576   */\n      tag_322\n      jump\t// in\n    tag_327:\n        /* \"--CODEGEN--\":5424:5582   */\n      pop\n        /* \"--CODEGEN--\":4540:5597   */\n      pop\n      pop\n      pop\n      jump\t// out\n        /* \"--CODEGEN--\":5669:7261   */\n    tag_328:\n        /* \"--CODEGEN--\":5805:5809   */\n      0xc0\n        /* \"--CODEGEN--\":5800:5803   */\n      dup3\n        /* \"--CODEGEN--\":5796:5810   */\n      add\n        /* \"--CODEGEN--\":5832:5833   */\n      0x00\n        /* \"--CODEGEN--\":5899:5903   */\n      dup1\n        /* \"--CODEGEN--\":5892:5897   */\n      dup4\n        /* \"--CODEGEN--\":5888:5904   */\n      add\n        /* \"--CODEGEN--\":5882:5905   */\n      sload\n        /* \"--CODEGEN--\":5869:5905   */\n      swap1\n      pop\n        /* \"--CODEGEN--\":5931:5986   */\n      tag_330\n        /* \"--CODEGEN--\":5976:5985   */\n      dup2\n        /* \"--CODEGEN--\":5931:5986   */\n      tag_331\n      jump\t// in\n    tag_330:\n        /* \"--CODEGEN--\":5992:6055   */\n      tag_332\n        /* \"--CODEGEN--\":6049:6053   */\n      0x00\n        /* \"--CODEGEN--\":6044:6047   */\n      dup7\n        /* \"--CODEGEN--\":6040:6054   */\n      add\n        /* \"--CODEGEN--\":6026:6038   */\n      dup3\n        /* \"--CODEGEN--\":5992:6055   */\n      tag_322\n      jump\t// in\n    tag_332:\n        /* \"--CODEGEN--\":5843:6061   */\n      pop\n        /* \"--CODEGEN--\":6138:6142   */\n      0x01\n        /* \"--CODEGEN--\":6131:6136   */\n      dup4\n        /* \"--CODEGEN--\":6127:6143   */\n      add\n        /* \"--CODEGEN--\":6121:6144   */\n      sload\n        /* \"--CODEGEN--\":6108:6144   */\n      swap1\n      pop\n        /* \"--CODEGEN--\":6170:6225   */\n      tag_333\n        /* \"--CODEGEN--\":6215:6224   */\n      dup2\n        /* \"--CODEGEN--\":6170:6225   */\n      tag_331\n      jump\t// in\n    tag_333:\n        /* \"--CODEGEN--\":6231:6294   */\n      tag_334\n        /* \"--CODEGEN--\":6288:6292   */\n      0x20\n        /* \"--CODEGEN--\":6283:6286   */\n      dup7\n        /* \"--CODEGEN--\":6279:6293   */\n      add\n        /* \"--CODEGEN--\":6265:6277   */\n      dup3\n        /* \"--CODEGEN--\":6231:6294   */\n      tag_322\n      jump\t// in\n    tag_334:\n        /* \"--CODEGEN--\":6071:6300   */\n      pop\n        /* \"--CODEGEN--\":6373:6377   */\n      0x02\n        /* \"--CODEGEN--\":6366:6371   */\n      dup4\n        /* \"--CODEGEN--\":6362:6378   */\n      add\n        /* \"--CODEGEN--\":6356:6379   */\n      sload\n        /* \"--CODEGEN--\":6343:6379   */\n      swap1\n      pop\n        /* \"--CODEGEN--\":6405:6460   */\n      tag_335\n        /* \"--CODEGEN--\":6450:6459   */\n      dup2\n        /* \"--CODEGEN--\":6405:6460   */\n      tag_331\n      jump\t// in\n    tag_335:\n        /* \"--CODEGEN--\":6466:6529   */\n      tag_336\n        /* \"--CODEGEN--\":6523:6527   */\n      0x40\n        /* \"--CODEGEN--\":6518:6521   */\n      dup7\n        /* \"--CODEGEN--\":6514:6528   */\n      add\n        /* \"--CODEGEN--\":6500:6512   */\n      dup3\n        /* \"--CODEGEN--\":6466:6529   */\n      tag_322\n      jump\t// in\n    tag_336:\n        /* \"--CODEGEN--\":6310:6535   */\n      pop\n        /* \"--CODEGEN--\":6607:6611   */\n      0x03\n        /* \"--CODEGEN--\":6600:6605   */\n      dup4\n        /* \"--CODEGEN--\":6596:6612   */\n      add\n        /* \"--CODEGEN--\":6590:6613   */\n      sload\n        /* \"--CODEGEN--\":6577:6613   */\n      swap1\n      pop\n        /* \"--CODEGEN--\":6639:6694   */\n      tag_337\n        /* \"--CODEGEN--\":6684:6693   */\n      dup2\n        /* \"--CODEGEN--\":6639:6694   */\n      tag_331\n      jump\t// in\n    tag_337:\n        /* \"--CODEGEN--\":6700:6763   */\n      tag_338\n        /* \"--CODEGEN--\":6757:6761   */\n      0x60\n        /* \"--CODEGEN--\":6752:6755   */\n      dup7\n        /* \"--CODEGEN--\":6748:6762   */\n      add\n        /* \"--CODEGEN--\":6734:6746   */\n      dup3\n        /* \"--CODEGEN--\":6700:6763   */\n      tag_322\n      jump\t// in\n    tag_338:\n        /* \"--CODEGEN--\":6545:6769   */\n      pop\n        /* \"--CODEGEN--\":6848:6852   */\n      0x04\n        /* \"--CODEGEN--\":6841:6846   */\n      dup4\n        /* \"--CODEGEN--\":6837:6853   */\n      add\n        /* \"--CODEGEN--\":6831:6854   */\n      sload\n        /* \"--CODEGEN--\":6818:6854   */\n      swap1\n      pop\n        /* \"--CODEGEN--\":6880:6935   */\n      tag_339\n        /* \"--CODEGEN--\":6925:6934   */\n      dup2\n        /* \"--CODEGEN--\":6880:6935   */\n      tag_331\n      jump\t// in\n    tag_339:\n        /* \"--CODEGEN--\":6941:7004   */\n      tag_340\n        /* \"--CODEGEN--\":6998:7002   */\n      0x80\n        /* \"--CODEGEN--\":6993:6996   */\n      dup7\n        /* \"--CODEGEN--\":6989:7003   */\n      add\n        /* \"--CODEGEN--\":6975:6987   */\n      dup3\n        /* \"--CODEGEN--\":6941:7004   */\n      tag_322\n      jump\t// in\n    tag_340:\n        /* \"--CODEGEN--\":6779:7010   */\n      pop\n        /* \"--CODEGEN--\":7084:7088   */\n      0x05\n        /* \"--CODEGEN--\":7077:7082   */\n      dup4\n        /* \"--CODEGEN--\":7073:7089   */\n      add\n        /* \"--CODEGEN--\":7067:7090   */\n      sload\n        /* \"--CODEGEN--\":7054:7090   */\n      swap1\n      pop\n        /* \"--CODEGEN--\":7116:7171   */\n      tag_341\n        /* \"--CODEGEN--\":7161:7170   */\n      dup2\n        /* \"--CODEGEN--\":7116:7171   */\n      tag_331\n      jump\t// in\n    tag_341:\n        /* \"--CODEGEN--\":7177:7240   */\n      tag_342\n        /* \"--CODEGEN--\":7234:7238   */\n      0xa0\n        /* \"--CODEGEN--\":7229:7232   */\n      dup7\n        /* \"--CODEGEN--\":7225:7239   */\n      add\n        /* \"--CODEGEN--\":7211:7223   */\n      dup3\n        /* \"--CODEGEN--\":7177:7240   */\n      tag_322\n      jump\t// in\n    tag_342:\n        /* \"--CODEGEN--\":7020:7246   */\n      pop\n        /* \"--CODEGEN--\":5778:7261   */\n      pop\n      pop\n      pop\n      pop\n      jump\t// out\n        /* \"--CODEGEN--\":7268:7371   */\n    tag_322:\n        /* \"--CODEGEN--\":7341:7365   */\n      tag_344\n        /* \"--CODEGEN--\":7359:7364   */\n      dup2\n        /* \"--CODEGEN--\":7341:7365   */\n      tag_345\n      jump\t// in\n    tag_344:\n        /* \"--CODEGEN--\":7336:7339   */\n      dup3\n        /* \"--CODEGEN--\":7329:7366   */\n      mstore\n        /* \"--CODEGEN--\":7323:7371   */\n      pop\n      pop\n      jump\t// out\n        /* \"--CODEGEN--\":7378:7491   */\n    tag_346:\n        /* \"--CODEGEN--\":7461:7485   */\n      tag_348\n        /* \"--CODEGEN--\":7479:7484   */\n      dup2\n        /* \"--CODEGEN--\":7461:7485   */\n      tag_345\n      jump\t// in\n    tag_348:\n        /* \"--CODEGEN--\":7456:7459   */\n      dup3\n        /* \"--CODEGEN--\":7449:7486   */\n      mstore\n        /* \"--CODEGEN--\":7443:7491   */\n      pop\n      pop\n      jump\t// out\n        /* \"--CODEGEN--\":7498:7720   */\n    tag_69:\n      0x00\n        /* \"--CODEGEN--\":7625:7627   */\n      0x20\n        /* \"--CODEGEN--\":7614:7623   */\n      dup3\n        /* \"--CODEGEN--\":7610:7628   */\n      add\n        /* \"--CODEGEN--\":7602:7628   */\n      swap1\n      pop\n        /* \"--CODEGEN--\":7639:7710   */\n      tag_350\n        /* \"--CODEGEN--\":7707:7708   */\n      0x00\n        /* \"--CODEGEN--\":7696:7705   */\n      dup4\n        /* \"--CODEGEN--\":7692:7709   */\n      add\n        /* \"--CODEGEN--\":7683:7689   */\n      dup5\n        /* \"--CODEGEN--\":7639:7710   */\n      tag_288\n      jump\t// in\n    tag_350:\n        /* \"--CODEGEN--\":7596:7720   */\n      swap3\n      swap2\n      pop\n      pop\n      jump\t// out\n        /* \"--CODEGEN--\":7727:7937   */\n    tag_62:\n      0x00\n        /* \"--CODEGEN--\":7848:7850   */\n      0x20\n        /* \"--CODEGEN--\":7837:7846   */\n      dup3\n        /* \"--CODEGEN--\":7833:7851   */\n      add\n        /* \"--CODEGEN--\":7825:7851   */\n      swap1\n      pop\n        /* \"--CODEGEN--\":7862:7927   */\n      tag_352\n        /* \"--CODEGEN--\":7924:7925   */\n      0x00\n        /* \"--CODEGEN--\":7913:7922   */\n      dup4\n        /* \"--CODEGEN--\":7909:7926   */\n      add\n        /* \"--CODEGEN--\":7900:7906   */\n      dup5\n        /* \"--CODEGEN--\":7862:7927   */\n      tag_292\n      jump\t// in\n    tag_352:\n        /* \"--CODEGEN--\":7819:7937   */\n      swap3\n      swap2\n      pop\n      pop\n      jump\t// out\n        /* \"--CODEGEN--\":7944:8194   */\n    tag_121:\n      0x00\n        /* \"--CODEGEN--\":8085:8087   */\n      0x20\n        /* \"--CODEGEN--\":8074:8083   */\n      dup3\n        /* \"--CODEGEN--\":8070:8088   */\n      add\n        /* \"--CODEGEN--\":8062:8088   */\n      swap1\n      pop\n        /* \"--CODEGEN--\":8099:8184   */\n      tag_354\n        /* \"--CODEGEN--\":8181:8182   */\n      0x00\n        /* \"--CODEGEN--\":8170:8179   */\n      dup4\n        /* \"--CODEGEN--\":8166:8183   */\n      add\n        /* \"--CODEGEN--\":8157:8163   */\n      dup5\n        /* \"--CODEGEN--\":8099:8184   */\n      tag_296\n      jump\t// in\n    tag_354:\n        /* \"--CODEGEN--\":8056:8194   */\n      swap3\n      swap2\n      pop\n      pop\n      jump\t// out\n        /* \"--CODEGEN--\":8201:9355   */\n    tag_214:\n      0x00\n        /* \"--CODEGEN--\":8579:8582   */\n      0x0180\n        /* \"--CODEGEN--\":8568:8577   */\n      dup3\n        /* \"--CODEGEN--\":8564:8583   */\n      add\n        /* \"--CODEGEN--\":8556:8583   */\n      swap1\n      pop\n        /* \"--CODEGEN--\":8630:8639   */\n      dup2\n        /* \"--CODEGEN--\":8624:8628   */\n      dup2\n        /* \"--CODEGEN--\":8620:8640   */\n      sub\n        /* \"--CODEGEN--\":8616:8617   */\n      0x00\n        /* \"--CODEGEN--\":8605:8614   */\n      dup4\n        /* \"--CODEGEN--\":8601:8618   */\n      add\n        /* \"--CODEGEN--\":8594:8641   */\n      mstore\n        /* \"--CODEGEN--\":8655:8733   */\n      tag_356\n        /* \"--CODEGEN--\":8728:8732   */\n      dup2\n        /* \"--CODEGEN--\":8719:8725   */\n      dup11\n        /* \"--CODEGEN--\":8655:8733   */\n      tag_300\n      jump\t// in\n    tag_356:\n        /* \"--CODEGEN--\":8647:8733   */\n      swap1\n      pop\n        /* \"--CODEGEN--\":8781:8790   */\n      dup2\n        /* \"--CODEGEN--\":8775:8779   */\n      dup2\n        /* \"--CODEGEN--\":8771:8791   */\n      sub\n        /* \"--CODEGEN--\":8766:8768   */\n      0x20\n        /* \"--CODEGEN--\":8755:8764   */\n      dup4\n        /* \"--CODEGEN--\":8751:8769   */\n      add\n        /* \"--CODEGEN--\":8744:8792   */\n      mstore\n        /* \"--CODEGEN--\":8806:8884   */\n      tag_357\n        /* \"--CODEGEN--\":8879:8883   */\n      dup2\n        /* \"--CODEGEN--\":8870:8876   */\n      dup10\n        /* \"--CODEGEN--\":8806:8884   */\n      tag_300\n      jump\t// in\n    tag_357:\n        /* \"--CODEGEN--\":8798:8884   */\n      swap1\n      pop\n        /* \"--CODEGEN--\":8895:8967   */\n      tag_358\n        /* \"--CODEGEN--\":8963:8965   */\n      0x40\n        /* \"--CODEGEN--\":8952:8961   */\n      dup4\n        /* \"--CODEGEN--\":8948:8966   */\n      add\n        /* \"--CODEGEN--\":8939:8945   */\n      dup9\n        /* \"--CODEGEN--\":8895:8967   */\n      tag_346\n      jump\t// in\n    tag_358:\n        /* \"--CODEGEN--\":8978:9050   */\n      tag_359\n        /* \"--CODEGEN--\":9046:9048   */\n      0x60\n        /* \"--CODEGEN--\":9035:9044   */\n      dup4\n        /* \"--CODEGEN--\":9031:9049   */\n      add\n        /* \"--CODEGEN--\":9022:9028   */\n      dup8\n        /* \"--CODEGEN--\":8978:9050   */\n      tag_346\n      jump\t// in\n    tag_359:\n        /* \"--CODEGEN--\":9061:9134   */\n      tag_360\n        /* \"--CODEGEN--\":9129:9132   */\n      0x80\n        /* \"--CODEGEN--\":9118:9127   */\n      dup4\n        /* \"--CODEGEN--\":9114:9133   */\n      add\n        /* \"--CODEGEN--\":9105:9111   */\n      dup7\n        /* \"--CODEGEN--\":9061:9134   */\n      tag_346\n      jump\t// in\n    tag_360:\n        /* \"--CODEGEN--\":9145:9261   */\n      tag_361\n        /* \"--CODEGEN--\":9256:9259   */\n      0xa0\n        /* \"--CODEGEN--\":9245:9254   */\n      dup4\n        /* \"--CODEGEN--\":9241:9260   */\n      add\n        /* \"--CODEGEN--\":9232:9238   */\n      dup6\n        /* \"--CODEGEN--\":9145:9261   */\n      tag_328\n      jump\t// in\n    tag_361:\n        /* \"--CODEGEN--\":9272:9345   */\n      tag_362\n        /* \"--CODEGEN--\":9340:9343   */\n      0x0160\n        /* \"--CODEGEN--\":9329:9338   */\n      dup4\n        /* \"--CODEGEN--\":9325:9344   */\n      add\n        /* \"--CODEGEN--\":9316:9322   */\n      dup5\n        /* \"--CODEGEN--\":9272:9345   */\n      tag_288\n      jump\t// in\n    tag_362:\n        /* \"--CODEGEN--\":8550:9355   */\n      swap9\n      swap8\n      pop\n      pop\n      pop\n      pop\n      pop\n      pop\n      pop\n      pop\n      jump\t// out\n        /* \"--CODEGEN--\":9362:9778   */\n    tag_234:\n      0x00\n        /* \"--CODEGEN--\":9562:9564   */\n      0x20\n        /* \"--CODEGEN--\":9551:9560   */\n      dup3\n        /* \"--CODEGEN--\":9547:9565   */\n      add\n        /* \"--CODEGEN--\":9539:9565   */\n      swap1\n      pop\n        /* \"--CODEGEN--\":9612:9621   */\n      dup2\n        /* \"--CODEGEN--\":9606:9610   */\n      dup2\n        /* \"--CODEGEN--\":9602:9622   */\n      sub\n        /* \"--CODEGEN--\":9598:9599   */\n      0x00\n        /* \"--CODEGEN--\":9587:9596   */\n      dup4\n        /* \"--CODEGEN--\":9583:9600   */\n      add\n        /* \"--CODEGEN--\":9576:9623   */\n      mstore\n        /* \"--CODEGEN--\":9637:9768   */\n      tag_364\n        /* \"--CODEGEN--\":9763:9767   */\n      dup2\n        /* \"--CODEGEN--\":9637:9768   */\n      tag_310\n      jump\t// in\n    tag_364:\n        /* \"--CODEGEN--\":9629:9768   */\n      swap1\n      pop\n        /* \"--CODEGEN--\":9533:9778   */\n      swap2\n      swap1\n      pop\n      jump\t// out\n        /* \"--CODEGEN--\":9785:10201   */\n    tag_209:\n      0x00\n        /* \"--CODEGEN--\":9985:9987   */\n      0x20\n        /* \"--CODEGEN--\":9974:9983   */\n      dup3\n        /* \"--CODEGEN--\":9970:9988   */\n      add\n        /* \"--CODEGEN--\":9962:9988   */\n      swap1\n      pop\n        /* \"--CODEGEN--\":10035:10044   */\n      dup2\n        /* \"--CODEGEN--\":10029:10033   */\n      dup2\n        /* \"--CODEGEN--\":10025:10045   */\n      sub\n        /* \"--CODEGEN--\":10021:10022   */\n      0x00\n        /* \"--CODEGEN--\":10010:10019   */\n      dup4\n        /* \"--CODEGEN--\":10006:10023   */\n      add\n        /* \"--CODEGEN--\":9999:10046   */\n      mstore\n        /* \"--CODEGEN--\":10060:10191   */\n      tag_366\n        /* \"--CODEGEN--\":10186:10190   */\n      dup2\n        /* \"--CODEGEN--\":10060:10191   */\n      tag_313\n      jump\t// in\n    tag_366:\n        /* \"--CODEGEN--\":10052:10191   */\n      swap1\n      pop\n        /* \"--CODEGEN--\":9956:10201   */\n      swap2\n      swap1\n      pop\n      jump\t// out\n        /* \"--CODEGEN--\":10208:10624   */\n    tag_144:\n      0x00\n        /* \"--CODEGEN--\":10408:10410   */\n      0x20\n        /* \"--CODEGEN--\":10397:10406   */\n      dup3\n        /* \"--CODEGEN--\":10393:10411   */\n      add\n        /* \"--CODEGEN--\":10385:10411   */\n      swap1\n      pop\n        /* \"--CODEGEN--\":10458:10467   */\n      dup2\n        /* \"--CODEGEN--\":10452:10456   */\n      dup2\n        /* \"--CODEGEN--\":10448:10468   */\n      sub\n        /* \"--CODEGEN--\":10444:10445   */\n      0x00\n        /* \"--CODEGEN--\":10433:10442   */\n      dup4\n        /* \"--CODEGEN--\":10429:10446   */\n      add\n        /* \"--CODEGEN--\":10422:10469   */\n      mstore\n        /* \"--CODEGEN--\":10483:10614   */\n      tag_368\n        /* \"--CODEGEN--\":10609:10613   */\n      dup2\n        /* \"--CODEGEN--\":10483:10614   */\n      tag_316\n      jump\t// in\n    tag_368:\n        /* \"--CODEGEN--\":10475:10614   */\n      swap1\n      pop\n        /* \"--CODEGEN--\":10379:10624   */\n      swap2\n      swap1\n      pop\n      jump\t// out\n        /* \"--CODEGEN--\":10631:10946   */\n    tag_49:\n      0x00\n        /* \"--CODEGEN--\":10804:10807   */\n      0xc0\n        /* \"--CODEGEN--\":10793:10802   */\n      dup3\n        /* \"--CODEGEN--\":10789:10808   */\n      add\n        /* \"--CODEGEN--\":10781:10808   */\n      swap1\n      pop\n        /* \"--CODEGEN--\":10819:10936   */\n      tag_370\n        /* \"--CODEGEN--\":10933:10934   */\n      0x00\n        /* \"--CODEGEN--\":10922:10931   */\n      dup4\n        /* \"--CODEGEN--\":10918:10935   */\n      add\n        /* \"--CODEGEN--\":10909:10915   */\n      dup5\n        /* \"--CODEGEN--\":10819:10936   */\n      tag_319\n      jump\t// in\n    tag_370:\n        /* \"--CODEGEN--\":10775:10946   */\n      swap3\n      swap2\n      pop\n      pop\n      jump\t// out\n        /* \"--CODEGEN--\":10953:11262   */\n    tag_197:\n      0x00\n        /* \"--CODEGEN--\":11123:11126   */\n      0xc0\n        /* \"--CODEGEN--\":11112:11121   */\n      dup3\n        /* \"--CODEGEN--\":11108:11127   */\n      add\n        /* \"--CODEGEN--\":11100:11127   */\n      swap1\n      pop\n        /* \"--CODEGEN--\":11138:11252   */\n      tag_372\n        /* \"--CODEGEN--\":11249:11250   */\n      0x00\n        /* \"--CODEGEN--\":11238:11247   */\n      dup4\n        /* \"--CODEGEN--\":11234:11251   */\n      add\n        /* \"--CODEGEN--\":11225:11231   */\n      dup5\n        /* \"--CODEGEN--\":11138:11252   */\n      tag_328\n      jump\t// in\n    tag_372:\n        /* \"--CODEGEN--\":11094:11262   */\n      swap3\n      swap2\n      pop\n      pop\n      jump\t// out\n        /* \"--CODEGEN--\":11269:11491   */\n    tag_56:\n      0x00\n        /* \"--CODEGEN--\":11396:11398   */\n      0x20\n        /* \"--CODEGEN--\":11385:11394   */\n      dup3\n        /* \"--CODEGEN--\":11381:11399   */\n      add\n        /* \"--CODEGEN--\":11373:11399   */\n      swap1\n      pop\n        /* \"--CODEGEN--\":11410:11481   */\n      tag_374\n        /* \"--CODEGEN--\":11478:11479   */\n      0x00\n        /* \"--CODEGEN--\":11467:11476   */\n      dup4\n        /* \"--CODEGEN--\":11463:11480   */\n      add\n        /* \"--CODEGEN--\":11454:11460   */\n      dup5\n        /* \"--CODEGEN--\":11410:11481   */\n      tag_346\n      jump\t// in\n    tag_374:\n        /* \"--CODEGEN--\":11367:11491   */\n      swap3\n      swap2\n      pop\n      pop\n      jump\t// out\n        /* \"--CODEGEN--\":11498:12278   */\n    tag_41:\n      0x00\n        /* \"--CODEGEN--\":11765:11768   */\n      0xc0\n        /* \"--CODEGEN--\":11754:11763   */\n      dup3\n        /* \"--CODEGEN--\":11750:11769   */\n      add\n        /* \"--CODEGEN--\":11742:11769   */\n      swap1\n      pop\n        /* \"--CODEGEN--\":11780:11851   */\n      tag_376\n        /* \"--CODEGEN--\":11848:11849   */\n      0x00\n        /* \"--CODEGEN--\":11837:11846   */\n      dup4\n        /* \"--CODEGEN--\":11833:11850   */\n      add\n        /* \"--CODEGEN--\":11824:11830   */\n      dup10\n        /* \"--CODEGEN--\":11780:11851   */\n      tag_346\n      jump\t// in\n    tag_376:\n        /* \"--CODEGEN--\":11862:11934   */\n      tag_377\n        /* \"--CODEGEN--\":11930:11932   */\n      0x20\n        /* \"--CODEGEN--\":11919:11928   */\n      dup4\n        /* \"--CODEGEN--\":11915:11933   */\n      add\n        /* \"--CODEGEN--\":11906:11912   */\n      dup9\n        /* \"--CODEGEN--\":11862:11934   */\n      tag_346\n      jump\t// in\n    tag_377:\n        /* \"--CODEGEN--\":11945:12017   */\n      tag_378\n        /* \"--CODEGEN--\":12013:12015   */\n      0x40\n        /* \"--CODEGEN--\":12002:12011   */\n      dup4\n        /* \"--CODEGEN--\":11998:12016   */\n      add\n        /* \"--CODEGEN--\":11989:11995   */\n      dup8\n        /* \"--CODEGEN--\":11945:12017   */\n      tag_346\n      jump\t// in\n    tag_378:\n        /* \"--CODEGEN--\":12028:12100   */\n      tag_379\n        /* \"--CODEGEN--\":12096:12098   */\n      0x60\n        /* \"--CODEGEN--\":12085:12094   */\n      dup4\n        /* \"--CODEGEN--\":12081:12099   */\n      add\n        /* \"--CODEGEN--\":12072:12078   */\n      dup7\n        /* \"--CODEGEN--\":12028:12100   */\n      tag_346\n      jump\t// in\n    tag_379:\n        /* \"--CODEGEN--\":12111:12184   */\n      tag_380\n        /* \"--CODEGEN--\":12179:12182   */\n      0x80\n        /* \"--CODEGEN--\":12168:12177   */\n      dup4\n        /* \"--CODEGEN--\":12164:12183   */\n      add\n        /* \"--CODEGEN--\":12155:12161   */\n      dup6\n        /* \"--CODEGEN--\":12111:12184   */\n      tag_346\n      jump\t// in\n    tag_380:\n        /* \"--CODEGEN--\":12195:12268   */\n      tag_381\n        /* \"--CODEGEN--\":12263:12266   */\n      0xa0\n        /* \"--CODEGEN--\":12252:12261   */\n      dup4\n        /* \"--CODEGEN--\":12248:12267   */\n      add\n        /* \"--CODEGEN--\":12239:12245   */\n      dup5\n        /* \"--CODEGEN--\":12195:12268   */\n      tag_346\n      jump\t// in\n    tag_381:\n        /* \"--CODEGEN--\":11736:12278   */\n      swap8\n      swap7\n      pop\n      pop\n      pop\n      pop\n      pop\n      pop\n      pop\n      jump\t// out\n        /* \"--CODEGEN--\":12285:12541   */\n    tag_261:\n      0x00\n        /* \"--CODEGEN--\":12347:12349   */\n      0x40\n        /* \"--CODEGEN--\":12341:12350   */\n      mload\n        /* \"--CODEGEN--\":12331:12350   */\n      swap1\n      pop\n        /* \"--CODEGEN--\":12385:12389   */\n      dup2\n        /* \"--CODEGEN--\":12377:12383   */\n      dup2\n        /* \"--CODEGEN--\":12373:12390   */\n      add\n        /* \"--CODEGEN--\":12484:12490   */\n      dup2\n        /* \"--CODEGEN--\":12472:12482   */\n      dup2\n        /* \"--CODEGEN--\":12469:12491   */\n      lt\n        /* \"--CODEGEN--\":12448:12466   */\n      0xffffffffffffffff\n        /* \"--CODEGEN--\":12436:12446   */\n      dup3\n        /* \"--CODEGEN--\":12433:12467   */\n      gt\n        /* \"--CODEGEN--\":12430:12492   */\n      or\n        /* \"--CODEGEN--\":12427:12429   */\n      iszero\n      tag_383\n      jumpi\n        /* \"--CODEGEN--\":12505:12506   */\n      0x00\n        /* \"--CODEGEN--\":12502:12503   */\n      dup1\n        /* \"--CODEGEN--\":12495:12507   */\n      revert\n        /* \"--CODEGEN--\":12427:12429   */\n    tag_383:\n        /* \"--CODEGEN--\":12525:12535   */\n      dup1\n        /* \"--CODEGEN--\":12521:12523   */\n      0x40\n        /* \"--CODEGEN--\":12514:12536   */\n      mstore\n        /* \"--CODEGEN--\":12325:12541   */\n      pop\n      swap2\n      swap1\n      pop\n      jump\t// out\n        /* \"--CODEGEN--\":12548:12870   */\n    tag_260:\n      0x00\n        /* \"--CODEGEN--\":12692:12710   */\n      0xffffffffffffffff\n        /* \"--CODEGEN--\":12684:12690   */\n      dup3\n        /* \"--CODEGEN--\":12681:12711   */\n      gt\n        /* \"--CODEGEN--\":12678:12680   */\n      iszero\n      tag_385\n      jumpi\n        /* \"--CODEGEN--\":12724:12725   */\n      0x00\n        /* \"--CODEGEN--\":12721:12722   */\n      dup1\n        /* \"--CODEGEN--\":12714:12726   */\n      revert\n        /* \"--CODEGEN--\":12678:12680   */\n    tag_385:\n        /* \"--CODEGEN--\":12791:12795   */\n      0x1f\n        /* \"--CODEGEN--\":12787:12796   */\n      not\n        /* \"--CODEGEN--\":12780:12784   */\n      0x1f\n        /* \"--CODEGEN--\":12772:12778   */\n      dup4\n        /* \"--CODEGEN--\":12768:12785   */\n      add\n        /* \"--CODEGEN--\":12764:12797   */\n      and\n        /* \"--CODEGEN--\":12756:12797   */\n      swap1\n      pop\n        /* \"--CODEGEN--\":12855:12859   */\n      0x20\n        /* \"--CODEGEN--\":12849:12853   */\n      dup2\n        /* \"--CODEGEN--\":12845:12860   */\n      add\n        /* \"--CODEGEN--\":12837:12860   */\n      swap1\n      pop\n        /* \"--CODEGEN--\":12615:12870   */\n      swap2\n      swap1\n      pop\n      jump\t// out\n        /* \"--CODEGEN--\":12877:12999   */\n    tag_303:\n      0x00\n        /* \"--CODEGEN--\":12971:12976   */\n      dup2\n        /* \"--CODEGEN--\":12965:12977   */\n      mload\n        /* \"--CODEGEN--\":12955:12977   */\n      swap1\n      pop\n        /* \"--CODEGEN--\":12936:12999   */\n      swap2\n      swap1\n      pop\n      jump\t// out\n        /* \"--CODEGEN--\":13007:13170   */\n    tag_305:\n      0x00\n        /* \"--CODEGEN--\":13122:13128   */\n      dup3\n        /* \"--CODEGEN--\":13117:13120   */\n      dup3\n        /* \"--CODEGEN--\":13110:13129   */\n      mstore\n        /* \"--CODEGEN--\":13159:13163   */\n      0x20\n        /* \"--CODEGEN--\":13154:13157   */\n      dup3\n        /* \"--CODEGEN--\":13150:13164   */\n      add\n        /* \"--CODEGEN--\":13135:13164   */\n      swap1\n      pop\n        /* \"--CODEGEN--\":13103:13170   */\n      swap3\n      swap2\n      pop\n      pop\n      jump\t// out\n        /* \"--CODEGEN--\":13178:13263   */\n    tag_388:\n      0x00\n        /* \"--CODEGEN--\":13253:13258   */\n      dup2\n        /* \"--CODEGEN--\":13242:13258   */\n      swap1\n      pop\n        /* \"--CODEGEN--\":13236:13263   */\n      swap2\n      swap1\n      pop\n      jump\t// out\n        /* \"--CODEGEN--\":13270:13361   */\n    tag_291:\n      0x00\n        /* \"--CODEGEN--\":13332:13356   */\n      tag_391\n        /* \"--CODEGEN--\":13350:13355   */\n      dup3\n        /* \"--CODEGEN--\":13332:13356   */\n      tag_392\n      jump\t// in\n    tag_391:\n        /* \"--CODEGEN--\":13321:13356   */\n      swap1\n      pop\n        /* \"--CODEGEN--\":13315:13361   */\n      swap2\n      swap1\n      pop\n      jump\t// out\n        /* \"--CODEGEN--\":13368:13453   */\n    tag_295:\n      0x00\n        /* \"--CODEGEN--\":13441:13446   */\n      dup2\n        /* \"--CODEGEN--\":13434:13447   */\n      iszero\n        /* \"--CODEGEN--\":13427:13448   */\n      iszero\n        /* \"--CODEGEN--\":13416:13448   */\n      swap1\n      pop\n        /* \"--CODEGEN--\":13410:13453   */\n      swap2\n      swap1\n      pop\n      jump\t// out\n        /* \"--CODEGEN--\":13460:13581   */\n    tag_392:\n      0x00\n        /* \"--CODEGEN--\":13533:13575   */\n      0xffffffffffffffffffffffffffffffffffffffff\n        /* \"--CODEGEN--\":13526:13531   */\n      dup3\n        /* \"--CODEGEN--\":13522:13576   */\n      and\n        /* \"--CODEGEN--\":13511:13576   */\n      swap1\n      pop\n        /* \"--CODEGEN--\":13505:13581   */\n      swap2\n      swap1\n      pop\n      jump\t// out\n        /* \"--CODEGEN--\":13588:13660   */\n    tag_345:\n      0x00\n        /* \"--CODEGEN--\":13650:13655   */\n      dup2\n        /* \"--CODEGEN--\":13639:13655   */\n      swap1\n      pop\n        /* \"--CODEGEN--\":13633:13660   */\n      swap2\n      swap1\n      pop\n      jump\t// out\n        /* \"--CODEGEN--\":13667:13816   */\n    tag_299:\n      0x00\n        /* \"--CODEGEN--\":13760:13811   */\n      tag_397\n        /* \"--CODEGEN--\":13805:13810   */\n      dup3\n        /* \"--CODEGEN--\":13760:13811   */\n      tag_398\n      jump\t// in\n    tag_397:\n        /* \"--CODEGEN--\":13747:13811   */\n      swap1\n      pop\n        /* \"--CODEGEN--\":13741:13816   */\n      swap2\n      swap1\n      pop\n      jump\t// out\n        /* \"--CODEGEN--\":13823:13945   */\n    tag_398:\n      0x00\n        /* \"--CODEGEN--\":13916:13940   */\n      tag_400\n        /* \"--CODEGEN--\":13934:13939   */\n      dup3\n        /* \"--CODEGEN--\":13916:13940   */\n      tag_392\n      jump\t// in\n    tag_400:\n        /* \"--CODEGEN--\":13903:13940   */\n      swap1\n      pop\n        /* \"--CODEGEN--\":13897:13945   */\n      swap2\n      swap1\n      pop\n      jump\t// out\n        /* \"--CODEGEN--\":13953:14098   */\n    tag_264:\n        /* \"--CODEGEN--\":14034:14040   */\n      dup3\n        /* \"--CODEGEN--\":14029:14032   */\n      dup2\n        /* \"--CODEGEN--\":14024:14027   */\n      dup4\n        /* \"--CODEGEN--\":14011:14041   */\n      calldatacopy\n        /* \"--CODEGEN--\":14090:14091   */\n      0x00\n        /* \"--CODEGEN--\":14081:14087   */\n      dup4\n        /* \"--CODEGEN--\":14076:14079   */\n      dup4\n        /* \"--CODEGEN--\":14072:14088   */\n      add\n        /* \"--CODEGEN--\":14065:14092   */\n      mstore\n        /* \"--CODEGEN--\":14004:14098   */\n      pop\n      pop\n      pop\n      jump\t// out\n        /* \"--CODEGEN--\":14107:14375   */\n    tag_307:\n        /* \"--CODEGEN--\":14172:14173   */\n      0x00\n        /* \"--CODEGEN--\":14179:14280   */\n    tag_403:\n        /* \"--CODEGEN--\":14193:14199   */\n      dup4\n        /* \"--CODEGEN--\":14190:14191   */\n      dup2\n        /* \"--CODEGEN--\":14187:14200   */\n      lt\n        /* \"--CODEGEN--\":14179:14280   */\n      iszero\n      tag_405\n      jumpi\n        /* \"--CODEGEN--\":14269:14270   */\n      dup1\n        /* \"--CODEGEN--\":14264:14267   */\n      dup3\n        /* \"--CODEGEN--\":14260:14271   */\n      add\n        /* \"--CODEGEN--\":14254:14272   */\n      mload\n        /* \"--CODEGEN--\":14250:14251   */\n      dup2\n        /* \"--CODEGEN--\":14245:14248   */\n      dup5\n        /* \"--CODEGEN--\":14241:14252   */\n      add\n        /* \"--CODEGEN--\":14234:14273   */\n      mstore\n        /* \"--CODEGEN--\":14215:14217   */\n      0x20\n        /* \"--CODEGEN--\":14212:14213   */\n      dup2\n        /* \"--CODEGEN--\":14208:14218   */\n      add\n        /* \"--CODEGEN--\":14203:14218   */\n      swap1\n      pop\n        /* \"--CODEGEN--\":14179:14280   */\n      jump(tag_403)\n    tag_405:\n        /* \"--CODEGEN--\":14295:14301   */\n      dup4\n        /* \"--CODEGEN--\":14292:14293   */\n      dup2\n        /* \"--CODEGEN--\":14289:14302   */\n      gt\n        /* \"--CODEGEN--\":14286:14288   */\n      iszero\n      tag_406\n      jumpi\n        /* \"--CODEGEN--\":14360:14361   */\n      0x00\n        /* \"--CODEGEN--\":14351:14357   */\n      dup5\n        /* \"--CODEGEN--\":14346:14349   */\n      dup5\n        /* \"--CODEGEN--\":14342:14358   */\n      add\n        /* \"--CODEGEN--\":14335:14362   */\n      mstore\n        /* \"--CODEGEN--\":14286:14288   */\n    tag_406:\n        /* \"--CODEGEN--\":14156:14375   */\n      pop\n      pop\n      pop\n      pop\n      jump\t// out\n        /* \"--CODEGEN--\":14383:14544   */\n    tag_331:\n      0x00\n        /* \"--CODEGEN--\":14473:14539   */\n      tag_408\n        /* \"--CODEGEN--\":14504:14538   */\n      tag_409\n        /* \"--CODEGEN--\":14527:14537   */\n      dup4\n        /* \"--CODEGEN--\":14504:14538   */\n      tag_410\n      jump\t// in\n    tag_409:\n        /* \"--CODEGEN--\":14473:14539   */\n      tag_388\n      jump\t// in\n    tag_408:\n        /* \"--CODEGEN--\":14464:14539   */\n      swap1\n      pop\n        /* \"--CODEGEN--\":14458:14544   */\n      swap2\n      swap1\n      pop\n      jump\t// out\n        /* \"--CODEGEN--\":14551:14648   */\n    tag_309:\n      0x00\n        /* \"--CODEGEN--\":14639:14641   */\n      0x1f\n        /* \"--CODEGEN--\":14635:14642   */\n      not\n        /* \"--CODEGEN--\":14630:14632   */\n      0x1f\n        /* \"--CODEGEN--\":14623:14628   */\n      dup4\n        /* \"--CODEGEN--\":14619:14633   */\n      add\n        /* \"--CODEGEN--\":14615:14643   */\n      and\n        /* \"--CODEGEN--\":14605:14643   */\n      swap1\n      pop\n        /* \"--CODEGEN--\":14599:14648   */\n      swap2\n      swap1\n      pop\n      jump\t// out\n        /* \"--CODEGEN--\":14656:14758   */\n    tag_410:\n      0x00\n        /* \"--CODEGEN--\":14742:14747   */\n      dup2\n        /* \"--CODEGEN--\":14739:14740   */\n      0x00\n        /* \"--CODEGEN--\":14735:14748   */\n      shr\n        /* \"--CODEGEN--\":14713:14748   */\n      swap1\n      pop\n        /* \"--CODEGEN--\":14707:14758   */\n      swap2\n      swap1\n      pop\n      jump\t// out\n        /* \"--CODEGEN--\":14766:14883   */\n    tag_254:\n        /* \"--CODEGEN--\":14835:14859   */\n      tag_414\n        /* \"--CODEGEN--\":14853:14858   */\n      dup2\n        /* \"--CODEGEN--\":14835:14859   */\n      tag_291\n      jump\t// in\n    tag_414:\n        /* \"--CODEGEN--\":14828:14833   */\n      dup2\n        /* \"--CODEGEN--\":14825:14860   */\n      eq\n        /* \"--CODEGEN--\":14815:14817   */\n      tag_415\n      jumpi\n        /* \"--CODEGEN--\":14874:14875   */\n      0x00\n        /* \"--CODEGEN--\":14871:14872   */\n      dup1\n        /* \"--CODEGEN--\":14864:14876   */\n      revert\n        /* \"--CODEGEN--\":14815:14817   */\n    tag_415:\n        /* \"--CODEGEN--\":14809:14883   */\n      pop\n      jump\t// out\n        /* \"--CODEGEN--\":14890:15007   */\n    tag_268:\n        /* \"--CODEGEN--\":14959:14983   */\n      tag_417\n        /* \"--CODEGEN--\":14977:14982   */\n      dup2\n        /* \"--CODEGEN--\":14959:14983   */\n      tag_345\n      jump\t// in\n    tag_417:\n        /* \"--CODEGEN--\":14952:14957   */\n      dup2\n        /* \"--CODEGEN--\":14949:14984   */\n      eq\n        /* \"--CODEGEN--\":14939:14941   */\n      tag_418\n      jumpi\n        /* \"--CODEGEN--\":14998:14999   */\n      0x00\n        /* \"--CODEGEN--\":14995:14996   */\n      dup1\n        /* \"--CODEGEN--\":14988:15000   */\n      revert\n        /* \"--CODEGEN--\":14939:14941   */\n    tag_418:\n        /* \"--CODEGEN--\":14933:15007   */\n      pop\n      jump\t// out\n    stop\n\n    sub_0: assembly {\n            /* \"JLoansFactory.sol\":14378:16171  contract JLoanEthPair is JLoanCommons, IJLoanEthPair {\r... */\n          mstore(0x40, 0x80)\n            /* \"JLoansFactory.sol\":14845:15517  constructor(string memory _name, \r... */\n          callvalue\n          dup1\n          iszero\n          tag_1\n          jumpi\n          0x00\n          dup1\n          revert\n        tag_1:\n          pop\n          mload(0x40)\n          sub(codesize, bytecodeSize)\n          dup1\n          bytecodeSize\n          dup4\n          codecopy\n          dup2\n          dup2\n          add\n          0x40\n          mstore\n          dup2\n          add\n          swap1\n          tag_2\n          swap2\n          swap1\n          tag_3\n          jump\t// in\n        tag_2:\n            /* \"JLoansFactory.sol\":15137:15142  _name */\n          dup7\n            /* \"JLoansFactory.sol\":15145:15153  _rpbRate */\n          dup5\n            /* \"JLoansFactory.sol\":15155:15166  _startPrice */\n          dup5\n            /* \"JLoansFactory.sol\":15168:15181  _passedParams */\n          dup5\n            /* \"JLoansFactory.sol\":15183:15192  _faddress */\n          dup5\n            /* \"JLoansFactory.sol\":7102:7119  address msgSender */\n          0x00\n            /* \"JLoansFactory.sol\":7122:7134  _msgSender() */\n          tag_8\n            /* \"JLoansFactory.sol\":7122:7132  _msgSender */\n          shl(0x20, tag_9)\n            /* \"JLoansFactory.sol\":7122:7134  _msgSender() */\n          0x20\n          shr\n          jump\t// in\n        tag_8:\n            /* \"JLoansFactory.sol\":7102:7134  address msgSender = _msgSender() */\n          swap1\n          pop\n            /* \"JLoansFactory.sol\":7154:7163  msgSender */\n          dup1\n            /* \"JLoansFactory.sol\":7145:7151  _owner */\n          0x00\n          dup1\n            /* \"JLoansFactory.sol\":7145:7163  _owner = msgSender */\n          0x0100\n          exp\n          dup2\n          sload\n          dup2\n          0xffffffffffffffffffffffffffffffffffffffff\n          mul\n          not\n          and\n          swap1\n          dup4\n          0xffffffffffffffffffffffffffffffffffffffff\n          and\n          mul\n          or\n          swap1\n          sstore\n          pop\n            /* \"JLoansFactory.sol\":7212:7221  msgSender */\n          dup1\n            /* \"JLoansFactory.sol\":7179:7222  OwnershipTransferred(address(0), msgSender) */\n          0xffffffffffffffffffffffffffffffffffffffff\n          and\n            /* \"JLoansFactory.sol\":7208:7209  0 */\n          0x00\n            /* \"JLoansFactory.sol\":7179:7222  OwnershipTransferred(address(0), msgSender) */\n          0xffffffffffffffffffffffffffffffffffffffff\n          and\n          0x8be0079c531659141344cd1fd0a4f28419497f9722a3daafe3b4186f6b6457e0\n          mload(0x40)\n          mload(0x40)\n          dup1\n          swap2\n          sub\n          swap1\n          log3\n            /* \"JLoansFactory.sol\":7067:7230  constructor () internal {\r... */\n          pop\n            /* \"JLoansFactory.sol\":12777:12790  _passedParams */\n          dup2\n            /* \"JLoansFactory.sol\":12764:12774  loanParams */\n          0x01\n            /* \"JLoansFactory.sol\":12764:12790  loanParams = _passedParams */\n          0x00\n          dup3\n          add\n          mload\n          dup2\n          0x00\n          add\n          sstore\n          0x20\n          dup3\n          add\n          mload\n          dup2\n          0x01\n          add\n          sstore\n          0x40\n          dup3\n          add\n          mload\n          dup2\n          0x02\n          add\n          sstore\n          0x60\n          dup3\n          add\n          mload\n          dup2\n          0x03\n          add\n          sstore\n          0x80\n          dup3\n          add\n          mload\n          dup2\n          0x04\n          add\n          sstore\n          0xa0\n          dup3\n          add\n          mload\n          dup2\n          0x05\n          add\n          sstore\n          swap1\n          pop\n          pop\n            /* \"JLoansFactory.sol\":12821:12831  loanParams */\n          0x01\n            /* \"JLoansFactory.sol\":12821:12842  loanParams.minRpbRate */\n          0x00\n          add\n          sload\n            /* \"JLoansFactory.sol\":12809:12817  _rpbRate */\n          dup5\n            /* \"JLoansFactory.sol\":12809:12842  _rpbRate >= loanParams.minRpbRate */\n          lt\n          iszero\n            /* \"JLoansFactory.sol\":12801:12864  require(_rpbRate >= loanParams.minRpbRate, \"Interest too low!\") */\n          tag_11\n          jumpi\n          mload(0x40)\n          0x08c379a000000000000000000000000000000000000000000000000000000000\n          dup2\n          mstore\n          0x04\n          add\n          tag_12\n          swap1\n          tag_13\n          jump\t// in\n        tag_12:\n          mload(0x40)\n          dup1\n          swap2\n          sub\n          swap1\n          revert\n        tag_11:\n            /* \"JLoansFactory.sol\":12886:12891  _name */\n          dup5\n            /* \"JLoansFactory.sol\":12875:12883  loanName */\n          0x08\n            /* \"JLoansFactory.sol\":12875:12891  loanName = _name */\n          swap1\n          dup1\n          mload\n          swap1\n          0x20\n          add\n          swap1\n          tag_14\n          swap3\n          swap2\n          swap1\n          tag_15\n          jump\t// in\n        tag_14:\n          pop\n            /* \"JLoansFactory.sol\":12915:12926  _startPrice */\n          dup3\n            /* \"JLoansFactory.sol\":12902:12912  startPrice */\n          0x0a\n            /* \"JLoansFactory.sol\":12902:12926  startPrice = _startPrice */\n          dup2\n          swap1\n          sstore\n          pop\n            /* \"JLoansFactory.sol\":12954:12963  _faddress */\n          dup1\n            /* \"JLoansFactory.sol\":12937:12951  factoryAddress */\n          0x12\n          0x00\n            /* \"JLoansFactory.sol\":12937:12963  factoryAddress = _faddress */\n          0x0100\n          exp\n          dup2\n          sload\n          dup2\n          0xffffffffffffffffffffffffffffffffffffffff\n          mul\n          not\n          and\n          swap1\n          dup4\n          0xffffffffffffffffffffffffffffffffffffffff\n          and\n          mul\n          or\n          swap1\n          sstore\n          pop\n            /* \"JLoansFactory.sol\":12984:12992  _rpbRate */\n          dup4\n            /* \"JLoansFactory.sol\":12974:12981  rpbRate */\n          0x09\n            /* \"JLoansFactory.sol\":12974:12992  rpbRate = _rpbRate */\n          dup2\n          swap1\n          sstore\n          pop\n            /* \"JLoansFactory.sol\":13019:13031  block.number */\n          number\n            /* \"JLoansFactory.sol\":13003:13016  creationBlock */\n          0x0c\n            /* \"JLoansFactory.sol\":13003:13031  creationBlock = block.number */\n          dup2\n          swap1\n          sstore\n          pop\n            /* \"JLoansFactory.sol\":13047:13082  LoanContractDeployed(creationBlock) */\n          0x656ad37b815087d90f0c4cbdbf28a9ef3e92cfeb045dd15eaa452cc8b1d34e00\n            /* \"JLoansFactory.sol\":13068:13081  creationBlock */\n          sload(0x0c)\n            /* \"JLoansFactory.sol\":13047:13082  LoanContractDeployed(creationBlock) */\n          mload(0x40)\n          tag_16\n          swap2\n          swap1\n          tag_17\n          jump\t// in\n        tag_16:\n          mload(0x40)\n          dup1\n          swap2\n          sub\n          swap1\n          log1\n            /* \"JLoansFactory.sol\":12561:13090  constructor(string memory _name, \r... */\n          pop\n          pop\n          pop\n          pop\n          pop\n            /* \"JLoansFactory.sol\":15237:15252  _borrowedCrypto */\n          dup6\n            /* \"JLoansFactory.sol\":15214:15234  chosenBorrowedCrypto */\n          0x14\n            /* \"JLoansFactory.sol\":15214:15252  chosenBorrowedCrypto = _borrowedCrypto */\n          swap1\n          dup1\n          mload\n          swap1\n          0x20\n          add\n          swap1\n          tag_19\n          swap3\n          swap2\n          swap1\n          tag_15\n          jump\t// in\n        tag_19:\n          pop\n            /* \"JLoansFactory.sol\":15334:15352  _borrowedAskAmount */\n          dup5\n            /* \"JLoansFactory.sol\":15314:15331  askedBorrowAmount */\n          0x15\n            /* \"JLoansFactory.sol\":15314:15352  askedBorrowAmount = _borrowedAskAmount */\n          dup2\n          swap1\n          sstore\n          pop\n            /* \"JLoansFactory.sol\":15386:15400  Status.pending */\n          0x00\n            /* \"JLoansFactory.sol\":15373:15383  loanStatus */\n          0x07\n          0x00\n            /* \"JLoansFactory.sol\":15373:15400  loanStatus = Status.pending */\n          0x0100\n          exp\n          dup2\n          sload\n          dup2\n          0xff\n          mul\n          not\n          and\n          swap1\n          dup4\n          0x04\n          dup2\n          gt\n          iszero\n          tag_20\n          jumpi\n          invalid\n        tag_20:\n          mul\n          or\n          swap1\n          sstore\n          pop\n            /* \"JLoansFactory.sol\":15429:15430  0 */\n          0x00\n            /* \"JLoansFactory.sol\":15411:15426  borrowerBalance */\n          0x10\n            /* \"JLoansFactory.sol\":15411:15430  borrowerBalance = 0 */\n          dup2\n          swap1\n          sstore\n          pop\n            /* \"JLoansFactory.sol\":15457:15458  0 */\n          0x00\n            /* \"JLoansFactory.sol\":15441:15454  lenderBalance */\n          0x11\n            /* \"JLoansFactory.sol\":15441:15458  lenderBalance = 0 */\n          dup2\n          swap1\n          sstore\n          pop\n            /* \"JLoansFactory.sol\":15474:15509  LoanContractDeployed(creationBlock) */\n          0x656ad37b815087d90f0c4cbdbf28a9ef3e92cfeb045dd15eaa452cc8b1d34e00\n            /* \"JLoansFactory.sol\":15495:15508  creationBlock */\n          sload(0x0c)\n            /* \"JLoansFactory.sol\":15474:15509  LoanContractDeployed(creationBlock) */\n          mload(0x40)\n          tag_21\n          swap2\n          swap1\n          tag_17\n          jump\t// in\n        tag_21:\n          mload(0x40)\n          dup1\n          swap2\n          sub\n          swap1\n          log1\n            /* \"JLoansFactory.sol\":14845:15517  constructor(string memory _name, \r... */\n          pop\n          pop\n          pop\n          pop\n          pop\n          pop\n          pop\n            /* \"JLoansFactory.sol\":14378:16171  contract JLoanEthPair is JLoanCommons, IJLoanEthPair {\r... */\n          jump(tag_22)\n            /* \"JLoansFactory.sol\":5945:6051  function _msgSender() internal view virtual returns (address payable) {\r... */\n        tag_9:\n            /* \"JLoansFactory.sol\":5998:6013  address payable */\n          0x00\n            /* \"JLoansFactory.sol\":6033:6043  msg.sender */\n          caller\n            /* \"JLoansFactory.sol\":6026:6043  return msg.sender */\n          swap1\n          pop\n            /* \"JLoansFactory.sol\":5945:6051  function _msgSender() internal view virtual returns (address payable) {\r... */\n          swap1\n          jump\t// out\n            /* \"JLoansFactory.sol\":14378:16171  contract JLoanEthPair is JLoanCommons, IJLoanEthPair {\r... */\n        tag_15:\n          dup3\n          dup1\n          sload\n          0x01\n          dup2\n          0x01\n          and\n          iszero\n          0x0100\n          mul\n          sub\n          and\n          0x02\n          swap1\n          div\n          swap1\n          0x00\n          mstore\n          keccak256(0x00, 0x20)\n          swap1\n          0x1f\n          add\n          0x20\n          swap1\n          div\n          dup2\n          add\n          swap3\n          dup3\n          0x1f\n          lt\n          tag_25\n          jumpi\n          dup1\n          mload\n          not(0xff)\n          and\n          dup4\n          dup1\n          add\n          or\n          dup6\n          sstore\n          jump(tag_24)\n        tag_25:\n          dup3\n          dup1\n          add\n          0x01\n          add\n          dup6\n          sstore\n          dup3\n          iszero\n          tag_24\n          jumpi\n          swap2\n          dup3\n          add\n        tag_26:\n          dup3\n          dup2\n          gt\n          iszero\n          tag_27\n          jumpi\n          dup3\n          mload\n          dup3\n          sstore\n          swap2\n          0x20\n          add\n          swap2\n          swap1\n          0x01\n          add\n          swap1\n          jump(tag_26)\n        tag_27:\n        tag_24:\n          pop\n          swap1\n          pop\n          tag_28\n          swap2\n          swap1\n          tag_29\n          jump\t// in\n        tag_28:\n          pop\n          swap1\n          jump\t// out\n        tag_29:\n        tag_30:\n          dup1\n          dup3\n          gt\n          iszero\n          tag_31\n          jumpi\n          0x00\n          dup2\n          0x00\n          swap1\n          sstore\n          pop\n          0x01\n          add\n          jump(tag_30)\n        tag_31:\n          pop\n          swap1\n          jump\t// out\n            /* \"--CODEGEN--\":5:139   */\n        tag_33:\n          0x00\n            /* \"--CODEGEN--\":89:95   */\n          dup2\n            /* \"--CODEGEN--\":83:96   */\n          mload\n            /* \"--CODEGEN--\":74:96   */\n          swap1\n          pop\n            /* \"--CODEGEN--\":101:134   */\n          tag_35\n            /* \"--CODEGEN--\":128:133   */\n          dup2\n            /* \"--CODEGEN--\":101:134   */\n          tag_36\n          jump\t// in\n        tag_35:\n            /* \"--CODEGEN--\":68:139   */\n          swap3\n          swap2\n          pop\n          pop\n          jump\t// out\n            /* \"--CODEGEN--\":147:591   */\n        tag_37:\n          0x00\n            /* \"--CODEGEN--\":260:263   */\n          dup3\n            /* \"--CODEGEN--\":253:257   */\n          0x1f\n            /* \"--CODEGEN--\":245:251   */\n          dup4\n            /* \"--CODEGEN--\":241:258   */\n          add\n            /* \"--CODEGEN--\":237:264   */\n          slt\n            /* \"--CODEGEN--\":227:229   */\n          tag_39\n          jumpi\n            /* \"--CODEGEN--\":278:279   */\n          0x00\n            /* \"--CODEGEN--\":275:276   */\n          dup1\n            /* \"--CODEGEN--\":268:280   */\n          revert\n            /* \"--CODEGEN--\":227:229   */\n        tag_39:\n            /* \"--CODEGEN--\":308:314   */\n          dup2\n            /* \"--CODEGEN--\":302:315   */\n          mload\n            /* \"--CODEGEN--\":330:395   */\n          tag_40\n            /* \"--CODEGEN--\":345:394   */\n          tag_41\n            /* \"--CODEGEN--\":387:393   */\n          dup3\n            /* \"--CODEGEN--\":345:394   */\n          tag_42\n          jump\t// in\n        tag_41:\n            /* \"--CODEGEN--\":330:395   */\n          tag_43\n          jump\t// in\n        tag_40:\n            /* \"--CODEGEN--\":321:395   */\n          swap2\n          pop\n            /* \"--CODEGEN--\":415:421   */\n          dup1\n            /* \"--CODEGEN--\":408:413   */\n          dup3\n            /* \"--CODEGEN--\":401:422   */\n          mstore\n            /* \"--CODEGEN--\":451:455   */\n          0x20\n            /* \"--CODEGEN--\":443:449   */\n          dup4\n            /* \"--CODEGEN--\":439:456   */\n          add\n            /* \"--CODEGEN--\":484:488   */\n          0x20\n            /* \"--CODEGEN--\":477:482   */\n          dup4\n            /* \"--CODEGEN--\":473:489   */\n          add\n            /* \"--CODEGEN--\":519:522   */\n          dup6\n            /* \"--CODEGEN--\":510:516   */\n          dup4\n            /* \"--CODEGEN--\":505:508   */\n          dup4\n            /* \"--CODEGEN--\":501:517   */\n          add\n            /* \"--CODEGEN--\":498:523   */\n          gt\n            /* \"--CODEGEN--\":495:497   */\n          iszero\n          tag_44\n          jumpi\n            /* \"--CODEGEN--\":536:537   */\n          0x00\n            /* \"--CODEGEN--\":533:534   */\n          dup1\n            /* \"--CODEGEN--\":526:538   */\n          revert\n            /* \"--CODEGEN--\":495:497   */\n        tag_44:\n            /* \"--CODEGEN--\":546:585   */\n          tag_45\n            /* \"--CODEGEN--\":578:584   */\n          dup4\n            /* \"--CODEGEN--\":573:576   */\n          dup3\n            /* \"--CODEGEN--\":568:571   */\n          dup5\n            /* \"--CODEGEN--\":546:585   */\n          tag_46\n          jump\t// in\n        tag_45:\n            /* \"--CODEGEN--\":220:591   */\n          pop\n          pop\n          pop\n          swap3\n          swap2\n          pop\n          pop\n          jump\t// out\n            /* \"--CODEGEN--\":633:1834   */\n        tag_47:\n          0x00\n            /* \"--CODEGEN--\":756:760   */\n          0xc0\n            /* \"--CODEGEN--\":744:753   */\n          dup3\n            /* \"--CODEGEN--\":739:742   */\n          dup5\n            /* \"--CODEGEN--\":735:754   */\n          sub\n            /* \"--CODEGEN--\":731:761   */\n          slt\n            /* \"--CODEGEN--\":728:730   */\n          iszero\n          tag_49\n          jumpi\n            /* \"--CODEGEN--\":774:775   */\n          0x00\n            /* \"--CODEGEN--\":771:772   */\n          dup1\n            /* \"--CODEGEN--\":764:776   */\n          revert\n            /* \"--CODEGEN--\":728:730   */\n        tag_49:\n            /* \"--CODEGEN--\":792:812   */\n          tag_50\n            /* \"--CODEGEN--\":807:811   */\n          0xc0\n            /* \"--CODEGEN--\":792:812   */\n          tag_43\n          jump\t// in\n        tag_50:\n            /* \"--CODEGEN--\":783:812   */\n          swap1\n          pop\n            /* \"--CODEGEN--\":868:869   */\n          0x00\n            /* \"--CODEGEN--\":900:960   */\n          tag_51\n            /* \"--CODEGEN--\":956:959   */\n          dup5\n            /* \"--CODEGEN--\":947:953   */\n          dup3\n            /* \"--CODEGEN--\":936:945   */\n          dup6\n            /* \"--CODEGEN--\":932:954   */\n          add\n            /* \"--CODEGEN--\":900:960   */\n          tag_52\n          jump\t// in\n        tag_51:\n            /* \"--CODEGEN--\":893:897   */\n          0x00\n            /* \"--CODEGEN--\":886:891   */\n          dup4\n            /* \"--CODEGEN--\":882:898   */\n          add\n            /* \"--CODEGEN--\":875:961   */\n          mstore\n            /* \"--CODEGEN--\":822:972   */\n          pop\n            /* \"--CODEGEN--\":1039:1041   */\n          0x20\n            /* \"--CODEGEN--\":1072:1132   */\n          tag_53\n            /* \"--CODEGEN--\":1128:1131   */\n          dup5\n            /* \"--CODEGEN--\":1119:1125   */\n          dup3\n            /* \"--CODEGEN--\":1108:1117   */\n          dup6\n            /* \"--CODEGEN--\":1104:1126   */\n          add\n            /* \"--CODEGEN--\":1072:1132   */\n          tag_52\n          jump\t// in\n        tag_53:\n            /* \"--CODEGEN--\":1065:1069   */\n          0x20\n            /* \"--CODEGEN--\":1058:1063   */\n          dup4\n            /* \"--CODEGEN--\":1054:1070   */\n          add\n            /* \"--CODEGEN--\":1047:1133   */\n          mstore\n            /* \"--CODEGEN--\":982:1144   */\n          pop\n            /* \"--CODEGEN--\":1207:1209   */\n          0x40\n            /* \"--CODEGEN--\":1240:1300   */\n          tag_54\n            /* \"--CODEGEN--\":1296:1299   */\n          dup5\n            /* \"--CODEGEN--\":1287:1293   */\n          dup3\n            /* \"--CODEGEN--\":1276:1285   */\n          dup6\n            /* \"--CODEGEN--\":1272:1294   */\n          add\n            /* \"--CODEGEN--\":1240:1300   */\n          tag_52\n          jump\t// in\n        tag_54:\n            /* \"--CODEGEN--\":1233:1237   */\n          0x40\n            /* \"--CODEGEN--\":1226:1231   */\n          dup4\n            /* \"--CODEGEN--\":1222:1238   */\n          add\n            /* \"--CODEGEN--\":1215:1301   */\n          mstore\n            /* \"--CODEGEN--\":1154:1312   */\n          pop\n            /* \"--CODEGEN--\":1374:1376   */\n          0x60\n            /* \"--CODEGEN--\":1407:1467   */\n          tag_55\n            /* \"--CODEGEN--\":1463:1466   */\n          dup5\n            /* \"--CODEGEN--\":1454:1460   */\n          dup3\n            /* \"--CODEGEN--\":1443:1452   */\n          dup6\n            /* \"--CODEGEN--\":1439:1461   */\n          add\n            /* \"--CODEGEN--\":1407:1467   */\n          tag_52\n          jump\t// in\n        tag_55:\n            /* \"--CODEGEN--\":1400:1404   */\n          0x60\n            /* \"--CODEGEN--\":1393:1398   */\n          dup4\n            /* \"--CODEGEN--\":1389:1405   */\n          add\n            /* \"--CODEGEN--\":1382:1468   */\n          mstore\n            /* \"--CODEGEN--\":1322:1479   */\n          pop\n            /* \"--CODEGEN--\":1548:1551   */\n          0x80\n            /* \"--CODEGEN--\":1582:1642   */\n          tag_56\n            /* \"--CODEGEN--\":1638:1641   */\n          dup5\n            /* \"--CODEGEN--\":1629:1635   */\n          dup3\n            /* \"--CODEGEN--\":1618:1627   */\n          dup6\n            /* \"--CODEGEN--\":1614:1636   */\n          add\n            /* \"--CODEGEN--\":1582:1642   */\n          tag_52\n          jump\t// in\n        tag_56:\n            /* \"--CODEGEN--\":1575:1579   */\n          0x80\n            /* \"--CODEGEN--\":1568:1573   */\n          dup4\n            /* \"--CODEGEN--\":1564:1580   */\n          add\n            /* \"--CODEGEN--\":1557:1643   */\n          mstore\n            /* \"--CODEGEN--\":1489:1654   */\n          pop\n            /* \"--CODEGEN--\":1718:1721   */\n          0xa0\n            /* \"--CODEGEN--\":1752:1812   */\n          tag_57\n            /* \"--CODEGEN--\":1808:1811   */\n          dup5\n            /* \"--CODEGEN--\":1799:1805   */\n          dup3\n            /* \"--CODEGEN--\":1788:1797   */\n          dup6\n            /* \"--CODEGEN--\":1784:1806   */\n          add\n            /* \"--CODEGEN--\":1752:1812   */\n          tag_52\n          jump\t// in\n        tag_57:\n            /* \"--CODEGEN--\":1745:1749   */\n          0xa0\n            /* \"--CODEGEN--\":1738:1743   */\n          dup4\n            /* \"--CODEGEN--\":1734:1750   */\n          add\n            /* \"--CODEGEN--\":1727:1813   */\n          mstore\n            /* \"--CODEGEN--\":1664:1824   */\n          pop\n            /* \"--CODEGEN--\":722:1834   */\n          swap3\n          swap2\n          pop\n          pop\n          jump\t// out\n            /* \"--CODEGEN--\":1841:1975   */\n        tag_52:\n          0x00\n            /* \"--CODEGEN--\":1925:1931   */\n          dup2\n            /* \"--CODEGEN--\":1919:1932   */\n          mload\n            /* \"--CODEGEN--\":1910:1932   */\n          swap1\n          pop\n            /* \"--CODEGEN--\":1937:1970   */\n          tag_59\n            /* \"--CODEGEN--\":1964:1969   */\n          dup2\n            /* \"--CODEGEN--\":1937:1970   */\n          tag_60\n          jump\t// in\n        tag_59:\n            /* \"--CODEGEN--\":1904:1975   */\n          swap3\n          swap2\n          pop\n          pop\n          jump\t// out\n            /* \"--CODEGEN--\":1982:3309   */\n        tag_3:\n          0x00\n          dup1\n          0x00\n          dup1\n          0x00\n          dup1\n          0x00\n            /* \"--CODEGEN--\":2242:2245   */\n          0x0180\n            /* \"--CODEGEN--\":2230:2239   */\n          dup9\n            /* \"--CODEGEN--\":2221:2228   */\n          dup11\n            /* \"--CODEGEN--\":2217:2240   */\n          sub\n            /* \"--CODEGEN--\":2213:2246   */\n          slt\n            /* \"--CODEGEN--\":2210:2212   */\n          iszero\n          tag_62\n          jumpi\n            /* \"--CODEGEN--\":2259:2260   */\n          0x00\n            /* \"--CODEGEN--\":2256:2257   */\n          dup1\n            /* \"--CODEGEN--\":2249:2261   */\n          revert\n            /* \"--CODEGEN--\":2210:2212   */\n        tag_62:\n            /* \"--CODEGEN--\":2315:2316   */\n          0x00\n            /* \"--CODEGEN--\":2304:2313   */\n          dup9\n            /* \"--CODEGEN--\":2300:2317   */\n          add\n            /* \"--CODEGEN--\":2294:2318   */\n          mload\n            /* \"--CODEGEN--\":2338:2356   */\n          0xffffffffffffffff\n            /* \"--CODEGEN--\":2330:2336   */\n          dup2\n            /* \"--CODEGEN--\":2327:2357   */\n          gt\n            /* \"--CODEGEN--\":2324:2326   */\n          iszero\n          tag_63\n          jumpi\n            /* \"--CODEGEN--\":2370:2371   */\n          0x00\n            /* \"--CODEGEN--\":2367:2368   */\n          dup1\n            /* \"--CODEGEN--\":2360:2372   */\n          revert\n            /* \"--CODEGEN--\":2324:2326   */\n        tag_63:\n            /* \"--CODEGEN--\":2390:2464   */\n          tag_64\n            /* \"--CODEGEN--\":2456:2463   */\n          dup11\n            /* \"--CODEGEN--\":2447:2453   */\n          dup3\n            /* \"--CODEGEN--\":2436:2445   */\n          dup12\n            /* \"--CODEGEN--\":2432:2454   */\n          add\n            /* \"--CODEGEN--\":2390:2464   */\n          tag_37\n          jump\t// in\n        tag_64:\n            /* \"--CODEGEN--\":2380:2464   */\n          swap8\n          pop\n            /* \"--CODEGEN--\":2273:2470   */\n          pop\n            /* \"--CODEGEN--\":2522:2524   */\n          0x20\n            /* \"--CODEGEN--\":2511:2520   */\n          dup9\n            /* \"--CODEGEN--\":2507:2525   */\n          add\n            /* \"--CODEGEN--\":2501:2526   */\n          mload\n            /* \"--CODEGEN--\":2546:2564   */\n          0xffffffffffffffff\n            /* \"--CODEGEN--\":2538:2544   */\n          dup2\n            /* \"--CODEGEN--\":2535:2565   */\n          gt\n            /* \"--CODEGEN--\":2532:2534   */\n          iszero\n          tag_65\n          jumpi\n            /* \"--CODEGEN--\":2578:2579   */\n          0x00\n            /* \"--CODEGEN--\":2575:2576   */\n          dup1\n            /* \"--CODEGEN--\":2568:2580   */\n          revert\n            /* \"--CODEGEN--\":2532:2534   */\n        tag_65:\n            /* \"--CODEGEN--\":2598:2672   */\n          tag_66\n            /* \"--CODEGEN--\":2664:2671   */\n          dup11\n            /* \"--CODEGEN--\":2655:2661   */\n          dup3\n            /* \"--CODEGEN--\":2644:2653   */\n          dup12\n            /* \"--CODEGEN--\":2640:2662   */\n          add\n            /* \"--CODEGEN--\":2598:2672   */\n          tag_37\n          jump\t// in\n        tag_66:\n            /* \"--CODEGEN--\":2588:2672   */\n          swap7\n          pop\n            /* \"--CODEGEN--\":2480:2678   */\n          pop\n            /* \"--CODEGEN--\":2709:2711   */\n          0x40\n            /* \"--CODEGEN--\":2727:2791   */\n          tag_67\n            /* \"--CODEGEN--\":2783:2790   */\n          dup11\n            /* \"--CODEGEN--\":2774:2780   */\n          dup3\n            /* \"--CODEGEN--\":2763:2772   */\n          dup12\n            /* \"--CODEGEN--\":2759:2781   */\n          add\n            /* \"--CODEGEN--\":2727:2791   */\n          tag_52\n          jump\t// in\n        tag_67:\n            /* \"--CODEGEN--\":2717:2791   */\n          swap6\n          pop\n            /* \"--CODEGEN--\":2688:2797   */\n          pop\n            /* \"--CODEGEN--\":2828:2830   */\n          0x60\n            /* \"--CODEGEN--\":2846:2910   */\n          tag_68\n            /* \"--CODEGEN--\":2902:2909   */\n          dup11\n            /* \"--CODEGEN--\":2893:2899   */\n          dup3\n            /* \"--CODEGEN--\":2882:2891   */\n          dup12\n            /* \"--CODEGEN--\":2878:2900   */\n          add\n            /* \"--CODEGEN--\":2846:2910   */\n          tag_52\n          jump\t// in\n        tag_68:\n            /* \"--CODEGEN--\":2836:2910   */\n          swap5\n          pop\n            /* \"--CODEGEN--\":2807:2916   */\n          pop\n            /* \"--CODEGEN--\":2947:2950   */\n          0x80\n            /* \"--CODEGEN--\":2966:3030   */\n          tag_69\n            /* \"--CODEGEN--\":3022:3029   */\n          dup11\n            /* \"--CODEGEN--\":3013:3019   */\n          dup3\n            /* \"--CODEGEN--\":3002:3011   */\n          dup12\n            /* \"--CODEGEN--\":2998:3020   */\n          add\n            /* \"--CODEGEN--\":2966:3030   */\n          tag_52\n          jump\t// in\n        tag_69:\n            /* \"--CODEGEN--\":2956:3030   */\n          swap4\n          pop\n            /* \"--CODEGEN--\":2926:3036   */\n          pop\n            /* \"--CODEGEN--\":3067:3070   */\n          0xa0\n            /* \"--CODEGEN--\":3086:3173   */\n          tag_70\n            /* \"--CODEGEN--\":3165:3172   */\n          dup11\n            /* \"--CODEGEN--\":3156:3162   */\n          dup3\n            /* \"--CODEGEN--\":3145:3154   */\n          dup12\n            /* \"--CODEGEN--\":3141:3163   */\n          add\n            /* \"--CODEGEN--\":3086:3173   */\n          tag_47\n          jump\t// in\n        tag_70:\n            /* \"--CODEGEN--\":3076:3173   */\n          swap3\n          pop\n            /* \"--CODEGEN--\":3046:3179   */\n          pop\n            /* \"--CODEGEN--\":3210:3213   */\n          0x0160\n            /* \"--CODEGEN--\":3229:3293   */\n          tag_71\n            /* \"--CODEGEN--\":3285:3292   */\n          dup11\n            /* \"--CODEGEN--\":3276:3282   */\n          dup3\n            /* \"--CODEGEN--\":3265:3274   */\n          dup12\n            /* \"--CODEGEN--\":3261:3283   */\n          add\n            /* \"--CODEGEN--\":3229:3293   */\n          tag_33\n          jump\t// in\n        tag_71:\n            /* \"--CODEGEN--\":3219:3293   */\n          swap2\n          pop\n            /* \"--CODEGEN--\":3189:3299   */\n          pop\n            /* \"--CODEGEN--\":2204:3309   */\n          swap3\n          swap6\n          swap9\n          swap2\n          swap5\n          swap8\n          pop\n          swap3\n          swap6\n          pop\n          jump\t// out\n            /* \"--CODEGEN--\":3317:3634   */\n        tag_72:\n          0x00\n            /* \"--CODEGEN--\":3477:3544   */\n          tag_74\n            /* \"--CODEGEN--\":3541:3543   */\n          0x11\n            /* \"--CODEGEN--\":3536:3539   */\n          dup4\n            /* \"--CODEGEN--\":3477:3544   */\n          tag_75\n          jump\t// in\n        tag_74:\n            /* \"--CODEGEN--\":3470:3544   */\n          swap2\n          pop\n            /* \"--CODEGEN--\":3577:3596   */\n          0x496e74657265737420746f6f206c6f7721000000000000000000000000000000\n            /* \"--CODEGEN--\":3573:3574   */\n          0x00\n            /* \"--CODEGEN--\":3568:3571   */\n          dup4\n            /* \"--CODEGEN--\":3564:3575   */\n          add\n            /* \"--CODEGEN--\":3557:3597   */\n          mstore\n            /* \"--CODEGEN--\":3625:3627   */\n          0x20\n            /* \"--CODEGEN--\":3620:3623   */\n          dup3\n            /* \"--CODEGEN--\":3616:3628   */\n          add\n            /* \"--CODEGEN--\":3609:3628   */\n          swap1\n          pop\n            /* \"--CODEGEN--\":3463:3634   */\n          swap2\n          swap1\n          pop\n          jump\t// out\n            /* \"--CODEGEN--\":3642:3755   */\n        tag_76:\n            /* \"--CODEGEN--\":3725:3749   */\n          tag_78\n            /* \"--CODEGEN--\":3743:3748   */\n          dup2\n            /* \"--CODEGEN--\":3725:3749   */\n          tag_79\n          jump\t// in\n        tag_78:\n            /* \"--CODEGEN--\":3720:3723   */\n          dup3\n            /* \"--CODEGEN--\":3713:3750   */\n          mstore\n            /* \"--CODEGEN--\":3707:3755   */\n          pop\n          pop\n          jump\t// out\n            /* \"--CODEGEN--\":3762:4178   */\n        tag_13:\n          0x00\n            /* \"--CODEGEN--\":3962:3964   */\n          0x20\n            /* \"--CODEGEN--\":3951:3960   */\n          dup3\n            /* \"--CODEGEN--\":3947:3965   */\n          add\n            /* \"--CODEGEN--\":3939:3965   */\n          swap1\n          pop\n            /* \"--CODEGEN--\":4012:4021   */\n          dup2\n            /* \"--CODEGEN--\":4006:4010   */\n          dup2\n            /* \"--CODEGEN--\":4002:4022   */\n          sub\n            /* \"--CODEGEN--\":3998:3999   */\n          0x00\n            /* \"--CODEGEN--\":3987:3996   */\n          dup4\n            /* \"--CODEGEN--\":3983:4000   */\n          add\n            /* \"--CODEGEN--\":3976:4023   */\n          mstore\n            /* \"--CODEGEN--\":4037:4168   */\n          tag_81\n            /* \"--CODEGEN--\":4163:4167   */\n          dup2\n            /* \"--CODEGEN--\":4037:4168   */\n          tag_72\n          jump\t// in\n        tag_81:\n            /* \"--CODEGEN--\":4029:4168   */\n          swap1\n          pop\n            /* \"--CODEGEN--\":3933:4178   */\n          swap2\n          swap1\n          pop\n          jump\t// out\n            /* \"--CODEGEN--\":4185:4407   */\n        tag_17:\n          0x00\n            /* \"--CODEGEN--\":4312:4314   */\n          0x20\n            /* \"--CODEGEN--\":4301:4310   */\n          dup3\n            /* \"--CODEGEN--\":4297:4315   */\n          add\n            /* \"--CODEGEN--\":4289:4315   */\n          swap1\n          pop\n            /* \"--CODEGEN--\":4326:4397   */\n          tag_83\n            /* \"--CODEGEN--\":4394:4395   */\n          0x00\n            /* \"--CODEGEN--\":4383:4392   */\n          dup4\n            /* \"--CODEGEN--\":4379:4396   */\n          add\n            /* \"--CODEGEN--\":4370:4376   */\n          dup5\n            /* \"--CODEGEN--\":4326:4397   */\n          tag_76\n          jump\t// in\n        tag_83:\n            /* \"--CODEGEN--\":4283:4407   */\n          swap3\n          swap2\n          pop\n          pop\n          jump\t// out\n            /* \"--CODEGEN--\":4414:4670   */\n        tag_43:\n          0x00\n            /* \"--CODEGEN--\":4476:4478   */\n          0x40\n            /* \"--CODEGEN--\":4470:4479   */\n          mload\n            /* \"--CODEGEN--\":4460:4479   */\n          swap1\n          pop\n            /* \"--CODEGEN--\":4514:4518   */\n          dup2\n            /* \"--CODEGEN--\":4506:4512   */\n          dup2\n            /* \"--CODEGEN--\":4502:4519   */\n          add\n            /* \"--CODEGEN--\":4613:4619   */\n          dup2\n            /* \"--CODEGEN--\":4601:4611   */\n          dup2\n            /* \"--CODEGEN--\":4598:4620   */\n          lt\n            /* \"--CODEGEN--\":4577:4595   */\n          0xffffffffffffffff\n            /* \"--CODEGEN--\":4565:4575   */\n          dup3\n            /* \"--CODEGEN--\":4562:4596   */\n          gt\n            /* \"--CODEGEN--\":4559:4621   */\n          or\n            /* \"--CODEGEN--\":4556:4558   */\n          iszero\n          tag_85\n          jumpi\n            /* \"--CODEGEN--\":4634:4635   */\n          0x00\n            /* \"--CODEGEN--\":4631:4632   */\n          dup1\n            /* \"--CODEGEN--\":4624:4636   */\n          revert\n            /* \"--CODEGEN--\":4556:4558   */\n        tag_85:\n            /* \"--CODEGEN--\":4654:4664   */\n          dup1\n            /* \"--CODEGEN--\":4650:4652   */\n          0x40\n            /* \"--CODEGEN--\":4643:4665   */\n          mstore\n            /* \"--CODEGEN--\":4454:4670   */\n          pop\n          swap2\n          swap1\n          pop\n          jump\t// out\n            /* \"--CODEGEN--\":4677:4999   */\n        tag_42:\n          0x00\n            /* \"--CODEGEN--\":4821:4839   */\n          0xffffffffffffffff\n            /* \"--CODEGEN--\":4813:4819   */\n          dup3\n            /* \"--CODEGEN--\":4810:4840   */\n          gt\n            /* \"--CODEGEN--\":4807:4809   */\n          iszero\n          tag_87\n          jumpi\n            /* \"--CODEGEN--\":4853:4854   */\n          0x00\n            /* \"--CODEGEN--\":4850:4851   */\n          dup1\n            /* \"--CODEGEN--\":4843:4855   */\n          revert\n            /* \"--CODEGEN--\":4807:4809   */\n        tag_87:\n            /* \"--CODEGEN--\":4920:4924   */\n          0x1f\n            /* \"--CODEGEN--\":4916:4925   */\n          not\n            /* \"--CODEGEN--\":4909:4913   */\n          0x1f\n            /* \"--CODEGEN--\":4901:4907   */\n          dup4\n            /* \"--CODEGEN--\":4897:4914   */\n          add\n            /* \"--CODEGEN--\":4893:4926   */\n          and\n            /* \"--CODEGEN--\":4885:4926   */\n          swap1\n          pop\n            /* \"--CODEGEN--\":4984:4988   */\n          0x20\n            /* \"--CODEGEN--\":4978:4982   */\n          dup2\n            /* \"--CODEGEN--\":4974:4989   */\n          add\n            /* \"--CODEGEN--\":4966:4989   */\n          swap1\n          pop\n            /* \"--CODEGEN--\":4744:4999   */\n          swap2\n          swap1\n          pop\n          jump\t// out\n            /* \"--CODEGEN--\":5007:5170   */\n        tag_75:\n          0x00\n            /* \"--CODEGEN--\":5122:5128   */\n          dup3\n            /* \"--CODEGEN--\":5117:5120   */\n          dup3\n            /* \"--CODEGEN--\":5110:5129   */\n          mstore\n            /* \"--CODEGEN--\":5159:5163   */\n          0x20\n            /* \"--CODEGEN--\":5154:5157   */\n          dup3\n            /* \"--CODEGEN--\":5150:5164   */\n          add\n            /* \"--CODEGEN--\":5135:5164   */\n          swap1\n          pop\n            /* \"--CODEGEN--\":5103:5170   */\n          swap3\n          swap2\n          pop\n          pop\n          jump\t// out\n            /* \"--CODEGEN--\":5178:5269   */\n        tag_89:\n          0x00\n            /* \"--CODEGEN--\":5240:5264   */\n          tag_91\n            /* \"--CODEGEN--\":5258:5263   */\n          dup3\n            /* \"--CODEGEN--\":5240:5264   */\n          tag_92\n          jump\t// in\n        tag_91:\n            /* \"--CODEGEN--\":5229:5264   */\n          swap1\n          pop\n            /* \"--CODEGEN--\":5223:5269   */\n          swap2\n          swap1\n          pop\n          jump\t// out\n            /* \"--CODEGEN--\":5276:5397   */\n        tag_92:\n          0x00\n            /* \"--CODEGEN--\":5349:5391   */\n          0xffffffffffffffffffffffffffffffffffffffff\n            /* \"--CODEGEN--\":5342:5347   */\n          dup3\n            /* \"--CODEGEN--\":5338:5392   */\n          and\n            /* \"--CODEGEN--\":5327:5392   */\n          swap1\n          pop\n            /* \"--CODEGEN--\":5321:5397   */\n          swap2\n          swap1\n          pop\n          jump\t// out\n            /* \"--CODEGEN--\":5404:5476   */\n        tag_79:\n          0x00\n            /* \"--CODEGEN--\":5466:5471   */\n          dup2\n            /* \"--CODEGEN--\":5455:5471   */\n          swap1\n          pop\n            /* \"--CODEGEN--\":5449:5476   */\n          swap2\n          swap1\n          pop\n          jump\t// out\n            /* \"--CODEGEN--\":5484:5752   */\n        tag_46:\n            /* \"--CODEGEN--\":5549:5550   */\n          0x00\n            /* \"--CODEGEN--\":5556:5657   */\n        tag_96:\n            /* \"--CODEGEN--\":5570:5576   */\n          dup4\n            /* \"--CODEGEN--\":5567:5568   */\n          dup2\n            /* \"--CODEGEN--\":5564:5577   */\n          lt\n            /* \"--CODEGEN--\":5556:5657   */\n          iszero\n          tag_98\n          jumpi\n            /* \"--CODEGEN--\":5646:5647   */\n          dup1\n            /* \"--CODEGEN--\":5641:5644   */\n          dup3\n            /* \"--CODEGEN--\":5637:5648   */\n          add\n            /* \"--CODEGEN--\":5631:5649   */\n          mload\n            /* \"--CODEGEN--\":5627:5628   */\n          dup2\n            /* \"--CODEGEN--\":5622:5625   */\n          dup5\n            /* \"--CODEGEN--\":5618:5629   */\n          add\n            /* \"--CODEGEN--\":5611:5650   */\n          mstore\n            /* \"--CODEGEN--\":5592:5594   */\n          0x20\n            /* \"--CODEGEN--\":5589:5590   */\n          dup2\n            /* \"--CODEGEN--\":5585:5595   */\n          add\n            /* \"--CODEGEN--\":5580:5595   */\n          swap1\n          pop\n            /* \"--CODEGEN--\":5556:5657   */\n          jump(tag_96)\n        tag_98:\n            /* \"--CODEGEN--\":5672:5678   */\n          dup4\n            /* \"--CODEGEN--\":5669:5670   */\n          dup2\n            /* \"--CODEGEN--\":5666:5679   */\n          gt\n            /* \"--CODEGEN--\":5663:5665   */\n          iszero\n          tag_99\n          jumpi\n            /* \"--CODEGEN--\":5737:5738   */\n          0x00\n            /* \"--CODEGEN--\":5728:5734   */\n          dup5\n            /* \"--CODEGEN--\":5723:5726   */\n          dup5\n            /* \"--CODEGEN--\":5719:5735   */\n          add\n            /* \"--CODEGEN--\":5712:5739   */\n          mstore\n            /* \"--CODEGEN--\":5663:5665   */\n        tag_99:\n            /* \"--CODEGEN--\":5533:5752   */\n          pop\n          pop\n          pop\n          pop\n          jump\t// out\n            /* \"--CODEGEN--\":5760:5877   */\n        tag_36:\n            /* \"--CODEGEN--\":5829:5853   */\n          tag_101\n            /* \"--CODEGEN--\":5847:5852   */\n          dup2\n            /* \"--CODEGEN--\":5829:5853   */\n          tag_89\n          jump\t// in\n        tag_101:\n            /* \"--CODEGEN--\":5822:5827   */\n          dup2\n            /* \"--CODEGEN--\":5819:5854   */\n          eq\n            /* \"--CODEGEN--\":5809:5811   */\n          tag_102\n          jumpi\n            /* \"--CODEGEN--\":5868:5869   */\n          0x00\n            /* \"--CODEGEN--\":5865:5866   */\n          dup1\n            /* \"--CODEGEN--\":5858:5870   */\n          revert\n            /* \"--CODEGEN--\":5809:5811   */\n        tag_102:\n            /* \"--CODEGEN--\":5803:5877   */\n          pop\n          jump\t// out\n            /* \"--CODEGEN--\":5884:6001   */\n        tag_60:\n            /* \"--CODEGEN--\":5953:5977   */\n          tag_104\n            /* \"--CODEGEN--\":5971:5976   */\n          dup2\n            /* \"--CODEGEN--\":5953:5977   */\n          tag_79\n          jump\t// in\n        tag_104:\n            /* \"--CODEGEN--\":5946:5951   */\n          dup2\n            /* \"--CODEGEN--\":5943:5978   */\n          eq\n            /* \"--CODEGEN--\":5933:5935   */\n          tag_105\n          jumpi\n            /* \"--CODEGEN--\":5992:5993   */\n          0x00\n            /* \"--CODEGEN--\":5989:5990   */\n          dup1\n            /* \"--CODEGEN--\":5982:5994   */\n          revert\n            /* \"--CODEGEN--\":5933:5935   */\n        tag_105:\n            /* \"--CODEGEN--\":5927:6001   */\n          pop\n          jump\t// out\n            /* \"JLoansFactory.sol\":14378:16171  contract JLoanEthPair is JLoanCommons, IJLoanEthPair {\r... */\n        tag_22:\n          dataSize(sub_0)\n          dup1\n          dataOffset(sub_0)\n          0x00\n          codecopy\n          0x00\n          return\n        stop\n\n        sub_0: assembly {\n                /* \"JLoansFactory.sol\":14378:16171  contract JLoanEthPair is JLoanCommons, IJLoanEthPair {\r... */\n              mstore(0x40, 0x80)\n              jumpi(tag_1, lt(calldatasize, 0x04))\n              shr(0xe0, calldataload(0x00))\n              dup1\n              0x715018a6\n              gt\n              tag_28\n              jumpi\n              dup1\n              0xadc38b06\n              gt\n              tag_29\n              jumpi\n              dup1\n              0xe5acc187\n              gt\n              tag_30\n              jumpi\n              dup1\n              0xe5acc187\n              eq\n              tag_24\n              jumpi\n              dup1\n              0xeaf3a62e\n              eq\n              tag_25\n              jumpi\n              dup1\n              0xf1a9af89\n              eq\n              tag_26\n              jumpi\n              dup1\n              0xf2fde38b\n              eq\n              tag_27\n              jumpi\n              jump(tag_2)\n            tag_30:\n              dup1\n              0xadc38b06\n              eq\n              tag_21\n              jumpi\n              dup1\n              0xb2ca1805\n              eq\n              tag_22\n              jumpi\n              dup1\n              0xc6cb6770\n              eq\n              tag_23\n              jumpi\n              jump(tag_2)\n            tag_29:\n              dup1\n              0x715018a6\n              eq\n              tag_15\n              jumpi\n              dup1\n              0x80cc0269\n              eq\n              tag_16\n              jumpi\n              dup1\n              0x8a0dac21\n              eq\n              tag_17\n              jumpi\n              dup1\n              0x8da5cb5b\n              eq\n              tag_18\n              jumpi\n              dup1\n              0x94a83eeb\n              eq\n              tag_19\n              jumpi\n              dup1\n              0xa2df9b1f\n              eq\n              tag_20\n              jumpi\n              jump(tag_2)\n            tag_28:\n              dup1\n              0x2a3d7c81\n              gt\n              tag_31\n              jumpi\n              dup1\n              0x2a3d7c81\n              eq\n              tag_9\n              jumpi\n              dup1\n              0x3702e6cb\n              eq\n              tag_10\n              jumpi\n              dup1\n              0x44dc7fbc\n              eq\n              tag_11\n              jumpi\n              dup1\n              0x5dc334bf\n              eq\n              tag_12\n              jumpi\n              dup1\n              0x6f9fb98a\n              eq\n              tag_13\n              jumpi\n              dup1\n              0x708196ae\n              eq\n              tag_14\n              jumpi\n              jump(tag_2)\n            tag_31:\n              dup1\n              0x074ca966\n              eq\n              tag_3\n              jumpi\n              dup1\n              0x09e94d98\n              eq\n              tag_4\n              jumpi\n              dup1\n              0x0e031a94\n              eq\n              tag_5\n              jumpi\n              dup1\n              0x17634514\n              eq\n              tag_6\n              jumpi\n              dup1\n              0x1cbd8380\n              eq\n              tag_7\n              jumpi\n              dup1\n              0x25e16063\n              eq\n              tag_8\n              jumpi\n              jump(tag_2)\n            tag_1:\n              jumpi(tag_2, calldatasize)\n                /* \"JLoansFactory.sol\":15582:15616  EthReceived(msg.sender, msg.value) */\n              0x85177f287940f2f05425a4029951af0e047a7f9c4eaa9a6e6917bcd869f86695\n                /* \"JLoansFactory.sol\":15594:15604  msg.sender */\n              caller\n                /* \"JLoansFactory.sol\":15606:15615  msg.value */\n              callvalue\n                /* \"JLoansFactory.sol\":15582:15616  EthReceived(msg.sender, msg.value) */\n              mload(0x40)\n              tag_34\n              swap3\n              swap2\n              swap1\n              tag_35\n              jump\t// in\n            tag_34:\n              mload(0x40)\n              dup1\n              swap2\n              sub\n              swap1\n              log1\n                /* \"JLoansFactory.sol\":14378:16171  contract JLoanEthPair is JLoanCommons, IJLoanEthPair {\r... */\n              stop\n            tag_2:\n              0x00\n              dup1\n              revert\n                /* \"JLoansFactory.sol\":12050:12074  Status public loanStatus */\n            tag_3:\n              callvalue\n              dup1\n              iszero\n              tag_36\n              jumpi\n              0x00\n              dup1\n              revert\n            tag_36:\n              pop\n              tag_37\n              tag_38\n              jump\t// in\n            tag_37:\n              mload(0x40)\n              tag_39\n              swap2\n              swap1\n              tag_40\n              jump\t// in\n            tag_39:\n              mload(0x40)\n              dup1\n              swap2\n              sub\n              swap1\n              return\n                /* \"JLoansFactory.sol\":12019:12043  params public loanParams */\n            tag_4:\n              callvalue\n              dup1\n              iszero\n              tag_41\n              jumpi\n              0x00\n              dup1\n              revert\n            tag_41:\n              pop\n              tag_42\n              tag_43\n              jump\t// in\n            tag_42:\n              mload(0x40)\n              tag_44\n              swap7\n              swap6\n              swap5\n              swap4\n              swap3\n              swap2\n              swap1\n              tag_45\n              jump\t// in\n            tag_44:\n              mload(0x40)\n              dup1\n              swap2\n              sub\n              swap1\n              return\n                /* \"JLoansFactory.sol\":12118:12137  uint public rpbRate */\n            tag_5:\n              callvalue\n              dup1\n              iszero\n              tag_46\n              jumpi\n              0x00\n              dup1\n              revert\n            tag_46:\n              pop\n              tag_47\n              tag_48\n              jump\t// in\n            tag_47:\n              mload(0x40)\n              tag_49\n              swap2\n              swap1\n              tag_50\n              jump\t// in\n            tag_49:\n              mload(0x40)\n              dup1\n              swap2\n              sub\n              swap1\n              return\n                /* \"JLoansFactory.sol\":12214:12239  uint public creationBlock */\n            tag_6:\n              callvalue\n              dup1\n              iszero\n              tag_51\n              jumpi\n              0x00\n              dup1\n              revert\n            tag_51:\n              pop\n              tag_52\n              tag_53\n              jump\t// in\n            tag_52:\n              mload(0x40)\n              tag_54\n              swap2\n              swap1\n              tag_50\n              jump\t// in\n            tag_54:\n              mload(0x40)\n              dup1\n              swap2\n              sub\n              swap1\n              return\n                /* \"JLoansFactory.sol\":12356:12383  uint public borrowerBalance */\n            tag_7:\n              callvalue\n              dup1\n              iszero\n              tag_55\n              jumpi\n              0x00\n              dup1\n              revert\n            tag_55:\n              pop\n              tag_56\n              tag_57\n              jump\t// in\n            tag_56:\n              mload(0x40)\n              tag_58\n              swap2\n              swap1\n              tag_50\n              jump\t// in\n            tag_58:\n              mload(0x40)\n              dup1\n              swap2\n              sub\n              swap1\n              return\n                /* \"JLoansFactory.sol\":15632:15866  function withdrawEth(address payable _to) override public payable onlyOwner {\r... */\n            tag_8:\n              tag_59\n              0x04\n              dup1\n              calldatasize\n              sub\n              dup2\n              add\n              swap1\n              tag_60\n              swap2\n              swap1\n              tag_61\n              jump\t// in\n            tag_60:\n              tag_62\n              jump\t// in\n            tag_59:\n              stop\n                /* \"JLoansFactory.sol\":12246:12274  uint public lastDepositBlock */\n            tag_9:\n              callvalue\n              dup1\n              iszero\n              tag_63\n              jumpi\n              0x00\n              dup1\n              revert\n            tag_63:\n              pop\n              tag_64\n              tag_65\n              jump\t// in\n            tag_64:\n              mload(0x40)\n              tag_66\n              swap2\n              swap1\n              tag_50\n              jump\t// in\n            tag_66:\n              mload(0x40)\n              dup1\n              swap2\n              sub\n              swap1\n              return\n                /* \"JLoansFactory.sol\":14474:14510  address public stableContractAddress */\n            tag_10:\n              callvalue\n              dup1\n              iszero\n              tag_67\n              jumpi\n              0x00\n              dup1\n              revert\n            tag_67:\n              pop\n              tag_68\n              tag_69\n              jump\t// in\n            tag_68:\n              mload(0x40)\n              tag_70\n              swap2\n              swap1\n              tag_71\n              jump\t// in\n            tag_70:\n              mload(0x40)\n              dup1\n              swap2\n              sub\n              swap1\n              return\n                /* \"JLoansFactory.sol\":14617:14647  IERC20 public cryptoFromLender */\n            tag_11:\n              callvalue\n              dup1\n              iszero\n              tag_72\n              jumpi\n              0x00\n              dup1\n              revert\n            tag_72:\n              pop\n              tag_73\n              tag_74\n              jump\t// in\n            tag_73:\n              mload(0x40)\n              tag_75\n              swap2\n              swap1\n              tag_76\n              jump\t// in\n            tag_75:\n              mload(0x40)\n              dup1\n              swap2\n              sub\n              swap1\n              return\n                /* \"JLoansFactory.sol\":13220:13503  function lenderAcceptance(address _lenderAddress) override external onlyOwner{\r... */\n            tag_12:\n              callvalue\n              dup1\n              iszero\n              tag_77\n              jumpi\n              0x00\n              dup1\n              revert\n            tag_77:\n              pop\n              tag_78\n              0x04\n              dup1\n              calldatasize\n              sub\n              dup2\n              add\n              swap1\n              tag_79\n              swap2\n              swap1\n              tag_80\n              jump\t// in\n            tag_79:\n              tag_81\n              jump\t// in\n            tag_78:\n              stop\n                /* \"JLoansFactory.sol\":15874:16166  function getContractBalance() override external view returns (uint) {\r... */\n            tag_13:\n              callvalue\n              dup1\n              iszero\n              tag_82\n              jumpi\n              0x00\n              dup1\n              revert\n            tag_82:\n              pop\n              tag_83\n              tag_84\n              jump\t// in\n            tag_83:\n              mload(0x40)\n              tag_85\n              swap2\n              swap1\n              tag_50\n              jump\t// in\n            tag_85:\n              mload(0x40)\n              dup1\n              swap2\n              sub\n              swap1\n              return\n                /* \"JLoansFactory.sol\":13906:14201  function setNewStatus(uint _newStatus) override public onlyFactory {\r... */\n            tag_14:\n              callvalue\n              dup1\n              iszero\n              tag_86\n              jumpi\n              0x00\n              dup1\n              revert\n            tag_86:\n              pop\n              tag_87\n              0x04\n              dup1\n              calldatasize\n              sub\n              dup2\n              add\n              swap1\n              tag_88\n              swap2\n              swap1\n              tag_89\n              jump\t// in\n            tag_88:\n              tag_90\n              jump\t// in\n            tag_87:\n              stop\n                /* \"JLoansFactory.sol\":7953:8101  function renounceOwnership() public virtual onlyOwner {\r... */\n            tag_15:\n              callvalue\n              dup1\n              iszero\n              tag_91\n              jumpi\n              0x00\n              dup1\n              revert\n            tag_91:\n              pop\n              tag_92\n              tag_93\n              jump\t// in\n            tag_92:\n              stop\n                /* \"JLoansFactory.sol\":12087:12109  string public loanName */\n            tag_16:\n              callvalue\n              dup1\n              iszero\n              tag_94\n              jumpi\n              0x00\n              dup1\n              revert\n            tag_94:\n              pop\n              tag_95\n              tag_96\n              jump\t// in\n            tag_95:\n              mload(0x40)\n              tag_97\n              swap2\n              swap1\n              tag_98\n              jump\t// in\n            tag_97:\n              mload(0x40)\n              dup1\n              swap2\n              sub\n              swap1\n              return\n                /* \"JLoansFactory.sol\":12315:12347  uint public loanForeclosureBlock */\n            tag_17:\n              callvalue\n              dup1\n              iszero\n              tag_99\n              jumpi\n              0x00\n              dup1\n              revert\n            tag_99:\n              pop\n              tag_100\n              tag_101\n              jump\t// in\n            tag_100:\n              mload(0x40)\n              tag_102\n              swap2\n              swap1\n              tag_50\n              jump\t// in\n            tag_102:\n              mload(0x40)\n              dup1\n              swap2\n              sub\n              swap1\n              return\n                /* \"JLoansFactory.sol\":7311:7390  function owner() public view returns (address) {\r... */\n            tag_18:\n              callvalue\n              dup1\n              iszero\n              tag_103\n              jumpi\n              0x00\n              dup1\n              revert\n            tag_103:\n              pop\n              tag_104\n              tag_105\n              jump\t// in\n            tag_104:\n              mload(0x40)\n              tag_106\n              swap2\n              swap1\n              tag_71\n              jump\t// in\n            tag_106:\n              mload(0x40)\n              dup1\n              swap2\n              sub\n              swap1\n              return\n                /* \"JLoansFactory.sol\":13511:13764  function loanForeClosure() override external onlyOwner {\r... */\n            tag_19:\n              callvalue\n              dup1\n              iszero\n              tag_107\n              jumpi\n              0x00\n              dup1\n              revert\n            tag_107:\n              pop\n              tag_108\n              tag_109\n              jump\t// in\n            tag_108:\n              stop\n                /* \"JLoansFactory.sol\":12173:12205  uint public startCollateralRatio */\n            tag_20:\n              callvalue\n              dup1\n              iszero\n              tag_110\n              jumpi\n              0x00\n              dup1\n              revert\n            tag_110:\n              pop\n              tag_111\n              tag_112\n              jump\t// in\n            tag_111:\n              mload(0x40)\n              tag_113\n              swap2\n              swap1\n              tag_50\n              jump\t// in\n            tag_113:\n              mload(0x40)\n              dup1\n              swap2\n              sub\n              swap1\n              return\n                /* \"JLoansFactory.sol\":14523:14557  string public chosenBorrowedCrypto */\n            tag_21:\n              callvalue\n              dup1\n              iszero\n              tag_114\n              jumpi\n              0x00\n              dup1\n              revert\n            tag_114:\n              pop\n              tag_115\n              tag_116\n              jump\t// in\n            tag_115:\n              mload(0x40)\n              tag_117\n              swap2\n              swap1\n              tag_98\n              jump\t// in\n            tag_117:\n              mload(0x40)\n              dup1\n              swap2\n              sub\n              swap1\n              return\n                /* \"JLoansFactory.sol\":12281:12308  uint public loanActiveBlock */\n            tag_22:\n              callvalue\n              dup1\n              iszero\n              tag_118\n              jumpi\n              0x00\n              dup1\n              revert\n            tag_118:\n              pop\n              tag_119\n              tag_120\n              jump\t// in\n            tag_119:\n              mload(0x40)\n              tag_121\n              swap2\n              swap1\n              tag_50\n              jump\t// in\n            tag_121:\n              mload(0x40)\n              dup1\n              swap2\n              sub\n              swap1\n              return\n                /* \"JLoansFactory.sol\":13772:13898  function setNewParams(params memory _newLoanParams) override public onlyFactory {\r... */\n            tag_23:\n              callvalue\n              dup1\n              iszero\n              tag_122\n              jumpi\n              0x00\n              dup1\n              revert\n            tag_122:\n              pop\n              tag_123\n              0x04\n              dup1\n              calldatasize\n              sub\n              dup2\n              add\n              swap1\n              tag_124\n              swap2\n              swap1\n              tag_125\n              jump\t// in\n            tag_124:\n              tag_126\n              jump\t// in\n            tag_123:\n              stop\n                /* \"JLoansFactory.sol\":14579:14608  uint public askedBorrowAmount */\n            tag_24:\n              callvalue\n              dup1\n              iszero\n              tag_127\n              jumpi\n              0x00\n              dup1\n              revert\n            tag_127:\n              pop\n              tag_128\n              tag_129\n              jump\t// in\n            tag_128:\n              mload(0x40)\n              tag_130\n              swap2\n              swap1\n              tag_50\n              jump\t// in\n            tag_130:\n              mload(0x40)\n              dup1\n              swap2\n              sub\n              swap1\n              return\n                /* \"JLoansFactory.sol\":12390:12415  uint public lenderBalance */\n            tag_25:\n              callvalue\n              dup1\n              iszero\n              tag_131\n              jumpi\n              0x00\n              dup1\n              revert\n            tag_131:\n              pop\n              tag_132\n              tag_133\n              jump\t// in\n            tag_132:\n              mload(0x40)\n              tag_134\n              swap2\n              swap1\n              tag_50\n              jump\t// in\n            tag_134:\n              mload(0x40)\n              dup1\n              swap2\n              sub\n              swap1\n              return\n                /* \"JLoansFactory.sol\":12144:12166  uint public startPrice */\n            tag_26:\n              callvalue\n              dup1\n              iszero\n              tag_135\n              jumpi\n              0x00\n              dup1\n              revert\n            tag_135:\n              pop\n              tag_136\n              tag_137\n              jump\t// in\n            tag_136:\n              mload(0x40)\n              tag_138\n              swap2\n              swap1\n              tag_50\n              jump\t// in\n            tag_138:\n              mload(0x40)\n              dup1\n              swap2\n              sub\n              swap1\n              return\n                /* \"JLoansFactory.sol\":8256:8500  function transferOwnership(address newOwner) public virtual onlyOwner {\r... */\n            tag_27:\n              callvalue\n              dup1\n              iszero\n              tag_139\n              jumpi\n              0x00\n              dup1\n              revert\n            tag_139:\n              pop\n              tag_140\n              0x04\n              dup1\n              calldatasize\n              sub\n              dup2\n              add\n              swap1\n              tag_141\n              swap2\n              swap1\n              tag_80\n              jump\t// in\n            tag_141:\n              tag_142\n              jump\t// in\n            tag_140:\n              stop\n                /* \"JLoansFactory.sol\":12050:12074  Status public loanStatus */\n            tag_38:\n              0x07\n              0x00\n              swap1\n              sload\n              swap1\n              0x0100\n              exp\n              swap1\n              div\n              0xff\n              and\n              dup2\n              jump\t// out\n                /* \"JLoansFactory.sol\":12019:12043  params public loanParams */\n            tag_43:\n              0x01\n              dup1\n              0x00\n              add\n              sload\n              swap1\n              dup1\n              0x01\n              add\n              sload\n              swap1\n              dup1\n              0x02\n              add\n              sload\n              swap1\n              dup1\n              0x03\n              add\n              sload\n              swap1\n              dup1\n              0x04\n              add\n              sload\n              swap1\n              dup1\n              0x05\n              add\n              sload\n              swap1\n              pop\n              dup7\n              jump\t// out\n                /* \"JLoansFactory.sol\":12118:12137  uint public rpbRate */\n            tag_48:\n              sload(0x09)\n              dup2\n              jump\t// out\n                /* \"JLoansFactory.sol\":12214:12239  uint public creationBlock */\n            tag_53:\n              sload(0x0c)\n              dup2\n              jump\t// out\n                /* \"JLoansFactory.sol\":12356:12383  uint public borrowerBalance */\n            tag_57:\n              sload(0x10)\n              dup2\n              jump\t// out\n                /* \"JLoansFactory.sol\":15632:15866  function withdrawEth(address payable _to) override public payable onlyOwner {\r... */\n            tag_62:\n                /* \"JLoansFactory.sol\":7533:7545  _msgSender() */\n              tag_144\n                /* \"JLoansFactory.sol\":7533:7543  _msgSender */\n              tag_145\n                /* \"JLoansFactory.sol\":7533:7545  _msgSender() */\n              jump\t// in\n            tag_144:\n                /* \"JLoansFactory.sol\":7523:7545  _owner == _msgSender() */\n              0xffffffffffffffffffffffffffffffffffffffff\n              and\n                /* \"JLoansFactory.sol\":7523:7529  _owner */\n              0x00\n              dup1\n              sload\n              swap1\n              0x0100\n              exp\n              swap1\n              div\n              0xffffffffffffffffffffffffffffffffffffffff\n              and\n                /* \"JLoansFactory.sol\":7523:7545  _owner == _msgSender() */\n              0xffffffffffffffffffffffffffffffffffffffff\n              and\n              eq\n                /* \"JLoansFactory.sol\":7515:7582  require(_owner == _msgSender(), \"Ownable: caller is not the owner\") */\n              tag_146\n              jumpi\n              mload(0x40)\n              0x08c379a000000000000000000000000000000000000000000000000000000000\n              dup2\n              mstore\n              0x04\n              add\n              tag_147\n              swap1\n              tag_148\n              jump\t// in\n            tag_147:\n              mload(0x40)\n              dup1\n              swap2\n              sub\n              swap1\n              revert\n            tag_146:\n                /* \"JLoansFactory.sol\":15741:15755  Status.closing */\n              0x03\n                /* \"JLoansFactory.sol\":15727:15755  loanStatus == Status.closing */\n              0x04\n              dup2\n              gt\n              iszero\n              tag_150\n              jumpi\n              invalid\n            tag_150:\n                /* \"JLoansFactory.sol\":15727:15737  loanStatus */\n              0x07\n              0x00\n              swap1\n              sload\n              swap1\n              0x0100\n              exp\n              swap1\n              div\n              0xff\n              and\n                /* \"JLoansFactory.sol\":15727:15755  loanStatus == Status.closing */\n              0x04\n              dup2\n              gt\n              iszero\n              tag_151\n              jumpi\n              invalid\n            tag_151:\n              eq\n                /* \"JLoansFactory.sol\":15719:15812  require(loanStatus == Status.closing, \"Loan status not compatible with foreclosing actions\" ) */\n              tag_152\n              jumpi\n              mload(0x40)\n              0x08c379a000000000000000000000000000000000000000000000000000000000\n              dup2\n              mstore\n              0x04\n              add\n              tag_153\n              swap1\n              tag_154\n              jump\t// in\n            tag_153:\n              mload(0x40)\n              dup1\n              swap2\n              sub\n              swap1\n              revert\n            tag_152:\n                /* \"JLoansFactory.sol\":15823:15826  _to */\n              dup1\n                /* \"JLoansFactory.sol\":15823:15835  _to.transfer */\n              0xffffffffffffffffffffffffffffffffffffffff\n              and\n                /* \"JLoansFactory.sol\":15823:15858  _to.transfer(address(this).balance) */\n              0x08fc\n                /* \"JLoansFactory.sol\":15836:15857  address(this).balance */\n              selfbalance\n                /* \"JLoansFactory.sol\":15823:15858  _to.transfer(address(this).balance) */\n              swap1\n              dup2\n              iszero\n              mul\n              swap1\n              mload(0x40)\n              0x00\n              mload(0x40)\n              dup1\n              dup4\n              sub\n              dup2\n              dup6\n              dup9\n              dup9\n              call\n              swap4\n              pop\n              pop\n              pop\n              pop\n              iszero\n              dup1\n              iszero\n              tag_156\n              jumpi\n              returndatasize\n              0x00\n              dup1\n              returndatacopy\n              revert(0x00, returndatasize)\n            tag_156:\n              pop\n                /* \"JLoansFactory.sol\":15632:15866  function withdrawEth(address payable _to) override public payable onlyOwner {\r... */\n              pop\n              jump\t// out\n                /* \"JLoansFactory.sol\":12246:12274  uint public lastDepositBlock */\n            tag_65:\n              sload(0x0d)\n              dup2\n              jump\t// out\n                /* \"JLoansFactory.sol\":14474:14510  address public stableContractAddress */\n            tag_69:\n              0x13\n              0x00\n              swap1\n              sload\n              swap1\n              0x0100\n              exp\n              swap1\n              div\n              0xffffffffffffffffffffffffffffffffffffffff\n              and\n              dup2\n              jump\t// out\n                /* \"JLoansFactory.sol\":14617:14647  IERC20 public cryptoFromLender */\n            tag_74:\n              0x16\n              0x00\n              swap1\n              sload\n              swap1\n              0x0100\n              exp\n              swap1\n              div\n              0xffffffffffffffffffffffffffffffffffffffff\n              and\n              dup2\n              jump\t// out\n                /* \"JLoansFactory.sol\":13220:13503  function lenderAcceptance(address _lenderAddress) override external onlyOwner{\r... */\n            tag_81:\n                /* \"JLoansFactory.sol\":7533:7545  _msgSender() */\n              tag_158\n                /* \"JLoansFactory.sol\":7533:7543  _msgSender */\n              tag_145\n                /* \"JLoansFactory.sol\":7533:7545  _msgSender() */\n              jump\t// in\n            tag_158:\n                /* \"JLoansFactory.sol\":7523:7545  _owner == _msgSender() */\n              0xffffffffffffffffffffffffffffffffffffffff\n              and\n                /* \"JLoansFactory.sol\":7523:7529  _owner */\n              0x00\n              dup1\n              sload\n              swap1\n              0x0100\n              exp\n              swap1\n              div\n              0xffffffffffffffffffffffffffffffffffffffff\n              and\n                /* \"JLoansFactory.sol\":7523:7545  _owner == _msgSender() */\n              0xffffffffffffffffffffffffffffffffffffffff\n              and\n              eq\n                /* \"JLoansFactory.sol\":7515:7582  require(_owner == _msgSender(), \"Ownable: caller is not the owner\") */\n              tag_159\n              jumpi\n              mload(0x40)\n              0x08c379a000000000000000000000000000000000000000000000000000000000\n              dup2\n              mstore\n              0x04\n              add\n              tag_160\n              swap1\n              tag_148\n              jump\t// in\n            tag_160:\n              mload(0x40)\n              dup1\n              swap2\n              sub\n              swap1\n              revert\n            tag_159:\n                /* \"JLoansFactory.sol\":13342:13343  0 */\n              0x00\n                /* \"JLoansFactory.sol\":13316:13344  _lenderAddress != address(0) */\n              0xffffffffffffffffffffffffffffffffffffffff\n              and\n                /* \"JLoansFactory.sol\":13316:13330  _lenderAddress */\n              dup2\n                /* \"JLoansFactory.sol\":13316:13344  _lenderAddress != address(0) */\n              0xffffffffffffffffffffffffffffffffffffffff\n              and\n              eq\n              iszero\n                /* \"JLoansFactory.sol\":13308:13368  require(_lenderAddress != address(0), \"Address not allowed\") */\n              tag_162\n              jumpi\n              mload(0x40)\n              0x08c379a000000000000000000000000000000000000000000000000000000000\n              dup2\n              mstore\n              0x04\n              add\n              tag_163\n              swap1\n              tag_164\n              jump\t// in\n            tag_163:\n              mload(0x40)\n              dup1\n              swap2\n              sub\n              swap1\n              revert\n            tag_162:\n                /* \"JLoansFactory.sol\":13379:13383  this */\n              address\n                /* \"JLoansFactory.sol\":13379:13401  this.transferOwnership */\n              0xffffffffffffffffffffffffffffffffffffffff\n              and\n              0xf2fde38b\n                /* \"JLoansFactory.sol\":13402:13416  _lenderAddress */\n              dup3\n                /* \"JLoansFactory.sol\":13379:13417  this.transferOwnership(_lenderAddress) */\n              mload(0x40)\n              dup3\n              0xffffffff\n              and\n              0xe0\n              shl\n              dup2\n              mstore\n              0x04\n              add\n              tag_165\n              swap2\n              swap1\n              tag_71\n              jump\t// in\n            tag_165:\n              0x00\n              mload(0x40)\n              dup1\n              dup4\n              sub\n              dup2\n              0x00\n              dup8\n              dup1\n              extcodesize\n              iszero\n              dup1\n              iszero\n              tag_166\n              jumpi\n              0x00\n              dup1\n              revert\n            tag_166:\n              pop\n              gas\n              call\n              iszero\n              dup1\n              iszero\n              tag_168\n              jumpi\n              returndatasize\n              0x00\n              dup1\n              returndatacopy\n              revert(0x00, returndatasize)\n            tag_168:\n              pop\n              pop\n              pop\n              pop\n                /* \"JLoansFactory.sol\":13446:13458  block.number */\n              number\n                /* \"JLoansFactory.sol\":13428:13443  loanActiveBlock */\n              0x0e\n                /* \"JLoansFactory.sol\":13428:13458  loanActiveBlock = block.number */\n              dup2\n              swap1\n              sstore\n              pop\n                /* \"JLoansFactory.sol\":13482:13495  Status.active */\n              0x01\n                /* \"JLoansFactory.sol\":13469:13479  loanStatus */\n              0x07\n              0x00\n                /* \"JLoansFactory.sol\":13469:13495  loanStatus = Status.active */\n              0x0100\n              exp\n              dup2\n              sload\n              dup2\n              0xff\n              mul\n              not\n              and\n              swap1\n              dup4\n              0x04\n              dup2\n              gt\n              iszero\n              tag_169\n              jumpi\n              invalid\n            tag_169:\n              mul\n              or\n              swap1\n              sstore\n              pop\n                /* \"JLoansFactory.sol\":13220:13503  function lenderAcceptance(address _lenderAddress) override external onlyOwner{\r... */\n              pop\n              jump\t// out\n                /* \"JLoansFactory.sol\":15874:16166  function getContractBalance() override external view returns (uint) {\r... */\n            tag_84:\n                /* \"JLoansFactory.sol\":15936:15940  uint */\n              0x00\n                /* \"JLoansFactory.sol\":16021:16045  abi.encodePacked(\"EURS\") */\n              add(0x20, mload(0x40))\n              tag_171\n              swap1\n              tag_172\n              jump\t// in\n            tag_171:\n              mload(0x40)\n              0x20\n              dup2\n              dup4\n              sub\n              sub\n              dup2\n              mstore\n              swap1\n              0x40\n              mstore\n                /* \"JLoansFactory.sol\":16011:16046  keccak256(abi.encodePacked(\"EURS\")) */\n              dup1\n              mload\n              swap1\n              0x20\n              add\n              keccak256\n                /* \"JLoansFactory.sol\":15985:16005  chosenBorrowedCrypto */\n              0x14\n                /* \"JLoansFactory.sol\":15968:16006  abi.encodePacked(chosenBorrowedCrypto) */\n              add(0x20, mload(0x40))\n              tag_173\n              swap2\n              swap1\n              tag_174\n              jump\t// in\n            tag_173:\n              mload(0x40)\n              0x20\n              dup2\n              dup4\n              sub\n              sub\n              dup2\n              mstore\n              swap1\n              0x40\n              mstore\n                /* \"JLoansFactory.sol\":15958:16007  keccak256(abi.encodePacked(chosenBorrowedCrypto)) */\n              dup1\n              mload\n              swap1\n              0x20\n              add\n              keccak256\n                /* \"JLoansFactory.sol\":15958:16046  keccak256(abi.encodePacked(chosenBorrowedCrypto)) == keccak256(abi.encodePacked(\"EURS\")) */\n              eq\n                /* \"JLoansFactory.sol\":15953:16159  if ( keccak256(abi.encodePacked(chosenBorrowedCrypto)) == keccak256(abi.encodePacked(\"EURS\")) ) {\r... */\n              iszero\n              tag_175\n              jumpi\n                /* \"JLoansFactory.sol\":16071:16086  borrowerBalance */\n              sload(0x10)\n                /* \"JLoansFactory.sol\":16064:16086  return borrowerBalance */\n              swap1\n              pop\n              jump(tag_170)\n                /* \"JLoansFactory.sol\":15953:16159  if ( keccak256(abi.encodePacked(chosenBorrowedCrypto)) == keccak256(abi.encodePacked(\"EURS\")) ) {\r... */\n            tag_175:\n                /* \"JLoansFactory.sol\":16126:16147  address(this).balance */\n              selfbalance\n                /* \"JLoansFactory.sol\":16119:16147  return address(this).balance */\n              swap1\n              pop\n                /* \"JLoansFactory.sol\":15874:16166  function getContractBalance() override external view returns (uint) {\r... */\n            tag_170:\n              swap1\n              jump\t// out\n                /* \"JLoansFactory.sol\":13906:14201  function setNewStatus(uint _newStatus) override public onlyFactory {\r... */\n            tag_90:\n                /* \"JLoansFactory.sol\":13154:13168  factoryAddress */\n              0x12\n              0x00\n              swap1\n              sload\n              swap1\n              0x0100\n              exp\n              swap1\n              div\n              0xffffffffffffffffffffffffffffffffffffffff\n              and\n                /* \"JLoansFactory.sol\":13140:13168  msg.sender == factoryAddress */\n              0xffffffffffffffffffffffffffffffffffffffff\n              and\n                /* \"JLoansFactory.sol\":13140:13150  msg.sender */\n              caller\n                /* \"JLoansFactory.sol\":13140:13168  msg.sender == factoryAddress */\n              0xffffffffffffffffffffffffffffffffffffffff\n              and\n              eq\n                /* \"JLoansFactory.sol\":13132:13192  require(msg.sender == factoryAddress, \"Address not allowed\") */\n              tag_178\n              jumpi\n              mload(0x40)\n              0x08c379a000000000000000000000000000000000000000000000000000000000\n              dup2\n              mstore\n              0x04\n              add\n              tag_179\n              swap1\n              tag_164\n              jump\t// in\n            tag_179:\n              mload(0x40)\n              dup1\n              swap2\n              sub\n              swap1\n              revert\n            tag_178:\n                /* \"JLoansFactory.sol\":14006:14007  0 */\n              0x00\n                /* \"JLoansFactory.sol\":13992:14002  _newStatus */\n              dup2\n                /* \"JLoansFactory.sol\":13992:14007  _newStatus >= 0 */\n              lt\n              iszero\n                /* \"JLoansFactory.sol\":13992:14026  _newStatus >= 0 && _newStatus <= 4 */\n              dup1\n              iszero\n              tag_181\n              jumpi\n              pop\n                /* \"JLoansFactory.sol\":14025:14026  4 */\n              0x04\n                /* \"JLoansFactory.sol\":14011:14021  _newStatus */\n              dup2\n                /* \"JLoansFactory.sol\":14011:14026  _newStatus <= 4 */\n              gt\n              iszero\n                /* \"JLoansFactory.sol\":13992:14026  _newStatus >= 0 && _newStatus <= 4 */\n            tag_181:\n                /* \"JLoansFactory.sol\":13984:14050  require(_newStatus >= 0 && _newStatus <= 4, \"New state not valid\") */\n              tag_182\n              jumpi\n              mload(0x40)\n              0x08c379a000000000000000000000000000000000000000000000000000000000\n              dup2\n              mstore\n              0x04\n              add\n              tag_183\n              swap1\n              tag_184\n              jump\t// in\n            tag_183:\n              mload(0x40)\n              dup1\n              swap2\n              sub\n              swap1\n              revert\n            tag_182:\n                /* \"JLoansFactory.sol\":14095:14105  loanStatus */\n              0x07\n              0x00\n              swap1\n              sload\n              swap1\n              0x0100\n              exp\n              swap1\n              div\n              0xff\n              and\n                /* \"JLoansFactory.sol\":14083:14107  uint(Status(loanStatus)) */\n              0x04\n              dup2\n              gt\n              iszero\n              tag_185\n              jumpi\n              invalid\n            tag_185:\n                /* \"JLoansFactory.sol\":14069:14079  _newStatus */\n              dup2\n                /* \"JLoansFactory.sol\":14069:14107  _newStatus != uint(Status(loanStatus)) */\n              eq\n              iszero\n                /* \"JLoansFactory.sol\":14061:14151  require(_newStatus != uint(Status(loanStatus)), \"New status is the same like present one\") */\n              tag_186\n              jumpi\n              mload(0x40)\n              0x08c379a000000000000000000000000000000000000000000000000000000000\n              dup2\n              mstore\n              0x04\n              add\n              tag_187\n              swap1\n              tag_188\n              jump\t// in\n            tag_187:\n              mload(0x40)\n              dup1\n              swap2\n              sub\n              swap1\n              revert\n            tag_186:\n                /* \"JLoansFactory.sol\":14182:14192  _newStatus */\n              dup1\n                /* \"JLoansFactory.sol\":14175:14193  Status(_newStatus) */\n              0x04\n              dup2\n              gt\n              iszero\n              tag_189\n              jumpi\n              invalid\n            tag_189:\n                /* \"JLoansFactory.sol\":14162:14172  loanStatus */\n              0x07\n              0x00\n                /* \"JLoansFactory.sol\":14162:14193  loanStatus = Status(_newStatus) */\n              0x0100\n              exp\n              dup2\n              sload\n              dup2\n              0xff\n              mul\n              not\n              and\n              swap1\n              dup4\n              0x04\n              dup2\n              gt\n              iszero\n              tag_190\n              jumpi\n              invalid\n            tag_190:\n              mul\n              or\n              swap1\n              sstore\n              pop\n                /* \"JLoansFactory.sol\":13906:14201  function setNewStatus(uint _newStatus) override public onlyFactory {\r... */\n              pop\n              jump\t// out\n                /* \"JLoansFactory.sol\":7953:8101  function renounceOwnership() public virtual onlyOwner {\r... */\n            tag_93:\n                /* \"JLoansFactory.sol\":7533:7545  _msgSender() */\n              tag_192\n                /* \"JLoansFactory.sol\":7533:7543  _msgSender */\n              tag_145\n                /* \"JLoansFactory.sol\":7533:7545  _msgSender() */\n              jump\t// in\n            tag_192:\n                /* \"JLoansFactory.sol\":7523:7545  _owner == _msgSender() */\n              0xffffffffffffffffffffffffffffffffffffffff\n              and\n                /* \"JLoansFactory.sol\":7523:7529  _owner */\n              0x00\n              dup1\n              sload\n              swap1\n              0x0100\n              exp\n              swap1\n              div\n              0xffffffffffffffffffffffffffffffffffffffff\n              and\n                /* \"JLoansFactory.sol\":7523:7545  _owner == _msgSender() */\n              0xffffffffffffffffffffffffffffffffffffffff\n              and\n              eq\n                /* \"JLoansFactory.sol\":7515:7582  require(_owner == _msgSender(), \"Ownable: caller is not the owner\") */\n              tag_193\n              jumpi\n              mload(0x40)\n              0x08c379a000000000000000000000000000000000000000000000000000000000\n              dup2\n              mstore\n              0x04\n              add\n              tag_194\n              swap1\n              tag_148\n              jump\t// in\n            tag_194:\n              mload(0x40)\n              dup1\n              swap2\n              sub\n              swap1\n              revert\n            tag_193:\n                /* \"JLoansFactory.sol\":8060:8061  0 */\n              0x00\n                /* \"JLoansFactory.sol\":8023:8063  OwnershipTransferred(_owner, address(0)) */\n              0xffffffffffffffffffffffffffffffffffffffff\n              and\n                /* \"JLoansFactory.sol\":8044:8050  _owner */\n              0x00\n              dup1\n              sload\n              swap1\n              0x0100\n              exp\n              swap1\n              div\n              0xffffffffffffffffffffffffffffffffffffffff\n              and\n                /* \"JLoansFactory.sol\":8023:8063  OwnershipTransferred(_owner, address(0)) */\n              0xffffffffffffffffffffffffffffffffffffffff\n              and\n              0x8be0079c531659141344cd1fd0a4f28419497f9722a3daafe3b4186f6b6457e0\n              mload(0x40)\n              mload(0x40)\n              dup1\n              swap2\n              sub\n              swap1\n              log3\n                /* \"JLoansFactory.sol\":8091:8092  0 */\n              0x00\n                /* \"JLoansFactory.sol\":8074:8080  _owner */\n              dup1\n              0x00\n                /* \"JLoansFactory.sol\":8074:8093  _owner = address(0) */\n              0x0100\n              exp\n              dup2\n              sload\n              dup2\n              0xffffffffffffffffffffffffffffffffffffffff\n              mul\n              not\n              and\n              swap1\n              dup4\n              0xffffffffffffffffffffffffffffffffffffffff\n              and\n              mul\n              or\n              swap1\n              sstore\n              pop\n                /* \"JLoansFactory.sol\":7953:8101  function renounceOwnership() public virtual onlyOwner {\r... */\n              jump\t// out\n                /* \"JLoansFactory.sol\":12087:12109  string public loanName */\n            tag_96:\n              0x08\n              dup1\n              sload\n              0x01\n              dup2\n              0x01\n              and\n              iszero\n              0x0100\n              mul\n              sub\n              and\n              0x02\n              swap1\n              div\n              dup1\n              0x1f\n              add\n              0x20\n              dup1\n              swap2\n              div\n              mul\n              0x20\n              add\n              mload(0x40)\n              swap1\n              dup2\n              add\n              0x40\n              mstore\n              dup1\n              swap3\n              swap2\n              swap1\n              dup2\n              dup2\n              mstore\n              0x20\n              add\n              dup3\n              dup1\n              sload\n              0x01\n              dup2\n              0x01\n              and\n              iszero\n              0x0100\n              mul\n              sub\n              and\n              0x02\n              swap1\n              div\n              dup1\n              iszero\n              tag_196\n              jumpi\n              dup1\n              0x1f\n              lt\n              tag_197\n              jumpi\n              0x0100\n              dup1\n              dup4\n              sload\n              div\n              mul\n              dup4\n              mstore\n              swap2\n              0x20\n              add\n              swap2\n              jump(tag_196)\n            tag_197:\n              dup3\n              add\n              swap2\n              swap1\n              0x00\n              mstore\n              keccak256(0x00, 0x20)\n              swap1\n            tag_198:\n              dup2\n              sload\n              dup2\n              mstore\n              swap1\n              0x01\n              add\n              swap1\n              0x20\n              add\n              dup1\n              dup4\n              gt\n              tag_198\n              jumpi\n              dup3\n              swap1\n              sub\n              0x1f\n              and\n              dup3\n              add\n              swap2\n            tag_196:\n              pop\n              pop\n              pop\n              pop\n              pop\n              dup2\n              jump\t// out\n                /* \"JLoansFactory.sol\":12315:12347  uint public loanForeclosureBlock */\n            tag_101:\n              sload(0x0f)\n              dup2\n              jump\t// out\n                /* \"JLoansFactory.sol\":7311:7390  function owner() public view returns (address) {\r... */\n            tag_105:\n                /* \"JLoansFactory.sol\":7349:7356  address */\n              0x00\n                /* \"JLoansFactory.sol\":7376:7382  _owner */\n              dup1\n              0x00\n              swap1\n              sload\n              swap1\n              0x0100\n              exp\n              swap1\n              div\n              0xffffffffffffffffffffffffffffffffffffffff\n              and\n                /* \"JLoansFactory.sol\":7369:7382  return _owner */\n              swap1\n              pop\n                /* \"JLoansFactory.sol\":7311:7390  function owner() public view returns (address) {\r... */\n              swap1\n              jump\t// out\n                /* \"JLoansFactory.sol\":13511:13764  function loanForeClosure() override external onlyOwner {\r... */\n            tag_109:\n                /* \"JLoansFactory.sol\":7533:7545  _msgSender() */\n              tag_201\n                /* \"JLoansFactory.sol\":7533:7543  _msgSender */\n              tag_145\n                /* \"JLoansFactory.sol\":7533:7545  _msgSender() */\n              jump\t// in\n            tag_201:\n                /* \"JLoansFactory.sol\":7523:7545  _owner == _msgSender() */\n              0xffffffffffffffffffffffffffffffffffffffff\n              and\n                /* \"JLoansFactory.sol\":7523:7529  _owner */\n              0x00\n              dup1\n              sload\n              swap1\n              0x0100\n              exp\n              swap1\n              div\n              0xffffffffffffffffffffffffffffffffffffffff\n              and\n                /* \"JLoansFactory.sol\":7523:7545  _owner == _msgSender() */\n              0xffffffffffffffffffffffffffffffffffffffff\n              and\n              eq\n                /* \"JLoansFactory.sol\":7515:7582  require(_owner == _msgSender(), \"Ownable: caller is not the owner\") */\n              tag_202\n              jumpi\n              mload(0x40)\n              0x08c379a000000000000000000000000000000000000000000000000000000000\n              dup2\n              mstore\n              0x04\n              add\n              tag_203\n              swap1\n              tag_148\n              jump\t// in\n            tag_203:\n              mload(0x40)\n              dup1\n              swap2\n              sub\n              swap1\n              revert\n            tag_202:\n                /* \"JLoansFactory.sol\":13599:13612  Status.active */\n              0x01\n                /* \"JLoansFactory.sol\":13585:13612  loanStatus == Status.active */\n              0x04\n              dup2\n              gt\n              iszero\n              tag_205\n              jumpi\n              invalid\n            tag_205:\n                /* \"JLoansFactory.sol\":13585:13595  loanStatus */\n              0x07\n              0x00\n              swap1\n              sload\n              swap1\n              0x0100\n              exp\n              swap1\n              div\n              0xff\n              and\n                /* \"JLoansFactory.sol\":13585:13612  loanStatus == Status.active */\n              0x04\n              dup2\n              gt\n              iszero\n              tag_206\n              jumpi\n              invalid\n            tag_206:\n              eq\n                /* \"JLoansFactory.sol\":13577:13668  require(loanStatus == Status.active, \"Loan status not compatible with foreclosing actions\") */\n              tag_207\n              jumpi\n              mload(0x40)\n              0x08c379a000000000000000000000000000000000000000000000000000000000\n              dup2\n              mstore\n              0x04\n              add\n              tag_208\n              swap1\n              tag_154\n              jump\t// in\n            tag_208:\n              mload(0x40)\n              dup1\n              swap2\n              sub\n              swap1\n              revert\n            tag_207:\n                /* \"JLoansFactory.sol\":13702:13714  block.number */\n              number\n                /* \"JLoansFactory.sol\":13679:13699  loanForeclosureBlock */\n              0x0f\n                /* \"JLoansFactory.sol\":13679:13714  loanForeclosureBlock = block.number */\n              dup2\n              swap1\n              sstore\n              pop\n                /* \"JLoansFactory.sol\":13738:13756  Status.foreclosing */\n              0x02\n                /* \"JLoansFactory.sol\":13725:13735  loanStatus */\n              0x07\n              0x00\n                /* \"JLoansFactory.sol\":13725:13756  loanStatus = Status.foreclosing */\n              0x0100\n              exp\n              dup2\n              sload\n              dup2\n              0xff\n              mul\n              not\n              and\n              swap1\n              dup4\n              0x04\n              dup2\n              gt\n              iszero\n              tag_209\n              jumpi\n              invalid\n            tag_209:\n              mul\n              or\n              swap1\n              sstore\n              pop\n                /* \"JLoansFactory.sol\":13511:13764  function loanForeClosure() override external onlyOwner {\r... */\n              jump\t// out\n                /* \"JLoansFactory.sol\":12173:12205  uint public startCollateralRatio */\n            tag_112:\n              sload(0x0b)\n              dup2\n              jump\t// out\n                /* \"JLoansFactory.sol\":14523:14557  string public chosenBorrowedCrypto */\n            tag_116:\n              0x14\n              dup1\n              sload\n              0x01\n              dup2\n              0x01\n              and\n              iszero\n              0x0100\n              mul\n              sub\n              and\n              0x02\n              swap1\n              div\n              dup1\n              0x1f\n              add\n              0x20\n              dup1\n              swap2\n              div\n              mul\n              0x20\n              add\n              mload(0x40)\n              swap1\n              dup2\n              add\n              0x40\n              mstore\n              dup1\n              swap3\n              swap2\n              swap1\n              dup2\n              dup2\n              mstore\n              0x20\n              add\n              dup3\n              dup1\n              sload\n              0x01\n              dup2\n              0x01\n              and\n              iszero\n              0x0100\n              mul\n              sub\n              and\n              0x02\n              swap1\n              div\n              dup1\n              iszero\n              tag_210\n              jumpi\n              dup1\n              0x1f\n              lt\n              tag_211\n              jumpi\n              0x0100\n              dup1\n              dup4\n              sload\n              div\n              mul\n              dup4\n              mstore\n              swap2\n              0x20\n              add\n              swap2\n              jump(tag_210)\n            tag_211:\n              dup3\n              add\n              swap2\n              swap1\n              0x00\n              mstore\n              keccak256(0x00, 0x20)\n              swap1\n            tag_212:\n              dup2\n              sload\n              dup2\n              mstore\n              swap1\n              0x01\n              add\n              swap1\n              0x20\n              add\n              dup1\n              dup4\n              gt\n              tag_212\n              jumpi\n              dup3\n              swap1\n              sub\n              0x1f\n              and\n              dup3\n              add\n              swap2\n            tag_210:\n              pop\n              pop\n              pop\n              pop\n              pop\n              dup2\n              jump\t// out\n                /* \"JLoansFactory.sol\":12281:12308  uint public loanActiveBlock */\n            tag_120:\n              sload(0x0e)\n              dup2\n              jump\t// out\n                /* \"JLoansFactory.sol\":13772:13898  function setNewParams(params memory _newLoanParams) override public onlyFactory {\r... */\n            tag_126:\n                /* \"JLoansFactory.sol\":13154:13168  factoryAddress */\n              0x12\n              0x00\n              swap1\n              sload\n              swap1\n              0x0100\n              exp\n              swap1\n              div\n              0xffffffffffffffffffffffffffffffffffffffff\n              and\n                /* \"JLoansFactory.sol\":13140:13168  msg.sender == factoryAddress */\n              0xffffffffffffffffffffffffffffffffffffffff\n              and\n                /* \"JLoansFactory.sol\":13140:13150  msg.sender */\n              caller\n                /* \"JLoansFactory.sol\":13140:13168  msg.sender == factoryAddress */\n              0xffffffffffffffffffffffffffffffffffffffff\n              and\n              eq\n                /* \"JLoansFactory.sol\":13132:13192  require(msg.sender == factoryAddress, \"Address not allowed\") */\n              tag_214\n              jumpi\n              mload(0x40)\n              0x08c379a000000000000000000000000000000000000000000000000000000000\n              dup2\n              mstore\n              0x04\n              add\n              tag_215\n              swap1\n              tag_164\n              jump\t// in\n            tag_215:\n              mload(0x40)\n              dup1\n              swap2\n              sub\n              swap1\n              revert\n            tag_214:\n                /* \"JLoansFactory.sol\":13876:13890  _newLoanParams */\n              dup1\n                /* \"JLoansFactory.sol\":13863:13873  loanParams */\n              0x01\n                /* \"JLoansFactory.sol\":13863:13890  loanParams = _newLoanParams */\n              0x00\n              dup3\n              add\n              mload\n              dup2\n              0x00\n              add\n              sstore\n              0x20\n              dup3\n              add\n              mload\n              dup2\n              0x01\n              add\n              sstore\n              0x40\n              dup3\n              add\n              mload\n              dup2\n              0x02\n              add\n              sstore\n              0x60\n              dup3\n              add\n              mload\n              dup2\n              0x03\n              add\n              sstore\n              0x80\n              dup3\n              add\n              mload\n              dup2\n              0x04\n              add\n              sstore\n              0xa0\n              dup3\n              add\n              mload\n              dup2\n              0x05\n              add\n              sstore\n              swap1\n              pop\n              pop\n                /* \"JLoansFactory.sol\":13772:13898  function setNewParams(params memory _newLoanParams) override public onlyFactory {\r... */\n              pop\n              jump\t// out\n                /* \"JLoansFactory.sol\":14579:14608  uint public askedBorrowAmount */\n            tag_129:\n              sload(0x15)\n              dup2\n              jump\t// out\n                /* \"JLoansFactory.sol\":12390:12415  uint public lenderBalance */\n            tag_133:\n              sload(0x11)\n              dup2\n              jump\t// out\n                /* \"JLoansFactory.sol\":12144:12166  uint public startPrice */\n            tag_137:\n              sload(0x0a)\n              dup2\n              jump\t// out\n                /* \"JLoansFactory.sol\":8256:8500  function transferOwnership(address newOwner) public virtual onlyOwner {\r... */\n            tag_142:\n                /* \"JLoansFactory.sol\":7533:7545  _msgSender() */\n              tag_218\n                /* \"JLoansFactory.sol\":7533:7543  _msgSender */\n              tag_145\n                /* \"JLoansFactory.sol\":7533:7545  _msgSender() */\n              jump\t// in\n            tag_218:\n                /* \"JLoansFactory.sol\":7523:7545  _owner == _msgSender() */\n              0xffffffffffffffffffffffffffffffffffffffff\n              and\n                /* \"JLoansFactory.sol\":7523:7529  _owner */\n              0x00\n              dup1\n              sload\n              swap1\n              0x0100\n              exp\n              swap1\n              div\n              0xffffffffffffffffffffffffffffffffffffffff\n              and\n                /* \"JLoansFactory.sol\":7523:7545  _owner == _msgSender() */\n              0xffffffffffffffffffffffffffffffffffffffff\n              and\n              eq\n                /* \"JLoansFactory.sol\":7515:7582  require(_owner == _msgSender(), \"Ownable: caller is not the owner\") */\n              tag_219\n              jumpi\n              mload(0x40)\n              0x08c379a000000000000000000000000000000000000000000000000000000000\n              dup2\n              mstore\n              0x04\n              add\n              tag_220\n              swap1\n              tag_148\n              jump\t// in\n            tag_220:\n              mload(0x40)\n              dup1\n              swap2\n              sub\n              swap1\n              revert\n            tag_219:\n                /* \"JLoansFactory.sol\":8365:8366  0 */\n              0x00\n                /* \"JLoansFactory.sol\":8345:8367  newOwner != address(0) */\n              0xffffffffffffffffffffffffffffffffffffffff\n              and\n                /* \"JLoansFactory.sol\":8345:8353  newOwner */\n              dup2\n                /* \"JLoansFactory.sol\":8345:8367  newOwner != address(0) */\n              0xffffffffffffffffffffffffffffffffffffffff\n              and\n              eq\n              iszero\n                /* \"JLoansFactory.sol\":8337:8410  require(newOwner != address(0), \"Ownable: new owner is the zero address\") */\n              tag_222\n              jumpi\n              mload(0x40)\n              0x08c379a000000000000000000000000000000000000000000000000000000000\n              dup2\n              mstore\n              0x04\n              add\n              tag_223\n              swap1\n              tag_224\n              jump\t// in\n            tag_223:\n              mload(0x40)\n              dup1\n              swap2\n              sub\n              swap1\n              revert\n            tag_222:\n                /* \"JLoansFactory.sol\":8455:8463  newOwner */\n              dup1\n                /* \"JLoansFactory.sol\":8426:8464  OwnershipTransferred(_owner, newOwner) */\n              0xffffffffffffffffffffffffffffffffffffffff\n              and\n                /* \"JLoansFactory.sol\":8447:8453  _owner */\n              0x00\n              dup1\n              sload\n              swap1\n              0x0100\n              exp\n              swap1\n              div\n              0xffffffffffffffffffffffffffffffffffffffff\n              and\n                /* \"JLoansFactory.sol\":8426:8464  OwnershipTransferred(_owner, newOwner) */\n              0xffffffffffffffffffffffffffffffffffffffff\n              and\n              0x8be0079c531659141344cd1fd0a4f28419497f9722a3daafe3b4186f6b6457e0\n              mload(0x40)\n              mload(0x40)\n              dup1\n              swap2\n              sub\n              swap1\n              log3\n                /* \"JLoansFactory.sol\":8484:8492  newOwner */\n              dup1\n                /* \"JLoansFactory.sol\":8475:8481  _owner */\n              0x00\n              dup1\n                /* \"JLoansFactory.sol\":8475:8492  _owner = newOwner */\n              0x0100\n              exp\n              dup2\n              sload\n              dup2\n              0xffffffffffffffffffffffffffffffffffffffff\n              mul\n              not\n              and\n              swap1\n              dup4\n              0xffffffffffffffffffffffffffffffffffffffff\n              and\n              mul\n              or\n              swap1\n              sstore\n              pop\n                /* \"JLoansFactory.sol\":8256:8500  function transferOwnership(address newOwner) public virtual onlyOwner {\r... */\n              pop\n              jump\t// out\n                /* \"JLoansFactory.sol\":5945:6051  function _msgSender() internal view virtual returns (address payable) {\r... */\n            tag_145:\n                /* \"JLoansFactory.sol\":5998:6013  address payable */\n              0x00\n                /* \"JLoansFactory.sol\":6033:6043  msg.sender */\n              caller\n                /* \"JLoansFactory.sol\":6026:6043  return msg.sender */\n              swap1\n              pop\n                /* \"JLoansFactory.sol\":5945:6051  function _msgSender() internal view virtual returns (address payable) {\r... */\n              swap1\n              jump\t// out\n                /* \"--CODEGEN--\":5:135   */\n            tag_227:\n              0x00\n                /* \"--CODEGEN--\":85:91   */\n              dup2\n                /* \"--CODEGEN--\":72:92   */\n              calldataload\n                /* \"--CODEGEN--\":63:92   */\n              swap1\n              pop\n                /* \"--CODEGEN--\":97:130   */\n              tag_229\n                /* \"--CODEGEN--\":124:129   */\n              dup2\n                /* \"--CODEGEN--\":97:130   */\n              tag_230\n              jump\t// in\n            tag_229:\n                /* \"--CODEGEN--\":57:135   */\n              swap3\n              swap2\n              pop\n              pop\n              jump\t// out\n                /* \"--CODEGEN--\":142:288   */\n            tag_231:\n              0x00\n                /* \"--CODEGEN--\":230:236   */\n              dup2\n                /* \"--CODEGEN--\":217:237   */\n              calldataload\n                /* \"--CODEGEN--\":208:237   */\n              swap1\n              pop\n                /* \"--CODEGEN--\":242:283   */\n              tag_233\n                /* \"--CODEGEN--\":277:282   */\n              dup2\n                /* \"--CODEGEN--\":242:283   */\n              tag_234\n              jump\t// in\n            tag_233:\n                /* \"--CODEGEN--\":202:288   */\n              swap3\n              swap2\n              pop\n              pop\n              jump\t// out\n                /* \"--CODEGEN--\":329:1453   */\n            tag_235:\n              0x00\n                /* \"--CODEGEN--\":441:445   */\n              0xc0\n                /* \"--CODEGEN--\":429:438   */\n              dup3\n                /* \"--CODEGEN--\":424:427   */\n              dup5\n                /* \"--CODEGEN--\":420:439   */\n              sub\n                /* \"--CODEGEN--\":416:446   */\n              slt\n                /* \"--CODEGEN--\":413:415   */\n              iszero\n              tag_237\n              jumpi\n                /* \"--CODEGEN--\":459:460   */\n              0x00\n                /* \"--CODEGEN--\":456:457   */\n              dup1\n                /* \"--CODEGEN--\":449:461   */\n              revert\n                /* \"--CODEGEN--\":413:415   */\n            tag_237:\n                /* \"--CODEGEN--\":477:497   */\n              tag_238\n                /* \"--CODEGEN--\":492:496   */\n              0xc0\n                /* \"--CODEGEN--\":477:497   */\n              tag_239\n              jump\t// in\n            tag_238:\n                /* \"--CODEGEN--\":468:497   */\n              swap1\n              pop\n                /* \"--CODEGEN--\":553:554   */\n              0x00\n                /* \"--CODEGEN--\":585:634   */\n              tag_240\n                /* \"--CODEGEN--\":630:633   */\n              dup5\n                /* \"--CODEGEN--\":621:627   */\n              dup3\n                /* \"--CODEGEN--\":610:619   */\n              dup6\n                /* \"--CODEGEN--\":606:628   */\n              add\n                /* \"--CODEGEN--\":585:634   */\n              tag_241\n              jump\t// in\n            tag_240:\n                /* \"--CODEGEN--\":578:582   */\n              0x00\n                /* \"--CODEGEN--\":571:576   */\n              dup4\n                /* \"--CODEGEN--\":567:583   */\n              add\n                /* \"--CODEGEN--\":560:635   */\n              mstore\n                /* \"--CODEGEN--\":507:646   */\n              pop\n                /* \"--CODEGEN--\":713:715   */\n              0x20\n                /* \"--CODEGEN--\":746:795   */\n              tag_242\n                /* \"--CODEGEN--\":791:794   */\n              dup5\n                /* \"--CODEGEN--\":782:788   */\n              dup3\n                /* \"--CODEGEN--\":771:780   */\n              dup6\n                /* \"--CODEGEN--\":767:789   */\n              add\n                /* \"--CODEGEN--\":746:795   */\n              tag_241\n              jump\t// in\n            tag_242:\n                /* \"--CODEGEN--\":739:743   */\n              0x20\n                /* \"--CODEGEN--\":732:737   */\n              dup4\n                /* \"--CODEGEN--\":728:744   */\n              add\n                /* \"--CODEGEN--\":721:796   */\n              mstore\n                /* \"--CODEGEN--\":656:807   */\n              pop\n                /* \"--CODEGEN--\":870:872   */\n              0x40\n                /* \"--CODEGEN--\":903:952   */\n              tag_243\n                /* \"--CODEGEN--\":948:951   */\n              dup5\n                /* \"--CODEGEN--\":939:945   */\n              dup3\n                /* \"--CODEGEN--\":928:937   */\n              dup6\n                /* \"--CODEGEN--\":924:946   */\n              add\n                /* \"--CODEGEN--\":903:952   */\n              tag_241\n              jump\t// in\n            tag_243:\n                /* \"--CODEGEN--\":896:900   */\n              0x40\n                /* \"--CODEGEN--\":889:894   */\n              dup4\n                /* \"--CODEGEN--\":885:901   */\n              add\n                /* \"--CODEGEN--\":878:953   */\n              mstore\n                /* \"--CODEGEN--\":817:964   */\n              pop\n                /* \"--CODEGEN--\":1026:1028   */\n              0x60\n                /* \"--CODEGEN--\":1059:1108   */\n              tag_244\n                /* \"--CODEGEN--\":1104:1107   */\n              dup5\n                /* \"--CODEGEN--\":1095:1101   */\n              dup3\n                /* \"--CODEGEN--\":1084:1093   */\n              dup6\n                /* \"--CODEGEN--\":1080:1102   */\n              add\n                /* \"--CODEGEN--\":1059:1108   */\n              tag_241\n              jump\t// in\n            tag_244:\n                /* \"--CODEGEN--\":1052:1056   */\n              0x60\n                /* \"--CODEGEN--\":1045:1050   */\n              dup4\n                /* \"--CODEGEN--\":1041:1057   */\n              add\n                /* \"--CODEGEN--\":1034:1109   */\n              mstore\n                /* \"--CODEGEN--\":974:1120   */\n              pop\n                /* \"--CODEGEN--\":1189:1192   */\n              0x80\n                /* \"--CODEGEN--\":1223:1272   */\n              tag_245\n                /* \"--CODEGEN--\":1268:1271   */\n              dup5\n                /* \"--CODEGEN--\":1259:1265   */\n              dup3\n                /* \"--CODEGEN--\":1248:1257   */\n              dup6\n                /* \"--CODEGEN--\":1244:1266   */\n              add\n                /* \"--CODEGEN--\":1223:1272   */\n              tag_241\n              jump\t// in\n            tag_245:\n                /* \"--CODEGEN--\":1216:1220   */\n              0x80\n                /* \"--CODEGEN--\":1209:1214   */\n              dup4\n                /* \"--CODEGEN--\":1205:1221   */\n              add\n                /* \"--CODEGEN--\":1198:1273   */\n              mstore\n                /* \"--CODEGEN--\":1130:1284   */\n              pop\n                /* \"--CODEGEN--\":1348:1351   */\n              0xa0\n                /* \"--CODEGEN--\":1382:1431   */\n              tag_246\n                /* \"--CODEGEN--\":1427:1430   */\n              dup5\n                /* \"--CODEGEN--\":1418:1424   */\n              dup3\n                /* \"--CODEGEN--\":1407:1416   */\n              dup6\n                /* \"--CODEGEN--\":1403:1425   */\n              add\n                /* \"--CODEGEN--\":1382:1431   */\n              tag_241\n              jump\t// in\n            tag_246:\n                /* \"--CODEGEN--\":1375:1379   */\n              0xa0\n                /* \"--CODEGEN--\":1368:1373   */\n              dup4\n                /* \"--CODEGEN--\":1364:1380   */\n              add\n                /* \"--CODEGEN--\":1357:1432   */\n              mstore\n                /* \"--CODEGEN--\":1294:1443   */\n              pop\n                /* \"--CODEGEN--\":407:1453   */\n              swap3\n              swap2\n              pop\n              pop\n              jump\t// out\n                /* \"--CODEGEN--\":1460:1590   */\n            tag_241:\n              0x00\n                /* \"--CODEGEN--\":1540:1546   */\n              dup2\n                /* \"--CODEGEN--\":1527:1547   */\n              calldataload\n                /* \"--CODEGEN--\":1518:1547   */\n              swap1\n              pop\n                /* \"--CODEGEN--\":1552:1585   */\n              tag_248\n                /* \"--CODEGEN--\":1579:1584   */\n              dup2\n                /* \"--CODEGEN--\":1552:1585   */\n              tag_249\n              jump\t// in\n            tag_248:\n                /* \"--CODEGEN--\":1512:1590   */\n              swap3\n              swap2\n              pop\n              pop\n              jump\t// out\n                /* \"--CODEGEN--\":1597:1838   */\n            tag_80:\n              0x00\n                /* \"--CODEGEN--\":1701:1703   */\n              0x20\n                /* \"--CODEGEN--\":1689:1698   */\n              dup3\n                /* \"--CODEGEN--\":1680:1687   */\n              dup5\n                /* \"--CODEGEN--\":1676:1699   */\n              sub\n                /* \"--CODEGEN--\":1672:1704   */\n              slt\n                /* \"--CODEGEN--\":1669:1671   */\n              iszero\n              tag_251\n              jumpi\n                /* \"--CODEGEN--\":1717:1718   */\n              0x00\n                /* \"--CODEGEN--\":1714:1715   */\n              dup1\n                /* \"--CODEGEN--\":1707:1719   */\n              revert\n                /* \"--CODEGEN--\":1669:1671   */\n            tag_251:\n                /* \"--CODEGEN--\":1752:1753   */\n              0x00\n                /* \"--CODEGEN--\":1769:1822   */\n              tag_252\n                /* \"--CODEGEN--\":1814:1821   */\n              dup5\n                /* \"--CODEGEN--\":1805:1811   */\n              dup3\n                /* \"--CODEGEN--\":1794:1803   */\n              dup6\n                /* \"--CODEGEN--\":1790:1812   */\n              add\n                /* \"--CODEGEN--\":1769:1822   */\n              tag_227\n              jump\t// in\n            tag_252:\n                /* \"--CODEGEN--\":1759:1822   */\n              swap2\n              pop\n                /* \"--CODEGEN--\":1731:1828   */\n              pop\n                /* \"--CODEGEN--\":1663:1838   */\n              swap3\n              swap2\n              pop\n              pop\n              jump\t// out\n                /* \"--CODEGEN--\":1845:2102   */\n            tag_61:\n              0x00\n                /* \"--CODEGEN--\":1957:1959   */\n              0x20\n                /* \"--CODEGEN--\":1945:1954   */\n              dup3\n                /* \"--CODEGEN--\":1936:1943   */\n              dup5\n                /* \"--CODEGEN--\":1932:1955   */\n              sub\n                /* \"--CODEGEN--\":1928:1960   */\n              slt\n                /* \"--CODEGEN--\":1925:1927   */\n              iszero\n              tag_254\n              jumpi\n                /* \"--CODEGEN--\":1973:1974   */\n              0x00\n                /* \"--CODEGEN--\":1970:1971   */\n              dup1\n                /* \"--CODEGEN--\":1963:1975   */\n              revert\n                /* \"--CODEGEN--\":1925:1927   */\n            tag_254:\n                /* \"--CODEGEN--\":2008:2009   */\n              0x00\n                /* \"--CODEGEN--\":2025:2086   */\n              tag_255\n                /* \"--CODEGEN--\":2078:2085   */\n              dup5\n                /* \"--CODEGEN--\":2069:2075   */\n              dup3\n                /* \"--CODEGEN--\":2058:2067   */\n              dup6\n                /* \"--CODEGEN--\":2054:2076   */\n              add\n                /* \"--CODEGEN--\":2025:2086   */\n              tag_231\n              jump\t// in\n            tag_255:\n                /* \"--CODEGEN--\":2015:2086   */\n              swap2\n              pop\n                /* \"--CODEGEN--\":1987:2092   */\n              pop\n                /* \"--CODEGEN--\":1919:2102   */\n              swap3\n              swap2\n              pop\n              pop\n              jump\t// out\n                /* \"--CODEGEN--\":2109:2397   */\n            tag_125:\n              0x00\n                /* \"--CODEGEN--\":2236:2239   */\n              0xc0\n                /* \"--CODEGEN--\":2224:2233   */\n              dup3\n                /* \"--CODEGEN--\":2215:2222   */\n              dup5\n                /* \"--CODEGEN--\":2211:2234   */\n              sub\n                /* \"--CODEGEN--\":2207:2240   */\n              slt\n                /* \"--CODEGEN--\":2204:2206   */\n              iszero\n              tag_257\n              jumpi\n                /* \"--CODEGEN--\":2253:2254   */\n              0x00\n                /* \"--CODEGEN--\":2250:2251   */\n              dup1\n                /* \"--CODEGEN--\":2243:2255   */\n              revert\n                /* \"--CODEGEN--\":2204:2206   */\n            tag_257:\n                /* \"--CODEGEN--\":2288:2289   */\n              0x00\n                /* \"--CODEGEN--\":2305:2381   */\n              tag_258\n                /* \"--CODEGEN--\":2373:2380   */\n              dup5\n                /* \"--CODEGEN--\":2364:2370   */\n              dup3\n                /* \"--CODEGEN--\":2353:2362   */\n              dup6\n                /* \"--CODEGEN--\":2349:2371   */\n              add\n                /* \"--CODEGEN--\":2305:2381   */\n              tag_235\n              jump\t// in\n            tag_258:\n                /* \"--CODEGEN--\":2295:2381   */\n              swap2\n              pop\n                /* \"--CODEGEN--\":2267:2387   */\n              pop\n                /* \"--CODEGEN--\":2198:2397   */\n              swap3\n              swap2\n              pop\n              pop\n              jump\t// out\n                /* \"--CODEGEN--\":2404:2645   */\n            tag_89:\n              0x00\n                /* \"--CODEGEN--\":2508:2510   */\n              0x20\n                /* \"--CODEGEN--\":2496:2505   */\n              dup3\n                /* \"--CODEGEN--\":2487:2494   */\n              dup5\n                /* \"--CODEGEN--\":2483:2506   */\n              sub\n                /* \"--CODEGEN--\":2479:2511   */\n              slt\n                /* \"--CODEGEN--\":2476:2478   */\n              iszero\n              tag_260\n              jumpi\n                /* \"--CODEGEN--\":2524:2525   */\n              0x00\n                /* \"--CODEGEN--\":2521:2522   */\n              dup1\n                /* \"--CODEGEN--\":2514:2526   */\n              revert\n                /* \"--CODEGEN--\":2476:2478   */\n            tag_260:\n                /* \"--CODEGEN--\":2559:2560   */\n              0x00\n                /* \"--CODEGEN--\":2576:2629   */\n              tag_261\n                /* \"--CODEGEN--\":2621:2628   */\n              dup5\n                /* \"--CODEGEN--\":2612:2618   */\n              dup3\n                /* \"--CODEGEN--\":2601:2610   */\n              dup6\n                /* \"--CODEGEN--\":2597:2619   */\n              add\n                /* \"--CODEGEN--\":2576:2629   */\n              tag_241\n              jump\t// in\n            tag_261:\n                /* \"--CODEGEN--\":2566:2629   */\n              swap2\n              pop\n                /* \"--CODEGEN--\":2538:2635   */\n              pop\n                /* \"--CODEGEN--\":2470:2645   */\n              swap3\n              swap2\n              pop\n              pop\n              jump\t// out\n                /* \"--CODEGEN--\":2652:2794   */\n            tag_262:\n                /* \"--CODEGEN--\":2743:2788   */\n              tag_264\n                /* \"--CODEGEN--\":2782:2787   */\n              dup2\n                /* \"--CODEGEN--\":2743:2788   */\n              tag_265\n              jump\t// in\n            tag_264:\n                /* \"--CODEGEN--\":2738:2741   */\n              dup3\n                /* \"--CODEGEN--\":2731:2789   */\n              mstore\n                /* \"--CODEGEN--\":2725:2794   */\n              pop\n              pop\n              jump\t// out\n                /* \"--CODEGEN--\":2801:2914   */\n            tag_266:\n                /* \"--CODEGEN--\":2884:2908   */\n              tag_268\n                /* \"--CODEGEN--\":2902:2907   */\n              dup2\n                /* \"--CODEGEN--\":2884:2908   */\n              tag_269\n              jump\t// in\n            tag_268:\n                /* \"--CODEGEN--\":2879:2882   */\n              dup3\n                /* \"--CODEGEN--\":2872:2909   */\n              mstore\n                /* \"--CODEGEN--\":2866:2914   */\n              pop\n              pop\n              jump\t// out\n                /* \"--CODEGEN--\":2921:3075   */\n            tag_270:\n                /* \"--CODEGEN--\":3018:3069   */\n              tag_272\n                /* \"--CODEGEN--\":3063:3068   */\n              dup2\n                /* \"--CODEGEN--\":3018:3069   */\n              tag_273\n              jump\t// in\n            tag_272:\n                /* \"--CODEGEN--\":3013:3016   */\n              dup3\n                /* \"--CODEGEN--\":3006:3070   */\n              mstore\n                /* \"--CODEGEN--\":3000:3075   */\n              pop\n              pop\n              jump\t// out\n                /* \"--CODEGEN--\":3082:3224   */\n            tag_274:\n                /* \"--CODEGEN--\":3173:3218   */\n              tag_276\n                /* \"--CODEGEN--\":3212:3217   */\n              dup2\n                /* \"--CODEGEN--\":3173:3218   */\n              tag_277\n              jump\t// in\n            tag_276:\n                /* \"--CODEGEN--\":3168:3171   */\n              dup3\n                /* \"--CODEGEN--\":3161:3219   */\n              mstore\n                /* \"--CODEGEN--\":3155:3224   */\n              pop\n              pop\n              jump\t// out\n                /* \"--CODEGEN--\":3231:3578   */\n            tag_278:\n              0x00\n                /* \"--CODEGEN--\":3343:3382   */\n              tag_280\n                /* \"--CODEGEN--\":3376:3381   */\n              dup3\n                /* \"--CODEGEN--\":3343:3382   */\n              tag_281\n              jump\t// in\n            tag_280:\n                /* \"--CODEGEN--\":3394:3465   */\n              tag_282\n                /* \"--CODEGEN--\":3458:3464   */\n              dup2\n                /* \"--CODEGEN--\":3453:3456   */\n              dup6\n                /* \"--CODEGEN--\":3394:3465   */\n              tag_283\n              jump\t// in\n            tag_282:\n                /* \"--CODEGEN--\":3387:3465   */\n              swap4\n              pop\n                /* \"--CODEGEN--\":3470:3522   */\n              tag_284\n                /* \"--CODEGEN--\":3515:3521   */\n              dup2\n                /* \"--CODEGEN--\":3510:3513   */\n              dup6\n                /* \"--CODEGEN--\":3503:3507   */\n              0x20\n                /* \"--CODEGEN--\":3496:3501   */\n              dup7\n                /* \"--CODEGEN--\":3492:3508   */\n              add\n                /* \"--CODEGEN--\":3470:3522   */\n              tag_285\n              jump\t// in\n            tag_284:\n                /* \"--CODEGEN--\":3543:3572   */\n              tag_286\n                /* \"--CODEGEN--\":3565:3571   */\n              dup2\n                /* \"--CODEGEN--\":3543:3572   */\n              tag_287\n              jump\t// in\n            tag_286:\n                /* \"--CODEGEN--\":3538:3541   */\n              dup5\n                /* \"--CODEGEN--\":3534:3573   */\n              add\n                /* \"--CODEGEN--\":3527:3573   */\n              swap2\n              pop\n                /* \"--CODEGEN--\":3323:3578   */\n              pop\n              swap3\n              swap2\n              pop\n              pop\n              jump\t// out\n                /* \"--CODEGEN--\":3610:4494   */\n            tag_288:\n              0x00\n                /* \"--CODEGEN--\":3747:3752   */\n              dup2\n                /* \"--CODEGEN--\":3741:3753   */\n              sload\n                /* \"--CODEGEN--\":3781:3782   */\n              0x01\n                /* \"--CODEGEN--\":3770:3779   */\n              dup2\n                /* \"--CODEGEN--\":3766:3783   */\n              and\n                /* \"--CODEGEN--\":3794:3795   */\n              0x00\n                /* \"--CODEGEN--\":3789:4057   */\n              dup2\n              eq\n              tag_291\n              jumpi\n                /* \"--CODEGEN--\":4068:4069   */\n              0x01\n                /* \"--CODEGEN--\":4063:4488   */\n              dup2\n              eq\n              tag_292\n              jumpi\n                /* \"--CODEGEN--\":3759:4488   */\n              jump(tag_290)\n                /* \"--CODEGEN--\":3789:4057   */\n            tag_291:\n                /* \"--CODEGEN--\":3867:3871   */\n              0x7f\n                /* \"--CODEGEN--\":3863:3864   */\n              0x02\n                /* \"--CODEGEN--\":3852:3861   */\n              dup4\n                /* \"--CODEGEN--\":3848:3865   */\n              div\n                /* \"--CODEGEN--\":3844:3872   */\n              and\n                /* \"--CODEGEN--\":3886:3975   */\n              tag_293\n                /* \"--CODEGEN--\":3968:3974   */\n              dup2\n                /* \"--CODEGEN--\":3963:3966   */\n              dup8\n                /* \"--CODEGEN--\":3886:3975   */\n              tag_294\n              jump\t// in\n            tag_293:\n                /* \"--CODEGEN--\":3879:3975   */\n              swap6\n              pop\n                /* \"--CODEGEN--\":4013:4017   */\n              0xff\n                /* \"--CODEGEN--\":4009:4018   */\n              not\n                /* \"--CODEGEN--\":3998:4007   */\n              dup4\n                /* \"--CODEGEN--\":3994:4019   */\n              and\n                /* \"--CODEGEN--\":3989:3992   */\n              dup7\n                /* \"--CODEGEN--\":3982:4020   */\n              mstore\n                /* \"--CODEGEN--\":4043:4049   */\n              dup1\n                /* \"--CODEGEN--\":4038:4041   */\n              dup7\n                /* \"--CODEGEN--\":4034:4050   */\n              add\n                /* \"--CODEGEN--\":4027:4050   */\n              swap4\n              pop\n                /* \"--CODEGEN--\":3796:4057   */\n              pop\n                /* \"--CODEGEN--\":3789:4057   */\n              jump(tag_290)\n                /* \"--CODEGEN--\":4063:4488   */\n            tag_292:\n                /* \"--CODEGEN--\":4132:4133   */\n              0x02\n                /* \"--CODEGEN--\":4121:4130   */\n              dup3\n                /* \"--CODEGEN--\":4117:4134   */\n              div\n                /* \"--CODEGEN--\":4148:4237   */\n              tag_295\n                /* \"--CODEGEN--\":4230:4236   */\n              dup2\n                /* \"--CODEGEN--\":4225:4228   */\n              dup8\n                /* \"--CODEGEN--\":4148:4237   */\n              tag_294\n              jump\t// in\n            tag_295:\n                /* \"--CODEGEN--\":4141:4237   */\n              swap6\n              pop\n                /* \"--CODEGEN--\":4259:4297   */\n              tag_296\n                /* \"--CODEGEN--\":4291:4296   */\n              dup6\n                /* \"--CODEGEN--\":4259:4297   */\n              tag_297\n              jump\t// in\n            tag_296:\n                /* \"--CODEGEN--\":4313:4314   */\n              0x00\n                /* \"--CODEGEN--\":4321:4451   */\n            tag_298:\n                /* \"--CODEGEN--\":4335:4341   */\n              dup3\n                /* \"--CODEGEN--\":4332:4333   */\n              dup2\n                /* \"--CODEGEN--\":4329:4342   */\n              lt\n                /* \"--CODEGEN--\":4321:4451   */\n              iszero\n              tag_300\n              jumpi\n                /* \"--CODEGEN--\":4400:4407   */\n              dup2\n                /* \"--CODEGEN--\":4394:4408   */\n              sload\n                /* \"--CODEGEN--\":4390:4391   */\n              dup2\n                /* \"--CODEGEN--\":4385:4388   */\n              dup10\n                /* \"--CODEGEN--\":4381:4392   */\n              add\n                /* \"--CODEGEN--\":4374:4409   */\n              mstore\n                /* \"--CODEGEN--\":4441:4442   */\n              0x01\n                /* \"--CODEGEN--\":4432:4439   */\n              dup3\n                /* \"--CODEGEN--\":4428:4443   */\n              add\n                /* \"--CODEGEN--\":4417:4443   */\n              swap2\n              pop\n                /* \"--CODEGEN--\":4357:4361   */\n              0x20\n                /* \"--CODEGEN--\":4354:4355   */\n              dup2\n                /* \"--CODEGEN--\":4350:4362   */\n              add\n                /* \"--CODEGEN--\":4345:4362   */\n              swap1\n              pop\n                /* \"--CODEGEN--\":4321:4451   */\n              jump(tag_298)\n            tag_300:\n                /* \"--CODEGEN--\":4474:4480   */\n              dup3\n                /* \"--CODEGEN--\":4469:4472   */\n              dup9\n                /* \"--CODEGEN--\":4465:4481   */\n              add\n                /* \"--CODEGEN--\":4458:4481   */\n              swap6\n              pop\n                /* \"--CODEGEN--\":4070:4488   */\n              pop\n              pop\n              pop\n                /* \"--CODEGEN--\":3759:4488   */\n            tag_290:\n              pop\n                /* \"--CODEGEN--\":3717:4494   */\n              pop\n              swap3\n              swap2\n              pop\n              pop\n              jump\t// out\n                /* \"--CODEGEN--\":4503:4878   */\n            tag_301:\n              0x00\n                /* \"--CODEGEN--\":4663:4730   */\n              tag_303\n                /* \"--CODEGEN--\":4727:4729   */\n              0x26\n                /* \"--CODEGEN--\":4722:4725   */\n              dup4\n                /* \"--CODEGEN--\":4663:4730   */\n              tag_283\n              jump\t// in\n            tag_303:\n                /* \"--CODEGEN--\":4656:4730   */\n              swap2\n              pop\n                /* \"--CODEGEN--\":4763:4797   */\n              0x4f776e61626c653a206e6577206f776e657220697320746865207a65726f2061\n                /* \"--CODEGEN--\":4759:4760   */\n              0x00\n                /* \"--CODEGEN--\":4754:4757   */\n              dup4\n                /* \"--CODEGEN--\":4750:4761   */\n              add\n                /* \"--CODEGEN--\":4743:4798   */\n              mstore\n                /* \"--CODEGEN--\":4832:4840   */\n              0x6464726573730000000000000000000000000000000000000000000000000000\n                /* \"--CODEGEN--\":4827:4829   */\n              0x20\n                /* \"--CODEGEN--\":4822:4825   */\n              dup4\n                /* \"--CODEGEN--\":4818:4830   */\n              add\n                /* \"--CODEGEN--\":4811:4841   */\n              mstore\n                /* \"--CODEGEN--\":4869:4871   */\n              0x40\n                /* \"--CODEGEN--\":4864:4867   */\n              dup3\n                /* \"--CODEGEN--\":4860:4872   */\n              add\n                /* \"--CODEGEN--\":4853:4872   */\n              swap1\n              pop\n                /* \"--CODEGEN--\":4649:4878   */\n              swap2\n              swap1\n              pop\n              jump\t// out\n                /* \"--CODEGEN--\":4887:5225   */\n            tag_304:\n              0x00\n                /* \"--CODEGEN--\":5065:5149   */\n              tag_306\n                /* \"--CODEGEN--\":5147:5148   */\n              0x04\n                /* \"--CODEGEN--\":5142:5145   */\n              dup4\n                /* \"--CODEGEN--\":5065:5149   */\n              tag_294\n              jump\t// in\n            tag_306:\n                /* \"--CODEGEN--\":5058:5149   */\n              swap2\n              pop\n                /* \"--CODEGEN--\":5182:5188   */\n              0x4555525300000000000000000000000000000000000000000000000000000000\n                /* \"--CODEGEN--\":5178:5179   */\n              0x00\n                /* \"--CODEGEN--\":5173:5176   */\n              dup4\n                /* \"--CODEGEN--\":5169:5180   */\n              add\n                /* \"--CODEGEN--\":5162:5189   */\n              mstore\n                /* \"--CODEGEN--\":5217:5218   */\n              0x04\n                /* \"--CODEGEN--\":5212:5215   */\n              dup3\n                /* \"--CODEGEN--\":5208:5219   */\n              add\n                /* \"--CODEGEN--\":5201:5219   */\n              swap1\n              pop\n                /* \"--CODEGEN--\":5051:5225   */\n              swap2\n              swap1\n              pop\n              jump\t// out\n                /* \"--CODEGEN--\":5234:5553   */\n            tag_307:\n              0x00\n                /* \"--CODEGEN--\":5394:5461   */\n              tag_309\n                /* \"--CODEGEN--\":5458:5460   */\n              0x13\n                /* \"--CODEGEN--\":5453:5456   */\n              dup4\n                /* \"--CODEGEN--\":5394:5461   */\n              tag_283\n              jump\t// in\n            tag_309:\n                /* \"--CODEGEN--\":5387:5461   */\n              swap2\n              pop\n                /* \"--CODEGEN--\":5494:5515   */\n              0x41646472657373206e6f7420616c6c6f77656400000000000000000000000000\n                /* \"--CODEGEN--\":5490:5491   */\n              0x00\n                /* \"--CODEGEN--\":5485:5488   */\n              dup4\n                /* \"--CODEGEN--\":5481:5492   */\n              add\n                /* \"--CODEGEN--\":5474:5516   */\n              mstore\n                /* \"--CODEGEN--\":5544:5546   */\n              0x20\n                /* \"--CODEGEN--\":5539:5542   */\n              dup3\n                /* \"--CODEGEN--\":5535:5547   */\n              add\n                /* \"--CODEGEN--\":5528:5547   */\n              swap1\n              pop\n                /* \"--CODEGEN--\":5380:5553   */\n              swap2\n              swap1\n              pop\n              jump\t// out\n                /* \"--CODEGEN--\":5562:5950   */\n            tag_310:\n              0x00\n                /* \"--CODEGEN--\":5722:5789   */\n              tag_312\n                /* \"--CODEGEN--\":5786:5788   */\n              0x33\n                /* \"--CODEGEN--\":5781:5784   */\n              dup4\n                /* \"--CODEGEN--\":5722:5789   */\n              tag_283\n              jump\t// in\n            tag_312:\n                /* \"--CODEGEN--\":5715:5789   */\n              swap2\n              pop\n                /* \"--CODEGEN--\":5822:5856   */\n              0x4c6f616e20737461747573206e6f7420636f6d70617469626c65207769746820\n                /* \"--CODEGEN--\":5818:5819   */\n              0x00\n                /* \"--CODEGEN--\":5813:5816   */\n              dup4\n                /* \"--CODEGEN--\":5809:5820   */\n              add\n                /* \"--CODEGEN--\":5802:5857   */\n              mstore\n                /* \"--CODEGEN--\":5891:5912   */\n              0x666f7265636c6f73696e6720616374696f6e7300000000000000000000000000\n                /* \"--CODEGEN--\":5886:5888   */\n              0x20\n                /* \"--CODEGEN--\":5881:5884   */\n              dup4\n                /* \"--CODEGEN--\":5877:5889   */\n              add\n                /* \"--CODEGEN--\":5870:5913   */\n              mstore\n                /* \"--CODEGEN--\":5941:5943   */\n              0x40\n                /* \"--CODEGEN--\":5936:5939   */\n              dup3\n                /* \"--CODEGEN--\":5932:5944   */\n              add\n                /* \"--CODEGEN--\":5925:5944   */\n              swap1\n              pop\n                /* \"--CODEGEN--\":5708:5950   */\n              swap2\n              swap1\n              pop\n              jump\t// out\n                /* \"--CODEGEN--\":5959:6278   */\n            tag_313:\n              0x00\n                /* \"--CODEGEN--\":6119:6186   */\n              tag_315\n                /* \"--CODEGEN--\":6183:6185   */\n              0x13\n                /* \"--CODEGEN--\":6178:6181   */\n              dup4\n                /* \"--CODEGEN--\":6119:6186   */\n              tag_283\n              jump\t// in\n            tag_315:\n                /* \"--CODEGEN--\":6112:6186   */\n              swap2\n              pop\n                /* \"--CODEGEN--\":6219:6240   */\n              0x4e6577207374617465206e6f742076616c696400000000000000000000000000\n                /* \"--CODEGEN--\":6215:6216   */\n              0x00\n                /* \"--CODEGEN--\":6210:6213   */\n              dup4\n                /* \"--CODEGEN--\":6206:6217   */\n              add\n                /* \"--CODEGEN--\":6199:6241   */\n              mstore\n                /* \"--CODEGEN--\":6269:6271   */\n              0x20\n                /* \"--CODEGEN--\":6264:6267   */\n              dup3\n                /* \"--CODEGEN--\":6260:6272   */\n              add\n                /* \"--CODEGEN--\":6253:6272   */\n              swap1\n              pop\n                /* \"--CODEGEN--\":6105:6278   */\n              swap2\n              swap1\n              pop\n              jump\t// out\n                /* \"--CODEGEN--\":6287:6619   */\n            tag_316:\n              0x00\n                /* \"--CODEGEN--\":6447:6514   */\n              tag_318\n                /* \"--CODEGEN--\":6511:6513   */\n              0x20\n                /* \"--CODEGEN--\":6506:6509   */\n              dup4\n                /* \"--CODEGEN--\":6447:6514   */\n              tag_283\n              jump\t// in\n            tag_318:\n                /* \"--CODEGEN--\":6440:6514   */\n              swap2\n              pop\n                /* \"--CODEGEN--\":6547:6581   */\n              0x4f776e61626c653a2063616c6c6572206973206e6f7420746865206f776e6572\n                /* \"--CODEGEN--\":6543:6544   */\n              0x00\n                /* \"--CODEGEN--\":6538:6541   */\n              dup4\n                /* \"--CODEGEN--\":6534:6545   */\n              add\n                /* \"--CODEGEN--\":6527:6582   */\n              mstore\n                /* \"--CODEGEN--\":6610:6612   */\n              0x20\n                /* \"--CODEGEN--\":6605:6608   */\n              dup3\n                /* \"--CODEGEN--\":6601:6613   */\n              add\n                /* \"--CODEGEN--\":6594:6613   */\n              swap1\n              pop\n                /* \"--CODEGEN--\":6433:6619   */\n              swap2\n              swap1\n              pop\n              jump\t// out\n                /* \"--CODEGEN--\":6628:7004   */\n            tag_319:\n              0x00\n                /* \"--CODEGEN--\":6788:6855   */\n              tag_321\n                /* \"--CODEGEN--\":6852:6854   */\n              0x27\n                /* \"--CODEGEN--\":6847:6850   */\n              dup4\n                /* \"--CODEGEN--\":6788:6855   */\n              tag_283\n              jump\t// in\n            tag_321:\n                /* \"--CODEGEN--\":6781:6855   */\n              swap2\n              pop\n                /* \"--CODEGEN--\":6888:6922   */\n              0x4e657720737461747573206973207468652073616d65206c696b652070726573\n                /* \"--CODEGEN--\":6884:6885   */\n              0x00\n                /* \"--CODEGEN--\":6879:6882   */\n              dup4\n                /* \"--CODEGEN--\":6875:6886   */\n              add\n                /* \"--CODEGEN--\":6868:6923   */\n              mstore\n                /* \"--CODEGEN--\":6957:6966   */\n              0x656e74206f6e6500000000000000000000000000000000000000000000000000\n                /* \"--CODEGEN--\":6952:6954   */\n              0x20\n                /* \"--CODEGEN--\":6947:6950   */\n              dup4\n                /* \"--CODEGEN--\":6943:6955   */\n              add\n                /* \"--CODEGEN--\":6936:6967   */\n              mstore\n                /* \"--CODEGEN--\":6995:6997   */\n              0x40\n                /* \"--CODEGEN--\":6990:6993   */\n              dup3\n                /* \"--CODEGEN--\":6986:6998   */\n              add\n                /* \"--CODEGEN--\":6979:6998   */\n              swap1\n              pop\n                /* \"--CODEGEN--\":6774:7004   */\n              swap2\n              swap1\n              pop\n              jump\t// out\n                /* \"--CODEGEN--\":7012:7125   */\n            tag_322:\n                /* \"--CODEGEN--\":7095:7119   */\n              tag_324\n                /* \"--CODEGEN--\":7113:7118   */\n              dup2\n                /* \"--CODEGEN--\":7095:7119   */\n              tag_325\n              jump\t// in\n            tag_324:\n                /* \"--CODEGEN--\":7090:7093   */\n              dup3\n                /* \"--CODEGEN--\":7083:7120   */\n              mstore\n                /* \"--CODEGEN--\":7077:7125   */\n              pop\n              pop\n              jump\t// out\n                /* \"--CODEGEN--\":7132:7401   */\n            tag_174:\n              0x00\n                /* \"--CODEGEN--\":7284:7376   */\n              tag_327\n                /* \"--CODEGEN--\":7372:7375   */\n              dup3\n                /* \"--CODEGEN--\":7363:7369   */\n              dup5\n                /* \"--CODEGEN--\":7284:7376   */\n              tag_288\n              jump\t// in\n            tag_327:\n                /* \"--CODEGEN--\":7277:7376   */\n              swap2\n              pop\n                /* \"--CODEGEN--\":7393:7396   */\n              dup2\n                /* \"--CODEGEN--\":7386:7396   */\n              swap1\n              pop\n                /* \"--CODEGEN--\":7265:7401   */\n              swap3\n              swap2\n              pop\n              pop\n              jump\t// out\n                /* \"--CODEGEN--\":7408:7789   */\n            tag_172:\n              0x00\n                /* \"--CODEGEN--\":7616:7764   */\n              tag_329\n                /* \"--CODEGEN--\":7760:7763   */\n              dup3\n                /* \"--CODEGEN--\":7616:7764   */\n              tag_304\n              jump\t// in\n            tag_329:\n                /* \"--CODEGEN--\":7609:7764   */\n              swap2\n              pop\n                /* \"--CODEGEN--\":7781:7784   */\n              dup2\n                /* \"--CODEGEN--\":7774:7784   */\n              swap1\n              pop\n                /* \"--CODEGEN--\":7597:7789   */\n              swap2\n              swap1\n              pop\n              jump\t// out\n                /* \"--CODEGEN--\":7796:8018   */\n            tag_71:\n              0x00\n                /* \"--CODEGEN--\":7923:7925   */\n              0x20\n                /* \"--CODEGEN--\":7912:7921   */\n              dup3\n                /* \"--CODEGEN--\":7908:7926   */\n              add\n                /* \"--CODEGEN--\":7900:7926   */\n              swap1\n              pop\n                /* \"--CODEGEN--\":7937:8008   */\n              tag_331\n                /* \"--CODEGEN--\":8005:8006   */\n              0x00\n                /* \"--CODEGEN--\":7994:8003   */\n              dup4\n                /* \"--CODEGEN--\":7990:8007   */\n              add\n                /* \"--CODEGEN--\":7981:7987   */\n              dup5\n                /* \"--CODEGEN--\":7937:8008   */\n              tag_266\n              jump\t// in\n            tag_331:\n                /* \"--CODEGEN--\":7894:8018   */\n              swap3\n              swap2\n              pop\n              pop\n              jump\t// out\n                /* \"--CODEGEN--\":8025:8374   */\n            tag_35:\n              0x00\n                /* \"--CODEGEN--\":8188:8190   */\n              0x40\n                /* \"--CODEGEN--\":8177:8186   */\n              dup3\n                /* \"--CODEGEN--\":8173:8191   */\n              add\n                /* \"--CODEGEN--\":8165:8191   */\n              swap1\n              pop\n                /* \"--CODEGEN--\":8202:8281   */\n              tag_333\n                /* \"--CODEGEN--\":8278:8279   */\n              0x00\n                /* \"--CODEGEN--\":8267:8276   */\n              dup4\n                /* \"--CODEGEN--\":8263:8280   */\n              add\n                /* \"--CODEGEN--\":8254:8260   */\n              dup6\n                /* \"--CODEGEN--\":8202:8281   */\n              tag_262\n              jump\t// in\n            tag_333:\n                /* \"--CODEGEN--\":8292:8364   */\n              tag_334\n                /* \"--CODEGEN--\":8360:8362   */\n              0x20\n                /* \"--CODEGEN--\":8349:8358   */\n              dup4\n                /* \"--CODEGEN--\":8345:8363   */\n              add\n                /* \"--CODEGEN--\":8336:8342   */\n              dup5\n                /* \"--CODEGEN--\":8292:8364   */\n              tag_322\n              jump\t// in\n            tag_334:\n                /* \"--CODEGEN--\":8159:8374   */\n              swap4\n              swap3\n              pop\n              pop\n              pop\n              jump\t// out\n                /* \"--CODEGEN--\":8381:8631   */\n            tag_76:\n              0x00\n                /* \"--CODEGEN--\":8522:8524   */\n              0x20\n                /* \"--CODEGEN--\":8511:8520   */\n              dup3\n                /* \"--CODEGEN--\":8507:8525   */\n              add\n                /* \"--CODEGEN--\":8499:8525   */\n              swap1\n              pop\n                /* \"--CODEGEN--\":8536:8621   */\n              tag_336\n                /* \"--CODEGEN--\":8618:8619   */\n              0x00\n                /* \"--CODEGEN--\":8607:8616   */\n              dup4\n                /* \"--CODEGEN--\":8603:8620   */\n              add\n                /* \"--CODEGEN--\":8594:8600   */\n              dup5\n                /* \"--CODEGEN--\":8536:8621   */\n              tag_270\n              jump\t// in\n            tag_336:\n                /* \"--CODEGEN--\":8493:8631   */\n              swap3\n              swap2\n              pop\n              pop\n              jump\t// out\n                /* \"--CODEGEN--\":8638:8876   */\n            tag_40:\n              0x00\n                /* \"--CODEGEN--\":8773:8775   */\n              0x20\n                /* \"--CODEGEN--\":8762:8771   */\n              dup3\n                /* \"--CODEGEN--\":8758:8776   */\n              add\n                /* \"--CODEGEN--\":8750:8776   */\n              swap1\n              pop\n                /* \"--CODEGEN--\":8787:8866   */\n              tag_338\n                /* \"--CODEGEN--\":8863:8864   */\n              0x00\n                /* \"--CODEGEN--\":8852:8861   */\n              dup4\n                /* \"--CODEGEN--\":8848:8865   */\n              add\n                /* \"--CODEGEN--\":8839:8845   */\n              dup5\n                /* \"--CODEGEN--\":8787:8866   */\n              tag_274\n              jump\t// in\n            tag_338:\n                /* \"--CODEGEN--\":8744:8876   */\n              swap3\n              swap2\n              pop\n              pop\n              jump\t// out\n                /* \"--CODEGEN--\":8883:9193   */\n            tag_98:\n              0x00\n                /* \"--CODEGEN--\":9030:9032   */\n              0x20\n                /* \"--CODEGEN--\":9019:9028   */\n              dup3\n                /* \"--CODEGEN--\":9015:9033   */\n              add\n                /* \"--CODEGEN--\":9007:9033   */\n              swap1\n              pop\n                /* \"--CODEGEN--\":9080:9089   */\n              dup2\n                /* \"--CODEGEN--\":9074:9078   */\n              dup2\n                /* \"--CODEGEN--\":9070:9090   */\n              sub\n                /* \"--CODEGEN--\":9066:9067   */\n              0x00\n                /* \"--CODEGEN--\":9055:9064   */\n              dup4\n                /* \"--CODEGEN--\":9051:9068   */\n              add\n                /* \"--CODEGEN--\":9044:9091   */\n              mstore\n                /* \"--CODEGEN--\":9105:9183   */\n              tag_340\n                /* \"--CODEGEN--\":9178:9182   */\n              dup2\n                /* \"--CODEGEN--\":9169:9175   */\n              dup5\n                /* \"--CODEGEN--\":9105:9183   */\n              tag_278\n              jump\t// in\n            tag_340:\n                /* \"--CODEGEN--\":9097:9183   */\n              swap1\n              pop\n                /* \"--CODEGEN--\":9001:9193   */\n              swap3\n              swap2\n              pop\n              pop\n              jump\t// out\n                /* \"--CODEGEN--\":9200:9616   */\n            tag_224:\n              0x00\n                /* \"--CODEGEN--\":9400:9402   */\n              0x20\n                /* \"--CODEGEN--\":9389:9398   */\n              dup3\n                /* \"--CODEGEN--\":9385:9403   */\n              add\n                /* \"--CODEGEN--\":9377:9403   */\n              swap1\n              pop\n                /* \"--CODEGEN--\":9450:9459   */\n              dup2\n                /* \"--CODEGEN--\":9444:9448   */\n              dup2\n                /* \"--CODEGEN--\":9440:9460   */\n              sub\n                /* \"--CODEGEN--\":9436:9437   */\n              0x00\n                /* \"--CODEGEN--\":9425:9434   */\n              dup4\n                /* \"--CODEGEN--\":9421:9438   */\n              add\n                /* \"--CODEGEN--\":9414:9461   */\n              mstore\n                /* \"--CODEGEN--\":9475:9606   */\n              tag_342\n                /* \"--CODEGEN--\":9601:9605   */\n              dup2\n                /* \"--CODEGEN--\":9475:9606   */\n              tag_301\n              jump\t// in\n            tag_342:\n                /* \"--CODEGEN--\":9467:9606   */\n              swap1\n              pop\n                /* \"--CODEGEN--\":9371:9616   */\n              swap2\n              swap1\n              pop\n              jump\t// out\n                /* \"--CODEGEN--\":9623:10039   */\n            tag_164:\n              0x00\n                /* \"--CODEGEN--\":9823:9825   */\n              0x20\n                /* \"--CODEGEN--\":9812:9821   */\n              dup3\n                /* \"--CODEGEN--\":9808:9826   */\n              add\n                /* \"--CODEGEN--\":9800:9826   */\n              swap1\n              pop\n                /* \"--CODEGEN--\":9873:9882   */\n              dup2\n                /* \"--CODEGEN--\":9867:9871   */\n              dup2\n                /* \"--CODEGEN--\":9863:9883   */\n              sub\n                /* \"--CODEGEN--\":9859:9860   */\n              0x00\n                /* \"--CODEGEN--\":9848:9857   */\n              dup4\n                /* \"--CODEGEN--\":9844:9861   */\n              add\n                /* \"--CODEGEN--\":9837:9884   */\n              mstore\n                /* \"--CODEGEN--\":9898:10029   */\n              tag_344\n                /* \"--CODEGEN--\":10024:10028   */\n              dup2\n                /* \"--CODEGEN--\":9898:10029   */\n              tag_307\n              jump\t// in\n            tag_344:\n                /* \"--CODEGEN--\":9890:10029   */\n              swap1\n              pop\n                /* \"--CODEGEN--\":9794:10039   */\n              swap2\n              swap1\n              pop\n              jump\t// out\n                /* \"--CODEGEN--\":10046:10462   */\n            tag_154:\n              0x00\n                /* \"--CODEGEN--\":10246:10248   */\n              0x20\n                /* \"--CODEGEN--\":10235:10244   */\n              dup3\n                /* \"--CODEGEN--\":10231:10249   */\n              add\n                /* \"--CODEGEN--\":10223:10249   */\n              swap1\n              pop\n                /* \"--CODEGEN--\":10296:10305   */\n              dup2\n                /* \"--CODEGEN--\":10290:10294   */\n              dup2\n                /* \"--CODEGEN--\":10286:10306   */\n              sub\n                /* \"--CODEGEN--\":10282:10283   */\n              0x00\n                /* \"--CODEGEN--\":10271:10280   */\n              dup4\n                /* \"--CODEGEN--\":10267:10284   */\n              add\n                /* \"--CODEGEN--\":10260:10307   */\n              mstore\n                /* \"--CODEGEN--\":10321:10452   */\n              tag_346\n                /* \"--CODEGEN--\":10447:10451   */\n              dup2\n                /* \"--CODEGEN--\":10321:10452   */\n              tag_310\n              jump\t// in\n            tag_346:\n                /* \"--CODEGEN--\":10313:10452   */\n              swap1\n              pop\n                /* \"--CODEGEN--\":10217:10462   */\n              swap2\n              swap1\n              pop\n              jump\t// out\n                /* \"--CODEGEN--\":10469:10885   */\n            tag_184:\n              0x00\n                /* \"--CODEGEN--\":10669:10671   */\n              0x20\n                /* \"--CODEGEN--\":10658:10667   */\n              dup3\n                /* \"--CODEGEN--\":10654:10672   */\n              add\n                /* \"--CODEGEN--\":10646:10672   */\n              swap1\n              pop\n                /* \"--CODEGEN--\":10719:10728   */\n              dup2\n                /* \"--CODEGEN--\":10713:10717   */\n              dup2\n                /* \"--CODEGEN--\":10709:10729   */\n              sub\n                /* \"--CODEGEN--\":10705:10706   */\n              0x00\n                /* \"--CODEGEN--\":10694:10703   */\n              dup4\n                /* \"--CODEGEN--\":10690:10707   */\n              add\n                /* \"--CODEGEN--\":10683:10730   */\n              mstore\n                /* \"--CODEGEN--\":10744:10875   */\n              tag_348\n                /* \"--CODEGEN--\":10870:10874   */\n              dup2\n                /* \"--CODEGEN--\":10744:10875   */\n              tag_313\n              jump\t// in\n            tag_348:\n                /* \"--CODEGEN--\":10736:10875   */\n              swap1\n              pop\n                /* \"--CODEGEN--\":10640:10885   */\n              swap2\n              swap1\n              pop\n              jump\t// out\n                /* \"--CODEGEN--\":10892:11308   */\n            tag_148:\n              0x00\n                /* \"--CODEGEN--\":11092:11094   */\n              0x20\n                /* \"--CODEGEN--\":11081:11090   */\n              dup3\n                /* \"--CODEGEN--\":11077:11095   */\n              add\n                /* \"--CODEGEN--\":11069:11095   */\n              swap1\n              pop\n                /* \"--CODEGEN--\":11142:11151   */\n              dup2\n                /* \"--CODEGEN--\":11136:11140   */\n              dup2\n                /* \"--CODEGEN--\":11132:11152   */\n              sub\n                /* \"--CODEGEN--\":11128:11129   */\n              0x00\n                /* \"--CODEGEN--\":11117:11126   */\n              dup4\n                /* \"--CODEGEN--\":11113:11130   */\n              add\n                /* \"--CODEGEN--\":11106:11153   */\n              mstore\n                /* \"--CODEGEN--\":11167:11298   */\n              tag_350\n                /* \"--CODEGEN--\":11293:11297   */\n              dup2\n                /* \"--CODEGEN--\":11167:11298   */\n              tag_316\n              jump\t// in\n            tag_350:\n                /* \"--CODEGEN--\":11159:11298   */\n              swap1\n              pop\n                /* \"--CODEGEN--\":11063:11308   */\n              swap2\n              swap1\n              pop\n              jump\t// out\n                /* \"--CODEGEN--\":11315:11731   */\n            tag_188:\n              0x00\n                /* \"--CODEGEN--\":11515:11517   */\n              0x20\n                /* \"--CODEGEN--\":11504:11513   */\n              dup3\n                /* \"--CODEGEN--\":11500:11518   */\n              add\n                /* \"--CODEGEN--\":11492:11518   */\n              swap1\n              pop\n                /* \"--CODEGEN--\":11565:11574   */\n              dup2\n                /* \"--CODEGEN--\":11559:11563   */\n              dup2\n                /* \"--CODEGEN--\":11555:11575   */\n              sub\n                /* \"--CODEGEN--\":11551:11552   */\n              0x00\n                /* \"--CODEGEN--\":11540:11549   */\n              dup4\n                /* \"--CODEGEN--\":11536:11553   */\n              add\n                /* \"--CODEGEN--\":11529:11576   */\n              mstore\n                /* \"--CODEGEN--\":11590:11721   */\n              tag_352\n                /* \"--CODEGEN--\":11716:11720   */\n              dup2\n                /* \"--CODEGEN--\":11590:11721   */\n              tag_319\n              jump\t// in\n            tag_352:\n                /* \"--CODEGEN--\":11582:11721   */\n              swap1\n              pop\n                /* \"--CODEGEN--\":11486:11731   */\n              swap2\n              swap1\n              pop\n              jump\t// out\n                /* \"--CODEGEN--\":11738:11960   */\n            tag_50:\n              0x00\n                /* \"--CODEGEN--\":11865:11867   */\n              0x20\n                /* \"--CODEGEN--\":11854:11863   */\n              dup3\n                /* \"--CODEGEN--\":11850:11868   */\n              add\n                /* \"--CODEGEN--\":11842:11868   */\n              swap1\n              pop\n                /* \"--CODEGEN--\":11879:11950   */\n              tag_354\n                /* \"--CODEGEN--\":11947:11948   */\n              0x00\n                /* \"--CODEGEN--\":11936:11945   */\n              dup4\n                /* \"--CODEGEN--\":11932:11949   */\n              add\n                /* \"--CODEGEN--\":11923:11929   */\n              dup5\n                /* \"--CODEGEN--\":11879:11950   */\n              tag_322\n              jump\t// in\n            tag_354:\n                /* \"--CODEGEN--\":11836:11960   */\n              swap3\n              swap2\n              pop\n              pop\n              jump\t// out\n                /* \"--CODEGEN--\":11967:12747   */\n            tag_45:\n              0x00\n                /* \"--CODEGEN--\":12234:12237   */\n              0xc0\n                /* \"--CODEGEN--\":12223:12232   */\n              dup3\n                /* \"--CODEGEN--\":12219:12238   */\n              add\n                /* \"--CODEGEN--\":12211:12238   */\n              swap1\n              pop\n                /* \"--CODEGEN--\":12249:12320   */\n              tag_356\n                /* \"--CODEGEN--\":12317:12318   */\n              0x00\n                /* \"--CODEGEN--\":12306:12315   */\n              dup4\n                /* \"--CODEGEN--\":12302:12319   */\n              add\n                /* \"--CODEGEN--\":12293:12299   */\n              dup10\n                /* \"--CODEGEN--\":12249:12320   */\n              tag_322\n              jump\t// in\n            tag_356:\n                /* \"--CODEGEN--\":12331:12403   */\n              tag_357\n                /* \"--CODEGEN--\":12399:12401   */\n              0x20\n                /* \"--CODEGEN--\":12388:12397   */\n              dup4\n                /* \"--CODEGEN--\":12384:12402   */\n              add\n                /* \"--CODEGEN--\":12375:12381   */\n              dup9\n                /* \"--CODEGEN--\":12331:12403   */\n              tag_322\n              jump\t// in\n            tag_357:\n                /* \"--CODEGEN--\":12414:12486   */\n              tag_358\n                /* \"--CODEGEN--\":12482:12484   */\n              0x40\n                /* \"--CODEGEN--\":12471:12480   */\n              dup4\n                /* \"--CODEGEN--\":12467:12485   */\n              add\n                /* \"--CODEGEN--\":12458:12464   */\n              dup8\n                /* \"--CODEGEN--\":12414:12486   */\n              tag_322\n              jump\t// in\n            tag_358:\n                /* \"--CODEGEN--\":12497:12569   */\n              tag_359\n                /* \"--CODEGEN--\":12565:12567   */\n              0x60\n                /* \"--CODEGEN--\":12554:12563   */\n              dup4\n                /* \"--CODEGEN--\":12550:12568   */\n              add\n                /* \"--CODEGEN--\":12541:12547   */\n              dup7\n                /* \"--CODEGEN--\":12497:12569   */\n              tag_322\n              jump\t// in\n            tag_359:\n                /* \"--CODEGEN--\":12580:12653   */\n              tag_360\n                /* \"--CODEGEN--\":12648:12651   */\n              0x80\n                /* \"--CODEGEN--\":12637:12646   */\n              dup4\n                /* \"--CODEGEN--\":12633:12652   */\n              add\n                /* \"--CODEGEN--\":12624:12630   */\n              dup6\n                /* \"--CODEGEN--\":12580:12653   */\n              tag_322\n              jump\t// in\n            tag_360:\n                /* \"--CODEGEN--\":12664:12737   */\n              tag_361\n                /* \"--CODEGEN--\":12732:12735   */\n              0xa0\n                /* \"--CODEGEN--\":12721:12730   */\n              dup4\n                /* \"--CODEGEN--\":12717:12736   */\n              add\n                /* \"--CODEGEN--\":12708:12714   */\n              dup5\n                /* \"--CODEGEN--\":12664:12737   */\n              tag_322\n              jump\t// in\n            tag_361:\n                /* \"--CODEGEN--\":12205:12747   */\n              swap8\n              swap7\n              pop\n              pop\n              pop\n              pop\n              pop\n              pop\n              pop\n              jump\t// out\n                /* \"--CODEGEN--\":12754:13010   */\n            tag_239:\n              0x00\n                /* \"--CODEGEN--\":12816:12818   */\n              0x40\n                /* \"--CODEGEN--\":12810:12819   */\n              mload\n                /* \"--CODEGEN--\":12800:12819   */\n              swap1\n              pop\n                /* \"--CODEGEN--\":12854:12858   */\n              dup2\n                /* \"--CODEGEN--\":12846:12852   */\n              dup2\n                /* \"--CODEGEN--\":12842:12859   */\n              add\n                /* \"--CODEGEN--\":12953:12959   */\n              dup2\n                /* \"--CODEGEN--\":12941:12951   */\n              dup2\n                /* \"--CODEGEN--\":12938:12960   */\n              lt\n                /* \"--CODEGEN--\":12917:12935   */\n              0xffffffffffffffff\n                /* \"--CODEGEN--\":12905:12915   */\n              dup3\n                /* \"--CODEGEN--\":12902:12936   */\n              gt\n                /* \"--CODEGEN--\":12899:12961   */\n              or\n                /* \"--CODEGEN--\":12896:12898   */\n              iszero\n              tag_363\n              jumpi\n                /* \"--CODEGEN--\":12974:12975   */\n              0x00\n                /* \"--CODEGEN--\":12971:12972   */\n              dup1\n                /* \"--CODEGEN--\":12964:12976   */\n              revert\n                /* \"--CODEGEN--\":12896:12898   */\n            tag_363:\n                /* \"--CODEGEN--\":12994:13004   */\n              dup1\n                /* \"--CODEGEN--\":12990:12992   */\n              0x40\n                /* \"--CODEGEN--\":12983:13005   */\n              mstore\n                /* \"--CODEGEN--\":12794:13010   */\n              pop\n              swap2\n              swap1\n              pop\n              jump\t// out\n                /* \"--CODEGEN--\":13017:13175   */\n            tag_297:\n              0x00\n                /* \"--CODEGEN--\":13085:13088   */\n              dup2\n                /* \"--CODEGEN--\":13077:13088   */\n              swap1\n              pop\n                /* \"--CODEGEN--\":13122:13125   */\n              dup2\n                /* \"--CODEGEN--\":13119:13120   */\n              0x00\n                /* \"--CODEGEN--\":13112:13126   */\n              mstore\n                /* \"--CODEGEN--\":13154:13158   */\n              0x20\n                /* \"--CODEGEN--\":13151:13152   */\n              0x00\n                /* \"--CODEGEN--\":13141:13159   */\n              keccak256\n                /* \"--CODEGEN--\":13133:13159   */\n              swap1\n              pop\n                /* \"--CODEGEN--\":13071:13175   */\n              swap2\n              swap1\n              pop\n              jump\t// out\n                /* \"--CODEGEN--\":13182:13304   */\n            tag_281:\n              0x00\n                /* \"--CODEGEN--\":13276:13281   */\n              dup2\n                /* \"--CODEGEN--\":13270:13282   */\n              mload\n                /* \"--CODEGEN--\":13260:13282   */\n              swap1\n              pop\n                /* \"--CODEGEN--\":13241:13304   */\n              swap2\n              swap1\n              pop\n              jump\t// out\n                /* \"--CODEGEN--\":13312:13475   */\n            tag_283:\n              0x00\n                /* \"--CODEGEN--\":13427:13433   */\n              dup3\n                /* \"--CODEGEN--\":13422:13425   */\n              dup3\n                /* \"--CODEGEN--\":13415:13434   */\n              mstore\n                /* \"--CODEGEN--\":13464:13468   */\n              0x20\n                /* \"--CODEGEN--\":13459:13462   */\n              dup3\n                /* \"--CODEGEN--\":13455:13469   */\n              add\n                /* \"--CODEGEN--\":13440:13469   */\n              swap1\n              pop\n                /* \"--CODEGEN--\":13408:13475   */\n              swap3\n              swap2\n              pop\n              pop\n              jump\t// out\n                /* \"--CODEGEN--\":13484:13629   */\n            tag_294:\n              0x00\n                /* \"--CODEGEN--\":13620:13623   */\n              dup2\n                /* \"--CODEGEN--\":13605:13623   */\n              swap1\n              pop\n                /* \"--CODEGEN--\":13598:13629   */\n              swap3\n              swap2\n              pop\n              pop\n              jump\t// out\n                /* \"--CODEGEN--\":13637:13728   */\n            tag_269:\n              0x00\n                /* \"--CODEGEN--\":13699:13723   */\n              tag_369\n                /* \"--CODEGEN--\":13717:13722   */\n              dup3\n                /* \"--CODEGEN--\":13699:13723   */\n              tag_370\n              jump\t// in\n            tag_369:\n                /* \"--CODEGEN--\":13688:13723   */\n              swap1\n              pop\n                /* \"--CODEGEN--\":13682:13728   */\n              swap2\n              swap1\n              pop\n              jump\t// out\n                /* \"--CODEGEN--\":13735:13834   */\n            tag_371:\n              0x00\n                /* \"--CODEGEN--\":13805:13829   */\n              tag_373\n                /* \"--CODEGEN--\":13823:13828   */\n              dup3\n                /* \"--CODEGEN--\":13805:13829   */\n              tag_370\n              jump\t// in\n            tag_373:\n                /* \"--CODEGEN--\":13794:13829   */\n              swap1\n              pop\n                /* \"--CODEGEN--\":13788:13834   */\n              swap2\n              swap1\n              pop\n              jump\t// out\n                /* \"--CODEGEN--\":13841:13967   */\n            tag_374:\n              0x00\n                /* \"--CODEGEN--\":13913:13918   */\n              dup2\n                /* \"--CODEGEN--\":13902:13918   */\n              swap1\n              pop\n                /* \"--CODEGEN--\":13919:13962   */\n              tag_376\n                /* \"--CODEGEN--\":13956:13961   */\n              dup3\n                /* \"--CODEGEN--\":13919:13962   */\n              tag_377\n              jump\t// in\n            tag_376:\n                /* \"--CODEGEN--\":13896:13967   */\n              swap2\n              swap1\n              pop\n              jump\t// out\n                /* \"--CODEGEN--\":13974:14095   */\n            tag_370:\n              0x00\n                /* \"--CODEGEN--\":14047:14089   */\n              0xffffffffffffffffffffffffffffffffffffffff\n                /* \"--CODEGEN--\":14040:14045   */\n              dup3\n                /* \"--CODEGEN--\":14036:14090   */\n              and\n                /* \"--CODEGEN--\":14025:14090   */\n              swap1\n              pop\n                /* \"--CODEGEN--\":14019:14095   */\n              swap2\n              swap1\n              pop\n              jump\t// out\n                /* \"--CODEGEN--\":14102:14174   */\n            tag_325:\n              0x00\n                /* \"--CODEGEN--\":14164:14169   */\n              dup2\n                /* \"--CODEGEN--\":14153:14169   */\n              swap1\n              pop\n                /* \"--CODEGEN--\":14147:14174   */\n              swap2\n              swap1\n              pop\n              jump\t// out\n                /* \"--CODEGEN--\":14181:14310   */\n            tag_265:\n              0x00\n                /* \"--CODEGEN--\":14268:14305   */\n              tag_381\n                /* \"--CODEGEN--\":14299:14304   */\n              dup3\n                /* \"--CODEGEN--\":14268:14305   */\n              tag_382\n              jump\t// in\n            tag_381:\n                /* \"--CODEGEN--\":14255:14305   */\n              swap1\n              pop\n                /* \"--CODEGEN--\":14249:14310   */\n              swap2\n              swap1\n              pop\n              jump\t// out\n                /* \"--CODEGEN--\":14317:14466   */\n            tag_273:\n              0x00\n                /* \"--CODEGEN--\":14410:14461   */\n              tag_384\n                /* \"--CODEGEN--\":14455:14460   */\n              dup3\n                /* \"--CODEGEN--\":14410:14461   */\n              tag_385\n              jump\t// in\n            tag_384:\n                /* \"--CODEGEN--\":14397:14461   */\n              swap1\n              pop\n                /* \"--CODEGEN--\":14391:14466   */\n              swap2\n              swap1\n              pop\n              jump\t// out\n                /* \"--CODEGEN--\":14473:14595   */\n            tag_385:\n              0x00\n                /* \"--CODEGEN--\":14566:14590   */\n              tag_387\n                /* \"--CODEGEN--\":14584:14589   */\n              dup3\n                /* \"--CODEGEN--\":14566:14590   */\n              tag_370\n              jump\t// in\n            tag_387:\n                /* \"--CODEGEN--\":14553:14590   */\n              swap1\n              pop\n                /* \"--CODEGEN--\":14547:14595   */\n              swap2\n              swap1\n              pop\n              jump\t// out\n                /* \"--CODEGEN--\":14602:14728   */\n            tag_277:\n              0x00\n                /* \"--CODEGEN--\":14689:14723   */\n              tag_389\n                /* \"--CODEGEN--\":14717:14722   */\n              dup3\n                /* \"--CODEGEN--\":14689:14723   */\n              tag_374\n              jump\t// in\n            tag_389:\n                /* \"--CODEGEN--\":14676:14723   */\n              swap1\n              pop\n                /* \"--CODEGEN--\":14670:14728   */\n              swap2\n              swap1\n              pop\n              jump\t// out\n                /* \"--CODEGEN--\":14735:14856   */\n            tag_382:\n              0x00\n                /* \"--CODEGEN--\":14814:14851   */\n              tag_391\n                /* \"--CODEGEN--\":14845:14850   */\n              dup3\n                /* \"--CODEGEN--\":14814:14851   */\n              tag_392\n              jump\t// in\n            tag_391:\n                /* \"--CODEGEN--\":14801:14851   */\n              swap1\n              pop\n                /* \"--CODEGEN--\":14795:14856   */\n              swap2\n              swap1\n              pop\n              jump\t// out\n                /* \"--CODEGEN--\":14863:14971   */\n            tag_392:\n              0x00\n                /* \"--CODEGEN--\":14942:14966   */\n              tag_394\n                /* \"--CODEGEN--\":14960:14965   */\n              dup3\n                /* \"--CODEGEN--\":14942:14966   */\n              tag_370\n              jump\t// in\n            tag_394:\n                /* \"--CODEGEN--\":14929:14966   */\n              swap1\n              pop\n                /* \"--CODEGEN--\":14923:14971   */\n              swap2\n              swap1\n              pop\n              jump\t// out\n                /* \"--CODEGEN--\":14979:15247   */\n            tag_285:\n                /* \"--CODEGEN--\":15044:15045   */\n              0x00\n                /* \"--CODEGEN--\":15051:15152   */\n            tag_396:\n                /* \"--CODEGEN--\":15065:15071   */\n              dup4\n                /* \"--CODEGEN--\":15062:15063   */\n              dup2\n                /* \"--CODEGEN--\":15059:15072   */\n              lt\n                /* \"--CODEGEN--\":15051:15152   */\n              iszero\n              tag_398\n              jumpi\n                /* \"--CODEGEN--\":15141:15142   */\n              dup1\n                /* \"--CODEGEN--\":15136:15139   */\n              dup3\n                /* \"--CODEGEN--\":15132:15143   */\n              add\n                /* \"--CODEGEN--\":15126:15144   */\n              mload\n                /* \"--CODEGEN--\":15122:15123   */\n              dup2\n                /* \"--CODEGEN--\":15117:15120   */\n              dup5\n                /* \"--CODEGEN--\":15113:15124   */\n              add\n                /* \"--CODEGEN--\":15106:15145   */\n              mstore\n                /* \"--CODEGEN--\":15087:15089   */\n              0x20\n                /* \"--CODEGEN--\":15084:15085   */\n              dup2\n                /* \"--CODEGEN--\":15080:15090   */\n              add\n                /* \"--CODEGEN--\":15075:15090   */\n              swap1\n              pop\n                /* \"--CODEGEN--\":15051:15152   */\n              jump(tag_396)\n            tag_398:\n                /* \"--CODEGEN--\":15167:15173   */\n              dup4\n                /* \"--CODEGEN--\":15164:15165   */\n              dup2\n                /* \"--CODEGEN--\":15161:15174   */\n              gt\n                /* \"--CODEGEN--\":15158:15160   */\n              iszero\n              tag_399\n              jumpi\n                /* \"--CODEGEN--\":15232:15233   */\n              0x00\n                /* \"--CODEGEN--\":15223:15229   */\n              dup5\n                /* \"--CODEGEN--\":15218:15221   */\n              dup5\n                /* \"--CODEGEN--\":15214:15230   */\n              add\n                /* \"--CODEGEN--\":15207:15234   */\n              mstore\n                /* \"--CODEGEN--\":15158:15160   */\n            tag_399:\n                /* \"--CODEGEN--\":15028:15247   */\n              pop\n              pop\n              pop\n              pop\n              jump\t// out\n                /* \"--CODEGEN--\":15255:15352   */\n            tag_287:\n              0x00\n                /* \"--CODEGEN--\":15343:15345   */\n              0x1f\n                /* \"--CODEGEN--\":15339:15346   */\n              not\n                /* \"--CODEGEN--\":15334:15336   */\n              0x1f\n                /* \"--CODEGEN--\":15327:15332   */\n              dup4\n                /* \"--CODEGEN--\":15323:15337   */\n              add\n                /* \"--CODEGEN--\":15319:15347   */\n              and\n                /* \"--CODEGEN--\":15309:15347   */\n              swap1\n              pop\n                /* \"--CODEGEN--\":15303:15352   */\n              swap2\n              swap1\n              pop\n              jump\t// out\n                /* \"--CODEGEN--\":15360:15461   */\n            tag_377:\n                /* \"--CODEGEN--\":15439:15440   */\n              0x05\n                /* \"--CODEGEN--\":15432:15437   */\n              dup2\n                /* \"--CODEGEN--\":15429:15441   */\n              lt\n                /* \"--CODEGEN--\":15419:15421   */\n              tag_402\n              jumpi\n                /* \"--CODEGEN--\":15445:15454   */\n              invalid\n                /* \"--CODEGEN--\":15419:15421   */\n            tag_402:\n                /* \"--CODEGEN--\":15413:15461   */\n              pop\n              jump\t// out\n                /* \"--CODEGEN--\":15468:15585   */\n            tag_230:\n                /* \"--CODEGEN--\":15537:15561   */\n              tag_404\n                /* \"--CODEGEN--\":15555:15560   */\n              dup2\n                /* \"--CODEGEN--\":15537:15561   */\n              tag_269\n              jump\t// in\n            tag_404:\n                /* \"--CODEGEN--\":15530:15535   */\n              dup2\n                /* \"--CODEGEN--\":15527:15562   */\n              eq\n                /* \"--CODEGEN--\":15517:15519   */\n              tag_405\n              jumpi\n                /* \"--CODEGEN--\":15576:15577   */\n              0x00\n                /* \"--CODEGEN--\":15573:15574   */\n              dup1\n                /* \"--CODEGEN--\":15566:15578   */\n              revert\n                /* \"--CODEGEN--\":15517:15519   */\n            tag_405:\n                /* \"--CODEGEN--\":15511:15585   */\n              pop\n              jump\t// out\n                /* \"--CODEGEN--\":15592:15725   */\n            tag_234:\n                /* \"--CODEGEN--\":15669:15701   */\n              tag_407\n                /* \"--CODEGEN--\":15695:15700   */\n              dup2\n                /* \"--CODEGEN--\":15669:15701   */\n              tag_371\n              jump\t// in\n            tag_407:\n                /* \"--CODEGEN--\":15662:15667   */\n              dup2\n                /* \"--CODEGEN--\":15659:15702   */\n              eq\n                /* \"--CODEGEN--\":15649:15651   */\n              tag_408\n              jumpi\n                /* \"--CODEGEN--\":15716:15717   */\n              0x00\n                /* \"--CODEGEN--\":15713:15714   */\n              dup1\n                /* \"--CODEGEN--\":15706:15718   */\n              revert\n                /* \"--CODEGEN--\":15649:15651   */\n            tag_408:\n                /* \"--CODEGEN--\":15643:15725   */\n              pop\n              jump\t// out\n                /* \"--CODEGEN--\":15732:15849   */\n            tag_249:\n                /* \"--CODEGEN--\":15801:15825   */\n              tag_410\n                /* \"--CODEGEN--\":15819:15824   */\n              dup2\n                /* \"--CODEGEN--\":15801:15825   */\n              tag_325\n              jump\t// in\n            tag_410:\n                /* \"--CODEGEN--\":15794:15799   */\n              dup2\n                /* \"--CODEGEN--\":15791:15826   */\n              eq\n                /* \"--CODEGEN--\":15781:15783   */\n              tag_411\n              jumpi\n                /* \"--CODEGEN--\":15840:15841   */\n              0x00\n                /* \"--CODEGEN--\":15837:15838   */\n              dup1\n                /* \"--CODEGEN--\":15830:15842   */\n              revert\n                /* \"--CODEGEN--\":15781:15783   */\n            tag_411:\n                /* \"--CODEGEN--\":15775:15849   */\n              pop\n              jump\t// out\n\n            auxdata: 0xa264697066735822122072f1b8f59741c40b40235160f5fb3a56461b902744060a52484275c62b497a5264736f6c634300060c0033\n        }\n    }\n\n    sub_1: assembly {\n            /* \"JLoansFactory.sol\":16401:18772  contract JLoanTokenPair is JLoanCommons, IJLoanTokenPair {\r... */\n          mstore(0x40, 0x80)\n            /* \"JLoansFactory.sol\":16962:17687  constructor(string memory _name, \r... */\n          callvalue\n          dup1\n          iszero\n          tag_1\n          jumpi\n          0x00\n          dup1\n          revert\n        tag_1:\n          pop\n          mload(0x40)\n          sub(codesize, bytecodeSize)\n          dup1\n          bytecodeSize\n          dup4\n          codecopy\n          dup2\n          dup2\n          add\n          0x40\n          mstore\n          dup2\n          add\n          swap1\n          tag_2\n          swap2\n          swap1\n          tag_3\n          jump\t// in\n        tag_2:\n            /* \"JLoansFactory.sol\":17254:17259  _name */\n          dup7\n            /* \"JLoansFactory.sol\":17262:17270  _rpbRate */\n          dup5\n            /* \"JLoansFactory.sol\":17272:17283  _startPrice */\n          dup5\n            /* \"JLoansFactory.sol\":17285:17298  _passedParams */\n          dup5\n            /* \"JLoansFactory.sol\":17300:17309  _faddress */\n          dup5\n            /* \"JLoansFactory.sol\":7102:7119  address msgSender */\n          0x00\n            /* \"JLoansFactory.sol\":7122:7134  _msgSender() */\n          tag_8\n            /* \"JLoansFactory.sol\":7122:7132  _msgSender */\n          shl(0x20, tag_9)\n            /* \"JLoansFactory.sol\":7122:7134  _msgSender() */\n          0x20\n          shr\n          jump\t// in\n        tag_8:\n            /* \"JLoansFactory.sol\":7102:7134  address msgSender = _msgSender() */\n          swap1\n          pop\n            /* \"JLoansFactory.sol\":7154:7163  msgSender */\n          dup1\n            /* \"JLoansFactory.sol\":7145:7151  _owner */\n          0x00\n          dup1\n            /* \"JLoansFactory.sol\":7145:7163  _owner = msgSender */\n          0x0100\n          exp\n          dup2\n          sload\n          dup2\n          0xffffffffffffffffffffffffffffffffffffffff\n          mul\n          not\n          and\n          swap1\n          dup4\n          0xffffffffffffffffffffffffffffffffffffffff\n          and\n          mul\n          or\n          swap1\n          sstore\n          pop\n            /* \"JLoansFactory.sol\":7212:7221  msgSender */\n          dup1\n            /* \"JLoansFactory.sol\":7179:7222  OwnershipTransferred(address(0), msgSender) */\n          0xffffffffffffffffffffffffffffffffffffffff\n          and\n            /* \"JLoansFactory.sol\":7208:7209  0 */\n          0x00\n            /* \"JLoansFactory.sol\":7179:7222  OwnershipTransferred(address(0), msgSender) */\n          0xffffffffffffffffffffffffffffffffffffffff\n          and\n          0x8be0079c531659141344cd1fd0a4f28419497f9722a3daafe3b4186f6b6457e0\n          mload(0x40)\n          mload(0x40)\n          dup1\n          swap2\n          sub\n          swap1\n          log3\n            /* \"JLoansFactory.sol\":7067:7230  constructor () internal {\r... */\n          pop\n            /* \"JLoansFactory.sol\":12777:12790  _passedParams */\n          dup2\n            /* \"JLoansFactory.sol\":12764:12774  loanParams */\n          0x01\n            /* \"JLoansFactory.sol\":12764:12790  loanParams = _passedParams */\n          0x00\n          dup3\n          add\n          mload\n          dup2\n          0x00\n          add\n          sstore\n          0x20\n          dup3\n          add\n          mload\n          dup2\n          0x01\n          add\n          sstore\n          0x40\n          dup3\n          add\n          mload\n          dup2\n          0x02\n          add\n          sstore\n          0x60\n          dup3\n          add\n          mload\n          dup2\n          0x03\n          add\n          sstore\n          0x80\n          dup3\n          add\n          mload\n          dup2\n          0x04\n          add\n          sstore\n          0xa0\n          dup3\n          add\n          mload\n          dup2\n          0x05\n          add\n          sstore\n          swap1\n          pop\n          pop\n            /* \"JLoansFactory.sol\":12821:12831  loanParams */\n          0x01\n            /* \"JLoansFactory.sol\":12821:12842  loanParams.minRpbRate */\n          0x00\n          add\n          sload\n            /* \"JLoansFactory.sol\":12809:12817  _rpbRate */\n          dup5\n            /* \"JLoansFactory.sol\":12809:12842  _rpbRate >= loanParams.minRpbRate */\n          lt\n          iszero\n            /* \"JLoansFactory.sol\":12801:12864  require(_rpbRate >= loanParams.minRpbRate, \"Interest too low!\") */\n          tag_11\n          jumpi\n          mload(0x40)\n          0x08c379a000000000000000000000000000000000000000000000000000000000\n          dup2\n          mstore\n          0x04\n          add\n          tag_12\n          swap1\n          tag_13\n          jump\t// in\n        tag_12:\n          mload(0x40)\n          dup1\n          swap2\n          sub\n          swap1\n          revert\n        tag_11:\n            /* \"JLoansFactory.sol\":12886:12891  _name */\n          dup5\n            /* \"JLoansFactory.sol\":12875:12883  loanName */\n          0x08\n            /* \"JLoansFactory.sol\":12875:12891  loanName = _name */\n          swap1\n          dup1\n          mload\n          swap1\n          0x20\n          add\n          swap1\n          tag_14\n          swap3\n          swap2\n          swap1\n          tag_15\n          jump\t// in\n        tag_14:\n          pop\n            /* \"JLoansFactory.sol\":12915:12926  _startPrice */\n          dup3\n            /* \"JLoansFactory.sol\":12902:12912  startPrice */\n          0x0a\n            /* \"JLoansFactory.sol\":12902:12926  startPrice = _startPrice */\n          dup2\n          swap1\n          sstore\n          pop\n            /* \"JLoansFactory.sol\":12954:12963  _faddress */\n          dup1\n            /* \"JLoansFactory.sol\":12937:12951  factoryAddress */\n          0x12\n          0x00\n            /* \"JLoansFactory.sol\":12937:12963  factoryAddress = _faddress */\n          0x0100\n          exp\n          dup2\n          sload\n          dup2\n          0xffffffffffffffffffffffffffffffffffffffff\n          mul\n          not\n          and\n          swap1\n          dup4\n          0xffffffffffffffffffffffffffffffffffffffff\n          and\n          mul\n          or\n          swap1\n          sstore\n          pop\n            /* \"JLoansFactory.sol\":12984:12992  _rpbRate */\n          dup4\n            /* \"JLoansFactory.sol\":12974:12981  rpbRate */\n          0x09\n            /* \"JLoansFactory.sol\":12974:12992  rpbRate = _rpbRate */\n          dup2\n          swap1\n          sstore\n          pop\n            /* \"JLoansFactory.sol\":13019:13031  block.number */\n          number\n            /* \"JLoansFactory.sol\":13003:13016  creationBlock */\n          0x0c\n            /* \"JLoansFactory.sol\":13003:13031  creationBlock = block.number */\n          dup2\n          swap1\n          sstore\n          pop\n            /* \"JLoansFactory.sol\":13047:13082  LoanContractDeployed(creationBlock) */\n          0x656ad37b815087d90f0c4cbdbf28a9ef3e92cfeb045dd15eaa452cc8b1d34e00\n            /* \"JLoansFactory.sol\":13068:13081  creationBlock */\n          sload(0x0c)\n            /* \"JLoansFactory.sol\":13047:13082  LoanContractDeployed(creationBlock) */\n          mload(0x40)\n          tag_16\n          swap2\n          swap1\n          tag_17\n          jump\t// in\n        tag_16:\n          mload(0x40)\n          dup1\n          swap2\n          sub\n          swap1\n          log1\n            /* \"JLoansFactory.sol\":12561:13090  constructor(string memory _name, \r... */\n          pop\n          pop\n          pop\n          pop\n          pop\n            /* \"JLoansFactory.sol\":17358:17373  _borrowedCrypto */\n          dup6\n            /* \"JLoansFactory.sol\":17331:17355  chosenBorrowedCryptoName */\n          0x15\n            /* \"JLoansFactory.sol\":17331:17373  chosenBorrowedCryptoName = _borrowedCrypto */\n          swap1\n          dup1\n          mload\n          swap1\n          0x20\n          add\n          swap1\n          tag_19\n          swap3\n          swap2\n          swap1\n          tag_15\n          jump\t// in\n        tag_19:\n          pop\n            /* \"JLoansFactory.sol\":17412:17437  collateralContractAddress */\n          0x13\n          0x00\n          swap1\n          sload\n          swap1\n          0x0100\n          exp\n          swap1\n          div\n          0xffffffffffffffffffffffffffffffffffffffff\n          and\n            /* \"JLoansFactory.sol\":17384:17402  cryptoFromBorrower */\n          0x17\n          0x00\n            /* \"JLoansFactory.sol\":17384:17438  cryptoFromBorrower = IERC20(collateralContractAddress) */\n          0x0100\n          exp\n          dup2\n          sload\n          dup2\n          0xffffffffffffffffffffffffffffffffffffffff\n          mul\n          not\n          and\n          swap1\n          dup4\n          0xffffffffffffffffffffffffffffffffffffffff\n          and\n          mul\n          or\n          swap1\n          sstore\n          pop\n            /* \"JLoansFactory.sol\":17475:17493  _borrowedAskAmount */\n          dup5\n            /* \"JLoansFactory.sol\":17455:17472  askedBorrowAmount */\n          0x16\n            /* \"JLoansFactory.sol\":17455:17493  askedBorrowAmount = _borrowedAskAmount */\n          dup2\n          swap1\n          sstore\n          pop\n            /* \"JLoansFactory.sol\":17520:17532  block.number */\n          number\n            /* \"JLoansFactory.sol\":17504:17517  creationBlock */\n          0x0c\n            /* \"JLoansFactory.sol\":17504:17532  creationBlock = block.number */\n          dup2\n          swap1\n          sstore\n          pop\n            /* \"JLoansFactory.sol\":17556:17570  Status.pending */\n          0x00\n            /* \"JLoansFactory.sol\":17543:17553  loanStatus */\n          0x07\n          0x00\n            /* \"JLoansFactory.sol\":17543:17570  loanStatus = Status.pending */\n          0x0100\n          exp\n          dup2\n          sload\n          dup2\n          0xff\n          mul\n          not\n          and\n          swap1\n          dup4\n          0x04\n          dup2\n          gt\n          iszero\n          tag_20\n          jumpi\n          invalid\n        tag_20:\n          mul\n          or\n          swap1\n          sstore\n          pop\n            /* \"JLoansFactory.sol\":17599:17600  0 */\n          0x00\n            /* \"JLoansFactory.sol\":17581:17596  borrowerBalance */\n          0x10\n            /* \"JLoansFactory.sol\":17581:17600  borrowerBalance = 0 */\n          dup2\n          swap1\n          sstore\n          pop\n            /* \"JLoansFactory.sol\":17627:17628  0 */\n          0x00\n            /* \"JLoansFactory.sol\":17611:17624  lenderBalance */\n          0x11\n            /* \"JLoansFactory.sol\":17611:17628  lenderBalance = 0 */\n          dup2\n          swap1\n          sstore\n          pop\n            /* \"JLoansFactory.sol\":17644:17679  LoanContractDeployed(creationBlock) */\n          0x656ad37b815087d90f0c4cbdbf28a9ef3e92cfeb045dd15eaa452cc8b1d34e00\n            /* \"JLoansFactory.sol\":17665:17678  creationBlock */\n          sload(0x0c)\n            /* \"JLoansFactory.sol\":17644:17679  LoanContractDeployed(creationBlock) */\n          mload(0x40)\n          tag_21\n          swap2\n          swap1\n          tag_17\n          jump\t// in\n        tag_21:\n          mload(0x40)\n          dup1\n          swap2\n          sub\n          swap1\n          log1\n            /* \"JLoansFactory.sol\":16962:17687  constructor(string memory _name, \r... */\n          pop\n          pop\n          pop\n          pop\n          pop\n          pop\n          pop\n            /* \"JLoansFactory.sol\":16401:18772  contract JLoanTokenPair is JLoanCommons, IJLoanTokenPair {\r... */\n          jump(tag_22)\n            /* \"JLoansFactory.sol\":5945:6051  function _msgSender() internal view virtual returns (address payable) {\r... */\n        tag_9:\n            /* \"JLoansFactory.sol\":5998:6013  address payable */\n          0x00\n            /* \"JLoansFactory.sol\":6033:6043  msg.sender */\n          caller\n            /* \"JLoansFactory.sol\":6026:6043  return msg.sender */\n          swap1\n          pop\n            /* \"JLoansFactory.sol\":5945:6051  function _msgSender() internal view virtual returns (address payable) {\r... */\n          swap1\n          jump\t// out\n            /* \"JLoansFactory.sol\":16401:18772  contract JLoanTokenPair is JLoanCommons, IJLoanTokenPair {\r... */\n        tag_15:\n          dup3\n          dup1\n          sload\n          0x01\n          dup2\n          0x01\n          and\n          iszero\n          0x0100\n          mul\n          sub\n          and\n          0x02\n          swap1\n          div\n          swap1\n          0x00\n          mstore\n          keccak256(0x00, 0x20)\n          swap1\n          0x1f\n          add\n          0x20\n          swap1\n          div\n          dup2\n          add\n          swap3\n          dup3\n          0x1f\n          lt\n          tag_25\n          jumpi\n          dup1\n          mload\n          not(0xff)\n          and\n          dup4\n          dup1\n          add\n          or\n          dup6\n          sstore\n          jump(tag_24)\n        tag_25:\n          dup3\n          dup1\n          add\n          0x01\n          add\n          dup6\n          sstore\n          dup3\n          iszero\n          tag_24\n          jumpi\n          swap2\n          dup3\n          add\n        tag_26:\n          dup3\n          dup2\n          gt\n          iszero\n          tag_27\n          jumpi\n          dup3\n          mload\n          dup3\n          sstore\n          swap2\n          0x20\n          add\n          swap2\n          swap1\n          0x01\n          add\n          swap1\n          jump(tag_26)\n        tag_27:\n        tag_24:\n          pop\n          swap1\n          pop\n          tag_28\n          swap2\n          swap1\n          tag_29\n          jump\t// in\n        tag_28:\n          pop\n          swap1\n          jump\t// out\n        tag_29:\n        tag_30:\n          dup1\n          dup3\n          gt\n          iszero\n          tag_31\n          jumpi\n          0x00\n          dup2\n          0x00\n          swap1\n          sstore\n          pop\n          0x01\n          add\n          jump(tag_30)\n        tag_31:\n          pop\n          swap1\n          jump\t// out\n            /* \"--CODEGEN--\":5:139   */\n        tag_33:\n          0x00\n            /* \"--CODEGEN--\":89:95   */\n          dup2\n            /* \"--CODEGEN--\":83:96   */\n          mload\n            /* \"--CODEGEN--\":74:96   */\n          swap1\n          pop\n            /* \"--CODEGEN--\":101:134   */\n          tag_35\n            /* \"--CODEGEN--\":128:133   */\n          dup2\n            /* \"--CODEGEN--\":101:134   */\n          tag_36\n          jump\t// in\n        tag_35:\n            /* \"--CODEGEN--\":68:139   */\n          swap3\n          swap2\n          pop\n          pop\n          jump\t// out\n            /* \"--CODEGEN--\":147:591   */\n        tag_37:\n          0x00\n            /* \"--CODEGEN--\":260:263   */\n          dup3\n            /* \"--CODEGEN--\":253:257   */\n          0x1f\n            /* \"--CODEGEN--\":245:251   */\n          dup4\n            /* \"--CODEGEN--\":241:258   */\n          add\n            /* \"--CODEGEN--\":237:264   */\n          slt\n            /* \"--CODEGEN--\":227:229   */\n          tag_39\n          jumpi\n            /* \"--CODEGEN--\":278:279   */\n          0x00\n            /* \"--CODEGEN--\":275:276   */\n          dup1\n            /* \"--CODEGEN--\":268:280   */\n          revert\n            /* \"--CODEGEN--\":227:229   */\n        tag_39:\n            /* \"--CODEGEN--\":308:314   */\n          dup2\n            /* \"--CODEGEN--\":302:315   */\n          mload\n            /* \"--CODEGEN--\":330:395   */\n          tag_40\n            /* \"--CODEGEN--\":345:394   */\n          tag_41\n            /* \"--CODEGEN--\":387:393   */\n          dup3\n            /* \"--CODEGEN--\":345:394   */\n          tag_42\n          jump\t// in\n        tag_41:\n            /* \"--CODEGEN--\":330:395   */\n          tag_43\n          jump\t// in\n        tag_40:\n            /* \"--CODEGEN--\":321:395   */\n          swap2\n          pop\n            /* \"--CODEGEN--\":415:421   */\n          dup1\n            /* \"--CODEGEN--\":408:413   */\n          dup3\n            /* \"--CODEGEN--\":401:422   */\n          mstore\n            /* \"--CODEGEN--\":451:455   */\n          0x20\n            /* \"--CODEGEN--\":443:449   */\n          dup4\n            /* \"--CODEGEN--\":439:456   */\n          add\n            /* \"--CODEGEN--\":484:488   */\n          0x20\n            /* \"--CODEGEN--\":477:482   */\n          dup4\n            /* \"--CODEGEN--\":473:489   */\n          add\n            /* \"--CODEGEN--\":519:522   */\n          dup6\n            /* \"--CODEGEN--\":510:516   */\n          dup4\n            /* \"--CODEGEN--\":505:508   */\n          dup4\n            /* \"--CODEGEN--\":501:517   */\n          add\n            /* \"--CODEGEN--\":498:523   */\n          gt\n            /* \"--CODEGEN--\":495:497   */\n          iszero\n          tag_44\n          jumpi\n            /* \"--CODEGEN--\":536:537   */\n          0x00\n            /* \"--CODEGEN--\":533:534   */\n          dup1\n            /* \"--CODEGEN--\":526:538   */\n          revert\n            /* \"--CODEGEN--\":495:497   */\n        tag_44:\n            /* \"--CODEGEN--\":546:585   */\n          tag_45\n            /* \"--CODEGEN--\":578:584   */\n          dup4\n            /* \"--CODEGEN--\":573:576   */\n          dup3\n            /* \"--CODEGEN--\":568:571   */\n          dup5\n            /* \"--CODEGEN--\":546:585   */\n          tag_46\n          jump\t// in\n        tag_45:\n            /* \"--CODEGEN--\":220:591   */\n          pop\n          pop\n          pop\n          swap3\n          swap2\n          pop\n          pop\n          jump\t// out\n            /* \"--CODEGEN--\":633:1834   */\n        tag_47:\n          0x00\n            /* \"--CODEGEN--\":756:760   */\n          0xc0\n            /* \"--CODEGEN--\":744:753   */\n          dup3\n            /* \"--CODEGEN--\":739:742   */\n          dup5\n            /* \"--CODEGEN--\":735:754   */\n          sub\n            /* \"--CODEGEN--\":731:761   */\n          slt\n            /* \"--CODEGEN--\":728:730   */\n          iszero\n          tag_49\n          jumpi\n            /* \"--CODEGEN--\":774:775   */\n          0x00\n            /* \"--CODEGEN--\":771:772   */\n          dup1\n            /* \"--CODEGEN--\":764:776   */\n          revert\n            /* \"--CODEGEN--\":728:730   */\n        tag_49:\n            /* \"--CODEGEN--\":792:812   */\n          tag_50\n            /* \"--CODEGEN--\":807:811   */\n          0xc0\n            /* \"--CODEGEN--\":792:812   */\n          tag_43\n          jump\t// in\n        tag_50:\n            /* \"--CODEGEN--\":783:812   */\n          swap1\n          pop\n            /* \"--CODEGEN--\":868:869   */\n          0x00\n            /* \"--CODEGEN--\":900:960   */\n          tag_51\n            /* \"--CODEGEN--\":956:959   */\n          dup5\n            /* \"--CODEGEN--\":947:953   */\n          dup3\n            /* \"--CODEGEN--\":936:945   */\n          dup6\n            /* \"--CODEGEN--\":932:954   */\n          add\n            /* \"--CODEGEN--\":900:960   */\n          tag_52\n          jump\t// in\n        tag_51:\n            /* \"--CODEGEN--\":893:897   */\n          0x00\n            /* \"--CODEGEN--\":886:891   */\n          dup4\n            /* \"--CODEGEN--\":882:898   */\n          add\n            /* \"--CODEGEN--\":875:961   */\n          mstore\n            /* \"--CODEGEN--\":822:972   */\n          pop\n            /* \"--CODEGEN--\":1039:1041   */\n          0x20\n            /* \"--CODEGEN--\":1072:1132   */\n          tag_53\n            /* \"--CODEGEN--\":1128:1131   */\n          dup5\n            /* \"--CODEGEN--\":1119:1125   */\n          dup3\n            /* \"--CODEGEN--\":1108:1117   */\n          dup6\n            /* \"--CODEGEN--\":1104:1126   */\n          add\n            /* \"--CODEGEN--\":1072:1132   */\n          tag_52\n          jump\t// in\n        tag_53:\n            /* \"--CODEGEN--\":1065:1069   */\n          0x20\n            /* \"--CODEGEN--\":1058:1063   */\n          dup4\n            /* \"--CODEGEN--\":1054:1070   */\n          add\n            /* \"--CODEGEN--\":1047:1133   */\n          mstore\n            /* \"--CODEGEN--\":982:1144   */\n          pop\n            /* \"--CODEGEN--\":1207:1209   */\n          0x40\n            /* \"--CODEGEN--\":1240:1300   */\n          tag_54\n            /* \"--CODEGEN--\":1296:1299   */\n          dup5\n            /* \"--CODEGEN--\":1287:1293   */\n          dup3\n            /* \"--CODEGEN--\":1276:1285   */\n          dup6\n            /* \"--CODEGEN--\":1272:1294   */\n          add\n            /* \"--CODEGEN--\":1240:1300   */\n          tag_52\n          jump\t// in\n        tag_54:\n            /* \"--CODEGEN--\":1233:1237   */\n          0x40\n            /* \"--CODEGEN--\":1226:1231   */\n          dup4\n            /* \"--CODEGEN--\":1222:1238   */\n          add\n            /* \"--CODEGEN--\":1215:1301   */\n          mstore\n            /* \"--CODEGEN--\":1154:1312   */\n          pop\n            /* \"--CODEGEN--\":1374:1376   */\n          0x60\n            /* \"--CODEGEN--\":1407:1467   */\n          tag_55\n            /* \"--CODEGEN--\":1463:1466   */\n          dup5\n            /* \"--CODEGEN--\":1454:1460   */\n          dup3\n            /* \"--CODEGEN--\":1443:1452   */\n          dup6\n            /* \"--CODEGEN--\":1439:1461   */\n          add\n            /* \"--CODEGEN--\":1407:1467   */\n          tag_52\n          jump\t// in\n        tag_55:\n            /* \"--CODEGEN--\":1400:1404   */\n          0x60\n            /* \"--CODEGEN--\":1393:1398   */\n          dup4\n            /* \"--CODEGEN--\":1389:1405   */\n          add\n            /* \"--CODEGEN--\":1382:1468   */\n          mstore\n            /* \"--CODEGEN--\":1322:1479   */\n          pop\n            /* \"--CODEGEN--\":1548:1551   */\n          0x80\n            /* \"--CODEGEN--\":1582:1642   */\n          tag_56\n            /* \"--CODEGEN--\":1638:1641   */\n          dup5\n            /* \"--CODEGEN--\":1629:1635   */\n          dup3\n            /* \"--CODEGEN--\":1618:1627   */\n          dup6\n            /* \"--CODEGEN--\":1614:1636   */\n          add\n            /* \"--CODEGEN--\":1582:1642   */\n          tag_52\n          jump\t// in\n        tag_56:\n            /* \"--CODEGEN--\":1575:1579   */\n          0x80\n            /* \"--CODEGEN--\":1568:1573   */\n          dup4\n            /* \"--CODEGEN--\":1564:1580   */\n          add\n            /* \"--CODEGEN--\":1557:1643   */\n          mstore\n            /* \"--CODEGEN--\":1489:1654   */\n          pop\n            /* \"--CODEGEN--\":1718:1721   */\n          0xa0\n            /* \"--CODEGEN--\":1752:1812   */\n          tag_57\n            /* \"--CODEGEN--\":1808:1811   */\n          dup5\n            /* \"--CODEGEN--\":1799:1805   */\n          dup3\n            /* \"--CODEGEN--\":1788:1797   */\n          dup6\n            /* \"--CODEGEN--\":1784:1806   */\n          add\n            /* \"--CODEGEN--\":1752:1812   */\n          tag_52\n          jump\t// in\n        tag_57:\n            /* \"--CODEGEN--\":1745:1749   */\n          0xa0\n            /* \"--CODEGEN--\":1738:1743   */\n          dup4\n            /* \"--CODEGEN--\":1734:1750   */\n          add\n            /* \"--CODEGEN--\":1727:1813   */\n          mstore\n            /* \"--CODEGEN--\":1664:1824   */\n          pop\n            /* \"--CODEGEN--\":722:1834   */\n          swap3\n          swap2\n          pop\n          pop\n          jump\t// out\n            /* \"--CODEGEN--\":1841:1975   */\n        tag_52:\n          0x00\n            /* \"--CODEGEN--\":1925:1931   */\n          dup2\n            /* \"--CODEGEN--\":1919:1932   */\n          mload\n            /* \"--CODEGEN--\":1910:1932   */\n          swap1\n          pop\n            /* \"--CODEGEN--\":1937:1970   */\n          tag_59\n            /* \"--CODEGEN--\":1964:1969   */\n          dup2\n            /* \"--CODEGEN--\":1937:1970   */\n          tag_60\n          jump\t// in\n        tag_59:\n            /* \"--CODEGEN--\":1904:1975   */\n          swap3\n          swap2\n          pop\n          pop\n          jump\t// out\n            /* \"--CODEGEN--\":1982:3309   */\n        tag_3:\n          0x00\n          dup1\n          0x00\n          dup1\n          0x00\n          dup1\n          0x00\n            /* \"--CODEGEN--\":2242:2245   */\n          0x0180\n            /* \"--CODEGEN--\":2230:2239   */\n          dup9\n            /* \"--CODEGEN--\":2221:2228   */\n          dup11\n            /* \"--CODEGEN--\":2217:2240   */\n          sub\n            /* \"--CODEGEN--\":2213:2246   */\n          slt\n            /* \"--CODEGEN--\":2210:2212   */\n          iszero\n          tag_62\n          jumpi\n            /* \"--CODEGEN--\":2259:2260   */\n          0x00\n            /* \"--CODEGEN--\":2256:2257   */\n          dup1\n            /* \"--CODEGEN--\":2249:2261   */\n          revert\n            /* \"--CODEGEN--\":2210:2212   */\n        tag_62:\n            /* \"--CODEGEN--\":2315:2316   */\n          0x00\n            /* \"--CODEGEN--\":2304:2313   */\n          dup9\n            /* \"--CODEGEN--\":2300:2317   */\n          add\n            /* \"--CODEGEN--\":2294:2318   */\n          mload\n            /* \"--CODEGEN--\":2338:2356   */\n          0xffffffffffffffff\n            /* \"--CODEGEN--\":2330:2336   */\n          dup2\n            /* \"--CODEGEN--\":2327:2357   */\n          gt\n            /* \"--CODEGEN--\":2324:2326   */\n          iszero\n          tag_63\n          jumpi\n            /* \"--CODEGEN--\":2370:2371   */\n          0x00\n            /* \"--CODEGEN--\":2367:2368   */\n          dup1\n            /* \"--CODEGEN--\":2360:2372   */\n          revert\n            /* \"--CODEGEN--\":2324:2326   */\n        tag_63:\n            /* \"--CODEGEN--\":2390:2464   */\n          tag_64\n            /* \"--CODEGEN--\":2456:2463   */\n          dup11\n            /* \"--CODEGEN--\":2447:2453   */\n          dup3\n            /* \"--CODEGEN--\":2436:2445   */\n          dup12\n            /* \"--CODEGEN--\":2432:2454   */\n          add\n            /* \"--CODEGEN--\":2390:2464   */\n          tag_37\n          jump\t// in\n        tag_64:\n            /* \"--CODEGEN--\":2380:2464   */\n          swap8\n          pop\n            /* \"--CODEGEN--\":2273:2470   */\n          pop\n            /* \"--CODEGEN--\":2522:2524   */\n          0x20\n            /* \"--CODEGEN--\":2511:2520   */\n          dup9\n            /* \"--CODEGEN--\":2507:2525   */\n          add\n            /* \"--CODEGEN--\":2501:2526   */\n          mload\n            /* \"--CODEGEN--\":2546:2564   */\n          0xffffffffffffffff\n            /* \"--CODEGEN--\":2538:2544   */\n          dup2\n            /* \"--CODEGEN--\":2535:2565   */\n          gt\n            /* \"--CODEGEN--\":2532:2534   */\n          iszero\n          tag_65\n          jumpi\n            /* \"--CODEGEN--\":2578:2579   */\n          0x00\n            /* \"--CODEGEN--\":2575:2576   */\n          dup1\n            /* \"--CODEGEN--\":2568:2580   */\n          revert\n            /* \"--CODEGEN--\":2532:2534   */\n        tag_65:\n            /* \"--CODEGEN--\":2598:2672   */\n          tag_66\n            /* \"--CODEGEN--\":2664:2671   */\n          dup11\n            /* \"--CODEGEN--\":2655:2661   */\n          dup3\n            /* \"--CODEGEN--\":2644:2653   */\n          dup12\n            /* \"--CODEGEN--\":2640:2662   */\n          add\n            /* \"--CODEGEN--\":2598:2672   */\n          tag_37\n          jump\t// in\n        tag_66:\n            /* \"--CODEGEN--\":2588:2672   */\n          swap7\n          pop\n            /* \"--CODEGEN--\":2480:2678   */\n          pop\n            /* \"--CODEGEN--\":2709:2711   */\n          0x40\n            /* \"--CODEGEN--\":2727:2791   */\n          tag_67\n            /* \"--CODEGEN--\":2783:2790   */\n          dup11\n            /* \"--CODEGEN--\":2774:2780   */\n          dup3\n            /* \"--CODEGEN--\":2763:2772   */\n          dup12\n            /* \"--CODEGEN--\":2759:2781   */\n          add\n            /* \"--CODEGEN--\":2727:2791   */\n          tag_52\n          jump\t// in\n        tag_67:\n            /* \"--CODEGEN--\":2717:2791   */\n          swap6\n          pop\n            /* \"--CODEGEN--\":2688:2797   */\n          pop\n            /* \"--CODEGEN--\":2828:2830   */\n          0x60\n            /* \"--CODEGEN--\":2846:2910   */\n          tag_68\n            /* \"--CODEGEN--\":2902:2909   */\n          dup11\n            /* \"--CODEGEN--\":2893:2899   */\n          dup3\n            /* \"--CODEGEN--\":2882:2891   */\n          dup12\n            /* \"--CODEGEN--\":2878:2900   */\n          add\n            /* \"--CODEGEN--\":2846:2910   */\n          tag_52\n          jump\t// in\n        tag_68:\n            /* \"--CODEGEN--\":2836:2910   */\n          swap5\n          pop\n            /* \"--CODEGEN--\":2807:2916   */\n          pop\n            /* \"--CODEGEN--\":2947:2950   */\n          0x80\n            /* \"--CODEGEN--\":2966:3030   */\n          tag_69\n            /* \"--CODEGEN--\":3022:3029   */\n          dup11\n            /* \"--CODEGEN--\":3013:3019   */\n          dup3\n            /* \"--CODEGEN--\":3002:3011   */\n          dup12\n            /* \"--CODEGEN--\":2998:3020   */\n          add\n            /* \"--CODEGEN--\":2966:3030   */\n          tag_52\n          jump\t// in\n        tag_69:\n            /* \"--CODEGEN--\":2956:3030   */\n          swap4\n          pop\n            /* \"--CODEGEN--\":2926:3036   */\n          pop\n            /* \"--CODEGEN--\":3067:3070   */\n          0xa0\n            /* \"--CODEGEN--\":3086:3173   */\n          tag_70\n            /* \"--CODEGEN--\":3165:3172   */\n          dup11\n            /* \"--CODEGEN--\":3156:3162   */\n          dup3\n            /* \"--CODEGEN--\":3145:3154   */\n          dup12\n            /* \"--CODEGEN--\":3141:3163   */\n          add\n            /* \"--CODEGEN--\":3086:3173   */\n          tag_47\n          jump\t// in\n        tag_70:\n            /* \"--CODEGEN--\":3076:3173   */\n          swap3\n          pop\n            /* \"--CODEGEN--\":3046:3179   */\n          pop\n            /* \"--CODEGEN--\":3210:3213   */\n          0x0160\n            /* \"--CODEGEN--\":3229:3293   */\n          tag_71\n            /* \"--CODEGEN--\":3285:3292   */\n          dup11\n            /* \"--CODEGEN--\":3276:3282   */\n          dup3\n            /* \"--CODEGEN--\":3265:3274   */\n          dup12\n            /* \"--CODEGEN--\":3261:3283   */\n          add\n            /* \"--CODEGEN--\":3229:3293   */\n          tag_33\n          jump\t// in\n        tag_71:\n            /* \"--CODEGEN--\":3219:3293   */\n          swap2\n          pop\n            /* \"--CODEGEN--\":3189:3299   */\n          pop\n            /* \"--CODEGEN--\":2204:3309   */\n          swap3\n          swap6\n          swap9\n          swap2\n          swap5\n          swap8\n          pop\n          swap3\n          swap6\n          pop\n          jump\t// out\n            /* \"--CODEGEN--\":3317:3634   */\n        tag_72:\n          0x00\n            /* \"--CODEGEN--\":3477:3544   */\n          tag_74\n            /* \"--CODEGEN--\":3541:3543   */\n          0x11\n            /* \"--CODEGEN--\":3536:3539   */\n          dup4\n            /* \"--CODEGEN--\":3477:3544   */\n          tag_75\n          jump\t// in\n        tag_74:\n            /* \"--CODEGEN--\":3470:3544   */\n          swap2\n          pop\n            /* \"--CODEGEN--\":3577:3596   */\n          0x496e74657265737420746f6f206c6f7721000000000000000000000000000000\n            /* \"--CODEGEN--\":3573:3574   */\n          0x00\n            /* \"--CODEGEN--\":3568:3571   */\n          dup4\n            /* \"--CODEGEN--\":3564:3575   */\n          add\n            /* \"--CODEGEN--\":3557:3597   */\n          mstore\n            /* \"--CODEGEN--\":3625:3627   */\n          0x20\n            /* \"--CODEGEN--\":3620:3623   */\n          dup3\n            /* \"--CODEGEN--\":3616:3628   */\n          add\n            /* \"--CODEGEN--\":3609:3628   */\n          swap1\n          pop\n            /* \"--CODEGEN--\":3463:3634   */\n          swap2\n          swap1\n          pop\n          jump\t// out\n            /* \"--CODEGEN--\":3642:3755   */\n        tag_76:\n            /* \"--CODEGEN--\":3725:3749   */\n          tag_78\n            /* \"--CODEGEN--\":3743:3748   */\n          dup2\n            /* \"--CODEGEN--\":3725:3749   */\n          tag_79\n          jump\t// in\n        tag_78:\n            /* \"--CODEGEN--\":3720:3723   */\n          dup3\n            /* \"--CODEGEN--\":3713:3750   */\n          mstore\n            /* \"--CODEGEN--\":3707:3755   */\n          pop\n          pop\n          jump\t// out\n            /* \"--CODEGEN--\":3762:4178   */\n        tag_13:\n          0x00\n            /* \"--CODEGEN--\":3962:3964   */\n          0x20\n            /* \"--CODEGEN--\":3951:3960   */\n          dup3\n            /* \"--CODEGEN--\":3947:3965   */\n          add\n            /* \"--CODEGEN--\":3939:3965   */\n          swap1\n          pop\n            /* \"--CODEGEN--\":4012:4021   */\n          dup2\n            /* \"--CODEGEN--\":4006:4010   */\n          dup2\n            /* \"--CODEGEN--\":4002:4022   */\n          sub\n            /* \"--CODEGEN--\":3998:3999   */\n          0x00\n            /* \"--CODEGEN--\":3987:3996   */\n          dup4\n            /* \"--CODEGEN--\":3983:4000   */\n          add\n            /* \"--CODEGEN--\":3976:4023   */\n          mstore\n            /* \"--CODEGEN--\":4037:4168   */\n          tag_81\n            /* \"--CODEGEN--\":4163:4167   */\n          dup2\n            /* \"--CODEGEN--\":4037:4168   */\n          tag_72\n          jump\t// in\n        tag_81:\n            /* \"--CODEGEN--\":4029:4168   */\n          swap1\n          pop\n            /* \"--CODEGEN--\":3933:4178   */\n          swap2\n          swap1\n          pop\n          jump\t// out\n            /* \"--CODEGEN--\":4185:4407   */\n        tag_17:\n          0x00\n            /* \"--CODEGEN--\":4312:4314   */\n          0x20\n            /* \"--CODEGEN--\":4301:4310   */\n          dup3\n            /* \"--CODEGEN--\":4297:4315   */\n          add\n            /* \"--CODEGEN--\":4289:4315   */\n          swap1\n          pop\n            /* \"--CODEGEN--\":4326:4397   */\n          tag_83\n            /* \"--CODEGEN--\":4394:4395   */\n          0x00\n            /* \"--CODEGEN--\":4383:4392   */\n          dup4\n            /* \"--CODEGEN--\":4379:4396   */\n          add\n            /* \"--CODEGEN--\":4370:4376   */\n          dup5\n            /* \"--CODEGEN--\":4326:4397   */\n          tag_76\n          jump\t// in\n        tag_83:\n            /* \"--CODEGEN--\":4283:4407   */\n          swap3\n          swap2\n          pop\n          pop\n          jump\t// out\n            /* \"--CODEGEN--\":4414:4670   */\n        tag_43:\n          0x00\n            /* \"--CODEGEN--\":4476:4478   */\n          0x40\n            /* \"--CODEGEN--\":4470:4479   */\n          mload\n            /* \"--CODEGEN--\":4460:4479   */\n          swap1\n          pop\n            /* \"--CODEGEN--\":4514:4518   */\n          dup2\n            /* \"--CODEGEN--\":4506:4512   */\n          dup2\n            /* \"--CODEGEN--\":4502:4519   */\n          add\n            /* \"--CODEGEN--\":4613:4619   */\n          dup2\n            /* \"--CODEGEN--\":4601:4611   */\n          dup2\n            /* \"--CODEGEN--\":4598:4620   */\n          lt\n            /* \"--CODEGEN--\":4577:4595   */\n          0xffffffffffffffff\n            /* \"--CODEGEN--\":4565:4575   */\n          dup3\n            /* \"--CODEGEN--\":4562:4596   */\n          gt\n            /* \"--CODEGEN--\":4559:4621   */\n          or\n            /* \"--CODEGEN--\":4556:4558   */\n          iszero\n          tag_85\n          jumpi\n            /* \"--CODEGEN--\":4634:4635   */\n          0x00\n            /* \"--CODEGEN--\":4631:4632   */\n          dup1\n            /* \"--CODEGEN--\":4624:4636   */\n          revert\n            /* \"--CODEGEN--\":4556:4558   */\n        tag_85:\n            /* \"--CODEGEN--\":4654:4664   */\n          dup1\n            /* \"--CODEGEN--\":4650:4652   */\n          0x40\n            /* \"--CODEGEN--\":4643:4665   */\n          mstore\n            /* \"--CODEGEN--\":4454:4670   */\n          pop\n          swap2\n          swap1\n          pop\n          jump\t// out\n            /* \"--CODEGEN--\":4677:4999   */\n        tag_42:\n          0x00\n            /* \"--CODEGEN--\":4821:4839   */\n          0xffffffffffffffff\n            /* \"--CODEGEN--\":4813:4819   */\n          dup3\n            /* \"--CODEGEN--\":4810:4840   */\n          gt\n            /* \"--CODEGEN--\":4807:4809   */\n          iszero\n          tag_87\n          jumpi\n            /* \"--CODEGEN--\":4853:4854   */\n          0x00\n            /* \"--CODEGEN--\":4850:4851   */\n          dup1\n            /* \"--CODEGEN--\":4843:4855   */\n          revert\n            /* \"--CODEGEN--\":4807:4809   */\n        tag_87:\n            /* \"--CODEGEN--\":4920:4924   */\n          0x1f\n            /* \"--CODEGEN--\":4916:4925   */\n          not\n            /* \"--CODEGEN--\":4909:4913   */\n          0x1f\n            /* \"--CODEGEN--\":4901:4907   */\n          dup4\n            /* \"--CODEGEN--\":4897:4914   */\n          add\n            /* \"--CODEGEN--\":4893:4926   */\n          and\n            /* \"--CODEGEN--\":4885:4926   */\n          swap1\n          pop\n            /* \"--CODEGEN--\":4984:4988   */\n          0x20\n            /* \"--CODEGEN--\":4978:4982   */\n          dup2\n            /* \"--CODEGEN--\":4974:4989   */\n          add\n            /* \"--CODEGEN--\":4966:4989   */\n          swap1\n          pop\n            /* \"--CODEGEN--\":4744:4999   */\n          swap2\n          swap1\n          pop\n          jump\t// out\n            /* \"--CODEGEN--\":5007:5170   */\n        tag_75:\n          0x00\n            /* \"--CODEGEN--\":5122:5128   */\n          dup3\n            /* \"--CODEGEN--\":5117:5120   */\n          dup3\n            /* \"--CODEGEN--\":5110:5129   */\n          mstore\n            /* \"--CODEGEN--\":5159:5163   */\n          0x20\n            /* \"--CODEGEN--\":5154:5157   */\n          dup3\n            /* \"--CODEGEN--\":5150:5164   */\n          add\n            /* \"--CODEGEN--\":5135:5164   */\n          swap1\n          pop\n            /* \"--CODEGEN--\":5103:5170   */\n          swap3\n          swap2\n          pop\n          pop\n          jump\t// out\n            /* \"--CODEGEN--\":5178:5269   */\n        tag_89:\n          0x00\n            /* \"--CODEGEN--\":5240:5264   */\n          tag_91\n            /* \"--CODEGEN--\":5258:5263   */\n          dup3\n            /* \"--CODEGEN--\":5240:5264   */\n          tag_92\n          jump\t// in\n        tag_91:\n            /* \"--CODEGEN--\":5229:5264   */\n          swap1\n          pop\n            /* \"--CODEGEN--\":5223:5269   */\n          swap2\n          swap1\n          pop\n          jump\t// out\n            /* \"--CODEGEN--\":5276:5397   */\n        tag_92:\n          0x00\n            /* \"--CODEGEN--\":5349:5391   */\n          0xffffffffffffffffffffffffffffffffffffffff\n            /* \"--CODEGEN--\":5342:5347   */\n          dup3\n            /* \"--CODEGEN--\":5338:5392   */\n          and\n            /* \"--CODEGEN--\":5327:5392   */\n          swap1\n          pop\n            /* \"--CODEGEN--\":5321:5397   */\n          swap2\n          swap1\n          pop\n          jump\t// out\n            /* \"--CODEGEN--\":5404:5476   */\n        tag_79:\n          0x00\n            /* \"--CODEGEN--\":5466:5471   */\n          dup2\n            /* \"--CODEGEN--\":5455:5471   */\n          swap1\n          pop\n            /* \"--CODEGEN--\":5449:5476   */\n          swap2\n          swap1\n          pop\n          jump\t// out\n            /* \"--CODEGEN--\":5484:5752   */\n        tag_46:\n            /* \"--CODEGEN--\":5549:5550   */\n          0x00\n            /* \"--CODEGEN--\":5556:5657   */\n        tag_96:\n            /* \"--CODEGEN--\":5570:5576   */\n          dup4\n            /* \"--CODEGEN--\":5567:5568   */\n          dup2\n            /* \"--CODEGEN--\":5564:5577   */\n          lt\n            /* \"--CODEGEN--\":5556:5657   */\n          iszero\n          tag_98\n          jumpi\n            /* \"--CODEGEN--\":5646:5647   */\n          dup1\n            /* \"--CODEGEN--\":5641:5644   */\n          dup3\n            /* \"--CODEGEN--\":5637:5648   */\n          add\n            /* \"--CODEGEN--\":5631:5649   */\n          mload\n            /* \"--CODEGEN--\":5627:5628   */\n          dup2\n            /* \"--CODEGEN--\":5622:5625   */\n          dup5\n            /* \"--CODEGEN--\":5618:5629   */\n          add\n            /* \"--CODEGEN--\":5611:5650   */\n          mstore\n            /* \"--CODEGEN--\":5592:5594   */\n          0x20\n            /* \"--CODEGEN--\":5589:5590   */\n          dup2\n            /* \"--CODEGEN--\":5585:5595   */\n          add\n            /* \"--CODEGEN--\":5580:5595   */\n          swap1\n          pop\n            /* \"--CODEGEN--\":5556:5657   */\n          jump(tag_96)\n        tag_98:\n            /* \"--CODEGEN--\":5672:5678   */\n          dup4\n            /* \"--CODEGEN--\":5669:5670   */\n          dup2\n            /* \"--CODEGEN--\":5666:5679   */\n          gt\n            /* \"--CODEGEN--\":5663:5665   */\n          iszero\n          tag_99\n          jumpi\n            /* \"--CODEGEN--\":5737:5738   */\n          0x00\n            /* \"--CODEGEN--\":5728:5734   */\n          dup5\n            /* \"--CODEGEN--\":5723:5726   */\n          dup5\n            /* \"--CODEGEN--\":5719:5735   */\n          add\n            /* \"--CODEGEN--\":5712:5739   */\n          mstore\n            /* \"--CODEGEN--\":5663:5665   */\n        tag_99:\n            /* \"--CODEGEN--\":5533:5752   */\n          pop\n          pop\n          pop\n          pop\n          jump\t// out\n            /* \"--CODEGEN--\":5760:5877   */\n        tag_36:\n            /* \"--CODEGEN--\":5829:5853   */\n          tag_101\n            /* \"--CODEGEN--\":5847:5852   */\n          dup2\n            /* \"--CODEGEN--\":5829:5853   */\n          tag_89\n          jump\t// in\n        tag_101:\n            /* \"--CODEGEN--\":5822:5827   */\n          dup2\n            /* \"--CODEGEN--\":5819:5854   */\n          eq\n            /* \"--CODEGEN--\":5809:5811   */\n          tag_102\n          jumpi\n            /* \"--CODEGEN--\":5868:5869   */\n          0x00\n            /* \"--CODEGEN--\":5865:5866   */\n          dup1\n            /* \"--CODEGEN--\":5858:5870   */\n          revert\n            /* \"--CODEGEN--\":5809:5811   */\n        tag_102:\n            /* \"--CODEGEN--\":5803:5877   */\n          pop\n          jump\t// out\n            /* \"--CODEGEN--\":5884:6001   */\n        tag_60:\n            /* \"--CODEGEN--\":5953:5977   */\n          tag_104\n            /* \"--CODEGEN--\":5971:5976   */\n          dup2\n            /* \"--CODEGEN--\":5953:5977   */\n          tag_79\n          jump\t// in\n        tag_104:\n            /* \"--CODEGEN--\":5946:5951   */\n          dup2\n            /* \"--CODEGEN--\":5943:5978   */\n          eq\n            /* \"--CODEGEN--\":5933:5935   */\n          tag_105\n          jumpi\n            /* \"--CODEGEN--\":5992:5993   */\n          0x00\n            /* \"--CODEGEN--\":5989:5990   */\n          dup1\n            /* \"--CODEGEN--\":5982:5994   */\n          revert\n            /* \"--CODEGEN--\":5933:5935   */\n        tag_105:\n            /* \"--CODEGEN--\":5927:6001   */\n          pop\n          jump\t// out\n            /* \"JLoansFactory.sol\":16401:18772  contract JLoanTokenPair is JLoanCommons, IJLoanTokenPair {\r... */\n        tag_22:\n          dataSize(sub_0)\n          dup1\n          dataOffset(sub_0)\n          0x00\n          codecopy\n          0x00\n          return\n        stop\n\n        sub_0: assembly {\n                /* \"JLoansFactory.sol\":16401:18772  contract JLoanTokenPair is JLoanCommons, IJLoanTokenPair {\r... */\n              mstore(0x40, 0x80)\n              jumpi(tag_1, lt(calldatasize, 0x04))\n              shr(0xe0, calldataload(0x00))\n              dup1\n              0x80cc0269\n              gt\n              tag_30\n              jumpi\n              dup1\n              0xc6cb6770\n              gt\n              tag_31\n              jumpi\n              dup1\n              0xeaf3a62e\n              gt\n              tag_32\n              jumpi\n              dup1\n              0xeaf3a62e\n              eq\n              tag_26\n              jumpi\n              dup1\n              0xf1a9af89\n              eq\n              tag_27\n              jumpi\n              dup1\n              0xf2fde38b\n              eq\n              tag_28\n              jumpi\n              dup1\n              0xfcbbd574\n              eq\n              tag_29\n              jumpi\n              jump(tag_1)\n            tag_32:\n              dup1\n              0xc6cb6770\n              eq\n              tag_23\n              jumpi\n              dup1\n              0xe5acc187\n              eq\n              tag_24\n              jumpi\n              dup1\n              0xeaea4fc9\n              eq\n              tag_25\n              jumpi\n              jump(tag_1)\n            tag_31:\n              dup1\n              0x94a83eeb\n              gt\n              tag_33\n              jumpi\n              dup1\n              0x94a83eeb\n              eq\n              tag_19\n              jumpi\n              dup1\n              0xa2df9b1f\n              eq\n              tag_20\n              jumpi\n              dup1\n              0xb2ca1805\n              eq\n              tag_21\n              jumpi\n              dup1\n              0xbad4a01f\n              eq\n              tag_22\n              jumpi\n              jump(tag_1)\n            tag_33:\n              dup1\n              0x80cc0269\n              eq\n              tag_16\n              jumpi\n              dup1\n              0x8a0dac21\n              eq\n              tag_17\n              jumpi\n              dup1\n              0x8da5cb5b\n              eq\n              tag_18\n              jumpi\n              jump(tag_1)\n            tag_30:\n              dup1\n              0x3cb85225\n              gt\n              tag_34\n              jumpi\n              dup1\n              0x68c8d54c\n              gt\n              tag_35\n              jumpi\n              dup1\n              0x68c8d54c\n              eq\n              tag_12\n              jumpi\n              dup1\n              0x6f9fb98a\n              eq\n              tag_13\n              jumpi\n              dup1\n              0x708196ae\n              eq\n              tag_14\n              jumpi\n              dup1\n              0x715018a6\n              eq\n              tag_15\n              jumpi\n              jump(tag_1)\n            tag_35:\n              dup1\n              0x3cb85225\n              eq\n              tag_9\n              jumpi\n              dup1\n              0x44dc7fbc\n              eq\n              tag_10\n              jumpi\n              dup1\n              0x5dc334bf\n              eq\n              tag_11\n              jumpi\n              jump(tag_1)\n            tag_34:\n              dup1\n              0x17634514\n              gt\n              tag_36\n              jumpi\n              dup1\n              0x17634514\n              eq\n              tag_5\n              jumpi\n              dup1\n              0x1cbd8380\n              eq\n              tag_6\n              jumpi\n              dup1\n              0x2a3d7c81\n              eq\n              tag_7\n              jumpi\n              dup1\n              0x3702e6cb\n              eq\n              tag_8\n              jumpi\n              jump(tag_1)\n            tag_36:\n              dup1\n              0x074ca966\n              eq\n              tag_2\n              jumpi\n              dup1\n              0x09e94d98\n              eq\n              tag_3\n              jumpi\n              dup1\n              0x0e031a94\n              eq\n              tag_4\n              jumpi\n            tag_1:\n              0x00\n              dup1\n              revert\n                /* \"JLoansFactory.sol\":12050:12074  Status public loanStatus */\n            tag_2:\n              callvalue\n              dup1\n              iszero\n              tag_37\n              jumpi\n              0x00\n              dup1\n              revert\n            tag_37:\n              pop\n              tag_38\n              tag_39\n              jump\t// in\n            tag_38:\n              mload(0x40)\n              tag_40\n              swap2\n              swap1\n              tag_41\n              jump\t// in\n            tag_40:\n              mload(0x40)\n              dup1\n              swap2\n              sub\n              swap1\n              return\n                /* \"JLoansFactory.sol\":12019:12043  params public loanParams */\n            tag_3:\n              callvalue\n              dup1\n              iszero\n              tag_42\n              jumpi\n              0x00\n              dup1\n              revert\n            tag_42:\n              pop\n              tag_43\n              tag_44\n              jump\t// in\n            tag_43:\n              mload(0x40)\n              tag_45\n              swap7\n              swap6\n              swap5\n              swap4\n              swap3\n              swap2\n              swap1\n              tag_46\n              jump\t// in\n            tag_45:\n              mload(0x40)\n              dup1\n              swap2\n              sub\n              swap1\n              return\n                /* \"JLoansFactory.sol\":12118:12137  uint public rpbRate */\n            tag_4:\n              callvalue\n              dup1\n              iszero\n              tag_47\n              jumpi\n              0x00\n              dup1\n              revert\n            tag_47:\n              pop\n              tag_48\n              tag_49\n              jump\t// in\n            tag_48:\n              mload(0x40)\n              tag_50\n              swap2\n              swap1\n              tag_51\n              jump\t// in\n            tag_50:\n              mload(0x40)\n              dup1\n              swap2\n              sub\n              swap1\n              return\n                /* \"JLoansFactory.sol\":12214:12239  uint public creationBlock */\n            tag_5:\n              callvalue\n              dup1\n              iszero\n              tag_52\n              jumpi\n              0x00\n              dup1\n              revert\n            tag_52:\n              pop\n              tag_53\n              tag_54\n              jump\t// in\n            tag_53:\n              mload(0x40)\n              tag_55\n              swap2\n              swap1\n              tag_51\n              jump\t// in\n            tag_55:\n              mload(0x40)\n              dup1\n              swap2\n              sub\n              swap1\n              return\n                /* \"JLoansFactory.sol\":12356:12383  uint public borrowerBalance */\n            tag_6:\n              callvalue\n              dup1\n              iszero\n              tag_56\n              jumpi\n              0x00\n              dup1\n              revert\n            tag_56:\n              pop\n              tag_57\n              tag_58\n              jump\t// in\n            tag_57:\n              mload(0x40)\n              tag_59\n              swap2\n              swap1\n              tag_51\n              jump\t// in\n            tag_59:\n              mload(0x40)\n              dup1\n              swap2\n              sub\n              swap1\n              return\n                /* \"JLoansFactory.sol\":12246:12274  uint public lastDepositBlock */\n            tag_7:\n              callvalue\n              dup1\n              iszero\n              tag_60\n              jumpi\n              0x00\n              dup1\n              revert\n            tag_60:\n              pop\n              tag_61\n              tag_62\n              jump\t// in\n            tag_61:\n              mload(0x40)\n              tag_63\n              swap2\n              swap1\n              tag_51\n              jump\t// in\n            tag_63:\n              mload(0x40)\n              dup1\n              swap2\n              sub\n              swap1\n              return\n                /* \"JLoansFactory.sol\":16548:16584  address public stableContractAddress */\n            tag_8:\n              callvalue\n              dup1\n              iszero\n              tag_64\n              jumpi\n              0x00\n              dup1\n              revert\n            tag_64:\n              pop\n              tag_65\n              tag_66\n              jump\t// in\n            tag_65:\n              mload(0x40)\n              tag_67\n              swap2\n              swap1\n              tag_68\n              jump\t// in\n            tag_67:\n              mload(0x40)\n              dup1\n              swap2\n              sub\n              swap1\n              return\n                /* \"JLoansFactory.sol\":16695:16727  IERC20 public cryptoFromBorrower */\n            tag_9:\n              callvalue\n              dup1\n              iszero\n              tag_69\n              jumpi\n              0x00\n              dup1\n              revert\n            tag_69:\n              pop\n              tag_70\n              tag_71\n              jump\t// in\n            tag_70:\n              mload(0x40)\n              tag_72\n              swap2\n              swap1\n              tag_73\n              jump\t// in\n            tag_72:\n              mload(0x40)\n              dup1\n              swap2\n              sub\n              swap1\n              return\n                /* \"JLoansFactory.sol\":16734:16764  IERC20 public cryptoFromLender */\n            tag_10:\n              callvalue\n              dup1\n              iszero\n              tag_74\n              jumpi\n              0x00\n              dup1\n              revert\n            tag_74:\n              pop\n              tag_75\n              tag_76\n              jump\t// in\n            tag_75:\n              mload(0x40)\n              tag_77\n              swap2\n              swap1\n              tag_73\n              jump\t// in\n            tag_77:\n              mload(0x40)\n              dup1\n              swap2\n              sub\n              swap1\n              return\n                /* \"JLoansFactory.sol\":13220:13503  function lenderAcceptance(address _lenderAddress) override external onlyOwner{\r... */\n            tag_11:\n              callvalue\n              dup1\n              iszero\n              tag_78\n              jumpi\n              0x00\n              dup1\n              revert\n            tag_78:\n              pop\n              tag_79\n              0x04\n              dup1\n              calldatasize\n              sub\n              dup2\n              add\n              swap1\n              tag_80\n              swap2\n              swap1\n              tag_81\n              jump\t// in\n            tag_80:\n              tag_82\n              jump\t// in\n            tag_79:\n              stop\n                /* \"JLoansFactory.sol\":16597:16635  string public chosenBorrowedCryptoName */\n            tag_12:\n              callvalue\n              dup1\n              iszero\n              tag_83\n              jumpi\n              0x00\n              dup1\n              revert\n            tag_83:\n              pop\n              tag_84\n              tag_85\n              jump\t// in\n            tag_84:\n              mload(0x40)\n              tag_86\n              swap2\n              swap1\n              tag_87\n              jump\t// in\n            tag_86:\n              mload(0x40)\n              dup1\n              swap2\n              sub\n              swap1\n              return\n                /* \"JLoansFactory.sol\":18498:18767  function getContractBalance() override external view returns (uint) {\r... */\n            tag_13:\n              callvalue\n              dup1\n              iszero\n              tag_88\n              jumpi\n              0x00\n              dup1\n              revert\n            tag_88:\n              pop\n              tag_89\n              tag_90\n              jump\t// in\n            tag_89:\n              mload(0x40)\n              tag_91\n              swap2\n              swap1\n              tag_51\n              jump\t// in\n            tag_91:\n              mload(0x40)\n              dup1\n              swap2\n              sub\n              swap1\n              return\n                /* \"JLoansFactory.sol\":13906:14201  function setNewStatus(uint _newStatus) override public onlyFactory {\r... */\n            tag_14:\n              callvalue\n              dup1\n              iszero\n              tag_92\n              jumpi\n              0x00\n              dup1\n              revert\n            tag_92:\n              pop\n              tag_93\n              0x04\n              dup1\n              calldatasize\n              sub\n              dup2\n              add\n              swap1\n              tag_94\n              swap2\n              swap1\n              tag_95\n              jump\t// in\n            tag_94:\n              tag_96\n              jump\t// in\n            tag_93:\n              stop\n                /* \"JLoansFactory.sol\":7953:8101  function renounceOwnership() public virtual onlyOwner {\r... */\n            tag_15:\n              callvalue\n              dup1\n              iszero\n              tag_97\n              jumpi\n              0x00\n              dup1\n              revert\n            tag_97:\n              pop\n              tag_98\n              tag_99\n              jump\t// in\n            tag_98:\n              stop\n                /* \"JLoansFactory.sol\":12087:12109  string public loanName */\n            tag_16:\n              callvalue\n              dup1\n              iszero\n              tag_100\n              jumpi\n              0x00\n              dup1\n              revert\n            tag_100:\n              pop\n              tag_101\n              tag_102\n              jump\t// in\n            tag_101:\n              mload(0x40)\n              tag_103\n              swap2\n              swap1\n              tag_87\n              jump\t// in\n            tag_103:\n              mload(0x40)\n              dup1\n              swap2\n              sub\n              swap1\n              return\n                /* \"JLoansFactory.sol\":12315:12347  uint public loanForeclosureBlock */\n            tag_17:\n              callvalue\n              dup1\n              iszero\n              tag_104\n              jumpi\n              0x00\n              dup1\n              revert\n            tag_104:\n              pop\n              tag_105\n              tag_106\n              jump\t// in\n            tag_105:\n              mload(0x40)\n              tag_107\n              swap2\n              swap1\n              tag_51\n              jump\t// in\n            tag_107:\n              mload(0x40)\n              dup1\n              swap2\n              sub\n              swap1\n              return\n                /* \"JLoansFactory.sol\":7311:7390  function owner() public view returns (address) {\r... */\n            tag_18:\n              callvalue\n              dup1\n              iszero\n              tag_108\n              jumpi\n              0x00\n              dup1\n              revert\n            tag_108:\n              pop\n              tag_109\n              tag_110\n              jump\t// in\n            tag_109:\n              mload(0x40)\n              tag_111\n              swap2\n              swap1\n              tag_68\n              jump\t// in\n            tag_111:\n              mload(0x40)\n              dup1\n              swap2\n              sub\n              swap1\n              return\n                /* \"JLoansFactory.sol\":13511:13764  function loanForeClosure() override external onlyOwner {\r... */\n            tag_19:\n              callvalue\n              dup1\n              iszero\n              tag_112\n              jumpi\n              0x00\n              dup1\n              revert\n            tag_112:\n              pop\n              tag_113\n              tag_114\n              jump\t// in\n            tag_113:\n              stop\n                /* \"JLoansFactory.sol\":12173:12205  uint public startCollateralRatio */\n            tag_20:\n              callvalue\n              dup1\n              iszero\n              tag_115\n              jumpi\n              0x00\n              dup1\n              revert\n            tag_115:\n              pop\n              tag_116\n              tag_117\n              jump\t// in\n            tag_116:\n              mload(0x40)\n              tag_118\n              swap2\n              swap1\n              tag_51\n              jump\t// in\n            tag_118:\n              mload(0x40)\n              dup1\n              swap2\n              sub\n              swap1\n              return\n                /* \"JLoansFactory.sol\":12281:12308  uint public loanActiveBlock */\n            tag_21:\n              callvalue\n              dup1\n              iszero\n              tag_119\n              jumpi\n              0x00\n              dup1\n              revert\n            tag_119:\n              pop\n              tag_120\n              tag_121\n              jump\t// in\n            tag_120:\n              mload(0x40)\n              tag_122\n              swap2\n              swap1\n              tag_51\n              jump\t// in\n            tag_122:\n              mload(0x40)\n              dup1\n              swap2\n              sub\n              swap1\n              return\n                /* \"JLoansFactory.sol\":17872:18490  function depositCollateral(uint _depositAmount) override public payable {\r... */\n            tag_22:\n              tag_123\n              0x04\n              dup1\n              calldatasize\n              sub\n              dup2\n              add\n              swap1\n              tag_124\n              swap2\n              swap1\n              tag_95\n              jump\t// in\n            tag_124:\n              tag_125\n              jump\t// in\n            tag_123:\n              stop\n                /* \"JLoansFactory.sol\":13772:13898  function setNewParams(params memory _newLoanParams) override public onlyFactory {\r... */\n            tag_23:\n              callvalue\n              dup1\n              iszero\n              tag_126\n              jumpi\n              0x00\n              dup1\n              revert\n            tag_126:\n              pop\n              tag_127\n              0x04\n              dup1\n              calldatasize\n              sub\n              dup2\n              add\n              swap1\n              tag_128\n              swap2\n              swap1\n              tag_129\n              jump\t// in\n            tag_128:\n              tag_130\n              jump\t// in\n            tag_127:\n              stop\n                /* \"JLoansFactory.sol\":16657:16686  uint public askedBorrowAmount */\n            tag_24:\n              callvalue\n              dup1\n              iszero\n              tag_131\n              jumpi\n              0x00\n              dup1\n              revert\n            tag_131:\n              pop\n              tag_132\n              tag_133\n              jump\t// in\n            tag_132:\n              mload(0x40)\n              tag_134\n              swap2\n              swap1\n              tag_51\n              jump\t// in\n            tag_134:\n              mload(0x40)\n              dup1\n              swap2\n              sub\n              swap1\n              return\n                /* \"JLoansFactory.sol\":17695:17862  function testToken(address _tkn) override external {\r... */\n            tag_25:\n              callvalue\n              dup1\n              iszero\n              tag_135\n              jumpi\n              0x00\n              dup1\n              revert\n            tag_135:\n              pop\n              tag_136\n              0x04\n              dup1\n              calldatasize\n              sub\n              dup2\n              add\n              swap1\n              tag_137\n              swap2\n              swap1\n              tag_81\n              jump\t// in\n            tag_137:\n              tag_138\n              jump\t// in\n            tag_136:\n              stop\n                /* \"JLoansFactory.sol\":12390:12415  uint public lenderBalance */\n            tag_26:\n              callvalue\n              dup1\n              iszero\n              tag_139\n              jumpi\n              0x00\n              dup1\n              revert\n            tag_139:\n              pop\n              tag_140\n              tag_141\n              jump\t// in\n            tag_140:\n              mload(0x40)\n              tag_142\n              swap2\n              swap1\n              tag_51\n              jump\t// in\n            tag_142:\n              mload(0x40)\n              dup1\n              swap2\n              sub\n              swap1\n              return\n                /* \"JLoansFactory.sol\":12144:12166  uint public startPrice */\n            tag_27:\n              callvalue\n              dup1\n              iszero\n              tag_143\n              jumpi\n              0x00\n              dup1\n              revert\n            tag_143:\n              pop\n              tag_144\n              tag_145\n              jump\t// in\n            tag_144:\n              mload(0x40)\n              tag_146\n              swap2\n              swap1\n              tag_51\n              jump\t// in\n            tag_146:\n              mload(0x40)\n              dup1\n              swap2\n              sub\n              swap1\n              return\n                /* \"JLoansFactory.sol\":8256:8500  function transferOwnership(address newOwner) public virtual onlyOwner {\r... */\n            tag_28:\n              callvalue\n              dup1\n              iszero\n              tag_147\n              jumpi\n              0x00\n              dup1\n              revert\n            tag_147:\n              pop\n              tag_148\n              0x04\n              dup1\n              calldatasize\n              sub\n              dup2\n              add\n              swap1\n              tag_149\n              swap2\n              swap1\n              tag_81\n              jump\t// in\n            tag_149:\n              tag_150\n              jump\t// in\n            tag_148:\n              stop\n                /* \"JLoansFactory.sol\":16501:16541  address public collateralContractAddress */\n            tag_29:\n              callvalue\n              dup1\n              iszero\n              tag_151\n              jumpi\n              0x00\n              dup1\n              revert\n            tag_151:\n              pop\n              tag_152\n              tag_153\n              jump\t// in\n            tag_152:\n              mload(0x40)\n              tag_154\n              swap2\n              swap1\n              tag_68\n              jump\t// in\n            tag_154:\n              mload(0x40)\n              dup1\n              swap2\n              sub\n              swap1\n              return\n                /* \"JLoansFactory.sol\":12050:12074  Status public loanStatus */\n            tag_39:\n              0x07\n              0x00\n              swap1\n              sload\n              swap1\n              0x0100\n              exp\n              swap1\n              div\n              0xff\n              and\n              dup2\n              jump\t// out\n                /* \"JLoansFactory.sol\":12019:12043  params public loanParams */\n            tag_44:\n              0x01\n              dup1\n              0x00\n              add\n              sload\n              swap1\n              dup1\n              0x01\n              add\n              sload\n              swap1\n              dup1\n              0x02\n              add\n              sload\n              swap1\n              dup1\n              0x03\n              add\n              sload\n              swap1\n              dup1\n              0x04\n              add\n              sload\n              swap1\n              dup1\n              0x05\n              add\n              sload\n              swap1\n              pop\n              dup7\n              jump\t// out\n                /* \"JLoansFactory.sol\":12118:12137  uint public rpbRate */\n            tag_49:\n              sload(0x09)\n              dup2\n              jump\t// out\n                /* \"JLoansFactory.sol\":12214:12239  uint public creationBlock */\n            tag_54:\n              sload(0x0c)\n              dup2\n              jump\t// out\n                /* \"JLoansFactory.sol\":12356:12383  uint public borrowerBalance */\n            tag_58:\n              sload(0x10)\n              dup2\n              jump\t// out\n                /* \"JLoansFactory.sol\":12246:12274  uint public lastDepositBlock */\n            tag_62:\n              sload(0x0d)\n              dup2\n              jump\t// out\n                /* \"JLoansFactory.sol\":16548:16584  address public stableContractAddress */\n            tag_66:\n              0x14\n              0x00\n              swap1\n              sload\n              swap1\n              0x0100\n              exp\n              swap1\n              div\n              0xffffffffffffffffffffffffffffffffffffffff\n              and\n              dup2\n              jump\t// out\n                /* \"JLoansFactory.sol\":16695:16727  IERC20 public cryptoFromBorrower */\n            tag_71:\n              0x17\n              0x00\n              swap1\n              sload\n              swap1\n              0x0100\n              exp\n              swap1\n              div\n              0xffffffffffffffffffffffffffffffffffffffff\n              and\n              dup2\n              jump\t// out\n                /* \"JLoansFactory.sol\":16734:16764  IERC20 public cryptoFromLender */\n            tag_76:\n              0x18\n              0x00\n              swap1\n              sload\n              swap1\n              0x0100\n              exp\n              swap1\n              div\n              0xffffffffffffffffffffffffffffffffffffffff\n              and\n              dup2\n              jump\t// out\n                /* \"JLoansFactory.sol\":13220:13503  function lenderAcceptance(address _lenderAddress) override external onlyOwner{\r... */\n            tag_82:\n                /* \"JLoansFactory.sol\":7533:7545  _msgSender() */\n              tag_156\n                /* \"JLoansFactory.sol\":7533:7543  _msgSender */\n              tag_157\n                /* \"JLoansFactory.sol\":7533:7545  _msgSender() */\n              jump\t// in\n            tag_156:\n                /* \"JLoansFactory.sol\":7523:7545  _owner == _msgSender() */\n              0xffffffffffffffffffffffffffffffffffffffff\n              and\n                /* \"JLoansFactory.sol\":7523:7529  _owner */\n              0x00\n              dup1\n              sload\n              swap1\n              0x0100\n              exp\n              swap1\n              div\n              0xffffffffffffffffffffffffffffffffffffffff\n              and\n                /* \"JLoansFactory.sol\":7523:7545  _owner == _msgSender() */\n              0xffffffffffffffffffffffffffffffffffffffff\n              and\n              eq\n                /* \"JLoansFactory.sol\":7515:7582  require(_owner == _msgSender(), \"Ownable: caller is not the owner\") */\n              tag_158\n              jumpi\n              mload(0x40)\n              0x08c379a000000000000000000000000000000000000000000000000000000000\n              dup2\n              mstore\n              0x04\n              add\n              tag_159\n              swap1\n              tag_160\n              jump\t// in\n            tag_159:\n              mload(0x40)\n              dup1\n              swap2\n              sub\n              swap1\n              revert\n            tag_158:\n                /* \"JLoansFactory.sol\":13342:13343  0 */\n              0x00\n                /* \"JLoansFactory.sol\":13316:13344  _lenderAddress != address(0) */\n              0xffffffffffffffffffffffffffffffffffffffff\n              and\n                /* \"JLoansFactory.sol\":13316:13330  _lenderAddress */\n              dup2\n                /* \"JLoansFactory.sol\":13316:13344  _lenderAddress != address(0) */\n              0xffffffffffffffffffffffffffffffffffffffff\n              and\n              eq\n              iszero\n                /* \"JLoansFactory.sol\":13308:13368  require(_lenderAddress != address(0), \"Address not allowed\") */\n              tag_162\n              jumpi\n              mload(0x40)\n              0x08c379a000000000000000000000000000000000000000000000000000000000\n              dup2\n              mstore\n              0x04\n              add\n              tag_163\n              swap1\n              tag_164\n              jump\t// in\n            tag_163:\n              mload(0x40)\n              dup1\n              swap2\n              sub\n              swap1\n              revert\n            tag_162:\n                /* \"JLoansFactory.sol\":13379:13383  this */\n              address\n                /* \"JLoansFactory.sol\":13379:13401  this.transferOwnership */\n              0xffffffffffffffffffffffffffffffffffffffff\n              and\n              0xf2fde38b\n                /* \"JLoansFactory.sol\":13402:13416  _lenderAddress */\n              dup3\n                /* \"JLoansFactory.sol\":13379:13417  this.transferOwnership(_lenderAddress) */\n              mload(0x40)\n              dup3\n              0xffffffff\n              and\n              0xe0\n              shl\n              dup2\n              mstore\n              0x04\n              add\n              tag_165\n              swap2\n              swap1\n              tag_68\n              jump\t// in\n            tag_165:\n              0x00\n              mload(0x40)\n              dup1\n              dup4\n              sub\n              dup2\n              0x00\n              dup8\n              dup1\n              extcodesize\n              iszero\n              dup1\n              iszero\n              tag_166\n              jumpi\n              0x00\n              dup1\n              revert\n            tag_166:\n              pop\n              gas\n              call\n              iszero\n              dup1\n              iszero\n              tag_168\n              jumpi\n              returndatasize\n              0x00\n              dup1\n              returndatacopy\n              revert(0x00, returndatasize)\n            tag_168:\n              pop\n              pop\n              pop\n              pop\n                /* \"JLoansFactory.sol\":13446:13458  block.number */\n              number\n                /* \"JLoansFactory.sol\":13428:13443  loanActiveBlock */\n              0x0e\n                /* \"JLoansFactory.sol\":13428:13458  loanActiveBlock = block.number */\n              dup2\n              swap1\n              sstore\n              pop\n                /* \"JLoansFactory.sol\":13482:13495  Status.active */\n              0x01\n                /* \"JLoansFactory.sol\":13469:13479  loanStatus */\n              0x07\n              0x00\n                /* \"JLoansFactory.sol\":13469:13495  loanStatus = Status.active */\n              0x0100\n              exp\n              dup2\n              sload\n              dup2\n              0xff\n              mul\n              not\n              and\n              swap1\n              dup4\n              0x04\n              dup2\n              gt\n              iszero\n              tag_169\n              jumpi\n              invalid\n            tag_169:\n              mul\n              or\n              swap1\n              sstore\n              pop\n                /* \"JLoansFactory.sol\":13220:13503  function lenderAcceptance(address _lenderAddress) override external onlyOwner{\r... */\n              pop\n              jump\t// out\n                /* \"JLoansFactory.sol\":16597:16635  string public chosenBorrowedCryptoName */\n            tag_85:\n              0x15\n              dup1\n              sload\n              0x01\n              dup2\n              0x01\n              and\n              iszero\n              0x0100\n              mul\n              sub\n              and\n              0x02\n              swap1\n              div\n              dup1\n              0x1f\n              add\n              0x20\n              dup1\n              swap2\n              div\n              mul\n              0x20\n              add\n              mload(0x40)\n              swap1\n              dup2\n              add\n              0x40\n              mstore\n              dup1\n              swap3\n              swap2\n              swap1\n              dup2\n              dup2\n              mstore\n              0x20\n              add\n              dup3\n              dup1\n              sload\n              0x01\n              dup2\n              0x01\n              and\n              iszero\n              0x0100\n              mul\n              sub\n              and\n              0x02\n              swap1\n              div\n              dup1\n              iszero\n              tag_170\n              jumpi\n              dup1\n              0x1f\n              lt\n              tag_171\n              jumpi\n              0x0100\n              dup1\n              dup4\n              sload\n              div\n              mul\n              dup4\n              mstore\n              swap2\n              0x20\n              add\n              swap2\n              jump(tag_170)\n            tag_171:\n              dup3\n              add\n              swap2\n              swap1\n              0x00\n              mstore\n              keccak256(0x00, 0x20)\n              swap1\n            tag_172:\n              dup2\n              sload\n              dup2\n              mstore\n              swap1\n              0x01\n              add\n              swap1\n              0x20\n              add\n              dup1\n              dup4\n              gt\n              tag_172\n              jumpi\n              dup3\n              swap1\n              sub\n              0x1f\n              and\n              dup3\n              add\n              swap2\n            tag_170:\n              pop\n              pop\n              pop\n              pop\n              pop\n              dup2\n              jump\t// out\n                /* \"JLoansFactory.sol\":18498:18767  function getContractBalance() override external view returns (uint) {\r... */\n            tag_90:\n                /* \"JLoansFactory.sol\":18560:18564  uint */\n              0x00\n                /* \"JLoansFactory.sol\":18621:18646  collateralContractAddress */\n              0x13\n              0x00\n              swap1\n              sload\n              swap1\n              0x0100\n              exp\n              swap1\n              div\n              0xffffffffffffffffffffffffffffffffffffffff\n              and\n                /* \"JLoansFactory.sol\":18582:18647  address(cryptoFromBorrower) == address(collateralContractAddress) */\n              0xffffffffffffffffffffffffffffffffffffffff\n              and\n                /* \"JLoansFactory.sol\":18590:18608  cryptoFromBorrower */\n              0x17\n              0x00\n              swap1\n              sload\n              swap1\n              0x0100\n              exp\n              swap1\n              div\n              0xffffffffffffffffffffffffffffffffffffffff\n              and\n                /* \"JLoansFactory.sol\":18582:18647  address(cryptoFromBorrower) == address(collateralContractAddress) */\n              0xffffffffffffffffffffffffffffffffffffffff\n              and\n              eq\n                /* \"JLoansFactory.sol\":18577:18760  if ( address(cryptoFromBorrower) == address(collateralContractAddress) ) {\r... */\n              iszero\n              tag_174\n              jumpi\n                /* \"JLoansFactory.sol\":18672:18687  borrowerBalance */\n              sload(0x10)\n                /* \"JLoansFactory.sol\":18665:18687  return borrowerBalance */\n              swap1\n              pop\n              jump(tag_173)\n                /* \"JLoansFactory.sol\":18577:18760  if ( address(cryptoFromBorrower) == address(collateralContractAddress) ) {\r... */\n            tag_174:\n                /* \"JLoansFactory.sol\":18727:18748  address(this).balance */\n              selfbalance\n                /* \"JLoansFactory.sol\":18720:18748  return address(this).balance */\n              swap1\n              pop\n                /* \"JLoansFactory.sol\":18498:18767  function getContractBalance() override external view returns (uint) {\r... */\n            tag_173:\n              swap1\n              jump\t// out\n                /* \"JLoansFactory.sol\":13906:14201  function setNewStatus(uint _newStatus) override public onlyFactory {\r... */\n            tag_96:\n                /* \"JLoansFactory.sol\":13154:13168  factoryAddress */\n              0x12\n              0x00\n              swap1\n              sload\n              swap1\n              0x0100\n              exp\n              swap1\n              div\n              0xffffffffffffffffffffffffffffffffffffffff\n              and\n                /* \"JLoansFactory.sol\":13140:13168  msg.sender == factoryAddress */\n              0xffffffffffffffffffffffffffffffffffffffff\n              and\n                /* \"JLoansFactory.sol\":13140:13150  msg.sender */\n              caller\n                /* \"JLoansFactory.sol\":13140:13168  msg.sender == factoryAddress */\n              0xffffffffffffffffffffffffffffffffffffffff\n              and\n              eq\n                /* \"JLoansFactory.sol\":13132:13192  require(msg.sender == factoryAddress, \"Address not allowed\") */\n              tag_177\n              jumpi\n              mload(0x40)\n              0x08c379a000000000000000000000000000000000000000000000000000000000\n              dup2\n              mstore\n              0x04\n              add\n              tag_178\n              swap1\n              tag_164\n              jump\t// in\n            tag_178:\n              mload(0x40)\n              dup1\n              swap2\n              sub\n              swap1\n              revert\n            tag_177:\n                /* \"JLoansFactory.sol\":14006:14007  0 */\n              0x00\n                /* \"JLoansFactory.sol\":13992:14002  _newStatus */\n              dup2\n                /* \"JLoansFactory.sol\":13992:14007  _newStatus >= 0 */\n              lt\n              iszero\n                /* \"JLoansFactory.sol\":13992:14026  _newStatus >= 0 && _newStatus <= 4 */\n              dup1\n              iszero\n              tag_180\n              jumpi\n              pop\n                /* \"JLoansFactory.sol\":14025:14026  4 */\n              0x04\n                /* \"JLoansFactory.sol\":14011:14021  _newStatus */\n              dup2\n                /* \"JLoansFactory.sol\":14011:14026  _newStatus <= 4 */\n              gt\n              iszero\n                /* \"JLoansFactory.sol\":13992:14026  _newStatus >= 0 && _newStatus <= 4 */\n            tag_180:\n                /* \"JLoansFactory.sol\":13984:14050  require(_newStatus >= 0 && _newStatus <= 4, \"New state not valid\") */\n              tag_181\n              jumpi\n              mload(0x40)\n              0x08c379a000000000000000000000000000000000000000000000000000000000\n              dup2\n              mstore\n              0x04\n              add\n              tag_182\n              swap1\n              tag_183\n              jump\t// in\n            tag_182:\n              mload(0x40)\n              dup1\n              swap2\n              sub\n              swap1\n              revert\n            tag_181:\n                /* \"JLoansFactory.sol\":14095:14105  loanStatus */\n              0x07\n              0x00\n              swap1\n              sload\n              swap1\n              0x0100\n              exp\n              swap1\n              div\n              0xff\n              and\n                /* \"JLoansFactory.sol\":14083:14107  uint(Status(loanStatus)) */\n              0x04\n              dup2\n              gt\n              iszero\n              tag_184\n              jumpi\n              invalid\n            tag_184:\n                /* \"JLoansFactory.sol\":14069:14079  _newStatus */\n              dup2\n                /* \"JLoansFactory.sol\":14069:14107  _newStatus != uint(Status(loanStatus)) */\n              eq\n              iszero\n                /* \"JLoansFactory.sol\":14061:14151  require(_newStatus != uint(Status(loanStatus)), \"New status is the same like present one\") */\n              tag_185\n              jumpi\n              mload(0x40)\n              0x08c379a000000000000000000000000000000000000000000000000000000000\n              dup2\n              mstore\n              0x04\n              add\n              tag_186\n              swap1\n              tag_187\n              jump\t// in\n            tag_186:\n              mload(0x40)\n              dup1\n              swap2\n              sub\n              swap1\n              revert\n            tag_185:\n                /* \"JLoansFactory.sol\":14182:14192  _newStatus */\n              dup1\n                /* \"JLoansFactory.sol\":14175:14193  Status(_newStatus) */\n              0x04\n              dup2\n              gt\n              iszero\n              tag_188\n              jumpi\n              invalid\n            tag_188:\n                /* \"JLoansFactory.sol\":14162:14172  loanStatus */\n              0x07\n              0x00\n                /* \"JLoansFactory.sol\":14162:14193  loanStatus = Status(_newStatus) */\n              0x0100\n              exp\n              dup2\n              sload\n              dup2\n              0xff\n              mul\n              not\n              and\n              swap1\n              dup4\n              0x04\n              dup2\n              gt\n              iszero\n              tag_189\n              jumpi\n              invalid\n            tag_189:\n              mul\n              or\n              swap1\n              sstore\n              pop\n                /* \"JLoansFactory.sol\":13906:14201  function setNewStatus(uint _newStatus) override public onlyFactory {\r... */\n              pop\n              jump\t// out\n                /* \"JLoansFactory.sol\":7953:8101  function renounceOwnership() public virtual onlyOwner {\r... */\n            tag_99:\n                /* \"JLoansFactory.sol\":7533:7545  _msgSender() */\n              tag_191\n                /* \"JLoansFactory.sol\":7533:7543  _msgSender */\n              tag_157\n                /* \"JLoansFactory.sol\":7533:7545  _msgSender() */\n              jump\t// in\n            tag_191:\n                /* \"JLoansFactory.sol\":7523:7545  _owner == _msgSender() */\n              0xffffffffffffffffffffffffffffffffffffffff\n              and\n                /* \"JLoansFactory.sol\":7523:7529  _owner */\n              0x00\n              dup1\n              sload\n              swap1\n              0x0100\n              exp\n              swap1\n              div\n              0xffffffffffffffffffffffffffffffffffffffff\n              and\n                /* \"JLoansFactory.sol\":7523:7545  _owner == _msgSender() */\n              0xffffffffffffffffffffffffffffffffffffffff\n              and\n              eq\n                /* \"JLoansFactory.sol\":7515:7582  require(_owner == _msgSender(), \"Ownable: caller is not the owner\") */\n              tag_192\n              jumpi\n              mload(0x40)\n              0x08c379a000000000000000000000000000000000000000000000000000000000\n              dup2\n              mstore\n              0x04\n              add\n              tag_193\n              swap1\n              tag_160\n              jump\t// in\n            tag_193:\n              mload(0x40)\n              dup1\n              swap2\n              sub\n              swap1\n              revert\n            tag_192:\n                /* \"JLoansFactory.sol\":8060:8061  0 */\n              0x00\n                /* \"JLoansFactory.sol\":8023:8063  OwnershipTransferred(_owner, address(0)) */\n              0xffffffffffffffffffffffffffffffffffffffff\n              and\n                /* \"JLoansFactory.sol\":8044:8050  _owner */\n              0x00\n              dup1\n              sload\n              swap1\n              0x0100\n              exp\n              swap1\n              div\n              0xffffffffffffffffffffffffffffffffffffffff\n              and\n                /* \"JLoansFactory.sol\":8023:8063  OwnershipTransferred(_owner, address(0)) */\n              0xffffffffffffffffffffffffffffffffffffffff\n              and\n              0x8be0079c531659141344cd1fd0a4f28419497f9722a3daafe3b4186f6b6457e0\n              mload(0x40)\n              mload(0x40)\n              dup1\n              swap2\n              sub\n              swap1\n              log3\n                /* \"JLoansFactory.sol\":8091:8092  0 */\n              0x00\n                /* \"JLoansFactory.sol\":8074:8080  _owner */\n              dup1\n              0x00\n                /* \"JLoansFactory.sol\":8074:8093  _owner = address(0) */\n              0x0100\n              exp\n              dup2\n              sload\n              dup2\n              0xffffffffffffffffffffffffffffffffffffffff\n              mul\n              not\n              and\n              swap1\n              dup4\n              0xffffffffffffffffffffffffffffffffffffffff\n              and\n              mul\n              or\n              swap1\n              sstore\n              pop\n                /* \"JLoansFactory.sol\":7953:8101  function renounceOwnership() public virtual onlyOwner {\r... */\n              jump\t// out\n                /* \"JLoansFactory.sol\":12087:12109  string public loanName */\n            tag_102:\n              0x08\n              dup1\n              sload\n              0x01\n              dup2\n              0x01\n              and\n              iszero\n              0x0100\n              mul\n              sub\n              and\n              0x02\n              swap1\n              div\n              dup1\n              0x1f\n              add\n              0x20\n              dup1\n              swap2\n              div\n              mul\n              0x20\n              add\n              mload(0x40)\n              swap1\n              dup2\n              add\n              0x40\n              mstore\n              dup1\n              swap3\n              swap2\n              swap1\n              dup2\n              dup2\n              mstore\n              0x20\n              add\n              dup3\n              dup1\n              sload\n              0x01\n              dup2\n              0x01\n              and\n              iszero\n              0x0100\n              mul\n              sub\n              and\n              0x02\n              swap1\n              div\n              dup1\n              iszero\n              tag_195\n              jumpi\n              dup1\n              0x1f\n              lt\n              tag_196\n              jumpi\n              0x0100\n              dup1\n              dup4\n              sload\n              div\n              mul\n              dup4\n              mstore\n              swap2\n              0x20\n              add\n              swap2\n              jump(tag_195)\n            tag_196:\n              dup3\n              add\n              swap2\n              swap1\n              0x00\n              mstore\n              keccak256(0x00, 0x20)\n              swap1\n            tag_197:\n              dup2\n              sload\n              dup2\n              mstore\n              swap1\n              0x01\n              add\n              swap1\n              0x20\n              add\n              dup1\n              dup4\n              gt\n              tag_197\n              jumpi\n              dup3\n              swap1\n              sub\n              0x1f\n              and\n              dup3\n              add\n              swap2\n            tag_195:\n              pop\n              pop\n              pop\n              pop\n              pop\n              dup2\n              jump\t// out\n                /* \"JLoansFactory.sol\":12315:12347  uint public loanForeclosureBlock */\n            tag_106:\n              sload(0x0f)\n              dup2\n              jump\t// out\n                /* \"JLoansFactory.sol\":7311:7390  function owner() public view returns (address) {\r... */\n            tag_110:\n                /* \"JLoansFactory.sol\":7349:7356  address */\n              0x00\n                /* \"JLoansFactory.sol\":7376:7382  _owner */\n              dup1\n              0x00\n              swap1\n              sload\n              swap1\n              0x0100\n              exp\n              swap1\n              div\n              0xffffffffffffffffffffffffffffffffffffffff\n              and\n                /* \"JLoansFactory.sol\":7369:7382  return _owner */\n              swap1\n              pop\n                /* \"JLoansFactory.sol\":7311:7390  function owner() public view returns (address) {\r... */\n              swap1\n              jump\t// out\n                /* \"JLoansFactory.sol\":13511:13764  function loanForeClosure() override external onlyOwner {\r... */\n            tag_114:\n                /* \"JLoansFactory.sol\":7533:7545  _msgSender() */\n              tag_200\n                /* \"JLoansFactory.sol\":7533:7543  _msgSender */\n              tag_157\n                /* \"JLoansFactory.sol\":7533:7545  _msgSender() */\n              jump\t// in\n            tag_200:\n                /* \"JLoansFactory.sol\":7523:7545  _owner == _msgSender() */\n              0xffffffffffffffffffffffffffffffffffffffff\n              and\n                /* \"JLoansFactory.sol\":7523:7529  _owner */\n              0x00\n              dup1\n              sload\n              swap1\n              0x0100\n              exp\n              swap1\n              div\n              0xffffffffffffffffffffffffffffffffffffffff\n              and\n                /* \"JLoansFactory.sol\":7523:7545  _owner == _msgSender() */\n              0xffffffffffffffffffffffffffffffffffffffff\n              and\n              eq\n                /* \"JLoansFactory.sol\":7515:7582  require(_owner == _msgSender(), \"Ownable: caller is not the owner\") */\n              tag_201\n              jumpi\n              mload(0x40)\n              0x08c379a000000000000000000000000000000000000000000000000000000000\n              dup2\n              mstore\n              0x04\n              add\n              tag_202\n              swap1\n              tag_160\n              jump\t// in\n            tag_202:\n              mload(0x40)\n              dup1\n              swap2\n              sub\n              swap1\n              revert\n            tag_201:\n                /* \"JLoansFactory.sol\":13599:13612  Status.active */\n              0x01\n                /* \"JLoansFactory.sol\":13585:13612  loanStatus == Status.active */\n              0x04\n              dup2\n              gt\n              iszero\n              tag_204\n              jumpi\n              invalid\n            tag_204:\n                /* \"JLoansFactory.sol\":13585:13595  loanStatus */\n              0x07\n              0x00\n              swap1\n              sload\n              swap1\n              0x0100\n              exp\n              swap1\n              div\n              0xff\n              and\n                /* \"JLoansFactory.sol\":13585:13612  loanStatus == Status.active */\n              0x04\n              dup2\n              gt\n              iszero\n              tag_205\n              jumpi\n              invalid\n            tag_205:\n              eq\n                /* \"JLoansFactory.sol\":13577:13668  require(loanStatus == Status.active, \"Loan status not compatible with foreclosing actions\") */\n              tag_206\n              jumpi\n              mload(0x40)\n              0x08c379a000000000000000000000000000000000000000000000000000000000\n              dup2\n              mstore\n              0x04\n              add\n              tag_207\n              swap1\n              tag_208\n              jump\t// in\n            tag_207:\n              mload(0x40)\n              dup1\n              swap2\n              sub\n              swap1\n              revert\n            tag_206:\n                /* \"JLoansFactory.sol\":13702:13714  block.number */\n              number\n                /* \"JLoansFactory.sol\":13679:13699  loanForeclosureBlock */\n              0x0f\n                /* \"JLoansFactory.sol\":13679:13714  loanForeclosureBlock = block.number */\n              dup2\n              swap1\n              sstore\n              pop\n                /* \"JLoansFactory.sol\":13738:13756  Status.foreclosing */\n              0x02\n                /* \"JLoansFactory.sol\":13725:13735  loanStatus */\n              0x07\n              0x00\n                /* \"JLoansFactory.sol\":13725:13756  loanStatus = Status.foreclosing */\n              0x0100\n              exp\n              dup2\n              sload\n              dup2\n              0xff\n              mul\n              not\n              and\n              swap1\n              dup4\n              0x04\n              dup2\n              gt\n              iszero\n              tag_209\n              jumpi\n              invalid\n            tag_209:\n              mul\n              or\n              swap1\n              sstore\n              pop\n                /* \"JLoansFactory.sol\":13511:13764  function loanForeClosure() override external onlyOwner {\r... */\n              jump\t// out\n                /* \"JLoansFactory.sol\":12173:12205  uint public startCollateralRatio */\n            tag_117:\n              sload(0x0b)\n              dup2\n              jump\t// out\n                /* \"JLoansFactory.sol\":12281:12308  uint public loanActiveBlock */\n            tag_121:\n              sload(0x0e)\n              dup2\n              jump\t// out\n                /* \"JLoansFactory.sol\":17872:18490  function depositCollateral(uint _depositAmount) override public payable {\r... */\n            tag_125:\n                /* \"JLoansFactory.sol\":17999:18024  collateralContractAddress */\n              0x13\n              0x00\n              swap1\n              sload\n              swap1\n              0x0100\n              exp\n              swap1\n              div\n              0xffffffffffffffffffffffffffffffffffffffff\n              and\n                /* \"JLoansFactory.sol\":17960:18025  address(cryptoFromBorrower) == address(collateralContractAddress) */\n              0xffffffffffffffffffffffffffffffffffffffff\n              and\n                /* \"JLoansFactory.sol\":17968:17986  cryptoFromBorrower */\n              0x17\n              0x00\n              swap1\n              sload\n              swap1\n              0x0100\n              exp\n              swap1\n              div\n              0xffffffffffffffffffffffffffffffffffffffff\n              and\n                /* \"JLoansFactory.sol\":17960:18025  address(cryptoFromBorrower) == address(collateralContractAddress) */\n              0xffffffffffffffffffffffffffffffffffffffff\n              and\n              eq\n                /* \"JLoansFactory.sol\":17955:18473  if ( address(cryptoFromBorrower) == address(collateralContractAddress) ) {\r... */\n              iszero\n              tag_211\n              jumpi\n                /* \"JLoansFactory.sol\":18095:18109  _depositAmount */\n              dup1\n                /* \"JLoansFactory.sol\":18051:18069  cryptoFromBorrower */\n              0x17\n              0x00\n              swap1\n              sload\n              swap1\n              0x0100\n              exp\n              swap1\n              div\n              0xffffffffffffffffffffffffffffffffffffffff\n              and\n                /* \"JLoansFactory.sol\":18051:18079  cryptoFromBorrower.balanceOf */\n              0xffffffffffffffffffffffffffffffffffffffff\n              and\n              0x70a08231\n                /* \"JLoansFactory.sol\":18080:18090  msg.sender */\n              caller\n                /* \"JLoansFactory.sol\":18051:18091  cryptoFromBorrower.balanceOf(msg.sender) */\n              mload(0x40)\n              dup3\n              0xffffffff\n              and\n              0xe0\n              shl\n              dup2\n              mstore\n              0x04\n              add\n              tag_212\n              swap2\n              swap1\n              tag_213\n              jump\t// in\n            tag_212:\n              0x20\n              mload(0x40)\n              dup1\n              dup4\n              sub\n              dup2\n              dup7\n              dup1\n              extcodesize\n              iszero\n              dup1\n              iszero\n              tag_214\n              jumpi\n              0x00\n              dup1\n              revert\n            tag_214:\n              pop\n              gas\n              staticcall\n              iszero\n              dup1\n              iszero\n              tag_216\n              jumpi\n              returndatasize\n              0x00\n              dup1\n              returndatacopy\n              revert(0x00, returndatasize)\n            tag_216:\n              pop\n              pop\n              pop\n              pop\n              mload(0x40)\n              returndatasize\n              not(0x1f)\n              0x1f\n              dup3\n              add\n              and\n              dup3\n              add\n              dup1\n              0x40\n              mstore\n              pop\n              dup2\n              add\n              swap1\n              tag_217\n              swap2\n              swap1\n              tag_218\n              jump\t// in\n            tag_217:\n                /* \"JLoansFactory.sol\":18051:18109  cryptoFromBorrower.balanceOf(msg.sender) >= _depositAmount */\n              lt\n              iszero\n                /* \"JLoansFactory.sol\":18043:18152  require(cryptoFromBorrower.balanceOf(msg.sender) >= _depositAmount, \"Not enough JNT tokens in sender wallet\") */\n              tag_219\n              jumpi\n              mload(0x40)\n              0x08c379a000000000000000000000000000000000000000000000000000000000\n              dup2\n              mstore\n              0x04\n              add\n              tag_220\n              swap1\n              tag_221\n              jump\t// in\n            tag_220:\n              mload(0x40)\n              dup1\n              swap2\n              sub\n              swap1\n              revert\n            tag_219:\n                /* \"JLoansFactory.sol\":18167:18185  cryptoFromBorrower */\n              0x17\n              0x00\n              swap1\n              sload\n              swap1\n              0x0100\n              exp\n              swap1\n              div\n              0xffffffffffffffffffffffffffffffffffffffff\n              and\n                /* \"JLoansFactory.sol\":18167:18198  cryptoFromBorrower.transferFrom */\n              0xffffffffffffffffffffffffffffffffffffffff\n              and\n              0x23b872dd\n                /* \"JLoansFactory.sol\":18199:18209  msg.sender */\n              caller\n                /* \"JLoansFactory.sol\":18219:18223  this */\n              address\n                /* \"JLoansFactory.sol\":18226:18240  _depositAmount */\n              dup5\n                /* \"JLoansFactory.sol\":18167:18241  cryptoFromBorrower.transferFrom(msg.sender, address(this), _depositAmount) */\n              mload(0x40)\n              dup5\n              0xffffffff\n              and\n              0xe0\n              shl\n              dup2\n              mstore\n              0x04\n              add\n              tag_222\n              swap4\n              swap3\n              swap2\n              swap1\n              tag_223\n              jump\t// in\n            tag_222:\n              0x20\n              mload(0x40)\n              dup1\n              dup4\n              sub\n              dup2\n              0x00\n              dup8\n              dup1\n              extcodesize\n              iszero\n              dup1\n              iszero\n              tag_224\n              jumpi\n              0x00\n              dup1\n              revert\n            tag_224:\n              pop\n              gas\n              call\n              iszero\n              dup1\n              iszero\n              tag_226\n              jumpi\n              returndatasize\n              0x00\n              dup1\n              returndatacopy\n              revert(0x00, returndatasize)\n            tag_226:\n              pop\n              pop\n              pop\n              pop\n              mload(0x40)\n              returndatasize\n              not(0x1f)\n              0x1f\n              dup3\n              add\n              and\n              dup3\n              add\n              dup1\n              0x40\n              mstore\n              pop\n              dup2\n              add\n              swap1\n              tag_227\n              swap2\n              swap1\n              tag_228\n              jump\t// in\n            tag_227:\n              pop\n                /* \"JLoansFactory.sol\":18274:18309  borrowerBalance.add(_depositAmount) */\n              tag_229\n                /* \"JLoansFactory.sol\":18294:18308  _depositAmount */\n              dup2\n                /* \"JLoansFactory.sol\":18274:18289  borrowerBalance */\n              sload(0x10)\n                /* \"JLoansFactory.sol\":18274:18293  borrowerBalance.add */\n              tag_230\n              swap1\n                /* \"JLoansFactory.sol\":18274:18309  borrowerBalance.add(_depositAmount) */\n              swap2\n              swap1\n              0xffffffff\n              and\n              jump\t// in\n            tag_229:\n                /* \"JLoansFactory.sol\":18256:18271  borrowerBalance */\n              0x10\n                /* \"JLoansFactory.sol\":18256:18309  borrowerBalance = borrowerBalance.add(_depositAmount) */\n              dup2\n              swap1\n              sstore\n              pop\n                /* \"JLoansFactory.sol\":18343:18355  block.number */\n              number\n                /* \"JLoansFactory.sol\":18324:18340  lastDepositBlock */\n              0x0d\n                /* \"JLoansFactory.sol\":18324:18355  lastDepositBlock = block.number */\n              dup2\n              swap1\n              sstore\n              pop\n                /* \"JLoansFactory.sol\":18375:18401  newDeposit(_depositAmount) */\n              0x3f478372607b68e147b903a0b92f830c8d6468755dc7ac8ac400b95f3d987e4f\n                /* \"JLoansFactory.sol\":18386:18400  _depositAmount */\n              dup2\n                /* \"JLoansFactory.sol\":18375:18401  newDeposit(_depositAmount) */\n              mload(0x40)\n              tag_231\n              swap2\n              swap1\n              tag_51\n              jump\t// in\n            tag_231:\n              mload(0x40)\n              dup1\n              swap2\n              sub\n              swap1\n              log1\n                /* \"JLoansFactory.sol\":17955:18473  if ( address(cryptoFromBorrower) == address(collateralContractAddress) ) {\r... */\n              jump(tag_232)\n            tag_211:\n                /* \"JLoansFactory.sol\":18433:18461  revert(\"Not accepted token\") */\n              mload(0x40)\n              0x08c379a000000000000000000000000000000000000000000000000000000000\n              dup2\n              mstore\n              0x04\n              add\n              tag_233\n              swap1\n              tag_234\n              jump\t// in\n            tag_233:\n              mload(0x40)\n              dup1\n              swap2\n              sub\n              swap1\n              revert\n                /* \"JLoansFactory.sol\":17955:18473  if ( address(cryptoFromBorrower) == address(collateralContractAddress) ) {\r... */\n            tag_232:\n                /* \"JLoansFactory.sol\":17872:18490  function depositCollateral(uint _depositAmount) override public payable {\r... */\n              pop\n              jump\t// out\n                /* \"JLoansFactory.sol\":13772:13898  function setNewParams(params memory _newLoanParams) override public onlyFactory {\r... */\n            tag_130:\n                /* \"JLoansFactory.sol\":13154:13168  factoryAddress */\n              0x12\n              0x00\n              swap1\n              sload\n              swap1\n              0x0100\n              exp\n              swap1\n              div\n              0xffffffffffffffffffffffffffffffffffffffff\n              and\n                /* \"JLoansFactory.sol\":13140:13168  msg.sender == factoryAddress */\n              0xffffffffffffffffffffffffffffffffffffffff\n              and\n                /* \"JLoansFactory.sol\":13140:13150  msg.sender */\n              caller\n                /* \"JLoansFactory.sol\":13140:13168  msg.sender == factoryAddress */\n              0xffffffffffffffffffffffffffffffffffffffff\n              and\n              eq\n                /* \"JLoansFactory.sol\":13132:13192  require(msg.sender == factoryAddress, \"Address not allowed\") */\n              tag_236\n              jumpi\n              mload(0x40)\n              0x08c379a000000000000000000000000000000000000000000000000000000000\n              dup2\n              mstore\n              0x04\n              add\n              tag_237\n              swap1\n              tag_164\n              jump\t// in\n            tag_237:\n              mload(0x40)\n              dup1\n              swap2\n              sub\n              swap1\n              revert\n            tag_236:\n                /* \"JLoansFactory.sol\":13876:13890  _newLoanParams */\n              dup1\n                /* \"JLoansFactory.sol\":13863:13873  loanParams */\n              0x01\n                /* \"JLoansFactory.sol\":13863:13890  loanParams = _newLoanParams */\n              0x00\n              dup3\n              add\n              mload\n              dup2\n              0x00\n              add\n              sstore\n              0x20\n              dup3\n              add\n              mload\n              dup2\n              0x01\n              add\n              sstore\n              0x40\n              dup3\n              add\n              mload\n              dup2\n              0x02\n              add\n              sstore\n              0x60\n              dup3\n              add\n              mload\n              dup2\n              0x03\n              add\n              sstore\n              0x80\n              dup3\n              add\n              mload\n              dup2\n              0x04\n              add\n              sstore\n              0xa0\n              dup3\n              add\n              mload\n              dup2\n              0x05\n              add\n              sstore\n              swap1\n              pop\n              pop\n                /* \"JLoansFactory.sol\":13772:13898  function setNewParams(params memory _newLoanParams) override public onlyFactory {\r... */\n              pop\n              jump\t// out\n                /* \"JLoansFactory.sol\":16657:16686  uint public askedBorrowAmount */\n            tag_133:\n              sload(0x16)\n              dup2\n              jump\t// out\n                /* \"JLoansFactory.sol\":17695:17862  function testToken(address _tkn) override external {\r... */\n            tag_138:\n                /* \"JLoansFactory.sol\":17785:17789  _tkn */\n              dup1\n                /* \"JLoansFactory.sol\":17757:17782  collateralContractAddress */\n              0x13\n              0x00\n                /* \"JLoansFactory.sol\":17757:17789  collateralContractAddress = _tkn */\n              0x0100\n              exp\n              dup2\n              sload\n              dup2\n              0xffffffffffffffffffffffffffffffffffffffff\n              mul\n              not\n              and\n              swap1\n              dup4\n              0xffffffffffffffffffffffffffffffffffffffff\n              and\n              mul\n              or\n              swap1\n              sstore\n              pop\n                /* \"JLoansFactory.sol\":17828:17853  collateralContractAddress */\n              0x13\n              0x00\n              swap1\n              sload\n              swap1\n              0x0100\n              exp\n              swap1\n              div\n              0xffffffffffffffffffffffffffffffffffffffff\n              and\n                /* \"JLoansFactory.sol\":17800:17818  cryptoFromBorrower */\n              0x17\n              0x00\n                /* \"JLoansFactory.sol\":17800:17854  cryptoFromBorrower = IERC20(collateralContractAddress) */\n              0x0100\n              exp\n              dup2\n              sload\n              dup2\n              0xffffffffffffffffffffffffffffffffffffffff\n              mul\n              not\n              and\n              swap1\n              dup4\n              0xffffffffffffffffffffffffffffffffffffffff\n              and\n              mul\n              or\n              swap1\n              sstore\n              pop\n                /* \"JLoansFactory.sol\":17695:17862  function testToken(address _tkn) override external {\r... */\n              pop\n              jump\t// out\n                /* \"JLoansFactory.sol\":12390:12415  uint public lenderBalance */\n            tag_141:\n              sload(0x11)\n              dup2\n              jump\t// out\n                /* \"JLoansFactory.sol\":12144:12166  uint public startPrice */\n            tag_145:\n              sload(0x0a)\n              dup2\n              jump\t// out\n                /* \"JLoansFactory.sol\":8256:8500  function transferOwnership(address newOwner) public virtual onlyOwner {\r... */\n            tag_150:\n                /* \"JLoansFactory.sol\":7533:7545  _msgSender() */\n              tag_241\n                /* \"JLoansFactory.sol\":7533:7543  _msgSender */\n              tag_157\n                /* \"JLoansFactory.sol\":7533:7545  _msgSender() */\n              jump\t// in\n            tag_241:\n                /* \"JLoansFactory.sol\":7523:7545  _owner == _msgSender() */\n              0xffffffffffffffffffffffffffffffffffffffff\n              and\n                /* \"JLoansFactory.sol\":7523:7529  _owner */\n              0x00\n              dup1\n              sload\n              swap1\n              0x0100\n              exp\n              swap1\n              div\n              0xffffffffffffffffffffffffffffffffffffffff\n              and\n                /* \"JLoansFactory.sol\":7523:7545  _owner == _msgSender() */\n              0xffffffffffffffffffffffffffffffffffffffff\n              and\n              eq\n                /* \"JLoansFactory.sol\":7515:7582  require(_owner == _msgSender(), \"Ownable: caller is not the owner\") */\n              tag_242\n              jumpi\n              mload(0x40)\n              0x08c379a000000000000000000000000000000000000000000000000000000000\n              dup2\n              mstore\n              0x04\n              add\n              tag_243\n              swap1\n              tag_160\n              jump\t// in\n            tag_243:\n              mload(0x40)\n              dup1\n              swap2\n              sub\n              swap1\n              revert\n            tag_242:\n                /* \"JLoansFactory.sol\":8365:8366  0 */\n              0x00\n                /* \"JLoansFactory.sol\":8345:8367  newOwner != address(0) */\n              0xffffffffffffffffffffffffffffffffffffffff\n              and\n                /* \"JLoansFactory.sol\":8345:8353  newOwner */\n              dup2\n                /* \"JLoansFactory.sol\":8345:8367  newOwner != address(0) */\n              0xffffffffffffffffffffffffffffffffffffffff\n              and\n              eq\n              iszero\n                /* \"JLoansFactory.sol\":8337:8410  require(newOwner != address(0), \"Ownable: new owner is the zero address\") */\n              tag_245\n              jumpi\n              mload(0x40)\n              0x08c379a000000000000000000000000000000000000000000000000000000000\n              dup2\n              mstore\n              0x04\n              add\n              tag_246\n              swap1\n              tag_247\n              jump\t// in\n            tag_246:\n              mload(0x40)\n              dup1\n              swap2\n              sub\n              swap1\n              revert\n            tag_245:\n                /* \"JLoansFactory.sol\":8455:8463  newOwner */\n              dup1\n                /* \"JLoansFactory.sol\":8426:8464  OwnershipTransferred(_owner, newOwner) */\n              0xffffffffffffffffffffffffffffffffffffffff\n              and\n                /* \"JLoansFactory.sol\":8447:8453  _owner */\n              0x00\n              dup1\n              sload\n              swap1\n              0x0100\n              exp\n              swap1\n              div\n              0xffffffffffffffffffffffffffffffffffffffff\n              and\n                /* \"JLoansFactory.sol\":8426:8464  OwnershipTransferred(_owner, newOwner) */\n              0xffffffffffffffffffffffffffffffffffffffff\n              and\n              0x8be0079c531659141344cd1fd0a4f28419497f9722a3daafe3b4186f6b6457e0\n              mload(0x40)\n              mload(0x40)\n              dup1\n              swap2\n              sub\n              swap1\n              log3\n                /* \"JLoansFactory.sol\":8484:8492  newOwner */\n              dup1\n                /* \"JLoansFactory.sol\":8475:8481  _owner */\n              0x00\n              dup1\n                /* \"JLoansFactory.sol\":8475:8492  _owner = newOwner */\n              0x0100\n              exp\n              dup2\n              sload\n              dup2\n              0xffffffffffffffffffffffffffffffffffffffff\n              mul\n              not\n              and\n              swap1\n              dup4\n              0xffffffffffffffffffffffffffffffffffffffff\n              and\n              mul\n              or\n              swap1\n              sstore\n              pop\n                /* \"JLoansFactory.sol\":8256:8500  function transferOwnership(address newOwner) public virtual onlyOwner {\r... */\n              pop\n              jump\t// out\n                /* \"JLoansFactory.sol\":16501:16541  address public collateralContractAddress */\n            tag_153:\n              0x13\n              0x00\n              swap1\n              sload\n              swap1\n              0x0100\n              exp\n              swap1\n              div\n              0xffffffffffffffffffffffffffffffffffffffff\n              and\n              dup2\n              jump\t// out\n                /* \"JLoansFactory.sol\":5945:6051  function _msgSender() internal view virtual returns (address payable) {\r... */\n            tag_157:\n                /* \"JLoansFactory.sol\":5998:6013  address payable */\n              0x00\n                /* \"JLoansFactory.sol\":6033:6043  msg.sender */\n              caller\n                /* \"JLoansFactory.sol\":6026:6043  return msg.sender */\n              swap1\n              pop\n                /* \"JLoansFactory.sol\":5945:6051  function _msgSender() internal view virtual returns (address payable) {\r... */\n              swap1\n              jump\t// out\n                /* \"JLoansFactory.sol\":938:1119  function add(uint256 a, uint256 b) internal pure returns (uint256) {\r... */\n            tag_230:\n                /* \"JLoansFactory.sol\":996:1003  uint256 */\n              0x00\n                /* \"JLoansFactory.sol\":1016:1025  uint256 c */\n              dup1\n                /* \"JLoansFactory.sol\":1032:1033  b */\n              dup3\n                /* \"JLoansFactory.sol\":1028:1029  a */\n              dup5\n                /* \"JLoansFactory.sol\":1028:1033  a + b */\n              add\n                /* \"JLoansFactory.sol\":1016:1033  uint256 c = a + b */\n              swap1\n              pop\n                /* \"JLoansFactory.sol\":1057:1058  a */\n              dup4\n                /* \"JLoansFactory.sol\":1052:1053  c */\n              dup2\n                /* \"JLoansFactory.sol\":1052:1058  c >= a */\n              lt\n              iszero\n                /* \"JLoansFactory.sol\":1044:1090  require(c >= a, \"SafeMath: addition overflow\") */\n              tag_250\n              jumpi\n              mload(0x40)\n              0x08c379a000000000000000000000000000000000000000000000000000000000\n              dup2\n              mstore\n              0x04\n              add\n              tag_251\n              swap1\n              tag_252\n              jump\t// in\n            tag_251:\n              mload(0x40)\n              dup1\n              swap2\n              sub\n              swap1\n              revert\n            tag_250:\n                /* \"JLoansFactory.sol\":1110:1111  c */\n              dup1\n                /* \"JLoansFactory.sol\":1103:1111  return c */\n              swap2\n              pop\n              pop\n                /* \"JLoansFactory.sol\":938:1119  function add(uint256 a, uint256 b) internal pure returns (uint256) {\r... */\n              swap3\n              swap2\n              pop\n              pop\n              jump\t// out\n                /* \"--CODEGEN--\":5:135   */\n            tag_254:\n              0x00\n                /* \"--CODEGEN--\":85:91   */\n              dup2\n                /* \"--CODEGEN--\":72:92   */\n              calldataload\n                /* \"--CODEGEN--\":63:92   */\n              swap1\n              pop\n                /* \"--CODEGEN--\":97:130   */\n              tag_256\n                /* \"--CODEGEN--\":124:129   */\n              dup2\n                /* \"--CODEGEN--\":97:130   */\n              tag_257\n              jump\t// in\n            tag_256:\n                /* \"--CODEGEN--\":57:135   */\n              swap3\n              swap2\n              pop\n              pop\n              jump\t// out\n                /* \"--CODEGEN--\":142:270   */\n            tag_258:\n              0x00\n                /* \"--CODEGEN--\":223:229   */\n              dup2\n                /* \"--CODEGEN--\":217:230   */\n              mload\n                /* \"--CODEGEN--\":208:230   */\n              swap1\n              pop\n                /* \"--CODEGEN--\":235:265   */\n              tag_260\n                /* \"--CODEGEN--\":259:264   */\n              dup2\n                /* \"--CODEGEN--\":235:265   */\n              tag_261\n              jump\t// in\n            tag_260:\n                /* \"--CODEGEN--\":202:270   */\n              swap3\n              swap2\n              pop\n              pop\n              jump\t// out\n                /* \"--CODEGEN--\":311:1435   */\n            tag_262:\n              0x00\n                /* \"--CODEGEN--\":423:427   */\n              0xc0\n                /* \"--CODEGEN--\":411:420   */\n              dup3\n                /* \"--CODEGEN--\":406:409   */\n              dup5\n                /* \"--CODEGEN--\":402:421   */\n              sub\n                /* \"--CODEGEN--\":398:428   */\n              slt\n                /* \"--CODEGEN--\":395:397   */\n              iszero\n              tag_264\n              jumpi\n                /* \"--CODEGEN--\":441:442   */\n              0x00\n                /* \"--CODEGEN--\":438:439   */\n              dup1\n                /* \"--CODEGEN--\":431:443   */\n              revert\n                /* \"--CODEGEN--\":395:397   */\n            tag_264:\n                /* \"--CODEGEN--\":459:479   */\n              tag_265\n                /* \"--CODEGEN--\":474:478   */\n              0xc0\n                /* \"--CODEGEN--\":459:479   */\n              tag_266\n              jump\t// in\n            tag_265:\n                /* \"--CODEGEN--\":450:479   */\n              swap1\n              pop\n                /* \"--CODEGEN--\":535:536   */\n              0x00\n                /* \"--CODEGEN--\":567:616   */\n              tag_267\n                /* \"--CODEGEN--\":612:615   */\n              dup5\n                /* \"--CODEGEN--\":603:609   */\n              dup3\n                /* \"--CODEGEN--\":592:601   */\n              dup6\n                /* \"--CODEGEN--\":588:610   */\n              add\n                /* \"--CODEGEN--\":567:616   */\n              tag_268\n              jump\t// in\n            tag_267:\n                /* \"--CODEGEN--\":560:564   */\n              0x00\n                /* \"--CODEGEN--\":553:558   */\n              dup4\n                /* \"--CODEGEN--\":549:565   */\n              add\n                /* \"--CODEGEN--\":542:617   */\n              mstore\n                /* \"--CODEGEN--\":489:628   */\n              pop\n                /* \"--CODEGEN--\":695:697   */\n              0x20\n                /* \"--CODEGEN--\":728:777   */\n              tag_269\n                /* \"--CODEGEN--\":773:776   */\n              dup5\n                /* \"--CODEGEN--\":764:770   */\n              dup3\n                /* \"--CODEGEN--\":753:762   */\n              dup6\n                /* \"--CODEGEN--\":749:771   */\n              add\n                /* \"--CODEGEN--\":728:777   */\n              tag_268\n              jump\t// in\n            tag_269:\n                /* \"--CODEGEN--\":721:725   */\n              0x20\n                /* \"--CODEGEN--\":714:719   */\n              dup4\n                /* \"--CODEGEN--\":710:726   */\n              add\n                /* \"--CODEGEN--\":703:778   */\n              mstore\n                /* \"--CODEGEN--\":638:789   */\n              pop\n                /* \"--CODEGEN--\":852:854   */\n              0x40\n                /* \"--CODEGEN--\":885:934   */\n              tag_270\n                /* \"--CODEGEN--\":930:933   */\n              dup5\n                /* \"--CODEGEN--\":921:927   */\n              dup3\n                /* \"--CODEGEN--\":910:919   */\n              dup6\n                /* \"--CODEGEN--\":906:928   */\n              add\n                /* \"--CODEGEN--\":885:934   */\n              tag_268\n              jump\t// in\n            tag_270:\n                /* \"--CODEGEN--\":878:882   */\n              0x40\n                /* \"--CODEGEN--\":871:876   */\n              dup4\n                /* \"--CODEGEN--\":867:883   */\n              add\n                /* \"--CODEGEN--\":860:935   */\n              mstore\n                /* \"--CODEGEN--\":799:946   */\n              pop\n                /* \"--CODEGEN--\":1008:1010   */\n              0x60\n                /* \"--CODEGEN--\":1041:1090   */\n              tag_271\n                /* \"--CODEGEN--\":1086:1089   */\n              dup5\n                /* \"--CODEGEN--\":1077:1083   */\n              dup3\n                /* \"--CODEGEN--\":1066:1075   */\n              dup6\n                /* \"--CODEGEN--\":1062:1084   */\n              add\n                /* \"--CODEGEN--\":1041:1090   */\n              tag_268\n              jump\t// in\n            tag_271:\n                /* \"--CODEGEN--\":1034:1038   */\n              0x60\n                /* \"--CODEGEN--\":1027:1032   */\n              dup4\n                /* \"--CODEGEN--\":1023:1039   */\n              add\n                /* \"--CODEGEN--\":1016:1091   */\n              mstore\n                /* \"--CODEGEN--\":956:1102   */\n              pop\n                /* \"--CODEGEN--\":1171:1174   */\n              0x80\n                /* \"--CODEGEN--\":1205:1254   */\n              tag_272\n                /* \"--CODEGEN--\":1250:1253   */\n              dup5\n                /* \"--CODEGEN--\":1241:1247   */\n              dup3\n                /* \"--CODEGEN--\":1230:1239   */\n              dup6\n                /* \"--CODEGEN--\":1226:1248   */\n              add\n                /* \"--CODEGEN--\":1205:1254   */\n              tag_268\n              jump\t// in\n            tag_272:\n                /* \"--CODEGEN--\":1198:1202   */\n              0x80\n                /* \"--CODEGEN--\":1191:1196   */\n              dup4\n                /* \"--CODEGEN--\":1187:1203   */\n              add\n                /* \"--CODEGEN--\":1180:1255   */\n              mstore\n                /* \"--CODEGEN--\":1112:1266   */\n              pop\n                /* \"--CODEGEN--\":1330:1333   */\n              0xa0\n                /* \"--CODEGEN--\":1364:1413   */\n              tag_273\n                /* \"--CODEGEN--\":1409:1412   */\n              dup5\n                /* \"--CODEGEN--\":1400:1406   */\n              dup3\n                /* \"--CODEGEN--\":1389:1398   */\n              dup6\n                /* \"--CODEGEN--\":1385:1407   */\n              add\n                /* \"--CODEGEN--\":1364:1413   */\n              tag_268\n              jump\t// in\n            tag_273:\n                /* \"--CODEGEN--\":1357:1361   */\n              0xa0\n                /* \"--CODEGEN--\":1350:1355   */\n              dup4\n                /* \"--CODEGEN--\":1346:1362   */\n              add\n                /* \"--CODEGEN--\":1339:1414   */\n              mstore\n                /* \"--CODEGEN--\":1276:1425   */\n              pop\n                /* \"--CODEGEN--\":389:1435   */\n              swap3\n              swap2\n              pop\n              pop\n              jump\t// out\n                /* \"--CODEGEN--\":1442:1572   */\n            tag_268:\n              0x00\n                /* \"--CODEGEN--\":1522:1528   */\n              dup2\n                /* \"--CODEGEN--\":1509:1529   */\n              calldataload\n                /* \"--CODEGEN--\":1500:1529   */\n              swap1\n              pop\n                /* \"--CODEGEN--\":1534:1567   */\n              tag_275\n                /* \"--CODEGEN--\":1561:1566   */\n              dup2\n                /* \"--CODEGEN--\":1534:1567   */\n              tag_276\n              jump\t// in\n            tag_275:\n                /* \"--CODEGEN--\":1494:1572   */\n              swap3\n              swap2\n              pop\n              pop\n              jump\t// out\n                /* \"--CODEGEN--\":1579:1713   */\n            tag_277:\n              0x00\n                /* \"--CODEGEN--\":1663:1669   */\n              dup2\n                /* \"--CODEGEN--\":1657:1670   */\n              mload\n                /* \"--CODEGEN--\":1648:1670   */\n              swap1\n              pop\n                /* \"--CODEGEN--\":1675:1708   */\n              tag_279\n                /* \"--CODEGEN--\":1702:1707   */\n              dup2\n                /* \"--CODEGEN--\":1675:1708   */\n              tag_276\n              jump\t// in\n            tag_279:\n                /* \"--CODEGEN--\":1642:1713   */\n              swap3\n              swap2\n              pop\n              pop\n              jump\t// out\n                /* \"--CODEGEN--\":1720:1961   */\n            tag_81:\n              0x00\n                /* \"--CODEGEN--\":1824:1826   */\n              0x20\n                /* \"--CODEGEN--\":1812:1821   */\n              dup3\n                /* \"--CODEGEN--\":1803:1810   */\n              dup5\n                /* \"--CODEGEN--\":1799:1822   */\n              sub\n                /* \"--CODEGEN--\":1795:1827   */\n              slt\n                /* \"--CODEGEN--\":1792:1794   */\n              iszero\n              tag_281\n              jumpi\n                /* \"--CODEGEN--\":1840:1841   */\n              0x00\n                /* \"--CODEGEN--\":1837:1838   */\n              dup1\n                /* \"--CODEGEN--\":1830:1842   */\n              revert\n                /* \"--CODEGEN--\":1792:1794   */\n            tag_281:\n                /* \"--CODEGEN--\":1875:1876   */\n              0x00\n                /* \"--CODEGEN--\":1892:1945   */\n              tag_282\n                /* \"--CODEGEN--\":1937:1944   */\n              dup5\n                /* \"--CODEGEN--\":1928:1934   */\n              dup3\n                /* \"--CODEGEN--\":1917:1926   */\n              dup6\n                /* \"--CODEGEN--\":1913:1935   */\n              add\n                /* \"--CODEGEN--\":1892:1945   */\n              tag_254\n              jump\t// in\n            tag_282:\n                /* \"--CODEGEN--\":1882:1945   */\n              swap2\n              pop\n                /* \"--CODEGEN--\":1854:1951   */\n              pop\n                /* \"--CODEGEN--\":1786:1961   */\n              swap3\n              swap2\n              pop\n              pop\n              jump\t// out\n                /* \"--CODEGEN--\":1968:2225   */\n            tag_228:\n              0x00\n                /* \"--CODEGEN--\":2080:2082   */\n              0x20\n                /* \"--CODEGEN--\":2068:2077   */\n              dup3\n                /* \"--CODEGEN--\":2059:2066   */\n              dup5\n                /* \"--CODEGEN--\":2055:2078   */\n              sub\n                /* \"--CODEGEN--\":2051:2083   */\n              slt\n                /* \"--CODEGEN--\":2048:2050   */\n              iszero\n              tag_284\n              jumpi\n                /* \"--CODEGEN--\":2096:2097   */\n              0x00\n                /* \"--CODEGEN--\":2093:2094   */\n              dup1\n                /* \"--CODEGEN--\":2086:2098   */\n              revert\n                /* \"--CODEGEN--\":2048:2050   */\n            tag_284:\n                /* \"--CODEGEN--\":2131:2132   */\n              0x00\n                /* \"--CODEGEN--\":2148:2209   */\n              tag_285\n                /* \"--CODEGEN--\":2201:2208   */\n              dup5\n                /* \"--CODEGEN--\":2192:2198   */\n              dup3\n                /* \"--CODEGEN--\":2181:2190   */\n              dup6\n                /* \"--CODEGEN--\":2177:2199   */\n              add\n                /* \"--CODEGEN--\":2148:2209   */\n              tag_258\n              jump\t// in\n            tag_285:\n                /* \"--CODEGEN--\":2138:2209   */\n              swap2\n              pop\n                /* \"--CODEGEN--\":2110:2215   */\n              pop\n                /* \"--CODEGEN--\":2042:2225   */\n              swap3\n              swap2\n              pop\n              pop\n              jump\t// out\n                /* \"--CODEGEN--\":2232:2520   */\n            tag_129:\n              0x00\n                /* \"--CODEGEN--\":2359:2362   */\n              0xc0\n                /* \"--CODEGEN--\":2347:2356   */\n              dup3\n                /* \"--CODEGEN--\":2338:2345   */\n              dup5\n                /* \"--CODEGEN--\":2334:2357   */\n              sub\n                /* \"--CODEGEN--\":2330:2363   */\n              slt\n                /* \"--CODEGEN--\":2327:2329   */\n              iszero\n              tag_287\n              jumpi\n                /* \"--CODEGEN--\":2376:2377   */\n              0x00\n                /* \"--CODEGEN--\":2373:2374   */\n              dup1\n                /* \"--CODEGEN--\":2366:2378   */\n              revert\n                /* \"--CODEGEN--\":2327:2329   */\n            tag_287:\n                /* \"--CODEGEN--\":2411:2412   */\n              0x00\n                /* \"--CODEGEN--\":2428:2504   */\n              tag_288\n                /* \"--CODEGEN--\":2496:2503   */\n              dup5\n                /* \"--CODEGEN--\":2487:2493   */\n              dup3\n                /* \"--CODEGEN--\":2476:2485   */\n              dup6\n                /* \"--CODEGEN--\":2472:2494   */\n              add\n                /* \"--CODEGEN--\":2428:2504   */\n              tag_262\n              jump\t// in\n            tag_288:\n                /* \"--CODEGEN--\":2418:2504   */\n              swap2\n              pop\n                /* \"--CODEGEN--\":2390:2510   */\n              pop\n                /* \"--CODEGEN--\":2321:2520   */\n              swap3\n              swap2\n              pop\n              pop\n              jump\t// out\n                /* \"--CODEGEN--\":2527:2768   */\n            tag_95:\n              0x00\n                /* \"--CODEGEN--\":2631:2633   */\n              0x20\n                /* \"--CODEGEN--\":2619:2628   */\n              dup3\n                /* \"--CODEGEN--\":2610:2617   */\n              dup5\n                /* \"--CODEGEN--\":2606:2629   */\n              sub\n                /* \"--CODEGEN--\":2602:2634   */\n              slt\n                /* \"--CODEGEN--\":2599:2601   */\n              iszero\n              tag_290\n              jumpi\n                /* \"--CODEGEN--\":2647:2648   */\n              0x00\n                /* \"--CODEGEN--\":2644:2645   */\n              dup1\n                /* \"--CODEGEN--\":2637:2649   */\n              revert\n                /* \"--CODEGEN--\":2599:2601   */\n            tag_290:\n                /* \"--CODEGEN--\":2682:2683   */\n              0x00\n                /* \"--CODEGEN--\":2699:2752   */\n              tag_291\n                /* \"--CODEGEN--\":2744:2751   */\n              dup5\n                /* \"--CODEGEN--\":2735:2741   */\n              dup3\n                /* \"--CODEGEN--\":2724:2733   */\n              dup6\n                /* \"--CODEGEN--\":2720:2742   */\n              add\n                /* \"--CODEGEN--\":2699:2752   */\n              tag_268\n              jump\t// in\n            tag_291:\n                /* \"--CODEGEN--\":2689:2752   */\n              swap2\n              pop\n                /* \"--CODEGEN--\":2661:2758   */\n              pop\n                /* \"--CODEGEN--\":2593:2768   */\n              swap3\n              swap2\n              pop\n              pop\n              jump\t// out\n                /* \"--CODEGEN--\":2775:3038   */\n            tag_218:\n              0x00\n                /* \"--CODEGEN--\":2890:2892   */\n              0x20\n                /* \"--CODEGEN--\":2878:2887   */\n              dup3\n                /* \"--CODEGEN--\":2869:2876   */\n              dup5\n                /* \"--CODEGEN--\":2865:2888   */\n              sub\n                /* \"--CODEGEN--\":2861:2893   */\n              slt\n                /* \"--CODEGEN--\":2858:2860   */\n              iszero\n              tag_293\n              jumpi\n                /* \"--CODEGEN--\":2906:2907   */\n              0x00\n                /* \"--CODEGEN--\":2903:2904   */\n              dup1\n                /* \"--CODEGEN--\":2896:2908   */\n              revert\n                /* \"--CODEGEN--\":2858:2860   */\n            tag_293:\n                /* \"--CODEGEN--\":2941:2942   */\n              0x00\n                /* \"--CODEGEN--\":2958:3022   */\n              tag_294\n                /* \"--CODEGEN--\":3014:3021   */\n              dup5\n                /* \"--CODEGEN--\":3005:3011   */\n              dup3\n                /* \"--CODEGEN--\":2994:3003   */\n              dup6\n                /* \"--CODEGEN--\":2990:3012   */\n              add\n                /* \"--CODEGEN--\":2958:3022   */\n              tag_277\n              jump\t// in\n            tag_294:\n                /* \"--CODEGEN--\":2948:3022   */\n              swap2\n              pop\n                /* \"--CODEGEN--\":2920:3028   */\n              pop\n                /* \"--CODEGEN--\":2852:3038   */\n              swap3\n              swap2\n              pop\n              pop\n              jump\t// out\n                /* \"--CODEGEN--\":3045:3187   */\n            tag_295:\n                /* \"--CODEGEN--\":3136:3181   */\n              tag_297\n                /* \"--CODEGEN--\":3175:3180   */\n              dup2\n                /* \"--CODEGEN--\":3136:3181   */\n              tag_298\n              jump\t// in\n            tag_297:\n                /* \"--CODEGEN--\":3131:3134   */\n              dup3\n                /* \"--CODEGEN--\":3124:3182   */\n              mstore\n                /* \"--CODEGEN--\":3118:3187   */\n              pop\n              pop\n              jump\t// out\n                /* \"--CODEGEN--\":3194:3307   */\n            tag_299:\n                /* \"--CODEGEN--\":3277:3301   */\n              tag_301\n                /* \"--CODEGEN--\":3295:3300   */\n              dup2\n                /* \"--CODEGEN--\":3277:3301   */\n              tag_302\n              jump\t// in\n            tag_301:\n                /* \"--CODEGEN--\":3272:3275   */\n              dup3\n                /* \"--CODEGEN--\":3265:3302   */\n              mstore\n                /* \"--CODEGEN--\":3259:3307   */\n              pop\n              pop\n              jump\t// out\n                /* \"--CODEGEN--\":3314:3468   */\n            tag_303:\n                /* \"--CODEGEN--\":3411:3462   */\n              tag_305\n                /* \"--CODEGEN--\":3456:3461   */\n              dup2\n                /* \"--CODEGEN--\":3411:3462   */\n              tag_306\n              jump\t// in\n            tag_305:\n                /* \"--CODEGEN--\":3406:3409   */\n              dup3\n                /* \"--CODEGEN--\":3399:3463   */\n              mstore\n                /* \"--CODEGEN--\":3393:3468   */\n              pop\n              pop\n              jump\t// out\n                /* \"--CODEGEN--\":3475:3617   */\n            tag_307:\n                /* \"--CODEGEN--\":3566:3611   */\n              tag_309\n                /* \"--CODEGEN--\":3605:3610   */\n              dup2\n                /* \"--CODEGEN--\":3566:3611   */\n              tag_310\n              jump\t// in\n            tag_309:\n                /* \"--CODEGEN--\":3561:3564   */\n              dup3\n                /* \"--CODEGEN--\":3554:3612   */\n              mstore\n                /* \"--CODEGEN--\":3548:3617   */\n              pop\n              pop\n              jump\t// out\n                /* \"--CODEGEN--\":3624:3971   */\n            tag_311:\n              0x00\n                /* \"--CODEGEN--\":3736:3775   */\n              tag_313\n                /* \"--CODEGEN--\":3769:3774   */\n              dup3\n                /* \"--CODEGEN--\":3736:3775   */\n              tag_314\n              jump\t// in\n            tag_313:\n                /* \"--CODEGEN--\":3787:3858   */\n              tag_315\n                /* \"--CODEGEN--\":3851:3857   */\n              dup2\n                /* \"--CODEGEN--\":3846:3849   */\n              dup6\n                /* \"--CODEGEN--\":3787:3858   */\n              tag_316\n              jump\t// in\n            tag_315:\n                /* \"--CODEGEN--\":3780:3858   */\n              swap4\n              pop\n                /* \"--CODEGEN--\":3863:3915   */\n              tag_317\n                /* \"--CODEGEN--\":3908:3914   */\n              dup2\n                /* \"--CODEGEN--\":3903:3906   */\n              dup6\n                /* \"--CODEGEN--\":3896:3900   */\n              0x20\n                /* \"--CODEGEN--\":3889:3894   */\n              dup7\n                /* \"--CODEGEN--\":3885:3901   */\n              add\n                /* \"--CODEGEN--\":3863:3915   */\n              tag_318\n              jump\t// in\n            tag_317:\n                /* \"--CODEGEN--\":3936:3965   */\n              tag_319\n                /* \"--CODEGEN--\":3958:3964   */\n              dup2\n                /* \"--CODEGEN--\":3936:3965   */\n              tag_320\n              jump\t// in\n            tag_319:\n                /* \"--CODEGEN--\":3931:3934   */\n              dup5\n                /* \"--CODEGEN--\":3927:3966   */\n              add\n                /* \"--CODEGEN--\":3920:3966   */\n              swap2\n              pop\n                /* \"--CODEGEN--\":3716:3971   */\n              pop\n              swap3\n              swap2\n              pop\n              pop\n              jump\t// out\n                /* \"--CODEGEN--\":3979:4354   */\n            tag_321:\n              0x00\n                /* \"--CODEGEN--\":4139:4206   */\n              tag_323\n                /* \"--CODEGEN--\":4203:4205   */\n              0x26\n                /* \"--CODEGEN--\":4198:4201   */\n              dup4\n                /* \"--CODEGEN--\":4139:4206   */\n              tag_316\n              jump\t// in\n            tag_323:\n                /* \"--CODEGEN--\":4132:4206   */\n              swap2\n              pop\n                /* \"--CODEGEN--\":4239:4273   */\n              0x4f776e61626c653a206e6577206f776e657220697320746865207a65726f2061\n                /* \"--CODEGEN--\":4235:4236   */\n              0x00\n                /* \"--CODEGEN--\":4230:4233   */\n              dup4\n                /* \"--CODEGEN--\":4226:4237   */\n              add\n                /* \"--CODEGEN--\":4219:4274   */\n              mstore\n                /* \"--CODEGEN--\":4308:4316   */\n              0x6464726573730000000000000000000000000000000000000000000000000000\n                /* \"--CODEGEN--\":4303:4305   */\n              0x20\n                /* \"--CODEGEN--\":4298:4301   */\n              dup4\n                /* \"--CODEGEN--\":4294:4306   */\n              add\n                /* \"--CODEGEN--\":4287:4317   */\n              mstore\n                /* \"--CODEGEN--\":4345:4347   */\n              0x40\n                /* \"--CODEGEN--\":4340:4343   */\n              dup3\n                /* \"--CODEGEN--\":4336:4348   */\n              add\n                /* \"--CODEGEN--\":4329:4348   */\n              swap1\n              pop\n                /* \"--CODEGEN--\":4125:4354   */\n              swap2\n              swap1\n              pop\n              jump\t// out\n                /* \"--CODEGEN--\":4363:4690   */\n            tag_324:\n              0x00\n                /* \"--CODEGEN--\":4523:4590   */\n              tag_326\n                /* \"--CODEGEN--\":4587:4589   */\n              0x1b\n                /* \"--CODEGEN--\":4582:4585   */\n              dup4\n                /* \"--CODEGEN--\":4523:4590   */\n              tag_316\n              jump\t// in\n            tag_326:\n                /* \"--CODEGEN--\":4516:4590   */\n              swap2\n              pop\n                /* \"--CODEGEN--\":4623:4652   */\n              0x536166654d6174683a206164646974696f6e206f766572666c6f770000000000\n                /* \"--CODEGEN--\":4619:4620   */\n              0x00\n                /* \"--CODEGEN--\":4614:4617   */\n              dup4\n                /* \"--CODEGEN--\":4610:4621   */\n              add\n                /* \"--CODEGEN--\":4603:4653   */\n              mstore\n                /* \"--CODEGEN--\":4681:4683   */\n              0x20\n                /* \"--CODEGEN--\":4676:4679   */\n              dup3\n                /* \"--CODEGEN--\":4672:4684   */\n              add\n                /* \"--CODEGEN--\":4665:4684   */\n              swap1\n              pop\n                /* \"--CODEGEN--\":4509:4690   */\n              swap2\n              swap1\n              pop\n              jump\t// out\n                /* \"--CODEGEN--\":4699:5017   */\n            tag_327:\n              0x00\n                /* \"--CODEGEN--\":4859:4926   */\n              tag_329\n                /* \"--CODEGEN--\":4923:4925   */\n              0x12\n                /* \"--CODEGEN--\":4918:4921   */\n              dup4\n                /* \"--CODEGEN--\":4859:4926   */\n              tag_316\n              jump\t// in\n            tag_329:\n                /* \"--CODEGEN--\":4852:4926   */\n              swap2\n              pop\n                /* \"--CODEGEN--\":4959:4979   */\n              0x4e6f7420616363657074656420746f6b656e0000000000000000000000000000\n                /* \"--CODEGEN--\":4955:4956   */\n              0x00\n                /* \"--CODEGEN--\":4950:4953   */\n              dup4\n                /* \"--CODEGEN--\":4946:4957   */\n              add\n                /* \"--CODEGEN--\":4939:4980   */\n              mstore\n                /* \"--CODEGEN--\":5008:5010   */\n              0x20\n                /* \"--CODEGEN--\":5003:5006   */\n              dup3\n                /* \"--CODEGEN--\":4999:5011   */\n              add\n                /* \"--CODEGEN--\":4992:5011   */\n              swap1\n              pop\n                /* \"--CODEGEN--\":4845:5017   */\n              swap2\n              swap1\n              pop\n              jump\t// out\n                /* \"--CODEGEN--\":5026:5345   */\n            tag_330:\n              0x00\n                /* \"--CODEGEN--\":5186:5253   */\n              tag_332\n                /* \"--CODEGEN--\":5250:5252   */\n              0x13\n                /* \"--CODEGEN--\":5245:5248   */\n              dup4\n                /* \"--CODEGEN--\":5186:5253   */\n              tag_316\n              jump\t// in\n            tag_332:\n                /* \"--CODEGEN--\":5179:5253   */\n              swap2\n              pop\n                /* \"--CODEGEN--\":5286:5307   */\n              0x41646472657373206e6f7420616c6c6f77656400000000000000000000000000\n                /* \"--CODEGEN--\":5282:5283   */\n              0x00\n                /* \"--CODEGEN--\":5277:5280   */\n              dup4\n                /* \"--CODEGEN--\":5273:5284   */\n              add\n                /* \"--CODEGEN--\":5266:5308   */\n              mstore\n                /* \"--CODEGEN--\":5336:5338   */\n              0x20\n                /* \"--CODEGEN--\":5331:5334   */\n              dup3\n                /* \"--CODEGEN--\":5327:5339   */\n              add\n                /* \"--CODEGEN--\":5320:5339   */\n              swap1\n              pop\n                /* \"--CODEGEN--\":5172:5345   */\n              swap2\n              swap1\n              pop\n              jump\t// out\n                /* \"--CODEGEN--\":5354:5742   */\n            tag_333:\n              0x00\n                /* \"--CODEGEN--\":5514:5581   */\n              tag_335\n                /* \"--CODEGEN--\":5578:5580   */\n              0x33\n                /* \"--CODEGEN--\":5573:5576   */\n              dup4\n                /* \"--CODEGEN--\":5514:5581   */\n              tag_316\n              jump\t// in\n            tag_335:\n                /* \"--CODEGEN--\":5507:5581   */\n              swap2\n              pop\n                /* \"--CODEGEN--\":5614:5648   */\n              0x4c6f616e20737461747573206e6f7420636f6d70617469626c65207769746820\n                /* \"--CODEGEN--\":5610:5611   */\n              0x00\n                /* \"--CODEGEN--\":5605:5608   */\n              dup4\n                /* \"--CODEGEN--\":5601:5612   */\n              add\n                /* \"--CODEGEN--\":5594:5649   */\n              mstore\n                /* \"--CODEGEN--\":5683:5704   */\n              0x666f7265636c6f73696e6720616374696f6e7300000000000000000000000000\n                /* \"--CODEGEN--\":5678:5680   */\n              0x20\n                /* \"--CODEGEN--\":5673:5676   */\n              dup4\n                /* \"--CODEGEN--\":5669:5681   */\n              add\n                /* \"--CODEGEN--\":5662:5705   */\n              mstore\n                /* \"--CODEGEN--\":5733:5735   */\n              0x40\n                /* \"--CODEGEN--\":5728:5731   */\n              dup3\n                /* \"--CODEGEN--\":5724:5736   */\n              add\n                /* \"--CODEGEN--\":5717:5736   */\n              swap1\n              pop\n                /* \"--CODEGEN--\":5500:5742   */\n              swap2\n              swap1\n              pop\n              jump\t// out\n                /* \"--CODEGEN--\":5751:6070   */\n            tag_336:\n              0x00\n                /* \"--CODEGEN--\":5911:5978   */\n              tag_338\n                /* \"--CODEGEN--\":5975:5977   */\n              0x13\n                /* \"--CODEGEN--\":5970:5973   */\n              dup4\n                /* \"--CODEGEN--\":5911:5978   */\n              tag_316\n              jump\t// in\n            tag_338:\n                /* \"--CODEGEN--\":5904:5978   */\n              swap2\n              pop\n                /* \"--CODEGEN--\":6011:6032   */\n              0x4e6577207374617465206e6f742076616c696400000000000000000000000000\n                /* \"--CODEGEN--\":6007:6008   */\n              0x00\n                /* \"--CODEGEN--\":6002:6005   */\n              dup4\n                /* \"--CODEGEN--\":5998:6009   */\n              add\n                /* \"--CODEGEN--\":5991:6033   */\n              mstore\n                /* \"--CODEGEN--\":6061:6063   */\n              0x20\n                /* \"--CODEGEN--\":6056:6059   */\n              dup3\n                /* \"--CODEGEN--\":6052:6064   */\n              add\n                /* \"--CODEGEN--\":6045:6064   */\n              swap1\n              pop\n                /* \"--CODEGEN--\":5897:6070   */\n              swap2\n              swap1\n              pop\n              jump\t// out\n                /* \"--CODEGEN--\":6079:6411   */\n            tag_339:\n              0x00\n                /* \"--CODEGEN--\":6239:6306   */\n              tag_341\n                /* \"--CODEGEN--\":6303:6305   */\n              0x20\n                /* \"--CODEGEN--\":6298:6301   */\n              dup4\n                /* \"--CODEGEN--\":6239:6306   */\n              tag_316\n              jump\t// in\n            tag_341:\n                /* \"--CODEGEN--\":6232:6306   */\n              swap2\n              pop\n                /* \"--CODEGEN--\":6339:6373   */\n              0x4f776e61626c653a2063616c6c6572206973206e6f7420746865206f776e6572\n                /* \"--CODEGEN--\":6335:6336   */\n              0x00\n                /* \"--CODEGEN--\":6330:6333   */\n              dup4\n                /* \"--CODEGEN--\":6326:6337   */\n              add\n                /* \"--CODEGEN--\":6319:6374   */\n              mstore\n                /* \"--CODEGEN--\":6402:6404   */\n              0x20\n                /* \"--CODEGEN--\":6397:6400   */\n              dup3\n                /* \"--CODEGEN--\":6393:6405   */\n              add\n                /* \"--CODEGEN--\":6386:6405   */\n              swap1\n              pop\n                /* \"--CODEGEN--\":6225:6411   */\n              swap2\n              swap1\n              pop\n              jump\t// out\n                /* \"--CODEGEN--\":6420:6795   */\n            tag_342:\n              0x00\n                /* \"--CODEGEN--\":6580:6647   */\n              tag_344\n                /* \"--CODEGEN--\":6644:6646   */\n              0x26\n                /* \"--CODEGEN--\":6639:6642   */\n              dup4\n                /* \"--CODEGEN--\":6580:6647   */\n              tag_316\n              jump\t// in\n            tag_344:\n                /* \"--CODEGEN--\":6573:6647   */\n              swap2\n              pop\n                /* \"--CODEGEN--\":6680:6714   */\n              0x4e6f7420656e6f756768204a4e5420746f6b656e7320696e2073656e64657220\n                /* \"--CODEGEN--\":6676:6677   */\n              0x00\n                /* \"--CODEGEN--\":6671:6674   */\n              dup4\n                /* \"--CODEGEN--\":6667:6678   */\n              add\n                /* \"--CODEGEN--\":6660:6715   */\n              mstore\n                /* \"--CODEGEN--\":6749:6757   */\n              0x77616c6c65740000000000000000000000000000000000000000000000000000\n                /* \"--CODEGEN--\":6744:6746   */\n              0x20\n                /* \"--CODEGEN--\":6739:6742   */\n              dup4\n                /* \"--CODEGEN--\":6735:6747   */\n              add\n                /* \"--CODEGEN--\":6728:6758   */\n              mstore\n                /* \"--CODEGEN--\":6786:6788   */\n              0x40\n                /* \"--CODEGEN--\":6781:6784   */\n              dup3\n                /* \"--CODEGEN--\":6777:6789   */\n              add\n                /* \"--CODEGEN--\":6770:6789   */\n              swap1\n              pop\n                /* \"--CODEGEN--\":6566:6795   */\n              swap2\n              swap1\n              pop\n              jump\t// out\n                /* \"--CODEGEN--\":6804:7180   */\n            tag_345:\n              0x00\n                /* \"--CODEGEN--\":6964:7031   */\n              tag_347\n                /* \"--CODEGEN--\":7028:7030   */\n              0x27\n                /* \"--CODEGEN--\":7023:7026   */\n              dup4\n                /* \"--CODEGEN--\":6964:7031   */\n              tag_316\n              jump\t// in\n            tag_347:\n                /* \"--CODEGEN--\":6957:7031   */\n              swap2\n              pop\n                /* \"--CODEGEN--\":7064:7098   */\n              0x4e657720737461747573206973207468652073616d65206c696b652070726573\n                /* \"--CODEGEN--\":7060:7061   */\n              0x00\n                /* \"--CODEGEN--\":7055:7058   */\n              dup4\n                /* \"--CODEGEN--\":7051:7062   */\n              add\n                /* \"--CODEGEN--\":7044:7099   */\n              mstore\n                /* \"--CODEGEN--\":7133:7142   */\n              0x656e74206f6e6500000000000000000000000000000000000000000000000000\n                /* \"--CODEGEN--\":7128:7130   */\n              0x20\n                /* \"--CODEGEN--\":7123:7126   */\n              dup4\n                /* \"--CODEGEN--\":7119:7131   */\n              add\n                /* \"--CODEGEN--\":7112:7143   */\n              mstore\n                /* \"--CODEGEN--\":7171:7173   */\n              0x40\n                /* \"--CODEGEN--\":7166:7169   */\n              dup3\n                /* \"--CODEGEN--\":7162:7174   */\n              add\n                /* \"--CODEGEN--\":7155:7174   */\n              swap1\n              pop\n                /* \"--CODEGEN--\":6950:7180   */\n              swap2\n              swap1\n              pop\n              jump\t// out\n                /* \"--CODEGEN--\":7188:7301   */\n            tag_348:\n                /* \"--CODEGEN--\":7271:7295   */\n              tag_350\n                /* \"--CODEGEN--\":7289:7294   */\n              dup2\n                /* \"--CODEGEN--\":7271:7295   */\n              tag_351\n              jump\t// in\n            tag_350:\n                /* \"--CODEGEN--\":7266:7269   */\n              dup3\n                /* \"--CODEGEN--\":7259:7296   */\n              mstore\n                /* \"--CODEGEN--\":7253:7301   */\n              pop\n              pop\n              jump\t// out\n                /* \"--CODEGEN--\":7308:7530   */\n            tag_68:\n              0x00\n                /* \"--CODEGEN--\":7435:7437   */\n              0x20\n                /* \"--CODEGEN--\":7424:7433   */\n              dup3\n                /* \"--CODEGEN--\":7420:7438   */\n              add\n                /* \"--CODEGEN--\":7412:7438   */\n              swap1\n              pop\n                /* \"--CODEGEN--\":7449:7520   */\n              tag_353\n                /* \"--CODEGEN--\":7517:7518   */\n              0x00\n                /* \"--CODEGEN--\":7506:7515   */\n              dup4\n                /* \"--CODEGEN--\":7502:7519   */\n              add\n                /* \"--CODEGEN--\":7493:7499   */\n              dup5\n                /* \"--CODEGEN--\":7449:7520   */\n              tag_299\n              jump\t// in\n            tag_353:\n                /* \"--CODEGEN--\":7406:7530   */\n              swap3\n              swap2\n              pop\n              pop\n              jump\t// out\n                /* \"--CODEGEN--\":7537:7775   */\n            tag_213:\n              0x00\n                /* \"--CODEGEN--\":7672:7674   */\n              0x20\n                /* \"--CODEGEN--\":7661:7670   */\n              dup3\n                /* \"--CODEGEN--\":7657:7675   */\n              add\n                /* \"--CODEGEN--\":7649:7675   */\n              swap1\n              pop\n                /* \"--CODEGEN--\":7686:7765   */\n              tag_355\n                /* \"--CODEGEN--\":7762:7763   */\n              0x00\n                /* \"--CODEGEN--\":7751:7760   */\n              dup4\n                /* \"--CODEGEN--\":7747:7764   */\n              add\n                /* \"--CODEGEN--\":7738:7744   */\n              dup5\n                /* \"--CODEGEN--\":7686:7765   */\n              tag_295\n              jump\t// in\n            tag_355:\n                /* \"--CODEGEN--\":7643:7775   */\n              swap3\n              swap2\n              pop\n              pop\n              jump\t// out\n                /* \"--CODEGEN--\":7782:8242   */\n            tag_223:\n              0x00\n                /* \"--CODEGEN--\":7973:7975   */\n              0x60\n                /* \"--CODEGEN--\":7962:7971   */\n              dup3\n                /* \"--CODEGEN--\":7958:7976   */\n              add\n                /* \"--CODEGEN--\":7950:7976   */\n              swap1\n              pop\n                /* \"--CODEGEN--\":7987:8066   */\n              tag_357\n                /* \"--CODEGEN--\":8063:8064   */\n              0x00\n                /* \"--CODEGEN--\":8052:8061   */\n              dup4\n                /* \"--CODEGEN--\":8048:8065   */\n              add\n                /* \"--CODEGEN--\":8039:8045   */\n              dup7\n                /* \"--CODEGEN--\":7987:8066   */\n              tag_295\n              jump\t// in\n            tag_357:\n                /* \"--CODEGEN--\":8077:8149   */\n              tag_358\n                /* \"--CODEGEN--\":8145:8147   */\n              0x20\n                /* \"--CODEGEN--\":8134:8143   */\n              dup4\n                /* \"--CODEGEN--\":8130:8148   */\n              add\n                /* \"--CODEGEN--\":8121:8127   */\n              dup6\n                /* \"--CODEGEN--\":8077:8149   */\n              tag_299\n              jump\t// in\n            tag_358:\n                /* \"--CODEGEN--\":8160:8232   */\n              tag_359\n                /* \"--CODEGEN--\":8228:8230   */\n              0x40\n                /* \"--CODEGEN--\":8217:8226   */\n              dup4\n                /* \"--CODEGEN--\":8213:8231   */\n              add\n                /* \"--CODEGEN--\":8204:8210   */\n              dup5\n                /* \"--CODEGEN--\":8160:8232   */\n              tag_348\n              jump\t// in\n            tag_359:\n                /* \"--CODEGEN--\":7944:8242   */\n              swap5\n              swap4\n              pop\n              pop\n              pop\n              pop\n              jump\t// out\n                /* \"--CODEGEN--\":8249:8499   */\n            tag_73:\n              0x00\n                /* \"--CODEGEN--\":8390:8392   */\n              0x20\n                /* \"--CODEGEN--\":8379:8388   */\n              dup3\n                /* \"--CODEGEN--\":8375:8393   */\n              add\n                /* \"--CODEGEN--\":8367:8393   */\n              swap1\n              pop\n                /* \"--CODEGEN--\":8404:8489   */\n              tag_361\n                /* \"--CODEGEN--\":8486:8487   */\n              0x00\n                /* \"--CODEGEN--\":8475:8484   */\n              dup4\n                /* \"--CODEGEN--\":8471:8488   */\n              add\n                /* \"--CODEGEN--\":8462:8468   */\n              dup5\n                /* \"--CODEGEN--\":8404:8489   */\n              tag_303\n              jump\t// in\n            tag_361:\n                /* \"--CODEGEN--\":8361:8499   */\n              swap3\n              swap2\n              pop\n              pop\n              jump\t// out\n                /* \"--CODEGEN--\":8506:8744   */\n            tag_41:\n              0x00\n                /* \"--CODEGEN--\":8641:8643   */\n              0x20\n                /* \"--CODEGEN--\":8630:8639   */\n              dup3\n                /* \"--CODEGEN--\":8626:8644   */\n              add\n                /* \"--CODEGEN--\":8618:8644   */\n              swap1\n              pop\n                /* \"--CODEGEN--\":8655:8734   */\n              tag_363\n                /* \"--CODEGEN--\":8731:8732   */\n              0x00\n                /* \"--CODEGEN--\":8720:8729   */\n              dup4\n                /* \"--CODEGEN--\":8716:8733   */\n              add\n                /* \"--CODEGEN--\":8707:8713   */\n              dup5\n                /* \"--CODEGEN--\":8655:8734   */\n              tag_307\n              jump\t// in\n            tag_363:\n                /* \"--CODEGEN--\":8612:8744   */\n              swap3\n              swap2\n              pop\n              pop\n              jump\t// out\n                /* \"--CODEGEN--\":8751:9061   */\n            tag_87:\n              0x00\n                /* \"--CODEGEN--\":8898:8900   */\n              0x20\n                /* \"--CODEGEN--\":8887:8896   */\n              dup3\n                /* \"--CODEGEN--\":8883:8901   */\n              add\n                /* \"--CODEGEN--\":8875:8901   */\n              swap1\n              pop\n                /* \"--CODEGEN--\":8948:8957   */\n              dup2\n                /* \"--CODEGEN--\":8942:8946   */\n              dup2\n                /* \"--CODEGEN--\":8938:8958   */\n              sub\n                /* \"--CODEGEN--\":8934:8935   */\n              0x00\n                /* \"--CODEGEN--\":8923:8932   */\n              dup4\n                /* \"--CODEGEN--\":8919:8936   */\n              add\n                /* \"--CODEGEN--\":8912:8959   */\n              mstore\n                /* \"--CODEGEN--\":8973:9051   */\n              tag_365\n                /* \"--CODEGEN--\":9046:9050   */\n              dup2\n                /* \"--CODEGEN--\":9037:9043   */\n              dup5\n                /* \"--CODEGEN--\":8973:9051   */\n              tag_311\n              jump\t// in\n            tag_365:\n                /* \"--CODEGEN--\":8965:9051   */\n              swap1\n              pop\n                /* \"--CODEGEN--\":8869:9061   */\n              swap3\n              swap2\n              pop\n              pop\n              jump\t// out\n                /* \"--CODEGEN--\":9068:9484   */\n            tag_247:\n              0x00\n                /* \"--CODEGEN--\":9268:9270   */\n              0x20\n                /* \"--CODEGEN--\":9257:9266   */\n              dup3\n                /* \"--CODEGEN--\":9253:9271   */\n              add\n                /* \"--CODEGEN--\":9245:9271   */\n              swap1\n              pop\n                /* \"--CODEGEN--\":9318:9327   */\n              dup2\n                /* \"--CODEGEN--\":9312:9316   */\n              dup2\n                /* \"--CODEGEN--\":9308:9328   */\n              sub\n                /* \"--CODEGEN--\":9304:9305   */\n              0x00\n                /* \"--CODEGEN--\":9293:9302   */\n              dup4\n                /* \"--CODEGEN--\":9289:9306   */\n              add\n                /* \"--CODEGEN--\":9282:9329   */\n              mstore\n                /* \"--CODEGEN--\":9343:9474   */\n              tag_367\n                /* \"--CODEGEN--\":9469:9473   */\n              dup2\n                /* \"--CODEGEN--\":9343:9474   */\n              tag_321\n              jump\t// in\n            tag_367:\n                /* \"--CODEGEN--\":9335:9474   */\n              swap1\n              pop\n                /* \"--CODEGEN--\":9239:9484   */\n              swap2\n              swap1\n              pop\n              jump\t// out\n                /* \"--CODEGEN--\":9491:9907   */\n            tag_252:\n              0x00\n                /* \"--CODEGEN--\":9691:9693   */\n              0x20\n                /* \"--CODEGEN--\":9680:9689   */\n              dup3\n                /* \"--CODEGEN--\":9676:9694   */\n              add\n                /* \"--CODEGEN--\":9668:9694   */\n              swap1\n              pop\n                /* \"--CODEGEN--\":9741:9750   */\n              dup2\n                /* \"--CODEGEN--\":9735:9739   */\n              dup2\n                /* \"--CODEGEN--\":9731:9751   */\n              sub\n                /* \"--CODEGEN--\":9727:9728   */\n              0x00\n                /* \"--CODEGEN--\":9716:9725   */\n              dup4\n                /* \"--CODEGEN--\":9712:9729   */\n              add\n                /* \"--CODEGEN--\":9705:9752   */\n              mstore\n                /* \"--CODEGEN--\":9766:9897   */\n              tag_369\n                /* \"--CODEGEN--\":9892:9896   */\n              dup2\n                /* \"--CODEGEN--\":9766:9897   */\n              tag_324\n              jump\t// in\n            tag_369:\n                /* \"--CODEGEN--\":9758:9897   */\n              swap1\n              pop\n                /* \"--CODEGEN--\":9662:9907   */\n              swap2\n              swap1\n              pop\n              jump\t// out\n                /* \"--CODEGEN--\":9914:10330   */\n            tag_234:\n              0x00\n                /* \"--CODEGEN--\":10114:10116   */\n              0x20\n                /* \"--CODEGEN--\":10103:10112   */\n              dup3\n                /* \"--CODEGEN--\":10099:10117   */\n              add\n                /* \"--CODEGEN--\":10091:10117   */\n              swap1\n              pop\n                /* \"--CODEGEN--\":10164:10173   */\n              dup2\n                /* \"--CODEGEN--\":10158:10162   */\n              dup2\n                /* \"--CODEGEN--\":10154:10174   */\n              sub\n                /* \"--CODEGEN--\":10150:10151   */\n              0x00\n                /* \"--CODEGEN--\":10139:10148   */\n              dup4\n                /* \"--CODEGEN--\":10135:10152   */\n              add\n                /* \"--CODEGEN--\":10128:10175   */\n              mstore\n                /* \"--CODEGEN--\":10189:10320   */\n              tag_371\n                /* \"--CODEGEN--\":10315:10319   */\n              dup2\n                /* \"--CODEGEN--\":10189:10320   */\n              tag_327\n              jump\t// in\n            tag_371:\n                /* \"--CODEGEN--\":10181:10320   */\n              swap1\n              pop\n                /* \"--CODEGEN--\":10085:10330   */\n              swap2\n              swap1\n              pop\n              jump\t// out\n                /* \"--CODEGEN--\":10337:10753   */\n            tag_164:\n              0x00\n                /* \"--CODEGEN--\":10537:10539   */\n              0x20\n                /* \"--CODEGEN--\":10526:10535   */\n              dup3\n                /* \"--CODEGEN--\":10522:10540   */\n              add\n                /* \"--CODEGEN--\":10514:10540   */\n              swap1\n              pop\n                /* \"--CODEGEN--\":10587:10596   */\n              dup2\n                /* \"--CODEGEN--\":10581:10585   */\n              dup2\n                /* \"--CODEGEN--\":10577:10597   */\n              sub\n                /* \"--CODEGEN--\":10573:10574   */\n              0x00\n                /* \"--CODEGEN--\":10562:10571   */\n              dup4\n                /* \"--CODEGEN--\":10558:10575   */\n              add\n                /* \"--CODEGEN--\":10551:10598   */\n              mstore\n                /* \"--CODEGEN--\":10612:10743   */\n              tag_373\n                /* \"--CODEGEN--\":10738:10742   */\n              dup2\n                /* \"--CODEGEN--\":10612:10743   */\n              tag_330\n              jump\t// in\n            tag_373:\n                /* \"--CODEGEN--\":10604:10743   */\n              swap1\n              pop\n                /* \"--CODEGEN--\":10508:10753   */\n              swap2\n              swap1\n              pop\n              jump\t// out\n                /* \"--CODEGEN--\":10760:11176   */\n            tag_208:\n              0x00\n                /* \"--CODEGEN--\":10960:10962   */\n              0x20\n                /* \"--CODEGEN--\":10949:10958   */\n              dup3\n                /* \"--CODEGEN--\":10945:10963   */\n              add\n                /* \"--CODEGEN--\":10937:10963   */\n              swap1\n              pop\n                /* \"--CODEGEN--\":11010:11019   */\n              dup2\n                /* \"--CODEGEN--\":11004:11008   */\n              dup2\n                /* \"--CODEGEN--\":11000:11020   */\n              sub\n                /* \"--CODEGEN--\":10996:10997   */\n              0x00\n                /* \"--CODEGEN--\":10985:10994   */\n              dup4\n                /* \"--CODEGEN--\":10981:10998   */\n              add\n                /* \"--CODEGEN--\":10974:11021   */\n              mstore\n                /* \"--CODEGEN--\":11035:11166   */\n              tag_375\n                /* \"--CODEGEN--\":11161:11165   */\n              dup2\n                /* \"--CODEGEN--\":11035:11166   */\n              tag_333\n              jump\t// in\n            tag_375:\n                /* \"--CODEGEN--\":11027:11166   */\n              swap1\n              pop\n                /* \"--CODEGEN--\":10931:11176   */\n              swap2\n              swap1\n              pop\n              jump\t// out\n                /* \"--CODEGEN--\":11183:11599   */\n            tag_183:\n              0x00\n                /* \"--CODEGEN--\":11383:11385   */\n              0x20\n                /* \"--CODEGEN--\":11372:11381   */\n              dup3\n                /* \"--CODEGEN--\":11368:11386   */\n              add\n                /* \"--CODEGEN--\":11360:11386   */\n              swap1\n              pop\n                /* \"--CODEGEN--\":11433:11442   */\n              dup2\n                /* \"--CODEGEN--\":11427:11431   */\n              dup2\n                /* \"--CODEGEN--\":11423:11443   */\n              sub\n                /* \"--CODEGEN--\":11419:11420   */\n              0x00\n                /* \"--CODEGEN--\":11408:11417   */\n              dup4\n                /* \"--CODEGEN--\":11404:11421   */\n              add\n                /* \"--CODEGEN--\":11397:11444   */\n              mstore\n                /* \"--CODEGEN--\":11458:11589   */\n              tag_377\n                /* \"--CODEGEN--\":11584:11588   */\n              dup2\n                /* \"--CODEGEN--\":11458:11589   */\n              tag_336\n              jump\t// in\n            tag_377:\n                /* \"--CODEGEN--\":11450:11589   */\n              swap1\n              pop\n                /* \"--CODEGEN--\":11354:11599   */\n              swap2\n              swap1\n              pop\n              jump\t// out\n                /* \"--CODEGEN--\":11606:12022   */\n            tag_160:\n              0x00\n                /* \"--CODEGEN--\":11806:11808   */\n              0x20\n                /* \"--CODEGEN--\":11795:11804   */\n              dup3\n                /* \"--CODEGEN--\":11791:11809   */\n              add\n                /* \"--CODEGEN--\":11783:11809   */\n              swap1\n              pop\n                /* \"--CODEGEN--\":11856:11865   */\n              dup2\n                /* \"--CODEGEN--\":11850:11854   */\n              dup2\n                /* \"--CODEGEN--\":11846:11866   */\n              sub\n                /* \"--CODEGEN--\":11842:11843   */\n              0x00\n                /* \"--CODEGEN--\":11831:11840   */\n              dup4\n                /* \"--CODEGEN--\":11827:11844   */\n              add\n                /* \"--CODEGEN--\":11820:11867   */\n              mstore\n                /* \"--CODEGEN--\":11881:12012   */\n              tag_379\n                /* \"--CODEGEN--\":12007:12011   */\n              dup2\n                /* \"--CODEGEN--\":11881:12012   */\n              tag_339\n              jump\t// in\n            tag_379:\n                /* \"--CODEGEN--\":11873:12012   */\n              swap1\n              pop\n                /* \"--CODEGEN--\":11777:12022   */\n              swap2\n              swap1\n              pop\n              jump\t// out\n                /* \"--CODEGEN--\":12029:12445   */\n            tag_221:\n              0x00\n                /* \"--CODEGEN--\":12229:12231   */\n              0x20\n                /* \"--CODEGEN--\":12218:12227   */\n              dup3\n                /* \"--CODEGEN--\":12214:12232   */\n              add\n                /* \"--CODEGEN--\":12206:12232   */\n              swap1\n              pop\n                /* \"--CODEGEN--\":12279:12288   */\n              dup2\n                /* \"--CODEGEN--\":12273:12277   */\n              dup2\n                /* \"--CODEGEN--\":12269:12289   */\n              sub\n                /* \"--CODEGEN--\":12265:12266   */\n              0x00\n                /* \"--CODEGEN--\":12254:12263   */\n              dup4\n                /* \"--CODEGEN--\":12250:12267   */\n              add\n                /* \"--CODEGEN--\":12243:12290   */\n              mstore\n                /* \"--CODEGEN--\":12304:12435   */\n              tag_381\n                /* \"--CODEGEN--\":12430:12434   */\n              dup2\n                /* \"--CODEGEN--\":12304:12435   */\n              tag_342\n              jump\t// in\n            tag_381:\n                /* \"--CODEGEN--\":12296:12435   */\n              swap1\n              pop\n                /* \"--CODEGEN--\":12200:12445   */\n              swap2\n              swap1\n              pop\n              jump\t// out\n                /* \"--CODEGEN--\":12452:12868   */\n            tag_187:\n              0x00\n                /* \"--CODEGEN--\":12652:12654   */\n              0x20\n                /* \"--CODEGEN--\":12641:12650   */\n              dup3\n                /* \"--CODEGEN--\":12637:12655   */\n              add\n                /* \"--CODEGEN--\":12629:12655   */\n              swap1\n              pop\n                /* \"--CODEGEN--\":12702:12711   */\n              dup2\n                /* \"--CODEGEN--\":12696:12700   */\n              dup2\n                /* \"--CODEGEN--\":12692:12712   */\n              sub\n                /* \"--CODEGEN--\":12688:12689   */\n              0x00\n                /* \"--CODEGEN--\":12677:12686   */\n              dup4\n                /* \"--CODEGEN--\":12673:12690   */\n              add\n                /* \"--CODEGEN--\":12666:12713   */\n              mstore\n                /* \"--CODEGEN--\":12727:12858   */\n              tag_383\n                /* \"--CODEGEN--\":12853:12857   */\n              dup2\n                /* \"--CODEGEN--\":12727:12858   */\n              tag_345\n              jump\t// in\n            tag_383:\n                /* \"--CODEGEN--\":12719:12858   */\n              swap1\n              pop\n                /* \"--CODEGEN--\":12623:12868   */\n              swap2\n              swap1\n              pop\n              jump\t// out\n                /* \"--CODEGEN--\":12875:13097   */\n            tag_51:\n              0x00\n                /* \"--CODEGEN--\":13002:13004   */\n              0x20\n                /* \"--CODEGEN--\":12991:13000   */\n              dup3\n                /* \"--CODEGEN--\":12987:13005   */\n              add\n                /* \"--CODEGEN--\":12979:13005   */\n              swap1\n              pop\n                /* \"--CODEGEN--\":13016:13087   */\n              tag_385\n                /* \"--CODEGEN--\":13084:13085   */\n              0x00\n                /* \"--CODEGEN--\":13073:13082   */\n              dup4\n                /* \"--CODEGEN--\":13069:13086   */\n              add\n                /* \"--CODEGEN--\":13060:13066   */\n              dup5\n                /* \"--CODEGEN--\":13016:13087   */\n              tag_348\n              jump\t// in\n            tag_385:\n                /* \"--CODEGEN--\":12973:13097   */\n              swap3\n              swap2\n              pop\n              pop\n              jump\t// out\n                /* \"--CODEGEN--\":13104:13884   */\n            tag_46:\n              0x00\n                /* \"--CODEGEN--\":13371:13374   */\n              0xc0\n                /* \"--CODEGEN--\":13360:13369   */\n              dup3\n                /* \"--CODEGEN--\":13356:13375   */\n              add\n                /* \"--CODEGEN--\":13348:13375   */\n              swap1\n              pop\n                /* \"--CODEGEN--\":13386:13457   */\n              tag_387\n                /* \"--CODEGEN--\":13454:13455   */\n              0x00\n                /* \"--CODEGEN--\":13443:13452   */\n              dup4\n                /* \"--CODEGEN--\":13439:13456   */\n              add\n                /* \"--CODEGEN--\":13430:13436   */\n              dup10\n                /* \"--CODEGEN--\":13386:13457   */\n              tag_348\n              jump\t// in\n            tag_387:\n                /* \"--CODEGEN--\":13468:13540   */\n              tag_388\n                /* \"--CODEGEN--\":13536:13538   */\n              0x20\n                /* \"--CODEGEN--\":13525:13534   */\n              dup4\n                /* \"--CODEGEN--\":13521:13539   */\n              add\n                /* \"--CODEGEN--\":13512:13518   */\n              dup9\n                /* \"--CODEGEN--\":13468:13540   */\n              tag_348\n              jump\t// in\n            tag_388:\n                /* \"--CODEGEN--\":13551:13623   */\n              tag_389\n                /* \"--CODEGEN--\":13619:13621   */\n              0x40\n                /* \"--CODEGEN--\":13608:13617   */\n              dup4\n                /* \"--CODEGEN--\":13604:13622   */\n              add\n                /* \"--CODEGEN--\":13595:13601   */\n              dup8\n                /* \"--CODEGEN--\":13551:13623   */\n              tag_348\n              jump\t// in\n            tag_389:\n                /* \"--CODEGEN--\":13634:13706   */\n              tag_390\n                /* \"--CODEGEN--\":13702:13704   */\n              0x60\n                /* \"--CODEGEN--\":13691:13700   */\n              dup4\n                /* \"--CODEGEN--\":13687:13705   */\n              add\n                /* \"--CODEGEN--\":13678:13684   */\n              dup7\n                /* \"--CODEGEN--\":13634:13706   */\n              tag_348\n              jump\t// in\n            tag_390:\n                /* \"--CODEGEN--\":13717:13790   */\n              tag_391\n                /* \"--CODEGEN--\":13785:13788   */\n              0x80\n                /* \"--CODEGEN--\":13774:13783   */\n              dup4\n                /* \"--CODEGEN--\":13770:13789   */\n              add\n                /* \"--CODEGEN--\":13761:13767   */\n              dup6\n                /* \"--CODEGEN--\":13717:13790   */\n              tag_348\n              jump\t// in\n            tag_391:\n                /* \"--CODEGEN--\":13801:13874   */\n              tag_392\n                /* \"--CODEGEN--\":13869:13872   */\n              0xa0\n                /* \"--CODEGEN--\":13858:13867   */\n              dup4\n                /* \"--CODEGEN--\":13854:13873   */\n              add\n                /* \"--CODEGEN--\":13845:13851   */\n              dup5\n                /* \"--CODEGEN--\":13801:13874   */\n              tag_348\n              jump\t// in\n            tag_392:\n                /* \"--CODEGEN--\":13342:13884   */\n              swap8\n              swap7\n              pop\n              pop\n              pop\n              pop\n              pop\n              pop\n              pop\n              jump\t// out\n                /* \"--CODEGEN--\":13891:14147   */\n            tag_266:\n              0x00\n                /* \"--CODEGEN--\":13953:13955   */\n              0x40\n                /* \"--CODEGEN--\":13947:13956   */\n              mload\n                /* \"--CODEGEN--\":13937:13956   */\n              swap1\n              pop\n                /* \"--CODEGEN--\":13991:13995   */\n              dup2\n                /* \"--CODEGEN--\":13983:13989   */\n              dup2\n                /* \"--CODEGEN--\":13979:13996   */\n              add\n                /* \"--CODEGEN--\":14090:14096   */\n              dup2\n                /* \"--CODEGEN--\":14078:14088   */\n              dup2\n                /* \"--CODEGEN--\":14075:14097   */\n              lt\n                /* \"--CODEGEN--\":14054:14072   */\n              0xffffffffffffffff\n                /* \"--CODEGEN--\":14042:14052   */\n              dup3\n                /* \"--CODEGEN--\":14039:14073   */\n              gt\n                /* \"--CODEGEN--\":14036:14098   */\n              or\n                /* \"--CODEGEN--\":14033:14035   */\n              iszero\n              tag_394\n              jumpi\n                /* \"--CODEGEN--\":14111:14112   */\n              0x00\n                /* \"--CODEGEN--\":14108:14109   */\n              dup1\n                /* \"--CODEGEN--\":14101:14113   */\n              revert\n                /* \"--CODEGEN--\":14033:14035   */\n            tag_394:\n                /* \"--CODEGEN--\":14131:14141   */\n              dup1\n                /* \"--CODEGEN--\":14127:14129   */\n              0x40\n                /* \"--CODEGEN--\":14120:14142   */\n              mstore\n                /* \"--CODEGEN--\":13931:14147   */\n              pop\n              swap2\n              swap1\n              pop\n              jump\t// out\n                /* \"--CODEGEN--\":14154:14276   */\n            tag_314:\n              0x00\n                /* \"--CODEGEN--\":14248:14253   */\n              dup2\n                /* \"--CODEGEN--\":14242:14254   */\n              mload\n                /* \"--CODEGEN--\":14232:14254   */\n              swap1\n              pop\n                /* \"--CODEGEN--\":14213:14276   */\n              swap2\n              swap1\n              pop\n              jump\t// out\n                /* \"--CODEGEN--\":14284:14447   */\n            tag_316:\n              0x00\n                /* \"--CODEGEN--\":14399:14405   */\n              dup3\n                /* \"--CODEGEN--\":14394:14397   */\n              dup3\n                /* \"--CODEGEN--\":14387:14406   */\n              mstore\n                /* \"--CODEGEN--\":14436:14440   */\n              0x20\n                /* \"--CODEGEN--\":14431:14434   */\n              dup3\n                /* \"--CODEGEN--\":14427:14441   */\n              add\n                /* \"--CODEGEN--\":14412:14441   */\n              swap1\n              pop\n                /* \"--CODEGEN--\":14380:14447   */\n              swap3\n              swap2\n              pop\n              pop\n              jump\t// out\n                /* \"--CODEGEN--\":14455:14546   */\n            tag_302:\n              0x00\n                /* \"--CODEGEN--\":14517:14541   */\n              tag_398\n                /* \"--CODEGEN--\":14535:14540   */\n              dup3\n                /* \"--CODEGEN--\":14517:14541   */\n              tag_399\n              jump\t// in\n            tag_398:\n                /* \"--CODEGEN--\":14506:14541   */\n              swap1\n              pop\n                /* \"--CODEGEN--\":14500:14546   */\n              swap2\n              swap1\n              pop\n              jump\t// out\n                /* \"--CODEGEN--\":14553:14638   */\n            tag_400:\n              0x00\n                /* \"--CODEGEN--\":14626:14631   */\n              dup2\n                /* \"--CODEGEN--\":14619:14632   */\n              iszero\n                /* \"--CODEGEN--\":14612:14633   */\n              iszero\n                /* \"--CODEGEN--\":14601:14633   */\n              swap1\n              pop\n                /* \"--CODEGEN--\":14595:14638   */\n              swap2\n              swap1\n              pop\n              jump\t// out\n                /* \"--CODEGEN--\":14645:14771   */\n            tag_402:\n              0x00\n                /* \"--CODEGEN--\":14717:14722   */\n              dup2\n                /* \"--CODEGEN--\":14706:14722   */\n              swap1\n              pop\n                /* \"--CODEGEN--\":14723:14766   */\n              tag_404\n                /* \"--CODEGEN--\":14760:14765   */\n              dup3\n                /* \"--CODEGEN--\":14723:14766   */\n              tag_405\n              jump\t// in\n            tag_404:\n                /* \"--CODEGEN--\":14700:14771   */\n              swap2\n              swap1\n              pop\n              jump\t// out\n                /* \"--CODEGEN--\":14778:14899   */\n            tag_399:\n              0x00\n                /* \"--CODEGEN--\":14851:14893   */\n              0xffffffffffffffffffffffffffffffffffffffff\n                /* \"--CODEGEN--\":14844:14849   */\n              dup3\n                /* \"--CODEGEN--\":14840:14894   */\n              and\n                /* \"--CODEGEN--\":14829:14894   */\n              swap1\n              pop\n                /* \"--CODEGEN--\":14823:14899   */\n              swap2\n              swap1\n              pop\n              jump\t// out\n                /* \"--CODEGEN--\":14906:14978   */\n            tag_351:\n              0x00\n                /* \"--CODEGEN--\":14968:14973   */\n              dup2\n                /* \"--CODEGEN--\":14957:14973   */\n              swap1\n              pop\n                /* \"--CODEGEN--\":14951:14978   */\n              swap2\n              swap1\n              pop\n              jump\t// out\n                /* \"--CODEGEN--\":14985:15114   */\n            tag_298:\n              0x00\n                /* \"--CODEGEN--\":15072:15109   */\n              tag_409\n                /* \"--CODEGEN--\":15103:15108   */\n              dup3\n                /* \"--CODEGEN--\":15072:15109   */\n              tag_410\n              jump\t// in\n            tag_409:\n                /* \"--CODEGEN--\":15059:15109   */\n              swap1\n              pop\n                /* \"--CODEGEN--\":15053:15114   */\n              swap2\n              swap1\n              pop\n              jump\t// out\n                /* \"--CODEGEN--\":15121:15270   */\n            tag_306:\n              0x00\n                /* \"--CODEGEN--\":15214:15265   */\n              tag_412\n                /* \"--CODEGEN--\":15259:15264   */\n              dup3\n                /* \"--CODEGEN--\":15214:15265   */\n              tag_413\n              jump\t// in\n            tag_412:\n                /* \"--CODEGEN--\":15201:15265   */\n              swap1\n              pop\n                /* \"--CODEGEN--\":15195:15270   */\n              swap2\n              swap1\n              pop\n              jump\t// out\n                /* \"--CODEGEN--\":15277:15399   */\n            tag_413:\n              0x00\n                /* \"--CODEGEN--\":15370:15394   */\n              tag_415\n                /* \"--CODEGEN--\":15388:15393   */\n              dup3\n                /* \"--CODEGEN--\":15370:15394   */\n              tag_399\n              jump\t// in\n            tag_415:\n                /* \"--CODEGEN--\":15357:15394   */\n              swap1\n              pop\n                /* \"--CODEGEN--\":15351:15399   */\n              swap2\n              swap1\n              pop\n              jump\t// out\n                /* \"--CODEGEN--\":15406:15532   */\n            tag_310:\n              0x00\n                /* \"--CODEGEN--\":15493:15527   */\n              tag_417\n                /* \"--CODEGEN--\":15521:15526   */\n              dup3\n                /* \"--CODEGEN--\":15493:15527   */\n              tag_402\n              jump\t// in\n            tag_417:\n                /* \"--CODEGEN--\":15480:15527   */\n              swap1\n              pop\n                /* \"--CODEGEN--\":15474:15532   */\n              swap2\n              swap1\n              pop\n              jump\t// out\n                /* \"--CODEGEN--\":15539:15660   */\n            tag_410:\n              0x00\n                /* \"--CODEGEN--\":15618:15655   */\n              tag_419\n                /* \"--CODEGEN--\":15649:15654   */\n              dup3\n                /* \"--CODEGEN--\":15618:15655   */\n              tag_420\n              jump\t// in\n            tag_419:\n                /* \"--CODEGEN--\":15605:15655   */\n              swap1\n              pop\n                /* \"--CODEGEN--\":15599:15660   */\n              swap2\n              swap1\n              pop\n              jump\t// out\n                /* \"--CODEGEN--\":15667:15775   */\n            tag_420:\n              0x00\n                /* \"--CODEGEN--\":15746:15770   */\n              tag_422\n                /* \"--CODEGEN--\":15764:15769   */\n              dup3\n                /* \"--CODEGEN--\":15746:15770   */\n              tag_399\n              jump\t// in\n            tag_422:\n                /* \"--CODEGEN--\":15733:15770   */\n              swap1\n              pop\n                /* \"--CODEGEN--\":15727:15775   */\n              swap2\n              swap1\n              pop\n              jump\t// out\n                /* \"--CODEGEN--\":15783:16051   */\n            tag_318:\n                /* \"--CODEGEN--\":15848:15849   */\n              0x00\n                /* \"--CODEGEN--\":15855:15956   */\n            tag_424:\n                /* \"--CODEGEN--\":15869:15875   */\n              dup4\n                /* \"--CODEGEN--\":15866:15867   */\n              dup2\n                /* \"--CODEGEN--\":15863:15876   */\n              lt\n                /* \"--CODEGEN--\":15855:15956   */\n              iszero\n              tag_426\n              jumpi\n                /* \"--CODEGEN--\":15945:15946   */\n              dup1\n                /* \"--CODEGEN--\":15940:15943   */\n              dup3\n                /* \"--CODEGEN--\":15936:15947   */\n              add\n                /* \"--CODEGEN--\":15930:15948   */\n              mload\n                /* \"--CODEGEN--\":15926:15927   */\n              dup2\n                /* \"--CODEGEN--\":15921:15924   */\n              dup5\n                /* \"--CODEGEN--\":15917:15928   */\n              add\n                /* \"--CODEGEN--\":15910:15949   */\n              mstore\n                /* \"--CODEGEN--\":15891:15893   */\n              0x20\n                /* \"--CODEGEN--\":15888:15889   */\n              dup2\n                /* \"--CODEGEN--\":15884:15894   */\n              add\n                /* \"--CODEGEN--\":15879:15894   */\n              swap1\n              pop\n                /* \"--CODEGEN--\":15855:15956   */\n              jump(tag_424)\n            tag_426:\n                /* \"--CODEGEN--\":15971:15977   */\n              dup4\n                /* \"--CODEGEN--\":15968:15969   */\n              dup2\n                /* \"--CODEGEN--\":15965:15978   */\n              gt\n                /* \"--CODEGEN--\":15962:15964   */\n              iszero\n              tag_427\n              jumpi\n                /* \"--CODEGEN--\":16036:16037   */\n              0x00\n                /* \"--CODEGEN--\":16027:16033   */\n              dup5\n                /* \"--CODEGEN--\":16022:16025   */\n              dup5\n                /* \"--CODEGEN--\":16018:16034   */\n              add\n                /* \"--CODEGEN--\":16011:16038   */\n              mstore\n                /* \"--CODEGEN--\":15962:15964   */\n            tag_427:\n                /* \"--CODEGEN--\":15832:16051   */\n              pop\n              pop\n              pop\n              pop\n              jump\t// out\n                /* \"--CODEGEN--\":16059:16156   */\n            tag_320:\n              0x00\n                /* \"--CODEGEN--\":16147:16149   */\n              0x1f\n                /* \"--CODEGEN--\":16143:16150   */\n              not\n                /* \"--CODEGEN--\":16138:16140   */\n              0x1f\n                /* \"--CODEGEN--\":16131:16136   */\n              dup4\n                /* \"--CODEGEN--\":16127:16141   */\n              add\n                /* \"--CODEGEN--\":16123:16151   */\n              and\n                /* \"--CODEGEN--\":16113:16151   */\n              swap1\n              pop\n                /* \"--CODEGEN--\":16107:16156   */\n              swap2\n              swap1\n              pop\n              jump\t// out\n                /* \"--CODEGEN--\":16164:16265   */\n            tag_405:\n                /* \"--CODEGEN--\":16243:16244   */\n              0x05\n                /* \"--CODEGEN--\":16236:16241   */\n              dup2\n                /* \"--CODEGEN--\":16233:16245   */\n              lt\n                /* \"--CODEGEN--\":16223:16225   */\n              tag_430\n              jumpi\n                /* \"--CODEGEN--\":16249:16258   */\n              invalid\n                /* \"--CODEGEN--\":16223:16225   */\n            tag_430:\n                /* \"--CODEGEN--\":16217:16265   */\n              pop\n              jump\t// out\n                /* \"--CODEGEN--\":16272:16389   */\n            tag_257:\n                /* \"--CODEGEN--\":16341:16365   */\n              tag_432\n                /* \"--CODEGEN--\":16359:16364   */\n              dup2\n                /* \"--CODEGEN--\":16341:16365   */\n              tag_302\n              jump\t// in\n            tag_432:\n                /* \"--CODEGEN--\":16334:16339   */\n              dup2\n                /* \"--CODEGEN--\":16331:16366   */\n              eq\n                /* \"--CODEGEN--\":16321:16323   */\n              tag_433\n              jumpi\n                /* \"--CODEGEN--\":16380:16381   */\n              0x00\n                /* \"--CODEGEN--\":16377:16378   */\n              dup1\n                /* \"--CODEGEN--\":16370:16382   */\n              revert\n                /* \"--CODEGEN--\":16321:16323   */\n            tag_433:\n                /* \"--CODEGEN--\":16315:16389   */\n              pop\n              jump\t// out\n                /* \"--CODEGEN--\":16396:16507   */\n            tag_261:\n                /* \"--CODEGEN--\":16462:16483   */\n              tag_435\n                /* \"--CODEGEN--\":16477:16482   */\n              dup2\n                /* \"--CODEGEN--\":16462:16483   */\n              tag_400\n              jump\t// in\n            tag_435:\n                /* \"--CODEGEN--\":16455:16460   */\n              dup2\n                /* \"--CODEGEN--\":16452:16484   */\n              eq\n                /* \"--CODEGEN--\":16442:16444   */\n              tag_436\n              jumpi\n                /* \"--CODEGEN--\":16498:16499   */\n              0x00\n                /* \"--CODEGEN--\":16495:16496   */\n              dup1\n                /* \"--CODEGEN--\":16488:16500   */\n              revert\n                /* \"--CODEGEN--\":16442:16444   */\n            tag_436:\n                /* \"--CODEGEN--\":16436:16507   */\n              pop\n              jump\t// out\n                /* \"--CODEGEN--\":16514:16631   */\n            tag_276:\n                /* \"--CODEGEN--\":16583:16607   */\n              tag_438\n                /* \"--CODEGEN--\":16601:16606   */\n              dup2\n                /* \"--CODEGEN--\":16583:16607   */\n              tag_351\n              jump\t// in\n            tag_438:\n                /* \"--CODEGEN--\":16576:16581   */\n              dup2\n                /* \"--CODEGEN--\":16573:16608   */\n              eq\n                /* \"--CODEGEN--\":16563:16565   */\n              tag_439\n              jumpi\n                /* \"--CODEGEN--\":16622:16623   */\n              0x00\n                /* \"--CODEGEN--\":16619:16620   */\n              dup1\n                /* \"--CODEGEN--\":16612:16624   */\n              revert\n                /* \"--CODEGEN--\":16563:16565   */\n            tag_439:\n                /* \"--CODEGEN--\":16557:16631   */\n              pop\n              jump\t// out\n\n            auxdata: 0xa26469706673582212208a1ddea9193413b3b06ee915aa33d0407b891ea80f3a8516df8b3e14c2079eeb64736f6c634300060c0033\n        }\n    }\n\n    auxdata: 0xa2646970667358221220fc8b0739a21b6232fed7150d0204caf8d0f7679605f250528046c4920ca3151764736f6c634300060c0033\n}\n","bytecode":{"linkReferences":{},"object":"60806040523480156200001157600080fd5b5060405162006bd238038062006bd2833981810160405281019062000037919062000200565b600062000049620001e160201b60201c565b9050806000806101000a81548173ffffffffffffffffffffffffffffffffffffffff021916908373ffffffffffffffffffffffffffffffffffffffff1602179055508073ffffffffffffffffffffffffffffffffffffffff16600073ffffffffffffffffffffffffffffffffffffffff167f8be0079c531659141344cd1fd0a4f28419497f9722a3daafe3b4186f6b6457e060405160405180910390a35080600c60006101000a81548173ffffffffffffffffffffffffffffffffffffffff021916908373ffffffffffffffffffffffffffffffffffffffff160217905550600c60009054906101000a900473ffffffffffffffffffffffffffffffffffffffff16600d60006101000a81548173ffffffffffffffffffffffffffffffffffffffff021916908373ffffffffffffffffffffffffffffffffffffffff16021790555062083d60600e60010181905550614650600e600201819055506096600e600301819055506078600e6004018190555062107ac0600e60050181905550612710600e6000018190555043600b81905550506200027a565b600033905090565b600081519050620001fa8162000260565b92915050565b6000602082840312156200021357600080fd5b60006200022384828501620001e9565b91505092915050565b6000620002398262000240565b9050919050565b600073ffffffffffffffffffffffffffffffffffffffff82169050919050565b6200026b816200022c565b81146200027757600080fd5b50565b616948806200028a6000396000f3fe60806040523480156200001157600080fd5b5060043610620001f05760003560e01c80638da5cb5b1162000111578063c7c8962811620000a5578063e7bafd1a116200007b578063e7bafd1a1462000590578063f0427dff14620005c6578063f2fde38b14620005e6578063f450abdd146200060657620001f0565b8063c7c89628146200052c578063cf611d33146200054e578063d00109f9146200057057620001f0565b8063b3a6652411620000e7578063b3a665241462000480578063bf5d50c414620004b6578063bff3de2214620004ec578063c2c1e340146200050c57620001f0565b80638da5cb5b1462000408578063a2b20fe3146200042a578063aeec8c9b146200046057620001f0565b806354f197e011620001895780636bfab938116200015f5780636bfab9381462000386578063715018a614620003bc57806373aa302814620003c8578063799d564c14620003e857620001f0565b806354f197e014620002f857806357159584146200031a5780636085c7df146200035057620001f0565b806326e9fdd811620001cb57806326e9fdd8146200025e57806328964fef146200027e57806328fd10d714620002a057806339075d8914620002d657620001f0565b806309e94d9814620001f55780630c8731ab146200021c57806320600a37146200023c575b600080fd5b620001ff62000626565b604051620002139695949392919062001f41565b60405180910390f35b6200023a600480360381019062000234919062001a53565b62000650565b005b62000246620006f7565b60405162000255919062001eea565b60405180910390f35b6200027c600480360381019062000276919062001a53565b6200074f565b005b62000288620007f6565b60405162000297919062001f24565b60405180910390f35b620002be6004803603810190620002b8919062001973565b620007fc565b604051620002cd919062001dbd565b60405180910390f35b620002e06200081c565b604051620002ef919062001f24565b60405180910390f35b6200030262000822565b60405162000311919062001da0565b60405180910390f35b62000338600480360381019062000332919062001973565b62000848565b60405162000347919062001dbd565b60405180910390f35b6200036e600480360381019062000368919062001a53565b62000868565b6040516200037d919062001da0565b60405180910390f35b620003a460048036038101906200039e919062001a53565b620008a5565b604051620003b3919062001da0565b60405180910390f35b620003c6620008e2565b005b620003e66004803603810190620003e0919062001a53565b62000a3a565b005b62000406600480360381019062000400919062001a53565b62000ae1565b005b6200041262000b88565b60405162000421919062001da0565b60405180910390f35b62000448600480360381019062000442919062001a53565b62000bb1565b60405162000457919062001da0565b60405180910390f35b6200047e600480360381019062000478919062001a7f565b62000bee565b005b6200049e600480360381019062000498919062001a53565b62000d33565b604051620004ad919062001da0565b60405180910390f35b620004d46004803603810190620004ce919062001973565b62000d70565b604051620004e3919062001dbd565b60405180910390f35b6200050a600480360381019062000504919062001a53565b62000d90565b005b6200052a600480360381019062000524919062001a53565b62000ed5565b005b6200053662000f7c565b60405162000545919062001f24565b60405180910390f35b6200055862000f82565b60405162000567919062001dda565b60405180910390f35b6200058e60048036038101906200058891906200199f565b62000fa8565b005b620005ae6004803603810190620005a8919062001973565b620012d3565b604051620005bd919062001dbd565b60405180910390f35b620005e46004803603810190620005de919062001a53565b620012f3565b005b620006046004803603810190620005fe919062001973565b6200139a565b005b6200062460048036038101906200061e91906200199f565b62001564565b005b600e8060000154908060010154908060020154908060030154908060040154908060050154905086565b6200065a6200188f565b73ffffffffffffffffffffffffffffffffffffffff1660008054906101000a900473ffffffffffffffffffffffffffffffffffffffff1673ffffffffffffffffffffffffffffffffffffffff1614620006ea576040517f08c379a0000000000000000000000000000000000000000000000000000000008152600401620006e19062001ec8565b60405180910390fd5b80600e6000018190555050565b6200070162001897565b600e6040518060c00160405290816000820154815260200160018201548152602001600282015481526020016003820154815260200160048201548152602001600582015481525050905090565b620007596200188f565b73ffffffffffffffffffffffffffffffffffffffff1660008054906101000a900473ffffffffffffffffffffffffffffffffffffffff1673ffffffffffffffffffffffffffffffffffffffff1614620007e9576040517f08c379a0000000000000000000000000000000000000000000000000000000008152600401620007e09062001ec8565b60405180910390fd5b80600e6003018190555050565b60015481565b60066020528060005260406000206000915054906101000a900460ff1681565b600b5481565b600c60009054906101000a900473ffffffffffffffffffffffffffffffffffffffff1681565b60086020528060005260406000206000915054906101000a900460ff1681565b600481815481106200087657fe5b906000526020600020016000915054906101000a900473ffffffffffffffffffffffffffffffffffffffff1681565b60098181548110620008b357fe5b906000526020600020016000915054906101000a900473ffffffffffffffffffffffffffffffffffffffff1681565b620008ec6200188f565b73ffffffffffffffffffffffffffffffffffffffff1660008054906101000a900473ffffffffffffffffffffffffffffffffffffffff1673ffffffffffffffffffffffffffffffffffffffff16146200097c576040517f08c379a0000000000000000000000000000000000000000000000000000000008152600401620009739062001ec8565b60405180910390fd5b600073ffffffffffffffffffffffffffffffffffffffff1660008054906101000a900473ffffffffffffffffffffffffffffffffffffffff1673ffffffffffffffffffffffffffffffffffffffff167f8be0079c531659141344cd1fd0a4f28419497f9722a3daafe3b4186f6b6457e060405160405180910390a360008060006101000a81548173ffffffffffffffffffffffffffffffffffffffff021916908373ffffffffffffffffffffffffffffffffffffffff160217905550565b62000a446200188f565b73ffffffffffffffffffffffffffffffffffffffff1660008054906101000a900473ffffffffffffffffffffffffffffffffffffffff1673ffffffffffffffffffffffffffffffffffffffff161462000ad4576040517f08c379a000000000000000000000000000000000000000000000000000000000815260040162000acb9062001ec8565b60405180910390fd5b80600e6002018190555050565b62000aeb6200188f565b73ffffffffffffffffffffffffffffffffffffffff1660008054906101000a900473ffffffffffffffffffffffffffffffffffffffff1673ffffffffffffffffffffffffffffffffffffffff161462000b7b576040517f08c379a000000000000000000000000000000000000000000000000000000000815260040162000b729062001ec8565b60405180910390fd5b80600e6005018190555050565b60008060009054906101000a900473ffffffffffffffffffffffffffffffffffffffff16905090565b6007818154811062000bbf57fe5b906000526020600020016000915054906101000a900473ffffffffffffffffffffffffffffffffffffffff1681565b62000bf86200188f565b73ffffffffffffffffffffffffffffffffffffffff1660008054906101000a900473ffffffffffffffffffffffffffffffffffffffff1673ffffffffffffffffffffffffffffffffffffffff161462000c88576040517f08c379a000000000000000000000000000000000000000000000000000000000815260040162000c7f9062001ec8565b60405180910390fd5b6007828154811062000c9657fe5b9060005260206000200160009054906101000a900473ffffffffffffffffffffffffffffffffffffffff1673ffffffffffffffffffffffffffffffffffffffff1663708196ae826040518263ffffffff1660e01b815260040162000cfb919062001f24565b600060405180830381600087803b15801562000d1657600080fd5b505af115801562000d2b573d6000803e3d6000fd5b505050505050565b6002818154811062000d4157fe5b906000526020600020016000915054906101000a900473ffffffffffffffffffffffffffffffffffffffff1681565b60056020528060005260406000206000915054906101000a900460ff1681565b62000d9a6200188f565b73ffffffffffffffffffffffffffffffffffffffff1660008054906101000a900473ffffffffffffffffffffffffffffffffffffffff1673ffffffffffffffffffffffffffffffffffffffff161462000e2a576040517f08c379a000000000000000000000000000000000000000000000000000000000815260040162000e219062001ec8565b60405180910390fd5b6007818154811062000e3857fe5b9060005260206000200160009054906101000a900473ffffffffffffffffffffffffffffffffffffffff1673ffffffffffffffffffffffffffffffffffffffff1663c6cb6770600e6040518263ffffffff1660e01b815260040162000e9e919062001f07565b600060405180830381600087803b15801562000eb957600080fd5b505af115801562000ece573d6000803e3d6000fd5b5050505050565b62000edf6200188f565b73ffffffffffffffffffffffffffffffffffffffff1660008054906101000a900473ffffffffffffffffffffffffffffffffffffffff1673ffffffffffffffffffffffffffffffffffffffff161462000f6f576040517f08c379a000000000000000000000000000000000000000000000000000000000815260040162000f669062001ec8565b60405180910390fd5b80600e6001018190555050565b60035481565b600d60009054906101000a900473ffffffffffffffffffffffffffffffffffffffff1681565b6000339050600073ffffffffffffffffffffffffffffffffffffffff168173ffffffffffffffffffffffffffffffffffffffff16141562001020576040517f08c379a0000000000000000000000000000000000000000000000000000000008152600401620010179062001ea6565b60405180910390fd5b6001600560008373ffffffffffffffffffffffffffffffffffffffff1673ffffffffffffffffffffffffffffffffffffffff16815260200190815260200160002060006101000a81548160ff0219169083151502179055506002819080600181540180825580915050600190039060005260206000200160009091909190916101000a81548173ffffffffffffffffffffffffffffffffffffffff021916908373ffffffffffffffffffffffffffffffffffffffff16021790555060028054905060018190555060008686868686600e30604051620010ff90620018cd565b62001111979695949392919062001df7565b604051809103906000f0801580156200112e573d6000803e3d6000fd5b5090506001600860008373ffffffffffffffffffffffffffffffffffffffff1673ffffffffffffffffffffffffffffffffffffffff16815260200190815260200160002060006101000a81548160ff0219169083151502179055506007819080600181540180825580915050600190039060005260206000200160009091909190916101000a81548173ffffffffffffffffffffffffffffffffffffffff021916908373ffffffffffffffffffffffffffffffffffffffff16021790555060008190508073ffffffffffffffffffffffffffffffffffffffff1663f2fde38b846040518263ffffffff1660e01b81526004016200122c919062001da0565b600060405180830381600087803b1580156200124757600080fd5b505af11580156200125c573d6000803e3d6000fd5b505050508173ffffffffffffffffffffffffffffffffffffffff168373ffffffffffffffffffffffffffffffffffffffff167f1519d7f9990f04680be1a1b64a5e8ef2c24c9a5f94de2c3c50f9e3aef18fc55f600154604051620012c1919062001f24565b60405180910390a35050505050505050565b600a6020528060005260406000206000915054906101000a900460ff1681565b620012fd6200188f565b73ffffffffffffffffffffffffffffffffffffffff1660008054906101000a900473ffffffffffffffffffffffffffffffffffffffff1673ffffffffffffffffffffffffffffffffffffffff16146200138d576040517f08c379a0000000000000000000000000000000000000000000000000000000008152600401620013849062001ec8565b60405180910390fd5b80600e6004018190555050565b620013a46200188f565b73ffffffffffffffffffffffffffffffffffffffff1660008054906101000a900473ffffffffffffffffffffffffffffffffffffffff1673ffffffffffffffffffffffffffffffffffffffff161462001434576040517f08c379a00000000000000000000000000000000000000000000000000000000081526004016200142b9062001ec8565b60405180910390fd5b600073ffffffffffffffffffffffffffffffffffffffff168173ffffffffffffffffffffffffffffffffffffffff161415620014a7576040517f08c379a00000000000000000000000000000000000000000000000000000000081526004016200149e9062001e84565b60405180910390fd5b8073ffffffffffffffffffffffffffffffffffffffff1660008054906101000a900473ffffffffffffffffffffffffffffffffffffffff1673ffffffffffffffffffffffffffffffffffffffff167f8be0079c531659141344cd1fd0a4f28419497f9722a3daafe3b4186f6b6457e060405160405180910390a3806000806101000a81548173ffffffffffffffffffffffffffffffffffffffff021916908373ffffffffffffffffffffffffffffffffffffffff16021790555050565b6000339050600073ffffffffffffffffffffffffffffffffffffffff168173ffffffffffffffffffffffffffffffffffffffff161415620015dc576040517f08c379a0000000000000000000000000000000000000000000000000000000008152600401620015d39062001ea6565b60405180910390fd5b6001600560008373ffffffffffffffffffffffffffffffffffffffff1673ffffffffffffffffffffffffffffffffffffffff16815260200190815260200160002060006101000a81548160ff0219169083151502179055506002819080600181540180825580915050600190039060005260206000200160009091909190916101000a81548173ffffffffffffffffffffffffffffffffffffffff021916908373ffffffffffffffffffffffffffffffffffffffff16021790555060028054905060018190555060008686868686600e30604051620016bb90620018db565b620016cd979695949392919062001df7565b604051809103906000f080158015620016ea573d6000803e3d6000fd5b5090506001600a60008373ffffffffffffffffffffffffffffffffffffffff1673ffffffffffffffffffffffffffffffffffffffff16815260200190815260200160002060006101000a81548160ff0219169083151502179055506009819080600181540180825580915050600190039060005260206000200160009091909190916101000a81548173ffffffffffffffffffffffffffffffffffffffff021916908373ffffffffffffffffffffffffffffffffffffffff16021790555060008190508073ffffffffffffffffffffffffffffffffffffffff1663f2fde38b846040518263ffffffff1660e01b8152600401620017e8919062001da0565b600060405180830381600087803b1580156200180357600080fd5b505af115801562001818573d6000803e3d6000fd5b505050508173ffffffffffffffffffffffffffffffffffffffff168373ffffffffffffffffffffffffffffffffffffffff167f1519d7f9990f04680be1a1b64a5e8ef2c24c9a5f94de2c3c50f9e3aef18fc55f6001546040516200187d919062001f24565b60405180910390a35050505050505050565b600033905090565b6040518060c001604052806000815260200160008152602001600081526020016000815260200160008152602001600081525090565b6121b0806200215783390190565b61260c806200430783390190565b600081359050620018fa8162002122565b92915050565b600082601f8301126200191257600080fd5b813562001929620019238262001fdc565b62001fae565b915080825260208301602083018583830111156200194657600080fd5b62001953838284620020a1565b50505092915050565b6000813590506200196d816200213c565b92915050565b6000602082840312156200198657600080fd5b60006200199684828501620018e9565b91505092915050565b600080600080600060a08688031215620019b857600080fd5b600086013567ffffffffffffffff811115620019d357600080fd5b620019e18882890162001900565b955050602086013567ffffffffffffffff811115620019ff57600080fd5b62001a0d8882890162001900565b945050604062001a20888289016200195c565b935050606062001a33888289016200195c565b925050608062001a46888289016200195c565b9150509295509295909350565b60006020828403121562001a6657600080fd5b600062001a76848285016200195c565b91505092915050565b6000806040838503121562001a9357600080fd5b600062001aa3858286016200195c565b925050602062001ab6858286016200195c565b9150509250929050565b62001acb816200202f565b82525050565b62001adc8162002043565b82525050565b62001aed8162002079565b82525050565b600062001b008262002009565b62001b0c818562002014565b935062001b1e818560208601620020b0565b62001b298162002104565b840191505092915050565b600062001b4360268362002014565b91507f4f776e61626c653a206e6577206f776e657220697320746865207a65726f206160008301527f64647265737300000000000000000000000000000000000000000000000000006020830152604082019050919050565b600062001bab60168362002014565b91507f53656e6465722041646472657373206973207a65726f000000000000000000006000830152602082019050919050565b600062001bed60208362002014565b91507f4f776e61626c653a2063616c6c6572206973206e6f7420746865206f776e65726000830152602082019050919050565b60c08201600082015162001c38600085018262001d7e565b50602082015162001c4d602085018262001d7e565b50604082015162001c62604085018262001d7e565b50606082015162001c77606085018262001d7e565b50608082015162001c8c608085018262001d7e565b5060a082015162001ca160a085018262001d7e565b50505050565b60c08201600080830154905062001cbe81620020e6565b62001ccd600086018262001d7e565b506001830154905062001ce081620020e6565b62001cef602086018262001d7e565b506002830154905062001d0281620020e6565b62001d11604086018262001d7e565b506003830154905062001d2481620020e6565b62001d33606086018262001d7e565b506004830154905062001d4681620020e6565b62001d55608086018262001d7e565b506005830154905062001d6881620020e6565b62001d7760a086018262001d7e565b5050505050565b62001d89816200206f565b82525050565b62001d9a816200206f565b82525050565b600060208201905062001db7600083018462001ac0565b92915050565b600060208201905062001dd4600083018462001ad1565b92915050565b600060208201905062001df1600083018462001ae2565b92915050565b600061018082019050818103600083015262001e14818a62001af3565b9050818103602083015262001e2a818962001af3565b905062001e3b604083018862001d8f565b62001e4a606083018762001d8f565b62001e59608083018662001d8f565b62001e6860a083018562001ca7565b62001e7861016083018462001ac0565b98975050505050505050565b6000602082019050818103600083015262001e9f8162001b34565b9050919050565b6000602082019050818103600083015262001ec18162001b9c565b9050919050565b6000602082019050818103600083015262001ee38162001bde565b9050919050565b600060c08201905062001f01600083018462001c20565b92915050565b600060c08201905062001f1e600083018462001ca7565b92915050565b600060208201905062001f3b600083018462001d8f565b92915050565b600060c08201905062001f58600083018962001d8f565b62001f67602083018862001d8f565b62001f76604083018762001d8f565b62001f85606083018662001d8f565b62001f94608083018562001d8f565b62001fa360a083018462001d8f565b979650505050505050565b6000604051905081810181811067ffffffffffffffff8211171562001fd257600080fd5b8060405250919050565b600067ffffffffffffffff82111562001ff457600080fd5b601f19601f8301169050602081019050919050565b600081519050919050565b600082825260208201905092915050565b6000819050919050565b60006200203c826200204f565b9050919050565b60008115159050919050565b600073ffffffffffffffffffffffffffffffffffffffff82169050919050565b6000819050919050565b600062002086826200208d565b9050919050565b60006200209a826200204f565b9050919050565b82818337600083830152505050565b60005b83811015620020d0578082015181840152602081019050620020b3565b83811115620020e0576000848401525b50505050565b6000620020fd620020f78362002115565b62002025565b9050919050565b6000601f19601f8301169050919050565b60008160001c9050919050565b6200212d816200202f565b81146200213957600080fd5b50565b62002147816200206f565b81146200215357600080fd5b5056fe60806040523480156200001157600080fd5b50604051620021b0380380620021b08339818101604052810190620000379190620004a8565b868484848460006200004e620002c560201b60201c565b9050806000806101000a81548173ffffffffffffffffffffffffffffffffffffffff021916908373ffffffffffffffffffffffffffffffffffffffff1602179055508073ffffffffffffffffffffffffffffffffffffffff16600073ffffffffffffffffffffffffffffffffffffffff167f8be0079c531659141344cd1fd0a4f28419497f9722a3daafe3b4186f6b6457e060405160405180910390a350816001600082015181600001556020820151816001015560408201518160020155606082015181600301556080820151816004015560a0820151816005015590505060016000015484101562000179576040517f08c379a00000000000000000000000000000000000000000000000000000000081526004016200017090620005dc565b60405180910390fd5b846008908051906020019062000191929190620002cd565b5082600a8190555080601260006101000a81548173ffffffffffffffffffffffffffffffffffffffff021916908373ffffffffffffffffffffffffffffffffffffffff1602179055508360098190555043600c819055507f656ad37b815087d90f0c4cbdbf28a9ef3e92cfeb045dd15eaa452cc8b1d34e00600c546040516200021b9190620005fe565b60405180910390a15050505050856014908051906020019062000240929190620002cd565b50846015819055506000600760006101000a81548160ff021916908360048111156200026857fe5b0217905550600060108190555060006011819055507f656ad37b815087d90f0c4cbdbf28a9ef3e92cfeb045dd15eaa452cc8b1d34e00600c54604051620002b09190620005fe565b60405180910390a1505050505050506200072f565b600033905090565b828054600181600116156101000203166002900490600052602060002090601f016020900481019282601f106200031057805160ff191683800117855562000341565b8280016001018555821562000341579182015b828111156200034057825182559160200191906001019062000323565b5b50905062000350919062000354565b5090565b5b808211156200036f57600081600090555060010162000355565b5090565b6000815190506200038481620006fb565b92915050565b600082601f8301126200039c57600080fd5b8151620003b3620003ad8262000649565b6200061b565b91508082526020830160208301858383011115620003d057600080fd5b620003dd838284620006c5565b50505092915050565b600060c08284031215620003f957600080fd5b6200040560c06200061b565b90506000620004178482850162000491565b60008301525060206200042d8482850162000491565b6020830152506040620004438482850162000491565b6040830152506060620004598482850162000491565b60608301525060806200046f8482850162000491565b60808301525060a0620004858482850162000491565b60a08301525092915050565b600081519050620004a28162000715565b92915050565b6000806000806000806000610180888a031215620004c557600080fd5b600088015167ffffffffffffffff811115620004e057600080fd5b620004ee8a828b016200038a565b975050602088015167ffffffffffffffff8111156200050c57600080fd5b6200051a8a828b016200038a565b96505060406200052d8a828b0162000491565b9550506060620005408a828b0162000491565b9450506080620005538a828b0162000491565b93505060a0620005668a828b01620003e6565b9250506101606200057a8a828b0162000373565b91505092959891949750929550565b60006200059860118362000676565b91507f496e74657265737420746f6f206c6f77210000000000000000000000000000006000830152602082019050919050565b620005d681620006bb565b82525050565b60006020820190508181036000830152620005f78162000589565b9050919050565b6000602082019050620006156000830184620005cb565b92915050565b6000604051905081810181811067ffffffffffffffff821117156200063f57600080fd5b8060405250919050565b600067ffffffffffffffff8211156200066157600080fd5b601f19601f8301169050602081019050919050565b600082825260208201905092915050565b600062000694826200069b565b9050919050565b600073ffffffffffffffffffffffffffffffffffffffff82169050919050565b6000819050919050565b60005b83811015620006e5578082015181840152602081019050620006c8565b83811115620006f5576000848401525b50505050565b620007068162000687565b81146200071257600080fd5b50565b6200072081620006bb565b81146200072c57600080fd5b50565b611a71806200073f6000396000f3fe60806040526004361061016a5760003560e01c8063715018a6116100d1578063adc38b061161008a578063e5acc18711610064578063e5acc187146104fe578063eaf3a62e14610529578063f1a9af8914610554578063f2fde38b1461057f576101aa565b8063adc38b061461047f578063b2ca1805146104aa578063c6cb6770146104d5576101aa565b8063715018a6146103a557806380cc0269146103bc5780638a0dac21146103e75780638da5cb5b1461041257806394a83eeb1461043d578063a2df9b1f14610454576101aa565b80632a3d7c81116101235780632a3d7c81146102a75780633702e6cb146102d257806344dc7fbc146102fd5780635dc334bf146103285780636f9fb98a14610351578063708196ae1461037c576101aa565b8063074ca966146101af57806309e94d98146101da5780630e031a941461020a57806317634514146102355780631cbd83801461026057806325e160631461028b576101aa565b366101aa577f85177f287940f2f05425a4029951af0e047a7f9c4eaa9a6e6917bcd869f8669533346040516101a09291906116b2565b60405180910390a1005b600080fd5b3480156101bb57600080fd5b506101c46105a8565b6040516101d191906116f6565b60405180910390f35b3480156101e657600080fd5b506101ef6105bb565b6040516102019695949392919061180e565b60405180910390f35b34801561021657600080fd5b5061021f6105e5565b60405161022c91906117f3565b60405180910390f35b34801561024157600080fd5b5061024a6105eb565b60405161025791906117f3565b60405180910390f35b34801561026c57600080fd5b506102756105f1565b60405161028291906117f3565b60405180910390f35b6102a560048036038101906102a091906112ac565b6105f7565b005b3480156102b357600080fd5b506102bc61073e565b6040516102c991906117f3565b60405180910390f35b3480156102de57600080fd5b506102e7610744565b6040516102f49190611697565b60405180910390f35b34801561030957600080fd5b5061031261076a565b60405161031f91906116db565b60405180910390f35b34801561033457600080fd5b5061034f600480360381019061034a9190611283565b610790565b005b34801561035d57600080fd5b5061036661092e565b60405161037391906117f3565b60405180910390f35b34801561038857600080fd5b506103a3600480360381019061039e91906112fe565b610994565b005b3480156103b157600080fd5b506103ba610b03565b005b3480156103c857600080fd5b506103d1610c56565b6040516103de9190611711565b60405180910390f35b3480156103f357600080fd5b506103fc610cf4565b60405161040991906117f3565b60405180910390f35b34801561041e57600080fd5b50610427610cfa565b6040516104349190611697565b60405180910390f35b34801561044957600080fd5b50610452610d23565b005b34801561046057600080fd5b50610469610e4d565b60405161047691906117f3565b60405180910390f35b34801561048b57600080fd5b50610494610e53565b6040516104a19190611711565b60405180910390f35b3480156104b657600080fd5b506104bf610ef1565b6040516104cc91906117f3565b60405180910390f35b3480156104e157600080fd5b506104fc60048036038101906104f791906112d5565b610ef7565b005b34801561050a57600080fd5b50610513610fcc565b60405161052091906117f3565b60405180910390f35b34801561053557600080fd5b5061053e610fd2565b60405161054b91906117f3565b60405180910390f35b34801561056057600080fd5b50610569610fd8565b60405161057691906117f3565b60405180910390f35b34801561058b57600080fd5b506105a660048036038101906105a19190611283565b610fde565b005b600760009054906101000a900460ff1681565b60018060000154908060010154908060020154908060030154908060040154908060050154905086565b60095481565b600c5481565b60105481565b6105ff6111a0565b73ffffffffffffffffffffffffffffffffffffffff1660008054906101000a900473ffffffffffffffffffffffffffffffffffffffff1673ffffffffffffffffffffffffffffffffffffffff161461068c576040517f08c379a0000000000000000000000000000000000000000000000000000000008152600401610683906117b3565b60405180910390fd5b6003600481111561069957fe5b600760009054906101000a900460ff1660048111156106b457fe5b146106f4576040517f08c379a00000000000000000000000000000000000000000000000000000000081526004016106eb90611773565b60405180910390fd5b8073ffffffffffffffffffffffffffffffffffffffff166108fc479081150290604051600060405180830381858888f1935050505015801561073a573d6000803e3d6000fd5b5050565b600d5481565b601360009054906101000a900473ffffffffffffffffffffffffffffffffffffffff1681565b601660009054906101000a900473ffffffffffffffffffffffffffffffffffffffff1681565b6107986111a0565b73ffffffffffffffffffffffffffffffffffffffff1660008054906101000a900473ffffffffffffffffffffffffffffffffffffffff1673ffffffffffffffffffffffffffffffffffffffff1614610825576040517f08c379a000000000000000000000000000000000000000000000000000000000815260040161081c906117b3565b60405180910390fd5b600073ffffffffffffffffffffffffffffffffffffffff168173ffffffffffffffffffffffffffffffffffffffff161415610895576040517f08c379a000000000000000000000000000000000000000000000000000000000815260040161088c90611753565b60405180910390fd5b3073ffffffffffffffffffffffffffffffffffffffff1663f2fde38b826040518263ffffffff1660e01b81526004016108ce9190611697565b600060405180830381600087803b1580156108e857600080fd5b505af11580156108fc573d6000803e3d6000fd5b5050505043600e819055506001600760006101000a81548160ff0219169083600481111561092657fe5b021790555050565b600060405160200161093f90611682565b604051602081830303815290604052805190602001206014604051602001610967919061166b565b60405160208183030381529060405280519060200120141561098d576010549050610991565b4790505b90565b601260009054906101000a900473ffffffffffffffffffffffffffffffffffffffff1673ffffffffffffffffffffffffffffffffffffffff163373ffffffffffffffffffffffffffffffffffffffff1614610a24576040517f08c379a0000000000000000000000000000000000000000000000000000000008152600401610a1b90611753565b60405180910390fd5b60008110158015610a36575060048111155b610a75576040517f08c379a0000000000000000000000000000000000000000000000000000000008152600401610a6c90611793565b60405180910390fd5b600760009054906101000a900460ff166004811115610a9057fe5b811415610ad2576040517f08c379a0000000000000000000000000000000000000000000000000000000008152600401610ac9906117d3565b60405180910390fd5b806004811115610ade57fe5b600760006101000a81548160ff02191690836004811115610afb57fe5b021790555050565b610b0b6111a0565b73ffffffffffffffffffffffffffffffffffffffff1660008054906101000a900473ffffffffffffffffffffffffffffffffffffffff1673ffffffffffffffffffffffffffffffffffffffff1614610b98576040517f08c379a0000000000000000000000000000000000000000000000000000000008152600401610b8f906117b3565b60405180910390fd5b600073ffffffffffffffffffffffffffffffffffffffff1660008054906101000a900473ffffffffffffffffffffffffffffffffffffffff1673ffffffffffffffffffffffffffffffffffffffff167f8be0079c531659141344cd1fd0a4f28419497f9722a3daafe3b4186f6b6457e060405160405180910390a360008060006101000a81548173ffffffffffffffffffffffffffffffffffffffff021916908373ffffffffffffffffffffffffffffffffffffffff160217905550565b60088054600181600116156101000203166002900480601f016020809104026020016040519081016040528092919081815260200182805460018160011615610100020316600290048015610cec5780601f10610cc157610100808354040283529160200191610cec565b820191906000526020600020905b815481529060010190602001808311610ccf57829003601f168201915b505050505081565b600f5481565b60008060009054906101000a900473ffffffffffffffffffffffffffffffffffffffff16905090565b610d2b6111a0565b73ffffffffffffffffffffffffffffffffffffffff1660008054906101000a900473ffffffffffffffffffffffffffffffffffffffff1673ffffffffffffffffffffffffffffffffffffffff1614610db8576040517f08c379a0000000000000000000000000000000000000000000000000000000008152600401610daf906117b3565b60405180910390fd5b60016004811115610dc557fe5b600760009054906101000a900460ff166004811115610de057fe5b14610e20576040517f08c379a0000000000000000000000000000000000000000000000000000000008152600401610e1790611773565b60405180910390fd5b43600f819055506002600760006101000a81548160ff02191690836004811115610e4657fe5b0217905550565b600b5481565b60148054600181600116156101000203166002900480601f016020809104026020016040519081016040528092919081815260200182805460018160011615610100020316600290048015610ee95780601f10610ebe57610100808354040283529160200191610ee9565b820191906000526020600020905b815481529060010190602001808311610ecc57829003601f168201915b505050505081565b600e5481565b601260009054906101000a900473ffffffffffffffffffffffffffffffffffffffff1673ffffffffffffffffffffffffffffffffffffffff163373ffffffffffffffffffffffffffffffffffffffff1614610f87576040517f08c379a0000000000000000000000000000000000000000000000000000000008152600401610f7e90611753565b60405180910390fd5b806001600082015181600001556020820151816001015560408201518160020155606082015181600301556080820151816004015560a0820151816005015590505050565b60155481565b60115481565b600a5481565b610fe66111a0565b73ffffffffffffffffffffffffffffffffffffffff1660008054906101000a900473ffffffffffffffffffffffffffffffffffffffff1673ffffffffffffffffffffffffffffffffffffffff1614611073576040517f08c379a000000000000000000000000000000000000000000000000000000000815260040161106a906117b3565b60405180910390fd5b600073ffffffffffffffffffffffffffffffffffffffff168173ffffffffffffffffffffffffffffffffffffffff1614156110e3576040517f08c379a00000000000000000000000000000000000000000000000000000000081526004016110da90611733565b60405180910390fd5b8073ffffffffffffffffffffffffffffffffffffffff1660008054906101000a900473ffffffffffffffffffffffffffffffffffffffff1673ffffffffffffffffffffffffffffffffffffffff167f8be0079c531659141344cd1fd0a4f28419497f9722a3daafe3b4186f6b6457e060405160405180910390a3806000806101000a81548173ffffffffffffffffffffffffffffffffffffffff021916908373ffffffffffffffffffffffffffffffffffffffff16021790555050565b600033905090565b6000813590506111b7816119f6565b92915050565b6000813590506111cc81611a0d565b92915050565b600060c082840312156111e457600080fd5b6111ee60c061186f565b905060006111fe8482850161126e565b60008301525060206112128482850161126e565b60208301525060406112268482850161126e565b604083015250606061123a8482850161126e565b606083015250608061124e8482850161126e565b60808301525060a06112628482850161126e565b60a08301525092915050565b60008135905061127d81611a24565b92915050565b60006020828403121561129557600080fd5b60006112a3848285016111a8565b91505092915050565b6000602082840312156112be57600080fd5b60006112cc848285016111bd565b91505092915050565b600060c082840312156112e757600080fd5b60006112f5848285016111d2565b91505092915050565b60006020828403121561131057600080fd5b600061131e8482850161126e565b91505092915050565b61133081611939565b82525050565b61133f816118d8565b82525050565b61134e8161194b565b82525050565b61135d8161196f565b82525050565b600061136e826118b1565b61137881856118bc565b93506113888185602086016119a5565b611391816119d8565b840191505092915050565b6000815460018116600081146113b957600181146113de57611422565b607f60028304166113ca81876118cd565b955060ff1983168652808601935050611422565b600282046113ec81876118cd565b95506113f78561189c565b60005b82811015611419578154818901526001820191506020810190506113fa565b82880195505050505b505092915050565b60006114376026836118bc565b91507f4f776e61626c653a206e6577206f776e657220697320746865207a65726f206160008301527f64647265737300000000000000000000000000000000000000000000000000006020830152604082019050919050565b600061149d6004836118cd565b91507f45555253000000000000000000000000000000000000000000000000000000006000830152600482019050919050565b60006114dd6013836118bc565b91507f41646472657373206e6f7420616c6c6f776564000000000000000000000000006000830152602082019050919050565b600061151d6033836118bc565b91507f4c6f616e20737461747573206e6f7420636f6d70617469626c6520776974682060008301527f666f7265636c6f73696e6720616374696f6e73000000000000000000000000006020830152604082019050919050565b60006115836013836118bc565b91507f4e6577207374617465206e6f742076616c6964000000000000000000000000006000830152602082019050919050565b60006115c36020836118bc565b91507f4f776e61626c653a2063616c6c6572206973206e6f7420746865206f776e65726000830152602082019050919050565b60006116036027836118bc565b91507f4e657720737461747573206973207468652073616d65206c696b65207072657360008301527f656e74206f6e65000000000000000000000000000000000000000000000000006020830152604082019050919050565b6116658161192f565b82525050565b6000611677828461139c565b915081905092915050565b600061168d82611490565b9150819050919050565b60006020820190506116ac6000830184611336565b92915050565b60006040820190506116c76000830185611327565b6116d4602083018461165c565b9392505050565b60006020820190506116f06000830184611345565b92915050565b600060208201905061170b6000830184611354565b92915050565b6000602082019050818103600083015261172b8184611363565b905092915050565b6000602082019050818103600083015261174c8161142a565b9050919050565b6000602082019050818103600083015261176c816114d0565b9050919050565b6000602082019050818103600083015261178c81611510565b9050919050565b600060208201905081810360008301526117ac81611576565b9050919050565b600060208201905081810360008301526117cc816115b6565b9050919050565b600060208201905081810360008301526117ec816115f6565b9050919050565b6000602082019050611808600083018461165c565b92915050565b600060c082019050611823600083018961165c565b611830602083018861165c565b61183d604083018761165c565b61184a606083018661165c565b611857608083018561165c565b61186460a083018461165c565b979650505050505050565b6000604051905081810181811067ffffffffffffffff8211171561189257600080fd5b8060405250919050565b60008190508160005260206000209050919050565b600081519050919050565b600082825260208201905092915050565b600081905092915050565b60006118e38261190f565b9050919050565b60006118f58261190f565b9050919050565b600081905061190a826119e9565b919050565b600073ffffffffffffffffffffffffffffffffffffffff82169050919050565b6000819050919050565b600061194482611981565b9050919050565b60006119568261195d565b9050919050565b60006119688261190f565b9050919050565b600061197a826118fc565b9050919050565b600061198c82611993565b9050919050565b600061199e8261190f565b9050919050565b60005b838110156119c35780820151818401526020810190506119a8565b838111156119d2576000848401525b50505050565b6000601f19601f8301169050919050565b600581106119f357fe5b50565b6119ff816118d8565b8114611a0a57600080fd5b50565b611a16816118ea565b8114611a2157600080fd5b50565b611a2d8161192f565b8114611a3857600080fd5b5056fea264697066735822122072f1b8f59741c40b40235160f5fb3a56461b902744060a52484275c62b497a5264736f6c634300060c003360806040523480156200001157600080fd5b506040516200260c3803806200260c833981810160405281019062000037919062000512565b868484848460006200004e6200032f60201b60201c565b9050806000806101000a81548173ffffffffffffffffffffffffffffffffffffffff021916908373ffffffffffffffffffffffffffffffffffffffff1602179055508073ffffffffffffffffffffffffffffffffffffffff16600073ffffffffffffffffffffffffffffffffffffffff167f8be0079c531659141344cd1fd0a4f28419497f9722a3daafe3b4186f6b6457e060405160405180910390a350816001600082015181600001556020820151816001015560408201518160020155606082015181600301556080820151816004015560a0820151816005015590505060016000015484101562000179576040517f08c379a0000000000000000000000000000000000000000000000000000000008152600401620001709062000646565b60405180910390fd5b84600890805190602001906200019192919062000337565b5082600a8190555080601260006101000a81548173ffffffffffffffffffffffffffffffffffffffff021916908373ffffffffffffffffffffffffffffffffffffffff1602179055508360098190555043600c819055507f656ad37b815087d90f0c4cbdbf28a9ef3e92cfeb045dd15eaa452cc8b1d34e00600c546040516200021b919062000668565b60405180910390a1505050505085601590805190602001906200024092919062000337565b50601360009054906101000a900473ffffffffffffffffffffffffffffffffffffffff16601760006101000a81548173ffffffffffffffffffffffffffffffffffffffff021916908373ffffffffffffffffffffffffffffffffffffffff1602179055508460168190555043600c819055506000600760006101000a81548160ff02191690836004811115620002d257fe5b0217905550600060108190555060006011819055507f656ad37b815087d90f0c4cbdbf28a9ef3e92cfeb045dd15eaa452cc8b1d34e00600c546040516200031a919062000668565b60405180910390a15050505050505062000799565b600033905090565b828054600181600116156101000203166002900490600052602060002090601f016020900481019282601f106200037a57805160ff1916838001178555620003ab565b82800160010185558215620003ab579182015b82811115620003aa5782518255916020019190600101906200038d565b5b509050620003ba9190620003be565b5090565b5b80821115620003d9576000816000905550600101620003bf565b5090565b600081519050620003ee8162000765565b92915050565b600082601f8301126200040657600080fd5b81516200041d6200041782620006b3565b62000685565b915080825260208301602083018583830111156200043a57600080fd5b620004478382846200072f565b50505092915050565b600060c082840312156200046357600080fd5b6200046f60c062000685565b905060006200048184828501620004fb565b60008301525060206200049784828501620004fb565b6020830152506040620004ad84828501620004fb565b6040830152506060620004c384828501620004fb565b6060830152506080620004d984828501620004fb565b60808301525060a0620004ef84828501620004fb565b60a08301525092915050565b6000815190506200050c816200077f565b92915050565b6000806000806000806000610180888a0312156200052f57600080fd5b600088015167ffffffffffffffff8111156200054a57600080fd5b620005588a828b01620003f4565b975050602088015167ffffffffffffffff8111156200057657600080fd5b620005848a828b01620003f4565b9650506040620005978a828b01620004fb565b9550506060620005aa8a828b01620004fb565b9450506080620005bd8a828b01620004fb565b93505060a0620005d08a828b0162000450565b925050610160620005e48a828b01620003dd565b91505092959891949750929550565b600062000602601183620006e0565b91507f496e74657265737420746f6f206c6f77210000000000000000000000000000006000830152602082019050919050565b620006408162000725565b82525050565b600060208201905081810360008301526200066181620005f3565b9050919050565b60006020820190506200067f600083018462000635565b92915050565b6000604051905081810181811067ffffffffffffffff82111715620006a957600080fd5b8060405250919050565b600067ffffffffffffffff821115620006cb57600080fd5b601f19601f8301169050602081019050919050565b600082825260208201905092915050565b6000620006fe8262000705565b9050919050565b600073ffffffffffffffffffffffffffffffffffffffff82169050919050565b6000819050919050565b60005b838110156200074f57808201518184015260208101905062000732565b838111156200075f576000848401525b50505050565b6200077081620006f1565b81146200077c57600080fd5b50565b6200078a8162000725565b81146200079657600080fd5b50565b611e6380620007a96000396000f3fe6080604052600436106101b75760003560e01c806380cc0269116100ec578063c6cb67701161008a578063eaf3a62e11610064578063eaf3a62e1461058a578063f1a9af89146105b5578063f2fde38b146105e0578063fcbbd57414610609576101b7565b8063c6cb67701461050d578063e5acc18714610536578063eaea4fc914610561576101b7565b806394a83eeb116100c657806394a83eeb14610484578063a2df9b1f1461049b578063b2ca1805146104c6578063bad4a01f146104f1576101b7565b806380cc0269146104035780638a0dac211461042e5780638da5cb5b14610459576101b7565b80633cb852251161015957806368c8d54c1161013357806368c8d54c1461036d5780636f9fb98a14610398578063708196ae146103c3578063715018a6146103ec576101b7565b80633cb85225146102ee57806344dc7fbc146103195780635dc334bf14610344576101b7565b8063176345141161019557806317634514146102425780631cbd83801461026d5780632a3d7c81146102985780633702e6cb146102c3576101b7565b8063074ca966146101bc57806309e94d98146101e75780630e031a9414610217575b600080fd5b3480156101c857600080fd5b506101d1610634565b6040516101de9190611aae565b60405180910390f35b3480156101f357600080fd5b506101fc610647565b60405161020e96959493929190611c26565b60405180910390f35b34801561022357600080fd5b5061022c610671565b6040516102399190611c0b565b60405180910390f35b34801561024e57600080fd5b50610257610677565b6040516102649190611c0b565b60405180910390f35b34801561027957600080fd5b5061028261067d565b60405161028f9190611c0b565b60405180910390f35b3480156102a457600080fd5b506102ad610683565b6040516102ba9190611c0b565b60405180910390f35b3480156102cf57600080fd5b506102d8610689565b6040516102e59190611a26565b60405180910390f35b3480156102fa57600080fd5b506103036106af565b6040516103109190611a93565b60405180910390f35b34801561032557600080fd5b5061032e6106d5565b60405161033b9190611a93565b60405180910390f35b34801561035057600080fd5b5061036b600480360381019061036691906115fd565b6106fb565b005b34801561037957600080fd5b50610382610899565b60405161038f9190611ac9565b60405180910390f35b3480156103a457600080fd5b506103ad610937565b6040516103ba9190611c0b565b60405180910390f35b3480156103cf57600080fd5b506103ea60048036038101906103e59190611678565b6109c2565b005b3480156103f857600080fd5b50610401610b31565b005b34801561040f57600080fd5b50610418610c84565b6040516104259190611ac9565b60405180910390f35b34801561043a57600080fd5b50610443610d22565b6040516104509190611c0b565b60405180910390f35b34801561046557600080fd5b5061046e610d28565b60405161047b9190611a26565b60405180910390f35b34801561049057600080fd5b50610499610d51565b005b3480156104a757600080fd5b506104b0610e7b565b6040516104bd9190611c0b565b60405180910390f35b3480156104d257600080fd5b506104db610e81565b6040516104e89190611c0b565b60405180910390f35b61050b60048036038101906105069190611678565b610e87565b005b34801561051957600080fd5b50610534600480360381019061052f919061164f565b61113a565b005b34801561054257600080fd5b5061054b61120f565b6040516105589190611c0b565b60405180910390f35b34801561056d57600080fd5b50610588600480360381019061058391906115fd565b611215565b005b34801561059657600080fd5b5061059f6112bc565b6040516105ac9190611c0b565b60405180910390f35b3480156105c157600080fd5b506105ca6112c2565b6040516105d79190611c0b565b60405180910390f35b3480156105ec57600080fd5b50610607600480360381019061060291906115fd565b6112c8565b005b34801561061557600080fd5b5061061e61148a565b60405161062b9190611a26565b60405180910390f35b600760009054906101000a900460ff1681565b60018060000154908060010154908060020154908060030154908060040154908060050154905086565b60095481565b600c5481565b60105481565b600d5481565b601460009054906101000a900473ffffffffffffffffffffffffffffffffffffffff1681565b601760009054906101000a900473ffffffffffffffffffffffffffffffffffffffff1681565b601860009054906101000a900473ffffffffffffffffffffffffffffffffffffffff1681565b6107036114b0565b73ffffffffffffffffffffffffffffffffffffffff1660008054906101000a900473ffffffffffffffffffffffffffffffffffffffff1673ffffffffffffffffffffffffffffffffffffffff1614610790576040517f08c379a000000000000000000000000000000000000000000000000000000000815260040161078790611bab565b60405180910390fd5b600073ffffffffffffffffffffffffffffffffffffffff168173ffffffffffffffffffffffffffffffffffffffff161415610800576040517f08c379a00000000000000000000000000000000000000000000000000000000081526004016107f790611b4b565b60405180910390fd5b3073ffffffffffffffffffffffffffffffffffffffff1663f2fde38b826040518263ffffffff1660e01b81526004016108399190611a26565b600060405180830381600087803b15801561085357600080fd5b505af1158015610867573d6000803e3d6000fd5b5050505043600e819055506001600760006101000a81548160ff0219169083600481111561089157fe5b021790555050565b60158054600181600116156101000203166002900480601f01602080910402602001604051908101604052809291908181526020018280546001816001161561010002031660029004801561092f5780601f106109045761010080835404028352916020019161092f565b820191906000526020600020905b81548152906001019060200180831161091257829003601f168201915b505050505081565b6000601360009054906101000a900473ffffffffffffffffffffffffffffffffffffffff1673ffffffffffffffffffffffffffffffffffffffff16601760009054906101000a900473ffffffffffffffffffffffffffffffffffffffff1673ffffffffffffffffffffffffffffffffffffffff1614156109bb5760105490506109bf565b4790505b90565b601260009054906101000a900473ffffffffffffffffffffffffffffffffffffffff1673ffffffffffffffffffffffffffffffffffffffff163373ffffffffffffffffffffffffffffffffffffffff1614610a52576040517f08c379a0000000000000000000000000000000000000000000000000000000008152600401610a4990611b4b565b60405180910390fd5b60008110158015610a64575060048111155b610aa3576040517f08c379a0000000000000000000000000000000000000000000000000000000008152600401610a9a90611b8b565b60405180910390fd5b600760009054906101000a900460ff166004811115610abe57fe5b811415610b00576040517f08c379a0000000000000000000000000000000000000000000000000000000008152600401610af790611beb565b60405180910390fd5b806004811115610b0c57fe5b600760006101000a81548160ff02191690836004811115610b2957fe5b021790555050565b610b396114b0565b73ffffffffffffffffffffffffffffffffffffffff1660008054906101000a900473ffffffffffffffffffffffffffffffffffffffff1673ffffffffffffffffffffffffffffffffffffffff1614610bc6576040517f08c379a0000000000000000000000000000000000000000000000000000000008152600401610bbd90611bab565b60405180910390fd5b600073ffffffffffffffffffffffffffffffffffffffff1660008054906101000a900473ffffffffffffffffffffffffffffffffffffffff1673ffffffffffffffffffffffffffffffffffffffff167f8be0079c531659141344cd1fd0a4f28419497f9722a3daafe3b4186f6b6457e060405160405180910390a360008060006101000a81548173ffffffffffffffffffffffffffffffffffffffff021916908373ffffffffffffffffffffffffffffffffffffffff160217905550565b60088054600181600116156101000203166002900480601f016020809104026020016040519081016040528092919081815260200182805460018160011615610100020316600290048015610d1a5780601f10610cef57610100808354040283529160200191610d1a565b820191906000526020600020905b815481529060010190602001808311610cfd57829003601f168201915b505050505081565b600f5481565b60008060009054906101000a900473ffffffffffffffffffffffffffffffffffffffff16905090565b610d596114b0565b73ffffffffffffffffffffffffffffffffffffffff1660008054906101000a900473ffffffffffffffffffffffffffffffffffffffff1673ffffffffffffffffffffffffffffffffffffffff1614610de6576040517f08c379a0000000000000000000000000000000000000000000000000000000008152600401610ddd90611bab565b60405180910390fd5b60016004811115610df357fe5b600760009054906101000a900460ff166004811115610e0e57fe5b14610e4e576040517f08c379a0000000000000000000000000000000000000000000000000000000008152600401610e4590611b6b565b60405180910390fd5b43600f819055506002600760006101000a81548160ff02191690836004811115610e7457fe5b0217905550565b600b5481565b600e5481565b601360009054906101000a900473ffffffffffffffffffffffffffffffffffffffff1673ffffffffffffffffffffffffffffffffffffffff16601760009054906101000a900473ffffffffffffffffffffffffffffffffffffffff1673ffffffffffffffffffffffffffffffffffffffff1614156110fc5780601760009054906101000a900473ffffffffffffffffffffffffffffffffffffffff1673ffffffffffffffffffffffffffffffffffffffff166370a08231336040518263ffffffff1660e01b8152600401610f5b9190611a41565b60206040518083038186803b158015610f7357600080fd5b505afa158015610f87573d6000803e3d6000fd5b505050506040513d601f19601f82011682018060405250810190610fab91906116a1565b1015610fec576040517f08c379a0000000000000000000000000000000000000000000000000000000008152600401610fe390611bcb565b60405180910390fd5b601760009054906101000a900473ffffffffffffffffffffffffffffffffffffffff1673ffffffffffffffffffffffffffffffffffffffff166323b872dd3330846040518463ffffffff1660e01b815260040161104b93929190611a5c565b602060405180830381600087803b15801561106557600080fd5b505af1158015611079573d6000803e3d6000fd5b505050506040513d601f19601f8201168201806040525081019061109d9190611626565b506110b3816010546114b890919063ffffffff16565b60108190555043600d819055507f3f478372607b68e147b903a0b92f830c8d6468755dc7ac8ac400b95f3d987e4f816040516110ef9190611c0b565b60405180910390a1611137565b6040517f08c379a000000000000000000000000000000000000000000000000000000000815260040161112e90611b2b565b60405180910390fd5b50565b601260009054906101000a900473ffffffffffffffffffffffffffffffffffffffff1673ffffffffffffffffffffffffffffffffffffffff163373ffffffffffffffffffffffffffffffffffffffff16146111ca576040517f08c379a00000000000000000000000000000000000000000000000000000000081526004016111c190611b4b565b60405180910390fd5b806001600082015181600001556020820151816001015560408201518160020155606082015181600301556080820151816004015560a0820151816005015590505050565b60165481565b80601360006101000a81548173ffffffffffffffffffffffffffffffffffffffff021916908373ffffffffffffffffffffffffffffffffffffffff160217905550601360009054906101000a900473ffffffffffffffffffffffffffffffffffffffff16601760006101000a81548173ffffffffffffffffffffffffffffffffffffffff021916908373ffffffffffffffffffffffffffffffffffffffff16021790555050565b60115481565b600a5481565b6112d06114b0565b73ffffffffffffffffffffffffffffffffffffffff1660008054906101000a900473ffffffffffffffffffffffffffffffffffffffff1673ffffffffffffffffffffffffffffffffffffffff161461135d576040517f08c379a000000000000000000000000000000000000000000000000000000000815260040161135490611bab565b60405180910390fd5b600073ffffffffffffffffffffffffffffffffffffffff168173ffffffffffffffffffffffffffffffffffffffff1614156113cd576040517f08c379a00000000000000000000000000000000000000000000000000000000081526004016113c490611aeb565b60405180910390fd5b8073ffffffffffffffffffffffffffffffffffffffff1660008054906101000a900473ffffffffffffffffffffffffffffffffffffffff1673ffffffffffffffffffffffffffffffffffffffff167f8be0079c531659141344cd1fd0a4f28419497f9722a3daafe3b4186f6b6457e060405160405180910390a3806000806101000a81548173ffffffffffffffffffffffffffffffffffffffff021916908373ffffffffffffffffffffffffffffffffffffffff16021790555050565b601360009054906101000a900473ffffffffffffffffffffffffffffffffffffffff1681565b600033905090565b600080828401905083811015611503576040517f08c379a00000000000000000000000000000000000000000000000000000000081526004016114fa90611b0b565b60405180910390fd5b8091505092915050565b60008135905061151c81611de8565b92915050565b60008151905061153181611dff565b92915050565b600060c0828403121561154957600080fd5b61155360c0611c87565b90506000611563848285016115d3565b6000830152506020611577848285016115d3565b602083015250604061158b848285016115d3565b604083015250606061159f848285016115d3565b60608301525060806115b3848285016115d3565b60808301525060a06115c7848285016115d3565b60a08301525092915050565b6000813590506115e281611e16565b92915050565b6000815190506115f781611e16565b92915050565b60006020828403121561160f57600080fd5b600061161d8482850161150d565b91505092915050565b60006020828403121561163857600080fd5b600061164684828501611522565b91505092915050565b600060c0828403121561166157600080fd5b600061166f84828501611537565b91505092915050565b60006020828403121561168a57600080fd5b6000611698848285016115d3565b91505092915050565b6000602082840312156116b357600080fd5b60006116c1848285016115e8565b91505092915050565b6116d381611d2b565b82525050565b6116e281611cd0565b82525050565b6116f181611d3d565b82525050565b61170081611d61565b82525050565b600061171182611cb4565b61171b8185611cbf565b935061172b818560208601611d97565b61173481611dca565b840191505092915050565b600061174c602683611cbf565b91507f4f776e61626c653a206e6577206f776e657220697320746865207a65726f206160008301527f64647265737300000000000000000000000000000000000000000000000000006020830152604082019050919050565b60006117b2601b83611cbf565b91507f536166654d6174683a206164646974696f6e206f766572666c6f7700000000006000830152602082019050919050565b60006117f2601283611cbf565b91507f4e6f7420616363657074656420746f6b656e00000000000000000000000000006000830152602082019050919050565b6000611832601383611cbf565b91507f41646472657373206e6f7420616c6c6f776564000000000000000000000000006000830152602082019050919050565b6000611872603383611cbf565b91507f4c6f616e20737461747573206e6f7420636f6d70617469626c6520776974682060008301527f666f7265636c6f73696e6720616374696f6e73000000000000000000000000006020830152604082019050919050565b60006118d8601383611cbf565b91507f4e6577207374617465206e6f742076616c6964000000000000000000000000006000830152602082019050919050565b6000611918602083611cbf565b91507f4f776e61626c653a2063616c6c6572206973206e6f7420746865206f776e65726000830152602082019050919050565b6000611958602683611cbf565b91507f4e6f7420656e6f756768204a4e5420746f6b656e7320696e2073656e6465722060008301527f77616c6c657400000000000000000000000000000000000000000000000000006020830152604082019050919050565b60006119be602783611cbf565b91507f4e657720737461747573206973207468652073616d65206c696b65207072657360008301527f656e74206f6e65000000000000000000000000000000000000000000000000006020830152604082019050919050565b611a2081611d21565b82525050565b6000602082019050611a3b60008301846116d9565b92915050565b6000602082019050611a5660008301846116ca565b92915050565b6000606082019050611a7160008301866116ca565b611a7e60208301856116d9565b611a8b6040830184611a17565b949350505050565b6000602082019050611aa860008301846116e8565b92915050565b6000602082019050611ac360008301846116f7565b92915050565b60006020820190508181036000830152611ae38184611706565b905092915050565b60006020820190508181036000830152611b048161173f565b9050919050565b60006020820190508181036000830152611b24816117a5565b9050919050565b60006020820190508181036000830152611b44816117e5565b9050919050565b60006020820190508181036000830152611b6481611825565b9050919050565b60006020820190508181036000830152611b8481611865565b9050919050565b60006020820190508181036000830152611ba4816118cb565b9050919050565b60006020820190508181036000830152611bc48161190b565b9050919050565b60006020820190508181036000830152611be48161194b565b9050919050565b60006020820190508181036000830152611c04816119b1565b9050919050565b6000602082019050611c206000830184611a17565b92915050565b600060c082019050611c3b6000830189611a17565b611c486020830188611a17565b611c556040830187611a17565b611c626060830186611a17565b611c6f6080830185611a17565b611c7c60a0830184611a17565b979650505050505050565b6000604051905081810181811067ffffffffffffffff82111715611caa57600080fd5b8060405250919050565b600081519050919050565b600082825260208201905092915050565b6000611cdb82611d01565b9050919050565b60008115159050919050565b6000819050611cfc82611ddb565b919050565b600073ffffffffffffffffffffffffffffffffffffffff82169050919050565b6000819050919050565b6000611d3682611d73565b9050919050565b6000611d4882611d4f565b9050919050565b6000611d5a82611d01565b9050919050565b6000611d6c82611cee565b9050919050565b6000611d7e82611d85565b9050919050565b6000611d9082611d01565b9050919050565b60005b83811015611db5578082015181840152602081019050611d9a565b83811115611dc4576000848401525b50505050565b6000601f19601f8301169050919050565b60058110611de557fe5b50565b611df181611cd0565b8114611dfc57600080fd5b50565b611e0881611ce2565b8114611e1357600080fd5b50565b611e1f81611d21565b8114611e2a57600080fd5b5056fea26469706673582212208a1ddea9193413b3b06ee915aa33d0407b891ea80f3a8516df8b3e14c2079eeb64736f6c634300060c0033a2646970667358221220fc8b0739a21b6232fed7150d0204caf8d0f7679605f250528046c4920ca3151764736f6c634300060c0033","opcodes":"PUSH1 0x80 PUSH1 0x40 MSTORE CALLVALUE DUP1 ISZERO PUSH3 0x11 JUMPI PUSH1 0x0 DUP1 REVERT JUMPDEST POP PUSH1 0x40 MLOAD PUSH3 0x6BD2 CODESIZE SUB DUP1 PUSH3 0x6BD2 DUP4 CODECOPY DUP2 DUP2 ADD PUSH1 0x40 MSTORE DUP2 ADD SWAP1 PUSH3 0x37 SWAP2 SWAP1 PUSH3 0x200 JUMP JUMPDEST PUSH1 0x0 PUSH3 0x49 PUSH3 0x1E1 PUSH1 0x20 SHL PUSH1 0x20 SHR JUMP JUMPDEST SWAP1 POP DUP1 PUSH1 0x0 DUP1 PUSH2 0x100 EXP DUP2 SLOAD DUP2 PUSH20 0xFFFFFFFFFFFFFFFFFFFFFFFFFFFFFFFFFFFFFFFF MUL NOT AND SWAP1 DUP4 PUSH20 0xFFFFFFFFFFFFFFFFFFFFFFFFFFFFFFFFFFFFFFFF AND MUL OR SWAP1 SSTORE POP DUP1 PUSH20 0xFFFFFFFFFFFFFFFFFFFFFFFFFFFFFFFFFFFFFFFF AND PUSH1 0x0 PUSH20 0xFFFFFFFFFFFFFFFFFFFFFFFFFFFFFFFFFFFFFFFF AND PUSH32 0x8BE0079C531659141344CD1FD0A4F28419497F9722A3DAAFE3B4186F6B6457E0 PUSH1 0x40 MLOAD PUSH1 0x40 MLOAD DUP1 SWAP2 SUB SWAP1 LOG3 POP DUP1 PUSH1 0xC PUSH1 0x0 PUSH2 0x100 EXP DUP2 SLOAD DUP2 PUSH20 0xFFFFFFFFFFFFFFFFFFFFFFFFFFFFFFFFFFFFFFFF MUL NOT AND SWAP1 DUP4 PUSH20 0xFFFFFFFFFFFFFFFFFFFFFFFFFFFFFFFFFFFFFFFF AND MUL OR SWAP1 SSTORE POP PUSH1 0xC PUSH1 0x0 SWAP1 SLOAD SWAP1 PUSH2 0x100 EXP SWAP1 DIV PUSH20 0xFFFFFFFFFFFFFFFFFFFFFFFFFFFFFFFFFFFFFFFF AND PUSH1 0xD PUSH1 0x0 PUSH2 0x100 EXP DUP2 SLOAD DUP2 PUSH20 0xFFFFFFFFFFFFFFFFFFFFFFFFFFFFFFFFFFFFFFFF MUL NOT AND SWAP1 DUP4 PUSH20 0xFFFFFFFFFFFFFFFFFFFFFFFFFFFFFFFFFFFFFFFF AND MUL OR SWAP1 SSTORE POP PUSH3 0x83D60 PUSH1 0xE PUSH1 0x1 ADD DUP2 SWAP1 SSTORE POP PUSH2 0x4650 PUSH1 0xE PUSH1 0x2 ADD DUP2 SWAP1 SSTORE POP PUSH1 0x96 PUSH1 0xE PUSH1 0x3 ADD DUP2 SWAP1 SSTORE POP PUSH1 0x78 PUSH1 0xE PUSH1 0x4 ADD DUP2 SWAP1 SSTORE POP PUSH3 0x107AC0 PUSH1 0xE PUSH1 0x5 ADD DUP2 SWAP1 SSTORE POP PUSH2 0x2710 PUSH1 0xE PUSH1 0x0 ADD DUP2 SWAP1 SSTORE POP NUMBER PUSH1 0xB DUP2 SWAP1 SSTORE POP POP PUSH3 0x27A JUMP JUMPDEST PUSH1 0x0 CALLER SWAP1 POP SWAP1 JUMP JUMPDEST PUSH1 0x0 DUP2 MLOAD SWAP1 POP PUSH3 0x1FA DUP2 PUSH3 0x260 JUMP JUMPDEST SWAP3 SWAP2 POP POP JUMP JUMPDEST PUSH1 0x0 PUSH1 0x20 DUP3 DUP5 SUB SLT ISZERO PUSH3 0x213 JUMPI PUSH1 0x0 DUP1 REVERT JUMPDEST PUSH1 0x0 PUSH3 0x223 DUP5 DUP3 DUP6 ADD PUSH3 0x1E9 JUMP JUMPDEST SWAP2 POP POP SWAP3 SWAP2 POP POP JUMP JUMPDEST PUSH1 0x0 PUSH3 0x239 DUP3 PUSH3 0x240 JUMP JUMPDEST SWAP1 POP SWAP2 SWAP1 POP JUMP JUMPDEST PUSH1 0x0 PUSH20 0xFFFFFFFFFFFFFFFFFFFFFFFFFFFFFFFFFFFFFFFF DUP3 AND SWAP1 POP SWAP2 SWAP1 POP JUMP JUMPDEST PUSH3 0x26B DUP2 PUSH3 0x22C JUMP JUMPDEST DUP2 EQ PUSH3 0x277 JUMPI PUSH1 0x0 DUP1 REVERT JUMPDEST POP JUMP JUMPDEST PUSH2 0x6948 DUP1 PUSH3 0x28A PUSH1 0x0 CODECOPY PUSH1 0x0 RETURN INVALID PUSH1 0x80 PUSH1 0x40 MSTORE CALLVALUE DUP1 ISZERO PUSH3 0x11 JUMPI PUSH1 0x0 DUP1 REVERT JUMPDEST POP PUSH1 0x4 CALLDATASIZE LT PUSH3 0x1F0 JUMPI PUSH1 0x0 CALLDATALOAD PUSH1 0xE0 SHR DUP1 PUSH4 0x8DA5CB5B GT PUSH3 0x111 JUMPI DUP1 PUSH4 0xC7C89628 GT PUSH3 0xA5 JUMPI DUP1 PUSH4 0xE7BAFD1A GT PUSH3 0x7B JUMPI DUP1 PUSH4 0xE7BAFD1A EQ PUSH3 0x590 JUMPI DUP1 PUSH4 0xF0427DFF EQ PUSH3 0x5C6 JUMPI DUP1 PUSH4 0xF2FDE38B EQ PUSH3 0x5E6 JUMPI DUP1 PUSH4 0xF450ABDD EQ PUSH3 0x606 JUMPI PUSH3 0x1F0 JUMP JUMPDEST DUP1 PUSH4 0xC7C89628 EQ PUSH3 0x52C JUMPI DUP1 PUSH4 0xCF611D33 EQ PUSH3 0x54E JUMPI DUP1 PUSH4 0xD00109F9 EQ PUSH3 0x570 JUMPI PUSH3 0x1F0 JUMP JUMPDEST DUP1 PUSH4 0xB3A66524 GT PUSH3 0xE7 JUMPI DUP1 PUSH4 0xB3A66524 EQ PUSH3 0x480 JUMPI DUP1 PUSH4 0xBF5D50C4 EQ PUSH3 0x4B6 JUMPI DUP1 PUSH4 0xBFF3DE22 EQ PUSH3 0x4EC JUMPI DUP1 PUSH4 0xC2C1E340 EQ PUSH3 0x50C JUMPI PUSH3 0x1F0 JUMP JUMPDEST DUP1 PUSH4 0x8DA5CB5B EQ PUSH3 0x408 JUMPI DUP1 PUSH4 0xA2B20FE3 EQ PUSH3 0x42A JUMPI DUP1 PUSH4 0xAEEC8C9B EQ PUSH3 0x460 JUMPI PUSH3 0x1F0 JUMP JUMPDEST DUP1 PUSH4 0x54F197E0 GT PUSH3 0x189 JUMPI DUP1 PUSH4 0x6BFAB938 GT PUSH3 0x15F JUMPI DUP1 PUSH4 0x6BFAB938 EQ PUSH3 0x386 JUMPI DUP1 PUSH4 0x715018A6 EQ PUSH3 0x3BC JUMPI DUP1 PUSH4 0x73AA3028 EQ PUSH3 0x3C8 JUMPI DUP1 PUSH4 0x799D564C EQ PUSH3 0x3E8 JUMPI PUSH3 0x1F0 JUMP JUMPDEST DUP1 PUSH4 0x54F197E0 EQ PUSH3 0x2F8 JUMPI DUP1 PUSH4 0x57159584 EQ PUSH3 0x31A JUMPI DUP1 PUSH4 0x6085C7DF EQ PUSH3 0x350 JUMPI PUSH3 0x1F0 JUMP JUMPDEST DUP1 PUSH4 0x26E9FDD8 GT PUSH3 0x1CB JUMPI DUP1 PUSH4 0x26E9FDD8 EQ PUSH3 0x25E JUMPI DUP1 PUSH4 0x28964FEF EQ PUSH3 0x27E JUMPI DUP1 PUSH4 0x28FD10D7 EQ PUSH3 0x2A0 JUMPI DUP1 PUSH4 0x39075D89 EQ PUSH3 0x2D6 JUMPI PUSH3 0x1F0 JUMP JUMPDEST DUP1 PUSH4 0x9E94D98 EQ PUSH3 0x1F5 JUMPI DUP1 PUSH4 0xC8731AB EQ PUSH3 0x21C JUMPI DUP1 PUSH4 0x20600A37 EQ PUSH3 0x23C JUMPI JUMPDEST PUSH1 0x0 DUP1 REVERT JUMPDEST PUSH3 0x1FF PUSH3 0x626 JUMP JUMPDEST PUSH1 0x40 MLOAD PUSH3 0x213 SWAP7 SWAP6 SWAP5 SWAP4 SWAP3 SWAP2 SWAP1 PUSH3 0x1F41 JUMP JUMPDEST PUSH1 0x40 MLOAD DUP1 SWAP2 SUB SWAP1 RETURN JUMPDEST PUSH3 0x23A PUSH1 0x4 DUP1 CALLDATASIZE SUB DUP2 ADD SWAP1 PUSH3 0x234 SWAP2 SWAP1 PUSH3 0x1A53 JUMP JUMPDEST PUSH3 0x650 JUMP JUMPDEST STOP JUMPDEST PUSH3 0x246 PUSH3 0x6F7 JUMP JUMPDEST PUSH1 0x40 MLOAD PUSH3 0x255 SWAP2 SWAP1 PUSH3 0x1EEA JUMP JUMPDEST PUSH1 0x40 MLOAD DUP1 SWAP2 SUB SWAP1 RETURN JUMPDEST PUSH3 0x27C PUSH1 0x4 DUP1 CALLDATASIZE SUB DUP2 ADD SWAP1 PUSH3 0x276 SWAP2 SWAP1 PUSH3 0x1A53 JUMP JUMPDEST PUSH3 0x74F JUMP JUMPDEST STOP JUMPDEST PUSH3 0x288 PUSH3 0x7F6 JUMP JUMPDEST PUSH1 0x40 MLOAD PUSH3 0x297 SWAP2 SWAP1 PUSH3 0x1F24 JUMP JUMPDEST PUSH1 0x40 MLOAD DUP1 SWAP2 SUB SWAP1 RETURN JUMPDEST PUSH3 0x2BE PUSH1 0x4 DUP1 CALLDATASIZE SUB DUP2 ADD SWAP1 PUSH3 0x2B8 SWAP2 SWAP1 PUSH3 0x1973 JUMP JUMPDEST PUSH3 0x7FC JUMP JUMPDEST PUSH1 0x40 MLOAD PUSH3 0x2CD SWAP2 SWAP1 PUSH3 0x1DBD JUMP JUMPDEST PUSH1 0x40 MLOAD DUP1 SWAP2 SUB SWAP1 RETURN JUMPDEST PUSH3 0x2E0 PUSH3 0x81C JUMP JUMPDEST PUSH1 0x40 MLOAD PUSH3 0x2EF SWAP2 SWAP1 PUSH3 0x1F24 JUMP JUMPDEST PUSH1 0x40 MLOAD DUP1 SWAP2 SUB SWAP1 RETURN JUMPDEST PUSH3 0x302 PUSH3 0x822 JUMP JUMPDEST PUSH1 0x40 MLOAD PUSH3 0x311 SWAP2 SWAP1 PUSH3 0x1DA0 JUMP JUMPDEST PUSH1 0x40 MLOAD DUP1 SWAP2 SUB SWAP1 RETURN JUMPDEST PUSH3 0x338 PUSH1 0x4 DUP1 CALLDATASIZE SUB DUP2 ADD SWAP1 PUSH3 0x332 SWAP2 SWAP1 PUSH3 0x1973 JUMP JUMPDEST PUSH3 0x848 JUMP JUMPDEST PUSH1 0x40 MLOAD PUSH3 0x347 SWAP2 SWAP1 PUSH3 0x1DBD JUMP JUMPDEST PUSH1 0x40 MLOAD DUP1 SWAP2 SUB SWAP1 RETURN JUMPDEST PUSH3 0x36E PUSH1 0x4 DUP1 CALLDATASIZE SUB DUP2 ADD SWAP1 PUSH3 0x368 SWAP2 SWAP1 PUSH3 0x1A53 JUMP JUMPDEST PUSH3 0x868 JUMP JUMPDEST PUSH1 0x40 MLOAD PUSH3 0x37D SWAP2 SWAP1 PUSH3 0x1DA0 JUMP JUMPDEST PUSH1 0x40 MLOAD DUP1 SWAP2 SUB SWAP1 RETURN JUMPDEST PUSH3 0x3A4 PUSH1 0x4 DUP1 CALLDATASIZE SUB DUP2 ADD SWAP1 PUSH3 0x39E SWAP2 SWAP1 PUSH3 0x1A53 JUMP JUMPDEST PUSH3 0x8A5 JUMP JUMPDEST PUSH1 0x40 MLOAD PUSH3 0x3B3 SWAP2 SWAP1 PUSH3 0x1DA0 JUMP JUMPDEST PUSH1 0x40 MLOAD DUP1 SWAP2 SUB SWAP1 RETURN JUMPDEST PUSH3 0x3C6 PUSH3 0x8E2 JUMP JUMPDEST STOP JUMPDEST PUSH3 0x3E6 PUSH1 0x4 DUP1 CALLDATASIZE SUB DUP2 ADD SWAP1 PUSH3 0x3E0 SWAP2 SWAP1 PUSH3 0x1A53 JUMP JUMPDEST PUSH3 0xA3A JUMP JUMPDEST STOP JUMPDEST PUSH3 0x406 PUSH1 0x4 DUP1 CALLDATASIZE SUB DUP2 ADD SWAP1 PUSH3 0x400 SWAP2 SWAP1 PUSH3 0x1A53 JUMP JUMPDEST PUSH3 0xAE1 JUMP JUMPDEST STOP JUMPDEST PUSH3 0x412 PUSH3 0xB88 JUMP JUMPDEST PUSH1 0x40 MLOAD PUSH3 0x421 SWAP2 SWAP1 PUSH3 0x1DA0 JUMP JUMPDEST PUSH1 0x40 MLOAD DUP1 SWAP2 SUB SWAP1 RETURN JUMPDEST PUSH3 0x448 PUSH1 0x4 DUP1 CALLDATASIZE SUB DUP2 ADD SWAP1 PUSH3 0x442 SWAP2 SWAP1 PUSH3 0x1A53 JUMP JUMPDEST PUSH3 0xBB1 JUMP JUMPDEST PUSH1 0x40 MLOAD PUSH3 0x457 SWAP2 SWAP1 PUSH3 0x1DA0 JUMP JUMPDEST PUSH1 0x40 MLOAD DUP1 SWAP2 SUB SWAP1 RETURN JUMPDEST PUSH3 0x47E PUSH1 0x4 DUP1 CALLDATASIZE SUB DUP2 ADD SWAP1 PUSH3 0x478 SWAP2 SWAP1 PUSH3 0x1A7F JUMP JUMPDEST PUSH3 0xBEE JUMP JUMPDEST STOP JUMPDEST PUSH3 0x49E PUSH1 0x4 DUP1 CALLDATASIZE SUB DUP2 ADD SWAP1 PUSH3 0x498 SWAP2 SWAP1 PUSH3 0x1A53 JUMP JUMPDEST PUSH3 0xD33 JUMP JUMPDEST PUSH1 0x40 MLOAD PUSH3 0x4AD SWAP2 SWAP1 PUSH3 0x1DA0 JUMP JUMPDEST PUSH1 0x40 MLOAD DUP1 SWAP2 SUB SWAP1 RETURN JUMPDEST PUSH3 0x4D4 PUSH1 0x4 DUP1 CALLDATASIZE SUB DUP2 ADD SWAP1 PUSH3 0x4CE SWAP2 SWAP1 PUSH3 0x1973 JUMP JUMPDEST PUSH3 0xD70 JUMP JUMPDEST PUSH1 0x40 MLOAD PUSH3 0x4E3 SWAP2 SWAP1 PUSH3 0x1DBD JUMP JUMPDEST PUSH1 0x40 MLOAD DUP1 SWAP2 SUB SWAP1 RETURN JUMPDEST PUSH3 0x50A PUSH1 0x4 DUP1 CALLDATASIZE SUB DUP2 ADD SWAP1 PUSH3 0x504 SWAP2 SWAP1 PUSH3 0x1A53 JUMP JUMPDEST PUSH3 0xD90 JUMP JUMPDEST STOP JUMPDEST PUSH3 0x52A PUSH1 0x4 DUP1 CALLDATASIZE SUB DUP2 ADD SWAP1 PUSH3 0x524 SWAP2 SWAP1 PUSH3 0x1A53 JUMP JUMPDEST PUSH3 0xED5 JUMP JUMPDEST STOP JUMPDEST PUSH3 0x536 PUSH3 0xF7C JUMP JUMPDEST PUSH1 0x40 MLOAD PUSH3 0x545 SWAP2 SWAP1 PUSH3 0x1F24 JUMP JUMPDEST PUSH1 0x40 MLOAD DUP1 SWAP2 SUB SWAP1 RETURN JUMPDEST PUSH3 0x558 PUSH3 0xF82 JUMP JUMPDEST PUSH1 0x40 MLOAD PUSH3 0x567 SWAP2 SWAP1 PUSH3 0x1DDA JUMP JUMPDEST PUSH1 0x40 MLOAD DUP1 SWAP2 SUB SWAP1 RETURN JUMPDEST PUSH3 0x58E PUSH1 0x4 DUP1 CALLDATASIZE SUB DUP2 ADD SWAP1 PUSH3 0x588 SWAP2 SWAP1 PUSH3 0x199F JUMP JUMPDEST PUSH3 0xFA8 JUMP JUMPDEST STOP JUMPDEST PUSH3 0x5AE PUSH1 0x4 DUP1 CALLDATASIZE SUB DUP2 ADD SWAP1 PUSH3 0x5A8 SWAP2 SWAP1 PUSH3 0x1973 JUMP JUMPDEST PUSH3 0x12D3 JUMP JUMPDEST PUSH1 0x40 MLOAD PUSH3 0x5BD SWAP2 SWAP1 PUSH3 0x1DBD JUMP JUMPDEST PUSH1 0x40 MLOAD DUP1 SWAP2 SUB SWAP1 RETURN JUMPDEST PUSH3 0x5E4 PUSH1 0x4 DUP1 CALLDATASIZE SUB DUP2 ADD SWAP1 PUSH3 0x5DE SWAP2 SWAP1 PUSH3 0x1A53 JUMP JUMPDEST PUSH3 0x12F3 JUMP JUMPDEST STOP JUMPDEST PUSH3 0x604 PUSH1 0x4 DUP1 CALLDATASIZE SUB DUP2 ADD SWAP1 PUSH3 0x5FE SWAP2 SWAP1 PUSH3 0x1973 JUMP JUMPDEST PUSH3 0x139A JUMP JUMPDEST STOP JUMPDEST PUSH3 0x624 PUSH1 0x4 DUP1 CALLDATASIZE SUB DUP2 ADD SWAP1 PUSH3 0x61E SWAP2 SWAP1 PUSH3 0x199F JUMP JUMPDEST PUSH3 0x1564 JUMP JUMPDEST STOP JUMPDEST PUSH1 0xE DUP1 PUSH1 0x0 ADD SLOAD SWAP1 DUP1 PUSH1 0x1 ADD SLOAD SWAP1 DUP1 PUSH1 0x2 ADD SLOAD SWAP1 DUP1 PUSH1 0x3 ADD SLOAD SWAP1 DUP1 PUSH1 0x4 ADD SLOAD SWAP1 DUP1 PUSH1 0x5 ADD SLOAD SWAP1 POP DUP7 JUMP JUMPDEST PUSH3 0x65A PUSH3 0x188F JUMP JUMPDEST PUSH20 0xFFFFFFFFFFFFFFFFFFFFFFFFFFFFFFFFFFFFFFFF AND PUSH1 0x0 DUP1 SLOAD SWAP1 PUSH2 0x100 EXP SWAP1 DIV PUSH20 0xFFFFFFFFFFFFFFFFFFFFFFFFFFFFFFFFFFFFFFFF AND PUSH20 0xFFFFFFFFFFFFFFFFFFFFFFFFFFFFFFFFFFFFFFFF AND EQ PUSH3 0x6EA JUMPI PUSH1 0x40 MLOAD PUSH32 0x8C379A000000000000000000000000000000000000000000000000000000000 DUP2 MSTORE PUSH1 0x4 ADD PUSH3 0x6E1 SWAP1 PUSH3 0x1EC8 JUMP JUMPDEST PUSH1 0x40 MLOAD DUP1 SWAP2 SUB SWAP1 REVERT JUMPDEST DUP1 PUSH1 0xE PUSH1 0x0 ADD DUP2 SWAP1 SSTORE POP POP JUMP JUMPDEST PUSH3 0x701 PUSH3 0x1897 JUMP JUMPDEST PUSH1 0xE PUSH1 0x40 MLOAD DUP1 PUSH1 0xC0 ADD PUSH1 0x40 MSTORE SWAP1 DUP2 PUSH1 0x0 DUP3 ADD SLOAD DUP2 MSTORE PUSH1 0x20 ADD PUSH1 0x1 DUP3 ADD SLOAD DUP2 MSTORE PUSH1 0x20 ADD PUSH1 0x2 DUP3 ADD SLOAD DUP2 MSTORE PUSH1 0x20 ADD PUSH1 0x3 DUP3 ADD SLOAD DUP2 MSTORE PUSH1 0x20 ADD PUSH1 0x4 DUP3 ADD SLOAD DUP2 MSTORE PUSH1 0x20 ADD PUSH1 0x5 DUP3 ADD SLOAD DUP2 MSTORE POP POP SWAP1 POP SWAP1 JUMP JUMPDEST PUSH3 0x759 PUSH3 0x188F JUMP JUMPDEST PUSH20 0xFFFFFFFFFFFFFFFFFFFFFFFFFFFFFFFFFFFFFFFF AND PUSH1 0x0 DUP1 SLOAD SWAP1 PUSH2 0x100 EXP SWAP1 DIV PUSH20 0xFFFFFFFFFFFFFFFFFFFFFFFFFFFFFFFFFFFFFFFF AND PUSH20 0xFFFFFFFFFFFFFFFFFFFFFFFFFFFFFFFFFFFFFFFF AND EQ PUSH3 0x7E9 JUMPI PUSH1 0x40 MLOAD PUSH32 0x8C379A000000000000000000000000000000000000000000000000000000000 DUP2 MSTORE PUSH1 0x4 ADD PUSH3 0x7E0 SWAP1 PUSH3 0x1EC8 JUMP JUMPDEST PUSH1 0x40 MLOAD DUP1 SWAP2 SUB SWAP1 REVERT JUMPDEST DUP1 PUSH1 0xE PUSH1 0x3 ADD DUP2 SWAP1 SSTORE POP POP JUMP JUMPDEST PUSH1 0x1 SLOAD DUP2 JUMP JUMPDEST PUSH1 0x6 PUSH1 0x20 MSTORE DUP1 PUSH1 0x0 MSTORE PUSH1 0x40 PUSH1 0x0 KECCAK256 PUSH1 0x0 SWAP2 POP SLOAD SWAP1 PUSH2 0x100 EXP SWAP1 DIV PUSH1 0xFF AND DUP2 JUMP JUMPDEST PUSH1 0xB SLOAD DUP2 JUMP JUMPDEST PUSH1 0xC PUSH1 0x0 SWAP1 SLOAD SWAP1 PUSH2 0x100 EXP SWAP1 DIV PUSH20 0xFFFFFFFFFFFFFFFFFFFFFFFFFFFFFFFFFFFFFFFF AND DUP2 JUMP JUMPDEST PUSH1 0x8 PUSH1 0x20 MSTORE DUP1 PUSH1 0x0 MSTORE PUSH1 0x40 PUSH1 0x0 KECCAK256 PUSH1 0x0 SWAP2 POP SLOAD SWAP1 PUSH2 0x100 EXP SWAP1 DIV PUSH1 0xFF AND DUP2 JUMP JUMPDEST PUSH1 0x4 DUP2 DUP2 SLOAD DUP2 LT PUSH3 0x876 JUMPI INVALID JUMPDEST SWAP1 PUSH1 0x0 MSTORE PUSH1 0x20 PUSH1 0x0 KECCAK256 ADD PUSH1 0x0 SWAP2 POP SLOAD SWAP1 PUSH2 0x100 EXP SWAP1 DIV PUSH20 0xFFFFFFFFFFFFFFFFFFFFFFFFFFFFFFFFFFFFFFFF AND DUP2 JUMP JUMPDEST PUSH1 0x9 DUP2 DUP2 SLOAD DUP2 LT PUSH3 0x8B3 JUMPI INVALID JUMPDEST SWAP1 PUSH1 0x0 MSTORE PUSH1 0x20 PUSH1 0x0 KECCAK256 ADD PUSH1 0x0 SWAP2 POP SLOAD SWAP1 PUSH2 0x100 EXP SWAP1 DIV PUSH20 0xFFFFFFFFFFFFFFFFFFFFFFFFFFFFFFFFFFFFFFFF AND DUP2 JUMP JUMPDEST PUSH3 0x8EC PUSH3 0x188F JUMP JUMPDEST PUSH20 0xFFFFFFFFFFFFFFFFFFFFFFFFFFFFFFFFFFFFFFFF AND PUSH1 0x0 DUP1 SLOAD SWAP1 PUSH2 0x100 EXP SWAP1 DIV PUSH20 0xFFFFFFFFFFFFFFFFFFFFFFFFFFFFFFFFFFFFFFFF AND PUSH20 0xFFFFFFFFFFFFFFFFFFFFFFFFFFFFFFFFFFFFFFFF AND EQ PUSH3 0x97C JUMPI PUSH1 0x40 MLOAD PUSH32 0x8C379A000000000000000000000000000000000000000000000000000000000 DUP2 MSTORE PUSH1 0x4 ADD PUSH3 0x973 SWAP1 PUSH3 0x1EC8 JUMP JUMPDEST PUSH1 0x40 MLOAD DUP1 SWAP2 SUB SWAP1 REVERT JUMPDEST PUSH1 0x0 PUSH20 0xFFFFFFFFFFFFFFFFFFFFFFFFFFFFFFFFFFFFFFFF AND PUSH1 0x0 DUP1 SLOAD SWAP1 PUSH2 0x100 EXP SWAP1 DIV PUSH20 0xFFFFFFFFFFFFFFFFFFFFFFFFFFFFFFFFFFFFFFFF AND PUSH20 0xFFFFFFFFFFFFFFFFFFFFFFFFFFFFFFFFFFFFFFFF AND PUSH32 0x8BE0079C531659141344CD1FD0A4F28419497F9722A3DAAFE3B4186F6B6457E0 PUSH1 0x40 MLOAD PUSH1 0x40 MLOAD DUP1 SWAP2 SUB SWAP1 LOG3 PUSH1 0x0 DUP1 PUSH1 0x0 PUSH2 0x100 EXP DUP2 SLOAD DUP2 PUSH20 0xFFFFFFFFFFFFFFFFFFFFFFFFFFFFFFFFFFFFFFFF MUL NOT AND SWAP1 DUP4 PUSH20 0xFFFFFFFFFFFFFFFFFFFFFFFFFFFFFFFFFFFFFFFF AND MUL OR SWAP1 SSTORE POP JUMP JUMPDEST PUSH3 0xA44 PUSH3 0x188F JUMP JUMPDEST PUSH20 0xFFFFFFFFFFFFFFFFFFFFFFFFFFFFFFFFFFFFFFFF AND PUSH1 0x0 DUP1 SLOAD SWAP1 PUSH2 0x100 EXP SWAP1 DIV PUSH20 0xFFFFFFFFFFFFFFFFFFFFFFFFFFFFFFFFFFFFFFFF AND PUSH20 0xFFFFFFFFFFFFFFFFFFFFFFFFFFFFFFFFFFFFFFFF AND EQ PUSH3 0xAD4 JUMPI PUSH1 0x40 MLOAD PUSH32 0x8C379A000000000000000000000000000000000000000000000000000000000 DUP2 MSTORE PUSH1 0x4 ADD PUSH3 0xACB SWAP1 PUSH3 0x1EC8 JUMP JUMPDEST PUSH1 0x40 MLOAD DUP1 SWAP2 SUB SWAP1 REVERT JUMPDEST DUP1 PUSH1 0xE PUSH1 0x2 ADD DUP2 SWAP1 SSTORE POP POP JUMP JUMPDEST PUSH3 0xAEB PUSH3 0x188F JUMP JUMPDEST PUSH20 0xFFFFFFFFFFFFFFFFFFFFFFFFFFFFFFFFFFFFFFFF AND PUSH1 0x0 DUP1 SLOAD SWAP1 PUSH2 0x100 EXP SWAP1 DIV PUSH20 0xFFFFFFFFFFFFFFFFFFFFFFFFFFFFFFFFFFFFFFFF AND PUSH20 0xFFFFFFFFFFFFFFFFFFFFFFFFFFFFFFFFFFFFFFFF AND EQ PUSH3 0xB7B JUMPI PUSH1 0x40 MLOAD PUSH32 0x8C379A000000000000000000000000000000000000000000000000000000000 DUP2 MSTORE PUSH1 0x4 ADD PUSH3 0xB72 SWAP1 PUSH3 0x1EC8 JUMP JUMPDEST PUSH1 0x40 MLOAD DUP1 SWAP2 SUB SWAP1 REVERT JUMPDEST DUP1 PUSH1 0xE PUSH1 0x5 ADD DUP2 SWAP1 SSTORE POP POP JUMP JUMPDEST PUSH1 0x0 DUP1 PUSH1 0x0 SWAP1 SLOAD SWAP1 PUSH2 0x100 EXP SWAP1 DIV PUSH20 0xFFFFFFFFFFFFFFFFFFFFFFFFFFFFFFFFFFFFFFFF AND SWAP1 POP SWAP1 JUMP JUMPDEST PUSH1 0x7 DUP2 DUP2 SLOAD DUP2 LT PUSH3 0xBBF JUMPI INVALID JUMPDEST SWAP1 PUSH1 0x0 MSTORE PUSH1 0x20 PUSH1 0x0 KECCAK256 ADD PUSH1 0x0 SWAP2 POP SLOAD SWAP1 PUSH2 0x100 EXP SWAP1 DIV PUSH20 0xFFFFFFFFFFFFFFFFFFFFFFFFFFFFFFFFFFFFFFFF AND DUP2 JUMP JUMPDEST PUSH3 0xBF8 PUSH3 0x188F JUMP JUMPDEST PUSH20 0xFFFFFFFFFFFFFFFFFFFFFFFFFFFFFFFFFFFFFFFF AND PUSH1 0x0 DUP1 SLOAD SWAP1 PUSH2 0x100 EXP SWAP1 DIV PUSH20 0xFFFFFFFFFFFFFFFFFFFFFFFFFFFFFFFFFFFFFFFF AND PUSH20 0xFFFFFFFFFFFFFFFFFFFFFFFFFFFFFFFFFFFFFFFF AND EQ PUSH3 0xC88 JUMPI PUSH1 0x40 MLOAD PUSH32 0x8C379A000000000000000000000000000000000000000000000000000000000 DUP2 MSTORE PUSH1 0x4 ADD PUSH3 0xC7F SWAP1 PUSH3 0x1EC8 JUMP JUMPDEST PUSH1 0x40 MLOAD DUP1 SWAP2 SUB SWAP1 REVERT JUMPDEST PUSH1 0x7 DUP3 DUP2 SLOAD DUP2 LT PUSH3 0xC96 JUMPI INVALID JUMPDEST SWAP1 PUSH1 0x0 MSTORE PUSH1 0x20 PUSH1 0x0 KECCAK256 ADD PUSH1 0x0 SWAP1 SLOAD SWAP1 PUSH2 0x100 EXP SWAP1 DIV PUSH20 0xFFFFFFFFFFFFFFFFFFFFFFFFFFFFFFFFFFFFFFFF AND PUSH20 0xFFFFFFFFFFFFFFFFFFFFFFFFFFFFFFFFFFFFFFFF AND PUSH4 0x708196AE DUP3 PUSH1 0x40 MLOAD DUP3 PUSH4 0xFFFFFFFF AND PUSH1 0xE0 SHL DUP2 MSTORE PUSH1 0x4 ADD PUSH3 0xCFB SWAP2 SWAP1 PUSH3 0x1F24 JUMP JUMPDEST PUSH1 0x0 PUSH1 0x40 MLOAD DUP1 DUP4 SUB DUP2 PUSH1 0x0 DUP8 DUP1 EXTCODESIZE ISZERO DUP1 ISZERO PUSH3 0xD16 JUMPI PUSH1 0x0 DUP1 REVERT JUMPDEST POP GAS CALL ISZERO DUP1 ISZERO PUSH3 0xD2B JUMPI RETURNDATASIZE PUSH1 0x0 DUP1 RETURNDATACOPY RETURNDATASIZE PUSH1 0x0 REVERT JUMPDEST POP POP POP POP POP POP JUMP JUMPDEST PUSH1 0x2 DUP2 DUP2 SLOAD DUP2 LT PUSH3 0xD41 JUMPI INVALID JUMPDEST SWAP1 PUSH1 0x0 MSTORE PUSH1 0x20 PUSH1 0x0 KECCAK256 ADD PUSH1 0x0 SWAP2 POP SLOAD SWAP1 PUSH2 0x100 EXP SWAP1 DIV PUSH20 0xFFFFFFFFFFFFFFFFFFFFFFFFFFFFFFFFFFFFFFFF AND DUP2 JUMP JUMPDEST PUSH1 0x5 PUSH1 0x20 MSTORE DUP1 PUSH1 0x0 MSTORE PUSH1 0x40 PUSH1 0x0 KECCAK256 PUSH1 0x0 SWAP2 POP SLOAD SWAP1 PUSH2 0x100 EXP SWAP1 DIV PUSH1 0xFF AND DUP2 JUMP JUMPDEST PUSH3 0xD9A PUSH3 0x188F JUMP JUMPDEST PUSH20 0xFFFFFFFFFFFFFFFFFFFFFFFFFFFFFFFFFFFFFFFF AND PUSH1 0x0 DUP1 SLOAD SWAP1 PUSH2 0x100 EXP SWAP1 DIV PUSH20 0xFFFFFFFFFFFFFFFFFFFFFFFFFFFFFFFFFFFFFFFF AND PUSH20 0xFFFFFFFFFFFFFFFFFFFFFFFFFFFFFFFFFFFFFFFF AND EQ PUSH3 0xE2A JUMPI PUSH1 0x40 MLOAD PUSH32 0x8C379A000000000000000000000000000000000000000000000000000000000 DUP2 MSTORE PUSH1 0x4 ADD PUSH3 0xE21 SWAP1 PUSH3 0x1EC8 JUMP JUMPDEST PUSH1 0x40 MLOAD DUP1 SWAP2 SUB SWAP1 REVERT JUMPDEST PUSH1 0x7 DUP2 DUP2 SLOAD DUP2 LT PUSH3 0xE38 JUMPI INVALID JUMPDEST SWAP1 PUSH1 0x0 MSTORE PUSH1 0x20 PUSH1 0x0 KECCAK256 ADD PUSH1 0x0 SWAP1 SLOAD SWAP1 PUSH2 0x100 EXP SWAP1 DIV PUSH20 0xFFFFFFFFFFFFFFFFFFFFFFFFFFFFFFFFFFFFFFFF AND PUSH20 0xFFFFFFFFFFFFFFFFFFFFFFFFFFFFFFFFFFFFFFFF AND PUSH4 0xC6CB6770 PUSH1 0xE PUSH1 0x40 MLOAD DUP3 PUSH4 0xFFFFFFFF AND PUSH1 0xE0 SHL DUP2 MSTORE PUSH1 0x4 ADD PUSH3 0xE9E SWAP2 SWAP1 PUSH3 0x1F07 JUMP JUMPDEST PUSH1 0x0 PUSH1 0x40 MLOAD DUP1 DUP4 SUB DUP2 PUSH1 0x0 DUP8 DUP1 EXTCODESIZE ISZERO DUP1 ISZERO PUSH3 0xEB9 JUMPI PUSH1 0x0 DUP1 REVERT JUMPDEST POP GAS CALL ISZERO DUP1 ISZERO PUSH3 0xECE JUMPI RETURNDATASIZE PUSH1 0x0 DUP1 RETURNDATACOPY RETURNDATASIZE PUSH1 0x0 REVERT JUMPDEST POP POP POP POP POP JUMP JUMPDEST PUSH3 0xEDF PUSH3 0x188F JUMP JUMPDEST PUSH20 0xFFFFFFFFFFFFFFFFFFFFFFFFFFFFFFFFFFFFFFFF AND PUSH1 0x0 DUP1 SLOAD SWAP1 PUSH2 0x100 EXP SWAP1 DIV PUSH20 0xFFFFFFFFFFFFFFFFFFFFFFFFFFFFFFFFFFFFFFFF AND PUSH20 0xFFFFFFFFFFFFFFFFFFFFFFFFFFFFFFFFFFFFFFFF AND EQ PUSH3 0xF6F JUMPI PUSH1 0x40 MLOAD PUSH32 0x8C379A000000000000000000000000000000000000000000000000000000000 DUP2 MSTORE PUSH1 0x4 ADD PUSH3 0xF66 SWAP1 PUSH3 0x1EC8 JUMP JUMPDEST PUSH1 0x40 MLOAD DUP1 SWAP2 SUB SWAP1 REVERT JUMPDEST DUP1 PUSH1 0xE PUSH1 0x1 ADD DUP2 SWAP1 SSTORE POP POP JUMP JUMPDEST PUSH1 0x3 SLOAD DUP2 JUMP JUMPDEST PUSH1 0xD PUSH1 0x0 SWAP1 SLOAD SWAP1 PUSH2 0x100 EXP SWAP1 DIV PUSH20 0xFFFFFFFFFFFFFFFFFFFFFFFFFFFFFFFFFFFFFFFF AND DUP2 JUMP JUMPDEST PUSH1 0x0 CALLER SWAP1 POP PUSH1 0x0 PUSH20 0xFFFFFFFFFFFFFFFFFFFFFFFFFFFFFFFFFFFFFFFF AND DUP2 PUSH20 0xFFFFFFFFFFFFFFFFFFFFFFFFFFFFFFFFFFFFFFFF AND EQ ISZERO PUSH3 0x1020 JUMPI PUSH1 0x40 MLOAD PUSH32 0x8C379A000000000000000000000000000000000000000000000000000000000 DUP2 MSTORE PUSH1 0x4 ADD PUSH3 0x1017 SWAP1 PUSH3 0x1EA6 JUMP JUMPDEST PUSH1 0x40 MLOAD DUP1 SWAP2 SUB SWAP1 REVERT JUMPDEST PUSH1 0x1 PUSH1 0x5 PUSH1 0x0 DUP4 PUSH20 0xFFFFFFFFFFFFFFFFFFFFFFFFFFFFFFFFFFFFFFFF AND PUSH20 0xFFFFFFFFFFFFFFFFFFFFFFFFFFFFFFFFFFFFFFFF AND DUP2 MSTORE PUSH1 0x20 ADD SWAP1 DUP2 MSTORE PUSH1 0x20 ADD PUSH1 0x0 KECCAK256 PUSH1 0x0 PUSH2 0x100 EXP DUP2 SLOAD DUP2 PUSH1 0xFF MUL NOT AND SWAP1 DUP4 ISZERO ISZERO MUL OR SWAP1 SSTORE POP PUSH1 0x2 DUP2 SWAP1 DUP1 PUSH1 0x1 DUP2 SLOAD ADD DUP1 DUP3 SSTORE DUP1 SWAP2 POP POP PUSH1 0x1 SWAP1 SUB SWAP1 PUSH1 0x0 MSTORE PUSH1 0x20 PUSH1 0x0 KECCAK256 ADD PUSH1 0x0 SWAP1 SWAP2 SWAP1 SWAP2 SWAP1 SWAP2 PUSH2 0x100 EXP DUP2 SLOAD DUP2 PUSH20 0xFFFFFFFFFFFFFFFFFFFFFFFFFFFFFFFFFFFFFFFF MUL NOT AND SWAP1 DUP4 PUSH20 0xFFFFFFFFFFFFFFFFFFFFFFFFFFFFFFFFFFFFFFFF AND MUL OR SWAP1 SSTORE POP PUSH1 0x2 DUP1 SLOAD SWAP1 POP PUSH1 0x1 DUP2 SWAP1 SSTORE POP PUSH1 0x0 DUP7 DUP7 DUP7 DUP7 DUP7 PUSH1 0xE ADDRESS PUSH1 0x40 MLOAD PUSH3 0x10FF SWAP1 PUSH3 0x18CD JUMP JUMPDEST PUSH3 0x1111 SWAP8 SWAP7 SWAP6 SWAP5 SWAP4 SWAP3 SWAP2 SWAP1 PUSH3 0x1DF7 JUMP JUMPDEST PUSH1 0x40 MLOAD DUP1 SWAP2 SUB SWAP1 PUSH1 0x0 CREATE DUP1 ISZERO DUP1 ISZERO PUSH3 0x112E JUMPI RETURNDATASIZE PUSH1 0x0 DUP1 RETURNDATACOPY RETURNDATASIZE PUSH1 0x0 REVERT JUMPDEST POP SWAP1 POP PUSH1 0x1 PUSH1 0x8 PUSH1 0x0 DUP4 PUSH20 0xFFFFFFFFFFFFFFFFFFFFFFFFFFFFFFFFFFFFFFFF AND PUSH20 0xFFFFFFFFFFFFFFFFFFFFFFFFFFFFFFFFFFFFFFFF AND DUP2 MSTORE PUSH1 0x20 ADD SWAP1 DUP2 MSTORE PUSH1 0x20 ADD PUSH1 0x0 KECCAK256 PUSH1 0x0 PUSH2 0x100 EXP DUP2 SLOAD DUP2 PUSH1 0xFF MUL NOT AND SWAP1 DUP4 ISZERO ISZERO MUL OR SWAP1 SSTORE POP PUSH1 0x7 DUP2 SWAP1 DUP1 PUSH1 0x1 DUP2 SLOAD ADD DUP1 DUP3 SSTORE DUP1 SWAP2 POP POP PUSH1 0x1 SWAP1 SUB SWAP1 PUSH1 0x0 MSTORE PUSH1 0x20 PUSH1 0x0 KECCAK256 ADD PUSH1 0x0 SWAP1 SWAP2 SWAP1 SWAP2 SWAP1 SWAP2 PUSH2 0x100 EXP DUP2 SLOAD DUP2 PUSH20 0xFFFFFFFFFFFFFFFFFFFFFFFFFFFFFFFFFFFFFFFF MUL NOT AND SWAP1 DUP4 PUSH20 0xFFFFFFFFFFFFFFFFFFFFFFFFFFFFFFFFFFFFFFFF AND MUL OR SWAP1 SSTORE POP PUSH1 0x0 DUP2 SWAP1 POP DUP1 PUSH20 0xFFFFFFFFFFFFFFFFFFFFFFFFFFFFFFFFFFFFFFFF AND PUSH4 0xF2FDE38B DUP5 PUSH1 0x40 MLOAD DUP3 PUSH4 0xFFFFFFFF AND PUSH1 0xE0 SHL DUP2 MSTORE PUSH1 0x4 ADD PUSH3 0x122C SWAP2 SWAP1 PUSH3 0x1DA0 JUMP JUMPDEST PUSH1 0x0 PUSH1 0x40 MLOAD DUP1 DUP4 SUB DUP2 PUSH1 0x0 DUP8 DUP1 EXTCODESIZE ISZERO DUP1 ISZERO PUSH3 0x1247 JUMPI PUSH1 0x0 DUP1 REVERT JUMPDEST POP GAS CALL ISZERO DUP1 ISZERO PUSH3 0x125C JUMPI RETURNDATASIZE PUSH1 0x0 DUP1 RETURNDATACOPY RETURNDATASIZE PUSH1 0x0 REVERT JUMPDEST POP POP POP POP DUP2 PUSH20 0xFFFFFFFFFFFFFFFFFFFFFFFFFFFFFFFFFFFFFFFF AND DUP4 PUSH20 0xFFFFFFFFFFFFFFFFFFFFFFFFFFFFFFFFFFFFFFFF AND PUSH32 0x1519D7F9990F04680BE1A1B64A5E8EF2C24C9A5F94DE2C3C50F9E3AEF18FC55F PUSH1 0x1 SLOAD PUSH1 0x40 MLOAD PUSH3 0x12C1 SWAP2 SWAP1 PUSH3 0x1F24 JUMP JUMPDEST PUSH1 0x40 MLOAD DUP1 SWAP2 SUB SWAP1 LOG3 POP POP POP POP POP POP POP POP JUMP JUMPDEST PUSH1 0xA PUSH1 0x20 MSTORE DUP1 PUSH1 0x0 MSTORE PUSH1 0x40 PUSH1 0x0 KECCAK256 PUSH1 0x0 SWAP2 POP SLOAD SWAP1 PUSH2 0x100 EXP SWAP1 DIV PUSH1 0xFF AND DUP2 JUMP JUMPDEST PUSH3 0x12FD PUSH3 0x188F JUMP JUMPDEST PUSH20 0xFFFFFFFFFFFFFFFFFFFFFFFFFFFFFFFFFFFFFFFF AND PUSH1 0x0 DUP1 SLOAD SWAP1 PUSH2 0x100 EXP SWAP1 DIV PUSH20 0xFFFFFFFFFFFFFFFFFFFFFFFFFFFFFFFFFFFFFFFF AND PUSH20 0xFFFFFFFFFFFFFFFFFFFFFFFFFFFFFFFFFFFFFFFF AND EQ PUSH3 0x138D JUMPI PUSH1 0x40 MLOAD PUSH32 0x8C379A000000000000000000000000000000000000000000000000000000000 DUP2 MSTORE PUSH1 0x4 ADD PUSH3 0x1384 SWAP1 PUSH3 0x1EC8 JUMP JUMPDEST PUSH1 0x40 MLOAD DUP1 SWAP2 SUB SWAP1 REVERT JUMPDEST DUP1 PUSH1 0xE PUSH1 0x4 ADD DUP2 SWAP1 SSTORE POP POP JUMP JUMPDEST PUSH3 0x13A4 PUSH3 0x188F JUMP JUMPDEST PUSH20 0xFFFFFFFFFFFFFFFFFFFFFFFFFFFFFFFFFFFFFFFF AND PUSH1 0x0 DUP1 SLOAD SWAP1 PUSH2 0x100 EXP SWAP1 DIV PUSH20 0xFFFFFFFFFFFFFFFFFFFFFFFFFFFFFFFFFFFFFFFF AND PUSH20 0xFFFFFFFFFFFFFFFFFFFFFFFFFFFFFFFFFFFFFFFF AND EQ PUSH3 0x1434 JUMPI PUSH1 0x40 MLOAD PUSH32 0x8C379A000000000000000000000000000000000000000000000000000000000 DUP2 MSTORE PUSH1 0x4 ADD PUSH3 0x142B SWAP1 PUSH3 0x1EC8 JUMP JUMPDEST PUSH1 0x40 MLOAD DUP1 SWAP2 SUB SWAP1 REVERT JUMPDEST PUSH1 0x0 PUSH20 0xFFFFFFFFFFFFFFFFFFFFFFFFFFFFFFFFFFFFFFFF AND DUP2 PUSH20 0xFFFFFFFFFFFFFFFFFFFFFFFFFFFFFFFFFFFFFFFF AND EQ ISZERO PUSH3 0x14A7 JUMPI PUSH1 0x40 MLOAD PUSH32 0x8C379A000000000000000000000000000000000000000000000000000000000 DUP2 MSTORE PUSH1 0x4 ADD PUSH3 0x149E SWAP1 PUSH3 0x1E84 JUMP JUMPDEST PUSH1 0x40 MLOAD DUP1 SWAP2 SUB SWAP1 REVERT JUMPDEST DUP1 PUSH20 0xFFFFFFFFFFFFFFFFFFFFFFFFFFFFFFFFFFFFFFFF AND PUSH1 0x0 DUP1 SLOAD SWAP1 PUSH2 0x100 EXP SWAP1 DIV PUSH20 0xFFFFFFFFFFFFFFFFFFFFFFFFFFFFFFFFFFFFFFFF AND PUSH20 0xFFFFFFFFFFFFFFFFFFFFFFFFFFFFFFFFFFFFFFFF AND PUSH32 0x8BE0079C531659141344CD1FD0A4F28419497F9722A3DAAFE3B4186F6B6457E0 PUSH1 0x40 MLOAD PUSH1 0x40 MLOAD DUP1 SWAP2 SUB SWAP1 LOG3 DUP1 PUSH1 0x0 DUP1 PUSH2 0x100 EXP DUP2 SLOAD DUP2 PUSH20 0xFFFFFFFFFFFFFFFFFFFFFFFFFFFFFFFFFFFFFFFF MUL NOT AND SWAP1 DUP4 PUSH20 0xFFFFFFFFFFFFFFFFFFFFFFFFFFFFFFFFFFFFFFFF AND MUL OR SWAP1 SSTORE POP POP JUMP JUMPDEST PUSH1 0x0 CALLER SWAP1 POP PUSH1 0x0 PUSH20 0xFFFFFFFFFFFFFFFFFFFFFFFFFFFFFFFFFFFFFFFF AND DUP2 PUSH20 0xFFFFFFFFFFFFFFFFFFFFFFFFFFFFFFFFFFFFFFFF AND EQ ISZERO PUSH3 0x15DC JUMPI PUSH1 0x40 MLOAD PUSH32 0x8C379A000000000000000000000000000000000000000000000000000000000 DUP2 MSTORE PUSH1 0x4 ADD PUSH3 0x15D3 SWAP1 PUSH3 0x1EA6 JUMP JUMPDEST PUSH1 0x40 MLOAD DUP1 SWAP2 SUB SWAP1 REVERT JUMPDEST PUSH1 0x1 PUSH1 0x5 PUSH1 0x0 DUP4 PUSH20 0xFFFFFFFFFFFFFFFFFFFFFFFFFFFFFFFFFFFFFFFF AND PUSH20 0xFFFFFFFFFFFFFFFFFFFFFFFFFFFFFFFFFFFFFFFF AND DUP2 MSTORE PUSH1 0x20 ADD SWAP1 DUP2 MSTORE PUSH1 0x20 ADD PUSH1 0x0 KECCAK256 PUSH1 0x0 PUSH2 0x100 EXP DUP2 SLOAD DUP2 PUSH1 0xFF MUL NOT AND SWAP1 DUP4 ISZERO ISZERO MUL OR SWAP1 SSTORE POP PUSH1 0x2 DUP2 SWAP1 DUP1 PUSH1 0x1 DUP2 SLOAD ADD DUP1 DUP3 SSTORE DUP1 SWAP2 POP POP PUSH1 0x1 SWAP1 SUB SWAP1 PUSH1 0x0 MSTORE PUSH1 0x20 PUSH1 0x0 KECCAK256 ADD PUSH1 0x0 SWAP1 SWAP2 SWAP1 SWAP2 SWAP1 SWAP2 PUSH2 0x100 EXP DUP2 SLOAD DUP2 PUSH20 0xFFFFFFFFFFFFFFFFFFFFFFFFFFFFFFFFFFFFFFFF MUL NOT AND SWAP1 DUP4 PUSH20 0xFFFFFFFFFFFFFFFFFFFFFFFFFFFFFFFFFFFFFFFF AND MUL OR SWAP1 SSTORE POP PUSH1 0x2 DUP1 SLOAD SWAP1 POP PUSH1 0x1 DUP2 SWAP1 SSTORE POP PUSH1 0x0 DUP7 DUP7 DUP7 DUP7 DUP7 PUSH1 0xE ADDRESS PUSH1 0x40 MLOAD PUSH3 0x16BB SWAP1 PUSH3 0x18DB JUMP JUMPDEST PUSH3 0x16CD SWAP8 SWAP7 SWAP6 SWAP5 SWAP4 SWAP3 SWAP2 SWAP1 PUSH3 0x1DF7 JUMP JUMPDEST PUSH1 0x40 MLOAD DUP1 SWAP2 SUB SWAP1 PUSH1 0x0 CREATE DUP1 ISZERO DUP1 ISZERO PUSH3 0x16EA JUMPI RETURNDATASIZE PUSH1 0x0 DUP1 RETURNDATACOPY RETURNDATASIZE PUSH1 0x0 REVERT JUMPDEST POP SWAP1 POP PUSH1 0x1 PUSH1 0xA PUSH1 0x0 DUP4 PUSH20 0xFFFFFFFFFFFFFFFFFFFFFFFFFFFFFFFFFFFFFFFF AND PUSH20 0xFFFFFFFFFFFFFFFFFFFFFFFFFFFFFFFFFFFFFFFF AND DUP2 MSTORE PUSH1 0x20 ADD SWAP1 DUP2 MSTORE PUSH1 0x20 ADD PUSH1 0x0 KECCAK256 PUSH1 0x0 PUSH2 0x100 EXP DUP2 SLOAD DUP2 PUSH1 0xFF MUL NOT AND SWAP1 DUP4 ISZERO ISZERO MUL OR SWAP1 SSTORE POP PUSH1 0x9 DUP2 SWAP1 DUP1 PUSH1 0x1 DUP2 SLOAD ADD DUP1 DUP3 SSTORE DUP1 SWAP2 POP POP PUSH1 0x1 SWAP1 SUB SWAP1 PUSH1 0x0 MSTORE PUSH1 0x20 PUSH1 0x0 KECCAK256 ADD PUSH1 0x0 SWAP1 SWAP2 SWAP1 SWAP2 SWAP1 SWAP2 PUSH2 0x100 EXP DUP2 SLOAD DUP2 PUSH20 0xFFFFFFFFFFFFFFFFFFFFFFFFFFFFFFFFFFFFFFFF MUL NOT AND SWAP1 DUP4 PUSH20 0xFFFFFFFFFFFFFFFFFFFFFFFFFFFFFFFFFFFFFFFF AND MUL OR SWAP1 SSTORE POP PUSH1 0x0 DUP2 SWAP1 POP DUP1 PUSH20 0xFFFFFFFFFFFFFFFFFFFFFFFFFFFFFFFFFFFFFFFF AND PUSH4 0xF2FDE38B DUP5 PUSH1 0x40 MLOAD DUP3 PUSH4 0xFFFFFFFF AND PUSH1 0xE0 SHL DUP2 MSTORE PUSH1 0x4 ADD PUSH3 0x17E8 SWAP2 SWAP1 PUSH3 0x1DA0 JUMP JUMPDEST PUSH1 0x0 PUSH1 0x40 MLOAD DUP1 DUP4 SUB DUP2 PUSH1 0x0 DUP8 DUP1 EXTCODESIZE ISZERO DUP1 ISZERO PUSH3 0x1803 JUMPI PUSH1 0x0 DUP1 REVERT JUMPDEST POP GAS CALL ISZERO DUP1 ISZERO PUSH3 0x1818 JUMPI RETURNDATASIZE PUSH1 0x0 DUP1 RETURNDATACOPY RETURNDATASIZE PUSH1 0x0 REVERT JUMPDEST POP POP POP POP DUP2 PUSH20 0xFFFFFFFFFFFFFFFFFFFFFFFFFFFFFFFFFFFFFFFF AND DUP4 PUSH20 0xFFFFFFFFFFFFFFFFFFFFFFFFFFFFFFFFFFFFFFFF AND PUSH32 0x1519D7F9990F04680BE1A1B64A5E8EF2C24C9A5F94DE2C3C50F9E3AEF18FC55F PUSH1 0x1 SLOAD PUSH1 0x40 MLOAD PUSH3 0x187D SWAP2 SWAP1 PUSH3 0x1F24 JUMP JUMPDEST PUSH1 0x40 MLOAD DUP1 SWAP2 SUB SWAP1 LOG3 POP POP POP POP POP POP POP POP JUMP JUMPDEST PUSH1 0x0 CALLER SWAP1 POP SWAP1 JUMP JUMPDEST PUSH1 0x40 MLOAD DUP1 PUSH1 0xC0 ADD PUSH1 0x40 MSTORE DUP1 PUSH1 0x0 DUP2 MSTORE PUSH1 0x20 ADD PUSH1 0x0 DUP2 MSTORE PUSH1 0x20 ADD PUSH1 0x0 DUP2 MSTORE PUSH1 0x20 ADD PUSH1 0x0 DUP2 MSTORE PUSH1 0x20 ADD PUSH1 0x0 DUP2 MSTORE PUSH1 0x20 ADD PUSH1 0x0 DUP2 MSTORE POP SWAP1 JUMP JUMPDEST PUSH2 0x21B0 DUP1 PUSH3 0x2157 DUP4 CODECOPY ADD SWAP1 JUMP JUMPDEST PUSH2 0x260C DUP1 PUSH3 0x4307 DUP4 CODECOPY ADD SWAP1 JUMP JUMPDEST PUSH1 0x0 DUP2 CALLDATALOAD SWAP1 POP PUSH3 0x18FA DUP2 PUSH3 0x2122 JUMP JUMPDEST SWAP3 SWAP2 POP POP JUMP JUMPDEST PUSH1 0x0 DUP3 PUSH1 0x1F DUP4 ADD SLT PUSH3 0x1912 JUMPI PUSH1 0x0 DUP1 REVERT JUMPDEST DUP2 CALLDATALOAD PUSH3 0x1929 PUSH3 0x1923 DUP3 PUSH3 0x1FDC JUMP JUMPDEST PUSH3 0x1FAE JUMP JUMPDEST SWAP2 POP DUP1 DUP3 MSTORE PUSH1 0x20 DUP4 ADD PUSH1 0x20 DUP4 ADD DUP6 DUP4 DUP4 ADD GT ISZERO PUSH3 0x1946 JUMPI PUSH1 0x0 DUP1 REVERT JUMPDEST PUSH3 0x1953 DUP4 DUP3 DUP5 PUSH3 0x20A1 JUMP JUMPDEST POP POP POP SWAP3 SWAP2 POP POP JUMP JUMPDEST PUSH1 0x0 DUP2 CALLDATALOAD SWAP1 POP PUSH3 0x196D DUP2 PUSH3 0x213C JUMP JUMPDEST SWAP3 SWAP2 POP POP JUMP JUMPDEST PUSH1 0x0 PUSH1 0x20 DUP3 DUP5 SUB SLT ISZERO PUSH3 0x1986 JUMPI PUSH1 0x0 DUP1 REVERT JUMPDEST PUSH1 0x0 PUSH3 0x1996 DUP5 DUP3 DUP6 ADD PUSH3 0x18E9 JUMP JUMPDEST SWAP2 POP POP SWAP3 SWAP2 POP POP JUMP JUMPDEST PUSH1 0x0 DUP1 PUSH1 0x0 DUP1 PUSH1 0x0 PUSH1 0xA0 DUP7 DUP9 SUB SLT ISZERO PUSH3 0x19B8 JUMPI PUSH1 0x0 DUP1 REVERT JUMPDEST PUSH1 0x0 DUP7 ADD CALLDATALOAD PUSH8 0xFFFFFFFFFFFFFFFF DUP2 GT ISZERO PUSH3 0x19D3 JUMPI PUSH1 0x0 DUP1 REVERT JUMPDEST PUSH3 0x19E1 DUP9 DUP3 DUP10 ADD PUSH3 0x1900 JUMP JUMPDEST SWAP6 POP POP PUSH1 0x20 DUP7 ADD CALLDATALOAD PUSH8 0xFFFFFFFFFFFFFFFF DUP2 GT ISZERO PUSH3 0x19FF JUMPI PUSH1 0x0 DUP1 REVERT JUMPDEST PUSH3 0x1A0D DUP9 DUP3 DUP10 ADD PUSH3 0x1900 JUMP JUMPDEST SWAP5 POP POP PUSH1 0x40 PUSH3 0x1A20 DUP9 DUP3 DUP10 ADD PUSH3 0x195C JUMP JUMPDEST SWAP4 POP POP PUSH1 0x60 PUSH3 0x1A33 DUP9 DUP3 DUP10 ADD PUSH3 0x195C JUMP JUMPDEST SWAP3 POP POP PUSH1 0x80 PUSH3 0x1A46 DUP9 DUP3 DUP10 ADD PUSH3 0x195C JUMP JUMPDEST SWAP2 POP POP SWAP3 SWAP6 POP SWAP3 SWAP6 SWAP1 SWAP4 POP JUMP JUMPDEST PUSH1 0x0 PUSH1 0x20 DUP3 DUP5 SUB SLT ISZERO PUSH3 0x1A66 JUMPI PUSH1 0x0 DUP1 REVERT JUMPDEST PUSH1 0x0 PUSH3 0x1A76 DUP5 DUP3 DUP6 ADD PUSH3 0x195C JUMP JUMPDEST SWAP2 POP POP SWAP3 SWAP2 POP POP JUMP JUMPDEST PUSH1 0x0 DUP1 PUSH1 0x40 DUP4 DUP6 SUB SLT ISZERO PUSH3 0x1A93 JUMPI PUSH1 0x0 DUP1 REVERT JUMPDEST PUSH1 0x0 PUSH3 0x1AA3 DUP6 DUP3 DUP7 ADD PUSH3 0x195C JUMP JUMPDEST SWAP3 POP POP PUSH1 0x20 PUSH3 0x1AB6 DUP6 DUP3 DUP7 ADD PUSH3 0x195C JUMP JUMPDEST SWAP2 POP POP SWAP3 POP SWAP3 SWAP1 POP JUMP JUMPDEST PUSH3 0x1ACB DUP2 PUSH3 0x202F JUMP JUMPDEST DUP3 MSTORE POP POP JUMP JUMPDEST PUSH3 0x1ADC DUP2 PUSH3 0x2043 JUMP JUMPDEST DUP3 MSTORE POP POP JUMP JUMPDEST PUSH3 0x1AED DUP2 PUSH3 0x2079 JUMP JUMPDEST DUP3 MSTORE POP POP JUMP JUMPDEST PUSH1 0x0 PUSH3 0x1B00 DUP3 PUSH3 0x2009 JUMP JUMPDEST PUSH3 0x1B0C DUP2 DUP6 PUSH3 0x2014 JUMP JUMPDEST SWAP4 POP PUSH3 0x1B1E DUP2 DUP6 PUSH1 0x20 DUP7 ADD PUSH3 0x20B0 JUMP JUMPDEST PUSH3 0x1B29 DUP2 PUSH3 0x2104 JUMP JUMPDEST DUP5 ADD SWAP2 POP POP SWAP3 SWAP2 POP POP JUMP JUMPDEST PUSH1 0x0 PUSH3 0x1B43 PUSH1 0x26 DUP4 PUSH3 0x2014 JUMP JUMPDEST SWAP2 POP PUSH32 0x4F776E61626C653A206E6577206F776E657220697320746865207A65726F2061 PUSH1 0x0 DUP4 ADD MSTORE PUSH32 0x6464726573730000000000000000000000000000000000000000000000000000 PUSH1 0x20 DUP4 ADD MSTORE PUSH1 0x40 DUP3 ADD SWAP1 POP SWAP2 SWAP1 POP JUMP JUMPDEST PUSH1 0x0 PUSH3 0x1BAB PUSH1 0x16 DUP4 PUSH3 0x2014 JUMP JUMPDEST SWAP2 POP PUSH32 0x53656E6465722041646472657373206973207A65726F00000000000000000000 PUSH1 0x0 DUP4 ADD MSTORE PUSH1 0x20 DUP3 ADD SWAP1 POP SWAP2 SWAP1 POP JUMP JUMPDEST PUSH1 0x0 PUSH3 0x1BED PUSH1 0x20 DUP4 PUSH3 0x2014 JUMP JUMPDEST SWAP2 POP PUSH32 0x4F776E61626C653A2063616C6C6572206973206E6F7420746865206F776E6572 PUSH1 0x0 DUP4 ADD MSTORE PUSH1 0x20 DUP3 ADD SWAP1 POP SWAP2 SWAP1 POP JUMP JUMPDEST PUSH1 0xC0 DUP3 ADD PUSH1 0x0 DUP3 ADD MLOAD PUSH3 0x1C38 PUSH1 0x0 DUP6 ADD DUP3 PUSH3 0x1D7E JUMP JUMPDEST POP PUSH1 0x20 DUP3 ADD MLOAD PUSH3 0x1C4D PUSH1 0x20 DUP6 ADD DUP3 PUSH3 0x1D7E JUMP JUMPDEST POP PUSH1 0x40 DUP3 ADD MLOAD PUSH3 0x1C62 PUSH1 0x40 DUP6 ADD DUP3 PUSH3 0x1D7E JUMP JUMPDEST POP PUSH1 0x60 DUP3 ADD MLOAD PUSH3 0x1C77 PUSH1 0x60 DUP6 ADD DUP3 PUSH3 0x1D7E JUMP JUMPDEST POP PUSH1 0x80 DUP3 ADD MLOAD PUSH3 0x1C8C PUSH1 0x80 DUP6 ADD DUP3 PUSH3 0x1D7E JUMP JUMPDEST POP PUSH1 0xA0 DUP3 ADD MLOAD PUSH3 0x1CA1 PUSH1 0xA0 DUP6 ADD DUP3 PUSH3 0x1D7E JUMP JUMPDEST POP POP POP POP JUMP JUMPDEST PUSH1 0xC0 DUP3 ADD PUSH1 0x0 DUP1 DUP4 ADD SLOAD SWAP1 POP PUSH3 0x1CBE DUP2 PUSH3 0x20E6 JUMP JUMPDEST PUSH3 0x1CCD PUSH1 0x0 DUP7 ADD DUP3 PUSH3 0x1D7E JUMP JUMPDEST POP PUSH1 0x1 DUP4 ADD SLOAD SWAP1 POP PUSH3 0x1CE0 DUP2 PUSH3 0x20E6 JUMP JUMPDEST PUSH3 0x1CEF PUSH1 0x20 DUP7 ADD DUP3 PUSH3 0x1D7E JUMP JUMPDEST POP PUSH1 0x2 DUP4 ADD SLOAD SWAP1 POP PUSH3 0x1D02 DUP2 PUSH3 0x20E6 JUMP JUMPDEST PUSH3 0x1D11 PUSH1 0x40 DUP7 ADD DUP3 PUSH3 0x1D7E JUMP JUMPDEST POP PUSH1 0x3 DUP4 ADD SLOAD SWAP1 POP PUSH3 0x1D24 DUP2 PUSH3 0x20E6 JUMP JUMPDEST PUSH3 0x1D33 PUSH1 0x60 DUP7 ADD DUP3 PUSH3 0x1D7E JUMP JUMPDEST POP PUSH1 0x4 DUP4 ADD SLOAD SWAP1 POP PUSH3 0x1D46 DUP2 PUSH3 0x20E6 JUMP JUMPDEST PUSH3 0x1D55 PUSH1 0x80 DUP7 ADD DUP3 PUSH3 0x1D7E JUMP JUMPDEST POP PUSH1 0x5 DUP4 ADD SLOAD SWAP1 POP PUSH3 0x1D68 DUP2 PUSH3 0x20E6 JUMP JUMPDEST PUSH3 0x1D77 PUSH1 0xA0 DUP7 ADD DUP3 PUSH3 0x1D7E JUMP JUMPDEST POP POP POP POP POP JUMP JUMPDEST PUSH3 0x1D89 DUP2 PUSH3 0x206F JUMP JUMPDEST DUP3 MSTORE POP POP JUMP JUMPDEST PUSH3 0x1D9A DUP2 PUSH3 0x206F JUMP JUMPDEST DUP3 MSTORE POP POP JUMP JUMPDEST PUSH1 0x0 PUSH1 0x20 DUP3 ADD SWAP1 POP PUSH3 0x1DB7 PUSH1 0x0 DUP4 ADD DUP5 PUSH3 0x1AC0 JUMP JUMPDEST SWAP3 SWAP2 POP POP JUMP JUMPDEST PUSH1 0x0 PUSH1 0x20 DUP3 ADD SWAP1 POP PUSH3 0x1DD4 PUSH1 0x0 DUP4 ADD DUP5 PUSH3 0x1AD1 JUMP JUMPDEST SWAP3 SWAP2 POP POP JUMP JUMPDEST PUSH1 0x0 PUSH1 0x20 DUP3 ADD SWAP1 POP PUSH3 0x1DF1 PUSH1 0x0 DUP4 ADD DUP5 PUSH3 0x1AE2 JUMP JUMPDEST SWAP3 SWAP2 POP POP JUMP JUMPDEST PUSH1 0x0 PUSH2 0x180 DUP3 ADD SWAP1 POP DUP2 DUP2 SUB PUSH1 0x0 DUP4 ADD MSTORE PUSH3 0x1E14 DUP2 DUP11 PUSH3 0x1AF3 JUMP JUMPDEST SWAP1 POP DUP2 DUP2 SUB PUSH1 0x20 DUP4 ADD MSTORE PUSH3 0x1E2A DUP2 DUP10 PUSH3 0x1AF3 JUMP JUMPDEST SWAP1 POP PUSH3 0x1E3B PUSH1 0x40 DUP4 ADD DUP9 PUSH3 0x1D8F JUMP JUMPDEST PUSH3 0x1E4A PUSH1 0x60 DUP4 ADD DUP8 PUSH3 0x1D8F JUMP JUMPDEST PUSH3 0x1E59 PUSH1 0x80 DUP4 ADD DUP7 PUSH3 0x1D8F JUMP JUMPDEST PUSH3 0x1E68 PUSH1 0xA0 DUP4 ADD DUP6 PUSH3 0x1CA7 JUMP JUMPDEST PUSH3 0x1E78 PUSH2 0x160 DUP4 ADD DUP5 PUSH3 0x1AC0 JUMP JUMPDEST SWAP9 SWAP8 POP POP POP POP POP POP POP POP JUMP JUMPDEST PUSH1 0x0 PUSH1 0x20 DUP3 ADD SWAP1 POP DUP2 DUP2 SUB PUSH1 0x0 DUP4 ADD MSTORE PUSH3 0x1E9F DUP2 PUSH3 0x1B34 JUMP JUMPDEST SWAP1 POP SWAP2 SWAP1 POP JUMP JUMPDEST PUSH1 0x0 PUSH1 0x20 DUP3 ADD SWAP1 POP DUP2 DUP2 SUB PUSH1 0x0 DUP4 ADD MSTORE PUSH3 0x1EC1 DUP2 PUSH3 0x1B9C JUMP JUMPDEST SWAP1 POP SWAP2 SWAP1 POP JUMP JUMPDEST PUSH1 0x0 PUSH1 0x20 DUP3 ADD SWAP1 POP DUP2 DUP2 SUB PUSH1 0x0 DUP4 ADD MSTORE PUSH3 0x1EE3 DUP2 PUSH3 0x1BDE JUMP JUMPDEST SWAP1 POP SWAP2 SWAP1 POP JUMP JUMPDEST PUSH1 0x0 PUSH1 0xC0 DUP3 ADD SWAP1 POP PUSH3 0x1F01 PUSH1 0x0 DUP4 ADD DUP5 PUSH3 0x1C20 JUMP JUMPDEST SWAP3 SWAP2 POP POP JUMP JUMPDEST PUSH1 0x0 PUSH1 0xC0 DUP3 ADD SWAP1 POP PUSH3 0x1F1E PUSH1 0x0 DUP4 ADD DUP5 PUSH3 0x1CA7 JUMP JUMPDEST SWAP3 SWAP2 POP POP JUMP JUMPDEST PUSH1 0x0 PUSH1 0x20 DUP3 ADD SWAP1 POP PUSH3 0x1F3B PUSH1 0x0 DUP4 ADD DUP5 PUSH3 0x1D8F JUMP JUMPDEST SWAP3 SWAP2 POP POP JUMP JUMPDEST PUSH1 0x0 PUSH1 0xC0 DUP3 ADD SWAP1 POP PUSH3 0x1F58 PUSH1 0x0 DUP4 ADD DUP10 PUSH3 0x1D8F JUMP JUMPDEST PUSH3 0x1F67 PUSH1 0x20 DUP4 ADD DUP9 PUSH3 0x1D8F JUMP JUMPDEST PUSH3 0x1F76 PUSH1 0x40 DUP4 ADD DUP8 PUSH3 0x1D8F JUMP JUMPDEST PUSH3 0x1F85 PUSH1 0x60 DUP4 ADD DUP7 PUSH3 0x1D8F JUMP JUMPDEST PUSH3 0x1F94 PUSH1 0x80 DUP4 ADD DUP6 PUSH3 0x1D8F JUMP JUMPDEST PUSH3 0x1FA3 PUSH1 0xA0 DUP4 ADD DUP5 PUSH3 0x1D8F JUMP JUMPDEST SWAP8 SWAP7 POP POP POP POP POP POP POP JUMP JUMPDEST PUSH1 0x0 PUSH1 0x40 MLOAD SWAP1 POP DUP2 DUP2 ADD DUP2 DUP2 LT PUSH8 0xFFFFFFFFFFFFFFFF DUP3 GT OR ISZERO PUSH3 0x1FD2 JUMPI PUSH1 0x0 DUP1 REVERT JUMPDEST DUP1 PUSH1 0x40 MSTORE POP SWAP2 SWAP1 POP JUMP JUMPDEST PUSH1 0x0 PUSH8 0xFFFFFFFFFFFFFFFF DUP3 GT ISZERO PUSH3 0x1FF4 JUMPI PUSH1 0x0 DUP1 REVERT JUMPDEST PUSH1 0x1F NOT PUSH1 0x1F DUP4 ADD AND SWAP1 POP PUSH1 0x20 DUP2 ADD SWAP1 POP SWAP2 SWAP1 POP JUMP JUMPDEST PUSH1 0x0 DUP2 MLOAD SWAP1 POP SWAP2 SWAP1 POP JUMP JUMPDEST PUSH1 0x0 DUP3 DUP3 MSTORE PUSH1 0x20 DUP3 ADD SWAP1 POP SWAP3 SWAP2 POP POP JUMP JUMPDEST PUSH1 0x0 DUP2 SWAP1 POP SWAP2 SWAP1 POP JUMP JUMPDEST PUSH1 0x0 PUSH3 0x203C DUP3 PUSH3 0x204F JUMP JUMPDEST SWAP1 POP SWAP2 SWAP1 POP JUMP JUMPDEST PUSH1 0x0 DUP2 ISZERO ISZERO SWAP1 POP SWAP2 SWAP1 POP JUMP JUMPDEST PUSH1 0x0 PUSH20 0xFFFFFFFFFFFFFFFFFFFFFFFFFFFFFFFFFFFFFFFF DUP3 AND SWAP1 POP SWAP2 SWAP1 POP JUMP JUMPDEST PUSH1 0x0 DUP2 SWAP1 POP SWAP2 SWAP1 POP JUMP JUMPDEST PUSH1 0x0 PUSH3 0x2086 DUP3 PUSH3 0x208D JUMP JUMPDEST SWAP1 POP SWAP2 SWAP1 POP JUMP JUMPDEST PUSH1 0x0 PUSH3 0x209A DUP3 PUSH3 0x204F JUMP JUMPDEST SWAP1 POP SWAP2 SWAP1 POP JUMP JUMPDEST DUP3 DUP2 DUP4 CALLDATACOPY PUSH1 0x0 DUP4 DUP4 ADD MSTORE POP POP POP JUMP JUMPDEST PUSH1 0x0 JUMPDEST DUP4 DUP2 LT ISZERO PUSH3 0x20D0 JUMPI DUP1 DUP3 ADD MLOAD DUP2 DUP5 ADD MSTORE PUSH1 0x20 DUP2 ADD SWAP1 POP PUSH3 0x20B3 JUMP JUMPDEST DUP4 DUP2 GT ISZERO PUSH3 0x20E0 JUMPI PUSH1 0x0 DUP5 DUP5 ADD MSTORE JUMPDEST POP POP POP POP JUMP JUMPDEST PUSH1 0x0 PUSH3 0x20FD PUSH3 0x20F7 DUP4 PUSH3 0x2115 JUMP JUMPDEST PUSH3 0x2025 JUMP JUMPDEST SWAP1 POP SWAP2 SWAP1 POP JUMP JUMPDEST PUSH1 0x0 PUSH1 0x1F NOT PUSH1 0x1F DUP4 ADD AND SWAP1 POP SWAP2 SWAP1 POP JUMP JUMPDEST PUSH1 0x0 DUP2 PUSH1 0x0 SHR SWAP1 POP SWAP2 SWAP1 POP JUMP JUMPDEST PUSH3 0x212D DUP2 PUSH3 0x202F JUMP JUMPDEST DUP2 EQ PUSH3 0x2139 JUMPI PUSH1 0x0 DUP1 REVERT JUMPDEST POP JUMP JUMPDEST PUSH3 0x2147 DUP2 PUSH3 0x206F JUMP JUMPDEST DUP2 EQ PUSH3 0x2153 JUMPI PUSH1 0x0 DUP1 REVERT JUMPDEST POP JUMP INVALID PUSH1 0x80 PUSH1 0x40 MSTORE CALLVALUE DUP1 ISZERO PUSH3 0x11 JUMPI PUSH1 0x0 DUP1 REVERT JUMPDEST POP PUSH1 0x40 MLOAD PUSH3 0x21B0 CODESIZE SUB DUP1 PUSH3 0x21B0 DUP4 CODECOPY DUP2 DUP2 ADD PUSH1 0x40 MSTORE DUP2 ADD SWAP1 PUSH3 0x37 SWAP2 SWAP1 PUSH3 0x4A8 JUMP JUMPDEST DUP7 DUP5 DUP5 DUP5 DUP5 PUSH1 0x0 PUSH3 0x4E PUSH3 0x2C5 PUSH1 0x20 SHL PUSH1 0x20 SHR JUMP JUMPDEST SWAP1 POP DUP1 PUSH1 0x0 DUP1 PUSH2 0x100 EXP DUP2 SLOAD DUP2 PUSH20 0xFFFFFFFFFFFFFFFFFFFFFFFFFFFFFFFFFFFFFFFF MUL NOT AND SWAP1 DUP4 PUSH20 0xFFFFFFFFFFFFFFFFFFFFFFFFFFFFFFFFFFFFFFFF AND MUL OR SWAP1 SSTORE POP DUP1 PUSH20 0xFFFFFFFFFFFFFFFFFFFFFFFFFFFFFFFFFFFFFFFF AND PUSH1 0x0 PUSH20 0xFFFFFFFFFFFFFFFFFFFFFFFFFFFFFFFFFFFFFFFF AND PUSH32 0x8BE0079C531659141344CD1FD0A4F28419497F9722A3DAAFE3B4186F6B6457E0 PUSH1 0x40 MLOAD PUSH1 0x40 MLOAD DUP1 SWAP2 SUB SWAP1 LOG3 POP DUP2 PUSH1 0x1 PUSH1 0x0 DUP3 ADD MLOAD DUP2 PUSH1 0x0 ADD SSTORE PUSH1 0x20 DUP3 ADD MLOAD DUP2 PUSH1 0x1 ADD SSTORE PUSH1 0x40 DUP3 ADD MLOAD DUP2 PUSH1 0x2 ADD SSTORE PUSH1 0x60 DUP3 ADD MLOAD DUP2 PUSH1 0x3 ADD SSTORE PUSH1 0x80 DUP3 ADD MLOAD DUP2 PUSH1 0x4 ADD SSTORE PUSH1 0xA0 DUP3 ADD MLOAD DUP2 PUSH1 0x5 ADD SSTORE SWAP1 POP POP PUSH1 0x1 PUSH1 0x0 ADD SLOAD DUP5 LT ISZERO PUSH3 0x179 JUMPI PUSH1 0x40 MLOAD PUSH32 0x8C379A000000000000000000000000000000000000000000000000000000000 DUP2 MSTORE PUSH1 0x4 ADD PUSH3 0x170 SWAP1 PUSH3 0x5DC JUMP JUMPDEST PUSH1 0x40 MLOAD DUP1 SWAP2 SUB SWAP1 REVERT JUMPDEST DUP5 PUSH1 0x8 SWAP1 DUP1 MLOAD SWAP1 PUSH1 0x20 ADD SWAP1 PUSH3 0x191 SWAP3 SWAP2 SWAP1 PUSH3 0x2CD JUMP JUMPDEST POP DUP3 PUSH1 0xA DUP2 SWAP1 SSTORE POP DUP1 PUSH1 0x12 PUSH1 0x0 PUSH2 0x100 EXP DUP2 SLOAD DUP2 PUSH20 0xFFFFFFFFFFFFFFFFFFFFFFFFFFFFFFFFFFFFFFFF MUL NOT AND SWAP1 DUP4 PUSH20 0xFFFFFFFFFFFFFFFFFFFFFFFFFFFFFFFFFFFFFFFF AND MUL OR SWAP1 SSTORE POP DUP4 PUSH1 0x9 DUP2 SWAP1 SSTORE POP NUMBER PUSH1 0xC DUP2 SWAP1 SSTORE POP PUSH32 0x656AD37B815087D90F0C4CBDBF28A9EF3E92CFEB045DD15EAA452CC8B1D34E00 PUSH1 0xC SLOAD PUSH1 0x40 MLOAD PUSH3 0x21B SWAP2 SWAP1 PUSH3 0x5FE JUMP JUMPDEST PUSH1 0x40 MLOAD DUP1 SWAP2 SUB SWAP1 LOG1 POP POP POP POP POP DUP6 PUSH1 0x14 SWAP1 DUP1 MLOAD SWAP1 PUSH1 0x20 ADD SWAP1 PUSH3 0x240 SWAP3 SWAP2 SWAP1 PUSH3 0x2CD JUMP JUMPDEST POP DUP5 PUSH1 0x15 DUP2 SWAP1 SSTORE POP PUSH1 0x0 PUSH1 0x7 PUSH1 0x0 PUSH2 0x100 EXP DUP2 SLOAD DUP2 PUSH1 0xFF MUL NOT AND SWAP1 DUP4 PUSH1 0x4 DUP2 GT ISZERO PUSH3 0x268 JUMPI INVALID JUMPDEST MUL OR SWAP1 SSTORE POP PUSH1 0x0 PUSH1 0x10 DUP2 SWAP1 SSTORE POP PUSH1 0x0 PUSH1 0x11 DUP2 SWAP1 SSTORE POP PUSH32 0x656AD37B815087D90F0C4CBDBF28A9EF3E92CFEB045DD15EAA452CC8B1D34E00 PUSH1 0xC SLOAD PUSH1 0x40 MLOAD PUSH3 0x2B0 SWAP2 SWAP1 PUSH3 0x5FE JUMP JUMPDEST PUSH1 0x40 MLOAD DUP1 SWAP2 SUB SWAP1 LOG1 POP POP POP POP POP POP POP PUSH3 0x72F JUMP JUMPDEST PUSH1 0x0 CALLER SWAP1 POP SWAP1 JUMP JUMPDEST DUP3 DUP1 SLOAD PUSH1 0x1 DUP2 PUSH1 0x1 AND ISZERO PUSH2 0x100 MUL SUB AND PUSH1 0x2 SWAP1 DIV SWAP1 PUSH1 0x0 MSTORE PUSH1 0x20 PUSH1 0x0 KECCAK256 SWAP1 PUSH1 0x1F ADD PUSH1 0x20 SWAP1 DIV DUP2 ADD SWAP3 DUP3 PUSH1 0x1F LT PUSH3 0x310 JUMPI DUP1 MLOAD PUSH1 0xFF NOT AND DUP4 DUP1 ADD OR DUP6 SSTORE PUSH3 0x341 JUMP JUMPDEST DUP3 DUP1 ADD PUSH1 0x1 ADD DUP6 SSTORE DUP3 ISZERO PUSH3 0x341 JUMPI SWAP2 DUP3 ADD JUMPDEST DUP3 DUP2 GT ISZERO PUSH3 0x340 JUMPI DUP3 MLOAD DUP3 SSTORE SWAP2 PUSH1 0x20 ADD SWAP2 SWAP1 PUSH1 0x1 ADD SWAP1 PUSH3 0x323 JUMP JUMPDEST JUMPDEST POP SWAP1 POP PUSH3 0x350 SWAP2 SWAP1 PUSH3 0x354 JUMP JUMPDEST POP SWAP1 JUMP JUMPDEST JUMPDEST DUP1 DUP3 GT ISZERO PUSH3 0x36F JUMPI PUSH1 0x0 DUP2 PUSH1 0x0 SWAP1 SSTORE POP PUSH1 0x1 ADD PUSH3 0x355 JUMP JUMPDEST POP SWAP1 JUMP JUMPDEST PUSH1 0x0 DUP2 MLOAD SWAP1 POP PUSH3 0x384 DUP2 PUSH3 0x6FB JUMP JUMPDEST SWAP3 SWAP2 POP POP JUMP JUMPDEST PUSH1 0x0 DUP3 PUSH1 0x1F DUP4 ADD SLT PUSH3 0x39C JUMPI PUSH1 0x0 DUP1 REVERT JUMPDEST DUP2 MLOAD PUSH3 0x3B3 PUSH3 0x3AD DUP3 PUSH3 0x649 JUMP JUMPDEST PUSH3 0x61B JUMP JUMPDEST SWAP2 POP DUP1 DUP3 MSTORE PUSH1 0x20 DUP4 ADD PUSH1 0x20 DUP4 ADD DUP6 DUP4 DUP4 ADD GT ISZERO PUSH3 0x3D0 JUMPI PUSH1 0x0 DUP1 REVERT JUMPDEST PUSH3 0x3DD DUP4 DUP3 DUP5 PUSH3 0x6C5 JUMP JUMPDEST POP POP POP SWAP3 SWAP2 POP POP JUMP JUMPDEST PUSH1 0x0 PUSH1 0xC0 DUP3 DUP5 SUB SLT ISZERO PUSH3 0x3F9 JUMPI PUSH1 0x0 DUP1 REVERT JUMPDEST PUSH3 0x405 PUSH1 0xC0 PUSH3 0x61B JUMP JUMPDEST SWAP1 POP PUSH1 0x0 PUSH3 0x417 DUP5 DUP3 DUP6 ADD PUSH3 0x491 JUMP JUMPDEST PUSH1 0x0 DUP4 ADD MSTORE POP PUSH1 0x20 PUSH3 0x42D DUP5 DUP3 DUP6 ADD PUSH3 0x491 JUMP JUMPDEST PUSH1 0x20 DUP4 ADD MSTORE POP PUSH1 0x40 PUSH3 0x443 DUP5 DUP3 DUP6 ADD PUSH3 0x491 JUMP JUMPDEST PUSH1 0x40 DUP4 ADD MSTORE POP PUSH1 0x60 PUSH3 0x459 DUP5 DUP3 DUP6 ADD PUSH3 0x491 JUMP JUMPDEST PUSH1 0x60 DUP4 ADD MSTORE POP PUSH1 0x80 PUSH3 0x46F DUP5 DUP3 DUP6 ADD PUSH3 0x491 JUMP JUMPDEST PUSH1 0x80 DUP4 ADD MSTORE POP PUSH1 0xA0 PUSH3 0x485 DUP5 DUP3 DUP6 ADD PUSH3 0x491 JUMP JUMPDEST PUSH1 0xA0 DUP4 ADD MSTORE POP SWAP3 SWAP2 POP POP JUMP JUMPDEST PUSH1 0x0 DUP2 MLOAD SWAP1 POP PUSH3 0x4A2 DUP2 PUSH3 0x715 JUMP JUMPDEST SWAP3 SWAP2 POP POP JUMP JUMPDEST PUSH1 0x0 DUP1 PUSH1 0x0 DUP1 PUSH1 0x0 DUP1 PUSH1 0x0 PUSH2 0x180 DUP9 DUP11 SUB SLT ISZERO PUSH3 0x4C5 JUMPI PUSH1 0x0 DUP1 REVERT JUMPDEST PUSH1 0x0 DUP9 ADD MLOAD PUSH8 0xFFFFFFFFFFFFFFFF DUP2 GT ISZERO PUSH3 0x4E0 JUMPI PUSH1 0x0 DUP1 REVERT JUMPDEST PUSH3 0x4EE DUP11 DUP3 DUP12 ADD PUSH3 0x38A JUMP JUMPDEST SWAP8 POP POP PUSH1 0x20 DUP9 ADD MLOAD PUSH8 0xFFFFFFFFFFFFFFFF DUP2 GT ISZERO PUSH3 0x50C JUMPI PUSH1 0x0 DUP1 REVERT JUMPDEST PUSH3 0x51A DUP11 DUP3 DUP12 ADD PUSH3 0x38A JUMP JUMPDEST SWAP7 POP POP PUSH1 0x40 PUSH3 0x52D DUP11 DUP3 DUP12 ADD PUSH3 0x491 JUMP JUMPDEST SWAP6 POP POP PUSH1 0x60 PUSH3 0x540 DUP11 DUP3 DUP12 ADD PUSH3 0x491 JUMP JUMPDEST SWAP5 POP POP PUSH1 0x80 PUSH3 0x553 DUP11 DUP3 DUP12 ADD PUSH3 0x491 JUMP JUMPDEST SWAP4 POP POP PUSH1 0xA0 PUSH3 0x566 DUP11 DUP3 DUP12 ADD PUSH3 0x3E6 JUMP JUMPDEST SWAP3 POP POP PUSH2 0x160 PUSH3 0x57A DUP11 DUP3 DUP12 ADD PUSH3 0x373 JUMP JUMPDEST SWAP2 POP POP SWAP3 SWAP6 SWAP9 SWAP2 SWAP5 SWAP8 POP SWAP3 SWAP6 POP JUMP JUMPDEST PUSH1 0x0 PUSH3 0x598 PUSH1 0x11 DUP4 PUSH3 0x676 JUMP JUMPDEST SWAP2 POP PUSH32 0x496E74657265737420746F6F206C6F7721000000000000000000000000000000 PUSH1 0x0 DUP4 ADD MSTORE PUSH1 0x20 DUP3 ADD SWAP1 POP SWAP2 SWAP1 POP JUMP JUMPDEST PUSH3 0x5D6 DUP2 PUSH3 0x6BB JUMP JUMPDEST DUP3 MSTORE POP POP JUMP JUMPDEST PUSH1 0x0 PUSH1 0x20 DUP3 ADD SWAP1 POP DUP2 DUP2 SUB PUSH1 0x0 DUP4 ADD MSTORE PUSH3 0x5F7 DUP2 PUSH3 0x589 JUMP JUMPDEST SWAP1 POP SWAP2 SWAP1 POP JUMP JUMPDEST PUSH1 0x0 PUSH1 0x20 DUP3 ADD SWAP1 POP PUSH3 0x615 PUSH1 0x0 DUP4 ADD DUP5 PUSH3 0x5CB JUMP JUMPDEST SWAP3 SWAP2 POP POP JUMP JUMPDEST PUSH1 0x0 PUSH1 0x40 MLOAD SWAP1 POP DUP2 DUP2 ADD DUP2 DUP2 LT PUSH8 0xFFFFFFFFFFFFFFFF DUP3 GT OR ISZERO PUSH3 0x63F JUMPI PUSH1 0x0 DUP1 REVERT JUMPDEST DUP1 PUSH1 0x40 MSTORE POP SWAP2 SWAP1 POP JUMP JUMPDEST PUSH1 0x0 PUSH8 0xFFFFFFFFFFFFFFFF DUP3 GT ISZERO PUSH3 0x661 JUMPI PUSH1 0x0 DUP1 REVERT JUMPDEST PUSH1 0x1F NOT PUSH1 0x1F DUP4 ADD AND SWAP1 POP PUSH1 0x20 DUP2 ADD SWAP1 POP SWAP2 SWAP1 POP JUMP JUMPDEST PUSH1 0x0 DUP3 DUP3 MSTORE PUSH1 0x20 DUP3 ADD SWAP1 POP SWAP3 SWAP2 POP POP JUMP JUMPDEST PUSH1 0x0 PUSH3 0x694 DUP3 PUSH3 0x69B JUMP JUMPDEST SWAP1 POP SWAP2 SWAP1 POP JUMP JUMPDEST PUSH1 0x0 PUSH20 0xFFFFFFFFFFFFFFFFFFFFFFFFFFFFFFFFFFFFFFFF DUP3 AND SWAP1 POP SWAP2 SWAP1 POP JUMP JUMPDEST PUSH1 0x0 DUP2 SWAP1 POP SWAP2 SWAP1 POP JUMP JUMPDEST PUSH1 0x0 JUMPDEST DUP4 DUP2 LT ISZERO PUSH3 0x6E5 JUMPI DUP1 DUP3 ADD MLOAD DUP2 DUP5 ADD MSTORE PUSH1 0x20 DUP2 ADD SWAP1 POP PUSH3 0x6C8 JUMP JUMPDEST DUP4 DUP2 GT ISZERO PUSH3 0x6F5 JUMPI PUSH1 0x0 DUP5 DUP5 ADD MSTORE JUMPDEST POP POP POP POP JUMP JUMPDEST PUSH3 0x706 DUP2 PUSH3 0x687 JUMP JUMPDEST DUP2 EQ PUSH3 0x712 JUMPI PUSH1 0x0 DUP1 REVERT JUMPDEST POP JUMP JUMPDEST PUSH3 0x720 DUP2 PUSH3 0x6BB JUMP JUMPDEST DUP2 EQ PUSH3 0x72C JUMPI PUSH1 0x0 DUP1 REVERT JUMPDEST POP JUMP JUMPDEST PUSH2 0x1A71 DUP1 PUSH3 0x73F PUSH1 0x0 CODECOPY PUSH1 0x0 RETURN INVALID PUSH1 0x80 PUSH1 0x40 MSTORE PUSH1 0x4 CALLDATASIZE LT PUSH2 0x16A JUMPI PUSH1 0x0 CALLDATALOAD PUSH1 0xE0 SHR DUP1 PUSH4 0x715018A6 GT PUSH2 0xD1 JUMPI DUP1 PUSH4 0xADC38B06 GT PUSH2 0x8A JUMPI DUP1 PUSH4 0xE5ACC187 GT PUSH2 0x64 JUMPI DUP1 PUSH4 0xE5ACC187 EQ PUSH2 0x4FE JUMPI DUP1 PUSH4 0xEAF3A62E EQ PUSH2 0x529 JUMPI DUP1 PUSH4 0xF1A9AF89 EQ PUSH2 0x554 JUMPI DUP1 PUSH4 0xF2FDE38B EQ PUSH2 0x57F JUMPI PUSH2 0x1AA JUMP JUMPDEST DUP1 PUSH4 0xADC38B06 EQ PUSH2 0x47F JUMPI DUP1 PUSH4 0xB2CA1805 EQ PUSH2 0x4AA JUMPI DUP1 PUSH4 0xC6CB6770 EQ PUSH2 0x4D5 JUMPI PUSH2 0x1AA JUMP JUMPDEST DUP1 PUSH4 0x715018A6 EQ PUSH2 0x3A5 JUMPI DUP1 PUSH4 0x80CC0269 EQ PUSH2 0x3BC JUMPI DUP1 PUSH4 0x8A0DAC21 EQ PUSH2 0x3E7 JUMPI DUP1 PUSH4 0x8DA5CB5B EQ PUSH2 0x412 JUMPI DUP1 PUSH4 0x94A83EEB EQ PUSH2 0x43D JUMPI DUP1 PUSH4 0xA2DF9B1F EQ PUSH2 0x454 JUMPI PUSH2 0x1AA JUMP JUMPDEST DUP1 PUSH4 0x2A3D7C81 GT PUSH2 0x123 JUMPI DUP1 PUSH4 0x2A3D7C81 EQ PUSH2 0x2A7 JUMPI DUP1 PUSH4 0x3702E6CB EQ PUSH2 0x2D2 JUMPI DUP1 PUSH4 0x44DC7FBC EQ PUSH2 0x2FD JUMPI DUP1 PUSH4 0x5DC334BF EQ PUSH2 0x328 JUMPI DUP1 PUSH4 0x6F9FB98A EQ PUSH2 0x351 JUMPI DUP1 PUSH4 0x708196AE EQ PUSH2 0x37C JUMPI PUSH2 0x1AA JUMP JUMPDEST DUP1 PUSH4 0x74CA966 EQ PUSH2 0x1AF JUMPI DUP1 PUSH4 0x9E94D98 EQ PUSH2 0x1DA JUMPI DUP1 PUSH4 0xE031A94 EQ PUSH2 0x20A JUMPI DUP1 PUSH4 0x17634514 EQ PUSH2 0x235 JUMPI DUP1 PUSH4 0x1CBD8380 EQ PUSH2 0x260 JUMPI DUP1 PUSH4 0x25E16063 EQ PUSH2 0x28B JUMPI PUSH2 0x1AA JUMP JUMPDEST CALLDATASIZE PUSH2 0x1AA JUMPI PUSH32 0x85177F287940F2F05425A4029951AF0E047A7F9C4EAA9A6E6917BCD869F86695 CALLER CALLVALUE PUSH1 0x40 MLOAD PUSH2 0x1A0 SWAP3 SWAP2 SWAP1 PUSH2 0x16B2 JUMP JUMPDEST PUSH1 0x40 MLOAD DUP1 SWAP2 SUB SWAP1 LOG1 STOP JUMPDEST PUSH1 0x0 DUP1 REVERT JUMPDEST CALLVALUE DUP1 ISZERO PUSH2 0x1BB JUMPI PUSH1 0x0 DUP1 REVERT JUMPDEST POP PUSH2 0x1C4 PUSH2 0x5A8 JUMP JUMPDEST PUSH1 0x40 MLOAD PUSH2 0x1D1 SWAP2 SWAP1 PUSH2 0x16F6 JUMP JUMPDEST PUSH1 0x40 MLOAD DUP1 SWAP2 SUB SWAP1 RETURN JUMPDEST CALLVALUE DUP1 ISZERO PUSH2 0x1E6 JUMPI PUSH1 0x0 DUP1 REVERT JUMPDEST POP PUSH2 0x1EF PUSH2 0x5BB JUMP JUMPDEST PUSH1 0x40 MLOAD PUSH2 0x201 SWAP7 SWAP6 SWAP5 SWAP4 SWAP3 SWAP2 SWAP1 PUSH2 0x180E JUMP JUMPDEST PUSH1 0x40 MLOAD DUP1 SWAP2 SUB SWAP1 RETURN JUMPDEST CALLVALUE DUP1 ISZERO PUSH2 0x216 JUMPI PUSH1 0x0 DUP1 REVERT JUMPDEST POP PUSH2 0x21F PUSH2 0x5E5 JUMP JUMPDEST PUSH1 0x40 MLOAD PUSH2 0x22C SWAP2 SWAP1 PUSH2 0x17F3 JUMP JUMPDEST PUSH1 0x40 MLOAD DUP1 SWAP2 SUB SWAP1 RETURN JUMPDEST CALLVALUE DUP1 ISZERO PUSH2 0x241 JUMPI PUSH1 0x0 DUP1 REVERT JUMPDEST POP PUSH2 0x24A PUSH2 0x5EB JUMP JUMPDEST PUSH1 0x40 MLOAD PUSH2 0x257 SWAP2 SWAP1 PUSH2 0x17F3 JUMP JUMPDEST PUSH1 0x40 MLOAD DUP1 SWAP2 SUB SWAP1 RETURN JUMPDEST CALLVALUE DUP1 ISZERO PUSH2 0x26C JUMPI PUSH1 0x0 DUP1 REVERT JUMPDEST POP PUSH2 0x275 PUSH2 0x5F1 JUMP JUMPDEST PUSH1 0x40 MLOAD PUSH2 0x282 SWAP2 SWAP1 PUSH2 0x17F3 JUMP JUMPDEST PUSH1 0x40 MLOAD DUP1 SWAP2 SUB SWAP1 RETURN JUMPDEST PUSH2 0x2A5 PUSH1 0x4 DUP1 CALLDATASIZE SUB DUP2 ADD SWAP1 PUSH2 0x2A0 SWAP2 SWAP1 PUSH2 0x12AC JUMP JUMPDEST PUSH2 0x5F7 JUMP JUMPDEST STOP JUMPDEST CALLVALUE DUP1 ISZERO PUSH2 0x2B3 JUMPI PUSH1 0x0 DUP1 REVERT JUMPDEST POP PUSH2 0x2BC PUSH2 0x73E JUMP JUMPDEST PUSH1 0x40 MLOAD PUSH2 0x2C9 SWAP2 SWAP1 PUSH2 0x17F3 JUMP JUMPDEST PUSH1 0x40 MLOAD DUP1 SWAP2 SUB SWAP1 RETURN JUMPDEST CALLVALUE DUP1 ISZERO PUSH2 0x2DE JUMPI PUSH1 0x0 DUP1 REVERT JUMPDEST POP PUSH2 0x2E7 PUSH2 0x744 JUMP JUMPDEST PUSH1 0x40 MLOAD PUSH2 0x2F4 SWAP2 SWAP1 PUSH2 0x1697 JUMP JUMPDEST PUSH1 0x40 MLOAD DUP1 SWAP2 SUB SWAP1 RETURN JUMPDEST CALLVALUE DUP1 ISZERO PUSH2 0x309 JUMPI PUSH1 0x0 DUP1 REVERT JUMPDEST POP PUSH2 0x312 PUSH2 0x76A JUMP JUMPDEST PUSH1 0x40 MLOAD PUSH2 0x31F SWAP2 SWAP1 PUSH2 0x16DB JUMP JUMPDEST PUSH1 0x40 MLOAD DUP1 SWAP2 SUB SWAP1 RETURN JUMPDEST CALLVALUE DUP1 ISZERO PUSH2 0x334 JUMPI PUSH1 0x0 DUP1 REVERT JUMPDEST POP PUSH2 0x34F PUSH1 0x4 DUP1 CALLDATASIZE SUB DUP2 ADD SWAP1 PUSH2 0x34A SWAP2 SWAP1 PUSH2 0x1283 JUMP JUMPDEST PUSH2 0x790 JUMP JUMPDEST STOP JUMPDEST CALLVALUE DUP1 ISZERO PUSH2 0x35D JUMPI PUSH1 0x0 DUP1 REVERT JUMPDEST POP PUSH2 0x366 PUSH2 0x92E JUMP JUMPDEST PUSH1 0x40 MLOAD PUSH2 0x373 SWAP2 SWAP1 PUSH2 0x17F3 JUMP JUMPDEST PUSH1 0x40 MLOAD DUP1 SWAP2 SUB SWAP1 RETURN JUMPDEST CALLVALUE DUP1 ISZERO PUSH2 0x388 JUMPI PUSH1 0x0 DUP1 REVERT JUMPDEST POP PUSH2 0x3A3 PUSH1 0x4 DUP1 CALLDATASIZE SUB DUP2 ADD SWAP1 PUSH2 0x39E SWAP2 SWAP1 PUSH2 0x12FE JUMP JUMPDEST PUSH2 0x994 JUMP JUMPDEST STOP JUMPDEST CALLVALUE DUP1 ISZERO PUSH2 0x3B1 JUMPI PUSH1 0x0 DUP1 REVERT JUMPDEST POP PUSH2 0x3BA PUSH2 0xB03 JUMP JUMPDEST STOP JUMPDEST CALLVALUE DUP1 ISZERO PUSH2 0x3C8 JUMPI PUSH1 0x0 DUP1 REVERT JUMPDEST POP PUSH2 0x3D1 PUSH2 0xC56 JUMP JUMPDEST PUSH1 0x40 MLOAD PUSH2 0x3DE SWAP2 SWAP1 PUSH2 0x1711 JUMP JUMPDEST PUSH1 0x40 MLOAD DUP1 SWAP2 SUB SWAP1 RETURN JUMPDEST CALLVALUE DUP1 ISZERO PUSH2 0x3F3 JUMPI PUSH1 0x0 DUP1 REVERT JUMPDEST POP PUSH2 0x3FC PUSH2 0xCF4 JUMP JUMPDEST PUSH1 0x40 MLOAD PUSH2 0x409 SWAP2 SWAP1 PUSH2 0x17F3 JUMP JUMPDEST PUSH1 0x40 MLOAD DUP1 SWAP2 SUB SWAP1 RETURN JUMPDEST CALLVALUE DUP1 ISZERO PUSH2 0x41E JUMPI PUSH1 0x0 DUP1 REVERT JUMPDEST POP PUSH2 0x427 PUSH2 0xCFA JUMP JUMPDEST PUSH1 0x40 MLOAD PUSH2 0x434 SWAP2 SWAP1 PUSH2 0x1697 JUMP JUMPDEST PUSH1 0x40 MLOAD DUP1 SWAP2 SUB SWAP1 RETURN JUMPDEST CALLVALUE DUP1 ISZERO PUSH2 0x449 JUMPI PUSH1 0x0 DUP1 REVERT JUMPDEST POP PUSH2 0x452 PUSH2 0xD23 JUMP JUMPDEST STOP JUMPDEST CALLVALUE DUP1 ISZERO PUSH2 0x460 JUMPI PUSH1 0x0 DUP1 REVERT JUMPDEST POP PUSH2 0x469 PUSH2 0xE4D JUMP JUMPDEST PUSH1 0x40 MLOAD PUSH2 0x476 SWAP2 SWAP1 PUSH2 0x17F3 JUMP JUMPDEST PUSH1 0x40 MLOAD DUP1 SWAP2 SUB SWAP1 RETURN JUMPDEST CALLVALUE DUP1 ISZERO PUSH2 0x48B JUMPI PUSH1 0x0 DUP1 REVERT JUMPDEST POP PUSH2 0x494 PUSH2 0xE53 JUMP JUMPDEST PUSH1 0x40 MLOAD PUSH2 0x4A1 SWAP2 SWAP1 PUSH2 0x1711 JUMP JUMPDEST PUSH1 0x40 MLOAD DUP1 SWAP2 SUB SWAP1 RETURN JUMPDEST CALLVALUE DUP1 ISZERO PUSH2 0x4B6 JUMPI PUSH1 0x0 DUP1 REVERT JUMPDEST POP PUSH2 0x4BF PUSH2 0xEF1 JUMP JUMPDEST PUSH1 0x40 MLOAD PUSH2 0x4CC SWAP2 SWAP1 PUSH2 0x17F3 JUMP JUMPDEST PUSH1 0x40 MLOAD DUP1 SWAP2 SUB SWAP1 RETURN JUMPDEST CALLVALUE DUP1 ISZERO PUSH2 0x4E1 JUMPI PUSH1 0x0 DUP1 REVERT JUMPDEST POP PUSH2 0x4FC PUSH1 0x4 DUP1 CALLDATASIZE SUB DUP2 ADD SWAP1 PUSH2 0x4F7 SWAP2 SWAP1 PUSH2 0x12D5 JUMP JUMPDEST PUSH2 0xEF7 JUMP JUMPDEST STOP JUMPDEST CALLVALUE DUP1 ISZERO PUSH2 0x50A JUMPI PUSH1 0x0 DUP1 REVERT JUMPDEST POP PUSH2 0x513 PUSH2 0xFCC JUMP JUMPDEST PUSH1 0x40 MLOAD PUSH2 0x520 SWAP2 SWAP1 PUSH2 0x17F3 JUMP JUMPDEST PUSH1 0x40 MLOAD DUP1 SWAP2 SUB SWAP1 RETURN JUMPDEST CALLVALUE DUP1 ISZERO PUSH2 0x535 JUMPI PUSH1 0x0 DUP1 REVERT JUMPDEST POP PUSH2 0x53E PUSH2 0xFD2 JUMP JUMPDEST PUSH1 0x40 MLOAD PUSH2 0x54B SWAP2 SWAP1 PUSH2 0x17F3 JUMP JUMPDEST PUSH1 0x40 MLOAD DUP1 SWAP2 SUB SWAP1 RETURN JUMPDEST CALLVALUE DUP1 ISZERO PUSH2 0x560 JUMPI PUSH1 0x0 DUP1 REVERT JUMPDEST POP PUSH2 0x569 PUSH2 0xFD8 JUMP JUMPDEST PUSH1 0x40 MLOAD PUSH2 0x576 SWAP2 SWAP1 PUSH2 0x17F3 JUMP JUMPDEST PUSH1 0x40 MLOAD DUP1 SWAP2 SUB SWAP1 RETURN JUMPDEST CALLVALUE DUP1 ISZERO PUSH2 0x58B JUMPI PUSH1 0x0 DUP1 REVERT JUMPDEST POP PUSH2 0x5A6 PUSH1 0x4 DUP1 CALLDATASIZE SUB DUP2 ADD SWAP1 PUSH2 0x5A1 SWAP2 SWAP1 PUSH2 0x1283 JUMP JUMPDEST PUSH2 0xFDE JUMP JUMPDEST STOP JUMPDEST PUSH1 0x7 PUSH1 0x0 SWAP1 SLOAD SWAP1 PUSH2 0x100 EXP SWAP1 DIV PUSH1 0xFF AND DUP2 JUMP JUMPDEST PUSH1 0x1 DUP1 PUSH1 0x0 ADD SLOAD SWAP1 DUP1 PUSH1 0x1 ADD SLOAD SWAP1 DUP1 PUSH1 0x2 ADD SLOAD SWAP1 DUP1 PUSH1 0x3 ADD SLOAD SWAP1 DUP1 PUSH1 0x4 ADD SLOAD SWAP1 DUP1 PUSH1 0x5 ADD SLOAD SWAP1 POP DUP7 JUMP JUMPDEST PUSH1 0x9 SLOAD DUP2 JUMP JUMPDEST PUSH1 0xC SLOAD DUP2 JUMP JUMPDEST PUSH1 0x10 SLOAD DUP2 JUMP JUMPDEST PUSH2 0x5FF PUSH2 0x11A0 JUMP JUMPDEST PUSH20 0xFFFFFFFFFFFFFFFFFFFFFFFFFFFFFFFFFFFFFFFF AND PUSH1 0x0 DUP1 SLOAD SWAP1 PUSH2 0x100 EXP SWAP1 DIV PUSH20 0xFFFFFFFFFFFFFFFFFFFFFFFFFFFFFFFFFFFFFFFF AND PUSH20 0xFFFFFFFFFFFFFFFFFFFFFFFFFFFFFFFFFFFFFFFF AND EQ PUSH2 0x68C JUMPI PUSH1 0x40 MLOAD PUSH32 0x8C379A000000000000000000000000000000000000000000000000000000000 DUP2 MSTORE PUSH1 0x4 ADD PUSH2 0x683 SWAP1 PUSH2 0x17B3 JUMP JUMPDEST PUSH1 0x40 MLOAD DUP1 SWAP2 SUB SWAP1 REVERT JUMPDEST PUSH1 0x3 PUSH1 0x4 DUP2 GT ISZERO PUSH2 0x699 JUMPI INVALID JUMPDEST PUSH1 0x7 PUSH1 0x0 SWAP1 SLOAD SWAP1 PUSH2 0x100 EXP SWAP1 DIV PUSH1 0xFF AND PUSH1 0x4 DUP2 GT ISZERO PUSH2 0x6B4 JUMPI INVALID JUMPDEST EQ PUSH2 0x6F4 JUMPI PUSH1 0x40 MLOAD PUSH32 0x8C379A000000000000000000000000000000000000000000000000000000000 DUP2 MSTORE PUSH1 0x4 ADD PUSH2 0x6EB SWAP1 PUSH2 0x1773 JUMP JUMPDEST PUSH1 0x40 MLOAD DUP1 SWAP2 SUB SWAP1 REVERT JUMPDEST DUP1 PUSH20 0xFFFFFFFFFFFFFFFFFFFFFFFFFFFFFFFFFFFFFFFF AND PUSH2 0x8FC SELFBALANCE SWAP1 DUP2 ISZERO MUL SWAP1 PUSH1 0x40 MLOAD PUSH1 0x0 PUSH1 0x40 MLOAD DUP1 DUP4 SUB DUP2 DUP6 DUP9 DUP9 CALL SWAP4 POP POP POP POP ISZERO DUP1 ISZERO PUSH2 0x73A JUMPI RETURNDATASIZE PUSH1 0x0 DUP1 RETURNDATACOPY RETURNDATASIZE PUSH1 0x0 REVERT JUMPDEST POP POP JUMP JUMPDEST PUSH1 0xD SLOAD DUP2 JUMP JUMPDEST PUSH1 0x13 PUSH1 0x0 SWAP1 SLOAD SWAP1 PUSH2 0x100 EXP SWAP1 DIV PUSH20 0xFFFFFFFFFFFFFFFFFFFFFFFFFFFFFFFFFFFFFFFF AND DUP2 JUMP JUMPDEST PUSH1 0x16 PUSH1 0x0 SWAP1 SLOAD SWAP1 PUSH2 0x100 EXP SWAP1 DIV PUSH20 0xFFFFFFFFFFFFFFFFFFFFFFFFFFFFFFFFFFFFFFFF AND DUP2 JUMP JUMPDEST PUSH2 0x798 PUSH2 0x11A0 JUMP JUMPDEST PUSH20 0xFFFFFFFFFFFFFFFFFFFFFFFFFFFFFFFFFFFFFFFF AND PUSH1 0x0 DUP1 SLOAD SWAP1 PUSH2 0x100 EXP SWAP1 DIV PUSH20 0xFFFFFFFFFFFFFFFFFFFFFFFFFFFFFFFFFFFFFFFF AND PUSH20 0xFFFFFFFFFFFFFFFFFFFFFFFFFFFFFFFFFFFFFFFF AND EQ PUSH2 0x825 JUMPI PUSH1 0x40 MLOAD PUSH32 0x8C379A000000000000000000000000000000000000000000000000000000000 DUP2 MSTORE PUSH1 0x4 ADD PUSH2 0x81C SWAP1 PUSH2 0x17B3 JUMP JUMPDEST PUSH1 0x40 MLOAD DUP1 SWAP2 SUB SWAP1 REVERT JUMPDEST PUSH1 0x0 PUSH20 0xFFFFFFFFFFFFFFFFFFFFFFFFFFFFFFFFFFFFFFFF AND DUP2 PUSH20 0xFFFFFFFFFFFFFFFFFFFFFFFFFFFFFFFFFFFFFFFF AND EQ ISZERO PUSH2 0x895 JUMPI PUSH1 0x40 MLOAD PUSH32 0x8C379A000000000000000000000000000000000000000000000000000000000 DUP2 MSTORE PUSH1 0x4 ADD PUSH2 0x88C SWAP1 PUSH2 0x1753 JUMP JUMPDEST PUSH1 0x40 MLOAD DUP1 SWAP2 SUB SWAP1 REVERT JUMPDEST ADDRESS PUSH20 0xFFFFFFFFFFFFFFFFFFFFFFFFFFFFFFFFFFFFFFFF AND PUSH4 0xF2FDE38B DUP3 PUSH1 0x40 MLOAD DUP3 PUSH4 0xFFFFFFFF AND PUSH1 0xE0 SHL DUP2 MSTORE PUSH1 0x4 ADD PUSH2 0x8CE SWAP2 SWAP1 PUSH2 0x1697 JUMP JUMPDEST PUSH1 0x0 PUSH1 0x40 MLOAD DUP1 DUP4 SUB DUP2 PUSH1 0x0 DUP8 DUP1 EXTCODESIZE ISZERO DUP1 ISZERO PUSH2 0x8E8 JUMPI PUSH1 0x0 DUP1 REVERT JUMPDEST POP GAS CALL ISZERO DUP1 ISZERO PUSH2 0x8FC JUMPI RETURNDATASIZE PUSH1 0x0 DUP1 RETURNDATACOPY RETURNDATASIZE PUSH1 0x0 REVERT JUMPDEST POP POP POP POP NUMBER PUSH1 0xE DUP2 SWAP1 SSTORE POP PUSH1 0x1 PUSH1 0x7 PUSH1 0x0 PUSH2 0x100 EXP DUP2 SLOAD DUP2 PUSH1 0xFF MUL NOT AND SWAP1 DUP4 PUSH1 0x4 DUP2 GT ISZERO PUSH2 0x926 JUMPI INVALID JUMPDEST MUL OR SWAP1 SSTORE POP POP JUMP JUMPDEST PUSH1 0x0 PUSH1 0x40 MLOAD PUSH1 0x20 ADD PUSH2 0x93F SWAP1 PUSH2 0x1682 JUMP JUMPDEST PUSH1 0x40 MLOAD PUSH1 0x20 DUP2 DUP4 SUB SUB DUP2 MSTORE SWAP1 PUSH1 0x40 MSTORE DUP1 MLOAD SWAP1 PUSH1 0x20 ADD KECCAK256 PUSH1 0x14 PUSH1 0x40 MLOAD PUSH1 0x20 ADD PUSH2 0x967 SWAP2 SWAP1 PUSH2 0x166B JUMP JUMPDEST PUSH1 0x40 MLOAD PUSH1 0x20 DUP2 DUP4 SUB SUB DUP2 MSTORE SWAP1 PUSH1 0x40 MSTORE DUP1 MLOAD SWAP1 PUSH1 0x20 ADD KECCAK256 EQ ISZERO PUSH2 0x98D JUMPI PUSH1 0x10 SLOAD SWAP1 POP PUSH2 0x991 JUMP JUMPDEST SELFBALANCE SWAP1 POP JUMPDEST SWAP1 JUMP JUMPDEST PUSH1 0x12 PUSH1 0x0 SWAP1 SLOAD SWAP1 PUSH2 0x100 EXP SWAP1 DIV PUSH20 0xFFFFFFFFFFFFFFFFFFFFFFFFFFFFFFFFFFFFFFFF AND PUSH20 0xFFFFFFFFFFFFFFFFFFFFFFFFFFFFFFFFFFFFFFFF AND CALLER PUSH20 0xFFFFFFFFFFFFFFFFFFFFFFFFFFFFFFFFFFFFFFFF AND EQ PUSH2 0xA24 JUMPI PUSH1 0x40 MLOAD PUSH32 0x8C379A000000000000000000000000000000000000000000000000000000000 DUP2 MSTORE PUSH1 0x4 ADD PUSH2 0xA1B SWAP1 PUSH2 0x1753 JUMP JUMPDEST PUSH1 0x40 MLOAD DUP1 SWAP2 SUB SWAP1 REVERT JUMPDEST PUSH1 0x0 DUP2 LT ISZERO DUP1 ISZERO PUSH2 0xA36 JUMPI POP PUSH1 0x4 DUP2 GT ISZERO JUMPDEST PUSH2 0xA75 JUMPI PUSH1 0x40 MLOAD PUSH32 0x8C379A000000000000000000000000000000000000000000000000000000000 DUP2 MSTORE PUSH1 0x4 ADD PUSH2 0xA6C SWAP1 PUSH2 0x1793 JUMP JUMPDEST PUSH1 0x40 MLOAD DUP1 SWAP2 SUB SWAP1 REVERT JUMPDEST PUSH1 0x7 PUSH1 0x0 SWAP1 SLOAD SWAP1 PUSH2 0x100 EXP SWAP1 DIV PUSH1 0xFF AND PUSH1 0x4 DUP2 GT ISZERO PUSH2 0xA90 JUMPI INVALID JUMPDEST DUP2 EQ ISZERO PUSH2 0xAD2 JUMPI PUSH1 0x40 MLOAD PUSH32 0x8C379A000000000000000000000000000000000000000000000000000000000 DUP2 MSTORE PUSH1 0x4 ADD PUSH2 0xAC9 SWAP1 PUSH2 0x17D3 JUMP JUMPDEST PUSH1 0x40 MLOAD DUP1 SWAP2 SUB SWAP1 REVERT JUMPDEST DUP1 PUSH1 0x4 DUP2 GT ISZERO PUSH2 0xADE JUMPI INVALID JUMPDEST PUSH1 0x7 PUSH1 0x0 PUSH2 0x100 EXP DUP2 SLOAD DUP2 PUSH1 0xFF MUL NOT AND SWAP1 DUP4 PUSH1 0x4 DUP2 GT ISZERO PUSH2 0xAFB JUMPI INVALID JUMPDEST MUL OR SWAP1 SSTORE POP POP JUMP JUMPDEST PUSH2 0xB0B PUSH2 0x11A0 JUMP JUMPDEST PUSH20 0xFFFFFFFFFFFFFFFFFFFFFFFFFFFFFFFFFFFFFFFF AND PUSH1 0x0 DUP1 SLOAD SWAP1 PUSH2 0x100 EXP SWAP1 DIV PUSH20 0xFFFFFFFFFFFFFFFFFFFFFFFFFFFFFFFFFFFFFFFF AND PUSH20 0xFFFFFFFFFFFFFFFFFFFFFFFFFFFFFFFFFFFFFFFF AND EQ PUSH2 0xB98 JUMPI PUSH1 0x40 MLOAD PUSH32 0x8C379A000000000000000000000000000000000000000000000000000000000 DUP2 MSTORE PUSH1 0x4 ADD PUSH2 0xB8F SWAP1 PUSH2 0x17B3 JUMP JUMPDEST PUSH1 0x40 MLOAD DUP1 SWAP2 SUB SWAP1 REVERT JUMPDEST PUSH1 0x0 PUSH20 0xFFFFFFFFFFFFFFFFFFFFFFFFFFFFFFFFFFFFFFFF AND PUSH1 0x0 DUP1 SLOAD SWAP1 PUSH2 0x100 EXP SWAP1 DIV PUSH20 0xFFFFFFFFFFFFFFFFFFFFFFFFFFFFFFFFFFFFFFFF AND PUSH20 0xFFFFFFFFFFFFFFFFFFFFFFFFFFFFFFFFFFFFFFFF AND PUSH32 0x8BE0079C531659141344CD1FD0A4F28419497F9722A3DAAFE3B4186F6B6457E0 PUSH1 0x40 MLOAD PUSH1 0x40 MLOAD DUP1 SWAP2 SUB SWAP1 LOG3 PUSH1 0x0 DUP1 PUSH1 0x0 PUSH2 0x100 EXP DUP2 SLOAD DUP2 PUSH20 0xFFFFFFFFFFFFFFFFFFFFFFFFFFFFFFFFFFFFFFFF MUL NOT AND SWAP1 DUP4 PUSH20 0xFFFFFFFFFFFFFFFFFFFFFFFFFFFFFFFFFFFFFFFF AND MUL OR SWAP1 SSTORE POP JUMP JUMPDEST PUSH1 0x8 DUP1 SLOAD PUSH1 0x1 DUP2 PUSH1 0x1 AND ISZERO PUSH2 0x100 MUL SUB AND PUSH1 0x2 SWAP1 DIV DUP1 PUSH1 0x1F ADD PUSH1 0x20 DUP1 SWAP2 DIV MUL PUSH1 0x20 ADD PUSH1 0x40 MLOAD SWAP1 DUP2 ADD PUSH1 0x40 MSTORE DUP1 SWAP3 SWAP2 SWAP1 DUP2 DUP2 MSTORE PUSH1 0x20 ADD DUP3 DUP1 SLOAD PUSH1 0x1 DUP2 PUSH1 0x1 AND ISZERO PUSH2 0x100 MUL SUB AND PUSH1 0x2 SWAP1 DIV DUP1 ISZERO PUSH2 0xCEC JUMPI DUP1 PUSH1 0x1F LT PUSH2 0xCC1 JUMPI PUSH2 0x100 DUP1 DUP4 SLOAD DIV MUL DUP4 MSTORE SWAP2 PUSH1 0x20 ADD SWAP2 PUSH2 0xCEC JUMP JUMPDEST DUP3 ADD SWAP2 SWAP1 PUSH1 0x0 MSTORE PUSH1 0x20 PUSH1 0x0 KECCAK256 SWAP1 JUMPDEST DUP2 SLOAD DUP2 MSTORE SWAP1 PUSH1 0x1 ADD SWAP1 PUSH1 0x20 ADD DUP1 DUP4 GT PUSH2 0xCCF JUMPI DUP3 SWAP1 SUB PUSH1 0x1F AND DUP3 ADD SWAP2 JUMPDEST POP POP POP POP POP DUP2 JUMP JUMPDEST PUSH1 0xF SLOAD DUP2 JUMP JUMPDEST PUSH1 0x0 DUP1 PUSH1 0x0 SWAP1 SLOAD SWAP1 PUSH2 0x100 EXP SWAP1 DIV PUSH20 0xFFFFFFFFFFFFFFFFFFFFFFFFFFFFFFFFFFFFFFFF AND SWAP1 POP SWAP1 JUMP JUMPDEST PUSH2 0xD2B PUSH2 0x11A0 JUMP JUMPDEST PUSH20 0xFFFFFFFFFFFFFFFFFFFFFFFFFFFFFFFFFFFFFFFF AND PUSH1 0x0 DUP1 SLOAD SWAP1 PUSH2 0x100 EXP SWAP1 DIV PUSH20 0xFFFFFFFFFFFFFFFFFFFFFFFFFFFFFFFFFFFFFFFF AND PUSH20 0xFFFFFFFFFFFFFFFFFFFFFFFFFFFFFFFFFFFFFFFF AND EQ PUSH2 0xDB8 JUMPI PUSH1 0x40 MLOAD PUSH32 0x8C379A000000000000000000000000000000000000000000000000000000000 DUP2 MSTORE PUSH1 0x4 ADD PUSH2 0xDAF SWAP1 PUSH2 0x17B3 JUMP JUMPDEST PUSH1 0x40 MLOAD DUP1 SWAP2 SUB SWAP1 REVERT JUMPDEST PUSH1 0x1 PUSH1 0x4 DUP2 GT ISZERO PUSH2 0xDC5 JUMPI INVALID JUMPDEST PUSH1 0x7 PUSH1 0x0 SWAP1 SLOAD SWAP1 PUSH2 0x100 EXP SWAP1 DIV PUSH1 0xFF AND PUSH1 0x4 DUP2 GT ISZERO PUSH2 0xDE0 JUMPI INVALID JUMPDEST EQ PUSH2 0xE20 JUMPI PUSH1 0x40 MLOAD PUSH32 0x8C379A000000000000000000000000000000000000000000000000000000000 DUP2 MSTORE PUSH1 0x4 ADD PUSH2 0xE17 SWAP1 PUSH2 0x1773 JUMP JUMPDEST PUSH1 0x40 MLOAD DUP1 SWAP2 SUB SWAP1 REVERT JUMPDEST NUMBER PUSH1 0xF DUP2 SWAP1 SSTORE POP PUSH1 0x2 PUSH1 0x7 PUSH1 0x0 PUSH2 0x100 EXP DUP2 SLOAD DUP2 PUSH1 0xFF MUL NOT AND SWAP1 DUP4 PUSH1 0x4 DUP2 GT ISZERO PUSH2 0xE46 JUMPI INVALID JUMPDEST MUL OR SWAP1 SSTORE POP JUMP JUMPDEST PUSH1 0xB SLOAD DUP2 JUMP JUMPDEST PUSH1 0x14 DUP1 SLOAD PUSH1 0x1 DUP2 PUSH1 0x1 AND ISZERO PUSH2 0x100 MUL SUB AND PUSH1 0x2 SWAP1 DIV DUP1 PUSH1 0x1F ADD PUSH1 0x20 DUP1 SWAP2 DIV MUL PUSH1 0x20 ADD PUSH1 0x40 MLOAD SWAP1 DUP2 ADD PUSH1 0x40 MSTORE DUP1 SWAP3 SWAP2 SWAP1 DUP2 DUP2 MSTORE PUSH1 0x20 ADD DUP3 DUP1 SLOAD PUSH1 0x1 DUP2 PUSH1 0x1 AND ISZERO PUSH2 0x100 MUL SUB AND PUSH1 0x2 SWAP1 DIV DUP1 ISZERO PUSH2 0xEE9 JUMPI DUP1 PUSH1 0x1F LT PUSH2 0xEBE JUMPI PUSH2 0x100 DUP1 DUP4 SLOAD DIV MUL DUP4 MSTORE SWAP2 PUSH1 0x20 ADD SWAP2 PUSH2 0xEE9 JUMP JUMPDEST DUP3 ADD SWAP2 SWAP1 PUSH1 0x0 MSTORE PUSH1 0x20 PUSH1 0x0 KECCAK256 SWAP1 JUMPDEST DUP2 SLOAD DUP2 MSTORE SWAP1 PUSH1 0x1 ADD SWAP1 PUSH1 0x20 ADD DUP1 DUP4 GT PUSH2 0xECC JUMPI DUP3 SWAP1 SUB PUSH1 0x1F AND DUP3 ADD SWAP2 JUMPDEST POP POP POP POP POP DUP2 JUMP JUMPDEST PUSH1 0xE SLOAD DUP2 JUMP JUMPDEST PUSH1 0x12 PUSH1 0x0 SWAP1 SLOAD SWAP1 PUSH2 0x100 EXP SWAP1 DIV PUSH20 0xFFFFFFFFFFFFFFFFFFFFFFFFFFFFFFFFFFFFFFFF AND PUSH20 0xFFFFFFFFFFFFFFFFFFFFFFFFFFFFFFFFFFFFFFFF AND CALLER PUSH20 0xFFFFFFFFFFFFFFFFFFFFFFFFFFFFFFFFFFFFFFFF AND EQ PUSH2 0xF87 JUMPI PUSH1 0x40 MLOAD PUSH32 0x8C379A000000000000000000000000000000000000000000000000000000000 DUP2 MSTORE PUSH1 0x4 ADD PUSH2 0xF7E SWAP1 PUSH2 0x1753 JUMP JUMPDEST PUSH1 0x40 MLOAD DUP1 SWAP2 SUB SWAP1 REVERT JUMPDEST DUP1 PUSH1 0x1 PUSH1 0x0 DUP3 ADD MLOAD DUP2 PUSH1 0x0 ADD SSTORE PUSH1 0x20 DUP3 ADD MLOAD DUP2 PUSH1 0x1 ADD SSTORE PUSH1 0x40 DUP3 ADD MLOAD DUP2 PUSH1 0x2 ADD SSTORE PUSH1 0x60 DUP3 ADD MLOAD DUP2 PUSH1 0x3 ADD SSTORE PUSH1 0x80 DUP3 ADD MLOAD DUP2 PUSH1 0x4 ADD SSTORE PUSH1 0xA0 DUP3 ADD MLOAD DUP2 PUSH1 0x5 ADD SSTORE SWAP1 POP POP POP JUMP JUMPDEST PUSH1 0x15 SLOAD DUP2 JUMP JUMPDEST PUSH1 0x11 SLOAD DUP2 JUMP JUMPDEST PUSH1 0xA SLOAD DUP2 JUMP JUMPDEST PUSH2 0xFE6 PUSH2 0x11A0 JUMP JUMPDEST PUSH20 0xFFFFFFFFFFFFFFFFFFFFFFFFFFFFFFFFFFFFFFFF AND PUSH1 0x0 DUP1 SLOAD SWAP1 PUSH2 0x100 EXP SWAP1 DIV PUSH20 0xFFFFFFFFFFFFFFFFFFFFFFFFFFFFFFFFFFFFFFFF AND PUSH20 0xFFFFFFFFFFFFFFFFFFFFFFFFFFFFFFFFFFFFFFFF AND EQ PUSH2 0x1073 JUMPI PUSH1 0x40 MLOAD PUSH32 0x8C379A000000000000000000000000000000000000000000000000000000000 DUP2 MSTORE PUSH1 0x4 ADD PUSH2 0x106A SWAP1 PUSH2 0x17B3 JUMP JUMPDEST PUSH1 0x40 MLOAD DUP1 SWAP2 SUB SWAP1 REVERT JUMPDEST PUSH1 0x0 PUSH20 0xFFFFFFFFFFFFFFFFFFFFFFFFFFFFFFFFFFFFFFFF AND DUP2 PUSH20 0xFFFFFFFFFFFFFFFFFFFFFFFFFFFFFFFFFFFFFFFF AND EQ ISZERO PUSH2 0x10E3 JUMPI PUSH1 0x40 MLOAD PUSH32 0x8C379A000000000000000000000000000000000000000000000000000000000 DUP2 MSTORE PUSH1 0x4 ADD PUSH2 0x10DA SWAP1 PUSH2 0x1733 JUMP JUMPDEST PUSH1 0x40 MLOAD DUP1 SWAP2 SUB SWAP1 REVERT JUMPDEST DUP1 PUSH20 0xFFFFFFFFFFFFFFFFFFFFFFFFFFFFFFFFFFFFFFFF AND PUSH1 0x0 DUP1 SLOAD SWAP1 PUSH2 0x100 EXP SWAP1 DIV PUSH20 0xFFFFFFFFFFFFFFFFFFFFFFFFFFFFFFFFFFFFFFFF AND PUSH20 0xFFFFFFFFFFFFFFFFFFFFFFFFFFFFFFFFFFFFFFFF AND PUSH32 0x8BE0079C531659141344CD1FD0A4F28419497F9722A3DAAFE3B4186F6B6457E0 PUSH1 0x40 MLOAD PUSH1 0x40 MLOAD DUP1 SWAP2 SUB SWAP1 LOG3 DUP1 PUSH1 0x0 DUP1 PUSH2 0x100 EXP DUP2 SLOAD DUP2 PUSH20 0xFFFFFFFFFFFFFFFFFFFFFFFFFFFFFFFFFFFFFFFF MUL NOT AND SWAP1 DUP4 PUSH20 0xFFFFFFFFFFFFFFFFFFFFFFFFFFFFFFFFFFFFFFFF AND MUL OR SWAP1 SSTORE POP POP JUMP JUMPDEST PUSH1 0x0 CALLER SWAP1 POP SWAP1 JUMP JUMPDEST PUSH1 0x0 DUP2 CALLDATALOAD SWAP1 POP PUSH2 0x11B7 DUP2 PUSH2 0x19F6 JUMP JUMPDEST SWAP3 SWAP2 POP POP JUMP JUMPDEST PUSH1 0x0 DUP2 CALLDATALOAD SWAP1 POP PUSH2 0x11CC DUP2 PUSH2 0x1A0D JUMP JUMPDEST SWAP3 SWAP2 POP POP JUMP JUMPDEST PUSH1 0x0 PUSH1 0xC0 DUP3 DUP5 SUB SLT ISZERO PUSH2 0x11E4 JUMPI PUSH1 0x0 DUP1 REVERT JUMPDEST PUSH2 0x11EE PUSH1 0xC0 PUSH2 0x186F JUMP JUMPDEST SWAP1 POP PUSH1 0x0 PUSH2 0x11FE DUP5 DUP3 DUP6 ADD PUSH2 0x126E JUMP JUMPDEST PUSH1 0x0 DUP4 ADD MSTORE POP PUSH1 0x20 PUSH2 0x1212 DUP5 DUP3 DUP6 ADD PUSH2 0x126E JUMP JUMPDEST PUSH1 0x20 DUP4 ADD MSTORE POP PUSH1 0x40 PUSH2 0x1226 DUP5 DUP3 DUP6 ADD PUSH2 0x126E JUMP JUMPDEST PUSH1 0x40 DUP4 ADD MSTORE POP PUSH1 0x60 PUSH2 0x123A DUP5 DUP3 DUP6 ADD PUSH2 0x126E JUMP JUMPDEST PUSH1 0x60 DUP4 ADD MSTORE POP PUSH1 0x80 PUSH2 0x124E DUP5 DUP3 DUP6 ADD PUSH2 0x126E JUMP JUMPDEST PUSH1 0x80 DUP4 ADD MSTORE POP PUSH1 0xA0 PUSH2 0x1262 DUP5 DUP3 DUP6 ADD PUSH2 0x126E JUMP JUMPDEST PUSH1 0xA0 DUP4 ADD MSTORE POP SWAP3 SWAP2 POP POP JUMP JUMPDEST PUSH1 0x0 DUP2 CALLDATALOAD SWAP1 POP PUSH2 0x127D DUP2 PUSH2 0x1A24 JUMP JUMPDEST SWAP3 SWAP2 POP POP JUMP JUMPDEST PUSH1 0x0 PUSH1 0x20 DUP3 DUP5 SUB SLT ISZERO PUSH2 0x1295 JUMPI PUSH1 0x0 DUP1 REVERT JUMPDEST PUSH1 0x0 PUSH2 0x12A3 DUP5 DUP3 DUP6 ADD PUSH2 0x11A8 JUMP JUMPDEST SWAP2 POP POP SWAP3 SWAP2 POP POP JUMP JUMPDEST PUSH1 0x0 PUSH1 0x20 DUP3 DUP5 SUB SLT ISZERO PUSH2 0x12BE JUMPI PUSH1 0x0 DUP1 REVERT JUMPDEST PUSH1 0x0 PUSH2 0x12CC DUP5 DUP3 DUP6 ADD PUSH2 0x11BD JUMP JUMPDEST SWAP2 POP POP SWAP3 SWAP2 POP POP JUMP JUMPDEST PUSH1 0x0 PUSH1 0xC0 DUP3 DUP5 SUB SLT ISZERO PUSH2 0x12E7 JUMPI PUSH1 0x0 DUP1 REVERT JUMPDEST PUSH1 0x0 PUSH2 0x12F5 DUP5 DUP3 DUP6 ADD PUSH2 0x11D2 JUMP JUMPDEST SWAP2 POP POP SWAP3 SWAP2 POP POP JUMP JUMPDEST PUSH1 0x0 PUSH1 0x20 DUP3 DUP5 SUB SLT ISZERO PUSH2 0x1310 JUMPI PUSH1 0x0 DUP1 REVERT JUMPDEST PUSH1 0x0 PUSH2 0x131E DUP5 DUP3 DUP6 ADD PUSH2 0x126E JUMP JUMPDEST SWAP2 POP POP SWAP3 SWAP2 POP POP JUMP JUMPDEST PUSH2 0x1330 DUP2 PUSH2 0x1939 JUMP JUMPDEST DUP3 MSTORE POP POP JUMP JUMPDEST PUSH2 0x133F DUP2 PUSH2 0x18D8 JUMP JUMPDEST DUP3 MSTORE POP POP JUMP JUMPDEST PUSH2 0x134E DUP2 PUSH2 0x194B JUMP JUMPDEST DUP3 MSTORE POP POP JUMP JUMPDEST PUSH2 0x135D DUP2 PUSH2 0x196F JUMP JUMPDEST DUP3 MSTORE POP POP JUMP JUMPDEST PUSH1 0x0 PUSH2 0x136E DUP3 PUSH2 0x18B1 JUMP JUMPDEST PUSH2 0x1378 DUP2 DUP6 PUSH2 0x18BC JUMP JUMPDEST SWAP4 POP PUSH2 0x1388 DUP2 DUP6 PUSH1 0x20 DUP7 ADD PUSH2 0x19A5 JUMP JUMPDEST PUSH2 0x1391 DUP2 PUSH2 0x19D8 JUMP JUMPDEST DUP5 ADD SWAP2 POP POP SWAP3 SWAP2 POP POP JUMP JUMPDEST PUSH1 0x0 DUP2 SLOAD PUSH1 0x1 DUP2 AND PUSH1 0x0 DUP2 EQ PUSH2 0x13B9 JUMPI PUSH1 0x1 DUP2 EQ PUSH2 0x13DE JUMPI PUSH2 0x1422 JUMP JUMPDEST PUSH1 0x7F PUSH1 0x2 DUP4 DIV AND PUSH2 0x13CA DUP2 DUP8 PUSH2 0x18CD JUMP JUMPDEST SWAP6 POP PUSH1 0xFF NOT DUP4 AND DUP7 MSTORE DUP1 DUP7 ADD SWAP4 POP POP PUSH2 0x1422 JUMP JUMPDEST PUSH1 0x2 DUP3 DIV PUSH2 0x13EC DUP2 DUP8 PUSH2 0x18CD JUMP JUMPDEST SWAP6 POP PUSH2 0x13F7 DUP6 PUSH2 0x189C JUMP JUMPDEST PUSH1 0x0 JUMPDEST DUP3 DUP2 LT ISZERO PUSH2 0x1419 JUMPI DUP2 SLOAD DUP2 DUP10 ADD MSTORE PUSH1 0x1 DUP3 ADD SWAP2 POP PUSH1 0x20 DUP2 ADD SWAP1 POP PUSH2 0x13FA JUMP JUMPDEST DUP3 DUP9 ADD SWAP6 POP POP POP POP JUMPDEST POP POP SWAP3 SWAP2 POP POP JUMP JUMPDEST PUSH1 0x0 PUSH2 0x1437 PUSH1 0x26 DUP4 PUSH2 0x18BC JUMP JUMPDEST SWAP2 POP PUSH32 0x4F776E61626C653A206E6577206F776E657220697320746865207A65726F2061 PUSH1 0x0 DUP4 ADD MSTORE PUSH32 0x6464726573730000000000000000000000000000000000000000000000000000 PUSH1 0x20 DUP4 ADD MSTORE PUSH1 0x40 DUP3 ADD SWAP1 POP SWAP2 SWAP1 POP JUMP JUMPDEST PUSH1 0x0 PUSH2 0x149D PUSH1 0x4 DUP4 PUSH2 0x18CD JUMP JUMPDEST SWAP2 POP PUSH32 0x4555525300000000000000000000000000000000000000000000000000000000 PUSH1 0x0 DUP4 ADD MSTORE PUSH1 0x4 DUP3 ADD SWAP1 POP SWAP2 SWAP1 POP JUMP JUMPDEST PUSH1 0x0 PUSH2 0x14DD PUSH1 0x13 DUP4 PUSH2 0x18BC JUMP JUMPDEST SWAP2 POP PUSH32 0x41646472657373206E6F7420616C6C6F77656400000000000000000000000000 PUSH1 0x0 DUP4 ADD MSTORE PUSH1 0x20 DUP3 ADD SWAP1 POP SWAP2 SWAP1 POP JUMP JUMPDEST PUSH1 0x0 PUSH2 0x151D PUSH1 0x33 DUP4 PUSH2 0x18BC JUMP JUMPDEST SWAP2 POP PUSH32 0x4C6F616E20737461747573206E6F7420636F6D70617469626C65207769746820 PUSH1 0x0 DUP4 ADD MSTORE PUSH32 0x666F7265636C6F73696E6720616374696F6E7300000000000000000000000000 PUSH1 0x20 DUP4 ADD MSTORE PUSH1 0x40 DUP3 ADD SWAP1 POP SWAP2 SWAP1 POP JUMP JUMPDEST PUSH1 0x0 PUSH2 0x1583 PUSH1 0x13 DUP4 PUSH2 0x18BC JUMP JUMPDEST SWAP2 POP PUSH32 0x4E6577207374617465206E6F742076616C696400000000000000000000000000 PUSH1 0x0 DUP4 ADD MSTORE PUSH1 0x20 DUP3 ADD SWAP1 POP SWAP2 SWAP1 POP JUMP JUMPDEST PUSH1 0x0 PUSH2 0x15C3 PUSH1 0x20 DUP4 PUSH2 0x18BC JUMP JUMPDEST SWAP2 POP PUSH32 0x4F776E61626C653A2063616C6C6572206973206E6F7420746865206F776E6572 PUSH1 0x0 DUP4 ADD MSTORE PUSH1 0x20 DUP3 ADD SWAP1 POP SWAP2 SWAP1 POP JUMP JUMPDEST PUSH1 0x0 PUSH2 0x1603 PUSH1 0x27 DUP4 PUSH2 0x18BC JUMP JUMPDEST SWAP2 POP PUSH32 0x4E657720737461747573206973207468652073616D65206C696B652070726573 PUSH1 0x0 DUP4 ADD MSTORE PUSH32 0x656E74206F6E6500000000000000000000000000000000000000000000000000 PUSH1 0x20 DUP4 ADD MSTORE PUSH1 0x40 DUP3 ADD SWAP1 POP SWAP2 SWAP1 POP JUMP JUMPDEST PUSH2 0x1665 DUP2 PUSH2 0x192F JUMP JUMPDEST DUP3 MSTORE POP POP JUMP JUMPDEST PUSH1 0x0 PUSH2 0x1677 DUP3 DUP5 PUSH2 0x139C JUMP JUMPDEST SWAP2 POP DUP2 SWAP1 POP SWAP3 SWAP2 POP POP JUMP JUMPDEST PUSH1 0x0 PUSH2 0x168D DUP3 PUSH2 0x1490 JUMP JUMPDEST SWAP2 POP DUP2 SWAP1 POP SWAP2 SWAP1 POP JUMP JUMPDEST PUSH1 0x0 PUSH1 0x20 DUP3 ADD SWAP1 POP PUSH2 0x16AC PUSH1 0x0 DUP4 ADD DUP5 PUSH2 0x1336 JUMP JUMPDEST SWAP3 SWAP2 POP POP JUMP JUMPDEST PUSH1 0x0 PUSH1 0x40 DUP3 ADD SWAP1 POP PUSH2 0x16C7 PUSH1 0x0 DUP4 ADD DUP6 PUSH2 0x1327 JUMP JUMPDEST PUSH2 0x16D4 PUSH1 0x20 DUP4 ADD DUP5 PUSH2 0x165C JUMP JUMPDEST SWAP4 SWAP3 POP POP POP JUMP JUMPDEST PUSH1 0x0 PUSH1 0x20 DUP3 ADD SWAP1 POP PUSH2 0x16F0 PUSH1 0x0 DUP4 ADD DUP5 PUSH2 0x1345 JUMP JUMPDEST SWAP3 SWAP2 POP POP JUMP JUMPDEST PUSH1 0x0 PUSH1 0x20 DUP3 ADD SWAP1 POP PUSH2 0x170B PUSH1 0x0 DUP4 ADD DUP5 PUSH2 0x1354 JUMP JUMPDEST SWAP3 SWAP2 POP POP JUMP JUMPDEST PUSH1 0x0 PUSH1 0x20 DUP3 ADD SWAP1 POP DUP2 DUP2 SUB PUSH1 0x0 DUP4 ADD MSTORE PUSH2 0x172B DUP2 DUP5 PUSH2 0x1363 JUMP JUMPDEST SWAP1 POP SWAP3 SWAP2 POP POP JUMP JUMPDEST PUSH1 0x0 PUSH1 0x20 DUP3 ADD SWAP1 POP DUP2 DUP2 SUB PUSH1 0x0 DUP4 ADD MSTORE PUSH2 0x174C DUP2 PUSH2 0x142A JUMP JUMPDEST SWAP1 POP SWAP2 SWAP1 POP JUMP JUMPDEST PUSH1 0x0 PUSH1 0x20 DUP3 ADD SWAP1 POP DUP2 DUP2 SUB PUSH1 0x0 DUP4 ADD MSTORE PUSH2 0x176C DUP2 PUSH2 0x14D0 JUMP JUMPDEST SWAP1 POP SWAP2 SWAP1 POP JUMP JUMPDEST PUSH1 0x0 PUSH1 0x20 DUP3 ADD SWAP1 POP DUP2 DUP2 SUB PUSH1 0x0 DUP4 ADD MSTORE PUSH2 0x178C DUP2 PUSH2 0x1510 JUMP JUMPDEST SWAP1 POP SWAP2 SWAP1 POP JUMP JUMPDEST PUSH1 0x0 PUSH1 0x20 DUP3 ADD SWAP1 POP DUP2 DUP2 SUB PUSH1 0x0 DUP4 ADD MSTORE PUSH2 0x17AC DUP2 PUSH2 0x1576 JUMP JUMPDEST SWAP1 POP SWAP2 SWAP1 POP JUMP JUMPDEST PUSH1 0x0 PUSH1 0x20 DUP3 ADD SWAP1 POP DUP2 DUP2 SUB PUSH1 0x0 DUP4 ADD MSTORE PUSH2 0x17CC DUP2 PUSH2 0x15B6 JUMP JUMPDEST SWAP1 POP SWAP2 SWAP1 POP JUMP JUMPDEST PUSH1 0x0 PUSH1 0x20 DUP3 ADD SWAP1 POP DUP2 DUP2 SUB PUSH1 0x0 DUP4 ADD MSTORE PUSH2 0x17EC DUP2 PUSH2 0x15F6 JUMP JUMPDEST SWAP1 POP SWAP2 SWAP1 POP JUMP JUMPDEST PUSH1 0x0 PUSH1 0x20 DUP3 ADD SWAP1 POP PUSH2 0x1808 PUSH1 0x0 DUP4 ADD DUP5 PUSH2 0x165C JUMP JUMPDEST SWAP3 SWAP2 POP POP JUMP JUMPDEST PUSH1 0x0 PUSH1 0xC0 DUP3 ADD SWAP1 POP PUSH2 0x1823 PUSH1 0x0 DUP4 ADD DUP10 PUSH2 0x165C JUMP JUMPDEST PUSH2 0x1830 PUSH1 0x20 DUP4 ADD DUP9 PUSH2 0x165C JUMP JUMPDEST PUSH2 0x183D PUSH1 0x40 DUP4 ADD DUP8 PUSH2 0x165C JUMP JUMPDEST PUSH2 0x184A PUSH1 0x60 DUP4 ADD DUP7 PUSH2 0x165C JUMP JUMPDEST PUSH2 0x1857 PUSH1 0x80 DUP4 ADD DUP6 PUSH2 0x165C JUMP JUMPDEST PUSH2 0x1864 PUSH1 0xA0 DUP4 ADD DUP5 PUSH2 0x165C JUMP JUMPDEST SWAP8 SWAP7 POP POP POP POP POP POP POP JUMP JUMPDEST PUSH1 0x0 PUSH1 0x40 MLOAD SWAP1 POP DUP2 DUP2 ADD DUP2 DUP2 LT PUSH8 0xFFFFFFFFFFFFFFFF DUP3 GT OR ISZERO PUSH2 0x1892 JUMPI PUSH1 0x0 DUP1 REVERT JUMPDEST DUP1 PUSH1 0x40 MSTORE POP SWAP2 SWAP1 POP JUMP JUMPDEST PUSH1 0x0 DUP2 SWAP1 POP DUP2 PUSH1 0x0 MSTORE PUSH1 0x20 PUSH1 0x0 KECCAK256 SWAP1 POP SWAP2 SWAP1 POP JUMP JUMPDEST PUSH1 0x0 DUP2 MLOAD SWAP1 POP SWAP2 SWAP1 POP JUMP JUMPDEST PUSH1 0x0 DUP3 DUP3 MSTORE PUSH1 0x20 DUP3 ADD SWAP1 POP SWAP3 SWAP2 POP POP JUMP JUMPDEST PUSH1 0x0 DUP2 SWAP1 POP SWAP3 SWAP2 POP POP JUMP JUMPDEST PUSH1 0x0 PUSH2 0x18E3 DUP3 PUSH2 0x190F JUMP JUMPDEST SWAP1 POP SWAP2 SWAP1 POP JUMP JUMPDEST PUSH1 0x0 PUSH2 0x18F5 DUP3 PUSH2 0x190F JUMP JUMPDEST SWAP1 POP SWAP2 SWAP1 POP JUMP JUMPDEST PUSH1 0x0 DUP2 SWAP1 POP PUSH2 0x190A DUP3 PUSH2 0x19E9 JUMP JUMPDEST SWAP2 SWAP1 POP JUMP JUMPDEST PUSH1 0x0 PUSH20 0xFFFFFFFFFFFFFFFFFFFFFFFFFFFFFFFFFFFFFFFF DUP3 AND SWAP1 POP SWAP2 SWAP1 POP JUMP JUMPDEST PUSH1 0x0 DUP2 SWAP1 POP SWAP2 SWAP1 POP JUMP JUMPDEST PUSH1 0x0 PUSH2 0x1944 DUP3 PUSH2 0x1981 JUMP JUMPDEST SWAP1 POP SWAP2 SWAP1 POP JUMP JUMPDEST PUSH1 0x0 PUSH2 0x1956 DUP3 PUSH2 0x195D JUMP JUMPDEST SWAP1 POP SWAP2 SWAP1 POP JUMP JUMPDEST PUSH1 0x0 PUSH2 0x1968 DUP3 PUSH2 0x190F JUMP JUMPDEST SWAP1 POP SWAP2 SWAP1 POP JUMP JUMPDEST PUSH1 0x0 PUSH2 0x197A DUP3 PUSH2 0x18FC JUMP JUMPDEST SWAP1 POP SWAP2 SWAP1 POP JUMP JUMPDEST PUSH1 0x0 PUSH2 0x198C DUP3 PUSH2 0x1993 JUMP JUMPDEST SWAP1 POP SWAP2 SWAP1 POP JUMP JUMPDEST PUSH1 0x0 PUSH2 0x199E DUP3 PUSH2 0x190F JUMP JUMPDEST SWAP1 POP SWAP2 SWAP1 POP JUMP JUMPDEST PUSH1 0x0 JUMPDEST DUP4 DUP2 LT ISZERO PUSH2 0x19C3 JUMPI DUP1 DUP3 ADD MLOAD DUP2 DUP5 ADD MSTORE PUSH1 0x20 DUP2 ADD SWAP1 POP PUSH2 0x19A8 JUMP JUMPDEST DUP4 DUP2 GT ISZERO PUSH2 0x19D2 JUMPI PUSH1 0x0 DUP5 DUP5 ADD MSTORE JUMPDEST POP POP POP POP JUMP JUMPDEST PUSH1 0x0 PUSH1 0x1F NOT PUSH1 0x1F DUP4 ADD AND SWAP1 POP SWAP2 SWAP1 POP JUMP JUMPDEST PUSH1 0x5 DUP2 LT PUSH2 0x19F3 JUMPI INVALID JUMPDEST POP JUMP JUMPDEST PUSH2 0x19FF DUP2 PUSH2 0x18D8 JUMP JUMPDEST DUP2 EQ PUSH2 0x1A0A JUMPI PUSH1 0x0 DUP1 REVERT JUMPDEST POP JUMP JUMPDEST PUSH2 0x1A16 DUP2 PUSH2 0x18EA JUMP JUMPDEST DUP2 EQ PUSH2 0x1A21 JUMPI PUSH1 0x0 DUP1 REVERT JUMPDEST POP JUMP JUMPDEST PUSH2 0x1A2D DUP2 PUSH2 0x192F JUMP JUMPDEST DUP2 EQ PUSH2 0x1A38 JUMPI PUSH1 0x0 DUP1 REVERT JUMPDEST POP JUMP INVALID LOG2 PUSH5 0x6970667358 0x22 SLT KECCAK256 PUSH19 0xF1B8F59741C40B40235160F5FB3A56461B9027 DIFFICULTY MOD EXP MSTORE 0x48 TIMESTAMP PUSH22 0xC62B497A5264736F6C634300060C0033608060405234 DUP1 ISZERO PUSH3 0x11 JUMPI PUSH1 0x0 DUP1 REVERT JUMPDEST POP PUSH1 0x40 MLOAD PUSH3 0x260C CODESIZE SUB DUP1 PUSH3 0x260C DUP4 CODECOPY DUP2 DUP2 ADD PUSH1 0x40 MSTORE DUP2 ADD SWAP1 PUSH3 0x37 SWAP2 SWAP1 PUSH3 0x512 JUMP JUMPDEST DUP7 DUP5 DUP5 DUP5 DUP5 PUSH1 0x0 PUSH3 0x4E PUSH3 0x32F PUSH1 0x20 SHL PUSH1 0x20 SHR JUMP JUMPDEST SWAP1 POP DUP1 PUSH1 0x0 DUP1 PUSH2 0x100 EXP DUP2 SLOAD DUP2 PUSH20 0xFFFFFFFFFFFFFFFFFFFFFFFFFFFFFFFFFFFFFFFF MUL NOT AND SWAP1 DUP4 PUSH20 0xFFFFFFFFFFFFFFFFFFFFFFFFFFFFFFFFFFFFFFFF AND MUL OR SWAP1 SSTORE POP DUP1 PUSH20 0xFFFFFFFFFFFFFFFFFFFFFFFFFFFFFFFFFFFFFFFF AND PUSH1 0x0 PUSH20 0xFFFFFFFFFFFFFFFFFFFFFFFFFFFFFFFFFFFFFFFF AND PUSH32 0x8BE0079C531659141344CD1FD0A4F28419497F9722A3DAAFE3B4186F6B6457E0 PUSH1 0x40 MLOAD PUSH1 0x40 MLOAD DUP1 SWAP2 SUB SWAP1 LOG3 POP DUP2 PUSH1 0x1 PUSH1 0x0 DUP3 ADD MLOAD DUP2 PUSH1 0x0 ADD SSTORE PUSH1 0x20 DUP3 ADD MLOAD DUP2 PUSH1 0x1 ADD SSTORE PUSH1 0x40 DUP3 ADD MLOAD DUP2 PUSH1 0x2 ADD SSTORE PUSH1 0x60 DUP3 ADD MLOAD DUP2 PUSH1 0x3 ADD SSTORE PUSH1 0x80 DUP3 ADD MLOAD DUP2 PUSH1 0x4 ADD SSTORE PUSH1 0xA0 DUP3 ADD MLOAD DUP2 PUSH1 0x5 ADD SSTORE SWAP1 POP POP PUSH1 0x1 PUSH1 0x0 ADD SLOAD DUP5 LT ISZERO PUSH3 0x179 JUMPI PUSH1 0x40 MLOAD PUSH32 0x8C379A000000000000000000000000000000000000000000000000000000000 DUP2 MSTORE PUSH1 0x4 ADD PUSH3 0x170 SWAP1 PUSH3 0x646 JUMP JUMPDEST PUSH1 0x40 MLOAD DUP1 SWAP2 SUB SWAP1 REVERT JUMPDEST DUP5 PUSH1 0x8 SWAP1 DUP1 MLOAD SWAP1 PUSH1 0x20 ADD SWAP1 PUSH3 0x191 SWAP3 SWAP2 SWAP1 PUSH3 0x337 JUMP JUMPDEST POP DUP3 PUSH1 0xA DUP2 SWAP1 SSTORE POP DUP1 PUSH1 0x12 PUSH1 0x0 PUSH2 0x100 EXP DUP2 SLOAD DUP2 PUSH20 0xFFFFFFFFFFFFFFFFFFFFFFFFFFFFFFFFFFFFFFFF MUL NOT AND SWAP1 DUP4 PUSH20 0xFFFFFFFFFFFFFFFFFFFFFFFFFFFFFFFFFFFFFFFF AND MUL OR SWAP1 SSTORE POP DUP4 PUSH1 0x9 DUP2 SWAP1 SSTORE POP NUMBER PUSH1 0xC DUP2 SWAP1 SSTORE POP PUSH32 0x656AD37B815087D90F0C4CBDBF28A9EF3E92CFEB045DD15EAA452CC8B1D34E00 PUSH1 0xC SLOAD PUSH1 0x40 MLOAD PUSH3 0x21B SWAP2 SWAP1 PUSH3 0x668 JUMP JUMPDEST PUSH1 0x40 MLOAD DUP1 SWAP2 SUB SWAP1 LOG1 POP POP POP POP POP DUP6 PUSH1 0x15 SWAP1 DUP1 MLOAD SWAP1 PUSH1 0x20 ADD SWAP1 PUSH3 0x240 SWAP3 SWAP2 SWAP1 PUSH3 0x337 JUMP JUMPDEST POP PUSH1 0x13 PUSH1 0x0 SWAP1 SLOAD SWAP1 PUSH2 0x100 EXP SWAP1 DIV PUSH20 0xFFFFFFFFFFFFFFFFFFFFFFFFFFFFFFFFFFFFFFFF AND PUSH1 0x17 PUSH1 0x0 PUSH2 0x100 EXP DUP2 SLOAD DUP2 PUSH20 0xFFFFFFFFFFFFFFFFFFFFFFFFFFFFFFFFFFFFFFFF MUL NOT AND SWAP1 DUP4 PUSH20 0xFFFFFFFFFFFFFFFFFFFFFFFFFFFFFFFFFFFFFFFF AND MUL OR SWAP1 SSTORE POP DUP5 PUSH1 0x16 DUP2 SWAP1 SSTORE POP NUMBER PUSH1 0xC DUP2 SWAP1 SSTORE POP PUSH1 0x0 PUSH1 0x7 PUSH1 0x0 PUSH2 0x100 EXP DUP2 SLOAD DUP2 PUSH1 0xFF MUL NOT AND SWAP1 DUP4 PUSH1 0x4 DUP2 GT ISZERO PUSH3 0x2D2 JUMPI INVALID JUMPDEST MUL OR SWAP1 SSTORE POP PUSH1 0x0 PUSH1 0x10 DUP2 SWAP1 SSTORE POP PUSH1 0x0 PUSH1 0x11 DUP2 SWAP1 SSTORE POP PUSH32 0x656AD37B815087D90F0C4CBDBF28A9EF3E92CFEB045DD15EAA452CC8B1D34E00 PUSH1 0xC SLOAD PUSH1 0x40 MLOAD PUSH3 0x31A SWAP2 SWAP1 PUSH3 0x668 JUMP JUMPDEST PUSH1 0x40 MLOAD DUP1 SWAP2 SUB SWAP1 LOG1 POP POP POP POP POP POP POP PUSH3 0x799 JUMP JUMPDEST PUSH1 0x0 CALLER SWAP1 POP SWAP1 JUMP JUMPDEST DUP3 DUP1 SLOAD PUSH1 0x1 DUP2 PUSH1 0x1 AND ISZERO PUSH2 0x100 MUL SUB AND PUSH1 0x2 SWAP1 DIV SWAP1 PUSH1 0x0 MSTORE PUSH1 0x20 PUSH1 0x0 KECCAK256 SWAP1 PUSH1 0x1F ADD PUSH1 0x20 SWAP1 DIV DUP2 ADD SWAP3 DUP3 PUSH1 0x1F LT PUSH3 0x37A JUMPI DUP1 MLOAD PUSH1 0xFF NOT AND DUP4 DUP1 ADD OR DUP6 SSTORE PUSH3 0x3AB JUMP JUMPDEST DUP3 DUP1 ADD PUSH1 0x1 ADD DUP6 SSTORE DUP3 ISZERO PUSH3 0x3AB JUMPI SWAP2 DUP3 ADD JUMPDEST DUP3 DUP2 GT ISZERO PUSH3 0x3AA JUMPI DUP3 MLOAD DUP3 SSTORE SWAP2 PUSH1 0x20 ADD SWAP2 SWAP1 PUSH1 0x1 ADD SWAP1 PUSH3 0x38D JUMP JUMPDEST JUMPDEST POP SWAP1 POP PUSH3 0x3BA SWAP2 SWAP1 PUSH3 0x3BE JUMP JUMPDEST POP SWAP1 JUMP JUMPDEST JUMPDEST DUP1 DUP3 GT ISZERO PUSH3 0x3D9 JUMPI PUSH1 0x0 DUP2 PUSH1 0x0 SWAP1 SSTORE POP PUSH1 0x1 ADD PUSH3 0x3BF JUMP JUMPDEST POP SWAP1 JUMP JUMPDEST PUSH1 0x0 DUP2 MLOAD SWAP1 POP PUSH3 0x3EE DUP2 PUSH3 0x765 JUMP JUMPDEST SWAP3 SWAP2 POP POP JUMP JUMPDEST PUSH1 0x0 DUP3 PUSH1 0x1F DUP4 ADD SLT PUSH3 0x406 JUMPI PUSH1 0x0 DUP1 REVERT JUMPDEST DUP2 MLOAD PUSH3 0x41D PUSH3 0x417 DUP3 PUSH3 0x6B3 JUMP JUMPDEST PUSH3 0x685 JUMP JUMPDEST SWAP2 POP DUP1 DUP3 MSTORE PUSH1 0x20 DUP4 ADD PUSH1 0x20 DUP4 ADD DUP6 DUP4 DUP4 ADD GT ISZERO PUSH3 0x43A JUMPI PUSH1 0x0 DUP1 REVERT JUMPDEST PUSH3 0x447 DUP4 DUP3 DUP5 PUSH3 0x72F JUMP JUMPDEST POP POP POP SWAP3 SWAP2 POP POP JUMP JUMPDEST PUSH1 0x0 PUSH1 0xC0 DUP3 DUP5 SUB SLT ISZERO PUSH3 0x463 JUMPI PUSH1 0x0 DUP1 REVERT JUMPDEST PUSH3 0x46F PUSH1 0xC0 PUSH3 0x685 JUMP JUMPDEST SWAP1 POP PUSH1 0x0 PUSH3 0x481 DUP5 DUP3 DUP6 ADD PUSH3 0x4FB JUMP JUMPDEST PUSH1 0x0 DUP4 ADD MSTORE POP PUSH1 0x20 PUSH3 0x497 DUP5 DUP3 DUP6 ADD PUSH3 0x4FB JUMP JUMPDEST PUSH1 0x20 DUP4 ADD MSTORE POP PUSH1 0x40 PUSH3 0x4AD DUP5 DUP3 DUP6 ADD PUSH3 0x4FB JUMP JUMPDEST PUSH1 0x40 DUP4 ADD MSTORE POP PUSH1 0x60 PUSH3 0x4C3 DUP5 DUP3 DUP6 ADD PUSH3 0x4FB JUMP JUMPDEST PUSH1 0x60 DUP4 ADD MSTORE POP PUSH1 0x80 PUSH3 0x4D9 DUP5 DUP3 DUP6 ADD PUSH3 0x4FB JUMP JUMPDEST PUSH1 0x80 DUP4 ADD MSTORE POP PUSH1 0xA0 PUSH3 0x4EF DUP5 DUP3 DUP6 ADD PUSH3 0x4FB JUMP JUMPDEST PUSH1 0xA0 DUP4 ADD MSTORE POP SWAP3 SWAP2 POP POP JUMP JUMPDEST PUSH1 0x0 DUP2 MLOAD SWAP1 POP PUSH3 0x50C DUP2 PUSH3 0x77F JUMP JUMPDEST SWAP3 SWAP2 POP POP JUMP JUMPDEST PUSH1 0x0 DUP1 PUSH1 0x0 DUP1 PUSH1 0x0 DUP1 PUSH1 0x0 PUSH2 0x180 DUP9 DUP11 SUB SLT ISZERO PUSH3 0x52F JUMPI PUSH1 0x0 DUP1 REVERT JUMPDEST PUSH1 0x0 DUP9 ADD MLOAD PUSH8 0xFFFFFFFFFFFFFFFF DUP2 GT ISZERO PUSH3 0x54A JUMPI PUSH1 0x0 DUP1 REVERT JUMPDEST PUSH3 0x558 DUP11 DUP3 DUP12 ADD PUSH3 0x3F4 JUMP JUMPDEST SWAP8 POP POP PUSH1 0x20 DUP9 ADD MLOAD PUSH8 0xFFFFFFFFFFFFFFFF DUP2 GT ISZERO PUSH3 0x576 JUMPI PUSH1 0x0 DUP1 REVERT JUMPDEST PUSH3 0x584 DUP11 DUP3 DUP12 ADD PUSH3 0x3F4 JUMP JUMPDEST SWAP7 POP POP PUSH1 0x40 PUSH3 0x597 DUP11 DUP3 DUP12 ADD PUSH3 0x4FB JUMP JUMPDEST SWAP6 POP POP PUSH1 0x60 PUSH3 0x5AA DUP11 DUP3 DUP12 ADD PUSH3 0x4FB JUMP JUMPDEST SWAP5 POP POP PUSH1 0x80 PUSH3 0x5BD DUP11 DUP3 DUP12 ADD PUSH3 0x4FB JUMP JUMPDEST SWAP4 POP POP PUSH1 0xA0 PUSH3 0x5D0 DUP11 DUP3 DUP12 ADD PUSH3 0x450 JUMP JUMPDEST SWAP3 POP POP PUSH2 0x160 PUSH3 0x5E4 DUP11 DUP3 DUP12 ADD PUSH3 0x3DD JUMP JUMPDEST SWAP2 POP POP SWAP3 SWAP6 SWAP9 SWAP2 SWAP5 SWAP8 POP SWAP3 SWAP6 POP JUMP JUMPDEST PUSH1 0x0 PUSH3 0x602 PUSH1 0x11 DUP4 PUSH3 0x6E0 JUMP JUMPDEST SWAP2 POP PUSH32 0x496E74657265737420746F6F206C6F7721000000000000000000000000000000 PUSH1 0x0 DUP4 ADD MSTORE PUSH1 0x20 DUP3 ADD SWAP1 POP SWAP2 SWAP1 POP JUMP JUMPDEST PUSH3 0x640 DUP2 PUSH3 0x725 JUMP JUMPDEST DUP3 MSTORE POP POP JUMP JUMPDEST PUSH1 0x0 PUSH1 0x20 DUP3 ADD SWAP1 POP DUP2 DUP2 SUB PUSH1 0x0 DUP4 ADD MSTORE PUSH3 0x661 DUP2 PUSH3 0x5F3 JUMP JUMPDEST SWAP1 POP SWAP2 SWAP1 POP JUMP JUMPDEST PUSH1 0x0 PUSH1 0x20 DUP3 ADD SWAP1 POP PUSH3 0x67F PUSH1 0x0 DUP4 ADD DUP5 PUSH3 0x635 JUMP JUMPDEST SWAP3 SWAP2 POP POP JUMP JUMPDEST PUSH1 0x0 PUSH1 0x40 MLOAD SWAP1 POP DUP2 DUP2 ADD DUP2 DUP2 LT PUSH8 0xFFFFFFFFFFFFFFFF DUP3 GT OR ISZERO PUSH3 0x6A9 JUMPI PUSH1 0x0 DUP1 REVERT JUMPDEST DUP1 PUSH1 0x40 MSTORE POP SWAP2 SWAP1 POP JUMP JUMPDEST PUSH1 0x0 PUSH8 0xFFFFFFFFFFFFFFFF DUP3 GT ISZERO PUSH3 0x6CB JUMPI PUSH1 0x0 DUP1 REVERT JUMPDEST PUSH1 0x1F NOT PUSH1 0x1F DUP4 ADD AND SWAP1 POP PUSH1 0x20 DUP2 ADD SWAP1 POP SWAP2 SWAP1 POP JUMP JUMPDEST PUSH1 0x0 DUP3 DUP3 MSTORE PUSH1 0x20 DUP3 ADD SWAP1 POP SWAP3 SWAP2 POP POP JUMP JUMPDEST PUSH1 0x0 PUSH3 0x6FE DUP3 PUSH3 0x705 JUMP JUMPDEST SWAP1 POP SWAP2 SWAP1 POP JUMP JUMPDEST PUSH1 0x0 PUSH20 0xFFFFFFFFFFFFFFFFFFFFFFFFFFFFFFFFFFFFFFFF DUP3 AND SWAP1 POP SWAP2 SWAP1 POP JUMP JUMPDEST PUSH1 0x0 DUP2 SWAP1 POP SWAP2 SWAP1 POP JUMP JUMPDEST PUSH1 0x0 JUMPDEST DUP4 DUP2 LT ISZERO PUSH3 0x74F JUMPI DUP1 DUP3 ADD MLOAD DUP2 DUP5 ADD MSTORE PUSH1 0x20 DUP2 ADD SWAP1 POP PUSH3 0x732 JUMP JUMPDEST DUP4 DUP2 GT ISZERO PUSH3 0x75F JUMPI PUSH1 0x0 DUP5 DUP5 ADD MSTORE JUMPDEST POP POP POP POP JUMP JUMPDEST PUSH3 0x770 DUP2 PUSH3 0x6F1 JUMP JUMPDEST DUP2 EQ PUSH3 0x77C JUMPI PUSH1 0x0 DUP1 REVERT JUMPDEST POP JUMP JUMPDEST PUSH3 0x78A DUP2 PUSH3 0x725 JUMP JUMPDEST DUP2 EQ PUSH3 0x796 JUMPI PUSH1 0x0 DUP1 REVERT JUMPDEST POP JUMP JUMPDEST PUSH2 0x1E63 DUP1 PUSH3 0x7A9 PUSH1 0x0 CODECOPY PUSH1 0x0 RETURN INVALID PUSH1 0x80 PUSH1 0x40 MSTORE PUSH1 0x4 CALLDATASIZE LT PUSH2 0x1B7 JUMPI PUSH1 0x0 CALLDATALOAD PUSH1 0xE0 SHR DUP1 PUSH4 0x80CC0269 GT PUSH2 0xEC JUMPI DUP1 PUSH4 0xC6CB6770 GT PUSH2 0x8A JUMPI DUP1 PUSH4 0xEAF3A62E GT PUSH2 0x64 JUMPI DUP1 PUSH4 0xEAF3A62E EQ PUSH2 0x58A JUMPI DUP1 PUSH4 0xF1A9AF89 EQ PUSH2 0x5B5 JUMPI DUP1 PUSH4 0xF2FDE38B EQ PUSH2 0x5E0 JUMPI DUP1 PUSH4 0xFCBBD574 EQ PUSH2 0x609 JUMPI PUSH2 0x1B7 JUMP JUMPDEST DUP1 PUSH4 0xC6CB6770 EQ PUSH2 0x50D JUMPI DUP1 PUSH4 0xE5ACC187 EQ PUSH2 0x536 JUMPI DUP1 PUSH4 0xEAEA4FC9 EQ PUSH2 0x561 JUMPI PUSH2 0x1B7 JUMP JUMPDEST DUP1 PUSH4 0x94A83EEB GT PUSH2 0xC6 JUMPI DUP1 PUSH4 0x94A83EEB EQ PUSH2 0x484 JUMPI DUP1 PUSH4 0xA2DF9B1F EQ PUSH2 0x49B JUMPI DUP1 PUSH4 0xB2CA1805 EQ PUSH2 0x4C6 JUMPI DUP1 PUSH4 0xBAD4A01F EQ PUSH2 0x4F1 JUMPI PUSH2 0x1B7 JUMP JUMPDEST DUP1 PUSH4 0x80CC0269 EQ PUSH2 0x403 JUMPI DUP1 PUSH4 0x8A0DAC21 EQ PUSH2 0x42E JUMPI DUP1 PUSH4 0x8DA5CB5B EQ PUSH2 0x459 JUMPI PUSH2 0x1B7 JUMP JUMPDEST DUP1 PUSH4 0x3CB85225 GT PUSH2 0x159 JUMPI DUP1 PUSH4 0x68C8D54C GT PUSH2 0x133 JUMPI DUP1 PUSH4 0x68C8D54C EQ PUSH2 0x36D JUMPI DUP1 PUSH4 0x6F9FB98A EQ PUSH2 0x398 JUMPI DUP1 PUSH4 0x708196AE EQ PUSH2 0x3C3 JUMPI DUP1 PUSH4 0x715018A6 EQ PUSH2 0x3EC JUMPI PUSH2 0x1B7 JUMP JUMPDEST DUP1 PUSH4 0x3CB85225 EQ PUSH2 0x2EE JUMPI DUP1 PUSH4 0x44DC7FBC EQ PUSH2 0x319 JUMPI DUP1 PUSH4 0x5DC334BF EQ PUSH2 0x344 JUMPI PUSH2 0x1B7 JUMP JUMPDEST DUP1 PUSH4 0x17634514 GT PUSH2 0x195 JUMPI DUP1 PUSH4 0x17634514 EQ PUSH2 0x242 JUMPI DUP1 PUSH4 0x1CBD8380 EQ PUSH2 0x26D JUMPI DUP1 PUSH4 0x2A3D7C81 EQ PUSH2 0x298 JUMPI DUP1 PUSH4 0x3702E6CB EQ PUSH2 0x2C3 JUMPI PUSH2 0x1B7 JUMP JUMPDEST DUP1 PUSH4 0x74CA966 EQ PUSH2 0x1BC JUMPI DUP1 PUSH4 0x9E94D98 EQ PUSH2 0x1E7 JUMPI DUP1 PUSH4 0xE031A94 EQ PUSH2 0x217 JUMPI JUMPDEST PUSH1 0x0 DUP1 REVERT JUMPDEST CALLVALUE DUP1 ISZERO PUSH2 0x1C8 JUMPI PUSH1 0x0 DUP1 REVERT JUMPDEST POP PUSH2 0x1D1 PUSH2 0x634 JUMP JUMPDEST PUSH1 0x40 MLOAD PUSH2 0x1DE SWAP2 SWAP1 PUSH2 0x1AAE JUMP JUMPDEST PUSH1 0x40 MLOAD DUP1 SWAP2 SUB SWAP1 RETURN JUMPDEST CALLVALUE DUP1 ISZERO PUSH2 0x1F3 JUMPI PUSH1 0x0 DUP1 REVERT JUMPDEST POP PUSH2 0x1FC PUSH2 0x647 JUMP JUMPDEST PUSH1 0x40 MLOAD PUSH2 0x20E SWAP7 SWAP6 SWAP5 SWAP4 SWAP3 SWAP2 SWAP1 PUSH2 0x1C26 JUMP JUMPDEST PUSH1 0x40 MLOAD DUP1 SWAP2 SUB SWAP1 RETURN JUMPDEST CALLVALUE DUP1 ISZERO PUSH2 0x223 JUMPI PUSH1 0x0 DUP1 REVERT JUMPDEST POP PUSH2 0x22C PUSH2 0x671 JUMP JUMPDEST PUSH1 0x40 MLOAD PUSH2 0x239 SWAP2 SWAP1 PUSH2 0x1C0B JUMP JUMPDEST PUSH1 0x40 MLOAD DUP1 SWAP2 SUB SWAP1 RETURN JUMPDEST CALLVALUE DUP1 ISZERO PUSH2 0x24E JUMPI PUSH1 0x0 DUP1 REVERT JUMPDEST POP PUSH2 0x257 PUSH2 0x677 JUMP JUMPDEST PUSH1 0x40 MLOAD PUSH2 0x264 SWAP2 SWAP1 PUSH2 0x1C0B JUMP JUMPDEST PUSH1 0x40 MLOAD DUP1 SWAP2 SUB SWAP1 RETURN JUMPDEST CALLVALUE DUP1 ISZERO PUSH2 0x279 JUMPI PUSH1 0x0 DUP1 REVERT JUMPDEST POP PUSH2 0x282 PUSH2 0x67D JUMP JUMPDEST PUSH1 0x40 MLOAD PUSH2 0x28F SWAP2 SWAP1 PUSH2 0x1C0B JUMP JUMPDEST PUSH1 0x40 MLOAD DUP1 SWAP2 SUB SWAP1 RETURN JUMPDEST CALLVALUE DUP1 ISZERO PUSH2 0x2A4 JUMPI PUSH1 0x0 DUP1 REVERT JUMPDEST POP PUSH2 0x2AD PUSH2 0x683 JUMP JUMPDEST PUSH1 0x40 MLOAD PUSH2 0x2BA SWAP2 SWAP1 PUSH2 0x1C0B JUMP JUMPDEST PUSH1 0x40 MLOAD DUP1 SWAP2 SUB SWAP1 RETURN JUMPDEST CALLVALUE DUP1 ISZERO PUSH2 0x2CF JUMPI PUSH1 0x0 DUP1 REVERT JUMPDEST POP PUSH2 0x2D8 PUSH2 0x689 JUMP JUMPDEST PUSH1 0x40 MLOAD PUSH2 0x2E5 SWAP2 SWAP1 PUSH2 0x1A26 JUMP JUMPDEST PUSH1 0x40 MLOAD DUP1 SWAP2 SUB SWAP1 RETURN JUMPDEST CALLVALUE DUP1 ISZERO PUSH2 0x2FA JUMPI PUSH1 0x0 DUP1 REVERT JUMPDEST POP PUSH2 0x303 PUSH2 0x6AF JUMP JUMPDEST PUSH1 0x40 MLOAD PUSH2 0x310 SWAP2 SWAP1 PUSH2 0x1A93 JUMP JUMPDEST PUSH1 0x40 MLOAD DUP1 SWAP2 SUB SWAP1 RETURN JUMPDEST CALLVALUE DUP1 ISZERO PUSH2 0x325 JUMPI PUSH1 0x0 DUP1 REVERT JUMPDEST POP PUSH2 0x32E PUSH2 0x6D5 JUMP JUMPDEST PUSH1 0x40 MLOAD PUSH2 0x33B SWAP2 SWAP1 PUSH2 0x1A93 JUMP JUMPDEST PUSH1 0x40 MLOAD DUP1 SWAP2 SUB SWAP1 RETURN JUMPDEST CALLVALUE DUP1 ISZERO PUSH2 0x350 JUMPI PUSH1 0x0 DUP1 REVERT JUMPDEST POP PUSH2 0x36B PUSH1 0x4 DUP1 CALLDATASIZE SUB DUP2 ADD SWAP1 PUSH2 0x366 SWAP2 SWAP1 PUSH2 0x15FD JUMP JUMPDEST PUSH2 0x6FB JUMP JUMPDEST STOP JUMPDEST CALLVALUE DUP1 ISZERO PUSH2 0x379 JUMPI PUSH1 0x0 DUP1 REVERT JUMPDEST POP PUSH2 0x382 PUSH2 0x899 JUMP JUMPDEST PUSH1 0x40 MLOAD PUSH2 0x38F SWAP2 SWAP1 PUSH2 0x1AC9 JUMP JUMPDEST PUSH1 0x40 MLOAD DUP1 SWAP2 SUB SWAP1 RETURN JUMPDEST CALLVALUE DUP1 ISZERO PUSH2 0x3A4 JUMPI PUSH1 0x0 DUP1 REVERT JUMPDEST POP PUSH2 0x3AD PUSH2 0x937 JUMP JUMPDEST PUSH1 0x40 MLOAD PUSH2 0x3BA SWAP2 SWAP1 PUSH2 0x1C0B JUMP JUMPDEST PUSH1 0x40 MLOAD DUP1 SWAP2 SUB SWAP1 RETURN JUMPDEST CALLVALUE DUP1 ISZERO PUSH2 0x3CF JUMPI PUSH1 0x0 DUP1 REVERT JUMPDEST POP PUSH2 0x3EA PUSH1 0x4 DUP1 CALLDATASIZE SUB DUP2 ADD SWAP1 PUSH2 0x3E5 SWAP2 SWAP1 PUSH2 0x1678 JUMP JUMPDEST PUSH2 0x9C2 JUMP JUMPDEST STOP JUMPDEST CALLVALUE DUP1 ISZERO PUSH2 0x3F8 JUMPI PUSH1 0x0 DUP1 REVERT JUMPDEST POP PUSH2 0x401 PUSH2 0xB31 JUMP JUMPDEST STOP JUMPDEST CALLVALUE DUP1 ISZERO PUSH2 0x40F JUMPI PUSH1 0x0 DUP1 REVERT JUMPDEST POP PUSH2 0x418 PUSH2 0xC84 JUMP JUMPDEST PUSH1 0x40 MLOAD PUSH2 0x425 SWAP2 SWAP1 PUSH2 0x1AC9 JUMP JUMPDEST PUSH1 0x40 MLOAD DUP1 SWAP2 SUB SWAP1 RETURN JUMPDEST CALLVALUE DUP1 ISZERO PUSH2 0x43A JUMPI PUSH1 0x0 DUP1 REVERT JUMPDEST POP PUSH2 0x443 PUSH2 0xD22 JUMP JUMPDEST PUSH1 0x40 MLOAD PUSH2 0x450 SWAP2 SWAP1 PUSH2 0x1C0B JUMP JUMPDEST PUSH1 0x40 MLOAD DUP1 SWAP2 SUB SWAP1 RETURN JUMPDEST CALLVALUE DUP1 ISZERO PUSH2 0x465 JUMPI PUSH1 0x0 DUP1 REVERT JUMPDEST POP PUSH2 0x46E PUSH2 0xD28 JUMP JUMPDEST PUSH1 0x40 MLOAD PUSH2 0x47B SWAP2 SWAP1 PUSH2 0x1A26 JUMP JUMPDEST PUSH1 0x40 MLOAD DUP1 SWAP2 SUB SWAP1 RETURN JUMPDEST CALLVALUE DUP1 ISZERO PUSH2 0x490 JUMPI PUSH1 0x0 DUP1 REVERT JUMPDEST POP PUSH2 0x499 PUSH2 0xD51 JUMP JUMPDEST STOP JUMPDEST CALLVALUE DUP1 ISZERO PUSH2 0x4A7 JUMPI PUSH1 0x0 DUP1 REVERT JUMPDEST POP PUSH2 0x4B0 PUSH2 0xE7B JUMP JUMPDEST PUSH1 0x40 MLOAD PUSH2 0x4BD SWAP2 SWAP1 PUSH2 0x1C0B JUMP JUMPDEST PUSH1 0x40 MLOAD DUP1 SWAP2 SUB SWAP1 RETURN JUMPDEST CALLVALUE DUP1 ISZERO PUSH2 0x4D2 JUMPI PUSH1 0x0 DUP1 REVERT JUMPDEST POP PUSH2 0x4DB PUSH2 0xE81 JUMP JUMPDEST PUSH1 0x40 MLOAD PUSH2 0x4E8 SWAP2 SWAP1 PUSH2 0x1C0B JUMP JUMPDEST PUSH1 0x40 MLOAD DUP1 SWAP2 SUB SWAP1 RETURN JUMPDEST PUSH2 0x50B PUSH1 0x4 DUP1 CALLDATASIZE SUB DUP2 ADD SWAP1 PUSH2 0x506 SWAP2 SWAP1 PUSH2 0x1678 JUMP JUMPDEST PUSH2 0xE87 JUMP JUMPDEST STOP JUMPDEST CALLVALUE DUP1 ISZERO PUSH2 0x519 JUMPI PUSH1 0x0 DUP1 REVERT JUMPDEST POP PUSH2 0x534 PUSH1 0x4 DUP1 CALLDATASIZE SUB DUP2 ADD SWAP1 PUSH2 0x52F SWAP2 SWAP1 PUSH2 0x164F JUMP JUMPDEST PUSH2 0x113A JUMP JUMPDEST STOP JUMPDEST CALLVALUE DUP1 ISZERO PUSH2 0x542 JUMPI PUSH1 0x0 DUP1 REVERT JUMPDEST POP PUSH2 0x54B PUSH2 0x120F JUMP JUMPDEST PUSH1 0x40 MLOAD PUSH2 0x558 SWAP2 SWAP1 PUSH2 0x1C0B JUMP JUMPDEST PUSH1 0x40 MLOAD DUP1 SWAP2 SUB SWAP1 RETURN JUMPDEST CALLVALUE DUP1 ISZERO PUSH2 0x56D JUMPI PUSH1 0x0 DUP1 REVERT JUMPDEST POP PUSH2 0x588 PUSH1 0x4 DUP1 CALLDATASIZE SUB DUP2 ADD SWAP1 PUSH2 0x583 SWAP2 SWAP1 PUSH2 0x15FD JUMP JUMPDEST PUSH2 0x1215 JUMP JUMPDEST STOP JUMPDEST CALLVALUE DUP1 ISZERO PUSH2 0x596 JUMPI PUSH1 0x0 DUP1 REVERT JUMPDEST POP PUSH2 0x59F PUSH2 0x12BC JUMP JUMPDEST PUSH1 0x40 MLOAD PUSH2 0x5AC SWAP2 SWAP1 PUSH2 0x1C0B JUMP JUMPDEST PUSH1 0x40 MLOAD DUP1 SWAP2 SUB SWAP1 RETURN JUMPDEST CALLVALUE DUP1 ISZERO PUSH2 0x5C1 JUMPI PUSH1 0x0 DUP1 REVERT JUMPDEST POP PUSH2 0x5CA PUSH2 0x12C2 JUMP JUMPDEST PUSH1 0x40 MLOAD PUSH2 0x5D7 SWAP2 SWAP1 PUSH2 0x1C0B JUMP JUMPDEST PUSH1 0x40 MLOAD DUP1 SWAP2 SUB SWAP1 RETURN JUMPDEST CALLVALUE DUP1 ISZERO PUSH2 0x5EC JUMPI PUSH1 0x0 DUP1 REVERT JUMPDEST POP PUSH2 0x607 PUSH1 0x4 DUP1 CALLDATASIZE SUB DUP2 ADD SWAP1 PUSH2 0x602 SWAP2 SWAP1 PUSH2 0x15FD JUMP JUMPDEST PUSH2 0x12C8 JUMP JUMPDEST STOP JUMPDEST CALLVALUE DUP1 ISZERO PUSH2 0x615 JUMPI PUSH1 0x0 DUP1 REVERT JUMPDEST POP PUSH2 0x61E PUSH2 0x148A JUMP JUMPDEST PUSH1 0x40 MLOAD PUSH2 0x62B SWAP2 SWAP1 PUSH2 0x1A26 JUMP JUMPDEST PUSH1 0x40 MLOAD DUP1 SWAP2 SUB SWAP1 RETURN JUMPDEST PUSH1 0x7 PUSH1 0x0 SWAP1 SLOAD SWAP1 PUSH2 0x100 EXP SWAP1 DIV PUSH1 0xFF AND DUP2 JUMP JUMPDEST PUSH1 0x1 DUP1 PUSH1 0x0 ADD SLOAD SWAP1 DUP1 PUSH1 0x1 ADD SLOAD SWAP1 DUP1 PUSH1 0x2 ADD SLOAD SWAP1 DUP1 PUSH1 0x3 ADD SLOAD SWAP1 DUP1 PUSH1 0x4 ADD SLOAD SWAP1 DUP1 PUSH1 0x5 ADD SLOAD SWAP1 POP DUP7 JUMP JUMPDEST PUSH1 0x9 SLOAD DUP2 JUMP JUMPDEST PUSH1 0xC SLOAD DUP2 JUMP JUMPDEST PUSH1 0x10 SLOAD DUP2 JUMP JUMPDEST PUSH1 0xD SLOAD DUP2 JUMP JUMPDEST PUSH1 0x14 PUSH1 0x0 SWAP1 SLOAD SWAP1 PUSH2 0x100 EXP SWAP1 DIV PUSH20 0xFFFFFFFFFFFFFFFFFFFFFFFFFFFFFFFFFFFFFFFF AND DUP2 JUMP JUMPDEST PUSH1 0x17 PUSH1 0x0 SWAP1 SLOAD SWAP1 PUSH2 0x100 EXP SWAP1 DIV PUSH20 0xFFFFFFFFFFFFFFFFFFFFFFFFFFFFFFFFFFFFFFFF AND DUP2 JUMP JUMPDEST PUSH1 0x18 PUSH1 0x0 SWAP1 SLOAD SWAP1 PUSH2 0x100 EXP SWAP1 DIV PUSH20 0xFFFFFFFFFFFFFFFFFFFFFFFFFFFFFFFFFFFFFFFF AND DUP2 JUMP JUMPDEST PUSH2 0x703 PUSH2 0x14B0 JUMP JUMPDEST PUSH20 0xFFFFFFFFFFFFFFFFFFFFFFFFFFFFFFFFFFFFFFFF AND PUSH1 0x0 DUP1 SLOAD SWAP1 PUSH2 0x100 EXP SWAP1 DIV PUSH20 0xFFFFFFFFFFFFFFFFFFFFFFFFFFFFFFFFFFFFFFFF AND PUSH20 0xFFFFFFFFFFFFFFFFFFFFFFFFFFFFFFFFFFFFFFFF AND EQ PUSH2 0x790 JUMPI PUSH1 0x40 MLOAD PUSH32 0x8C379A000000000000000000000000000000000000000000000000000000000 DUP2 MSTORE PUSH1 0x4 ADD PUSH2 0x787 SWAP1 PUSH2 0x1BAB JUMP JUMPDEST PUSH1 0x40 MLOAD DUP1 SWAP2 SUB SWAP1 REVERT JUMPDEST PUSH1 0x0 PUSH20 0xFFFFFFFFFFFFFFFFFFFFFFFFFFFFFFFFFFFFFFFF AND DUP2 PUSH20 0xFFFFFFFFFFFFFFFFFFFFFFFFFFFFFFFFFFFFFFFF AND EQ ISZERO PUSH2 0x800 JUMPI PUSH1 0x40 MLOAD PUSH32 0x8C379A000000000000000000000000000000000000000000000000000000000 DUP2 MSTORE PUSH1 0x4 ADD PUSH2 0x7F7 SWAP1 PUSH2 0x1B4B JUMP JUMPDEST PUSH1 0x40 MLOAD DUP1 SWAP2 SUB SWAP1 REVERT JUMPDEST ADDRESS PUSH20 0xFFFFFFFFFFFFFFFFFFFFFFFFFFFFFFFFFFFFFFFF AND PUSH4 0xF2FDE38B DUP3 PUSH1 0x40 MLOAD DUP3 PUSH4 0xFFFFFFFF AND PUSH1 0xE0 SHL DUP2 MSTORE PUSH1 0x4 ADD PUSH2 0x839 SWAP2 SWAP1 PUSH2 0x1A26 JUMP JUMPDEST PUSH1 0x0 PUSH1 0x40 MLOAD DUP1 DUP4 SUB DUP2 PUSH1 0x0 DUP8 DUP1 EXTCODESIZE ISZERO DUP1 ISZERO PUSH2 0x853 JUMPI PUSH1 0x0 DUP1 REVERT JUMPDEST POP GAS CALL ISZERO DUP1 ISZERO PUSH2 0x867 JUMPI RETURNDATASIZE PUSH1 0x0 DUP1 RETURNDATACOPY RETURNDATASIZE PUSH1 0x0 REVERT JUMPDEST POP POP POP POP NUMBER PUSH1 0xE DUP2 SWAP1 SSTORE POP PUSH1 0x1 PUSH1 0x7 PUSH1 0x0 PUSH2 0x100 EXP DUP2 SLOAD DUP2 PUSH1 0xFF MUL NOT AND SWAP1 DUP4 PUSH1 0x4 DUP2 GT ISZERO PUSH2 0x891 JUMPI INVALID JUMPDEST MUL OR SWAP1 SSTORE POP POP JUMP JUMPDEST PUSH1 0x15 DUP1 SLOAD PUSH1 0x1 DUP2 PUSH1 0x1 AND ISZERO PUSH2 0x100 MUL SUB AND PUSH1 0x2 SWAP1 DIV DUP1 PUSH1 0x1F ADD PUSH1 0x20 DUP1 SWAP2 DIV MUL PUSH1 0x20 ADD PUSH1 0x40 MLOAD SWAP1 DUP2 ADD PUSH1 0x40 MSTORE DUP1 SWAP3 SWAP2 SWAP1 DUP2 DUP2 MSTORE PUSH1 0x20 ADD DUP3 DUP1 SLOAD PUSH1 0x1 DUP2 PUSH1 0x1 AND ISZERO PUSH2 0x100 MUL SUB AND PUSH1 0x2 SWAP1 DIV DUP1 ISZERO PUSH2 0x92F JUMPI DUP1 PUSH1 0x1F LT PUSH2 0x904 JUMPI PUSH2 0x100 DUP1 DUP4 SLOAD DIV MUL DUP4 MSTORE SWAP2 PUSH1 0x20 ADD SWAP2 PUSH2 0x92F JUMP JUMPDEST DUP3 ADD SWAP2 SWAP1 PUSH1 0x0 MSTORE PUSH1 0x20 PUSH1 0x0 KECCAK256 SWAP1 JUMPDEST DUP2 SLOAD DUP2 MSTORE SWAP1 PUSH1 0x1 ADD SWAP1 PUSH1 0x20 ADD DUP1 DUP4 GT PUSH2 0x912 JUMPI DUP3 SWAP1 SUB PUSH1 0x1F AND DUP3 ADD SWAP2 JUMPDEST POP POP POP POP POP DUP2 JUMP JUMPDEST PUSH1 0x0 PUSH1 0x13 PUSH1 0x0 SWAP1 SLOAD SWAP1 PUSH2 0x100 EXP SWAP1 DIV PUSH20 0xFFFFFFFFFFFFFFFFFFFFFFFFFFFFFFFFFFFFFFFF AND PUSH20 0xFFFFFFFFFFFFFFFFFFFFFFFFFFFFFFFFFFFFFFFF AND PUSH1 0x17 PUSH1 0x0 SWAP1 SLOAD SWAP1 PUSH2 0x100 EXP SWAP1 DIV PUSH20 0xFFFFFFFFFFFFFFFFFFFFFFFFFFFFFFFFFFFFFFFF AND PUSH20 0xFFFFFFFFFFFFFFFFFFFFFFFFFFFFFFFFFFFFFFFF AND EQ ISZERO PUSH2 0x9BB JUMPI PUSH1 0x10 SLOAD SWAP1 POP PUSH2 0x9BF JUMP JUMPDEST SELFBALANCE SWAP1 POP JUMPDEST SWAP1 JUMP JUMPDEST PUSH1 0x12 PUSH1 0x0 SWAP1 SLOAD SWAP1 PUSH2 0x100 EXP SWAP1 DIV PUSH20 0xFFFFFFFFFFFFFFFFFFFFFFFFFFFFFFFFFFFFFFFF AND PUSH20 0xFFFFFFFFFFFFFFFFFFFFFFFFFFFFFFFFFFFFFFFF AND CALLER PUSH20 0xFFFFFFFFFFFFFFFFFFFFFFFFFFFFFFFFFFFFFFFF AND EQ PUSH2 0xA52 JUMPI PUSH1 0x40 MLOAD PUSH32 0x8C379A000000000000000000000000000000000000000000000000000000000 DUP2 MSTORE PUSH1 0x4 ADD PUSH2 0xA49 SWAP1 PUSH2 0x1B4B JUMP JUMPDEST PUSH1 0x40 MLOAD DUP1 SWAP2 SUB SWAP1 REVERT JUMPDEST PUSH1 0x0 DUP2 LT ISZERO DUP1 ISZERO PUSH2 0xA64 JUMPI POP PUSH1 0x4 DUP2 GT ISZERO JUMPDEST PUSH2 0xAA3 JUMPI PUSH1 0x40 MLOAD PUSH32 0x8C379A000000000000000000000000000000000000000000000000000000000 DUP2 MSTORE PUSH1 0x4 ADD PUSH2 0xA9A SWAP1 PUSH2 0x1B8B JUMP JUMPDEST PUSH1 0x40 MLOAD DUP1 SWAP2 SUB SWAP1 REVERT JUMPDEST PUSH1 0x7 PUSH1 0x0 SWAP1 SLOAD SWAP1 PUSH2 0x100 EXP SWAP1 DIV PUSH1 0xFF AND PUSH1 0x4 DUP2 GT ISZERO PUSH2 0xABE JUMPI INVALID JUMPDEST DUP2 EQ ISZERO PUSH2 0xB00 JUMPI PUSH1 0x40 MLOAD PUSH32 0x8C379A000000000000000000000000000000000000000000000000000000000 DUP2 MSTORE PUSH1 0x4 ADD PUSH2 0xAF7 SWAP1 PUSH2 0x1BEB JUMP JUMPDEST PUSH1 0x40 MLOAD DUP1 SWAP2 SUB SWAP1 REVERT JUMPDEST DUP1 PUSH1 0x4 DUP2 GT ISZERO PUSH2 0xB0C JUMPI INVALID JUMPDEST PUSH1 0x7 PUSH1 0x0 PUSH2 0x100 EXP DUP2 SLOAD DUP2 PUSH1 0xFF MUL NOT AND SWAP1 DUP4 PUSH1 0x4 DUP2 GT ISZERO PUSH2 0xB29 JUMPI INVALID JUMPDEST MUL OR SWAP1 SSTORE POP POP JUMP JUMPDEST PUSH2 0xB39 PUSH2 0x14B0 JUMP JUMPDEST PUSH20 0xFFFFFFFFFFFFFFFFFFFFFFFFFFFFFFFFFFFFFFFF AND PUSH1 0x0 DUP1 SLOAD SWAP1 PUSH2 0x100 EXP SWAP1 DIV PUSH20 0xFFFFFFFFFFFFFFFFFFFFFFFFFFFFFFFFFFFFFFFF AND PUSH20 0xFFFFFFFFFFFFFFFFFFFFFFFFFFFFFFFFFFFFFFFF AND EQ PUSH2 0xBC6 JUMPI PUSH1 0x40 MLOAD PUSH32 0x8C379A000000000000000000000000000000000000000000000000000000000 DUP2 MSTORE PUSH1 0x4 ADD PUSH2 0xBBD SWAP1 PUSH2 0x1BAB JUMP JUMPDEST PUSH1 0x40 MLOAD DUP1 SWAP2 SUB SWAP1 REVERT JUMPDEST PUSH1 0x0 PUSH20 0xFFFFFFFFFFFFFFFFFFFFFFFFFFFFFFFFFFFFFFFF AND PUSH1 0x0 DUP1 SLOAD SWAP1 PUSH2 0x100 EXP SWAP1 DIV PUSH20 0xFFFFFFFFFFFFFFFFFFFFFFFFFFFFFFFFFFFFFFFF AND PUSH20 0xFFFFFFFFFFFFFFFFFFFFFFFFFFFFFFFFFFFFFFFF AND PUSH32 0x8BE0079C531659141344CD1FD0A4F28419497F9722A3DAAFE3B4186F6B6457E0 PUSH1 0x40 MLOAD PUSH1 0x40 MLOAD DUP1 SWAP2 SUB SWAP1 LOG3 PUSH1 0x0 DUP1 PUSH1 0x0 PUSH2 0x100 EXP DUP2 SLOAD DUP2 PUSH20 0xFFFFFFFFFFFFFFFFFFFFFFFFFFFFFFFFFFFFFFFF MUL NOT AND SWAP1 DUP4 PUSH20 0xFFFFFFFFFFFFFFFFFFFFFFFFFFFFFFFFFFFFFFFF AND MUL OR SWAP1 SSTORE POP JUMP JUMPDEST PUSH1 0x8 DUP1 SLOAD PUSH1 0x1 DUP2 PUSH1 0x1 AND ISZERO PUSH2 0x100 MUL SUB AND PUSH1 0x2 SWAP1 DIV DUP1 PUSH1 0x1F ADD PUSH1 0x20 DUP1 SWAP2 DIV MUL PUSH1 0x20 ADD PUSH1 0x40 MLOAD SWAP1 DUP2 ADD PUSH1 0x40 MSTORE DUP1 SWAP3 SWAP2 SWAP1 DUP2 DUP2 MSTORE PUSH1 0x20 ADD DUP3 DUP1 SLOAD PUSH1 0x1 DUP2 PUSH1 0x1 AND ISZERO PUSH2 0x100 MUL SUB AND PUSH1 0x2 SWAP1 DIV DUP1 ISZERO PUSH2 0xD1A JUMPI DUP1 PUSH1 0x1F LT PUSH2 0xCEF JUMPI PUSH2 0x100 DUP1 DUP4 SLOAD DIV MUL DUP4 MSTORE SWAP2 PUSH1 0x20 ADD SWAP2 PUSH2 0xD1A JUMP JUMPDEST DUP3 ADD SWAP2 SWAP1 PUSH1 0x0 MSTORE PUSH1 0x20 PUSH1 0x0 KECCAK256 SWAP1 JUMPDEST DUP2 SLOAD DUP2 MSTORE SWAP1 PUSH1 0x1 ADD SWAP1 PUSH1 0x20 ADD DUP1 DUP4 GT PUSH2 0xCFD JUMPI DUP3 SWAP1 SUB PUSH1 0x1F AND DUP3 ADD SWAP2 JUMPDEST POP POP POP POP POP DUP2 JUMP JUMPDEST PUSH1 0xF SLOAD DUP2 JUMP JUMPDEST PUSH1 0x0 DUP1 PUSH1 0x0 SWAP1 SLOAD SWAP1 PUSH2 0x100 EXP SWAP1 DIV PUSH20 0xFFFFFFFFFFFFFFFFFFFFFFFFFFFFFFFFFFFFFFFF AND SWAP1 POP SWAP1 JUMP JUMPDEST PUSH2 0xD59 PUSH2 0x14B0 JUMP JUMPDEST PUSH20 0xFFFFFFFFFFFFFFFFFFFFFFFFFFFFFFFFFFFFFFFF AND PUSH1 0x0 DUP1 SLOAD SWAP1 PUSH2 0x100 EXP SWAP1 DIV PUSH20 0xFFFFFFFFFFFFFFFFFFFFFFFFFFFFFFFFFFFFFFFF AND PUSH20 0xFFFFFFFFFFFFFFFFFFFFFFFFFFFFFFFFFFFFFFFF AND EQ PUSH2 0xDE6 JUMPI PUSH1 0x40 MLOAD PUSH32 0x8C379A000000000000000000000000000000000000000000000000000000000 DUP2 MSTORE PUSH1 0x4 ADD PUSH2 0xDDD SWAP1 PUSH2 0x1BAB JUMP JUMPDEST PUSH1 0x40 MLOAD DUP1 SWAP2 SUB SWAP1 REVERT JUMPDEST PUSH1 0x1 PUSH1 0x4 DUP2 GT ISZERO PUSH2 0xDF3 JUMPI INVALID JUMPDEST PUSH1 0x7 PUSH1 0x0 SWAP1 SLOAD SWAP1 PUSH2 0x100 EXP SWAP1 DIV PUSH1 0xFF AND PUSH1 0x4 DUP2 GT ISZERO PUSH2 0xE0E JUMPI INVALID JUMPDEST EQ PUSH2 0xE4E JUMPI PUSH1 0x40 MLOAD PUSH32 0x8C379A000000000000000000000000000000000000000000000000000000000 DUP2 MSTORE PUSH1 0x4 ADD PUSH2 0xE45 SWAP1 PUSH2 0x1B6B JUMP JUMPDEST PUSH1 0x40 MLOAD DUP1 SWAP2 SUB SWAP1 REVERT JUMPDEST NUMBER PUSH1 0xF DUP2 SWAP1 SSTORE POP PUSH1 0x2 PUSH1 0x7 PUSH1 0x0 PUSH2 0x100 EXP DUP2 SLOAD DUP2 PUSH1 0xFF MUL NOT AND SWAP1 DUP4 PUSH1 0x4 DUP2 GT ISZERO PUSH2 0xE74 JUMPI INVALID JUMPDEST MUL OR SWAP1 SSTORE POP JUMP JUMPDEST PUSH1 0xB SLOAD DUP2 JUMP JUMPDEST PUSH1 0xE SLOAD DUP2 JUMP JUMPDEST PUSH1 0x13 PUSH1 0x0 SWAP1 SLOAD SWAP1 PUSH2 0x100 EXP SWAP1 DIV PUSH20 0xFFFFFFFFFFFFFFFFFFFFFFFFFFFFFFFFFFFFFFFF AND PUSH20 0xFFFFFFFFFFFFFFFFFFFFFFFFFFFFFFFFFFFFFFFF AND PUSH1 0x17 PUSH1 0x0 SWAP1 SLOAD SWAP1 PUSH2 0x100 EXP SWAP1 DIV PUSH20 0xFFFFFFFFFFFFFFFFFFFFFFFFFFFFFFFFFFFFFFFF AND PUSH20 0xFFFFFFFFFFFFFFFFFFFFFFFFFFFFFFFFFFFFFFFF AND EQ ISZERO PUSH2 0x10FC JUMPI DUP1 PUSH1 0x17 PUSH1 0x0 SWAP1 SLOAD SWAP1 PUSH2 0x100 EXP SWAP1 DIV PUSH20 0xFFFFFFFFFFFFFFFFFFFFFFFFFFFFFFFFFFFFFFFF AND PUSH20 0xFFFFFFFFFFFFFFFFFFFFFFFFFFFFFFFFFFFFFFFF AND PUSH4 0x70A08231 CALLER PUSH1 0x40 MLOAD DUP3 PUSH4 0xFFFFFFFF AND PUSH1 0xE0 SHL DUP2 MSTORE PUSH1 0x4 ADD PUSH2 0xF5B SWAP2 SWAP1 PUSH2 0x1A41 JUMP JUMPDEST PUSH1 0x20 PUSH1 0x40 MLOAD DUP1 DUP4 SUB DUP2 DUP7 DUP1 EXTCODESIZE ISZERO DUP1 ISZERO PUSH2 0xF73 JUMPI PUSH1 0x0 DUP1 REVERT JUMPDEST POP GAS STATICCALL ISZERO DUP1 ISZERO PUSH2 0xF87 JUMPI RETURNDATASIZE PUSH1 0x0 DUP1 RETURNDATACOPY RETURNDATASIZE PUSH1 0x0 REVERT JUMPDEST POP POP POP POP PUSH1 0x40 MLOAD RETURNDATASIZE PUSH1 0x1F NOT PUSH1 0x1F DUP3 ADD AND DUP3 ADD DUP1 PUSH1 0x40 MSTORE POP DUP2 ADD SWAP1 PUSH2 0xFAB SWAP2 SWAP1 PUSH2 0x16A1 JUMP JUMPDEST LT ISZERO PUSH2 0xFEC JUMPI PUSH1 0x40 MLOAD PUSH32 0x8C379A000000000000000000000000000000000000000000000000000000000 DUP2 MSTORE PUSH1 0x4 ADD PUSH2 0xFE3 SWAP1 PUSH2 0x1BCB JUMP JUMPDEST PUSH1 0x40 MLOAD DUP1 SWAP2 SUB SWAP1 REVERT JUMPDEST PUSH1 0x17 PUSH1 0x0 SWAP1 SLOAD SWAP1 PUSH2 0x100 EXP SWAP1 DIV PUSH20 0xFFFFFFFFFFFFFFFFFFFFFFFFFFFFFFFFFFFFFFFF AND PUSH20 0xFFFFFFFFFFFFFFFFFFFFFFFFFFFFFFFFFFFFFFFF AND PUSH4 0x23B872DD CALLER ADDRESS DUP5 PUSH1 0x40 MLOAD DUP5 PUSH4 0xFFFFFFFF AND PUSH1 0xE0 SHL DUP2 MSTORE PUSH1 0x4 ADD PUSH2 0x104B SWAP4 SWAP3 SWAP2 SWAP1 PUSH2 0x1A5C JUMP JUMPDEST PUSH1 0x20 PUSH1 0x40 MLOAD DUP1 DUP4 SUB DUP2 PUSH1 0x0 DUP8 DUP1 EXTCODESIZE ISZERO DUP1 ISZERO PUSH2 0x1065 JUMPI PUSH1 0x0 DUP1 REVERT JUMPDEST POP GAS CALL ISZERO DUP1 ISZERO PUSH2 0x1079 JUMPI RETURNDATASIZE PUSH1 0x0 DUP1 RETURNDATACOPY RETURNDATASIZE PUSH1 0x0 REVERT JUMPDEST POP POP POP POP PUSH1 0x40 MLOAD RETURNDATASIZE PUSH1 0x1F NOT PUSH1 0x1F DUP3 ADD AND DUP3 ADD DUP1 PUSH1 0x40 MSTORE POP DUP2 ADD SWAP1 PUSH2 0x109D SWAP2 SWAP1 PUSH2 0x1626 JUMP JUMPDEST POP PUSH2 0x10B3 DUP2 PUSH1 0x10 SLOAD PUSH2 0x14B8 SWAP1 SWAP2 SWAP1 PUSH4 0xFFFFFFFF AND JUMP JUMPDEST PUSH1 0x10 DUP2 SWAP1 SSTORE POP NUMBER PUSH1 0xD DUP2 SWAP1 SSTORE POP PUSH32 0x3F478372607B68E147B903A0B92F830C8D6468755DC7AC8AC400B95F3D987E4F DUP2 PUSH1 0x40 MLOAD PUSH2 0x10EF SWAP2 SWAP1 PUSH2 0x1C0B JUMP JUMPDEST PUSH1 0x40 MLOAD DUP1 SWAP2 SUB SWAP1 LOG1 PUSH2 0x1137 JUMP JUMPDEST PUSH1 0x40 MLOAD PUSH32 0x8C379A000000000000000000000000000000000000000000000000000000000 DUP2 MSTORE PUSH1 0x4 ADD PUSH2 0x112E SWAP1 PUSH2 0x1B2B JUMP JUMPDEST PUSH1 0x40 MLOAD DUP1 SWAP2 SUB SWAP1 REVERT JUMPDEST POP JUMP JUMPDEST PUSH1 0x12 PUSH1 0x0 SWAP1 SLOAD SWAP1 PUSH2 0x100 EXP SWAP1 DIV PUSH20 0xFFFFFFFFFFFFFFFFFFFFFFFFFFFFFFFFFFFFFFFF AND PUSH20 0xFFFFFFFFFFFFFFFFFFFFFFFFFFFFFFFFFFFFFFFF AND CALLER PUSH20 0xFFFFFFFFFFFFFFFFFFFFFFFFFFFFFFFFFFFFFFFF AND EQ PUSH2 0x11CA JUMPI PUSH1 0x40 MLOAD PUSH32 0x8C379A000000000000000000000000000000000000000000000000000000000 DUP2 MSTORE PUSH1 0x4 ADD PUSH2 0x11C1 SWAP1 PUSH2 0x1B4B JUMP JUMPDEST PUSH1 0x40 MLOAD DUP1 SWAP2 SUB SWAP1 REVERT JUMPDEST DUP1 PUSH1 0x1 PUSH1 0x0 DUP3 ADD MLOAD DUP2 PUSH1 0x0 ADD SSTORE PUSH1 0x20 DUP3 ADD MLOAD DUP2 PUSH1 0x1 ADD SSTORE PUSH1 0x40 DUP3 ADD MLOAD DUP2 PUSH1 0x2 ADD SSTORE PUSH1 0x60 DUP3 ADD MLOAD DUP2 PUSH1 0x3 ADD SSTORE PUSH1 0x80 DUP3 ADD MLOAD DUP2 PUSH1 0x4 ADD SSTORE PUSH1 0xA0 DUP3 ADD MLOAD DUP2 PUSH1 0x5 ADD SSTORE SWAP1 POP POP POP JUMP JUMPDEST PUSH1 0x16 SLOAD DUP2 JUMP JUMPDEST DUP1 PUSH1 0x13 PUSH1 0x0 PUSH2 0x100 EXP DUP2 SLOAD DUP2 PUSH20 0xFFFFFFFFFFFFFFFFFFFFFFFFFFFFFFFFFFFFFFFF MUL NOT AND SWAP1 DUP4 PUSH20 0xFFFFFFFFFFFFFFFFFFFFFFFFFFFFFFFFFFFFFFFF AND MUL OR SWAP1 SSTORE POP PUSH1 0x13 PUSH1 0x0 SWAP1 SLOAD SWAP1 PUSH2 0x100 EXP SWAP1 DIV PUSH20 0xFFFFFFFFFFFFFFFFFFFFFFFFFFFFFFFFFFFFFFFF AND PUSH1 0x17 PUSH1 0x0 PUSH2 0x100 EXP DUP2 SLOAD DUP2 PUSH20 0xFFFFFFFFFFFFFFFFFFFFFFFFFFFFFFFFFFFFFFFF MUL NOT AND SWAP1 DUP4 PUSH20 0xFFFFFFFFFFFFFFFFFFFFFFFFFFFFFFFFFFFFFFFF AND MUL OR SWAP1 SSTORE POP POP JUMP JUMPDEST PUSH1 0x11 SLOAD DUP2 JUMP JUMPDEST PUSH1 0xA SLOAD DUP2 JUMP JUMPDEST PUSH2 0x12D0 PUSH2 0x14B0 JUMP JUMPDEST PUSH20 0xFFFFFFFFFFFFFFFFFFFFFFFFFFFFFFFFFFFFFFFF AND PUSH1 0x0 DUP1 SLOAD SWAP1 PUSH2 0x100 EXP SWAP1 DIV PUSH20 0xFFFFFFFFFFFFFFFFFFFFFFFFFFFFFFFFFFFFFFFF AND PUSH20 0xFFFFFFFFFFFFFFFFFFFFFFFFFFFFFFFFFFFFFFFF AND EQ PUSH2 0x135D JUMPI PUSH1 0x40 MLOAD PUSH32 0x8C379A000000000000000000000000000000000000000000000000000000000 DUP2 MSTORE PUSH1 0x4 ADD PUSH2 0x1354 SWAP1 PUSH2 0x1BAB JUMP JUMPDEST PUSH1 0x40 MLOAD DUP1 SWAP2 SUB SWAP1 REVERT JUMPDEST PUSH1 0x0 PUSH20 0xFFFFFFFFFFFFFFFFFFFFFFFFFFFFFFFFFFFFFFFF AND DUP2 PUSH20 0xFFFFFFFFFFFFFFFFFFFFFFFFFFFFFFFFFFFFFFFF AND EQ ISZERO PUSH2 0x13CD JUMPI PUSH1 0x40 MLOAD PUSH32 0x8C379A000000000000000000000000000000000000000000000000000000000 DUP2 MSTORE PUSH1 0x4 ADD PUSH2 0x13C4 SWAP1 PUSH2 0x1AEB JUMP JUMPDEST PUSH1 0x40 MLOAD DUP1 SWAP2 SUB SWAP1 REVERT JUMPDEST DUP1 PUSH20 0xFFFFFFFFFFFFFFFFFFFFFFFFFFFFFFFFFFFFFFFF AND PUSH1 0x0 DUP1 SLOAD SWAP1 PUSH2 0x100 EXP SWAP1 DIV PUSH20 0xFFFFFFFFFFFFFFFFFFFFFFFFFFFFFFFFFFFFFFFF AND PUSH20 0xFFFFFFFFFFFFFFFFFFFFFFFFFFFFFFFFFFFFFFFF AND PUSH32 0x8BE0079C531659141344CD1FD0A4F28419497F9722A3DAAFE3B4186F6B6457E0 PUSH1 0x40 MLOAD PUSH1 0x40 MLOAD DUP1 SWAP2 SUB SWAP1 LOG3 DUP1 PUSH1 0x0 DUP1 PUSH2 0x100 EXP DUP2 SLOAD DUP2 PUSH20 0xFFFFFFFFFFFFFFFFFFFFFFFFFFFFFFFFFFFFFFFF MUL NOT AND SWAP1 DUP4 PUSH20 0xFFFFFFFFFFFFFFFFFFFFFFFFFFFFFFFFFFFFFFFF AND MUL OR SWAP1 SSTORE POP POP JUMP JUMPDEST PUSH1 0x13 PUSH1 0x0 SWAP1 SLOAD SWAP1 PUSH2 0x100 EXP SWAP1 DIV PUSH20 0xFFFFFFFFFFFFFFFFFFFFFFFFFFFFFFFFFFFFFFFF AND DUP2 JUMP JUMPDEST PUSH1 0x0 CALLER SWAP1 POP SWAP1 JUMP JUMPDEST PUSH1 0x0 DUP1 DUP3 DUP5 ADD SWAP1 POP DUP4 DUP2 LT ISZERO PUSH2 0x1503 JUMPI PUSH1 0x40 MLOAD PUSH32 0x8C379A000000000000000000000000000000000000000000000000000000000 DUP2 MSTORE PUSH1 0x4 ADD PUSH2 0x14FA SWAP1 PUSH2 0x1B0B JUMP JUMPDEST PUSH1 0x40 MLOAD DUP1 SWAP2 SUB SWAP1 REVERT JUMPDEST DUP1 SWAP2 POP POP SWAP3 SWAP2 POP POP JUMP JUMPDEST PUSH1 0x0 DUP2 CALLDATALOAD SWAP1 POP PUSH2 0x151C DUP2 PUSH2 0x1DE8 JUMP JUMPDEST SWAP3 SWAP2 POP POP JUMP JUMPDEST PUSH1 0x0 DUP2 MLOAD SWAP1 POP PUSH2 0x1531 DUP2 PUSH2 0x1DFF JUMP JUMPDEST SWAP3 SWAP2 POP POP JUMP JUMPDEST PUSH1 0x0 PUSH1 0xC0 DUP3 DUP5 SUB SLT ISZERO PUSH2 0x1549 JUMPI PUSH1 0x0 DUP1 REVERT JUMPDEST PUSH2 0x1553 PUSH1 0xC0 PUSH2 0x1C87 JUMP JUMPDEST SWAP1 POP PUSH1 0x0 PUSH2 0x1563 DUP5 DUP3 DUP6 ADD PUSH2 0x15D3 JUMP JUMPDEST PUSH1 0x0 DUP4 ADD MSTORE POP PUSH1 0x20 PUSH2 0x1577 DUP5 DUP3 DUP6 ADD PUSH2 0x15D3 JUMP JUMPDEST PUSH1 0x20 DUP4 ADD MSTORE POP PUSH1 0x40 PUSH2 0x158B DUP5 DUP3 DUP6 ADD PUSH2 0x15D3 JUMP JUMPDEST PUSH1 0x40 DUP4 ADD MSTORE POP PUSH1 0x60 PUSH2 0x159F DUP5 DUP3 DUP6 ADD PUSH2 0x15D3 JUMP JUMPDEST PUSH1 0x60 DUP4 ADD MSTORE POP PUSH1 0x80 PUSH2 0x15B3 DUP5 DUP3 DUP6 ADD PUSH2 0x15D3 JUMP JUMPDEST PUSH1 0x80 DUP4 ADD MSTORE POP PUSH1 0xA0 PUSH2 0x15C7 DUP5 DUP3 DUP6 ADD PUSH2 0x15D3 JUMP JUMPDEST PUSH1 0xA0 DUP4 ADD MSTORE POP SWAP3 SWAP2 POP POP JUMP JUMPDEST PUSH1 0x0 DUP2 CALLDATALOAD SWAP1 POP PUSH2 0x15E2 DUP2 PUSH2 0x1E16 JUMP JUMPDEST SWAP3 SWAP2 POP POP JUMP JUMPDEST PUSH1 0x0 DUP2 MLOAD SWAP1 POP PUSH2 0x15F7 DUP2 PUSH2 0x1E16 JUMP JUMPDEST SWAP3 SWAP2 POP POP JUMP JUMPDEST PUSH1 0x0 PUSH1 0x20 DUP3 DUP5 SUB SLT ISZERO PUSH2 0x160F JUMPI PUSH1 0x0 DUP1 REVERT JUMPDEST PUSH1 0x0 PUSH2 0x161D DUP5 DUP3 DUP6 ADD PUSH2 0x150D JUMP JUMPDEST SWAP2 POP POP SWAP3 SWAP2 POP POP JUMP JUMPDEST PUSH1 0x0 PUSH1 0x20 DUP3 DUP5 SUB SLT ISZERO PUSH2 0x1638 JUMPI PUSH1 0x0 DUP1 REVERT JUMPDEST PUSH1 0x0 PUSH2 0x1646 DUP5 DUP3 DUP6 ADD PUSH2 0x1522 JUMP JUMPDEST SWAP2 POP POP SWAP3 SWAP2 POP POP JUMP JUMPDEST PUSH1 0x0 PUSH1 0xC0 DUP3 DUP5 SUB SLT ISZERO PUSH2 0x1661 JUMPI PUSH1 0x0 DUP1 REVERT JUMPDEST PUSH1 0x0 PUSH2 0x166F DUP5 DUP3 DUP6 ADD PUSH2 0x1537 JUMP JUMPDEST SWAP2 POP POP SWAP3 SWAP2 POP POP JUMP JUMPDEST PUSH1 0x0 PUSH1 0x20 DUP3 DUP5 SUB SLT ISZERO PUSH2 0x168A JUMPI PUSH1 0x0 DUP1 REVERT JUMPDEST PUSH1 0x0 PUSH2 0x1698 DUP5 DUP3 DUP6 ADD PUSH2 0x15D3 JUMP JUMPDEST SWAP2 POP POP SWAP3 SWAP2 POP POP JUMP JUMPDEST PUSH1 0x0 PUSH1 0x20 DUP3 DUP5 SUB SLT ISZERO PUSH2 0x16B3 JUMPI PUSH1 0x0 DUP1 REVERT JUMPDEST PUSH1 0x0 PUSH2 0x16C1 DUP5 DUP3 DUP6 ADD PUSH2 0x15E8 JUMP JUMPDEST SWAP2 POP POP SWAP3 SWAP2 POP POP JUMP JUMPDEST PUSH2 0x16D3 DUP2 PUSH2 0x1D2B JUMP JUMPDEST DUP3 MSTORE POP POP JUMP JUMPDEST PUSH2 0x16E2 DUP2 PUSH2 0x1CD0 JUMP JUMPDEST DUP3 MSTORE POP POP JUMP JUMPDEST PUSH2 0x16F1 DUP2 PUSH2 0x1D3D JUMP JUMPDEST DUP3 MSTORE POP POP JUMP JUMPDEST PUSH2 0x1700 DUP2 PUSH2 0x1D61 JUMP JUMPDEST DUP3 MSTORE POP POP JUMP JUMPDEST PUSH1 0x0 PUSH2 0x1711 DUP3 PUSH2 0x1CB4 JUMP JUMPDEST PUSH2 0x171B DUP2 DUP6 PUSH2 0x1CBF JUMP JUMPDEST SWAP4 POP PUSH2 0x172B DUP2 DUP6 PUSH1 0x20 DUP7 ADD PUSH2 0x1D97 JUMP JUMPDEST PUSH2 0x1734 DUP2 PUSH2 0x1DCA JUMP JUMPDEST DUP5 ADD SWAP2 POP POP SWAP3 SWAP2 POP POP JUMP JUMPDEST PUSH1 0x0 PUSH2 0x174C PUSH1 0x26 DUP4 PUSH2 0x1CBF JUMP JUMPDEST SWAP2 POP PUSH32 0x4F776E61626C653A206E6577206F776E657220697320746865207A65726F2061 PUSH1 0x0 DUP4 ADD MSTORE PUSH32 0x6464726573730000000000000000000000000000000000000000000000000000 PUSH1 0x20 DUP4 ADD MSTORE PUSH1 0x40 DUP3 ADD SWAP1 POP SWAP2 SWAP1 POP JUMP JUMPDEST PUSH1 0x0 PUSH2 0x17B2 PUSH1 0x1B DUP4 PUSH2 0x1CBF JUMP JUMPDEST SWAP2 POP PUSH32 0x536166654D6174683A206164646974696F6E206F766572666C6F770000000000 PUSH1 0x0 DUP4 ADD MSTORE PUSH1 0x20 DUP3 ADD SWAP1 POP SWAP2 SWAP1 POP JUMP JUMPDEST PUSH1 0x0 PUSH2 0x17F2 PUSH1 0x12 DUP4 PUSH2 0x1CBF JUMP JUMPDEST SWAP2 POP PUSH32 0x4E6F7420616363657074656420746F6B656E0000000000000000000000000000 PUSH1 0x0 DUP4 ADD MSTORE PUSH1 0x20 DUP3 ADD SWAP1 POP SWAP2 SWAP1 POP JUMP JUMPDEST PUSH1 0x0 PUSH2 0x1832 PUSH1 0x13 DUP4 PUSH2 0x1CBF JUMP JUMPDEST SWAP2 POP PUSH32 0x41646472657373206E6F7420616C6C6F77656400000000000000000000000000 PUSH1 0x0 DUP4 ADD MSTORE PUSH1 0x20 DUP3 ADD SWAP1 POP SWAP2 SWAP1 POP JUMP JUMPDEST PUSH1 0x0 PUSH2 0x1872 PUSH1 0x33 DUP4 PUSH2 0x1CBF JUMP JUMPDEST SWAP2 POP PUSH32 0x4C6F616E20737461747573206E6F7420636F6D70617469626C65207769746820 PUSH1 0x0 DUP4 ADD MSTORE PUSH32 0x666F7265636C6F73696E6720616374696F6E7300000000000000000000000000 PUSH1 0x20 DUP4 ADD MSTORE PUSH1 0x40 DUP3 ADD SWAP1 POP SWAP2 SWAP1 POP JUMP JUMPDEST PUSH1 0x0 PUSH2 0x18D8 PUSH1 0x13 DUP4 PUSH2 0x1CBF JUMP JUMPDEST SWAP2 POP PUSH32 0x4E6577207374617465206E6F742076616C696400000000000000000000000000 PUSH1 0x0 DUP4 ADD MSTORE PUSH1 0x20 DUP3 ADD SWAP1 POP SWAP2 SWAP1 POP JUMP JUMPDEST PUSH1 0x0 PUSH2 0x1918 PUSH1 0x20 DUP4 PUSH2 0x1CBF JUMP JUMPDEST SWAP2 POP PUSH32 0x4F776E61626C653A2063616C6C6572206973206E6F7420746865206F776E6572 PUSH1 0x0 DUP4 ADD MSTORE PUSH1 0x20 DUP3 ADD SWAP1 POP SWAP2 SWAP1 POP JUMP JUMPDEST PUSH1 0x0 PUSH2 0x1958 PUSH1 0x26 DUP4 PUSH2 0x1CBF JUMP JUMPDEST SWAP2 POP PUSH32 0x4E6F7420656E6F756768204A4E5420746F6B656E7320696E2073656E64657220 PUSH1 0x0 DUP4 ADD MSTORE PUSH32 0x77616C6C65740000000000000000000000000000000000000000000000000000 PUSH1 0x20 DUP4 ADD MSTORE PUSH1 0x40 DUP3 ADD SWAP1 POP SWAP2 SWAP1 POP JUMP JUMPDEST PUSH1 0x0 PUSH2 0x19BE PUSH1 0x27 DUP4 PUSH2 0x1CBF JUMP JUMPDEST SWAP2 POP PUSH32 0x4E657720737461747573206973207468652073616D65206C696B652070726573 PUSH1 0x0 DUP4 ADD MSTORE PUSH32 0x656E74206F6E6500000000000000000000000000000000000000000000000000 PUSH1 0x20 DUP4 ADD MSTORE PUSH1 0x40 DUP3 ADD SWAP1 POP SWAP2 SWAP1 POP JUMP JUMPDEST PUSH2 0x1A20 DUP2 PUSH2 0x1D21 JUMP JUMPDEST DUP3 MSTORE POP POP JUMP JUMPDEST PUSH1 0x0 PUSH1 0x20 DUP3 ADD SWAP1 POP PUSH2 0x1A3B PUSH1 0x0 DUP4 ADD DUP5 PUSH2 0x16D9 JUMP JUMPDEST SWAP3 SWAP2 POP POP JUMP JUMPDEST PUSH1 0x0 PUSH1 0x20 DUP3 ADD SWAP1 POP PUSH2 0x1A56 PUSH1 0x0 DUP4 ADD DUP5 PUSH2 0x16CA JUMP JUMPDEST SWAP3 SWAP2 POP POP JUMP JUMPDEST PUSH1 0x0 PUSH1 0x60 DUP3 ADD SWAP1 POP PUSH2 0x1A71 PUSH1 0x0 DUP4 ADD DUP7 PUSH2 0x16CA JUMP JUMPDEST PUSH2 0x1A7E PUSH1 0x20 DUP4 ADD DUP6 PUSH2 0x16D9 JUMP JUMPDEST PUSH2 0x1A8B PUSH1 0x40 DUP4 ADD DUP5 PUSH2 0x1A17 JUMP JUMPDEST SWAP5 SWAP4 POP POP POP POP JUMP JUMPDEST PUSH1 0x0 PUSH1 0x20 DUP3 ADD SWAP1 POP PUSH2 0x1AA8 PUSH1 0x0 DUP4 ADD DUP5 PUSH2 0x16E8 JUMP JUMPDEST SWAP3 SWAP2 POP POP JUMP JUMPDEST PUSH1 0x0 PUSH1 0x20 DUP3 ADD SWAP1 POP PUSH2 0x1AC3 PUSH1 0x0 DUP4 ADD DUP5 PUSH2 0x16F7 JUMP JUMPDEST SWAP3 SWAP2 POP POP JUMP JUMPDEST PUSH1 0x0 PUSH1 0x20 DUP3 ADD SWAP1 POP DUP2 DUP2 SUB PUSH1 0x0 DUP4 ADD MSTORE PUSH2 0x1AE3 DUP2 DUP5 PUSH2 0x1706 JUMP JUMPDEST SWAP1 POP SWAP3 SWAP2 POP POP JUMP JUMPDEST PUSH1 0x0 PUSH1 0x20 DUP3 ADD SWAP1 POP DUP2 DUP2 SUB PUSH1 0x0 DUP4 ADD MSTORE PUSH2 0x1B04 DUP2 PUSH2 0x173F JUMP JUMPDEST SWAP1 POP SWAP2 SWAP1 POP JUMP JUMPDEST PUSH1 0x0 PUSH1 0x20 DUP3 ADD SWAP1 POP DUP2 DUP2 SUB PUSH1 0x0 DUP4 ADD MSTORE PUSH2 0x1B24 DUP2 PUSH2 0x17A5 JUMP JUMPDEST SWAP1 POP SWAP2 SWAP1 POP JUMP JUMPDEST PUSH1 0x0 PUSH1 0x20 DUP3 ADD SWAP1 POP DUP2 DUP2 SUB PUSH1 0x0 DUP4 ADD MSTORE PUSH2 0x1B44 DUP2 PUSH2 0x17E5 JUMP JUMPDEST SWAP1 POP SWAP2 SWAP1 POP JUMP JUMPDEST PUSH1 0x0 PUSH1 0x20 DUP3 ADD SWAP1 POP DUP2 DUP2 SUB PUSH1 0x0 DUP4 ADD MSTORE PUSH2 0x1B64 DUP2 PUSH2 0x1825 JUMP JUMPDEST SWAP1 POP SWAP2 SWAP1 POP JUMP JUMPDEST PUSH1 0x0 PUSH1 0x20 DUP3 ADD SWAP1 POP DUP2 DUP2 SUB PUSH1 0x0 DUP4 ADD MSTORE PUSH2 0x1B84 DUP2 PUSH2 0x1865 JUMP JUMPDEST SWAP1 POP SWAP2 SWAP1 POP JUMP JUMPDEST PUSH1 0x0 PUSH1 0x20 DUP3 ADD SWAP1 POP DUP2 DUP2 SUB PUSH1 0x0 DUP4 ADD MSTORE PUSH2 0x1BA4 DUP2 PUSH2 0x18CB JUMP JUMPDEST SWAP1 POP SWAP2 SWAP1 POP JUMP JUMPDEST PUSH1 0x0 PUSH1 0x20 DUP3 ADD SWAP1 POP DUP2 DUP2 SUB PUSH1 0x0 DUP4 ADD MSTORE PUSH2 0x1BC4 DUP2 PUSH2 0x190B JUMP JUMPDEST SWAP1 POP SWAP2 SWAP1 POP JUMP JUMPDEST PUSH1 0x0 PUSH1 0x20 DUP3 ADD SWAP1 POP DUP2 DUP2 SUB PUSH1 0x0 DUP4 ADD MSTORE PUSH2 0x1BE4 DUP2 PUSH2 0x194B JUMP JUMPDEST SWAP1 POP SWAP2 SWAP1 POP JUMP JUMPDEST PUSH1 0x0 PUSH1 0x20 DUP3 ADD SWAP1 POP DUP2 DUP2 SUB PUSH1 0x0 DUP4 ADD MSTORE PUSH2 0x1C04 DUP2 PUSH2 0x19B1 JUMP JUMPDEST SWAP1 POP SWAP2 SWAP1 POP JUMP JUMPDEST PUSH1 0x0 PUSH1 0x20 DUP3 ADD SWAP1 POP PUSH2 0x1C20 PUSH1 0x0 DUP4 ADD DUP5 PUSH2 0x1A17 JUMP JUMPDEST SWAP3 SWAP2 POP POP JUMP JUMPDEST PUSH1 0x0 PUSH1 0xC0 DUP3 ADD SWAP1 POP PUSH2 0x1C3B PUSH1 0x0 DUP4 ADD DUP10 PUSH2 0x1A17 JUMP JUMPDEST PUSH2 0x1C48 PUSH1 0x20 DUP4 ADD DUP9 PUSH2 0x1A17 JUMP JUMPDEST PUSH2 0x1C55 PUSH1 0x40 DUP4 ADD DUP8 PUSH2 0x1A17 JUMP JUMPDEST PUSH2 0x1C62 PUSH1 0x60 DUP4 ADD DUP7 PUSH2 0x1A17 JUMP JUMPDEST PUSH2 0x1C6F PUSH1 0x80 DUP4 ADD DUP6 PUSH2 0x1A17 JUMP JUMPDEST PUSH2 0x1C7C PUSH1 0xA0 DUP4 ADD DUP5 PUSH2 0x1A17 JUMP JUMPDEST SWAP8 SWAP7 POP POP POP POP POP POP POP JUMP JUMPDEST PUSH1 0x0 PUSH1 0x40 MLOAD SWAP1 POP DUP2 DUP2 ADD DUP2 DUP2 LT PUSH8 0xFFFFFFFFFFFFFFFF DUP3 GT OR ISZERO PUSH2 0x1CAA JUMPI PUSH1 0x0 DUP1 REVERT JUMPDEST DUP1 PUSH1 0x40 MSTORE POP SWAP2 SWAP1 POP JUMP JUMPDEST PUSH1 0x0 DUP2 MLOAD SWAP1 POP SWAP2 SWAP1 POP JUMP JUMPDEST PUSH1 0x0 DUP3 DUP3 MSTORE PUSH1 0x20 DUP3 ADD SWAP1 POP SWAP3 SWAP2 POP POP JUMP JUMPDEST PUSH1 0x0 PUSH2 0x1CDB DUP3 PUSH2 0x1D01 JUMP JUMPDEST SWAP1 POP SWAP2 SWAP1 POP JUMP JUMPDEST PUSH1 0x0 DUP2 ISZERO ISZERO SWAP1 POP SWAP2 SWAP1 POP JUMP JUMPDEST PUSH1 0x0 DUP2 SWAP1 POP PUSH2 0x1CFC DUP3 PUSH2 0x1DDB JUMP JUMPDEST SWAP2 SWAP1 POP JUMP JUMPDEST PUSH1 0x0 PUSH20 0xFFFFFFFFFFFFFFFFFFFFFFFFFFFFFFFFFFFFFFFF DUP3 AND SWAP1 POP SWAP2 SWAP1 POP JUMP JUMPDEST PUSH1 0x0 DUP2 SWAP1 POP SWAP2 SWAP1 POP JUMP JUMPDEST PUSH1 0x0 PUSH2 0x1D36 DUP3 PUSH2 0x1D73 JUMP JUMPDEST SWAP1 POP SWAP2 SWAP1 POP JUMP JUMPDEST PUSH1 0x0 PUSH2 0x1D48 DUP3 PUSH2 0x1D4F JUMP JUMPDEST SWAP1 POP SWAP2 SWAP1 POP JUMP JUMPDEST PUSH1 0x0 PUSH2 0x1D5A DUP3 PUSH2 0x1D01 JUMP JUMPDEST SWAP1 POP SWAP2 SWAP1 POP JUMP JUMPDEST PUSH1 0x0 PUSH2 0x1D6C DUP3 PUSH2 0x1CEE JUMP JUMPDEST SWAP1 POP SWAP2 SWAP1 POP JUMP JUMPDEST PUSH1 0x0 PUSH2 0x1D7E DUP3 PUSH2 0x1D85 JUMP JUMPDEST SWAP1 POP SWAP2 SWAP1 POP JUMP JUMPDEST PUSH1 0x0 PUSH2 0x1D90 DUP3 PUSH2 0x1D01 JUMP JUMPDEST SWAP1 POP SWAP2 SWAP1 POP JUMP JUMPDEST PUSH1 0x0 JUMPDEST DUP4 DUP2 LT ISZERO PUSH2 0x1DB5 JUMPI DUP1 DUP3 ADD MLOAD DUP2 DUP5 ADD MSTORE PUSH1 0x20 DUP2 ADD SWAP1 POP PUSH2 0x1D9A JUMP JUMPDEST DUP4 DUP2 GT ISZERO PUSH2 0x1DC4 JUMPI PUSH1 0x0 DUP5 DUP5 ADD MSTORE JUMPDEST POP POP POP POP JUMP JUMPDEST PUSH1 0x0 PUSH1 0x1F NOT PUSH1 0x1F DUP4 ADD AND SWAP1 POP SWAP2 SWAP1 POP JUMP JUMPDEST PUSH1 0x5 DUP2 LT PUSH2 0x1DE5 JUMPI INVALID JUMPDEST POP JUMP JUMPDEST PUSH2 0x1DF1 DUP2 PUSH2 0x1CD0 JUMP JUMPDEST DUP2 EQ PUSH2 0x1DFC JUMPI PUSH1 0x0 DUP1 REVERT JUMPDEST POP JUMP JUMPDEST PUSH2 0x1E08 DUP2 PUSH2 0x1CE2 JUMP JUMPDEST DUP2 EQ PUSH2 0x1E13 JUMPI PUSH1 0x0 DUP1 REVERT JUMPDEST POP JUMP JUMPDEST PUSH2 0x1E1F DUP2 PUSH2 0x1D21 JUMP JUMPDEST DUP2 EQ PUSH2 0x1E2A JUMPI PUSH1 0x0 DUP1 REVERT JUMPDEST POP JUMP INVALID LOG2 PUSH5 0x6970667358 0x22 SLT KECCAK256 DUP11 SAR 0xDE 0xA9 NOT CALLVALUE SGT 0xB3 0xB0 PUSH15 0xE915AA33D0407B891EA80F3A8516DF DUP12 RETURNDATACOPY EQ 0xC2 SMOD SWAP15 0xEB PUSH5 0x736F6C6343 STOP MOD 0xC STOP CALLER LOG2 PUSH5 0x6970667358 0x22 SLT KECCAK256 0xFC DUP12 SMOD CODECOPY LOG2 SHL PUSH3 0x32FED7 ISZERO 0xD MUL DIV 0xCA 0xF8 0xD0 0xF7 PUSH8 0x9605F250528046C4 SWAP3 0xC LOG3 ISZERO OR PUSH5 0x736F6C6343 STOP MOD 0xC STOP CALLER "},"gasEstimates":{"creation":{"codeDepositCost":"5390400","executionCost":"infinite","totalCost":"infinite"},"external":{"borrowerLength()":"1197","borrowerList(uint256)":"2401","borrowers(address)":"1612","deployNewEthLoanContract(string,string,uint256,uint256,uint256)":"infinite","deployNewTokensLoanContract(string,string,uint256,uint256,uint256)":"infinite","ethLoanContracts(address)":"1613","ethLoanContractsList(uint256)":"2424","factoryDeployBlock()":"1241","getLoanParams()":"infinite","jntContract()":"1324","jntContractAddress()":"1260","lenderLength()":"1174","lenderList(uint256)":"2446","lenders(address)":"1635","loanParams()":"infinite","owner()":"1268","renounceOwnership()":"24358","setEarlySettlementFee(uint256)":"21439","setEarlySettlementWindow(uint256)":"21439","setForeclosureRatio(uint256)":"21374","setForeclosureWindow(uint256)":"21417","setInstantForeclosureRatio(uint256)":"21394","setLoanParamsInContract(uint256)":"infinite","setMinRpb(uint256)":"21397","setStatusInEthContract(uint256,uint256)":"infinite","tokenLoanContracts(address)":"1589","tokenLoanContractsList(uint256)":"2401","transferOwnership(address)":"24728"}},"methodIdentifiers":{"borrowerLength()":"28964fef","borrowerList(uint256)":"b3a66524","borrowers(address)":"bf5d50c4","deployNewEthLoanContract(string,string,uint256,uint256,uint256)":"d00109f9","deployNewTokensLoanContract(string,string,uint256,uint256,uint256)":"f450abdd","ethLoanContracts(address)":"57159584","ethLoanContractsList(uint256)":"a2b20fe3","factoryDeployBlock()":"39075d89","getLoanParams()":"20600a37","jntContract()":"cf611d33","jntContractAddress()":"54f197e0","lenderLength()":"c7c89628","lenderList(uint256)":"6085c7df","lenders(address)":"28fd10d7","loanParams()":"09e94d98","owner()":"8da5cb5b","renounceOwnership()":"715018a6","setEarlySettlementFee(uint256)":"799d564c","setEarlySettlementWindow(uint256)":"c2c1e340","setForeclosureRatio(uint256)":"26e9fdd8","setForeclosureWindow(uint256)":"73aa3028","setInstantForeclosureRatio(uint256)":"f0427dff","setLoanParamsInContract(uint256)":"bff3de22","setMinRpb(uint256)":"0c8731ab","setStatusInEthContract(uint256,uint256)":"aeec8c9b","tokenLoanContracts(address)":"e7bafd1a","tokenLoanContractsList(uint256)":"6bfab938","transferOwnership(address)":"f2fde38b"}},"storageLayout":{"storage":[{"astId":222,"contract":"JLoansFactory.sol:JLoansFactory","label":"_owner","offset":0,"slot":"0","type":"t_address"},{"astId":1041,"contract":"JLoansFactory.sol:JLoansFactory","label":"borrowerLength","offset":0,"slot":"1","type":"t_uint256"},{"astId":1044,"contract":"JLoansFactory.sol:JLoansFactory","label":"borrowerList","offset":0,"slot":"2","type":"t_array(t_address)dyn_storage"},{"astId":1046,"contract":"JLoansFactory.sol:JLoansFactory","label":"lenderLength","offset":0,"slot":"3","type":"t_uint256"},{"astId":1049,"contract":"JLoansFactory.sol:JLoansFactory","label":"lenderList","offset":0,"slot":"4","type":"t_array(t_address)dyn_storage"},{"astId":1053,"contract":"JLoansFactory.sol:JLoansFactory","label":"borrowers","offset":0,"slot":"5","type":"t_mapping(t_address,t_bool)"},{"astId":1057,"contract":"JLoansFactory.sol:JLoansFactory","label":"lenders","offset":0,"slot":"6","type":"t_mapping(t_address,t_bool)"},{"astId":1060,"contract":"JLoansFactory.sol:JLoansFactory","label":"ethLoanContractsList","offset":0,"slot":"7","type":"t_array(t_address)dyn_storage"},{"astId":1064,"contract":"JLoansFactory.sol:JLoansFactory","label":"ethLoanContracts","offset":0,"slot":"8","type":"t_mapping(t_address,t_bool)"},{"astId":1067,"contract":"JLoansFactory.sol:JLoansFactory","label":"tokenLoanContractsList","offset":0,"slot":"9","type":"t_array(t_address)dyn_storage"},{"astId":1071,"contract":"JLoansFactory.sol:JLoansFactory","label":"tokenLoanContracts","offset":0,"slot":"10","type":"t_mapping(t_address,t_bool)"},{"astId":1073,"contract":"JLoansFactory.sol:JLoansFactory","label":"factoryDeployBlock","offset":0,"slot":"11","type":"t_uint256"},{"astId":1075,"contract":"JLoansFactory.sol:JLoansFactory","label":"jntContractAddress","offset":0,"slot":"12","type":"t_address"},{"astId":1077,"contract":"JLoansFactory.sol:JLoansFactory","label":"jntContract","offset":0,"slot":"13","type":"t_contract(IERC20)399"},{"astId":1079,"contract":"JLoansFactory.sol:JLoansFactory","label":"loanParams","offset":0,"slot":"14","type":"t_struct(params)412_storage"}],"types":{"t_address":{"encoding":"inplace","label":"address","numberOfBytes":"20"},"t_array(t_address)dyn_storage":{"base":"t_address","encoding":"dynamic_array","label":"address[]","numberOfBytes":"32"},"t_bool":{"encoding":"inplace","label":"bool","numberOfBytes":"1"},"t_contract(IERC20)399":{"encoding":"inplace","label":"contract IERC20","numberOfBytes":"20"},"t_mapping(t_address,t_bool)":{"encoding":"mapping","key":"t_address","label":"mapping(address => bool)","numberOfBytes":"32","value":"t_bool"},"t_struct(params)412_storage":{"encoding":"inplace","label":"struct IJLoanCommons.params","members":[{"astId":401,"contract":"JLoansFactory.sol:JLoansFactory","label":"minRpbRate","offset":0,"slot":"0","type":"t_uint256"},{"astId":403,"contract":"JLoansFactory.sol:JLoansFactory","label":"earlySettlementWindow","offset":0,"slot":"1","type":"t_uint256"},{"astId":405,"contract":"JLoansFactory.sol:JLoansFactory","label":"foreclosureWindow","offset":0,"slot":"2","type":"t_uint256"},{"astId":407,"contract":"JLoansFactory.sol:JLoansFactory","label":"foreclosureRatio","offset":0,"slot":"3","type":"t_uint256"},{"astId":409,"contract":"JLoansFactory.sol:JLoansFactory","label":"instantForeclosureRatio","offset":0,"slot":"4","type":"t_uint256"},{"astId":411,"contract":"JLoansFactory.sol:JLoansFactory","label":"earlySettlementFee","offset":0,"slot":"5","type":"t_uint256"}],"numberOfBytes":"192"},"t_uint256":{"encoding":"inplace","label":"uint256","numberOfBytes":"32"}}},"userdoc":{"kind":"user","methods":{},"version":1}}