{"abi":[{"inputs":[{"internalType":"string","name":"_name","type":"string"},{"internalType":"string","name":"_borrowedCrypto","type":"string"},{"internalType":"uint256","name":"_borrowedAskAmount","type":"uint256"},{"internalType":"uint256","name":"_rpbRate","type":"uint256"},{"internalType":"uint256","name":"_startPrice","type":"uint256"},{"components":[{"internalType":"uint256","name":"minRpbRate","type":"uint256"},{"internalType":"uint256","name":"earlySettlementWindow","type":"uint256"},{"internalType":"uint256","name":"foreclosureWindow","type":"uint256"},{"internalType":"uint256","name":"foreclosureRatio","type":"uint256"},{"internalType":"uint256","name":"instantForeclosureRatio","type":"uint256"},{"internalType":"uint256","name":"earlySettlementFee","type":"uint256"}],"internalType":"struct IJLoanCommons.params","name":"_passedParams","type":"tuple"},{"internalType":"address","name":"_faddress","type":"address"}],"stateMutability":"nonpayable","type":"constructor"},{"anonymous":false,"inputs":[{"indexed":false,"internalType":"address","name":"sender","type":"address"},{"indexed":false,"internalType":"uint256","name":"value","type":"uint256"}],"name":"EthReceived","type":"event"},{"anonymous":false,"inputs":[{"indexed":false,"internalType":"uint256","name":"creationBlock","type":"uint256"}],"name":"LoanContractDeployed","type":"event"},{"anonymous":false,"inputs":[{"indexed":true,"internalType":"address","name":"previousOwner","type":"address"},{"indexed":true,"internalType":"address","name":"newOwner","type":"address"}],"name":"OwnershipTransferred","type":"event"},{"anonymous":false,"inputs":[{"indexed":false,"internalType":"uint256","name":"depositAmount","type":"uint256"}],"name":"newDeposit","type":"event"},{"inputs":[],"name":"askedBorrowAmount","outputs":[{"internalType":"uint256","name":"","type":"uint256"}],"stateMutability":"view","type":"function"},{"inputs":[],"name":"borrowerBalance","outputs":[{"internalType":"uint256","name":"","type":"uint256"}],"stateMutability":"view","type":"function"},{"inputs":[],"name":"chosenBorrowedCrypto","outputs":[{"internalType":"string","name":"","type":"string"}],"stateMutability":"view","type":"function"},{"inputs":[],"name":"creationBlock","outputs":[{"internalType":"uint256","name":"","type":"uint256"}],"stateMutability":"view","type":"function"},{"inputs":[],"name":"cryptoFromLender","outputs":[{"internalType":"contract IERC20","name":"","type":"address"}],"stateMutability":"view","type":"function"},{"inputs":[],"name":"getContractBalance","outputs":[{"internalType":"uint256","name":"","type":"uint256"}],"stateMutability":"view","type":"function"},{"inputs":[],"name":"lastDepositBlock","outputs":[{"internalType":"uint256","name":"","type":"uint256"}],"stateMutability":"view","type":"function"},{"inputs":[{"internalType":"address","name":"_lenderAddress","type":"address"}],"name":"lenderAcceptance","outputs":[],"stateMutability":"nonpayable","type":"function"},{"inputs":[],"name":"lenderBalance","outputs":[{"internalType":"uint256","name":"","type":"uint256"}],"stateMutability":"view","type":"function"},{"inputs":[],"name":"loanActiveBlock","outputs":[{"internalType":"uint256","name":"","type":"uint256"}],"stateMutability":"view","type":"function"},{"inputs":[],"name":"loanForeClosure","outputs":[],"stateMutability":"nonpayable","type":"function"},{"inputs":[],"name":"loanForeclosureBlock","outputs":[{"internalType":"uint256","name":"","type":"uint256"}],"stateMutability":"view","type":"function"},{"inputs":[],"name":"loanName","outputs":[{"internalType":"string","name":"","type":"string"}],"stateMutability":"view","type":"function"},{"inputs":[],"name":"loanParams","outputs":[{"internalType":"uint256","name":"minRpbRate","type":"uint256"},{"internalType":"uint256","name":"earlySettlementWindow","type":"uint256"},{"internalType":"uint256","name":"foreclosureWindow","type":"uint256"},{"internalType":"uint256","name":"foreclosureRatio","type":"uint256"},{"internalType":"uint256","name":"instantForeclosureRatio","type":"uint256"},{"internalType":"uint256","name":"earlySettlementFee","type":"uint256"}],"stateMutability":"view","type":"function"},{"inputs":[],"name":"loanStatus","outputs":[{"internalType":"enum IJLoanCommons.Status","name":"","type":"uint8"}],"stateMutability":"view","type":"function"},{"inputs":[],"name":"owner","outputs":[{"internalType":"address","name":"","type":"address"}],"stateMutability":"view","type":"function"},{"inputs":[],"name":"renounceOwnership","outputs":[],"stateMutability":"nonpayable","type":"function"},{"inputs":[],"name":"rpbRate","outputs":[{"internalType":"uint256","name":"","type":"uint256"}],"stateMutability":"view","type":"function"},{"inputs":[{"components":[{"internalType":"uint256","name":"minRpbRate","type":"uint256"},{"internalType":"uint256","name":"earlySettlementWindow","type":"uint256"},{"internalType":"uint256","name":"foreclosureWindow","type":"uint256"},{"internalType":"uint256","name":"foreclosureRatio","type":"uint256"},{"internalType":"uint256","name":"instantForeclosureRatio","type":"uint256"},{"internalType":"uint256","name":"earlySettlementFee","type":"uint256"}],"internalType":"struct IJLoanCommons.params","name":"_newLoanParams","type":"tuple"}],"name":"setNewParams","outputs":[],"stateMutability":"nonpayable","type":"function"},{"inputs":[{"internalType":"uint256","name":"_newStatus","type":"uint256"}],"name":"setNewStatus","outputs":[],"stateMutability":"nonpayable","type":"function"},{"inputs":[],"name":"stableContractAddress","outputs":[{"internalType":"address","name":"","type":"address"}],"stateMutability":"view","type":"function"},{"inputs":[],"name":"startCollateralRatio","outputs":[{"internalType":"uint256","name":"","type":"uint256"}],"stateMutability":"view","type":"function"},{"inputs":[],"name":"startPrice","outputs":[{"internalType":"uint256","name":"","type":"uint256"}],"stateMutability":"view","type":"function"},{"inputs":[{"internalType":"address","name":"newOwner","type":"address"}],"name":"transferOwnership","outputs":[],"stateMutability":"nonpayable","type":"function"},{"inputs":[{"internalType":"address payable","name":"_to","type":"address"}],"name":"withdrawEth","outputs":[],"stateMutability":"payable","type":"function"},{"stateMutability":"payable","type":"receive"}],"devdoc":{"kind":"dev","methods":{"owner()":{"details":"Returns the address of the current owner."},"renounceOwnership()":{"details":"Leaves the contract without owner. It will not be possible to call `onlyOwner` functions anymore. Can only be called by the current owner. NOTE: Renouncing ownership will leave the contract without an owner, thereby removing any functionality that is only available to the owner."},"transferOwnership(address)":{"details":"Transfers ownership of the contract to a new account (`newOwner`). Can only be called by the current owner."}},"version":1},"evm":{"assembly":"    /* \"JLoansFactory.sol\":14378:16171  contract JLoanEthPair is JLoanCommons, IJLoanEthPair {\r... */\n  mstore(0x40, 0x80)\n    /* \"JLoansFactory.sol\":14845:15517  constructor(string memory _name, \r... */\n  callvalue\n  dup1\n  iszero\n  tag_1\n  jumpi\n  0x00\n  dup1\n  revert\ntag_1:\n  pop\n  mload(0x40)\n  sub(codesize, bytecodeSize)\n  dup1\n  bytecodeSize\n  dup4\n  codecopy\n  dup2\n  dup2\n  add\n  0x40\n  mstore\n  dup2\n  add\n  swap1\n  tag_2\n  swap2\n  swap1\n  tag_3\n  jump\t// in\ntag_2:\n    /* \"JLoansFactory.sol\":15137:15142  _name */\n  dup7\n    /* \"JLoansFactory.sol\":15145:15153  _rpbRate */\n  dup5\n    /* \"JLoansFactory.sol\":15155:15166  _startPrice */\n  dup5\n    /* \"JLoansFactory.sol\":15168:15181  _passedParams */\n  dup5\n    /* \"JLoansFactory.sol\":15183:15192  _faddress */\n  dup5\n    /* \"JLoansFactory.sol\":7102:7119  address msgSender */\n  0x00\n    /* \"JLoansFactory.sol\":7122:7134  _msgSender() */\n  tag_8\n    /* \"JLoansFactory.sol\":7122:7132  _msgSender */\n  shl(0x20, tag_9)\n    /* \"JLoansFactory.sol\":7122:7134  _msgSender() */\n  0x20\n  shr\n  jump\t// in\ntag_8:\n    /* \"JLoansFactory.sol\":7102:7134  address msgSender = _msgSender() */\n  swap1\n  pop\n    /* \"JLoansFactory.sol\":7154:7163  msgSender */\n  dup1\n    /* \"JLoansFactory.sol\":7145:7151  _owner */\n  0x00\n  dup1\n    /* \"JLoansFactory.sol\":7145:7163  _owner = msgSender */\n  0x0100\n  exp\n  dup2\n  sload\n  dup2\n  0xffffffffffffffffffffffffffffffffffffffff\n  mul\n  not\n  and\n  swap1\n  dup4\n  0xffffffffffffffffffffffffffffffffffffffff\n  and\n  mul\n  or\n  swap1\n  sstore\n  pop\n    /* \"JLoansFactory.sol\":7212:7221  msgSender */\n  dup1\n    /* \"JLoansFactory.sol\":7179:7222  OwnershipTransferred(address(0), msgSender) */\n  0xffffffffffffffffffffffffffffffffffffffff\n  and\n    /* \"JLoansFactory.sol\":7208:7209  0 */\n  0x00\n    /* \"JLoansFactory.sol\":7179:7222  OwnershipTransferred(address(0), msgSender) */\n  0xffffffffffffffffffffffffffffffffffffffff\n  and\n  0x8be0079c531659141344cd1fd0a4f28419497f9722a3daafe3b4186f6b6457e0\n  mload(0x40)\n  mload(0x40)\n  dup1\n  swap2\n  sub\n  swap1\n  log3\n    /* \"JLoansFactory.sol\":7067:7230  constructor () internal {\r... */\n  pop\n    /* \"JLoansFactory.sol\":12777:12790  _passedParams */\n  dup2\n    /* \"JLoansFactory.sol\":12764:12774  loanParams */\n  0x01\n    /* \"JLoansFactory.sol\":12764:12790  loanParams = _passedParams */\n  0x00\n  dup3\n  add\n  mload\n  dup2\n  0x00\n  add\n  sstore\n  0x20\n  dup3\n  add\n  mload\n  dup2\n  0x01\n  add\n  sstore\n  0x40\n  dup3\n  add\n  mload\n  dup2\n  0x02\n  add\n  sstore\n  0x60\n  dup3\n  add\n  mload\n  dup2\n  0x03\n  add\n  sstore\n  0x80\n  dup3\n  add\n  mload\n  dup2\n  0x04\n  add\n  sstore\n  0xa0\n  dup3\n  add\n  mload\n  dup2\n  0x05\n  add\n  sstore\n  swap1\n  pop\n  pop\n    /* \"JLoansFactory.sol\":12821:12831  loanParams */\n  0x01\n    /* \"JLoansFactory.sol\":12821:12842  loanParams.minRpbRate */\n  0x00\n  add\n  sload\n    /* \"JLoansFactory.sol\":12809:12817  _rpbRate */\n  dup5\n    /* \"JLoansFactory.sol\":12809:12842  _rpbRate >= loanParams.minRpbRate */\n  lt\n  iszero\n    /* \"JLoansFactory.sol\":12801:12864  require(_rpbRate >= loanParams.minRpbRate, \"Interest too low!\") */\n  tag_11\n  jumpi\n  mload(0x40)\n  0x08c379a000000000000000000000000000000000000000000000000000000000\n  dup2\n  mstore\n  0x04\n  add\n  tag_12\n  swap1\n  tag_13\n  jump\t// in\ntag_12:\n  mload(0x40)\n  dup1\n  swap2\n  sub\n  swap1\n  revert\ntag_11:\n    /* \"JLoansFactory.sol\":12886:12891  _name */\n  dup5\n    /* \"JLoansFactory.sol\":12875:12883  loanName */\n  0x08\n    /* \"JLoansFactory.sol\":12875:12891  loanName = _name */\n  swap1\n  dup1\n  mload\n  swap1\n  0x20\n  add\n  swap1\n  tag_14\n  swap3\n  swap2\n  swap1\n  tag_15\n  jump\t// in\ntag_14:\n  pop\n    /* \"JLoansFactory.sol\":12915:12926  _startPrice */\n  dup3\n    /* \"JLoansFactory.sol\":12902:12912  startPrice */\n  0x0a\n    /* \"JLoansFactory.sol\":12902:12926  startPrice = _startPrice */\n  dup2\n  swap1\n  sstore\n  pop\n    /* \"JLoansFactory.sol\":12954:12963  _faddress */\n  dup1\n    /* \"JLoansFactory.sol\":12937:12951  factoryAddress */\n  0x12\n  0x00\n    /* \"JLoansFactory.sol\":12937:12963  factoryAddress = _faddress */\n  0x0100\n  exp\n  dup2\n  sload\n  dup2\n  0xffffffffffffffffffffffffffffffffffffffff\n  mul\n  not\n  and\n  swap1\n  dup4\n  0xffffffffffffffffffffffffffffffffffffffff\n  and\n  mul\n  or\n  swap1\n  sstore\n  pop\n    /* \"JLoansFactory.sol\":12984:12992  _rpbRate */\n  dup4\n    /* \"JLoansFactory.sol\":12974:12981  rpbRate */\n  0x09\n    /* \"JLoansFactory.sol\":12974:12992  rpbRate = _rpbRate */\n  dup2\n  swap1\n  sstore\n  pop\n    /* \"JLoansFactory.sol\":13019:13031  block.number */\n  number\n    /* \"JLoansFactory.sol\":13003:13016  creationBlock */\n  0x0c\n    /* \"JLoansFactory.sol\":13003:13031  creationBlock = block.number */\n  dup2\n  swap1\n  sstore\n  pop\n    /* \"JLoansFactory.sol\":13047:13082  LoanContractDeployed(creationBlock) */\n  0x656ad37b815087d90f0c4cbdbf28a9ef3e92cfeb045dd15eaa452cc8b1d34e00\n    /* \"JLoansFactory.sol\":13068:13081  creationBlock */\n  sload(0x0c)\n    /* \"JLoansFactory.sol\":13047:13082  LoanContractDeployed(creationBlock) */\n  mload(0x40)\n  tag_16\n  swap2\n  swap1\n  tag_17\n  jump\t// in\ntag_16:\n  mload(0x40)\n  dup1\n  swap2\n  sub\n  swap1\n  log1\n    /* \"JLoansFactory.sol\":12561:13090  constructor(string memory _name, \r... */\n  pop\n  pop\n  pop\n  pop\n  pop\n    /* \"JLoansFactory.sol\":15237:15252  _borrowedCrypto */\n  dup6\n    /* \"JLoansFactory.sol\":15214:15234  chosenBorrowedCrypto */\n  0x14\n    /* \"JLoansFactory.sol\":15214:15252  chosenBorrowedCrypto = _borrowedCrypto */\n  swap1\n  dup1\n  mload\n  swap1\n  0x20\n  add\n  swap1\n  tag_19\n  swap3\n  swap2\n  swap1\n  tag_15\n  jump\t// in\ntag_19:\n  pop\n    /* \"JLoansFactory.sol\":15334:15352  _borrowedAskAmount */\n  dup5\n    /* \"JLoansFactory.sol\":15314:15331  askedBorrowAmount */\n  0x15\n    /* \"JLoansFactory.sol\":15314:15352  askedBorrowAmount = _borrowedAskAmount */\n  dup2\n  swap1\n  sstore\n  pop\n    /* \"JLoansFactory.sol\":15386:15400  Status.pending */\n  0x00\n    /* \"JLoansFactory.sol\":15373:15383  loanStatus */\n  0x07\n  0x00\n    /* \"JLoansFactory.sol\":15373:15400  loanStatus = Status.pending */\n  0x0100\n  exp\n  dup2\n  sload\n  dup2\n  0xff\n  mul\n  not\n  and\n  swap1\n  dup4\n  0x04\n  dup2\n  gt\n  iszero\n  tag_20\n  jumpi\n  invalid\ntag_20:\n  mul\n  or\n  swap1\n  sstore\n  pop\n    /* \"JLoansFactory.sol\":15429:15430  0 */\n  0x00\n    /* \"JLoansFactory.sol\":15411:15426  borrowerBalance */\n  0x10\n    /* \"JLoansFactory.sol\":15411:15430  borrowerBalance = 0 */\n  dup2\n  swap1\n  sstore\n  pop\n    /* \"JLoansFactory.sol\":15457:15458  0 */\n  0x00\n    /* \"JLoansFactory.sol\":15441:15454  lenderBalance */\n  0x11\n    /* \"JLoansFactory.sol\":15441:15458  lenderBalance = 0 */\n  dup2\n  swap1\n  sstore\n  pop\n    /* \"JLoansFactory.sol\":15474:15509  LoanContractDeployed(creationBlock) */\n  0x656ad37b815087d90f0c4cbdbf28a9ef3e92cfeb045dd15eaa452cc8b1d34e00\n    /* \"JLoansFactory.sol\":15495:15508  creationBlock */\n  sload(0x0c)\n    /* \"JLoansFactory.sol\":15474:15509  LoanContractDeployed(creationBlock) */\n  mload(0x40)\n  tag_21\n  swap2\n  swap1\n  tag_17\n  jump\t// in\ntag_21:\n  mload(0x40)\n  dup1\n  swap2\n  sub\n  swap1\n  log1\n    /* \"JLoansFactory.sol\":14845:15517  constructor(string memory _name, \r... */\n  pop\n  pop\n  pop\n  pop\n  pop\n  pop\n  pop\n    /* \"JLoansFactory.sol\":14378:16171  contract JLoanEthPair is JLoanCommons, IJLoanEthPair {\r... */\n  jump(tag_22)\n    /* \"JLoansFactory.sol\":5945:6051  function _msgSender() internal view virtual returns (address payable) {\r... */\ntag_9:\n    /* \"JLoansFactory.sol\":5998:6013  address payable */\n  0x00\n    /* \"JLoansFactory.sol\":6033:6043  msg.sender */\n  caller\n    /* \"JLoansFactory.sol\":6026:6043  return msg.sender */\n  swap1\n  pop\n    /* \"JLoansFactory.sol\":5945:6051  function _msgSender() internal view virtual returns (address payable) {\r... */\n  swap1\n  jump\t// out\n    /* \"JLoansFactory.sol\":14378:16171  contract JLoanEthPair is JLoanCommons, IJLoanEthPair {\r... */\ntag_15:\n  dup3\n  dup1\n  sload\n  0x01\n  dup2\n  0x01\n  and\n  iszero\n  0x0100\n  mul\n  sub\n  and\n  0x02\n  swap1\n  div\n  swap1\n  0x00\n  mstore\n  keccak256(0x00, 0x20)\n  swap1\n  0x1f\n  add\n  0x20\n  swap1\n  div\n  dup2\n  add\n  swap3\n  dup3\n  0x1f\n  lt\n  tag_25\n  jumpi\n  dup1\n  mload\n  not(0xff)\n  and\n  dup4\n  dup1\n  add\n  or\n  dup6\n  sstore\n  jump(tag_24)\ntag_25:\n  dup3\n  dup1\n  add\n  0x01\n  add\n  dup6\n  sstore\n  dup3\n  iszero\n  tag_24\n  jumpi\n  swap2\n  dup3\n  add\ntag_26:\n  dup3\n  dup2\n  gt\n  iszero\n  tag_27\n  jumpi\n  dup3\n  mload\n  dup3\n  sstore\n  swap2\n  0x20\n  add\n  swap2\n  swap1\n  0x01\n  add\n  swap1\n  jump(tag_26)\ntag_27:\ntag_24:\n  pop\n  swap1\n  pop\n  tag_28\n  swap2\n  swap1\n  tag_29\n  jump\t// in\ntag_28:\n  pop\n  swap1\n  jump\t// out\ntag_29:\ntag_30:\n  dup1\n  dup3\n  gt\n  iszero\n  tag_31\n  jumpi\n  0x00\n  dup2\n  0x00\n  swap1\n  sstore\n  pop\n  0x01\n  add\n  jump(tag_30)\ntag_31:\n  pop\n  swap1\n  jump\t// out\n    /* \"--CODEGEN--\":5:139   */\ntag_33:\n  0x00\n    /* \"--CODEGEN--\":89:95   */\n  dup2\n    /* \"--CODEGEN--\":83:96   */\n  mload\n    /* \"--CODEGEN--\":74:96   */\n  swap1\n  pop\n    /* \"--CODEGEN--\":101:134   */\n  tag_35\n    /* \"--CODEGEN--\":128:133   */\n  dup2\n    /* \"--CODEGEN--\":101:134   */\n  tag_36\n  jump\t// in\ntag_35:\n    /* \"--CODEGEN--\":68:139   */\n  swap3\n  swap2\n  pop\n  pop\n  jump\t// out\n    /* \"--CODEGEN--\":147:591   */\ntag_37:\n  0x00\n    /* \"--CODEGEN--\":260:263   */\n  dup3\n    /* \"--CODEGEN--\":253:257   */\n  0x1f\n    /* \"--CODEGEN--\":245:251   */\n  dup4\n    /* \"--CODEGEN--\":241:258   */\n  add\n    /* \"--CODEGEN--\":237:264   */\n  slt\n    /* \"--CODEGEN--\":227:229   */\n  tag_39\n  jumpi\n    /* \"--CODEGEN--\":278:279   */\n  0x00\n    /* \"--CODEGEN--\":275:276   */\n  dup1\n    /* \"--CODEGEN--\":268:280   */\n  revert\n    /* \"--CODEGEN--\":227:229   */\ntag_39:\n    /* \"--CODEGEN--\":308:314   */\n  dup2\n    /* \"--CODEGEN--\":302:315   */\n  mload\n    /* \"--CODEGEN--\":330:395   */\n  tag_40\n    /* \"--CODEGEN--\":345:394   */\n  tag_41\n    /* \"--CODEGEN--\":387:393   */\n  dup3\n    /* \"--CODEGEN--\":345:394   */\n  tag_42\n  jump\t// in\ntag_41:\n    /* \"--CODEGEN--\":330:395   */\n  tag_43\n  jump\t// in\ntag_40:\n    /* \"--CODEGEN--\":321:395   */\n  swap2\n  pop\n    /* \"--CODEGEN--\":415:421   */\n  dup1\n    /* \"--CODEGEN--\":408:413   */\n  dup3\n    /* \"--CODEGEN--\":401:422   */\n  mstore\n    /* \"--CODEGEN--\":451:455   */\n  0x20\n    /* \"--CODEGEN--\":443:449   */\n  dup4\n    /* \"--CODEGEN--\":439:456   */\n  add\n    /* \"--CODEGEN--\":484:488   */\n  0x20\n    /* \"--CODEGEN--\":477:482   */\n  dup4\n    /* \"--CODEGEN--\":473:489   */\n  add\n    /* \"--CODEGEN--\":519:522   */\n  dup6\n    /* \"--CODEGEN--\":510:516   */\n  dup4\n    /* \"--CODEGEN--\":505:508   */\n  dup4\n    /* \"--CODEGEN--\":501:517   */\n  add\n    /* \"--CODEGEN--\":498:523   */\n  gt\n    /* \"--CODEGEN--\":495:497   */\n  iszero\n  tag_44\n  jumpi\n    /* \"--CODEGEN--\":536:537   */\n  0x00\n    /* \"--CODEGEN--\":533:534   */\n  dup1\n    /* \"--CODEGEN--\":526:538   */\n  revert\n    /* \"--CODEGEN--\":495:497   */\ntag_44:\n    /* \"--CODEGEN--\":546:585   */\n  tag_45\n    /* \"--CODEGEN--\":578:584   */\n  dup4\n    /* \"--CODEGEN--\":573:576   */\n  dup3\n    /* \"--CODEGEN--\":568:571   */\n  dup5\n    /* \"--CODEGEN--\":546:585   */\n  tag_46\n  jump\t// in\ntag_45:\n    /* \"--CODEGEN--\":220:591   */\n  pop\n  pop\n  pop\n  swap3\n  swap2\n  pop\n  pop\n  jump\t// out\n    /* \"--CODEGEN--\":633:1834   */\ntag_47:\n  0x00\n    /* \"--CODEGEN--\":756:760   */\n  0xc0\n    /* \"--CODEGEN--\":744:753   */\n  dup3\n    /* \"--CODEGEN--\":739:742   */\n  dup5\n    /* \"--CODEGEN--\":735:754   */\n  sub\n    /* \"--CODEGEN--\":731:761   */\n  slt\n    /* \"--CODEGEN--\":728:730   */\n  iszero\n  tag_49\n  jumpi\n    /* \"--CODEGEN--\":774:775   */\n  0x00\n    /* \"--CODEGEN--\":771:772   */\n  dup1\n    /* \"--CODEGEN--\":764:776   */\n  revert\n    /* \"--CODEGEN--\":728:730   */\ntag_49:\n    /* \"--CODEGEN--\":792:812   */\n  tag_50\n    /* \"--CODEGEN--\":807:811   */\n  0xc0\n    /* \"--CODEGEN--\":792:812   */\n  tag_43\n  jump\t// in\ntag_50:\n    /* \"--CODEGEN--\":783:812   */\n  swap1\n  pop\n    /* \"--CODEGEN--\":868:869   */\n  0x00\n    /* \"--CODEGEN--\":900:960   */\n  tag_51\n    /* \"--CODEGEN--\":956:959   */\n  dup5\n    /* \"--CODEGEN--\":947:953   */\n  dup3\n    /* \"--CODEGEN--\":936:945   */\n  dup6\n    /* \"--CODEGEN--\":932:954   */\n  add\n    /* \"--CODEGEN--\":900:960   */\n  tag_52\n  jump\t// in\ntag_51:\n    /* \"--CODEGEN--\":893:897   */\n  0x00\n    /* \"--CODEGEN--\":886:891   */\n  dup4\n    /* \"--CODEGEN--\":882:898   */\n  add\n    /* \"--CODEGEN--\":875:961   */\n  mstore\n    /* \"--CODEGEN--\":822:972   */\n  pop\n    /* \"--CODEGEN--\":1039:1041   */\n  0x20\n    /* \"--CODEGEN--\":1072:1132   */\n  tag_53\n    /* \"--CODEGEN--\":1128:1131   */\n  dup5\n    /* \"--CODEGEN--\":1119:1125   */\n  dup3\n    /* \"--CODEGEN--\":1108:1117   */\n  dup6\n    /* \"--CODEGEN--\":1104:1126   */\n  add\n    /* \"--CODEGEN--\":1072:1132   */\n  tag_52\n  jump\t// in\ntag_53:\n    /* \"--CODEGEN--\":1065:1069   */\n  0x20\n    /* \"--CODEGEN--\":1058:1063   */\n  dup4\n    /* \"--CODEGEN--\":1054:1070   */\n  add\n    /* \"--CODEGEN--\":1047:1133   */\n  mstore\n    /* \"--CODEGEN--\":982:1144   */\n  pop\n    /* \"--CODEGEN--\":1207:1209   */\n  0x40\n    /* \"--CODEGEN--\":1240:1300   */\n  tag_54\n    /* \"--CODEGEN--\":1296:1299   */\n  dup5\n    /* \"--CODEGEN--\":1287:1293   */\n  dup3\n    /* \"--CODEGEN--\":1276:1285   */\n  dup6\n    /* \"--CODEGEN--\":1272:1294   */\n  add\n    /* \"--CODEGEN--\":1240:1300   */\n  tag_52\n  jump\t// in\ntag_54:\n    /* \"--CODEGEN--\":1233:1237   */\n  0x40\n    /* \"--CODEGEN--\":1226:1231   */\n  dup4\n    /* \"--CODEGEN--\":1222:1238   */\n  add\n    /* \"--CODEGEN--\":1215:1301   */\n  mstore\n    /* \"--CODEGEN--\":1154:1312   */\n  pop\n    /* \"--CODEGEN--\":1374:1376   */\n  0x60\n    /* \"--CODEGEN--\":1407:1467   */\n  tag_55\n    /* \"--CODEGEN--\":1463:1466   */\n  dup5\n    /* \"--CODEGEN--\":1454:1460   */\n  dup3\n    /* \"--CODEGEN--\":1443:1452   */\n  dup6\n    /* \"--CODEGEN--\":1439:1461   */\n  add\n    /* \"--CODEGEN--\":1407:1467   */\n  tag_52\n  jump\t// in\ntag_55:\n    /* \"--CODEGEN--\":1400:1404   */\n  0x60\n    /* \"--CODEGEN--\":1393:1398   */\n  dup4\n    /* \"--CODEGEN--\":1389:1405   */\n  add\n    /* \"--CODEGEN--\":1382:1468   */\n  mstore\n    /* \"--CODEGEN--\":1322:1479   */\n  pop\n    /* \"--CODEGEN--\":1548:1551   */\n  0x80\n    /* \"--CODEGEN--\":1582:1642   */\n  tag_56\n    /* \"--CODEGEN--\":1638:1641   */\n  dup5\n    /* \"--CODEGEN--\":1629:1635   */\n  dup3\n    /* \"--CODEGEN--\":1618:1627   */\n  dup6\n    /* \"--CODEGEN--\":1614:1636   */\n  add\n    /* \"--CODEGEN--\":1582:1642   */\n  tag_52\n  jump\t// in\ntag_56:\n    /* \"--CODEGEN--\":1575:1579   */\n  0x80\n    /* \"--CODEGEN--\":1568:1573   */\n  dup4\n    /* \"--CODEGEN--\":1564:1580   */\n  add\n    /* \"--CODEGEN--\":1557:1643   */\n  mstore\n    /* \"--CODEGEN--\":1489:1654   */\n  pop\n    /* \"--CODEGEN--\":1718:1721   */\n  0xa0\n    /* \"--CODEGEN--\":1752:1812   */\n  tag_57\n    /* \"--CODEGEN--\":1808:1811   */\n  dup5\n    /* \"--CODEGEN--\":1799:1805   */\n  dup3\n    /* \"--CODEGEN--\":1788:1797   */\n  dup6\n    /* \"--CODEGEN--\":1784:1806   */\n  add\n    /* \"--CODEGEN--\":1752:1812   */\n  tag_52\n  jump\t// in\ntag_57:\n    /* \"--CODEGEN--\":1745:1749   */\n  0xa0\n    /* \"--CODEGEN--\":1738:1743   */\n  dup4\n    /* \"--CODEGEN--\":1734:1750   */\n  add\n    /* \"--CODEGEN--\":1727:1813   */\n  mstore\n    /* \"--CODEGEN--\":1664:1824   */\n  pop\n    /* \"--CODEGEN--\":722:1834   */\n  swap3\n  swap2\n  pop\n  pop\n  jump\t// out\n    /* \"--CODEGEN--\":1841:1975   */\ntag_52:\n  0x00\n    /* \"--CODEGEN--\":1925:1931   */\n  dup2\n    /* \"--CODEGEN--\":1919:1932   */\n  mload\n    /* \"--CODEGEN--\":1910:1932   */\n  swap1\n  pop\n    /* \"--CODEGEN--\":1937:1970   */\n  tag_59\n    /* \"--CODEGEN--\":1964:1969   */\n  dup2\n    /* \"--CODEGEN--\":1937:1970   */\n  tag_60\n  jump\t// in\ntag_59:\n    /* \"--CODEGEN--\":1904:1975   */\n  swap3\n  swap2\n  pop\n  pop\n  jump\t// out\n    /* \"--CODEGEN--\":1982:3309   */\ntag_3:\n  0x00\n  dup1\n  0x00\n  dup1\n  0x00\n  dup1\n  0x00\n    /* \"--CODEGEN--\":2242:2245   */\n  0x0180\n    /* \"--CODEGEN--\":2230:2239   */\n  dup9\n    /* \"--CODEGEN--\":2221:2228   */\n  dup11\n    /* \"--CODEGEN--\":2217:2240   */\n  sub\n    /* \"--CODEGEN--\":2213:2246   */\n  slt\n    /* \"--CODEGEN--\":2210:2212   */\n  iszero\n  tag_62\n  jumpi\n    /* \"--CODEGEN--\":2259:2260   */\n  0x00\n    /* \"--CODEGEN--\":2256:2257   */\n  dup1\n    /* \"--CODEGEN--\":2249:2261   */\n  revert\n    /* \"--CODEGEN--\":2210:2212   */\ntag_62:\n    /* \"--CODEGEN--\":2315:2316   */\n  0x00\n    /* \"--CODEGEN--\":2304:2313   */\n  dup9\n    /* \"--CODEGEN--\":2300:2317   */\n  add\n    /* \"--CODEGEN--\":2294:2318   */\n  mload\n    /* \"--CODEGEN--\":2338:2356   */\n  0xffffffffffffffff\n    /* \"--CODEGEN--\":2330:2336   */\n  dup2\n    /* \"--CODEGEN--\":2327:2357   */\n  gt\n    /* \"--CODEGEN--\":2324:2326   */\n  iszero\n  tag_63\n  jumpi\n    /* \"--CODEGEN--\":2370:2371   */\n  0x00\n    /* \"--CODEGEN--\":2367:2368   */\n  dup1\n    /* \"--CODEGEN--\":2360:2372   */\n  revert\n    /* \"--CODEGEN--\":2324:2326   */\ntag_63:\n    /* \"--CODEGEN--\":2390:2464   */\n  tag_64\n    /* \"--CODEGEN--\":2456:2463   */\n  dup11\n    /* \"--CODEGEN--\":2447:2453   */\n  dup3\n    /* \"--CODEGEN--\":2436:2445   */\n  dup12\n    /* \"--CODEGEN--\":2432:2454   */\n  add\n    /* \"--CODEGEN--\":2390:2464   */\n  tag_37\n  jump\t// in\ntag_64:\n    /* \"--CODEGEN--\":2380:2464   */\n  swap8\n  pop\n    /* \"--CODEGEN--\":2273:2470   */\n  pop\n    /* \"--CODEGEN--\":2522:2524   */\n  0x20\n    /* \"--CODEGEN--\":2511:2520   */\n  dup9\n    /* \"--CODEGEN--\":2507:2525   */\n  add\n    /* \"--CODEGEN--\":2501:2526   */\n  mload\n    /* \"--CODEGEN--\":2546:2564   */\n  0xffffffffffffffff\n    /* \"--CODEGEN--\":2538:2544   */\n  dup2\n    /* \"--CODEGEN--\":2535:2565   */\n  gt\n    /* \"--CODEGEN--\":2532:2534   */\n  iszero\n  tag_65\n  jumpi\n    /* \"--CODEGEN--\":2578:2579   */\n  0x00\n    /* \"--CODEGEN--\":2575:2576   */\n  dup1\n    /* \"--CODEGEN--\":2568:2580   */\n  revert\n    /* \"--CODEGEN--\":2532:2534   */\ntag_65:\n    /* \"--CODEGEN--\":2598:2672   */\n  tag_66\n    /* \"--CODEGEN--\":2664:2671   */\n  dup11\n    /* \"--CODEGEN--\":2655:2661   */\n  dup3\n    /* \"--CODEGEN--\":2644:2653   */\n  dup12\n    /* \"--CODEGEN--\":2640:2662   */\n  add\n    /* \"--CODEGEN--\":2598:2672   */\n  tag_37\n  jump\t// in\ntag_66:\n    /* \"--CODEGEN--\":2588:2672   */\n  swap7\n  pop\n    /* \"--CODEGEN--\":2480:2678   */\n  pop\n    /* \"--CODEGEN--\":2709:2711   */\n  0x40\n    /* \"--CODEGEN--\":2727:2791   */\n  tag_67\n    /* \"--CODEGEN--\":2783:2790   */\n  dup11\n    /* \"--CODEGEN--\":2774:2780   */\n  dup3\n    /* \"--CODEGEN--\":2763:2772   */\n  dup12\n    /* \"--CODEGEN--\":2759:2781   */\n  add\n    /* \"--CODEGEN--\":2727:2791   */\n  tag_52\n  jump\t// in\ntag_67:\n    /* \"--CODEGEN--\":2717:2791   */\n  swap6\n  pop\n    /* \"--CODEGEN--\":2688:2797   */\n  pop\n    /* \"--CODEGEN--\":2828:2830   */\n  0x60\n    /* \"--CODEGEN--\":2846:2910   */\n  tag_68\n    /* \"--CODEGEN--\":2902:2909   */\n  dup11\n    /* \"--CODEGEN--\":2893:2899   */\n  dup3\n    /* \"--CODEGEN--\":2882:2891   */\n  dup12\n    /* \"--CODEGEN--\":2878:2900   */\n  add\n    /* \"--CODEGEN--\":2846:2910   */\n  tag_52\n  jump\t// in\ntag_68:\n    /* \"--CODEGEN--\":2836:2910   */\n  swap5\n  pop\n    /* \"--CODEGEN--\":2807:2916   */\n  pop\n    /* \"--CODEGEN--\":2947:2950   */\n  0x80\n    /* \"--CODEGEN--\":2966:3030   */\n  tag_69\n    /* \"--CODEGEN--\":3022:3029   */\n  dup11\n    /* \"--CODEGEN--\":3013:3019   */\n  dup3\n    /* \"--CODEGEN--\":3002:3011   */\n  dup12\n    /* \"--CODEGEN--\":2998:3020   */\n  add\n    /* \"--CODEGEN--\":2966:3030   */\n  tag_52\n  jump\t// in\ntag_69:\n    /* \"--CODEGEN--\":2956:3030   */\n  swap4\n  pop\n    /* \"--CODEGEN--\":2926:3036   */\n  pop\n    /* \"--CODEGEN--\":3067:3070   */\n  0xa0\n    /* \"--CODEGEN--\":3086:3173   */\n  tag_70\n    /* \"--CODEGEN--\":3165:3172   */\n  dup11\n    /* \"--CODEGEN--\":3156:3162   */\n  dup3\n    /* \"--CODEGEN--\":3145:3154   */\n  dup12\n    /* \"--CODEGEN--\":3141:3163   */\n  add\n    /* \"--CODEGEN--\":3086:3173   */\n  tag_47\n  jump\t// in\ntag_70:\n    /* \"--CODEGEN--\":3076:3173   */\n  swap3\n  pop\n    /* \"--CODEGEN--\":3046:3179   */\n  pop\n    /* \"--CODEGEN--\":3210:3213   */\n  0x0160\n    /* \"--CODEGEN--\":3229:3293   */\n  tag_71\n    /* \"--CODEGEN--\":3285:3292   */\n  dup11\n    /* \"--CODEGEN--\":3276:3282   */\n  dup3\n    /* \"--CODEGEN--\":3265:3274   */\n  dup12\n    /* \"--CODEGEN--\":3261:3283   */\n  add\n    /* \"--CODEGEN--\":3229:3293   */\n  tag_33\n  jump\t// in\ntag_71:\n    /* \"--CODEGEN--\":3219:3293   */\n  swap2\n  pop\n    /* \"--CODEGEN--\":3189:3299   */\n  pop\n    /* \"--CODEGEN--\":2204:3309   */\n  swap3\n  swap6\n  swap9\n  swap2\n  swap5\n  swap8\n  pop\n  swap3\n  swap6\n  pop\n  jump\t// out\n    /* \"--CODEGEN--\":3317:3634   */\ntag_72:\n  0x00\n    /* \"--CODEGEN--\":3477:3544   */\n  tag_74\n    /* \"--CODEGEN--\":3541:3543   */\n  0x11\n    /* \"--CODEGEN--\":3536:3539   */\n  dup4\n    /* \"--CODEGEN--\":3477:3544   */\n  tag_75\n  jump\t// in\ntag_74:\n    /* \"--CODEGEN--\":3470:3544   */\n  swap2\n  pop\n    /* \"--CODEGEN--\":3577:3596   */\n  0x496e74657265737420746f6f206c6f7721000000000000000000000000000000\n    /* \"--CODEGEN--\":3573:3574   */\n  0x00\n    /* \"--CODEGEN--\":3568:3571   */\n  dup4\n    /* \"--CODEGEN--\":3564:3575   */\n  add\n    /* \"--CODEGEN--\":3557:3597   */\n  mstore\n    /* \"--CODEGEN--\":3625:3627   */\n  0x20\n    /* \"--CODEGEN--\":3620:3623   */\n  dup3\n    /* \"--CODEGEN--\":3616:3628   */\n  add\n    /* \"--CODEGEN--\":3609:3628   */\n  swap1\n  pop\n    /* \"--CODEGEN--\":3463:3634   */\n  swap2\n  swap1\n  pop\n  jump\t// out\n    /* \"--CODEGEN--\":3642:3755   */\ntag_76:\n    /* \"--CODEGEN--\":3725:3749   */\n  tag_78\n    /* \"--CODEGEN--\":3743:3748   */\n  dup2\n    /* \"--CODEGEN--\":3725:3749   */\n  tag_79\n  jump\t// in\ntag_78:\n    /* \"--CODEGEN--\":3720:3723   */\n  dup3\n    /* \"--CODEGEN--\":3713:3750   */\n  mstore\n    /* \"--CODEGEN--\":3707:3755   */\n  pop\n  pop\n  jump\t// out\n    /* \"--CODEGEN--\":3762:4178   */\ntag_13:\n  0x00\n    /* \"--CODEGEN--\":3962:3964   */\n  0x20\n    /* \"--CODEGEN--\":3951:3960   */\n  dup3\n    /* \"--CODEGEN--\":3947:3965   */\n  add\n    /* \"--CODEGEN--\":3939:3965   */\n  swap1\n  pop\n    /* \"--CODEGEN--\":4012:4021   */\n  dup2\n    /* \"--CODEGEN--\":4006:4010   */\n  dup2\n    /* \"--CODEGEN--\":4002:4022   */\n  sub\n    /* \"--CODEGEN--\":3998:3999   */\n  0x00\n    /* \"--CODEGEN--\":3987:3996   */\n  dup4\n    /* \"--CODEGEN--\":3983:4000   */\n  add\n    /* \"--CODEGEN--\":3976:4023   */\n  mstore\n    /* \"--CODEGEN--\":4037:4168   */\n  tag_81\n    /* \"--CODEGEN--\":4163:4167   */\n  dup2\n    /* \"--CODEGEN--\":4037:4168   */\n  tag_72\n  jump\t// in\ntag_81:\n    /* \"--CODEGEN--\":4029:4168   */\n  swap1\n  pop\n    /* \"--CODEGEN--\":3933:4178   */\n  swap2\n  swap1\n  pop\n  jump\t// out\n    /* \"--CODEGEN--\":4185:4407   */\ntag_17:\n  0x00\n    /* \"--CODEGEN--\":4312:4314   */\n  0x20\n    /* \"--CODEGEN--\":4301:4310   */\n  dup3\n    /* \"--CODEGEN--\":4297:4315   */\n  add\n    /* \"--CODEGEN--\":4289:4315   */\n  swap1\n  pop\n    /* \"--CODEGEN--\":4326:4397   */\n  tag_83\n    /* \"--CODEGEN--\":4394:4395   */\n  0x00\n    /* \"--CODEGEN--\":4383:4392   */\n  dup4\n    /* \"--CODEGEN--\":4379:4396   */\n  add\n    /* \"--CODEGEN--\":4370:4376   */\n  dup5\n    /* \"--CODEGEN--\":4326:4397   */\n  tag_76\n  jump\t// in\ntag_83:\n    /* \"--CODEGEN--\":4283:4407   */\n  swap3\n  swap2\n  pop\n  pop\n  jump\t// out\n    /* \"--CODEGEN--\":4414:4670   */\ntag_43:\n  0x00\n    /* \"--CODEGEN--\":4476:4478   */\n  0x40\n    /* \"--CODEGEN--\":4470:4479   */\n  mload\n    /* \"--CODEGEN--\":4460:4479   */\n  swap1\n  pop\n    /* \"--CODEGEN--\":4514:4518   */\n  dup2\n    /* \"--CODEGEN--\":4506:4512   */\n  dup2\n    /* \"--CODEGEN--\":4502:4519   */\n  add\n    /* \"--CODEGEN--\":4613:4619   */\n  dup2\n    /* \"--CODEGEN--\":4601:4611   */\n  dup2\n    /* \"--CODEGEN--\":4598:4620   */\n  lt\n    /* \"--CODEGEN--\":4577:4595   */\n  0xffffffffffffffff\n    /* \"--CODEGEN--\":4565:4575   */\n  dup3\n    /* \"--CODEGEN--\":4562:4596   */\n  gt\n    /* \"--CODEGEN--\":4559:4621   */\n  or\n    /* \"--CODEGEN--\":4556:4558   */\n  iszero\n  tag_85\n  jumpi\n    /* \"--CODEGEN--\":4634:4635   */\n  0x00\n    /* \"--CODEGEN--\":4631:4632   */\n  dup1\n    /* \"--CODEGEN--\":4624:4636   */\n  revert\n    /* \"--CODEGEN--\":4556:4558   */\ntag_85:\n    /* \"--CODEGEN--\":4654:4664   */\n  dup1\n    /* \"--CODEGEN--\":4650:4652   */\n  0x40\n    /* \"--CODEGEN--\":4643:4665   */\n  mstore\n    /* \"--CODEGEN--\":4454:4670   */\n  pop\n  swap2\n  swap1\n  pop\n  jump\t// out\n    /* \"--CODEGEN--\":4677:4999   */\ntag_42:\n  0x00\n    /* \"--CODEGEN--\":4821:4839   */\n  0xffffffffffffffff\n    /* \"--CODEGEN--\":4813:4819   */\n  dup3\n    /* \"--CODEGEN--\":4810:4840   */\n  gt\n    /* \"--CODEGEN--\":4807:4809   */\n  iszero\n  tag_87\n  jumpi\n    /* \"--CODEGEN--\":4853:4854   */\n  0x00\n    /* \"--CODEGEN--\":4850:4851   */\n  dup1\n    /* \"--CODEGEN--\":4843:4855   */\n  revert\n    /* \"--CODEGEN--\":4807:4809   */\ntag_87:\n    /* \"--CODEGEN--\":4920:4924   */\n  0x1f\n    /* \"--CODEGEN--\":4916:4925   */\n  not\n    /* \"--CODEGEN--\":4909:4913   */\n  0x1f\n    /* \"--CODEGEN--\":4901:4907   */\n  dup4\n    /* \"--CODEGEN--\":4897:4914   */\n  add\n    /* \"--CODEGEN--\":4893:4926   */\n  and\n    /* \"--CODEGEN--\":4885:4926   */\n  swap1\n  pop\n    /* \"--CODEGEN--\":4984:4988   */\n  0x20\n    /* \"--CODEGEN--\":4978:4982   */\n  dup2\n    /* \"--CODEGEN--\":4974:4989   */\n  add\n    /* \"--CODEGEN--\":4966:4989   */\n  swap1\n  pop\n    /* \"--CODEGEN--\":4744:4999   */\n  swap2\n  swap1\n  pop\n  jump\t// out\n    /* \"--CODEGEN--\":5007:5170   */\ntag_75:\n  0x00\n    /* \"--CODEGEN--\":5122:5128   */\n  dup3\n    /* \"--CODEGEN--\":5117:5120   */\n  dup3\n    /* \"--CODEGEN--\":5110:5129   */\n  mstore\n    /* \"--CODEGEN--\":5159:5163   */\n  0x20\n    /* \"--CODEGEN--\":5154:5157   */\n  dup3\n    /* \"--CODEGEN--\":5150:5164   */\n  add\n    /* \"--CODEGEN--\":5135:5164   */\n  swap1\n  pop\n    /* \"--CODEGEN--\":5103:5170   */\n  swap3\n  swap2\n  pop\n  pop\n  jump\t// out\n    /* \"--CODEGEN--\":5178:5269   */\ntag_89:\n  0x00\n    /* \"--CODEGEN--\":5240:5264   */\n  tag_91\n    /* \"--CODEGEN--\":5258:5263   */\n  dup3\n    /* \"--CODEGEN--\":5240:5264   */\n  tag_92\n  jump\t// in\ntag_91:\n    /* \"--CODEGEN--\":5229:5264   */\n  swap1\n  pop\n    /* \"--CODEGEN--\":5223:5269   */\n  swap2\n  swap1\n  pop\n  jump\t// out\n    /* \"--CODEGEN--\":5276:5397   */\ntag_92:\n  0x00\n    /* \"--CODEGEN--\":5349:5391   */\n  0xffffffffffffffffffffffffffffffffffffffff\n    /* \"--CODEGEN--\":5342:5347   */\n  dup3\n    /* \"--CODEGEN--\":5338:5392   */\n  and\n    /* \"--CODEGEN--\":5327:5392   */\n  swap1\n  pop\n    /* \"--CODEGEN--\":5321:5397   */\n  swap2\n  swap1\n  pop\n  jump\t// out\n    /* \"--CODEGEN--\":5404:5476   */\ntag_79:\n  0x00\n    /* \"--CODEGEN--\":5466:5471   */\n  dup2\n    /* \"--CODEGEN--\":5455:5471   */\n  swap1\n  pop\n    /* \"--CODEGEN--\":5449:5476   */\n  swap2\n  swap1\n  pop\n  jump\t// out\n    /* \"--CODEGEN--\":5484:5752   */\ntag_46:\n    /* \"--CODEGEN--\":5549:5550   */\n  0x00\n    /* \"--CODEGEN--\":5556:5657   */\ntag_96:\n    /* \"--CODEGEN--\":5570:5576   */\n  dup4\n    /* \"--CODEGEN--\":5567:5568   */\n  dup2\n    /* \"--CODEGEN--\":5564:5577   */\n  lt\n    /* \"--CODEGEN--\":5556:5657   */\n  iszero\n  tag_98\n  jumpi\n    /* \"--CODEGEN--\":5646:5647   */\n  dup1\n    /* \"--CODEGEN--\":5641:5644   */\n  dup3\n    /* \"--CODEGEN--\":5637:5648   */\n  add\n    /* \"--CODEGEN--\":5631:5649   */\n  mload\n    /* \"--CODEGEN--\":5627:5628   */\n  dup2\n    /* \"--CODEGEN--\":5622:5625   */\n  dup5\n    /* \"--CODEGEN--\":5618:5629   */\n  add\n    /* \"--CODEGEN--\":5611:5650   */\n  mstore\n    /* \"--CODEGEN--\":5592:5594   */\n  0x20\n    /* \"--CODEGEN--\":5589:5590   */\n  dup2\n    /* \"--CODEGEN--\":5585:5595   */\n  add\n    /* \"--CODEGEN--\":5580:5595   */\n  swap1\n  pop\n    /* \"--CODEGEN--\":5556:5657   */\n  jump(tag_96)\ntag_98:\n    /* \"--CODEGEN--\":5672:5678   */\n  dup4\n    /* \"--CODEGEN--\":5669:5670   */\n  dup2\n    /* \"--CODEGEN--\":5666:5679   */\n  gt\n    /* \"--CODEGEN--\":5663:5665   */\n  iszero\n  tag_99\n  jumpi\n    /* \"--CODEGEN--\":5737:5738   */\n  0x00\n    /* \"--CODEGEN--\":5728:5734   */\n  dup5\n    /* \"--CODEGEN--\":5723:5726   */\n  dup5\n    /* \"--CODEGEN--\":5719:5735   */\n  add\n    /* \"--CODEGEN--\":5712:5739   */\n  mstore\n    /* \"--CODEGEN--\":5663:5665   */\ntag_99:\n    /* \"--CODEGEN--\":5533:5752   */\n  pop\n  pop\n  pop\n  pop\n  jump\t// out\n    /* \"--CODEGEN--\":5760:5877   */\ntag_36:\n    /* \"--CODEGEN--\":5829:5853   */\n  tag_101\n    /* \"--CODEGEN--\":5847:5852   */\n  dup2\n    /* \"--CODEGEN--\":5829:5853   */\n  tag_89\n  jump\t// in\ntag_101:\n    /* \"--CODEGEN--\":5822:5827   */\n  dup2\n    /* \"--CODEGEN--\":5819:5854   */\n  eq\n    /* \"--CODEGEN--\":5809:5811   */\n  tag_102\n  jumpi\n    /* \"--CODEGEN--\":5868:5869   */\n  0x00\n    /* \"--CODEGEN--\":5865:5866   */\n  dup1\n    /* \"--CODEGEN--\":5858:5870   */\n  revert\n    /* \"--CODEGEN--\":5809:5811   */\ntag_102:\n    /* \"--CODEGEN--\":5803:5877   */\n  pop\n  jump\t// out\n    /* \"--CODEGEN--\":5884:6001   */\ntag_60:\n    /* \"--CODEGEN--\":5953:5977   */\n  tag_104\n    /* \"--CODEGEN--\":5971:5976   */\n  dup2\n    /* \"--CODEGEN--\":5953:5977   */\n  tag_79\n  jump\t// in\ntag_104:\n    /* \"--CODEGEN--\":5946:5951   */\n  dup2\n    /* \"--CODEGEN--\":5943:5978   */\n  eq\n    /* \"--CODEGEN--\":5933:5935   */\n  tag_105\n  jumpi\n    /* \"--CODEGEN--\":5992:5993   */\n  0x00\n    /* \"--CODEGEN--\":5989:5990   */\n  dup1\n    /* \"--CODEGEN--\":5982:5994   */\n  revert\n    /* \"--CODEGEN--\":5933:5935   */\ntag_105:\n    /* \"--CODEGEN--\":5927:6001   */\n  pop\n  jump\t// out\n    /* \"JLoansFactory.sol\":14378:16171  contract JLoanEthPair is JLoanCommons, IJLoanEthPair {\r... */\ntag_22:\n  dataSize(sub_0)\n  dup1\n  dataOffset(sub_0)\n  0x00\n  codecopy\n  0x00\n  return\nstop\n\nsub_0: assembly {\n        /* \"JLoansFactory.sol\":14378:16171  contract JLoanEthPair is JLoanCommons, IJLoanEthPair {\r... */\n      mstore(0x40, 0x80)\n      jumpi(tag_1, lt(calldatasize, 0x04))\n      shr(0xe0, calldataload(0x00))\n      dup1\n      0x715018a6\n      gt\n      tag_28\n      jumpi\n      dup1\n      0xadc38b06\n      gt\n      tag_29\n      jumpi\n      dup1\n      0xe5acc187\n      gt\n      tag_30\n      jumpi\n      dup1\n      0xe5acc187\n      eq\n      tag_24\n      jumpi\n      dup1\n      0xeaf3a62e\n      eq\n      tag_25\n      jumpi\n      dup1\n      0xf1a9af89\n      eq\n      tag_26\n      jumpi\n      dup1\n      0xf2fde38b\n      eq\n      tag_27\n      jumpi\n      jump(tag_2)\n    tag_30:\n      dup1\n      0xadc38b06\n      eq\n      tag_21\n      jumpi\n      dup1\n      0xb2ca1805\n      eq\n      tag_22\n      jumpi\n      dup1\n      0xc6cb6770\n      eq\n      tag_23\n      jumpi\n      jump(tag_2)\n    tag_29:\n      dup1\n      0x715018a6\n      eq\n      tag_15\n      jumpi\n      dup1\n      0x80cc0269\n      eq\n      tag_16\n      jumpi\n      dup1\n      0x8a0dac21\n      eq\n      tag_17\n      jumpi\n      dup1\n      0x8da5cb5b\n      eq\n      tag_18\n      jumpi\n      dup1\n      0x94a83eeb\n      eq\n      tag_19\n      jumpi\n      dup1\n      0xa2df9b1f\n      eq\n      tag_20\n      jumpi\n      jump(tag_2)\n    tag_28:\n      dup1\n      0x2a3d7c81\n      gt\n      tag_31\n      jumpi\n      dup1\n      0x2a3d7c81\n      eq\n      tag_9\n      jumpi\n      dup1\n      0x3702e6cb\n      eq\n      tag_10\n      jumpi\n      dup1\n      0x44dc7fbc\n      eq\n      tag_11\n      jumpi\n      dup1\n      0x5dc334bf\n      eq\n      tag_12\n      jumpi\n      dup1\n      0x6f9fb98a\n      eq\n      tag_13\n      jumpi\n      dup1\n      0x708196ae\n      eq\n      tag_14\n      jumpi\n      jump(tag_2)\n    tag_31:\n      dup1\n      0x074ca966\n      eq\n      tag_3\n      jumpi\n      dup1\n      0x09e94d98\n      eq\n      tag_4\n      jumpi\n      dup1\n      0x0e031a94\n      eq\n      tag_5\n      jumpi\n      dup1\n      0x17634514\n      eq\n      tag_6\n      jumpi\n      dup1\n      0x1cbd8380\n      eq\n      tag_7\n      jumpi\n      dup1\n      0x25e16063\n      eq\n      tag_8\n      jumpi\n      jump(tag_2)\n    tag_1:\n      jumpi(tag_2, calldatasize)\n        /* \"JLoansFactory.sol\":15582:15616  EthReceived(msg.sender, msg.value) */\n      0x85177f287940f2f05425a4029951af0e047a7f9c4eaa9a6e6917bcd869f86695\n        /* \"JLoansFactory.sol\":15594:15604  msg.sender */\n      caller\n        /* \"JLoansFactory.sol\":15606:15615  msg.value */\n      callvalue\n        /* \"JLoansFactory.sol\":15582:15616  EthReceived(msg.sender, msg.value) */\n      mload(0x40)\n      tag_34\n      swap3\n      swap2\n      swap1\n      tag_35\n      jump\t// in\n    tag_34:\n      mload(0x40)\n      dup1\n      swap2\n      sub\n      swap1\n      log1\n        /* \"JLoansFactory.sol\":14378:16171  contract JLoanEthPair is JLoanCommons, IJLoanEthPair {\r... */\n      stop\n    tag_2:\n      0x00\n      dup1\n      revert\n        /* \"JLoansFactory.sol\":12050:12074  Status public loanStatus */\n    tag_3:\n      callvalue\n      dup1\n      iszero\n      tag_36\n      jumpi\n      0x00\n      dup1\n      revert\n    tag_36:\n      pop\n      tag_37\n      tag_38\n      jump\t// in\n    tag_37:\n      mload(0x40)\n      tag_39\n      swap2\n      swap1\n      tag_40\n      jump\t// in\n    tag_39:\n      mload(0x40)\n      dup1\n      swap2\n      sub\n      swap1\n      return\n        /* \"JLoansFactory.sol\":12019:12043  params public loanParams */\n    tag_4:\n      callvalue\n      dup1\n      iszero\n      tag_41\n      jumpi\n      0x00\n      dup1\n      revert\n    tag_41:\n      pop\n      tag_42\n      tag_43\n      jump\t// in\n    tag_42:\n      mload(0x40)\n      tag_44\n      swap7\n      swap6\n      swap5\n      swap4\n      swap3\n      swap2\n      swap1\n      tag_45\n      jump\t// in\n    tag_44:\n      mload(0x40)\n      dup1\n      swap2\n      sub\n      swap1\n      return\n        /* \"JLoansFactory.sol\":12118:12137  uint public rpbRate */\n    tag_5:\n      callvalue\n      dup1\n      iszero\n      tag_46\n      jumpi\n      0x00\n      dup1\n      revert\n    tag_46:\n      pop\n      tag_47\n      tag_48\n      jump\t// in\n    tag_47:\n      mload(0x40)\n      tag_49\n      swap2\n      swap1\n      tag_50\n      jump\t// in\n    tag_49:\n      mload(0x40)\n      dup1\n      swap2\n      sub\n      swap1\n      return\n        /* \"JLoansFactory.sol\":12214:12239  uint public creationBlock */\n    tag_6:\n      callvalue\n      dup1\n      iszero\n      tag_51\n      jumpi\n      0x00\n      dup1\n      revert\n    tag_51:\n      pop\n      tag_52\n      tag_53\n      jump\t// in\n    tag_52:\n      mload(0x40)\n      tag_54\n      swap2\n      swap1\n      tag_50\n      jump\t// in\n    tag_54:\n      mload(0x40)\n      dup1\n      swap2\n      sub\n      swap1\n      return\n        /* \"JLoansFactory.sol\":12356:12383  uint public borrowerBalance */\n    tag_7:\n      callvalue\n      dup1\n      iszero\n      tag_55\n      jumpi\n      0x00\n      dup1\n      revert\n    tag_55:\n      pop\n      tag_56\n      tag_57\n      jump\t// in\n    tag_56:\n      mload(0x40)\n      tag_58\n      swap2\n      swap1\n      tag_50\n      jump\t// in\n    tag_58:\n      mload(0x40)\n      dup1\n      swap2\n      sub\n      swap1\n      return\n        /* \"JLoansFactory.sol\":15632:15866  function withdrawEth(address payable _to) override public payable onlyOwner {\r... */\n    tag_8:\n      tag_59\n      0x04\n      dup1\n      calldatasize\n      sub\n      dup2\n      add\n      swap1\n      tag_60\n      swap2\n      swap1\n      tag_61\n      jump\t// in\n    tag_60:\n      tag_62\n      jump\t// in\n    tag_59:\n      stop\n        /* \"JLoansFactory.sol\":12246:12274  uint public lastDepositBlock */\n    tag_9:\n      callvalue\n      dup1\n      iszero\n      tag_63\n      jumpi\n      0x00\n      dup1\n      revert\n    tag_63:\n      pop\n      tag_64\n      tag_65\n      jump\t// in\n    tag_64:\n      mload(0x40)\n      tag_66\n      swap2\n      swap1\n      tag_50\n      jump\t// in\n    tag_66:\n      mload(0x40)\n      dup1\n      swap2\n      sub\n      swap1\n      return\n        /* \"JLoansFactory.sol\":14474:14510  address public stableContractAddress */\n    tag_10:\n      callvalue\n      dup1\n      iszero\n      tag_67\n      jumpi\n      0x00\n      dup1\n      revert\n    tag_67:\n      pop\n      tag_68\n      tag_69\n      jump\t// in\n    tag_68:\n      mload(0x40)\n      tag_70\n      swap2\n      swap1\n      tag_71\n      jump\t// in\n    tag_70:\n      mload(0x40)\n      dup1\n      swap2\n      sub\n      swap1\n      return\n        /* \"JLoansFactory.sol\":14617:14647  IERC20 public cryptoFromLender */\n    tag_11:\n      callvalue\n      dup1\n      iszero\n      tag_72\n      jumpi\n      0x00\n      dup1\n      revert\n    tag_72:\n      pop\n      tag_73\n      tag_74\n      jump\t// in\n    tag_73:\n      mload(0x40)\n      tag_75\n      swap2\n      swap1\n      tag_76\n      jump\t// in\n    tag_75:\n      mload(0x40)\n      dup1\n      swap2\n      sub\n      swap1\n      return\n        /* \"JLoansFactory.sol\":13220:13503  function lenderAcceptance(address _lenderAddress) override external onlyOwner{\r... */\n    tag_12:\n      callvalue\n      dup1\n      iszero\n      tag_77\n      jumpi\n      0x00\n      dup1\n      revert\n    tag_77:\n      pop\n      tag_78\n      0x04\n      dup1\n      calldatasize\n      sub\n      dup2\n      add\n      swap1\n      tag_79\n      swap2\n      swap1\n      tag_80\n      jump\t// in\n    tag_79:\n      tag_81\n      jump\t// in\n    tag_78:\n      stop\n        /* \"JLoansFactory.sol\":15874:16166  function getContractBalance() override external view returns (uint) {\r... */\n    tag_13:\n      callvalue\n      dup1\n      iszero\n      tag_82\n      jumpi\n      0x00\n      dup1\n      revert\n    tag_82:\n      pop\n      tag_83\n      tag_84\n      jump\t// in\n    tag_83:\n      mload(0x40)\n      tag_85\n      swap2\n      swap1\n      tag_50\n      jump\t// in\n    tag_85:\n      mload(0x40)\n      dup1\n      swap2\n      sub\n      swap1\n      return\n        /* \"JLoansFactory.sol\":13906:14201  function setNewStatus(uint _newStatus) override public onlyFactory {\r... */\n    tag_14:\n      callvalue\n      dup1\n      iszero\n      tag_86\n      jumpi\n      0x00\n      dup1\n      revert\n    tag_86:\n      pop\n      tag_87\n      0x04\n      dup1\n      calldatasize\n      sub\n      dup2\n      add\n      swap1\n      tag_88\n      swap2\n      swap1\n      tag_89\n      jump\t// in\n    tag_88:\n      tag_90\n      jump\t// in\n    tag_87:\n      stop\n        /* \"JLoansFactory.sol\":7953:8101  function renounceOwnership() public virtual onlyOwner {\r... */\n    tag_15:\n      callvalue\n      dup1\n      iszero\n      tag_91\n      jumpi\n      0x00\n      dup1\n      revert\n    tag_91:\n      pop\n      tag_92\n      tag_93\n      jump\t// in\n    tag_92:\n      stop\n        /* \"JLoansFactory.sol\":12087:12109  string public loanName */\n    tag_16:\n      callvalue\n      dup1\n      iszero\n      tag_94\n      jumpi\n      0x00\n      dup1\n      revert\n    tag_94:\n      pop\n      tag_95\n      tag_96\n      jump\t// in\n    tag_95:\n      mload(0x40)\n      tag_97\n      swap2\n      swap1\n      tag_98\n      jump\t// in\n    tag_97:\n      mload(0x40)\n      dup1\n      swap2\n      sub\n      swap1\n      return\n        /* \"JLoansFactory.sol\":12315:12347  uint public loanForeclosureBlock */\n    tag_17:\n      callvalue\n      dup1\n      iszero\n      tag_99\n      jumpi\n      0x00\n      dup1\n      revert\n    tag_99:\n      pop\n      tag_100\n      tag_101\n      jump\t// in\n    tag_100:\n      mload(0x40)\n      tag_102\n      swap2\n      swap1\n      tag_50\n      jump\t// in\n    tag_102:\n      mload(0x40)\n      dup1\n      swap2\n      sub\n      swap1\n      return\n        /* \"JLoansFactory.sol\":7311:7390  function owner() public view returns (address) {\r... */\n    tag_18:\n      callvalue\n      dup1\n      iszero\n      tag_103\n      jumpi\n      0x00\n      dup1\n      revert\n    tag_103:\n      pop\n      tag_104\n      tag_105\n      jump\t// in\n    tag_104:\n      mload(0x40)\n      tag_106\n      swap2\n      swap1\n      tag_71\n      jump\t// in\n    tag_106:\n      mload(0x40)\n      dup1\n      swap2\n      sub\n      swap1\n      return\n        /* \"JLoansFactory.sol\":13511:13764  function loanForeClosure() override external onlyOwner {\r... */\n    tag_19:\n      callvalue\n      dup1\n      iszero\n      tag_107\n      jumpi\n      0x00\n      dup1\n      revert\n    tag_107:\n      pop\n      tag_108\n      tag_109\n      jump\t// in\n    tag_108:\n      stop\n        /* \"JLoansFactory.sol\":12173:12205  uint public startCollateralRatio */\n    tag_20:\n      callvalue\n      dup1\n      iszero\n      tag_110\n      jumpi\n      0x00\n      dup1\n      revert\n    tag_110:\n      pop\n      tag_111\n      tag_112\n      jump\t// in\n    tag_111:\n      mload(0x40)\n      tag_113\n      swap2\n      swap1\n      tag_50\n      jump\t// in\n    tag_113:\n      mload(0x40)\n      dup1\n      swap2\n      sub\n      swap1\n      return\n        /* \"JLoansFactory.sol\":14523:14557  string public chosenBorrowedCrypto */\n    tag_21:\n      callvalue\n      dup1\n      iszero\n      tag_114\n      jumpi\n      0x00\n      dup1\n      revert\n    tag_114:\n      pop\n      tag_115\n      tag_116\n      jump\t// in\n    tag_115:\n      mload(0x40)\n      tag_117\n      swap2\n      swap1\n      tag_98\n      jump\t// in\n    tag_117:\n      mload(0x40)\n      dup1\n      swap2\n      sub\n      swap1\n      return\n        /* \"JLoansFactory.sol\":12281:12308  uint public loanActiveBlock */\n    tag_22:\n      callvalue\n      dup1\n      iszero\n      tag_118\n      jumpi\n      0x00\n      dup1\n      revert\n    tag_118:\n      pop\n      tag_119\n      tag_120\n      jump\t// in\n    tag_119:\n      mload(0x40)\n      tag_121\n      swap2\n      swap1\n      tag_50\n      jump\t// in\n    tag_121:\n      mload(0x40)\n      dup1\n      swap2\n      sub\n      swap1\n      return\n        /* \"JLoansFactory.sol\":13772:13898  function setNewParams(params memory _newLoanParams) override public onlyFactory {\r... */\n    tag_23:\n      callvalue\n      dup1\n      iszero\n      tag_122\n      jumpi\n      0x00\n      dup1\n      revert\n    tag_122:\n      pop\n      tag_123\n      0x04\n      dup1\n      calldatasize\n      sub\n      dup2\n      add\n      swap1\n      tag_124\n      swap2\n      swap1\n      tag_125\n      jump\t// in\n    tag_124:\n      tag_126\n      jump\t// in\n    tag_123:\n      stop\n        /* \"JLoansFactory.sol\":14579:14608  uint public askedBorrowAmount */\n    tag_24:\n      callvalue\n      dup1\n      iszero\n      tag_127\n      jumpi\n      0x00\n      dup1\n      revert\n    tag_127:\n      pop\n      tag_128\n      tag_129\n      jump\t// in\n    tag_128:\n      mload(0x40)\n      tag_130\n      swap2\n      swap1\n      tag_50\n      jump\t// in\n    tag_130:\n      mload(0x40)\n      dup1\n      swap2\n      sub\n      swap1\n      return\n        /* \"JLoansFactory.sol\":12390:12415  uint public lenderBalance */\n    tag_25:\n      callvalue\n      dup1\n      iszero\n      tag_131\n      jumpi\n      0x00\n      dup1\n      revert\n    tag_131:\n      pop\n      tag_132\n      tag_133\n      jump\t// in\n    tag_132:\n      mload(0x40)\n      tag_134\n      swap2\n      swap1\n      tag_50\n      jump\t// in\n    tag_134:\n      mload(0x40)\n      dup1\n      swap2\n      sub\n      swap1\n      return\n        /* \"JLoansFactory.sol\":12144:12166  uint public startPrice */\n    tag_26:\n      callvalue\n      dup1\n      iszero\n      tag_135\n      jumpi\n      0x00\n      dup1\n      revert\n    tag_135:\n      pop\n      tag_136\n      tag_137\n      jump\t// in\n    tag_136:\n      mload(0x40)\n      tag_138\n      swap2\n      swap1\n      tag_50\n      jump\t// in\n    tag_138:\n      mload(0x40)\n      dup1\n      swap2\n      sub\n      swap1\n      return\n        /* \"JLoansFactory.sol\":8256:8500  function transferOwnership(address newOwner) public virtual onlyOwner {\r... */\n    tag_27:\n      callvalue\n      dup1\n      iszero\n      tag_139\n      jumpi\n      0x00\n      dup1\n      revert\n    tag_139:\n      pop\n      tag_140\n      0x04\n      dup1\n      calldatasize\n      sub\n      dup2\n      add\n      swap1\n      tag_141\n      swap2\n      swap1\n      tag_80\n      jump\t// in\n    tag_141:\n      tag_142\n      jump\t// in\n    tag_140:\n      stop\n        /* \"JLoansFactory.sol\":12050:12074  Status public loanStatus */\n    tag_38:\n      0x07\n      0x00\n      swap1\n      sload\n      swap1\n      0x0100\n      exp\n      swap1\n      div\n      0xff\n      and\n      dup2\n      jump\t// out\n        /* \"JLoansFactory.sol\":12019:12043  params public loanParams */\n    tag_43:\n      0x01\n      dup1\n      0x00\n      add\n      sload\n      swap1\n      dup1\n      0x01\n      add\n      sload\n      swap1\n      dup1\n      0x02\n      add\n      sload\n      swap1\n      dup1\n      0x03\n      add\n      sload\n      swap1\n      dup1\n      0x04\n      add\n      sload\n      swap1\n      dup1\n      0x05\n      add\n      sload\n      swap1\n      pop\n      dup7\n      jump\t// out\n        /* \"JLoansFactory.sol\":12118:12137  uint public rpbRate */\n    tag_48:\n      sload(0x09)\n      dup2\n      jump\t// out\n        /* \"JLoansFactory.sol\":12214:12239  uint public creationBlock */\n    tag_53:\n      sload(0x0c)\n      dup2\n      jump\t// out\n        /* \"JLoansFactory.sol\":12356:12383  uint public borrowerBalance */\n    tag_57:\n      sload(0x10)\n      dup2\n      jump\t// out\n        /* \"JLoansFactory.sol\":15632:15866  function withdrawEth(address payable _to) override public payable onlyOwner {\r... */\n    tag_62:\n        /* \"JLoansFactory.sol\":7533:7545  _msgSender() */\n      tag_144\n        /* \"JLoansFactory.sol\":7533:7543  _msgSender */\n      tag_145\n        /* \"JLoansFactory.sol\":7533:7545  _msgSender() */\n      jump\t// in\n    tag_144:\n        /* \"JLoansFactory.sol\":7523:7545  _owner == _msgSender() */\n      0xffffffffffffffffffffffffffffffffffffffff\n      and\n        /* \"JLoansFactory.sol\":7523:7529  _owner */\n      0x00\n      dup1\n      sload\n      swap1\n      0x0100\n      exp\n      swap1\n      div\n      0xffffffffffffffffffffffffffffffffffffffff\n      and\n        /* \"JLoansFactory.sol\":7523:7545  _owner == _msgSender() */\n      0xffffffffffffffffffffffffffffffffffffffff\n      and\n      eq\n        /* \"JLoansFactory.sol\":7515:7582  require(_owner == _msgSender(), \"Ownable: caller is not the owner\") */\n      tag_146\n      jumpi\n      mload(0x40)\n      0x08c379a000000000000000000000000000000000000000000000000000000000\n      dup2\n      mstore\n      0x04\n      add\n      tag_147\n      swap1\n      tag_148\n      jump\t// in\n    tag_147:\n      mload(0x40)\n      dup1\n      swap2\n      sub\n      swap1\n      revert\n    tag_146:\n        /* \"JLoansFactory.sol\":15741:15755  Status.closing */\n      0x03\n        /* \"JLoansFactory.sol\":15727:15755  loanStatus == Status.closing */\n      0x04\n      dup2\n      gt\n      iszero\n      tag_150\n      jumpi\n      invalid\n    tag_150:\n        /* \"JLoansFactory.sol\":15727:15737  loanStatus */\n      0x07\n      0x00\n      swap1\n      sload\n      swap1\n      0x0100\n      exp\n      swap1\n      div\n      0xff\n      and\n        /* \"JLoansFactory.sol\":15727:15755  loanStatus == Status.closing */\n      0x04\n      dup2\n      gt\n      iszero\n      tag_151\n      jumpi\n      invalid\n    tag_151:\n      eq\n        /* \"JLoansFactory.sol\":15719:15812  require(loanStatus == Status.closing, \"Loan status not compatible with foreclosing actions\" ) */\n      tag_152\n      jumpi\n      mload(0x40)\n      0x08c379a000000000000000000000000000000000000000000000000000000000\n      dup2\n      mstore\n      0x04\n      add\n      tag_153\n      swap1\n      tag_154\n      jump\t// in\n    tag_153:\n      mload(0x40)\n      dup1\n      swap2\n      sub\n      swap1\n      revert\n    tag_152:\n        /* \"JLoansFactory.sol\":15823:15826  _to */\n      dup1\n        /* \"JLoansFactory.sol\":15823:15835  _to.transfer */\n      0xffffffffffffffffffffffffffffffffffffffff\n      and\n        /* \"JLoansFactory.sol\":15823:15858  _to.transfer(address(this).balance) */\n      0x08fc\n        /* \"JLoansFactory.sol\":15836:15857  address(this).balance */\n      selfbalance\n        /* \"JLoansFactory.sol\":15823:15858  _to.transfer(address(this).balance) */\n      swap1\n      dup2\n      iszero\n      mul\n      swap1\n      mload(0x40)\n      0x00\n      mload(0x40)\n      dup1\n      dup4\n      sub\n      dup2\n      dup6\n      dup9\n      dup9\n      call\n      swap4\n      pop\n      pop\n      pop\n      pop\n      iszero\n      dup1\n      iszero\n      tag_156\n      jumpi\n      returndatasize\n      0x00\n      dup1\n      returndatacopy\n      revert(0x00, returndatasize)\n    tag_156:\n      pop\n        /* \"JLoansFactory.sol\":15632:15866  function withdrawEth(address payable _to) override public payable onlyOwner {\r... */\n      pop\n      jump\t// out\n        /* \"JLoansFactory.sol\":12246:12274  uint public lastDepositBlock */\n    tag_65:\n      sload(0x0d)\n      dup2\n      jump\t// out\n        /* \"JLoansFactory.sol\":14474:14510  address public stableContractAddress */\n    tag_69:\n      0x13\n      0x00\n      swap1\n      sload\n      swap1\n      0x0100\n      exp\n      swap1\n      div\n      0xffffffffffffffffffffffffffffffffffffffff\n      and\n      dup2\n      jump\t// out\n        /* \"JLoansFactory.sol\":14617:14647  IERC20 public cryptoFromLender */\n    tag_74:\n      0x16\n      0x00\n      swap1\n      sload\n      swap1\n      0x0100\n      exp\n      swap1\n      div\n      0xffffffffffffffffffffffffffffffffffffffff\n      and\n      dup2\n      jump\t// out\n        /* \"JLoansFactory.sol\":13220:13503  function lenderAcceptance(address _lenderAddress) override external onlyOwner{\r... */\n    tag_81:\n        /* \"JLoansFactory.sol\":7533:7545  _msgSender() */\n      tag_158\n        /* \"JLoansFactory.sol\":7533:7543  _msgSender */\n      tag_145\n        /* \"JLoansFactory.sol\":7533:7545  _msgSender() */\n      jump\t// in\n    tag_158:\n        /* \"JLoansFactory.sol\":7523:7545  _owner == _msgSender() */\n      0xffffffffffffffffffffffffffffffffffffffff\n      and\n        /* \"JLoansFactory.sol\":7523:7529  _owner */\n      0x00\n      dup1\n      sload\n      swap1\n      0x0100\n      exp\n      swap1\n      div\n      0xffffffffffffffffffffffffffffffffffffffff\n      and\n        /* \"JLoansFactory.sol\":7523:7545  _owner == _msgSender() */\n      0xffffffffffffffffffffffffffffffffffffffff\n      and\n      eq\n        /* \"JLoansFactory.sol\":7515:7582  require(_owner == _msgSender(), \"Ownable: caller is not the owner\") */\n      tag_159\n      jumpi\n      mload(0x40)\n      0x08c379a000000000000000000000000000000000000000000000000000000000\n      dup2\n      mstore\n      0x04\n      add\n      tag_160\n      swap1\n      tag_148\n      jump\t// in\n    tag_160:\n      mload(0x40)\n      dup1\n      swap2\n      sub\n      swap1\n      revert\n    tag_159:\n        /* \"JLoansFactory.sol\":13342:13343  0 */\n      0x00\n        /* \"JLoansFactory.sol\":13316:13344  _lenderAddress != address(0) */\n      0xffffffffffffffffffffffffffffffffffffffff\n      and\n        /* \"JLoansFactory.sol\":13316:13330  _lenderAddress */\n      dup2\n        /* \"JLoansFactory.sol\":13316:13344  _lenderAddress != address(0) */\n      0xffffffffffffffffffffffffffffffffffffffff\n      and\n      eq\n      iszero\n        /* \"JLoansFactory.sol\":13308:13368  require(_lenderAddress != address(0), \"Address not allowed\") */\n      tag_162\n      jumpi\n      mload(0x40)\n      0x08c379a000000000000000000000000000000000000000000000000000000000\n      dup2\n      mstore\n      0x04\n      add\n      tag_163\n      swap1\n      tag_164\n      jump\t// in\n    tag_163:\n      mload(0x40)\n      dup1\n      swap2\n      sub\n      swap1\n      revert\n    tag_162:\n        /* \"JLoansFactory.sol\":13379:13383  this */\n      address\n        /* \"JLoansFactory.sol\":13379:13401  this.transferOwnership */\n      0xffffffffffffffffffffffffffffffffffffffff\n      and\n      0xf2fde38b\n        /* \"JLoansFactory.sol\":13402:13416  _lenderAddress */\n      dup3\n        /* \"JLoansFactory.sol\":13379:13417  this.transferOwnership(_lenderAddress) */\n      mload(0x40)\n      dup3\n      0xffffffff\n      and\n      0xe0\n      shl\n      dup2\n      mstore\n      0x04\n      add\n      tag_165\n      swap2\n      swap1\n      tag_71\n      jump\t// in\n    tag_165:\n      0x00\n      mload(0x40)\n      dup1\n      dup4\n      sub\n      dup2\n      0x00\n      dup8\n      dup1\n      extcodesize\n      iszero\n      dup1\n      iszero\n      tag_166\n      jumpi\n      0x00\n      dup1\n      revert\n    tag_166:\n      pop\n      gas\n      call\n      iszero\n      dup1\n      iszero\n      tag_168\n      jumpi\n      returndatasize\n      0x00\n      dup1\n      returndatacopy\n      revert(0x00, returndatasize)\n    tag_168:\n      pop\n      pop\n      pop\n      pop\n        /* \"JLoansFactory.sol\":13446:13458  block.number */\n      number\n        /* \"JLoansFactory.sol\":13428:13443  loanActiveBlock */\n      0x0e\n        /* \"JLoansFactory.sol\":13428:13458  loanActiveBlock = block.number */\n      dup2\n      swap1\n      sstore\n      pop\n        /* \"JLoansFactory.sol\":13482:13495  Status.active */\n      0x01\n        /* \"JLoansFactory.sol\":13469:13479  loanStatus */\n      0x07\n      0x00\n        /* \"JLoansFactory.sol\":13469:13495  loanStatus = Status.active */\n      0x0100\n      exp\n      dup2\n      sload\n      dup2\n      0xff\n      mul\n      not\n      and\n      swap1\n      dup4\n      0x04\n      dup2\n      gt\n      iszero\n      tag_169\n      jumpi\n      invalid\n    tag_169:\n      mul\n      or\n      swap1\n      sstore\n      pop\n        /* \"JLoansFactory.sol\":13220:13503  function lenderAcceptance(address _lenderAddress) override external onlyOwner{\r... */\n      pop\n      jump\t// out\n        /* \"JLoansFactory.sol\":15874:16166  function getContractBalance() override external view returns (uint) {\r... */\n    tag_84:\n        /* \"JLoansFactory.sol\":15936:15940  uint */\n      0x00\n        /* \"JLoansFactory.sol\":16021:16045  abi.encodePacked(\"EURS\") */\n      add(0x20, mload(0x40))\n      tag_171\n      swap1\n      tag_172\n      jump\t// in\n    tag_171:\n      mload(0x40)\n      0x20\n      dup2\n      dup4\n      sub\n      sub\n      dup2\n      mstore\n      swap1\n      0x40\n      mstore\n        /* \"JLoansFactory.sol\":16011:16046  keccak256(abi.encodePacked(\"EURS\")) */\n      dup1\n      mload\n      swap1\n      0x20\n      add\n      keccak256\n        /* \"JLoansFactory.sol\":15985:16005  chosenBorrowedCrypto */\n      0x14\n        /* \"JLoansFactory.sol\":15968:16006  abi.encodePacked(chosenBorrowedCrypto) */\n      add(0x20, mload(0x40))\n      tag_173\n      swap2\n      swap1\n      tag_174\n      jump\t// in\n    tag_173:\n      mload(0x40)\n      0x20\n      dup2\n      dup4\n      sub\n      sub\n      dup2\n      mstore\n      swap1\n      0x40\n      mstore\n        /* \"JLoansFactory.sol\":15958:16007  keccak256(abi.encodePacked(chosenBorrowedCrypto)) */\n      dup1\n      mload\n      swap1\n      0x20\n      add\n      keccak256\n        /* \"JLoansFactory.sol\":15958:16046  keccak256(abi.encodePacked(chosenBorrowedCrypto)) == keccak256(abi.encodePacked(\"EURS\")) */\n      eq\n        /* \"JLoansFactory.sol\":15953:16159  if ( keccak256(abi.encodePacked(chosenBorrowedCrypto)) == keccak256(abi.encodePacked(\"EURS\")) ) {\r... */\n      iszero\n      tag_175\n      jumpi\n        /* \"JLoansFactory.sol\":16071:16086  borrowerBalance */\n      sload(0x10)\n        /* \"JLoansFactory.sol\":16064:16086  return borrowerBalance */\n      swap1\n      pop\n      jump(tag_170)\n        /* \"JLoansFactory.sol\":15953:16159  if ( keccak256(abi.encodePacked(chosenBorrowedCrypto)) == keccak256(abi.encodePacked(\"EURS\")) ) {\r... */\n    tag_175:\n        /* \"JLoansFactory.sol\":16126:16147  address(this).balance */\n      selfbalance\n        /* \"JLoansFactory.sol\":16119:16147  return address(this).balance */\n      swap1\n      pop\n        /* \"JLoansFactory.sol\":15874:16166  function getContractBalance() override external view returns (uint) {\r... */\n    tag_170:\n      swap1\n      jump\t// out\n        /* \"JLoansFactory.sol\":13906:14201  function setNewStatus(uint _newStatus) override public onlyFactory {\r... */\n    tag_90:\n        /* \"JLoansFactory.sol\":13154:13168  factoryAddress */\n      0x12\n      0x00\n      swap1\n      sload\n      swap1\n      0x0100\n      exp\n      swap1\n      div\n      0xffffffffffffffffffffffffffffffffffffffff\n      and\n        /* \"JLoansFactory.sol\":13140:13168  msg.sender == factoryAddress */\n      0xffffffffffffffffffffffffffffffffffffffff\n      and\n        /* \"JLoansFactory.sol\":13140:13150  msg.sender */\n      caller\n        /* \"JLoansFactory.sol\":13140:13168  msg.sender == factoryAddress */\n      0xffffffffffffffffffffffffffffffffffffffff\n      and\n      eq\n        /* \"JLoansFactory.sol\":13132:13192  require(msg.sender == factoryAddress, \"Address not allowed\") */\n      tag_178\n      jumpi\n      mload(0x40)\n      0x08c379a000000000000000000000000000000000000000000000000000000000\n      dup2\n      mstore\n      0x04\n      add\n      tag_179\n      swap1\n      tag_164\n      jump\t// in\n    tag_179:\n      mload(0x40)\n      dup1\n      swap2\n      sub\n      swap1\n      revert\n    tag_178:\n        /* \"JLoansFactory.sol\":14006:14007  0 */\n      0x00\n        /* \"JLoansFactory.sol\":13992:14002  _newStatus */\n      dup2\n        /* \"JLoansFactory.sol\":13992:14007  _newStatus >= 0 */\n      lt\n      iszero\n        /* \"JLoansFactory.sol\":13992:14026  _newStatus >= 0 && _newStatus <= 4 */\n      dup1\n      iszero\n      tag_181\n      jumpi\n      pop\n        /* \"JLoansFactory.sol\":14025:14026  4 */\n      0x04\n        /* \"JLoansFactory.sol\":14011:14021  _newStatus */\n      dup2\n        /* \"JLoansFactory.sol\":14011:14026  _newStatus <= 4 */\n      gt\n      iszero\n        /* \"JLoansFactory.sol\":13992:14026  _newStatus >= 0 && _newStatus <= 4 */\n    tag_181:\n        /* \"JLoansFactory.sol\":13984:14050  require(_newStatus >= 0 && _newStatus <= 4, \"New state not valid\") */\n      tag_182\n      jumpi\n      mload(0x40)\n      0x08c379a000000000000000000000000000000000000000000000000000000000\n      dup2\n      mstore\n      0x04\n      add\n      tag_183\n      swap1\n      tag_184\n      jump\t// in\n    tag_183:\n      mload(0x40)\n      dup1\n      swap2\n      sub\n      swap1\n      revert\n    tag_182:\n        /* \"JLoansFactory.sol\":14095:14105  loanStatus */\n      0x07\n      0x00\n      swap1\n      sload\n      swap1\n      0x0100\n      exp\n      swap1\n      div\n      0xff\n      and\n        /* \"JLoansFactory.sol\":14083:14107  uint(Status(loanStatus)) */\n      0x04\n      dup2\n      gt\n      iszero\n      tag_185\n      jumpi\n      invalid\n    tag_185:\n        /* \"JLoansFactory.sol\":14069:14079  _newStatus */\n      dup2\n        /* \"JLoansFactory.sol\":14069:14107  _newStatus != uint(Status(loanStatus)) */\n      eq\n      iszero\n        /* \"JLoansFactory.sol\":14061:14151  require(_newStatus != uint(Status(loanStatus)), \"New status is the same like present one\") */\n      tag_186\n      jumpi\n      mload(0x40)\n      0x08c379a000000000000000000000000000000000000000000000000000000000\n      dup2\n      mstore\n      0x04\n      add\n      tag_187\n      swap1\n      tag_188\n      jump\t// in\n    tag_187:\n      mload(0x40)\n      dup1\n      swap2\n      sub\n      swap1\n      revert\n    tag_186:\n        /* \"JLoansFactory.sol\":14182:14192  _newStatus */\n      dup1\n        /* \"JLoansFactory.sol\":14175:14193  Status(_newStatus) */\n      0x04\n      dup2\n      gt\n      iszero\n      tag_189\n      jumpi\n      invalid\n    tag_189:\n        /* \"JLoansFactory.sol\":14162:14172  loanStatus */\n      0x07\n      0x00\n        /* \"JLoansFactory.sol\":14162:14193  loanStatus = Status(_newStatus) */\n      0x0100\n      exp\n      dup2\n      sload\n      dup2\n      0xff\n      mul\n      not\n      and\n      swap1\n      dup4\n      0x04\n      dup2\n      gt\n      iszero\n      tag_190\n      jumpi\n      invalid\n    tag_190:\n      mul\n      or\n      swap1\n      sstore\n      pop\n        /* \"JLoansFactory.sol\":13906:14201  function setNewStatus(uint _newStatus) override public onlyFactory {\r... */\n      pop\n      jump\t// out\n        /* \"JLoansFactory.sol\":7953:8101  function renounceOwnership() public virtual onlyOwner {\r... */\n    tag_93:\n        /* \"JLoansFactory.sol\":7533:7545  _msgSender() */\n      tag_192\n        /* \"JLoansFactory.sol\":7533:7543  _msgSender */\n      tag_145\n        /* \"JLoansFactory.sol\":7533:7545  _msgSender() */\n      jump\t// in\n    tag_192:\n        /* \"JLoansFactory.sol\":7523:7545  _owner == _msgSender() */\n      0xffffffffffffffffffffffffffffffffffffffff\n      and\n        /* \"JLoansFactory.sol\":7523:7529  _owner */\n      0x00\n      dup1\n      sload\n      swap1\n      0x0100\n      exp\n      swap1\n      div\n      0xffffffffffffffffffffffffffffffffffffffff\n      and\n        /* \"JLoansFactory.sol\":7523:7545  _owner == _msgSender() */\n      0xffffffffffffffffffffffffffffffffffffffff\n      and\n      eq\n        /* \"JLoansFactory.sol\":7515:7582  require(_owner == _msgSender(), \"Ownable: caller is not the owner\") */\n      tag_193\n      jumpi\n      mload(0x40)\n      0x08c379a000000000000000000000000000000000000000000000000000000000\n      dup2\n      mstore\n      0x04\n      add\n      tag_194\n      swap1\n      tag_148\n      jump\t// in\n    tag_194:\n      mload(0x40)\n      dup1\n      swap2\n      sub\n      swap1\n      revert\n    tag_193:\n        /* \"JLoansFactory.sol\":8060:8061  0 */\n      0x00\n        /* \"JLoansFactory.sol\":8023:8063  OwnershipTransferred(_owner, address(0)) */\n      0xffffffffffffffffffffffffffffffffffffffff\n      and\n        /* \"JLoansFactory.sol\":8044:8050  _owner */\n      0x00\n      dup1\n      sload\n      swap1\n      0x0100\n      exp\n      swap1\n      div\n      0xffffffffffffffffffffffffffffffffffffffff\n      and\n        /* \"JLoansFactory.sol\":8023:8063  OwnershipTransferred(_owner, address(0)) */\n      0xffffffffffffffffffffffffffffffffffffffff\n      and\n      0x8be0079c531659141344cd1fd0a4f28419497f9722a3daafe3b4186f6b6457e0\n      mload(0x40)\n      mload(0x40)\n      dup1\n      swap2\n      sub\n      swap1\n      log3\n        /* \"JLoansFactory.sol\":8091:8092  0 */\n      0x00\n        /* \"JLoansFactory.sol\":8074:8080  _owner */\n      dup1\n      0x00\n        /* \"JLoansFactory.sol\":8074:8093  _owner = address(0) */\n      0x0100\n      exp\n      dup2\n      sload\n      dup2\n      0xffffffffffffffffffffffffffffffffffffffff\n      mul\n      not\n      and\n      swap1\n      dup4\n      0xffffffffffffffffffffffffffffffffffffffff\n      and\n      mul\n      or\n      swap1\n      sstore\n      pop\n        /* \"JLoansFactory.sol\":7953:8101  function renounceOwnership() public virtual onlyOwner {\r... */\n      jump\t// out\n        /* \"JLoansFactory.sol\":12087:12109  string public loanName */\n    tag_96:\n      0x08\n      dup1\n      sload\n      0x01\n      dup2\n      0x01\n      and\n      iszero\n      0x0100\n      mul\n      sub\n      and\n      0x02\n      swap1\n      div\n      dup1\n      0x1f\n      add\n      0x20\n      dup1\n      swap2\n      div\n      mul\n      0x20\n      add\n      mload(0x40)\n      swap1\n      dup2\n      add\n      0x40\n      mstore\n      dup1\n      swap3\n      swap2\n      swap1\n      dup2\n      dup2\n      mstore\n      0x20\n      add\n      dup3\n      dup1\n      sload\n      0x01\n      dup2\n      0x01\n      and\n      iszero\n      0x0100\n      mul\n      sub\n      and\n      0x02\n      swap1\n      div\n      dup1\n      iszero\n      tag_196\n      jumpi\n      dup1\n      0x1f\n      lt\n      tag_197\n      jumpi\n      0x0100\n      dup1\n      dup4\n      sload\n      div\n      mul\n      dup4\n      mstore\n      swap2\n      0x20\n      add\n      swap2\n      jump(tag_196)\n    tag_197:\n      dup3\n      add\n      swap2\n      swap1\n      0x00\n      mstore\n      keccak256(0x00, 0x20)\n      swap1\n    tag_198:\n      dup2\n      sload\n      dup2\n      mstore\n      swap1\n      0x01\n      add\n      swap1\n      0x20\n      add\n      dup1\n      dup4\n      gt\n      tag_198\n      jumpi\n      dup3\n      swap1\n      sub\n      0x1f\n      and\n      dup3\n      add\n      swap2\n    tag_196:\n      pop\n      pop\n      pop\n      pop\n      pop\n      dup2\n      jump\t// out\n        /* \"JLoansFactory.sol\":12315:12347  uint public loanForeclosureBlock */\n    tag_101:\n      sload(0x0f)\n      dup2\n      jump\t// out\n        /* \"JLoansFactory.sol\":7311:7390  function owner() public view returns (address) {\r... */\n    tag_105:\n        /* \"JLoansFactory.sol\":7349:7356  address */\n      0x00\n        /* \"JLoansFactory.sol\":7376:7382  _owner */\n      dup1\n      0x00\n      swap1\n      sload\n      swap1\n      0x0100\n      exp\n      swap1\n      div\n      0xffffffffffffffffffffffffffffffffffffffff\n      and\n        /* \"JLoansFactory.sol\":7369:7382  return _owner */\n      swap1\n      pop\n        /* \"JLoansFactory.sol\":7311:7390  function owner() public view returns (address) {\r... */\n      swap1\n      jump\t// out\n        /* \"JLoansFactory.sol\":13511:13764  function loanForeClosure() override external onlyOwner {\r... */\n    tag_109:\n        /* \"JLoansFactory.sol\":7533:7545  _msgSender() */\n      tag_201\n        /* \"JLoansFactory.sol\":7533:7543  _msgSender */\n      tag_145\n        /* \"JLoansFactory.sol\":7533:7545  _msgSender() */\n      jump\t// in\n    tag_201:\n        /* \"JLoansFactory.sol\":7523:7545  _owner == _msgSender() */\n      0xffffffffffffffffffffffffffffffffffffffff\n      and\n        /* \"JLoansFactory.sol\":7523:7529  _owner */\n      0x00\n      dup1\n      sload\n      swap1\n      0x0100\n      exp\n      swap1\n      div\n      0xffffffffffffffffffffffffffffffffffffffff\n      and\n        /* \"JLoansFactory.sol\":7523:7545  _owner == _msgSender() */\n      0xffffffffffffffffffffffffffffffffffffffff\n      and\n      eq\n        /* \"JLoansFactory.sol\":7515:7582  require(_owner == _msgSender(), \"Ownable: caller is not the owner\") */\n      tag_202\n      jumpi\n      mload(0x40)\n      0x08c379a000000000000000000000000000000000000000000000000000000000\n      dup2\n      mstore\n      0x04\n      add\n      tag_203\n      swap1\n      tag_148\n      jump\t// in\n    tag_203:\n      mload(0x40)\n      dup1\n      swap2\n      sub\n      swap1\n      revert\n    tag_202:\n        /* \"JLoansFactory.sol\":13599:13612  Status.active */\n      0x01\n        /* \"JLoansFactory.sol\":13585:13612  loanStatus == Status.active */\n      0x04\n      dup2\n      gt\n      iszero\n      tag_205\n      jumpi\n      invalid\n    tag_205:\n        /* \"JLoansFactory.sol\":13585:13595  loanStatus */\n      0x07\n      0x00\n      swap1\n      sload\n      swap1\n      0x0100\n      exp\n      swap1\n      div\n      0xff\n      and\n        /* \"JLoansFactory.sol\":13585:13612  loanStatus == Status.active */\n      0x04\n      dup2\n      gt\n      iszero\n      tag_206\n      jumpi\n      invalid\n    tag_206:\n      eq\n        /* \"JLoansFactory.sol\":13577:13668  require(loanStatus == Status.active, \"Loan status not compatible with foreclosing actions\") */\n      tag_207\n      jumpi\n      mload(0x40)\n      0x08c379a000000000000000000000000000000000000000000000000000000000\n      dup2\n      mstore\n      0x04\n      add\n      tag_208\n      swap1\n      tag_154\n      jump\t// in\n    tag_208:\n      mload(0x40)\n      dup1\n      swap2\n      sub\n      swap1\n      revert\n    tag_207:\n        /* \"JLoansFactory.sol\":13702:13714  block.number */\n      number\n        /* \"JLoansFactory.sol\":13679:13699  loanForeclosureBlock */\n      0x0f\n        /* \"JLoansFactory.sol\":13679:13714  loanForeclosureBlock = block.number */\n      dup2\n      swap1\n      sstore\n      pop\n        /* \"JLoansFactory.sol\":13738:13756  Status.foreclosing */\n      0x02\n        /* \"JLoansFactory.sol\":13725:13735  loanStatus */\n      0x07\n      0x00\n        /* \"JLoansFactory.sol\":13725:13756  loanStatus = Status.foreclosing */\n      0x0100\n      exp\n      dup2\n      sload\n      dup2\n      0xff\n      mul\n      not\n      and\n      swap1\n      dup4\n      0x04\n      dup2\n      gt\n      iszero\n      tag_209\n      jumpi\n      invalid\n    tag_209:\n      mul\n      or\n      swap1\n      sstore\n      pop\n        /* \"JLoansFactory.sol\":13511:13764  function loanForeClosure() override external onlyOwner {\r... */\n      jump\t// out\n        /* \"JLoansFactory.sol\":12173:12205  uint public startCollateralRatio */\n    tag_112:\n      sload(0x0b)\n      dup2\n      jump\t// out\n        /* \"JLoansFactory.sol\":14523:14557  string public chosenBorrowedCrypto */\n    tag_116:\n      0x14\n      dup1\n      sload\n      0x01\n      dup2\n      0x01\n      and\n      iszero\n      0x0100\n      mul\n      sub\n      and\n      0x02\n      swap1\n      div\n      dup1\n      0x1f\n      add\n      0x20\n      dup1\n      swap2\n      div\n      mul\n      0x20\n      add\n      mload(0x40)\n      swap1\n      dup2\n      add\n      0x40\n      mstore\n      dup1\n      swap3\n      swap2\n      swap1\n      dup2\n      dup2\n      mstore\n      0x20\n      add\n      dup3\n      dup1\n      sload\n      0x01\n      dup2\n      0x01\n      and\n      iszero\n      0x0100\n      mul\n      sub\n      and\n      0x02\n      swap1\n      div\n      dup1\n      iszero\n      tag_210\n      jumpi\n      dup1\n      0x1f\n      lt\n      tag_211\n      jumpi\n      0x0100\n      dup1\n      dup4\n      sload\n      div\n      mul\n      dup4\n      mstore\n      swap2\n      0x20\n      add\n      swap2\n      jump(tag_210)\n    tag_211:\n      dup3\n      add\n      swap2\n      swap1\n      0x00\n      mstore\n      keccak256(0x00, 0x20)\n      swap1\n    tag_212:\n      dup2\n      sload\n      dup2\n      mstore\n      swap1\n      0x01\n      add\n      swap1\n      0x20\n      add\n      dup1\n      dup4\n      gt\n      tag_212\n      jumpi\n      dup3\n      swap1\n      sub\n      0x1f\n      and\n      dup3\n      add\n      swap2\n    tag_210:\n      pop\n      pop\n      pop\n      pop\n      pop\n      dup2\n      jump\t// out\n        /* \"JLoansFactory.sol\":12281:12308  uint public loanActiveBlock */\n    tag_120:\n      sload(0x0e)\n      dup2\n      jump\t// out\n        /* \"JLoansFactory.sol\":13772:13898  function setNewParams(params memory _newLoanParams) override public onlyFactory {\r... */\n    tag_126:\n        /* \"JLoansFactory.sol\":13154:13168  factoryAddress */\n      0x12\n      0x00\n      swap1\n      sload\n      swap1\n      0x0100\n      exp\n      swap1\n      div\n      0xffffffffffffffffffffffffffffffffffffffff\n      and\n        /* \"JLoansFactory.sol\":13140:13168  msg.sender == factoryAddress */\n      0xffffffffffffffffffffffffffffffffffffffff\n      and\n        /* \"JLoansFactory.sol\":13140:13150  msg.sender */\n      caller\n        /* \"JLoansFactory.sol\":13140:13168  msg.sender == factoryAddress */\n      0xffffffffffffffffffffffffffffffffffffffff\n      and\n      eq\n        /* \"JLoansFactory.sol\":13132:13192  require(msg.sender == factoryAddress, \"Address not allowed\") */\n      tag_214\n      jumpi\n      mload(0x40)\n      0x08c379a000000000000000000000000000000000000000000000000000000000\n      dup2\n      mstore\n      0x04\n      add\n      tag_215\n      swap1\n      tag_164\n      jump\t// in\n    tag_215:\n      mload(0x40)\n      dup1\n      swap2\n      sub\n      swap1\n      revert\n    tag_214:\n        /* \"JLoansFactory.sol\":13876:13890  _newLoanParams */\n      dup1\n        /* \"JLoansFactory.sol\":13863:13873  loanParams */\n      0x01\n        /* \"JLoansFactory.sol\":13863:13890  loanParams = _newLoanParams */\n      0x00\n      dup3\n      add\n      mload\n      dup2\n      0x00\n      add\n      sstore\n      0x20\n      dup3\n      add\n      mload\n      dup2\n      0x01\n      add\n      sstore\n      0x40\n      dup3\n      add\n      mload\n      dup2\n      0x02\n      add\n      sstore\n      0x60\n      dup3\n      add\n      mload\n      dup2\n      0x03\n      add\n      sstore\n      0x80\n      dup3\n      add\n      mload\n      dup2\n      0x04\n      add\n      sstore\n      0xa0\n      dup3\n      add\n      mload\n      dup2\n      0x05\n      add\n      sstore\n      swap1\n      pop\n      pop\n        /* \"JLoansFactory.sol\":13772:13898  function setNewParams(params memory _newLoanParams) override public onlyFactory {\r... */\n      pop\n      jump\t// out\n        /* \"JLoansFactory.sol\":14579:14608  uint public askedBorrowAmount */\n    tag_129:\n      sload(0x15)\n      dup2\n      jump\t// out\n        /* \"JLoansFactory.sol\":12390:12415  uint public lenderBalance */\n    tag_133:\n      sload(0x11)\n      dup2\n      jump\t// out\n        /* \"JLoansFactory.sol\":12144:12166  uint public startPrice */\n    tag_137:\n      sload(0x0a)\n      dup2\n      jump\t// out\n        /* \"JLoansFactory.sol\":8256:8500  function transferOwnership(address newOwner) public virtual onlyOwner {\r... */\n    tag_142:\n        /* \"JLoansFactory.sol\":7533:7545  _msgSender() */\n      tag_218\n        /* \"JLoansFactory.sol\":7533:7543  _msgSender */\n      tag_145\n        /* \"JLoansFactory.sol\":7533:7545  _msgSender() */\n      jump\t// in\n    tag_218:\n        /* \"JLoansFactory.sol\":7523:7545  _owner == _msgSender() */\n      0xffffffffffffffffffffffffffffffffffffffff\n      and\n        /* \"JLoansFactory.sol\":7523:7529  _owner */\n      0x00\n      dup1\n      sload\n      swap1\n      0x0100\n      exp\n      swap1\n      div\n      0xffffffffffffffffffffffffffffffffffffffff\n      and\n        /* \"JLoansFactory.sol\":7523:7545  _owner == _msgSender() */\n      0xffffffffffffffffffffffffffffffffffffffff\n      and\n      eq\n        /* \"JLoansFactory.sol\":7515:7582  require(_owner == _msgSender(), \"Ownable: caller is not the owner\") */\n      tag_219\n      jumpi\n      mload(0x40)\n      0x08c379a000000000000000000000000000000000000000000000000000000000\n      dup2\n      mstore\n      0x04\n      add\n      tag_220\n      swap1\n      tag_148\n      jump\t// in\n    tag_220:\n      mload(0x40)\n      dup1\n      swap2\n      sub\n      swap1\n      revert\n    tag_219:\n        /* \"JLoansFactory.sol\":8365:8366  0 */\n      0x00\n        /* \"JLoansFactory.sol\":8345:8367  newOwner != address(0) */\n      0xffffffffffffffffffffffffffffffffffffffff\n      and\n        /* \"JLoansFactory.sol\":8345:8353  newOwner */\n      dup2\n        /* \"JLoansFactory.sol\":8345:8367  newOwner != address(0) */\n      0xffffffffffffffffffffffffffffffffffffffff\n      and\n      eq\n      iszero\n        /* \"JLoansFactory.sol\":8337:8410  require(newOwner != address(0), \"Ownable: new owner is the zero address\") */\n      tag_222\n      jumpi\n      mload(0x40)\n      0x08c379a000000000000000000000000000000000000000000000000000000000\n      dup2\n      mstore\n      0x04\n      add\n      tag_223\n      swap1\n      tag_224\n      jump\t// in\n    tag_223:\n      mload(0x40)\n      dup1\n      swap2\n      sub\n      swap1\n      revert\n    tag_222:\n        /* \"JLoansFactory.sol\":8455:8463  newOwner */\n      dup1\n        /* \"JLoansFactory.sol\":8426:8464  OwnershipTransferred(_owner, newOwner) */\n      0xffffffffffffffffffffffffffffffffffffffff\n      and\n        /* \"JLoansFactory.sol\":8447:8453  _owner */\n      0x00\n      dup1\n      sload\n      swap1\n      0x0100\n      exp\n      swap1\n      div\n      0xffffffffffffffffffffffffffffffffffffffff\n      and\n        /* \"JLoansFactory.sol\":8426:8464  OwnershipTransferred(_owner, newOwner) */\n      0xffffffffffffffffffffffffffffffffffffffff\n      and\n      0x8be0079c531659141344cd1fd0a4f28419497f9722a3daafe3b4186f6b6457e0\n      mload(0x40)\n      mload(0x40)\n      dup1\n      swap2\n      sub\n      swap1\n      log3\n        /* \"JLoansFactory.sol\":8484:8492  newOwner */\n      dup1\n        /* \"JLoansFactory.sol\":8475:8481  _owner */\n      0x00\n      dup1\n        /* \"JLoansFactory.sol\":8475:8492  _owner = newOwner */\n      0x0100\n      exp\n      dup2\n      sload\n      dup2\n      0xffffffffffffffffffffffffffffffffffffffff\n      mul\n      not\n      and\n      swap1\n      dup4\n      0xffffffffffffffffffffffffffffffffffffffff\n      and\n      mul\n      or\n      swap1\n      sstore\n      pop\n        /* \"JLoansFactory.sol\":8256:8500  function transferOwnership(address newOwner) public virtual onlyOwner {\r... */\n      pop\n      jump\t// out\n        /* \"JLoansFactory.sol\":5945:6051  function _msgSender() internal view virtual returns (address payable) {\r... */\n    tag_145:\n        /* \"JLoansFactory.sol\":5998:6013  address payable */\n      0x00\n        /* \"JLoansFactory.sol\":6033:6043  msg.sender */\n      caller\n        /* \"JLoansFactory.sol\":6026:6043  return msg.sender */\n      swap1\n      pop\n        /* \"JLoansFactory.sol\":5945:6051  function _msgSender() internal view virtual returns (address payable) {\r... */\n      swap1\n      jump\t// out\n        /* \"--CODEGEN--\":5:135   */\n    tag_227:\n      0x00\n        /* \"--CODEGEN--\":85:91   */\n      dup2\n        /* \"--CODEGEN--\":72:92   */\n      calldataload\n        /* \"--CODEGEN--\":63:92   */\n      swap1\n      pop\n        /* \"--CODEGEN--\":97:130   */\n      tag_229\n        /* \"--CODEGEN--\":124:129   */\n      dup2\n        /* \"--CODEGEN--\":97:130   */\n      tag_230\n      jump\t// in\n    tag_229:\n        /* \"--CODEGEN--\":57:135   */\n      swap3\n      swap2\n      pop\n      pop\n      jump\t// out\n        /* \"--CODEGEN--\":142:288   */\n    tag_231:\n      0x00\n        /* \"--CODEGEN--\":230:236   */\n      dup2\n        /* \"--CODEGEN--\":217:237   */\n      calldataload\n        /* \"--CODEGEN--\":208:237   */\n      swap1\n      pop\n        /* \"--CODEGEN--\":242:283   */\n      tag_233\n        /* \"--CODEGEN--\":277:282   */\n      dup2\n        /* \"--CODEGEN--\":242:283   */\n      tag_234\n      jump\t// in\n    tag_233:\n        /* \"--CODEGEN--\":202:288   */\n      swap3\n      swap2\n      pop\n      pop\n      jump\t// out\n        /* \"--CODEGEN--\":329:1453   */\n    tag_235:\n      0x00\n        /* \"--CODEGEN--\":441:445   */\n      0xc0\n        /* \"--CODEGEN--\":429:438   */\n      dup3\n        /* \"--CODEGEN--\":424:427   */\n      dup5\n        /* \"--CODEGEN--\":420:439   */\n      sub\n        /* \"--CODEGEN--\":416:446   */\n      slt\n        /* \"--CODEGEN--\":413:415   */\n      iszero\n      tag_237\n      jumpi\n        /* \"--CODEGEN--\":459:460   */\n      0x00\n        /* \"--CODEGEN--\":456:457   */\n      dup1\n        /* \"--CODEGEN--\":449:461   */\n      revert\n        /* \"--CODEGEN--\":413:415   */\n    tag_237:\n        /* \"--CODEGEN--\":477:497   */\n      tag_238\n        /* \"--CODEGEN--\":492:496   */\n      0xc0\n        /* \"--CODEGEN--\":477:497   */\n      tag_239\n      jump\t// in\n    tag_238:\n        /* \"--CODEGEN--\":468:497   */\n      swap1\n      pop\n        /* \"--CODEGEN--\":553:554   */\n      0x00\n        /* \"--CODEGEN--\":585:634   */\n      tag_240\n        /* \"--CODEGEN--\":630:633   */\n      dup5\n        /* \"--CODEGEN--\":621:627   */\n      dup3\n        /* \"--CODEGEN--\":610:619   */\n      dup6\n        /* \"--CODEGEN--\":606:628   */\n      add\n        /* \"--CODEGEN--\":585:634   */\n      tag_241\n      jump\t// in\n    tag_240:\n        /* \"--CODEGEN--\":578:582   */\n      0x00\n        /* \"--CODEGEN--\":571:576   */\n      dup4\n        /* \"--CODEGEN--\":567:583   */\n      add\n        /* \"--CODEGEN--\":560:635   */\n      mstore\n        /* \"--CODEGEN--\":507:646   */\n      pop\n        /* \"--CODEGEN--\":713:715   */\n      0x20\n        /* \"--CODEGEN--\":746:795   */\n      tag_242\n        /* \"--CODEGEN--\":791:794   */\n      dup5\n        /* \"--CODEGEN--\":782:788   */\n      dup3\n        /* \"--CODEGEN--\":771:780   */\n      dup6\n        /* \"--CODEGEN--\":767:789   */\n      add\n        /* \"--CODEGEN--\":746:795   */\n      tag_241\n      jump\t// in\n    tag_242:\n        /* \"--CODEGEN--\":739:743   */\n      0x20\n        /* \"--CODEGEN--\":732:737   */\n      dup4\n        /* \"--CODEGEN--\":728:744   */\n      add\n        /* \"--CODEGEN--\":721:796   */\n      mstore\n        /* \"--CODEGEN--\":656:807   */\n      pop\n        /* \"--CODEGEN--\":870:872   */\n      0x40\n        /* \"--CODEGEN--\":903:952   */\n      tag_243\n        /* \"--CODEGEN--\":948:951   */\n      dup5\n        /* \"--CODEGEN--\":939:945   */\n      dup3\n        /* \"--CODEGEN--\":928:937   */\n      dup6\n        /* \"--CODEGEN--\":924:946   */\n      add\n        /* \"--CODEGEN--\":903:952   */\n      tag_241\n      jump\t// in\n    tag_243:\n        /* \"--CODEGEN--\":896:900   */\n      0x40\n        /* \"--CODEGEN--\":889:894   */\n      dup4\n        /* \"--CODEGEN--\":885:901   */\n      add\n        /* \"--CODEGEN--\":878:953   */\n      mstore\n        /* \"--CODEGEN--\":817:964   */\n      pop\n        /* \"--CODEGEN--\":1026:1028   */\n      0x60\n        /* \"--CODEGEN--\":1059:1108   */\n      tag_244\n        /* \"--CODEGEN--\":1104:1107   */\n      dup5\n        /* \"--CODEGEN--\":1095:1101   */\n      dup3\n        /* \"--CODEGEN--\":1084:1093   */\n      dup6\n        /* \"--CODEGEN--\":1080:1102   */\n      add\n        /* \"--CODEGEN--\":1059:1108   */\n      tag_241\n      jump\t// in\n    tag_244:\n        /* \"--CODEGEN--\":1052:1056   */\n      0x60\n        /* \"--CODEGEN--\":1045:1050   */\n      dup4\n        /* \"--CODEGEN--\":1041:1057   */\n      add\n        /* \"--CODEGEN--\":1034:1109   */\n      mstore\n        /* \"--CODEGEN--\":974:1120   */\n      pop\n        /* \"--CODEGEN--\":1189:1192   */\n      0x80\n        /* \"--CODEGEN--\":1223:1272   */\n      tag_245\n        /* \"--CODEGEN--\":1268:1271   */\n      dup5\n        /* \"--CODEGEN--\":1259:1265   */\n      dup3\n        /* \"--CODEGEN--\":1248:1257   */\n      dup6\n        /* \"--CODEGEN--\":1244:1266   */\n      add\n        /* \"--CODEGEN--\":1223:1272   */\n      tag_241\n      jump\t// in\n    tag_245:\n        /* \"--CODEGEN--\":1216:1220   */\n      0x80\n        /* \"--CODEGEN--\":1209:1214   */\n      dup4\n        /* \"--CODEGEN--\":1205:1221   */\n      add\n        /* \"--CODEGEN--\":1198:1273   */\n      mstore\n        /* \"--CODEGEN--\":1130:1284   */\n      pop\n        /* \"--CODEGEN--\":1348:1351   */\n      0xa0\n        /* \"--CODEGEN--\":1382:1431   */\n      tag_246\n        /* \"--CODEGEN--\":1427:1430   */\n      dup5\n        /* \"--CODEGEN--\":1418:1424   */\n      dup3\n        /* \"--CODEGEN--\":1407:1416   */\n      dup6\n        /* \"--CODEGEN--\":1403:1425   */\n      add\n        /* \"--CODEGEN--\":1382:1431   */\n      tag_241\n      jump\t// in\n    tag_246:\n        /* \"--CODEGEN--\":1375:1379   */\n      0xa0\n        /* \"--CODEGEN--\":1368:1373   */\n      dup4\n        /* \"--CODEGEN--\":1364:1380   */\n      add\n        /* \"--CODEGEN--\":1357:1432   */\n      mstore\n        /* \"--CODEGEN--\":1294:1443   */\n      pop\n        /* \"--CODEGEN--\":407:1453   */\n      swap3\n      swap2\n      pop\n      pop\n      jump\t// out\n        /* \"--CODEGEN--\":1460:1590   */\n    tag_241:\n      0x00\n        /* \"--CODEGEN--\":1540:1546   */\n      dup2\n        /* \"--CODEGEN--\":1527:1547   */\n      calldataload\n        /* \"--CODEGEN--\":1518:1547   */\n      swap1\n      pop\n        /* \"--CODEGEN--\":1552:1585   */\n      tag_248\n        /* \"--CODEGEN--\":1579:1584   */\n      dup2\n        /* \"--CODEGEN--\":1552:1585   */\n      tag_249\n      jump\t// in\n    tag_248:\n        /* \"--CODEGEN--\":1512:1590   */\n      swap3\n      swap2\n      pop\n      pop\n      jump\t// out\n        /* \"--CODEGEN--\":1597:1838   */\n    tag_80:\n      0x00\n        /* \"--CODEGEN--\":1701:1703   */\n      0x20\n        /* \"--CODEGEN--\":1689:1698   */\n      dup3\n        /* \"--CODEGEN--\":1680:1687   */\n      dup5\n        /* \"--CODEGEN--\":1676:1699   */\n      sub\n        /* \"--CODEGEN--\":1672:1704   */\n      slt\n        /* \"--CODEGEN--\":1669:1671   */\n      iszero\n      tag_251\n      jumpi\n        /* \"--CODEGEN--\":1717:1718   */\n      0x00\n        /* \"--CODEGEN--\":1714:1715   */\n      dup1\n        /* \"--CODEGEN--\":1707:1719   */\n      revert\n        /* \"--CODEGEN--\":1669:1671   */\n    tag_251:\n        /* \"--CODEGEN--\":1752:1753   */\n      0x00\n        /* \"--CODEGEN--\":1769:1822   */\n      tag_252\n        /* \"--CODEGEN--\":1814:1821   */\n      dup5\n        /* \"--CODEGEN--\":1805:1811   */\n      dup3\n        /* \"--CODEGEN--\":1794:1803   */\n      dup6\n        /* \"--CODEGEN--\":1790:1812   */\n      add\n        /* \"--CODEGEN--\":1769:1822   */\n      tag_227\n      jump\t// in\n    tag_252:\n        /* \"--CODEGEN--\":1759:1822   */\n      swap2\n      pop\n        /* \"--CODEGEN--\":1731:1828   */\n      pop\n        /* \"--CODEGEN--\":1663:1838   */\n      swap3\n      swap2\n      pop\n      pop\n      jump\t// out\n        /* \"--CODEGEN--\":1845:2102   */\n    tag_61:\n      0x00\n        /* \"--CODEGEN--\":1957:1959   */\n      0x20\n        /* \"--CODEGEN--\":1945:1954   */\n      dup3\n        /* \"--CODEGEN--\":1936:1943   */\n      dup5\n        /* \"--CODEGEN--\":1932:1955   */\n      sub\n        /* \"--CODEGEN--\":1928:1960   */\n      slt\n        /* \"--CODEGEN--\":1925:1927   */\n      iszero\n      tag_254\n      jumpi\n        /* \"--CODEGEN--\":1973:1974   */\n      0x00\n        /* \"--CODEGEN--\":1970:1971   */\n      dup1\n        /* \"--CODEGEN--\":1963:1975   */\n      revert\n        /* \"--CODEGEN--\":1925:1927   */\n    tag_254:\n        /* \"--CODEGEN--\":2008:2009   */\n      0x00\n        /* \"--CODEGEN--\":2025:2086   */\n      tag_255\n        /* \"--CODEGEN--\":2078:2085   */\n      dup5\n        /* \"--CODEGEN--\":2069:2075   */\n      dup3\n        /* \"--CODEGEN--\":2058:2067   */\n      dup6\n        /* \"--CODEGEN--\":2054:2076   */\n      add\n        /* \"--CODEGEN--\":2025:2086   */\n      tag_231\n      jump\t// in\n    tag_255:\n        /* \"--CODEGEN--\":2015:2086   */\n      swap2\n      pop\n        /* \"--CODEGEN--\":1987:2092   */\n      pop\n        /* \"--CODEGEN--\":1919:2102   */\n      swap3\n      swap2\n      pop\n      pop\n      jump\t// out\n        /* \"--CODEGEN--\":2109:2397   */\n    tag_125:\n      0x00\n        /* \"--CODEGEN--\":2236:2239   */\n      0xc0\n        /* \"--CODEGEN--\":2224:2233   */\n      dup3\n        /* \"--CODEGEN--\":2215:2222   */\n      dup5\n        /* \"--CODEGEN--\":2211:2234   */\n      sub\n        /* \"--CODEGEN--\":2207:2240   */\n      slt\n        /* \"--CODEGEN--\":2204:2206   */\n      iszero\n      tag_257\n      jumpi\n        /* \"--CODEGEN--\":2253:2254   */\n      0x00\n        /* \"--CODEGEN--\":2250:2251   */\n      dup1\n        /* \"--CODEGEN--\":2243:2255   */\n      revert\n        /* \"--CODEGEN--\":2204:2206   */\n    tag_257:\n        /* \"--CODEGEN--\":2288:2289   */\n      0x00\n        /* \"--CODEGEN--\":2305:2381   */\n      tag_258\n        /* \"--CODEGEN--\":2373:2380   */\n      dup5\n        /* \"--CODEGEN--\":2364:2370   */\n      dup3\n        /* \"--CODEGEN--\":2353:2362   */\n      dup6\n        /* \"--CODEGEN--\":2349:2371   */\n      add\n        /* \"--CODEGEN--\":2305:2381   */\n      tag_235\n      jump\t// in\n    tag_258:\n        /* \"--CODEGEN--\":2295:2381   */\n      swap2\n      pop\n        /* \"--CODEGEN--\":2267:2387   */\n      pop\n        /* \"--CODEGEN--\":2198:2397   */\n      swap3\n      swap2\n      pop\n      pop\n      jump\t// out\n        /* \"--CODEGEN--\":2404:2645   */\n    tag_89:\n      0x00\n        /* \"--CODEGEN--\":2508:2510   */\n      0x20\n        /* \"--CODEGEN--\":2496:2505   */\n      dup3\n        /* \"--CODEGEN--\":2487:2494   */\n      dup5\n        /* \"--CODEGEN--\":2483:2506   */\n      sub\n        /* \"--CODEGEN--\":2479:2511   */\n      slt\n        /* \"--CODEGEN--\":2476:2478   */\n      iszero\n      tag_260\n      jumpi\n        /* \"--CODEGEN--\":2524:2525   */\n      0x00\n        /* \"--CODEGEN--\":2521:2522   */\n      dup1\n        /* \"--CODEGEN--\":2514:2526   */\n      revert\n        /* \"--CODEGEN--\":2476:2478   */\n    tag_260:\n        /* \"--CODEGEN--\":2559:2560   */\n      0x00\n        /* \"--CODEGEN--\":2576:2629   */\n      tag_261\n        /* \"--CODEGEN--\":2621:2628   */\n      dup5\n        /* \"--CODEGEN--\":2612:2618   */\n      dup3\n        /* \"--CODEGEN--\":2601:2610   */\n      dup6\n        /* \"--CODEGEN--\":2597:2619   */\n      add\n        /* \"--CODEGEN--\":2576:2629   */\n      tag_241\n      jump\t// in\n    tag_261:\n        /* \"--CODEGEN--\":2566:2629   */\n      swap2\n      pop\n        /* \"--CODEGEN--\":2538:2635   */\n      pop\n        /* \"--CODEGEN--\":2470:2645   */\n      swap3\n      swap2\n      pop\n      pop\n      jump\t// out\n        /* \"--CODEGEN--\":2652:2794   */\n    tag_262:\n        /* \"--CODEGEN--\":2743:2788   */\n      tag_264\n        /* \"--CODEGEN--\":2782:2787   */\n      dup2\n        /* \"--CODEGEN--\":2743:2788   */\n      tag_265\n      jump\t// in\n    tag_264:\n        /* \"--CODEGEN--\":2738:2741   */\n      dup3\n        /* \"--CODEGEN--\":2731:2789   */\n      mstore\n        /* \"--CODEGEN--\":2725:2794   */\n      pop\n      pop\n      jump\t// out\n        /* \"--CODEGEN--\":2801:2914   */\n    tag_266:\n        /* \"--CODEGEN--\":2884:2908   */\n      tag_268\n        /* \"--CODEGEN--\":2902:2907   */\n      dup2\n        /* \"--CODEGEN--\":2884:2908   */\n      tag_269\n      jump\t// in\n    tag_268:\n        /* \"--CODEGEN--\":2879:2882   */\n      dup3\n        /* \"--CODEGEN--\":2872:2909   */\n      mstore\n        /* \"--CODEGEN--\":2866:2914   */\n      pop\n      pop\n      jump\t// out\n        /* \"--CODEGEN--\":2921:3075   */\n    tag_270:\n        /* \"--CODEGEN--\":3018:3069   */\n      tag_272\n        /* \"--CODEGEN--\":3063:3068   */\n      dup2\n        /* \"--CODEGEN--\":3018:3069   */\n      tag_273\n      jump\t// in\n    tag_272:\n        /* \"--CODEGEN--\":3013:3016   */\n      dup3\n        /* \"--CODEGEN--\":3006:3070   */\n      mstore\n        /* \"--CODEGEN--\":3000:3075   */\n      pop\n      pop\n      jump\t// out\n        /* \"--CODEGEN--\":3082:3224   */\n    tag_274:\n        /* \"--CODEGEN--\":3173:3218   */\n      tag_276\n        /* \"--CODEGEN--\":3212:3217   */\n      dup2\n        /* \"--CODEGEN--\":3173:3218   */\n      tag_277\n      jump\t// in\n    tag_276:\n        /* \"--CODEGEN--\":3168:3171   */\n      dup3\n        /* \"--CODEGEN--\":3161:3219   */\n      mstore\n        /* \"--CODEGEN--\":3155:3224   */\n      pop\n      pop\n      jump\t// out\n        /* \"--CODEGEN--\":3231:3578   */\n    tag_278:\n      0x00\n        /* \"--CODEGEN--\":3343:3382   */\n      tag_280\n        /* \"--CODEGEN--\":3376:3381   */\n      dup3\n        /* \"--CODEGEN--\":3343:3382   */\n      tag_281\n      jump\t// in\n    tag_280:\n        /* \"--CODEGEN--\":3394:3465   */\n      tag_282\n        /* \"--CODEGEN--\":3458:3464   */\n      dup2\n        /* \"--CODEGEN--\":3453:3456   */\n      dup6\n        /* \"--CODEGEN--\":3394:3465   */\n      tag_283\n      jump\t// in\n    tag_282:\n        /* \"--CODEGEN--\":3387:3465   */\n      swap4\n      pop\n        /* \"--CODEGEN--\":3470:3522   */\n      tag_284\n        /* \"--CODEGEN--\":3515:3521   */\n      dup2\n        /* \"--CODEGEN--\":3510:3513   */\n      dup6\n        /* \"--CODEGEN--\":3503:3507   */\n      0x20\n        /* \"--CODEGEN--\":3496:3501   */\n      dup7\n        /* \"--CODEGEN--\":3492:3508   */\n      add\n        /* \"--CODEGEN--\":3470:3522   */\n      tag_285\n      jump\t// in\n    tag_284:\n        /* \"--CODEGEN--\":3543:3572   */\n      tag_286\n        /* \"--CODEGEN--\":3565:3571   */\n      dup2\n        /* \"--CODEGEN--\":3543:3572   */\n      tag_287\n      jump\t// in\n    tag_286:\n        /* \"--CODEGEN--\":3538:3541   */\n      dup5\n        /* \"--CODEGEN--\":3534:3573   */\n      add\n        /* \"--CODEGEN--\":3527:3573   */\n      swap2\n      pop\n        /* \"--CODEGEN--\":3323:3578   */\n      pop\n      swap3\n      swap2\n      pop\n      pop\n      jump\t// out\n        /* \"--CODEGEN--\":3610:4494   */\n    tag_288:\n      0x00\n        /* \"--CODEGEN--\":3747:3752   */\n      dup2\n        /* \"--CODEGEN--\":3741:3753   */\n      sload\n        /* \"--CODEGEN--\":3781:3782   */\n      0x01\n        /* \"--CODEGEN--\":3770:3779   */\n      dup2\n        /* \"--CODEGEN--\":3766:3783   */\n      and\n        /* \"--CODEGEN--\":3794:3795   */\n      0x00\n        /* \"--CODEGEN--\":3789:4057   */\n      dup2\n      eq\n      tag_291\n      jumpi\n        /* \"--CODEGEN--\":4068:4069   */\n      0x01\n        /* \"--CODEGEN--\":4063:4488   */\n      dup2\n      eq\n      tag_292\n      jumpi\n        /* \"--CODEGEN--\":3759:4488   */\n      jump(tag_290)\n        /* \"--CODEGEN--\":3789:4057   */\n    tag_291:\n        /* \"--CODEGEN--\":3867:3871   */\n      0x7f\n        /* \"--CODEGEN--\":3863:3864   */\n      0x02\n        /* \"--CODEGEN--\":3852:3861   */\n      dup4\n        /* \"--CODEGEN--\":3848:3865   */\n      div\n        /* \"--CODEGEN--\":3844:3872   */\n      and\n        /* \"--CODEGEN--\":3886:3975   */\n      tag_293\n        /* \"--CODEGEN--\":3968:3974   */\n      dup2\n        /* \"--CODEGEN--\":3963:3966   */\n      dup8\n        /* \"--CODEGEN--\":3886:3975   */\n      tag_294\n      jump\t// in\n    tag_293:\n        /* \"--CODEGEN--\":3879:3975   */\n      swap6\n      pop\n        /* \"--CODEGEN--\":4013:4017   */\n      0xff\n        /* \"--CODEGEN--\":4009:4018   */\n      not\n        /* \"--CODEGEN--\":3998:4007   */\n      dup4\n        /* \"--CODEGEN--\":3994:4019   */\n      and\n        /* \"--CODEGEN--\":3989:3992   */\n      dup7\n        /* \"--CODEGEN--\":3982:4020   */\n      mstore\n        /* \"--CODEGEN--\":4043:4049   */\n      dup1\n        /* \"--CODEGEN--\":4038:4041   */\n      dup7\n        /* \"--CODEGEN--\":4034:4050   */\n      add\n        /* \"--CODEGEN--\":4027:4050   */\n      swap4\n      pop\n        /* \"--CODEGEN--\":3796:4057   */\n      pop\n        /* \"--CODEGEN--\":3789:4057   */\n      jump(tag_290)\n        /* \"--CODEGEN--\":4063:4488   */\n    tag_292:\n        /* \"--CODEGEN--\":4132:4133   */\n      0x02\n        /* \"--CODEGEN--\":4121:4130   */\n      dup3\n        /* \"--CODEGEN--\":4117:4134   */\n      div\n        /* \"--CODEGEN--\":4148:4237   */\n      tag_295\n        /* \"--CODEGEN--\":4230:4236   */\n      dup2\n        /* \"--CODEGEN--\":4225:4228   */\n      dup8\n        /* \"--CODEGEN--\":4148:4237   */\n      tag_294\n      jump\t// in\n    tag_295:\n        /* \"--CODEGEN--\":4141:4237   */\n      swap6\n      pop\n        /* \"--CODEGEN--\":4259:4297   */\n      tag_296\n        /* \"--CODEGEN--\":4291:4296   */\n      dup6\n        /* \"--CODEGEN--\":4259:4297   */\n      tag_297\n      jump\t// in\n    tag_296:\n        /* \"--CODEGEN--\":4313:4314   */\n      0x00\n        /* \"--CODEGEN--\":4321:4451   */\n    tag_298:\n        /* \"--CODEGEN--\":4335:4341   */\n      dup3\n        /* \"--CODEGEN--\":4332:4333   */\n      dup2\n        /* \"--CODEGEN--\":4329:4342   */\n      lt\n        /* \"--CODEGEN--\":4321:4451   */\n      iszero\n      tag_300\n      jumpi\n        /* \"--CODEGEN--\":4400:4407   */\n      dup2\n        /* \"--CODEGEN--\":4394:4408   */\n      sload\n        /* \"--CODEGEN--\":4390:4391   */\n      dup2\n        /* \"--CODEGEN--\":4385:4388   */\n      dup10\n        /* \"--CODEGEN--\":4381:4392   */\n      add\n        /* \"--CODEGEN--\":4374:4409   */\n      mstore\n        /* \"--CODEGEN--\":4441:4442   */\n      0x01\n        /* \"--CODEGEN--\":4432:4439   */\n      dup3\n        /* \"--CODEGEN--\":4428:4443   */\n      add\n        /* \"--CODEGEN--\":4417:4443   */\n      swap2\n      pop\n        /* \"--CODEGEN--\":4357:4361   */\n      0x20\n        /* \"--CODEGEN--\":4354:4355   */\n      dup2\n        /* \"--CODEGEN--\":4350:4362   */\n      add\n        /* \"--CODEGEN--\":4345:4362   */\n      swap1\n      pop\n        /* \"--CODEGEN--\":4321:4451   */\n      jump(tag_298)\n    tag_300:\n        /* \"--CODEGEN--\":4474:4480   */\n      dup3\n        /* \"--CODEGEN--\":4469:4472   */\n      dup9\n        /* \"--CODEGEN--\":4465:4481   */\n      add\n        /* \"--CODEGEN--\":4458:4481   */\n      swap6\n      pop\n        /* \"--CODEGEN--\":4070:4488   */\n      pop\n      pop\n      pop\n        /* \"--CODEGEN--\":3759:4488   */\n    tag_290:\n      pop\n        /* \"--CODEGEN--\":3717:4494   */\n      pop\n      swap3\n      swap2\n      pop\n      pop\n      jump\t// out\n        /* \"--CODEGEN--\":4503:4878   */\n    tag_301:\n      0x00\n        /* \"--CODEGEN--\":4663:4730   */\n      tag_303\n        /* \"--CODEGEN--\":4727:4729   */\n      0x26\n        /* \"--CODEGEN--\":4722:4725   */\n      dup4\n        /* \"--CODEGEN--\":4663:4730   */\n      tag_283\n      jump\t// in\n    tag_303:\n        /* \"--CODEGEN--\":4656:4730   */\n      swap2\n      pop\n        /* \"--CODEGEN--\":4763:4797   */\n      0x4f776e61626c653a206e6577206f776e657220697320746865207a65726f2061\n        /* \"--CODEGEN--\":4759:4760   */\n      0x00\n        /* \"--CODEGEN--\":4754:4757   */\n      dup4\n        /* \"--CODEGEN--\":4750:4761   */\n      add\n        /* \"--CODEGEN--\":4743:4798   */\n      mstore\n        /* \"--CODEGEN--\":4832:4840   */\n      0x6464726573730000000000000000000000000000000000000000000000000000\n        /* \"--CODEGEN--\":4827:4829   */\n      0x20\n        /* \"--CODEGEN--\":4822:4825   */\n      dup4\n        /* \"--CODEGEN--\":4818:4830   */\n      add\n        /* \"--CODEGEN--\":4811:4841   */\n      mstore\n        /* \"--CODEGEN--\":4869:4871   */\n      0x40\n        /* \"--CODEGEN--\":4864:4867   */\n      dup3\n        /* \"--CODEGEN--\":4860:4872   */\n      add\n        /* \"--CODEGEN--\":4853:4872   */\n      swap1\n      pop\n        /* \"--CODEGEN--\":4649:4878   */\n      swap2\n      swap1\n      pop\n      jump\t// out\n        /* \"--CODEGEN--\":4887:5225   */\n    tag_304:\n      0x00\n        /* \"--CODEGEN--\":5065:5149   */\n      tag_306\n        /* \"--CODEGEN--\":5147:5148   */\n      0x04\n        /* \"--CODEGEN--\":5142:5145   */\n      dup4\n        /* \"--CODEGEN--\":5065:5149   */\n      tag_294\n      jump\t// in\n    tag_306:\n        /* \"--CODEGEN--\":5058:5149   */\n      swap2\n      pop\n        /* \"--CODEGEN--\":5182:5188   */\n      0x4555525300000000000000000000000000000000000000000000000000000000\n        /* \"--CODEGEN--\":5178:5179   */\n      0x00\n        /* \"--CODEGEN--\":5173:5176   */\n      dup4\n        /* \"--CODEGEN--\":5169:5180   */\n      add\n        /* \"--CODEGEN--\":5162:5189   */\n      mstore\n        /* \"--CODEGEN--\":5217:5218   */\n      0x04\n        /* \"--CODEGEN--\":5212:5215   */\n      dup3\n        /* \"--CODEGEN--\":5208:5219   */\n      add\n        /* \"--CODEGEN--\":5201:5219   */\n      swap1\n      pop\n        /* \"--CODEGEN--\":5051:5225   */\n      swap2\n      swap1\n      pop\n      jump\t// out\n        /* \"--CODEGEN--\":5234:5553   */\n    tag_307:\n      0x00\n        /* \"--CODEGEN--\":5394:5461   */\n      tag_309\n        /* \"--CODEGEN--\":5458:5460   */\n      0x13\n        /* \"--CODEGEN--\":5453:5456   */\n      dup4\n        /* \"--CODEGEN--\":5394:5461   */\n      tag_283\n      jump\t// in\n    tag_309:\n        /* \"--CODEGEN--\":5387:5461   */\n      swap2\n      pop\n        /* \"--CODEGEN--\":5494:5515   */\n      0x41646472657373206e6f7420616c6c6f77656400000000000000000000000000\n        /* \"--CODEGEN--\":5490:5491   */\n      0x00\n        /* \"--CODEGEN--\":5485:5488   */\n      dup4\n        /* \"--CODEGEN--\":5481:5492   */\n      add\n        /* \"--CODEGEN--\":5474:5516   */\n      mstore\n        /* \"--CODEGEN--\":5544:5546   */\n      0x20\n        /* \"--CODEGEN--\":5539:5542   */\n      dup3\n        /* \"--CODEGEN--\":5535:5547   */\n      add\n        /* \"--CODEGEN--\":5528:5547   */\n      swap1\n      pop\n        /* \"--CODEGEN--\":5380:5553   */\n      swap2\n      swap1\n      pop\n      jump\t// out\n        /* \"--CODEGEN--\":5562:5950   */\n    tag_310:\n      0x00\n        /* \"--CODEGEN--\":5722:5789   */\n      tag_312\n        /* \"--CODEGEN--\":5786:5788   */\n      0x33\n        /* \"--CODEGEN--\":5781:5784   */\n      dup4\n        /* \"--CODEGEN--\":5722:5789   */\n      tag_283\n      jump\t// in\n    tag_312:\n        /* \"--CODEGEN--\":5715:5789   */\n      swap2\n      pop\n        /* \"--CODEGEN--\":5822:5856   */\n      0x4c6f616e20737461747573206e6f7420636f6d70617469626c65207769746820\n        /* \"--CODEGEN--\":5818:5819   */\n      0x00\n        /* \"--CODEGEN--\":5813:5816   */\n      dup4\n        /* \"--CODEGEN--\":5809:5820   */\n      add\n        /* \"--CODEGEN--\":5802:5857   */\n      mstore\n        /* \"--CODEGEN--\":5891:5912   */\n      0x666f7265636c6f73696e6720616374696f6e7300000000000000000000000000\n        /* \"--CODEGEN--\":5886:5888   */\n      0x20\n        /* \"--CODEGEN--\":5881:5884   */\n      dup4\n        /* \"--CODEGEN--\":5877:5889   */\n      add\n        /* \"--CODEGEN--\":5870:5913   */\n      mstore\n        /* \"--CODEGEN--\":5941:5943   */\n      0x40\n        /* \"--CODEGEN--\":5936:5939   */\n      dup3\n        /* \"--CODEGEN--\":5932:5944   */\n      add\n        /* \"--CODEGEN--\":5925:5944   */\n      swap1\n      pop\n        /* \"--CODEGEN--\":5708:5950   */\n      swap2\n      swap1\n      pop\n      jump\t// out\n        /* \"--CODEGEN--\":5959:6278   */\n    tag_313:\n      0x00\n        /* \"--CODEGEN--\":6119:6186   */\n      tag_315\n        /* \"--CODEGEN--\":6183:6185   */\n      0x13\n        /* \"--CODEGEN--\":6178:6181   */\n      dup4\n        /* \"--CODEGEN--\":6119:6186   */\n      tag_283\n      jump\t// in\n    tag_315:\n        /* \"--CODEGEN--\":6112:6186   */\n      swap2\n      pop\n        /* \"--CODEGEN--\":6219:6240   */\n      0x4e6577207374617465206e6f742076616c696400000000000000000000000000\n        /* \"--CODEGEN--\":6215:6216   */\n      0x00\n        /* \"--CODEGEN--\":6210:6213   */\n      dup4\n        /* \"--CODEGEN--\":6206:6217   */\n      add\n        /* \"--CODEGEN--\":6199:6241   */\n      mstore\n        /* \"--CODEGEN--\":6269:6271   */\n      0x20\n        /* \"--CODEGEN--\":6264:6267   */\n      dup3\n        /* \"--CODEGEN--\":6260:6272   */\n      add\n        /* \"--CODEGEN--\":6253:6272   */\n      swap1\n      pop\n        /* \"--CODEGEN--\":6105:6278   */\n      swap2\n      swap1\n      pop\n      jump\t// out\n        /* \"--CODEGEN--\":6287:6619   */\n    tag_316:\n      0x00\n        /* \"--CODEGEN--\":6447:6514   */\n      tag_318\n        /* \"--CODEGEN--\":6511:6513   */\n      0x20\n        /* \"--CODEGEN--\":6506:6509   */\n      dup4\n        /* \"--CODEGEN--\":6447:6514   */\n      tag_283\n      jump\t// in\n    tag_318:\n        /* \"--CODEGEN--\":6440:6514   */\n      swap2\n      pop\n        /* \"--CODEGEN--\":6547:6581   */\n      0x4f776e61626c653a2063616c6c6572206973206e6f7420746865206f776e6572\n        /* \"--CODEGEN--\":6543:6544   */\n      0x00\n        /* \"--CODEGEN--\":6538:6541   */\n      dup4\n        /* \"--CODEGEN--\":6534:6545   */\n      add\n        /* \"--CODEGEN--\":6527:6582   */\n      mstore\n        /* \"--CODEGEN--\":6610:6612   */\n      0x20\n        /* \"--CODEGEN--\":6605:6608   */\n      dup3\n        /* \"--CODEGEN--\":6601:6613   */\n      add\n        /* \"--CODEGEN--\":6594:6613   */\n      swap1\n      pop\n        /* \"--CODEGEN--\":6433:6619   */\n      swap2\n      swap1\n      pop\n      jump\t// out\n        /* \"--CODEGEN--\":6628:7004   */\n    tag_319:\n      0x00\n        /* \"--CODEGEN--\":6788:6855   */\n      tag_321\n        /* \"--CODEGEN--\":6852:6854   */\n      0x27\n        /* \"--CODEGEN--\":6847:6850   */\n      dup4\n        /* \"--CODEGEN--\":6788:6855   */\n      tag_283\n      jump\t// in\n    tag_321:\n        /* \"--CODEGEN--\":6781:6855   */\n      swap2\n      pop\n        /* \"--CODEGEN--\":6888:6922   */\n      0x4e657720737461747573206973207468652073616d65206c696b652070726573\n        /* \"--CODEGEN--\":6884:6885   */\n      0x00\n        /* \"--CODEGEN--\":6879:6882   */\n      dup4\n        /* \"--CODEGEN--\":6875:6886   */\n      add\n        /* \"--CODEGEN--\":6868:6923   */\n      mstore\n        /* \"--CODEGEN--\":6957:6966   */\n      0x656e74206f6e6500000000000000000000000000000000000000000000000000\n        /* \"--CODEGEN--\":6952:6954   */\n      0x20\n        /* \"--CODEGEN--\":6947:6950   */\n      dup4\n        /* \"--CODEGEN--\":6943:6955   */\n      add\n        /* \"--CODEGEN--\":6936:6967   */\n      mstore\n        /* \"--CODEGEN--\":6995:6997   */\n      0x40\n        /* \"--CODEGEN--\":6990:6993   */\n      dup3\n        /* \"--CODEGEN--\":6986:6998   */\n      add\n        /* \"--CODEGEN--\":6979:6998   */\n      swap1\n      pop\n        /* \"--CODEGEN--\":6774:7004   */\n      swap2\n      swap1\n      pop\n      jump\t// out\n        /* \"--CODEGEN--\":7012:7125   */\n    tag_322:\n        /* \"--CODEGEN--\":7095:7119   */\n      tag_324\n        /* \"--CODEGEN--\":7113:7118   */\n      dup2\n        /* \"--CODEGEN--\":7095:7119   */\n      tag_325\n      jump\t// in\n    tag_324:\n        /* \"--CODEGEN--\":7090:7093   */\n      dup3\n        /* \"--CODEGEN--\":7083:7120   */\n      mstore\n        /* \"--CODEGEN--\":7077:7125   */\n      pop\n      pop\n      jump\t// out\n        /* \"--CODEGEN--\":7132:7401   */\n    tag_174:\n      0x00\n        /* \"--CODEGEN--\":7284:7376   */\n      tag_327\n        /* \"--CODEGEN--\":7372:7375   */\n      dup3\n        /* \"--CODEGEN--\":7363:7369   */\n      dup5\n        /* \"--CODEGEN--\":7284:7376   */\n      tag_288\n      jump\t// in\n    tag_327:\n        /* \"--CODEGEN--\":7277:7376   */\n      swap2\n      pop\n        /* \"--CODEGEN--\":7393:7396   */\n      dup2\n        /* \"--CODEGEN--\":7386:7396   */\n      swap1\n      pop\n        /* \"--CODEGEN--\":7265:7401   */\n      swap3\n      swap2\n      pop\n      pop\n      jump\t// out\n        /* \"--CODEGEN--\":7408:7789   */\n    tag_172:\n      0x00\n        /* \"--CODEGEN--\":7616:7764   */\n      tag_329\n        /* \"--CODEGEN--\":7760:7763   */\n      dup3\n        /* \"--CODEGEN--\":7616:7764   */\n      tag_304\n      jump\t// in\n    tag_329:\n        /* \"--CODEGEN--\":7609:7764   */\n      swap2\n      pop\n        /* \"--CODEGEN--\":7781:7784   */\n      dup2\n        /* \"--CODEGEN--\":7774:7784   */\n      swap1\n      pop\n        /* \"--CODEGEN--\":7597:7789   */\n      swap2\n      swap1\n      pop\n      jump\t// out\n        /* \"--CODEGEN--\":7796:8018   */\n    tag_71:\n      0x00\n        /* \"--CODEGEN--\":7923:7925   */\n      0x20\n        /* \"--CODEGEN--\":7912:7921   */\n      dup3\n        /* \"--CODEGEN--\":7908:7926   */\n      add\n        /* \"--CODEGEN--\":7900:7926   */\n      swap1\n      pop\n        /* \"--CODEGEN--\":7937:8008   */\n      tag_331\n        /* \"--CODEGEN--\":8005:8006   */\n      0x00\n        /* \"--CODEGEN--\":7994:8003   */\n      dup4\n        /* \"--CODEGEN--\":7990:8007   */\n      add\n        /* \"--CODEGEN--\":7981:7987   */\n      dup5\n        /* \"--CODEGEN--\":7937:8008   */\n      tag_266\n      jump\t// in\n    tag_331:\n        /* \"--CODEGEN--\":7894:8018   */\n      swap3\n      swap2\n      pop\n      pop\n      jump\t// out\n        /* \"--CODEGEN--\":8025:8374   */\n    tag_35:\n      0x00\n        /* \"--CODEGEN--\":8188:8190   */\n      0x40\n        /* \"--CODEGEN--\":8177:8186   */\n      dup3\n        /* \"--CODEGEN--\":8173:8191   */\n      add\n        /* \"--CODEGEN--\":8165:8191   */\n      swap1\n      pop\n        /* \"--CODEGEN--\":8202:8281   */\n      tag_333\n        /* \"--CODEGEN--\":8278:8279   */\n      0x00\n        /* \"--CODEGEN--\":8267:8276   */\n      dup4\n        /* \"--CODEGEN--\":8263:8280   */\n      add\n        /* \"--CODEGEN--\":8254:8260   */\n      dup6\n        /* \"--CODEGEN--\":8202:8281   */\n      tag_262\n      jump\t// in\n    tag_333:\n        /* \"--CODEGEN--\":8292:8364   */\n      tag_334\n        /* \"--CODEGEN--\":8360:8362   */\n      0x20\n        /* \"--CODEGEN--\":8349:8358   */\n      dup4\n        /* \"--CODEGEN--\":8345:8363   */\n      add\n        /* \"--CODEGEN--\":8336:8342   */\n      dup5\n        /* \"--CODEGEN--\":8292:8364   */\n      tag_322\n      jump\t// in\n    tag_334:\n        /* \"--CODEGEN--\":8159:8374   */\n      swap4\n      swap3\n      pop\n      pop\n      pop\n      jump\t// out\n        /* \"--CODEGEN--\":8381:8631   */\n    tag_76:\n      0x00\n        /* \"--CODEGEN--\":8522:8524   */\n      0x20\n        /* \"--CODEGEN--\":8511:8520   */\n      dup3\n        /* \"--CODEGEN--\":8507:8525   */\n      add\n        /* \"--CODEGEN--\":8499:8525   */\n      swap1\n      pop\n        /* \"--CODEGEN--\":8536:8621   */\n      tag_336\n        /* \"--CODEGEN--\":8618:8619   */\n      0x00\n        /* \"--CODEGEN--\":8607:8616   */\n      dup4\n        /* \"--CODEGEN--\":8603:8620   */\n      add\n        /* \"--CODEGEN--\":8594:8600   */\n      dup5\n        /* \"--CODEGEN--\":8536:8621   */\n      tag_270\n      jump\t// in\n    tag_336:\n        /* \"--CODEGEN--\":8493:8631   */\n      swap3\n      swap2\n      pop\n      pop\n      jump\t// out\n        /* \"--CODEGEN--\":8638:8876   */\n    tag_40:\n      0x00\n        /* \"--CODEGEN--\":8773:8775   */\n      0x20\n        /* \"--CODEGEN--\":8762:8771   */\n      dup3\n        /* \"--CODEGEN--\":8758:8776   */\n      add\n        /* \"--CODEGEN--\":8750:8776   */\n      swap1\n      pop\n        /* \"--CODEGEN--\":8787:8866   */\n      tag_338\n        /* \"--CODEGEN--\":8863:8864   */\n      0x00\n        /* \"--CODEGEN--\":8852:8861   */\n      dup4\n        /* \"--CODEGEN--\":8848:8865   */\n      add\n        /* \"--CODEGEN--\":8839:8845   */\n      dup5\n        /* \"--CODEGEN--\":8787:8866   */\n      tag_274\n      jump\t// in\n    tag_338:\n        /* \"--CODEGEN--\":8744:8876   */\n      swap3\n      swap2\n      pop\n      pop\n      jump\t// out\n        /* \"--CODEGEN--\":8883:9193   */\n    tag_98:\n      0x00\n        /* \"--CODEGEN--\":9030:9032   */\n      0x20\n        /* \"--CODEGEN--\":9019:9028   */\n      dup3\n        /* \"--CODEGEN--\":9015:9033   */\n      add\n        /* \"--CODEGEN--\":9007:9033   */\n      swap1\n      pop\n        /* \"--CODEGEN--\":9080:9089   */\n      dup2\n        /* \"--CODEGEN--\":9074:9078   */\n      dup2\n        /* \"--CODEGEN--\":9070:9090   */\n      sub\n        /* \"--CODEGEN--\":9066:9067   */\n      0x00\n        /* \"--CODEGEN--\":9055:9064   */\n      dup4\n        /* \"--CODEGEN--\":9051:9068   */\n      add\n        /* \"--CODEGEN--\":9044:9091   */\n      mstore\n        /* \"--CODEGEN--\":9105:9183   */\n      tag_340\n        /* \"--CODEGEN--\":9178:9182   */\n      dup2\n        /* \"--CODEGEN--\":9169:9175   */\n      dup5\n        /* \"--CODEGEN--\":9105:9183   */\n      tag_278\n      jump\t// in\n    tag_340:\n        /* \"--CODEGEN--\":9097:9183   */\n      swap1\n      pop\n        /* \"--CODEGEN--\":9001:9193   */\n      swap3\n      swap2\n      pop\n      pop\n      jump\t// out\n        /* \"--CODEGEN--\":9200:9616   */\n    tag_224:\n      0x00\n        /* \"--CODEGEN--\":9400:9402   */\n      0x20\n        /* \"--CODEGEN--\":9389:9398   */\n      dup3\n        /* \"--CODEGEN--\":9385:9403   */\n      add\n        /* \"--CODEGEN--\":9377:9403   */\n      swap1\n      pop\n        /* \"--CODEGEN--\":9450:9459   */\n      dup2\n        /* \"--CODEGEN--\":9444:9448   */\n      dup2\n        /* \"--CODEGEN--\":9440:9460   */\n      sub\n        /* \"--CODEGEN--\":9436:9437   */\n      0x00\n        /* \"--CODEGEN--\":9425:9434   */\n      dup4\n        /* \"--CODEGEN--\":9421:9438   */\n      add\n        /* \"--CODEGEN--\":9414:9461   */\n      mstore\n        /* \"--CODEGEN--\":9475:9606   */\n      tag_342\n        /* \"--CODEGEN--\":9601:9605   */\n      dup2\n        /* \"--CODEGEN--\":9475:9606   */\n      tag_301\n      jump\t// in\n    tag_342:\n        /* \"--CODEGEN--\":9467:9606   */\n      swap1\n      pop\n        /* \"--CODEGEN--\":9371:9616   */\n      swap2\n      swap1\n      pop\n      jump\t// out\n        /* \"--CODEGEN--\":9623:10039   */\n    tag_164:\n      0x00\n        /* \"--CODEGEN--\":9823:9825   */\n      0x20\n        /* \"--CODEGEN--\":9812:9821   */\n      dup3\n        /* \"--CODEGEN--\":9808:9826   */\n      add\n        /* \"--CODEGEN--\":9800:9826   */\n      swap1\n      pop\n        /* \"--CODEGEN--\":9873:9882   */\n      dup2\n        /* \"--CODEGEN--\":9867:9871   */\n      dup2\n        /* \"--CODEGEN--\":9863:9883   */\n      sub\n        /* \"--CODEGEN--\":9859:9860   */\n      0x00\n        /* \"--CODEGEN--\":9848:9857   */\n      dup4\n        /* \"--CODEGEN--\":9844:9861   */\n      add\n        /* \"--CODEGEN--\":9837:9884   */\n      mstore\n        /* \"--CODEGEN--\":9898:10029   */\n      tag_344\n        /* \"--CODEGEN--\":10024:10028   */\n      dup2\n        /* \"--CODEGEN--\":9898:10029   */\n      tag_307\n      jump\t// in\n    tag_344:\n        /* \"--CODEGEN--\":9890:10029   */\n      swap1\n      pop\n        /* \"--CODEGEN--\":9794:10039   */\n      swap2\n      swap1\n      pop\n      jump\t// out\n        /* \"--CODEGEN--\":10046:10462   */\n    tag_154:\n      0x00\n        /* \"--CODEGEN--\":10246:10248   */\n      0x20\n        /* \"--CODEGEN--\":10235:10244   */\n      dup3\n        /* \"--CODEGEN--\":10231:10249   */\n      add\n        /* \"--CODEGEN--\":10223:10249   */\n      swap1\n      pop\n        /* \"--CODEGEN--\":10296:10305   */\n      dup2\n        /* \"--CODEGEN--\":10290:10294   */\n      dup2\n        /* \"--CODEGEN--\":10286:10306   */\n      sub\n        /* \"--CODEGEN--\":10282:10283   */\n      0x00\n        /* \"--CODEGEN--\":10271:10280   */\n      dup4\n        /* \"--CODEGEN--\":10267:10284   */\n      add\n        /* \"--CODEGEN--\":10260:10307   */\n      mstore\n        /* \"--CODEGEN--\":10321:10452   */\n      tag_346\n        /* \"--CODEGEN--\":10447:10451   */\n      dup2\n        /* \"--CODEGEN--\":10321:10452   */\n      tag_310\n      jump\t// in\n    tag_346:\n        /* \"--CODEGEN--\":10313:10452   */\n      swap1\n      pop\n        /* \"--CODEGEN--\":10217:10462   */\n      swap2\n      swap1\n      pop\n      jump\t// out\n        /* \"--CODEGEN--\":10469:10885   */\n    tag_184:\n      0x00\n        /* \"--CODEGEN--\":10669:10671   */\n      0x20\n        /* \"--CODEGEN--\":10658:10667   */\n      dup3\n        /* \"--CODEGEN--\":10654:10672   */\n      add\n        /* \"--CODEGEN--\":10646:10672   */\n      swap1\n      pop\n        /* \"--CODEGEN--\":10719:10728   */\n      dup2\n        /* \"--CODEGEN--\":10713:10717   */\n      dup2\n        /* \"--CODEGEN--\":10709:10729   */\n      sub\n        /* \"--CODEGEN--\":10705:10706   */\n      0x00\n        /* \"--CODEGEN--\":10694:10703   */\n      dup4\n        /* \"--CODEGEN--\":10690:10707   */\n      add\n        /* \"--CODEGEN--\":10683:10730   */\n      mstore\n        /* \"--CODEGEN--\":10744:10875   */\n      tag_348\n        /* \"--CODEGEN--\":10870:10874   */\n      dup2\n        /* \"--CODEGEN--\":10744:10875   */\n      tag_313\n      jump\t// in\n    tag_348:\n        /* \"--CODEGEN--\":10736:10875   */\n      swap1\n      pop\n        /* \"--CODEGEN--\":10640:10885   */\n      swap2\n      swap1\n      pop\n      jump\t// out\n        /* \"--CODEGEN--\":10892:11308   */\n    tag_148:\n      0x00\n        /* \"--CODEGEN--\":11092:11094   */\n      0x20\n        /* \"--CODEGEN--\":11081:11090   */\n      dup3\n        /* \"--CODEGEN--\":11077:11095   */\n      add\n        /* \"--CODEGEN--\":11069:11095   */\n      swap1\n      pop\n        /* \"--CODEGEN--\":11142:11151   */\n      dup2\n        /* \"--CODEGEN--\":11136:11140   */\n      dup2\n        /* \"--CODEGEN--\":11132:11152   */\n      sub\n        /* \"--CODEGEN--\":11128:11129   */\n      0x00\n        /* \"--CODEGEN--\":11117:11126   */\n      dup4\n        /* \"--CODEGEN--\":11113:11130   */\n      add\n        /* \"--CODEGEN--\":11106:11153   */\n      mstore\n        /* \"--CODEGEN--\":11167:11298   */\n      tag_350\n        /* \"--CODEGEN--\":11293:11297   */\n      dup2\n        /* \"--CODEGEN--\":11167:11298   */\n      tag_316\n      jump\t// in\n    tag_350:\n        /* \"--CODEGEN--\":11159:11298   */\n      swap1\n      pop\n        /* \"--CODEGEN--\":11063:11308   */\n      swap2\n      swap1\n      pop\n      jump\t// out\n        /* \"--CODEGEN--\":11315:11731   */\n    tag_188:\n      0x00\n        /* \"--CODEGEN--\":11515:11517   */\n      0x20\n        /* \"--CODEGEN--\":11504:11513   */\n      dup3\n        /* \"--CODEGEN--\":11500:11518   */\n      add\n        /* \"--CODEGEN--\":11492:11518   */\n      swap1\n      pop\n        /* \"--CODEGEN--\":11565:11574   */\n      dup2\n        /* \"--CODEGEN--\":11559:11563   */\n      dup2\n        /* \"--CODEGEN--\":11555:11575   */\n      sub\n        /* \"--CODEGEN--\":11551:11552   */\n      0x00\n        /* \"--CODEGEN--\":11540:11549   */\n      dup4\n        /* \"--CODEGEN--\":11536:11553   */\n      add\n        /* \"--CODEGEN--\":11529:11576   */\n      mstore\n        /* \"--CODEGEN--\":11590:11721   */\n      tag_352\n        /* \"--CODEGEN--\":11716:11720   */\n      dup2\n        /* \"--CODEGEN--\":11590:11721   */\n      tag_319\n      jump\t// in\n    tag_352:\n        /* \"--CODEGEN--\":11582:11721   */\n      swap1\n      pop\n        /* \"--CODEGEN--\":11486:11731   */\n      swap2\n      swap1\n      pop\n      jump\t// out\n        /* \"--CODEGEN--\":11738:11960   */\n    tag_50:\n      0x00\n        /* \"--CODEGEN--\":11865:11867   */\n      0x20\n        /* \"--CODEGEN--\":11854:11863   */\n      dup3\n        /* \"--CODEGEN--\":11850:11868   */\n      add\n        /* \"--CODEGEN--\":11842:11868   */\n      swap1\n      pop\n        /* \"--CODEGEN--\":11879:11950   */\n      tag_354\n        /* \"--CODEGEN--\":11947:11948   */\n      0x00\n        /* \"--CODEGEN--\":11936:11945   */\n      dup4\n        /* \"--CODEGEN--\":11932:11949   */\n      add\n        /* \"--CODEGEN--\":11923:11929   */\n      dup5\n        /* \"--CODEGEN--\":11879:11950   */\n      tag_322\n      jump\t// in\n    tag_354:\n        /* \"--CODEGEN--\":11836:11960   */\n      swap3\n      swap2\n      pop\n      pop\n      jump\t// out\n        /* \"--CODEGEN--\":11967:12747   */\n    tag_45:\n      0x00\n        /* \"--CODEGEN--\":12234:12237   */\n      0xc0\n        /* \"--CODEGEN--\":12223:12232   */\n      dup3\n        /* \"--CODEGEN--\":12219:12238   */\n      add\n        /* \"--CODEGEN--\":12211:12238   */\n      swap1\n      pop\n        /* \"--CODEGEN--\":12249:12320   */\n      tag_356\n        /* \"--CODEGEN--\":12317:12318   */\n      0x00\n        /* \"--CODEGEN--\":12306:12315   */\n      dup4\n        /* \"--CODEGEN--\":12302:12319   */\n      add\n        /* \"--CODEGEN--\":12293:12299   */\n      dup10\n        /* \"--CODEGEN--\":12249:12320   */\n      tag_322\n      jump\t// in\n    tag_356:\n        /* \"--CODEGEN--\":12331:12403   */\n      tag_357\n        /* \"--CODEGEN--\":12399:12401   */\n      0x20\n        /* \"--CODEGEN--\":12388:12397   */\n      dup4\n        /* \"--CODEGEN--\":12384:12402   */\n      add\n        /* \"--CODEGEN--\":12375:12381   */\n      dup9\n        /* \"--CODEGEN--\":12331:12403   */\n      tag_322\n      jump\t// in\n    tag_357:\n        /* \"--CODEGEN--\":12414:12486   */\n      tag_358\n        /* \"--CODEGEN--\":12482:12484   */\n      0x40\n        /* \"--CODEGEN--\":12471:12480   */\n      dup4\n        /* \"--CODEGEN--\":12467:12485   */\n      add\n        /* \"--CODEGEN--\":12458:12464   */\n      dup8\n        /* \"--CODEGEN--\":12414:12486   */\n      tag_322\n      jump\t// in\n    tag_358:\n        /* \"--CODEGEN--\":12497:12569   */\n      tag_359\n        /* \"--CODEGEN--\":12565:12567   */\n      0x60\n        /* \"--CODEGEN--\":12554:12563   */\n      dup4\n        /* \"--CODEGEN--\":12550:12568   */\n      add\n        /* \"--CODEGEN--\":12541:12547   */\n      dup7\n        /* \"--CODEGEN--\":12497:12569   */\n      tag_322\n      jump\t// in\n    tag_359:\n        /* \"--CODEGEN--\":12580:12653   */\n      tag_360\n        /* \"--CODEGEN--\":12648:12651   */\n      0x80\n        /* \"--CODEGEN--\":12637:12646   */\n      dup4\n        /* \"--CODEGEN--\":12633:12652   */\n      add\n        /* \"--CODEGEN--\":12624:12630   */\n      dup6\n        /* \"--CODEGEN--\":12580:12653   */\n      tag_322\n      jump\t// in\n    tag_360:\n        /* \"--CODEGEN--\":12664:12737   */\n      tag_361\n        /* \"--CODEGEN--\":12732:12735   */\n      0xa0\n        /* \"--CODEGEN--\":12721:12730   */\n      dup4\n        /* \"--CODEGEN--\":12717:12736   */\n      add\n        /* \"--CODEGEN--\":12708:12714   */\n      dup5\n        /* \"--CODEGEN--\":12664:12737   */\n      tag_322\n      jump\t// in\n    tag_361:\n        /* \"--CODEGEN--\":12205:12747   */\n      swap8\n      swap7\n      pop\n      pop\n      pop\n      pop\n      pop\n      pop\n      pop\n      jump\t// out\n        /* \"--CODEGEN--\":12754:13010   */\n    tag_239:\n      0x00\n        /* \"--CODEGEN--\":12816:12818   */\n      0x40\n        /* \"--CODEGEN--\":12810:12819   */\n      mload\n        /* \"--CODEGEN--\":12800:12819   */\n      swap1\n      pop\n        /* \"--CODEGEN--\":12854:12858   */\n      dup2\n        /* \"--CODEGEN--\":12846:12852   */\n      dup2\n        /* \"--CODEGEN--\":12842:12859   */\n      add\n        /* \"--CODEGEN--\":12953:12959   */\n      dup2\n        /* \"--CODEGEN--\":12941:12951   */\n      dup2\n        /* \"--CODEGEN--\":12938:12960   */\n      lt\n        /* \"--CODEGEN--\":12917:12935   */\n      0xffffffffffffffff\n        /* \"--CODEGEN--\":12905:12915   */\n      dup3\n        /* \"--CODEGEN--\":12902:12936   */\n      gt\n        /* \"--CODEGEN--\":12899:12961   */\n      or\n        /* \"--CODEGEN--\":12896:12898   */\n      iszero\n      tag_363\n      jumpi\n        /* \"--CODEGEN--\":12974:12975   */\n      0x00\n        /* \"--CODEGEN--\":12971:12972   */\n      dup1\n        /* \"--CODEGEN--\":12964:12976   */\n      revert\n        /* \"--CODEGEN--\":12896:12898   */\n    tag_363:\n        /* \"--CODEGEN--\":12994:13004   */\n      dup1\n        /* \"--CODEGEN--\":12990:12992   */\n      0x40\n        /* \"--CODEGEN--\":12983:13005   */\n      mstore\n        /* \"--CODEGEN--\":12794:13010   */\n      pop\n      swap2\n      swap1\n      pop\n      jump\t// out\n        /* \"--CODEGEN--\":13017:13175   */\n    tag_297:\n      0x00\n        /* \"--CODEGEN--\":13085:13088   */\n      dup2\n        /* \"--CODEGEN--\":13077:13088   */\n      swap1\n      pop\n        /* \"--CODEGEN--\":13122:13125   */\n      dup2\n        /* \"--CODEGEN--\":13119:13120   */\n      0x00\n        /* \"--CODEGEN--\":13112:13126   */\n      mstore\n        /* \"--CODEGEN--\":13154:13158   */\n      0x20\n        /* \"--CODEGEN--\":13151:13152   */\n      0x00\n        /* \"--CODEGEN--\":13141:13159   */\n      keccak256\n        /* \"--CODEGEN--\":13133:13159   */\n      swap1\n      pop\n        /* \"--CODEGEN--\":13071:13175   */\n      swap2\n      swap1\n      pop\n      jump\t// out\n        /* \"--CODEGEN--\":13182:13304   */\n    tag_281:\n      0x00\n        /* \"--CODEGEN--\":13276:13281   */\n      dup2\n        /* \"--CODEGEN--\":13270:13282   */\n      mload\n        /* \"--CODEGEN--\":13260:13282   */\n      swap1\n      pop\n        /* \"--CODEGEN--\":13241:13304   */\n      swap2\n      swap1\n      pop\n      jump\t// out\n        /* \"--CODEGEN--\":13312:13475   */\n    tag_283:\n      0x00\n        /* \"--CODEGEN--\":13427:13433   */\n      dup3\n        /* \"--CODEGEN--\":13422:13425   */\n      dup3\n        /* \"--CODEGEN--\":13415:13434   */\n      mstore\n        /* \"--CODEGEN--\":13464:13468   */\n      0x20\n        /* \"--CODEGEN--\":13459:13462   */\n      dup3\n        /* \"--CODEGEN--\":13455:13469   */\n      add\n        /* \"--CODEGEN--\":13440:13469   */\n      swap1\n      pop\n        /* \"--CODEGEN--\":13408:13475   */\n      swap3\n      swap2\n      pop\n      pop\n      jump\t// out\n        /* \"--CODEGEN--\":13484:13629   */\n    tag_294:\n      0x00\n        /* \"--CODEGEN--\":13620:13623   */\n      dup2\n        /* \"--CODEGEN--\":13605:13623   */\n      swap1\n      pop\n        /* \"--CODEGEN--\":13598:13629   */\n      swap3\n      swap2\n      pop\n      pop\n      jump\t// out\n        /* \"--CODEGEN--\":13637:13728   */\n    tag_269:\n      0x00\n        /* \"--CODEGEN--\":13699:13723   */\n      tag_369\n        /* \"--CODEGEN--\":13717:13722   */\n      dup3\n        /* \"--CODEGEN--\":13699:13723   */\n      tag_370\n      jump\t// in\n    tag_369:\n        /* \"--CODEGEN--\":13688:13723   */\n      swap1\n      pop\n        /* \"--CODEGEN--\":13682:13728   */\n      swap2\n      swap1\n      pop\n      jump\t// out\n        /* \"--CODEGEN--\":13735:13834   */\n    tag_371:\n      0x00\n        /* \"--CODEGEN--\":13805:13829   */\n      tag_373\n        /* \"--CODEGEN--\":13823:13828   */\n      dup3\n        /* \"--CODEGEN--\":13805:13829   */\n      tag_370\n      jump\t// in\n    tag_373:\n        /* \"--CODEGEN--\":13794:13829   */\n      swap1\n      pop\n        /* \"--CODEGEN--\":13788:13834   */\n      swap2\n      swap1\n      pop\n      jump\t// out\n        /* \"--CODEGEN--\":13841:13967   */\n    tag_374:\n      0x00\n        /* \"--CODEGEN--\":13913:13918   */\n      dup2\n        /* \"--CODEGEN--\":13902:13918   */\n      swap1\n      pop\n        /* \"--CODEGEN--\":13919:13962   */\n      tag_376\n        /* \"--CODEGEN--\":13956:13961   */\n      dup3\n        /* \"--CODEGEN--\":13919:13962   */\n      tag_377\n      jump\t// in\n    tag_376:\n        /* \"--CODEGEN--\":13896:13967   */\n      swap2\n      swap1\n      pop\n      jump\t// out\n        /* \"--CODEGEN--\":13974:14095   */\n    tag_370:\n      0x00\n        /* \"--CODEGEN--\":14047:14089   */\n      0xffffffffffffffffffffffffffffffffffffffff\n        /* \"--CODEGEN--\":14040:14045   */\n      dup3\n        /* \"--CODEGEN--\":14036:14090   */\n      and\n        /* \"--CODEGEN--\":14025:14090   */\n      swap1\n      pop\n        /* \"--CODEGEN--\":14019:14095   */\n      swap2\n      swap1\n      pop\n      jump\t// out\n        /* \"--CODEGEN--\":14102:14174   */\n    tag_325:\n      0x00\n        /* \"--CODEGEN--\":14164:14169   */\n      dup2\n        /* \"--CODEGEN--\":14153:14169   */\n      swap1\n      pop\n        /* \"--CODEGEN--\":14147:14174   */\n      swap2\n      swap1\n      pop\n      jump\t// out\n        /* \"--CODEGEN--\":14181:14310   */\n    tag_265:\n      0x00\n        /* \"--CODEGEN--\":14268:14305   */\n      tag_381\n        /* \"--CODEGEN--\":14299:14304   */\n      dup3\n        /* \"--CODEGEN--\":14268:14305   */\n      tag_382\n      jump\t// in\n    tag_381:\n        /* \"--CODEGEN--\":14255:14305   */\n      swap1\n      pop\n        /* \"--CODEGEN--\":14249:14310   */\n      swap2\n      swap1\n      pop\n      jump\t// out\n        /* \"--CODEGEN--\":14317:14466   */\n    tag_273:\n      0x00\n        /* \"--CODEGEN--\":14410:14461   */\n      tag_384\n        /* \"--CODEGEN--\":14455:14460   */\n      dup3\n        /* \"--CODEGEN--\":14410:14461   */\n      tag_385\n      jump\t// in\n    tag_384:\n        /* \"--CODEGEN--\":14397:14461   */\n      swap1\n      pop\n        /* \"--CODEGEN--\":14391:14466   */\n      swap2\n      swap1\n      pop\n      jump\t// out\n        /* \"--CODEGEN--\":14473:14595   */\n    tag_385:\n      0x00\n        /* \"--CODEGEN--\":14566:14590   */\n      tag_387\n        /* \"--CODEGEN--\":14584:14589   */\n      dup3\n        /* \"--CODEGEN--\":14566:14590   */\n      tag_370\n      jump\t// in\n    tag_387:\n        /* \"--CODEGEN--\":14553:14590   */\n      swap1\n      pop\n        /* \"--CODEGEN--\":14547:14595   */\n      swap2\n      swap1\n      pop\n      jump\t// out\n        /* \"--CODEGEN--\":14602:14728   */\n    tag_277:\n      0x00\n        /* \"--CODEGEN--\":14689:14723   */\n      tag_389\n        /* \"--CODEGEN--\":14717:14722   */\n      dup3\n        /* \"--CODEGEN--\":14689:14723   */\n      tag_374\n      jump\t// in\n    tag_389:\n        /* \"--CODEGEN--\":14676:14723   */\n      swap1\n      pop\n        /* \"--CODEGEN--\":14670:14728   */\n      swap2\n      swap1\n      pop\n      jump\t// out\n        /* \"--CODEGEN--\":14735:14856   */\n    tag_382:\n      0x00\n        /* \"--CODEGEN--\":14814:14851   */\n      tag_391\n        /* \"--CODEGEN--\":14845:14850   */\n      dup3\n        /* \"--CODEGEN--\":14814:14851   */\n      tag_392\n      jump\t// in\n    tag_391:\n        /* \"--CODEGEN--\":14801:14851   */\n      swap1\n      pop\n        /* \"--CODEGEN--\":14795:14856   */\n      swap2\n      swap1\n      pop\n      jump\t// out\n        /* \"--CODEGEN--\":14863:14971   */\n    tag_392:\n      0x00\n        /* \"--CODEGEN--\":14942:14966   */\n      tag_394\n        /* \"--CODEGEN--\":14960:14965   */\n      dup3\n        /* \"--CODEGEN--\":14942:14966   */\n      tag_370\n      jump\t// in\n    tag_394:\n        /* \"--CODEGEN--\":14929:14966   */\n      swap1\n      pop\n        /* \"--CODEGEN--\":14923:14971   */\n      swap2\n      swap1\n      pop\n      jump\t// out\n        /* \"--CODEGEN--\":14979:15247   */\n    tag_285:\n        /* \"--CODEGEN--\":15044:15045   */\n      0x00\n        /* \"--CODEGEN--\":15051:15152   */\n    tag_396:\n        /* \"--CODEGEN--\":15065:15071   */\n      dup4\n        /* \"--CODEGEN--\":15062:15063   */\n      dup2\n        /* \"--CODEGEN--\":15059:15072   */\n      lt\n        /* \"--CODEGEN--\":15051:15152   */\n      iszero\n      tag_398\n      jumpi\n        /* \"--CODEGEN--\":15141:15142   */\n      dup1\n        /* \"--CODEGEN--\":15136:15139   */\n      dup3\n        /* \"--CODEGEN--\":15132:15143   */\n      add\n        /* \"--CODEGEN--\":15126:15144   */\n      mload\n        /* \"--CODEGEN--\":15122:15123   */\n      dup2\n        /* \"--CODEGEN--\":15117:15120   */\n      dup5\n        /* \"--CODEGEN--\":15113:15124   */\n      add\n        /* \"--CODEGEN--\":15106:15145   */\n      mstore\n        /* \"--CODEGEN--\":15087:15089   */\n      0x20\n        /* \"--CODEGEN--\":15084:15085   */\n      dup2\n        /* \"--CODEGEN--\":15080:15090   */\n      add\n        /* \"--CODEGEN--\":15075:15090   */\n      swap1\n      pop\n        /* \"--CODEGEN--\":15051:15152   */\n      jump(tag_396)\n    tag_398:\n        /* \"--CODEGEN--\":15167:15173   */\n      dup4\n        /* \"--CODEGEN--\":15164:15165   */\n      dup2\n        /* \"--CODEGEN--\":15161:15174   */\n      gt\n        /* \"--CODEGEN--\":15158:15160   */\n      iszero\n      tag_399\n      jumpi\n        /* \"--CODEGEN--\":15232:15233   */\n      0x00\n        /* \"--CODEGEN--\":15223:15229   */\n      dup5\n        /* \"--CODEGEN--\":15218:15221   */\n      dup5\n        /* \"--CODEGEN--\":15214:15230   */\n      add\n        /* \"--CODEGEN--\":15207:15234   */\n      mstore\n        /* \"--CODEGEN--\":15158:15160   */\n    tag_399:\n        /* \"--CODEGEN--\":15028:15247   */\n      pop\n      pop\n      pop\n      pop\n      jump\t// out\n        /* \"--CODEGEN--\":15255:15352   */\n    tag_287:\n      0x00\n        /* \"--CODEGEN--\":15343:15345   */\n      0x1f\n        /* \"--CODEGEN--\":15339:15346   */\n      not\n        /* \"--CODEGEN--\":15334:15336   */\n      0x1f\n        /* \"--CODEGEN--\":15327:15332   */\n      dup4\n        /* \"--CODEGEN--\":15323:15337   */\n      add\n        /* \"--CODEGEN--\":15319:15347   */\n      and\n        /* \"--CODEGEN--\":15309:15347   */\n      swap1\n      pop\n        /* \"--CODEGEN--\":15303:15352   */\n      swap2\n      swap1\n      pop\n      jump\t// out\n        /* \"--CODEGEN--\":15360:15461   */\n    tag_377:\n        /* \"--CODEGEN--\":15439:15440   */\n      0x05\n        /* \"--CODEGEN--\":15432:15437   */\n      dup2\n        /* \"--CODEGEN--\":15429:15441   */\n      lt\n        /* \"--CODEGEN--\":15419:15421   */\n      tag_402\n      jumpi\n        /* \"--CODEGEN--\":15445:15454   */\n      invalid\n        /* \"--CODEGEN--\":15419:15421   */\n    tag_402:\n        /* \"--CODEGEN--\":15413:15461   */\n      pop\n      jump\t// out\n        /* \"--CODEGEN--\":15468:15585   */\n    tag_230:\n        /* \"--CODEGEN--\":15537:15561   */\n      tag_404\n        /* \"--CODEGEN--\":15555:15560   */\n      dup2\n        /* \"--CODEGEN--\":15537:15561   */\n      tag_269\n      jump\t// in\n    tag_404:\n        /* \"--CODEGEN--\":15530:15535   */\n      dup2\n        /* \"--CODEGEN--\":15527:15562   */\n      eq\n        /* \"--CODEGEN--\":15517:15519   */\n      tag_405\n      jumpi\n        /* \"--CODEGEN--\":15576:15577   */\n      0x00\n        /* \"--CODEGEN--\":15573:15574   */\n      dup1\n        /* \"--CODEGEN--\":15566:15578   */\n      revert\n        /* \"--CODEGEN--\":15517:15519   */\n    tag_405:\n        /* \"--CODEGEN--\":15511:15585   */\n      pop\n      jump\t// out\n        /* \"--CODEGEN--\":15592:15725   */\n    tag_234:\n        /* \"--CODEGEN--\":15669:15701   */\n      tag_407\n        /* \"--CODEGEN--\":15695:15700   */\n      dup2\n        /* \"--CODEGEN--\":15669:15701   */\n      tag_371\n      jump\t// in\n    tag_407:\n        /* \"--CODEGEN--\":15662:15667   */\n      dup2\n        /* \"--CODEGEN--\":15659:15702   */\n      eq\n        /* \"--CODEGEN--\":15649:15651   */\n      tag_408\n      jumpi\n        /* \"--CODEGEN--\":15716:15717   */\n      0x00\n        /* \"--CODEGEN--\":15713:15714   */\n      dup1\n        /* \"--CODEGEN--\":15706:15718   */\n      revert\n        /* \"--CODEGEN--\":15649:15651   */\n    tag_408:\n        /* \"--CODEGEN--\":15643:15725   */\n      pop\n      jump\t// out\n        /* \"--CODEGEN--\":15732:15849   */\n    tag_249:\n        /* \"--CODEGEN--\":15801:15825   */\n      tag_410\n        /* \"--CODEGEN--\":15819:15824   */\n      dup2\n        /* \"--CODEGEN--\":15801:15825   */\n      tag_325\n      jump\t// in\n    tag_410:\n        /* \"--CODEGEN--\":15794:15799   */\n      dup2\n        /* \"--CODEGEN--\":15791:15826   */\n      eq\n        /* \"--CODEGEN--\":15781:15783   */\n      tag_411\n      jumpi\n        /* \"--CODEGEN--\":15840:15841   */\n      0x00\n        /* \"--CODEGEN--\":15837:15838   */\n      dup1\n        /* \"--CODEGEN--\":15830:15842   */\n      revert\n        /* \"--CODEGEN--\":15781:15783   */\n    tag_411:\n        /* \"--CODEGEN--\":15775:15849   */\n      pop\n      jump\t// out\n\n    auxdata: 0xa264697066735822122072f1b8f59741c40b40235160f5fb3a56461b902744060a52484275c62b497a5264736f6c634300060c0033\n}\n","bytecode":{"linkReferences":{},"object":"60806040523480156200001157600080fd5b50604051620021b0380380620021b08339818101604052810190620000379190620004a8565b868484848460006200004e620002c560201b60201c565b9050806000806101000a81548173ffffffffffffffffffffffffffffffffffffffff021916908373ffffffffffffffffffffffffffffffffffffffff1602179055508073ffffffffffffffffffffffffffffffffffffffff16600073ffffffffffffffffffffffffffffffffffffffff167f8be0079c531659141344cd1fd0a4f28419497f9722a3daafe3b4186f6b6457e060405160405180910390a350816001600082015181600001556020820151816001015560408201518160020155606082015181600301556080820151816004015560a0820151816005015590505060016000015484101562000179576040517f08c379a00000000000000000000000000000000000000000000000000000000081526004016200017090620005dc565b60405180910390fd5b846008908051906020019062000191929190620002cd565b5082600a8190555080601260006101000a81548173ffffffffffffffffffffffffffffffffffffffff021916908373ffffffffffffffffffffffffffffffffffffffff1602179055508360098190555043600c819055507f656ad37b815087d90f0c4cbdbf28a9ef3e92cfeb045dd15eaa452cc8b1d34e00600c546040516200021b9190620005fe565b60405180910390a15050505050856014908051906020019062000240929190620002cd565b50846015819055506000600760006101000a81548160ff021916908360048111156200026857fe5b0217905550600060108190555060006011819055507f656ad37b815087d90f0c4cbdbf28a9ef3e92cfeb045dd15eaa452cc8b1d34e00600c54604051620002b09190620005fe565b60405180910390a1505050505050506200072f565b600033905090565b828054600181600116156101000203166002900490600052602060002090601f016020900481019282601f106200031057805160ff191683800117855562000341565b8280016001018555821562000341579182015b828111156200034057825182559160200191906001019062000323565b5b50905062000350919062000354565b5090565b5b808211156200036f57600081600090555060010162000355565b5090565b6000815190506200038481620006fb565b92915050565b600082601f8301126200039c57600080fd5b8151620003b3620003ad8262000649565b6200061b565b91508082526020830160208301858383011115620003d057600080fd5b620003dd838284620006c5565b50505092915050565b600060c08284031215620003f957600080fd5b6200040560c06200061b565b90506000620004178482850162000491565b60008301525060206200042d8482850162000491565b6020830152506040620004438482850162000491565b6040830152506060620004598482850162000491565b60608301525060806200046f8482850162000491565b60808301525060a0620004858482850162000491565b60a08301525092915050565b600081519050620004a28162000715565b92915050565b6000806000806000806000610180888a031215620004c557600080fd5b600088015167ffffffffffffffff811115620004e057600080fd5b620004ee8a828b016200038a565b975050602088015167ffffffffffffffff8111156200050c57600080fd5b6200051a8a828b016200038a565b96505060406200052d8a828b0162000491565b9550506060620005408a828b0162000491565b9450506080620005538a828b0162000491565b93505060a0620005668a828b01620003e6565b9250506101606200057a8a828b0162000373565b91505092959891949750929550565b60006200059860118362000676565b91507f496e74657265737420746f6f206c6f77210000000000000000000000000000006000830152602082019050919050565b620005d681620006bb565b82525050565b60006020820190508181036000830152620005f78162000589565b9050919050565b6000602082019050620006156000830184620005cb565b92915050565b6000604051905081810181811067ffffffffffffffff821117156200063f57600080fd5b8060405250919050565b600067ffffffffffffffff8211156200066157600080fd5b601f19601f8301169050602081019050919050565b600082825260208201905092915050565b600062000694826200069b565b9050919050565b600073ffffffffffffffffffffffffffffffffffffffff82169050919050565b6000819050919050565b60005b83811015620006e5578082015181840152602081019050620006c8565b83811115620006f5576000848401525b50505050565b620007068162000687565b81146200071257600080fd5b50565b6200072081620006bb565b81146200072c57600080fd5b50565b611a71806200073f6000396000f3fe60806040526004361061016a5760003560e01c8063715018a6116100d1578063adc38b061161008a578063e5acc18711610064578063e5acc187146104fe578063eaf3a62e14610529578063f1a9af8914610554578063f2fde38b1461057f576101aa565b8063adc38b061461047f578063b2ca1805146104aa578063c6cb6770146104d5576101aa565b8063715018a6146103a557806380cc0269146103bc5780638a0dac21146103e75780638da5cb5b1461041257806394a83eeb1461043d578063a2df9b1f14610454576101aa565b80632a3d7c81116101235780632a3d7c81146102a75780633702e6cb146102d257806344dc7fbc146102fd5780635dc334bf146103285780636f9fb98a14610351578063708196ae1461037c576101aa565b8063074ca966146101af57806309e94d98146101da5780630e031a941461020a57806317634514146102355780631cbd83801461026057806325e160631461028b576101aa565b366101aa577f85177f287940f2f05425a4029951af0e047a7f9c4eaa9a6e6917bcd869f8669533346040516101a09291906116b2565b60405180910390a1005b600080fd5b3480156101bb57600080fd5b506101c46105a8565b6040516101d191906116f6565b60405180910390f35b3480156101e657600080fd5b506101ef6105bb565b6040516102019695949392919061180e565b60405180910390f35b34801561021657600080fd5b5061021f6105e5565b60405161022c91906117f3565b60405180910390f35b34801561024157600080fd5b5061024a6105eb565b60405161025791906117f3565b60405180910390f35b34801561026c57600080fd5b506102756105f1565b60405161028291906117f3565b60405180910390f35b6102a560048036038101906102a091906112ac565b6105f7565b005b3480156102b357600080fd5b506102bc61073e565b6040516102c991906117f3565b60405180910390f35b3480156102de57600080fd5b506102e7610744565b6040516102f49190611697565b60405180910390f35b34801561030957600080fd5b5061031261076a565b60405161031f91906116db565b60405180910390f35b34801561033457600080fd5b5061034f600480360381019061034a9190611283565b610790565b005b34801561035d57600080fd5b5061036661092e565b60405161037391906117f3565b60405180910390f35b34801561038857600080fd5b506103a3600480360381019061039e91906112fe565b610994565b005b3480156103b157600080fd5b506103ba610b03565b005b3480156103c857600080fd5b506103d1610c56565b6040516103de9190611711565b60405180910390f35b3480156103f357600080fd5b506103fc610cf4565b60405161040991906117f3565b60405180910390f35b34801561041e57600080fd5b50610427610cfa565b6040516104349190611697565b60405180910390f35b34801561044957600080fd5b50610452610d23565b005b34801561046057600080fd5b50610469610e4d565b60405161047691906117f3565b60405180910390f35b34801561048b57600080fd5b50610494610e53565b6040516104a19190611711565b60405180910390f35b3480156104b657600080fd5b506104bf610ef1565b6040516104cc91906117f3565b60405180910390f35b3480156104e157600080fd5b506104fc60048036038101906104f791906112d5565b610ef7565b005b34801561050a57600080fd5b50610513610fcc565b60405161052091906117f3565b60405180910390f35b34801561053557600080fd5b5061053e610fd2565b60405161054b91906117f3565b60405180910390f35b34801561056057600080fd5b50610569610fd8565b60405161057691906117f3565b60405180910390f35b34801561058b57600080fd5b506105a660048036038101906105a19190611283565b610fde565b005b600760009054906101000a900460ff1681565b60018060000154908060010154908060020154908060030154908060040154908060050154905086565b60095481565b600c5481565b60105481565b6105ff6111a0565b73ffffffffffffffffffffffffffffffffffffffff1660008054906101000a900473ffffffffffffffffffffffffffffffffffffffff1673ffffffffffffffffffffffffffffffffffffffff161461068c576040517f08c379a0000000000000000000000000000000000000000000000000000000008152600401610683906117b3565b60405180910390fd5b6003600481111561069957fe5b600760009054906101000a900460ff1660048111156106b457fe5b146106f4576040517f08c379a00000000000000000000000000000000000000000000000000000000081526004016106eb90611773565b60405180910390fd5b8073ffffffffffffffffffffffffffffffffffffffff166108fc479081150290604051600060405180830381858888f1935050505015801561073a573d6000803e3d6000fd5b5050565b600d5481565b601360009054906101000a900473ffffffffffffffffffffffffffffffffffffffff1681565b601660009054906101000a900473ffffffffffffffffffffffffffffffffffffffff1681565b6107986111a0565b73ffffffffffffffffffffffffffffffffffffffff1660008054906101000a900473ffffffffffffffffffffffffffffffffffffffff1673ffffffffffffffffffffffffffffffffffffffff1614610825576040517f08c379a000000000000000000000000000000000000000000000000000000000815260040161081c906117b3565b60405180910390fd5b600073ffffffffffffffffffffffffffffffffffffffff168173ffffffffffffffffffffffffffffffffffffffff161415610895576040517f08c379a000000000000000000000000000000000000000000000000000000000815260040161088c90611753565b60405180910390fd5b3073ffffffffffffffffffffffffffffffffffffffff1663f2fde38b826040518263ffffffff1660e01b81526004016108ce9190611697565b600060405180830381600087803b1580156108e857600080fd5b505af11580156108fc573d6000803e3d6000fd5b5050505043600e819055506001600760006101000a81548160ff0219169083600481111561092657fe5b021790555050565b600060405160200161093f90611682565b604051602081830303815290604052805190602001206014604051602001610967919061166b565b60405160208183030381529060405280519060200120141561098d576010549050610991565b4790505b90565b601260009054906101000a900473ffffffffffffffffffffffffffffffffffffffff1673ffffffffffffffffffffffffffffffffffffffff163373ffffffffffffffffffffffffffffffffffffffff1614610a24576040517f08c379a0000000000000000000000000000000000000000000000000000000008152600401610a1b90611753565b60405180910390fd5b60008110158015610a36575060048111155b610a75576040517f08c379a0000000000000000000000000000000000000000000000000000000008152600401610a6c90611793565b60405180910390fd5b600760009054906101000a900460ff166004811115610a9057fe5b811415610ad2576040517f08c379a0000000000000000000000000000000000000000000000000000000008152600401610ac9906117d3565b60405180910390fd5b806004811115610ade57fe5b600760006101000a81548160ff02191690836004811115610afb57fe5b021790555050565b610b0b6111a0565b73ffffffffffffffffffffffffffffffffffffffff1660008054906101000a900473ffffffffffffffffffffffffffffffffffffffff1673ffffffffffffffffffffffffffffffffffffffff1614610b98576040517f08c379a0000000000000000000000000000000000000000000000000000000008152600401610b8f906117b3565b60405180910390fd5b600073ffffffffffffffffffffffffffffffffffffffff1660008054906101000a900473ffffffffffffffffffffffffffffffffffffffff1673ffffffffffffffffffffffffffffffffffffffff167f8be0079c531659141344cd1fd0a4f28419497f9722a3daafe3b4186f6b6457e060405160405180910390a360008060006101000a81548173ffffffffffffffffffffffffffffffffffffffff021916908373ffffffffffffffffffffffffffffffffffffffff160217905550565b60088054600181600116156101000203166002900480601f016020809104026020016040519081016040528092919081815260200182805460018160011615610100020316600290048015610cec5780601f10610cc157610100808354040283529160200191610cec565b820191906000526020600020905b815481529060010190602001808311610ccf57829003601f168201915b505050505081565b600f5481565b60008060009054906101000a900473ffffffffffffffffffffffffffffffffffffffff16905090565b610d2b6111a0565b73ffffffffffffffffffffffffffffffffffffffff1660008054906101000a900473ffffffffffffffffffffffffffffffffffffffff1673ffffffffffffffffffffffffffffffffffffffff1614610db8576040517f08c379a0000000000000000000000000000000000000000000000000000000008152600401610daf906117b3565b60405180910390fd5b60016004811115610dc557fe5b600760009054906101000a900460ff166004811115610de057fe5b14610e20576040517f08c379a0000000000000000000000000000000000000000000000000000000008152600401610e1790611773565b60405180910390fd5b43600f819055506002600760006101000a81548160ff02191690836004811115610e4657fe5b0217905550565b600b5481565b60148054600181600116156101000203166002900480601f016020809104026020016040519081016040528092919081815260200182805460018160011615610100020316600290048015610ee95780601f10610ebe57610100808354040283529160200191610ee9565b820191906000526020600020905b815481529060010190602001808311610ecc57829003601f168201915b505050505081565b600e5481565b601260009054906101000a900473ffffffffffffffffffffffffffffffffffffffff1673ffffffffffffffffffffffffffffffffffffffff163373ffffffffffffffffffffffffffffffffffffffff1614610f87576040517f08c379a0000000000000000000000000000000000000000000000000000000008152600401610f7e90611753565b60405180910390fd5b806001600082015181600001556020820151816001015560408201518160020155606082015181600301556080820151816004015560a0820151816005015590505050565b60155481565b60115481565b600a5481565b610fe66111a0565b73ffffffffffffffffffffffffffffffffffffffff1660008054906101000a900473ffffffffffffffffffffffffffffffffffffffff1673ffffffffffffffffffffffffffffffffffffffff1614611073576040517f08c379a000000000000000000000000000000000000000000000000000000000815260040161106a906117b3565b60405180910390fd5b600073ffffffffffffffffffffffffffffffffffffffff168173ffffffffffffffffffffffffffffffffffffffff1614156110e3576040517f08c379a00000000000000000000000000000000000000000000000000000000081526004016110da90611733565b60405180910390fd5b8073ffffffffffffffffffffffffffffffffffffffff1660008054906101000a900473ffffffffffffffffffffffffffffffffffffffff1673ffffffffffffffffffffffffffffffffffffffff167f8be0079c531659141344cd1fd0a4f28419497f9722a3daafe3b4186f6b6457e060405160405180910390a3806000806101000a81548173ffffffffffffffffffffffffffffffffffffffff021916908373ffffffffffffffffffffffffffffffffffffffff16021790555050565b600033905090565b6000813590506111b7816119f6565b92915050565b6000813590506111cc81611a0d565b92915050565b600060c082840312156111e457600080fd5b6111ee60c061186f565b905060006111fe8482850161126e565b60008301525060206112128482850161126e565b60208301525060406112268482850161126e565b604083015250606061123a8482850161126e565b606083015250608061124e8482850161126e565b60808301525060a06112628482850161126e565b60a08301525092915050565b60008135905061127d81611a24565b92915050565b60006020828403121561129557600080fd5b60006112a3848285016111a8565b91505092915050565b6000602082840312156112be57600080fd5b60006112cc848285016111bd565b91505092915050565b600060c082840312156112e757600080fd5b60006112f5848285016111d2565b91505092915050565b60006020828403121561131057600080fd5b600061131e8482850161126e565b91505092915050565b61133081611939565b82525050565b61133f816118d8565b82525050565b61134e8161194b565b82525050565b61135d8161196f565b82525050565b600061136e826118b1565b61137881856118bc565b93506113888185602086016119a5565b611391816119d8565b840191505092915050565b6000815460018116600081146113b957600181146113de57611422565b607f60028304166113ca81876118cd565b955060ff1983168652808601935050611422565b600282046113ec81876118cd565b95506113f78561189c565b60005b82811015611419578154818901526001820191506020810190506113fa565b82880195505050505b505092915050565b60006114376026836118bc565b91507f4f776e61626c653a206e6577206f776e657220697320746865207a65726f206160008301527f64647265737300000000000000000000000000000000000000000000000000006020830152604082019050919050565b600061149d6004836118cd565b91507f45555253000000000000000000000000000000000000000000000000000000006000830152600482019050919050565b60006114dd6013836118bc565b91507f41646472657373206e6f7420616c6c6f776564000000000000000000000000006000830152602082019050919050565b600061151d6033836118bc565b91507f4c6f616e20737461747573206e6f7420636f6d70617469626c6520776974682060008301527f666f7265636c6f73696e6720616374696f6e73000000000000000000000000006020830152604082019050919050565b60006115836013836118bc565b91507f4e6577207374617465206e6f742076616c6964000000000000000000000000006000830152602082019050919050565b60006115c36020836118bc565b91507f4f776e61626c653a2063616c6c6572206973206e6f7420746865206f776e65726000830152602082019050919050565b60006116036027836118bc565b91507f4e657720737461747573206973207468652073616d65206c696b65207072657360008301527f656e74206f6e65000000000000000000000000000000000000000000000000006020830152604082019050919050565b6116658161192f565b82525050565b6000611677828461139c565b915081905092915050565b600061168d82611490565b9150819050919050565b60006020820190506116ac6000830184611336565b92915050565b60006040820190506116c76000830185611327565b6116d4602083018461165c565b9392505050565b60006020820190506116f06000830184611345565b92915050565b600060208201905061170b6000830184611354565b92915050565b6000602082019050818103600083015261172b8184611363565b905092915050565b6000602082019050818103600083015261174c8161142a565b9050919050565b6000602082019050818103600083015261176c816114d0565b9050919050565b6000602082019050818103600083015261178c81611510565b9050919050565b600060208201905081810360008301526117ac81611576565b9050919050565b600060208201905081810360008301526117cc816115b6565b9050919050565b600060208201905081810360008301526117ec816115f6565b9050919050565b6000602082019050611808600083018461165c565b92915050565b600060c082019050611823600083018961165c565b611830602083018861165c565b61183d604083018761165c565b61184a606083018661165c565b611857608083018561165c565b61186460a083018461165c565b979650505050505050565b6000604051905081810181811067ffffffffffffffff8211171561189257600080fd5b8060405250919050565b60008190508160005260206000209050919050565b600081519050919050565b600082825260208201905092915050565b600081905092915050565b60006118e38261190f565b9050919050565b60006118f58261190f565b9050919050565b600081905061190a826119e9565b919050565b600073ffffffffffffffffffffffffffffffffffffffff82169050919050565b6000819050919050565b600061194482611981565b9050919050565b60006119568261195d565b9050919050565b60006119688261190f565b9050919050565b600061197a826118fc565b9050919050565b600061198c82611993565b9050919050565b600061199e8261190f565b9050919050565b60005b838110156119c35780820151818401526020810190506119a8565b838111156119d2576000848401525b50505050565b6000601f19601f8301169050919050565b600581106119f357fe5b50565b6119ff816118d8565b8114611a0a57600080fd5b50565b611a16816118ea565b8114611a2157600080fd5b50565b611a2d8161192f565b8114611a3857600080fd5b5056fea264697066735822122072f1b8f59741c40b40235160f5fb3a56461b902744060a52484275c62b497a5264736f6c634300060c0033","opcodes":"PUSH1 0x80 PUSH1 0x40 MSTORE CALLVALUE DUP1 ISZERO PUSH3 0x11 JUMPI PUSH1 0x0 DUP1 REVERT JUMPDEST POP PUSH1 0x40 MLOAD PUSH3 0x21B0 CODESIZE SUB DUP1 PUSH3 0x21B0 DUP4 CODECOPY DUP2 DUP2 ADD PUSH1 0x40 MSTORE DUP2 ADD SWAP1 PUSH3 0x37 SWAP2 SWAP1 PUSH3 0x4A8 JUMP JUMPDEST DUP7 DUP5 DUP5 DUP5 DUP5 PUSH1 0x0 PUSH3 0x4E PUSH3 0x2C5 PUSH1 0x20 SHL PUSH1 0x20 SHR JUMP JUMPDEST SWAP1 POP DUP1 PUSH1 0x0 DUP1 PUSH2 0x100 EXP DUP2 SLOAD DUP2 PUSH20 0xFFFFFFFFFFFFFFFFFFFFFFFFFFFFFFFFFFFFFFFF MUL NOT AND SWAP1 DUP4 PUSH20 0xFFFFFFFFFFFFFFFFFFFFFFFFFFFFFFFFFFFFFFFF AND MUL OR SWAP1 SSTORE POP DUP1 PUSH20 0xFFFFFFFFFFFFFFFFFFFFFFFFFFFFFFFFFFFFFFFF AND PUSH1 0x0 PUSH20 0xFFFFFFFFFFFFFFFFFFFFFFFFFFFFFFFFFFFFFFFF AND PUSH32 0x8BE0079C531659141344CD1FD0A4F28419497F9722A3DAAFE3B4186F6B6457E0 PUSH1 0x40 MLOAD PUSH1 0x40 MLOAD DUP1 SWAP2 SUB SWAP1 LOG3 POP DUP2 PUSH1 0x1 PUSH1 0x0 DUP3 ADD MLOAD DUP2 PUSH1 0x0 ADD SSTORE PUSH1 0x20 DUP3 ADD MLOAD DUP2 PUSH1 0x1 ADD SSTORE PUSH1 0x40 DUP3 ADD MLOAD DUP2 PUSH1 0x2 ADD SSTORE PUSH1 0x60 DUP3 ADD MLOAD DUP2 PUSH1 0x3 ADD SSTORE PUSH1 0x80 DUP3 ADD MLOAD DUP2 PUSH1 0x4 ADD SSTORE PUSH1 0xA0 DUP3 ADD MLOAD DUP2 PUSH1 0x5 ADD SSTORE SWAP1 POP POP PUSH1 0x1 PUSH1 0x0 ADD SLOAD DUP5 LT ISZERO PUSH3 0x179 JUMPI PUSH1 0x40 MLOAD PUSH32 0x8C379A000000000000000000000000000000000000000000000000000000000 DUP2 MSTORE PUSH1 0x4 ADD PUSH3 0x170 SWAP1 PUSH3 0x5DC JUMP JUMPDEST PUSH1 0x40 MLOAD DUP1 SWAP2 SUB SWAP1 REVERT JUMPDEST DUP5 PUSH1 0x8 SWAP1 DUP1 MLOAD SWAP1 PUSH1 0x20 ADD SWAP1 PUSH3 0x191 SWAP3 SWAP2 SWAP1 PUSH3 0x2CD JUMP JUMPDEST POP DUP3 PUSH1 0xA DUP2 SWAP1 SSTORE POP DUP1 PUSH1 0x12 PUSH1 0x0 PUSH2 0x100 EXP DUP2 SLOAD DUP2 PUSH20 0xFFFFFFFFFFFFFFFFFFFFFFFFFFFFFFFFFFFFFFFF MUL NOT AND SWAP1 DUP4 PUSH20 0xFFFFFFFFFFFFFFFFFFFFFFFFFFFFFFFFFFFFFFFF AND MUL OR SWAP1 SSTORE POP DUP4 PUSH1 0x9 DUP2 SWAP1 SSTORE POP NUMBER PUSH1 0xC DUP2 SWAP1 SSTORE POP PUSH32 0x656AD37B815087D90F0C4CBDBF28A9EF3E92CFEB045DD15EAA452CC8B1D34E00 PUSH1 0xC SLOAD PUSH1 0x40 MLOAD PUSH3 0x21B SWAP2 SWAP1 PUSH3 0x5FE JUMP JUMPDEST PUSH1 0x40 MLOAD DUP1 SWAP2 SUB SWAP1 LOG1 POP POP POP POP POP DUP6 PUSH1 0x14 SWAP1 DUP1 MLOAD SWAP1 PUSH1 0x20 ADD SWAP1 PUSH3 0x240 SWAP3 SWAP2 SWAP1 PUSH3 0x2CD JUMP JUMPDEST POP DUP5 PUSH1 0x15 DUP2 SWAP1 SSTORE POP PUSH1 0x0 PUSH1 0x7 PUSH1 0x0 PUSH2 0x100 EXP DUP2 SLOAD DUP2 PUSH1 0xFF MUL NOT AND SWAP1 DUP4 PUSH1 0x4 DUP2 GT ISZERO PUSH3 0x268 JUMPI INVALID JUMPDEST MUL OR SWAP1 SSTORE POP PUSH1 0x0 PUSH1 0x10 DUP2 SWAP1 SSTORE POP PUSH1 0x0 PUSH1 0x11 DUP2 SWAP1 SSTORE POP PUSH32 0x656AD37B815087D90F0C4CBDBF28A9EF3E92CFEB045DD15EAA452CC8B1D34E00 PUSH1 0xC SLOAD PUSH1 0x40 MLOAD PUSH3 0x2B0 SWAP2 SWAP1 PUSH3 0x5FE JUMP JUMPDEST PUSH1 0x40 MLOAD DUP1 SWAP2 SUB SWAP1 LOG1 POP POP POP POP POP POP POP PUSH3 0x72F JUMP JUMPDEST PUSH1 0x0 CALLER SWAP1 POP SWAP1 JUMP JUMPDEST DUP3 DUP1 SLOAD PUSH1 0x1 DUP2 PUSH1 0x1 AND ISZERO PUSH2 0x100 MUL SUB AND PUSH1 0x2 SWAP1 DIV SWAP1 PUSH1 0x0 MSTORE PUSH1 0x20 PUSH1 0x0 KECCAK256 SWAP1 PUSH1 0x1F ADD PUSH1 0x20 SWAP1 DIV DUP2 ADD SWAP3 DUP3 PUSH1 0x1F LT PUSH3 0x310 JUMPI DUP1 MLOAD PUSH1 0xFF NOT AND DUP4 DUP1 ADD OR DUP6 SSTORE PUSH3 0x341 JUMP JUMPDEST DUP3 DUP1 ADD PUSH1 0x1 ADD DUP6 SSTORE DUP3 ISZERO PUSH3 0x341 JUMPI SWAP2 DUP3 ADD JUMPDEST DUP3 DUP2 GT ISZERO PUSH3 0x340 JUMPI DUP3 MLOAD DUP3 SSTORE SWAP2 PUSH1 0x20 ADD SWAP2 SWAP1 PUSH1 0x1 ADD SWAP1 PUSH3 0x323 JUMP JUMPDEST JUMPDEST POP SWAP1 POP PUSH3 0x350 SWAP2 SWAP1 PUSH3 0x354 JUMP JUMPDEST POP SWAP1 JUMP JUMPDEST JUMPDEST DUP1 DUP3 GT ISZERO PUSH3 0x36F JUMPI PUSH1 0x0 DUP2 PUSH1 0x0 SWAP1 SSTORE POP PUSH1 0x1 ADD PUSH3 0x355 JUMP JUMPDEST POP SWAP1 JUMP JUMPDEST PUSH1 0x0 DUP2 MLOAD SWAP1 POP PUSH3 0x384 DUP2 PUSH3 0x6FB JUMP JUMPDEST SWAP3 SWAP2 POP POP JUMP JUMPDEST PUSH1 0x0 DUP3 PUSH1 0x1F DUP4 ADD SLT PUSH3 0x39C JUMPI PUSH1 0x0 DUP1 REVERT JUMPDEST DUP2 MLOAD PUSH3 0x3B3 PUSH3 0x3AD DUP3 PUSH3 0x649 JUMP JUMPDEST PUSH3 0x61B JUMP JUMPDEST SWAP2 POP DUP1 DUP3 MSTORE PUSH1 0x20 DUP4 ADD PUSH1 0x20 DUP4 ADD DUP6 DUP4 DUP4 ADD GT ISZERO PUSH3 0x3D0 JUMPI PUSH1 0x0 DUP1 REVERT JUMPDEST PUSH3 0x3DD DUP4 DUP3 DUP5 PUSH3 0x6C5 JUMP JUMPDEST POP POP POP SWAP3 SWAP2 POP POP JUMP JUMPDEST PUSH1 0x0 PUSH1 0xC0 DUP3 DUP5 SUB SLT ISZERO PUSH3 0x3F9 JUMPI PUSH1 0x0 DUP1 REVERT JUMPDEST PUSH3 0x405 PUSH1 0xC0 PUSH3 0x61B JUMP JUMPDEST SWAP1 POP PUSH1 0x0 PUSH3 0x417 DUP5 DUP3 DUP6 ADD PUSH3 0x491 JUMP JUMPDEST PUSH1 0x0 DUP4 ADD MSTORE POP PUSH1 0x20 PUSH3 0x42D DUP5 DUP3 DUP6 ADD PUSH3 0x491 JUMP JUMPDEST PUSH1 0x20 DUP4 ADD MSTORE POP PUSH1 0x40 PUSH3 0x443 DUP5 DUP3 DUP6 ADD PUSH3 0x491 JUMP JUMPDEST PUSH1 0x40 DUP4 ADD MSTORE POP PUSH1 0x60 PUSH3 0x459 DUP5 DUP3 DUP6 ADD PUSH3 0x491 JUMP JUMPDEST PUSH1 0x60 DUP4 ADD MSTORE POP PUSH1 0x80 PUSH3 0x46F DUP5 DUP3 DUP6 ADD PUSH3 0x491 JUMP JUMPDEST PUSH1 0x80 DUP4 ADD MSTORE POP PUSH1 0xA0 PUSH3 0x485 DUP5 DUP3 DUP6 ADD PUSH3 0x491 JUMP JUMPDEST PUSH1 0xA0 DUP4 ADD MSTORE POP SWAP3 SWAP2 POP POP JUMP JUMPDEST PUSH1 0x0 DUP2 MLOAD SWAP1 POP PUSH3 0x4A2 DUP2 PUSH3 0x715 JUMP JUMPDEST SWAP3 SWAP2 POP POP JUMP JUMPDEST PUSH1 0x0 DUP1 PUSH1 0x0 DUP1 PUSH1 0x0 DUP1 PUSH1 0x0 PUSH2 0x180 DUP9 DUP11 SUB SLT ISZERO PUSH3 0x4C5 JUMPI PUSH1 0x0 DUP1 REVERT JUMPDEST PUSH1 0x0 DUP9 ADD MLOAD PUSH8 0xFFFFFFFFFFFFFFFF DUP2 GT ISZERO PUSH3 0x4E0 JUMPI PUSH1 0x0 DUP1 REVERT JUMPDEST PUSH3 0x4EE DUP11 DUP3 DUP12 ADD PUSH3 0x38A JUMP JUMPDEST SWAP8 POP POP PUSH1 0x20 DUP9 ADD MLOAD PUSH8 0xFFFFFFFFFFFFFFFF DUP2 GT ISZERO PUSH3 0x50C JUMPI PUSH1 0x0 DUP1 REVERT JUMPDEST PUSH3 0x51A DUP11 DUP3 DUP12 ADD PUSH3 0x38A JUMP JUMPDEST SWAP7 POP POP PUSH1 0x40 PUSH3 0x52D DUP11 DUP3 DUP12 ADD PUSH3 0x491 JUMP JUMPDEST SWAP6 POP POP PUSH1 0x60 PUSH3 0x540 DUP11 DUP3 DUP12 ADD PUSH3 0x491 JUMP JUMPDEST SWAP5 POP POP PUSH1 0x80 PUSH3 0x553 DUP11 DUP3 DUP12 ADD PUSH3 0x491 JUMP JUMPDEST SWAP4 POP POP PUSH1 0xA0 PUSH3 0x566 DUP11 DUP3 DUP12 ADD PUSH3 0x3E6 JUMP JUMPDEST SWAP3 POP POP PUSH2 0x160 PUSH3 0x57A DUP11 DUP3 DUP12 ADD PUSH3 0x373 JUMP JUMPDEST SWAP2 POP POP SWAP3 SWAP6 SWAP9 SWAP2 SWAP5 SWAP8 POP SWAP3 SWAP6 POP JUMP JUMPDEST PUSH1 0x0 PUSH3 0x598 PUSH1 0x11 DUP4 PUSH3 0x676 JUMP JUMPDEST SWAP2 POP PUSH32 0x496E74657265737420746F6F206C6F7721000000000000000000000000000000 PUSH1 0x0 DUP4 ADD MSTORE PUSH1 0x20 DUP3 ADD SWAP1 POP SWAP2 SWAP1 POP JUMP JUMPDEST PUSH3 0x5D6 DUP2 PUSH3 0x6BB JUMP JUMPDEST DUP3 MSTORE POP POP JUMP JUMPDEST PUSH1 0x0 PUSH1 0x20 DUP3 ADD SWAP1 POP DUP2 DUP2 SUB PUSH1 0x0 DUP4 ADD MSTORE PUSH3 0x5F7 DUP2 PUSH3 0x589 JUMP JUMPDEST SWAP1 POP SWAP2 SWAP1 POP JUMP JUMPDEST PUSH1 0x0 PUSH1 0x20 DUP3 ADD SWAP1 POP PUSH3 0x615 PUSH1 0x0 DUP4 ADD DUP5 PUSH3 0x5CB JUMP JUMPDEST SWAP3 SWAP2 POP POP JUMP JUMPDEST PUSH1 0x0 PUSH1 0x40 MLOAD SWAP1 POP DUP2 DUP2 ADD DUP2 DUP2 LT PUSH8 0xFFFFFFFFFFFFFFFF DUP3 GT OR ISZERO PUSH3 0x63F JUMPI PUSH1 0x0 DUP1 REVERT JUMPDEST DUP1 PUSH1 0x40 MSTORE POP SWAP2 SWAP1 POP JUMP JUMPDEST PUSH1 0x0 PUSH8 0xFFFFFFFFFFFFFFFF DUP3 GT ISZERO PUSH3 0x661 JUMPI PUSH1 0x0 DUP1 REVERT JUMPDEST PUSH1 0x1F NOT PUSH1 0x1F DUP4 ADD AND SWAP1 POP PUSH1 0x20 DUP2 ADD SWAP1 POP SWAP2 SWAP1 POP JUMP JUMPDEST PUSH1 0x0 DUP3 DUP3 MSTORE PUSH1 0x20 DUP3 ADD SWAP1 POP SWAP3 SWAP2 POP POP JUMP JUMPDEST PUSH1 0x0 PUSH3 0x694 DUP3 PUSH3 0x69B JUMP JUMPDEST SWAP1 POP SWAP2 SWAP1 POP JUMP JUMPDEST PUSH1 0x0 PUSH20 0xFFFFFFFFFFFFFFFFFFFFFFFFFFFFFFFFFFFFFFFF DUP3 AND SWAP1 POP SWAP2 SWAP1 POP JUMP JUMPDEST PUSH1 0x0 DUP2 SWAP1 POP SWAP2 SWAP1 POP JUMP JUMPDEST PUSH1 0x0 JUMPDEST DUP4 DUP2 LT ISZERO PUSH3 0x6E5 JUMPI DUP1 DUP3 ADD MLOAD DUP2 DUP5 ADD MSTORE PUSH1 0x20 DUP2 ADD SWAP1 POP PUSH3 0x6C8 JUMP JUMPDEST DUP4 DUP2 GT ISZERO PUSH3 0x6F5 JUMPI PUSH1 0x0 DUP5 DUP5 ADD MSTORE JUMPDEST POP POP POP POP JUMP JUMPDEST PUSH3 0x706 DUP2 PUSH3 0x687 JUMP JUMPDEST DUP2 EQ PUSH3 0x712 JUMPI PUSH1 0x0 DUP1 REVERT JUMPDEST POP JUMP JUMPDEST PUSH3 0x720 DUP2 PUSH3 0x6BB JUMP JUMPDEST DUP2 EQ PUSH3 0x72C JUMPI PUSH1 0x0 DUP1 REVERT JUMPDEST POP JUMP JUMPDEST PUSH2 0x1A71 DUP1 PUSH3 0x73F PUSH1 0x0 CODECOPY PUSH1 0x0 RETURN INVALID PUSH1 0x80 PUSH1 0x40 MSTORE PUSH1 0x4 CALLDATASIZE LT PUSH2 0x16A JUMPI PUSH1 0x0 CALLDATALOAD PUSH1 0xE0 SHR DUP1 PUSH4 0x715018A6 GT PUSH2 0xD1 JUMPI DUP1 PUSH4 0xADC38B06 GT PUSH2 0x8A JUMPI DUP1 PUSH4 0xE5ACC187 GT PUSH2 0x64 JUMPI DUP1 PUSH4 0xE5ACC187 EQ PUSH2 0x4FE JUMPI DUP1 PUSH4 0xEAF3A62E EQ PUSH2 0x529 JUMPI DUP1 PUSH4 0xF1A9AF89 EQ PUSH2 0x554 JUMPI DUP1 PUSH4 0xF2FDE38B EQ PUSH2 0x57F JUMPI PUSH2 0x1AA JUMP JUMPDEST DUP1 PUSH4 0xADC38B06 EQ PUSH2 0x47F JUMPI DUP1 PUSH4 0xB2CA1805 EQ PUSH2 0x4AA JUMPI DUP1 PUSH4 0xC6CB6770 EQ PUSH2 0x4D5 JUMPI PUSH2 0x1AA JUMP JUMPDEST DUP1 PUSH4 0x715018A6 EQ PUSH2 0x3A5 JUMPI DUP1 PUSH4 0x80CC0269 EQ PUSH2 0x3BC JUMPI DUP1 PUSH4 0x8A0DAC21 EQ PUSH2 0x3E7 JUMPI DUP1 PUSH4 0x8DA5CB5B EQ PUSH2 0x412 JUMPI DUP1 PUSH4 0x94A83EEB EQ PUSH2 0x43D JUMPI DUP1 PUSH4 0xA2DF9B1F EQ PUSH2 0x454 JUMPI PUSH2 0x1AA JUMP JUMPDEST DUP1 PUSH4 0x2A3D7C81 GT PUSH2 0x123 JUMPI DUP1 PUSH4 0x2A3D7C81 EQ PUSH2 0x2A7 JUMPI DUP1 PUSH4 0x3702E6CB EQ PUSH2 0x2D2 JUMPI DUP1 PUSH4 0x44DC7FBC EQ PUSH2 0x2FD JUMPI DUP1 PUSH4 0x5DC334BF EQ PUSH2 0x328 JUMPI DUP1 PUSH4 0x6F9FB98A EQ PUSH2 0x351 JUMPI DUP1 PUSH4 0x708196AE EQ PUSH2 0x37C JUMPI PUSH2 0x1AA JUMP JUMPDEST DUP1 PUSH4 0x74CA966 EQ PUSH2 0x1AF JUMPI DUP1 PUSH4 0x9E94D98 EQ PUSH2 0x1DA JUMPI DUP1 PUSH4 0xE031A94 EQ PUSH2 0x20A JUMPI DUP1 PUSH4 0x17634514 EQ PUSH2 0x235 JUMPI DUP1 PUSH4 0x1CBD8380 EQ PUSH2 0x260 JUMPI DUP1 PUSH4 0x25E16063 EQ PUSH2 0x28B JUMPI PUSH2 0x1AA JUMP JUMPDEST CALLDATASIZE PUSH2 0x1AA JUMPI PUSH32 0x85177F287940F2F05425A4029951AF0E047A7F9C4EAA9A6E6917BCD869F86695 CALLER CALLVALUE PUSH1 0x40 MLOAD PUSH2 0x1A0 SWAP3 SWAP2 SWAP1 PUSH2 0x16B2 JUMP JUMPDEST PUSH1 0x40 MLOAD DUP1 SWAP2 SUB SWAP1 LOG1 STOP JUMPDEST PUSH1 0x0 DUP1 REVERT JUMPDEST CALLVALUE DUP1 ISZERO PUSH2 0x1BB JUMPI PUSH1 0x0 DUP1 REVERT JUMPDEST POP PUSH2 0x1C4 PUSH2 0x5A8 JUMP JUMPDEST PUSH1 0x40 MLOAD PUSH2 0x1D1 SWAP2 SWAP1 PUSH2 0x16F6 JUMP JUMPDEST PUSH1 0x40 MLOAD DUP1 SWAP2 SUB SWAP1 RETURN JUMPDEST CALLVALUE DUP1 ISZERO PUSH2 0x1E6 JUMPI PUSH1 0x0 DUP1 REVERT JUMPDEST POP PUSH2 0x1EF PUSH2 0x5BB JUMP JUMPDEST PUSH1 0x40 MLOAD PUSH2 0x201 SWAP7 SWAP6 SWAP5 SWAP4 SWAP3 SWAP2 SWAP1 PUSH2 0x180E JUMP JUMPDEST PUSH1 0x40 MLOAD DUP1 SWAP2 SUB SWAP1 RETURN JUMPDEST CALLVALUE DUP1 ISZERO PUSH2 0x216 JUMPI PUSH1 0x0 DUP1 REVERT JUMPDEST POP PUSH2 0x21F PUSH2 0x5E5 JUMP JUMPDEST PUSH1 0x40 MLOAD PUSH2 0x22C SWAP2 SWAP1 PUSH2 0x17F3 JUMP JUMPDEST PUSH1 0x40 MLOAD DUP1 SWAP2 SUB SWAP1 RETURN JUMPDEST CALLVALUE DUP1 ISZERO PUSH2 0x241 JUMPI PUSH1 0x0 DUP1 REVERT JUMPDEST POP PUSH2 0x24A PUSH2 0x5EB JUMP JUMPDEST PUSH1 0x40 MLOAD PUSH2 0x257 SWAP2 SWAP1 PUSH2 0x17F3 JUMP JUMPDEST PUSH1 0x40 MLOAD DUP1 SWAP2 SUB SWAP1 RETURN JUMPDEST CALLVALUE DUP1 ISZERO PUSH2 0x26C JUMPI PUSH1 0x0 DUP1 REVERT JUMPDEST POP PUSH2 0x275 PUSH2 0x5F1 JUMP JUMPDEST PUSH1 0x40 MLOAD PUSH2 0x282 SWAP2 SWAP1 PUSH2 0x17F3 JUMP JUMPDEST PUSH1 0x40 MLOAD DUP1 SWAP2 SUB SWAP1 RETURN JUMPDEST PUSH2 0x2A5 PUSH1 0x4 DUP1 CALLDATASIZE SUB DUP2 ADD SWAP1 PUSH2 0x2A0 SWAP2 SWAP1 PUSH2 0x12AC JUMP JUMPDEST PUSH2 0x5F7 JUMP JUMPDEST STOP JUMPDEST CALLVALUE DUP1 ISZERO PUSH2 0x2B3 JUMPI PUSH1 0x0 DUP1 REVERT JUMPDEST POP PUSH2 0x2BC PUSH2 0x73E JUMP JUMPDEST PUSH1 0x40 MLOAD PUSH2 0x2C9 SWAP2 SWAP1 PUSH2 0x17F3 JUMP JUMPDEST PUSH1 0x40 MLOAD DUP1 SWAP2 SUB SWAP1 RETURN JUMPDEST CALLVALUE DUP1 ISZERO PUSH2 0x2DE JUMPI PUSH1 0x0 DUP1 REVERT JUMPDEST POP PUSH2 0x2E7 PUSH2 0x744 JUMP JUMPDEST PUSH1 0x40 MLOAD PUSH2 0x2F4 SWAP2 SWAP1 PUSH2 0x1697 JUMP JUMPDEST PUSH1 0x40 MLOAD DUP1 SWAP2 SUB SWAP1 RETURN JUMPDEST CALLVALUE DUP1 ISZERO PUSH2 0x309 JUMPI PUSH1 0x0 DUP1 REVERT JUMPDEST POP PUSH2 0x312 PUSH2 0x76A JUMP JUMPDEST PUSH1 0x40 MLOAD PUSH2 0x31F SWAP2 SWAP1 PUSH2 0x16DB JUMP JUMPDEST PUSH1 0x40 MLOAD DUP1 SWAP2 SUB SWAP1 RETURN JUMPDEST CALLVALUE DUP1 ISZERO PUSH2 0x334 JUMPI PUSH1 0x0 DUP1 REVERT JUMPDEST POP PUSH2 0x34F PUSH1 0x4 DUP1 CALLDATASIZE SUB DUP2 ADD SWAP1 PUSH2 0x34A SWAP2 SWAP1 PUSH2 0x1283 JUMP JUMPDEST PUSH2 0x790 JUMP JUMPDEST STOP JUMPDEST CALLVALUE DUP1 ISZERO PUSH2 0x35D JUMPI PUSH1 0x0 DUP1 REVERT JUMPDEST POP PUSH2 0x366 PUSH2 0x92E JUMP JUMPDEST PUSH1 0x40 MLOAD PUSH2 0x373 SWAP2 SWAP1 PUSH2 0x17F3 JUMP JUMPDEST PUSH1 0x40 MLOAD DUP1 SWAP2 SUB SWAP1 RETURN JUMPDEST CALLVALUE DUP1 ISZERO PUSH2 0x388 JUMPI PUSH1 0x0 DUP1 REVERT JUMPDEST POP PUSH2 0x3A3 PUSH1 0x4 DUP1 CALLDATASIZE SUB DUP2 ADD SWAP1 PUSH2 0x39E SWAP2 SWAP1 PUSH2 0x12FE JUMP JUMPDEST PUSH2 0x994 JUMP JUMPDEST STOP JUMPDEST CALLVALUE DUP1 ISZERO PUSH2 0x3B1 JUMPI PUSH1 0x0 DUP1 REVERT JUMPDEST POP PUSH2 0x3BA PUSH2 0xB03 JUMP JUMPDEST STOP JUMPDEST CALLVALUE DUP1 ISZERO PUSH2 0x3C8 JUMPI PUSH1 0x0 DUP1 REVERT JUMPDEST POP PUSH2 0x3D1 PUSH2 0xC56 JUMP JUMPDEST PUSH1 0x40 MLOAD PUSH2 0x3DE SWAP2 SWAP1 PUSH2 0x1711 JUMP JUMPDEST PUSH1 0x40 MLOAD DUP1 SWAP2 SUB SWAP1 RETURN JUMPDEST CALLVALUE DUP1 ISZERO PUSH2 0x3F3 JUMPI PUSH1 0x0 DUP1 REVERT JUMPDEST POP PUSH2 0x3FC PUSH2 0xCF4 JUMP JUMPDEST PUSH1 0x40 MLOAD PUSH2 0x409 SWAP2 SWAP1 PUSH2 0x17F3 JUMP JUMPDEST PUSH1 0x40 MLOAD DUP1 SWAP2 SUB SWAP1 RETURN JUMPDEST CALLVALUE DUP1 ISZERO PUSH2 0x41E JUMPI PUSH1 0x0 DUP1 REVERT JUMPDEST POP PUSH2 0x427 PUSH2 0xCFA JUMP JUMPDEST PUSH1 0x40 MLOAD PUSH2 0x434 SWAP2 SWAP1 PUSH2 0x1697 JUMP JUMPDEST PUSH1 0x40 MLOAD DUP1 SWAP2 SUB SWAP1 RETURN JUMPDEST CALLVALUE DUP1 ISZERO PUSH2 0x449 JUMPI PUSH1 0x0 DUP1 REVERT JUMPDEST POP PUSH2 0x452 PUSH2 0xD23 JUMP JUMPDEST STOP JUMPDEST CALLVALUE DUP1 ISZERO PUSH2 0x460 JUMPI PUSH1 0x0 DUP1 REVERT JUMPDEST POP PUSH2 0x469 PUSH2 0xE4D JUMP JUMPDEST PUSH1 0x40 MLOAD PUSH2 0x476 SWAP2 SWAP1 PUSH2 0x17F3 JUMP JUMPDEST PUSH1 0x40 MLOAD DUP1 SWAP2 SUB SWAP1 RETURN JUMPDEST CALLVALUE DUP1 ISZERO PUSH2 0x48B JUMPI PUSH1 0x0 DUP1 REVERT JUMPDEST POP PUSH2 0x494 PUSH2 0xE53 JUMP JUMPDEST PUSH1 0x40 MLOAD PUSH2 0x4A1 SWAP2 SWAP1 PUSH2 0x1711 JUMP JUMPDEST PUSH1 0x40 MLOAD DUP1 SWAP2 SUB SWAP1 RETURN JUMPDEST CALLVALUE DUP1 ISZERO PUSH2 0x4B6 JUMPI PUSH1 0x0 DUP1 REVERT JUMPDEST POP PUSH2 0x4BF PUSH2 0xEF1 JUMP JUMPDEST PUSH1 0x40 MLOAD PUSH2 0x4CC SWAP2 SWAP1 PUSH2 0x17F3 JUMP JUMPDEST PUSH1 0x40 MLOAD DUP1 SWAP2 SUB SWAP1 RETURN JUMPDEST CALLVALUE DUP1 ISZERO PUSH2 0x4E1 JUMPI PUSH1 0x0 DUP1 REVERT JUMPDEST POP PUSH2 0x4FC PUSH1 0x4 DUP1 CALLDATASIZE SUB DUP2 ADD SWAP1 PUSH2 0x4F7 SWAP2 SWAP1 PUSH2 0x12D5 JUMP JUMPDEST PUSH2 0xEF7 JUMP JUMPDEST STOP JUMPDEST CALLVALUE DUP1 ISZERO PUSH2 0x50A JUMPI PUSH1 0x0 DUP1 REVERT JUMPDEST POP PUSH2 0x513 PUSH2 0xFCC JUMP JUMPDEST PUSH1 0x40 MLOAD PUSH2 0x520 SWAP2 SWAP1 PUSH2 0x17F3 JUMP JUMPDEST PUSH1 0x40 MLOAD DUP1 SWAP2 SUB SWAP1 RETURN JUMPDEST CALLVALUE DUP1 ISZERO PUSH2 0x535 JUMPI PUSH1 0x0 DUP1 REVERT JUMPDEST POP PUSH2 0x53E PUSH2 0xFD2 JUMP JUMPDEST PUSH1 0x40 MLOAD PUSH2 0x54B SWAP2 SWAP1 PUSH2 0x17F3 JUMP JUMPDEST PUSH1 0x40 MLOAD DUP1 SWAP2 SUB SWAP1 RETURN JUMPDEST CALLVALUE DUP1 ISZERO PUSH2 0x560 JUMPI PUSH1 0x0 DUP1 REVERT JUMPDEST POP PUSH2 0x569 PUSH2 0xFD8 JUMP JUMPDEST PUSH1 0x40 MLOAD PUSH2 0x576 SWAP2 SWAP1 PUSH2 0x17F3 JUMP JUMPDEST PUSH1 0x40 MLOAD DUP1 SWAP2 SUB SWAP1 RETURN JUMPDEST CALLVALUE DUP1 ISZERO PUSH2 0x58B JUMPI PUSH1 0x0 DUP1 REVERT JUMPDEST POP PUSH2 0x5A6 PUSH1 0x4 DUP1 CALLDATASIZE SUB DUP2 ADD SWAP1 PUSH2 0x5A1 SWAP2 SWAP1 PUSH2 0x1283 JUMP JUMPDEST PUSH2 0xFDE JUMP JUMPDEST STOP JUMPDEST PUSH1 0x7 PUSH1 0x0 SWAP1 SLOAD SWAP1 PUSH2 0x100 EXP SWAP1 DIV PUSH1 0xFF AND DUP2 JUMP JUMPDEST PUSH1 0x1 DUP1 PUSH1 0x0 ADD SLOAD SWAP1 DUP1 PUSH1 0x1 ADD SLOAD SWAP1 DUP1 PUSH1 0x2 ADD SLOAD SWAP1 DUP1 PUSH1 0x3 ADD SLOAD SWAP1 DUP1 PUSH1 0x4 ADD SLOAD SWAP1 DUP1 PUSH1 0x5 ADD SLOAD SWAP1 POP DUP7 JUMP JUMPDEST PUSH1 0x9 SLOAD DUP2 JUMP JUMPDEST PUSH1 0xC SLOAD DUP2 JUMP JUMPDEST PUSH1 0x10 SLOAD DUP2 JUMP JUMPDEST PUSH2 0x5FF PUSH2 0x11A0 JUMP JUMPDEST PUSH20 0xFFFFFFFFFFFFFFFFFFFFFFFFFFFFFFFFFFFFFFFF AND PUSH1 0x0 DUP1 SLOAD SWAP1 PUSH2 0x100 EXP SWAP1 DIV PUSH20 0xFFFFFFFFFFFFFFFFFFFFFFFFFFFFFFFFFFFFFFFF AND PUSH20 0xFFFFFFFFFFFFFFFFFFFFFFFFFFFFFFFFFFFFFFFF AND EQ PUSH2 0x68C JUMPI PUSH1 0x40 MLOAD PUSH32 0x8C379A000000000000000000000000000000000000000000000000000000000 DUP2 MSTORE PUSH1 0x4 ADD PUSH2 0x683 SWAP1 PUSH2 0x17B3 JUMP JUMPDEST PUSH1 0x40 MLOAD DUP1 SWAP2 SUB SWAP1 REVERT JUMPDEST PUSH1 0x3 PUSH1 0x4 DUP2 GT ISZERO PUSH2 0x699 JUMPI INVALID JUMPDEST PUSH1 0x7 PUSH1 0x0 SWAP1 SLOAD SWAP1 PUSH2 0x100 EXP SWAP1 DIV PUSH1 0xFF AND PUSH1 0x4 DUP2 GT ISZERO PUSH2 0x6B4 JUMPI INVALID JUMPDEST EQ PUSH2 0x6F4 JUMPI PUSH1 0x40 MLOAD PUSH32 0x8C379A000000000000000000000000000000000000000000000000000000000 DUP2 MSTORE PUSH1 0x4 ADD PUSH2 0x6EB SWAP1 PUSH2 0x1773 JUMP JUMPDEST PUSH1 0x40 MLOAD DUP1 SWAP2 SUB SWAP1 REVERT JUMPDEST DUP1 PUSH20 0xFFFFFFFFFFFFFFFFFFFFFFFFFFFFFFFFFFFFFFFF AND PUSH2 0x8FC SELFBALANCE SWAP1 DUP2 ISZERO MUL SWAP1 PUSH1 0x40 MLOAD PUSH1 0x0 PUSH1 0x40 MLOAD DUP1 DUP4 SUB DUP2 DUP6 DUP9 DUP9 CALL SWAP4 POP POP POP POP ISZERO DUP1 ISZERO PUSH2 0x73A JUMPI RETURNDATASIZE PUSH1 0x0 DUP1 RETURNDATACOPY RETURNDATASIZE PUSH1 0x0 REVERT JUMPDEST POP POP JUMP JUMPDEST PUSH1 0xD SLOAD DUP2 JUMP JUMPDEST PUSH1 0x13 PUSH1 0x0 SWAP1 SLOAD SWAP1 PUSH2 0x100 EXP SWAP1 DIV PUSH20 0xFFFFFFFFFFFFFFFFFFFFFFFFFFFFFFFFFFFFFFFF AND DUP2 JUMP JUMPDEST PUSH1 0x16 PUSH1 0x0 SWAP1 SLOAD SWAP1 PUSH2 0x100 EXP SWAP1 DIV PUSH20 0xFFFFFFFFFFFFFFFFFFFFFFFFFFFFFFFFFFFFFFFF AND DUP2 JUMP JUMPDEST PUSH2 0x798 PUSH2 0x11A0 JUMP JUMPDEST PUSH20 0xFFFFFFFFFFFFFFFFFFFFFFFFFFFFFFFFFFFFFFFF AND PUSH1 0x0 DUP1 SLOAD SWAP1 PUSH2 0x100 EXP SWAP1 DIV PUSH20 0xFFFFFFFFFFFFFFFFFFFFFFFFFFFFFFFFFFFFFFFF AND PUSH20 0xFFFFFFFFFFFFFFFFFFFFFFFFFFFFFFFFFFFFFFFF AND EQ PUSH2 0x825 JUMPI PUSH1 0x40 MLOAD PUSH32 0x8C379A000000000000000000000000000000000000000000000000000000000 DUP2 MSTORE PUSH1 0x4 ADD PUSH2 0x81C SWAP1 PUSH2 0x17B3 JUMP JUMPDEST PUSH1 0x40 MLOAD DUP1 SWAP2 SUB SWAP1 REVERT JUMPDEST PUSH1 0x0 PUSH20 0xFFFFFFFFFFFFFFFFFFFFFFFFFFFFFFFFFFFFFFFF AND DUP2 PUSH20 0xFFFFFFFFFFFFFFFFFFFFFFFFFFFFFFFFFFFFFFFF AND EQ ISZERO PUSH2 0x895 JUMPI PUSH1 0x40 MLOAD PUSH32 0x8C379A000000000000000000000000000000000000000000000000000000000 DUP2 MSTORE PUSH1 0x4 ADD PUSH2 0x88C SWAP1 PUSH2 0x1753 JUMP JUMPDEST PUSH1 0x40 MLOAD DUP1 SWAP2 SUB SWAP1 REVERT JUMPDEST ADDRESS PUSH20 0xFFFFFFFFFFFFFFFFFFFFFFFFFFFFFFFFFFFFFFFF AND PUSH4 0xF2FDE38B DUP3 PUSH1 0x40 MLOAD DUP3 PUSH4 0xFFFFFFFF AND PUSH1 0xE0 SHL DUP2 MSTORE PUSH1 0x4 ADD PUSH2 0x8CE SWAP2 SWAP1 PUSH2 0x1697 JUMP JUMPDEST PUSH1 0x0 PUSH1 0x40 MLOAD DUP1 DUP4 SUB DUP2 PUSH1 0x0 DUP8 DUP1 EXTCODESIZE ISZERO DUP1 ISZERO PUSH2 0x8E8 JUMPI PUSH1 0x0 DUP1 REVERT JUMPDEST POP GAS CALL ISZERO DUP1 ISZERO PUSH2 0x8FC JUMPI RETURNDATASIZE PUSH1 0x0 DUP1 RETURNDATACOPY RETURNDATASIZE PUSH1 0x0 REVERT JUMPDEST POP POP POP POP NUMBER PUSH1 0xE DUP2 SWAP1 SSTORE POP PUSH1 0x1 PUSH1 0x7 PUSH1 0x0 PUSH2 0x100 EXP DUP2 SLOAD DUP2 PUSH1 0xFF MUL NOT AND SWAP1 DUP4 PUSH1 0x4 DUP2 GT ISZERO PUSH2 0x926 JUMPI INVALID JUMPDEST MUL OR SWAP1 SSTORE POP POP JUMP JUMPDEST PUSH1 0x0 PUSH1 0x40 MLOAD PUSH1 0x20 ADD PUSH2 0x93F SWAP1 PUSH2 0x1682 JUMP JUMPDEST PUSH1 0x40 MLOAD PUSH1 0x20 DUP2 DUP4 SUB SUB DUP2 MSTORE SWAP1 PUSH1 0x40 MSTORE DUP1 MLOAD SWAP1 PUSH1 0x20 ADD KECCAK256 PUSH1 0x14 PUSH1 0x40 MLOAD PUSH1 0x20 ADD PUSH2 0x967 SWAP2 SWAP1 PUSH2 0x166B JUMP JUMPDEST PUSH1 0x40 MLOAD PUSH1 0x20 DUP2 DUP4 SUB SUB DUP2 MSTORE SWAP1 PUSH1 0x40 MSTORE DUP1 MLOAD SWAP1 PUSH1 0x20 ADD KECCAK256 EQ ISZERO PUSH2 0x98D JUMPI PUSH1 0x10 SLOAD SWAP1 POP PUSH2 0x991 JUMP JUMPDEST SELFBALANCE SWAP1 POP JUMPDEST SWAP1 JUMP JUMPDEST PUSH1 0x12 PUSH1 0x0 SWAP1 SLOAD SWAP1 PUSH2 0x100 EXP SWAP1 DIV PUSH20 0xFFFFFFFFFFFFFFFFFFFFFFFFFFFFFFFFFFFFFFFF AND PUSH20 0xFFFFFFFFFFFFFFFFFFFFFFFFFFFFFFFFFFFFFFFF AND CALLER PUSH20 0xFFFFFFFFFFFFFFFFFFFFFFFFFFFFFFFFFFFFFFFF AND EQ PUSH2 0xA24 JUMPI PUSH1 0x40 MLOAD PUSH32 0x8C379A000000000000000000000000000000000000000000000000000000000 DUP2 MSTORE PUSH1 0x4 ADD PUSH2 0xA1B SWAP1 PUSH2 0x1753 JUMP JUMPDEST PUSH1 0x40 MLOAD DUP1 SWAP2 SUB SWAP1 REVERT JUMPDEST PUSH1 0x0 DUP2 LT ISZERO DUP1 ISZERO PUSH2 0xA36 JUMPI POP PUSH1 0x4 DUP2 GT ISZERO JUMPDEST PUSH2 0xA75 JUMPI PUSH1 0x40 MLOAD PUSH32 0x8C379A000000000000000000000000000000000000000000000000000000000 DUP2 MSTORE PUSH1 0x4 ADD PUSH2 0xA6C SWAP1 PUSH2 0x1793 JUMP JUMPDEST PUSH1 0x40 MLOAD DUP1 SWAP2 SUB SWAP1 REVERT JUMPDEST PUSH1 0x7 PUSH1 0x0 SWAP1 SLOAD SWAP1 PUSH2 0x100 EXP SWAP1 DIV PUSH1 0xFF AND PUSH1 0x4 DUP2 GT ISZERO PUSH2 0xA90 JUMPI INVALID JUMPDEST DUP2 EQ ISZERO PUSH2 0xAD2 JUMPI PUSH1 0x40 MLOAD PUSH32 0x8C379A000000000000000000000000000000000000000000000000000000000 DUP2 MSTORE PUSH1 0x4 ADD PUSH2 0xAC9 SWAP1 PUSH2 0x17D3 JUMP JUMPDEST PUSH1 0x40 MLOAD DUP1 SWAP2 SUB SWAP1 REVERT JUMPDEST DUP1 PUSH1 0x4 DUP2 GT ISZERO PUSH2 0xADE JUMPI INVALID JUMPDEST PUSH1 0x7 PUSH1 0x0 PUSH2 0x100 EXP DUP2 SLOAD DUP2 PUSH1 0xFF MUL NOT AND SWAP1 DUP4 PUSH1 0x4 DUP2 GT ISZERO PUSH2 0xAFB JUMPI INVALID JUMPDEST MUL OR SWAP1 SSTORE POP POP JUMP JUMPDEST PUSH2 0xB0B PUSH2 0x11A0 JUMP JUMPDEST PUSH20 0xFFFFFFFFFFFFFFFFFFFFFFFFFFFFFFFFFFFFFFFF AND PUSH1 0x0 DUP1 SLOAD SWAP1 PUSH2 0x100 EXP SWAP1 DIV PUSH20 0xFFFFFFFFFFFFFFFFFFFFFFFFFFFFFFFFFFFFFFFF AND PUSH20 0xFFFFFFFFFFFFFFFFFFFFFFFFFFFFFFFFFFFFFFFF AND EQ PUSH2 0xB98 JUMPI PUSH1 0x40 MLOAD PUSH32 0x8C379A000000000000000000000000000000000000000000000000000000000 DUP2 MSTORE PUSH1 0x4 ADD PUSH2 0xB8F SWAP1 PUSH2 0x17B3 JUMP JUMPDEST PUSH1 0x40 MLOAD DUP1 SWAP2 SUB SWAP1 REVERT JUMPDEST PUSH1 0x0 PUSH20 0xFFFFFFFFFFFFFFFFFFFFFFFFFFFFFFFFFFFFFFFF AND PUSH1 0x0 DUP1 SLOAD SWAP1 PUSH2 0x100 EXP SWAP1 DIV PUSH20 0xFFFFFFFFFFFFFFFFFFFFFFFFFFFFFFFFFFFFFFFF AND PUSH20 0xFFFFFFFFFFFFFFFFFFFFFFFFFFFFFFFFFFFFFFFF AND PUSH32 0x8BE0079C531659141344CD1FD0A4F28419497F9722A3DAAFE3B4186F6B6457E0 PUSH1 0x40 MLOAD PUSH1 0x40 MLOAD DUP1 SWAP2 SUB SWAP1 LOG3 PUSH1 0x0 DUP1 PUSH1 0x0 PUSH2 0x100 EXP DUP2 SLOAD DUP2 PUSH20 0xFFFFFFFFFFFFFFFFFFFFFFFFFFFFFFFFFFFFFFFF MUL NOT AND SWAP1 DUP4 PUSH20 0xFFFFFFFFFFFFFFFFFFFFFFFFFFFFFFFFFFFFFFFF AND MUL OR SWAP1 SSTORE POP JUMP JUMPDEST PUSH1 0x8 DUP1 SLOAD PUSH1 0x1 DUP2 PUSH1 0x1 AND ISZERO PUSH2 0x100 MUL SUB AND PUSH1 0x2 SWAP1 DIV DUP1 PUSH1 0x1F ADD PUSH1 0x20 DUP1 SWAP2 DIV MUL PUSH1 0x20 ADD PUSH1 0x40 MLOAD SWAP1 DUP2 ADD PUSH1 0x40 MSTORE DUP1 SWAP3 SWAP2 SWAP1 DUP2 DUP2 MSTORE PUSH1 0x20 ADD DUP3 DUP1 SLOAD PUSH1 0x1 DUP2 PUSH1 0x1 AND ISZERO PUSH2 0x100 MUL SUB AND PUSH1 0x2 SWAP1 DIV DUP1 ISZERO PUSH2 0xCEC JUMPI DUP1 PUSH1 0x1F LT PUSH2 0xCC1 JUMPI PUSH2 0x100 DUP1 DUP4 SLOAD DIV MUL DUP4 MSTORE SWAP2 PUSH1 0x20 ADD SWAP2 PUSH2 0xCEC JUMP JUMPDEST DUP3 ADD SWAP2 SWAP1 PUSH1 0x0 MSTORE PUSH1 0x20 PUSH1 0x0 KECCAK256 SWAP1 JUMPDEST DUP2 SLOAD DUP2 MSTORE SWAP1 PUSH1 0x1 ADD SWAP1 PUSH1 0x20 ADD DUP1 DUP4 GT PUSH2 0xCCF JUMPI DUP3 SWAP1 SUB PUSH1 0x1F AND DUP3 ADD SWAP2 JUMPDEST POP POP POP POP POP DUP2 JUMP JUMPDEST PUSH1 0xF SLOAD DUP2 JUMP JUMPDEST PUSH1 0x0 DUP1 PUSH1 0x0 SWAP1 SLOAD SWAP1 PUSH2 0x100 EXP SWAP1 DIV PUSH20 0xFFFFFFFFFFFFFFFFFFFFFFFFFFFFFFFFFFFFFFFF AND SWAP1 POP SWAP1 JUMP JUMPDEST PUSH2 0xD2B PUSH2 0x11A0 JUMP JUMPDEST PUSH20 0xFFFFFFFFFFFFFFFFFFFFFFFFFFFFFFFFFFFFFFFF AND PUSH1 0x0 DUP1 SLOAD SWAP1 PUSH2 0x100 EXP SWAP1 DIV PUSH20 0xFFFFFFFFFFFFFFFFFFFFFFFFFFFFFFFFFFFFFFFF AND PUSH20 0xFFFFFFFFFFFFFFFFFFFFFFFFFFFFFFFFFFFFFFFF AND EQ PUSH2 0xDB8 JUMPI PUSH1 0x40 MLOAD PUSH32 0x8C379A000000000000000000000000000000000000000000000000000000000 DUP2 MSTORE PUSH1 0x4 ADD PUSH2 0xDAF SWAP1 PUSH2 0x17B3 JUMP JUMPDEST PUSH1 0x40 MLOAD DUP1 SWAP2 SUB SWAP1 REVERT JUMPDEST PUSH1 0x1 PUSH1 0x4 DUP2 GT ISZERO PUSH2 0xDC5 JUMPI INVALID JUMPDEST PUSH1 0x7 PUSH1 0x0 SWAP1 SLOAD SWAP1 PUSH2 0x100 EXP SWAP1 DIV PUSH1 0xFF AND PUSH1 0x4 DUP2 GT ISZERO PUSH2 0xDE0 JUMPI INVALID JUMPDEST EQ PUSH2 0xE20 JUMPI PUSH1 0x40 MLOAD PUSH32 0x8C379A000000000000000000000000000000000000000000000000000000000 DUP2 MSTORE PUSH1 0x4 ADD PUSH2 0xE17 SWAP1 PUSH2 0x1773 JUMP JUMPDEST PUSH1 0x40 MLOAD DUP1 SWAP2 SUB SWAP1 REVERT JUMPDEST NUMBER PUSH1 0xF DUP2 SWAP1 SSTORE POP PUSH1 0x2 PUSH1 0x7 PUSH1 0x0 PUSH2 0x100 EXP DUP2 SLOAD DUP2 PUSH1 0xFF MUL NOT AND SWAP1 DUP4 PUSH1 0x4 DUP2 GT ISZERO PUSH2 0xE46 JUMPI INVALID JUMPDEST MUL OR SWAP1 SSTORE POP JUMP JUMPDEST PUSH1 0xB SLOAD DUP2 JUMP JUMPDEST PUSH1 0x14 DUP1 SLOAD PUSH1 0x1 DUP2 PUSH1 0x1 AND ISZERO PUSH2 0x100 MUL SUB AND PUSH1 0x2 SWAP1 DIV DUP1 PUSH1 0x1F ADD PUSH1 0x20 DUP1 SWAP2 DIV MUL PUSH1 0x20 ADD PUSH1 0x40 MLOAD SWAP1 DUP2 ADD PUSH1 0x40 MSTORE DUP1 SWAP3 SWAP2 SWAP1 DUP2 DUP2 MSTORE PUSH1 0x20 ADD DUP3 DUP1 SLOAD PUSH1 0x1 DUP2 PUSH1 0x1 AND ISZERO PUSH2 0x100 MUL SUB AND PUSH1 0x2 SWAP1 DIV DUP1 ISZERO PUSH2 0xEE9 JUMPI DUP1 PUSH1 0x1F LT PUSH2 0xEBE JUMPI PUSH2 0x100 DUP1 DUP4 SLOAD DIV MUL DUP4 MSTORE SWAP2 PUSH1 0x20 ADD SWAP2 PUSH2 0xEE9 JUMP JUMPDEST DUP3 ADD SWAP2 SWAP1 PUSH1 0x0 MSTORE PUSH1 0x20 PUSH1 0x0 KECCAK256 SWAP1 JUMPDEST DUP2 SLOAD DUP2 MSTORE SWAP1 PUSH1 0x1 ADD SWAP1 PUSH1 0x20 ADD DUP1 DUP4 GT PUSH2 0xECC JUMPI DUP3 SWAP1 SUB PUSH1 0x1F AND DUP3 ADD SWAP2 JUMPDEST POP POP POP POP POP DUP2 JUMP JUMPDEST PUSH1 0xE SLOAD DUP2 JUMP JUMPDEST PUSH1 0x12 PUSH1 0x0 SWAP1 SLOAD SWAP1 PUSH2 0x100 EXP SWAP1 DIV PUSH20 0xFFFFFFFFFFFFFFFFFFFFFFFFFFFFFFFFFFFFFFFF AND PUSH20 0xFFFFFFFFFFFFFFFFFFFFFFFFFFFFFFFFFFFFFFFF AND CALLER PUSH20 0xFFFFFFFFFFFFFFFFFFFFFFFFFFFFFFFFFFFFFFFF AND EQ PUSH2 0xF87 JUMPI PUSH1 0x40 MLOAD PUSH32 0x8C379A000000000000000000000000000000000000000000000000000000000 DUP2 MSTORE PUSH1 0x4 ADD PUSH2 0xF7E SWAP1 PUSH2 0x1753 JUMP JUMPDEST PUSH1 0x40 MLOAD DUP1 SWAP2 SUB SWAP1 REVERT JUMPDEST DUP1 PUSH1 0x1 PUSH1 0x0 DUP3 ADD MLOAD DUP2 PUSH1 0x0 ADD SSTORE PUSH1 0x20 DUP3 ADD MLOAD DUP2 PUSH1 0x1 ADD SSTORE PUSH1 0x40 DUP3 ADD MLOAD DUP2 PUSH1 0x2 ADD SSTORE PUSH1 0x60 DUP3 ADD MLOAD DUP2 PUSH1 0x3 ADD SSTORE PUSH1 0x80 DUP3 ADD MLOAD DUP2 PUSH1 0x4 ADD SSTORE PUSH1 0xA0 DUP3 ADD MLOAD DUP2 PUSH1 0x5 ADD SSTORE SWAP1 POP POP POP JUMP JUMPDEST PUSH1 0x15 SLOAD DUP2 JUMP JUMPDEST PUSH1 0x11 SLOAD DUP2 JUMP JUMPDEST PUSH1 0xA SLOAD DUP2 JUMP JUMPDEST PUSH2 0xFE6 PUSH2 0x11A0 JUMP JUMPDEST PUSH20 0xFFFFFFFFFFFFFFFFFFFFFFFFFFFFFFFFFFFFFFFF AND PUSH1 0x0 DUP1 SLOAD SWAP1 PUSH2 0x100 EXP SWAP1 DIV PUSH20 0xFFFFFFFFFFFFFFFFFFFFFFFFFFFFFFFFFFFFFFFF AND PUSH20 0xFFFFFFFFFFFFFFFFFFFFFFFFFFFFFFFFFFFFFFFF AND EQ PUSH2 0x1073 JUMPI PUSH1 0x40 MLOAD PUSH32 0x8C379A000000000000000000000000000000000000000000000000000000000 DUP2 MSTORE PUSH1 0x4 ADD PUSH2 0x106A SWAP1 PUSH2 0x17B3 JUMP JUMPDEST PUSH1 0x40 MLOAD DUP1 SWAP2 SUB SWAP1 REVERT JUMPDEST PUSH1 0x0 PUSH20 0xFFFFFFFFFFFFFFFFFFFFFFFFFFFFFFFFFFFFFFFF AND DUP2 PUSH20 0xFFFFFFFFFFFFFFFFFFFFFFFFFFFFFFFFFFFFFFFF AND EQ ISZERO PUSH2 0x10E3 JUMPI PUSH1 0x40 MLOAD PUSH32 0x8C379A000000000000000000000000000000000000000000000000000000000 DUP2 MSTORE PUSH1 0x4 ADD PUSH2 0x10DA SWAP1 PUSH2 0x1733 JUMP JUMPDEST PUSH1 0x40 MLOAD DUP1 SWAP2 SUB SWAP1 REVERT JUMPDEST DUP1 PUSH20 0xFFFFFFFFFFFFFFFFFFFFFFFFFFFFFFFFFFFFFFFF AND PUSH1 0x0 DUP1 SLOAD SWAP1 PUSH2 0x100 EXP SWAP1 DIV PUSH20 0xFFFFFFFFFFFFFFFFFFFFFFFFFFFFFFFFFFFFFFFF AND PUSH20 0xFFFFFFFFFFFFFFFFFFFFFFFFFFFFFFFFFFFFFFFF AND PUSH32 0x8BE0079C531659141344CD1FD0A4F28419497F9722A3DAAFE3B4186F6B6457E0 PUSH1 0x40 MLOAD PUSH1 0x40 MLOAD DUP1 SWAP2 SUB SWAP1 LOG3 DUP1 PUSH1 0x0 DUP1 PUSH2 0x100 EXP DUP2 SLOAD DUP2 PUSH20 0xFFFFFFFFFFFFFFFFFFFFFFFFFFFFFFFFFFFFFFFF MUL NOT AND SWAP1 DUP4 PUSH20 0xFFFFFFFFFFFFFFFFFFFFFFFFFFFFFFFFFFFFFFFF AND MUL OR SWAP1 SSTORE POP POP JUMP JUMPDEST PUSH1 0x0 CALLER SWAP1 POP SWAP1 JUMP JUMPDEST PUSH1 0x0 DUP2 CALLDATALOAD SWAP1 POP PUSH2 0x11B7 DUP2 PUSH2 0x19F6 JUMP JUMPDEST SWAP3 SWAP2 POP POP JUMP JUMPDEST PUSH1 0x0 DUP2 CALLDATALOAD SWAP1 POP PUSH2 0x11CC DUP2 PUSH2 0x1A0D JUMP JUMPDEST SWAP3 SWAP2 POP POP JUMP JUMPDEST PUSH1 0x0 PUSH1 0xC0 DUP3 DUP5 SUB SLT ISZERO PUSH2 0x11E4 JUMPI PUSH1 0x0 DUP1 REVERT JUMPDEST PUSH2 0x11EE PUSH1 0xC0 PUSH2 0x186F JUMP JUMPDEST SWAP1 POP PUSH1 0x0 PUSH2 0x11FE DUP5 DUP3 DUP6 ADD PUSH2 0x126E JUMP JUMPDEST PUSH1 0x0 DUP4 ADD MSTORE POP PUSH1 0x20 PUSH2 0x1212 DUP5 DUP3 DUP6 ADD PUSH2 0x126E JUMP JUMPDEST PUSH1 0x20 DUP4 ADD MSTORE POP PUSH1 0x40 PUSH2 0x1226 DUP5 DUP3 DUP6 ADD PUSH2 0x126E JUMP JUMPDEST PUSH1 0x40 DUP4 ADD MSTORE POP PUSH1 0x60 PUSH2 0x123A DUP5 DUP3 DUP6 ADD PUSH2 0x126E JUMP JUMPDEST PUSH1 0x60 DUP4 ADD MSTORE POP PUSH1 0x80 PUSH2 0x124E DUP5 DUP3 DUP6 ADD PUSH2 0x126E JUMP JUMPDEST PUSH1 0x80 DUP4 ADD MSTORE POP PUSH1 0xA0 PUSH2 0x1262 DUP5 DUP3 DUP6 ADD PUSH2 0x126E JUMP JUMPDEST PUSH1 0xA0 DUP4 ADD MSTORE POP SWAP3 SWAP2 POP POP JUMP JUMPDEST PUSH1 0x0 DUP2 CALLDATALOAD SWAP1 POP PUSH2 0x127D DUP2 PUSH2 0x1A24 JUMP JUMPDEST SWAP3 SWAP2 POP POP JUMP JUMPDEST PUSH1 0x0 PUSH1 0x20 DUP3 DUP5 SUB SLT ISZERO PUSH2 0x1295 JUMPI PUSH1 0x0 DUP1 REVERT JUMPDEST PUSH1 0x0 PUSH2 0x12A3 DUP5 DUP3 DUP6 ADD PUSH2 0x11A8 JUMP JUMPDEST SWAP2 POP POP SWAP3 SWAP2 POP POP JUMP JUMPDEST PUSH1 0x0 PUSH1 0x20 DUP3 DUP5 SUB SLT ISZERO PUSH2 0x12BE JUMPI PUSH1 0x0 DUP1 REVERT JUMPDEST PUSH1 0x0 PUSH2 0x12CC DUP5 DUP3 DUP6 ADD PUSH2 0x11BD JUMP JUMPDEST SWAP2 POP POP SWAP3 SWAP2 POP POP JUMP JUMPDEST PUSH1 0x0 PUSH1 0xC0 DUP3 DUP5 SUB SLT ISZERO PUSH2 0x12E7 JUMPI PUSH1 0x0 DUP1 REVERT JUMPDEST PUSH1 0x0 PUSH2 0x12F5 DUP5 DUP3 DUP6 ADD PUSH2 0x11D2 JUMP JUMPDEST SWAP2 POP POP SWAP3 SWAP2 POP POP JUMP JUMPDEST PUSH1 0x0 PUSH1 0x20 DUP3 DUP5 SUB SLT ISZERO PUSH2 0x1310 JUMPI PUSH1 0x0 DUP1 REVERT JUMPDEST PUSH1 0x0 PUSH2 0x131E DUP5 DUP3 DUP6 ADD PUSH2 0x126E JUMP JUMPDEST SWAP2 POP POP SWAP3 SWAP2 POP POP JUMP JUMPDEST PUSH2 0x1330 DUP2 PUSH2 0x1939 JUMP JUMPDEST DUP3 MSTORE POP POP JUMP JUMPDEST PUSH2 0x133F DUP2 PUSH2 0x18D8 JUMP JUMPDEST DUP3 MSTORE POP POP JUMP JUMPDEST PUSH2 0x134E DUP2 PUSH2 0x194B JUMP JUMPDEST DUP3 MSTORE POP POP JUMP JUMPDEST PUSH2 0x135D DUP2 PUSH2 0x196F JUMP JUMPDEST DUP3 MSTORE POP POP JUMP JUMPDEST PUSH1 0x0 PUSH2 0x136E DUP3 PUSH2 0x18B1 JUMP JUMPDEST PUSH2 0x1378 DUP2 DUP6 PUSH2 0x18BC JUMP JUMPDEST SWAP4 POP PUSH2 0x1388 DUP2 DUP6 PUSH1 0x20 DUP7 ADD PUSH2 0x19A5 JUMP JUMPDEST PUSH2 0x1391 DUP2 PUSH2 0x19D8 JUMP JUMPDEST DUP5 ADD SWAP2 POP POP SWAP3 SWAP2 POP POP JUMP JUMPDEST PUSH1 0x0 DUP2 SLOAD PUSH1 0x1 DUP2 AND PUSH1 0x0 DUP2 EQ PUSH2 0x13B9 JUMPI PUSH1 0x1 DUP2 EQ PUSH2 0x13DE JUMPI PUSH2 0x1422 JUMP JUMPDEST PUSH1 0x7F PUSH1 0x2 DUP4 DIV AND PUSH2 0x13CA DUP2 DUP8 PUSH2 0x18CD JUMP JUMPDEST SWAP6 POP PUSH1 0xFF NOT DUP4 AND DUP7 MSTORE DUP1 DUP7 ADD SWAP4 POP POP PUSH2 0x1422 JUMP JUMPDEST PUSH1 0x2 DUP3 DIV PUSH2 0x13EC DUP2 DUP8 PUSH2 0x18CD JUMP JUMPDEST SWAP6 POP PUSH2 0x13F7 DUP6 PUSH2 0x189C JUMP JUMPDEST PUSH1 0x0 JUMPDEST DUP3 DUP2 LT ISZERO PUSH2 0x1419 JUMPI DUP2 SLOAD DUP2 DUP10 ADD MSTORE PUSH1 0x1 DUP3 ADD SWAP2 POP PUSH1 0x20 DUP2 ADD SWAP1 POP PUSH2 0x13FA JUMP JUMPDEST DUP3 DUP9 ADD SWAP6 POP POP POP POP JUMPDEST POP POP SWAP3 SWAP2 POP POP JUMP JUMPDEST PUSH1 0x0 PUSH2 0x1437 PUSH1 0x26 DUP4 PUSH2 0x18BC JUMP JUMPDEST SWAP2 POP PUSH32 0x4F776E61626C653A206E6577206F776E657220697320746865207A65726F2061 PUSH1 0x0 DUP4 ADD MSTORE PUSH32 0x6464726573730000000000000000000000000000000000000000000000000000 PUSH1 0x20 DUP4 ADD MSTORE PUSH1 0x40 DUP3 ADD SWAP1 POP SWAP2 SWAP1 POP JUMP JUMPDEST PUSH1 0x0 PUSH2 0x149D PUSH1 0x4 DUP4 PUSH2 0x18CD JUMP JUMPDEST SWAP2 POP PUSH32 0x4555525300000000000000000000000000000000000000000000000000000000 PUSH1 0x0 DUP4 ADD MSTORE PUSH1 0x4 DUP3 ADD SWAP1 POP SWAP2 SWAP1 POP JUMP JUMPDEST PUSH1 0x0 PUSH2 0x14DD PUSH1 0x13 DUP4 PUSH2 0x18BC JUMP JUMPDEST SWAP2 POP PUSH32 0x41646472657373206E6F7420616C6C6F77656400000000000000000000000000 PUSH1 0x0 DUP4 ADD MSTORE PUSH1 0x20 DUP3 ADD SWAP1 POP SWAP2 SWAP1 POP JUMP JUMPDEST PUSH1 0x0 PUSH2 0x151D PUSH1 0x33 DUP4 PUSH2 0x18BC JUMP JUMPDEST SWAP2 POP PUSH32 0x4C6F616E20737461747573206E6F7420636F6D70617469626C65207769746820 PUSH1 0x0 DUP4 ADD MSTORE PUSH32 0x666F7265636C6F73696E6720616374696F6E7300000000000000000000000000 PUSH1 0x20 DUP4 ADD MSTORE PUSH1 0x40 DUP3 ADD SWAP1 POP SWAP2 SWAP1 POP JUMP JUMPDEST PUSH1 0x0 PUSH2 0x1583 PUSH1 0x13 DUP4 PUSH2 0x18BC JUMP JUMPDEST SWAP2 POP PUSH32 0x4E6577207374617465206E6F742076616C696400000000000000000000000000 PUSH1 0x0 DUP4 ADD MSTORE PUSH1 0x20 DUP3 ADD SWAP1 POP SWAP2 SWAP1 POP JUMP JUMPDEST PUSH1 0x0 PUSH2 0x15C3 PUSH1 0x20 DUP4 PUSH2 0x18BC JUMP JUMPDEST SWAP2 POP PUSH32 0x4F776E61626C653A2063616C6C6572206973206E6F7420746865206F776E6572 PUSH1 0x0 DUP4 ADD MSTORE PUSH1 0x20 DUP3 ADD SWAP1 POP SWAP2 SWAP1 POP JUMP JUMPDEST PUSH1 0x0 PUSH2 0x1603 PUSH1 0x27 DUP4 PUSH2 0x18BC JUMP JUMPDEST SWAP2 POP PUSH32 0x4E657720737461747573206973207468652073616D65206C696B652070726573 PUSH1 0x0 DUP4 ADD MSTORE PUSH32 0x656E74206F6E6500000000000000000000000000000000000000000000000000 PUSH1 0x20 DUP4 ADD MSTORE PUSH1 0x40 DUP3 ADD SWAP1 POP SWAP2 SWAP1 POP JUMP JUMPDEST PUSH2 0x1665 DUP2 PUSH2 0x192F JUMP JUMPDEST DUP3 MSTORE POP POP JUMP JUMPDEST PUSH1 0x0 PUSH2 0x1677 DUP3 DUP5 PUSH2 0x139C JUMP JUMPDEST SWAP2 POP DUP2 SWAP1 POP SWAP3 SWAP2 POP POP JUMP JUMPDEST PUSH1 0x0 PUSH2 0x168D DUP3 PUSH2 0x1490 JUMP JUMPDEST SWAP2 POP DUP2 SWAP1 POP SWAP2 SWAP1 POP JUMP JUMPDEST PUSH1 0x0 PUSH1 0x20 DUP3 ADD SWAP1 POP PUSH2 0x16AC PUSH1 0x0 DUP4 ADD DUP5 PUSH2 0x1336 JUMP JUMPDEST SWAP3 SWAP2 POP POP JUMP JUMPDEST PUSH1 0x0 PUSH1 0x40 DUP3 ADD SWAP1 POP PUSH2 0x16C7 PUSH1 0x0 DUP4 ADD DUP6 PUSH2 0x1327 JUMP JUMPDEST PUSH2 0x16D4 PUSH1 0x20 DUP4 ADD DUP5 PUSH2 0x165C JUMP JUMPDEST SWAP4 SWAP3 POP POP POP JUMP JUMPDEST PUSH1 0x0 PUSH1 0x20 DUP3 ADD SWAP1 POP PUSH2 0x16F0 PUSH1 0x0 DUP4 ADD DUP5 PUSH2 0x1345 JUMP JUMPDEST SWAP3 SWAP2 POP POP JUMP JUMPDEST PUSH1 0x0 PUSH1 0x20 DUP3 ADD SWAP1 POP PUSH2 0x170B PUSH1 0x0 DUP4 ADD DUP5 PUSH2 0x1354 JUMP JUMPDEST SWAP3 SWAP2 POP POP JUMP JUMPDEST PUSH1 0x0 PUSH1 0x20 DUP3 ADD SWAP1 POP DUP2 DUP2 SUB PUSH1 0x0 DUP4 ADD MSTORE PUSH2 0x172B DUP2 DUP5 PUSH2 0x1363 JUMP JUMPDEST SWAP1 POP SWAP3 SWAP2 POP POP JUMP JUMPDEST PUSH1 0x0 PUSH1 0x20 DUP3 ADD SWAP1 POP DUP2 DUP2 SUB PUSH1 0x0 DUP4 ADD MSTORE PUSH2 0x174C DUP2 PUSH2 0x142A JUMP JUMPDEST SWAP1 POP SWAP2 SWAP1 POP JUMP JUMPDEST PUSH1 0x0 PUSH1 0x20 DUP3 ADD SWAP1 POP DUP2 DUP2 SUB PUSH1 0x0 DUP4 ADD MSTORE PUSH2 0x176C DUP2 PUSH2 0x14D0 JUMP JUMPDEST SWAP1 POP SWAP2 SWAP1 POP JUMP JUMPDEST PUSH1 0x0 PUSH1 0x20 DUP3 ADD SWAP1 POP DUP2 DUP2 SUB PUSH1 0x0 DUP4 ADD MSTORE PUSH2 0x178C DUP2 PUSH2 0x1510 JUMP JUMPDEST SWAP1 POP SWAP2 SWAP1 POP JUMP JUMPDEST PUSH1 0x0 PUSH1 0x20 DUP3 ADD SWAP1 POP DUP2 DUP2 SUB PUSH1 0x0 DUP4 ADD MSTORE PUSH2 0x17AC DUP2 PUSH2 0x1576 JUMP JUMPDEST SWAP1 POP SWAP2 SWAP1 POP JUMP JUMPDEST PUSH1 0x0 PUSH1 0x20 DUP3 ADD SWAP1 POP DUP2 DUP2 SUB PUSH1 0x0 DUP4 ADD MSTORE PUSH2 0x17CC DUP2 PUSH2 0x15B6 JUMP JUMPDEST SWAP1 POP SWAP2 SWAP1 POP JUMP JUMPDEST PUSH1 0x0 PUSH1 0x20 DUP3 ADD SWAP1 POP DUP2 DUP2 SUB PUSH1 0x0 DUP4 ADD MSTORE PUSH2 0x17EC DUP2 PUSH2 0x15F6 JUMP JUMPDEST SWAP1 POP SWAP2 SWAP1 POP JUMP JUMPDEST PUSH1 0x0 PUSH1 0x20 DUP3 ADD SWAP1 POP PUSH2 0x1808 PUSH1 0x0 DUP4 ADD DUP5 PUSH2 0x165C JUMP JUMPDEST SWAP3 SWAP2 POP POP JUMP JUMPDEST PUSH1 0x0 PUSH1 0xC0 DUP3 ADD SWAP1 POP PUSH2 0x1823 PUSH1 0x0 DUP4 ADD DUP10 PUSH2 0x165C JUMP JUMPDEST PUSH2 0x1830 PUSH1 0x20 DUP4 ADD DUP9 PUSH2 0x165C JUMP JUMPDEST PUSH2 0x183D PUSH1 0x40 DUP4 ADD DUP8 PUSH2 0x165C JUMP JUMPDEST PUSH2 0x184A PUSH1 0x60 DUP4 ADD DUP7 PUSH2 0x165C JUMP JUMPDEST PUSH2 0x1857 PUSH1 0x80 DUP4 ADD DUP6 PUSH2 0x165C JUMP JUMPDEST PUSH2 0x1864 PUSH1 0xA0 DUP4 ADD DUP5 PUSH2 0x165C JUMP JUMPDEST SWAP8 SWAP7 POP POP POP POP POP POP POP JUMP JUMPDEST PUSH1 0x0 PUSH1 0x40 MLOAD SWAP1 POP DUP2 DUP2 ADD DUP2 DUP2 LT PUSH8 0xFFFFFFFFFFFFFFFF DUP3 GT OR ISZERO PUSH2 0x1892 JUMPI PUSH1 0x0 DUP1 REVERT JUMPDEST DUP1 PUSH1 0x40 MSTORE POP SWAP2 SWAP1 POP JUMP JUMPDEST PUSH1 0x0 DUP2 SWAP1 POP DUP2 PUSH1 0x0 MSTORE PUSH1 0x20 PUSH1 0x0 KECCAK256 SWAP1 POP SWAP2 SWAP1 POP JUMP JUMPDEST PUSH1 0x0 DUP2 MLOAD SWAP1 POP SWAP2 SWAP1 POP JUMP JUMPDEST PUSH1 0x0 DUP3 DUP3 MSTORE PUSH1 0x20 DUP3 ADD SWAP1 POP SWAP3 SWAP2 POP POP JUMP JUMPDEST PUSH1 0x0 DUP2 SWAP1 POP SWAP3 SWAP2 POP POP JUMP JUMPDEST PUSH1 0x0 PUSH2 0x18E3 DUP3 PUSH2 0x190F JUMP JUMPDEST SWAP1 POP SWAP2 SWAP1 POP JUMP JUMPDEST PUSH1 0x0 PUSH2 0x18F5 DUP3 PUSH2 0x190F JUMP JUMPDEST SWAP1 POP SWAP2 SWAP1 POP JUMP JUMPDEST PUSH1 0x0 DUP2 SWAP1 POP PUSH2 0x190A DUP3 PUSH2 0x19E9 JUMP JUMPDEST SWAP2 SWAP1 POP JUMP JUMPDEST PUSH1 0x0 PUSH20 0xFFFFFFFFFFFFFFFFFFFFFFFFFFFFFFFFFFFFFFFF DUP3 AND SWAP1 POP SWAP2 SWAP1 POP JUMP JUMPDEST PUSH1 0x0 DUP2 SWAP1 POP SWAP2 SWAP1 POP JUMP JUMPDEST PUSH1 0x0 PUSH2 0x1944 DUP3 PUSH2 0x1981 JUMP JUMPDEST SWAP1 POP SWAP2 SWAP1 POP JUMP JUMPDEST PUSH1 0x0 PUSH2 0x1956 DUP3 PUSH2 0x195D JUMP JUMPDEST SWAP1 POP SWAP2 SWAP1 POP JUMP JUMPDEST PUSH1 0x0 PUSH2 0x1968 DUP3 PUSH2 0x190F JUMP JUMPDEST SWAP1 POP SWAP2 SWAP1 POP JUMP JUMPDEST PUSH1 0x0 PUSH2 0x197A DUP3 PUSH2 0x18FC JUMP JUMPDEST SWAP1 POP SWAP2 SWAP1 POP JUMP JUMPDEST PUSH1 0x0 PUSH2 0x198C DUP3 PUSH2 0x1993 JUMP JUMPDEST SWAP1 POP SWAP2 SWAP1 POP JUMP JUMPDEST PUSH1 0x0 PUSH2 0x199E DUP3 PUSH2 0x190F JUMP JUMPDEST SWAP1 POP SWAP2 SWAP1 POP JUMP JUMPDEST PUSH1 0x0 JUMPDEST DUP4 DUP2 LT ISZERO PUSH2 0x19C3 JUMPI DUP1 DUP3 ADD MLOAD DUP2 DUP5 ADD MSTORE PUSH1 0x20 DUP2 ADD SWAP1 POP PUSH2 0x19A8 JUMP JUMPDEST DUP4 DUP2 GT ISZERO PUSH2 0x19D2 JUMPI PUSH1 0x0 DUP5 DUP5 ADD MSTORE JUMPDEST POP POP POP POP JUMP JUMPDEST PUSH1 0x0 PUSH1 0x1F NOT PUSH1 0x1F DUP4 ADD AND SWAP1 POP SWAP2 SWAP1 POP JUMP JUMPDEST PUSH1 0x5 DUP2 LT PUSH2 0x19F3 JUMPI INVALID JUMPDEST POP JUMP JUMPDEST PUSH2 0x19FF DUP2 PUSH2 0x18D8 JUMP JUMPDEST DUP2 EQ PUSH2 0x1A0A JUMPI PUSH1 0x0 DUP1 REVERT JUMPDEST POP JUMP JUMPDEST PUSH2 0x1A16 DUP2 PUSH2 0x18EA JUMP JUMPDEST DUP2 EQ PUSH2 0x1A21 JUMPI PUSH1 0x0 DUP1 REVERT JUMPDEST POP JUMP JUMPDEST PUSH2 0x1A2D DUP2 PUSH2 0x192F JUMP JUMPDEST DUP2 EQ PUSH2 0x1A38 JUMPI PUSH1 0x0 DUP1 REVERT JUMPDEST POP JUMP INVALID LOG2 PUSH5 0x6970667358 0x22 SLT KECCAK256 PUSH19 0xF1B8F59741C40B40235160F5FB3A56461B9027 DIFFICULTY MOD EXP MSTORE 0x48 TIMESTAMP PUSH22 0xC62B497A5264736F6C634300060C0033000000000000 "},"gasEstimates":{"creation":{"codeDepositCost":"1353800","executionCost":"infinite","totalCost":"infinite"},"external":{"askedBorrowAmount()":"1173","borrowerBalance()":"1241","chosenBorrowedCrypto()":"infinite","creationBlock()":"1219","cryptoFromLender()":"1324","getContractBalance()":"infinite","lastDepositBlock()":"1152","lenderAcceptance(address)":"infinite","lenderBalance()":"1195","loanActiveBlock()":"1196","loanForeClosure()":"42968","loanForeclosureBlock()":"1196","loanName()":"infinite","loanParams()":"infinite","loanStatus()":"1284","owner()":"1311","renounceOwnership()":"24314","rpbRate()":"1197","setNewParams((uint256,uint256,uint256,uint256,uint256,uint256))":"infinite","setNewStatus(uint256)":"23270","stableContractAddress()":"1259","startCollateralRatio()":"1262","startPrice()":"1217","transferOwnership(address)":"24750","withdrawEth(address)":"infinite"}},"methodIdentifiers":{"askedBorrowAmount()":"e5acc187","borrowerBalance()":"1cbd8380","chosenBorrowedCrypto()":"adc38b06","creationBlock()":"17634514","cryptoFromLender()":"44dc7fbc","getContractBalance()":"6f9fb98a","lastDepositBlock()":"2a3d7c81","lenderAcceptance(address)":"5dc334bf","lenderBalance()":"eaf3a62e","loanActiveBlock()":"b2ca1805","loanForeClosure()":"94a83eeb","loanForeclosureBlock()":"8a0dac21","loanName()":"80cc0269","loanParams()":"09e94d98","loanStatus()":"074ca966","owner()":"8da5cb5b","renounceOwnership()":"715018a6","rpbRate()":"0e031a94","setNewParams((uint256,uint256,uint256,uint256,uint256,uint256))":"c6cb6770","setNewStatus(uint256)":"708196ae","stableContractAddress()":"3702e6cb","startCollateralRatio()":"a2df9b1f","startPrice()":"f1a9af89","transferOwnership(address)":"f2fde38b","withdrawEth(address)":"25e16063"}},"storageLayout":{"storage":[{"astId":222,"contract":"JLoansFactory.sol:JLoanEthPair","label":"_owner","offset":0,"slot":"0","type":"t_address"},{"astId":446,"contract":"JLoansFactory.sol:JLoanEthPair","label":"loanParams","offset":0,"slot":"1","type":"t_struct(params)412_storage"},{"astId":448,"contract":"JLoansFactory.sol:JLoanEthPair","label":"loanStatus","offset":0,"slot":"7","type":"t_enum(Status)418"},{"astId":450,"contract":"JLoansFactory.sol:JLoanEthPair","label":"loanName","offset":0,"slot":"8","type":"t_string_storage"},{"astId":452,"contract":"JLoansFactory.sol:JLoanEthPair","label":"rpbRate","offset":0,"slot":"9","type":"t_uint256"},{"astId":454,"contract":"JLoansFactory.sol:JLoanEthPair","label":"startPrice","offset":0,"slot":"10","type":"t_uint256"},{"astId":456,"contract":"JLoansFactory.sol:JLoanEthPair","label":"startCollateralRatio","offset":0,"slot":"11","type":"t_uint256"},{"astId":458,"contract":"JLoansFactory.sol:JLoanEthPair","label":"creationBlock","offset":0,"slot":"12","type":"t_uint256"},{"astId":460,"contract":"JLoansFactory.sol:JLoanEthPair","label":"lastDepositBlock","offset":0,"slot":"13","type":"t_uint256"},{"astId":462,"contract":"JLoansFactory.sol:JLoanEthPair","label":"loanActiveBlock","offset":0,"slot":"14","type":"t_uint256"},{"astId":464,"contract":"JLoansFactory.sol:JLoanEthPair","label":"loanForeclosureBlock","offset":0,"slot":"15","type":"t_uint256"},{"astId":466,"contract":"JLoansFactory.sol:JLoanEthPair","label":"borrowerBalance","offset":0,"slot":"16","type":"t_uint256"},{"astId":468,"contract":"JLoansFactory.sol:JLoanEthPair","label":"lenderBalance","offset":0,"slot":"17","type":"t_uint256"},{"astId":470,"contract":"JLoansFactory.sol:JLoanEthPair","label":"factoryAddress","offset":0,"slot":"18","type":"t_address"},{"astId":673,"contract":"JLoansFactory.sol:JLoanEthPair","label":"stableContractAddress","offset":0,"slot":"19","type":"t_address"},{"astId":675,"contract":"JLoansFactory.sol:JLoanEthPair","label":"chosenBorrowedCrypto","offset":0,"slot":"20","type":"t_string_storage"},{"astId":677,"contract":"JLoansFactory.sol:JLoanEthPair","label":"askedBorrowAmount","offset":0,"slot":"21","type":"t_uint256"},{"astId":679,"contract":"JLoansFactory.sol:JLoanEthPair","label":"cryptoFromLender","offset":0,"slot":"22","type":"t_contract(IERC20)399"},{"astId":681,"contract":"JLoansFactory.sol:JLoanEthPair","label":"factoryAddress","offset":0,"slot":"23","type":"t_address"}],"types":{"t_address":{"encoding":"inplace","label":"address","numberOfBytes":"20"},"t_contract(IERC20)399":{"encoding":"inplace","label":"contract IERC20","numberOfBytes":"20"},"t_enum(Status)418":{"encoding":"inplace","label":"enum IJLoanCommons.Status","numberOfBytes":"1"},"t_string_storage":{"encoding":"bytes","label":"string","numberOfBytes":"32"},"t_struct(params)412_storage":{"encoding":"inplace","label":"struct IJLoanCommons.params","members":[{"astId":401,"contract":"JLoansFactory.sol:JLoanEthPair","label":"minRpbRate","offset":0,"slot":"0","type":"t_uint256"},{"astId":403,"contract":"JLoansFactory.sol:JLoanEthPair","label":"earlySettlementWindow","offset":0,"slot":"1","type":"t_uint256"},{"astId":405,"contract":"JLoansFactory.sol:JLoanEthPair","label":"foreclosureWindow","offset":0,"slot":"2","type":"t_uint256"},{"astId":407,"contract":"JLoansFactory.sol:JLoanEthPair","label":"foreclosureRatio","offset":0,"slot":"3","type":"t_uint256"},{"astId":409,"contract":"JLoansFactory.sol:JLoanEthPair","label":"instantForeclosureRatio","offset":0,"slot":"4","type":"t_uint256"},{"astId":411,"contract":"JLoansFactory.sol:JLoanEthPair","label":"earlySettlementFee","offset":0,"slot":"5","type":"t_uint256"}],"numberOfBytes":"192"},"t_uint256":{"encoding":"inplace","label":"uint256","numberOfBytes":"32"}}},"userdoc":{"kind":"user","methods":{},"version":1}}