{
  "contractName": "JFactory",
  "abi": [
    {
      "inputs": [
        {
          "internalType": "address",
          "name": "_ethDepl",
          "type": "address"
        },
        {
          "internalType": "address",
          "name": "_tokenDepl",
          "type": "address"
        }
      ],
      "stateMutability": "nonpayable",
      "type": "constructor"
    },
    {
      "anonymous": false,
      "inputs": [
        {
          "indexed": false,
          "internalType": "uint256",
          "name": "blockNumber",
          "type": "uint256"
        }
      ],
      "name": "AdminAdded",
      "type": "event"
    },
    {
      "anonymous": false,
      "inputs": [
        {
          "indexed": false,
          "internalType": "uint256",
          "name": "blockNumber",
          "type": "uint256"
        }
      ],
      "name": "AdminRemoved",
      "type": "event"
    },
    {
      "anonymous": false,
      "inputs": [
        {
          "indexed": true,
          "internalType": "uint256",
          "name": "loanId",
          "type": "uint256"
        },
        {
          "indexed": true,
          "internalType": "address",
          "name": "sender",
          "type": "address"
        },
        {
          "indexed": true,
          "internalType": "address",
          "name": "newLoan",
          "type": "address"
        },
        {
          "indexed": false,
          "internalType": "uint256",
          "name": "value",
          "type": "uint256"
        },
        {
          "indexed": false,
          "internalType": "address",
          "name": "collateralTokenAddress",
          "type": "address"
        }
      ],
      "name": "NewEthLoanCreated",
      "type": "event"
    },
    {
      "anonymous": false,
      "inputs": [
        {
          "indexed": true,
          "internalType": "uint256",
          "name": "_pairId",
          "type": "uint256"
        },
        {
          "indexed": false,
          "internalType": "string",
          "name": "_pairName",
          "type": "string"
        }
      ],
      "name": "NewPair",
      "type": "event"
    },
    {
      "anonymous": false,
      "inputs": [
        {
          "indexed": true,
          "internalType": "uint256",
          "name": "pairId",
          "type": "uint256"
        },
        {
          "indexed": true,
          "internalType": "string",
          "name": "pairName",
          "type": "string"
        },
        {
          "indexed": false,
          "internalType": "address",
          "name": "baseAddress",
          "type": "address"
        },
        {
          "indexed": false,
          "internalType": "address",
          "name": "quoteAddress",
          "type": "address"
        }
      ],
      "name": "NewPairAddresses",
      "type": "event"
    },
    {
      "anonymous": false,
      "inputs": [
        {
          "indexed": true,
          "internalType": "uint256",
          "name": "pairId",
          "type": "uint256"
        },
        {
          "indexed": true,
          "internalType": "string",
          "name": "pairName",
          "type": "string"
        },
        {
          "indexed": false,
          "internalType": "uint8",
          "name": "baseDecimals",
          "type": "uint8"
        },
        {
          "indexed": false,
          "internalType": "uint8",
          "name": "quoteDecimals",
          "type": "uint8"
        }
      ],
      "name": "NewPairDecimals",
      "type": "event"
    },
    {
      "anonymous": false,
      "inputs": [
        {
          "indexed": true,
          "internalType": "uint256",
          "name": "pairId",
          "type": "uint256"
        },
        {
          "indexed": true,
          "internalType": "string",
          "name": "pairName",
          "type": "string"
        },
        {
          "indexed": false,
          "internalType": "uint256",
          "name": "pairValue",
          "type": "uint256"
        },
        {
          "indexed": false,
          "internalType": "uint8",
          "name": "pairDecimals",
          "type": "uint8"
        }
      ],
      "name": "NewPrice",
      "type": "event"
    },
    {
      "anonymous": false,
      "inputs": [
        {
          "indexed": true,
          "internalType": "uint256",
          "name": "loanId",
          "type": "uint256"
        },
        {
          "indexed": true,
          "internalType": "address",
          "name": "sender",
          "type": "address"
        },
        {
          "indexed": true,
          "internalType": "address",
          "name": "newLoan",
          "type": "address"
        },
        {
          "indexed": false,
          "internalType": "address",
          "name": "collateralTokenAddress",
          "type": "address"
        }
      ],
      "name": "NewTokenLoanCreated",
      "type": "event"
    },
    {
      "anonymous": false,
      "inputs": [
        {
          "indexed": true,
          "internalType": "address",
          "name": "previousOwner",
          "type": "address"
        },
        {
          "indexed": true,
          "internalType": "address",
          "name": "newOwner",
          "type": "address"
        }
      ],
      "name": "OwnershipTransferred",
      "type": "event"
    },
    {
      "inputs": [],
      "name": "ZERO_ADDRESS",
      "outputs": [
        {
          "internalType": "address",
          "name": "",
          "type": "address"
        }
      ],
      "stateMutability": "view",
      "type": "function",
      "constant": true
    },
    {
      "inputs": [],
      "name": "contractCounter",
      "outputs": [
        {
          "internalType": "uint256",
          "name": "",
          "type": "uint256"
        }
      ],
      "stateMutability": "view",
      "type": "function",
      "constant": true
    },
    {
      "inputs": [],
      "name": "ethDeplContract",
      "outputs": [
        {
          "internalType": "contract IJLoanEthDeployer",
          "name": "",
          "type": "address"
        }
      ],
      "stateMutability": "view",
      "type": "function",
      "constant": true
    },
    {
      "inputs": [],
      "name": "factoryDeployBlock",
      "outputs": [
        {
          "internalType": "uint256",
          "name": "",
          "type": "uint256"
        }
      ],
      "stateMutability": "view",
      "type": "function",
      "constant": true
    },
    {
      "inputs": [],
      "name": "generalFees",
      "outputs": [
        {
          "internalType": "uint256",
          "name": "factoryFees",
          "type": "uint256"
        },
        {
          "internalType": "uint256",
          "name": "earlySettlementFee",
          "type": "uint256"
        },
        {
          "internalType": "uint256",
          "name": "userRewardShare",
          "type": "uint256"
        },
        {
          "internalType": "uint256",
          "name": "vaultShare",
          "type": "uint256"
        },
        {
          "internalType": "uint256",
          "name": "undercollateralizedForeclosingMultiple",
          "type": "uint256"
        },
        {
          "internalType": "uint256",
          "name": "atRiskForeclosedMultiple",
          "type": "uint256"
        },
        {
          "internalType": "uint256",
          "name": "cancellationFees",
          "type": "uint256"
        }
      ],
      "stateMutability": "view",
      "type": "function",
      "constant": true
    },
    {
      "inputs": [],
      "name": "generalParams",
      "outputs": [
        {
          "internalType": "uint256",
          "name": "minRpbRate",
          "type": "uint256"
        },
        {
          "internalType": "uint256",
          "name": "earlySettlementWindow",
          "type": "uint256"
        },
        {
          "internalType": "uint256",
          "name": "foreclosureWindow",
          "type": "uint256"
        },
        {
          "internalType": "uint256",
          "name": "requiredCollateralRatio",
          "type": "uint256"
        },
        {
          "internalType": "uint256",
          "name": "foreclosingRatio",
          "type": "uint256"
        },
        {
          "internalType": "uint256",
          "name": "instantForeclosureRatio",
          "type": "uint256"
        },
        {
          "internalType": "address",
          "name": "factoryAddress",
          "type": "address"
        },
        {
          "internalType": "address",
          "name": "ethDeployerAddress",
          "type": "address"
        },
        {
          "internalType": "address",
          "name": "tokenDeployerAddress",
          "type": "address"
        }
      ],
      "stateMutability": "view",
      "type": "function",
      "constant": true
    },
    {
      "inputs": [],
      "name": "lastDepositBlock",
      "outputs": [
        {
          "internalType": "uint256",
          "name": "",
          "type": "uint256"
        }
      ],
      "stateMutability": "view",
      "type": "function",
      "constant": true
    },
    {
      "inputs": [],
      "name": "loanID",
      "outputs": [
        {
          "internalType": "uint256",
          "name": "",
          "type": "uint256"
        }
      ],
      "stateMutability": "view",
      "type": "function",
      "constant": true
    },
    {
      "inputs": [],
      "name": "owner",
      "outputs": [
        {
          "internalType": "address",
          "name": "",
          "type": "address"
        }
      ],
      "stateMutability": "view",
      "type": "function",
      "constant": true
    },
    {
      "inputs": [],
      "name": "pairCounter",
      "outputs": [
        {
          "internalType": "uint256",
          "name": "",
          "type": "uint256"
        }
      ],
      "stateMutability": "view",
      "type": "function",
      "constant": true
    },
    {
      "inputs": [
        {
          "internalType": "uint256",
          "name": "",
          "type": "uint256"
        }
      ],
      "name": "pairs",
      "outputs": [
        {
          "internalType": "string",
          "name": "pairName",
          "type": "string"
        },
        {
          "internalType": "uint256",
          "name": "pairValue",
          "type": "uint256"
        },
        {
          "internalType": "uint8",
          "name": "pairDecimals",
          "type": "uint8"
        },
        {
          "internalType": "address",
          "name": "baseAddress",
          "type": "address"
        },
        {
          "internalType": "uint8",
          "name": "baseDecimals",
          "type": "uint8"
        },
        {
          "internalType": "address",
          "name": "quoteAddress",
          "type": "address"
        },
        {
          "internalType": "uint8",
          "name": "quoteDecimals",
          "type": "uint8"
        }
      ],
      "stateMutability": "view",
      "type": "function",
      "constant": true
    },
    {
      "inputs": [],
      "name": "renounceOwnership",
      "outputs": [],
      "stateMutability": "nonpayable",
      "type": "function"
    },
    {
      "inputs": [],
      "name": "tokenDeplContract",
      "outputs": [
        {
          "internalType": "contract IJLoanTokenDeployer",
          "name": "",
          "type": "address"
        }
      ],
      "stateMutability": "view",
      "type": "function",
      "constant": true
    },
    {
      "inputs": [
        {
          "internalType": "address",
          "name": "newOwner",
          "type": "address"
        }
      ],
      "name": "transferOwnership",
      "outputs": [],
      "stateMutability": "nonpayable",
      "type": "function"
    },
    {
      "inputs": [
        {
          "internalType": "address",
          "name": "account",
          "type": "address"
        }
      ],
      "name": "isAdmin",
      "outputs": [
        {
          "internalType": "bool",
          "name": "",
          "type": "bool"
        }
      ],
      "stateMutability": "view",
      "type": "function",
      "constant": true
    },
    {
      "inputs": [
        {
          "internalType": "address",
          "name": "account",
          "type": "address"
        }
      ],
      "name": "addAdmin",
      "outputs": [],
      "stateMutability": "nonpayable",
      "type": "function"
    },
    {
      "inputs": [
        {
          "internalType": "address",
          "name": "account",
          "type": "address"
        }
      ],
      "name": "removeAdmin",
      "outputs": [],
      "stateMutability": "nonpayable",
      "type": "function"
    },
    {
      "inputs": [],
      "name": "renounceAdmin",
      "outputs": [],
      "stateMutability": "nonpayable",
      "type": "function"
    },
    {
      "inputs": [
        {
          "internalType": "address",
          "name": "_ethDepl",
          "type": "address"
        }
      ],
      "name": "setEthDeployerAddress",
      "outputs": [],
      "stateMutability": "nonpayable",
      "type": "function"
    },
    {
      "inputs": [
        {
          "internalType": "address",
          "name": "_tokenDepl",
          "type": "address"
        }
      ],
      "name": "setTokenDeployerAddress",
      "outputs": [],
      "stateMutability": "nonpayable",
      "type": "function"
    },
    {
      "inputs": [
        {
          "internalType": "string",
          "name": "_pairName",
          "type": "string"
        },
        {
          "internalType": "uint256",
          "name": "_price",
          "type": "uint256"
        },
        {
          "internalType": "uint8",
          "name": "_pairDecimals",
          "type": "uint8"
        },
        {
          "internalType": "address",
          "name": "_baseAddress",
          "type": "address"
        },
        {
          "internalType": "uint8",
          "name": "_baseDecimals",
          "type": "uint8"
        },
        {
          "internalType": "address",
          "name": "_quoteAddress",
          "type": "address"
        },
        {
          "internalType": "uint8",
          "name": "_quoteDecimals",
          "type": "uint8"
        }
      ],
      "name": "setNewPair",
      "outputs": [],
      "stateMutability": "nonpayable",
      "type": "function"
    },
    {
      "inputs": [
        {
          "internalType": "uint256",
          "name": "_pairId",
          "type": "uint256"
        },
        {
          "internalType": "uint256",
          "name": "_price",
          "type": "uint256"
        },
        {
          "internalType": "uint8",
          "name": "_pairDecimals",
          "type": "uint8"
        }
      ],
      "name": "setPairValue",
      "outputs": [],
      "stateMutability": "nonpayable",
      "type": "function"
    },
    {
      "inputs": [
        {
          "internalType": "uint256",
          "name": "_pairId",
          "type": "uint256"
        },
        {
          "internalType": "address",
          "name": "_baseAddress",
          "type": "address"
        },
        {
          "internalType": "address",
          "name": "_quoteAddress",
          "type": "address"
        }
      ],
      "name": "setBaseQuoteAddresses",
      "outputs": [],
      "stateMutability": "nonpayable",
      "type": "function"
    },
    {
      "inputs": [
        {
          "internalType": "uint256",
          "name": "_pairId",
          "type": "uint256"
        },
        {
          "internalType": "uint8",
          "name": "_baseDecimals",
          "type": "uint8"
        },
        {
          "internalType": "uint8",
          "name": "_quoteDecimals",
          "type": "uint8"
        }
      ],
      "name": "setBaseQuoteDecimals",
      "outputs": [],
      "stateMutability": "nonpayable",
      "type": "function"
    },
    {
      "inputs": [
        {
          "internalType": "uint256",
          "name": "_pairId",
          "type": "uint256"
        }
      ],
      "name": "getPairValue",
      "outputs": [
        {
          "internalType": "uint256",
          "name": "",
          "type": "uint256"
        }
      ],
      "stateMutability": "view",
      "type": "function",
      "constant": true
    },
    {
      "inputs": [
        {
          "internalType": "uint256",
          "name": "_pairId",
          "type": "uint256"
        }
      ],
      "name": "getPairName",
      "outputs": [
        {
          "internalType": "string",
          "name": "",
          "type": "string"
        }
      ],
      "stateMutability": "view",
      "type": "function",
      "constant": true
    },
    {
      "inputs": [
        {
          "internalType": "uint256",
          "name": "_pairId",
          "type": "uint256"
        }
      ],
      "name": "getPairDecimals",
      "outputs": [
        {
          "internalType": "uint8",
          "name": "",
          "type": "uint8"
        }
      ],
      "stateMutability": "view",
      "type": "function",
      "constant": true
    },
    {
      "inputs": [
        {
          "internalType": "uint256",
          "name": "_pairId",
          "type": "uint256"
        }
      ],
      "name": "getPairBaseDecimals",
      "outputs": [
        {
          "internalType": "uint8",
          "name": "",
          "type": "uint8"
        }
      ],
      "stateMutability": "view",
      "type": "function",
      "constant": true
    },
    {
      "inputs": [
        {
          "internalType": "uint256",
          "name": "_pairId",
          "type": "uint256"
        }
      ],
      "name": "getPairQuoteDecimals",
      "outputs": [
        {
          "internalType": "uint8",
          "name": "",
          "type": "uint8"
        }
      ],
      "stateMutability": "view",
      "type": "function",
      "constant": true
    },
    {
      "inputs": [
        {
          "internalType": "uint256",
          "name": "numerator",
          "type": "uint256"
        },
        {
          "internalType": "uint256",
          "name": "denominator",
          "type": "uint256"
        },
        {
          "internalType": "uint256",
          "name": "precision",
          "type": "uint256"
        }
      ],
      "name": "roundUp",
      "outputs": [
        {
          "internalType": "uint256",
          "name": "",
          "type": "uint256"
        }
      ],
      "stateMutability": "pure",
      "type": "function",
      "constant": true
    },
    {
      "inputs": [
        {
          "internalType": "uint256",
          "name": "numerator",
          "type": "uint256"
        },
        {
          "internalType": "uint256",
          "name": "denominator",
          "type": "uint256"
        },
        {
          "internalType": "uint256",
          "name": "precision",
          "type": "uint256"
        }
      ],
      "name": "roundDn",
      "outputs": [
        {
          "internalType": "uint256",
          "name": "",
          "type": "uint256"
        }
      ],
      "stateMutability": "pure",
      "type": "function",
      "constant": true
    },
    {
      "inputs": [
        {
          "internalType": "uint256",
          "name": "_collAmount",
          "type": "uint256"
        }
      ],
      "name": "calculateCollFeesOnActivation",
      "outputs": [
        {
          "internalType": "uint256",
          "name": "",
          "type": "uint256"
        }
      ],
      "stateMutability": "view",
      "type": "function",
      "constant": true
    },
    {
      "inputs": [
        {
          "internalType": "uint256",
          "name": "_pairId",
          "type": "uint256"
        },
        {
          "internalType": "uint256",
          "name": "_askAmount",
          "type": "uint256"
        }
      ],
      "name": "calcMinCollateralAmount",
      "outputs": [
        {
          "internalType": "uint256",
          "name": "",
          "type": "uint256"
        }
      ],
      "stateMutability": "view",
      "type": "function",
      "constant": true
    },
    {
      "inputs": [
        {
          "internalType": "uint256",
          "name": "_pairId",
          "type": "uint256"
        },
        {
          "internalType": "uint256",
          "name": "_askAmount",
          "type": "uint256"
        }
      ],
      "name": "calcMinCollateralWithFeesAmount",
      "outputs": [
        {
          "internalType": "uint256",
          "name": "",
          "type": "uint256"
        }
      ],
      "stateMutability": "view",
      "type": "function",
      "constant": true
    },
    {
      "inputs": [
        {
          "internalType": "uint256",
          "name": "_pairId",
          "type": "uint256"
        },
        {
          "internalType": "uint256",
          "name": "_collAmount",
          "type": "uint256"
        }
      ],
      "name": "calcMaxStableCoinAmount",
      "outputs": [
        {
          "internalType": "uint256",
          "name": "",
          "type": "uint256"
        }
      ],
      "stateMutability": "view",
      "type": "function",
      "constant": true
    },
    {
      "inputs": [
        {
          "internalType": "uint256",
          "name": "_pairId",
          "type": "uint256"
        },
        {
          "internalType": "uint256",
          "name": "_collAmount",
          "type": "uint256"
        }
      ],
      "name": "calcMaxStableCoinWithFeesAmount",
      "outputs": [
        {
          "internalType": "uint256",
          "name": "",
          "type": "uint256"
        }
      ],
      "stateMutability": "view",
      "type": "function",
      "constant": true
    },
    {
      "inputs": [
        {
          "internalType": "uint256",
          "name": "_value",
          "type": "uint256"
        }
      ],
      "name": "setEarlySettlementWindow",
      "outputs": [],
      "stateMutability": "nonpayable",
      "type": "function"
    },
    {
      "inputs": [
        {
          "internalType": "uint256",
          "name": "_value",
          "type": "uint256"
        }
      ],
      "name": "setForeclosureWindow",
      "outputs": [],
      "stateMutability": "nonpayable",
      "type": "function"
    },
    {
      "inputs": [
        {
          "internalType": "uint256",
          "name": "_value",
          "type": "uint256"
        }
      ],
      "name": "setForeclosureRatio",
      "outputs": [],
      "stateMutability": "nonpayable",
      "type": "function"
    },
    {
      "inputs": [
        {
          "internalType": "uint256",
          "name": "_value",
          "type": "uint256"
        }
      ],
      "name": "setInstantForeclosureRatio",
      "outputs": [],
      "stateMutability": "nonpayable",
      "type": "function"
    },
    {
      "inputs": [
        {
          "internalType": "uint256",
          "name": "_value",
          "type": "uint256"
        }
      ],
      "name": "setMinRpbRate",
      "outputs": [],
      "stateMutability": "nonpayable",
      "type": "function"
    },
    {
      "inputs": [
        {
          "internalType": "uint256",
          "name": "_value",
          "type": "uint256"
        }
      ],
      "name": "setRequiredCollateralRatio",
      "outputs": [],
      "stateMutability": "nonpayable",
      "type": "function"
    },
    {
      "inputs": [
        {
          "internalType": "uint256",
          "name": "_value",
          "type": "uint256"
        }
      ],
      "name": "setFactoryFees",
      "outputs": [],
      "stateMutability": "nonpayable",
      "type": "function"
    },
    {
      "inputs": [
        {
          "internalType": "uint256",
          "name": "_value",
          "type": "uint256"
        }
      ],
      "name": "setEarlySettlementFee",
      "outputs": [],
      "stateMutability": "nonpayable",
      "type": "function"
    },
    {
      "inputs": [
        {
          "internalType": "uint256",
          "name": "_value",
          "type": "uint256"
        }
      ],
      "name": "setUserRewardShare",
      "outputs": [],
      "stateMutability": "nonpayable",
      "type": "function"
    },
    {
      "inputs": [
        {
          "internalType": "uint256",
          "name": "_value",
          "type": "uint256"
        }
      ],
      "name": "setVaultShares",
      "outputs": [],
      "stateMutability": "nonpayable",
      "type": "function"
    },
    {
      "inputs": [
        {
          "internalType": "uint256",
          "name": "_value",
          "type": "uint256"
        }
      ],
      "name": "setUndercollateralizedForeclosingMultiple",
      "outputs": [],
      "stateMutability": "nonpayable",
      "type": "function"
    },
    {
      "inputs": [
        {
          "internalType": "uint256",
          "name": "_value",
          "type": "uint256"
        }
      ],
      "name": "setAtRiskForeclosedMultiple",
      "outputs": [],
      "stateMutability": "nonpayable",
      "type": "function"
    },
    {
      "inputs": [
        {
          "internalType": "uint256",
          "name": "_value",
          "type": "uint256"
        }
      ],
      "name": "setCancellationFees",
      "outputs": [],
      "stateMutability": "nonpayable",
      "type": "function"
    },
    {
      "inputs": [],
      "name": "getGeneralParams",
      "outputs": [
        {
          "components": [
            {
              "internalType": "uint256",
              "name": "minRpbRate",
              "type": "uint256"
            },
            {
              "internalType": "uint256",
              "name": "earlySettlementWindow",
              "type": "uint256"
            },
            {
              "internalType": "uint256",
              "name": "foreclosureWindow",
              "type": "uint256"
            },
            {
              "internalType": "uint256",
              "name": "requiredCollateralRatio",
              "type": "uint256"
            },
            {
              "internalType": "uint256",
              "name": "foreclosingRatio",
              "type": "uint256"
            },
            {
              "internalType": "uint256",
              "name": "instantForeclosureRatio",
              "type": "uint256"
            },
            {
              "internalType": "address",
              "name": "factoryAddress",
              "type": "address"
            },
            {
              "internalType": "address",
              "name": "ethDeployerAddress",
              "type": "address"
            },
            {
              "internalType": "address",
              "name": "tokenDeployerAddress",
              "type": "address"
            }
          ],
          "internalType": "struct IJLoanCommons.params",
          "name": "",
          "type": "tuple"
        }
      ],
      "stateMutability": "view",
      "type": "function",
      "constant": true
    },
    {
      "inputs": [],
      "name": "getGeneralFees",
      "outputs": [
        {
          "components": [
            {
              "internalType": "uint256",
              "name": "factoryFees",
              "type": "uint256"
            },
            {
              "internalType": "uint256",
              "name": "earlySettlementFee",
              "type": "uint256"
            },
            {
              "internalType": "uint256",
              "name": "userRewardShare",
              "type": "uint256"
            },
            {
              "internalType": "uint256",
              "name": "vaultShare",
              "type": "uint256"
            },
            {
              "internalType": "uint256",
              "name": "undercollateralizedForeclosingMultiple",
              "type": "uint256"
            },
            {
              "internalType": "uint256",
              "name": "atRiskForeclosedMultiple",
              "type": "uint256"
            },
            {
              "internalType": "uint256",
              "name": "cancellationFees",
              "type": "uint256"
            }
          ],
          "internalType": "struct IJLoanCommons.feesParams",
          "name": "",
          "type": "tuple"
        }
      ],
      "stateMutability": "view",
      "type": "function",
      "constant": true
    },
    {
      "inputs": [
        {
          "internalType": "uint256",
          "name": "_pairId",
          "type": "uint256"
        },
        {
          "internalType": "uint256",
          "name": "_borrowedAskAmount",
          "type": "uint256"
        },
        {
          "internalType": "uint256",
          "name": "_rpbRate",
          "type": "uint256"
        }
      ],
      "name": "createNewEthLoan",
      "outputs": [
        {
          "internalType": "address",
          "name": "",
          "type": "address"
        }
      ],
      "stateMutability": "payable",
      "type": "function",
      "payable": true
    },
    {
      "inputs": [
        {
          "internalType": "uint256",
          "name": "_pairId",
          "type": "uint256"
        },
        {
          "internalType": "uint256",
          "name": "_borrowedAskAmount",
          "type": "uint256"
        },
        {
          "internalType": "uint256",
          "name": "_rpbRate",
          "type": "uint256"
        }
      ],
      "name": "createNewTokenLoan",
      "outputs": [
        {
          "internalType": "address",
          "name": "",
          "type": "address"
        }
      ],
      "stateMutability": "nonpayable",
      "type": "function"
    },
    {
      "inputs": [],
      "name": "getEnvironmentDeployers",
      "outputs": [
        {
          "internalType": "address",
          "name": "",
          "type": "address"
        },
        {
          "internalType": "address",
          "name": "",
          "type": "address"
        }
      ],
      "stateMutability": "view",
      "type": "function",
      "constant": true
    },
    {
      "inputs": [
        {
          "internalType": "uint256",
          "name": "_idx",
          "type": "uint256"
        }
      ],
      "name": "getDeployedLoan",
      "outputs": [
        {
          "internalType": "address",
          "name": "",
          "type": "address"
        }
      ],
      "stateMutability": "view",
      "type": "function",
      "constant": true
    }
  ],
  "bytecode": "0x60806040523480156200001157600080fd5b50604051620032fc380380620032fc833981016040819052620000349162000166565b6000620000496001600160e01b036200016216565b600080546001600160a01b0319166001600160a01b0383169081178255604051929350917f8be0079c531659141344cd1fd0a4f28419497f9722a3daafe3b4186f6b6457e0908290a35062083d60600a55614650600b5560c8600c556096600d556078600e55633b9aca00600955601080546001600160a01b039384166001600160a01b03199182168117909255601180549390941692811683179093556001805484169091178155600280548416909217909155600f805490921630179091556005601281905562107ac0601355605060149081556015556103e8601655610bb860175560036018819055600060078190559081905533815260209190915260409020805460ff1916909117905543601955620001bd565b3390565b6000806040838503121562000179578182fd5b82516200018681620001a4565b60208401519092506200019981620001a4565b809150509250929050565b6001600160a01b0381168114620001ba57600080fd5b50565b61312f80620001cd6000396000f3fe6080604052600436106103505760003560e01c8063715018a6116101c6578063b91ac788116100f7578063dbf1e79911610095578063f0427dff1161006f578063f0427dff146109a7578063f2fde38b146109c7578063fc881f25146109e7578063fd344ceb14610a0757610350565b8063dbf1e7991461095d578063e132d94114610972578063e5549e261461098757610350565b8063c299e129116100d1578063c299e129146108cd578063c2c1e340146108ed578063ca937ea61461090d578063d575c7451461093a57610350565b8063b91ac78814610865578063bb38f75a14610898578063c175771b146108ad57610350565b80638da5cb5b116101645780639b9bbce21161013e5780639b9bbce2146107dd578063ac4854e0146107fd578063afdcfe3c1461081d578063b724e7b11461083d57610350565b80638da5cb5b146107885780638e354d401461079d578063914e510c146107bd57610350565b8063799d564c116101a0578063799d564c146107135780637c2f7b961461073357806383e099da146107535780638bad0c0a1461077357610350565b8063715018a6146106be578063731429bf146106d357806373aa3028146106f357610350565b80632ec13302116102a0578063551328e71161023e578063606a04dd11610218578063606a04dd14610634578063704802751461065457806370d531a81461067457806370fb1a491461069e57610350565b8063551328e7146105e157806357ac3e0a146105f45780635a4462d01461061457610350565b806343c5719c1161027a57806343c5719c1461055d5780634fd758791461057d57806352ede5f61461059f578063538ba4f9146105bf57610350565b80632ec133021461050857806339075d89146105285780633ef6b4371461053d57610350565b80631a55d9e91161030d5780632669f19a116102e75780632669f19a1461049357806326e9fdd8146104b35780632a3d7c81146104d35780632c7a4342146104e857610350565b80631a55d9e91461042f578063215b0dc61461045157806324d7806c1461046657610350565b80630158945314610355578063067bd3b414610377578063075761f0146103a25780630b164eb7146103c25780631013aa24146103e25780631785f53c1461040f575b600080fd5b34801561036157600080fd5b50610375610370366004612933565b610a27565b005b34801561038357600080fd5b5061038c610a6a565b6040516103999190613013565b60405180910390f35b3480156103ae57600080fd5b5061038c6103bd3660046129c5565b610a70565b3480156103ce57600080fd5b506103756103dd366004612933565b610ad7565b3480156103ee57600080fd5b506104026103fd366004612933565b610b11565b60405161039991906130c2565b34801561041b57600080fd5b5061037561042a366004612802565b610b55565b34801561043b57600080fd5b50610444610b86565b6040516103999190612f46565b34801561045d57600080fd5b5061038c610bd4565b34801561047257600080fd5b50610486610481366004612802565b610bda565b6040516103999190612be1565b34801561049f57600080fd5b5061038c6104ae366004612933565b610bf8565b3480156104bf57600080fd5b506103756104ce366004612933565b610c32565b3480156104df57600080fd5b5061038c610c6c565b3480156104f457600080fd5b5061038c6105033660046129a4565b610c72565b34801561051457600080fd5b50610375610523366004612963565b610e12565b34801561053457600080fd5b5061038c610f3b565b34801561054957600080fd5b50610375610558366004612802565b610f41565b34801561056957600080fd5b5061038c6105783660046129a4565b610ff6565b34801561058957600080fd5b5061059261116a565b6040516103999190612f94565b3480156105ab57600080fd5b5061038c6105ba366004612933565b6111d7565b3480156105cb57600080fd5b506105d46111fc565b6040516103999190612b21565b6105d46105ef3660046129c5565b611201565b34801561060057600080fd5b5061040261060f366004612933565b6113c1565b34801561062057600080fd5b5061038c61062f3660046129a4565b6113fe565b34801561064057600080fd5b5061037561064f3660046129f0565b61154c565b34801561066057600080fd5b5061037561066f366004612802565b61161f565b34801561068057600080fd5b50610689611699565b60405161039999989796959493929190613033565b3480156106aa57600080fd5b506105d46106b9366004612933565b6116c8565b3480156106ca57600080fd5b506103756116e3565b3480156106df57600080fd5b5061038c6106ee3660046129c5565b611762565b3480156106ff57600080fd5b5061037561070e366004612933565b611797565b34801561071f57600080fd5b5061037561072e366004612933565b6117d1565b34801561073f57600080fd5b5061040261074e366004612933565b61180b565b34801561075f57600080fd5b5061037561076e366004612933565b61184f565b34801561077f57600080fd5b50610375611889565b34801561079457600080fd5b506105d46118b9565b3480156107a957600080fd5b506103756107b8366004612802565b6118c8565b3480156107c957600080fd5b506103756107d8366004612933565b61197d565b3480156107e957600080fd5b506105d46107f83660046129c5565b6119b7565b34801561080957600080fd5b50610375610818366004612933565b611cc8565b34801561082957600080fd5b50610375610838366004612933565b611d02565b34801561084957600080fd5b50610852611d3c565b6040516103999796959493929190613081565b34801561087157600080fd5b50610885610880366004612933565b611d54565b6040516103999796959493929190612bff565b3480156108a457600080fd5b506105d4611e33565b3480156108b957600080fd5b5061038c6108c83660046129a4565b611e42565b3480156108d957600080fd5b506103756108e8366004612933565b611f79565b3480156108f957600080fd5b50610375610908366004612933565b611fb3565b34801561091957600080fd5b5061092d610928366004612933565b611fed565b6040516103999190612bec565b34801561094657600080fd5b5061094f6120b0565b604051610399929190612b35565b34801561096957600080fd5b506105d46120c7565b34801561097e57600080fd5b5061038c6120d6565b34801561099357600080fd5b506103756109a2366004612a25565b6120dc565b3480156109b357600080fd5b506103756109c2366004612933565b6121f7565b3480156109d357600080fd5b506103756109e2366004612802565b612231565b3480156109f357600080fd5b50610375610a0236600461283a565b6122e7565b348015610a1357600080fd5b50610375610a22366004612933565b612471565b610a2f6124ab565b6000546001600160a01b03908116911614610a655760405162461bcd60e51b8152600401610a5c90612e66565b60405180910390fd5b601555565b60085481565b600080610a97610a8784600163ffffffff6124af16565b8690600a0a63ffffffff6124db16565b90506000610acd600a610ac16005610ab5868a63ffffffff61251516565b9063ffffffff6124af16565b9063ffffffff61251516565b9695505050505050565b610adf6124ab565b6000546001600160a01b03908116911614610b0c5760405162461bcd60e51b8152600401610a5c90612e66565b601755565b6000600754821115610b355760405162461bcd60e51b8152600401610a5c90612d05565b50600090815260066020526040902060020154600160a81b900460ff1690565b610b5e33610bda565b610b7a5760405162461bcd60e51b8152600401610a5c90612d63565b610b8381612557565b50565b610b8e6126aa565b506040805160e08101825260125481526013546020820152601454918101919091526015546060820152601654608082015260175460a082015260185460c08201525b90565b60035481565b6001600160a01b031660009081526005602052604090205460ff1690565b6000600754821115610c1c5760405162461bcd60e51b8152600401610a5c90612d05565b5060009081526006602052604090206001015490565b610c3a6124ab565b6000546001600160a01b03908116911614610c675760405162461bcd60e51b8152600401610a5c90612e66565b600d55565b601a5481565b600080610c7e84610bf8565b90506000610c8b846111d7565b90506000610c9f858363ffffffff6125b216565b90506000610cf1610cd385610cc76064610cc76009600301548861251590919063ffffffff16565b9063ffffffff6124db16565b60008981526006602052604081206002015460ff16600a0a90611762565b90506000610d05828563ffffffff6125b216565b6000898152600660205260409020600381015460029091015491925060ff600160a01b9091048116600160a81b9092041610610da85760008881526006602052604081206003810154600290910154610d7991600160a81b90910460ff90811691600160a01b90041663ffffffff6125b216565b9050610da06001610d9484600a85900a63ffffffff61251516565b9063ffffffff6125b216565b915050610e05565b60008881526006602052604081206002810154600390910154610de691600160a01b90910460ff90811691600160a81b90041663ffffffff6125b216565b9050610e016001610d9484600a85900a63ffffffff6124db16565b9150505b9450505050505b92915050565b610e1a6124ab565b6000546001600160a01b03908116911614610e475760405162461bcd60e51b8152600401610a5c90612e66565b600754831115610e695760405162461bcd60e51b8152600401610a5c90612d05565b60008381526006602052604090819020600281018054610100600160a81b0319166101006001600160a01b0387811691909102919091179091556003820180546001600160a01b0319169185169190911790559051610ec89190612ab1565b6040805191829003822060008681526006602052919091206002810154600390910154919286927fb75bcc6f033131f7305f4f99dac19fdd494c402b75eda28eeebf214d95b347e292610f2e926101009091046001600160a01b03908116921690612b35565b60405180910390a3505050565b60195481565b610f496124ab565b6000546001600160a01b03908116911614610f765760405162461bcd60e51b8152600401610a5c90612e66565b6001600160a01b038116610f9c5760405162461bcd60e51b8152600401610a5c90612df8565b6011546001600160a01b0382811691161415610fca5760405162461bcd60e51b8152600401610a5c90612ec9565b601180546001600160a01b039092166001600160a01b0319928316811790915560028054909216179055565b60008061100284610bf8565b600085815260066020526040812060020154600c54929350909161104d916110459160ff909116600a0a90610cc790606490610ac1908a9063ffffffff6124db16565b836000610a70565b9050600061105a826111d7565b9050600061106e838363ffffffff6124af16565b6000888152600660205260409020600381015460029091015491925060ff600160a01b9091048116600160a81b909204161061110557600087815260066020526040812060038101546002909101546110e291600160a81b90910460ff90811691600160a01b90041663ffffffff6125b216565b90506110fd6005610ab584600a85900a63ffffffff6124db16565b915050610acd565b6000878152600660205260408120600281015460039091015461114391600160a01b90910460ff90811691600160a81b90041663ffffffff6125b216565b905061115e6005610ab584600a85900a63ffffffff61251516565b98975050505050505050565b6111726126e7565b5060408051610120810182526009548152600a546020820152600b5491810191909152600c546060820152600d546080820152600e5460a0820152600f546001600160a01b0390811660c0830152601054811660e08301526011541661010082015290565b601254600090610e0c906111f290849063ffffffff6124db16565b6103e86000610a70565b600081565b6000336112205760405162461bcd60e51b8152600401610a5c90612f0f565b600061122c8585610ff6565b9050333181111561124f5760405162461bcd60e51b8152600401610a5c90612d33565b8034101561126f5760405162461bcd60e51b8152600401610a5c90612dc1565b6000858152600660205260408082206003908101546001549154925163fefd3d0160e01b81526001600160a01b039182169493919092169163fefd3d019134916112c79133918d908d908d9030908c90600401612b4f565b6020604051808303818588803b1580156112e057600080fd5b505af11580156112f4573d6000803e3d6000fd5b50505050506040513d601f19601f82011682018060405250810190611319919061281e565b6003805460009081526004602052604080822080546001600160a01b0319166001600160a01b0386169081179091559254905193945091923392917f72cd486bb0e3b07484dffb83548cf7b98305f673c37687d34c0c04f4dbc2dcbd9161138191349161301c565b60405180910390a460035461139d90600163ffffffff6124af16565b6003556008546113b490600163ffffffff6124af16565b6008559695505050505050565b60006007548211156113e55760405162461bcd60e51b8152600401610a5c90612d05565b5060009081526006602052604090206002015460ff1690565b60008061140a84610bf8565b9050600061145061143283610cc76064610cc76009600301548a61251590919063ffffffff16565b60008781526006602052604081206002015460ff16600a0a90611762565b6000868152600660205260409020600381015460029091015491925060ff600160a01b9091048116600160a81b90920416106114e757600085815260066020526040812060038101546002909101546114c491600160a81b90910460ff90811691600160a01b90041663ffffffff6125b216565b90506114df6001610d9484600a85900a63ffffffff61251516565b915050611544565b6000858152600660205260408120600281015460039091015461152591600160a01b90910460ff90811691600160a81b90041663ffffffff6125b216565b90506115406001610d9484600a85900a63ffffffff6124db16565b9150505b949350505050565b61155533610bda565b6115715760405162461bcd60e51b8152600401610a5c90612d63565b6007548311156115935760405162461bcd60e51b8152600401610a5c90612d05565b600083815260066020526040908190206001810184905560028101805460ff191660ff851617905590516115c79190612ab1565b6040805191829003822060008681526006602052919091206001810154600290910154919286927f8faf8b67d977271b82c52dedfc0bf5414b0c347fd7cb985a8661863fb6954c1c92610f2e92909160ff16906130b1565b61162833610bda565b6116445760405162461bcd60e51b8152600401610a5c90612d63565b6001600160a01b03811661166a5760405162461bcd60e51b8152600401610a5c90612e9b565b61167381610bda565b156116905760405162461bcd60e51b8152600401610a5c90612c51565b610b83816125f4565b600954600a54600b54600c54600d54600e54600f546010546011546001600160a01b0392831692918216911689565b6000908152600460205260409020546001600160a01b031690565b6116eb6124ab565b6000546001600160a01b039081169116146117185760405162461bcd60e51b8152600401610a5c90612e66565b600080546040516001600160a01b03909116907f8be0079c531659141344cd1fd0a4f28419497f9722a3daafe3b4186f6b6457e0908390a3600080546001600160a01b0319169055565b600080611779610a8784600163ffffffff6124af16565b90506000610acd600a610ac16005610d94868a63ffffffff61251516565b61179f6124ab565b6000546001600160a01b039081169116146117cc5760405162461bcd60e51b8152600401610a5c90612e66565b600b55565b6117d96124ab565b6000546001600160a01b039081169116146118065760405162461bcd60e51b8152600401610a5c90612e66565b601355565b600060075482111561182f5760405162461bcd60e51b8152600401610a5c90612d05565b50600090815260066020526040902060030154600160a01b900460ff1690565b6118576124ab565b6000546001600160a01b039081169116146118845760405162461bcd60e51b8152600401610a5c90612e66565b601255565b61189233610bda565b6118ae5760405162461bcd60e51b8152600401610a5c90612d63565b6118b733612557565b565b6000546001600160a01b031690565b6118d06124ab565b6000546001600160a01b039081169116146118fd5760405162461bcd60e51b8152600401610a5c90612e66565b6001600160a01b0381166119235760405162461bcd60e51b8152600401610a5c90612df8565b6010546001600160a01b03828116911614156119515760405162461bcd60e51b8152600401610a5c90612ec9565b601080546001600160a01b039092166001600160a01b0319928316811790915560018054909216179055565b6119856124ab565b6000546001600160a01b039081169116146119b25760405162461bcd60e51b8152600401610a5c90612e66565b601655565b6000336119d65760405162461bcd60e51b8152600401610a5c90612f0f565b60006119e28585610ff6565b600086815260066020526040908190206002015490516370a0823160e01b815291925082916101009091046001600160a01b0316906370a0823190611a2b903390600401612b21565b60206040518083038186803b158015611a4357600080fd5b505afa158015611a57573d6000803e3d6000fd5b505050506040513d601f19601f82011682018060405250810190611a7b919061294b565b1015611a995760405162461bcd60e51b8152600401610a5c90612d33565b600085815260066020526040808220600201546011549151636eb1769f60e11b81526101009091046001600160a01b039081169263dd62ed3e92611ae39233921690600401612b35565b60206040518083038186803b158015611afb57600080fd5b505afa158015611b0f573d6000803e3d6000fd5b505050506040513d601f19601f82011682018060405250810190611b33919061294b565b905081811015611b555760405162461bcd60e51b8152600401610a5c90612d8a565b6000611b618787610ff6565b600088815260066020526040808220600280820154600392830154915492549351633a7d763960e11b81529596506001600160a01b0361010090910481169591811694939216916374faec7291611bca9133918f908f908f9030908c908c908f90600401612b8e565b602060405180830381600087803b158015611be457600080fd5b505af1158015611bf8573d6000803e3d6000fd5b505050506040513d601f19601f82011682018060405250810190611c1c919061281e565b600380546000908152600460205260409081902080546001600160a01b0319166001600160a01b0385169081179091559154905192935090913391907f2b20c25dbfd43424d1061108c660f42dd425fe3d235f747c12df98a7c0d3e01490611c85908890612b21565b60405180910390a4600354611ca190600163ffffffff6124af16565b600355600854611cb890600163ffffffff6124af16565b6008559998505050505050505050565b611cd06124ab565b6000546001600160a01b03908116911614611cfd5760405162461bcd60e51b8152600401610a5c90612e66565b600c55565b611d0a6124ab565b6000546001600160a01b03908116911614611d375760405162461bcd60e51b8152600401610a5c90612e66565b601455565b60125460135460145460155460165460175460185487565b60066020908152600091825260409182902080548351601f60026000196101006001861615020190931692909204918201849004840281018401909452808452909291839190830182828015611deb5780601f10611dc057610100808354040283529160200191611deb565b820191906000526020600020905b815481529060010190602001808311611dce57829003601f168201915b505050600184015460028501546003909501549394909360ff80831694506001600160a01b03610100840481169450600160a81b909304811692821691600160a01b90041687565b6001546001600160a01b031681565b600080611e4e84610bf8565b600085815260066020526040812060020154600c549293509091611e91916110459160ff909116600a0a90610cc790606490610ac1908a9063ffffffff6124db16565b6000868152600660205260409020600381015460029091015491925060ff600160a01b9091048116600160a81b9092041610611f205760008581526006602052604081206003810154600290910154611f0591600160a81b90910460ff90811691600160a01b90041663ffffffff6125b216565b90506114df6005610ab584600a85900a63ffffffff6124db16565b60008581526006602052604081206002810154600390910154611f5e91600160a01b90910460ff90811691600160a81b90041663ffffffff6125b216565b90506115406005610ab584600a85900a63ffffffff61251516565b611f816124ab565b6000546001600160a01b03908116911614611fae5760405162461bcd60e51b8152600401610a5c90612e66565b600955565b611fbb6124ab565b6000546001600160a01b03908116911614611fe85760405162461bcd60e51b8152600401610a5c90612e66565b600a55565b60606007548211156120115760405162461bcd60e51b8152600401610a5c90612d05565b60008281526006602090815260409182902080548351601f6002600019610100600186161502019093169290920491820184900484028101840190945280845290918301828280156120a45780601f10612079576101008083540402835291602001916120a4565b820191906000526020600020905b81548152906001019060200180831161208757829003601f168201915b50505050509050919050565b6001546002546001600160a01b0391821691169091565b6002546001600160a01b031681565b60075481565b6120e46124ab565b6000546001600160a01b039081169116146121115760405162461bcd60e51b8152600401610a5c90612e66565b6007548311156121335760405162461bcd60e51b8152600401610a5c90612d05565b6000838152600660205260409081902060028101805460ff808716600160a81b0260ff60a81b1990921691909117909155600382018054918516600160a01b0260ff60a01b19909216919091179055905161218e9190612ab1565b6040805191829003822060008681526006602052919091206002810154600390910154919286927f0c7c54329d4708979e5479f990e4abb586ffb676d9b402b2459467c86721efc792610f2e92600160a81b90910460ff90811692600160a01b900416906130d0565b6121ff6124ab565b6000546001600160a01b0390811691161461222c5760405162461bcd60e51b8152600401610a5c90612e66565b600e55565b6122396124ab565b6000546001600160a01b039081169116146122665760405162461bcd60e51b8152600401610a5c90612e66565b6001600160a01b03811661228c5760405162461bcd60e51b8152600401610a5c90612c88565b600080546040516001600160a01b03808516939216917f8be0079c531659141344cd1fd0a4f28419497f9722a3daafe3b4186f6b6457e091a3600080546001600160a01b0319166001600160a01b0392909216919091179055565b6122f033610bda565b61230c5760405162461bcd60e51b8152600401610a5c90612d63565b6040805160e081018252888152602080820189905260ff808916838501526001600160a01b0380891660608501528782166080850152861660a0840152841660c0830152600754600090815260068252929092208151805192939192612375928492019061274e565b50602082015160018201556040808301516002830180546060860151608087015160ff1990921660ff94851617610100600160a81b0319166101006001600160a01b03928316021760ff60a81b1916600160a81b928516929092029190911790915560a08501516003909401805460c0909601516001600160a01b0319909616949091169390931760ff60a01b1916600160a01b949091169390930292909217905560075490517f191c33c4db02b29dcf62df443c1c3a565f4628da46040183c5c24ab61e6e42ae90612449908a90612bec565b60405180910390a260075461246590600163ffffffff6124af16565b60075550505050505050565b6124796124ab565b6000546001600160a01b039081169116146124a65760405162461bcd60e51b8152600401610a5c90612e66565b601855565b3390565b6000828201838110156124d45760405162461bcd60e51b8152600401610a5c90612cce565b9392505050565b6000826124ea57506000610e0c565b828202828482816124f757fe5b04146124d45760405162461bcd60e51b8152600401610a5c90612e25565b60006124d483836040518060400160405280601a81526020017f536166654d6174683a206469766973696f6e206279207a65726f000000000000815250612647565b6001600160a01b03811660009081526005602052604090819020805460ff19169055517f99f4c949f294dd13aa62d19c1344b81968121fe570d11657ebd54aae55ac0f20906125a7904390613013565b60405180910390a150565b60006124d483836040518060400160405280601e81526020017f536166654d6174683a207375627472616374696f6e206f766572666c6f77000081525061267e565b6001600160a01b03811660009081526005602052604090819020805460ff19166001179055517f6d08be0da99b3a8dabb8a9d0bd4ebece8d00f747b0d0e6c29f97508f1a40a291906125a7904390613013565b600081836126685760405162461bcd60e51b8152600401610a5c9190612bec565b50600083858161267457fe5b0495945050505050565b600081848411156126a25760405162461bcd60e51b8152600401610a5c9190612bec565b505050900390565b6040518060e00160405280600081526020016000815260200160008152602001600081526020016000815260200160008152602001600081525090565b60405180610120016040528060008152602001600081526020016000815260200160008152602001600081526020016000815260200160006001600160a01b0316815260200160006001600160a01b0316815260200160006001600160a01b031681525090565b828054600181600116156101000203166002900490600052602060002090601f016020900481019282601f1061278f57805160ff19168380011785556127bc565b828001600101855582156127bc579182015b828111156127bc5782518255916020019190600101906127a1565b506127c89291506127cc565b5090565b610bd191905b808211156127c857600081556001016127d2565b8035610e0c816130e4565b803560ff81168114610e0c57600080fd5b600060208284031215612813578081fd5b81356124d4816130e4565b60006020828403121561282f578081fd5b81516124d4816130e4565b600080600080600080600060e0888a031215612854578283fd5b873567ffffffffffffffff8082111561286b578485fd5b818a018b601f82011261287c578586fd5b803592508183111561288c578586fd5b6040516020601f8501601f19168201810184811183821017156128ad578889fd5b60405284825282850181018e10156128c3578788fd5b848184018284013793810184018790529950505088013595506128e98960408a016127f1565b94506128f88960608a016127e6565b93506129078960808a016127f1565b92506129168960a08a016127e6565b91506129258960c08a016127f1565b905092959891949750929550565b600060208284031215612944578081fd5b5035919050565b60006020828403121561295c578081fd5b5051919050565b600080600060608486031215612977578283fd5b833592506020840135612989816130e4565b91506040840135612999816130e4565b809150509250925092565b600080604083850312156129b6578182fd5b50508035926020909101359150565b6000806000606084860312156129d9578283fd5b505081359360208301359350604090920135919050565b600080600060608486031215612a04578283fd5b8335925060208401359150612a1c85604086016127f1565b90509250925092565b600080600060608486031215612a39578283fd5b83359250612a4a85602086016127f1565b9150612a1c85604086016127f1565b6001600160a01b03169052565b60008151808452815b81811015612a8b57602081850181015186830182015201612a6f565b81811115612a9c5782602083870101525b50601f01601f19169290920160200192915050565b6000808354600180821660008114612ad05760018114612ae757612b16565b60ff198316865260028304607f1686019350612b16565b600283048786526020808720875b83811015612b0e5781548a820152908501908201612af5565b505050860193505b509195945050505050565b6001600160a01b0391909116815260200190565b6001600160a01b0392831681529116602082015260400190565b6001600160a01b0397881681526020810196909652604086019490945260608501929092526080840152831660a083015290911660c082015260e00190565b6001600160a01b03998a1681526020810198909852604088019690965260608701949094526080860192909252851660a0850152841660c084015290921660e08201526101008101919091526101200190565b901515815260200190565b6000602082526124d46020830184612a66565b600060e08252612c1260e083018a612a66565b60208301989098525060ff95861660408201526001600160a01b0394851660608201529285166080840152921660a0820152911660c090910152919050565b6020808252601e908201527f204164647265737320616c72656164792041646d696e6973747261746f720000604082015260600190565b60208082526026908201527f4f776e61626c653a206e6577206f776e657220697320746865207a65726f206160408201526564647265737360d01b606082015260800190565b6020808252601b908201527f536166654d6174683a206164646974696f6e206f766572666c6f770000000000604082015260600190565b6020808252601490820152737061697220646f6573206e6f742065786973747360601b604082015260600190565b60208082526016908201527543616c6c65722062616c616e636520746f6f206c6f7760501b604082015260600190565b6020808252600d908201526c4e6f7420616e2041646d696e2160981b604082015260600190565b60208082526019908201527f436865636b2074686520746f6b656e20616c6c6f77616e636500000000000000604082015260600190565b60208082526017908201527f506c656173652073656e64206d6f726520657468657273000000000000000000604082015260600190565b6020808252601390820152721859191c995cdcc81b9bdd08185b1b1bddd959606a1b604082015260600190565b60208082526021908201527f536166654d6174683a206d756c7469706c69636174696f6e206f766572666c6f6040820152607760f81b606082015260800190565b6020808252818101527f4f776e61626c653a2063616c6c6572206973206e6f7420746865206f776e6572604082015260600190565b6020808252601490820152734e6f7420612076616c696420616464726573732160601b604082015260600190565b60208082526026908201527f6e65772061646472657373206973207468652073616d6520617320746865206f6040820152656c64206f6e6560d01b606082015260800190565b6020808252601a908201527f53656e6465722061646472657373206e6f7420616c6c6f776564000000000000604082015260600190565b600060e082019050825182526020830151602083015260408301516040830152606083015160608301526080830151608083015260a083015160a083015260c083015160c083015292915050565b600061012082019050825182526020830151602083015260408301516040830152606083015160608301526080830151608083015260a083015160a083015260018060a01b0360c08401511660c083015260e0830151612ff760e0840182612a59565b506101008084015161300b82850182612a59565b505092915050565b90815260200190565b9182526001600160a01b0316602082015260400190565b988952602089019790975260408801959095526060870193909352608086019190915260a08501526001600160a01b0390811660c085015290811660e0840152166101008201526101200190565b968752602087019590955260408601939093526060850191909152608084015260a083015260c082015260e00190565b91825260ff16602082015260400190565b60ff91909116815260200190565b60ff92831681529116602082015260400190565b6001600160a01b0381168114610b8357600080fdfea26469706673582212204fc72a771bf7d2d367306a71b41312ba0dcf027e269f0018a4a9b1891898359564736f6c634300060b0033",
  "immutableReferences": {},
  "source": "// SPDX-License-Identifier: MIT\n\npragma solidity ^0.6.11;\npragma experimental ABIEncoderV2;\n\nimport \"@openzeppelin/contracts/math/SafeMath.sol\";\nimport \"@openzeppelin/contracts/access/Ownable.sol\";\nimport \"@openzeppelin/contracts/token/ERC20/IERC20.sol\";\nimport \"./IJLoanCommons.sol\";\nimport \"./IJLoanEthDeployer.sol\";\nimport \"./IJLoanTokenDeployer.sol\";\n\ncontract JFactory is Ownable, IJLoanCommons { \n    using SafeMath for uint256;\n\n    address public constant ZERO_ADDRESS = 0x0000000000000000000000000000000000000000;\n\n    IJLoanEthDeployer public ethDeplContract;\n    IJLoanTokenDeployer public tokenDeplContract;\n\n    uint public loanID;\n    mapping(uint => address) internal deployedLoans;\n\n    mapping (address => bool) private _Admins;\n \n    struct Pair {\n        string pairName;\n        uint pairValue;\n        uint8 pairDecimals;\n        address baseAddress;\n        uint8 baseDecimals;\n        address quoteAddress;\n        uint8 quoteDecimals;\n    }\n    mapping(uint => Pair) public pairs;\n    uint public pairCounter;\n\n    //mapping(uint => address) public tokenContractAddresses;\n    uint public contractCounter;\n\n    params public generalParams;\n    feesParams public generalFees;\n\n    uint public factoryDeployBlock;\n    uint public lastDepositBlock;\n\n    event NewPair(uint indexed _pairId, string _pairName);\n    event NewPrice(uint indexed pairId, string indexed pairName, uint pairValue, uint8 pairDecimals);\n    event NewPairDecimals(uint indexed pairId, string indexed pairName, uint8 baseDecimals, uint8 quoteDecimals);\n    event NewPairAddresses(uint indexed pairId, string indexed pairName, address baseAddress , address quoteAddress);\n    event AdminAdded(uint blockNumber);\n    event AdminRemoved(uint blockNumber);\n    event NewEthLoanCreated(\n        uint indexed loanId,\n        address indexed sender,\n        address indexed newLoan,\n        uint value,\n        address collateralTokenAddress\n    );\n    event NewTokenLoanCreated(\n        uint indexed loanId,\n        address indexed sender,\n        address indexed newLoan,\n         address collateralTokenAddress\n    );\n    \n    constructor (address _ethDepl, address _tokenDepl) public {\n        generalParams.earlySettlementWindow = 540000;\n        generalParams.foreclosureWindow = 18000;\n        generalParams.requiredCollateralRatio = 200;\n        generalParams.foreclosingRatio = 150;\n        generalParams.instantForeclosureRatio = 120;\n        generalParams.minRpbRate = (10 ** 9); //0.000000001 in eth an all tokens with 18 decimals\n        generalParams.ethDeployerAddress = _ethDepl;\n        generalParams.tokenDeployerAddress = _tokenDepl;\n        ethDeplContract = IJLoanEthDeployer(_ethDepl);\n        tokenDeplContract = IJLoanTokenDeployer(_tokenDepl);\n        generalParams.factoryAddress = address(this);\n        generalFees.factoryFees = 5;\n        generalFees.earlySettlementFee = 1080000; \n        generalFees.userRewardShare = 80;\n        generalFees.vaultShare = 20;\n        generalFees.undercollateralizedForeclosingMultiple = 1000;\n        generalFees.atRiskForeclosedMultiple = 3000;\n        generalFees.cancellationFees = 3;\n        pairCounter = 0;\n        loanID = 0;\n        _Admins[msg.sender] = true;\n        factoryDeployBlock = block.number;\n    }\n\n    /* Modifiers */\n    modifier onlyAdmins() {\n        require(isAdmin(msg.sender), \"Not an Admin!\");\n        _;\n    }\n\n    /*   Admins Roles Mngmt  */\n    function _addAdmin(address account) internal {\n        _Admins[account] = true;\n        emit AdminAdded(block.number);\n    }\n\n    function _removeAdmin(address account) internal {\n        _Admins[account] = false;\n        emit AdminRemoved(block.number);\n    }\n\n    function isAdmin(address account) public view returns (bool) {\n        return _Admins[account];\n    }\n\n    function addAdmin(address account) external onlyAdmins {\n        require(account != address(0), \"Not a valid address!\");\n        require(!isAdmin(account), \" Address already Administrator\");\n        _addAdmin(account);\n    }\n\n    function removeAdmin(address account) external onlyAdmins {\n        _removeAdmin(account);\n    }\n\n    function renounceAdmin() external onlyAdmins {\n        _removeAdmin(msg.sender);\n    }\n\n\n    /**\n    * @dev set a new address for ETH deployer contract\n    * @param _ethDepl new address\n    */\n    function setEthDeployerAddress(address _ethDepl) external onlyOwner {\n        require(_ethDepl != address(0), \"address not allowed\");\n        require(_ethDepl != generalParams.ethDeployerAddress, \"new address is the same as the old one\");\n        generalParams.ethDeployerAddress = _ethDepl;\n        ethDeplContract = IJLoanEthDeployer(_ethDepl);\n    }\n\n    /**\n    * @dev set a new address for token deployer contract\n    * @param _tokenDepl new address\n    */\n    function setTokenDeployerAddress(address _tokenDepl) external onlyOwner {\n        require(_tokenDepl != address(0), \"address not allowed\");\n        require(_tokenDepl != generalParams.tokenDeployerAddress, \"new address is the same as the old one\");\n        generalParams.tokenDeployerAddress = _tokenDepl;\n        tokenDeplContract = IJLoanTokenDeployer(_tokenDepl);\n    }\n\n    /**\n    * @dev set a new pair\n    * @param _pairName string describing the pair (i.e. ETHDAI)\n    * @param _price price of the pair\n    * @param _pairDecimals number of decimals for pair\n    */\n    function setNewPair(string memory _pairName, uint _price, uint8 _pairDecimals, \n                address _baseAddress, uint8 _baseDecimals, address _quoteAddress, uint8 _quoteDecimals) public onlyAdmins {\n        // eth vs stable coin expressed in 6 or more decimals\n        require(pairCounter >= 0, \"Pairs counter not ok, please set to a valid value!\");\n        pairs[pairCounter] = Pair({pairName: _pairName, pairValue: _price, pairDecimals: _pairDecimals, \n                baseAddress: _baseAddress, baseDecimals: _baseDecimals, quoteAddress: _quoteAddress, quoteDecimals: _quoteDecimals});\n        emit NewPair(pairCounter, _pairName);\n        pairCounter = pairCounter.add(1);\n    }\n\n    /**\n    * @dev set a price for the specified pair\n    * @param _pairId number of the pair\n    * @param _price price of the pair\n    * @param _pairDecimals number of decimals for pair\n    */\n    function setPairValue(uint _pairId, uint _price, uint8 _pairDecimals) public onlyAdmins {\n        // eth vs stable coin expressed in 6 or more decimals\n        require(_pairId <= pairCounter, \"pair does not exists\");\n        pairs[_pairId].pairValue = _price;\n        pairs[_pairId].pairDecimals = _pairDecimals;\n        emit NewPrice(_pairId, pairs[_pairId].pairName, pairs[_pairId].pairValue, pairs[_pairId].pairDecimals);\n    }\n\n    /**\n    * @dev set a base and quote decimals for the specified pair\n    * @param _pairId number of the pair\n    * @param _baseAddress base address of the pair\n    * @param _quoteAddress quote address for pair\n    */\n    function setBaseQuoteAddresses(uint _pairId, address _baseAddress, address _quoteAddress) public onlyOwner {\n        // eth vs stable coin expressed in 6 or more decimals\n        require(_pairId <= pairCounter, \"pair does not exists\");\n        pairs[_pairId].baseAddress = _baseAddress;\n        pairs[_pairId].quoteAddress = _quoteAddress;\n        emit NewPairAddresses(_pairId, pairs[_pairId].pairName, pairs[_pairId].baseAddress, pairs[_pairId].quoteAddress);\n    }\n\n    /**\n    * @dev set a base and quote decimals for the specified pair\n    * @param _pairId number of the pair\n    * @param _baseDecimals base decimals of the pair\n    * @param _quoteDecimals quote decimals for pair\n    */\n    function setBaseQuoteDecimals(uint _pairId, uint8 _baseDecimals, uint8 _quoteDecimals) public onlyOwner {\n        // eth vs stable coin expressed in 6 or more decimals\n        require(_pairId <= pairCounter, \"pair does not exists\");\n        pairs[_pairId].baseDecimals = _baseDecimals;\n        pairs[_pairId].quoteDecimals = _quoteDecimals;\n        emit NewPairDecimals(_pairId, pairs[_pairId].pairName, pairs[_pairId].baseDecimals, pairs[_pairId].quoteDecimals);\n    }\n\n    /**\n    * @dev get a pair price\n    * @param _pairId number of the pair\n    * @return price of the pair\n    */\n    function getPairValue(uint _pairId) public view returns (uint) {\n        // eth vs stable coin expressed in 6 or more decimals\n        require(_pairId <= pairCounter, \"pair does not exists\");\n        return pairs[_pairId].pairValue;\n    }\n\n    /**\n    * @dev get a pair name\n    * @param _pairId number of the pair\n    * @return name of the pair\n    */\n    function getPairName(uint _pairId) external view returns (string memory) {\n        require(_pairId <= pairCounter, \"pair does not exists\");\n        return pairs[_pairId].pairName;\n    }\n\n    /**\n    * @dev get a pair decimals\n    * @param _pairId number of the pair\n    * @return decimals of the pair\n    */\n    function getPairDecimals(uint _pairId) external view returns (uint8) {\n        // eth vs stable coin expressed in 6 or more decimals\n        require(_pairId <= pairCounter, \"pair does not exists\");\n        return pairs[_pairId].pairDecimals;\n    }\n\n    /**\n    * @dev get a pair base decimals\n    * @param _pairId number of the pair\n    * @return number of base currency decimals\n    */\n    function getPairBaseDecimals(uint _pairId) external view returns (uint8) {\n        require(_pairId <= pairCounter, \"pair does not exists\");\n        return pairs[_pairId].baseDecimals;\n    }\n\n    /**\n    * @dev get a pair quote decimals\n    * @param _pairId number of the pair\n    * @return number of quote currency decimals\n    */\n    function getPairQuoteDecimals(uint _pairId) external view returns (uint8) {\n        require(_pairId <= pairCounter, \"pair does not exists\");\n        return pairs[_pairId].quoteDecimals;\n    }\n\n    /**\n    * @dev math round up\n    * @param numerator numerator\n    * @param denominator denominator\n    * @param precision precision\n    * @return number of quote currency decimals\n    */\n    function roundUp(uint numerator, uint denominator, uint precision) public pure returns (uint) {\n         // caution, check safe-to-multiply here\n        uint _numerator  = numerator.mul(10 ** (precision.add(1)));\n        // with rounding of last digit\n        uint _quotient =  ((_numerator.div(denominator)).add(5)).div(10);\n        return _quotient;\n    }\n    \n    /**\n    * @dev math round down\n    * @param numerator numerator\n    * @param denominator denominator\n    * @param precision precision\n    * @return number of quote currency decimals\n    */\n    function roundDn(uint numerator, uint denominator, uint precision) public pure returns (uint) {\n         // caution, check safe-to-multiply here\n        uint _numerator  = numerator.mul(10 ** (precision.add(1)));\n        // with rounding of last digit\n        uint _quotient =  ((_numerator.div(denominator)).sub(5)).div(10);\n        return _quotient;\n    }\n\n    /**\n    * @dev calculate fees on collateral amount\n    * @param _collAmount collateral amount\n    * @return amount of collateral fees\n    */\n    function calculateCollFeesOnActivation(uint _collAmount) public view returns (uint) {\n        return roundUp(_collAmount.mul(generalFees.factoryFees), 1000, 0);\n    }\n\n    /**\n    * @dev get the amount of collateral needed to have stable coin amount (no fees)\n    * @param _pairId number of the pair\n    * @param _askAmount amount in stable coin the borrower would like to receive\n    * @return amount of collateral the borrower needs to send\n    */\n    function calcMinCollateralAmount(uint _pairId, uint _askAmount) public view returns (uint) {\n        // i.e. eth / dai price, let's say 347.85, for every ETH can ask 347.85 / 2 = 173.925 dai\n        // NB: amount and price expressed with same number of decimals\n        uint price = getPairValue(_pairId);\n        uint minCollEthAmount = roundUp(_askAmount.mul(generalParams.requiredCollateralRatio).div(100).mul(10**uint(pairs[_pairId].pairDecimals)), price, 0);\n        if (pairs[_pairId].baseDecimals >= pairs[_pairId].quoteDecimals) {\n            uint diffBaseQuoteDecimals = uint(pairs[_pairId].baseDecimals).sub(uint(pairs[_pairId].quoteDecimals));\n            minCollEthAmount = minCollEthAmount.mul(10 ** diffBaseQuoteDecimals).add(5); //add 5 to be sure evrything is ok\n        } else {\n            uint diffBaseQuoteDecimals = uint(pairs[_pairId].quoteDecimals).sub(uint(pairs[_pairId].baseDecimals));\n            minCollEthAmount = minCollEthAmount.div(10 ** diffBaseQuoteDecimals).add(5); //add 5 to be sure evrything is ok\n        }\n        return minCollEthAmount;\n    }\n\n    /**\n    * @dev get the amount of collateral needed to have stable coin amount, with fees\n    * @param _pairId number of the pair\n    * @param _askAmount amount in stable coin the borrower would like to receive\n    * @return amount of collateral the borrower needs to send\n    */\n    function calcMinCollateralWithFeesAmount(uint _pairId, uint _askAmount) public view returns (uint) {\n        // i.e. eth / dai price, let's say 347.85, for every ETH can ask 347.85 / 2 = 173.925 dai\n        // NB: amount and price expressed with same number of decimals\n        uint price = getPairValue(_pairId);\n        uint minCollEthAmount = roundUp(_askAmount.mul(generalParams.requiredCollateralRatio).div(100).mul(10**uint(pairs[_pairId].pairDecimals)), price, 0);\n        uint feesCollAmount = calculateCollFeesOnActivation(minCollEthAmount);\n        uint totalCollAmountWithFees = minCollEthAmount.add(feesCollAmount); \n        if (pairs[_pairId].baseDecimals >= pairs[_pairId].quoteDecimals) {\n            uint diffBaseQuoteDecimals = uint(pairs[_pairId].baseDecimals).sub(uint(pairs[_pairId].quoteDecimals));\n            totalCollAmountWithFees = totalCollAmountWithFees.mul(10 ** diffBaseQuoteDecimals).add(5); //add 5 to be sure evrything is ok\n        } else {\n            uint diffBaseQuoteDecimals = uint(pairs[_pairId].quoteDecimals).sub(uint(pairs[_pairId].baseDecimals));\n            totalCollAmountWithFees = totalCollAmountWithFees.div(10 ** diffBaseQuoteDecimals).add(5); //add 5 to be sure evrything is ok\n        }\n        return totalCollAmountWithFees;\n    }\n\n    /**\n    * @dev get the amount of stable coin that a borrower could receive in front of a collateral amount (no fees)\n    * @param _pairId number of the pair\n    * @param _collAmount amount in collateral unit the borrower could receive with that aount of collateral\n    * @return amount of stable coins the borrower could receive\n    */\n    function calcMaxStableCoinAmount(uint _pairId, uint _collAmount) public view returns (uint) {\n        // i.e. eth / dai price, let's say 347.85, for every ETH can ask 347.85 / 2 = 173.925 dai\n        // NB: amount and price expressed with same number of decimals\n        uint price = getPairValue(_pairId);\n        uint askAmount = roundDn(_collAmount.div(generalParams.requiredCollateralRatio).mul(100).mul(price), 10 ** uint(pairs[_pairId].pairDecimals), 0);\n        if (pairs[_pairId].baseDecimals >= pairs[_pairId].quoteDecimals) {\n            uint diffBaseQuoteDecimals = uint(pairs[_pairId].baseDecimals).sub(uint(pairs[_pairId].quoteDecimals));\n            askAmount = askAmount.div(10 ** diffBaseQuoteDecimals).sub(1); //subtract 1 to be sure evrything is ok\n        } else {\n            uint diffBaseQuoteDecimals = uint(pairs[_pairId].quoteDecimals).sub(uint(pairs[_pairId].baseDecimals));\n            askAmount = askAmount.mul(10 ** diffBaseQuoteDecimals).sub(1); //subtract 1 to be sure evrything is ok\n        }\n        return askAmount;\n    }\n\n    /**\n    * @dev get the amount of stable coin that a borrower could receive in front of a collateral amount\n    * @param _pairId number of the pair\n    * @param _collAmount amount in collateral unit the borrower could receive with that aount of collateral\n    * @return amount of stable coins the borrower could receive\n    */\n    function calcMaxStableCoinWithFeesAmount(uint _pairId, uint _collAmount) public view returns (uint) {\n        // i.e. eth / dai price, let's say 347.85, for every ETH can ask 347.85 / 2 = 173.925 dai\n        // NB: amount and price expressed with same number of decimals\n        uint price = getPairValue(_pairId);\n        uint feesCollAmount = calculateCollFeesOnActivation(_collAmount);  // fees amount\n        uint collFeesDeducted = _collAmount.sub(feesCollAmount);  // available amount after fees deduction\n        uint collAvailable = roundDn(collFeesDeducted.div(generalParams.requiredCollateralRatio).mul(100).mul(price), 10 ** uint(pairs[_pairId].pairDecimals), 0);\n        uint askAmountWithFees = collAvailable.sub(feesCollAmount);\n        if (pairs[_pairId].baseDecimals >= pairs[_pairId].quoteDecimals) {\n            uint diffBaseQuoteDecimals = uint(pairs[_pairId].baseDecimals).sub(uint(pairs[_pairId].quoteDecimals));\n            askAmountWithFees = askAmountWithFees.div(10 ** diffBaseQuoteDecimals).sub(1); //subtract 1 to be sure evrything is ok\n        } else {\n            uint diffBaseQuoteDecimals = uint(pairs[_pairId].quoteDecimals).sub(uint(pairs[_pairId].baseDecimals));\n            askAmountWithFees = askAmountWithFees.mul(10 ** diffBaseQuoteDecimals).sub(1); //subtract 1 to be sure evrything is ok\n        }\n        return askAmountWithFees;\n    }\n\n    /**\n    * @dev set params\n    * @param _value set new param\n    */\n    function setEarlySettlementWindow (uint _value) external onlyOwner {\n        generalParams.earlySettlementWindow = _value;\n    }\n\n    /**\n    * @dev set params\n    * @param _value set new param\n    */\n    function setForeclosureWindow (uint _value) external onlyOwner {\n        generalParams.foreclosureWindow = _value;\n    }\n\n    function setForeclosureRatio(uint _value) external onlyOwner {\n        generalParams.foreclosingRatio = _value;\n    }\n\n    /**\n    * @dev set params\n    * @param _value set new param\n    */\n    function setInstantForeclosureRatio (uint _value) external onlyOwner {\n        generalParams.instantForeclosureRatio = _value;\n    }\n\n    /**\n    * @dev set params\n    * @param _value set new param\n    */\n    function setMinRpbRate (uint _value) external onlyOwner {\n        generalParams.minRpbRate = _value;\n    }\n\n    /**\n    * @dev set params\n    * @param _value set new param\n    */\n    function setRequiredCollateralRatio (uint _value) external onlyOwner {\n        generalParams.requiredCollateralRatio = _value;\n    }\n\n    /**\n    * @dev set params\n    * @param _value set new param\n    */\n    function setFactoryFees (uint _value) external onlyOwner {\n        generalFees.factoryFees = _value;\n    }\n\n    /**\n    * @dev set params\n    * @param _value set new param\n    */\n    function setEarlySettlementFee (uint _value) external onlyOwner {\n        generalFees.earlySettlementFee = _value;\n    }\n\n    /**\n    * @dev set params\n    * @param _value set new param\n    */\n    function setUserRewardShare (uint _value) external onlyOwner {\n        generalFees.userRewardShare = _value;\n    }\n\n    /**\n    * @dev set params\n    * @param _value set new param\n    */\n    function setVaultShares (uint _value) external onlyOwner {\n        generalFees.vaultShare = _value;\n    }\n\n    /**\n    * @dev set params\n    * @param _value set new param\n    */\n    function setUndercollateralizedForeclosingMultiple (uint _value) external onlyOwner {\n        generalFees.undercollateralizedForeclosingMultiple = _value;\n    }\n\n    /**\n    * @dev set params\n    * @param _value set new param\n    */\n    function setAtRiskForeclosedMultiple (uint _value) external onlyOwner {\n        generalFees.atRiskForeclosedMultiple = _value;\n    }\n\n    /**\n    * @dev set params\n    * @param _value set new param\n    */\n    function setCancellationFees (uint _value) external onlyOwner {\n        generalFees.cancellationFees = _value;\n    }\n \n    /**\n    * @dev get all general params\n    * @return param struct\n    */\n    function getGeneralParams() external view returns (params memory) {\n        return generalParams;\n    }\n\n    /**\n    * @dev get all general params\n    * @return param struct\n    */\n    function getGeneralFees() external view returns (feesParams memory) {\n        return generalFees;\n    }\n\n    /**\n    * @dev create a new loan with eth as collateraland set the address in the mapping\n    * @param _pairId number of the pair interested in the loan contract\n    * @param _borrowedAskAmount amount in stable coin the borrower would like to receive\n    * @param _rpbRate RPB rate the borrower will pay \n    * @return address of the new contract\n    */\n    function createNewEthLoan(uint _pairId, \n                uint _borrowedAskAmount, \n                uint _rpbRate) public payable returns (address) {\n        require(msg.sender!=address(0), \"Sender address not allowed\");\n        // in wei\n        uint minCollateralEth = calcMinCollateralWithFeesAmount(_pairId, _borrowedAskAmount);\n        require((msg.sender).balance >= minCollateralEth, \"Caller balance too low\");\n        require(msg.value >= minCollateralEth, \"Please send more ethers\");\n        address _quoteAddress = pairs[_pairId].quoteAddress;\n        address newEthLoan = ethDeplContract.deployNewEthLoanContract{value: msg.value}\n                    (msg.sender, loanID, _pairId, _borrowedAskAmount, _rpbRate, address(this), _quoteAddress);\n        deployedLoans[loanID] = newEthLoan;\n        emit NewEthLoanCreated(loanID, msg.sender, newEthLoan, msg.value, address(0));\n        loanID = loanID.add(1);\n        contractCounter = contractCounter.add(1);\n        return newEthLoan;\n    }\n\n    /**\n    * @dev create a new loan and set the address in the mapping\n    * @param _pairId number of the pair interested in the loan contract\n    * @param _borrowedAskAmount amount in stable coin the borrower would like to receive\n    * @param _rpbRate RPB rate the borrower will pay \n    * @return address of the new contract\n    */\n    function createNewTokenLoan(uint _pairId, \n                uint _borrowedAskAmount, \n                uint _rpbRate) public returns (address) {\n        require(msg.sender!=address(0), \"Sender address not allowed\");\n        // in wei\n        uint totalCollateralTokens = calcMinCollateralWithFeesAmount(_pairId, _borrowedAskAmount);\n        require(IERC20(pairs[_pairId].baseAddress).balanceOf(msg.sender) >= totalCollateralTokens, \"Caller balance too low\");\n        uint256 allowance = IERC20(pairs[_pairId].baseAddress).allowance(msg.sender, generalParams.tokenDeployerAddress);  //check the allowance on the deployer\n        require(allowance >= totalCollateralTokens, \"Check the token allowance\");\n        uint contractCollateralAmount = calcMinCollateralWithFeesAmount(_pairId, _borrowedAskAmount);\n        address _baseAddress = pairs[_pairId].baseAddress;\n        address _quoteAddress = pairs[_pairId].quoteAddress;\n        address newTokenLoan = tokenDeplContract.deployNewTokenLoanContract(msg.sender, loanID, _pairId, _borrowedAskAmount, _rpbRate, \n                    address(this), _baseAddress, _quoteAddress, contractCollateralAmount);\n        deployedLoans[loanID] = newTokenLoan;\n        emit NewTokenLoanCreated(loanID, msg.sender, newTokenLoan, _baseAddress);\n        loanID = loanID.add(1);\n        contractCounter = contractCounter.add(1);\n        return newTokenLoan;\n    }\n\n\n    /**\n    * @dev get all deployers addresses\n    * @return addresses of the deployer\n    */\n    function getEnvironmentDeployers() external view returns(address, address) {\n        return (address(ethDeplContract), address(tokenDeplContract));\n    }\n\n    /**\n    * @dev get a single loan address deployed by the factory\n    * @return loan contract address\n    */\n    function getDeployedLoan(uint _idx) external view returns (address) {\n        return deployedLoans[_idx];\n    }\n    \n}\n\n",
  "sourcePath": "C:/Users/saurabh/code/Jibrel/defi-smartcontracts/LoansFactoryV2/contracts/JFactory.sol",
  "compiler": {
    "name": "solc",
    "version": "0.6.11+commit.5ef660b1.Emscripten.clang"
  },
  "schemaVersion": "3.2.5",
  "updatedAt": "2020-10-13T18:16:22.744Z",
  "networkType": "ethereum",
  "devdoc": {
    "kind": "dev",
    "methods": {
      "calcMaxStableCoinAmount(uint256,uint256)": {
        "details": "get the amount of stable coin that a borrower could receive in front of a collateral amount (no fees)",
        "params": {
          "_collAmount": "amount in collateral unit the borrower could receive with that aount of collateral",
          "_pairId": "number of the pair"
        },
        "returns": {
          "_0": "amount of stable coins the borrower could receive"
        }
      },
      "calcMaxStableCoinWithFeesAmount(uint256,uint256)": {
        "details": "get the amount of stable coin that a borrower could receive in front of a collateral amount",
        "params": {
          "_collAmount": "amount in collateral unit the borrower could receive with that aount of collateral",
          "_pairId": "number of the pair"
        },
        "returns": {
          "_0": "amount of stable coins the borrower could receive"
        }
      },
      "calcMinCollateralAmount(uint256,uint256)": {
        "details": "get the amount of collateral needed to have stable coin amount (no fees)",
        "params": {
          "_askAmount": "amount in stable coin the borrower would like to receive",
          "_pairId": "number of the pair"
        },
        "returns": {
          "_0": "amount of collateral the borrower needs to send"
        }
      },
      "calcMinCollateralWithFeesAmount(uint256,uint256)": {
        "details": "get the amount of collateral needed to have stable coin amount, with fees",
        "params": {
          "_askAmount": "amount in stable coin the borrower would like to receive",
          "_pairId": "number of the pair"
        },
        "returns": {
          "_0": "amount of collateral the borrower needs to send"
        }
      },
      "calculateCollFeesOnActivation(uint256)": {
        "details": "calculate fees on collateral amount",
        "params": {
          "_collAmount": "collateral amount"
        },
        "returns": {
          "_0": "amount of collateral fees"
        }
      },
      "createNewEthLoan(uint256,uint256,uint256)": {
        "details": "create a new loan with eth as collateraland set the address in the mapping",
        "params": {
          "_borrowedAskAmount": "amount in stable coin the borrower would like to receive",
          "_pairId": "number of the pair interested in the loan contract",
          "_rpbRate": "RPB rate the borrower will pay "
        },
        "returns": {
          "_0": "address of the new contract"
        }
      },
      "createNewTokenLoan(uint256,uint256,uint256)": {
        "details": "create a new loan and set the address in the mapping",
        "params": {
          "_borrowedAskAmount": "amount in stable coin the borrower would like to receive",
          "_pairId": "number of the pair interested in the loan contract",
          "_rpbRate": "RPB rate the borrower will pay "
        },
        "returns": {
          "_0": "address of the new contract"
        }
      },
      "getDeployedLoan(uint256)": {
        "details": "get a single loan address deployed by the factory",
        "returns": {
          "_0": "loan contract address"
        }
      },
      "getEnvironmentDeployers()": {
        "details": "get all deployers addresses",
        "returns": {
          "_0": "addresses of the deployer"
        }
      },
      "getGeneralFees()": {
        "details": "get all general params",
        "returns": {
          "_0": "param struct"
        }
      },
      "getGeneralParams()": {
        "details": "get all general params",
        "returns": {
          "_0": "param struct"
        }
      },
      "getPairBaseDecimals(uint256)": {
        "details": "get a pair base decimals",
        "params": {
          "_pairId": "number of the pair"
        },
        "returns": {
          "_0": "number of base currency decimals"
        }
      },
      "getPairDecimals(uint256)": {
        "details": "get a pair decimals",
        "params": {
          "_pairId": "number of the pair"
        },
        "returns": {
          "_0": "decimals of the pair"
        }
      },
      "getPairName(uint256)": {
        "details": "get a pair name",
        "params": {
          "_pairId": "number of the pair"
        },
        "returns": {
          "_0": "name of the pair"
        }
      },
      "getPairQuoteDecimals(uint256)": {
        "details": "get a pair quote decimals",
        "params": {
          "_pairId": "number of the pair"
        },
        "returns": {
          "_0": "number of quote currency decimals"
        }
      },
      "getPairValue(uint256)": {
        "details": "get a pair price",
        "params": {
          "_pairId": "number of the pair"
        },
        "returns": {
          "_0": "price of the pair"
        }
      },
      "owner()": {
        "details": "Returns the address of the current owner."
      },
      "renounceOwnership()": {
        "details": "Leaves the contract without owner. It will not be possible to call `onlyOwner` functions anymore. Can only be called by the current owner. NOTE: Renouncing ownership will leave the contract without an owner, thereby removing any functionality that is only available to the owner."
      },
      "roundDn(uint256,uint256,uint256)": {
        "details": "math round down",
        "params": {
          "denominator": "denominator",
          "numerator": "numerator",
          "precision": "precision"
        },
        "returns": {
          "_0": "number of quote currency decimals"
        }
      },
      "roundUp(uint256,uint256,uint256)": {
        "details": "math round up",
        "params": {
          "denominator": "denominator",
          "numerator": "numerator",
          "precision": "precision"
        },
        "returns": {
          "_0": "number of quote currency decimals"
        }
      },
      "setAtRiskForeclosedMultiple(uint256)": {
        "details": "set params",
        "params": {
          "_value": "set new param"
        }
      },
      "setBaseQuoteAddresses(uint256,address,address)": {
        "details": "set a base and quote decimals for the specified pair",
        "params": {
          "_baseAddress": "base address of the pair",
          "_pairId": "number of the pair",
          "_quoteAddress": "quote address for pair"
        }
      },
      "setBaseQuoteDecimals(uint256,uint8,uint8)": {
        "details": "set a base and quote decimals for the specified pair",
        "params": {
          "_baseDecimals": "base decimals of the pair",
          "_pairId": "number of the pair",
          "_quoteDecimals": "quote decimals for pair"
        }
      },
      "setCancellationFees(uint256)": {
        "details": "set params",
        "params": {
          "_value": "set new param"
        }
      },
      "setEarlySettlementFee(uint256)": {
        "details": "set params",
        "params": {
          "_value": "set new param"
        }
      },
      "setEarlySettlementWindow(uint256)": {
        "details": "set params",
        "params": {
          "_value": "set new param"
        }
      },
      "setEthDeployerAddress(address)": {
        "details": "set a new address for ETH deployer contract",
        "params": {
          "_ethDepl": "new address"
        }
      },
      "setFactoryFees(uint256)": {
        "details": "set params",
        "params": {
          "_value": "set new param"
        }
      },
      "setForeclosureWindow(uint256)": {
        "details": "set params",
        "params": {
          "_value": "set new param"
        }
      },
      "setInstantForeclosureRatio(uint256)": {
        "details": "set params",
        "params": {
          "_value": "set new param"
        }
      },
      "setMinRpbRate(uint256)": {
        "details": "set params",
        "params": {
          "_value": "set new param"
        }
      },
      "setNewPair(string,uint256,uint8,address,uint8,address,uint8)": {
        "details": "set a new pair",
        "params": {
          "_pairDecimals": "number of decimals for pair",
          "_pairName": "string describing the pair (i.e. ETHDAI)",
          "_price": "price of the pair"
        }
      },
      "setPairValue(uint256,uint256,uint8)": {
        "details": "set a price for the specified pair",
        "params": {
          "_pairDecimals": "number of decimals for pair",
          "_pairId": "number of the pair",
          "_price": "price of the pair"
        }
      },
      "setRequiredCollateralRatio(uint256)": {
        "details": "set params",
        "params": {
          "_value": "set new param"
        }
      },
      "setTokenDeployerAddress(address)": {
        "details": "set a new address for token deployer contract",
        "params": {
          "_tokenDepl": "new address"
        }
      },
      "setUndercollateralizedForeclosingMultiple(uint256)": {
        "details": "set params",
        "params": {
          "_value": "set new param"
        }
      },
      "setUserRewardShare(uint256)": {
        "details": "set params",
        "params": {
          "_value": "set new param"
        }
      },
      "setVaultShares(uint256)": {
        "details": "set params",
        "params": {
          "_value": "set new param"
        }
      },
      "transferOwnership(address)": {
        "details": "Transfers ownership of the contract to a new account (`newOwner`). Can only be called by the current owner."
      }
    },
    "version": 1
  },
  "userdoc": {
    "kind": "user",
    "methods": {},
    "version": 1
  }
}