{
  "contractName": "JFactory",
  "abi": [
    {
      "inputs": [
        {
          "internalType": "address",
          "name": "_pairLoanDepl",
          "type": "address"
        },
        {
          "internalType": "address",
          "name": "_priceOracle",
          "type": "address"
        }
      ],
      "stateMutability": "nonpayable",
      "type": "constructor"
    },
    {
      "anonymous": false,
      "inputs": [
        {
          "indexed": false,
          "internalType": "address",
          "name": "account",
          "type": "address"
        }
      ],
      "name": "AdminAdded",
      "type": "event"
    },
    {
      "anonymous": false,
      "inputs": [
        {
          "indexed": false,
          "internalType": "address",
          "name": "account",
          "type": "address"
        }
      ],
      "name": "AdminRemoved",
      "type": "event"
    },
    {
      "anonymous": false,
      "inputs": [
        {
          "indexed": true,
          "internalType": "uint256",
          "name": "pairId",
          "type": "uint256"
        },
        {
          "indexed": true,
          "internalType": "address",
          "name": "newLoan",
          "type": "address"
        },
        {
          "indexed": false,
          "internalType": "string",
          "name": "pairName",
          "type": "string"
        }
      ],
      "name": "NewPairLoanCreated",
      "type": "event"
    },
    {
      "anonymous": false,
      "inputs": [
        {
          "indexed": true,
          "internalType": "address",
          "name": "previousOwner",
          "type": "address"
        },
        {
          "indexed": true,
          "internalType": "address",
          "name": "newOwner",
          "type": "address"
        }
      ],
      "name": "OwnershipTransferred",
      "type": "event"
    },
    {
      "anonymous": false,
      "inputs": [
        {
          "indexed": false,
          "internalType": "uint256",
          "name": "idx",
          "type": "uint256"
        },
        {
          "indexed": false,
          "internalType": "uint256",
          "name": "loanId",
          "type": "uint256"
        },
        {
          "indexed": false,
          "internalType": "uint256",
          "name": "oldStatus",
          "type": "uint256"
        },
        {
          "indexed": false,
          "internalType": "uint256",
          "name": "newStatus",
          "type": "uint256"
        }
      ],
      "name": "SetNewStatus",
      "type": "event"
    },
    {
      "inputs": [],
      "name": "factoryDeployBlock",
      "outputs": [
        {
          "internalType": "uint256",
          "name": "",
          "type": "uint256"
        }
      ],
      "stateMutability": "view",
      "type": "function",
      "constant": true
    },
    {
      "inputs": [],
      "name": "generalFees",
      "outputs": [
        {
          "internalType": "uint256",
          "name": "earlySettlementFee",
          "type": "uint256"
        },
        {
          "internalType": "uint8",
          "name": "factoryFees",
          "type": "uint8"
        },
        {
          "internalType": "uint8",
          "name": "userRewardShare",
          "type": "uint8"
        },
        {
          "internalType": "uint8",
          "name": "vaultRewardShare",
          "type": "uint8"
        },
        {
          "internalType": "uint8",
          "name": "cancellationFees",
          "type": "uint8"
        },
        {
          "internalType": "uint16",
          "name": "undercollateralizedForeclosingMultiple",
          "type": "uint16"
        },
        {
          "internalType": "uint16",
          "name": "atRiskForeclosedMultiple",
          "type": "uint16"
        }
      ],
      "stateMutability": "view",
      "type": "function",
      "constant": true
    },
    {
      "inputs": [],
      "name": "generalParams",
      "outputs": [
        {
          "internalType": "uint256",
          "name": "earlySettlementWindow",
          "type": "uint256"
        },
        {
          "internalType": "uint256",
          "name": "foreclosureWindow",
          "type": "uint256"
        },
        {
          "internalType": "uint8",
          "name": "requiredCollateralRatio",
          "type": "uint8"
        },
        {
          "internalType": "uint8",
          "name": "foreclosingRatio",
          "type": "uint8"
        },
        {
          "internalType": "uint8",
          "name": "instantForeclosureRatio",
          "type": "uint8"
        },
        {
          "internalType": "uint8",
          "name": "limitCollRatioForWithdraw",
          "type": "uint8"
        },
        {
          "internalType": "address",
          "name": "factoryAddress",
          "type": "address"
        },
        {
          "internalType": "address",
          "name": "pairLoanDeployerAddress",
          "type": "address"
        },
        {
          "internalType": "address",
          "name": "pairPriceOracleAddress",
          "type": "address"
        },
        {
          "internalType": "uint8",
          "name": "collDecimals",
          "type": "uint8"
        },
        {
          "internalType": "uint8",
          "name": "lendDecimals",
          "type": "uint8"
        },
        {
          "internalType": "uint256",
          "name": "pairId",
          "type": "uint256"
        }
      ],
      "stateMutability": "view",
      "type": "function",
      "constant": true
    },
    {
      "inputs": [],
      "name": "owner",
      "outputs": [
        {
          "internalType": "address",
          "name": "",
          "type": "address"
        }
      ],
      "stateMutability": "view",
      "type": "function",
      "constant": true
    },
    {
      "inputs": [],
      "name": "pairLoanDeplContract",
      "outputs": [
        {
          "internalType": "contract IJLoanDeployer",
          "name": "",
          "type": "address"
        }
      ],
      "stateMutability": "view",
      "type": "function",
      "constant": true
    },
    {
      "inputs": [],
      "name": "pairNumber",
      "outputs": [
        {
          "internalType": "uint256",
          "name": "",
          "type": "uint256"
        }
      ],
      "stateMutability": "view",
      "type": "function",
      "constant": true
    },
    {
      "inputs": [],
      "name": "priceOracleContract",
      "outputs": [
        {
          "internalType": "contract IJPriceOracle",
          "name": "",
          "type": "address"
        }
      ],
      "stateMutability": "view",
      "type": "function",
      "constant": true
    },
    {
      "inputs": [],
      "name": "renounceOwnership",
      "outputs": [],
      "stateMutability": "nonpayable",
      "type": "function"
    },
    {
      "inputs": [
        {
          "internalType": "address",
          "name": "newOwner",
          "type": "address"
        }
      ],
      "name": "transferOwnership",
      "outputs": [],
      "stateMutability": "nonpayable",
      "type": "function"
    },
    {
      "inputs": [
        {
          "internalType": "address",
          "name": "account",
          "type": "address"
        }
      ],
      "name": "isAdmin",
      "outputs": [
        {
          "internalType": "bool",
          "name": "",
          "type": "bool"
        }
      ],
      "stateMutability": "view",
      "type": "function",
      "constant": true
    },
    {
      "inputs": [
        {
          "internalType": "address",
          "name": "account",
          "type": "address"
        }
      ],
      "name": "addAdmin",
      "outputs": [],
      "stateMutability": "nonpayable",
      "type": "function"
    },
    {
      "inputs": [
        {
          "internalType": "address",
          "name": "account",
          "type": "address"
        }
      ],
      "name": "removeAdmin",
      "outputs": [],
      "stateMutability": "nonpayable",
      "type": "function"
    },
    {
      "inputs": [],
      "name": "renounceAdmin",
      "outputs": [],
      "stateMutability": "nonpayable",
      "type": "function"
    },
    {
      "inputs": [
        {
          "internalType": "address",
          "name": "_pairLoanDepl",
          "type": "address"
        }
      ],
      "name": "setPairLoanDeployerAddress",
      "outputs": [],
      "stateMutability": "nonpayable",
      "type": "function"
    },
    {
      "inputs": [
        {
          "internalType": "address",
          "name": "_priceOracle",
          "type": "address"
        }
      ],
      "name": "setPairPriceOracleAddress",
      "outputs": [],
      "stateMutability": "nonpayable",
      "type": "function"
    },
    {
      "inputs": [
        {
          "internalType": "uint256",
          "name": "_collAmount",
          "type": "uint256"
        }
      ],
      "name": "calculateCollFeesOnActivation",
      "outputs": [
        {
          "internalType": "uint256",
          "name": "",
          "type": "uint256"
        }
      ],
      "stateMutability": "view",
      "type": "function",
      "constant": true
    },
    {
      "inputs": [
        {
          "internalType": "uint256",
          "name": "_pairId",
          "type": "uint256"
        },
        {
          "internalType": "uint256",
          "name": "_askAmount",
          "type": "uint256"
        }
      ],
      "name": "calcMinCollateralAmount",
      "outputs": [
        {
          "internalType": "uint256",
          "name": "",
          "type": "uint256"
        }
      ],
      "stateMutability": "view",
      "type": "function",
      "constant": true
    },
    {
      "inputs": [
        {
          "internalType": "uint256",
          "name": "_pairId",
          "type": "uint256"
        },
        {
          "internalType": "uint256",
          "name": "_askAmount",
          "type": "uint256"
        }
      ],
      "name": "calcMinCollateralWithFeesAmount",
      "outputs": [
        {
          "internalType": "uint256",
          "name": "",
          "type": "uint256"
        }
      ],
      "stateMutability": "view",
      "type": "function",
      "constant": true
    },
    {
      "inputs": [
        {
          "internalType": "uint256",
          "name": "_value",
          "type": "uint256"
        }
      ],
      "name": "setEarlySettlementWindow",
      "outputs": [],
      "stateMutability": "nonpayable",
      "type": "function"
    },
    {
      "inputs": [
        {
          "internalType": "uint256",
          "name": "_value",
          "type": "uint256"
        }
      ],
      "name": "setForeclosureWindow",
      "outputs": [],
      "stateMutability": "nonpayable",
      "type": "function"
    },
    {
      "inputs": [
        {
          "internalType": "uint8",
          "name": "_value",
          "type": "uint8"
        }
      ],
      "name": "setForeclosureRatio",
      "outputs": [],
      "stateMutability": "nonpayable",
      "type": "function"
    },
    {
      "inputs": [
        {
          "internalType": "uint8",
          "name": "_value",
          "type": "uint8"
        }
      ],
      "name": "setInstantForeclosureRatio",
      "outputs": [],
      "stateMutability": "nonpayable",
      "type": "function"
    },
    {
      "inputs": [
        {
          "internalType": "uint8",
          "name": "_value",
          "type": "uint8"
        }
      ],
      "name": "setRequiredCollateralRatio",
      "outputs": [],
      "stateMutability": "nonpayable",
      "type": "function"
    },
    {
      "inputs": [
        {
          "internalType": "uint8",
          "name": "_value",
          "type": "uint8"
        }
      ],
      "name": "setFactoryFees",
      "outputs": [],
      "stateMutability": "nonpayable",
      "type": "function"
    },
    {
      "inputs": [
        {
          "internalType": "uint256",
          "name": "_value",
          "type": "uint256"
        }
      ],
      "name": "setEarlySettlementFee",
      "outputs": [],
      "stateMutability": "nonpayable",
      "type": "function"
    },
    {
      "inputs": [
        {
          "internalType": "uint8",
          "name": "_value",
          "type": "uint8"
        }
      ],
      "name": "setUserRewardShare",
      "outputs": [],
      "stateMutability": "nonpayable",
      "type": "function"
    },
    {
      "inputs": [
        {
          "internalType": "uint8",
          "name": "_value",
          "type": "uint8"
        }
      ],
      "name": "setVaultShares",
      "outputs": [],
      "stateMutability": "nonpayable",
      "type": "function"
    },
    {
      "inputs": [
        {
          "internalType": "uint16",
          "name": "_value",
          "type": "uint16"
        }
      ],
      "name": "setUndercollateralizedForeclosingMultiple",
      "outputs": [],
      "stateMutability": "nonpayable",
      "type": "function"
    },
    {
      "inputs": [
        {
          "internalType": "uint16",
          "name": "_value",
          "type": "uint16"
        }
      ],
      "name": "setAtRiskForeclosedMultiple",
      "outputs": [],
      "stateMutability": "nonpayable",
      "type": "function"
    },
    {
      "inputs": [
        {
          "internalType": "uint8",
          "name": "_value",
          "type": "uint8"
        }
      ],
      "name": "setCancellationFees",
      "outputs": [],
      "stateMutability": "nonpayable",
      "type": "function"
    },
    {
      "inputs": [],
      "name": "getGeneralParams",
      "outputs": [
        {
          "components": [
            {
              "internalType": "uint256",
              "name": "earlySettlementWindow",
              "type": "uint256"
            },
            {
              "internalType": "uint256",
              "name": "foreclosureWindow",
              "type": "uint256"
            },
            {
              "internalType": "uint8",
              "name": "requiredCollateralRatio",
              "type": "uint8"
            },
            {
              "internalType": "uint8",
              "name": "foreclosingRatio",
              "type": "uint8"
            },
            {
              "internalType": "uint8",
              "name": "instantForeclosureRatio",
              "type": "uint8"
            },
            {
              "internalType": "uint8",
              "name": "limitCollRatioForWithdraw",
              "type": "uint8"
            },
            {
              "internalType": "address",
              "name": "factoryAddress",
              "type": "address"
            },
            {
              "internalType": "address",
              "name": "pairLoanDeployerAddress",
              "type": "address"
            },
            {
              "internalType": "address",
              "name": "pairPriceOracleAddress",
              "type": "address"
            },
            {
              "internalType": "uint8",
              "name": "collDecimals",
              "type": "uint8"
            },
            {
              "internalType": "uint8",
              "name": "lendDecimals",
              "type": "uint8"
            },
            {
              "internalType": "uint256",
              "name": "pairId",
              "type": "uint256"
            }
          ],
          "internalType": "struct IJLoanCommons.GeneralParams",
          "name": "",
          "type": "tuple"
        }
      ],
      "stateMutability": "view",
      "type": "function",
      "constant": true
    },
    {
      "inputs": [],
      "name": "getGeneralFees",
      "outputs": [
        {
          "components": [
            {
              "internalType": "uint256",
              "name": "earlySettlementFee",
              "type": "uint256"
            },
            {
              "internalType": "uint8",
              "name": "factoryFees",
              "type": "uint8"
            },
            {
              "internalType": "uint8",
              "name": "userRewardShare",
              "type": "uint8"
            },
            {
              "internalType": "uint8",
              "name": "vaultRewardShare",
              "type": "uint8"
            },
            {
              "internalType": "uint8",
              "name": "cancellationFees",
              "type": "uint8"
            },
            {
              "internalType": "uint16",
              "name": "undercollateralizedForeclosingMultiple",
              "type": "uint16"
            },
            {
              "internalType": "uint16",
              "name": "atRiskForeclosedMultiple",
              "type": "uint16"
            }
          ],
          "internalType": "struct IJLoanCommons.FeesParams",
          "name": "",
          "type": "tuple"
        }
      ],
      "stateMutability": "view",
      "type": "function",
      "constant": true
    },
    {
      "inputs": [
        {
          "internalType": "uint256",
          "name": "_pairId",
          "type": "uint256"
        }
      ],
      "name": "createNewPairContract",
      "outputs": [
        {
          "internalType": "address",
          "name": "",
          "type": "address"
        }
      ],
      "stateMutability": "nonpayable",
      "type": "function"
    },
    {
      "inputs": [],
      "name": "getLoanDeployer",
      "outputs": [
        {
          "internalType": "address",
          "name": "",
          "type": "address"
        }
      ],
      "stateMutability": "view",
      "type": "function",
      "constant": true
    },
    {
      "inputs": [
        {
          "internalType": "uint256",
          "name": "_idx",
          "type": "uint256"
        }
      ],
      "name": "getDeployedLoan",
      "outputs": [
        {
          "internalType": "address",
          "name": "",
          "type": "address"
        }
      ],
      "stateMutability": "view",
      "type": "function",
      "constant": true
    },
    {
      "inputs": [
        {
          "internalType": "uint256",
          "name": "_idx",
          "type": "uint256"
        }
      ],
      "name": "setLoanGeneralParamsInContract",
      "outputs": [],
      "stateMutability": "nonpayable",
      "type": "function"
    },
    {
      "inputs": [
        {
          "internalType": "uint256",
          "name": "_idx",
          "type": "uint256"
        }
      ],
      "name": "setLoanFeesParamsInContract",
      "outputs": [],
      "stateMutability": "nonpayable",
      "type": "function"
    },
    {
      "inputs": [
        {
          "internalType": "uint256",
          "name": "_idx",
          "type": "uint256"
        },
        {
          "internalType": "uint256",
          "name": "_loanId",
          "type": "uint256"
        },
        {
          "internalType": "uint256",
          "name": "_newStatus",
          "type": "uint256"
        }
      ],
      "name": "setStatusInLoan",
      "outputs": [],
      "stateMutability": "nonpayable",
      "type": "function"
    }
  ],
  "bytecode": "0x60806040523480156200001157600080fd5b50604051620023ce380380620023ce8339810160408190526200003491620001b4565b6000620000496001600160e01b03620001b016565b600080546001600160a01b0319166001600160a01b0383169081178255604051929350917f8be0079c531659141344cd1fd0a4f28419497f9722a3daafe3b4186f6b6457e0908290a350600180805562083d6060075561465060085560098054600a80546001600160a01b03199081166001600160a01b03978816908117909255600280548216909217909155600b80548216959096169485179095556003805490951690931790935560c860ff199283161761ff00199081166196001762ff000019908116627800001763ff0000001990811663a000000017600160201b600160c01b031916306401000000000217909555600e805462107ac0600d558516600590811790931661500017909116621400001761ffff60201b19166503e8000000001761ffff60301b1916670bb80000000000001790941663030000001790935533600090815260209390935260409092208054909116909117905543600f556200020b565b3390565b60008060408385031215620001c7578182fd5b8251620001d481620001f2565b6020840151909250620001e781620001f2565b809150509250929050565b6001600160a01b03811681146200020857600080fd5b50565b6121b3806200021b6000396000f3fe608060405234801561001057600080fd5b50600436106102325760003560e01c806373aa302811610130578063ada0e927116100b8578063c2c1e3401161007c578063c2c1e340146104b3578063d4c4ccfb146104c6578063f08f1ba9146104ce578063f2fde38b146104d6578063fe046619146104e957610232565b8063ada0e9271461044c578063b311d9cf1461045f578063b724e7b114610472578063bed3a3b41461048d578063c175771b146104a057610232565b80638bad0c0a116100ff5780638bad0c0a1461040e5780638da5cb5b1461041657806399d4cb011461041e578063a1d9354514610426578063aa42e1aa1461043957610232565b806373aa3028146103c2578063774820bb146103d5578063799d564c146103e85780637bb45bf0146103fb57610232565b8063457454db116101be578063699110f811610182578063699110f814610361578063704802751461037457806370d531a81461038757806370fb1a49146103a7578063715018a6146103ba57610232565b8063457454db146102fe5780634a5e2192146103135780634b32c55e146103265780634fd758791461033957806352ede5f61461034e57610232565b80631a55d9e9116102055780631a55d9e91461028557806324d7806c146102a357806334baa377146102c357806339075d89146102d657806343c5719c146102eb57610232565b806301adb6b91461023757806310f6ca5b1461024c5780631664a2951461025f5780631785f53c14610272575b600080fd5b61024a610245366004611a88565b6104fc565b005b61024a61025a366004611bc4565b610584565b61024a61026d366004611b51565b6107dd565b61024a610280366004611a88565b610837565b61028d610868565b60405161029a9190611ed0565b60405180910390f35b6102b66102b1366004611a88565b6108dc565b60405161029a9190611c4f565b61024a6102d1366004611bef565b6108fa565b6102de61094d565b60405161029a919061200b565b6102de6102f9366004611ba3565b610953565b61030661098d565b60405161029a9190611c3b565b61024a610321366004611bef565b61099c565b61024a610334366004611bef565b6109ed565b610341610a38565b60405161029a9190611f34565b6102de61035c366004611b73565b610ae7565b61024a61036f366004611bef565b610b0f565b61024a610382366004611a88565b610b60565b61038f610bda565b60405161029a9c9b9a99989796959493929190612064565b6103066103b5366004611b73565b610c3e565b61024a610c59565b61024a6103d0366004611b73565b610cd8565b61024a6103e3366004611b51565b610d12565b61024a6103f6366004611b73565b610d6b565b61024a610409366004611bef565b610da5565b61024a610df8565b610306610e28565b610306610e37565b610306610434366004611b73565b610e46565b61024a610447366004611b73565b61111a565b61024a61045a366004611a88565b6111b8565b61024a61046d366004611bef565b611237565b61047a61128c565b60405161029a97969594939291906120ed565b61024a61049b366004611bef565b6112cd565b6102de6104ae366004611ba3565b611318565b61024a6104c1366004611b73565b611612565b61030661164c565b6102de61165b565b61024a6104e4366004611a88565b611661565b61024a6104f7366004611b73565b611717565b610505336108dc565b61052a5760405162461bcd60e51b815260040161052190611d41565b60405180910390fd5b600b546001600160a01b03828116911614156105585760405162461bcd60e51b815260040161052190611e2f565b600b80546001600160a01b039092166001600160a01b0319928316811790915560038054909216179055565b600260015414156105a75760405162461bcd60e51b815260040161052190611e99565b60026001556105b461179a565b6000546001600160a01b039081169116146105e15760405162461bcd60e51b815260040161052190611dcc565b60078111156106025760405162461bcd60e51b815260040161052190611d68565b6000838152600460208190526040808320549051630713f50760e21b81526001600160a01b0390911692918391631c4fd41c916106419188910161200b565b60206040518083038186803b15801561065957600080fd5b505afa15801561066d573d6000803e3d6000fd5b505050506040513d601f19601f820116820180604052508101906106919190611b8b565b9050808314156106b35760405162461bcd60e51b815260040161052190611e75565b604051633532dd3f60e21b81526001600160a01b0383169063d4cb74fc906106e1908790879060040161203b565b600060405180830381600087803b1580156106fb57600080fd5b505af115801561070f573d6000803e3d6000fd5b5050604051630713f50760e21b8152600092506001600160a01b0385169150631c4fd41c9061074290889060040161200b565b60206040518083038186803b15801561075a57600080fd5b505afa15801561076e573d6000803e3d6000fd5b505050506040513d601f19601f820116820180604052508101906107929190611b8b565b90507fa1661b6e1932625ac6173661a83389c6f4d9b37adb71d92b6252f9615780adf4868684846040516107c99493929190612049565b60405180910390a150506001805550505050565b6107e561179a565b6000546001600160a01b039081169116146108125760405162461bcd60e51b815260040161052190611dcc565b600e805461ffff909216600160301b0267ffff00000000000019909216919091179055565b610840336108dc565b61085c5760405162461bcd60e51b815260040161052190611d41565b6108658161179e565b50565b6108706119e8565b506040805160e081018252600d548152600e5460ff808216602084015261010082048116938301939093526201000081048316606083015263010000008104909216608082015261ffff6401000000008304811660a0830152600160301b90920490911660c082015290565b6001600160a01b031660009081526005602052604090205460ff1690565b61090261179a565b6000546001600160a01b0390811691161461092f5760405162461bcd60e51b815260040161052190611dcc565b600e805460ff909216620100000262ff000019909216919091179055565b600f5481565b6000806109608484611318565b9050600061096d82610ae7565b90506000610981838363ffffffff6117f916565b93505050505b92915050565b6003546001600160a01b031681565b6109a461179a565b6000546001600160a01b039081169116146109d15760405162461bcd60e51b815260040161052190611dcc565b6009805460ff9092166101000261ff0019909216919091179055565b6109f561179a565b6000546001600160a01b03908116911614610a225760405162461bcd60e51b815260040161052190611dcc565b600e805460ff191660ff92909216919091179055565b610a40611a24565b5060408051610180810182526007548152600854602082015260095460ff80821693830193909352610100808204841660608401526201000082048416608084015263010000008204841660a08401526001600160a01b03640100000000909204821660c0840152600a54821660e0840152600b5491821690830152600160a01b81048316610120830152600160a81b9004909116610140820152600c5461016082015290565b600e5460009061098790610b0590849060ff1663ffffffff61182516565b6103e8600061185f565b610b1761179a565b6000546001600160a01b03908116911614610b445760405162461bcd60e51b815260040161052190611dcc565b600e805460ff9092166101000261ff0019909216919091179055565b610b69336108dc565b610b855760405162461bcd60e51b815260040161052190611d41565b6001600160a01b038116610bab5760405162461bcd60e51b815260040161052190611e01565b610bb4816108dc565b15610bd15760405162461bcd60e51b815260040161052190611c8d565b610865816118ae565b600754600854600954600a54600b54600c5460ff808516946101008104821694620100008204831694630100000083048416946001600160a01b0364010000000090940484169492841693821692600160a01b8304811692600160a81b900416908c565b6000908152600460205260409020546001600160a01b031690565b610c6161179a565b6000546001600160a01b03908116911614610c8e5760405162461bcd60e51b815260040161052190611dcc565b600080546040516001600160a01b03909116907f8be0079c531659141344cd1fd0a4f28419497f9722a3daafe3b4186f6b6457e0908390a3600080546001600160a01b0319169055565b610ce061179a565b6000546001600160a01b03908116911614610d0d5760405162461bcd60e51b815260040161052190611dcc565b600855565b610d1a61179a565b6000546001600160a01b03908116911614610d475760405162461bcd60e51b815260040161052190611dcc565b600e805461ffff9092166401000000000265ffff0000000019909216919091179055565b610d7361179a565b6000546001600160a01b03908116911614610da05760405162461bcd60e51b815260040161052190611dcc565b600d55565b610dad61179a565b6000546001600160a01b03908116911614610dda5760405162461bcd60e51b815260040161052190611dcc565b6009805460ff909216620100000262ff000019909216919091179055565b610e01336108dc565b610e1d5760405162461bcd60e51b815260040161052190611d41565b610e263361179e565b565b6000546001600160a01b031690565b6002546001600160a01b031681565b600060026001541415610e6b5760405162461bcd60e51b815260040161052190611e99565b6002600155610e79336108dc565b610e955760405162461bcd60e51b815260040161052190611d41565b600354604051630758531360e01b81526000916001600160a01b031690630758531390610ec690869060040161200b565b60206040518083038186803b158015610ede57600080fd5b505afa158015610ef2573d6000803e3d6000fd5b505050506040513d601f19601f82011682018060405250810190610f169190611aa4565b60035460405163273f1d0760e11b81529192506000916001600160a01b0390911690634e7e3a0e90610f4c90879060040161200b565b60206040518083038186803b158015610f6457600080fd5b505afa158015610f78573d6000803e3d6000fd5b505050506040513d601f19601f82011682018060405250810190610f9c9190611aa4565b6002546040516392f26f0560e01b81529192506000916001600160a01b03909116906392f26f0590610fd8908890309088908890600401612014565b602060405180830381600087803b158015610ff257600080fd5b505af1158015611006573d6000803e3d6000fd5b505050506040513d601f19601f8201168201806040525081019061102a9190611aa4565b60008681526004602081905260409182902080546001600160a01b0319166001600160a01b038581169182179092556003549351636549bf5360e11b81529495509389937f23cc28b328bc4c352043591698fcca6cf25d48f1b15c267c2f11debcbfd7d2829392169163ca937ea6916110a59186910161200b565b60006040518083038186803b1580156110bd57600080fd5b505afa1580156110d1573d6000803e3d6000fd5b505050506040513d6000823e601f3d908101601f191682016040526110f99190810190611ac0565b6040516111069190611c5a565b60405180910390a360018055949350505050565b61112261179a565b6000546001600160a01b0390811691161461114f5760405162461bcd60e51b815260040161052190611dcc565b600081815260046020819052604080832054815163918c3dbd60e01b815291516001600160a01b039091169363918c3dbd938381019391929182900301818387803b15801561119d57600080fd5b505af11580156111b1573d6000803e3d6000fd5b5050505050565b6111c1336108dc565b6111dd5760405162461bcd60e51b815260040161052190611d41565b600a546001600160a01b038281169116141561120b5760405162461bcd60e51b815260040161052190611e2f565b600a80546001600160a01b039092166001600160a01b0319928316811790915560028054909216179055565b61123f61179a565b6000546001600160a01b0390811691161461126c5760405162461bcd60e51b815260040161052190611dcc565b600e805460ff90921663010000000263ff00000019909216919091179055565b600d54600e5460ff808216916101008104821691620100008204811691630100000081049091169061ffff6401000000008204811691600160301b90041687565b6112d561179a565b6000546001600160a01b039081169116146113025760405162461bcd60e51b815260040161052190611dcc565b6009805460ff191660ff92909216919091179055565b600354604051631334f8cd60e11b815260009182916001600160a01b0390911690632669f19a9061134d90879060040161200b565b60206040518083038186803b15801561136557600080fd5b505afa158015611379573d6000803e3d6000fd5b505050506040513d601f19601f8201168201806040525081019061139d9190611b8b565b600354604051632bd61f0560e11b81529192506000916001600160a01b03909116906357ac3e0a906113d390889060040161200b565b60206040518083038186803b1580156113eb57600080fd5b505afa1580156113ff573d6000803e3d6000fd5b505050506040513d601f19601f820116820180604052508101906114239190611c0b565b60095460ff91821692506000916114779161146f9160649161146391600a88900a91611457918c911663ffffffff61182516565b9063ffffffff61182516565b9063ffffffff61190116565b84600061185f565b600354604051630404ea8960e21b81529192506000916001600160a01b0390911690631013aa24906114ad908a9060040161200b565b60206040518083038186803b1580156114c557600080fd5b505afa1580156114d9573d6000803e3d6000fd5b505050506040513d601f19601f820116820180604052508101906114fd9190611c0b565b600354604051633e17bdcb60e11b815260ff9290921692506000916001600160a01b0390911690637c2f7b9690611538908b9060040161200b565b60206040518083038186803b15801561155057600080fd5b505afa158015611564573d6000803e3d6000fd5b505050506040513d601f19601f820116820180604052508101906115889190611c0b565b60ff1690508082106115d55760006115a6838363ffffffff61194316565b90506115cd60056115c186600a85900a63ffffffff61182516565b9063ffffffff6117f916565b935050611606565b60006115e7828463ffffffff61194316565b905061160260056115c186600a85900a63ffffffff61190116565b9350505b50909695505050505050565b61161a61179a565b6000546001600160a01b039081169116146116475760405162461bcd60e51b815260040161052190611dcc565b600755565b6002546001600160a01b031690565b60065481565b61166961179a565b6000546001600160a01b039081169116146116965760405162461bcd60e51b815260040161052190611dcc565b6001600160a01b0381166116bc5760405162461bcd60e51b815260040161052190611cc4565b600080546040516001600160a01b03808516939216917f8be0079c531659141344cd1fd0a4f28419497f9722a3daafe3b4186f6b6457e091a3600080546001600160a01b0319166001600160a01b0392909216919091179055565b61171f61179a565b6000546001600160a01b0390811691161461174c5760405162461bcd60e51b815260040161052190611dcc565b6000818152600460208190526040808320548151633c10d6c560e21b815291516001600160a01b039091169363f0435b14938381019391929182900301818387803b15801561119d57600080fd5b3390565b6001600160a01b03811660009081526005602052604090819020805460ff19169055517fa3b62bc36326052d97ea62d63c3d60308ed4c3ea8ac079dd8499f1e9c4f80c0f906117ee908390611c3b565b60405180910390a150565b60008282018381101561181e5760405162461bcd60e51b815260040161052190611d0a565b9392505050565b60008261183457506000610987565b8282028284828161184157fe5b041461181e5760405162461bcd60e51b815260040161052190611d8b565b60008061188661187684600163ffffffff6117f916565b8690600a0a63ffffffff61182516565b905060006118a4600a61146360056115c1868a63ffffffff61190116565b9695505050505050565b6001600160a01b03811660009081526005602052604090819020805460ff19166001179055517f44d6d25963f097ad14f29f06854a01f575648a1ef82f30e562ccd3889717e339906117ee908390611c3b565b600061181e83836040518060400160405280601a81526020017f536166654d6174683a206469766973696f6e206279207a65726f000000000000815250611985565b600061181e83836040518060400160405280601e81526020017f536166654d6174683a207375627472616374696f6e206f766572666c6f7700008152506119bc565b600081836119a65760405162461bcd60e51b81526004016105219190611c5a565b5060008385816119b257fe5b0495945050505050565b600081848411156119e05760405162461bcd60e51b81526004016105219190611c5a565b505050900390565b6040805160e081018252600080825260208201819052918101829052606081018290526080810182905260a0810182905260c081019190915290565b6040805161018081018252600080825260208201819052918101829052606081018290526080810182905260a0810182905260c0810182905260e0810182905261010081018290526101208101829052610140810182905261016081019190915290565b600060208284031215611a99578081fd5b813561181e81612159565b600060208284031215611ab5578081fd5b815161181e81612159565b600060208284031215611ad1578081fd5b815167ffffffffffffffff80821115611ae8578283fd5b81840185601f820112611af9578384fd5b8051925081831115611b09578384fd5b604051601f8401601f191681016020018381118282101715611b29578586fd5b604052838152818401602001871015611b40578485fd5b6118a4846020830160208501612129565b600060208284031215611b62578081fd5b813561ffff8116811461181e578182fd5b600060208284031215611b84578081fd5b5035919050565b600060208284031215611b9c578081fd5b5051919050565b60008060408385031215611bb5578081fd5b50508035926020909101359150565b600080600060608486031215611bd8578081fd5b505081359360208301359350604090920135919050565b600060208284031215611c00578081fd5b813561181e8161216e565b600060208284031215611c1c578081fd5b815161181e8161216e565b6001600160a01b03169052565b60ff169052565b6001600160a01b0391909116815260200190565b901515815260200190565b6000602082528251806020840152611c79816040850160208701612129565b601f01601f19169190910160400192915050565b6020808252601e908201527f204164647265737320616c72656164792041646d696e6973747261746f720000604082015260600190565b60208082526026908201527f4f776e61626c653a206e6577206f776e657220697320746865207a65726f206160408201526564647265737360d01b606082015260800190565b6020808252601b908201527f536166654d6174683a206164646974696f6e206f766572666c6f770000000000604082015260600190565b6020808252600d908201526c4e6f7420616e2041646d696e2160981b604082015260600190565b60208082526009908201526821537461747573303760b81b604082015260600190565b60208082526021908201527f536166654d6174683a206d756c7469706c69636174696f6e206f766572666c6f6040820152607760f81b606082015260800190565b6020808252818101527f4f776e61626c653a2063616c6c6572206973206e6f7420746865206f776e6572604082015260600190565b6020808252601490820152734e6f7420612076616c696420616464726573732160601b604082015260600190565b60208082526026908201527f6e65772061646472657373206973207468652073616d6520617320746865206f6040820152656c64206f6e6560d01b606082015260800190565b6020808252600a9082015269216e657753746174757360b01b604082015260600190565b6020808252601f908201527f5265656e7472616e637947756172643a207265656e7472616e742063616c6c00604082015260600190565b600060e0820190508251825260ff602084015116602083015260ff604084015116604083015260ff606084015116606083015260ff608084015116608083015260a083015161ffff80821660a08501528060c08601511660c0850152505092915050565b60006101808201905082518252602083015160208301526040830151611f5d6040840182611c34565b506060830151611f706060840182611c34565b506080830151611f836080840182611c34565b5060a0830151611f9660a0840182611c34565b5060c0830151611fa960c0840182611c27565b5060e0830151611fbc60e0840182611c27565b5061010080840151611fd082850182611c27565b505061012080840151611fe582850182611c34565b505061014080840151611ffa82850182611c34565b505061016092830151919092015290565b90815260200190565b9384526001600160a01b039283166020850152908216604084015216606082015260800190565b918252602082015260400190565b93845260208401929092526040830152606082015260800190565b8c8152602081018c905260ff8b811660408301528a811660608301528981166080830152881660a08201526001600160a01b0387811660c0830152861660e082015261018081016120b9610100830187611c27565b6120c7610120830186611c34565b6120d5610140830185611c34565b826101608301529d9c50505050505050505050505050565b96875260ff958616602088015293851660408701529184166060860152909216608084015261ffff91821660a08401521660c082015260e00190565b60005b8381101561214457818101518382015260200161212c565b83811115612153576000848401525b50505050565b6001600160a01b038116811461086557600080fd5b60ff8116811461086557600080fdfea26469706673582212206d5564a069a63547d4ec59a14ebb42ac4755bd2e9256dd18aba36c77e29823db64736f6c634300060b0033",
  "immutableReferences": {},
  "source": "// SPDX-License-Identifier: MIT\n/**\n * Created on 2020-10-28\n * @summary: Jibrel Loans Factory\n * @author: Jibrel Team\n */\npragma solidity 0.6.11;\npragma experimental ABIEncoderV2;\n\nimport \"@openzeppelin/contracts/math/SafeMath.sol\";\nimport \"@openzeppelin/contracts/access/Ownable.sol\";\nimport \"@openzeppelin/contracts/token/ERC20/IERC20.sol\";\nimport \"@openzeppelin/contracts/utils/ReentrancyGuard.sol\";\nimport \"./IJLoanCommons.sol\";\nimport \"./IJLoanDeployer.sol\";\nimport \"./IJLoan.sol\";\nimport \"./IJPriceOracle.sol\";\n\n\ncontract JFactory is Ownable, ReentrancyGuard, IJLoanCommons { \n    using SafeMath for uint256;\n\n    IJLoanDeployer public pairLoanDeplContract;\n    IJPriceOracle public priceOracleContract;\n\n    mapping(uint => address) internal deployedLoans;\n\n    mapping (address => bool) private _Admins;\n \n    uint public pairNumber;\n\n    GeneralParams public generalParams;\n    FeesParams public generalFees;\n\n    uint public factoryDeployBlock;\n\n    event AdminAdded(address account);\n    event AdminRemoved(address account);\n    event NewPairLoanCreated(uint indexed pairId, address indexed newLoan, string pairName);\n    event SetNewStatus(uint idx, uint loanId, uint oldStatus, uint newStatus);\n    \n    constructor (address _pairLoanDepl, address _priceOracle) public {\n        generalParams.earlySettlementWindow = 540000;\n        generalParams.foreclosureWindow = 18000;\n        generalParams.requiredCollateralRatio = 200;\n        generalParams.foreclosingRatio = 150;\n        generalParams.instantForeclosureRatio = 120;\n        generalParams.limitCollRatioForWithdraw = 160;\n        generalParams.pairLoanDeployerAddress = _pairLoanDepl;\n        pairLoanDeplContract = IJLoanDeployer(_pairLoanDepl);\n        generalParams.pairPriceOracleAddress = _priceOracle;\n        priceOracleContract = IJPriceOracle(_priceOracle);\n        generalParams.factoryAddress = address(this);\n        generalFees.factoryFees = 5;\n        generalFees.earlySettlementFee = 1080000; \n        generalFees.userRewardShare = 80;\n        generalFees.vaultRewardShare = 20;\n        generalFees.undercollateralizedForeclosingMultiple = 1000;\n        generalFees.atRiskForeclosedMultiple = 3000;\n        generalFees.cancellationFees = 3;\n        _Admins[msg.sender] = true;\n        factoryDeployBlock = block.number;\n    }\n\n    /* Modifiers */\n    modifier onlyAdmins() {\n        require(isAdmin(msg.sender), \"Not an Admin!\");\n        _;\n    }\n\n    /*   Admins Roles Mngmt  */\n    function _addAdmin(address account) internal {\n        _Admins[account] = true;\n        emit AdminAdded(account);\n    }\n\n    function _removeAdmin(address account) internal {\n        _Admins[account] = false;\n        emit AdminRemoved(account);\n    }\n\n    function isAdmin(address account) public view returns (bool) {\n        return _Admins[account];\n    }\n\n    function addAdmin(address account) external onlyAdmins {\n        require(account != address(0), \"Not a valid address!\");\n        require(!isAdmin(account), \" Address already Administrator\");\n        _addAdmin(account);\n    }\n\n    function removeAdmin(address account) external onlyAdmins {\n        _removeAdmin(account);\n    }\n\n    function renounceAdmin() external onlyAdmins {\n        _removeAdmin(msg.sender);\n    }\n\n    /**\n    * @dev set a new address for pair loan deployer contract\n    * @param _pairLoanDepl new address\n    */\n    function setPairLoanDeployerAddress(address _pairLoanDepl) external onlyAdmins {\n        require(_pairLoanDepl != generalParams.pairLoanDeployerAddress, \"new address is the same as the old one\");\n        generalParams.pairLoanDeployerAddress = _pairLoanDepl;\n        pairLoanDeplContract = IJLoanDeployer(_pairLoanDepl);\n    }\n\n    /**\n    * @dev set a new address for pair price oracle contract\n    * @param _priceOracle new address\n    */\n    function setPairPriceOracleAddress(address _priceOracle) external onlyAdmins {\n        require(_priceOracle != generalParams.pairPriceOracleAddress, \"new address is the same as the old one\");\n        generalParams.pairPriceOracleAddress = _priceOracle;\n        priceOracleContract = IJPriceOracle(_priceOracle);\n    }\n\n    /**\n    * @dev math round up\n    * @param numerator numerator\n    * @param denominator denominator\n    * @param precision precision\n    * @return number of quote currency decimals\n    */\n    function roundUp(uint numerator, uint denominator, uint precision) internal pure returns (uint) {\n        uint _numerator  = numerator.mul(10 ** (precision.add(1)));\n        uint _quotient =  ((_numerator.div(denominator)).add(5)).div(10);\n        return _quotient;\n    }\n\n    /**\n    * @dev calculate fees on collateral amount\n    * @param _collAmount collateral amount\n    * @return amount of collateral fees\n    */\n    function calculateCollFeesOnActivation(uint _collAmount) public view returns (uint) {\n        return roundUp(_collAmount.mul(generalFees.factoryFees), 1000, 0);\n    }\n\n    /**\n    * @dev get the amount of collateral needed to have stable coin amount (no fees)\n    * @param _pairId number of the pair\n    * @param _askAmount amount in stable coin the borrower would like to receive\n    * @return amount of collateral the borrower needs to send\n    */\n    function calcMinCollateralAmount(uint _pairId, uint _askAmount) public view returns (uint) {\n        uint price = priceOracleContract.getPairValue(_pairId);\n        uint pairDecimals = uint(priceOracleContract.getPairDecimals(_pairId));\n        uint minCollEthAmount = roundUp(_askAmount.mul(generalParams.requiredCollateralRatio).mul(10 ** pairDecimals).div(100), price, 0);\n        uint baseDecimals = uint(priceOracleContract.getPairBaseDecimals(_pairId));\n        uint quoteDecimals = uint(priceOracleContract.getPairQuoteDecimals(_pairId));\n        if (baseDecimals >= quoteDecimals) {\n            uint diffBaseQuoteDecimals = baseDecimals.sub(quoteDecimals);\n            minCollEthAmount = minCollEthAmount.mul(10 ** diffBaseQuoteDecimals).add(5); //add 5 to be sure evrything is ok\n        } else {\n            uint diffBaseQuoteDecimals = quoteDecimals.sub(baseDecimals);\n            minCollEthAmount = minCollEthAmount.div(10 ** diffBaseQuoteDecimals).add(5); //add 5 to be sure evrything is ok\n        }\n        return minCollEthAmount;\n    }\n\n    /**\n    * @dev get the amount of collateral needed to have stable coin amount, with fees\n    * @param _pairId number of the pair\n    * @param _askAmount amount in stable coin the borrower would like to receive\n    * @return amount of collateral the borrower needs to send\n    */\n    function calcMinCollateralWithFeesAmount(uint _pairId, uint _askAmount) external view returns (uint) {\n        uint minCollEthAmount = calcMinCollateralAmount(_pairId, _askAmount);\n        uint feesCollAmount = calculateCollFeesOnActivation(minCollEthAmount);\n        uint totalCollAmountWithFees = minCollEthAmount.add(feesCollAmount);\n        return totalCollAmountWithFees;\n    }\n\n    /**\n    * @dev set GeneralParams\n    * @param _value set new param\n    */\n    function setEarlySettlementWindow(uint _value) external onlyOwner {\n        generalParams.earlySettlementWindow = _value;\n    }\n\n    /**\n    * @dev set GeneralParams\n    * @param _value set new param\n    */\n    function setForeclosureWindow(uint _value) external onlyOwner {\n        generalParams.foreclosureWindow = _value;\n    }\n\n    function setForeclosureRatio(uint8 _value) external onlyOwner {\n        generalParams.foreclosingRatio = _value;\n    }\n\n    /**\n    * @dev set GeneralParams\n    * @param _value set new param\n    */\n    function setInstantForeclosureRatio(uint8 _value) external onlyOwner {\n        generalParams.instantForeclosureRatio = _value;\n    }\n\n    /**\n    * @dev set GeneralParams\n    * @param _value set new param\n    */\n    function setRequiredCollateralRatio(uint8 _value) external onlyOwner {\n        generalParams.requiredCollateralRatio = _value;\n    }\n\n    /**\n    * @dev set GeneralParams\n    * @param _value set new param\n    */\n    function setFactoryFees(uint8 _value) external onlyOwner {\n        generalFees.factoryFees = _value;\n    }\n\n    /**\n    * @dev set GeneralParams\n    * @param _value set new param\n    */\n    function setEarlySettlementFee(uint _value) external onlyOwner {\n        generalFees.earlySettlementFee = _value;\n    }\n\n    /**\n    * @dev set GeneralParams\n    * @param _value set new param\n    */\n    function setUserRewardShare(uint8 _value) external onlyOwner {\n        generalFees.userRewardShare = _value;\n    }\n\n    /**\n    * @dev set GeneralParams\n    * @param _value set new param\n    */\n    function setVaultShares(uint8 _value) external onlyOwner {\n        generalFees.vaultRewardShare = _value;\n    }\n\n    /**\n    * @dev set GeneralParams\n    * @param _value set new param\n    */\n    function setUndercollateralizedForeclosingMultiple(uint16 _value) external onlyOwner {\n        generalFees.undercollateralizedForeclosingMultiple = _value;\n    }\n\n    /**\n    * @dev set GeneralParams\n    * @param _value set new param\n    */\n    function setAtRiskForeclosedMultiple(uint16 _value) external onlyOwner {\n        generalFees.atRiskForeclosedMultiple = _value;\n    }\n\n    /**\n    * @dev set GeneralParams\n    * @param _value set new param\n    */\n    function setCancellationFees(uint8 _value) external onlyOwner {\n        generalFees.cancellationFees = _value;\n    }\n\n    /**\n    * @dev get all general GeneralParams\n    * @return param struct\n    */\n    function getGeneralParams() external view returns (GeneralParams memory) {\n        return generalParams;\n    }\n\n    /**\n    * @dev get all general GeneralParams\n    * @return param struct\n    */\n    function getGeneralFees() external view returns (FeesParams memory) {\n        return generalFees;\n    }\n\n    /**\n    * @dev create a new loan and set the address in the mapping\n    * @param _pairId number of the pair id interested in the loan contract\n    * @return address of the new contract\n    */\n    function createNewPairContract(uint _pairId) external nonReentrant onlyAdmins returns (address) {\n        address _baseAddress = priceOracleContract.getPairBaseAddress(_pairId);\n        address _quoteAddress = priceOracleContract.getPairQuoteAddress(_pairId);\n        address newTokenLoan = pairLoanDeplContract.deployNewLoanContract(_pairId, address(this), _baseAddress, _quoteAddress);\n        deployedLoans[_pairId] = newTokenLoan;\n        emit NewPairLoanCreated(_pairId, newTokenLoan, priceOracleContract.getPairName(_pairId));\n        return newTokenLoan;\n    }\n\n    /**\n    * @dev get all deployers addresses\n    * @return addresses of the deployer\n    */\n    function getLoanDeployer() external view returns(address) {\n        return address(pairLoanDeplContract);\n    }\n\n    /**\n    * @dev get a single loan address deployed by the factory\n    * @param _idx deployed loan index\n    * @return loan contract address\n    */\n    function getDeployedLoan(uint _idx) external view returns (address) {\n        return deployedLoans[_idx];\n    }\n\n        /**\n    * @dev set new common GeneralParams in single eth loans contract\n    * @param _idx, index of the loan pair contract\n    */\n    function setLoanGeneralParamsInContract(uint _idx) external onlyOwner {\n        IJLoan(deployedLoans[_idx]).setNewGeneralLoansParams();\n    }\n\n    /**\n    * @dev set new fees GeneralParams in single eth loans contract\n    * @param _idx, index of the loan pair contract\n    */\n    function setLoanFeesParamsInContract(uint _idx) external onlyOwner {\n        IJLoan(deployedLoans[_idx]).setNewFeesParams();\n    }\n\n        /**\n    * @dev set new status in single eth loans contract\n    * @param _idx, index of the loan contract\n    * @param _loanId loan id\n    * @param _newStatus, new status\n    */\n    function setStatusInLoan (uint _idx, uint _loanId, uint _newStatus) external nonReentrant onlyOwner {\n        require(_newStatus <= 7, \"!Status07\");\n        IJLoan jContract = IJLoan(deployedLoans[_idx]);\n        uint oldStatus = jContract.getLoanStatus(_loanId);\n        require(_newStatus != oldStatus, \"!newStatus\");\n        jContract.setNewStatus(_loanId, _newStatus);\n        uint newStatus = jContract.getLoanStatus(_loanId);\n        emit SetNewStatus(_idx, _loanId, oldStatus, newStatus);\n    }\n    \n}\n",
  "sourcePath": "C:/Users/saurabh/code/Jibrel/defi-smartcontracts/LoansFactoryV2/contracts/JFactory.sol",
  "compiler": {
    "name": "solc",
    "version": "0.6.11+commit.5ef660b1.Emscripten.clang"
  },
  "schemaVersion": "3.3.1",
  "updatedAt": "2020-11-02T06:59:30.075Z",
  "networkType": "ethereum",
  "devdoc": {
    "kind": "dev",
    "methods": {
      "calcMinCollateralAmount(uint256,uint256)": {
        "details": "get the amount of collateral needed to have stable coin amount (no fees)",
        "params": {
          "_askAmount": "amount in stable coin the borrower would like to receive",
          "_pairId": "number of the pair"
        },
        "returns": {
          "_0": "amount of collateral the borrower needs to send"
        }
      },
      "calcMinCollateralWithFeesAmount(uint256,uint256)": {
        "details": "get the amount of collateral needed to have stable coin amount, with fees",
        "params": {
          "_askAmount": "amount in stable coin the borrower would like to receive",
          "_pairId": "number of the pair"
        },
        "returns": {
          "_0": "amount of collateral the borrower needs to send"
        }
      },
      "calculateCollFeesOnActivation(uint256)": {
        "details": "calculate fees on collateral amount",
        "params": {
          "_collAmount": "collateral amount"
        },
        "returns": {
          "_0": "amount of collateral fees"
        }
      },
      "createNewPairContract(uint256)": {
        "details": "create a new loan and set the address in the mapping",
        "params": {
          "_pairId": "number of the pair id interested in the loan contract"
        },
        "returns": {
          "_0": "address of the new contract"
        }
      },
      "getDeployedLoan(uint256)": {
        "details": "get a single loan address deployed by the factory",
        "params": {
          "_idx": "deployed loan index"
        },
        "returns": {
          "_0": "loan contract address"
        }
      },
      "getGeneralFees()": {
        "details": "get all general GeneralParams",
        "returns": {
          "_0": "param struct"
        }
      },
      "getGeneralParams()": {
        "details": "get all general GeneralParams",
        "returns": {
          "_0": "param struct"
        }
      },
      "getLoanDeployer()": {
        "details": "get all deployers addresses",
        "returns": {
          "_0": "addresses of the deployer"
        }
      },
      "owner()": {
        "details": "Returns the address of the current owner."
      },
      "renounceOwnership()": {
        "details": "Leaves the contract without owner. It will not be possible to call `onlyOwner` functions anymore. Can only be called by the current owner. NOTE: Renouncing ownership will leave the contract without an owner, thereby removing any functionality that is only available to the owner."
      },
      "setAtRiskForeclosedMultiple(uint16)": {
        "details": "set GeneralParams",
        "params": {
          "_value": "set new param"
        }
      },
      "setCancellationFees(uint8)": {
        "details": "set GeneralParams",
        "params": {
          "_value": "set new param"
        }
      },
      "setEarlySettlementFee(uint256)": {
        "details": "set GeneralParams",
        "params": {
          "_value": "set new param"
        }
      },
      "setEarlySettlementWindow(uint256)": {
        "details": "set GeneralParams",
        "params": {
          "_value": "set new param"
        }
      },
      "setFactoryFees(uint8)": {
        "details": "set GeneralParams",
        "params": {
          "_value": "set new param"
        }
      },
      "setForeclosureWindow(uint256)": {
        "details": "set GeneralParams",
        "params": {
          "_value": "set new param"
        }
      },
      "setInstantForeclosureRatio(uint8)": {
        "details": "set GeneralParams",
        "params": {
          "_value": "set new param"
        }
      },
      "setLoanFeesParamsInContract(uint256)": {
        "details": "set new fees GeneralParams in single eth loans contract",
        "params": {
          "_idx": ", index of the loan pair contract"
        }
      },
      "setLoanGeneralParamsInContract(uint256)": {
        "details": "set new common GeneralParams in single eth loans contract",
        "params": {
          "_idx": ", index of the loan pair contract"
        }
      },
      "setPairLoanDeployerAddress(address)": {
        "details": "set a new address for pair loan deployer contract",
        "params": {
          "_pairLoanDepl": "new address"
        }
      },
      "setPairPriceOracleAddress(address)": {
        "details": "set a new address for pair price oracle contract",
        "params": {
          "_priceOracle": "new address"
        }
      },
      "setRequiredCollateralRatio(uint8)": {
        "details": "set GeneralParams",
        "params": {
          "_value": "set new param"
        }
      },
      "setStatusInLoan(uint256,uint256,uint256)": {
        "details": "set new status in single eth loans contract",
        "params": {
          "_idx": ", index of the loan contract",
          "_loanId": "loan id",
          "_newStatus": ", new status"
        }
      },
      "setUndercollateralizedForeclosingMultiple(uint16)": {
        "details": "set GeneralParams",
        "params": {
          "_value": "set new param"
        }
      },
      "setUserRewardShare(uint8)": {
        "details": "set GeneralParams",
        "params": {
          "_value": "set new param"
        }
      },
      "setVaultShares(uint8)": {
        "details": "set GeneralParams",
        "params": {
          "_value": "set new param"
        }
      },
      "transferOwnership(address)": {
        "details": "Transfers ownership of the contract to a new account (`newOwner`). Can only be called by the current owner."
      }
    },
    "version": 1
  },
  "userdoc": {
    "kind": "user",
    "methods": {},
    "version": 1
  }
}