{
  "contractName": "JFactory",
  "abi": [
    {
      "inputs": [
        {
          "internalType": "address",
          "name": "_ethDepl",
          "type": "address"
        },
        {
          "internalType": "address",
          "name": "_tokenDepl",
          "type": "address"
        }
      ],
      "stateMutability": "nonpayable",
      "type": "constructor"
    },
    {
      "anonymous": false,
      "inputs": [
        {
          "indexed": false,
          "internalType": "uint256",
          "name": "blockNumber",
          "type": "uint256"
        }
      ],
      "name": "AdminAdded",
      "type": "event"
    },
    {
      "anonymous": false,
      "inputs": [
        {
          "indexed": false,
          "internalType": "uint256",
          "name": "blockNumber",
          "type": "uint256"
        }
      ],
      "name": "AdminRemoved",
      "type": "event"
    },
    {
      "anonymous": false,
      "inputs": [
        {
          "indexed": true,
          "internalType": "uint256",
          "name": "loanId",
          "type": "uint256"
        },
        {
          "indexed": true,
          "internalType": "address",
          "name": "sender",
          "type": "address"
        },
        {
          "indexed": true,
          "internalType": "address",
          "name": "newLoan",
          "type": "address"
        },
        {
          "indexed": false,
          "internalType": "uint256",
          "name": "value",
          "type": "uint256"
        },
        {
          "indexed": false,
          "internalType": "uint256",
          "name": "coll",
          "type": "uint256"
        },
        {
          "indexed": false,
          "internalType": "address",
          "name": "collateralTokenAddress",
          "type": "address"
        }
      ],
      "name": "NewEthLoanCreated",
      "type": "event"
    },
    {
      "anonymous": false,
      "inputs": [
        {
          "indexed": true,
          "internalType": "uint256",
          "name": "_pairId",
          "type": "uint256"
        },
        {
          "indexed": false,
          "internalType": "string",
          "name": "_pairName",
          "type": "string"
        }
      ],
      "name": "NewPair",
      "type": "event"
    },
    {
      "anonymous": false,
      "inputs": [
        {
          "indexed": true,
          "internalType": "uint256",
          "name": "pairId",
          "type": "uint256"
        },
        {
          "indexed": true,
          "internalType": "string",
          "name": "pairName",
          "type": "string"
        },
        {
          "indexed": false,
          "internalType": "address",
          "name": "baseAddress",
          "type": "address"
        },
        {
          "indexed": false,
          "internalType": "address",
          "name": "quoteAddress",
          "type": "address"
        }
      ],
      "name": "NewPairAddresses",
      "type": "event"
    },
    {
      "anonymous": false,
      "inputs": [
        {
          "indexed": true,
          "internalType": "uint256",
          "name": "pairId",
          "type": "uint256"
        },
        {
          "indexed": true,
          "internalType": "string",
          "name": "pairName",
          "type": "string"
        },
        {
          "indexed": false,
          "internalType": "uint8",
          "name": "baseDecimals",
          "type": "uint8"
        },
        {
          "indexed": false,
          "internalType": "uint8",
          "name": "quoteDecimals",
          "type": "uint8"
        }
      ],
      "name": "NewPairDecimals",
      "type": "event"
    },
    {
      "anonymous": false,
      "inputs": [
        {
          "indexed": true,
          "internalType": "uint256",
          "name": "pairId",
          "type": "uint256"
        },
        {
          "indexed": true,
          "internalType": "string",
          "name": "pairName",
          "type": "string"
        },
        {
          "indexed": false,
          "internalType": "uint256",
          "name": "pairValue",
          "type": "uint256"
        },
        {
          "indexed": false,
          "internalType": "uint8",
          "name": "pairDecimals",
          "type": "uint8"
        }
      ],
      "name": "NewPrice",
      "type": "event"
    },
    {
      "anonymous": false,
      "inputs": [
        {
          "indexed": true,
          "internalType": "uint256",
          "name": "loanId",
          "type": "uint256"
        },
        {
          "indexed": true,
          "internalType": "address",
          "name": "sender",
          "type": "address"
        },
        {
          "indexed": true,
          "internalType": "address",
          "name": "newLoan",
          "type": "address"
        },
        {
          "indexed": false,
          "internalType": "address",
          "name": "collateralTokenAddress",
          "type": "address"
        }
      ],
      "name": "NewTokenLoanCreated",
      "type": "event"
    },
    {
      "anonymous": false,
      "inputs": [
        {
          "indexed": true,
          "internalType": "address",
          "name": "previousOwner",
          "type": "address"
        },
        {
          "indexed": true,
          "internalType": "address",
          "name": "newOwner",
          "type": "address"
        }
      ],
      "name": "OwnershipTransferred",
      "type": "event"
    },
    {
      "inputs": [],
      "name": "ZERO_ADDRESS",
      "outputs": [
        {
          "internalType": "address",
          "name": "",
          "type": "address"
        }
      ],
      "stateMutability": "view",
      "type": "function",
      "constant": true
    },
    {
      "inputs": [],
      "name": "contractCounter",
      "outputs": [
        {
          "internalType": "uint256",
          "name": "",
          "type": "uint256"
        }
      ],
      "stateMutability": "view",
      "type": "function",
      "constant": true
    },
    {
      "inputs": [],
      "name": "ethDeplContract",
      "outputs": [
        {
          "internalType": "contract IJLoanEthDeployer",
          "name": "",
          "type": "address"
        }
      ],
      "stateMutability": "view",
      "type": "function",
      "constant": true
    },
    {
      "inputs": [],
      "name": "factoryDeployBlock",
      "outputs": [
        {
          "internalType": "uint256",
          "name": "",
          "type": "uint256"
        }
      ],
      "stateMutability": "view",
      "type": "function",
      "constant": true
    },
    {
      "inputs": [],
      "name": "generalFees",
      "outputs": [
        {
          "internalType": "uint256",
          "name": "factoryFees",
          "type": "uint256"
        },
        {
          "internalType": "uint256",
          "name": "earlySettlementFee",
          "type": "uint256"
        },
        {
          "internalType": "uint256",
          "name": "userRewardShare",
          "type": "uint256"
        },
        {
          "internalType": "uint256",
          "name": "vaultShare",
          "type": "uint256"
        },
        {
          "internalType": "uint256",
          "name": "undercollateralizedForeclosingMultiple",
          "type": "uint256"
        },
        {
          "internalType": "uint256",
          "name": "atRiskForeclosedMultiple",
          "type": "uint256"
        },
        {
          "internalType": "uint256",
          "name": "cancellationFees",
          "type": "uint256"
        }
      ],
      "stateMutability": "view",
      "type": "function",
      "constant": true
    },
    {
      "inputs": [],
      "name": "generalParams",
      "outputs": [
        {
          "internalType": "uint256",
          "name": "minRpbRate",
          "type": "uint256"
        },
        {
          "internalType": "uint256",
          "name": "earlySettlementWindow",
          "type": "uint256"
        },
        {
          "internalType": "uint256",
          "name": "foreclosureWindow",
          "type": "uint256"
        },
        {
          "internalType": "uint256",
          "name": "requiredCollateralRatio",
          "type": "uint256"
        },
        {
          "internalType": "uint256",
          "name": "foreclosingRatio",
          "type": "uint256"
        },
        {
          "internalType": "uint256",
          "name": "instantForeclosureRatio",
          "type": "uint256"
        },
        {
          "internalType": "address",
          "name": "factoryAddress",
          "type": "address"
        },
        {
          "internalType": "address",
          "name": "ethDeployerAddress",
          "type": "address"
        },
        {
          "internalType": "address",
          "name": "tokenDeployerAddress",
          "type": "address"
        }
      ],
      "stateMutability": "view",
      "type": "function",
      "constant": true
    },
    {
      "inputs": [],
      "name": "lastDepositBlock",
      "outputs": [
        {
          "internalType": "uint256",
          "name": "",
          "type": "uint256"
        }
      ],
      "stateMutability": "view",
      "type": "function",
      "constant": true
    },
    {
      "inputs": [],
      "name": "loanID",
      "outputs": [
        {
          "internalType": "uint256",
          "name": "",
          "type": "uint256"
        }
      ],
      "stateMutability": "view",
      "type": "function",
      "constant": true
    },
    {
      "inputs": [],
      "name": "owner",
      "outputs": [
        {
          "internalType": "address",
          "name": "",
          "type": "address"
        }
      ],
      "stateMutability": "view",
      "type": "function",
      "constant": true
    },
    {
      "inputs": [],
      "name": "pairCounter",
      "outputs": [
        {
          "internalType": "uint256",
          "name": "",
          "type": "uint256"
        }
      ],
      "stateMutability": "view",
      "type": "function",
      "constant": true
    },
    {
      "inputs": [
        {
          "internalType": "uint256",
          "name": "",
          "type": "uint256"
        }
      ],
      "name": "pairs",
      "outputs": [
        {
          "internalType": "string",
          "name": "pairName",
          "type": "string"
        },
        {
          "internalType": "uint256",
          "name": "pairValue",
          "type": "uint256"
        },
        {
          "internalType": "uint8",
          "name": "pairDecimals",
          "type": "uint8"
        },
        {
          "internalType": "address",
          "name": "baseAddress",
          "type": "address"
        },
        {
          "internalType": "uint8",
          "name": "baseDecimals",
          "type": "uint8"
        },
        {
          "internalType": "address",
          "name": "quoteAddress",
          "type": "address"
        },
        {
          "internalType": "uint8",
          "name": "quoteDecimals",
          "type": "uint8"
        }
      ],
      "stateMutability": "view",
      "type": "function",
      "constant": true
    },
    {
      "inputs": [],
      "name": "renounceOwnership",
      "outputs": [],
      "stateMutability": "nonpayable",
      "type": "function"
    },
    {
      "inputs": [],
      "name": "tokenDeplContract",
      "outputs": [
        {
          "internalType": "contract IJLoanTokenDeployer",
          "name": "",
          "type": "address"
        }
      ],
      "stateMutability": "view",
      "type": "function",
      "constant": true
    },
    {
      "inputs": [
        {
          "internalType": "address",
          "name": "newOwner",
          "type": "address"
        }
      ],
      "name": "transferOwnership",
      "outputs": [],
      "stateMutability": "nonpayable",
      "type": "function"
    },
    {
      "inputs": [
        {
          "internalType": "address",
          "name": "account",
          "type": "address"
        }
      ],
      "name": "isAdmin",
      "outputs": [
        {
          "internalType": "bool",
          "name": "",
          "type": "bool"
        }
      ],
      "stateMutability": "view",
      "type": "function",
      "constant": true
    },
    {
      "inputs": [
        {
          "internalType": "address",
          "name": "account",
          "type": "address"
        }
      ],
      "name": "addAdmin",
      "outputs": [],
      "stateMutability": "nonpayable",
      "type": "function"
    },
    {
      "inputs": [
        {
          "internalType": "address",
          "name": "account",
          "type": "address"
        }
      ],
      "name": "removeAdmin",
      "outputs": [],
      "stateMutability": "nonpayable",
      "type": "function"
    },
    {
      "inputs": [],
      "name": "renounceAdmin",
      "outputs": [],
      "stateMutability": "nonpayable",
      "type": "function"
    },
    {
      "inputs": [
        {
          "internalType": "address",
          "name": "_ethDepl",
          "type": "address"
        }
      ],
      "name": "setEthDeployerAddress",
      "outputs": [],
      "stateMutability": "nonpayable",
      "type": "function"
    },
    {
      "inputs": [
        {
          "internalType": "address",
          "name": "_tokenDepl",
          "type": "address"
        }
      ],
      "name": "setTokenDeployerAddress",
      "outputs": [],
      "stateMutability": "nonpayable",
      "type": "function"
    },
    {
      "inputs": [
        {
          "internalType": "string",
          "name": "_pairName",
          "type": "string"
        },
        {
          "internalType": "uint256",
          "name": "_price",
          "type": "uint256"
        },
        {
          "internalType": "uint8",
          "name": "_pairDecimals",
          "type": "uint8"
        },
        {
          "internalType": "address",
          "name": "_baseAddress",
          "type": "address"
        },
        {
          "internalType": "uint8",
          "name": "_baseDecimals",
          "type": "uint8"
        },
        {
          "internalType": "address",
          "name": "_quoteAddress",
          "type": "address"
        },
        {
          "internalType": "uint8",
          "name": "_quoteDecimals",
          "type": "uint8"
        }
      ],
      "name": "setNewPair",
      "outputs": [],
      "stateMutability": "nonpayable",
      "type": "function"
    },
    {
      "inputs": [
        {
          "internalType": "uint256",
          "name": "_pairId",
          "type": "uint256"
        },
        {
          "internalType": "uint256",
          "name": "_price",
          "type": "uint256"
        },
        {
          "internalType": "uint8",
          "name": "_pairDecimals",
          "type": "uint8"
        }
      ],
      "name": "setPairValue",
      "outputs": [],
      "stateMutability": "nonpayable",
      "type": "function"
    },
    {
      "inputs": [
        {
          "internalType": "uint256",
          "name": "_pairId",
          "type": "uint256"
        },
        {
          "internalType": "uint8",
          "name": "_baseDecimals",
          "type": "uint8"
        },
        {
          "internalType": "uint8",
          "name": "_quoteDecimals",
          "type": "uint8"
        }
      ],
      "name": "setBaseQuoteDecimals",
      "outputs": [],
      "stateMutability": "nonpayable",
      "type": "function"
    },
    {
      "inputs": [
        {
          "internalType": "uint256",
          "name": "_pairId",
          "type": "uint256"
        }
      ],
      "name": "getPairValue",
      "outputs": [
        {
          "internalType": "uint256",
          "name": "",
          "type": "uint256"
        }
      ],
      "stateMutability": "view",
      "type": "function",
      "constant": true
    },
    {
      "inputs": [
        {
          "internalType": "uint256",
          "name": "_pairId",
          "type": "uint256"
        }
      ],
      "name": "getPairName",
      "outputs": [
        {
          "internalType": "string",
          "name": "",
          "type": "string"
        }
      ],
      "stateMutability": "view",
      "type": "function",
      "constant": true
    },
    {
      "inputs": [
        {
          "internalType": "uint256",
          "name": "_pairId",
          "type": "uint256"
        }
      ],
      "name": "getPairDecimals",
      "outputs": [
        {
          "internalType": "uint8",
          "name": "",
          "type": "uint8"
        }
      ],
      "stateMutability": "view",
      "type": "function",
      "constant": true
    },
    {
      "inputs": [
        {
          "internalType": "uint256",
          "name": "_pairId",
          "type": "uint256"
        }
      ],
      "name": "getPairBaseDecimals",
      "outputs": [
        {
          "internalType": "uint8",
          "name": "",
          "type": "uint8"
        }
      ],
      "stateMutability": "view",
      "type": "function",
      "constant": true
    },
    {
      "inputs": [
        {
          "internalType": "uint256",
          "name": "_pairId",
          "type": "uint256"
        }
      ],
      "name": "getPairQuoteDecimals",
      "outputs": [
        {
          "internalType": "uint8",
          "name": "",
          "type": "uint8"
        }
      ],
      "stateMutability": "view",
      "type": "function",
      "constant": true
    },
    {
      "inputs": [
        {
          "internalType": "uint256",
          "name": "numerator",
          "type": "uint256"
        },
        {
          "internalType": "uint256",
          "name": "denominator",
          "type": "uint256"
        },
        {
          "internalType": "uint256",
          "name": "precision",
          "type": "uint256"
        }
      ],
      "name": "roundUp",
      "outputs": [
        {
          "internalType": "uint256",
          "name": "",
          "type": "uint256"
        }
      ],
      "stateMutability": "pure",
      "type": "function",
      "constant": true
    },
    {
      "inputs": [
        {
          "internalType": "uint256",
          "name": "numerator",
          "type": "uint256"
        },
        {
          "internalType": "uint256",
          "name": "denominator",
          "type": "uint256"
        },
        {
          "internalType": "uint256",
          "name": "precision",
          "type": "uint256"
        }
      ],
      "name": "roundDn",
      "outputs": [
        {
          "internalType": "uint256",
          "name": "",
          "type": "uint256"
        }
      ],
      "stateMutability": "pure",
      "type": "function",
      "constant": true
    },
    {
      "inputs": [
        {
          "internalType": "uint256",
          "name": "_collAmount",
          "type": "uint256"
        }
      ],
      "name": "calculateCollFeesOnActivation",
      "outputs": [
        {
          "internalType": "uint256",
          "name": "",
          "type": "uint256"
        }
      ],
      "stateMutability": "view",
      "type": "function",
      "constant": true
    },
    {
      "inputs": [
        {
          "internalType": "uint256",
          "name": "_pairId",
          "type": "uint256"
        },
        {
          "internalType": "uint256",
          "name": "_askAmount",
          "type": "uint256"
        }
      ],
      "name": "calcMinCollateralAmount",
      "outputs": [
        {
          "internalType": "uint256",
          "name": "",
          "type": "uint256"
        }
      ],
      "stateMutability": "view",
      "type": "function",
      "constant": true
    },
    {
      "inputs": [
        {
          "internalType": "uint256",
          "name": "_pairId",
          "type": "uint256"
        },
        {
          "internalType": "uint256",
          "name": "_askAmount",
          "type": "uint256"
        }
      ],
      "name": "calcMinCollateralWithFeesAmount",
      "outputs": [
        {
          "internalType": "uint256",
          "name": "",
          "type": "uint256"
        }
      ],
      "stateMutability": "view",
      "type": "function",
      "constant": true
    },
    {
      "inputs": [
        {
          "internalType": "uint256",
          "name": "_value",
          "type": "uint256"
        }
      ],
      "name": "setEarlySettlementWindow",
      "outputs": [],
      "stateMutability": "nonpayable",
      "type": "function"
    },
    {
      "inputs": [
        {
          "internalType": "uint256",
          "name": "_value",
          "type": "uint256"
        }
      ],
      "name": "setForeclosureWindow",
      "outputs": [],
      "stateMutability": "nonpayable",
      "type": "function"
    },
    {
      "inputs": [
        {
          "internalType": "uint256",
          "name": "_value",
          "type": "uint256"
        }
      ],
      "name": "setForeclosureRatio",
      "outputs": [],
      "stateMutability": "nonpayable",
      "type": "function"
    },
    {
      "inputs": [
        {
          "internalType": "uint256",
          "name": "_value",
          "type": "uint256"
        }
      ],
      "name": "setInstantForeclosureRatio",
      "outputs": [],
      "stateMutability": "nonpayable",
      "type": "function"
    },
    {
      "inputs": [
        {
          "internalType": "uint256",
          "name": "_value",
          "type": "uint256"
        }
      ],
      "name": "setMinRpbRate",
      "outputs": [],
      "stateMutability": "nonpayable",
      "type": "function"
    },
    {
      "inputs": [
        {
          "internalType": "uint256",
          "name": "_value",
          "type": "uint256"
        }
      ],
      "name": "setRequiredCollateralRatio",
      "outputs": [],
      "stateMutability": "nonpayable",
      "type": "function"
    },
    {
      "inputs": [
        {
          "internalType": "uint256",
          "name": "_value",
          "type": "uint256"
        }
      ],
      "name": "setFactoryFees",
      "outputs": [],
      "stateMutability": "nonpayable",
      "type": "function"
    },
    {
      "inputs": [
        {
          "internalType": "uint256",
          "name": "_value",
          "type": "uint256"
        }
      ],
      "name": "setEarlySettlementFee",
      "outputs": [],
      "stateMutability": "nonpayable",
      "type": "function"
    },
    {
      "inputs": [
        {
          "internalType": "uint256",
          "name": "_value",
          "type": "uint256"
        }
      ],
      "name": "setUserRewardShare",
      "outputs": [],
      "stateMutability": "nonpayable",
      "type": "function"
    },
    {
      "inputs": [
        {
          "internalType": "uint256",
          "name": "_value",
          "type": "uint256"
        }
      ],
      "name": "setVaultShares",
      "outputs": [],
      "stateMutability": "nonpayable",
      "type": "function"
    },
    {
      "inputs": [
        {
          "internalType": "uint256",
          "name": "_value",
          "type": "uint256"
        }
      ],
      "name": "setUndercollateralizedForeclosingMultiple",
      "outputs": [],
      "stateMutability": "nonpayable",
      "type": "function"
    },
    {
      "inputs": [
        {
          "internalType": "uint256",
          "name": "_value",
          "type": "uint256"
        }
      ],
      "name": "setAtRiskForeclosedMultiple",
      "outputs": [],
      "stateMutability": "nonpayable",
      "type": "function"
    },
    {
      "inputs": [
        {
          "internalType": "uint256",
          "name": "_value",
          "type": "uint256"
        }
      ],
      "name": "setCancellationFees",
      "outputs": [],
      "stateMutability": "nonpayable",
      "type": "function"
    },
    {
      "inputs": [],
      "name": "getGeneralParams",
      "outputs": [
        {
          "components": [
            {
              "internalType": "uint256",
              "name": "minRpbRate",
              "type": "uint256"
            },
            {
              "internalType": "uint256",
              "name": "earlySettlementWindow",
              "type": "uint256"
            },
            {
              "internalType": "uint256",
              "name": "foreclosureWindow",
              "type": "uint256"
            },
            {
              "internalType": "uint256",
              "name": "requiredCollateralRatio",
              "type": "uint256"
            },
            {
              "internalType": "uint256",
              "name": "foreclosingRatio",
              "type": "uint256"
            },
            {
              "internalType": "uint256",
              "name": "instantForeclosureRatio",
              "type": "uint256"
            },
            {
              "internalType": "address",
              "name": "factoryAddress",
              "type": "address"
            },
            {
              "internalType": "address",
              "name": "ethDeployerAddress",
              "type": "address"
            },
            {
              "internalType": "address",
              "name": "tokenDeployerAddress",
              "type": "address"
            }
          ],
          "internalType": "struct IJLoanCommons.params",
          "name": "",
          "type": "tuple"
        }
      ],
      "stateMutability": "view",
      "type": "function",
      "constant": true
    },
    {
      "inputs": [],
      "name": "getGeneralFees",
      "outputs": [
        {
          "components": [
            {
              "internalType": "uint256",
              "name": "factoryFees",
              "type": "uint256"
            },
            {
              "internalType": "uint256",
              "name": "earlySettlementFee",
              "type": "uint256"
            },
            {
              "internalType": "uint256",
              "name": "userRewardShare",
              "type": "uint256"
            },
            {
              "internalType": "uint256",
              "name": "vaultShare",
              "type": "uint256"
            },
            {
              "internalType": "uint256",
              "name": "undercollateralizedForeclosingMultiple",
              "type": "uint256"
            },
            {
              "internalType": "uint256",
              "name": "atRiskForeclosedMultiple",
              "type": "uint256"
            },
            {
              "internalType": "uint256",
              "name": "cancellationFees",
              "type": "uint256"
            }
          ],
          "internalType": "struct IJLoanCommons.feesParams",
          "name": "",
          "type": "tuple"
        }
      ],
      "stateMutability": "view",
      "type": "function",
      "constant": true
    },
    {
      "inputs": [],
      "name": "getMsgSenderBalance",
      "outputs": [
        {
          "internalType": "uint256",
          "name": "",
          "type": "uint256"
        }
      ],
      "stateMutability": "view",
      "type": "function",
      "constant": true
    },
    {
      "inputs": [
        {
          "internalType": "uint256",
          "name": "_pairId",
          "type": "uint256"
        },
        {
          "internalType": "uint256",
          "name": "_borrowedAskAmount",
          "type": "uint256"
        },
        {
          "internalType": "uint256",
          "name": "_rpbRate",
          "type": "uint256"
        }
      ],
      "name": "createNewEthLoan",
      "outputs": [
        {
          "internalType": "address",
          "name": "",
          "type": "address"
        }
      ],
      "stateMutability": "payable",
      "type": "function",
      "payable": true
    },
    {
      "inputs": [
        {
          "internalType": "uint256",
          "name": "_pairId",
          "type": "uint256"
        },
        {
          "internalType": "uint256",
          "name": "_borrowedAskAmount",
          "type": "uint256"
        },
        {
          "internalType": "uint256",
          "name": "_rpbRate",
          "type": "uint256"
        }
      ],
      "name": "createNewTokenLoan",
      "outputs": [
        {
          "internalType": "address",
          "name": "",
          "type": "address"
        }
      ],
      "stateMutability": "nonpayable",
      "type": "function"
    },
    {
      "inputs": [],
      "name": "getEnvironmentDeployers",
      "outputs": [
        {
          "internalType": "address",
          "name": "",
          "type": "address"
        },
        {
          "internalType": "address",
          "name": "",
          "type": "address"
        }
      ],
      "stateMutability": "view",
      "type": "function",
      "constant": true
    },
    {
      "inputs": [
        {
          "internalType": "uint256",
          "name": "_idx",
          "type": "uint256"
        }
      ],
      "name": "getDeployedLoan",
      "outputs": [
        {
          "internalType": "address",
          "name": "",
          "type": "address"
        }
      ],
      "stateMutability": "view",
      "type": "function",
      "constant": true
    }
  ],
  "bytecode": "0x60806040523480156200001157600080fd5b5060405162002c6c38038062002c6c833981016040819052620000349162000166565b6000620000496001600160e01b036200016216565b600080546001600160a01b0319166001600160a01b0383169081178255604051929350917f8be0079c531659141344cd1fd0a4f28419497f9722a3daafe3b4186f6b6457e0908290a35062083d60600a55614650600b5560c8600c556096600d556078600e55633b9aca00600955601080546001600160a01b039384166001600160a01b03199182168117909255601180549390941692811683179093556001805484169091178155600280548416909217909155600f805490921630179091556005601281905562107ac0601355605060149081556015556103e8601655610bb860175560036018819055600060078190559081905533815260209190915260409020805460ff1916909117905543601955620001bd565b3390565b6000806040838503121562000179578182fd5b82516200018681620001a4565b60208401519092506200019981620001a4565b809150509250929050565b6001600160a01b0381168114620001ba57600080fd5b50565b612a9f80620001cd6000396000f3fe60806040526004361061031a5760003560e01c8063731429bf116101ab578063b91ac788116100f7578063dbf1e79911610095578063f0427dff1161006f578063f0427dff14610926578063f2fde38b14610946578063fc881f2514610966578063fd344ceb146109865761031a565b8063dbf1e799146108dc578063e132d941146108f1578063e5549e26146109065761031a565b8063c299e129116100d1578063c299e1291461084c578063c2c1e3401461086c578063ca937ea61461088c578063d575c745146108b95761031a565b8063b91ac788146107e4578063bb38f75a14610817578063c175771b1461082c5761031a565b80638da5cb5b116101645780639b9bbce21161013e5780639b9bbce21461075c578063ac4854e01461077c578063afdcfe3c1461079c578063b724e7b1146107bc5761031a565b80638da5cb5b146107075780638e354d401461071c578063914e510c1461073c5761031a565b8063731429bf1461065257806373aa302814610672578063799d564c146106925780637c2f7b96146106b257806383e099da146106d25780638bad0c0a146106f25761031a565b806339075d891161026a578063551328e71161022357806370480275116101fd57806370480275146105d357806370d531a8146105f357806370fb1a491461061d578063715018a61461063d5761031a565b8063551328e71461058057806357ac3e0a14610593578063606a04dd146105b35761031a565b806339075d89146104c75780633ef6b437146104dc57806343c5719c146104fc5780634fd758791461051c57806352ede5f61461053e578063538ba4f91461055e5761031a565b80631a55d9e9116102d75780632669f19a116102b15780632669f19a1461045d57806326e9fdd81461047d5780632a3d7c811461049d5780632dfe9694146104b25761031a565b80631a55d9e9146103f9578063215b0dc61461041b57806324d7806c146104305761031a565b8063015894531461031f578063067bd3b414610341578063075761f01461036c5780630b164eb71461038c5780631013aa24146103ac5780631785f53c146103d9575b600080fd5b34801561032b57600080fd5b5061033f61033a36600461230c565b6109a6565b005b34801561034d57600080fd5b506103566109e9565b604051610363919061297b565b60405180910390f35b34801561037857600080fd5b5061035661038736600461235d565b6109ef565b34801561039857600080fd5b5061033f6103a736600461230c565b610a56565b3480156103b857600080fd5b506103cc6103c736600461230c565b610a90565b6040516103639190612a32565b3480156103e557600080fd5b5061033f6103f43660046121db565b610ad3565b34801561040557600080fd5b5061040e610b04565b60405161036391906128ae565b34801561042757600080fd5b50610356610b52565b34801561043c57600080fd5b5061045061044b3660046121db565b610b58565b6040516103639190612579565b34801561046957600080fd5b5061035661047836600461230c565b610b76565b34801561048957600080fd5b5061033f61049836600461230c565b610baf565b3480156104a957600080fd5b50610356610be9565b3480156104be57600080fd5b50610356610bef565b3480156104d357600080fd5b50610356610bf4565b3480156104e857600080fd5b5061033f6104f73660046121db565b610bfa565b34801561050857600080fd5b5061035661051736600461233c565b610caf565b34801561052857600080fd5b50610531610ce9565b60405161036391906128fc565b34801561054a57600080fd5b5061035661055936600461230c565b610d56565b34801561056a57600080fd5b50610573610d7b565b60405161036391906124b9565b61057361058e36600461235d565b610d80565b34801561059f57600080fd5b506103cc6105ae36600461230c565b610f22565b3480156105bf57600080fd5b5061033f6105ce366004612388565b610f5e565b3480156105df57600080fd5b5061033f6105ee3660046121db565b61103d565b3480156105ff57600080fd5b506106086110b7565b604051610363999897969594939291906129a3565b34801561062957600080fd5b5061057361063836600461230c565b6110e6565b34801561064957600080fd5b5061033f611101565b34801561065e57600080fd5b5061035661066d36600461235d565b611180565b34801561067e57600080fd5b5061033f61068d36600461230c565b6111c1565b34801561069e57600080fd5b5061033f6106ad36600461230c565b6111fb565b3480156106be57600080fd5b506103cc6106cd36600461230c565b611235565b3480156106de57600080fd5b5061033f6106ed36600461230c565b611278565b3480156106fe57600080fd5b5061033f6112b2565b34801561071357600080fd5b506105736112e2565b34801561072857600080fd5b5061033f6107373660046121db565b6112f1565b34801561074857600080fd5b5061033f61075736600461230c565b6113a6565b34801561076857600080fd5b5061057361077736600461235d565b6113e0565b34801561078857600080fd5b5061033f61079736600461230c565b61167b565b3480156107a857600080fd5b5061033f6107b736600461230c565b6116b5565b3480156107c857600080fd5b506107d16116ef565b60405161036397969594939291906129f1565b3480156107f057600080fd5b506108046107ff36600461230c565b611707565b6040516103639796959493929190612597565b34801561082357600080fd5b506105736117e6565b34801561083857600080fd5b5061035661084736600461233c565b6117f5565b34801561085857600080fd5b5061033f61086736600461230c565b611954565b34801561087857600080fd5b5061033f61088736600461230c565b61198e565b34801561089857600080fd5b506108ac6108a736600461230c565b6119c8565b6040516103639190612584565b3480156108c557600080fd5b506108ce611a8a565b6040516103639291906124cd565b3480156108e857600080fd5b50610573611aa1565b3480156108fd57600080fd5b50610356611ab0565b34801561091257600080fd5b5061033f6109213660046123bd565b611ab6565b34801561093257600080fd5b5061033f61094136600461230c565b611bd0565b34801561095257600080fd5b5061033f6109613660046121db565b611c0a565b34801561097257600080fd5b5061033f610981366004612213565b611cc0565b34801561099257600080fd5b5061033f6109a136600461230c565b611e4a565b6109ae611e84565b6000546001600160a01b039081169116146109e45760405162461bcd60e51b81526004016109db906127ce565b60405180910390fd5b601555565b60085481565b600080610a16610a0684600163ffffffff611e8816565b8690600a0a63ffffffff611eb416565b90506000610a4c600a610a406005610a34868a63ffffffff611eee16565b9063ffffffff611e8816565b9063ffffffff611eee16565b9695505050505050565b610a5e611e84565b6000546001600160a01b03908116911614610a8b5760405162461bcd60e51b81526004016109db906127ce565b601755565b60006007548210610ab35760405162461bcd60e51b81526004016109db9061269d565b50600090815260066020526040902060020154600160a81b900460ff1690565b610adc33610b58565b610af85760405162461bcd60e51b81526004016109db906126cb565b610b0181611f30565b50565b610b0c612083565b506040805160e08101825260125481526013546020820152601454918101919091526015546060820152601654608082015260175460a082015260185460c08201525b90565b60035481565b6001600160a01b031660009081526005602052604090205460ff1690565b60006007548210610b995760405162461bcd60e51b81526004016109db9061269d565b5060009081526006602052604090206001015490565b610bb7611e84565b6000546001600160a01b03908116911614610be45760405162461bcd60e51b81526004016109db906127ce565b600d55565b601a5481565b333190565b60195481565b610c02611e84565b6000546001600160a01b03908116911614610c2f5760405162461bcd60e51b81526004016109db906127ce565b6001600160a01b038116610c555760405162461bcd60e51b81526004016109db90612760565b6011546001600160a01b0382811691161415610c835760405162461bcd60e51b81526004016109db90612831565b601180546001600160a01b039092166001600160a01b0319928316811790915560028054909216179055565b600080610cbc84846117f5565b90506000610cc982610d56565b90506000610cdd838363ffffffff611e8816565b93505050505b92915050565b610cf16120c0565b5060408051610120810182526009548152600a546020820152600b5491810191909152600c546060820152600d546080820152600e5460a0820152600f546001600160a01b0390811660c0830152601054811660e08301526011541661010082015290565b601254600090610ce390610d7190849063ffffffff611eb416565b6103e860006109ef565b600081565b600033610d9f5760405162461bcd60e51b81526004016109db90612877565b6000610dab8585610caf565b905080341015610dcd5760405162461bcd60e51b81526004016109db90612729565b6000858152600660205260408082206003908101546001549154925163fefd3d0160e01b81526001600160a01b039182169493919092169163fefd3d01913491610e259133918d908d908d9030908c906004016124e7565b6020604051808303818588803b158015610e3e57600080fd5b505af1158015610e52573d6000803e3d6000fd5b50505050506040513d601f19601f82011682018060405250810190610e7791906121f7565b6003805460009081526004602052604080822080546001600160a01b0319166001600160a01b0386169081179091559254905193945091923392917f8a44742c484a39daf028ba1b1d1ce90543dc768123c8de4b0c5fd3443bba77f491610ee29134918a9190612984565b60405180910390a4600354610efe90600163ffffffff611e8816565b600355600854610f1590600163ffffffff611e8816565b6008559695505050505050565b60006007548210610f455760405162461bcd60e51b81526004016109db9061269d565b5060009081526006602052604090206002015460ff1690565b610f6733610b58565b610f835760405162461bcd60e51b81526004016109db906126cb565b6007548310610fa45760405162461bcd60e51b81526004016109db9061269d565b600083815260066020526040908190206001810184905560028101805460ff191660ff85161790559051610fd89190612449565b6040805191829003822060008681526006602052919091206001810154600290910154919286927f8faf8b67d977271b82c52dedfc0bf5414b0c347fd7cb985a8661863fb6954c1c9261103092909160ff1690612a21565b60405180910390a3505050565b61104633610b58565b6110625760405162461bcd60e51b81526004016109db906126cb565b6001600160a01b0381166110885760405162461bcd60e51b81526004016109db90612803565b61109181610b58565b156110ae5760405162461bcd60e51b81526004016109db906125e9565b610b0181611f8b565b600954600a54600b54600c54600d54600e54600f546010546011546001600160a01b0392831692918216911689565b6000908152600460205260409020546001600160a01b031690565b611109611e84565b6000546001600160a01b039081169116146111365760405162461bcd60e51b81526004016109db906127ce565b600080546040516001600160a01b03909116907f8be0079c531659141344cd1fd0a4f28419497f9722a3daafe3b4186f6b6457e0908390a3600080546001600160a01b0319169055565b600080611197610a0684600163ffffffff611e8816565b90506000610a4c600a610a4060056111b5868a63ffffffff611eee16565b9063ffffffff611fde16565b6111c9611e84565b6000546001600160a01b039081169116146111f65760405162461bcd60e51b81526004016109db906127ce565b600b55565b611203611e84565b6000546001600160a01b039081169116146112305760405162461bcd60e51b81526004016109db906127ce565b601355565b600060075482106112585760405162461bcd60e51b81526004016109db9061269d565b50600090815260066020526040902060030154600160a01b900460ff1690565b611280611e84565b6000546001600160a01b039081169116146112ad5760405162461bcd60e51b81526004016109db906127ce565b601255565b6112bb33610b58565b6112d75760405162461bcd60e51b81526004016109db906126cb565b6112e033611f30565b565b6000546001600160a01b031690565b6112f9611e84565b6000546001600160a01b039081169116146113265760405162461bcd60e51b81526004016109db906127ce565b6001600160a01b03811661134c5760405162461bcd60e51b81526004016109db90612760565b6010546001600160a01b038281169116141561137a5760405162461bcd60e51b81526004016109db90612831565b601080546001600160a01b039092166001600160a01b0319928316811790915560018054909216179055565b6113ae611e84565b6000546001600160a01b039081169116146113db5760405162461bcd60e51b81526004016109db906127ce565b601655565b6000336113ff5760405162461bcd60e51b81526004016109db90612877565b600061140b8585610caf565b600086815260066020526040808220600201546011549151636eb1769f60e11b815293945091926101009092046001600160a01b039081169263dd62ed3e9261145b9233929116906004016124cd565b60206040518083038186803b15801561147357600080fd5b505afa158015611487573d6000803e3d6000fd5b505050506040513d601f19601f820116820180604052508101906114ab9190612324565b9050818110156114cd5760405162461bcd60e51b81526004016109db906126f2565b60006006600088815260200190815260200160002060020160019054906101000a90046001600160a01b0316905060006006600089815260200190815260200160002060030160009054906101000a90046001600160a01b031690506000600260009054906101000a90046001600160a01b03166001600160a01b03166374faec72336003548c8c8c308a8a8e6040518a63ffffffff1660e01b815260040161157e99989796959493929190612526565b602060405180830381600087803b15801561159857600080fd5b505af11580156115ac573d6000803e3d6000fd5b505050506040513d601f19601f820116820180604052508101906115d091906121f7565b600380546000908152600460205260409081902080546001600160a01b0319166001600160a01b0385169081179091559154905192935090913391907f2b20c25dbfd43424d1061108c660f42dd425fe3d235f747c12df98a7c0d3e014906116399088906124b9565b60405180910390a460035461165590600163ffffffff611e8816565b60035560085461166c90600163ffffffff611e8816565b60085598975050505050505050565b611683611e84565b6000546001600160a01b039081169116146116b05760405162461bcd60e51b81526004016109db906127ce565b600c55565b6116bd611e84565b6000546001600160a01b039081169116146116ea5760405162461bcd60e51b81526004016109db906127ce565b601455565b60125460135460145460155460165460175460185487565b60066020908152600091825260409182902080548351601f6002600019610100600186161502019093169290920491820184900484028101840190945280845290929183919083018282801561179e5780601f106117735761010080835404028352916020019161179e565b820191906000526020600020905b81548152906001019060200180831161178157829003601f168201915b505050600184015460028501546003909501549394909360ff80831694506001600160a01b03610100840481169450600160a81b909304811692821691600160a01b90041687565b6001546001600160a01b031681565b60008061180184610b76565b600085815260066020526040812060020154600c549293509091611858916118509160ff909116600a0a9061184490606490610a40908a9063ffffffff611eb416565b9063ffffffff611eb416565b8360006109ef565b6000868152600660205260409020600381015460029091015491925060ff600160a01b9091048116600160a81b90920416106118ef57600085815260066020526040812060038101546002909101546118cc91600160a81b90910460ff90811691600160a01b90041663ffffffff611fde16565b90506118e76005610a3484600a85900a63ffffffff611eb416565b91505061194c565b6000858152600660205260408120600281015460039091015461192d91600160a01b90910460ff90811691600160a81b90041663ffffffff611fde16565b90506119486005610a3484600a85900a63ffffffff611eee16565b9150505b949350505050565b61195c611e84565b6000546001600160a01b039081169116146119895760405162461bcd60e51b81526004016109db906127ce565b600955565b611996611e84565b6000546001600160a01b039081169116146119c35760405162461bcd60e51b81526004016109db906127ce565b600a55565b606060075482106119eb5760405162461bcd60e51b81526004016109db9061269d565b60008281526006602090815260409182902080548351601f600260001961010060018616150201909316929092049182018490048402810184019094528084529091830182828015611a7e5780601f10611a5357610100808354040283529160200191611a7e565b820191906000526020600020905b815481529060010190602001808311611a6157829003601f168201915b50505050509050919050565b6001546002546001600160a01b0391821691169091565b6002546001600160a01b031681565b60075481565b611abe611e84565b6000546001600160a01b03908116911614611aeb5760405162461bcd60e51b81526004016109db906127ce565b6007548310611b0c5760405162461bcd60e51b81526004016109db9061269d565b6000838152600660205260409081902060028101805460ff808716600160a81b0260ff60a81b1990921691909117909155600382018054918516600160a01b0260ff60a01b199092169190911790559051611b679190612449565b6040805191829003822060008681526006602052919091206002810154600390910154919286927f0c7c54329d4708979e5479f990e4abb586ffb676d9b402b2459467c86721efc79261103092600160a81b90910460ff90811692600160a01b90041690612a40565b611bd8611e84565b6000546001600160a01b03908116911614611c055760405162461bcd60e51b81526004016109db906127ce565b600e55565b611c12611e84565b6000546001600160a01b03908116911614611c3f5760405162461bcd60e51b81526004016109db906127ce565b6001600160a01b038116611c655760405162461bcd60e51b81526004016109db90612620565b600080546040516001600160a01b03808516939216917f8be0079c531659141344cd1fd0a4f28419497f9722a3daafe3b4186f6b6457e091a3600080546001600160a01b0319166001600160a01b0392909216919091179055565b611cc933610b58565b611ce55760405162461bcd60e51b81526004016109db906126cb565b6040805160e081018252888152602080820189905260ff808916838501526001600160a01b0380891660608501528782166080850152861660a0840152841660c0830152600754600090815260068252929092208151805192939192611d4e9284920190612127565b50602082015160018201556040808301516002830180546060860151608087015160ff1990921660ff94851617610100600160a81b0319166101006001600160a01b03928316021760ff60a81b1916600160a81b928516929092029190911790915560a08501516003909401805460c0909601516001600160a01b0319909616949091169390931760ff60a01b1916600160a01b949091169390930292909217905560075490517f191c33c4db02b29dcf62df443c1c3a565f4628da46040183c5c24ab61e6e42ae90611e22908a90612584565b60405180910390a2600754611e3e90600163ffffffff611e8816565b60075550505050505050565b611e52611e84565b6000546001600160a01b03908116911614611e7f5760405162461bcd60e51b81526004016109db906127ce565b601855565b3390565b600082820183811015611ead5760405162461bcd60e51b81526004016109db90612666565b9392505050565b600082611ec357506000610ce3565b82820282848281611ed057fe5b0414611ead5760405162461bcd60e51b81526004016109db9061278d565b6000611ead83836040518060400160405280601a81526020017f536166654d6174683a206469766973696f6e206279207a65726f000000000000815250612020565b6001600160a01b03811660009081526005602052604090819020805460ff19169055517f99f4c949f294dd13aa62d19c1344b81968121fe570d11657ebd54aae55ac0f2090611f8090439061297b565b60405180910390a150565b6001600160a01b03811660009081526005602052604090819020805460ff19166001179055517f6d08be0da99b3a8dabb8a9d0bd4ebece8d00f747b0d0e6c29f97508f1a40a29190611f8090439061297b565b6000611ead83836040518060400160405280601e81526020017f536166654d6174683a207375627472616374696f6e206f766572666c6f770000815250612057565b600081836120415760405162461bcd60e51b81526004016109db9190612584565b50600083858161204d57fe5b0495945050505050565b6000818484111561207b5760405162461bcd60e51b81526004016109db9190612584565b505050900390565b6040518060e00160405280600081526020016000815260200160008152602001600081526020016000815260200160008152602001600081525090565b60405180610120016040528060008152602001600081526020016000815260200160008152602001600081526020016000815260200160006001600160a01b0316815260200160006001600160a01b0316815260200160006001600160a01b031681525090565b828054600181600116156101000203166002900490600052602060002090601f016020900481019282601f1061216857805160ff1916838001178555612195565b82800160010185558215612195579182015b8281111561219557825182559160200191906001019061217a565b506121a19291506121a5565b5090565b610b4f91905b808211156121a157600081556001016121ab565b8035610ce381612a54565b803560ff81168114610ce357600080fd5b6000602082840312156121ec578081fd5b8135611ead81612a54565b600060208284031215612208578081fd5b8151611ead81612a54565b600080600080600080600060e0888a03121561222d578283fd5b873567ffffffffffffffff80821115612244578485fd5b818a018b601f820112612255578586fd5b8035925081831115612265578586fd5b6040516020601f8501601f1916820181018481118382101715612286578889fd5b60405284825282850181018e101561229c578788fd5b848184018284013793810184018790529950505088013595506122c28960408a016121ca565b94506122d18960608a016121bf565b93506122e08960808a016121ca565b92506122ef8960a08a016121bf565b91506122fe8960c08a016121ca565b905092959891949750929550565b60006020828403121561231d578081fd5b5035919050565b600060208284031215612335578081fd5b5051919050565b6000806040838503121561234e578182fd5b50508035926020909101359150565b600080600060608486031215612371578283fd5b505081359360208301359350604090920135919050565b60008060006060848603121561239c578283fd5b83359250602084013591506123b485604086016121ca565b90509250925092565b6000806000606084860312156123d1578283fd5b833592506123e285602086016121ca565b91506123b485604086016121ca565b6001600160a01b03169052565b60008151808452815b8181101561242357602081850181015186830182015201612407565b818111156124345782602083870101525b50601f01601f19169290920160200192915050565b6000808354600180821660008114612468576001811461247f576124ae565b60ff198316865260028304607f16860193506124ae565b600283048786526020808720875b838110156124a65781548a82015290850190820161248d565b505050860193505b509195945050505050565b6001600160a01b0391909116815260200190565b6001600160a01b0392831681529116602082015260400190565b6001600160a01b0397881681526020810196909652604086019490945260608501929092526080840152831660a083015290911660c082015260e00190565b6001600160a01b03998a1681526020810198909852604088019690965260608701949094526080860192909252851660a0850152841660c084015290921660e08201526101008101919091526101200190565b901515815260200190565b600060208252611ead60208301846123fe565b600060e082526125aa60e083018a6123fe565b60208301989098525060ff95861660408201526001600160a01b0394851660608201529285166080840152921660a0820152911660c090910152919050565b6020808252601e908201527f204164647265737320616c72656164792041646d696e6973747261746f720000604082015260600190565b60208082526026908201527f4f776e61626c653a206e6577206f776e657220697320746865207a65726f206160408201526564647265737360d01b606082015260800190565b6020808252601b908201527f536166654d6174683a206164646974696f6e206f766572666c6f770000000000604082015260600190565b6020808252601490820152737061697220646f6573206e6f742065786973747360601b604082015260600190565b6020808252600d908201526c4e6f7420616e2041646d696e2160981b604082015260600190565b60208082526019908201527f436865636b2074686520746f6b656e20616c6c6f77616e636500000000000000604082015260600190565b60208082526017908201527f506c656173652073656e64206d6f726520657468657273000000000000000000604082015260600190565b6020808252601390820152721859191c995cdcc81b9bdd08185b1b1bddd959606a1b604082015260600190565b60208082526021908201527f536166654d6174683a206d756c7469706c69636174696f6e206f766572666c6f6040820152607760f81b606082015260800190565b6020808252818101527f4f776e61626c653a2063616c6c6572206973206e6f7420746865206f776e6572604082015260600190565b6020808252601490820152734e6f7420612076616c696420616464726573732160601b604082015260600190565b60208082526026908201527f6e65772061646472657373206973207468652073616d6520617320746865206f6040820152656c64206f6e6560d01b606082015260800190565b6020808252601a908201527f53656e6465722061646472657373206e6f7420616c6c6f776564000000000000604082015260600190565b600060e082019050825182526020830151602083015260408301516040830152606083015160608301526080830151608083015260a083015160a083015260c083015160c083015292915050565b600061012082019050825182526020830151602083015260408301516040830152606083015160608301526080830151608083015260a083015160a083015260018060a01b0360c08401511660c083015260e083015161295f60e08401826123f1565b5061010080840151612973828501826123f1565b505092915050565b90815260200190565b92835260208301919091526001600160a01b0316604082015260600190565b988952602089019790975260408801959095526060870193909352608086019190915260a08501526001600160a01b0390811660c085015290811660e0840152166101008201526101200190565b968752602087019590955260408601939093526060850191909152608084015260a083015260c082015260e00190565b91825260ff16602082015260400190565b60ff91909116815260200190565b60ff92831681529116602082015260400190565b6001600160a01b0381168114610b0157600080fdfea2646970667358221220da348228ee6d865c90eccb815274a1ff031a0052242000795a6cebab0849804864736f6c634300060b0033",
  "immutableReferences": {},
  "source": "// SPDX-License-Identifier: MIT\n\npragma solidity ^0.6.11;\npragma experimental ABIEncoderV2;\n\nimport \"@openzeppelin/contracts/math/SafeMath.sol\";\nimport \"@openzeppelin/contracts/access/Ownable.sol\";\nimport \"@openzeppelin/contracts/token/ERC20/IERC20.sol\";\nimport \"./IJLoanCommons.sol\";\nimport \"./IJLoanEthDeployer.sol\";\nimport \"./IJLoanTokenDeployer.sol\";\n\ncontract JFactory is Ownable, IJLoanCommons { \n    using SafeMath for uint256;\n\n    address public constant ZERO_ADDRESS = 0x0000000000000000000000000000000000000000;\n\n    IJLoanEthDeployer public ethDeplContract;\n    IJLoanTokenDeployer public tokenDeplContract;\n\n    uint public loanID;\n    mapping(uint => address) internal deployedLoans;\n\n    mapping (address => bool) private _Admins;\n \n    struct Pair {\n        string pairName;\n        uint pairValue;\n        uint8 pairDecimals;\n        address baseAddress;\n        uint8 baseDecimals;\n        address quoteAddress;\n        uint8 quoteDecimals;\n    }\n    mapping(uint => Pair) public pairs;\n    uint public pairCounter;\n\n    //mapping(uint => address) public tokenContractAddresses;\n    uint public contractCounter;\n\n    params public generalParams;\n    feesParams public generalFees;\n\n    uint public factoryDeployBlock;\n    uint public lastDepositBlock;\n\n    event NewPair(uint indexed _pairId, string _pairName);\n    event NewPrice(uint indexed pairId, string indexed pairName, uint pairValue, uint8 pairDecimals);\n    event NewPairDecimals(uint indexed pairId, string indexed pairName, uint8 baseDecimals, uint8 quoteDecimals);\n    event NewPairAddresses(uint indexed pairId, string indexed pairName, address baseAddress , address quoteAddress);\n    event AdminAdded(uint blockNumber);\n    event AdminRemoved(uint blockNumber);\n    event NewEthLoanCreated(\n        uint indexed loanId,\n        address indexed sender,\n        address indexed newLoan,\n        uint value,\n        uint coll,\n        address collateralTokenAddress\n    );\n    event NewTokenLoanCreated(\n        uint indexed loanId,\n        address indexed sender,\n        address indexed newLoan,\n        address collateralTokenAddress\n    );\n    \n    constructor (address _ethDepl, address _tokenDepl) public {\n        generalParams.earlySettlementWindow = 540000;\n        generalParams.foreclosureWindow = 18000;\n        generalParams.requiredCollateralRatio = 200;\n        generalParams.foreclosingRatio = 150;\n        generalParams.instantForeclosureRatio = 120;\n        generalParams.minRpbRate = (10 ** 9); //0.000000001 in eth an all tokens with 18 decimals\n        generalParams.ethDeployerAddress = _ethDepl;\n        generalParams.tokenDeployerAddress = _tokenDepl;\n        ethDeplContract = IJLoanEthDeployer(_ethDepl);\n        tokenDeplContract = IJLoanTokenDeployer(_tokenDepl);\n        generalParams.factoryAddress = address(this);\n        generalFees.factoryFees = 5;\n        generalFees.earlySettlementFee = 1080000; \n        generalFees.userRewardShare = 80;\n        generalFees.vaultShare = 20;\n        generalFees.undercollateralizedForeclosingMultiple = 1000;\n        generalFees.atRiskForeclosedMultiple = 3000;\n        generalFees.cancellationFees = 3;\n        pairCounter = 0;\n        loanID = 0;\n        _Admins[msg.sender] = true;\n        factoryDeployBlock = block.number;\n    }\n\n    /* Modifiers */\n    modifier onlyAdmins() {\n        require(isAdmin(msg.sender), \"Not an Admin!\");\n        _;\n    }\n\n    /*   Admins Roles Mngmt  */\n    function _addAdmin(address account) internal {\n        _Admins[account] = true;\n        emit AdminAdded(block.number);\n    }\n\n    function _removeAdmin(address account) internal {\n        _Admins[account] = false;\n        emit AdminRemoved(block.number);\n    }\n\n    function isAdmin(address account) public view returns (bool) {\n        return _Admins[account];\n    }\n\n    function addAdmin(address account) external onlyAdmins {\n        require(account != address(0), \"Not a valid address!\");\n        require(!isAdmin(account), \" Address already Administrator\");\n        _addAdmin(account);\n    }\n\n    function removeAdmin(address account) external onlyAdmins {\n        _removeAdmin(account);\n    }\n\n    function renounceAdmin() external onlyAdmins {\n        _removeAdmin(msg.sender);\n    }\n\n\n    /**\n    * @dev set a new address for ETH deployer contract\n    * @param _ethDepl new address\n    */\n    function setEthDeployerAddress(address _ethDepl) external onlyOwner {\n        require(_ethDepl != address(0), \"address not allowed\");\n        require(_ethDepl != generalParams.ethDeployerAddress, \"new address is the same as the old one\");\n        generalParams.ethDeployerAddress = _ethDepl;\n        ethDeplContract = IJLoanEthDeployer(_ethDepl);\n    }\n\n    /**\n    * @dev set a new address for token deployer contract\n    * @param _tokenDepl new address\n    */\n    function setTokenDeployerAddress(address _tokenDepl) external onlyOwner {\n        require(_tokenDepl != address(0), \"address not allowed\");\n        require(_tokenDepl != generalParams.tokenDeployerAddress, \"new address is the same as the old one\");\n        generalParams.tokenDeployerAddress = _tokenDepl;\n        tokenDeplContract = IJLoanTokenDeployer(_tokenDepl);\n    }\n\n    /**\n    * @dev set a new pair\n    * @param _pairName string describing the pair (i.e. ETHDAI)\n    * @param _price price of the pair\n    * @param _pairDecimals number of decimals for pair\n    */\n    function setNewPair(string memory _pairName, uint _price, uint8 _pairDecimals, \n                address _baseAddress, uint8 _baseDecimals, address _quoteAddress, uint8 _quoteDecimals) external onlyAdmins {\n        // eth vs stable coin expressed in 6 or more decimals\n        //require(pairCounter >= 0, \"Pairs counter not ok, please set to a valid value!\");\n        pairs[pairCounter] = Pair({pairName: _pairName, pairValue: _price, pairDecimals: _pairDecimals, \n                baseAddress: _baseAddress, baseDecimals: _baseDecimals, quoteAddress: _quoteAddress, quoteDecimals: _quoteDecimals});\n        emit NewPair(pairCounter, _pairName);\n        pairCounter = pairCounter.add(1);\n    }\n\n    /**\n    * @dev set a price for the specified pair\n    * @param _pairId number of the pair\n    * @param _price price of the pair\n    * @param _pairDecimals number of decimals for pair\n    */\n    function setPairValue(uint _pairId, uint _price, uint8 _pairDecimals) external onlyAdmins {\n        // eth vs stable coin expressed in 6 or more decimals\n        require(_pairId < pairCounter, \"pair does not exists\");\n        pairs[_pairId].pairValue = _price;\n        pairs[_pairId].pairDecimals = _pairDecimals;\n        emit NewPrice(_pairId, pairs[_pairId].pairName, pairs[_pairId].pairValue, pairs[_pairId].pairDecimals);\n    }\n\n    /**\n    * @dev set a base and quote decimals for the specified pair\n    * @param _pairId number of the pair\n    * @param _baseDecimals base decimals of the pair\n    * @param _quoteDecimals quote decimals for pair\n    */\n    function setBaseQuoteDecimals(uint _pairId, uint8 _baseDecimals, uint8 _quoteDecimals) external onlyOwner {\n        // eth vs stable coin expressed in 6 or more decimals\n        require(_pairId < pairCounter, \"pair does not exists\");\n        pairs[_pairId].baseDecimals = _baseDecimals;\n        pairs[_pairId].quoteDecimals = _quoteDecimals;\n        emit NewPairDecimals(_pairId, pairs[_pairId].pairName, pairs[_pairId].baseDecimals, pairs[_pairId].quoteDecimals);\n    }\n\n    /**\n    * @dev get a pair price\n    * @param _pairId number of the pair\n    * @return price of the pair\n    */\n    function getPairValue(uint _pairId) public view returns (uint) {\n        // eth vs stable coin expressed in 6 or more decimals\n        require(_pairId < pairCounter, \"pair does not exists\");\n        return pairs[_pairId].pairValue;\n    }\n\n    /**\n    * @dev get a pair name\n    * @param _pairId number of the pair\n    * @return name of the pair\n    */\n    function getPairName(uint _pairId) external view returns (string memory) {\n        require(_pairId < pairCounter, \"pair does not exists\");\n        return pairs[_pairId].pairName;\n    }\n\n    /**\n    * @dev get a pair decimals\n    * @param _pairId number of the pair\n    * @return decimals of the pair\n    */\n    function getPairDecimals(uint _pairId) external view returns (uint8) {\n        // eth vs stable coin expressed in 6 or more decimals\n        require(_pairId < pairCounter, \"pair does not exists\");\n        return pairs[_pairId].pairDecimals;\n    }\n\n    /**\n    * @dev get a pair base decimals\n    * @param _pairId number of the pair\n    * @return number of base currency decimals\n    */\n    function getPairBaseDecimals(uint _pairId) external view returns (uint8) {\n        require(_pairId < pairCounter, \"pair does not exists\");\n        return pairs[_pairId].baseDecimals;\n    }\n\n    /**\n    * @dev get a pair quote decimals\n    * @param _pairId number of the pair\n    * @return number of quote currency decimals\n    */\n    function getPairQuoteDecimals(uint _pairId) external view returns (uint8) {\n        require(_pairId < pairCounter, \"pair does not exists\");\n        return pairs[_pairId].quoteDecimals;\n    }\n\n    /**\n    * @dev math round up\n    * @param numerator numerator\n    * @param denominator denominator\n    * @param precision precision\n    * @return number of quote currency decimals\n    */\n    function roundUp(uint numerator, uint denominator, uint precision) public pure returns (uint) {\n         // caution, check safe-to-multiply here\n        uint _numerator  = numerator.mul(10 ** (precision.add(1)));\n        // with rounding of last digit\n        uint _quotient =  ((_numerator.div(denominator)).add(5)).div(10);\n        return _quotient;\n    }\n    \n    /**\n    * @dev math round down\n    * @param numerator numerator\n    * @param denominator denominator\n    * @param precision precision\n    * @return number of quote currency decimals\n    */\n    function roundDn(uint numerator, uint denominator, uint precision) external pure returns (uint) {\n         // caution, check safe-to-multiply here\n        uint _numerator  = numerator.mul(10 ** (precision.add(1)));\n        // with rounding of last digit\n        uint _quotient =  ((_numerator.div(denominator)).sub(5)).div(10);\n        return _quotient;\n    }\n\n    /**\n    * @dev calculate fees on collateral amount\n    * @param _collAmount collateral amount\n    * @return amount of collateral fees\n    */\n    function calculateCollFeesOnActivation(uint _collAmount) public view returns (uint) {\n        return roundUp(_collAmount.mul(generalFees.factoryFees), 1000, 0);\n    }\n\n    /**\n    * @dev get the amount of collateral needed to have stable coin amount (no fees)\n    * @param _pairId number of the pair\n    * @param _askAmount amount in stable coin the borrower would like to receive\n    * @return amount of collateral the borrower needs to send\n    */\n    function calcMinCollateralAmount(uint _pairId, uint _askAmount) public view returns (uint) {\n        uint price = getPairValue(_pairId);\n        uint minCollEthAmount = roundUp(_askAmount.mul(generalParams.requiredCollateralRatio).div(100).mul(10**uint(pairs[_pairId].pairDecimals)), price, 0);\n        if (pairs[_pairId].baseDecimals >= pairs[_pairId].quoteDecimals) {\n            uint diffBaseQuoteDecimals = uint(pairs[_pairId].baseDecimals).sub(uint(pairs[_pairId].quoteDecimals));\n            minCollEthAmount = minCollEthAmount.mul(10 ** diffBaseQuoteDecimals).add(5); //add 5 to be sure evrything is ok\n        } else {\n            uint diffBaseQuoteDecimals = uint(pairs[_pairId].quoteDecimals).sub(uint(pairs[_pairId].baseDecimals));\n            minCollEthAmount = minCollEthAmount.div(10 ** diffBaseQuoteDecimals).add(5); //add 5 to be sure evrything is ok\n        }\n        return minCollEthAmount;\n    }\n\n    /**\n    * @dev get the amount of collateral needed to have stable coin amount, with fees\n    * @param _pairId number of the pair\n    * @param _askAmount amount in stable coin the borrower would like to receive\n    * @return amount of collateral the borrower needs to send\n    */\n    function calcMinCollateralWithFeesAmount(uint _pairId, uint _askAmount) public view returns (uint) {\n        uint minCollEthAmount = calcMinCollateralAmount(_pairId, _askAmount);\n        uint feesCollAmount = calculateCollFeesOnActivation(minCollEthAmount);\n        uint totalCollAmountWithFees = minCollEthAmount.add(feesCollAmount);\n        return totalCollAmountWithFees;\n    }\n\n    /**\n    * @dev get the amount of stable coin that a borrower could receive in front of a collateral amount (no fees)\n    * @param _pairId number of the pair\n    * @param _collAmount amount in collateral unit the borrower could receive with that aount of collateral\n    * @return amount of stable coins the borrower could receive\n    */\n/*    function calcMaxStableCoinAmount(uint _pairId, uint _collAmount) public view returns (uint) {\n        // i.e. eth / dai price, let's say 347.85, for every ETH can ask 347.85 / 2 = 173.925 dai\n        // NB: amount and price expressed with same number of decimals\n        uint price = getPairValue(_pairId);\n        uint askAmount = roundDn(_collAmount.div(generalParams.requiredCollateralRatio).mul(100).mul(price), 10 ** uint(pairs[_pairId].pairDecimals), 0);\n        if (pairs[_pairId].baseDecimals >= pairs[_pairId].quoteDecimals) {\n            uint diffBaseQuoteDecimals = uint(pairs[_pairId].baseDecimals).sub(uint(pairs[_pairId].quoteDecimals));\n            askAmount = askAmount.div(10 ** diffBaseQuoteDecimals).sub(1); //subtract 1 to be sure evrything is ok\n        } else {\n            uint diffBaseQuoteDecimals = uint(pairs[_pairId].quoteDecimals).sub(uint(pairs[_pairId].baseDecimals));\n            askAmount = askAmount.mul(10 ** diffBaseQuoteDecimals).sub(1); //subtract 1 to be sure evrything is ok\n        }\n        return askAmount;\n    }\n*/\n    /**\n    * @dev get the amount of stable coin that a borrower could receive in front of a collateral amount\n    * @param _pairId number of the pair\n    * @param _collAmount amount in collateral unit the borrower could receive with that aount of collateral\n    * @return amount of stable coins the borrower could receive\n    */\n/*    function calcMaxStableCoinWithFeesAmount(uint _pairId, uint _collAmount) public view returns (uint) {\n        // i.e. eth / dai price, let's say 347.85, for every ETH can ask 347.85 / 2 = 173.925 dai\n        // NB: amount and price expressed with same number of decimals\n        uint price = getPairValue(_pairId);\n        uint feesCollAmount = calculateCollFeesOnActivation(_collAmount);  // fees amount\n        uint collFeesDeducted = _collAmount.sub(feesCollAmount);  // available amount after fees deduction\n        uint collAvailable = roundDn(collFeesDeducted.div(generalParams.requiredCollateralRatio).mul(100).mul(price), 10 ** uint(pairs[_pairId].pairDecimals), 0);\n        uint askAmountWithFees = collAvailable.sub(feesCollAmount);\n        if (pairs[_pairId].baseDecimals >= pairs[_pairId].quoteDecimals) {\n            uint diffBaseQuoteDecimals = uint(pairs[_pairId].baseDecimals).sub(uint(pairs[_pairId].quoteDecimals));\n            askAmountWithFees = askAmountWithFees.div(10 ** diffBaseQuoteDecimals).sub(1); //subtract 1 to be sure evrything is ok\n        } else {\n            uint diffBaseQuoteDecimals = uint(pairs[_pairId].quoteDecimals).sub(uint(pairs[_pairId].baseDecimals));\n            askAmountWithFees = askAmountWithFees.mul(10 ** diffBaseQuoteDecimals).sub(1); //subtract 1 to be sure evrything is ok\n        }\n        return askAmountWithFees;\n    }\n*/\n    /**\n    * @dev set params\n    * @param _value set new param\n    */\n    function setEarlySettlementWindow (uint _value) external onlyOwner {\n        generalParams.earlySettlementWindow = _value;\n    }\n\n    /**\n    * @dev set params\n    * @param _value set new param\n    */\n    function setForeclosureWindow (uint _value) external onlyOwner {\n        generalParams.foreclosureWindow = _value;\n    }\n\n    function setForeclosureRatio(uint _value) external onlyOwner {\n        generalParams.foreclosingRatio = _value;\n    }\n\n    /**\n    * @dev set params\n    * @param _value set new param\n    */\n    function setInstantForeclosureRatio (uint _value) external onlyOwner {\n        generalParams.instantForeclosureRatio = _value;\n    }\n\n    /**\n    * @dev set params\n    * @param _value set new param\n    */\n    function setMinRpbRate (uint _value) external onlyOwner {\n        generalParams.minRpbRate = _value;\n    }\n\n    /**\n    * @dev set params\n    * @param _value set new param\n    */\n    function setRequiredCollateralRatio (uint _value) external onlyOwner {\n        generalParams.requiredCollateralRatio = _value;\n    }\n\n    /**\n    * @dev set params\n    * @param _value set new param\n    */\n    function setFactoryFees (uint _value) external onlyOwner {\n        generalFees.factoryFees = _value;\n    }\n\n    /**\n    * @dev set params\n    * @param _value set new param\n    */\n    function setEarlySettlementFee (uint _value) external onlyOwner {\n        generalFees.earlySettlementFee = _value;\n    }\n\n    /**\n    * @dev set params\n    * @param _value set new param\n    */\n    function setUserRewardShare (uint _value) external onlyOwner {\n        generalFees.userRewardShare = _value;\n    }\n\n    /**\n    * @dev set params\n    * @param _value set new param\n    */\n    function setVaultShares (uint _value) external onlyOwner {\n        generalFees.vaultShare = _value;\n    }\n\n    /**\n    * @dev set params\n    * @param _value set new param\n    */\n    function setUndercollateralizedForeclosingMultiple (uint _value) external onlyOwner {\n        generalFees.undercollateralizedForeclosingMultiple = _value;\n    }\n\n    /**\n    * @dev set params\n    * @param _value set new param\n    */\n    function setAtRiskForeclosedMultiple (uint _value) external onlyOwner {\n        generalFees.atRiskForeclosedMultiple = _value;\n    }\n\n    /**\n    * @dev set params\n    * @param _value set new param\n    */\n    function setCancellationFees (uint _value) external onlyOwner {\n        generalFees.cancellationFees = _value;\n    }\n \n    /**\n    * @dev get all general params\n    * @return param struct\n    */\n    function getGeneralParams() external view returns (params memory) {\n        return generalParams;\n    }\n\n    /**\n    * @dev get all general params\n    * @return param struct\n    */\n    function getGeneralFees() external view returns (feesParams memory) {\n        return generalFees;\n    }\n\n    function getMsgSenderBalance() external view returns (uint) {\n        return msg.sender.balance;\n    }\n\n    /**\n    * @dev create a new loan with eth as collateraland set the address in the mapping\n    * @param _pairId number of the pair interested in the loan contract\n    * @param _borrowedAskAmount amount in stable coin the borrower would like to receive\n    * @param _rpbRate RPB rate the borrower will pay \n    * @return address of the new contract\n    */\n    function createNewEthLoan(uint _pairId, \n                uint _borrowedAskAmount, \n                uint _rpbRate) external payable returns (address) {\n        require(msg.sender!=address(0), \"Sender address not allowed\");\n        // in wei\n        uint minCollateralEth = calcMinCollateralWithFeesAmount(_pairId, _borrowedAskAmount);\n        //require((msg.sender).balance >= minCollateralEth, \"Caller balance too low\");\n        require(msg.value >= minCollateralEth, \"Please send more ethers\");\n        address _quoteAddress = pairs[_pairId].quoteAddress;\n        address newEthLoan = ethDeplContract.deployNewEthLoanContract{value: msg.value}\n                    (msg.sender, loanID, _pairId, _borrowedAskAmount, _rpbRate, address(this), _quoteAddress);\n        deployedLoans[loanID] = newEthLoan;\n        emit NewEthLoanCreated(loanID, msg.sender, newEthLoan, msg.value, minCollateralEth, address(0));\n        loanID = loanID.add(1);\n        contractCounter = contractCounter.add(1);\n        return newEthLoan;\n    }\n\n    /**\n    * @dev create a new loan and set the address in the mapping\n    * @param _pairId number of the pair interested in the loan contract\n    * @param _borrowedAskAmount amount in stable coin the borrower would like to receive\n    * @param _rpbRate RPB rate the borrower will pay \n    * @return address of the new contract\n    */\n    function createNewTokenLoan(uint _pairId, \n                uint _borrowedAskAmount, \n                uint _rpbRate) external returns (address) {\n        require(msg.sender!=address(0), \"Sender address not allowed\");\n        // in wei\n        //uint totalCollateralTokens = calcMinCollateralWithFeesAmount(_pairId, _borrowedAskAmount);\n        //require(IERC20(pairs[_pairId].baseAddress).balanceOf(msg.sender) >= totalCollateralTokens, \"Caller balance too low\");\n        uint totalCollateralTokens = calcMinCollateralWithFeesAmount(_pairId, _borrowedAskAmount);\n        uint256 allowance = IERC20(pairs[_pairId].baseAddress).allowance(msg.sender, generalParams.tokenDeployerAddress);  //check the allowance on the deployer\n        require(allowance >= totalCollateralTokens, \"Check the token allowance\");\n        address _baseAddress = pairs[_pairId].baseAddress;\n        address _quoteAddress = pairs[_pairId].quoteAddress;\n        address newTokenLoan = tokenDeplContract.deployNewTokenLoanContract(msg.sender, loanID, _pairId, _borrowedAskAmount, _rpbRate, \n                    address(this), _baseAddress, _quoteAddress, totalCollateralTokens);\n        deployedLoans[loanID] = newTokenLoan;\n        emit NewTokenLoanCreated(loanID, msg.sender, newTokenLoan, _baseAddress);\n        loanID = loanID.add(1);\n        contractCounter = contractCounter.add(1);\n        return newTokenLoan;\n    }\n\n\n    /**\n    * @dev get all deployers addresses\n    * @return addresses of the deployer\n    */\n    function getEnvironmentDeployers() external view returns(address, address) {\n        return (address(ethDeplContract), address(tokenDeplContract));\n    }\n\n    /**\n    * @dev get a single loan address deployed by the factory\n    * @return loan contract address\n    */\n    function getDeployedLoan(uint _idx) external view returns (address) {\n        return deployedLoans[_idx];\n    }\n    \n}\n\n",
  "sourcePath": "C:/Users/saurabh/code/Jibrel/defi-smartcontracts/LoansFactoryV2/contracts/JFactory.sol",
  "compiler": {
    "name": "solc",
    "version": "0.6.11+commit.5ef660b1.Emscripten.clang"
  },
  "schemaVersion": "3.3.1",
  "updatedAt": "2020-10-18T18:33:14.065Z",
  "networkType": "ethereum",
  "devdoc": {
    "kind": "dev",
    "methods": {
      "calcMinCollateralAmount(uint256,uint256)": {
        "details": "get the amount of collateral needed to have stable coin amount (no fees)",
        "params": {
          "_askAmount": "amount in stable coin the borrower would like to receive",
          "_pairId": "number of the pair"
        },
        "returns": {
          "_0": "amount of collateral the borrower needs to send"
        }
      },
      "calcMinCollateralWithFeesAmount(uint256,uint256)": {
        "details": "get the amount of collateral needed to have stable coin amount, with fees",
        "params": {
          "_askAmount": "amount in stable coin the borrower would like to receive",
          "_pairId": "number of the pair"
        },
        "returns": {
          "_0": "amount of collateral the borrower needs to send"
        }
      },
      "calculateCollFeesOnActivation(uint256)": {
        "details": "calculate fees on collateral amount",
        "params": {
          "_collAmount": "collateral amount"
        },
        "returns": {
          "_0": "amount of collateral fees"
        }
      },
      "createNewEthLoan(uint256,uint256,uint256)": {
        "details": "create a new loan with eth as collateraland set the address in the mapping",
        "params": {
          "_borrowedAskAmount": "amount in stable coin the borrower would like to receive",
          "_pairId": "number of the pair interested in the loan contract",
          "_rpbRate": "RPB rate the borrower will pay "
        },
        "returns": {
          "_0": "address of the new contract"
        }
      },
      "createNewTokenLoan(uint256,uint256,uint256)": {
        "details": "create a new loan and set the address in the mapping",
        "params": {
          "_borrowedAskAmount": "amount in stable coin the borrower would like to receive",
          "_pairId": "number of the pair interested in the loan contract",
          "_rpbRate": "RPB rate the borrower will pay "
        },
        "returns": {
          "_0": "address of the new contract"
        }
      },
      "getDeployedLoan(uint256)": {
        "details": "get a single loan address deployed by the factory",
        "returns": {
          "_0": "loan contract address"
        }
      },
      "getEnvironmentDeployers()": {
        "details": "get all deployers addresses",
        "returns": {
          "_0": "addresses of the deployer"
        }
      },
      "getGeneralFees()": {
        "details": "get all general params",
        "returns": {
          "_0": "param struct"
        }
      },
      "getGeneralParams()": {
        "details": "get all general params",
        "returns": {
          "_0": "param struct"
        }
      },
      "getPairBaseDecimals(uint256)": {
        "details": "get a pair base decimals",
        "params": {
          "_pairId": "number of the pair"
        },
        "returns": {
          "_0": "number of base currency decimals"
        }
      },
      "getPairDecimals(uint256)": {
        "details": "get a pair decimals",
        "params": {
          "_pairId": "number of the pair"
        },
        "returns": {
          "_0": "decimals of the pair"
        }
      },
      "getPairName(uint256)": {
        "details": "get a pair name",
        "params": {
          "_pairId": "number of the pair"
        },
        "returns": {
          "_0": "name of the pair"
        }
      },
      "getPairQuoteDecimals(uint256)": {
        "details": "get a pair quote decimals",
        "params": {
          "_pairId": "number of the pair"
        },
        "returns": {
          "_0": "number of quote currency decimals"
        }
      },
      "getPairValue(uint256)": {
        "details": "get a pair price",
        "params": {
          "_pairId": "number of the pair"
        },
        "returns": {
          "_0": "price of the pair"
        }
      },
      "owner()": {
        "details": "Returns the address of the current owner."
      },
      "renounceOwnership()": {
        "details": "Leaves the contract without owner. It will not be possible to call `onlyOwner` functions anymore. Can only be called by the current owner. NOTE: Renouncing ownership will leave the contract without an owner, thereby removing any functionality that is only available to the owner."
      },
      "roundDn(uint256,uint256,uint256)": {
        "details": "math round down",
        "params": {
          "denominator": "denominator",
          "numerator": "numerator",
          "precision": "precision"
        },
        "returns": {
          "_0": "number of quote currency decimals"
        }
      },
      "roundUp(uint256,uint256,uint256)": {
        "details": "math round up",
        "params": {
          "denominator": "denominator",
          "numerator": "numerator",
          "precision": "precision"
        },
        "returns": {
          "_0": "number of quote currency decimals"
        }
      },
      "setAtRiskForeclosedMultiple(uint256)": {
        "details": "set params",
        "params": {
          "_value": "set new param"
        }
      },
      "setBaseQuoteDecimals(uint256,uint8,uint8)": {
        "details": "set a base and quote decimals for the specified pair",
        "params": {
          "_baseDecimals": "base decimals of the pair",
          "_pairId": "number of the pair",
          "_quoteDecimals": "quote decimals for pair"
        }
      },
      "setCancellationFees(uint256)": {
        "details": "set params",
        "params": {
          "_value": "set new param"
        }
      },
      "setEarlySettlementFee(uint256)": {
        "details": "set params",
        "params": {
          "_value": "set new param"
        }
      },
      "setEarlySettlementWindow(uint256)": {
        "details": "set params",
        "params": {
          "_value": "set new param"
        }
      },
      "setEthDeployerAddress(address)": {
        "details": "set a new address for ETH deployer contract",
        "params": {
          "_ethDepl": "new address"
        }
      },
      "setFactoryFees(uint256)": {
        "details": "set params",
        "params": {
          "_value": "set new param"
        }
      },
      "setForeclosureWindow(uint256)": {
        "details": "set params",
        "params": {
          "_value": "set new param"
        }
      },
      "setInstantForeclosureRatio(uint256)": {
        "details": "set params",
        "params": {
          "_value": "set new param"
        }
      },
      "setMinRpbRate(uint256)": {
        "details": "set params",
        "params": {
          "_value": "set new param"
        }
      },
      "setNewPair(string,uint256,uint8,address,uint8,address,uint8)": {
        "details": "set a new pair",
        "params": {
          "_pairDecimals": "number of decimals for pair",
          "_pairName": "string describing the pair (i.e. ETHDAI)",
          "_price": "price of the pair"
        }
      },
      "setPairValue(uint256,uint256,uint8)": {
        "details": "set a price for the specified pair",
        "params": {
          "_pairDecimals": "number of decimals for pair",
          "_pairId": "number of the pair",
          "_price": "price of the pair"
        }
      },
      "setRequiredCollateralRatio(uint256)": {
        "details": "set params",
        "params": {
          "_value": "set new param"
        }
      },
      "setTokenDeployerAddress(address)": {
        "details": "set a new address for token deployer contract",
        "params": {
          "_tokenDepl": "new address"
        }
      },
      "setUndercollateralizedForeclosingMultiple(uint256)": {
        "details": "set params",
        "params": {
          "_value": "set new param"
        }
      },
      "setUserRewardShare(uint256)": {
        "details": "set params",
        "params": {
          "_value": "set new param"
        }
      },
      "setVaultShares(uint256)": {
        "details": "set params",
        "params": {
          "_value": "set new param"
        }
      },
      "transferOwnership(address)": {
        "details": "Transfers ownership of the contract to a new account (`newOwner`). Can only be called by the current owner."
      }
    },
    "version": 1
  },
  "userdoc": {
    "kind": "user",
    "methods": {},
    "version": 1
  }
}