{
  "contractName": "JFactory",
  "abi": [
    {
      "inputs": [
        {
          "internalType": "address",
          "name": "_ethDepl",
          "type": "address"
        },
        {
          "internalType": "address",
          "name": "_tokenDepl",
          "type": "address"
        }
      ],
      "stateMutability": "nonpayable",
      "type": "constructor"
    },
    {
      "anonymous": false,
      "inputs": [
        {
          "indexed": false,
          "internalType": "address",
          "name": "account",
          "type": "address"
        }
      ],
      "name": "AdminAdded",
      "type": "event"
    },
    {
      "anonymous": false,
      "inputs": [
        {
          "indexed": false,
          "internalType": "address",
          "name": "account",
          "type": "address"
        }
      ],
      "name": "AdminRemoved",
      "type": "event"
    },
    {
      "anonymous": false,
      "inputs": [
        {
          "indexed": true,
          "internalType": "uint256",
          "name": "loanId",
          "type": "uint256"
        },
        {
          "indexed": true,
          "internalType": "address",
          "name": "sender",
          "type": "address"
        },
        {
          "indexed": true,
          "internalType": "address",
          "name": "newLoan",
          "type": "address"
        },
        {
          "indexed": false,
          "internalType": "uint256",
          "name": "value",
          "type": "uint256"
        },
        {
          "indexed": false,
          "internalType": "uint256",
          "name": "coll",
          "type": "uint256"
        },
        {
          "indexed": false,
          "internalType": "address",
          "name": "collateralTokenAddress",
          "type": "address"
        }
      ],
      "name": "NewEthLoanCreated",
      "type": "event"
    },
    {
      "anonymous": false,
      "inputs": [
        {
          "indexed": true,
          "internalType": "uint256",
          "name": "_pairId",
          "type": "uint256"
        },
        {
          "indexed": false,
          "internalType": "string",
          "name": "_pairName",
          "type": "string"
        }
      ],
      "name": "NewPair",
      "type": "event"
    },
    {
      "anonymous": false,
      "inputs": [
        {
          "indexed": true,
          "internalType": "uint256",
          "name": "pairId",
          "type": "uint256"
        },
        {
          "indexed": true,
          "internalType": "string",
          "name": "pairName",
          "type": "string"
        },
        {
          "indexed": false,
          "internalType": "address",
          "name": "baseAddress",
          "type": "address"
        },
        {
          "indexed": false,
          "internalType": "address",
          "name": "quoteAddress",
          "type": "address"
        }
      ],
      "name": "NewPairAddresses",
      "type": "event"
    },
    {
      "anonymous": false,
      "inputs": [
        {
          "indexed": true,
          "internalType": "uint256",
          "name": "pairId",
          "type": "uint256"
        },
        {
          "indexed": true,
          "internalType": "string",
          "name": "pairName",
          "type": "string"
        },
        {
          "indexed": false,
          "internalType": "uint8",
          "name": "baseDecimals",
          "type": "uint8"
        },
        {
          "indexed": false,
          "internalType": "uint8",
          "name": "quoteDecimals",
          "type": "uint8"
        }
      ],
      "name": "NewPairDecimals",
      "type": "event"
    },
    {
      "anonymous": false,
      "inputs": [
        {
          "indexed": true,
          "internalType": "uint256",
          "name": "pairId",
          "type": "uint256"
        },
        {
          "indexed": true,
          "internalType": "string",
          "name": "pairName",
          "type": "string"
        },
        {
          "indexed": false,
          "internalType": "uint256",
          "name": "pairValue",
          "type": "uint256"
        },
        {
          "indexed": false,
          "internalType": "uint8",
          "name": "pairDecimals",
          "type": "uint8"
        }
      ],
      "name": "NewPrice",
      "type": "event"
    },
    {
      "anonymous": false,
      "inputs": [
        {
          "indexed": true,
          "internalType": "uint256",
          "name": "loanId",
          "type": "uint256"
        },
        {
          "indexed": true,
          "internalType": "address",
          "name": "sender",
          "type": "address"
        },
        {
          "indexed": true,
          "internalType": "address",
          "name": "newLoan",
          "type": "address"
        },
        {
          "indexed": false,
          "internalType": "address",
          "name": "collateralTokenAddress",
          "type": "address"
        }
      ],
      "name": "NewTokenLoanCreated",
      "type": "event"
    },
    {
      "anonymous": false,
      "inputs": [
        {
          "indexed": true,
          "internalType": "address",
          "name": "previousOwner",
          "type": "address"
        },
        {
          "indexed": true,
          "internalType": "address",
          "name": "newOwner",
          "type": "address"
        }
      ],
      "name": "OwnershipTransferred",
      "type": "event"
    },
    {
      "inputs": [],
      "name": "contractCounter",
      "outputs": [
        {
          "internalType": "uint256",
          "name": "",
          "type": "uint256"
        }
      ],
      "stateMutability": "view",
      "type": "function",
      "constant": true
    },
    {
      "inputs": [],
      "name": "ethDeplContract",
      "outputs": [
        {
          "internalType": "contract IJLoanEthDeployer",
          "name": "",
          "type": "address"
        }
      ],
      "stateMutability": "view",
      "type": "function",
      "constant": true
    },
    {
      "inputs": [],
      "name": "factoryDeployBlock",
      "outputs": [
        {
          "internalType": "uint256",
          "name": "",
          "type": "uint256"
        }
      ],
      "stateMutability": "view",
      "type": "function",
      "constant": true
    },
    {
      "inputs": [],
      "name": "generalFees",
      "outputs": [
        {
          "internalType": "uint256",
          "name": "earlySettlementFee",
          "type": "uint256"
        },
        {
          "internalType": "uint8",
          "name": "factoryFees",
          "type": "uint8"
        },
        {
          "internalType": "uint8",
          "name": "userRewardShare",
          "type": "uint8"
        },
        {
          "internalType": "uint8",
          "name": "vaultShare",
          "type": "uint8"
        },
        {
          "internalType": "uint8",
          "name": "cancellationFees",
          "type": "uint8"
        },
        {
          "internalType": "uint16",
          "name": "undercollateralizedForeclosingMultiple",
          "type": "uint16"
        },
        {
          "internalType": "uint16",
          "name": "atRiskForeclosedMultiple",
          "type": "uint16"
        }
      ],
      "stateMutability": "view",
      "type": "function",
      "constant": true
    },
    {
      "inputs": [],
      "name": "generalParams",
      "outputs": [
        {
          "internalType": "uint256",
          "name": "minRpbRate",
          "type": "uint256"
        },
        {
          "internalType": "uint256",
          "name": "earlySettlementWindow",
          "type": "uint256"
        },
        {
          "internalType": "uint256",
          "name": "foreclosureWindow",
          "type": "uint256"
        },
        {
          "internalType": "uint8",
          "name": "requiredCollateralRatio",
          "type": "uint8"
        },
        {
          "internalType": "uint8",
          "name": "foreclosingRatio",
          "type": "uint8"
        },
        {
          "internalType": "uint8",
          "name": "instantForeclosureRatio",
          "type": "uint8"
        },
        {
          "internalType": "uint8",
          "name": "limitCollRatioForWithdraw",
          "type": "uint8"
        },
        {
          "internalType": "address",
          "name": "factoryAddress",
          "type": "address"
        },
        {
          "internalType": "address",
          "name": "ethDeployerAddress",
          "type": "address"
        },
        {
          "internalType": "address",
          "name": "tokenDeployerAddress",
          "type": "address"
        }
      ],
      "stateMutability": "view",
      "type": "function",
      "constant": true
    },
    {
      "inputs": [],
      "name": "loanID",
      "outputs": [
        {
          "internalType": "uint256",
          "name": "",
          "type": "uint256"
        }
      ],
      "stateMutability": "view",
      "type": "function",
      "constant": true
    },
    {
      "inputs": [],
      "name": "owner",
      "outputs": [
        {
          "internalType": "address",
          "name": "",
          "type": "address"
        }
      ],
      "stateMutability": "view",
      "type": "function",
      "constant": true
    },
    {
      "inputs": [],
      "name": "pairCounter",
      "outputs": [
        {
          "internalType": "uint256",
          "name": "",
          "type": "uint256"
        }
      ],
      "stateMutability": "view",
      "type": "function",
      "constant": true
    },
    {
      "inputs": [
        {
          "internalType": "uint256",
          "name": "",
          "type": "uint256"
        }
      ],
      "name": "pairs",
      "outputs": [
        {
          "internalType": "string",
          "name": "pairName",
          "type": "string"
        },
        {
          "internalType": "uint256",
          "name": "pairValue",
          "type": "uint256"
        },
        {
          "internalType": "uint8",
          "name": "pairDecimals",
          "type": "uint8"
        },
        {
          "internalType": "address",
          "name": "baseAddress",
          "type": "address"
        },
        {
          "internalType": "uint8",
          "name": "baseDecimals",
          "type": "uint8"
        },
        {
          "internalType": "address",
          "name": "quoteAddress",
          "type": "address"
        },
        {
          "internalType": "uint8",
          "name": "quoteDecimals",
          "type": "uint8"
        }
      ],
      "stateMutability": "view",
      "type": "function",
      "constant": true
    },
    {
      "inputs": [],
      "name": "renounceOwnership",
      "outputs": [],
      "stateMutability": "nonpayable",
      "type": "function"
    },
    {
      "inputs": [],
      "name": "tokenDeplContract",
      "outputs": [
        {
          "internalType": "contract IJLoanTokenDeployer",
          "name": "",
          "type": "address"
        }
      ],
      "stateMutability": "view",
      "type": "function",
      "constant": true
    },
    {
      "inputs": [
        {
          "internalType": "address",
          "name": "newOwner",
          "type": "address"
        }
      ],
      "name": "transferOwnership",
      "outputs": [],
      "stateMutability": "nonpayable",
      "type": "function"
    },
    {
      "inputs": [
        {
          "internalType": "address",
          "name": "account",
          "type": "address"
        }
      ],
      "name": "isAdmin",
      "outputs": [
        {
          "internalType": "bool",
          "name": "",
          "type": "bool"
        }
      ],
      "stateMutability": "view",
      "type": "function",
      "constant": true
    },
    {
      "inputs": [
        {
          "internalType": "address",
          "name": "account",
          "type": "address"
        }
      ],
      "name": "addAdmin",
      "outputs": [],
      "stateMutability": "nonpayable",
      "type": "function"
    },
    {
      "inputs": [
        {
          "internalType": "address",
          "name": "account",
          "type": "address"
        }
      ],
      "name": "removeAdmin",
      "outputs": [],
      "stateMutability": "nonpayable",
      "type": "function"
    },
    {
      "inputs": [],
      "name": "renounceAdmin",
      "outputs": [],
      "stateMutability": "nonpayable",
      "type": "function"
    },
    {
      "inputs": [
        {
          "internalType": "address",
          "name": "_ethDepl",
          "type": "address"
        }
      ],
      "name": "setEthDeployerAddress",
      "outputs": [],
      "stateMutability": "nonpayable",
      "type": "function"
    },
    {
      "inputs": [
        {
          "internalType": "address",
          "name": "_tokenDepl",
          "type": "address"
        }
      ],
      "name": "setTokenDeployerAddress",
      "outputs": [],
      "stateMutability": "nonpayable",
      "type": "function"
    },
    {
      "inputs": [
        {
          "internalType": "string",
          "name": "_pairName",
          "type": "string"
        },
        {
          "internalType": "uint256",
          "name": "_price",
          "type": "uint256"
        },
        {
          "internalType": "uint8",
          "name": "_pairDecimals",
          "type": "uint8"
        },
        {
          "internalType": "address",
          "name": "_baseAddress",
          "type": "address"
        },
        {
          "internalType": "uint8",
          "name": "_baseDecimals",
          "type": "uint8"
        },
        {
          "internalType": "address",
          "name": "_quoteAddress",
          "type": "address"
        },
        {
          "internalType": "uint8",
          "name": "_quoteDecimals",
          "type": "uint8"
        }
      ],
      "name": "setNewPair",
      "outputs": [],
      "stateMutability": "nonpayable",
      "type": "function"
    },
    {
      "inputs": [
        {
          "internalType": "uint256",
          "name": "_pairId",
          "type": "uint256"
        },
        {
          "internalType": "uint256",
          "name": "_price",
          "type": "uint256"
        },
        {
          "internalType": "uint8",
          "name": "_pairDecimals",
          "type": "uint8"
        }
      ],
      "name": "setPairValue",
      "outputs": [],
      "stateMutability": "nonpayable",
      "type": "function"
    },
    {
      "inputs": [
        {
          "internalType": "uint256",
          "name": "_pairId",
          "type": "uint256"
        },
        {
          "internalType": "uint8",
          "name": "_baseDecimals",
          "type": "uint8"
        },
        {
          "internalType": "uint8",
          "name": "_quoteDecimals",
          "type": "uint8"
        }
      ],
      "name": "setBaseQuoteDecimals",
      "outputs": [],
      "stateMutability": "nonpayable",
      "type": "function"
    },
    {
      "inputs": [
        {
          "internalType": "uint256",
          "name": "_pairId",
          "type": "uint256"
        }
      ],
      "name": "getPairValue",
      "outputs": [
        {
          "internalType": "uint256",
          "name": "",
          "type": "uint256"
        }
      ],
      "stateMutability": "view",
      "type": "function",
      "constant": true
    },
    {
      "inputs": [
        {
          "internalType": "uint256",
          "name": "_pairId",
          "type": "uint256"
        }
      ],
      "name": "getPairName",
      "outputs": [
        {
          "internalType": "string",
          "name": "",
          "type": "string"
        }
      ],
      "stateMutability": "view",
      "type": "function",
      "constant": true
    },
    {
      "inputs": [
        {
          "internalType": "uint256",
          "name": "_pairId",
          "type": "uint256"
        }
      ],
      "name": "getPairDecimals",
      "outputs": [
        {
          "internalType": "uint8",
          "name": "",
          "type": "uint8"
        }
      ],
      "stateMutability": "view",
      "type": "function",
      "constant": true
    },
    {
      "inputs": [
        {
          "internalType": "uint256",
          "name": "_pairId",
          "type": "uint256"
        }
      ],
      "name": "getPairBaseDecimals",
      "outputs": [
        {
          "internalType": "uint8",
          "name": "",
          "type": "uint8"
        }
      ],
      "stateMutability": "view",
      "type": "function",
      "constant": true
    },
    {
      "inputs": [
        {
          "internalType": "uint256",
          "name": "_pairId",
          "type": "uint256"
        }
      ],
      "name": "getPairQuoteDecimals",
      "outputs": [
        {
          "internalType": "uint8",
          "name": "",
          "type": "uint8"
        }
      ],
      "stateMutability": "view",
      "type": "function",
      "constant": true
    },
    {
      "inputs": [
        {
          "internalType": "uint256",
          "name": "_pairId",
          "type": "uint256"
        }
      ],
      "name": "getPairBaseAddress",
      "outputs": [
        {
          "internalType": "address",
          "name": "",
          "type": "address"
        }
      ],
      "stateMutability": "view",
      "type": "function",
      "constant": true
    },
    {
      "inputs": [
        {
          "internalType": "uint256",
          "name": "_pairId",
          "type": "uint256"
        }
      ],
      "name": "getPairQuoteAddress",
      "outputs": [
        {
          "internalType": "address",
          "name": "",
          "type": "address"
        }
      ],
      "stateMutability": "view",
      "type": "function",
      "constant": true
    },
    {
      "inputs": [
        {
          "internalType": "uint256",
          "name": "_collAmount",
          "type": "uint256"
        }
      ],
      "name": "calculateCollFeesOnActivation",
      "outputs": [
        {
          "internalType": "uint256",
          "name": "",
          "type": "uint256"
        }
      ],
      "stateMutability": "view",
      "type": "function",
      "constant": true
    },
    {
      "inputs": [
        {
          "internalType": "uint256",
          "name": "_pairId",
          "type": "uint256"
        },
        {
          "internalType": "uint256",
          "name": "_askAmount",
          "type": "uint256"
        }
      ],
      "name": "calcMinCollateralAmount",
      "outputs": [
        {
          "internalType": "uint256",
          "name": "",
          "type": "uint256"
        }
      ],
      "stateMutability": "view",
      "type": "function",
      "constant": true
    },
    {
      "inputs": [
        {
          "internalType": "uint256",
          "name": "_pairId",
          "type": "uint256"
        },
        {
          "internalType": "uint256",
          "name": "_askAmount",
          "type": "uint256"
        }
      ],
      "name": "calcMinCollateralWithFeesAmount",
      "outputs": [
        {
          "internalType": "uint256",
          "name": "",
          "type": "uint256"
        }
      ],
      "stateMutability": "view",
      "type": "function",
      "constant": true
    },
    {
      "inputs": [
        {
          "internalType": "uint256",
          "name": "_value",
          "type": "uint256"
        }
      ],
      "name": "setEarlySettlementWindow",
      "outputs": [],
      "stateMutability": "nonpayable",
      "type": "function"
    },
    {
      "inputs": [
        {
          "internalType": "uint256",
          "name": "_value",
          "type": "uint256"
        }
      ],
      "name": "setForeclosureWindow",
      "outputs": [],
      "stateMutability": "nonpayable",
      "type": "function"
    },
    {
      "inputs": [
        {
          "internalType": "uint8",
          "name": "_value",
          "type": "uint8"
        }
      ],
      "name": "setForeclosureRatio",
      "outputs": [],
      "stateMutability": "nonpayable",
      "type": "function"
    },
    {
      "inputs": [
        {
          "internalType": "uint8",
          "name": "_value",
          "type": "uint8"
        }
      ],
      "name": "setInstantForeclosureRatio",
      "outputs": [],
      "stateMutability": "nonpayable",
      "type": "function"
    },
    {
      "inputs": [
        {
          "internalType": "uint256",
          "name": "_value",
          "type": "uint256"
        }
      ],
      "name": "setMinRpbRate",
      "outputs": [],
      "stateMutability": "nonpayable",
      "type": "function"
    },
    {
      "inputs": [
        {
          "internalType": "uint8",
          "name": "_value",
          "type": "uint8"
        }
      ],
      "name": "setRequiredCollateralRatio",
      "outputs": [],
      "stateMutability": "nonpayable",
      "type": "function"
    },
    {
      "inputs": [
        {
          "internalType": "uint8",
          "name": "_value",
          "type": "uint8"
        }
      ],
      "name": "setFactoryFees",
      "outputs": [],
      "stateMutability": "nonpayable",
      "type": "function"
    },
    {
      "inputs": [
        {
          "internalType": "uint256",
          "name": "_value",
          "type": "uint256"
        }
      ],
      "name": "setEarlySettlementFee",
      "outputs": [],
      "stateMutability": "nonpayable",
      "type": "function"
    },
    {
      "inputs": [
        {
          "internalType": "uint8",
          "name": "_value",
          "type": "uint8"
        }
      ],
      "name": "setUserRewardShare",
      "outputs": [],
      "stateMutability": "nonpayable",
      "type": "function"
    },
    {
      "inputs": [
        {
          "internalType": "uint8",
          "name": "_value",
          "type": "uint8"
        }
      ],
      "name": "setVaultShares",
      "outputs": [],
      "stateMutability": "nonpayable",
      "type": "function"
    },
    {
      "inputs": [
        {
          "internalType": "uint16",
          "name": "_value",
          "type": "uint16"
        }
      ],
      "name": "setUndercollateralizedForeclosingMultiple",
      "outputs": [],
      "stateMutability": "nonpayable",
      "type": "function"
    },
    {
      "inputs": [
        {
          "internalType": "uint16",
          "name": "_value",
          "type": "uint16"
        }
      ],
      "name": "setAtRiskForeclosedMultiple",
      "outputs": [],
      "stateMutability": "nonpayable",
      "type": "function"
    },
    {
      "inputs": [
        {
          "internalType": "uint8",
          "name": "_value",
          "type": "uint8"
        }
      ],
      "name": "setCancellationFees",
      "outputs": [],
      "stateMutability": "nonpayable",
      "type": "function"
    },
    {
      "inputs": [],
      "name": "getGeneralParams",
      "outputs": [
        {
          "components": [
            {
              "internalType": "uint256",
              "name": "minRpbRate",
              "type": "uint256"
            },
            {
              "internalType": "uint256",
              "name": "earlySettlementWindow",
              "type": "uint256"
            },
            {
              "internalType": "uint256",
              "name": "foreclosureWindow",
              "type": "uint256"
            },
            {
              "internalType": "uint8",
              "name": "requiredCollateralRatio",
              "type": "uint8"
            },
            {
              "internalType": "uint8",
              "name": "foreclosingRatio",
              "type": "uint8"
            },
            {
              "internalType": "uint8",
              "name": "instantForeclosureRatio",
              "type": "uint8"
            },
            {
              "internalType": "uint8",
              "name": "limitCollRatioForWithdraw",
              "type": "uint8"
            },
            {
              "internalType": "address",
              "name": "factoryAddress",
              "type": "address"
            },
            {
              "internalType": "address",
              "name": "ethDeployerAddress",
              "type": "address"
            },
            {
              "internalType": "address",
              "name": "tokenDeployerAddress",
              "type": "address"
            }
          ],
          "internalType": "struct IJLoanCommons.GeneralParams",
          "name": "",
          "type": "tuple"
        }
      ],
      "stateMutability": "view",
      "type": "function",
      "constant": true
    },
    {
      "inputs": [],
      "name": "getGeneralFees",
      "outputs": [
        {
          "components": [
            {
              "internalType": "uint256",
              "name": "earlySettlementFee",
              "type": "uint256"
            },
            {
              "internalType": "uint8",
              "name": "factoryFees",
              "type": "uint8"
            },
            {
              "internalType": "uint8",
              "name": "userRewardShare",
              "type": "uint8"
            },
            {
              "internalType": "uint8",
              "name": "vaultShare",
              "type": "uint8"
            },
            {
              "internalType": "uint8",
              "name": "cancellationFees",
              "type": "uint8"
            },
            {
              "internalType": "uint16",
              "name": "undercollateralizedForeclosingMultiple",
              "type": "uint16"
            },
            {
              "internalType": "uint16",
              "name": "atRiskForeclosedMultiple",
              "type": "uint16"
            }
          ],
          "internalType": "struct IJLoanCommons.FeesParams",
          "name": "",
          "type": "tuple"
        }
      ],
      "stateMutability": "view",
      "type": "function",
      "constant": true
    },
    {
      "inputs": [],
      "name": "getMsgSenderBalance",
      "outputs": [
        {
          "internalType": "uint256",
          "name": "",
          "type": "uint256"
        }
      ],
      "stateMutability": "view",
      "type": "function",
      "constant": true
    },
    {
      "inputs": [
        {
          "internalType": "uint256",
          "name": "_pairId",
          "type": "uint256"
        },
        {
          "internalType": "uint256",
          "name": "_borrowedAskAmount",
          "type": "uint256"
        },
        {
          "internalType": "uint256",
          "name": "_rpbRate",
          "type": "uint256"
        }
      ],
      "name": "createNewEthLoan",
      "outputs": [
        {
          "internalType": "address",
          "name": "",
          "type": "address"
        }
      ],
      "stateMutability": "payable",
      "type": "function",
      "payable": true
    },
    {
      "inputs": [
        {
          "internalType": "uint256",
          "name": "_pairId",
          "type": "uint256"
        },
        {
          "internalType": "uint256",
          "name": "_borrowedAskAmount",
          "type": "uint256"
        },
        {
          "internalType": "uint256",
          "name": "_rpbRate",
          "type": "uint256"
        }
      ],
      "name": "createNewTokenLoan",
      "outputs": [
        {
          "internalType": "address",
          "name": "",
          "type": "address"
        }
      ],
      "stateMutability": "nonpayable",
      "type": "function"
    },
    {
      "inputs": [],
      "name": "getEnvironmentDeployers",
      "outputs": [
        {
          "internalType": "address",
          "name": "",
          "type": "address"
        },
        {
          "internalType": "address",
          "name": "",
          "type": "address"
        }
      ],
      "stateMutability": "view",
      "type": "function",
      "constant": true
    },
    {
      "inputs": [
        {
          "internalType": "uint256",
          "name": "_idx",
          "type": "uint256"
        }
      ],
      "name": "getDeployedLoan",
      "outputs": [
        {
          "internalType": "address",
          "name": "",
          "type": "address"
        }
      ],
      "stateMutability": "view",
      "type": "function",
      "constant": true
    },
    {
      "inputs": [
        {
          "internalType": "uint256",
          "name": "_pairId",
          "type": "uint256"
        },
        {
          "internalType": "address",
          "name": "_loanAddress",
          "type": "address"
        },
        {
          "internalType": "uint256",
          "name": "_loanStatus",
          "type": "uint256"
        },
        {
          "internalType": "uint256",
          "name": "_borrowedAskAmount",
          "type": "uint256"
        },
        {
          "internalType": "uint256",
          "name": "_accruedInterests",
          "type": "uint256"
        }
      ],
      "name": "getActualCollateralRatio",
      "outputs": [
        {
          "internalType": "uint256",
          "name": "newCollRatio",
          "type": "uint256"
        }
      ],
      "stateMutability": "view",
      "type": "function",
      "constant": true
    },
    {
      "inputs": [
        {
          "internalType": "uint256",
          "name": "_amount",
          "type": "uint256"
        },
        {
          "internalType": "uint256",
          "name": "_pairId",
          "type": "uint256"
        },
        {
          "internalType": "address",
          "name": "_loanAddress",
          "type": "address"
        },
        {
          "internalType": "uint256",
          "name": "_borrowedAskAmount",
          "type": "uint256"
        },
        {
          "internalType": "bool",
          "name": "_adding",
          "type": "bool"
        }
      ],
      "name": "calcRatioAdjustingCollateral",
      "outputs": [
        {
          "internalType": "uint256",
          "name": "ratio",
          "type": "uint256"
        }
      ],
      "stateMutability": "view",
      "type": "function",
      "constant": true
    },
    {
      "inputs": [
        {
          "internalType": "uint256",
          "name": "_ratio",
          "type": "uint256"
        },
        {
          "internalType": "uint256",
          "name": "_pairId",
          "type": "uint256"
        },
        {
          "internalType": "address",
          "name": "_loanAddress",
          "type": "address"
        },
        {
          "internalType": "uint256",
          "name": "_borrowedAskAmount",
          "type": "uint256"
        }
      ],
      "name": "calcDiffCollAmountForRatio",
      "outputs": [
        {
          "internalType": "uint256",
          "name": "collDiff",
          "type": "uint256"
        }
      ],
      "stateMutability": "view",
      "type": "function",
      "constant": true
    }
  ],
  "bytecode": "0x60806040523480156200001157600080fd5b506040516200360b3803806200360b8339810160408190526200003491620001bf565b6000620000496001600160e01b03620001bb16565b600080546001600160a01b0319166001600160a01b0383169081178255604051929350917f8be0079c531659141344cd1fd0a4f28419497f9722a3daafe3b4186f6b6457e0908290a350600180805562083d60600b55614650600c55600d8054633b9aca00600a55600e80546001600160a01b03199081166001600160a01b03978816908117909255600f805482169690971695861790965560028054871690911790556003805490951690931790935560c860ff199283161761ff00199081166196001762ff000019908116627800001763ff0000001990811663a000000017600160201b600160c01b0319163064010000000002179095556011805462107ac06010556005908616179092166150001716621400001761ffff60201b19166503e8000000001761ffff60301b1916670bb800000000000017909316630300000017909255600060088190556004819055338152600660205260409020805490911690911790554360125562000216565b3390565b60008060408385031215620001d2578182fd5b8251620001df81620001fd565b6020840151909250620001f281620001fd565b809150509250929050565b6001600160a01b03811681146200021357600080fd5b50565b6133e580620002266000396000f3fe6080604052600436106103355760003560e01c8063715018a6116101ab578063b91ac788116100f7578063ca937ea611610095578063e132d9411161006f578063e132d94114610983578063e5549e2614610998578063f2fde38b146109b8578063fc881f25146109d857610335565b8063ca937ea61461091e578063d575c7451461094b578063dbf1e7991461096e57610335565b8063c139ee91116100d1578063c139ee911461089e578063c175771b146108be578063c299e129146108de578063c2c1e340146108fe57610335565b8063b91ac78814610836578063bb38f75a14610869578063bed3a3b41461087e57610335565b80638bad0c0a116101645780639b9bbce21161013e5780639b9bbce2146107ae578063ad87c71d146107ce578063b311d9cf146107ee578063b724e7b11461080e57610335565b80638bad0c0a146107645780638da5cb5b146107795780638e354d401461078e57610335565b8063715018a6146106af57806373aa3028146106c4578063774820bb146106e4578063799d564c146107045780637bb45bf0146107245780637c2f7b961461074457610335565b80633ef6b43711610285578063551328e711610223578063699110f8116101fd578063699110f814610624578063704802751461064457806370d531a81461066457806370fb1a491461068f57610335565b8063551328e7146105d157806357ac3e0a146105e4578063606a04dd1461060457610335565b80634b32c55e1161025f5780634b32c55e1461054f5780634e7e3a0e1461056f5780634fd758791461058f57806352ede5f6146105b157610335565b80633ef6b437146104ef57806343c5719c1461050f5780634a5e21921461052f57610335565b80631a55d9e9116102f25780632669f19a116102cc5780632669f19a146104855780632dfe9694146104a557806334baa377146104ba57806339075d89146104da57610335565b80631a55d9e914610421578063215b0dc61461044357806324d7806c1461045857610335565b8063067bd3b41461033a57806307585313146103655780630daf1877146103925780631013aa24146103b25780631664a295146103df5780631785f53c14610401575b600080fd5b34801561034657600080fd5b5061034f6109f8565b60405161035c91906132a7565b60405180910390f35b34801561037157600080fd5b50610385610380366004612b1e565b6109fe565b60405161035c9190612dcb565b34801561039e57600080fd5b5061034f6103ad366004612b4e565b610a4e565b3480156103be57600080fd5b506103d26103cd366004612b1e565b610ccf565b60405161035c9190613378565b3480156103eb57600080fd5b506103ff6103fa366004612afc565b610d12565b005b34801561040d57600080fd5b506103ff61041c3660046129cb565b610d6c565b34801561042d57600080fd5b50610436610d9d565b60405161035c9190613193565b34801561044f57600080fd5b5061034f610e12565b34801561046457600080fd5b506104786104733660046129cb565b610e18565b60405161035c9190612e8b565b34801561049157600080fd5b5061034f6104a0366004612b1e565b610e36565b3480156104b157600080fd5b5061034f610e6f565b3480156104c657600080fd5b506103ff6104d5366004612ce1565b610e74565b3480156104e657600080fd5b5061034f610ec7565b3480156104fb57600080fd5b506103ff61050a3660046129cb565b610ecd565b34801561051b57600080fd5b5061034f61052a366004612b95565b610f5c565b34801561053b57600080fd5b506103ff61054a366004612ce1565b610f96565b34801561055b57600080fd5b506103ff61056a366004612ce1565b610fe7565b34801561057b57600080fd5b5061038561058a366004612b1e565b611032565b34801561059b57600080fd5b506105a4611074565b60405161035c91906131f7565b3480156105bd57600080fd5b5061034f6105cc366004612b1e565b611103565b6103856105df366004612c4d565b61112b565b3480156105f057600080fd5b506103d26105ff366004612b1e565b6112db565b34801561061057600080fd5b506103ff61061f366004612c78565b611317565b34801561063057600080fd5b506103ff61063f366004612ce1565b6113f6565b34801561065057600080fd5b506103ff61065f3660046129cb565b611447565b34801561067057600080fd5b506106796114c1565b60405161035c9a999897969594939291906132cf565b34801561069b57600080fd5b506103856106aa366004612b1e565b611511565b3480156106bb57600080fd5b506103ff61152c565b3480156106d057600080fd5b506103ff6106df366004612b1e565b6115ab565b3480156106f057600080fd5b506103ff6106ff366004612afc565b6115e5565b34801561071057600080fd5b506103ff61071f366004612b1e565b61163e565b34801561073057600080fd5b506103ff61073f366004612ce1565b611678565b34801561075057600080fd5b506103d261075f366004612b1e565b6116cb565b34801561077057600080fd5b506103ff61170e565b34801561078557600080fd5b5061038561173e565b34801561079a57600080fd5b506103ff6107a93660046129cb565b61174d565b3480156107ba57600080fd5b506103856107c9366004612c4d565b6117dc565b3480156107da57600080fd5b5061034f6107e9366004612bb6565b611a86565b3480156107fa57600080fd5b506103ff610809366004612ce1565b611c60565b34801561081a57600080fd5b50610823611cb5565b60405161035c979695949392919061333c565b34801561084257600080fd5b50610856610851366004612b1e565b611cf6565b60405161035c9796959493929190612ea9565b34801561087557600080fd5b50610385611dd5565b34801561088a57600080fd5b506103ff610899366004612ce1565b611de4565b3480156108aa57600080fd5b5061034f6108b9366004612bf4565b611e2f565b3480156108ca57600080fd5b5061034f6108d9366004612b95565b61201d565b3480156108ea57600080fd5b506103ff6108f9366004612b1e565b61217d565b34801561090a57600080fd5b506103ff610919366004612b1e565b6121b7565b34801561092a57600080fd5b5061093e610939366004612b1e565b6121f1565b60405161035c9190612e96565b34801561095757600080fd5b506109606122b3565b60405161035c929190612ddf565b34801561097a57600080fd5b506103856122ca565b34801561098f57600080fd5b5061034f6122d9565b3480156109a457600080fd5b506103ff6109b3366004612cad565b6122df565b3480156109c457600080fd5b506103ff6109d33660046129cb565b6123f9565b3480156109e457600080fd5b506103ff6109f3366004612a03565b6124af565b60095481565b60006008548210610a2a5760405162461bcd60e51b8152600401610a2190612faf565b60405180910390fd5b5060009081526007602052604090206002015461010090046001600160a01b031690565b600080610a5a87610e36565b90506000610a67886112db565b60ff1690506000610a77896109fe565b90506000610a848a610ccf565b90506000610a918b6116cb565b90508760006001600160a01b038516610adc578a610aba57506001600160a01b038b1631610ad7565b610ad46001600160a01b038d16318a63ffffffff61263916565b90505b610bf6565b8b8b610b65576040516370a0823160e01b81526001600160a01b038716906370a0823190610b0e908490600401612dcb565b60206040518083038186803b158015610b2657600080fd5b505afa158015610b3a573d6000803e3d6000fd5b505050506040513d601f19601f82011682018060405250810190610b5e9190612b36565b9150610bf4565b610bf18a876001600160a01b03166370a08231846040518263ffffffff1660e01b8152600401610b959190612dcb565b60206040518083038186803b158015610bad57600080fd5b505afa158015610bc1573d6000803e3d6000fd5b505050506040513d601f19601f82011682018060405250810190610be59190612b36565b9063ffffffff61263916565b91505b505b6000610c196064610c0d848b63ffffffff61268216565b9063ffffffff61268216565b90506000610c3184600a8a900a63ffffffff61268216565b90508460ff168660ff1610610c86576000610c5860ff88811690881663ffffffff61263916565b9050610c7e600a82900a610c72858563ffffffff6126bc16565b9063ffffffff6126bc16565b9a5050610cbc565b6000610c9e60ff87811690891663ffffffff61263916565b9050610cb882610c7285600a85900a63ffffffff61268216565b9a50505b5050505050505050505b95945050505050565b60006008548210610cf25760405162461bcd60e51b8152600401610a2190612faf565b50600090815260076020526040902060020154600160a81b900460ff1690565b610d1a6126fe565b6000546001600160a01b03908116911614610d475760405162461bcd60e51b8152600401610a21906130b3565b6011805461ffff909216600160301b0267ffff00000000000019909216919091179055565b610d7533610e18565b610d915760405162461bcd60e51b8152600401610a2190612fdd565b610d9a81612702565b50565b610da5612887565b506040805160e081018252601054815260115460ff808216602084015261010082048116938301939093526201000081048316606083015263010000008104909216608082015261ffff6401000000008304811660a0830152600160301b90920490911660c08201525b90565b60045481565b6001600160a01b031660009081526006602052604090205460ff1690565b60006008548210610e595760405162461bcd60e51b8152600401610a2190612faf565b5060009081526007602052604090206001015490565b333190565b610e7c6126fe565b6000546001600160a01b03908116911614610ea95760405162461bcd60e51b8152600401610a21906130b3565b6011805460ff909216620100000262ff000019909216919091179055565b60125481565b610ed56126fe565b6000546001600160a01b03908116911614610f025760405162461bcd60e51b8152600401610a21906130b3565b600f546001600160a01b0382811691161415610f305760405162461bcd60e51b8152600401610a2190613116565b600f80546001600160a01b039092166001600160a01b0319928316811790915560038054909216179055565b600080610f69848461201d565b90506000610f7682611103565b90506000610f8a838363ffffffff61275d16565b93505050505b92915050565b610f9e6126fe565b6000546001600160a01b03908116911614610fcb5760405162461bcd60e51b8152600401610a21906130b3565b600d805460ff9092166101000261ff0019909216919091179055565b610fef6126fe565b6000546001600160a01b0390811691161461101c5760405162461bcd60e51b8152600401610a21906130b3565b6011805460ff191660ff92909216919091179055565b600060085482106110555760405162461bcd60e51b8152600401610a2190612faf565b506000908152600760205260409020600301546001600160a01b031690565b61107c6128c3565b506040805161014081018252600a548152600b546020820152600c5491810191909152600d5460ff808216606084015261010080830482166080850152620100008304821660a08501526301000000830490911660c08401526001600160a01b03640100000000909204821660e0840152600e54821690830152600f541661012082015290565b601154600090610f909061112190849060ff1663ffffffff61268216565b6103e86000612782565b6000600260015414156111505760405162461bcd60e51b8152600401610a219061315c565b600260015560006111618585610f5c565b9050803410156111835760405162461bcd60e51b8152600401610a219061303b565b6000858152600760205260408082206003015460025460048054935163fefd3d0160e01b81526001600160a01b039384169594929093169263fefd3d019234926111da923392918e918e918e9130918d9101612df9565b6020604051808303818588803b1580156111f357600080fd5b505af1158015611207573d6000803e3d6000fd5b50505050506040513d601f19601f8201168201806040525081019061122c91906129e7565b6004805460009081526005602052604080822080546001600160a01b0319166001600160a01b0386169081179091559254905193945091923392917f8a44742c484a39daf028ba1b1d1ce90543dc768123c8de4b0c5fd3443bba77f4916112979134918a91906132b0565b60405180910390a46004546112b390600163ffffffff61275d16565b6004556009546112ca90600163ffffffff61275d16565b600955600180559695505050505050565b600060085482106112fe5760405162461bcd60e51b8152600401610a2190612faf565b5060009081526007602052604090206002015460ff1690565b61132033610e18565b61133c5760405162461bcd60e51b8152600401610a2190612fdd565b600854831061135d5760405162461bcd60e51b8152600401610a2190612faf565b600083815260076020526040908190206001810184905560028101805460ff191660ff851617905590516113919190612d5b565b6040805191829003822060008681526007602052919091206001810154600290910154919286927f8faf8b67d977271b82c52dedfc0bf5414b0c347fd7cb985a8661863fb6954c1c926113e992909160ff169061332b565b60405180910390a3505050565b6113fe6126fe565b6000546001600160a01b0390811691161461142b5760405162461bcd60e51b8152600401610a21906130b3565b6011805460ff9092166101000261ff0019909216919091179055565b61145033610e18565b61146c5760405162461bcd60e51b8152600401610a2190612fdd565b6001600160a01b0381166114925760405162461bcd60e51b8152600401610a21906130e8565b61149b81610e18565b156114b85760405162461bcd60e51b8152600401610a2190612efb565b610d9a816127d1565b600a54600b54600c54600d54600e54600f5460ff80841693610100810482169362010000820483169363010000008304909316926001600160a01b0364010000000090930483169291821691168a565b6000908152600560205260409020546001600160a01b031690565b6115346126fe565b6000546001600160a01b039081169116146115615760405162461bcd60e51b8152600401610a21906130b3565b600080546040516001600160a01b03909116907f8be0079c531659141344cd1fd0a4f28419497f9722a3daafe3b4186f6b6457e0908390a3600080546001600160a01b0319169055565b6115b36126fe565b6000546001600160a01b039081169116146115e05760405162461bcd60e51b8152600401610a21906130b3565b600c55565b6115ed6126fe565b6000546001600160a01b0390811691161461161a5760405162461bcd60e51b8152600401610a21906130b3565b6011805461ffff9092166401000000000265ffff0000000019909216919091179055565b6116466126fe565b6000546001600160a01b039081169116146116735760405162461bcd60e51b8152600401610a21906130b3565b601055565b6116806126fe565b6000546001600160a01b039081169116146116ad5760405162461bcd60e51b8152600401610a21906130b3565b600d805460ff909216620100000262ff000019909216919091179055565b600060085482106116ee5760405162461bcd60e51b8152600401610a2190612faf565b50600090815260076020526040902060030154600160a01b900460ff1690565b61171733610e18565b6117335760405162461bcd60e51b8152600401610a2190612fdd565b61173c33612702565b565b6000546001600160a01b031690565b6117556126fe565b6000546001600160a01b039081169116146117825760405162461bcd60e51b8152600401610a21906130b3565b600e546001600160a01b03828116911614156117b05760405162461bcd60e51b8152600401610a2190613116565b600e80546001600160a01b039092166001600160a01b0319928316811790915560028054909216179055565b6000600260015414156118015760405162461bcd60e51b8152600401610a219061315c565b600260015560006118128585610f5c565b60008681526007602052604080822060020154600f549151636eb1769f60e11b815293945091926101009092046001600160a01b039081169263dd62ed3e92611862923392911690600401612ddf565b60206040518083038186803b15801561187a57600080fd5b505afa15801561188e573d6000803e3d6000fd5b505050506040513d601f19601f820116820180604052508101906118b29190612b36565b9050818110156118d45760405162461bcd60e51b8152600401610a2190613004565b60006007600088815260200190815260200160002060020160019054906101000a90046001600160a01b0316905060006007600089815260200190815260200160002060030160009054906101000a90046001600160a01b031690506000600360009054906101000a90046001600160a01b03166001600160a01b03166374faec72336004548c8c8c308a8a8e6040518a63ffffffff1660e01b815260040161198599989796959493929190612e38565b602060405180830381600087803b15801561199f57600080fd5b505af11580156119b3573d6000803e3d6000fd5b505050506040513d601f19601f820116820180604052508101906119d791906129e7565b600480546000908152600560205260409081902080546001600160a01b0319166001600160a01b0385169081179091559154905192935090913391907f2b20c25dbfd43424d1061108c660f42dd425fe3d235f747c12df98a7c0d3e01490611a40908890612dcb565b60405180910390a4600454611a5c90600163ffffffff61275d16565b600455600954611a7390600163ffffffff61275d16565b6009556001805598975050505050505050565b600080611a9285610e36565b90506000611a9f866112db565b60ff1690506000611aaf876109fe565b90506000611abc88610ccf565b90506000611ac9896116cb565b90508660006001600160a01b038516611aed57506001600160a01b03891631611b6c565b6040516370a0823160e01b81526001600160a01b038616906370a0823190611b19908d90600401612dcb565b60206040518083038186803b158015611b3157600080fd5b505afa158015611b45573d6000803e3d6000fd5b505050506040513d601f19601f82011682018060405250810190611b699190612b36565b90505b60008c81611b88600a8a900a610c0d878563ffffffff61268216565b90506000611b9d8b606463ffffffff61268216565b90508660ff168860ff1610611be6576000611bc460ff8a8116908a1663ffffffff61263916565b9050611bde82610c7285600a85900a63ffffffff61268216565b945050611c1c565b6000611bfe60ff898116908b1663ffffffff61263916565b9050611c18600a82900a610c72858563ffffffff6126bc16565b9450505b848410611c3a57611c33848663ffffffff61263916565b9b50611c4d565b611c4a858563ffffffff61263916565b9b505b5050505050505050505050949350505050565b611c686126fe565b6000546001600160a01b03908116911614611c955760405162461bcd60e51b8152600401610a21906130b3565b6011805460ff90921663010000000263ff00000019909216919091179055565b60105460115460ff808216916101008104821691620100008204811691630100000081049091169061ffff6401000000008204811691600160301b90041687565b60076020908152600091825260409182902080548351601f60026000196101006001861615020190931692909204918201849004840281018401909452808452909291839190830182828015611d8d5780601f10611d6257610100808354040283529160200191611d8d565b820191906000526020600020905b815481529060010190602001808311611d7057829003601f168201915b505050600184015460028501546003909501549394909360ff80831694506001600160a01b03610100840481169450600160a81b909304811692821691600160a01b90041687565b6002546001600160a01b031681565b611dec6126fe565b6000546001600160a01b03908116911614611e195760405162461bcd60e51b8152600401610a21906130b3565b600d805460ff191660ff92909216919091179055565b600080611e3b86610e36565b90506000611e48876112db565b60ff1690506000611e58886109fe565b90506000611e6589610ccf565b90506000611e728a6116cb565b9050876000806001600160a01b038616611e98578b6001600160a01b0316319150611f17565b6040516370a0823160e01b81526001600160a01b038716906370a0823190611ec4908f90600401612dcb565b60206040518083038186803b158015611edc57600080fd5b505afa158015611ef0573d6000803e3d6000fd5b505050506040513d601f19601f82011682018060405250810190611f149190612b36565b91505b8915611f3457611f2d828f63ffffffff61275d16565b9050611f5c565b818e11611f4b57611f2d828f63ffffffff61263916565b600098505050505050505050610cc6565b6000611f736064610c0d848c63ffffffff61268216565b90506000611f8b85600a8b900a63ffffffff61268216565b90508560ff168760ff1610611fd4576000611fb260ff89811690891663ffffffff61263916565b9050611fcc600a82900a610c72858563ffffffff6126bc16565b9b505061200a565b6000611fec60ff888116908a1663ffffffff61263916565b905061200682610c7285600a85900a63ffffffff61268216565b9b50505b5050505050505050505095945050505050565b60008061202984610e36565b600085815260076020526040812060020154600d5492935090916120759161206d9160ff918216600a0a91610c0d91606491610c72918b911663ffffffff61268216565b836000612782565b6000868152600760205260409020600381015460029091015491925060ff600160a01b9091048116600160a81b909204161061211857600085815260076020526040812060038101546002909101546120e991600160a81b90910460ff90811691600160a01b90041663ffffffff61263916565b9050612110600561210484600a85900a63ffffffff61268216565b9063ffffffff61275d16565b915050612175565b6000858152600760205260408120600281015460039091015461215691600160a01b90910460ff90811691600160a81b90041663ffffffff61263916565b9050612171600561210484600a85900a63ffffffff6126bc16565b9150505b949350505050565b6121856126fe565b6000546001600160a01b039081169116146121b25760405162461bcd60e51b8152600401610a21906130b3565b600a55565b6121bf6126fe565b6000546001600160a01b039081169116146121ec5760405162461bcd60e51b8152600401610a21906130b3565b600b55565b606060085482106122145760405162461bcd60e51b8152600401610a2190612faf565b60008281526007602090815260409182902080548351601f6002600019610100600186161502019093169290920491820184900484028101840190945280845290918301828280156122a75780601f1061227c576101008083540402835291602001916122a7565b820191906000526020600020905b81548152906001019060200180831161228a57829003601f168201915b50505050509050919050565b6002546003546001600160a01b0391821691169091565b6003546001600160a01b031681565b60085481565b6122e76126fe565b6000546001600160a01b039081169116146123145760405162461bcd60e51b8152600401610a21906130b3565b60085483106123355760405162461bcd60e51b8152600401610a2190612faf565b6000838152600760205260409081902060028101805460ff808716600160a81b0260ff60a81b1990921691909117909155600382018054918516600160a01b0260ff60a01b1990921691909117905590516123909190612d5b565b6040805191829003822060008681526007602052919091206002810154600390910154919286927f0c7c54329d4708979e5479f990e4abb586ffb676d9b402b2459467c86721efc7926113e992600160a81b90910460ff90811692600160a01b90041690613386565b6124016126fe565b6000546001600160a01b0390811691161461242e5760405162461bcd60e51b8152600401610a21906130b3565b6001600160a01b0381166124545760405162461bcd60e51b8152600401610a2190612f32565b600080546040516001600160a01b03808516939216917f8be0079c531659141344cd1fd0a4f28419497f9722a3daafe3b4186f6b6457e091a3600080546001600160a01b0319166001600160a01b0392909216919091179055565b6124b833610e18565b6124d45760405162461bcd60e51b8152600401610a2190612fdd565b6040805160e081018252888152602080820189905260ff808916838501526001600160a01b0380891660608501528782166080850152861660a0840152841660c083015260085460009081526007825292909220815180519293919261253d9284920190612917565b50602082015160018201556040808301516002830180546060860151608087015160ff1990921660ff94851617610100600160a81b0319166101006001600160a01b03928316021760ff60a81b1916600160a81b928516929092029190911790915560a08501516003909401805460c0909601516001600160a01b0319909616949091169390931760ff60a01b1916600160a01b949091169390930292909217905560085490517f191c33c4db02b29dcf62df443c1c3a565f4628da46040183c5c24ab61e6e42ae90612611908a90612e96565b60405180910390a260085461262d90600163ffffffff61275d16565b60085550505050505050565b600061267b83836040518060400160405280601e81526020017f536166654d6174683a207375627472616374696f6e206f766572666c6f770000815250612824565b9392505050565b60008261269157506000610f90565b8282028284828161269e57fe5b041461267b5760405162461bcd60e51b8152600401610a2190613072565b600061267b83836040518060400160405280601a81526020017f536166654d6174683a206469766973696f6e206279207a65726f000000000000815250612850565b3390565b6001600160a01b03811660009081526006602052604090819020805460ff19169055517fa3b62bc36326052d97ea62d63c3d60308ed4c3ea8ac079dd8499f1e9c4f80c0f90612752908390612dcb565b60405180910390a150565b60008282018381101561267b5760405162461bcd60e51b8152600401610a2190612f78565b6000806127a961279984600163ffffffff61275d16565b8690600a0a63ffffffff61268216565b905060006127c7600a610c726005612104868a63ffffffff6126bc16565b9695505050505050565b6001600160a01b03811660009081526006602052604090819020805460ff19166001179055517f44d6d25963f097ad14f29f06854a01f575648a1ef82f30e562ccd3889717e33990612752908390612dcb565b600081848411156128485760405162461bcd60e51b8152600401610a219190612e96565b505050900390565b600081836128715760405162461bcd60e51b8152600401610a219190612e96565b50600083858161287d57fe5b0495945050505050565b6040805160e081018252600080825260208201819052918101829052606081018290526080810182905260a0810182905260c081019190915290565b6040805161014081018252600080825260208201819052918101829052606081018290526080810182905260a0810182905260c0810182905260e08101829052610100810182905261012081019190915290565b828054600181600116156101000203166002900490600052602060002090601f016020900481019282601f1061295857805160ff1916838001178555612985565b82800160010185558215612985579182015b8281111561298557825182559160200191906001019061296a565b50612991929150612995565b5090565b610e0f91905b80821115612991576000815560010161299b565b8035610f908161339a565b803560ff81168114610f9057600080fd5b6000602082840312156129dc578081fd5b813561267b8161339a565b6000602082840312156129f8578081fd5b815161267b8161339a565b600080600080600080600060e0888a031215612a1d578283fd5b873567ffffffffffffffff80821115612a34578485fd5b818a018b601f820112612a45578586fd5b8035925081831115612a55578586fd5b6040516020601f8501601f1916820181018481118382101715612a76578889fd5b60405284825282850181018e1015612a8c578788fd5b84818401828401379381018401879052995050508801359550612ab28960408a016129ba565b9450612ac18960608a016129af565b9350612ad08960808a016129ba565b9250612adf8960a08a016129af565b9150612aee8960c08a016129ba565b905092959891949750929550565b600060208284031215612b0d578081fd5b813561ffff8116811461267b578182fd5b600060208284031215612b2f578081fd5b5035919050565b600060208284031215612b47578081fd5b5051919050565b600080600080600060a08688031215612b65578081fd5b853594506020860135612b778161339a565b94979496505050506040830135926060810135926080909101359150565b60008060408385031215612ba7578182fd5b50508035926020909101359150565b60008060008060808587031215612bcb578384fd5b84359350602085013592506040850135612be48161339a565b9396929550929360600135925050565b600080600080600060a08688031215612c0b578081fd5b85359450602086013593506040860135612c248161339a565b92506060860135915060808601358015158114612c3f578182fd5b809150509295509295909350565b600080600060608486031215612c61578283fd5b505081359360208301359350604090920135919050565b600080600060608486031215612c8c578081fd5b8335925060208401359150612ca485604086016129ba565b90509250925092565b600080600060608486031215612cc1578081fd5b83359250612cd285602086016129ba565b9150612ca485604086016129ba565b600060208284031215612cf2578081fd5b61267b83836129ba565b6001600160a01b03169052565b60008151808452815b81811015612d2e57602081850181015186830182015201612d12565b81811115612d3f5782602083870101525b50601f01601f19169290920160200192915050565b60ff169052565b6000808354600180821660008114612d7a5760018114612d9157612dc0565b60ff198316865260028304607f1686019350612dc0565b600283048786526020808720875b83811015612db85781548a820152908501908201612d9f565b505050860193505b509195945050505050565b6001600160a01b0391909116815260200190565b6001600160a01b0392831681529116602082015260400190565b6001600160a01b0397881681526020810196909652604086019490945260608501929092526080840152831660a083015290911660c082015260e00190565b6001600160a01b03998a1681526020810198909852604088019690965260608701949094526080860192909252851660a0850152841660c084015290921660e08201526101008101919091526101200190565b901515815260200190565b60006020825261267b6020830184612d09565b600060e08252612ebc60e083018a612d09565b60208301989098525060ff95861660408201526001600160a01b0394851660608201529285166080840152921660a0820152911660c090910152919050565b6020808252601e908201527f204164647265737320616c72656164792041646d696e6973747261746f720000604082015260600190565b60208082526026908201527f4f776e61626c653a206e6577206f776e657220697320746865207a65726f206160408201526564647265737360d01b606082015260800190565b6020808252601b908201527f536166654d6174683a206164646974696f6e206f766572666c6f770000000000604082015260600190565b6020808252601490820152737061697220646f6573206e6f742065786973747360601b604082015260600190565b6020808252600d908201526c4e6f7420616e2041646d696e2160981b604082015260600190565b60208082526019908201527f436865636b2074686520746f6b656e20616c6c6f77616e636500000000000000604082015260600190565b60208082526017908201527f506c656173652073656e64206d6f726520657468657273000000000000000000604082015260600190565b60208082526021908201527f536166654d6174683a206d756c7469706c69636174696f6e206f766572666c6f6040820152607760f81b606082015260800190565b6020808252818101527f4f776e61626c653a2063616c6c6572206973206e6f7420746865206f776e6572604082015260600190565b6020808252601490820152734e6f7420612076616c696420616464726573732160601b604082015260600190565b60208082526026908201527f6e65772061646472657373206973207468652073616d6520617320746865206f6040820152656c64206f6e6560d01b606082015260800190565b6020808252601f908201527f5265656e7472616e637947756172643a207265656e7472616e742063616c6c00604082015260600190565b600060e0820190508251825260ff602084015116602083015260ff604084015116604083015260ff606084015116606083015260ff608084015116608083015260a083015161ffff80821660a08501528060c08601511660c0850152505092915050565b600061014082019050825182526020830151602083015260408301516040830152606083015161322a6060840182612d54565b50608083015161323d6080840182612d54565b5060a083015161325060a0840182612d54565b5060c083015161326360c0840182612d54565b5060e083015161327660e0840182612cfc565b506101008084015161328a82850182612cfc565b50506101208084015161329f82850182612cfc565b505092915050565b90815260200190565b92835260208301919091526001600160a01b0316604082015260600190565b998a5260208a0198909852604089019690965260ff9485166060890152928416608088015290831660a087015290911660c08501526001600160a01b0390811660e0850152908116610100840152166101208201526101400190565b91825260ff16602082015260400190565b96875260ff958616602088015293851660408701529184166060860152909216608084015261ffff91821660a08401521660c082015260e00190565b60ff91909116815260200190565b60ff92831681529116602082015260400190565b6001600160a01b0381168114610d9a57600080fdfea264697066735822122096ba09a1f19d1d87f1c7248739f1fe4ba487d2b2adff9e8b966a3c032e73d2cb64736f6c634300060b0033",
  "immutableReferences": {},
  "source": "// SPDX-License-Identifier: MIT\n\npragma solidity 0.6.11;\npragma experimental ABIEncoderV2;\n\nimport \"@openzeppelin/contracts/math/SafeMath.sol\";\nimport \"@openzeppelin/contracts/access/Ownable.sol\";\n//import \"./Ownable.sol\";\nimport \"@openzeppelin/contracts/token/ERC20/IERC20.sol\";\nimport \"@openzeppelin/contracts/utils/ReentrancyGuard.sol\";\nimport \"./IJLoanCommons.sol\";\nimport \"./IJLoanEthDeployer.sol\";\nimport \"./IJLoanTokenDeployer.sol\";\n\n\ncontract JFactory is Ownable, ReentrancyGuard, IJLoanCommons { \n    using SafeMath for uint256;\n\n    IJLoanEthDeployer public ethDeplContract;\n    IJLoanTokenDeployer public tokenDeplContract;\n\n    uint public loanID;\n    mapping(uint => address) internal deployedLoans;\n\n    mapping (address => bool) private _Admins;\n \n    struct Pair {\n        string pairName;\n        uint pairValue;\n        uint8 pairDecimals;\n        address baseAddress;\n        uint8 baseDecimals;\n        address quoteAddress;\n        uint8 quoteDecimals;\n    }\n    mapping(uint => Pair) public pairs;\n    uint public pairCounter;\n\n    uint public contractCounter;\n\n    GeneralParams public generalParams;\n    FeesParams public generalFees;\n\n    uint public factoryDeployBlock;\n\n    event NewPair(uint indexed _pairId, string _pairName);\n    event NewPrice(uint indexed pairId, string indexed pairName, uint pairValue, uint8 pairDecimals);\n    event NewPairDecimals(uint indexed pairId, string indexed pairName, uint8 baseDecimals, uint8 quoteDecimals);\n    event NewPairAddresses(uint indexed pairId, string indexed pairName, address baseAddress , address quoteAddress);\n    event AdminAdded(address account);\n    event AdminRemoved(address account);\n    event NewEthLoanCreated(\n        uint indexed loanId,\n        address indexed sender,\n        address indexed newLoan,\n        uint value,\n        uint coll,\n        address collateralTokenAddress\n    );\n    event NewTokenLoanCreated(\n        uint indexed loanId,\n        address indexed sender,\n        address indexed newLoan,\n        address collateralTokenAddress\n    );\n    \n    constructor (address _ethDepl, address _tokenDepl) public {\n        generalParams.earlySettlementWindow = 540000;\n        generalParams.foreclosureWindow = 18000;\n        generalParams.requiredCollateralRatio = 200;\n        generalParams.foreclosingRatio = 150;\n        generalParams.instantForeclosureRatio = 120;\n        generalParams.limitCollRatioForWithdraw = 160;\n        generalParams.minRpbRate = (10 ** 9); //0.000000001 in eth an all tokens with 18 decimals\n        generalParams.ethDeployerAddress = _ethDepl;\n        generalParams.tokenDeployerAddress = _tokenDepl;\n        ethDeplContract = IJLoanEthDeployer(_ethDepl);\n        tokenDeplContract = IJLoanTokenDeployer(_tokenDepl);\n        generalParams.factoryAddress = address(this);\n        generalFees.factoryFees = 5;\n        generalFees.earlySettlementFee = 1080000; \n        generalFees.userRewardShare = 80;\n        generalFees.vaultShare = 20;\n        generalFees.undercollateralizedForeclosingMultiple = 1000;\n        generalFees.atRiskForeclosedMultiple = 3000;\n        generalFees.cancellationFees = 3;\n        pairCounter = 0;\n        loanID = 0;\n        _Admins[msg.sender] = true;\n        factoryDeployBlock = block.number;\n    }\n\n    /* Modifiers */\n    modifier onlyAdmins() {\n        require(isAdmin(msg.sender), \"Not an Admin!\");\n        _;\n    }\n\n    /*   Admins Roles Mngmt  */\n    function _addAdmin(address account) internal {\n        _Admins[account] = true;\n        emit AdminAdded(account);\n    }\n\n    function _removeAdmin(address account) internal {\n        _Admins[account] = false;\n        emit AdminRemoved(account);\n    }\n\n    function isAdmin(address account) public view returns (bool) {\n        return _Admins[account];\n    }\n\n    function addAdmin(address account) external onlyAdmins {\n        require(account != address(0), \"Not a valid address!\");\n        require(!isAdmin(account), \" Address already Administrator\");\n        _addAdmin(account);\n    }\n\n    function removeAdmin(address account) external onlyAdmins {\n        _removeAdmin(account);\n    }\n\n    function renounceAdmin() external onlyAdmins {\n        _removeAdmin(msg.sender);\n    }\n\n\n    /**\n    * @dev set a new address for ETH deployer contract\n    * @param _ethDepl new address\n    */\n    function setEthDeployerAddress(address _ethDepl) external onlyOwner {\n        require(_ethDepl != generalParams.ethDeployerAddress, \"new address is the same as the old one\");\n        generalParams.ethDeployerAddress = _ethDepl;\n        ethDeplContract = IJLoanEthDeployer(_ethDepl);\n    }\n\n    /**\n    * @dev set a new address for token deployer contract\n    * @param _tokenDepl new address\n    */\n    function setTokenDeployerAddress(address _tokenDepl) external onlyOwner {\n        require(_tokenDepl != generalParams.tokenDeployerAddress, \"new address is the same as the old one\");\n        generalParams.tokenDeployerAddress = _tokenDepl;\n        tokenDeplContract = IJLoanTokenDeployer(_tokenDepl);\n    }\n\n    /**\n    * @dev set a new pair\n    * @param _pairName string describing the pair (i.e. ETHDAI)\n    * @param _price price of the pair\n    * @param _pairDecimals number of decimals for pair\n    * @param _baseAddress base address token\n    * @param _baseDecimals base decimals token\n    * @param _quoteAddress quote address token\n    * @param _quoteDecimals quote decimals token\n    */\n    function setNewPair(string memory _pairName, uint _price, uint8 _pairDecimals, \n                address _baseAddress, uint8 _baseDecimals, address _quoteAddress, uint8 _quoteDecimals) external onlyAdmins {\n        // eth vs stable coin expressed in 6 or more decimals\n        pairs[pairCounter] = Pair({pairName: _pairName, pairValue: _price, pairDecimals: _pairDecimals, \n                baseAddress: _baseAddress, baseDecimals: _baseDecimals, quoteAddress: _quoteAddress, quoteDecimals: _quoteDecimals});\n        emit NewPair(pairCounter, _pairName);\n        pairCounter = pairCounter.add(1);\n    }\n\n    /**\n    * @dev set a price for the specified pair\n    * @param _pairId number of the pair\n    * @param _price price of the pair\n    * @param _pairDecimals number of decimals for pair\n    */\n    function setPairValue(uint _pairId, uint _price, uint8 _pairDecimals) public onlyAdmins {\n        // eth vs stable coin expressed in 6 or more decimals\n        require(_pairId < pairCounter, \"pair does not exists\");\n        pairs[_pairId].pairValue = _price;\n        pairs[_pairId].pairDecimals = _pairDecimals;\n        emit NewPrice(_pairId, pairs[_pairId].pairName, pairs[_pairId].pairValue, pairs[_pairId].pairDecimals);\n    }\n\n    /**\n    * @dev set a base and quote decimals for the specified pair\n    * @param _pairId number of the pair\n    * @param _baseDecimals base decimals of the pair\n    * @param _quoteDecimals quote decimals for pair\n    */\n    function setBaseQuoteDecimals(uint _pairId, uint8 _baseDecimals, uint8 _quoteDecimals) external onlyOwner {\n        // eth vs stable coin expressed in 6 or more decimals\n        require(_pairId < pairCounter, \"pair does not exists\");\n        pairs[_pairId].baseDecimals = _baseDecimals;\n        pairs[_pairId].quoteDecimals = _quoteDecimals;\n        emit NewPairDecimals(_pairId, pairs[_pairId].pairName, pairs[_pairId].baseDecimals, pairs[_pairId].quoteDecimals);\n    }\n\n    /**\n    * @dev get a pair price\n    * @param _pairId number of the pair\n    * @return price of the pair\n    */\n    function getPairValue(uint _pairId) public view returns (uint) {\n        // eth vs stable coin expressed in 6 or more decimals\n        require(_pairId < pairCounter, \"pair does not exists\");\n        return pairs[_pairId].pairValue;\n    }\n\n    /**\n    * @dev get a pair name\n    * @param _pairId number of the pair\n    * @return name of the pair\n    */\n    function getPairName(uint _pairId) external view returns (string memory) {\n        require(_pairId < pairCounter, \"pair does not exists\");\n        return pairs[_pairId].pairName;\n    }\n\n    /**\n    * @dev get a pair decimals\n    * @param _pairId number of the pair\n    * @return decimals of the pair\n    */\n    function getPairDecimals(uint _pairId) public view returns (uint8) {\n        // eth vs stable coin expressed in 6 or more decimals\n        require(_pairId < pairCounter, \"pair does not exists\");\n        return pairs[_pairId].pairDecimals;\n    }\n\n    /**\n    * @dev get a pair base decimals\n    * @param _pairId number of the pair\n    * @return number of base currency decimals\n    */\n    function getPairBaseDecimals(uint _pairId) public view returns (uint8) {\n        require(_pairId < pairCounter, \"pair does not exists\");\n        return pairs[_pairId].baseDecimals;\n    }\n\n    /**\n    * @dev get a pair quote decimals\n    * @param _pairId number of the pair\n    * @return number of quote currency decimals\n    */\n    function getPairQuoteDecimals(uint _pairId) public view returns (uint8) {\n        require(_pairId < pairCounter, \"pair does not exists\");\n        return pairs[_pairId].quoteDecimals;\n    }\n\n    /**\n    * @dev get a pair quote decimals\n    * @param _pairId number of the pair\n    * @return address of base contract\n    */\n    function getPairBaseAddress(uint _pairId) public view returns (address) {\n        require(_pairId < pairCounter, \"pair does not exists\");\n        return pairs[_pairId].baseAddress;\n    }\n\n    /**\n    * @dev get a pair quote decimals\n    * @param _pairId number of the pair\n    * @return address of quote contract\n    */\n    function getPairQuoteAddress(uint _pairId) public view returns (address) {\n        require(_pairId < pairCounter, \"pair does not exists\");\n        return pairs[_pairId].quoteAddress;\n    }\n\n    /**\n    * @dev math round up\n    * @param numerator numerator\n    * @param denominator denominator\n    * @param precision precision\n    * @return number of quote currency decimals\n    */\n    function roundUp(uint numerator, uint denominator, uint precision) internal pure returns (uint) {\n         // caution, check safe-to-multiply here\n        uint _numerator  = numerator.mul(10 ** (precision.add(1)));\n        // with rounding of last digit\n        uint _quotient =  ((_numerator.div(denominator)).add(5)).div(10);\n        return _quotient;\n    }\n\n    /**\n    * @dev calculate fees on collateral amount\n    * @param _collAmount collateral amount\n    * @return amount of collateral fees\n    */\n    function calculateCollFeesOnActivation(uint _collAmount) public view returns (uint) {\n        return roundUp(_collAmount.mul(generalFees.factoryFees), 1000, 0);\n    }\n\n    /**\n    * @dev get the amount of collateral needed to have stable coin amount (no fees)\n    * @param _pairId number of the pair\n    * @param _askAmount amount in stable coin the borrower would like to receive\n    * @return amount of collateral the borrower needs to send\n    */\n    function calcMinCollateralAmount(uint _pairId, uint _askAmount) public view returns (uint) {\n        uint price = getPairValue(_pairId);\n        uint minCollEthAmount = roundUp(_askAmount.mul(generalParams.requiredCollateralRatio).div(100).mul(10**uint(pairs[_pairId].pairDecimals)), price, 0);\n        if (pairs[_pairId].baseDecimals >= pairs[_pairId].quoteDecimals) {\n            uint diffBaseQuoteDecimals = uint(pairs[_pairId].baseDecimals).sub(uint(pairs[_pairId].quoteDecimals));\n            minCollEthAmount = minCollEthAmount.mul(10 ** diffBaseQuoteDecimals).add(5); //add 5 to be sure evrything is ok\n        } else {\n            uint diffBaseQuoteDecimals = uint(pairs[_pairId].quoteDecimals).sub(uint(pairs[_pairId].baseDecimals));\n            minCollEthAmount = minCollEthAmount.div(10 ** diffBaseQuoteDecimals).add(5); //add 5 to be sure evrything is ok\n        }\n        return minCollEthAmount;\n    }\n\n    /**\n    * @dev get the amount of collateral needed to have stable coin amount, with fees\n    * @param _pairId number of the pair\n    * @param _askAmount amount in stable coin the borrower would like to receive\n    * @return amount of collateral the borrower needs to send\n    */\n    function calcMinCollateralWithFeesAmount(uint _pairId, uint _askAmount) public view returns (uint) {\n        uint minCollEthAmount = calcMinCollateralAmount(_pairId, _askAmount);\n        uint feesCollAmount = calculateCollFeesOnActivation(minCollEthAmount);\n        uint totalCollAmountWithFees = minCollEthAmount.add(feesCollAmount);\n        return totalCollAmountWithFees;\n    }\n\n    /**\n    * @dev set GeneralParams\n    * @param _value set new param\n    */\n    function setEarlySettlementWindow (uint _value) external onlyOwner {\n        generalParams.earlySettlementWindow = _value;\n    }\n\n    /**\n    * @dev set GeneralParams\n    * @param _value set new param\n    */\n    function setForeclosureWindow (uint _value) external onlyOwner {\n        generalParams.foreclosureWindow = _value;\n    }\n\n    function setForeclosureRatio(uint8 _value) external onlyOwner {\n        generalParams.foreclosingRatio = _value;\n    }\n\n    /**\n    * @dev set GeneralParams\n    * @param _value set new param\n    */\n    function setInstantForeclosureRatio (uint8 _value) external onlyOwner {\n        generalParams.instantForeclosureRatio = _value;\n    }\n\n    /**\n    * @dev set GeneralParams\n    * @param _value set new param\n    */\n    function setMinRpbRate (uint _value) external onlyOwner {\n        generalParams.minRpbRate = _value;\n    }\n\n    /**\n    * @dev set GeneralParams\n    * @param _value set new param\n    */\n    function setRequiredCollateralRatio (uint8 _value) external onlyOwner {\n        generalParams.requiredCollateralRatio = _value;\n    }\n/*\n    /**\n    * @dev set General Params\n    * @param _earlySettlementWindow set new early settlement window\n    * @param _foreclosureWindow set new foreclosure window\n    * @param _foreclosureRatio set new foreclosure ratio\n    * @param _instantForeclosureRatio set new instant foreclosure\n    * @param _minRpbRate set new minimum return per block rate\n    * @param _requiredCollateralRatio set new required collateral ratio\n    * @param _limitCollRatioForWithdraw set new limit to ratio necessary to withdraw collateral from contracts \n    */\n/*    function setGeneralParams(uint _earlySettlementWindow, uint _foreclosureWindow, uint8 _foreclosureRatio,\n            uint8 _instantForeclosureRatio, uint _minRpbRate, uint8 _requiredCollateralRatio, uint8 _limitCollRatioForWithdraw) external onlyOwner {\n        generalParams.earlySettlementWindow = _earlySettlementWindow;\n        generalParams.foreclosureWindow = _foreclosureWindow;\n        generalParams.foreclosingRatio = _foreclosureRatio;\n        generalParams.instantForeclosureRatio = _instantForeclosureRatio;\n        generalParams.minRpbRate = _minRpbRate;\n        generalParams.requiredCollateralRatio = _requiredCollateralRatio;\n        generalParams.limitCollRatioForWithdraw = _limitCollRatioForWithdraw;\n    }\n*/\n    /**\n    * @dev set GeneralParams\n    * @param _value set new param\n    */\n    function setFactoryFees (uint8 _value) external onlyOwner {\n        generalFees.factoryFees = _value;\n    }\n\n    /**\n    * @dev set GeneralParams\n    * @param _value set new param\n    */\n    function setEarlySettlementFee (uint _value) external onlyOwner {\n        generalFees.earlySettlementFee = _value;\n    }\n\n    /**\n    * @dev set GeneralParams\n    * @param _value set new param\n    */\n    function setUserRewardShare (uint8 _value) external onlyOwner {\n        generalFees.userRewardShare = _value;\n    }\n\n    /**\n    * @dev set GeneralParams\n    * @param _value set new param\n    */\n    function setVaultShares (uint8 _value) external onlyOwner {\n        generalFees.vaultShare = _value;\n    }\n\n    /**\n    * @dev set GeneralParams\n    * @param _value set new param\n    */\n    function setUndercollateralizedForeclosingMultiple (uint16 _value) external onlyOwner {\n        generalFees.undercollateralizedForeclosingMultiple = _value;\n    }\n\n    /**\n    * @dev set GeneralParams\n    * @param _value set new param\n    */\n    function setAtRiskForeclosedMultiple (uint16 _value) external onlyOwner {\n        generalFees.atRiskForeclosedMultiple = _value;\n    }\n\n    /**\n    * @dev set GeneralParams\n    * @param _value set new param\n    */\n    function setCancellationFees (uint8 _value) external onlyOwner {\n        generalFees.cancellationFees = _value;\n    }\n/*\n    /**\n    * @dev set General Fees\n    * @param _factoryFees set new factory fee\n    * @param _earlySettlementFee set new early settlement fee\n    * @param _userRewardShare set new user reward share\n    * @param _vaultShare set new vault share\n    * @param _undercollateralizedForeclosingMultiple set new under collateralized foreclosing multiple\n    * @param _atRiskForeclosedMultiple set new at risk foreclosed multiple\n    * @param _cancellationFees set new cancellation fee\n    */\n/*    function setGeneralFees(uint8 _factoryFees, uint _earlySettlementFee, uint8 _userRewardShare, uint8 _vaultShare,\n            uint16 _undercollateralizedForeclosingMultiple, uint16 _atRiskForeclosedMultiple, uint8 _cancellationFees) external onlyOwner {\n        generalFees.factoryFees = _factoryFees;\n        generalFees.earlySettlementFee = _earlySettlementFee;\n        generalFees.userRewardShare = _userRewardShare;\n        generalFees.vaultShare = _vaultShare;\n        generalFees.undercollateralizedForeclosingMultiple = _undercollateralizedForeclosingMultiple;\n        generalFees.atRiskForeclosedMultiple = _atRiskForeclosedMultiple;\n        generalFees.cancellationFees = _cancellationFees;\n    }\n*/ \n    /**\n    * @dev get all general GeneralParams\n    * @return param struct\n    */\n    function getGeneralParams() external view returns (GeneralParams memory) {\n        return generalParams;\n    }\n\n    /**\n    * @dev get all general GeneralParams\n    * @return param struct\n    */\n    function getGeneralFees() external view returns (FeesParams memory) {\n        return generalFees;\n    }\n\n    function getMsgSenderBalance() external view returns (uint) {\n        return msg.sender.balance;\n    }\n\n    /**\n    * @dev create a new loan with eth as collateraland set the address in the mapping\n    * @param _pairId number of the pair interested in the loan contract\n    * @param _borrowedAskAmount amount in stable coin the borrower would like to receive\n    * @param _rpbRate RPB rate the borrower will pay \n    * @return address of the new contract\n    */\n    function createNewEthLoan(uint _pairId, uint _borrowedAskAmount, uint _rpbRate) external payable nonReentrant returns (address) {\n        // in wei\n        uint minCollateralEth = calcMinCollateralWithFeesAmount(_pairId, _borrowedAskAmount);\n        require(msg.value >= minCollateralEth, \"Please send more ethers\");\n        address _quoteAddress = pairs[_pairId].quoteAddress;\n        address newEthLoan = ethDeplContract.deployNewEthLoanContract{value: msg.value}\n                    (msg.sender, loanID, _pairId, _borrowedAskAmount, _rpbRate, address(this), _quoteAddress);\n        deployedLoans[loanID] = newEthLoan;\n        emit NewEthLoanCreated(loanID, msg.sender, newEthLoan, msg.value, minCollateralEth, address(0));\n        loanID = loanID.add(1);\n        contractCounter = contractCounter.add(1);\n        return newEthLoan;\n    }\n\n    /**\n    * @dev create a new loan and set the address in the mapping\n    * @param _pairId number of the pair interested in the loan contract\n    * @param _borrowedAskAmount amount in stable coin the borrower would like to receive\n    * @param _rpbRate RPB rate the borrower will pay \n    * @return address of the new contract\n    */\n    function createNewTokenLoan(uint _pairId, uint _borrowedAskAmount, uint _rpbRate) external nonReentrant returns (address) {\n        uint totalCollateralTokens = calcMinCollateralWithFeesAmount(_pairId, _borrowedAskAmount);\n        uint256 allowance = IERC20(pairs[_pairId].baseAddress).allowance(msg.sender, generalParams.tokenDeployerAddress);  //check the allowance on the deployer\n        require(allowance >= totalCollateralTokens, \"Check the token allowance\");\n        address _baseAddress = pairs[_pairId].baseAddress;\n        address _quoteAddress = pairs[_pairId].quoteAddress;\n        address newTokenLoan = tokenDeplContract.deployNewTokenLoanContract(msg.sender, loanID, _pairId, _borrowedAskAmount, _rpbRate, \n                    address(this), _baseAddress, _quoteAddress, totalCollateralTokens);\n        deployedLoans[loanID] = newTokenLoan;\n        emit NewTokenLoanCreated(loanID, msg.sender, newTokenLoan, _baseAddress);\n        loanID = loanID.add(1);\n        contractCounter = contractCounter.add(1);\n        return newTokenLoan;\n    }\n\n\n    /**\n    * @dev get all deployers addresses\n    * @return addresses of the deployer\n    */\n    function getEnvironmentDeployers() external view returns(address, address) {\n        return (address(ethDeplContract), address(tokenDeplContract));\n    }\n\n    /**\n    * @dev get a single loan address deployed by the factory\n    * @return loan contract address\n    */\n    function getDeployedLoan(uint _idx) external view returns (address) {\n        return deployedLoans[_idx];\n    }\n\n    /**\n    * @dev get the collateral ratio of the loan (subtracting the accrued interests)\n    * @param _pairId loan pair Id\n    * @param _loanAddress loan address\n    * @param _loanStatus loan status\n    * @param _borrowedAskAmount loan borrowed ask amount in stable coins\n    * @param _accruedInterests loan accrued interests\n    * @return newCollRatio collateral ratio\n    */\n    function getActualCollateralRatio(uint _pairId, address _loanAddress,\n                    uint _loanStatus, uint _borrowedAskAmount, uint _accruedInterests) external view returns (uint newCollRatio) {\n        uint newPrice = getPairValue(_pairId);\n        uint pairDecimals = getPairDecimals(_pairId);\n        address collAddress = getPairBaseAddress(_pairId);\n        uint8 collDecimals = getPairBaseDecimals(_pairId);\n        uint8 lendDecimals = getPairQuoteDecimals(_pairId);\n        uint borrAmnt = _borrowedAskAmount;\n        uint loanBalance;\n        if (collAddress == address(0)) {\n            if (_loanStatus == 0)\n                loanBalance = _loanAddress.balance;\n            else\n                loanBalance = (_loanAddress.balance).sub(_accruedInterests);\n        } else {\n            address tokenLoanAddress = _loanAddress;\n            if (_loanStatus == 0)\n                loanBalance = IERC20(collAddress).balanceOf(tokenLoanAddress);\n            else\n                loanBalance = (IERC20(collAddress).balanceOf(tokenLoanAddress)).sub(_accruedInterests); \n        }\n        uint numerator = loanBalance.mul(newPrice).mul(100);\n        uint quotient = borrAmnt.mul(10 ** pairDecimals);\n        if (collDecimals >= lendDecimals) {\n            uint diffBaseQuoteDecimals = uint(collDecimals).sub(uint(lendDecimals));\n            newCollRatio = numerator.div(quotient).div(10 ** diffBaseQuoteDecimals);\n        } else {\n            uint diffBaseQuoteDecimals = uint(lendDecimals).sub(uint(collDecimals));\n            newCollRatio = numerator.mul(10 ** diffBaseQuoteDecimals).div(quotient);\n        }\n        return newCollRatio;\n    }\n\n    /**\n    * @dev calc a new ratio if collateral amount has added to contract balance\n    * @param _amount collateral amount to add\n    * @param _pairId pair Id\n    * @param _loanAddress loan address\n    * @param _borrowedAskAmount borrowed ask amount\n    * @param _adding bool, true if _amount is added, false if amount is removed to loan\n    * @return ratio new collateral ratio, percentage with no decimals\n    */\n    function calcRatioAdjustingCollateral(uint _amount, uint _pairId, address _loanAddress, uint _borrowedAskAmount, bool _adding) external view returns (uint ratio) {\n        uint actualPrice = getPairValue(_pairId);\n        uint pairDecimals = getPairDecimals(_pairId);\n        address collAddress = getPairBaseAddress(_pairId);\n        uint8 collDecimals = getPairBaseDecimals(_pairId);\n        uint8 lendDecimals = getPairQuoteDecimals(_pairId);\n        uint borrAmnt = _borrowedAskAmount;\n        uint loanBalance;\n        uint newLoanBal;\n        if (collAddress == address(0))\n            loanBalance = _loanAddress.balance;\n        else\n            loanBalance = IERC20(collAddress).balanceOf(_loanAddress);\n        if (_adding)\n            newLoanBal = loanBalance.add(_amount);\n        else {\n            if (_amount <= loanBalance)\n                newLoanBal = loanBalance.sub(_amount);\n            else\n                return 0;\n        }\n        uint numerator = newLoanBal.mul(actualPrice).mul(100);\n        uint quotient = borrAmnt.mul(10 ** pairDecimals);\n        if (collDecimals >= lendDecimals) {\n            uint diffBaseQuoteDecimals = uint(collDecimals).sub(uint(lendDecimals));\n            ratio = numerator.div(quotient).div(10 ** diffBaseQuoteDecimals);\n        } else {\n            uint diffBaseQuoteDecimals = uint(lendDecimals).sub(uint(collDecimals));\n            ratio = numerator.mul(10 ** diffBaseQuoteDecimals).div(quotient);\n        }\n        return ratio;\n    }\n\n    /**\n    * @dev calc how much collateral amount has to be added to have a ratio\n    * @param _ratio ratio to reach, percentage with no decimals (180 means 180%)\n    * @param _pairId loan pair Id\n    * @param _loanAddress loan address\n    * @param _borrowedAskAmount loan borrowed ask amount in stable coins\n    * @return collDiff collateral amount to add or to subtract to reach that ratio\n    */\n    function calcDiffCollAmountForRatio(uint _ratio, uint _pairId, address _loanAddress, uint _borrowedAskAmount) external view returns (uint collDiff) {\n        uint actualPrice = getPairValue(_pairId);\n        uint pairDecimals = getPairDecimals(_pairId);\n        address collAddress = getPairBaseAddress(_pairId);\n        uint8 collDecimals = getPairBaseDecimals(_pairId);\n        uint8 lendDecimals = getPairQuoteDecimals(_pairId);\n        uint borrAmnt = _borrowedAskAmount;\n        uint loanBalance;\n        if (collAddress == address(0)) \n            loanBalance = _loanAddress.balance;\n        else\n            loanBalance = IERC20(collAddress).balanceOf(_loanAddress);\n        uint newBal;\n        uint newRatio = _ratio;\n        uint numerator = borrAmnt.mul(newRatio).mul(10 ** pairDecimals);\n        uint quotient = actualPrice.mul(100);\n        if (collDecimals >= lendDecimals) {\n            uint diffBaseQuoteDecimals = uint(collDecimals).sub(uint(lendDecimals));\n            newBal = numerator.mul(10 ** diffBaseQuoteDecimals).div(quotient);\n        } else {\n            uint diffBaseQuoteDecimals = uint(lendDecimals).sub(uint(collDecimals));\n            newBal = numerator.div(quotient).div(10 ** diffBaseQuoteDecimals);\n        }\n        if (newBal >= loanBalance)\n            collDiff = newBal.sub(loanBalance);\n        else\n            collDiff = loanBalance.sub(newBal);\n        return collDiff;\n    }\n    \n}\n",
  "sourcePath": "C:/Users/saurabh/code/Jibrel/defi-smartcontracts/LoansFactoryV1/contracts/JFactory.sol",
  "compiler": {
    "name": "solc",
    "version": "0.6.11+commit.5ef660b1.Emscripten.clang"
  },
  "schemaVersion": "3.3.1",
  "updatedAt": "2020-10-27T10:21:42.883Z",
  "networkType": "ethereum",
  "devdoc": {
    "kind": "dev",
    "methods": {
      "calcDiffCollAmountForRatio(uint256,uint256,address,uint256)": {
        "details": "calc how much collateral amount has to be added to have a ratio",
        "params": {
          "_borrowedAskAmount": "loan borrowed ask amount in stable coins",
          "_loanAddress": "loan address",
          "_pairId": "loan pair Id",
          "_ratio": "ratio to reach, percentage with no decimals (180 means 180%)"
        },
        "returns": {
          "collDiff": "collateral amount to add or to subtract to reach that ratio"
        }
      },
      "calcMinCollateralAmount(uint256,uint256)": {
        "details": "get the amount of collateral needed to have stable coin amount (no fees)",
        "params": {
          "_askAmount": "amount in stable coin the borrower would like to receive",
          "_pairId": "number of the pair"
        },
        "returns": {
          "_0": "amount of collateral the borrower needs to send"
        }
      },
      "calcMinCollateralWithFeesAmount(uint256,uint256)": {
        "details": "get the amount of collateral needed to have stable coin amount, with fees",
        "params": {
          "_askAmount": "amount in stable coin the borrower would like to receive",
          "_pairId": "number of the pair"
        },
        "returns": {
          "_0": "amount of collateral the borrower needs to send"
        }
      },
      "calcRatioAdjustingCollateral(uint256,uint256,address,uint256,bool)": {
        "details": "calc a new ratio if collateral amount has added to contract balance",
        "params": {
          "_adding": "bool, true if _amount is added, false if amount is removed to loan",
          "_amount": "collateral amount to add",
          "_borrowedAskAmount": "borrowed ask amount",
          "_loanAddress": "loan address",
          "_pairId": "pair Id"
        },
        "returns": {
          "ratio": "new collateral ratio, percentage with no decimals"
        }
      },
      "calculateCollFeesOnActivation(uint256)": {
        "details": "calculate fees on collateral amount",
        "params": {
          "_collAmount": "collateral amount"
        },
        "returns": {
          "_0": "amount of collateral fees"
        }
      },
      "createNewEthLoan(uint256,uint256,uint256)": {
        "details": "create a new loan with eth as collateraland set the address in the mapping",
        "params": {
          "_borrowedAskAmount": "amount in stable coin the borrower would like to receive",
          "_pairId": "number of the pair interested in the loan contract",
          "_rpbRate": "RPB rate the borrower will pay "
        },
        "returns": {
          "_0": "address of the new contract"
        }
      },
      "createNewTokenLoan(uint256,uint256,uint256)": {
        "details": "create a new loan and set the address in the mapping",
        "params": {
          "_borrowedAskAmount": "amount in stable coin the borrower would like to receive",
          "_pairId": "number of the pair interested in the loan contract",
          "_rpbRate": "RPB rate the borrower will pay "
        },
        "returns": {
          "_0": "address of the new contract"
        }
      },
      "getActualCollateralRatio(uint256,address,uint256,uint256,uint256)": {
        "details": "get the collateral ratio of the loan (subtracting the accrued interests)",
        "params": {
          "_accruedInterests": "loan accrued interests",
          "_borrowedAskAmount": "loan borrowed ask amount in stable coins",
          "_loanAddress": "loan address",
          "_loanStatus": "loan status",
          "_pairId": "loan pair Id"
        },
        "returns": {
          "newCollRatio": "collateral ratio"
        }
      },
      "getDeployedLoan(uint256)": {
        "details": "get a single loan address deployed by the factory",
        "returns": {
          "_0": "loan contract address"
        }
      },
      "getEnvironmentDeployers()": {
        "details": "get all deployers addresses",
        "returns": {
          "_0": "addresses of the deployer"
        }
      },
      "getGeneralFees()": {
        "details": "get all general GeneralParams",
        "returns": {
          "_0": "param struct"
        }
      },
      "getGeneralParams()": {
        "details": "get all general GeneralParams",
        "returns": {
          "_0": "param struct"
        }
      },
      "getPairBaseAddress(uint256)": {
        "details": "get a pair quote decimals",
        "params": {
          "_pairId": "number of the pair"
        },
        "returns": {
          "_0": "address of base contract"
        }
      },
      "getPairBaseDecimals(uint256)": {
        "details": "get a pair base decimals",
        "params": {
          "_pairId": "number of the pair"
        },
        "returns": {
          "_0": "number of base currency decimals"
        }
      },
      "getPairDecimals(uint256)": {
        "details": "get a pair decimals",
        "params": {
          "_pairId": "number of the pair"
        },
        "returns": {
          "_0": "decimals of the pair"
        }
      },
      "getPairName(uint256)": {
        "details": "get a pair name",
        "params": {
          "_pairId": "number of the pair"
        },
        "returns": {
          "_0": "name of the pair"
        }
      },
      "getPairQuoteAddress(uint256)": {
        "details": "get a pair quote decimals",
        "params": {
          "_pairId": "number of the pair"
        },
        "returns": {
          "_0": "address of quote contract"
        }
      },
      "getPairQuoteDecimals(uint256)": {
        "details": "get a pair quote decimals",
        "params": {
          "_pairId": "number of the pair"
        },
        "returns": {
          "_0": "number of quote currency decimals"
        }
      },
      "getPairValue(uint256)": {
        "details": "get a pair price",
        "params": {
          "_pairId": "number of the pair"
        },
        "returns": {
          "_0": "price of the pair"
        }
      },
      "owner()": {
        "details": "Returns the address of the current owner."
      },
      "renounceOwnership()": {
        "details": "Leaves the contract without owner. It will not be possible to call `onlyOwner` functions anymore. Can only be called by the current owner. NOTE: Renouncing ownership will leave the contract without an owner, thereby removing any functionality that is only available to the owner."
      },
      "setAtRiskForeclosedMultiple(uint16)": {
        "details": "set GeneralParams",
        "params": {
          "_value": "set new param"
        }
      },
      "setBaseQuoteDecimals(uint256,uint8,uint8)": {
        "details": "set a base and quote decimals for the specified pair",
        "params": {
          "_baseDecimals": "base decimals of the pair",
          "_pairId": "number of the pair",
          "_quoteDecimals": "quote decimals for pair"
        }
      },
      "setCancellationFees(uint8)": {
        "details": "set GeneralParams",
        "params": {
          "_value": "set new param"
        }
      },
      "setEarlySettlementFee(uint256)": {
        "details": "set GeneralParams",
        "params": {
          "_value": "set new param"
        }
      },
      "setEarlySettlementWindow(uint256)": {
        "details": "set GeneralParams",
        "params": {
          "_value": "set new param"
        }
      },
      "setEthDeployerAddress(address)": {
        "details": "set a new address for ETH deployer contract",
        "params": {
          "_ethDepl": "new address"
        }
      },
      "setFactoryFees(uint8)": {
        "details": "set GeneralParams",
        "params": {
          "_value": "set new param"
        }
      },
      "setForeclosureWindow(uint256)": {
        "details": "set GeneralParams",
        "params": {
          "_value": "set new param"
        }
      },
      "setInstantForeclosureRatio(uint8)": {
        "details": "set GeneralParams",
        "params": {
          "_value": "set new param"
        }
      },
      "setMinRpbRate(uint256)": {
        "details": "set GeneralParams",
        "params": {
          "_value": "set new param"
        }
      },
      "setNewPair(string,uint256,uint8,address,uint8,address,uint8)": {
        "details": "set a new pair",
        "params": {
          "_baseAddress": "base address token",
          "_baseDecimals": "base decimals token",
          "_pairDecimals": "number of decimals for pair",
          "_pairName": "string describing the pair (i.e. ETHDAI)",
          "_price": "price of the pair",
          "_quoteAddress": "quote address token",
          "_quoteDecimals": "quote decimals token"
        }
      },
      "setPairValue(uint256,uint256,uint8)": {
        "details": "set a price for the specified pair",
        "params": {
          "_pairDecimals": "number of decimals for pair",
          "_pairId": "number of the pair",
          "_price": "price of the pair"
        }
      },
      "setRequiredCollateralRatio(uint8)": {
        "details": "set GeneralParams",
        "params": {
          "_value": "set new param"
        }
      },
      "setTokenDeployerAddress(address)": {
        "details": "set a new address for token deployer contract",
        "params": {
          "_tokenDepl": "new address"
        }
      },
      "setUndercollateralizedForeclosingMultiple(uint16)": {
        "details": "set GeneralParams",
        "params": {
          "_value": "set new param"
        }
      },
      "setUserRewardShare(uint8)": {
        "details": "set GeneralParams",
        "params": {
          "_value": "set new param"
        }
      },
      "setVaultShares(uint8)": {
        "details": "set GeneralParams",
        "params": {
          "_value": "set new param"
        }
      },
      "transferOwnership(address)": {
        "details": "Transfers ownership of the contract to a new account (`newOwner`). Can only be called by the current owner."
      }
    },
    "version": 1
  },
  "userdoc": {
    "kind": "user",
    "methods": {},
    "version": 1
  }
}