{
  "contractName": "JFactory",
  "abi": [
    {
      "inputs": [
        {
          "internalType": "address",
          "name": "_ethDepl",
          "type": "address"
        },
        {
          "internalType": "address",
          "name": "_tokenDepl",
          "type": "address"
        }
      ],
      "stateMutability": "nonpayable",
      "type": "constructor"
    },
    {
      "anonymous": false,
      "inputs": [
        {
          "indexed": true,
          "internalType": "uint256",
          "name": "loanId",
          "type": "uint256"
        },
        {
          "indexed": true,
          "internalType": "address",
          "name": "sender",
          "type": "address"
        },
        {
          "indexed": true,
          "internalType": "address",
          "name": "newLoan",
          "type": "address"
        },
        {
          "indexed": false,
          "internalType": "uint256",
          "name": "value",
          "type": "uint256"
        },
        {
          "indexed": false,
          "internalType": "address",
          "name": "collateralTokenAddress",
          "type": "address"
        }
      ],
      "name": "NewEthLoanCreated",
      "type": "event"
    },
    {
      "anonymous": false,
      "inputs": [
        {
          "indexed": true,
          "internalType": "uint256",
          "name": "_pairId",
          "type": "uint256"
        },
        {
          "indexed": false,
          "internalType": "string",
          "name": "_pairName",
          "type": "string"
        }
      ],
      "name": "NewPair",
      "type": "event"
    },
    {
      "anonymous": false,
      "inputs": [
        {
          "indexed": true,
          "internalType": "uint256",
          "name": "pairId",
          "type": "uint256"
        },
        {
          "indexed": true,
          "internalType": "string",
          "name": "pairName",
          "type": "string"
        },
        {
          "indexed": false,
          "internalType": "address",
          "name": "baseAddress",
          "type": "address"
        },
        {
          "indexed": false,
          "internalType": "address",
          "name": "quoteAddress",
          "type": "address"
        }
      ],
      "name": "NewPairAddresses",
      "type": "event"
    },
    {
      "anonymous": false,
      "inputs": [
        {
          "indexed": true,
          "internalType": "uint256",
          "name": "pairId",
          "type": "uint256"
        },
        {
          "indexed": true,
          "internalType": "string",
          "name": "pairName",
          "type": "string"
        },
        {
          "indexed": false,
          "internalType": "uint8",
          "name": "baseDecimals",
          "type": "uint8"
        },
        {
          "indexed": false,
          "internalType": "uint8",
          "name": "quoteDecimals",
          "type": "uint8"
        }
      ],
      "name": "NewPairDecimals",
      "type": "event"
    },
    {
      "anonymous": false,
      "inputs": [
        {
          "indexed": true,
          "internalType": "uint256",
          "name": "pairId",
          "type": "uint256"
        },
        {
          "indexed": true,
          "internalType": "string",
          "name": "pairName",
          "type": "string"
        },
        {
          "indexed": false,
          "internalType": "uint256",
          "name": "pairValue",
          "type": "uint256"
        },
        {
          "indexed": false,
          "internalType": "uint8",
          "name": "pairDecimals",
          "type": "uint8"
        }
      ],
      "name": "NewPrice",
      "type": "event"
    },
    {
      "anonymous": false,
      "inputs": [
        {
          "indexed": true,
          "internalType": "uint256",
          "name": "loanId",
          "type": "uint256"
        },
        {
          "indexed": true,
          "internalType": "address",
          "name": "sender",
          "type": "address"
        },
        {
          "indexed": true,
          "internalType": "address",
          "name": "newLoan",
          "type": "address"
        },
        {
          "indexed": false,
          "internalType": "address",
          "name": "collateralTokenAddress",
          "type": "address"
        }
      ],
      "name": "NewTokenLoanCreated",
      "type": "event"
    },
    {
      "anonymous": false,
      "inputs": [
        {
          "indexed": true,
          "internalType": "address",
          "name": "previousOwner",
          "type": "address"
        },
        {
          "indexed": true,
          "internalType": "address",
          "name": "newOwner",
          "type": "address"
        }
      ],
      "name": "OwnershipTransferred",
      "type": "event"
    },
    {
      "inputs": [],
      "name": "ZERO_ADDRESS",
      "outputs": [
        {
          "internalType": "address",
          "name": "",
          "type": "address"
        }
      ],
      "stateMutability": "view",
      "type": "function",
      "constant": true
    },
    {
      "inputs": [],
      "name": "contractCounter",
      "outputs": [
        {
          "internalType": "uint256",
          "name": "",
          "type": "uint256"
        }
      ],
      "stateMutability": "view",
      "type": "function",
      "constant": true
    },
    {
      "inputs": [],
      "name": "ethDeplContract",
      "outputs": [
        {
          "internalType": "contract IJLoanEthDeployer",
          "name": "",
          "type": "address"
        }
      ],
      "stateMutability": "view",
      "type": "function",
      "constant": true
    },
    {
      "inputs": [],
      "name": "factoryDeployBlock",
      "outputs": [
        {
          "internalType": "uint256",
          "name": "",
          "type": "uint256"
        }
      ],
      "stateMutability": "view",
      "type": "function",
      "constant": true
    },
    {
      "inputs": [],
      "name": "generalFees",
      "outputs": [
        {
          "internalType": "uint256",
          "name": "factoryFees",
          "type": "uint256"
        },
        {
          "internalType": "uint256",
          "name": "earlySettlementFee",
          "type": "uint256"
        },
        {
          "internalType": "uint256",
          "name": "userRewardShare",
          "type": "uint256"
        },
        {
          "internalType": "uint256",
          "name": "vaultShare",
          "type": "uint256"
        },
        {
          "internalType": "uint256",
          "name": "undercollateralizedForeclosingMultiple",
          "type": "uint256"
        },
        {
          "internalType": "uint256",
          "name": "atRiskForeclosedMultiple",
          "type": "uint256"
        },
        {
          "internalType": "uint256",
          "name": "cancellationFees",
          "type": "uint256"
        }
      ],
      "stateMutability": "view",
      "type": "function",
      "constant": true
    },
    {
      "inputs": [],
      "name": "generalParams",
      "outputs": [
        {
          "internalType": "uint256",
          "name": "minRpbRate",
          "type": "uint256"
        },
        {
          "internalType": "uint256",
          "name": "earlySettlementWindow",
          "type": "uint256"
        },
        {
          "internalType": "uint256",
          "name": "foreclosureWindow",
          "type": "uint256"
        },
        {
          "internalType": "uint256",
          "name": "requiredCollateralRatio",
          "type": "uint256"
        },
        {
          "internalType": "uint256",
          "name": "foreclosingRatio",
          "type": "uint256"
        },
        {
          "internalType": "uint256",
          "name": "instantForeclosureRatio",
          "type": "uint256"
        },
        {
          "internalType": "address",
          "name": "factoryAddress",
          "type": "address"
        },
        {
          "internalType": "address",
          "name": "ethDeployerAddress",
          "type": "address"
        },
        {
          "internalType": "address",
          "name": "tokenDeployerAddress",
          "type": "address"
        }
      ],
      "stateMutability": "view",
      "type": "function",
      "constant": true
    },
    {
      "inputs": [],
      "name": "lastDepositBlock",
      "outputs": [
        {
          "internalType": "uint256",
          "name": "",
          "type": "uint256"
        }
      ],
      "stateMutability": "view",
      "type": "function",
      "constant": true
    },
    {
      "inputs": [],
      "name": "loanID",
      "outputs": [
        {
          "internalType": "uint256",
          "name": "",
          "type": "uint256"
        }
      ],
      "stateMutability": "view",
      "type": "function",
      "constant": true
    },
    {
      "inputs": [],
      "name": "owner",
      "outputs": [
        {
          "internalType": "address",
          "name": "",
          "type": "address"
        }
      ],
      "stateMutability": "view",
      "type": "function",
      "constant": true
    },
    {
      "inputs": [],
      "name": "pairCounter",
      "outputs": [
        {
          "internalType": "uint256",
          "name": "",
          "type": "uint256"
        }
      ],
      "stateMutability": "view",
      "type": "function",
      "constant": true
    },
    {
      "inputs": [
        {
          "internalType": "uint256",
          "name": "",
          "type": "uint256"
        }
      ],
      "name": "pairs",
      "outputs": [
        {
          "internalType": "string",
          "name": "pairName",
          "type": "string"
        },
        {
          "internalType": "uint256",
          "name": "pairValue",
          "type": "uint256"
        },
        {
          "internalType": "uint8",
          "name": "pairDecimals",
          "type": "uint8"
        },
        {
          "internalType": "address",
          "name": "baseAddress",
          "type": "address"
        },
        {
          "internalType": "uint8",
          "name": "baseDecimals",
          "type": "uint8"
        },
        {
          "internalType": "address",
          "name": "quoteAddress",
          "type": "address"
        },
        {
          "internalType": "uint8",
          "name": "quoteDecimals",
          "type": "uint8"
        }
      ],
      "stateMutability": "view",
      "type": "function",
      "constant": true
    },
    {
      "inputs": [],
      "name": "renounceOwnership",
      "outputs": [],
      "stateMutability": "nonpayable",
      "type": "function"
    },
    {
      "inputs": [],
      "name": "tokenDeplContract",
      "outputs": [
        {
          "internalType": "contract IJLoanTokenDeployer",
          "name": "",
          "type": "address"
        }
      ],
      "stateMutability": "view",
      "type": "function",
      "constant": true
    },
    {
      "inputs": [
        {
          "internalType": "address",
          "name": "newOwner",
          "type": "address"
        }
      ],
      "name": "transferOwnership",
      "outputs": [],
      "stateMutability": "nonpayable",
      "type": "function"
    },
    {
      "inputs": [
        {
          "internalType": "address",
          "name": "_ethDepl",
          "type": "address"
        }
      ],
      "name": "setEthDeployerAddress",
      "outputs": [],
      "stateMutability": "nonpayable",
      "type": "function"
    },
    {
      "inputs": [
        {
          "internalType": "address",
          "name": "_tokenDepl",
          "type": "address"
        }
      ],
      "name": "setTokenDeployerAddress",
      "outputs": [],
      "stateMutability": "nonpayable",
      "type": "function"
    },
    {
      "inputs": [
        {
          "internalType": "string",
          "name": "_pairName",
          "type": "string"
        },
        {
          "internalType": "uint256",
          "name": "_price",
          "type": "uint256"
        },
        {
          "internalType": "uint8",
          "name": "_pairDecimals",
          "type": "uint8"
        },
        {
          "internalType": "address",
          "name": "_baseAddress",
          "type": "address"
        },
        {
          "internalType": "uint8",
          "name": "_baseDecimals",
          "type": "uint8"
        },
        {
          "internalType": "address",
          "name": "_quoteAddress",
          "type": "address"
        },
        {
          "internalType": "uint8",
          "name": "_quoteDecimals",
          "type": "uint8"
        }
      ],
      "name": "setNewPair",
      "outputs": [],
      "stateMutability": "nonpayable",
      "type": "function"
    },
    {
      "inputs": [
        {
          "internalType": "uint256",
          "name": "_pairId",
          "type": "uint256"
        },
        {
          "internalType": "uint256",
          "name": "_price",
          "type": "uint256"
        },
        {
          "internalType": "uint8",
          "name": "_pairDecimals",
          "type": "uint8"
        }
      ],
      "name": "setPairValue",
      "outputs": [],
      "stateMutability": "nonpayable",
      "type": "function"
    },
    {
      "inputs": [
        {
          "internalType": "uint256",
          "name": "_pairId",
          "type": "uint256"
        },
        {
          "internalType": "address",
          "name": "_baseAddress",
          "type": "address"
        },
        {
          "internalType": "address",
          "name": "_quoteAddress",
          "type": "address"
        }
      ],
      "name": "setBaseQuoteAddresses",
      "outputs": [],
      "stateMutability": "nonpayable",
      "type": "function"
    },
    {
      "inputs": [
        {
          "internalType": "uint256",
          "name": "_pairId",
          "type": "uint256"
        },
        {
          "internalType": "uint8",
          "name": "_baseDecimals",
          "type": "uint8"
        },
        {
          "internalType": "uint8",
          "name": "_quoteDecimals",
          "type": "uint8"
        }
      ],
      "name": "setBaseQuoteDecimals",
      "outputs": [],
      "stateMutability": "nonpayable",
      "type": "function"
    },
    {
      "inputs": [
        {
          "internalType": "uint256",
          "name": "_pairId",
          "type": "uint256"
        }
      ],
      "name": "getPairValue",
      "outputs": [
        {
          "internalType": "uint256",
          "name": "",
          "type": "uint256"
        }
      ],
      "stateMutability": "view",
      "type": "function",
      "constant": true
    },
    {
      "inputs": [
        {
          "internalType": "uint256",
          "name": "_pairId",
          "type": "uint256"
        }
      ],
      "name": "getPairName",
      "outputs": [
        {
          "internalType": "string",
          "name": "",
          "type": "string"
        }
      ],
      "stateMutability": "view",
      "type": "function",
      "constant": true
    },
    {
      "inputs": [
        {
          "internalType": "uint256",
          "name": "_pairId",
          "type": "uint256"
        }
      ],
      "name": "getPairDecimals",
      "outputs": [
        {
          "internalType": "uint8",
          "name": "",
          "type": "uint8"
        }
      ],
      "stateMutability": "view",
      "type": "function",
      "constant": true
    },
    {
      "inputs": [
        {
          "internalType": "uint256",
          "name": "_pairId",
          "type": "uint256"
        }
      ],
      "name": "getPairBaseDecimals",
      "outputs": [
        {
          "internalType": "uint8",
          "name": "",
          "type": "uint8"
        }
      ],
      "stateMutability": "view",
      "type": "function",
      "constant": true
    },
    {
      "inputs": [
        {
          "internalType": "uint256",
          "name": "_pairId",
          "type": "uint256"
        }
      ],
      "name": "getPairQuoteDecimals",
      "outputs": [
        {
          "internalType": "uint8",
          "name": "",
          "type": "uint8"
        }
      ],
      "stateMutability": "view",
      "type": "function",
      "constant": true
    },
    {
      "inputs": [
        {
          "internalType": "uint256",
          "name": "numerator",
          "type": "uint256"
        },
        {
          "internalType": "uint256",
          "name": "denominator",
          "type": "uint256"
        },
        {
          "internalType": "uint256",
          "name": "precision",
          "type": "uint256"
        }
      ],
      "name": "roundUp",
      "outputs": [
        {
          "internalType": "uint256",
          "name": "",
          "type": "uint256"
        }
      ],
      "stateMutability": "pure",
      "type": "function",
      "constant": true
    },
    {
      "inputs": [
        {
          "internalType": "uint256",
          "name": "numerator",
          "type": "uint256"
        },
        {
          "internalType": "uint256",
          "name": "denominator",
          "type": "uint256"
        },
        {
          "internalType": "uint256",
          "name": "precision",
          "type": "uint256"
        }
      ],
      "name": "roundDn",
      "outputs": [
        {
          "internalType": "uint256",
          "name": "",
          "type": "uint256"
        }
      ],
      "stateMutability": "pure",
      "type": "function",
      "constant": true
    },
    {
      "inputs": [
        {
          "internalType": "uint256",
          "name": "_collAmount",
          "type": "uint256"
        }
      ],
      "name": "calculateCollFeesOnActivation",
      "outputs": [
        {
          "internalType": "uint256",
          "name": "",
          "type": "uint256"
        }
      ],
      "stateMutability": "view",
      "type": "function",
      "constant": true
    },
    {
      "inputs": [
        {
          "internalType": "uint256",
          "name": "_pairId",
          "type": "uint256"
        },
        {
          "internalType": "uint256",
          "name": "_askAmount",
          "type": "uint256"
        }
      ],
      "name": "calcMinCollateralAmount",
      "outputs": [
        {
          "internalType": "uint256",
          "name": "",
          "type": "uint256"
        }
      ],
      "stateMutability": "view",
      "type": "function",
      "constant": true
    },
    {
      "inputs": [
        {
          "internalType": "uint256",
          "name": "_pairId",
          "type": "uint256"
        },
        {
          "internalType": "uint256",
          "name": "_askAmount",
          "type": "uint256"
        }
      ],
      "name": "calcMinCollateralWithFeesAmount",
      "outputs": [
        {
          "internalType": "uint256",
          "name": "",
          "type": "uint256"
        }
      ],
      "stateMutability": "view",
      "type": "function",
      "constant": true
    },
    {
      "inputs": [
        {
          "internalType": "uint256",
          "name": "_pairId",
          "type": "uint256"
        },
        {
          "internalType": "uint256",
          "name": "_collAmount",
          "type": "uint256"
        }
      ],
      "name": "calcMaxStableCoinAmount",
      "outputs": [
        {
          "internalType": "uint256",
          "name": "",
          "type": "uint256"
        }
      ],
      "stateMutability": "view",
      "type": "function",
      "constant": true
    },
    {
      "inputs": [
        {
          "internalType": "uint256",
          "name": "_pairId",
          "type": "uint256"
        },
        {
          "internalType": "uint256",
          "name": "_collAmount",
          "type": "uint256"
        }
      ],
      "name": "calcMaxStableCoinWithFeesAmount",
      "outputs": [
        {
          "internalType": "uint256",
          "name": "",
          "type": "uint256"
        }
      ],
      "stateMutability": "view",
      "type": "function",
      "constant": true
    },
    {
      "inputs": [
        {
          "internalType": "uint256",
          "name": "_value",
          "type": "uint256"
        }
      ],
      "name": "setEarlySettlementWindow",
      "outputs": [],
      "stateMutability": "nonpayable",
      "type": "function"
    },
    {
      "inputs": [
        {
          "internalType": "uint256",
          "name": "_value",
          "type": "uint256"
        }
      ],
      "name": "setForeclosureWindow",
      "outputs": [],
      "stateMutability": "nonpayable",
      "type": "function"
    },
    {
      "inputs": [
        {
          "internalType": "uint256",
          "name": "_value",
          "type": "uint256"
        }
      ],
      "name": "setForeclosureRatio",
      "outputs": [],
      "stateMutability": "nonpayable",
      "type": "function"
    },
    {
      "inputs": [
        {
          "internalType": "uint256",
          "name": "_value",
          "type": "uint256"
        }
      ],
      "name": "setInstantForeclosureRatio",
      "outputs": [],
      "stateMutability": "nonpayable",
      "type": "function"
    },
    {
      "inputs": [
        {
          "internalType": "uint256",
          "name": "_value",
          "type": "uint256"
        }
      ],
      "name": "setMinRpbRate",
      "outputs": [],
      "stateMutability": "nonpayable",
      "type": "function"
    },
    {
      "inputs": [
        {
          "internalType": "uint256",
          "name": "_value",
          "type": "uint256"
        }
      ],
      "name": "setRequiredCollateralRatio",
      "outputs": [],
      "stateMutability": "nonpayable",
      "type": "function"
    },
    {
      "inputs": [
        {
          "internalType": "uint256",
          "name": "_value",
          "type": "uint256"
        }
      ],
      "name": "setFactoryFees",
      "outputs": [],
      "stateMutability": "nonpayable",
      "type": "function"
    },
    {
      "inputs": [
        {
          "internalType": "uint256",
          "name": "_value",
          "type": "uint256"
        }
      ],
      "name": "setEarlySettlementFee",
      "outputs": [],
      "stateMutability": "nonpayable",
      "type": "function"
    },
    {
      "inputs": [
        {
          "internalType": "uint256",
          "name": "_value",
          "type": "uint256"
        }
      ],
      "name": "setUserRewardShare",
      "outputs": [],
      "stateMutability": "nonpayable",
      "type": "function"
    },
    {
      "inputs": [
        {
          "internalType": "uint256",
          "name": "_value",
          "type": "uint256"
        }
      ],
      "name": "setVaultShares",
      "outputs": [],
      "stateMutability": "nonpayable",
      "type": "function"
    },
    {
      "inputs": [
        {
          "internalType": "uint256",
          "name": "_value",
          "type": "uint256"
        }
      ],
      "name": "setUndercollateralizedForeclosingMultiple",
      "outputs": [],
      "stateMutability": "nonpayable",
      "type": "function"
    },
    {
      "inputs": [
        {
          "internalType": "uint256",
          "name": "_value",
          "type": "uint256"
        }
      ],
      "name": "setAtRiskForeclosedMultiple",
      "outputs": [],
      "stateMutability": "nonpayable",
      "type": "function"
    },
    {
      "inputs": [
        {
          "internalType": "uint256",
          "name": "_value",
          "type": "uint256"
        }
      ],
      "name": "setCancellationFees",
      "outputs": [],
      "stateMutability": "nonpayable",
      "type": "function"
    },
    {
      "inputs": [],
      "name": "getGeneralParams",
      "outputs": [
        {
          "components": [
            {
              "internalType": "uint256",
              "name": "minRpbRate",
              "type": "uint256"
            },
            {
              "internalType": "uint256",
              "name": "earlySettlementWindow",
              "type": "uint256"
            },
            {
              "internalType": "uint256",
              "name": "foreclosureWindow",
              "type": "uint256"
            },
            {
              "internalType": "uint256",
              "name": "requiredCollateralRatio",
              "type": "uint256"
            },
            {
              "internalType": "uint256",
              "name": "foreclosingRatio",
              "type": "uint256"
            },
            {
              "internalType": "uint256",
              "name": "instantForeclosureRatio",
              "type": "uint256"
            },
            {
              "internalType": "address",
              "name": "factoryAddress",
              "type": "address"
            },
            {
              "internalType": "address",
              "name": "ethDeployerAddress",
              "type": "address"
            },
            {
              "internalType": "address",
              "name": "tokenDeployerAddress",
              "type": "address"
            }
          ],
          "internalType": "struct IJLoanCommons.params",
          "name": "",
          "type": "tuple"
        }
      ],
      "stateMutability": "view",
      "type": "function",
      "constant": true
    },
    {
      "inputs": [],
      "name": "getGeneralFees",
      "outputs": [
        {
          "components": [
            {
              "internalType": "uint256",
              "name": "factoryFees",
              "type": "uint256"
            },
            {
              "internalType": "uint256",
              "name": "earlySettlementFee",
              "type": "uint256"
            },
            {
              "internalType": "uint256",
              "name": "userRewardShare",
              "type": "uint256"
            },
            {
              "internalType": "uint256",
              "name": "vaultShare",
              "type": "uint256"
            },
            {
              "internalType": "uint256",
              "name": "undercollateralizedForeclosingMultiple",
              "type": "uint256"
            },
            {
              "internalType": "uint256",
              "name": "atRiskForeclosedMultiple",
              "type": "uint256"
            },
            {
              "internalType": "uint256",
              "name": "cancellationFees",
              "type": "uint256"
            }
          ],
          "internalType": "struct IJLoanCommons.feesParams",
          "name": "",
          "type": "tuple"
        }
      ],
      "stateMutability": "view",
      "type": "function",
      "constant": true
    },
    {
      "inputs": [
        {
          "internalType": "uint256",
          "name": "_pairId",
          "type": "uint256"
        },
        {
          "internalType": "uint256",
          "name": "_borrowedAskAmount",
          "type": "uint256"
        },
        {
          "internalType": "uint256",
          "name": "_rpbRate",
          "type": "uint256"
        }
      ],
      "name": "createNewEthLoan",
      "outputs": [
        {
          "internalType": "address",
          "name": "",
          "type": "address"
        }
      ],
      "stateMutability": "payable",
      "type": "function",
      "payable": true
    },
    {
      "inputs": [
        {
          "internalType": "uint256",
          "name": "_pairId",
          "type": "uint256"
        },
        {
          "internalType": "uint256",
          "name": "_borrowedAskAmount",
          "type": "uint256"
        },
        {
          "internalType": "uint256",
          "name": "_rpbRate",
          "type": "uint256"
        }
      ],
      "name": "createNewTokenLoan",
      "outputs": [
        {
          "internalType": "address",
          "name": "",
          "type": "address"
        }
      ],
      "stateMutability": "nonpayable",
      "type": "function"
    },
    {
      "inputs": [],
      "name": "getEnvironmentDeployers",
      "outputs": [
        {
          "internalType": "address",
          "name": "",
          "type": "address"
        },
        {
          "internalType": "address",
          "name": "",
          "type": "address"
        }
      ],
      "stateMutability": "view",
      "type": "function",
      "constant": true
    },
    {
      "inputs": [
        {
          "internalType": "uint256",
          "name": "_idx",
          "type": "uint256"
        }
      ],
      "name": "getDeployedLoan",
      "outputs": [
        {
          "internalType": "address",
          "name": "",
          "type": "address"
        }
      ],
      "stateMutability": "view",
      "type": "function",
      "constant": true
    }
  ],
  "bytecode": "0x60806040523480156200001157600080fd5b5060405162002fd438038062002fd4833981016040819052620000349162000147565b6000620000496001600160e01b036200014316565b600080546001600160a01b0319166001600160a01b0383169081178255604051929350917f8be0079c531659141344cd1fd0a4f28419497f9722a3daafe3b4186f6b6457e0908290a35062083d60600955614650600a5560c8600b556096600c556078600d55633b9aca00600855600f80546001600160a01b039384166001600160a01b031991821681179092556010805493909416928116831790935560018054841690911790556002805483169091179055600e805490911630179055600560115562107ac06012556050601355601480556103e8601555610bb860165560036017819055600060068190559055436018556200019e565b3390565b600080604083850312156200015a578182fd5b8251620001678162000185565b60208401519092506200017a8162000185565b809150509250929050565b6001600160a01b03811681146200019b57600080fd5b50565b612e2680620001ae6000396000f3fe6080604052600436106102e45760003560e01c8063731429bf11610190578063bb38f75a116100dc578063dbf1e79911610095578063f0427dff1161006f578063f0427dff146108b9578063f2fde38b146108d9578063fc881f25146108f9578063fd344ceb14610919576102e4565b8063dbf1e7991461086f578063e132d94114610884578063e5549e2614610899576102e4565b8063bb38f75a146107aa578063c175771b146107bf578063c299e129146107df578063c2c1e340146107ff578063ca937ea61461081f578063d575c7451461084c576102e4565b80638e354d4011610149578063ac4854e011610123578063ac4854e01461070f578063afdcfe3c1461072f578063b724e7b11461074f578063b91ac78814610777576102e4565b80638e354d40146106af578063914e510c146106cf5780639b9bbce2146106ef576102e4565b8063731429bf146105fa57806373aa30281461061a578063799d564c1461063a5780637c2f7b961461065a57806383e099da1461067a5780638da5cb5b1461069a576102e4565b806339075d891161024f578063551328e711610208578063606a04dd116101e2578063606a04dd1461057b57806370d531a81461059b57806370fb1a49146105c5578063715018a6146105e5576102e4565b8063551328e71461052857806357ac3e0a1461053b5780635a4462d01461055b576102e4565b806339075d891461046f5780633ef6b4371461048457806343c5719c146104a45780634fd75879146104c457806352ede5f6146104e6578063538ba4f914610506576102e4565b8063215b0dc6116102a1578063215b0dc6146103c55780632669f19a146103da57806326e9fdd8146103fa5780632a3d7c811461041a5780632c7a43421461042f5780632ec133021461044f576102e4565b806301589453146102e9578063067bd3b41461030b578063075761f0146103365780630b164eb7146103565780631013aa24146103765780631a55d9e9146103a3575b600080fd5b3480156102f557600080fd5b506103096103043660046126be565b610939565b005b34801561031757600080fd5b5061032061097c565b60405161032d9190612d07565b60405180910390f35b34801561034257600080fd5b50610320610351366004612750565b610982565b34801561036257600080fd5b506103096103713660046126be565b6109e9565b34801561038257600080fd5b506103966103913660046126be565b610a23565b60405161032d9190612db6565b3480156103af57600080fd5b506103b8610a67565b60405161032d9190612c3a565b3480156103d157600080fd5b50610320610ab5565b3480156103e657600080fd5b506103206103f53660046126be565b610abb565b34801561040657600080fd5b506103096104153660046126be565b610af5565b34801561042657600080fd5b50610320610b2f565b34801561043b57600080fd5b5061032061044a36600461272f565b610b35565b34801561045b57600080fd5b5061030961046a3660046126ee565b610cd5565b34801561047b57600080fd5b50610320610dfe565b34801561049057600080fd5b5061030961049f36600461258d565b610e04565b3480156104b057600080fd5b506103206104bf36600461272f565b610eb9565b3480156104d057600080fd5b506104d961102d565b60405161032d9190612c88565b3480156104f257600080fd5b506103206105013660046126be565b61109a565b34801561051257600080fd5b5061051b6110bf565b60405161032d91906128ac565b61051b610536366004612750565b6110c4565b34801561054757600080fd5b506103966105563660046126be565b611284565b34801561056757600080fd5b5061032061057636600461272f565b6112c1565b34801561058757600080fd5b5061030961059636600461277b565b61140f565b3480156105a757600080fd5b506105b06114f2565b60405161032d99989796959493929190612d27565b3480156105d157600080fd5b5061051b6105e03660046126be565b611521565b3480156105f157600080fd5b5061030961153c565b34801561060657600080fd5b50610320610615366004612750565b6115bb565b34801561062657600080fd5b506103096106353660046126be565b6115f0565b34801561064657600080fd5b506103096106553660046126be565b61162a565b34801561066657600080fd5b506103966106753660046126be565b611664565b34801561068657600080fd5b506103096106953660046126be565b6116a8565b3480156106a657600080fd5b5061051b6116e2565b3480156106bb57600080fd5b506103096106ca36600461258d565b6116f1565b3480156106db57600080fd5b506103096106ea3660046126be565b6117a6565b3480156106fb57600080fd5b5061051b61070a366004612750565b6117e0565b34801561071b57600080fd5b5061030961072a3660046126be565b611af1565b34801561073b57600080fd5b5061030961074a3660046126be565b611b2b565b34801561075b57600080fd5b50610764611b65565b60405161032d9796959493929190612d75565b34801561078357600080fd5b506107976107923660046126be565b611b7d565b60405161032d979695949392919061297f565b3480156107b657600080fd5b5061051b611c5c565b3480156107cb57600080fd5b506103206107da36600461272f565b611c6b565b3480156107eb57600080fd5b506103096107fa3660046126be565b611da2565b34801561080b57600080fd5b5061030961081a3660046126be565b611ddc565b34801561082b57600080fd5b5061083f61083a3660046126be565b611e16565b60405161032d919061296c565b34801561085857600080fd5b50610861611ed9565b60405161032d9291906128c0565b34801561087b57600080fd5b5061051b611ef0565b34801561089057600080fd5b50610320611eff565b3480156108a557600080fd5b506103096108b43660046127b0565b611f05565b3480156108c557600080fd5b506103096108d43660046126be565b612020565b3480156108e557600080fd5b506103096108f436600461258d565b61205a565b34801561090557600080fd5b506103096109143660046125c5565b612110565b34801561092557600080fd5b506103096109343660046126be565b6122aa565b6109416122e4565b6000546001600160a01b039081169116146109775760405162461bcd60e51b815260040161096e90612b88565b60405180910390fd5b601455565b60075481565b6000806109a961099984600163ffffffff6122e816565b8690600a0a63ffffffff61231416565b905060006109df600a6109d360056109c7868a63ffffffff61234e16565b9063ffffffff6122e816565b9063ffffffff61234e16565b9695505050505050565b6109f16122e4565b6000546001600160a01b03908116911614610a1e5760405162461bcd60e51b815260040161096e90612b88565b601655565b6000600654821115610a475760405162461bcd60e51b815260040161096e90612a4e565b50600090815260056020526040902060020154600160a81b900460ff1690565b610a6f612435565b506040805160e08101825260115481526012546020820152601354918101919091526014546060820152601554608082015260165460a082015260175460c08201525b90565b60035481565b6000600654821115610adf5760405162461bcd60e51b815260040161096e90612a4e565b5060009081526005602052604090206001015490565b610afd6122e4565b6000546001600160a01b03908116911614610b2a5760405162461bcd60e51b815260040161096e90612b88565b600c55565b60195481565b600080610b4184610abb565b90506000610b4e8461109a565b90506000610b62858363ffffffff61239016565b90506000610bb4610b9685610b8a6064610b8a6008600301548861234e90919063ffffffff16565b9063ffffffff61231416565b60008981526005602052604081206002015460ff16600a0a906115bb565b90506000610bc8828563ffffffff61239016565b6000898152600560205260409020600381015460029091015491925060ff600160a01b9091048116600160a81b9092041610610c6b5760008881526005602052604081206003810154600290910154610c3c91600160a81b90910460ff90811691600160a01b90041663ffffffff61239016565b9050610c636001610c5784600a85900a63ffffffff61234e16565b9063ffffffff61239016565b915050610cc8565b60008881526005602052604081206002810154600390910154610ca991600160a01b90910460ff90811691600160a81b90041663ffffffff61239016565b9050610cc46001610c5784600a85900a63ffffffff61231416565b9150505b9450505050505b92915050565b610cdd6122e4565b6000546001600160a01b03908116911614610d0a5760405162461bcd60e51b815260040161096e90612b88565b600654831115610d2c5760405162461bcd60e51b815260040161096e90612a4e565b60008381526005602052604090819020600281018054610100600160a81b0319166101006001600160a01b0387811691909102919091179091556003820180546001600160a01b0319169185169190911790559051610d8b919061283c565b6040805191829003822060008681526005602052919091206002810154600390910154919286927fb75bcc6f033131f7305f4f99dac19fdd494c402b75eda28eeebf214d95b347e292610df1926101009091046001600160a01b039081169216906128c0565b60405180910390a3505050565b60185481565b610e0c6122e4565b6000546001600160a01b03908116911614610e395760405162461bcd60e51b815260040161096e90612b88565b6001600160a01b038116610e5f5760405162461bcd60e51b815260040161096e90612b1a565b6010546001600160a01b0382811691161415610e8d5760405162461bcd60e51b815260040161096e90612bbd565b601080546001600160a01b039092166001600160a01b0319928316811790915560028054909216179055565b600080610ec584610abb565b600085815260056020526040812060020154600b549293509091610f1091610f089160ff909116600a0a90610b8a906064906109d3908a9063ffffffff61231416565b836000610982565b90506000610f1d8261109a565b90506000610f31838363ffffffff6122e816565b6000888152600560205260409020600381015460029091015491925060ff600160a01b9091048116600160a81b9092041610610fc85760008781526005602052604081206003810154600290910154610fa591600160a81b90910460ff90811691600160a01b90041663ffffffff61239016565b9050610fc060056109c784600a85900a63ffffffff61231416565b9150506109df565b6000878152600560205260408120600281015460039091015461100691600160a01b90910460ff90811691600160a81b90041663ffffffff61239016565b905061102160056109c784600a85900a63ffffffff61234e16565b98975050505050505050565b611035612472565b50604080516101208101825260085481526009546020820152600a5491810191909152600b546060820152600c546080820152600d5460a0820152600e546001600160a01b0390811660c0830152600f54811660e08301526010541661010082015290565b601154600090610ccf906110b590849063ffffffff61231416565b6103e86000610982565b600081565b6000336110e35760405162461bcd60e51b815260040161096e90612c03565b60006110ef8585610eb9565b905033318111156111125760405162461bcd60e51b815260040161096e90612a7c565b803410156111325760405162461bcd60e51b815260040161096e90612ae3565b6000858152600560205260408082206003908101546001549154925163fefd3d0160e01b81526001600160a01b039182169493919092169163fefd3d0191349161118a9133918d908d908d9030908c906004016128da565b6020604051808303818588803b1580156111a357600080fd5b505af11580156111b7573d6000803e3d6000fd5b50505050506040513d601f19601f820116820180604052508101906111dc91906125a9565b6003805460009081526004602052604080822080546001600160a01b0319166001600160a01b0386169081179091559254905193945091923392917f72cd486bb0e3b07484dffb83548cf7b98305f673c37687d34c0c04f4dbc2dcbd91611244913491612d10565b60405180910390a460035461126090600163ffffffff6122e816565b60035560075461127790600163ffffffff6122e816565b6007559695505050505050565b60006006548211156112a85760405162461bcd60e51b815260040161096e90612a4e565b5060009081526005602052604090206002015460ff1690565b6000806112cd84610abb565b905060006113136112f583610b8a6064610b8a6008600301548a61234e90919063ffffffff16565b60008781526005602052604081206002015460ff16600a0a906115bb565b6000868152600560205260409020600381015460029091015491925060ff600160a01b9091048116600160a81b90920416106113aa576000858152600560205260408120600381015460029091015461138791600160a81b90910460ff90811691600160a01b90041663ffffffff61239016565b90506113a26001610c5784600a85900a63ffffffff61234e16565b915050611407565b600085815260056020526040812060028101546003909101546113e891600160a01b90910460ff90811691600160a81b90041663ffffffff61239016565b90506114036001610c5784600a85900a63ffffffff61231416565b9150505b949350505050565b6114176122e4565b6000546001600160a01b039081169116146114445760405162461bcd60e51b815260040161096e90612b88565b6006548311156114665760405162461bcd60e51b815260040161096e90612a4e565b600083815260056020526040908190206001810184905560028101805460ff191660ff8516179055905161149a919061283c565b6040805191829003822060008681526005602052919091206001810154600290910154919286927f8faf8b67d977271b82c52dedfc0bf5414b0c347fd7cb985a8661863fb6954c1c92610df192909160ff1690612da5565b600854600954600a54600b54600c54600d54600e54600f546010546001600160a01b0392831692918216911689565b6000908152600460205260409020546001600160a01b031690565b6115446122e4565b6000546001600160a01b039081169116146115715760405162461bcd60e51b815260040161096e90612b88565b600080546040516001600160a01b03909116907f8be0079c531659141344cd1fd0a4f28419497f9722a3daafe3b4186f6b6457e0908390a3600080546001600160a01b0319169055565b6000806115d261099984600163ffffffff6122e816565b905060006109df600a6109d36005610c57868a63ffffffff61234e16565b6115f86122e4565b6000546001600160a01b039081169116146116255760405162461bcd60e51b815260040161096e90612b88565b600a55565b6116326122e4565b6000546001600160a01b0390811691161461165f5760405162461bcd60e51b815260040161096e90612b88565b601255565b60006006548211156116885760405162461bcd60e51b815260040161096e90612a4e565b50600090815260056020526040902060030154600160a01b900460ff1690565b6116b06122e4565b6000546001600160a01b039081169116146116dd5760405162461bcd60e51b815260040161096e90612b88565b601155565b6000546001600160a01b031690565b6116f96122e4565b6000546001600160a01b039081169116146117265760405162461bcd60e51b815260040161096e90612b88565b6001600160a01b03811661174c5760405162461bcd60e51b815260040161096e90612b1a565b600f546001600160a01b038281169116141561177a5760405162461bcd60e51b815260040161096e90612bbd565b600f80546001600160a01b039092166001600160a01b0319928316811790915560018054909216179055565b6117ae6122e4565b6000546001600160a01b039081169116146117db5760405162461bcd60e51b815260040161096e90612b88565b601555565b6000336117ff5760405162461bcd60e51b815260040161096e90612c03565b600061180b8585610eb9565b600086815260056020526040908190206002015490516370a0823160e01b815291925082916101009091046001600160a01b0316906370a08231906118549033906004016128ac565b60206040518083038186803b15801561186c57600080fd5b505afa158015611880573d6000803e3d6000fd5b505050506040513d601f19601f820116820180604052508101906118a491906126d6565b10156118c25760405162461bcd60e51b815260040161096e90612a7c565b600085815260056020526040808220600201546010549151636eb1769f60e11b81526101009091046001600160a01b039081169263dd62ed3e9261190c92339216906004016128c0565b60206040518083038186803b15801561192457600080fd5b505afa158015611938573d6000803e3d6000fd5b505050506040513d601f19601f8201168201806040525081019061195c91906126d6565b90508181101561197e5760405162461bcd60e51b815260040161096e90612aac565b600061198a8787610eb9565b600088815260056020526040808220600280820154600392830154915492549351633a7d763960e11b81529596506001600160a01b0361010090910481169591811694939216916374faec72916119f39133918f908f908f9030908c908c908f90600401612919565b602060405180830381600087803b158015611a0d57600080fd5b505af1158015611a21573d6000803e3d6000fd5b505050506040513d601f19601f82011682018060405250810190611a4591906125a9565b600380546000908152600460205260409081902080546001600160a01b0319166001600160a01b0385169081179091559154905192935090913391907f2b20c25dbfd43424d1061108c660f42dd425fe3d235f747c12df98a7c0d3e01490611aae9088906128ac565b60405180910390a4600354611aca90600163ffffffff6122e816565b600355600754611ae190600163ffffffff6122e816565b6007559998505050505050505050565b611af96122e4565b6000546001600160a01b03908116911614611b265760405162461bcd60e51b815260040161096e90612b88565b600b55565b611b336122e4565b6000546001600160a01b03908116911614611b605760405162461bcd60e51b815260040161096e90612b88565b601355565b60115460125460135460145460155460165460175487565b60056020908152600091825260409182902080548351601f60026000196101006001861615020190931692909204918201849004840281018401909452808452909291839190830182828015611c145780601f10611be957610100808354040283529160200191611c14565b820191906000526020600020905b815481529060010190602001808311611bf757829003601f168201915b505050600184015460028501546003909501549394909360ff80831694506001600160a01b03610100840481169450600160a81b909304811692821691600160a01b90041687565b6001546001600160a01b031681565b600080611c7784610abb565b600085815260056020526040812060020154600b549293509091611cba91610f089160ff909116600a0a90610b8a906064906109d3908a9063ffffffff61231416565b6000868152600560205260409020600381015460029091015491925060ff600160a01b9091048116600160a81b9092041610611d495760008581526005602052604081206003810154600290910154611d2e91600160a81b90910460ff90811691600160a01b90041663ffffffff61239016565b90506113a260056109c784600a85900a63ffffffff61231416565b60008581526005602052604081206002810154600390910154611d8791600160a01b90910460ff90811691600160a81b90041663ffffffff61239016565b905061140360056109c784600a85900a63ffffffff61234e16565b611daa6122e4565b6000546001600160a01b03908116911614611dd75760405162461bcd60e51b815260040161096e90612b88565b600855565b611de46122e4565b6000546001600160a01b03908116911614611e115760405162461bcd60e51b815260040161096e90612b88565b600955565b6060600654821115611e3a5760405162461bcd60e51b815260040161096e90612a4e565b60008281526005602090815260409182902080548351601f600260001961010060018616150201909316929092049182018490048402810184019094528084529091830182828015611ecd5780601f10611ea257610100808354040283529160200191611ecd565b820191906000526020600020905b815481529060010190602001808311611eb057829003601f168201915b50505050509050919050565b6001546002546001600160a01b0391821691169091565b6002546001600160a01b031681565b60065481565b611f0d6122e4565b6000546001600160a01b03908116911614611f3a5760405162461bcd60e51b815260040161096e90612b88565b600654831115611f5c5760405162461bcd60e51b815260040161096e90612a4e565b6000838152600560205260409081902060028101805460ff808716600160a81b0260ff60a81b1990921691909117909155600382018054918516600160a01b0260ff60a01b199092169190911790559051611fb7919061283c565b6040805191829003822060008681526005602052919091206002810154600390910154919286927f0c7c54329d4708979e5479f990e4abb586ffb676d9b402b2459467c86721efc792610df192600160a81b90910460ff90811692600160a01b90041690612dc4565b6120286122e4565b6000546001600160a01b039081169116146120555760405162461bcd60e51b815260040161096e90612b88565b600d55565b6120626122e4565b6000546001600160a01b0390811691161461208f5760405162461bcd60e51b815260040161096e90612b88565b6001600160a01b0381166120b55760405162461bcd60e51b815260040161096e906129d1565b600080546040516001600160a01b03808516939216917f8be0079c531659141344cd1fd0a4f28419497f9722a3daafe3b4186f6b6457e091a3600080546001600160a01b0319166001600160a01b0392909216919091179055565b6121186122e4565b6000546001600160a01b039081169116146121455760405162461bcd60e51b815260040161096e90612b88565b6040805160e081018252888152602080820189905260ff808916838501526001600160a01b0380891660608501528782166080850152861660a0840152841660c08301526006546000908152600582529290922081518051929391926121ae92849201906124d9565b50602082015160018201556040808301516002830180546060860151608087015160ff1990921660ff94851617610100600160a81b0319166101006001600160a01b03928316021760ff60a81b1916600160a81b928516929092029190911790915560a08501516003909401805460c0909601516001600160a01b0319909616949091169390931760ff60a01b1916600160a01b949091169390930292909217905560065490517f191c33c4db02b29dcf62df443c1c3a565f4628da46040183c5c24ab61e6e42ae90612282908a9061296c565b60405180910390a260065461229e90600163ffffffff6122e816565b60065550505050505050565b6122b26122e4565b6000546001600160a01b039081169116146122df5760405162461bcd60e51b815260040161096e90612b88565b601755565b3390565b60008282018381101561230d5760405162461bcd60e51b815260040161096e90612a17565b9392505050565b60008261232357506000610ccf565b8282028284828161233057fe5b041461230d5760405162461bcd60e51b815260040161096e90612b47565b600061230d83836040518060400160405280601a81526020017f536166654d6174683a206469766973696f6e206279207a65726f0000000000008152506123d2565b600061230d83836040518060400160405280601e81526020017f536166654d6174683a207375627472616374696f6e206f766572666c6f770000815250612409565b600081836123f35760405162461bcd60e51b815260040161096e919061296c565b5060008385816123ff57fe5b0495945050505050565b6000818484111561242d5760405162461bcd60e51b815260040161096e919061296c565b505050900390565b6040518060e00160405280600081526020016000815260200160008152602001600081526020016000815260200160008152602001600081525090565b60405180610120016040528060008152602001600081526020016000815260200160008152602001600081526020016000815260200160006001600160a01b0316815260200160006001600160a01b0316815260200160006001600160a01b031681525090565b828054600181600116156101000203166002900490600052602060002090601f016020900481019282601f1061251a57805160ff1916838001178555612547565b82800160010185558215612547579182015b8281111561254757825182559160200191906001019061252c565b50612553929150612557565b5090565b610ab291905b80821115612553576000815560010161255d565b8035610ccf81612dd8565b803560ff81168114610ccf57600080fd5b60006020828403121561259e578081fd5b813561230d81612dd8565b6000602082840312156125ba578081fd5b815161230d81612dd8565b600080600080600080600060e0888a0312156125df578283fd5b873567ffffffffffffffff808211156125f6578485fd5b818a018b601f820112612607578586fd5b8035925081831115612617578586fd5b6040516020601f8501601f1916820181018481118382101715612638578889fd5b60405284825282850181018e101561264e578788fd5b848184018284013793810184018790529950505088013595506126748960408a0161257c565b94506126838960608a01612571565b93506126928960808a0161257c565b92506126a18960a08a01612571565b91506126b08960c08a0161257c565b905092959891949750929550565b6000602082840312156126cf578081fd5b5035919050565b6000602082840312156126e7578081fd5b5051919050565b600080600060608486031215612702578283fd5b83359250602084013561271481612dd8565b9150604084013561272481612dd8565b809150509250925092565b60008060408385031215612741578182fd5b50508035926020909101359150565b600080600060608486031215612764578283fd5b505081359360208301359350604090920135919050565b60008060006060848603121561278f578283fd5b83359250602084013591506127a7856040860161257c565b90509250925092565b6000806000606084860312156127c4578283fd5b833592506127d5856020860161257c565b91506127a7856040860161257c565b6001600160a01b03169052565b60008151808452815b81811015612816576020818501810151868301820152016127fa565b818111156128275782602083870101525b50601f01601f19169290920160200192915050565b600080835460018082166000811461285b5760018114612872576128a1565b60ff198316865260028304607f16860193506128a1565b600283048786526020808720875b838110156128995781548a820152908501908201612880565b505050860193505b509195945050505050565b6001600160a01b0391909116815260200190565b6001600160a01b0392831681529116602082015260400190565b6001600160a01b0397881681526020810196909652604086019490945260608501929092526080840152831660a083015290911660c082015260e00190565b6001600160a01b03998a1681526020810198909852604088019690965260608701949094526080860192909252851660a0850152841660c084015290921660e08201526101008101919091526101200190565b60006020825261230d60208301846127f1565b600060e0825261299260e083018a6127f1565b60208301989098525060ff95861660408201526001600160a01b0394851660608201529285166080840152921660a0820152911660c090910152919050565b60208082526026908201527f4f776e61626c653a206e6577206f776e657220697320746865207a65726f206160408201526564647265737360d01b606082015260800190565b6020808252601b908201527f536166654d6174683a206164646974696f6e206f766572666c6f770000000000604082015260600190565b6020808252601490820152737061697220646f6573206e6f742065786973747360601b604082015260600190565b60208082526016908201527543616c6c65722062616c616e636520746f6f206c6f7760501b604082015260600190565b60208082526019908201527f436865636b2074686520746f6b656e20616c6c6f77616e636500000000000000604082015260600190565b60208082526017908201527f506c656173652073656e64206d6f726520657468657273000000000000000000604082015260600190565b6020808252601390820152721859191c995cdcc81b9bdd08185b1b1bddd959606a1b604082015260600190565b60208082526021908201527f536166654d6174683a206d756c7469706c69636174696f6e206f766572666c6f6040820152607760f81b606082015260800190565b6020808252818101527f4f776e61626c653a2063616c6c6572206973206e6f7420746865206f776e6572604082015260600190565b60208082526026908201527f6e65772061646472657373206973207468652073616d6520617320746865206f6040820152656c64206f6e6560d01b606082015260800190565b6020808252601a908201527f53656e6465722061646472657373206e6f7420616c6c6f776564000000000000604082015260600190565b600060e082019050825182526020830151602083015260408301516040830152606083015160608301526080830151608083015260a083015160a083015260c083015160c083015292915050565b600061012082019050825182526020830151602083015260408301516040830152606083015160608301526080830151608083015260a083015160a083015260018060a01b0360c08401511660c083015260e0830151612ceb60e08401826127e4565b5061010080840151612cff828501826127e4565b505092915050565b90815260200190565b9182526001600160a01b0316602082015260400190565b988952602089019790975260408801959095526060870193909352608086019190915260a08501526001600160a01b0390811660c085015290811660e0840152166101008201526101200190565b968752602087019590955260408601939093526060850191909152608084015260a083015260c082015260e00190565b91825260ff16602082015260400190565b60ff91909116815260200190565b60ff92831681529116602082015260400190565b6001600160a01b0381168114612ded57600080fd5b5056fea264697066735822122024aeb4261471aba657e2935b7078381e91f2a566be49488b55d493515ebf39d064736f6c634300060b0033",
  "immutableReferences": {},
  "source": "// SPDX-License-Identifier: MIT\n\npragma solidity ^0.6.11;\npragma experimental ABIEncoderV2;\n\nimport \"@openzeppelin/contracts/math/SafeMath.sol\";\nimport \"@openzeppelin/contracts/access/Ownable.sol\";\nimport \"@openzeppelin/contracts/token/ERC20/IERC20.sol\";\nimport \"./IJLoanCommons.sol\";\nimport \"./IJLoanEthDeployer.sol\";\nimport \"./IJLoanTokenDeployer.sol\";\n\ncontract JFactory is Ownable, IJLoanCommons { \n    using SafeMath for uint256;\n\n    address public constant ZERO_ADDRESS = 0x0000000000000000000000000000000000000000;\n\n    IJLoanEthDeployer public ethDeplContract;\n    IJLoanTokenDeployer public tokenDeplContract;\n\n    uint public loanID;\n    mapping(uint => address) internal deployedLoans;\n \n    struct Pair {\n        string pairName;\n        uint pairValue;\n        uint8 pairDecimals;\n        address baseAddress;\n        uint8 baseDecimals;\n        address quoteAddress;\n        uint8 quoteDecimals;\n    }\n    mapping(uint => Pair) public pairs;\n    uint public pairCounter;\n\n    //mapping(uint => address) public tokenContractAddresses;\n    uint public contractCounter;\n\n    params public generalParams;\n    feesParams public generalFees;\n\n    uint public factoryDeployBlock;\n    uint public lastDepositBlock;\n\n    event NewPair(uint indexed _pairId, string _pairName);\n    event NewPrice(uint indexed pairId, string indexed pairName, uint pairValue, uint8 pairDecimals);\n    event NewPairDecimals(uint indexed pairId, string indexed pairName, uint8 baseDecimals, uint8 quoteDecimals);\n    event NewPairAddresses(uint indexed pairId, string indexed pairName, address baseAddress , address quoteAddress);\n    event NewEthLoanCreated(\n        uint indexed loanId,\n        address indexed sender,\n        address indexed newLoan,\n        uint value,\n        address collateralTokenAddress\n    );\n    event NewTokenLoanCreated(\n        uint indexed loanId,\n        address indexed sender,\n        address indexed newLoan,\n         address collateralTokenAddress\n    );\n    \n    constructor (address _ethDepl, address _tokenDepl) public {\n        generalParams.earlySettlementWindow = 540000;\n        generalParams.foreclosureWindow = 18000;\n        generalParams.requiredCollateralRatio = 200;\n        generalParams.foreclosingRatio = 150;\n        generalParams.instantForeclosureRatio = 120;\n        generalParams.minRpbRate = (10 ** 9); //0.000000001 in eth an all tokens with 18 decimals\n        generalParams.ethDeployerAddress = _ethDepl;\n        generalParams.tokenDeployerAddress = _tokenDepl;\n        ethDeplContract = IJLoanEthDeployer(_ethDepl);\n        tokenDeplContract = IJLoanTokenDeployer(_tokenDepl);\n        generalParams.factoryAddress = address(this);\n        generalFees.factoryFees = 5;\n        generalFees.earlySettlementFee = 1080000; \n        generalFees.userRewardShare = 80;\n        generalFees.vaultShare = 20;\n        generalFees.undercollateralizedForeclosingMultiple = 1000;\n        generalFees.atRiskForeclosedMultiple = 3000;\n        generalFees.cancellationFees = 3;\n        pairCounter = 0;\n        loanID = 0;\n        factoryDeployBlock = block.number;\n    }\n\n    /**\n    * @dev set a new address for ETH deployer contract\n    * @param _ethDepl new address\n    */\n    function setEthDeployerAddress(address _ethDepl) external onlyOwner {\n        require(_ethDepl != address(0), \"address not allowed\");\n        require(_ethDepl != generalParams.ethDeployerAddress, \"new address is the same as the old one\");\n        generalParams.ethDeployerAddress = _ethDepl;\n        ethDeplContract = IJLoanEthDeployer(_ethDepl);\n    }\n\n    /**\n    * @dev set a new address for token deployer contract\n    * @param _tokenDepl new address\n    */\n    function setTokenDeployerAddress(address _tokenDepl) external onlyOwner {\n        require(_tokenDepl != address(0), \"address not allowed\");\n        require(_tokenDepl != generalParams.tokenDeployerAddress, \"new address is the same as the old one\");\n        generalParams.tokenDeployerAddress = _tokenDepl;\n        tokenDeplContract = IJLoanTokenDeployer(_tokenDepl);\n    }\n\n    /**\n    * @dev set a new pair\n    * @param _pairName string describing the pair (i.e. ETHDAI)\n    * @param _price price of the pair\n    * @param _pairDecimals number of decimals for pair\n    */\n    function setNewPair(string memory _pairName, uint _price, uint8 _pairDecimals, \n                address _baseAddress, uint8 _baseDecimals, address _quoteAddress, uint8 _quoteDecimals) public onlyOwner {\n        // eth vs stable coin expressed in 6 or more decimals\n        require(pairCounter >= 0, \"Pairs counter not ok, please set to a valid value!\");\n        pairs[pairCounter] = Pair({pairName: _pairName, pairValue: _price, pairDecimals: _pairDecimals, \n                baseAddress: _baseAddress, baseDecimals: _baseDecimals, quoteAddress: _quoteAddress, quoteDecimals: _quoteDecimals});\n        emit NewPair(pairCounter, _pairName);\n        pairCounter = pairCounter.add(1);\n    }\n\n    /**\n    * @dev set a price for the specified pair\n    * @param _pairId number of the pair\n    * @param _price price of the pair\n    * @param _pairDecimals number of decimals for pair\n    */\n    function setPairValue(uint _pairId, uint _price, uint8 _pairDecimals) public onlyOwner {\n        // eth vs stable coin expressed in 6 or more decimals\n        require(_pairId <= pairCounter, \"pair does not exists\");\n        pairs[_pairId].pairValue = _price;\n        pairs[_pairId].pairDecimals = _pairDecimals;\n        emit NewPrice(_pairId, pairs[_pairId].pairName, pairs[_pairId].pairValue, pairs[_pairId].pairDecimals);\n    }\n\n    /**\n    * @dev set a base and quote decimals for the specified pair\n    * @param _pairId number of the pair\n    * @param _baseAddress base address of the pair\n    * @param _quoteAddress quote address for pair\n    */\n    function setBaseQuoteAddresses(uint _pairId, address _baseAddress, address _quoteAddress) public onlyOwner {\n        // eth vs stable coin expressed in 6 or more decimals\n        require(_pairId <= pairCounter, \"pair does not exists\");\n        pairs[_pairId].baseAddress = _baseAddress;\n        pairs[_pairId].quoteAddress = _quoteAddress;\n        emit NewPairAddresses(_pairId, pairs[_pairId].pairName, pairs[_pairId].baseAddress, pairs[_pairId].quoteAddress);\n    }\n\n    /**\n    * @dev set a base and quote decimals for the specified pair\n    * @param _pairId number of the pair\n    * @param _baseDecimals base decimals of the pair\n    * @param _quoteDecimals quote decimals for pair\n    */\n    function setBaseQuoteDecimals(uint _pairId, uint8 _baseDecimals, uint8 _quoteDecimals) public onlyOwner {\n        // eth vs stable coin expressed in 6 or more decimals\n        require(_pairId <= pairCounter, \"pair does not exists\");\n        pairs[_pairId].baseDecimals = _baseDecimals;\n        pairs[_pairId].quoteDecimals = _quoteDecimals;\n        emit NewPairDecimals(_pairId, pairs[_pairId].pairName, pairs[_pairId].baseDecimals, pairs[_pairId].quoteDecimals);\n    }\n\n    /**\n    * @dev get a pair price\n    * @param _pairId number of the pair\n    * @return price of the pair\n    */\n    function getPairValue(uint _pairId) public view returns (uint){\n        // eth vs stable coin expressed in 6 or more decimals\n        require(_pairId <= pairCounter, \"pair does not exists\");\n        return pairs[_pairId].pairValue;\n    }\n\n    /**\n    * @dev get a pair name\n    * @param _pairId number of the pair\n    * @return name of the pair\n    */\n    function getPairName(uint _pairId) external view returns (string memory){\n        require(_pairId <= pairCounter, \"pair does not exists\");\n        return pairs[_pairId].pairName;\n    }\n\n    /**\n    * @dev get a pair decimals\n    * @param _pairId number of the pair\n    * @return decimals of the pair\n    */\n    function getPairDecimals(uint _pairId) external view returns (uint8){\n        // eth vs stable coin expressed in 6 or more decimals\n        require(_pairId <= pairCounter, \"pair does not exists\");\n        return pairs[_pairId].pairDecimals;\n    }\n\n    /**\n    * @dev get a pair base decimals\n    * @param _pairId number of the pair\n    * @return number of base currency decimals\n    */\n    function getPairBaseDecimals(uint _pairId) external view returns (uint8){\n        require(_pairId <= pairCounter, \"pair does not exists\");\n        return pairs[_pairId].baseDecimals;\n    }\n\n    /**\n    * @dev get a pair quote decimals\n    * @param _pairId number of the pair\n    * @return number of quote currency decimals\n    */\n    function getPairQuoteDecimals(uint _pairId) external view returns (uint8){\n        require(_pairId <= pairCounter, \"pair does not exists\");\n        return pairs[_pairId].quoteDecimals;\n    }\n\n    /**\n    * @dev math round up\n    * @param numerator numerator\n    * @param denominator denominator\n    * @param precision precision\n    * @return number of quote currency decimals\n    */\n    function roundUp(uint numerator, uint denominator, uint precision) public pure returns (uint) {\n         // caution, check safe-to-multiply here\n        uint _numerator  = numerator.mul(10 ** (precision.add(1)));\n        // with rounding of last digit\n        uint _quotient =  ((_numerator.div(denominator)).add(5)).div(10);\n        return _quotient;\n    }\n    \n    /**\n    * @dev math round down\n    * @param numerator numerator\n    * @param denominator denominator\n    * @param precision precision\n    * @return number of quote currency decimals\n    */\n    function roundDn(uint numerator, uint denominator, uint precision) public pure returns (uint) {\n         // caution, check safe-to-multiply here\n        uint _numerator  = numerator.mul(10 ** (precision.add(1)));\n        // with rounding of last digit\n        uint _quotient =  ((_numerator.div(denominator)).sub(5)).div(10);\n        return _quotient;\n    }\n\n    /**\n    * @dev calculate fees on collateral amount\n    * @param _collAmount collateral amount\n    * @return amount of collateral fees\n    */\n    function calculateCollFeesOnActivation(uint _collAmount) public view returns (uint) {\n        return roundUp(_collAmount.mul(generalFees.factoryFees), 1000, 0);\n    }\n\n    /**\n    * @dev get the amount of collateral needed to have stable coin amount (no fees)\n    * @param _pairId number of the pair\n    * @param _askAmount amount in stable coin the borrower would like to receive\n    * @return amount of collateral the borrower needs to send\n    */\n    function calcMinCollateralAmount(uint _pairId, uint _askAmount) public view returns (uint){\n        // i.e. eth / dai price, let's say 347.85, for every ETH can ask 347.85 / 2 = 173.925 dai\n        // NB: amount and price expressed with same number of decimals\n        uint price = getPairValue(_pairId);\n        uint minCollEthAmount = roundUp(_askAmount.mul(generalParams.requiredCollateralRatio).div(100).mul(10**uint(pairs[_pairId].pairDecimals)), price, 0);\n        if (pairs[_pairId].baseDecimals >= pairs[_pairId].quoteDecimals) {\n            uint diffBaseQuoteDecimals = uint(pairs[_pairId].baseDecimals).sub(uint(pairs[_pairId].quoteDecimals));\n            minCollEthAmount = minCollEthAmount.mul(10 ** diffBaseQuoteDecimals).add(5); //add 5 to be sure evrything is ok\n        } else {\n            uint diffBaseQuoteDecimals = uint(pairs[_pairId].quoteDecimals).sub(uint(pairs[_pairId].baseDecimals));\n            minCollEthAmount = minCollEthAmount.div(10 ** diffBaseQuoteDecimals).add(5); //add 5 to be sure evrything is ok\n        }\n        return minCollEthAmount;\n    }\n\n    /**\n    * @dev get the amount of collateral needed to have stable coin amount, with fees\n    * @param _pairId number of the pair\n    * @param _askAmount amount in stable coin the borrower would like to receive\n    * @return amount of collateral the borrower needs to send\n    */\n    function calcMinCollateralWithFeesAmount(uint _pairId, uint _askAmount) public view returns (uint){\n        // i.e. eth / dai price, let's say 347.85, for every ETH can ask 347.85 / 2 = 173.925 dai\n        // NB: amount and price expressed with same number of decimals\n        uint price = getPairValue(_pairId);\n        uint minCollEthAmount = roundUp(_askAmount.mul(generalParams.requiredCollateralRatio).div(100).mul(10**uint(pairs[_pairId].pairDecimals)), price, 0);\n        uint feesCollAmount = calculateCollFeesOnActivation(minCollEthAmount);\n        uint totalCollAmountWithFees = minCollEthAmount.add(feesCollAmount); \n        if (pairs[_pairId].baseDecimals >= pairs[_pairId].quoteDecimals) {\n            uint diffBaseQuoteDecimals = uint(pairs[_pairId].baseDecimals).sub(uint(pairs[_pairId].quoteDecimals));\n            totalCollAmountWithFees = totalCollAmountWithFees.mul(10 ** diffBaseQuoteDecimals).add(5); //add 5 to be sure evrything is ok\n        } else {\n            uint diffBaseQuoteDecimals = uint(pairs[_pairId].quoteDecimals).sub(uint(pairs[_pairId].baseDecimals));\n            totalCollAmountWithFees = totalCollAmountWithFees.div(10 ** diffBaseQuoteDecimals).add(5); //add 5 to be sure evrything is ok\n        }\n        return totalCollAmountWithFees;\n    }\n\n    /**\n    * @dev get the amount of stable coin that a borrower could receive in front of a collateral amount (no fees)\n    * @param _pairId number of the pair\n    * @param _collAmount amount in collateral unit the borrower could receive with that aount of collateral\n    * @return amount of stable coins the borrower could receive\n    */\n    function calcMaxStableCoinAmount(uint _pairId, uint _collAmount) public view returns (uint){\n        // i.e. eth / dai price, let's say 347.85, for every ETH can ask 347.85 / 2 = 173.925 dai\n        // NB: amount and price expressed with same number of decimals\n        uint price = getPairValue(_pairId);\n        uint askAmount = roundDn(_collAmount.div(generalParams.requiredCollateralRatio).mul(100).mul(price), 10 ** uint(pairs[_pairId].pairDecimals), 0);\n        if (pairs[_pairId].baseDecimals >= pairs[_pairId].quoteDecimals) {\n            uint diffBaseQuoteDecimals = uint(pairs[_pairId].baseDecimals).sub(uint(pairs[_pairId].quoteDecimals));\n            askAmount = askAmount.div(10 ** diffBaseQuoteDecimals).sub(1); //subtract 1 to be sure evrything is ok\n        } else {\n            uint diffBaseQuoteDecimals = uint(pairs[_pairId].quoteDecimals).sub(uint(pairs[_pairId].baseDecimals));\n            askAmount = askAmount.mul(10 ** diffBaseQuoteDecimals).sub(1); //subtract 1 to be sure evrything is ok\n        }\n        return askAmount;\n    }\n\n    /**\n    * @dev get the amount of stable coin that a borrower could receive in front of a collateral amount\n    * @param _pairId number of the pair\n    * @param _collAmount amount in collateral unit the borrower could receive with that aount of collateral\n    * @return amount of stable coins the borrower could receive\n    */\n    function calcMaxStableCoinWithFeesAmount(uint _pairId, uint _collAmount) public view returns (uint){\n        // i.e. eth / dai price, let's say 347.85, for every ETH can ask 347.85 / 2 = 173.925 dai\n        // NB: amount and price expressed with same number of decimals\n        uint price = getPairValue(_pairId);\n        uint feesCollAmount = calculateCollFeesOnActivation(_collAmount);  // fees amount\n        uint collFeesDeducted = _collAmount.sub(feesCollAmount);  // available amount after fees deduction\n        uint collAvailable = roundDn(collFeesDeducted.div(generalParams.requiredCollateralRatio).mul(100).mul(price), 10 ** uint(pairs[_pairId].pairDecimals), 0);\n        uint askAmountWithFees = collAvailable.sub(feesCollAmount);\n        if (pairs[_pairId].baseDecimals >= pairs[_pairId].quoteDecimals) {\n            uint diffBaseQuoteDecimals = uint(pairs[_pairId].baseDecimals).sub(uint(pairs[_pairId].quoteDecimals));\n            askAmountWithFees = askAmountWithFees.div(10 ** diffBaseQuoteDecimals).sub(1); //subtract 1 to be sure evrything is ok\n        } else {\n            uint diffBaseQuoteDecimals = uint(pairs[_pairId].quoteDecimals).sub(uint(pairs[_pairId].baseDecimals));\n            askAmountWithFees = askAmountWithFees.mul(10 ** diffBaseQuoteDecimals).sub(1); //subtract 1 to be sure evrything is ok\n        }\n        return askAmountWithFees;\n    }\n\n    /**\n    * @dev set params\n    * @param _value set new param\n    */\n    function setEarlySettlementWindow (uint _value) external onlyOwner {\n        generalParams.earlySettlementWindow = _value;\n    }\n\n    /**\n    * @dev set params\n    * @param _value set new param\n    */\n    function setForeclosureWindow (uint _value) external onlyOwner {\n        generalParams.foreclosureWindow = _value;\n    }\n\n    function setForeclosureRatio(uint _value) external onlyOwner {\n        generalParams.foreclosingRatio = _value;\n    }\n\n    /**\n    * @dev set params\n    * @param _value set new param\n    */\n    function setInstantForeclosureRatio (uint _value) external onlyOwner {\n        generalParams.instantForeclosureRatio = _value;\n    }\n\n    /**\n    * @dev set params\n    * @param _value set new param\n    */\n    function setMinRpbRate (uint _value) external onlyOwner {\n        generalParams.minRpbRate = _value;\n    }\n\n    /**\n    * @dev set params\n    * @param _value set new param\n    */\n    function setRequiredCollateralRatio (uint _value) external onlyOwner {\n        generalParams.requiredCollateralRatio = _value;\n    }\n\n    /**\n    * @dev set params\n    * @param _value set new param\n    */\n    function setFactoryFees (uint _value) external onlyOwner {\n        generalFees.factoryFees = _value;\n    }\n\n    /**\n    * @dev set params\n    * @param _value set new param\n    */\n    function setEarlySettlementFee (uint _value) external onlyOwner {\n        generalFees.earlySettlementFee = _value;\n    }\n\n    /**\n    * @dev set params\n    * @param _value set new param\n    */\n    function setUserRewardShare (uint _value) external onlyOwner {\n        generalFees.userRewardShare = _value;\n    }\n\n    /**\n    * @dev set params\n    * @param _value set new param\n    */\n    function setVaultShares (uint _value) external onlyOwner {\n        generalFees.vaultShare = _value;\n    }\n\n    /**\n    * @dev set params\n    * @param _value set new param\n    */\n    function setUndercollateralizedForeclosingMultiple (uint _value) external onlyOwner {\n        generalFees.undercollateralizedForeclosingMultiple = _value;\n    }\n\n    /**\n    * @dev set params\n    * @param _value set new param\n    */\n    function setAtRiskForeclosedMultiple (uint _value) external onlyOwner {\n        generalFees.atRiskForeclosedMultiple = _value;\n    }\n\n    /**\n    * @dev set params\n    * @param _value set new param\n    */\n    function setCancellationFees (uint _value) external onlyOwner {\n        generalFees.cancellationFees = _value;\n    }\n \n    /**\n    * @dev get all general params\n    * @return param struct\n    */\n    function getGeneralParams() external view returns (params memory){\n        return generalParams;\n    }\n\n    /**\n    * @dev get all general params\n    * @return param struct\n    */\n    function getGeneralFees() external view returns (feesParams memory){\n        return generalFees;\n    }\n\n    /**\n    * @dev create a new loan with eth as collateraland set the address in the mapping\n    * @param _pairId number of the pair interested in the loan contract\n    * @param _borrowedAskAmount amount in stable coin the borrower would like to receive\n    * @param _rpbRate RPB rate the borrower will pay \n    * @return address of the new contract\n    */\n    function createNewEthLoan(uint _pairId, \n                uint _borrowedAskAmount, \n                uint _rpbRate) public payable returns (address) {\n        require(msg.sender!=address(0), \"Sender address not allowed\");\n        // in wei\n        uint minCollateralEth = calcMinCollateralWithFeesAmount(_pairId, _borrowedAskAmount);\n        require((msg.sender).balance >= minCollateralEth, \"Caller balance too low\");\n        require(msg.value >= minCollateralEth, \"Please send more ethers\");\n        address _quoteAddress = pairs[_pairId].quoteAddress;\n        address newEthLoan = ethDeplContract.deployNewEthLoanContract{value: msg.value}\n                    (msg.sender, loanID, _pairId, _borrowedAskAmount, _rpbRate, address(this), _quoteAddress);\n        deployedLoans[loanID] = newEthLoan;\n        emit NewEthLoanCreated(loanID, msg.sender, newEthLoan, msg.value, address(0));\n        loanID = loanID.add(1);\n        contractCounter = contractCounter.add(1);\n        return newEthLoan;\n    }\n\n    /**\n    * @dev create a new loan and set the address in the mapping\n    * @param _pairId number of the pair interested in the loan contract\n    * @param _borrowedAskAmount amount in stable coin the borrower would like to receive\n    * @param _rpbRate RPB rate the borrower will pay \n    * @return address of the new contract\n    */\n    function createNewTokenLoan(uint _pairId, \n                uint _borrowedAskAmount, \n                uint _rpbRate) public returns (address) {\n        require(msg.sender!=address(0), \"Sender address not allowed\");\n        // in wei\n        uint totalCollateralTokens = calcMinCollateralWithFeesAmount(_pairId, _borrowedAskAmount);\n        require(IERC20(pairs[_pairId].baseAddress).balanceOf(msg.sender) >= totalCollateralTokens, \"Caller balance too low\");\n        uint256 allowance = IERC20(pairs[_pairId].baseAddress).allowance(msg.sender, generalParams.tokenDeployerAddress);  //check the allowance on the deployer\n        require(allowance >= totalCollateralTokens, \"Check the token allowance\");\n        uint contractCollateralAmount = calcMinCollateralWithFeesAmount(_pairId, _borrowedAskAmount);\n        address _baseAddress = pairs[_pairId].baseAddress;\n        address _quoteAddress = pairs[_pairId].quoteAddress;\n        address newTokenLoan = tokenDeplContract.deployNewTokenLoanContract(msg.sender, loanID, _pairId, _borrowedAskAmount, _rpbRate, \n                    address(this), _baseAddress, _quoteAddress, contractCollateralAmount);\n        deployedLoans[loanID] = newTokenLoan;\n        emit NewTokenLoanCreated(loanID, msg.sender, newTokenLoan, _baseAddress);\n        loanID = loanID.add(1);\n        contractCounter = contractCounter.add(1);\n        return newTokenLoan;\n    }\n\n\n    /**\n    * @dev get all deployers addresses\n    * @return addresses of the deployer\n    */\n    function getEnvironmentDeployers() external view returns(address, address) {\n        return (address(ethDeplContract), address(tokenDeplContract));\n    }\n\n    /**\n    * @dev get a single loan address deployed by the factory\n    * @return loan contract address\n    */\n    function getDeployedLoan(uint _idx) external view returns (address) {\n        return deployedLoans[_idx];\n    }\n    \n}\n\n",
  "sourcePath": "C:/Users/saurabh/code/Jibrel/defi-smartcontracts/LoansFactoryV2/contracts/JFactory.sol",
  "compiler": {
    "name": "solc",
    "version": "0.6.11+commit.5ef660b1.Emscripten.clang"
  },
  "schemaVersion": "3.2.5",
  "updatedAt": "2020-10-08T09:46:11.013Z",
  "networkType": "ethereum",
  "devdoc": {
    "kind": "dev",
    "methods": {
      "calcMaxStableCoinAmount(uint256,uint256)": {
        "details": "get the amount of stable coin that a borrower could receive in front of a collateral amount (no fees)",
        "params": {
          "_collAmount": "amount in collateral unit the borrower could receive with that aount of collateral",
          "_pairId": "number of the pair"
        },
        "returns": {
          "_0": "amount of stable coins the borrower could receive"
        }
      },
      "calcMaxStableCoinWithFeesAmount(uint256,uint256)": {
        "details": "get the amount of stable coin that a borrower could receive in front of a collateral amount",
        "params": {
          "_collAmount": "amount in collateral unit the borrower could receive with that aount of collateral",
          "_pairId": "number of the pair"
        },
        "returns": {
          "_0": "amount of stable coins the borrower could receive"
        }
      },
      "calcMinCollateralAmount(uint256,uint256)": {
        "details": "get the amount of collateral needed to have stable coin amount (no fees)",
        "params": {
          "_askAmount": "amount in stable coin the borrower would like to receive",
          "_pairId": "number of the pair"
        },
        "returns": {
          "_0": "amount of collateral the borrower needs to send"
        }
      },
      "calcMinCollateralWithFeesAmount(uint256,uint256)": {
        "details": "get the amount of collateral needed to have stable coin amount, with fees",
        "params": {
          "_askAmount": "amount in stable coin the borrower would like to receive",
          "_pairId": "number of the pair"
        },
        "returns": {
          "_0": "amount of collateral the borrower needs to send"
        }
      },
      "calculateCollFeesOnActivation(uint256)": {
        "details": "calculate fees on collateral amount",
        "params": {
          "_collAmount": "collateral amount"
        },
        "returns": {
          "_0": "amount of collateral fees"
        }
      },
      "createNewEthLoan(uint256,uint256,uint256)": {
        "details": "create a new loan with eth as collateraland set the address in the mapping",
        "params": {
          "_borrowedAskAmount": "amount in stable coin the borrower would like to receive",
          "_pairId": "number of the pair interested in the loan contract",
          "_rpbRate": "RPB rate the borrower will pay "
        },
        "returns": {
          "_0": "address of the new contract"
        }
      },
      "createNewTokenLoan(uint256,uint256,uint256)": {
        "details": "create a new loan and set the address in the mapping",
        "params": {
          "_borrowedAskAmount": "amount in stable coin the borrower would like to receive",
          "_pairId": "number of the pair interested in the loan contract",
          "_rpbRate": "RPB rate the borrower will pay "
        },
        "returns": {
          "_0": "address of the new contract"
        }
      },
      "getDeployedLoan(uint256)": {
        "details": "get a single loan address deployed by the factory",
        "returns": {
          "_0": "loan contract address"
        }
      },
      "getEnvironmentDeployers()": {
        "details": "get all deployers addresses",
        "returns": {
          "_0": "addresses of the deployer"
        }
      },
      "getGeneralFees()": {
        "details": "get all general params",
        "returns": {
          "_0": "param struct"
        }
      },
      "getGeneralParams()": {
        "details": "get all general params",
        "returns": {
          "_0": "param struct"
        }
      },
      "getPairBaseDecimals(uint256)": {
        "details": "get a pair base decimals",
        "params": {
          "_pairId": "number of the pair"
        },
        "returns": {
          "_0": "number of base currency decimals"
        }
      },
      "getPairDecimals(uint256)": {
        "details": "get a pair decimals",
        "params": {
          "_pairId": "number of the pair"
        },
        "returns": {
          "_0": "decimals of the pair"
        }
      },
      "getPairName(uint256)": {
        "details": "get a pair name",
        "params": {
          "_pairId": "number of the pair"
        },
        "returns": {
          "_0": "name of the pair"
        }
      },
      "getPairQuoteDecimals(uint256)": {
        "details": "get a pair quote decimals",
        "params": {
          "_pairId": "number of the pair"
        },
        "returns": {
          "_0": "number of quote currency decimals"
        }
      },
      "getPairValue(uint256)": {
        "details": "get a pair price",
        "params": {
          "_pairId": "number of the pair"
        },
        "returns": {
          "_0": "price of the pair"
        }
      },
      "owner()": {
        "details": "Returns the address of the current owner."
      },
      "renounceOwnership()": {
        "details": "Leaves the contract without owner. It will not be possible to call `onlyOwner` functions anymore. Can only be called by the current owner. NOTE: Renouncing ownership will leave the contract without an owner, thereby removing any functionality that is only available to the owner."
      },
      "roundDn(uint256,uint256,uint256)": {
        "details": "math round down",
        "params": {
          "denominator": "denominator",
          "numerator": "numerator",
          "precision": "precision"
        },
        "returns": {
          "_0": "number of quote currency decimals"
        }
      },
      "roundUp(uint256,uint256,uint256)": {
        "details": "math round up",
        "params": {
          "denominator": "denominator",
          "numerator": "numerator",
          "precision": "precision"
        },
        "returns": {
          "_0": "number of quote currency decimals"
        }
      },
      "setAtRiskForeclosedMultiple(uint256)": {
        "details": "set params",
        "params": {
          "_value": "set new param"
        }
      },
      "setBaseQuoteAddresses(uint256,address,address)": {
        "details": "set a base and quote decimals for the specified pair",
        "params": {
          "_baseAddress": "base address of the pair",
          "_pairId": "number of the pair",
          "_quoteAddress": "quote address for pair"
        }
      },
      "setBaseQuoteDecimals(uint256,uint8,uint8)": {
        "details": "set a base and quote decimals for the specified pair",
        "params": {
          "_baseDecimals": "base decimals of the pair",
          "_pairId": "number of the pair",
          "_quoteDecimals": "quote decimals for pair"
        }
      },
      "setCancellationFees(uint256)": {
        "details": "set params",
        "params": {
          "_value": "set new param"
        }
      },
      "setEarlySettlementFee(uint256)": {
        "details": "set params",
        "params": {
          "_value": "set new param"
        }
      },
      "setEarlySettlementWindow(uint256)": {
        "details": "set params",
        "params": {
          "_value": "set new param"
        }
      },
      "setEthDeployerAddress(address)": {
        "details": "set a new address for ETH deployer contract",
        "params": {
          "_ethDepl": "new address"
        }
      },
      "setFactoryFees(uint256)": {
        "details": "set params",
        "params": {
          "_value": "set new param"
        }
      },
      "setForeclosureWindow(uint256)": {
        "details": "set params",
        "params": {
          "_value": "set new param"
        }
      },
      "setInstantForeclosureRatio(uint256)": {
        "details": "set params",
        "params": {
          "_value": "set new param"
        }
      },
      "setMinRpbRate(uint256)": {
        "details": "set params",
        "params": {
          "_value": "set new param"
        }
      },
      "setNewPair(string,uint256,uint8,address,uint8,address,uint8)": {
        "details": "set a new pair",
        "params": {
          "_pairDecimals": "number of decimals for pair",
          "_pairName": "string describing the pair (i.e. ETHDAI)",
          "_price": "price of the pair"
        }
      },
      "setPairValue(uint256,uint256,uint8)": {
        "details": "set a price for the specified pair",
        "params": {
          "_pairDecimals": "number of decimals for pair",
          "_pairId": "number of the pair",
          "_price": "price of the pair"
        }
      },
      "setRequiredCollateralRatio(uint256)": {
        "details": "set params",
        "params": {
          "_value": "set new param"
        }
      },
      "setTokenDeployerAddress(address)": {
        "details": "set a new address for token deployer contract",
        "params": {
          "_tokenDepl": "new address"
        }
      },
      "setUndercollateralizedForeclosingMultiple(uint256)": {
        "details": "set params",
        "params": {
          "_value": "set new param"
        }
      },
      "setUserRewardShare(uint256)": {
        "details": "set params",
        "params": {
          "_value": "set new param"
        }
      },
      "setVaultShares(uint256)": {
        "details": "set params",
        "params": {
          "_value": "set new param"
        }
      },
      "transferOwnership(address)": {
        "details": "Transfers ownership of the contract to a new account (`newOwner`). Can only be called by the current owner."
      }
    },
    "version": 1
  },
  "userdoc": {
    "kind": "user",
    "methods": {},
    "version": 1
  }
}