{
  "contractName": "JFactory",
  "abi": [
    {
      "inputs": [
        {
          "internalType": "address",
          "name": "_pairLoanDepl",
          "type": "address"
        },
        {
          "internalType": "address",
          "name": "_priceOracle",
          "type": "address"
        }
      ],
      "stateMutability": "nonpayable",
      "type": "constructor"
    },
    {
      "anonymous": false,
      "inputs": [
        {
          "indexed": false,
          "internalType": "address",
          "name": "account",
          "type": "address"
        }
      ],
      "name": "AdminAdded",
      "type": "event"
    },
    {
      "anonymous": false,
      "inputs": [
        {
          "indexed": false,
          "internalType": "address",
          "name": "account",
          "type": "address"
        }
      ],
      "name": "AdminRemoved",
      "type": "event"
    },
    {
      "anonymous": false,
      "inputs": [
        {
          "indexed": true,
          "internalType": "uint256",
          "name": "pairId",
          "type": "uint256"
        },
        {
          "indexed": true,
          "internalType": "address",
          "name": "newLoan",
          "type": "address"
        },
        {
          "indexed": false,
          "internalType": "string",
          "name": "pairName",
          "type": "string"
        }
      ],
      "name": "NewPairLoanCreated",
      "type": "event"
    },
    {
      "anonymous": false,
      "inputs": [
        {
          "indexed": true,
          "internalType": "address",
          "name": "previousOwner",
          "type": "address"
        },
        {
          "indexed": true,
          "internalType": "address",
          "name": "newOwner",
          "type": "address"
        }
      ],
      "name": "OwnershipTransferred",
      "type": "event"
    },
    {
      "anonymous": false,
      "inputs": [
        {
          "indexed": false,
          "internalType": "uint256",
          "name": "idx",
          "type": "uint256"
        },
        {
          "indexed": false,
          "internalType": "uint256",
          "name": "loanId",
          "type": "uint256"
        },
        {
          "indexed": false,
          "internalType": "uint256",
          "name": "oldStatus",
          "type": "uint256"
        },
        {
          "indexed": false,
          "internalType": "uint256",
          "name": "newStatus",
          "type": "uint256"
        }
      ],
      "name": "SetNewStatus",
      "type": "event"
    },
    {
      "inputs": [],
      "name": "factoryDeployBlock",
      "outputs": [
        {
          "internalType": "uint256",
          "name": "",
          "type": "uint256"
        }
      ],
      "stateMutability": "view",
      "type": "function",
      "constant": true
    },
    {
      "inputs": [],
      "name": "generalFees",
      "outputs": [
        {
          "internalType": "uint256",
          "name": "earlySettlementFee",
          "type": "uint256"
        },
        {
          "internalType": "uint8",
          "name": "factoryFees",
          "type": "uint8"
        },
        {
          "internalType": "uint8",
          "name": "userRewardShare",
          "type": "uint8"
        },
        {
          "internalType": "uint8",
          "name": "vaultRewardShare",
          "type": "uint8"
        },
        {
          "internalType": "uint8",
          "name": "cancellationFees",
          "type": "uint8"
        },
        {
          "internalType": "uint16",
          "name": "undercollateralizedForeclosingMultiple",
          "type": "uint16"
        },
        {
          "internalType": "uint16",
          "name": "atRiskForeclosedMultiple",
          "type": "uint16"
        }
      ],
      "stateMutability": "view",
      "type": "function",
      "constant": true
    },
    {
      "inputs": [],
      "name": "generalParams",
      "outputs": [
        {
          "internalType": "uint256",
          "name": "minRpbRate",
          "type": "uint256"
        },
        {
          "internalType": "uint256",
          "name": "earlySettlementWindow",
          "type": "uint256"
        },
        {
          "internalType": "uint256",
          "name": "foreclosureWindow",
          "type": "uint256"
        },
        {
          "internalType": "uint8",
          "name": "requiredCollateralRatio",
          "type": "uint8"
        },
        {
          "internalType": "uint8",
          "name": "foreclosingRatio",
          "type": "uint8"
        },
        {
          "internalType": "uint8",
          "name": "instantForeclosureRatio",
          "type": "uint8"
        },
        {
          "internalType": "uint8",
          "name": "limitCollRatioForWithdraw",
          "type": "uint8"
        },
        {
          "internalType": "address",
          "name": "factoryAddress",
          "type": "address"
        },
        {
          "internalType": "address",
          "name": "pairLoanDeployerAddress",
          "type": "address"
        },
        {
          "internalType": "address",
          "name": "pairPriceOracleAddress",
          "type": "address"
        },
        {
          "internalType": "uint8",
          "name": "collDecimals",
          "type": "uint8"
        },
        {
          "internalType": "uint8",
          "name": "lendDecimals",
          "type": "uint8"
        },
        {
          "internalType": "uint256",
          "name": "pairId",
          "type": "uint256"
        }
      ],
      "stateMutability": "view",
      "type": "function",
      "constant": true
    },
    {
      "inputs": [],
      "name": "owner",
      "outputs": [
        {
          "internalType": "address",
          "name": "",
          "type": "address"
        }
      ],
      "stateMutability": "view",
      "type": "function",
      "constant": true
    },
    {
      "inputs": [],
      "name": "pairLoanDeplContract",
      "outputs": [
        {
          "internalType": "contract IJLoanDeployer",
          "name": "",
          "type": "address"
        }
      ],
      "stateMutability": "view",
      "type": "function",
      "constant": true
    },
    {
      "inputs": [],
      "name": "pairNumber",
      "outputs": [
        {
          "internalType": "uint256",
          "name": "",
          "type": "uint256"
        }
      ],
      "stateMutability": "view",
      "type": "function",
      "constant": true
    },
    {
      "inputs": [],
      "name": "priceOracleContract",
      "outputs": [
        {
          "internalType": "contract IJPriceOracle",
          "name": "",
          "type": "address"
        }
      ],
      "stateMutability": "view",
      "type": "function",
      "constant": true
    },
    {
      "inputs": [],
      "name": "renounceOwnership",
      "outputs": [],
      "stateMutability": "nonpayable",
      "type": "function"
    },
    {
      "inputs": [
        {
          "internalType": "address",
          "name": "newOwner",
          "type": "address"
        }
      ],
      "name": "transferOwnership",
      "outputs": [],
      "stateMutability": "nonpayable",
      "type": "function"
    },
    {
      "inputs": [
        {
          "internalType": "address",
          "name": "account",
          "type": "address"
        }
      ],
      "name": "isAdmin",
      "outputs": [
        {
          "internalType": "bool",
          "name": "",
          "type": "bool"
        }
      ],
      "stateMutability": "view",
      "type": "function",
      "constant": true
    },
    {
      "inputs": [
        {
          "internalType": "address",
          "name": "account",
          "type": "address"
        }
      ],
      "name": "addAdmin",
      "outputs": [],
      "stateMutability": "nonpayable",
      "type": "function"
    },
    {
      "inputs": [
        {
          "internalType": "address",
          "name": "account",
          "type": "address"
        }
      ],
      "name": "removeAdmin",
      "outputs": [],
      "stateMutability": "nonpayable",
      "type": "function"
    },
    {
      "inputs": [],
      "name": "renounceAdmin",
      "outputs": [],
      "stateMutability": "nonpayable",
      "type": "function"
    },
    {
      "inputs": [
        {
          "internalType": "address",
          "name": "_pairLoanDepl",
          "type": "address"
        }
      ],
      "name": "setPairLoanDeployerAddress",
      "outputs": [],
      "stateMutability": "nonpayable",
      "type": "function"
    },
    {
      "inputs": [
        {
          "internalType": "address",
          "name": "_priceOracle",
          "type": "address"
        }
      ],
      "name": "setPairPriceOracleAddress",
      "outputs": [],
      "stateMutability": "nonpayable",
      "type": "function"
    },
    {
      "inputs": [
        {
          "internalType": "uint256",
          "name": "_collAmount",
          "type": "uint256"
        }
      ],
      "name": "calculateCollFeesOnActivation",
      "outputs": [
        {
          "internalType": "uint256",
          "name": "",
          "type": "uint256"
        }
      ],
      "stateMutability": "view",
      "type": "function",
      "constant": true
    },
    {
      "inputs": [
        {
          "internalType": "uint256",
          "name": "_pairId",
          "type": "uint256"
        },
        {
          "internalType": "uint256",
          "name": "_askAmount",
          "type": "uint256"
        }
      ],
      "name": "calcMinCollateralAmount",
      "outputs": [
        {
          "internalType": "uint256",
          "name": "",
          "type": "uint256"
        }
      ],
      "stateMutability": "view",
      "type": "function",
      "constant": true
    },
    {
      "inputs": [
        {
          "internalType": "uint256",
          "name": "_pairId",
          "type": "uint256"
        },
        {
          "internalType": "uint256",
          "name": "_askAmount",
          "type": "uint256"
        }
      ],
      "name": "calcMinCollateralWithFeesAmount",
      "outputs": [
        {
          "internalType": "uint256",
          "name": "",
          "type": "uint256"
        }
      ],
      "stateMutability": "view",
      "type": "function",
      "constant": true
    },
    {
      "inputs": [
        {
          "internalType": "uint256",
          "name": "_value",
          "type": "uint256"
        }
      ],
      "name": "setEarlySettlementWindow",
      "outputs": [],
      "stateMutability": "nonpayable",
      "type": "function"
    },
    {
      "inputs": [
        {
          "internalType": "uint256",
          "name": "_value",
          "type": "uint256"
        }
      ],
      "name": "setForeclosureWindow",
      "outputs": [],
      "stateMutability": "nonpayable",
      "type": "function"
    },
    {
      "inputs": [
        {
          "internalType": "uint8",
          "name": "_value",
          "type": "uint8"
        }
      ],
      "name": "setForeclosureRatio",
      "outputs": [],
      "stateMutability": "nonpayable",
      "type": "function"
    },
    {
      "inputs": [
        {
          "internalType": "uint8",
          "name": "_value",
          "type": "uint8"
        }
      ],
      "name": "setInstantForeclosureRatio",
      "outputs": [],
      "stateMutability": "nonpayable",
      "type": "function"
    },
    {
      "inputs": [
        {
          "internalType": "uint256",
          "name": "_value",
          "type": "uint256"
        }
      ],
      "name": "setMinRpbRate",
      "outputs": [],
      "stateMutability": "nonpayable",
      "type": "function"
    },
    {
      "inputs": [
        {
          "internalType": "uint8",
          "name": "_value",
          "type": "uint8"
        }
      ],
      "name": "setRequiredCollateralRatio",
      "outputs": [],
      "stateMutability": "nonpayable",
      "type": "function"
    },
    {
      "inputs": [
        {
          "internalType": "uint8",
          "name": "_value",
          "type": "uint8"
        }
      ],
      "name": "setFactoryFees",
      "outputs": [],
      "stateMutability": "nonpayable",
      "type": "function"
    },
    {
      "inputs": [
        {
          "internalType": "uint256",
          "name": "_value",
          "type": "uint256"
        }
      ],
      "name": "setEarlySettlementFee",
      "outputs": [],
      "stateMutability": "nonpayable",
      "type": "function"
    },
    {
      "inputs": [
        {
          "internalType": "uint8",
          "name": "_value",
          "type": "uint8"
        }
      ],
      "name": "setUserRewardShare",
      "outputs": [],
      "stateMutability": "nonpayable",
      "type": "function"
    },
    {
      "inputs": [
        {
          "internalType": "uint8",
          "name": "_value",
          "type": "uint8"
        }
      ],
      "name": "setVaultShares",
      "outputs": [],
      "stateMutability": "nonpayable",
      "type": "function"
    },
    {
      "inputs": [
        {
          "internalType": "uint16",
          "name": "_value",
          "type": "uint16"
        }
      ],
      "name": "setUndercollateralizedForeclosingMultiple",
      "outputs": [],
      "stateMutability": "nonpayable",
      "type": "function"
    },
    {
      "inputs": [
        {
          "internalType": "uint16",
          "name": "_value",
          "type": "uint16"
        }
      ],
      "name": "setAtRiskForeclosedMultiple",
      "outputs": [],
      "stateMutability": "nonpayable",
      "type": "function"
    },
    {
      "inputs": [
        {
          "internalType": "uint8",
          "name": "_value",
          "type": "uint8"
        }
      ],
      "name": "setCancellationFees",
      "outputs": [],
      "stateMutability": "nonpayable",
      "type": "function"
    },
    {
      "inputs": [],
      "name": "getGeneralParams",
      "outputs": [
        {
          "components": [
            {
              "internalType": "uint256",
              "name": "minRpbRate",
              "type": "uint256"
            },
            {
              "internalType": "uint256",
              "name": "earlySettlementWindow",
              "type": "uint256"
            },
            {
              "internalType": "uint256",
              "name": "foreclosureWindow",
              "type": "uint256"
            },
            {
              "internalType": "uint8",
              "name": "requiredCollateralRatio",
              "type": "uint8"
            },
            {
              "internalType": "uint8",
              "name": "foreclosingRatio",
              "type": "uint8"
            },
            {
              "internalType": "uint8",
              "name": "instantForeclosureRatio",
              "type": "uint8"
            },
            {
              "internalType": "uint8",
              "name": "limitCollRatioForWithdraw",
              "type": "uint8"
            },
            {
              "internalType": "address",
              "name": "factoryAddress",
              "type": "address"
            },
            {
              "internalType": "address",
              "name": "pairLoanDeployerAddress",
              "type": "address"
            },
            {
              "internalType": "address",
              "name": "pairPriceOracleAddress",
              "type": "address"
            },
            {
              "internalType": "uint8",
              "name": "collDecimals",
              "type": "uint8"
            },
            {
              "internalType": "uint8",
              "name": "lendDecimals",
              "type": "uint8"
            },
            {
              "internalType": "uint256",
              "name": "pairId",
              "type": "uint256"
            }
          ],
          "internalType": "struct IJLoanCommons.GeneralParams",
          "name": "",
          "type": "tuple"
        }
      ],
      "stateMutability": "view",
      "type": "function",
      "constant": true
    },
    {
      "inputs": [],
      "name": "getGeneralFees",
      "outputs": [
        {
          "components": [
            {
              "internalType": "uint256",
              "name": "earlySettlementFee",
              "type": "uint256"
            },
            {
              "internalType": "uint8",
              "name": "factoryFees",
              "type": "uint8"
            },
            {
              "internalType": "uint8",
              "name": "userRewardShare",
              "type": "uint8"
            },
            {
              "internalType": "uint8",
              "name": "vaultRewardShare",
              "type": "uint8"
            },
            {
              "internalType": "uint8",
              "name": "cancellationFees",
              "type": "uint8"
            },
            {
              "internalType": "uint16",
              "name": "undercollateralizedForeclosingMultiple",
              "type": "uint16"
            },
            {
              "internalType": "uint16",
              "name": "atRiskForeclosedMultiple",
              "type": "uint16"
            }
          ],
          "internalType": "struct IJLoanCommons.FeesParams",
          "name": "",
          "type": "tuple"
        }
      ],
      "stateMutability": "view",
      "type": "function",
      "constant": true
    },
    {
      "inputs": [
        {
          "internalType": "uint256",
          "name": "_pairId",
          "type": "uint256"
        }
      ],
      "name": "createNewPairContract",
      "outputs": [
        {
          "internalType": "address",
          "name": "",
          "type": "address"
        }
      ],
      "stateMutability": "nonpayable",
      "type": "function"
    },
    {
      "inputs": [],
      "name": "getLoanDeployer",
      "outputs": [
        {
          "internalType": "address",
          "name": "",
          "type": "address"
        }
      ],
      "stateMutability": "view",
      "type": "function",
      "constant": true
    },
    {
      "inputs": [
        {
          "internalType": "uint256",
          "name": "_idx",
          "type": "uint256"
        }
      ],
      "name": "getDeployedLoan",
      "outputs": [
        {
          "internalType": "address",
          "name": "",
          "type": "address"
        }
      ],
      "stateMutability": "view",
      "type": "function",
      "constant": true
    },
    {
      "inputs": [
        {
          "internalType": "uint256",
          "name": "_idx",
          "type": "uint256"
        }
      ],
      "name": "setLoanGeneralParamsInContract",
      "outputs": [],
      "stateMutability": "nonpayable",
      "type": "function"
    },
    {
      "inputs": [
        {
          "internalType": "uint256",
          "name": "_idx",
          "type": "uint256"
        }
      ],
      "name": "setLoanFeesParamsInContract",
      "outputs": [],
      "stateMutability": "nonpayable",
      "type": "function"
    },
    {
      "inputs": [
        {
          "internalType": "uint256",
          "name": "_idx",
          "type": "uint256"
        },
        {
          "internalType": "uint256",
          "name": "_loanId",
          "type": "uint256"
        },
        {
          "internalType": "uint256",
          "name": "_newStatus",
          "type": "uint256"
        }
      ],
      "name": "setStatusInLoan",
      "outputs": [],
      "stateMutability": "nonpayable",
      "type": "function"
    }
  ],
  "bytecode": "0x60806040523480156200001157600080fd5b506040516200245b3803806200245b8339810160408190526200003491620001bc565b6000620000496001600160e01b03620001b816565b600080546001600160a01b0319166001600160a01b0383169081178255604051929350917f8be0079c531659141344cd1fd0a4f28419497f9722a3daafe3b4186f6b6457e0908290a350600180805562083d60600855614650600955600a8054633b9aca00600755600b80546001600160a01b03199081166001600160a01b03978816908117909255600280548216909217909155600c80548216959096169485179095556003805490951690931790935560c860ff199283161761ff00199081166196001762ff000019908116627800001763ff0000001990811663a000000017600160201b600160c01b031916306401000000000217909555600f805462107ac0600e558516600590811790931661500017909116621400001761ffff60201b19166503e8000000001761ffff60301b1916670bb8000000000000179094166303000000179093553360009081526020939093526040909220805490911690911790554360105562000213565b3390565b60008060408385031215620001cf578182fd5b8251620001dc81620001fa565b6020840151909250620001ef81620001fa565b809150509250929050565b6001600160a01b03811681146200021057600080fd5b50565b61223880620002236000396000f3fe608060405234801561001057600080fd5b506004361061023d5760003560e01c806373aa30281161013b578063b311d9cf116100b8578063c2c1e3401161007c578063c2c1e340146104d2578063d4c4ccfb146104e5578063f08f1ba9146104ed578063f2fde38b146104f5578063fe046619146105085761023d565b8063b311d9cf1461046b578063b724e7b11461047e578063bed3a3b414610499578063c175771b146104ac578063c299e129146104bf5761023d565b80638da5cb5b116100ff5780638da5cb5b1461042257806399d4cb011461042a578063a1d9354514610432578063aa42e1aa14610445578063ada0e927146104585761023d565b806373aa3028146103ce578063774820bb146103e1578063799d564c146103f45780637bb45bf0146104075780638bad0c0a1461041a5761023d565b8063457454db116101c9578063699110f81161018d578063699110f81461036c578063704802751461037f57806370d531a81461039257806370fb1a49146103b3578063715018a6146103c65761023d565b8063457454db146103095780634a5e21921461031e5780634b32c55e146103315780634fd758791461034457806352ede5f6146103595761023d565b80631a55d9e9116102105780631a55d9e91461029057806324d7806c146102ae57806334baa377146102ce57806339075d89146102e157806343c5719c146102f65761023d565b806301adb6b91461024257806310f6ca5b146102575780631664a2951461026a5780631785f53c1461027d575b600080fd5b610255610250366004611af3565b61051b565b005b610255610265366004611c2f565b6105a3565b610255610278366004611bbc565b6107fc565b61025561028b366004611af3565b610856565b610298610887565b6040516102a59190611f3b565b60405180910390f35b6102c16102bc366004611af3565b6108fb565b6040516102a59190611cba565b6102556102dc366004611c5a565b610919565b6102e961096c565b6040516102a59190612082565b6102e9610304366004611c0e565b610972565b6103116109ac565b6040516102a59190611ca6565b61025561032c366004611c5a565b6109bb565b61025561033f366004611c5a565b610a0c565b61034c610a57565b6040516102a59190611f9f565b6102e9610367366004611bde565b610b0e565b61025561037a366004611c5a565b610b36565b61025561038d366004611af3565b610b87565b61039a610c01565b6040516102a59d9c9b9a999897969594939291906120db565b6103116103c1366004611bde565b610c68565b610255610c83565b6102556103dc366004611bde565b610d02565b6102556103ef366004611bbc565b610d3c565b610255610402366004611bde565b610d95565b610255610415366004611c5a565b610dcf565b610255610e22565b610311610e52565b610311610e61565b610311610440366004611bde565b610e70565b610255610453366004611bde565b611144565b610255610466366004611af3565b6111e2565b610255610479366004611c5a565b611261565b6104866112b6565b6040516102a59796959493929190612172565b6102556104a7366004611c5a565b6112f7565b6102e96104ba366004611c0e565b611342565b6102556104cd366004611bde565b61163b565b6102556104e0366004611bde565b611675565b6103116116af565b6102e96116be565b610255610503366004611af3565b6116c4565b610255610516366004611bde565b61177a565b610524336108fb565b6105495760405162461bcd60e51b815260040161054090611dac565b60405180910390fd5b600c546001600160a01b03828116911614156105775760405162461bcd60e51b815260040161054090611e9a565b600c80546001600160a01b039092166001600160a01b0319928316811790915560038054909216179055565b600260015414156105c65760405162461bcd60e51b815260040161054090611f04565b60026001556105d36117fd565b6000546001600160a01b039081169116146106005760405162461bcd60e51b815260040161054090611e37565b60078111156106215760405162461bcd60e51b815260040161054090611dd3565b6000838152600460208190526040808320549051630713f50760e21b81526001600160a01b0390911692918391631c4fd41c9161066091889101612082565b60206040518083038186803b15801561067857600080fd5b505afa15801561068c573d6000803e3d6000fd5b505050506040513d601f19601f820116820180604052508101906106b09190611bf6565b9050808314156106d25760405162461bcd60e51b815260040161054090611ee0565b604051633532dd3f60e21b81526001600160a01b0383169063d4cb74fc9061070090879087906004016120b2565b600060405180830381600087803b15801561071a57600080fd5b505af115801561072e573d6000803e3d6000fd5b5050604051630713f50760e21b8152600092506001600160a01b0385169150631c4fd41c90610761908890600401612082565b60206040518083038186803b15801561077957600080fd5b505afa15801561078d573d6000803e3d6000fd5b505050506040513d601f19601f820116820180604052508101906107b19190611bf6565b90507fa1661b6e1932625ac6173661a83389c6f4d9b37adb71d92b6252f9615780adf4868684846040516107e894939291906120c0565b60405180910390a150506001805550505050565b6108046117fd565b6000546001600160a01b039081169116146108315760405162461bcd60e51b815260040161054090611e37565b600f805461ffff909216600160301b0267ffff00000000000019909216919091179055565b61085f336108fb565b61087b5760405162461bcd60e51b815260040161054090611dac565b61088481611801565b50565b61088f611a4b565b506040805160e081018252600e548152600f5460ff808216602084015261010082048116938301939093526201000081048316606083015263010000008104909216608082015261ffff6401000000008304811660a0830152600160301b90920490911660c082015290565b6001600160a01b031660009081526005602052604090205460ff1690565b6109216117fd565b6000546001600160a01b0390811691161461094e5760405162461bcd60e51b815260040161054090611e37565b600f805460ff909216620100000262ff000019909216919091179055565b60105481565b60008061097f8484611342565b9050600061098c82610b0e565b905060006109a0838363ffffffff61185c16565b93505050505b92915050565b6003546001600160a01b031681565b6109c36117fd565b6000546001600160a01b039081169116146109f05760405162461bcd60e51b815260040161054090611e37565b600a805460ff9092166101000261ff0019909216919091179055565b610a146117fd565b6000546001600160a01b03908116911614610a415760405162461bcd60e51b815260040161054090611e37565b600f805460ff191660ff92909216919091179055565b610a5f611a87565b50604080516101a0810182526007548152600854602082015260095491810191909152600a5460ff808216606084015261010080830482166080850152620100008304821660a085015263010000008304821660c08501526001600160a01b03640100000000909304831660e0850152600b54831690840152600c54918216610120840152600160a01b82048116610140840152600160a81b90910416610160820152600d5461018082015290565b600f546000906109a690610b2c90849060ff1663ffffffff61188816565b6103e860006118c2565b610b3e6117fd565b6000546001600160a01b03908116911614610b6b5760405162461bcd60e51b815260040161054090611e37565b600f805460ff9092166101000261ff0019909216919091179055565b610b90336108fb565b610bac5760405162461bcd60e51b815260040161054090611dac565b6001600160a01b038116610bd25760405162461bcd60e51b815260040161054090611e6c565b610bdb816108fb565b15610bf85760405162461bcd60e51b815260040161054090611cf8565b61088481611911565b600754600854600954600a54600b54600c54600d5460ff808516946101008104821694620100008204831694630100000083048416946001600160a01b0364010000000090940484169492841693821692600160a01b8304811692600160a81b900416908d565b6000908152600460205260409020546001600160a01b031690565b610c8b6117fd565b6000546001600160a01b03908116911614610cb85760405162461bcd60e51b815260040161054090611e37565b600080546040516001600160a01b03909116907f8be0079c531659141344cd1fd0a4f28419497f9722a3daafe3b4186f6b6457e0908390a3600080546001600160a01b0319169055565b610d0a6117fd565b6000546001600160a01b03908116911614610d375760405162461bcd60e51b815260040161054090611e37565b600955565b610d446117fd565b6000546001600160a01b03908116911614610d715760405162461bcd60e51b815260040161054090611e37565b600f805461ffff9092166401000000000265ffff0000000019909216919091179055565b610d9d6117fd565b6000546001600160a01b03908116911614610dca5760405162461bcd60e51b815260040161054090611e37565b600e55565b610dd76117fd565b6000546001600160a01b03908116911614610e045760405162461bcd60e51b815260040161054090611e37565b600a805460ff909216620100000262ff000019909216919091179055565b610e2b336108fb565b610e475760405162461bcd60e51b815260040161054090611dac565b610e5033611801565b565b6000546001600160a01b031690565b6002546001600160a01b031681565b600060026001541415610e955760405162461bcd60e51b815260040161054090611f04565b6002600155610ea3336108fb565b610ebf5760405162461bcd60e51b815260040161054090611dac565b600354604051630758531360e01b81526000916001600160a01b031690630758531390610ef0908690600401612082565b60206040518083038186803b158015610f0857600080fd5b505afa158015610f1c573d6000803e3d6000fd5b505050506040513d601f19601f82011682018060405250810190610f409190611b0f565b60035460405163273f1d0760e11b81529192506000916001600160a01b0390911690634e7e3a0e90610f76908790600401612082565b60206040518083038186803b158015610f8e57600080fd5b505afa158015610fa2573d6000803e3d6000fd5b505050506040513d601f19601f82011682018060405250810190610fc69190611b0f565b6002546040516392f26f0560e01b81529192506000916001600160a01b03909116906392f26f059061100290889030908890889060040161208b565b602060405180830381600087803b15801561101c57600080fd5b505af1158015611030573d6000803e3d6000fd5b505050506040513d601f19601f820116820180604052508101906110549190611b0f565b60008681526004602081905260409182902080546001600160a01b0319166001600160a01b038581169182179092556003549351636549bf5360e11b81529495509389937f23cc28b328bc4c352043591698fcca6cf25d48f1b15c267c2f11debcbfd7d2829392169163ca937ea6916110cf91869101612082565b60006040518083038186803b1580156110e757600080fd5b505afa1580156110fb573d6000803e3d6000fd5b505050506040513d6000823e601f3d908101601f191682016040526111239190810190611b2b565b6040516111309190611cc5565b60405180910390a360018055949350505050565b61114c6117fd565b6000546001600160a01b039081169116146111795760405162461bcd60e51b815260040161054090611e37565b600081815260046020819052604080832054815163918c3dbd60e01b815291516001600160a01b039091169363918c3dbd938381019391929182900301818387803b1580156111c757600080fd5b505af11580156111db573d6000803e3d6000fd5b5050505050565b6111eb336108fb565b6112075760405162461bcd60e51b815260040161054090611dac565b600b546001600160a01b03828116911614156112355760405162461bcd60e51b815260040161054090611e9a565b600b80546001600160a01b039092166001600160a01b0319928316811790915560028054909216179055565b6112696117fd565b6000546001600160a01b039081169116146112965760405162461bcd60e51b815260040161054090611e37565b600f805460ff90921663010000000263ff00000019909216919091179055565b600e54600f5460ff808216916101008104821691620100008204811691630100000081049091169061ffff6401000000008204811691600160301b90041687565b6112ff6117fd565b6000546001600160a01b0390811691161461132c5760405162461bcd60e51b815260040161054090611e37565b600a805460ff191660ff92909216919091179055565b600354604051631334f8cd60e11b815260009182916001600160a01b0390911690632669f19a90611377908790600401612082565b60206040518083038186803b15801561138f57600080fd5b505afa1580156113a3573d6000803e3d6000fd5b505050506040513d601f19601f820116820180604052508101906113c79190611bf6565b600354604051632bd61f0560e11b81529192506000916001600160a01b03909116906357ac3e0a906113fd908890600401612082565b60206040518083038186803b15801561141557600080fd5b505afa158015611429573d6000803e3d6000fd5b505050506040513d601f19601f8201168201806040525081019061144d9190611c76565b600a805460ff92831693506000926114a0926114989260649261148c9288900a91611480918c911663ffffffff61188816565b9063ffffffff61188816565b9063ffffffff61196416565b8460006118c2565b600354604051630404ea8960e21b81529192506000916001600160a01b0390911690631013aa24906114d6908a90600401612082565b60206040518083038186803b1580156114ee57600080fd5b505afa158015611502573d6000803e3d6000fd5b505050506040513d601f19601f820116820180604052508101906115269190611c76565b600354604051633e17bdcb60e11b815260ff9290921692506000916001600160a01b0390911690637c2f7b9690611561908b90600401612082565b60206040518083038186803b15801561157957600080fd5b505afa15801561158d573d6000803e3d6000fd5b505050506040513d601f19601f820116820180604052508101906115b19190611c76565b60ff1690508082106115fe5760006115cf838363ffffffff6119a616565b90506115f660056115ea86600a85900a63ffffffff61188816565b9063ffffffff61185c16565b93505061162f565b6000611610828463ffffffff6119a616565b905061162b60056115ea86600a85900a63ffffffff61196416565b9350505b50909695505050505050565b6116436117fd565b6000546001600160a01b039081169116146116705760405162461bcd60e51b815260040161054090611e37565b600755565b61167d6117fd565b6000546001600160a01b039081169116146116aa5760405162461bcd60e51b815260040161054090611e37565b600855565b6002546001600160a01b031690565b60065481565b6116cc6117fd565b6000546001600160a01b039081169116146116f95760405162461bcd60e51b815260040161054090611e37565b6001600160a01b03811661171f5760405162461bcd60e51b815260040161054090611d2f565b600080546040516001600160a01b03808516939216917f8be0079c531659141344cd1fd0a4f28419497f9722a3daafe3b4186f6b6457e091a3600080546001600160a01b0319166001600160a01b0392909216919091179055565b6117826117fd565b6000546001600160a01b039081169116146117af5760405162461bcd60e51b815260040161054090611e37565b6000818152600460208190526040808320548151633c10d6c560e21b815291516001600160a01b039091169363f0435b14938381019391929182900301818387803b1580156111c757600080fd5b3390565b6001600160a01b03811660009081526005602052604090819020805460ff19169055517fa3b62bc36326052d97ea62d63c3d60308ed4c3ea8ac079dd8499f1e9c4f80c0f90611851908390611ca6565b60405180910390a150565b6000828201838110156118815760405162461bcd60e51b815260040161054090611d75565b9392505050565b600082611897575060006109a6565b828202828482816118a457fe5b04146118815760405162461bcd60e51b815260040161054090611df6565b6000806118e96118d984600163ffffffff61185c16565b8690600a0a63ffffffff61188816565b90506000611907600a61148c60056115ea868a63ffffffff61196416565b9695505050505050565b6001600160a01b03811660009081526005602052604090819020805460ff19166001179055517f44d6d25963f097ad14f29f06854a01f575648a1ef82f30e562ccd3889717e33990611851908390611ca6565b600061188183836040518060400160405280601a81526020017f536166654d6174683a206469766973696f6e206279207a65726f0000000000008152506119e8565b600061188183836040518060400160405280601e81526020017f536166654d6174683a207375627472616374696f6e206f766572666c6f770000815250611a1f565b60008183611a095760405162461bcd60e51b81526004016105409190611cc5565b506000838581611a1557fe5b0495945050505050565b60008184841115611a435760405162461bcd60e51b81526004016105409190611cc5565b505050900390565b6040805160e081018252600080825260208201819052918101829052606081018290526080810182905260a0810182905260c081019190915290565b604080516101a081018252600080825260208201819052918101829052606081018290526080810182905260a0810182905260c0810182905260e08101829052610100810182905261012081018290526101408101829052610160810182905261018081019190915290565b600060208284031215611b04578081fd5b8135611881816121de565b600060208284031215611b20578081fd5b8151611881816121de565b600060208284031215611b3c578081fd5b815167ffffffffffffffff80821115611b53578283fd5b81840185601f820112611b64578384fd5b8051925081831115611b74578384fd5b604051601f8401601f191681016020018381118282101715611b94578586fd5b604052838152818401602001871015611bab578485fd5b6119078460208301602085016121ae565b600060208284031215611bcd578081fd5b813561ffff81168114611881578182fd5b600060208284031215611bef578081fd5b5035919050565b600060208284031215611c07578081fd5b5051919050565b60008060408385031215611c20578081fd5b50508035926020909101359150565b600080600060608486031215611c43578081fd5b505081359360208301359350604090920135919050565b600060208284031215611c6b578081fd5b8135611881816121f3565b600060208284031215611c87578081fd5b8151611881816121f3565b6001600160a01b03169052565b60ff169052565b6001600160a01b0391909116815260200190565b901515815260200190565b6000602082528251806020840152611ce48160408501602087016121ae565b601f01601f19169190910160400192915050565b6020808252601e908201527f204164647265737320616c72656164792041646d696e6973747261746f720000604082015260600190565b60208082526026908201527f4f776e61626c653a206e6577206f776e657220697320746865207a65726f206160408201526564647265737360d01b606082015260800190565b6020808252601b908201527f536166654d6174683a206164646974696f6e206f766572666c6f770000000000604082015260600190565b6020808252600d908201526c4e6f7420616e2041646d696e2160981b604082015260600190565b60208082526009908201526821537461747573303760b81b604082015260600190565b60208082526021908201527f536166654d6174683a206d756c7469706c69636174696f6e206f766572666c6f6040820152607760f81b606082015260800190565b6020808252818101527f4f776e61626c653a2063616c6c6572206973206e6f7420746865206f776e6572604082015260600190565b6020808252601490820152734e6f7420612076616c696420616464726573732160601b604082015260600190565b60208082526026908201527f6e65772061646472657373206973207468652073616d6520617320746865206f6040820152656c64206f6e6560d01b606082015260800190565b6020808252600a9082015269216e657753746174757360b01b604082015260600190565b6020808252601f908201527f5265656e7472616e637947756172643a207265656e7472616e742063616c6c00604082015260600190565b600060e0820190508251825260ff602084015116602083015260ff604084015116604083015260ff606084015116606083015260ff608084015116608083015260a083015161ffff80821660a08501528060c08601511660c0850152505092915050565b60006101a0820190508251825260208301516020830152604083015160408301526060830151611fd26060840182611c9f565b506080830151611fe56080840182611c9f565b5060a0830151611ff860a0840182611c9f565b5060c083015161200b60c0840182611c9f565b5060e083015161201e60e0840182611c92565b506101008084015161203282850182611c92565b50506101208084015161204782850182611c92565b50506101408084015161205c82850182611c9f565b50506101608084015161207182850182611c9f565b505061018092830151919092015290565b90815260200190565b9384526001600160a01b039283166020850152908216604084015216606082015260800190565b918252602082015260400190565b93845260208401929092526040830152606082015260800190565b8d8152602081018d9052604081018c905260ff8b811660608301528a8116608083015289811660a0830152881660c08201526001600160a01b03871660e08201526101a0810161212f610100830188611c92565b61213d610120830187611c92565b61214b610140830186611c9f565b612159610160830185611c9f565b826101808301529e9d5050505050505050505050505050565b96875260ff958616602088015293851660408701529184166060860152909216608084015261ffff91821660a08401521660c082015260e00190565b60005b838110156121c95781810151838201526020016121b1565b838111156121d8576000848401525b50505050565b6001600160a01b038116811461088457600080fd5b60ff8116811461088457600080fdfea26469706673582212203e319bcfe764a46acdbbb610977c70b5c131911defb7d24b4a4fb222785e728164736f6c634300060b0033",
  "immutableReferences": {},
  "source": "// SPDX-License-Identifier: MIT\n/**\n * Created on 2020-10-28\n * @summary: Jibrel Loans Factory\n * @author: Jibrel Team\n */\npragma solidity 0.6.11;\npragma experimental ABIEncoderV2;\n\nimport \"@openzeppelin/contracts/math/SafeMath.sol\";\nimport \"@openzeppelin/contracts/access/Ownable.sol\";\nimport \"@openzeppelin/contracts/token/ERC20/IERC20.sol\";\nimport \"@openzeppelin/contracts/utils/ReentrancyGuard.sol\";\nimport \"./IJLoanCommons.sol\";\nimport \"./IJLoanDeployer.sol\";\nimport \"./IJLoan.sol\";\nimport \"./IJPriceOracle.sol\";\n\n\ncontract JFactory is Ownable, ReentrancyGuard, IJLoanCommons { \n    using SafeMath for uint256;\n\n    IJLoanDeployer public pairLoanDeplContract;\n    IJPriceOracle public priceOracleContract;\n\n    mapping(uint => address) internal deployedLoans;\n\n    mapping (address => bool) private _Admins;\n \n    uint public pairNumber;\n\n    GeneralParams public generalParams;\n    FeesParams public generalFees;\n\n    uint public factoryDeployBlock;\n\n    event AdminAdded(address account);\n    event AdminRemoved(address account);\n    event NewPairLoanCreated(uint indexed pairId, address indexed newLoan, string pairName);\n    event SetNewStatus(uint idx, uint loanId, uint oldStatus, uint newStatus);\n    \n    constructor (address _pairLoanDepl, address _priceOracle) public {\n        generalParams.earlySettlementWindow = 540000;\n        generalParams.foreclosureWindow = 18000;\n        generalParams.requiredCollateralRatio = 200;\n        generalParams.foreclosingRatio = 150;\n        generalParams.instantForeclosureRatio = 120;\n        generalParams.limitCollRatioForWithdraw = 160;\n        generalParams.minRpbRate = (10 ** 9); \n        generalParams.pairLoanDeployerAddress = _pairLoanDepl;\n        pairLoanDeplContract = IJLoanDeployer(_pairLoanDepl);\n        generalParams.pairPriceOracleAddress = _priceOracle;\n        priceOracleContract = IJPriceOracle(_priceOracle);\n        generalParams.factoryAddress = address(this);\n        generalFees.factoryFees = 5;\n        generalFees.earlySettlementFee = 1080000; \n        generalFees.userRewardShare = 80;\n        generalFees.vaultRewardShare = 20;\n        generalFees.undercollateralizedForeclosingMultiple = 1000;\n        generalFees.atRiskForeclosedMultiple = 3000;\n        generalFees.cancellationFees = 3;\n        _Admins[msg.sender] = true;\n        factoryDeployBlock = block.number;\n    }\n\n    /* Modifiers */\n    modifier onlyAdmins() {\n        require(isAdmin(msg.sender), \"Not an Admin!\");\n        _;\n    }\n\n    /*   Admins Roles Mngmt  */\n    function _addAdmin(address account) internal {\n        _Admins[account] = true;\n        emit AdminAdded(account);\n    }\n\n    function _removeAdmin(address account) internal {\n        _Admins[account] = false;\n        emit AdminRemoved(account);\n    }\n\n    function isAdmin(address account) public view returns (bool) {\n        return _Admins[account];\n    }\n\n    function addAdmin(address account) external onlyAdmins {\n        require(account != address(0), \"Not a valid address!\");\n        require(!isAdmin(account), \" Address already Administrator\");\n        _addAdmin(account);\n    }\n\n    function removeAdmin(address account) external onlyAdmins {\n        _removeAdmin(account);\n    }\n\n    function renounceAdmin() external onlyAdmins {\n        _removeAdmin(msg.sender);\n    }\n\n    /**\n    * @dev set a new address for pair loan deployer contract\n    * @param _pairLoanDepl new address\n    */\n    function setPairLoanDeployerAddress(address _pairLoanDepl) external onlyAdmins {\n        require(_pairLoanDepl != generalParams.pairLoanDeployerAddress, \"new address is the same as the old one\");\n        generalParams.pairLoanDeployerAddress = _pairLoanDepl;\n        pairLoanDeplContract = IJLoanDeployer(_pairLoanDepl);\n    }\n\n    /**\n    * @dev set a new address for pair price oracle contract\n    * @param _priceOracle new address\n    */\n    function setPairPriceOracleAddress(address _priceOracle) external onlyAdmins {\n        require(_priceOracle != generalParams.pairPriceOracleAddress, \"new address is the same as the old one\");\n        generalParams.pairPriceOracleAddress = _priceOracle;\n        priceOracleContract = IJPriceOracle(_priceOracle);\n    }\n\n    /**\n    * @dev math round up\n    * @param numerator numerator\n    * @param denominator denominator\n    * @param precision precision\n    * @return number of quote currency decimals\n    */\n    function roundUp(uint numerator, uint denominator, uint precision) internal pure returns (uint) {\n        uint _numerator  = numerator.mul(10 ** (precision.add(1)));\n        uint _quotient =  ((_numerator.div(denominator)).add(5)).div(10);\n        return _quotient;\n    }\n\n    /**\n    * @dev calculate fees on collateral amount\n    * @param _collAmount collateral amount\n    * @return amount of collateral fees\n    */\n    function calculateCollFeesOnActivation(uint _collAmount) public view returns (uint) {\n        return roundUp(_collAmount.mul(generalFees.factoryFees), 1000, 0);\n    }\n\n    /**\n    * @dev get the amount of collateral needed to have stable coin amount (no fees)\n    * @param _pairId number of the pair\n    * @param _askAmount amount in stable coin the borrower would like to receive\n    * @return amount of collateral the borrower needs to send\n    */\n    function calcMinCollateralAmount(uint _pairId, uint _askAmount) public view returns (uint) {\n        uint price = priceOracleContract.getPairValue(_pairId);\n        uint pairDecimals = uint(priceOracleContract.getPairDecimals(_pairId));\n        uint minCollEthAmount = roundUp(_askAmount.mul(generalParams.requiredCollateralRatio).mul(10 ** pairDecimals).div(100), price, 0);\n        uint baseDecimals = uint(priceOracleContract.getPairBaseDecimals(_pairId));\n        uint quoteDecimals = uint(priceOracleContract.getPairQuoteDecimals(_pairId));\n        if (baseDecimals >= quoteDecimals) {\n            uint diffBaseQuoteDecimals = baseDecimals.sub(quoteDecimals);\n            minCollEthAmount = minCollEthAmount.mul(10 ** diffBaseQuoteDecimals).add(5); //add 5 to be sure evrything is ok\n        } else {\n            uint diffBaseQuoteDecimals = quoteDecimals.sub(baseDecimals);\n            minCollEthAmount = minCollEthAmount.div(10 ** diffBaseQuoteDecimals).add(5); //add 5 to be sure evrything is ok\n        }\n        return minCollEthAmount;\n    }\n\n    /**\n    * @dev get the amount of collateral needed to have stable coin amount, with fees\n    * @param _pairId number of the pair\n    * @param _askAmount amount in stable coin the borrower would like to receive\n    * @return amount of collateral the borrower needs to send\n    */\n    function calcMinCollateralWithFeesAmount(uint _pairId, uint _askAmount) external view returns (uint) {\n        uint minCollEthAmount = calcMinCollateralAmount(_pairId, _askAmount);\n        uint feesCollAmount = calculateCollFeesOnActivation(minCollEthAmount);\n        uint totalCollAmountWithFees = minCollEthAmount.add(feesCollAmount);\n        return totalCollAmountWithFees;\n    }\n\n    /**\n    * @dev set GeneralParams\n    * @param _value set new param\n    */\n    function setEarlySettlementWindow(uint _value) external onlyOwner {\n        generalParams.earlySettlementWindow = _value;\n    }\n\n    /**\n    * @dev set GeneralParams\n    * @param _value set new param\n    */\n    function setForeclosureWindow(uint _value) external onlyOwner {\n        generalParams.foreclosureWindow = _value;\n    }\n\n    function setForeclosureRatio(uint8 _value) external onlyOwner {\n        generalParams.foreclosingRatio = _value;\n    }\n\n    /**\n    * @dev set GeneralParams\n    * @param _value set new param\n    */\n    function setInstantForeclosureRatio(uint8 _value) external onlyOwner {\n        generalParams.instantForeclosureRatio = _value;\n    }\n\n    /**\n    * @dev set GeneralParams\n    * @param _value set new param\n    */\n    function setMinRpbRate(uint _value) external onlyOwner {\n        generalParams.minRpbRate = _value;\n    }\n\n    /**\n    * @dev set GeneralParams\n    * @param _value set new param\n    */\n    function setRequiredCollateralRatio(uint8 _value) external onlyOwner {\n        generalParams.requiredCollateralRatio = _value;\n    }\n\n    /**\n    * @dev set GeneralParams\n    * @param _value set new param\n    */\n    function setFactoryFees(uint8 _value) external onlyOwner {\n        generalFees.factoryFees = _value;\n    }\n\n    /**\n    * @dev set GeneralParams\n    * @param _value set new param\n    */\n    function setEarlySettlementFee(uint _value) external onlyOwner {\n        generalFees.earlySettlementFee = _value;\n    }\n\n    /**\n    * @dev set GeneralParams\n    * @param _value set new param\n    */\n    function setUserRewardShare(uint8 _value) external onlyOwner {\n        generalFees.userRewardShare = _value;\n    }\n\n    /**\n    * @dev set GeneralParams\n    * @param _value set new param\n    */\n    function setVaultShares(uint8 _value) external onlyOwner {\n        generalFees.vaultRewardShare = _value;\n    }\n\n    /**\n    * @dev set GeneralParams\n    * @param _value set new param\n    */\n    function setUndercollateralizedForeclosingMultiple(uint16 _value) external onlyOwner {\n        generalFees.undercollateralizedForeclosingMultiple = _value;\n    }\n\n    /**\n    * @dev set GeneralParams\n    * @param _value set new param\n    */\n    function setAtRiskForeclosedMultiple(uint16 _value) external onlyOwner {\n        generalFees.atRiskForeclosedMultiple = _value;\n    }\n\n    /**\n    * @dev set GeneralParams\n    * @param _value set new param\n    */\n    function setCancellationFees(uint8 _value) external onlyOwner {\n        generalFees.cancellationFees = _value;\n    }\n\n    /**\n    * @dev get all general GeneralParams\n    * @return param struct\n    */\n    function getGeneralParams() external view returns (GeneralParams memory) {\n        return generalParams;\n    }\n\n    /**\n    * @dev get all general GeneralParams\n    * @return param struct\n    */\n    function getGeneralFees() external view returns (FeesParams memory) {\n        return generalFees;\n    }\n\n    /**\n    * @dev create a new loan and set the address in the mapping\n    * @param _pairId number of the pair id interested in the loan contract\n    * @return address of the new contract\n    */\n    function createNewPairContract(uint _pairId) external nonReentrant onlyAdmins returns (address) {\n        address _baseAddress = priceOracleContract.getPairBaseAddress(_pairId);\n        address _quoteAddress = priceOracleContract.getPairQuoteAddress(_pairId);\n        address newTokenLoan = pairLoanDeplContract.deployNewLoanContract(_pairId, address(this), _baseAddress, _quoteAddress);\n        deployedLoans[_pairId] = newTokenLoan;\n        emit NewPairLoanCreated(_pairId, newTokenLoan, priceOracleContract.getPairName(_pairId));\n        return newTokenLoan;\n    }\n\n    /**\n    * @dev get all deployers addresses\n    * @return addresses of the deployer\n    */\n    function getLoanDeployer() external view returns(address) {\n        return address(pairLoanDeplContract);\n    }\n\n    /**\n    * @dev get a single loan address deployed by the factory\n    * @param _idx deployed loan index\n    * @return loan contract address\n    */\n    function getDeployedLoan(uint _idx) external view returns (address) {\n        return deployedLoans[_idx];\n    }\n\n        /**\n    * @dev set new common GeneralParams in single eth loans contract\n    * @param _idx, index of the loan pair contract\n    */\n    function setLoanGeneralParamsInContract(uint _idx) external onlyOwner {\n        IJLoan(deployedLoans[_idx]).setNewGeneralLoansParams();\n    }\n\n    /**\n    * @dev set new fees GeneralParams in single eth loans contract\n    * @param _idx, index of the loan pair contract\n    */\n    function setLoanFeesParamsInContract(uint _idx) external onlyOwner {\n        IJLoan(deployedLoans[_idx]).setNewFeesParams();\n    }\n\n        /**\n    * @dev set new status in single eth loans contract\n    * @param _idx, index of the loan contract\n    * @param _loanId loan id\n    * @param _newStatus, new status\n    */\n    function setStatusInLoan (uint _idx, uint _loanId, uint _newStatus) external nonReentrant onlyOwner {\n        require(_newStatus <= 7, \"!Status07\");\n        IJLoan jContract = IJLoan(deployedLoans[_idx]);\n        uint oldStatus = jContract.getLoanStatus(_loanId);\n        require(_newStatus != oldStatus, \"!newStatus\");\n        jContract.setNewStatus(_loanId, _newStatus);\n        uint newStatus = jContract.getLoanStatus(_loanId);\n        emit SetNewStatus(_idx, _loanId, oldStatus, newStatus);\n    }\n    \n}\n",
  "sourcePath": "C:/Users/saurabh/code/Jibrel/defi-smartcontracts/LoansFactoryV2/contracts/JFactory.sol",
  "compiler": {
    "name": "solc",
    "version": "0.6.11+commit.5ef660b1.Emscripten.clang"
  },
  "schemaVersion": "3.3.1",
  "updatedAt": "2020-11-01T10:47:33.977Z",
  "networkType": "ethereum",
  "devdoc": {
    "kind": "dev",
    "methods": {
      "calcMinCollateralAmount(uint256,uint256)": {
        "details": "get the amount of collateral needed to have stable coin amount (no fees)",
        "params": {
          "_askAmount": "amount in stable coin the borrower would like to receive",
          "_pairId": "number of the pair"
        },
        "returns": {
          "_0": "amount of collateral the borrower needs to send"
        }
      },
      "calcMinCollateralWithFeesAmount(uint256,uint256)": {
        "details": "get the amount of collateral needed to have stable coin amount, with fees",
        "params": {
          "_askAmount": "amount in stable coin the borrower would like to receive",
          "_pairId": "number of the pair"
        },
        "returns": {
          "_0": "amount of collateral the borrower needs to send"
        }
      },
      "calculateCollFeesOnActivation(uint256)": {
        "details": "calculate fees on collateral amount",
        "params": {
          "_collAmount": "collateral amount"
        },
        "returns": {
          "_0": "amount of collateral fees"
        }
      },
      "createNewPairContract(uint256)": {
        "details": "create a new loan and set the address in the mapping",
        "params": {
          "_pairId": "number of the pair id interested in the loan contract"
        },
        "returns": {
          "_0": "address of the new contract"
        }
      },
      "getDeployedLoan(uint256)": {
        "details": "get a single loan address deployed by the factory",
        "params": {
          "_idx": "deployed loan index"
        },
        "returns": {
          "_0": "loan contract address"
        }
      },
      "getGeneralFees()": {
        "details": "get all general GeneralParams",
        "returns": {
          "_0": "param struct"
        }
      },
      "getGeneralParams()": {
        "details": "get all general GeneralParams",
        "returns": {
          "_0": "param struct"
        }
      },
      "getLoanDeployer()": {
        "details": "get all deployers addresses",
        "returns": {
          "_0": "addresses of the deployer"
        }
      },
      "owner()": {
        "details": "Returns the address of the current owner."
      },
      "renounceOwnership()": {
        "details": "Leaves the contract without owner. It will not be possible to call `onlyOwner` functions anymore. Can only be called by the current owner. NOTE: Renouncing ownership will leave the contract without an owner, thereby removing any functionality that is only available to the owner."
      },
      "setAtRiskForeclosedMultiple(uint16)": {
        "details": "set GeneralParams",
        "params": {
          "_value": "set new param"
        }
      },
      "setCancellationFees(uint8)": {
        "details": "set GeneralParams",
        "params": {
          "_value": "set new param"
        }
      },
      "setEarlySettlementFee(uint256)": {
        "details": "set GeneralParams",
        "params": {
          "_value": "set new param"
        }
      },
      "setEarlySettlementWindow(uint256)": {
        "details": "set GeneralParams",
        "params": {
          "_value": "set new param"
        }
      },
      "setFactoryFees(uint8)": {
        "details": "set GeneralParams",
        "params": {
          "_value": "set new param"
        }
      },
      "setForeclosureWindow(uint256)": {
        "details": "set GeneralParams",
        "params": {
          "_value": "set new param"
        }
      },
      "setInstantForeclosureRatio(uint8)": {
        "details": "set GeneralParams",
        "params": {
          "_value": "set new param"
        }
      },
      "setLoanFeesParamsInContract(uint256)": {
        "details": "set new fees GeneralParams in single eth loans contract",
        "params": {
          "_idx": ", index of the loan pair contract"
        }
      },
      "setLoanGeneralParamsInContract(uint256)": {
        "details": "set new common GeneralParams in single eth loans contract",
        "params": {
          "_idx": ", index of the loan pair contract"
        }
      },
      "setMinRpbRate(uint256)": {
        "details": "set GeneralParams",
        "params": {
          "_value": "set new param"
        }
      },
      "setPairLoanDeployerAddress(address)": {
        "details": "set a new address for pair loan deployer contract",
        "params": {
          "_pairLoanDepl": "new address"
        }
      },
      "setPairPriceOracleAddress(address)": {
        "details": "set a new address for pair price oracle contract",
        "params": {
          "_priceOracle": "new address"
        }
      },
      "setRequiredCollateralRatio(uint8)": {
        "details": "set GeneralParams",
        "params": {
          "_value": "set new param"
        }
      },
      "setStatusInLoan(uint256,uint256,uint256)": {
        "details": "set new status in single eth loans contract",
        "params": {
          "_idx": ", index of the loan contract",
          "_loanId": "loan id",
          "_newStatus": ", new status"
        }
      },
      "setUndercollateralizedForeclosingMultiple(uint16)": {
        "details": "set GeneralParams",
        "params": {
          "_value": "set new param"
        }
      },
      "setUserRewardShare(uint8)": {
        "details": "set GeneralParams",
        "params": {
          "_value": "set new param"
        }
      },
      "setVaultShares(uint8)": {
        "details": "set GeneralParams",
        "params": {
          "_value": "set new param"
        }
      },
      "transferOwnership(address)": {
        "details": "Transfers ownership of the contract to a new account (`newOwner`). Can only be called by the current owner."
      }
    },
    "version": 1
  },
  "userdoc": {
    "kind": "user",
    "methods": {},
    "version": 1
  }
}