{
  "contractName": "JFeesCollector",
  "abi": [
    {
      "inputs": [],
      "stateMutability": "payable",
      "type": "constructor",
      "payable": true
    },
    {
      "anonymous": false,
      "inputs": [
        {
          "indexed": false,
          "internalType": "address",
          "name": "sender",
          "type": "address"
        },
        {
          "indexed": false,
          "internalType": "uint256",
          "name": "amount",
          "type": "uint256"
        },
        {
          "indexed": false,
          "internalType": "uint256",
          "name": "blockNumber",
          "type": "uint256"
        }
      ],
      "name": "EthReceived",
      "type": "event"
    },
    {
      "anonymous": false,
      "inputs": [
        {
          "indexed": false,
          "internalType": "uint256",
          "name": "amount",
          "type": "uint256"
        },
        {
          "indexed": false,
          "internalType": "uint256",
          "name": "blockNumber",
          "type": "uint256"
        }
      ],
      "name": "EthWithdrawed",
      "type": "event"
    },
    {
      "anonymous": false,
      "inputs": [
        {
          "indexed": true,
          "internalType": "address",
          "name": "previousOwner",
          "type": "address"
        },
        {
          "indexed": true,
          "internalType": "address",
          "name": "newOwner",
          "type": "address"
        }
      ],
      "name": "OwnershipTransferred",
      "type": "event"
    },
    {
      "anonymous": false,
      "inputs": [
        {
          "indexed": false,
          "internalType": "address",
          "name": "token",
          "type": "address"
        },
        {
          "indexed": false,
          "internalType": "uint256",
          "name": "blockNumber",
          "type": "uint256"
        }
      ],
      "name": "TokenAdded",
      "type": "event"
    },
    {
      "anonymous": false,
      "inputs": [
        {
          "indexed": false,
          "internalType": "address",
          "name": "token",
          "type": "address"
        },
        {
          "indexed": false,
          "internalType": "uint256",
          "name": "blockNumber",
          "type": "uint256"
        }
      ],
      "name": "TokenRemoved",
      "type": "event"
    },
    {
      "anonymous": false,
      "inputs": [
        {
          "indexed": false,
          "internalType": "address",
          "name": "token",
          "type": "address"
        },
        {
          "indexed": false,
          "internalType": "uint256",
          "name": "amount",
          "type": "uint256"
        },
        {
          "indexed": false,
          "internalType": "uint256",
          "name": "blockNumber",
          "type": "uint256"
        }
      ],
      "name": "TokenWithdrawed",
      "type": "event"
    },
    {
      "stateMutability": "payable",
      "type": "fallback",
      "payable": true
    },
    {
      "inputs": [],
      "name": "lastDepositBlock",
      "outputs": [
        {
          "internalType": "uint256",
          "name": "",
          "type": "uint256"
        }
      ],
      "stateMutability": "view",
      "type": "function",
      "constant": true
    },
    {
      "inputs": [],
      "name": "owner",
      "outputs": [
        {
          "internalType": "address",
          "name": "",
          "type": "address"
        }
      ],
      "stateMutability": "view",
      "type": "function",
      "constant": true
    },
    {
      "inputs": [],
      "name": "renounceOwnership",
      "outputs": [],
      "stateMutability": "nonpayable",
      "type": "function"
    },
    {
      "inputs": [
        {
          "internalType": "address",
          "name": "",
          "type": "address"
        }
      ],
      "name": "tokensAllowed",
      "outputs": [
        {
          "internalType": "bool",
          "name": "",
          "type": "bool"
        }
      ],
      "stateMutability": "view",
      "type": "function",
      "constant": true
    },
    {
      "inputs": [],
      "name": "tokensCounter",
      "outputs": [
        {
          "internalType": "uint256",
          "name": "",
          "type": "uint256"
        }
      ],
      "stateMutability": "view",
      "type": "function",
      "constant": true
    },
    {
      "inputs": [
        {
          "internalType": "address",
          "name": "newOwner",
          "type": "address"
        }
      ],
      "name": "transferOwnership",
      "outputs": [],
      "stateMutability": "nonpayable",
      "type": "function"
    },
    {
      "stateMutability": "payable",
      "type": "receive",
      "payable": true
    },
    {
      "inputs": [],
      "name": "getEthBalance",
      "outputs": [
        {
          "internalType": "uint256",
          "name": "",
          "type": "uint256"
        }
      ],
      "stateMutability": "view",
      "type": "function",
      "constant": true
    },
    {
      "inputs": [
        {
          "internalType": "uint256",
          "name": "_amount",
          "type": "uint256"
        }
      ],
      "name": "ethWithdraw",
      "outputs": [],
      "stateMutability": "nonpayable",
      "type": "function"
    },
    {
      "inputs": [
        {
          "internalType": "address",
          "name": "_tok",
          "type": "address"
        }
      ],
      "name": "allowToken",
      "outputs": [],
      "stateMutability": "nonpayable",
      "type": "function"
    },
    {
      "inputs": [
        {
          "internalType": "address",
          "name": "_tok",
          "type": "address"
        }
      ],
      "name": "disallowToken",
      "outputs": [],
      "stateMutability": "nonpayable",
      "type": "function"
    },
    {
      "inputs": [
        {
          "internalType": "address",
          "name": "_tok",
          "type": "address"
        }
      ],
      "name": "getTokenBalance",
      "outputs": [
        {
          "internalType": "uint256",
          "name": "",
          "type": "uint256"
        }
      ],
      "stateMutability": "view",
      "type": "function",
      "constant": true
    },
    {
      "inputs": [
        {
          "internalType": "address",
          "name": "_tok",
          "type": "address"
        }
      ],
      "name": "isTokenAllowed",
      "outputs": [
        {
          "internalType": "bool",
          "name": "",
          "type": "bool"
        }
      ],
      "stateMutability": "view",
      "type": "function",
      "constant": true
    },
    {
      "inputs": [
        {
          "internalType": "address",
          "name": "_tok",
          "type": "address"
        },
        {
          "internalType": "uint256",
          "name": "_amount",
          "type": "uint256"
        }
      ],
      "name": "withdrawTokens",
      "outputs": [],
      "stateMutability": "nonpayable",
      "type": "function"
    }
  ],
  "bytecode": "0x608060405260006100176001600160e01b0361006b16565b600080546001600160a01b0319166001600160a01b0383169081178255604051929350917f8be0079c531659141344cd1fd0a4f28419497f9722a3daafe3b4186f6b6457e0908290a350600060035561006f565b3390565b610cc58061007e6000396000f3fe6080604052600436106100c65760003560e01c8063715018a61161007f578063e79767af11610059578063e79767af1461026d578063eeda452b146102a0578063f2fde38b146102e7578063f9eaee0d1461031a5761010b565b8063715018a6146101f45780638da5cb5b14610209578063b53472ef1461023a5761010b565b806306b091f91461010d5780632891da02146101465780632a3d7c811461016d57806335ec1a75146101825780633aecd0e3146101ac57806370ed0ada146101df5761010b565b3661010b5760408051338152346020820152438183015290517f217c08711b46e0b51f406ee1bf927ab14a2816c116bbac3bfba8ae8cee825b499181900360600190a1005b005b34801561011957600080fd5b5061010b6004803603604081101561013057600080fd5b506001600160a01b03813516906020013561034d565b34801561015257600080fd5b5061015b61049f565b60408051918252519081900360200190f35b34801561017957600080fd5b5061015b6104a5565b34801561018e57600080fd5b5061010b600480360360208110156101a557600080fd5b50356104ab565b3480156101b857600080fd5b5061015b600480360360208110156101cf57600080fd5b50356001600160a01b03166105c3565b3480156101eb57600080fd5b5061015b61063f565b34801561020057600080fd5b5061010b610643565b34801561021557600080fd5b5061021e6106e5565b604080516001600160a01b039092168252519081900360200190f35b34801561024657600080fd5b5061010b6004803603602081101561025d57600080fd5b50356001600160a01b03166106f4565b34801561027957600080fd5b5061010b6004803603602081101561029057600080fd5b50356001600160a01b0316610856565b3480156102ac57600080fd5b506102d3600480360360208110156102c357600080fd5b50356001600160a01b03166109b0565b604080519115158252519081900360200190f35b3480156102f357600080fd5b5061010b6004803603602081101561030a57600080fd5b50356001600160a01b03166109c5565b34801561032657600080fd5b506102d36004803603602081101561033d57600080fd5b50356001600160a01b0316610abd565b610355610adb565b6000546001600160a01b039081169116146103a5576040805162461bcd60e51b81526020600482018190526024820152600080516020610c70833981519152604482015290519081900360640190fd5b6103ae82610abd565b6103f3576040805162461bcd60e51b8152602060048201526011602482015270151bdad95b881b9bdd08185b1b1bddd959607a1b604482015290519081900360640190fd5b47811115610448576040805162461bcd60e51b815260206004820152601b60248201527f4e6f7420656e6f75676820636f6e74726163742062616c616e63650000000000604482015290519081900360640190fd5b610453823383610adf565b604080516001600160a01b038416815260208101839052438183015290517f9197dff006c93a9d847b21ecf1c111e402b0580814bf61b996e081e7a70dce469181900360600190a15050565b60035481565b60015481565b6104b3610adb565b6000546001600160a01b03908116911614610503576040805162461bcd60e51b81526020600482018190526024820152600080516020610c70833981519152604482015290519081900360640190fd5b47811115610558576040805162461bcd60e51b815260206004820152601b60248201527f4e6f7420656e6f75676820636f6e74726163742062616c616e63650000000000604482015290519081900360640190fd5b604051339082156108fc029083906000818181858888f19350505050158015610585573d6000803e3d6000fd5b506040805182815243602082015281517f9c280eaa17057b09460ee2bb8e5337caa85523b1982b92a09d5d0a4252ff7a7c929181900390910190a150565b604080516370a0823160e01b815230600482015290516000916001600160a01b038416916370a0823191602480820192602092909190829003018186803b15801561060d57600080fd5b505afa158015610621573d6000803e3d6000fd5b505050506040513d602081101561063757600080fd5b505192915050565b4790565b61064b610adb565b6000546001600160a01b0390811691161461069b576040805162461bcd60e51b81526020600482018190526024820152600080516020610c70833981519152604482015290519081900360640190fd5b600080546040516001600160a01b03909116907f8be0079c531659141344cd1fd0a4f28419497f9722a3daafe3b4186f6b6457e0908390a3600080546001600160a01b0319169055565b6000546001600160a01b031690565b6106fc610adb565b6000546001600160a01b0390811691161461074c576040805162461bcd60e51b81526020600482018190526024820152600080516020610c70833981519152604482015290519081900360640190fd5b61075581610abd565b1561079f576040805162461bcd60e51b8152602060048201526015602482015274151bdad95b88185b1c9958591e48185b1b1bddd959605a1b604482015290519081900360640190fd5b6001600160a01b0381166107f6576040805162461bcd60e51b8152602060048201526019602482015278151bdad95b881059191c995cdcc81b9bdd08185b1b1bddd959603a1b604482015290519081900360640190fd5b6001600160a01b038116600081815260026020908152604091829020805460ff191660011790558151928352439083015280517ff4c563a3ea86ff1f4275e8c207df0375a51963f2b831b7bf4da8be938d92876c9281900390910190a150565b61085e610adb565b6000546001600160a01b039081169116146108ae576040805162461bcd60e51b81526020600482018190526024820152600080516020610c70833981519152604482015290519081900360640190fd5b6108b781610abd565b6108fc576040805162461bcd60e51b8152602060048201526011602482015270151bdad95b881b9bdd08185b1b1bddd959607a1b604482015290519081900360640190fd5b6001600160a01b038116610953576040805162461bcd60e51b8152602060048201526019602482015278151bdad95b881059191c995cdcc81b9bdd08185b1b1bddd959603a1b604482015290519081900360640190fd5b6001600160a01b038116600081815260026020908152604091829020805460ff191690558151928352439083015280517fbe9bb4bdca0a094babd75e3a98b1d2e2390633430d0a2f6e2b9970e2ee03fb2e9281900390910190a150565b60026020526000908152604090205460ff1681565b6109cd610adb565b6000546001600160a01b03908116911614610a1d576040805162461bcd60e51b81526020600482018190526024820152600080516020610c70833981519152604482015290519081900360640190fd5b6001600160a01b038116610a625760405162461bcd60e51b8152600401808060200182810382526026815260200180610c4a6026913960400191505060405180910390fd5b600080546040516001600160a01b03808516939216917f8be0079c531659141344cd1fd0a4f28419497f9722a3daafe3b4186f6b6457e091a3600080546001600160a01b0319166001600160a01b0392909216919091179055565b6001600160a01b031660009081526002602052604090205460ff1690565b3390565b604080516001600160a01b038481166024830152604480830185905283518084039091018152606490920183526020820180516001600160e01b031663a9059cbb60e01b178152925182516000946060949389169392918291908083835b60208310610b5c5780518252601f199092019160209182019101610b3d565b6001836020036101000a0380198251168184511680821785525050505050509050019150506000604051808303816000865af19150503d8060008114610bbe576040519150601f19603f3d011682016040523d82523d6000602084013e610bc3565b606091505b5091509150818015610bf1575080511580610bf15750808060200190516020811015610bee57600080fd5b50515b610c42576040805162461bcd60e51b815260206004820152601f60248201527f5472616e7366657248656c7065723a205452414e534645525f4641494c454400604482015290519081900360640190fd5b505050505056fe4f776e61626c653a206e6577206f776e657220697320746865207a65726f20616464726573734f776e61626c653a2063616c6c6572206973206e6f7420746865206f776e6572a26469706673582212209ec912b7682a50e941e8ddabdf8347e8d3761b2201b6d8f31809c9917e47574964736f6c634300060b0033",
  "immutableReferences": {},
  "source": "// SPDX-License-Identifier: MIT\npragma solidity ^0.6.11;\n\nimport \"@openzeppelin/contracts/math/SafeMath.sol\";\nimport \"@openzeppelin/contracts/access/Ownable.sol\";\nimport \"@openzeppelin/contracts/token/ERC20/IERC20.sol\";\nimport \"./TransferHelper.sol\";\n\ncontract JFeesCollector is Ownable {\n    using SafeMath for uint;\n\n    uint public lastDepositBlock;\n\n    mapping(address => bool) public tokensAllowed;\n    uint public tokensCounter;\n    \n    event EthReceived(address sender, uint amount, uint blockNumber);\n    event EthWithdrawed(uint amount, uint blockNumber);\n    event TokenAdded(address token, uint blockNumber);\n    event TokenRemoved(address token, uint blockNumber);\n    event TokenWithdrawed(address token, uint amount, uint blockNumber);\n\n    constructor() payable public { \n        tokensCounter = 0;\n    }\n    \n    \n    function getEthBalance() external view returns (uint) {\n        return address(this).balance;\n    }\n    \n    \n    fallback() external payable {\n        \n    }\n    \n    receive() external payable {\n        //lastDepositBlock = block.number;\n        emit EthReceived(msg.sender, msg.value, block.number);\n    }\n\n    /**\n    * @dev withdraw eth amount\n    * @param _amount amount of withdrawed eth\n    */\n    function ethWithdraw(uint _amount) public onlyOwner {\n        require(_amount <= address(this).balance, \"Not enough contract balance\");\n        (msg.sender).transfer(_amount);\n        emit EthWithdrawed(_amount, block.number);\n    }\n\n    /**\n    * @dev add allowed token address\n    * @param _tok address of the token to add\n    */\n    function allowToken(address _tok) public onlyOwner {\n        require(!isTokenAllowed(_tok), \"Token already allowed\");\n        require(_tok != address(0), \"Token Address not allowed\");\n        tokensAllowed[_tok] = true;\n        emit TokenAdded(_tok, block.number);\n    }\n\n    /**\n    * @dev remove allowed token address\n    * @param _tok address of the token to add\n    */\n    function disallowToken(address _tok) public onlyOwner {\n        require(isTokenAllowed(_tok), \"Token not allowed\");\n        require(_tok != address(0), \"Token Address not allowed\");\n        tokensAllowed[_tok] = false;\n        emit TokenRemoved(_tok, block.number);\n    }\n\n    /**\n    * @dev get contract token balance\n    * @param _tok address of the token\n    */\n    function getTokenBalance(address _tok) public view returns (uint) {\n        return IERC20(_tok).balanceOf(address(this));\n    }\n\n    /**\n    * @dev check if a token is already allowed\n    * @param _tok address of the token\n    */\n    function isTokenAllowed(address _tok) public view returns (bool) {\n        return tokensAllowed[_tok];\n    }\n\n    /**\n    * @dev withdraw tokens from the contract, checking if a token is already allowed\n    * @param _tok address of the token\n    * @param _amount token amount\n    */\n    function withdrawTokens(address _tok, uint _amount) public onlyOwner {\n        require(isTokenAllowed(_tok), \"Token not allowed\");\n        require(_amount <= address(this).balance, \"Not enough contract balance\");\n        TransferHelper.safeTransfer(_tok, msg.sender, _amount);\n        emit TokenWithdrawed(_tok, _amount, block.number);\n    }\n}",
  "sourcePath": "C:/Users/saurabh/code/Jibrel/defi-smartcontracts/LoansFactoryV2/contracts/JFeesCollector.sol",
  "compiler": {
    "name": "solc",
    "version": "0.6.11+commit.5ef660b1.Emscripten.clang"
  },
  "schemaVersion": "3.2.5",
  "updatedAt": "2020-10-08T09:46:10.975Z",
  "networkType": "ethereum",
  "devdoc": {
    "kind": "dev",
    "methods": {
      "allowToken(address)": {
        "details": "add allowed token address",
        "params": {
          "_tok": "address of the token to add"
        }
      },
      "disallowToken(address)": {
        "details": "remove allowed token address",
        "params": {
          "_tok": "address of the token to add"
        }
      },
      "ethWithdraw(uint256)": {
        "details": "withdraw eth amount",
        "params": {
          "_amount": "amount of withdrawed eth"
        }
      },
      "getTokenBalance(address)": {
        "details": "get contract token balance",
        "params": {
          "_tok": "address of the token"
        }
      },
      "isTokenAllowed(address)": {
        "details": "check if a token is already allowed",
        "params": {
          "_tok": "address of the token"
        }
      },
      "owner()": {
        "details": "Returns the address of the current owner."
      },
      "renounceOwnership()": {
        "details": "Leaves the contract without owner. It will not be possible to call `onlyOwner` functions anymore. Can only be called by the current owner. NOTE: Renouncing ownership will leave the contract without an owner, thereby removing any functionality that is only available to the owner."
      },
      "transferOwnership(address)": {
        "details": "Transfers ownership of the contract to a new account (`newOwner`). Can only be called by the current owner."
      },
      "withdrawTokens(address,uint256)": {
        "details": "withdraw tokens from the contract, checking if a token is already allowed",
        "params": {
          "_amount": "token amount",
          "_tok": "address of the token"
        }
      }
    },
    "version": 1
  },
  "userdoc": {
    "kind": "user",
    "methods": {},
    "version": 1
  }
}