{
  "contractName": "JFeesCollector",
  "abi": [
    {
      "inputs": [],
      "stateMutability": "payable",
      "type": "constructor",
      "payable": true
    },
    {
      "anonymous": false,
      "inputs": [
        {
          "indexed": false,
          "internalType": "address",
          "name": "sender",
          "type": "address"
        },
        {
          "indexed": false,
          "internalType": "uint256",
          "name": "amount",
          "type": "uint256"
        },
        {
          "indexed": false,
          "internalType": "uint256",
          "name": "blockNumber",
          "type": "uint256"
        }
      ],
      "name": "EthReceived",
      "type": "event"
    },
    {
      "anonymous": false,
      "inputs": [
        {
          "indexed": false,
          "internalType": "uint256",
          "name": "amount",
          "type": "uint256"
        },
        {
          "indexed": false,
          "internalType": "uint256",
          "name": "blockNumber",
          "type": "uint256"
        }
      ],
      "name": "EthWithdrawed",
      "type": "event"
    },
    {
      "anonymous": false,
      "inputs": [
        {
          "indexed": true,
          "internalType": "address",
          "name": "previousOwner",
          "type": "address"
        },
        {
          "indexed": true,
          "internalType": "address",
          "name": "newOwner",
          "type": "address"
        }
      ],
      "name": "OwnershipTransferred",
      "type": "event"
    },
    {
      "anonymous": false,
      "inputs": [
        {
          "indexed": false,
          "internalType": "address",
          "name": "token",
          "type": "address"
        },
        {
          "indexed": false,
          "internalType": "uint256",
          "name": "blockNumber",
          "type": "uint256"
        }
      ],
      "name": "TokenAdded",
      "type": "event"
    },
    {
      "anonymous": false,
      "inputs": [
        {
          "indexed": false,
          "internalType": "address",
          "name": "token",
          "type": "address"
        },
        {
          "indexed": false,
          "internalType": "uint256",
          "name": "blockNumber",
          "type": "uint256"
        }
      ],
      "name": "TokenRemoved",
      "type": "event"
    },
    {
      "anonymous": false,
      "inputs": [
        {
          "indexed": false,
          "internalType": "address",
          "name": "token",
          "type": "address"
        },
        {
          "indexed": false,
          "internalType": "uint256",
          "name": "amount",
          "type": "uint256"
        },
        {
          "indexed": false,
          "internalType": "uint256",
          "name": "blockNumber",
          "type": "uint256"
        }
      ],
      "name": "TokenWithdrawed",
      "type": "event"
    },
    {
      "stateMutability": "payable",
      "type": "fallback",
      "payable": true
    },
    {
      "inputs": [],
      "name": "lastDepositBlock",
      "outputs": [
        {
          "internalType": "uint256",
          "name": "",
          "type": "uint256"
        }
      ],
      "stateMutability": "view",
      "type": "function",
      "constant": true
    },
    {
      "inputs": [],
      "name": "owner",
      "outputs": [
        {
          "internalType": "address",
          "name": "",
          "type": "address"
        }
      ],
      "stateMutability": "view",
      "type": "function",
      "constant": true
    },
    {
      "inputs": [],
      "name": "renounceOwnership",
      "outputs": [],
      "stateMutability": "nonpayable",
      "type": "function"
    },
    {
      "inputs": [
        {
          "internalType": "address",
          "name": "",
          "type": "address"
        }
      ],
      "name": "tokensAllowed",
      "outputs": [
        {
          "internalType": "bool",
          "name": "",
          "type": "bool"
        }
      ],
      "stateMutability": "view",
      "type": "function",
      "constant": true
    },
    {
      "inputs": [],
      "name": "tokensCounter",
      "outputs": [
        {
          "internalType": "uint256",
          "name": "",
          "type": "uint256"
        }
      ],
      "stateMutability": "view",
      "type": "function",
      "constant": true
    },
    {
      "inputs": [
        {
          "internalType": "address",
          "name": "newOwner",
          "type": "address"
        }
      ],
      "name": "transferOwnership",
      "outputs": [],
      "stateMutability": "nonpayable",
      "type": "function"
    },
    {
      "stateMutability": "payable",
      "type": "receive",
      "payable": true
    },
    {
      "inputs": [],
      "name": "getEthBalance",
      "outputs": [
        {
          "internalType": "uint256",
          "name": "",
          "type": "uint256"
        }
      ],
      "stateMutability": "view",
      "type": "function",
      "constant": true
    },
    {
      "inputs": [
        {
          "internalType": "uint256",
          "name": "_amount",
          "type": "uint256"
        }
      ],
      "name": "ethWithdraw",
      "outputs": [],
      "stateMutability": "nonpayable",
      "type": "function"
    },
    {
      "inputs": [
        {
          "internalType": "address",
          "name": "_tok",
          "type": "address"
        }
      ],
      "name": "allowToken",
      "outputs": [],
      "stateMutability": "nonpayable",
      "type": "function"
    },
    {
      "inputs": [
        {
          "internalType": "address",
          "name": "_tok",
          "type": "address"
        }
      ],
      "name": "disallowToken",
      "outputs": [],
      "stateMutability": "nonpayable",
      "type": "function"
    },
    {
      "inputs": [
        {
          "internalType": "address",
          "name": "_tok",
          "type": "address"
        }
      ],
      "name": "getTokenBalance",
      "outputs": [
        {
          "internalType": "uint256",
          "name": "",
          "type": "uint256"
        }
      ],
      "stateMutability": "view",
      "type": "function",
      "constant": true
    },
    {
      "inputs": [
        {
          "internalType": "address",
          "name": "_tok",
          "type": "address"
        }
      ],
      "name": "isTokenAllowed",
      "outputs": [
        {
          "internalType": "bool",
          "name": "",
          "type": "bool"
        }
      ],
      "stateMutability": "view",
      "type": "function",
      "constant": true
    },
    {
      "inputs": [
        {
          "internalType": "address",
          "name": "_tok",
          "type": "address"
        },
        {
          "internalType": "uint256",
          "name": "_amount",
          "type": "uint256"
        }
      ],
      "name": "withdrawTokens",
      "outputs": [],
      "stateMutability": "nonpayable",
      "type": "function"
    }
  ],
  "bytecode": "0x608060405260006100176001600160e01b0361006f16565b600080546001600160a01b0319166001600160a01b0383169081178255604051929350917f8be0079c531659141344cd1fd0a4f28419497f9722a3daafe3b4186f6b6457e0908290a350600180556000600455610073565b3390565b610e5f806100826000396000f3fe6080604052600436106100c65760003560e01c8063715018a61161007f578063e79767af11610059578063e79767af1461026d578063eeda452b146102a0578063f2fde38b146102e7578063f9eaee0d1461031a5761010b565b8063715018a6146101f45780638da5cb5b14610209578063b53472ef1461023a5761010b565b806306b091f91461010d5780632891da02146101465780632a3d7c811461016d57806335ec1a75146101825780633aecd0e3146101ac57806370ed0ada146101df5761010b565b3661010b5760408051338152346020820152438183015290517f217c08711b46e0b51f406ee1bf927ab14a2816c116bbac3bfba8ae8cee825b499181900360600190a1005b005b34801561011957600080fd5b5061010b6004803603604081101561013057600080fd5b506001600160a01b03813516906020013561034d565b34801561015257600080fd5b5061015b610500565b60408051918252519081900360200190f35b34801561017957600080fd5b5061015b610506565b34801561018e57600080fd5b5061010b600480360360208110156101a557600080fd5b503561050c565b3480156101b857600080fd5b5061015b600480360360208110156101cf57600080fd5b50356001600160a01b0316610661565b3480156101eb57600080fd5b5061015b6106dd565b34801561020057600080fd5b5061010b6106e1565b34801561021557600080fd5b5061021e610783565b604080516001600160a01b039092168252519081900360200190f35b34801561024657600080fd5b5061010b6004803603602081101561025d57600080fd5b50356001600160a01b0316610792565b34801561027957600080fd5b5061010b6004803603602081101561029057600080fd5b50356001600160a01b03166108f4565b3480156102ac57600080fd5b506102d3600480360360208110156102c357600080fd5b50356001600160a01b0316610a4e565b604080519115158252519081900360200190f35b3480156102f357600080fd5b5061010b6004803603602081101561030a57600080fd5b50356001600160a01b0316610a63565b34801561032657600080fd5b506102d36004803603602081101561033d57600080fd5b50356001600160a01b0316610b5b565b600260015414156103a5576040805162461bcd60e51b815260206004820152601f60248201527f5265656e7472616e637947756172643a207265656e7472616e742063616c6c00604482015290519081900360640190fd5b60026001556103b2610b79565b6000546001600160a01b03908116911614610402576040805162461bcd60e51b81526020600482018190526024820152600080516020610e0a833981519152604482015290519081900360640190fd5b61040b82610b5b565b610450576040805162461bcd60e51b8152602060048201526011602482015270151bdad95b881b9bdd08185b1b1bddd959607a1b604482015290519081900360640190fd5b478111156104a5576040805162461bcd60e51b815260206004820152601b60248201527f4e6f7420656e6f75676820636f6e74726163742062616c616e63650000000000604482015290519081900360640190fd5b6104b0823383610b7d565b604080516001600160a01b038416815260208101839052438183015290517f9197dff006c93a9d847b21ecf1c111e402b0580814bf61b996e081e7a70dce469181900360600190a1505060018055565b60045481565b60025481565b60026001541415610564576040805162461bcd60e51b815260206004820152601f60248201527f5265656e7472616e637947756172643a207265656e7472616e742063616c6c00604482015290519081900360640190fd5b6002600155610571610b79565b6000546001600160a01b039081169116146105c1576040805162461bcd60e51b81526020600482018190526024820152600080516020610e0a833981519152604482015290519081900360640190fd5b47811115610616576040805162461bcd60e51b815260206004820152601b60248201527f4e6f7420656e6f75676820636f6e74726163742062616c616e63650000000000604482015290519081900360640190fd5b6106203382610cdc565b6040805182815243602082015281517f9c280eaa17057b09460ee2bb8e5337caa85523b1982b92a09d5d0a4252ff7a7c929181900390910190a15060018055565b604080516370a0823160e01b815230600482015290516000916001600160a01b038416916370a0823191602480820192602092909190829003018186803b1580156106ab57600080fd5b505afa1580156106bf573d6000803e3d6000fd5b505050506040513d60208110156106d557600080fd5b505192915050565b4790565b6106e9610b79565b6000546001600160a01b03908116911614610739576040805162461bcd60e51b81526020600482018190526024820152600080516020610e0a833981519152604482015290519081900360640190fd5b600080546040516001600160a01b03909116907f8be0079c531659141344cd1fd0a4f28419497f9722a3daafe3b4186f6b6457e0908390a3600080546001600160a01b0319169055565b6000546001600160a01b031690565b61079a610b79565b6000546001600160a01b039081169116146107ea576040805162461bcd60e51b81526020600482018190526024820152600080516020610e0a833981519152604482015290519081900360640190fd5b6107f381610b5b565b1561083d576040805162461bcd60e51b8152602060048201526015602482015274151bdad95b88185b1c9958591e48185b1b1bddd959605a1b604482015290519081900360640190fd5b6001600160a01b038116610894576040805162461bcd60e51b8152602060048201526019602482015278151bdad95b881059191c995cdcc81b9bdd08185b1b1bddd959603a1b604482015290519081900360640190fd5b6001600160a01b038116600081815260036020908152604091829020805460ff191660011790558151928352439083015280517ff4c563a3ea86ff1f4275e8c207df0375a51963f2b831b7bf4da8be938d92876c9281900390910190a150565b6108fc610b79565b6000546001600160a01b0390811691161461094c576040805162461bcd60e51b81526020600482018190526024820152600080516020610e0a833981519152604482015290519081900360640190fd5b61095581610b5b565b61099a576040805162461bcd60e51b8152602060048201526011602482015270151bdad95b881b9bdd08185b1b1bddd959607a1b604482015290519081900360640190fd5b6001600160a01b0381166109f1576040805162461bcd60e51b8152602060048201526019602482015278151bdad95b881059191c995cdcc81b9bdd08185b1b1bddd959603a1b604482015290519081900360640190fd5b6001600160a01b038116600081815260036020908152604091829020805460ff191690558151928352439083015280517fbe9bb4bdca0a094babd75e3a98b1d2e2390633430d0a2f6e2b9970e2ee03fb2e9281900390910190a150565b60036020526000908152604090205460ff1681565b610a6b610b79565b6000546001600160a01b03908116911614610abb576040805162461bcd60e51b81526020600482018190526024820152600080516020610e0a833981519152604482015290519081900360640190fd5b6001600160a01b038116610b005760405162461bcd60e51b8152600401808060200182810382526026815260200180610de46026913960400191505060405180910390fd5b600080546040516001600160a01b03808516939216917f8be0079c531659141344cd1fd0a4f28419497f9722a3daafe3b4186f6b6457e091a3600080546001600160a01b0319166001600160a01b0392909216919091179055565b6001600160a01b031660009081526003602052604090205460ff1690565b3390565b604080516001600160a01b038481166024830152604480830185905283518084039091018152606490920183526020820180516001600160e01b031663a9059cbb60e01b178152925182516000946060949389169392918291908083835b60208310610bfa5780518252601f199092019160209182019101610bdb565b6001836020036101000a0380198251168184511680821785525050505050509050019150506000604051808303816000865af19150503d8060008114610c5c576040519150601f19603f3d011682016040523d82523d6000602084013e610c61565b606091505b5091509150818015610c8f575080511580610c8f5750808060200190516020811015610c8c57600080fd5b50515b610cd5576040805162461bcd60e51b81526020600482015260126024820152711512081514905394d1915497d1905253115160721b604482015290519081900360640190fd5b5050505050565b604080516000808252602082019092526001600160a01b0384169083906040518082805190602001908083835b60208310610d285780518252601f199092019160209182019101610d09565b6001836020036101000a03801982511681845116808217855250505050505090500191505060006040518083038185875af1925050503d8060008114610d8a576040519150601f19603f3d011682016040523d82523d6000602084013e610d8f565b606091505b5050905080610dde576040805162461bcd60e51b815260206004820152601660248201527515120811551217d514905394d1915497d1905253115160521b604482015290519081900360640190fd5b50505056fe4f776e61626c653a206e6577206f776e657220697320746865207a65726f20616464726573734f776e61626c653a2063616c6c6572206973206e6f7420746865206f776e6572a26469706673582212202657a8d040c9ebad3bd737374e15211ffd99632d3d7f0a849f6dcadaac9723d764736f6c634300060b0033",
  "immutableReferences": {},
  "source": "// SPDX-License-Identifier: MIT\npragma solidity ^0.6.11;\n\nimport \"@openzeppelin/contracts/math/SafeMath.sol\";\nimport \"@openzeppelin/contracts/access/Ownable.sol\";\nimport \"@openzeppelin/contracts/token/ERC20/IERC20.sol\";\nimport \"@openzeppelin/contracts/utils/ReentrancyGuard.sol\";\nimport \"./TransferHelper.sol\";\n\ncontract JFeesCollector is Ownable, ReentrancyGuard {\n    using SafeMath for uint;\n\n    uint public lastDepositBlock;\n\n    mapping(address => bool) public tokensAllowed;\n    uint public tokensCounter;\n    \n    event EthReceived(address sender, uint amount, uint blockNumber);\n    event EthWithdrawed(uint amount, uint blockNumber);\n    event TokenAdded(address token, uint blockNumber);\n    event TokenRemoved(address token, uint blockNumber);\n    event TokenWithdrawed(address token, uint amount, uint blockNumber);\n\n    constructor() payable public { \n        tokensCounter = 0;\n    }\n    \n    \n    function getEthBalance() external view returns (uint) {\n        return address(this).balance;\n    }\n    \n    \n    fallback() external payable {\n        \n    }\n    \n    receive() external payable {\n        //lastDepositBlock = block.number;\n        emit EthReceived(msg.sender, msg.value, block.number);\n    }\n\n    /**\n    * @dev withdraw eth amount\n    * @param _amount amount of withdrawed eth\n    */\n    function ethWithdraw(uint _amount) external nonReentrant onlyOwner {\n        require(_amount <= address(this).balance, \"Not enough contract balance\");\n        TransferHelper.safeTransferETH(msg.sender, _amount);\n        emit EthWithdrawed(_amount, block.number);\n    }\n\n    /**\n    * @dev add allowed token address\n    * @param _tok address of the token to add\n    */\n    function allowToken(address _tok) external onlyOwner {\n        require(!isTokenAllowed(_tok), \"Token already allowed\");\n        require(_tok != address(0), \"Token Address not allowed\");\n        tokensAllowed[_tok] = true;\n        emit TokenAdded(_tok, block.number);\n    }\n\n    /**\n    * @dev remove allowed token address\n    * @param _tok address of the token to add\n    */\n    function disallowToken(address _tok) external onlyOwner {\n        require(isTokenAllowed(_tok), \"Token not allowed\");\n        require(_tok != address(0), \"Token Address not allowed\");\n        tokensAllowed[_tok] = false;\n        emit TokenRemoved(_tok, block.number);\n    }\n\n    /**\n    * @dev get contract token balance\n    * @param _tok address of the token\n    */\n    function getTokenBalance(address _tok) external view returns (uint) {\n        return IERC20(_tok).balanceOf(address(this));\n    }\n\n    /**\n    * @dev check if a token is already allowed\n    * @param _tok address of the token\n    */\n    function isTokenAllowed(address _tok) public view returns (bool) {\n        return tokensAllowed[_tok];\n    }\n\n    /**\n    * @dev withdraw tokens from the contract, checking if a token is already allowed\n    * @param _tok address of the token\n    * @param _amount token amount\n    */\n    function withdrawTokens(address _tok, uint _amount) external nonReentrant onlyOwner {\n        require(isTokenAllowed(_tok), \"Token not allowed\");\n        require(_amount <= address(this).balance, \"Not enough contract balance\");\n        TransferHelper.safeTransfer(_tok, msg.sender, _amount);\n        emit TokenWithdrawed(_tok, _amount, block.number);\n    }\n}",
  "sourcePath": "C:/Users/saurabh/code/Jibrel/defi-smartcontracts/LoansFactoryV2/contracts/JFeesCollector.sol",
  "compiler": {
    "name": "solc",
    "version": "0.6.11+commit.5ef660b1.Emscripten.clang"
  },
  "schemaVersion": "3.3.1",
  "updatedAt": "2020-10-18T18:33:14.035Z",
  "networkType": "ethereum",
  "devdoc": {
    "kind": "dev",
    "methods": {
      "allowToken(address)": {
        "details": "add allowed token address",
        "params": {
          "_tok": "address of the token to add"
        }
      },
      "disallowToken(address)": {
        "details": "remove allowed token address",
        "params": {
          "_tok": "address of the token to add"
        }
      },
      "ethWithdraw(uint256)": {
        "details": "withdraw eth amount",
        "params": {
          "_amount": "amount of withdrawed eth"
        }
      },
      "getTokenBalance(address)": {
        "details": "get contract token balance",
        "params": {
          "_tok": "address of the token"
        }
      },
      "isTokenAllowed(address)": {
        "details": "check if a token is already allowed",
        "params": {
          "_tok": "address of the token"
        }
      },
      "owner()": {
        "details": "Returns the address of the current owner."
      },
      "renounceOwnership()": {
        "details": "Leaves the contract without owner. It will not be possible to call `onlyOwner` functions anymore. Can only be called by the current owner. NOTE: Renouncing ownership will leave the contract without an owner, thereby removing any functionality that is only available to the owner."
      },
      "transferOwnership(address)": {
        "details": "Transfers ownership of the contract to a new account (`newOwner`). Can only be called by the current owner."
      },
      "withdrawTokens(address,uint256)": {
        "details": "withdraw tokens from the contract, checking if a token is already allowed",
        "params": {
          "_amount": "token amount",
          "_tok": "address of the token"
        }
      }
    },
    "version": 1
  },
  "userdoc": {
    "kind": "user",
    "methods": {},
    "version": 1
  }
}