{
  "contractName": "JFeesCollector",
  "abi": [
    {
      "inputs": [],
      "stateMutability": "payable",
      "type": "constructor"
    },
    {
      "anonymous": false,
      "inputs": [
        {
          "indexed": false,
          "internalType": "address",
          "name": "sender",
          "type": "address"
        },
        {
          "indexed": false,
          "internalType": "uint256",
          "name": "amount",
          "type": "uint256"
        },
        {
          "indexed": false,
          "internalType": "uint256",
          "name": "blockNumber",
          "type": "uint256"
        }
      ],
      "name": "EthReceived",
      "type": "event"
    },
    {
      "anonymous": false,
      "inputs": [
        {
          "indexed": false,
          "internalType": "uint256",
          "name": "amount",
          "type": "uint256"
        },
        {
          "indexed": false,
          "internalType": "uint256",
          "name": "blockNumber",
          "type": "uint256"
        }
      ],
      "name": "EthWithdrawed",
      "type": "event"
    },
    {
      "anonymous": false,
      "inputs": [
        {
          "indexed": true,
          "internalType": "address",
          "name": "previousOwner",
          "type": "address"
        },
        {
          "indexed": true,
          "internalType": "address",
          "name": "newOwner",
          "type": "address"
        }
      ],
      "name": "OwnershipTransferred",
      "type": "event"
    },
    {
      "anonymous": false,
      "inputs": [
        {
          "indexed": false,
          "internalType": "address",
          "name": "token",
          "type": "address"
        },
        {
          "indexed": false,
          "internalType": "uint256",
          "name": "blockNumber",
          "type": "uint256"
        }
      ],
      "name": "TokenAdded",
      "type": "event"
    },
    {
      "anonymous": false,
      "inputs": [
        {
          "indexed": false,
          "internalType": "address",
          "name": "token",
          "type": "address"
        },
        {
          "indexed": false,
          "internalType": "uint256",
          "name": "blockNumber",
          "type": "uint256"
        }
      ],
      "name": "TokenRemoved",
      "type": "event"
    },
    {
      "anonymous": false,
      "inputs": [
        {
          "indexed": false,
          "internalType": "address",
          "name": "token",
          "type": "address"
        },
        {
          "indexed": false,
          "internalType": "uint256",
          "name": "amount",
          "type": "uint256"
        },
        {
          "indexed": false,
          "internalType": "uint256",
          "name": "blockNumber",
          "type": "uint256"
        }
      ],
      "name": "TokenWithdrawed",
      "type": "event"
    },
    {
      "inputs": [],
      "name": "owner",
      "outputs": [
        {
          "internalType": "address",
          "name": "",
          "type": "address"
        }
      ],
      "stateMutability": "view",
      "type": "function"
    },
    {
      "inputs": [],
      "name": "renounceOwnership",
      "outputs": [],
      "stateMutability": "nonpayable",
      "type": "function"
    },
    {
      "inputs": [
        {
          "internalType": "address",
          "name": "",
          "type": "address"
        }
      ],
      "name": "tokensAllowed",
      "outputs": [
        {
          "internalType": "bool",
          "name": "",
          "type": "bool"
        }
      ],
      "stateMutability": "view",
      "type": "function"
    },
    {
      "inputs": [
        {
          "internalType": "address",
          "name": "newOwner",
          "type": "address"
        }
      ],
      "name": "transferOwnership",
      "outputs": [],
      "stateMutability": "nonpayable",
      "type": "function"
    },
    {
      "stateMutability": "payable",
      "type": "receive"
    },
    {
      "inputs": [],
      "name": "getEthBalance",
      "outputs": [
        {
          "internalType": "uint256",
          "name": "",
          "type": "uint256"
        }
      ],
      "stateMutability": "view",
      "type": "function"
    },
    {
      "inputs": [
        {
          "internalType": "uint256",
          "name": "_amount",
          "type": "uint256"
        }
      ],
      "name": "ethWithdraw",
      "outputs": [],
      "stateMutability": "nonpayable",
      "type": "function"
    },
    {
      "inputs": [
        {
          "internalType": "address",
          "name": "_tok",
          "type": "address"
        }
      ],
      "name": "allowToken",
      "outputs": [],
      "stateMutability": "nonpayable",
      "type": "function"
    },
    {
      "inputs": [
        {
          "internalType": "address",
          "name": "_tok",
          "type": "address"
        }
      ],
      "name": "disallowToken",
      "outputs": [],
      "stateMutability": "nonpayable",
      "type": "function"
    },
    {
      "inputs": [
        {
          "internalType": "address",
          "name": "_tok",
          "type": "address"
        }
      ],
      "name": "getTokenBalance",
      "outputs": [
        {
          "internalType": "uint256",
          "name": "",
          "type": "uint256"
        }
      ],
      "stateMutability": "view",
      "type": "function"
    },
    {
      "inputs": [
        {
          "internalType": "address",
          "name": "_tok",
          "type": "address"
        }
      ],
      "name": "isTokenAllowed",
      "outputs": [
        {
          "internalType": "bool",
          "name": "",
          "type": "bool"
        }
      ],
      "stateMutability": "view",
      "type": "function"
    },
    {
      "inputs": [
        {
          "internalType": "address",
          "name": "_tok",
          "type": "address"
        },
        {
          "internalType": "uint256",
          "name": "_amount",
          "type": "uint256"
        }
      ],
      "name": "withdrawTokens",
      "outputs": [],
      "stateMutability": "nonpayable",
      "type": "function"
    }
  ],
  "bytecode": "0x608060405260006100176001600160e01b0361006a16565b600080546001600160a01b0319166001600160a01b0383169081178255604051929350917f8be0079c531659141344cd1fd0a4f28419497f9722a3daafe3b4186f6b6457e0908290a3506001805561006e565b3390565b610d058061007d6000396000f3fe6080604052600436106100a05760003560e01c80638da5cb5b116100645780638da5cb5b146101be578063b53472ef146101ef578063e79767af14610222578063eeda452b14610255578063f2fde38b1461029c578063f9eaee0d146102cf576100e5565b806306b091f9146100ea57806335ec1a75146101255780633aecd0e31461014f57806370ed0ada14610194578063715018a6146101a9576100e5565b366100e55760408051338152346020820152438183015290517f217c08711b46e0b51f406ee1bf927ab14a2816c116bbac3bfba8ae8cee825b499181900360600190a1005b600080fd5b3480156100f657600080fd5b506101236004803603604081101561010d57600080fd5b506001600160a01b038135169060200135610302565b005b34801561013157600080fd5b506101236004803603602081101561014857600080fd5b5035610460565b34801561015b57600080fd5b506101826004803603602081101561017257600080fd5b50356001600160a01b03166105b5565b60408051918252519081900360200190f35b3480156101a057600080fd5b50610182610631565b3480156101b557600080fd5b50610123610635565b3480156101ca57600080fd5b506101d36106d7565b604080516001600160a01b039092168252519081900360200190f35b3480156101fb57600080fd5b506101236004803603602081101561021257600080fd5b50356001600160a01b03166106e6565b34801561022e57600080fd5b506101236004803603602081101561024557600080fd5b50356001600160a01b03166107f1565b34801561026157600080fd5b506102886004803603602081101561027857600080fd5b50356001600160a01b03166108f4565b604080519115158252519081900360200190f35b3480156102a857600080fd5b50610123600480360360208110156102bf57600080fd5b50356001600160a01b0316610909565b3480156102db57600080fd5b50610288600480360360208110156102f257600080fd5b50356001600160a01b0316610a01565b6002600154141561035a576040805162461bcd60e51b815260206004820152601f60248201527f5265656e7472616e637947756172643a207265656e7472616e742063616c6c00604482015290519081900360640190fd5b6002600155610367610a1f565b6000546001600160a01b039081169116146103b7576040805162461bcd60e51b81526020600482018190526024820152600080516020610cb0833981519152604482015290519081900360640190fd5b6103c082610a01565b610405576040805162461bcd60e51b8152602060048201526011602482015270151bdad95b881b9bdd08185b1b1bddd959607a1b604482015290519081900360640190fd5b610410823383610a23565b604080516001600160a01b038416815260208101839052438183015290517f9197dff006c93a9d847b21ecf1c111e402b0580814bf61b996e081e7a70dce469181900360600190a1505060018055565b600260015414156104b8576040805162461bcd60e51b815260206004820152601f60248201527f5265656e7472616e637947756172643a207265656e7472616e742063616c6c00604482015290519081900360640190fd5b60026001556104c5610a1f565b6000546001600160a01b03908116911614610515576040805162461bcd60e51b81526020600482018190526024820152600080516020610cb0833981519152604482015290519081900360640190fd5b4781111561056a576040805162461bcd60e51b815260206004820152601b60248201527f4e6f7420656e6f75676820636f6e74726163742062616c616e63650000000000604482015290519081900360640190fd5b6105743382610b82565b6040805182815243602082015281517f9c280eaa17057b09460ee2bb8e5337caa85523b1982b92a09d5d0a4252ff7a7c929181900390910190a15060018055565b604080516370a0823160e01b815230600482015290516000916001600160a01b038416916370a0823191602480820192602092909190829003018186803b1580156105ff57600080fd5b505afa158015610613573d6000803e3d6000fd5b505050506040513d602081101561062957600080fd5b505192915050565b4790565b61063d610a1f565b6000546001600160a01b0390811691161461068d576040805162461bcd60e51b81526020600482018190526024820152600080516020610cb0833981519152604482015290519081900360640190fd5b600080546040516001600160a01b03909116907f8be0079c531659141344cd1fd0a4f28419497f9722a3daafe3b4186f6b6457e0908390a3600080546001600160a01b0319169055565b6000546001600160a01b031690565b6106ee610a1f565b6000546001600160a01b0390811691161461073e576040805162461bcd60e51b81526020600482018190526024820152600080516020610cb0833981519152604482015290519081900360640190fd5b61074781610a01565b15610791576040805162461bcd60e51b8152602060048201526015602482015274151bdad95b88185b1c9958591e48185b1b1bddd959605a1b604482015290519081900360640190fd5b6001600160a01b038116600081815260026020908152604091829020805460ff191660011790558151928352439083015280517ff4c563a3ea86ff1f4275e8c207df0375a51963f2b831b7bf4da8be938d92876c9281900390910190a150565b6107f9610a1f565b6000546001600160a01b03908116911614610849576040805162461bcd60e51b81526020600482018190526024820152600080516020610cb0833981519152604482015290519081900360640190fd5b61085281610a01565b610897576040805162461bcd60e51b8152602060048201526011602482015270151bdad95b881b9bdd08185b1b1bddd959607a1b604482015290519081900360640190fd5b6001600160a01b038116600081815260026020908152604091829020805460ff191690558151928352439083015280517fbe9bb4bdca0a094babd75e3a98b1d2e2390633430d0a2f6e2b9970e2ee03fb2e9281900390910190a150565b60026020526000908152604090205460ff1681565b610911610a1f565b6000546001600160a01b03908116911614610961576040805162461bcd60e51b81526020600482018190526024820152600080516020610cb0833981519152604482015290519081900360640190fd5b6001600160a01b0381166109a65760405162461bcd60e51b8152600401808060200182810382526026815260200180610c8a6026913960400191505060405180910390fd5b600080546040516001600160a01b03808516939216917f8be0079c531659141344cd1fd0a4f28419497f9722a3daafe3b4186f6b6457e091a3600080546001600160a01b0319166001600160a01b0392909216919091179055565b6001600160a01b031660009081526002602052604090205460ff1690565b3390565b604080516001600160a01b038481166024830152604480830185905283518084039091018152606490920183526020820180516001600160e01b031663a9059cbb60e01b178152925182516000946060949389169392918291908083835b60208310610aa05780518252601f199092019160209182019101610a81565b6001836020036101000a0380198251168184511680821785525050505050509050019150506000604051808303816000865af19150503d8060008114610b02576040519150601f19603f3d011682016040523d82523d6000602084013e610b07565b606091505b5091509150818015610b35575080511580610b355750808060200190516020811015610b3257600080fd5b50515b610b7b576040805162461bcd60e51b81526020600482015260126024820152711512081514905394d1915497d1905253115160721b604482015290519081900360640190fd5b5050505050565b604080516000808252602082019092526001600160a01b0384169083906040518082805190602001908083835b60208310610bce5780518252601f199092019160209182019101610baf565b6001836020036101000a03801982511681845116808217855250505050505090500191505060006040518083038185875af1925050503d8060008114610c30576040519150601f19603f3d011682016040523d82523d6000602084013e610c35565b606091505b5050905080610c84576040805162461bcd60e51b815260206004820152601660248201527515120811551217d514905394d1915497d1905253115160521b604482015290519081900360640190fd5b50505056fe4f776e61626c653a206e6577206f776e657220697320746865207a65726f20616464726573734f776e61626c653a2063616c6c6572206973206e6f7420746865206f776e6572a2646970667358221220cf2893f03f662acc2506b436c5ed4d6ac7182d2c62d7f705ebbd6e652b510afd64736f6c634300060b0033",
  "immutableReferences": {},
  "source": "// SPDX-License-Identifier: MIT\npragma solidity 0.6.11;\n\nimport \"@openzeppelin/contracts/math/SafeMath.sol\";\nimport \"@openzeppelin/contracts/access/Ownable.sol\";\n//import \"./Ownable.sol\";\nimport \"@openzeppelin/contracts/token/ERC20/IERC20.sol\";\nimport \"@openzeppelin/contracts/utils/ReentrancyGuard.sol\";\nimport \"./TransferHelper.sol\";\n\n\ncontract JFeesCollector is Ownable, ReentrancyGuard {\n    using SafeMath for uint;\n\n    mapping(address => bool) public tokensAllowed;\n    \n    event EthReceived(address sender, uint amount, uint blockNumber);\n    event EthWithdrawed(uint amount, uint blockNumber);\n    event TokenAdded(address token, uint blockNumber);\n    event TokenRemoved(address token, uint blockNumber);\n    event TokenWithdrawed(address token, uint amount, uint blockNumber);\n\n    constructor() payable public { }\n    \n    function getEthBalance() external view returns (uint) {\n        return address(this).balance;\n    }\n    \n    receive() external payable {\n        emit EthReceived(msg.sender, msg.value, block.number);\n    }\n\n    /**\n    * @dev withdraw eth amount\n    * @param _amount amount of withdrawed eth\n    */\n    function ethWithdraw(uint _amount) external nonReentrant onlyOwner {\n        require(_amount <= address(this).balance, \"Not enough contract balance\");\n        TransferHelper.safeTransferETH(msg.sender, _amount);\n        emit EthWithdrawed(_amount, block.number);\n    }\n\n    /**\n    * @dev add allowed token address\n    * @param _tok address of the token to add\n    */\n    function allowToken(address _tok) external onlyOwner {\n        require(!isTokenAllowed(_tok), \"Token already allowed\");\n        tokensAllowed[_tok] = true;\n        emit TokenAdded(_tok, block.number);\n    }\n\n    /**\n    * @dev remove allowed token address\n    * @param _tok address of the token to add\n    */\n    function disallowToken(address _tok) external onlyOwner {\n        require(isTokenAllowed(_tok), \"Token not allowed\");\n        tokensAllowed[_tok] = false;\n        emit TokenRemoved(_tok, block.number);\n    }\n\n    /**\n    * @dev get contract token balance\n    * @param _tok address of the token\n    */\n    function getTokenBalance(address _tok) external view returns (uint) {\n        return IERC20(_tok).balanceOf(address(this));\n    }\n\n    /**\n    * @dev check if a token is already allowed\n    * @param _tok address of the token\n    */\n    function isTokenAllowed(address _tok) public view returns (bool) {\n        return tokensAllowed[_tok];\n    }\n\n    /**\n    * @dev withdraw tokens from the contract, checking if a token is already allowed\n    * @param _tok address of the token\n    * @param _amount token amount\n    */\n    function withdrawTokens(address _tok, uint _amount) external nonReentrant onlyOwner {\n        require(isTokenAllowed(_tok), \"Token not allowed\");\n        TransferHelper.safeTransfer(_tok, msg.sender, _amount);\n        emit TokenWithdrawed(_tok, _amount, block.number);\n    }\n}\n",
  "sourcePath": "C:/Users/saurabh/code/Jibrel/defi-smartcontracts/LoansFactoryV2/contracts/JFeesCollector.sol",
  "compiler": {
    "name": "solc",
    "version": "0.6.11+commit.5ef660b1.Emscripten.clang"
  },
  "schemaVersion": "3.3.1",
  "updatedAt": "2020-10-22T13:11:22.082Z",
  "devdoc": {
    "kind": "dev",
    "methods": {
      "allowToken(address)": {
        "details": "add allowed token address",
        "params": {
          "_tok": "address of the token to add"
        }
      },
      "disallowToken(address)": {
        "details": "remove allowed token address",
        "params": {
          "_tok": "address of the token to add"
        }
      },
      "ethWithdraw(uint256)": {
        "details": "withdraw eth amount",
        "params": {
          "_amount": "amount of withdrawed eth"
        }
      },
      "getTokenBalance(address)": {
        "details": "get contract token balance",
        "params": {
          "_tok": "address of the token"
        }
      },
      "isTokenAllowed(address)": {
        "details": "check if a token is already allowed",
        "params": {
          "_tok": "address of the token"
        }
      },
      "owner()": {
        "details": "Returns the address of the current owner."
      },
      "renounceOwnership()": {
        "details": "Leaves the contract without owner. It will not be possible to call `onlyOwner` functions anymore. Can only be called by the current owner. NOTE: Renouncing ownership will leave the contract without an owner, thereby removing any functionality that is only available to the owner."
      },
      "transferOwnership(address)": {
        "details": "Transfers ownership of the contract to a new account (`newOwner`). Can only be called by the current owner."
      },
      "withdrawTokens(address,uint256)": {
        "details": "withdraw tokens from the contract, checking if a token is already allowed",
        "params": {
          "_amount": "token amount",
          "_tok": "address of the token"
        }
      }
    },
    "version": 1
  },
  "userdoc": {
    "kind": "user",
    "methods": {},
    "version": 1
  }
}