{
  "contractName": "JLoanEthDeployer",
  "abi": [
    {
      "inputs": [],
      "stateMutability": "nonpayable",
      "type": "constructor"
    },
    {
      "anonymous": false,
      "inputs": [
        {
          "indexed": true,
          "internalType": "address",
          "name": "previousOwner",
          "type": "address"
        },
        {
          "indexed": true,
          "internalType": "address",
          "name": "newOwner",
          "type": "address"
        }
      ],
      "name": "OwnershipTransferred",
      "type": "event"
    },
    {
      "anonymous": false,
      "inputs": [
        {
          "indexed": false,
          "internalType": "uint256",
          "name": "idx",
          "type": "uint256"
        },
        {
          "indexed": false,
          "internalType": "uint256",
          "name": "oldStatus",
          "type": "uint256"
        },
        {
          "indexed": false,
          "internalType": "uint256",
          "name": "newStatus",
          "type": "uint256"
        }
      ],
      "name": "SetNewStatus",
      "type": "event"
    },
    {
      "inputs": [],
      "name": "borrowerLength",
      "outputs": [
        {
          "internalType": "uint256",
          "name": "",
          "type": "uint256"
        }
      ],
      "stateMutability": "view",
      "type": "function",
      "constant": true
    },
    {
      "inputs": [
        {
          "internalType": "uint256",
          "name": "",
          "type": "uint256"
        }
      ],
      "name": "borrowerList",
      "outputs": [
        {
          "internalType": "address",
          "name": "",
          "type": "address"
        }
      ],
      "stateMutability": "view",
      "type": "function",
      "constant": true
    },
    {
      "inputs": [
        {
          "internalType": "address",
          "name": "",
          "type": "address"
        }
      ],
      "name": "borrowers",
      "outputs": [
        {
          "internalType": "bool",
          "name": "",
          "type": "bool"
        }
      ],
      "stateMutability": "view",
      "type": "function",
      "constant": true
    },
    {
      "inputs": [],
      "name": "loanParams",
      "outputs": [
        {
          "internalType": "uint256",
          "name": "minRpbRate",
          "type": "uint256"
        },
        {
          "internalType": "uint256",
          "name": "earlySettlementWindow",
          "type": "uint256"
        },
        {
          "internalType": "uint256",
          "name": "foreclosureWindow",
          "type": "uint256"
        },
        {
          "internalType": "uint8",
          "name": "requiredCollateralRatio",
          "type": "uint8"
        },
        {
          "internalType": "uint8",
          "name": "foreclosingRatio",
          "type": "uint8"
        },
        {
          "internalType": "uint8",
          "name": "instantForeclosureRatio",
          "type": "uint8"
        },
        {
          "internalType": "uint8",
          "name": "limitCollRatioForWithdraw",
          "type": "uint8"
        },
        {
          "internalType": "address",
          "name": "factoryAddress",
          "type": "address"
        },
        {
          "internalType": "address",
          "name": "ethDeployerAddress",
          "type": "address"
        },
        {
          "internalType": "address",
          "name": "tokenDeployerAddress",
          "type": "address"
        }
      ],
      "stateMutability": "view",
      "type": "function",
      "constant": true
    },
    {
      "inputs": [],
      "name": "owner",
      "outputs": [
        {
          "internalType": "address",
          "name": "",
          "type": "address"
        }
      ],
      "stateMutability": "view",
      "type": "function",
      "constant": true
    },
    {
      "inputs": [],
      "name": "renounceOwnership",
      "outputs": [],
      "stateMutability": "nonpayable",
      "type": "function"
    },
    {
      "inputs": [
        {
          "internalType": "address",
          "name": "newOwner",
          "type": "address"
        }
      ],
      "name": "transferOwnership",
      "outputs": [],
      "stateMutability": "nonpayable",
      "type": "function"
    },
    {
      "inputs": [
        {
          "internalType": "address",
          "name": "_factAddr",
          "type": "address"
        }
      ],
      "name": "setLoanFactory",
      "outputs": [],
      "stateMutability": "nonpayable",
      "type": "function"
    },
    {
      "inputs": [
        {
          "internalType": "uint256",
          "name": "_newValue",
          "type": "uint256"
        }
      ],
      "name": "setEthLoansCounter",
      "outputs": [],
      "stateMutability": "nonpayable",
      "type": "function"
    },
    {
      "inputs": [],
      "name": "getDeployedEthLoansCounter",
      "outputs": [
        {
          "internalType": "uint256",
          "name": "",
          "type": "uint256"
        }
      ],
      "stateMutability": "view",
      "type": "function",
      "constant": true
    },
    {
      "inputs": [
        {
          "internalType": "uint256",
          "name": "idx",
          "type": "uint256"
        }
      ],
      "name": "getDeployedEthLoanAddress",
      "outputs": [
        {
          "internalType": "address",
          "name": "",
          "type": "address"
        }
      ],
      "stateMutability": "view",
      "type": "function",
      "constant": true
    },
    {
      "inputs": [
        {
          "internalType": "address",
          "name": "_loanAddr",
          "type": "address"
        }
      ],
      "name": "isEthLoanDeployed",
      "outputs": [
        {
          "internalType": "bool",
          "name": "",
          "type": "bool"
        }
      ],
      "stateMutability": "view",
      "type": "function",
      "constant": true
    },
    {
      "inputs": [
        {
          "internalType": "address",
          "name": "_sender",
          "type": "address"
        },
        {
          "internalType": "uint256",
          "name": "_id",
          "type": "uint256"
        },
        {
          "internalType": "uint256",
          "name": "_pairId",
          "type": "uint256"
        },
        {
          "internalType": "uint256",
          "name": "_borrowedAskAmount",
          "type": "uint256"
        },
        {
          "internalType": "uint256",
          "name": "_rpbRate",
          "type": "uint256"
        },
        {
          "internalType": "address",
          "name": "_factAddr",
          "type": "address"
        },
        {
          "internalType": "address",
          "name": "_lendToken",
          "type": "address"
        }
      ],
      "name": "deployNewEthLoanContract",
      "outputs": [
        {
          "internalType": "address",
          "name": "",
          "type": "address"
        }
      ],
      "stateMutability": "payable",
      "type": "function",
      "payable": true
    },
    {
      "inputs": [
        {
          "internalType": "uint256",
          "name": "_idx",
          "type": "uint256"
        }
      ],
      "name": "setEthLoanCommonParamsInContract",
      "outputs": [],
      "stateMutability": "nonpayable",
      "type": "function"
    },
    {
      "inputs": [
        {
          "internalType": "uint256",
          "name": "_idx",
          "type": "uint256"
        }
      ],
      "name": "setEthLoanFeesParamsInContract",
      "outputs": [],
      "stateMutability": "nonpayable",
      "type": "function"
    },
    {
      "inputs": [
        {
          "internalType": "uint256",
          "name": "_idx",
          "type": "uint256"
        },
        {
          "internalType": "uint256",
          "name": "_newStatus",
          "type": "uint256"
        }
      ],
      "name": "setEthStatusInEthContract",
      "outputs": [],
      "stateMutability": "nonpayable",
      "type": "function"
    },
    {
      "inputs": [
        {
          "internalType": "address",
          "name": "_borr",
          "type": "address"
        }
      ],
      "name": "isBorrower",
      "outputs": [
        {
          "internalType": "bool",
          "name": "",
          "type": "bool"
        }
      ],
      "stateMutability": "view",
      "type": "function",
      "constant": true
    },
    {
      "inputs": [
        {
          "internalType": "address payable",
          "name": "_feeColl",
          "type": "address"
        }
      ],
      "name": "setFeesCollector",
      "outputs": [],
      "stateMutability": "nonpayable",
      "type": "function"
    },
    {
      "inputs": [],
      "name": "getFeesCollector",
      "outputs": [
        {
          "internalType": "address payable",
          "name": "",
          "type": "address"
        }
      ],
      "stateMutability": "view",
      "type": "function",
      "constant": true
    },
    {
      "inputs": [
        {
          "internalType": "address",
          "name": "_sender",
          "type": "address"
        },
        {
          "internalType": "address",
          "name": "_tokenAddr",
          "type": "address"
        },
        {
          "internalType": "address",
          "name": "_loanContract",
          "type": "address"
        },
        {
          "internalType": "uint256",
          "name": "_borrowedAskAmount",
          "type": "uint256"
        }
      ],
      "name": "checkAllowance",
      "outputs": [
        {
          "internalType": "bool",
          "name": "",
          "type": "bool"
        }
      ],
      "stateMutability": "view",
      "type": "function",
      "constant": true
    }
  ],
  "bytecode": "0x608060405234801561001057600080fd5b5060006100246001600160e01b0361007316565b600080546001600160a01b0319166001600160a01b0383169081178255604051929350917f8be0079c531659141344cd1fd0a4f28419497f9722a3daafe3b4186f6b6457e0908290a350610077565b3390565b6148e3806100866000396000f3fe6080604052600436106200013a5760003560e01c80638da5cb5b11620000af578063bd0d151f116200006d578063bd0d151f146200036c578063bf5d50c41462000391578063eaf6e48314620003b6578063f2fde38b14620003db578063fefd3d011462000400576200013a565b80638da5cb5b14620002da578063a103b3ae14620002f2578063b3a66524146200030a578063ba751182146200032f578063bca4698c1462000354576200013a565b80635dad8a5c11620000fd5780635dad8a5c14620002105780636cb8579b1462000244578063715018a6146200026957806386a3199814620002815780638a0f00bd14620002a6576200013a565b806309e94d98146200013f5780631c0d26d3146200017857806328964fef146200019f578063373071f214620001c65780633fd7098614620001eb575b600080fd5b3480156200014c57600080fd5b506200015762000417565b6040516200016f9a999897969594939291906200107f565b60405180910390f35b3480156200018557600080fd5b506200019d6200019736600462000e70565b62000467565b005b348015620001ac57600080fd5b50620001b76200069e565b6040516200016f919062001060565b348015620001d357600080fd5b506200019d620001e536600462000d50565b620006a4565b348015620001f857600080fd5b506200019d6200020a36600462000e3e565b62000700565b3480156200021d57600080fd5b50620002356200022f36600462000e3e565b620007a3565b6040516200016f919062000e92565b3480156200025157600080fd5b506200019d6200026336600462000e3e565b620007be565b3480156200027657600080fd5b506200019d62000845565b3480156200028e57600080fd5b506200019d620002a036600462000d50565b620008c9565b348015620002b357600080fd5b50620002cb620002c536600462000d50565b62000931565b6040516200016f919062000f0a565b348015620002e757600080fd5b50620002356200094f565b348015620002ff57600080fd5b50620001b76200095e565b3480156200031757600080fd5b50620002356200032936600462000e3e565b62000964565b3480156200033c57600080fd5b506200019d6200034e36600462000e3e565b6200098c565b3480156200036157600080fd5b5062000235620009cb565b3480156200037957600080fd5b50620002cb6200038b36600462000d6f565b620009da565b3480156200039e57600080fd5b50620002cb620003b036600462000d50565b62000a8a565b348015620003c357600080fd5b50620002cb620003d536600462000d50565b62000a9f565b348015620003e857600080fd5b506200019d620003fa36600462000d50565b62000abd565b620002356200041136600462000dc6565b62000b7b565b600854600954600a54600b54600c54600d5460ff80841693610100810482169362010000820483169363010000008304909316926001600160a01b0364010000000090930483169291821691168a565b6200047162000d0f565b6000546001600160a01b03908116911614620004aa5760405162461bcd60e51b8152600401620004a19062001007565b60405180910390fd5b6007811115620004ce5760405162461bcd60e51b8152600401620004a19062000fb4565b600082815260036020908152604080832054815163acc1ab1360e01b815291516001600160a01b039091169392849263acc1ab139260048083019392829003018186803b1580156200051f57600080fd5b505afa15801562000534573d6000803e3d6000fd5b505050506040513d601f19601f820116820180604052508101906200055a919062000e57565b9050808314156200057f5760405162461bcd60e51b8152600401620004a1906200103c565b604051633840cb5760e11b81526001600160a01b0383169063708196ae90620005ad90869060040162001060565b600060405180830381600087803b158015620005c857600080fd5b505af1158015620005dd573d6000803e3d6000fd5b505050506000826001600160a01b031663acc1ab136040518163ffffffff1660e01b815260040160206040518083038186803b1580156200061d57600080fd5b505afa15801562000632573d6000803e3d6000fd5b505050506040513d601f19601f8201168201806040525081019062000658919062000e57565b90507ff3fc2195268d1fa656d8e1bfd4601a9921ba9fdfccce82ef96ed57a2e13ce4888583836040516200068f9392919062001069565b60405180910390a15050505050565b60055481565b620006ae62000d0f565b6000546001600160a01b03908116911614620006de5760405162461bcd60e51b8152600401620004a19062001007565b600280546001600160a01b0319166001600160a01b0392909216919091179055565b6200070a62000d0f565b6000546001600160a01b039081169116146200073a5760405162461bcd60e51b8152600401620004a19062001007565b60008181526003602052604080822054815163918c3dbd60e01b815291516001600160a01b039091169263918c3dbd926004808201939182900301818387803b1580156200078757600080fd5b505af11580156200079c573d6000803e3d6000fd5b5050505050565b6000908152600360205260409020546001600160a01b031690565b620007c862000d0f565b6000546001600160a01b03908116911614620007f85760405162461bcd60e51b8152600401620004a19062001007565b60008181526003602052604080822054815163150f9e6d60e11b815291516001600160a01b0390911692632a1f3cda926004808201939182900301818387803b1580156200078757600080fd5b6200084f62000d0f565b6000546001600160a01b039081169116146200087f5760405162461bcd60e51b8152600401620004a19062001007565b600080546040516001600160a01b03909116907f8be0079c531659141344cd1fd0a4f28419497f9722a3daafe3b4186f6b6457e0908390a3600080546001600160a01b0319169055565b620008d362000d0f565b6000546001600160a01b03908116911614620009035760405162461bcd60e51b8152600401620004a19062001007565b600b80546001600160a01b0390921664010000000002640100000000600160c01b0319909216919091179055565b6001600160a01b031660009081526004602052604090205460ff1690565b6000546001600160a01b031690565b60015490565b600681815481106200097257fe5b6000918252602090912001546001600160a01b0316905081565b6200099662000d0f565b6000546001600160a01b03908116911614620009c65760405162461bcd60e51b8152600401620004a19062001007565b600155565b6002546001600160a01b031690565b604051636eb1769f60e11b8152600090829082906001600160a01b0387169063dd62ed3e9062000a11908a90899060040162000ea6565b60206040518083038186803b15801562000a2a57600080fd5b505afa15801562000a3f573d6000803e3d6000fd5b505050506040513d601f19601f8201168201806040525081019062000a65919062000e57565b905081811062000a7b5760019250505062000a82565b6000925050505b949350505050565b60076020526000908152604090205460ff1681565b6001600160a01b031660009081526007602052604090205460ff1690565b62000ac762000d0f565b6000546001600160a01b0390811691161462000af75760405162461bcd60e51b8152600401620004a19062001007565b6001600160a01b03811662000b205760405162461bcd60e51b8152600401620004a19062000f15565b600080546040516001600160a01b03808516939216917f8be0079c531659141344cd1fd0a4f28419497f9722a3daafe3b4186f6b6457e091a3600080546001600160a01b0319166001600160a01b0392909216919091179055565b600b5460009064010000000090046001600160a01b0316331462000bb35760405162461bcd60e51b8152600401620004a19062000f92565b6001600160a01b03881662000bdc5760405162461bcd60e51b8152600401620004a19062000fd7565b6001600160a01b03808916600081815260076020526040808220805460ff191660019081179091556006805491820181558084527ff652222313e28459528d920b65115c16c04f3efc82aaedc97be59f3f377c0d3f90910180546001600160a01b03191690941790935591546005556002549151909234928c928c928c928c928c928c928c9291169062000c709062000d42565b62000c8398979695949392919062000ec0565b6040518091039082f090508015801562000ca1573d6000803e3d6000fd5b506001600160a01b0381166000818152600460209081526040808320805460ff1916600190811790915580548452600390925290912080546001600160a01b031916909217909155805491925062000d00919063ffffffff62000d1316565b60015598975050505050505050565b3390565b60008282018381101562000d3b5760405162461bcd60e51b8152600401620004a19062000f5b565b9392505050565b6137b980620010f583390190565b60006020828403121562000d62578081fd5b813562000d3b81620010db565b6000806000806080858703121562000d85578283fd5b843562000d9281620010db565b9350602085013562000da481620010db565b9250604085013562000db681620010db565b9396929550929360600135925050565b600080600080600080600060e0888a03121562000de1578283fd5b873562000dee81620010db565b96506020880135955060408801359450606088013593506080880135925060a088013562000e1c81620010db565b915060c088013562000e2e81620010db565b8091505092959891949750929550565b60006020828403121562000e50578081fd5b5035919050565b60006020828403121562000e69578081fd5b5051919050565b6000806040838503121562000e83578182fd5b50508035926020909101359150565b6001600160a01b0391909116815260200190565b6001600160a01b0392831681529116602082015260400190565b6001600160a01b0398891681526020810197909752604087019590955260608601939093526080850191909152841660a0840152831660c083015290911660e08201526101000190565b901515815260200190565b60208082526026908201527f4f776e61626c653a206e6577206f776e657220697320746865207a65726f206160408201526564647265737360d01b606082015260800190565b6020808252601b908201527f536166654d6174683a206164646974696f6e206f766572666c6f770000000000604082015260600190565b60208082526008908201526721666163746f727960c01b604082015260600190565b60208082526009908201526821537461747573303760b81b604082015260600190565b60208082526016908201527553656e6465722041646472657373206973207a65726f60501b604082015260600190565b6020808252818101527f4f776e61626c653a2063616c6c6572206973206e6f7420746865206f776e6572604082015260600190565b6020808252600a9082015269216e657753746174757360b01b604082015260600190565b90815260200190565b9283526020830191909152604082015260600190565b998a5260208a0198909852604089019690965260ff9485166060890152928416608088015290831660a087015290911660c08501526001600160a01b0390811660e0850152908116610100840152166101208201526101400190565b6001600160a01b0381168114620010f157600080fd5b5056fe6080604052604051620037b9380380620037b9833981016040819052620000269162000509565b6001600081905580546001600160a01b031916331790556001600160a01b0388166200006f5760405162461bcd60e51b8152600401620000669062000796565b60405180910390fd5b87600360006101000a8154816001600160a01b0302191690836001600160a01b03160217905550826001600160a01b0316634fd758796040518163ffffffff1660e01b81526004016101406040518083038186803b158015620000d157600080fd5b505afa158015620000e6573d6000803e3d6000fd5b505050506040513d601f19601f820116820180604052508101906200010c91906200063e565b80516005556020810151600655604080820151600755606082015160088054608085015160a086015160c087015160e08089015160ff1990951660ff9788161761ff00191661010094881685021762ff0000191662010000938816939093029290921763ff00000019166301000000969091169590950294909417600160201b600160c01b0319166401000000006001600160a01b03938416021790925590840151600980546001600160a01b031990811692841692909217905561012090940151600a8054909516908216179093558151631a55d9e960e01b8152915192861692631a55d9e9926004808201939291829003018186803b1580156200021157600080fd5b505afa15801562000226573d6000803e3d6000fd5b505050506040513d601f19601f820116820180604052508101906200024c91906200059a565b80516013556020810151601480546040808501516060860151608087015160a088015160c09098015160ff1990951660ff9788161761ff001916610100938816939093029290921762ff0000191662010000918716919091021763ff0000001916630100000095909116949094029390931761ffff60201b191664010000000061ffff958616021761ffff60301b19166601000000000000949091169390930292909217909155516310f15c6760e21b81526000906001600160a01b038516906343c5719c9062000324908a908a90600401620007cb565b60206040518083038186803b1580156200033d57600080fd5b505afa15801562000352573d6000803e3d6000fd5b505050506040513d601f19601f8201168201806040525081019062000378919062000711565b9050803410156200039d5760405162461bcd60e51b815260040162000066906200074f565b600280546001600160a01b0319166001600160a01b038416179055600554851015620003dd5760405162461bcd60e51b8152600401620000669062000773565b600b889055600c859055600f879055600480546001600160a01b038086166001600160a01b031990921691909117825560108890556011805460ff19166012179055604051633e17bdcb60e11b815290861691637c2f7b969162000444918b9101620007c2565b60206040518083038186803b1580156200045d57600080fd5b505afa15801562000472573d6000803e3d6000fd5b505050506040513d601f19601f820116820180604052508101906200049891906200072a565b6011805460ff929092166101000261ff0019909216919091179055505043600e5550506012805460ff1916905550620008299350505050565b8051620004de8162000800565b92915050565b805161ffff81168114620004de57600080fd5b805160ff81168114620004de57600080fd5b600080600080600080600080610100898b03121562000526578384fd5b8851620005338162000800565b809850506020890151965060408901519550606089015194506080890151935060a0890151620005638162000800565b60c08a0151909350620005768162000800565b60e08a0151909250620005898162000800565b809150509295985092959890939650565b600060e08284031215620005ac578081fd5b620005b860e0620007d9565b825181526020830151620005cc8162000819565b60208201526040830151620005e18162000819565b60408201526060830151620005f68162000819565b60608201526200060a8460808501620004f7565b60808201526200061e8460a08501620004e4565b60a0820152620006328460c08501620004e4565b60c08201529392505050565b600061014080838503121562000652578182fd5b6200065d81620007d9565b835181526020840151602082015260408401516040820152620006848560608601620004f7565b6060820152620006988560808601620004f7565b6080820152620006ac8560a08601620004f7565b60a0820152620006c08560c08601620004f7565b60c0820152620006d48560e08601620004d1565b60e08201526101009150620006ec85838601620004d1565b8282015261012091506200070385838601620004d1565b918101919091529392505050565b60006020828403121562000723578081fd5b5051919050565b6000602082840312156200073c578081fd5b620007488383620004f7565b9392505050565b6020808252600a90820152690428adcdeeaced08ae8d60b31b604082015260600190565b602080825260099082015268525042546f6f4c6f7760b81b604082015260600190565b6020808252601290820152715f73656e6465725a65726f4164647265737360701b604082015260600190565b90815260200190565b918252602082015260400190565b6040518181016001600160401b0381118282101715620007f857600080fd5b604052919050565b6001600160a01b03811681146200081657600080fd5b50565b60ff811681146200081657600080fd5b612f8080620008396000396000f3fe60806040526004361061026b5760003560e01c80637ba61ea511610144578063b89a73cb116100b6578063d51389481161007a578063d51389481461070a578063e1c7111a14610733578063e936e44a14610748578063e9f33c5f1461075d578063ec98362e1461077d578063ff0d69a61461079257610302565b8063b89a73cb14610696578063c0b27cc5146106b6578063c2b0bf58146106cb578063c55d2a47146106e0578063d20fbeb6146106f557610302565b806395dcc2551161010857806395dcc255146105e85780639cf160f614610608578063a41969e51461061d578063ab377daa1461063d578063acc1ab131461066c578063b2ca18051461068157610302565b80637ba61ea51461057f57806382f0c81c1461059457806385b41696146105a95780638b8141e1146105be578063918c3dbd146105d357610302565b806342ac3379116101dd57806363ce2287116101a157806363ce2287146104eb5780636dd167f81461050b5780636f9fb98a1461052057806372ef10311461053557806374014c4d1461054a5780637afb4b2f1461055f57610302565b806342ac33791461046157806347c865df146104765780635ced2a111461048b5780636112fe2e146104ab57806363aebb28146104cb57610302565b80631daeaaa91161022f5780631daeaaa9146103b6578063216c2490146103d857806328899423146104005780632a1f3cda1461041557806337f346631461042c5780633cf348c31461044c57610302565b806306bb531e14610307578063074ca966146103325780630896962c1461035457806309e94d981461037657806318ad714a146103a157610302565b3661030257600160125460ff16600981111561028357fe5b101580156102a25750600460125460ff16600981111561029f57fe5b11155b6102c75760405162461bcd60e51b81526004016102be90612b84565b60405180910390fd5b7f85177f287940f2f05425a4029951af0e047a7f9c4eaa9a6e6917bcd869f8669533346040516102f89291906128e2565b60405180910390a1005b600080fd5b34801561031357600080fd5b5061031c6107a7565b6040516103299190612d43565b60405180910390f35b34801561033e57600080fd5b5061034761088b565b604051610329919061294b565b34801561036057600080fd5b50610369610894565b60405161032991906128a4565b34801561038257600080fd5b5061038b6108a3565b6040516103299a99989796959493929190612e06565b3480156103ad57600080fd5b5061031c6108f2565b3480156103c257600080fd5b506103cb6109b6565b6040516103299190612940565b3480156103e457600080fd5b506103ed6109ed565b6040516103299796959493929190612e62565b34801561040c57600080fd5b506103cb610a2d565b34801561042157600080fd5b5061042a610bca565b005b34801561043857600080fd5b5061031c61044736600461283e565b610d4c565b34801561045857600080fd5b506103cb610de8565b34801561046d57600080fd5b5061031c610e03565b34801561048257600080fd5b5061031c610e8d565b34801561049757600080fd5b5061031c6104a636600461280e565b610e93565b3480156104b757600080fd5b5061042a6104c636600461280e565b610edf565b3480156104d757600080fd5b5061031c6104e6366004612654565b610fe4565b3480156104f757600080fd5b506103cb610506366004612654565b610ff6565b34801561051757600080fd5b5061031c61100b565b34801561052c57600080fd5b5061031c611011565b34801561054157600080fd5b5061042a611015565b34801561055657600080fd5b5061042a61103c565b34801561056b57600080fd5b5061031c61057a366004612670565b6111b3565b34801561058b57600080fd5b5061036961144e565b3480156105a057600080fd5b5061031c61145d565b3480156105b557600080fd5b5061031c611622565b3480156105ca57600080fd5b5061031c611628565b3480156105df57600080fd5b5061042a61162e565b3480156105f457600080fd5b5061042a610603366004612654565b611785565b34801561061457600080fd5b50610369611b26565b34801561062957600080fd5b5061031c61063836600461280e565b611b35565b34801561064957600080fd5b5061065d61065836600461280e565b611bc6565b6040516103299392919061291f565b34801561067857600080fd5b5061031c611bf1565b34801561068d57600080fd5b5061031c611c05565b3480156106a257600080fd5b506103cb6106b1366004612654565b611c0b565b3480156106c257600080fd5b5061031c611c29565b3480156106d757600080fd5b5061042a611c2f565b3480156106ec57600080fd5b5061031c611d58565b34801561070157600080fd5b5061031c611d5e565b34801561071657600080fd5b5061071f611e1d565b604051610329989796959493929190612dca565b34801561073f57600080fd5b50610369611e41565b34801561075457600080fd5b5061031c611e50565b34801561076957600080fd5b5061031c610778366004612654565b611ee2565b34801561078957600080fd5b5061042a611efd565b34801561079e57600080fd5b5061031c6121c1565b601254600090819060ff1660098111156107bd57fe5b1180156107db575060125460059060ff1660098111156107d957fe5b105b156108745760006107ea611d5e565b600854909150610100900460ff168110610815576012805460ff191660011790556000601a55610872565b600854610100900460ff16811180159061083a575060085462010000900460ff168110155b15610851576012805460ff19166002179055610872565b60085462010000900460ff16811015610872576012805460ff191660031790555b505b60125460ff16600981111561088557fe5b90505b90565b60125460ff1681565b6001546001600160a01b031681565b600554600654600754600854600954600a5460ff80841693610100810482169362010000820483169363010000008304909316926001600160a01b03600160201b90930483169291821691168a565b601254600090819060ff16600981111561090857fe5b118015610926575060125460089060ff16600981111561092457fe5b105b156109b057600654601554600091610944919063ffffffff6121c716565b9050600660125460ff16600981111561095957fe5b1480156109665750804311155b1561097b5761097481610e93565b915061099e565b60185415610992576109746104a6601854436121ec565b61099b43610e93565b91505b478211156109aa574791505b50610888565b50600090565b60065460155460009182916109d09163ffffffff6121c716565b90508043116109e3576001915050610888565b6000915050610888565b60135460145460ff808216916101008104821691620100008204811691630100000081049091169061ffff600160201b8204811691600160301b90041687565b600060026000541415610a525760405162461bcd60e51b81526004016102be90612d0c565b600260005560125460ff166009811115610a6857fe5b600414610a875760405162461bcd60e51b81526004016102be90612ba7565b601a5460009015801590610aaf5750600754601a54610aab9163ffffffff6121c716565b4310155b15610bc057600c54601454600091610ad291600160301b900461ffff1690612202565b905047600080838310610b4b57601454610b0890606490610afc908790610100900460ff16612202565b9063ffffffff61223c16565b601454909250610b2990606490610afc90879062010000900460ff16612202565b601254909150610b469060ff166009811115610b4157fe5b61227e565b610b97565b601454610b6890606490610afc908690610100900460ff16612202565b9150610b7a838363ffffffff6122d316565b601254909150610b979060ff166009811115610b9257fe5b612315565b60019450610ba5338361232d565b600254610bbb906001600160a01b03168261232d565b505050505b9050600160005590565b6001546001600160a01b03163314610bf45760405162461bcd60e51b81526004016102be90612b3a565b600560030160049054906101000a90046001600160a01b03166001600160a01b0316634fd758796040518163ffffffff1660e01b81526004016101406040518083038186803b158015610c4657600080fd5b505afa158015610c5a573d6000803e3d6000fd5b505050506040513d601f19601f82011682018060405250810190610c7e919061274c565b805160055560208101516006556040810151600755606081015160088054608084015160a085015160c086015160e087015160ff1990941660ff9687161761ff00191661010093871684021762ff0000191662010000928716929092029190911763ff00000019166301000000959091169490940293909317640100000000600160c01b031916600160201b6001600160a01b03928316021790915590820151600980546001600160a01b031990811692841692909217905561012090920151600a80549093169116179055565b600854600f5460105460405163c139ee9160e01b8152600093600160201b90046001600160a01b03169263c139ee9192610d8f9288929130918990600401612d9c565b60206040518083038186803b158015610da757600080fd5b505afa158015610dbb573d6000803e3d6000fd5b505050506040513d601f19601f82011682018060405250810190610ddf9190612826565b90505b92915050565b6000600660125460ff166009811115610dfd57fe5b14905090565b600854600f54604051631334f8cd60e11b8152600092600160201b90046001600160a01b031691632669f19a91610e3d9190600401612d43565b60206040518083038186803b158015610e5557600080fd5b505afa158015610e69573d6000803e3d6000fd5b505050506040513d601f19601f820116820180604052508101906108859190612826565b60195481565b6000601954821015610eb75760405162461bcd60e51b81526004016102be90612c51565b600c54601954610de29190610ed390859063ffffffff6122d316565b9063ffffffff61220216565b60026000541415610f025760405162461bcd60e51b81526004016102be90612d0c565b60026000556003546001600160a01b03163314610f315760405162461bcd60e51b81526004016102be90612ac4565b6000610f3b6107a7565b90506001811115610f5e5760405162461bcd60e51b81526004016102be90612c0a565b600854600090610f77906301000000900460ff16611b35565b905080831115610f995760405162461bcd60e51b81526004016102be906129d7565b610fa3338461232d565b7ffc226bcc04f8f8905af4229a5d361773b6bb568167898414274c713c6179e6cb83604051610fd29190612d43565b60405180910390a15050600160005550565b601e6020526000908152604090205481565b601d6020526000908152604090205460ff1681565b60175481565b4790565b600060125460ff16600981111561102857fe5b141561103a57611036611d5e565b600d555b565b6002600054141561105f5760405162461bcd60e51b81526004016102be90612d0c565b6002600090815561106e6107a7565b9050806002148061107f5750806003145b61109b5760405162461bcd60e51b81526004016102be90612a6a565b600081600214156110d257600c546014546110c291600160201b90910461ffff1690612202565b90506110cd826123bf565b6110f9565b600c546014546110ee91600160301b90910461ffff1690612202565b90506110f98261227e565b436016554760008083831061114d5760145461112590606490610afc908790610100900460ff16612202565b60145490925061114690606490610afc90879062010000900460ff16612202565b9050611187565b60145461116a90606490610afc908690610100900460ff16612202565b915061117c838363ffffffff6122d316565b905061118785612315565b611191338361232d565b6002546111a7906001600160a01b03168261232d565b50506001600055505050565b6000600260005414156111d85760405162461bcd60e51b81526004016102be90612d0c565b60026000556111e633611c0b565b6112025760405162461bcd60e51b81526004016102be90612a44565b600061120d33611ee2565b90506000811161122f5760405162461bcd60e51b81526004016102be90612cc8565b6000818152601c60205260409020600101548311156112605760405162461bcd60e51b81526004016102be90612b5d565b6006546015540143116112855760405162461bcd60e51b81526004016102be90612c7c565b600061128f6108f2565b905060015b601f548160ff16116112ce5760ff81166000908152601c60205260409020546112c6906001600160a01b0316836123f2565b600101611294565b506000828152601c60205260409020600101546112f1908563ffffffff6122d316565b6000838152601c602052604090206001015561130c85611c0b565b6113ab57601f5461132490600163ffffffff6121c716565b601f818155604080516060810182526001600160a01b0389811680835260208084018b8152438587019081526000988952601c8352868920955186546001600160a01b03191695169490941785555160018086019190915592516002909401939093558552601d8252828520805460ff191690911790559154601e90925290912055611431565b60006113b686611ee2565b6000818152601c60205260409020600101549091506113db908663ffffffff6121c716565b6000828152601c6020526040808220600181019390935543600290930192909255905186916001600160a01b038916917f54f902ae1377e1ef1cab3eedb2bea3c964c6351a6b506ddca5ffdaddb919d3999190a3505b43601955600061143f6107a7565b60016000559695505050505050565b6003546001600160a01b031681565b6000600260005414156114825760405162461bcd60e51b81526004016102be90612d0c565b6002600090815560125460ff16600981111561149a57fe5b1180156114b8575060125460089060ff1660098111156114b657fe5b105b6114d45760405162461bcd60e51b81526004016102be90612ae7565b60125460009060ff1660098111156114e857fe5b90504760006114f56108f2565b90508082106115585760015b601f548160ff161161153b5760ff81166000908152601c6020526040902054611533906001600160a01b0316836123f2565b600101611501565b504360195560038311611553576115506107a7565b92505b6115df565b8115801561156a575061156a33611c0b565b156115785761155383612315565b60015b601f548160ff16116115b55760ff81166000908152601c60205260409020546115ad906001600160a01b0316846123f2565b60010161157b565b504360198190556018556012805460ff19166008179081905560ff1660098111156115dc57fe5b92505b7ff33d854b742e78ac685b76a9d8ba08da4c16f567a3d4464742ccfb706c1f08bb8160405161160e9190612d43565b60405180910390a150506001600055919050565b601f5481565b60165481565b6001546001600160a01b031633146116585760405162461bcd60e51b81526004016102be90612b3a565b600560030160049054906101000a90046001600160a01b03166001600160a01b0316631a55d9e96040518163ffffffff1660e01b815260040160e06040518083038186803b1580156116a957600080fd5b505afa1580156116bd573d6000803e3d6000fd5b505050506040513d601f19601f820116820180604052508101906116e191906126b7565b805160135560208101516014805460408401516060850151608086015160a087015160c09097015160ff1990941660ff9687161761ff001916610100938716939093029290921762ff0000191662010000918616919091021763ff0000001916630100000094909116939093029290921765ffff000000001916600160201b61ffff948516021767ffff0000000000001916600160301b9390921692909202179055565b600260005414156117a85760405162461bcd60e51b81526004016102be90612d0c565b60026000556004546001600160a01b038281169116146117da5760405162461bcd60e51b81526004016102be90612cea565b600060125460ff1660098111156117ed57fe5b1461180a5760405162461bcd60e51b81526004016102be906129f8565b60095460105460405163bd0d151f60e01b81526001600160a01b039092169163bd0d151f9161184291339186913091906004016128b8565b60206040518083038186803b15801561185a57600080fd5b505afa15801561186e573d6000803e3d6000fd5b505050506040513d601f19601f82011682018060405250810190611892919061269b565b6118ae5760405162461bcd60e51b81526004016102be90612c2d565b6001601f8181556040805160608101825233808252606460208084019182526015548486019081526000888152601c835294517f6de76108811faf2f94afbe5ac6c98e8393206cd093932de1fbfd61bbeec43a0280546001600160a01b0319166001600160a01b0390921691909117905591517f6de76108811faf2f94afbe5ac6c98e8393206cd093932de1fbfd61bbeec43a035590517f6de76108811faf2f94afbe5ac6c98e8393206cd093932de1fbfd61bbeec43a0455908252601d8152828220805460ff1990811687179091559354601e9091529190205560128054909116828002179055504360158190556019556004546003546010546119c3926001600160a01b03908116923392911690612488565b600854600f5460105460405163c175771b60e01b8152600093600160201b90046001600160a01b03169263c175771b926119ff9260040161295f565b60206040518083038186803b158015611a1757600080fd5b505afa158015611a2b573d6000803e3d6000fd5b505050506040513d601f19601f82011682018060405250810190611a4f9190612826565b600854604051632976f2fb60e11b8152919250600091600160201b9091046001600160a01b0316906352ede5f690611a8b908590600401612d43565b60206040518083038186803b158015611aa357600080fd5b505afa158015611ab7573d6000803e3d6000fd5b505050506040513d601f19601f82011682018060405250810190611adb9190612826565b600254909150611af4906001600160a01b03168261232d565b601254600080516020612f2b8339815191529060009060ff166009811115611b1857fe5b604051610fd292919061295f565b6002546001600160a01b031681565b600854600f5460105460405163ad87c71d60e01b8152600093600160201b90046001600160a01b03169263ad87c71d92611b76928792913091600401612d78565b60206040518083038186803b158015611b8e57600080fd5b505afa158015611ba2573d6000803e3d6000fd5b505050506040513d601f19601f82011682018060405250810190610de29190612826565b601c602052600090815260409020805460018201546002909201546001600160a01b03909116919083565b60125460009060ff16600981111561088557fe5b60155481565b6001600160a01b03166000908152601d602052604090205460ff1690565b601a5481565b60026000541415611c525760405162461bcd60e51b81526004016102be90612d0c565b60026000556003546001600160a01b03163314611c815760405162461bcd60e51b81526004016102be90612ac4565b60125460ff166009811115611c9257fe5b15611caf5760405162461bcd60e51b81526004016102be906129f8565b601454600090611cd190606490610afc9047906301000000900460ff16612202565b90506000611ce5478363ffffffff6122d316565b6012805460ff19166009179055600254909150611d0b906001600160a01b03168361232d565b611d15338261232d565b601254600080516020612f2b8339815191529060009060ff166009811115611d3957fe5b604051611d4792919061295f565b60405180910390a150506001600055565b60185481565b600080611d696108f2565b600854600f54601254929350600160201b9091046001600160a01b031691630daf18779190309060ff166009811115611d9e57fe5b6010546040516001600160e01b031960e087901b168152611dc794939291908890600401612d4c565b60206040518083038186803b158015611ddf57600080fd5b505afa158015611df3573d6000803e3d6000fd5b505050506040513d601f19601f82011682018060405250810190611e179190612826565b91505090565b600b54600c54600d54600e54600f5460105460115460ff8082169161010090041688565b6004546001600160a01b031681565b600854600f54604051632bd61f0560e11b8152600092600160201b90046001600160a01b0316916357ac3e0a91611e8a9190600401612d43565b60206040518083038186803b158015611ea257600080fd5b505afa158015611eb6573d6000803e3d6000fd5b505050506040513d601f19601f82011682018060405250810190611eda919061286d565b60ff16905090565b6001600160a01b03166000908152601e602052604090205490565b60026000541415611f205760405162461bcd60e51b81526004016102be90612d0c565b60026000556003546001600160a01b03163314611f4f5760405162461bcd60e51b81526004016102be90612ac4565b6000611f596107a7565b9050600081118015611f6c575060048111155b611f885760405162461bcd60e51b81526004016102be90612b84565b6009546004805460105460405163bd0d151f60e01b81526001600160a01b039485169463bd0d151f94611fc3943394921692309291016128b8565b60206040518083038186803b158015611fdb57600080fd5b505afa158015611fef573d6000803e3d6000fd5b505050506040513d601f19601f82011682018060405250810190612013919061269b565b61202f5760405162461bcd60e51b81526004016102be90612a1a565b6006546015546000910143101561204f57612048612579565b905061205a565b6120576108f2565b90505b6000600660125460ff16600981111561206f57fe5b141561208d57600c5460135461208a9163ffffffff61220216565b90505b4760006120a0848463ffffffff6121c716565b436017556012805460ff19166007179055905060008183106120cf576120cc838363ffffffff6122d316565b90505b60015b601f548160ff161161215a5760ff81166000908152601c60205260408120546001600160a01b03169061210482611ee2565b6000818152601c6020526040902060010154600454601054929350909161214f916001600160a01b0316903390869061214a90606490610afc908863ffffffff61220216565b612488565b5050506001016120d2565b50612165338261232d565b60025461217b906001600160a01b03168561232d565b601254600080516020612f2b83398151915290879060ff16600981111561219e57fe5b6040516121ac92919061295f565b60405180910390a15050600160005550505050565b601b5481565b600082820183811015610ddf5760405162461bcd60e51b81526004016102be90612a8d565b60008183106121fb5781610ddf565b5090919050565b60008261221157506000610de2565b8282028284828161221e57fe5b0414610ddf5760405162461bcd60e51b81526004016102be90612bc9565b6000610ddf83836040518060400160405280601a81526020017f536166654d6174683a206469766973696f6e206279207a65726f0000000000008152506125c3565b43601b55601280546005919060ff19166001835b0217905550601254600080516020612f2b83398151915290829060ff1660098111156122ba57fe5b6040516122c892919061295f565b60405180910390a150565b6000610ddf83836040518060400160405280601e81526020017f536166654d6174683a207375627472616374696f6e206f766572666c6f7700008152506125fa565b43601855601280546008919060ff1916600183612292565b604080516000808252602082019092526001600160a01b0384169083906040516123579190612888565b60006040518083038185875af1925050503d8060008114612394576040519150601f19603f3d011682016040523d82523d6000602084013e612399565b606091505b50509050806123ba5760405162461bcd60e51b81526004016102be90612b0a565b505050565b6012805460ff19166004179081905543601a55600080516020612f2b83398151915290829060ff1660098111156122ba57fe5b6123fb82611c0b565b6124175760405162461bcd60e51b81526004016102be90612a44565b60015b601f548160ff16116123ba5760ff81166000908152601c602052604081205461244b906001600160a01b0316611ee2565b6000818152601c602052604090206001015490915061247e856124796064610afc888663ffffffff61220216565b61232d565b505060010161241a565b60006060856001600160a01b03166323b872dd8686866040516024016124b0939291906128fb565b6040516020818303038152906040529060e01b6020820180516001600160e01b0383818316178352505050506040516124e99190612888565b6000604051808303816000865af19150503d8060008114612526576040519150601f19603f3d011682016040523d82523d6000602084013e61252b565b606091505b5091509150818015612555575080511580612555575080806020019051810190612555919061269b565b6125715760405162461bcd60e51b81526004016102be906129a0565b505050505050565b6006546015546000910143106125a15760405162461bcd60e51b81526004016102be90612ca1565b6012805460ff19166006908117909155600c549054600091611e179190612202565b600081836125e45760405162461bcd60e51b81526004016102be919061296d565b5060008385816125f057fe5b0495945050505050565b6000818484111561261e5760405162461bcd60e51b81526004016102be919061296d565b505050900390565b8051610de281612ef5565b805161ffff81168114610de257600080fd5b805160ff81168114610de257600080fd5b600060208284031215612665578081fd5b8135610ddf81612ef5565b60008060408385031215612682578081fd5b823561268d81612ef5565b946020939093013593505050565b6000602082840312156126ac578081fd5b8151610ddf81612f0d565b600060e082840312156126c8578081fd5b6126d260e0612e9e565b8251815260208301516126e481612f1b565b602082015260408301516126f781612f1b565b6040820152606083015161270a81612f1b565b606082015261271c8460808501612643565b608082015261272e8460a08501612631565b60a08201526127408460c08501612631565b60c08201529392505050565b600061014080838503121561275f578182fd5b61276881612e9e565b83518152602084015160208201526040840151604082015261278d8560608601612643565b606082015261279f8560808601612643565b60808201526127b18560a08601612643565b60a08201526127c38560c08601612643565b60c08201526127d58560e08601612626565b60e082015261010091506127eb85838601612626565b82820152610120915061280085838601612626565b918101919091529392505050565b60006020828403121561281f578081fd5b5035919050565b600060208284031215612837578081fd5b5051919050565b60008060408385031215612850578182fd5b82359150602083013561286281612f0d565b809150509250929050565b60006020828403121561287e578081fd5b610ddf8383612643565b6000825161289a818460208701612ec5565b9190910192915050565b6001600160a01b0391909116815260200190565b6001600160a01b039485168152928416602084015292166040820152606081019190915260800190565b6001600160a01b03929092168252602082015260400190565b6001600160a01b039384168152919092166020820152604081019190915260600190565b6001600160a01b039390931683526020830191909152604082015260600190565b901515815260200190565b60208101600a831061295957fe5b91905290565b918252602082015260400190565b600060208252825180602084015261298c816040850160208701612ec5565b601f01601f19169190910160400192915050565b60208082526017908201527f5448205452414e534645525f46524f4d5f4641494c4544000000000000000000604082015260600190565b6020808252600790820152660a8dede9aeac6d60cb1b604082015260600190565b602080825260089082015267021537461747573360c41b604082015260600190565b60208082526010908201526f21616c6c6f77616e6365536574746c6560801b604082015260600190565b6020808252600c908201526b10b9b430b932b437b63232b960a11b604082015260600190565b60208082526009908201526821537461747573323360b81b604082015260600190565b6020808252601b908201527f536166654d6174683a206164646974696f6e206f766572666c6f770000000000604082015260600190565b60208082526009908201526810b137b93937bbb2b960b91b604082015260600190565b60208082526009908201526821537461747573313760b81b604082015260600190565b60208082526016908201527515120811551217d514905394d1915497d1905253115160521b604082015260600190565b60208082526009908201526810b232b83637bcb2b960b91b604082015260600190565b6020808252600d908201526c21656e6f75676853686172657360981b604082015260600190565b6020808252600990820152680854dd185d1d5ccc4d60ba1b604082015260600190565b6020808252600890820152670854dd185d1d5ccd60c21b604082015260600190565b60208082526021908201527f536166654d6174683a206d756c7469706c69636174696f6e206f766572666c6f6040820152607760f81b606082015260800190565b60208082526009908201526821537461747573303160b81b604082015260600190565b6020808252600a908201526921616c6c6f77616e636560b01b604082015260600190565b60208082526011908201527010bb30b634b2213637b1b5a73ab6b132b960791b604082015260600190565b6020808252600b908201526a6561726c7957696e646f7760a81b604082015260600190565b6020808252600d908201526c214561726c79436c6f73696e6760981b604082015260600190565b602080825260089082015267217368506c61636560c01b604082015260600190565b60208082526008908201526721546f6b656e4f6b60c01b604082015260600190565b6020808252601f908201527f5265656e7472616e637947756172643a207265656e7472616e742063616c6c00604082015260600190565b90815260200190565b9485526001600160a01b0393909316602085015260408401919091526060830152608082015260a00190565b93845260208401929092526001600160a01b03166040830152606082015260800190565b94855260208501939093526001600160a01b0391909116604084015260608301521515608082015260a00190565b978852602088019690965260408701949094526060860192909252608085015260a084015260ff90811660c08401521660e08201526101000190565b998a5260208a0198909852604089019690965260ff9485166060890152928416608088015290831660a087015290911660c08501526001600160a01b0390811660e0850152908116610100840152166101208201526101400190565b96875260ff958616602088015293851660408701529184166060860152909216608084015261ffff91821660a08401521660c082015260e00190565b60405181810167ffffffffffffffff81118282101715612ebd57600080fd5b604052919050565b60005b83811015612ee0578181015183820152602001612ec8565b83811115612eef576000848401525b50505050565b6001600160a01b0381168114612f0a57600080fd5b50565b8015158114612f0a57600080fd5b60ff81168114612f0a57600080fdfe6ea22590bbdb5ddd54c29fb4352c2b0117b3cfa557bb7ad1b7277431a2bb75bca2646970667358221220d797e2af1e9d18537312506c2887e610270471d558aa8e4a68a646376cb3198a64736f6c634300060b0033a264697066735822122058577770e27dfe8fba4a41e73e62424e022ed83511467bf5b0e7a054323a09af64736f6c634300060b0033",
  "immutableReferences": {},
  "source": "// SPDX-License-Identifier: MIT\n\npragma solidity 0.6.11;\npragma experimental ABIEncoderV2;\n\nimport \"@openzeppelin/contracts/math/SafeMath.sol\";\nimport \"@openzeppelin/contracts/token/ERC20/IERC20.sol\";\nimport \"@openzeppelin/contracts/access/Ownable.sol\";\n//import \"./Ownable.sol\";\nimport \"./IJFactory.sol\";\nimport \"./IJLoanCommons.sol\";\nimport \"./JLoanEth.sol\";\n\n\ncontract JLoanEthDeployer is Ownable {\n    using SafeMath for uint256;\n\n    uint private ethLoansCounter;\n    address payable private ethFeesCollector;\n\n    mapping(uint => address) private ethLoanContractsList;\n    mapping(address => bool) private ethLoanContracts;\n\n    uint public borrowerLength;\n    address[] public borrowerList;\n    mapping(address => bool) public borrowers;\n\n    IJLoanCommons.GeneralParams public loanParams;\n\n    event SetNewStatus(uint idx, uint oldStatus, uint newStatus);\n\n    constructor() public { }\n\n    modifier onlyLoanFactory() {\n        require(msg.sender == loanParams.factoryAddress, \"!factory\");\n        _;\n    }\n\n    /**\n    * @dev set loan factory contract address\n    * @param _factAddr, address of loan factory contract to add\n    */\n    function setLoanFactory(address _factAddr) external onlyOwner {\n        loanParams.factoryAddress = _factAddr;\n    }\n\n    /**\n    * @dev set eth loans contract counter\n    * @param _newValue, new counter value\n    */\n    function setEthLoansCounter(uint _newValue) external onlyOwner {\n        ethLoansCounter = _newValue;\n    }\n\n    /**\n    * @dev get deployed eth loans contract counter\n    * @return number of deployed eth loans contracts\n    */\n    function getDeployedEthLoansCounter() external view returns(uint) {\n        return ethLoansCounter;\n    }\n\n    /**\n    * @dev get deployed eth loan contract address as an item of an array\n    * @return address of idx-th fund contract address\n    */\n    function getDeployedEthLoanAddress(uint idx) external view returns(address) {\n        return ethLoanContractsList[idx];\n    }\n\n    /**\n    * @dev check if an fund contract address was deployed by this deployer\n    * @param _loanAddr, address to check\n    * @return true if fund address was deployed, otherwise false\n    */\n    function isEthLoanDeployed(address _loanAddr) external view returns (bool) {\n        return ethLoanContracts[_loanAddr];\n    }\n\n     /**\n    * @dev deploy a new eth loan contract, add its address to internal variables\n    * @param _sender, address of the borrower\n    * @param _id, nunmber of the eth loan contract\n    * @param _pairId, name of the crypto the borrower would like to receive\n    * @param _borrowedAskAmount, amount of crypto the borrower would like to receive\n    * @param _rpbRate, rate per block the borrower would like to pay as interest\n    * @param _factAddr, factory address\n    * @param _lendToken, lender token address\n    */              \n    function deployNewEthLoanContract(address _sender, \n                uint _id,\n                uint _pairId, \n                uint _borrowedAskAmount, \n                uint _rpbRate, \n                address _factAddr,\n                address _lendToken) external payable onlyLoanFactory returns (address) {\n        require(_sender != address(0), \"Sender Address is zero\");\n        borrowers[_sender] = true;\n        borrowerList.push(_sender);\n        borrowerLength = borrowerList.length;\n        address newEthLoanContract = address(new JLoanEth{value: msg.value}\n                    (_sender, _id, _pairId, _borrowedAskAmount, _rpbRate, _factAddr, _lendToken, ethFeesCollector));\n        ethLoanContracts[newEthLoanContract] = true;\n        ethLoanContractsList[ethLoansCounter] = newEthLoanContract;\n        ethLoansCounter = ethLoansCounter.add(1);\n        return newEthLoanContract;\n    }\n\n    /**\n    * @dev set new common GeneralParams in single eth loans contract\n    * @param _idx, index of the loan contract\n    */\n    function setEthLoanCommonParamsInContract (uint _idx) external onlyOwner {\n        IJLoanEth(ethLoanContractsList[_idx]).setNewCommonParams();\n    }\n\n    /**\n    * @dev set new fees GeneralParams in single eth loans contract\n    * @param _idx, index of the loan contract\n    */\n    function setEthLoanFeesParamsInContract (uint _idx) external onlyOwner {\n        IJLoanEth(ethLoanContractsList[_idx]).setNewFeesParams();\n    }\n\n    /**\n    * @dev set new status in single eth loans contract\n    * @param _idx, index of the loan contract\n    * @param _newStatus, new status\n    */\n    function setEthStatusInEthContract (uint _idx, uint _newStatus) external onlyOwner {\n        require(_newStatus <= 7, \"!Status07\");\n        IJLoanEth ethContract = IJLoanEth(ethLoanContractsList[_idx]);\n        uint oldStatus = ethContract.getLoanStatus();\n        require(_newStatus != oldStatus, \"!newStatus\");\n        ethContract.setNewStatus(_newStatus);\n        uint newStatus = ethContract.getLoanStatus();\n        emit SetNewStatus(_idx, oldStatus, newStatus);\n    }\n\n    /**\n    * @dev get if an address is a borrower\n    * @return boolean\n    */\n    function isBorrower(address _borr) external view returns (bool) {\n        return borrowers[_borr];\n    }\n\n    /**\n    * @dev set the fee collector contract address\n    */\n    function setFeesCollector(address payable _feeColl) external onlyOwner {\n        ethFeesCollector = _feeColl;\n    }\n\n    /**\n    * @dev get the fee collector contract address\n    * @return fee collector address\n    */\n    function getFeesCollector() external view returns(address payable) {\n        return ethFeesCollector;\n    }\n\n    /**\n    * @dev check for allowance\n    * @param _sender, address of the sender\n    * @param _tokenAddr, address of the stable coin token\n    * @param _loanContract, address of the loan contract\n    * @param _borrowedAskAmount, amount of stable coins request by the borrower\n    * @return bool\n    */\n    function checkAllowance(address _sender, address _tokenAddr, address _loanContract, uint _borrowedAskAmount) external view returns (bool) {\n        uint askAmount = _borrowedAskAmount;\n        uint allowance = IERC20(_tokenAddr).allowance(_sender, _loanContract);\n        if (allowance >= askAmount)\n            return true;\n        else\n            return false;\n    }\n\n}\n",
  "sourcePath": "C:/Users/saurabh/code/Jibrel/defi-smartcontracts/LoansFactoryV1/contracts/JLoanEthDeployer.sol",
  "compiler": {
    "name": "solc",
    "version": "0.6.11+commit.5ef660b1.Emscripten.clang"
  },
  "schemaVersion": "3.3.1",
  "updatedAt": "2020-10-27T10:21:42.842Z",
  "networkType": "ethereum",
  "devdoc": {
    "kind": "dev",
    "methods": {
      "checkAllowance(address,address,address,uint256)": {
        "details": "check for allowance",
        "params": {
          "_borrowedAskAmount": ", amount of stable coins request by the borrower",
          "_loanContract": ", address of the loan contract",
          "_sender": ", address of the sender",
          "_tokenAddr": ", address of the stable coin token"
        },
        "returns": {
          "_0": "bool"
        }
      },
      "deployNewEthLoanContract(address,uint256,uint256,uint256,uint256,address,address)": {
        "details": "deploy a new eth loan contract, add its address to internal variables",
        "params": {
          "_borrowedAskAmount": ", amount of crypto the borrower would like to receive",
          "_factAddr": ", factory address",
          "_id": ", nunmber of the eth loan contract",
          "_lendToken": ", lender token address",
          "_pairId": ", name of the crypto the borrower would like to receive",
          "_rpbRate": ", rate per block the borrower would like to pay as interest",
          "_sender": ", address of the borrower"
        }
      },
      "getDeployedEthLoanAddress(uint256)": {
        "details": "get deployed eth loan contract address as an item of an array",
        "returns": {
          "_0": "address of idx-th fund contract address"
        }
      },
      "getDeployedEthLoansCounter()": {
        "details": "get deployed eth loans contract counter",
        "returns": {
          "_0": "number of deployed eth loans contracts"
        }
      },
      "getFeesCollector()": {
        "details": "get the fee collector contract address",
        "returns": {
          "_0": "fee collector address"
        }
      },
      "isBorrower(address)": {
        "details": "get if an address is a borrower",
        "returns": {
          "_0": "boolean"
        }
      },
      "isEthLoanDeployed(address)": {
        "details": "check if an fund contract address was deployed by this deployer",
        "params": {
          "_loanAddr": ", address to check"
        },
        "returns": {
          "_0": "true if fund address was deployed, otherwise false"
        }
      },
      "owner()": {
        "details": "Returns the address of the current owner."
      },
      "renounceOwnership()": {
        "details": "Leaves the contract without owner. It will not be possible to call `onlyOwner` functions anymore. Can only be called by the current owner. NOTE: Renouncing ownership will leave the contract without an owner, thereby removing any functionality that is only available to the owner."
      },
      "setEthLoanCommonParamsInContract(uint256)": {
        "details": "set new common GeneralParams in single eth loans contract",
        "params": {
          "_idx": ", index of the loan contract"
        }
      },
      "setEthLoanFeesParamsInContract(uint256)": {
        "details": "set new fees GeneralParams in single eth loans contract",
        "params": {
          "_idx": ", index of the loan contract"
        }
      },
      "setEthLoansCounter(uint256)": {
        "details": "set eth loans contract counter",
        "params": {
          "_newValue": ", new counter value"
        }
      },
      "setEthStatusInEthContract(uint256,uint256)": {
        "details": "set new status in single eth loans contract",
        "params": {
          "_idx": ", index of the loan contract",
          "_newStatus": ", new status"
        }
      },
      "setFeesCollector(address)": {
        "details": "set the fee collector contract address"
      },
      "setLoanFactory(address)": {
        "details": "set loan factory contract address",
        "params": {
          "_factAddr": ", address of loan factory contract to add"
        }
      },
      "transferOwnership(address)": {
        "details": "Transfers ownership of the contract to a new account (`newOwner`). Can only be called by the current owner."
      }
    },
    "version": 1
  },
  "userdoc": {
    "kind": "user",
    "methods": {},
    "version": 1
  }
}