{
  "contractName": "JLoanEth",
  "abi": [
    {
      "inputs": [
        {
          "internalType": "address",
          "name": "_sender",
          "type": "address"
        },
        {
          "internalType": "uint256",
          "name": "_id",
          "type": "uint256"
        },
        {
          "internalType": "uint256",
          "name": "_pairId",
          "type": "uint256"
        },
        {
          "internalType": "uint256",
          "name": "_borrowedAskAmount",
          "type": "uint256"
        },
        {
          "internalType": "uint256",
          "name": "_rpbRate",
          "type": "uint256"
        },
        {
          "internalType": "address",
          "name": "_factoryAddress",
          "type": "address"
        },
        {
          "internalType": "address",
          "name": "_lendCrypto",
          "type": "address"
        },
        {
          "internalType": "address payable",
          "name": "_ethFeesCollector",
          "type": "address"
        }
      ],
      "stateMutability": "payable",
      "type": "constructor"
    },
    {
      "anonymous": false,
      "inputs": [
        {
          "indexed": true,
          "internalType": "address",
          "name": "sharesBuyer",
          "type": "address"
        },
        {
          "indexed": true,
          "internalType": "uint256",
          "name": "amount",
          "type": "uint256"
        }
      ],
      "name": "AddShareholderShares",
      "type": "event"
    },
    {
      "anonymous": false,
      "inputs": [
        {
          "indexed": false,
          "internalType": "address",
          "name": "sender",
          "type": "address"
        },
        {
          "indexed": false,
          "internalType": "uint256",
          "name": "value",
          "type": "uint256"
        }
      ],
      "name": "EthReceived",
      "type": "event"
    },
    {
      "anonymous": false,
      "inputs": [
        {
          "indexed": false,
          "internalType": "uint256",
          "name": "accruedInterests",
          "type": "uint256"
        }
      ],
      "name": "InterestsWithdrawed",
      "type": "event"
    },
    {
      "anonymous": false,
      "inputs": [
        {
          "indexed": true,
          "internalType": "address",
          "name": "sender",
          "type": "address"
        },
        {
          "indexed": false,
          "internalType": "uint256",
          "name": "blockNumber",
          "type": "uint256"
        }
      ],
      "name": "LoanForeclosing",
      "type": "event"
    },
    {
      "anonymous": false,
      "inputs": [
        {
          "indexed": false,
          "internalType": "uint256",
          "name": "oldStatus",
          "type": "uint256"
        },
        {
          "indexed": false,
          "internalType": "uint256",
          "name": "newStatus",
          "type": "uint256"
        }
      ],
      "name": "LoanStatusChanged",
      "type": "event"
    },
    {
      "anonymous": false,
      "inputs": [
        {
          "indexed": false,
          "internalType": "uint256",
          "name": "amount",
          "type": "uint256"
        }
      ],
      "name": "WithdrawCollateral",
      "type": "event"
    },
    {
      "inputs": [],
      "name": "borrowerAddress",
      "outputs": [
        {
          "internalType": "address",
          "name": "",
          "type": "address"
        }
      ],
      "stateMutability": "view",
      "type": "function"
    },
    {
      "inputs": [],
      "name": "commonParams",
      "outputs": [
        {
          "internalType": "uint256",
          "name": "loanId",
          "type": "uint256"
        },
        {
          "internalType": "uint256",
          "name": "rpbRate",
          "type": "uint256"
        },
        {
          "internalType": "uint256",
          "name": "initialCollateralRatio",
          "type": "uint256"
        },
        {
          "internalType": "uint256",
          "name": "creationBlock",
          "type": "uint256"
        },
        {
          "internalType": "uint256",
          "name": "pairId",
          "type": "uint256"
        },
        {
          "internalType": "uint256",
          "name": "borrowedAskAmount",
          "type": "uint256"
        },
        {
          "internalType": "uint8",
          "name": "collDecimals",
          "type": "uint8"
        },
        {
          "internalType": "uint8",
          "name": "lendDecimals",
          "type": "uint8"
        }
      ],
      "stateMutability": "view",
      "type": "function"
    },
    {
      "inputs": [],
      "name": "ethDeployer",
      "outputs": [
        {
          "internalType": "address",
          "name": "",
          "type": "address"
        }
      ],
      "stateMutability": "view",
      "type": "function"
    },
    {
      "inputs": [],
      "name": "feesCollector",
      "outputs": [
        {
          "internalType": "address payable",
          "name": "",
          "type": "address"
        }
      ],
      "stateMutability": "view",
      "type": "function"
    },
    {
      "inputs": [],
      "name": "lastInterestWithdrawalBlock",
      "outputs": [
        {
          "internalType": "uint256",
          "name": "",
          "type": "uint256"
        }
      ],
      "stateMutability": "view",
      "type": "function"
    },
    {
      "inputs": [],
      "name": "lentToken",
      "outputs": [
        {
          "internalType": "address",
          "name": "",
          "type": "address"
        }
      ],
      "stateMutability": "view",
      "type": "function"
    },
    {
      "inputs": [],
      "name": "loanActiveBlock",
      "outputs": [
        {
          "internalType": "uint256",
          "name": "",
          "type": "uint256"
        }
      ],
      "stateMutability": "view",
      "type": "function"
    },
    {
      "inputs": [],
      "name": "loanClosedBlock",
      "outputs": [
        {
          "internalType": "uint256",
          "name": "",
          "type": "uint256"
        }
      ],
      "stateMutability": "view",
      "type": "function"
    },
    {
      "inputs": [],
      "name": "loanClosingBlock",
      "outputs": [
        {
          "internalType": "uint256",
          "name": "",
          "type": "uint256"
        }
      ],
      "stateMutability": "view",
      "type": "function"
    },
    {
      "inputs": [],
      "name": "loanFees",
      "outputs": [
        {
          "internalType": "uint256",
          "name": "earlySettlementFee",
          "type": "uint256"
        },
        {
          "internalType": "uint8",
          "name": "factoryFees",
          "type": "uint8"
        },
        {
          "internalType": "uint8",
          "name": "userRewardShare",
          "type": "uint8"
        },
        {
          "internalType": "uint8",
          "name": "vaultShare",
          "type": "uint8"
        },
        {
          "internalType": "uint8",
          "name": "cancellationFees",
          "type": "uint8"
        },
        {
          "internalType": "uint16",
          "name": "undercollateralizedForeclosingMultiple",
          "type": "uint16"
        },
        {
          "internalType": "uint16",
          "name": "atRiskForeclosedMultiple",
          "type": "uint16"
        }
      ],
      "stateMutability": "view",
      "type": "function"
    },
    {
      "inputs": [],
      "name": "loanForeclosedBlock",
      "outputs": [
        {
          "internalType": "uint256",
          "name": "",
          "type": "uint256"
        }
      ],
      "stateMutability": "view",
      "type": "function"
    },
    {
      "inputs": [],
      "name": "loanForeclosingBlock",
      "outputs": [
        {
          "internalType": "uint256",
          "name": "",
          "type": "uint256"
        }
      ],
      "stateMutability": "view",
      "type": "function"
    },
    {
      "inputs": [],
      "name": "loanInitiateForecloseBlock",
      "outputs": [
        {
          "internalType": "uint256",
          "name": "",
          "type": "uint256"
        }
      ],
      "stateMutability": "view",
      "type": "function"
    },
    {
      "inputs": [],
      "name": "loanParams",
      "outputs": [
        {
          "internalType": "uint256",
          "name": "minRpbRate",
          "type": "uint256"
        },
        {
          "internalType": "uint256",
          "name": "earlySettlementWindow",
          "type": "uint256"
        },
        {
          "internalType": "uint256",
          "name": "foreclosureWindow",
          "type": "uint256"
        },
        {
          "internalType": "uint8",
          "name": "requiredCollateralRatio",
          "type": "uint8"
        },
        {
          "internalType": "uint8",
          "name": "foreclosingRatio",
          "type": "uint8"
        },
        {
          "internalType": "uint8",
          "name": "instantForeclosureRatio",
          "type": "uint8"
        },
        {
          "internalType": "uint8",
          "name": "limitCollRatioForWithdraw",
          "type": "uint8"
        },
        {
          "internalType": "address",
          "name": "factoryAddress",
          "type": "address"
        },
        {
          "internalType": "address",
          "name": "ethDeployerAddress",
          "type": "address"
        },
        {
          "internalType": "address",
          "name": "tokenDeployerAddress",
          "type": "address"
        }
      ],
      "stateMutability": "view",
      "type": "function"
    },
    {
      "inputs": [],
      "name": "loanStatus",
      "outputs": [
        {
          "internalType": "enum IJLoanCommons.Status",
          "name": "",
          "type": "uint8"
        }
      ],
      "stateMutability": "view",
      "type": "function"
    },
    {
      "inputs": [
        {
          "internalType": "uint256",
          "name": "",
          "type": "uint256"
        }
      ],
      "name": "shareholders",
      "outputs": [
        {
          "internalType": "address",
          "name": "holder",
          "type": "address"
        },
        {
          "internalType": "uint256",
          "name": "shares",
          "type": "uint256"
        },
        {
          "internalType": "uint256",
          "name": "ownerBlockNumber",
          "type": "uint256"
        }
      ],
      "stateMutability": "view",
      "type": "function"
    },
    {
      "inputs": [
        {
          "internalType": "address",
          "name": "",
          "type": "address"
        }
      ],
      "name": "shareholdersAddress",
      "outputs": [
        {
          "internalType": "bool",
          "name": "",
          "type": "bool"
        }
      ],
      "stateMutability": "view",
      "type": "function"
    },
    {
      "inputs": [],
      "name": "shareholdersCounter",
      "outputs": [
        {
          "internalType": "uint256",
          "name": "",
          "type": "uint256"
        }
      ],
      "stateMutability": "view",
      "type": "function"
    },
    {
      "inputs": [
        {
          "internalType": "address",
          "name": "",
          "type": "address"
        }
      ],
      "name": "shareholdersPlace",
      "outputs": [
        {
          "internalType": "uint256",
          "name": "",
          "type": "uint256"
        }
      ],
      "stateMutability": "view",
      "type": "function"
    },
    {
      "stateMutability": "payable",
      "type": "receive"
    },
    {
      "inputs": [],
      "name": "setNewCommonParams",
      "outputs": [],
      "stateMutability": "nonpayable",
      "type": "function"
    },
    {
      "inputs": [],
      "name": "setNewFeesParams",
      "outputs": [],
      "stateMutability": "nonpayable",
      "type": "function"
    },
    {
      "inputs": [
        {
          "internalType": "uint256",
          "name": "_amount",
          "type": "uint256"
        }
      ],
      "name": "withdrawCollateral",
      "outputs": [],
      "stateMutability": "nonpayable",
      "type": "function"
    },
    {
      "inputs": [],
      "name": "getContractBalance",
      "outputs": [
        {
          "internalType": "uint256",
          "name": "",
          "type": "uint256"
        }
      ],
      "stateMutability": "view",
      "type": "function"
    },
    {
      "inputs": [],
      "name": "getLoanStatus",
      "outputs": [
        {
          "internalType": "uint256",
          "name": "",
          "type": "uint256"
        }
      ],
      "stateMutability": "view",
      "type": "function"
    },
    {
      "inputs": [],
      "name": "getPairPrice",
      "outputs": [
        {
          "internalType": "uint256",
          "name": "",
          "type": "uint256"
        }
      ],
      "stateMutability": "view",
      "type": "function"
    },
    {
      "inputs": [],
      "name": "getPairDecimals",
      "outputs": [
        {
          "internalType": "uint256",
          "name": "",
          "type": "uint256"
        }
      ],
      "stateMutability": "view",
      "type": "function"
    },
    {
      "inputs": [],
      "name": "checkLoanInEarlySettlementWindow",
      "outputs": [
        {
          "internalType": "bool",
          "name": "",
          "type": "bool"
        }
      ],
      "stateMutability": "view",
      "type": "function"
    },
    {
      "inputs": [],
      "name": "checkEarlySettledLoan",
      "outputs": [
        {
          "internalType": "bool",
          "name": "",
          "type": "bool"
        }
      ],
      "stateMutability": "view",
      "type": "function"
    },
    {
      "inputs": [],
      "name": "setInitalCollateralRatio",
      "outputs": [],
      "stateMutability": "nonpayable",
      "type": "function"
    },
    {
      "inputs": [],
      "name": "getActualCollateralRatio",
      "outputs": [
        {
          "internalType": "uint256",
          "name": "newCollRatio",
          "type": "uint256"
        }
      ],
      "stateMutability": "view",
      "type": "function"
    },
    {
      "inputs": [
        {
          "internalType": "uint256",
          "name": "_amount",
          "type": "uint256"
        }
      ],
      "name": "calcRatioAddingCollateral",
      "outputs": [
        {
          "internalType": "uint256",
          "name": "ratio",
          "type": "uint256"
        }
      ],
      "stateMutability": "view",
      "type": "function"
    },
    {
      "inputs": [
        {
          "internalType": "uint256",
          "name": "_ratio",
          "type": "uint256"
        }
      ],
      "name": "calcDiffCollAmountForRatio",
      "outputs": [
        {
          "internalType": "uint256",
          "name": "collDiff",
          "type": "uint256"
        }
      ],
      "stateMutability": "view",
      "type": "function"
    },
    {
      "inputs": [
        {
          "internalType": "address",
          "name": "_stableAddr",
          "type": "address"
        }
      ],
      "name": "lenderSendStableCoins",
      "outputs": [],
      "stateMutability": "nonpayable",
      "type": "function"
    },
    {
      "inputs": [],
      "name": "setLoanStatusOnCollRatio",
      "outputs": [
        {
          "internalType": "uint256",
          "name": "",
          "type": "uint256"
        }
      ],
      "stateMutability": "nonpayable",
      "type": "function"
    },
    {
      "inputs": [],
      "name": "initiateLoanForeclose",
      "outputs": [],
      "stateMutability": "nonpayable",
      "type": "function"
    },
    {
      "inputs": [],
      "name": "setLoanInForeclosedByTime",
      "outputs": [
        {
          "internalType": "bool",
          "name": "",
          "type": "bool"
        }
      ],
      "stateMutability": "nonpayable",
      "type": "function"
    },
    {
      "inputs": [],
      "name": "loanClosingByBorrower",
      "outputs": [],
      "stateMutability": "nonpayable",
      "type": "function"
    },
    {
      "inputs": [],
      "name": "setLoanCancelled",
      "outputs": [],
      "stateMutability": "nonpayable",
      "type": "function"
    },
    {
      "inputs": [
        {
          "internalType": "uint256",
          "name": "_calcBlk",
          "type": "uint256"
        }
      ],
      "name": "calculatingAccruedInterests",
      "outputs": [
        {
          "internalType": "uint256",
          "name": "",
          "type": "uint256"
        }
      ],
      "stateMutability": "view",
      "type": "function"
    },
    {
      "inputs": [],
      "name": "getAccruedInterests",
      "outputs": [
        {
          "internalType": "uint256",
          "name": "accruedInterests",
          "type": "uint256"
        }
      ],
      "stateMutability": "view",
      "type": "function"
    },
    {
      "inputs": [],
      "name": "withdrawInterests",
      "outputs": [
        {
          "internalType": "uint256",
          "name": "",
          "type": "uint256"
        }
      ],
      "stateMutability": "nonpayable",
      "type": "function"
    },
    {
      "inputs": [
        {
          "internalType": "address",
          "name": "_holder",
          "type": "address"
        }
      ],
      "name": "isShareholder",
      "outputs": [
        {
          "internalType": "bool",
          "name": "",
          "type": "bool"
        }
      ],
      "stateMutability": "view",
      "type": "function"
    },
    {
      "inputs": [
        {
          "internalType": "address",
          "name": "_holder",
          "type": "address"
        }
      ],
      "name": "getShareholderPlace",
      "outputs": [
        {
          "internalType": "uint256",
          "name": "",
          "type": "uint256"
        }
      ],
      "stateMutability": "view",
      "type": "function"
    },
    {
      "inputs": [
        {
          "internalType": "address",
          "name": "_newShareholder",
          "type": "address"
        },
        {
          "internalType": "uint256",
          "name": "_amount",
          "type": "uint256"
        }
      ],
      "name": "addLoanshareholders",
      "outputs": [
        {
          "internalType": "uint256",
          "name": "",
          "type": "uint256"
        }
      ],
      "stateMutability": "nonpayable",
      "type": "function"
    }
  ],
  "bytecode": "0x6080604052604051620036df380380620036df833981016040819052620000269162000509565b6001600081905580546001600160a01b031916331790556001600160a01b0388166200006f5760405162461bcd60e51b8152600401620000669062000793565b60405180910390fd5b87600360006101000a8154816001600160a01b0302191690836001600160a01b03160217905550826001600160a01b0316634fd758796040518163ffffffff1660e01b81526004016101406040518083038186803b158015620000d157600080fd5b505afa158015620000e6573d6000803e3d6000fd5b505050506040513d601f19601f820116820180604052508101906200010c91906200063b565b80516005556020810151600655604080820151600755606082015160088054608085015160a086015160c087015160e08089015160ff1990951660ff9788161761ff00191661010094881685021762ff0000191662010000938816939093029290921763ff00000019166301000000969091169590950294909417600160201b600160c01b0319166401000000006001600160a01b03938416021790925590840151600980546001600160a01b031990811692841692909217905561012090940151600a8054909516908216179093558151631a55d9e960e01b8152915192861692631a55d9e9926004808201939291829003018186803b1580156200021157600080fd5b505afa15801562000226573d6000803e3d6000fd5b505050506040513d601f19601f820116820180604052508101906200024c91906200059a565b80516013556020810151601480546040808501516060860151608087015160a088015160c09098015160ff1990951660ff9788161761ff001916610100938816939093029290921762ff0000191662010000918716919091021763ff0000001916630100000095909116949094029390931761ffff60201b191664010000000061ffff958616021761ffff60301b19166601000000000000949091169390930292909217909155516310f15c6760e21b81526000906001600160a01b038516906343c5719c9062000324908a908a90600401620007c8565b60206040518083038186803b1580156200033d57600080fd5b505afa15801562000352573d6000803e3d6000fd5b505050506040513d601f19601f820116820180604052508101906200037891906200070e565b9050803410156200039d5760405162461bcd60e51b815260040162000066906200074c565b600280546001600160a01b0319166001600160a01b038416179055600554851015620003dd5760405162461bcd60e51b8152600401620000669062000770565b600b889055600c859055600f879055600480546001600160a01b038086166001600160a01b031990921691909117825560108890556011805460ff19166012179055604051633e17bdcb60e11b815290861691637c2f7b969162000444918b9101620007bf565b60206040518083038186803b1580156200045d57600080fd5b505afa15801562000472573d6000803e3d6000fd5b505050506040513d601f19601f8201168201806040525081019062000498919062000727565b6011805460ff929092166101000261ff0019909216919091179055505043600e5550506012805460ff1916905550620008169350505050565b8051620004de81620007fd565b92915050565b805161ffff81168114620004de57600080fd5b805160ff81168114620004de57600080fd5b600080600080600080600080610100898b03121562000526578384fd5b88516200053381620007fd565b809850506020890151965060408901519550606089015194506080890151935060a08901516200056381620007fd565b60c08a01519093506200057681620007fd565b60e08a01519092506200058981620007fd565b809150509295985092959890939650565b600060e08284031215620005ac578081fd5b620005b860e0620007d6565b82518152620005cb8460208501620004f7565b6020820152620005df8460408501620004f7565b6040820152620005f38460608501620004f7565b6060820152620006078460808501620004f7565b60808201526200061b8460a08501620004e4565b60a08201526200062f8460c08501620004e4565b60c08201529392505050565b60006101408083850312156200064f578182fd5b6200065a81620007d6565b835181526020840151602082015260408401516040820152620006818560608601620004f7565b6060820152620006958560808601620004f7565b6080820152620006a98560a08601620004f7565b60a0820152620006bd8560c08601620004f7565b60c0820152620006d18560e08601620004d1565b60e08201526101009150620006e985838601620004d1565b8282015261012091506200070085838601620004d1565b918101919091529392505050565b60006020828403121562000720578081fd5b5051919050565b60006020828403121562000739578081fd5b620007458383620004f7565b9392505050565b6020808252600a90820152690428adcdeeaced08ae8d60b31b604082015260600190565b602080825260099082015268525042546f6f4c6f7760b81b604082015260600190565b6020808252601290820152715f73656e6465725a65726f4164647265737360701b604082015260600190565b90815260200190565b918252602082015260400190565b6040518181016001600160401b0381118282101715620007f557600080fd5b604052919050565b6001600160a01b03811681146200081357600080fd5b50565b612eb980620008266000396000f3fe60806040526004361061026b5760003560e01c806382f0c81c11610144578063c0b27cc5116100b6578063e1c7111a1161007a578063e1c7111a14610713578063e936e44a14610728578063e9f33c5f1461073d578063ec98362e1461075d578063fb6222e814610772578063ff0d69a61461079257610302565b8063c0b27cc514610696578063c2b0bf58146106ab578063c55d2a47146106c0578063d20fbeb6146106d5578063d5138948146106ea57610302565b80639cf160f6116101085780639cf160f6146105e8578063a41969e5146105fd578063ab377daa1461061d578063acc1ab131461064c578063b2ca180514610661578063b89a73cb1461067657610302565b806382f0c81c1461057457806385b41696146105895780638b8141e11461059e578063918c3dbd146105b357806395dcc255146105c857610302565b806347c865df116101dd5780636dd167f8116101a15780636dd167f8146104eb5780636f9fb98a1461050057806372ef10311461051557806374014c4d1461052a5780637afb4b2f1461053f5780637ba61ea51461055f57610302565b806347c865df146104565780635ced2a111461046b5780636112fe2e1461048b57806363aebb28146104ab57806363ce2287146104cb57610302565b80631daeaaa91161022f5780631daeaaa9146103b6578063216c2490146103d857806328899423146104005780632a1f3cda146104155780633cf348c31461042c57806342ac33791461044157610302565b806306bb531e14610307578063074ca966146103325780630896962c1461035457806309e94d981461037657806318ad714a146103a157610302565b3661030257600160125460ff16600981111561028357fe5b101580156102a25750600460125460ff16600981111561029f57fe5b11155b6102c75760405162461bcd60e51b81526004016102be90612b08565b60405180910390fd5b7f85177f287940f2f05425a4029951af0e047a7f9c4eaa9a6e6917bcd869f8669533346040516102f8929190612866565b60405180910390a1005b600080fd5b34801561031357600080fd5b5061031c6107a7565b6040516103299190612cc7565b60405180910390f35b34801561033e57600080fd5b5061034761088b565b60405161032991906128cf565b34801561036057600080fd5b50610369610894565b6040516103299190612828565b34801561038257600080fd5b5061038b6108a3565b6040516103299a99989796959493929190612d5c565b3480156103ad57600080fd5b5061031c6108f2565b3480156103c257600080fd5b506103cb6109b6565b60405161032991906128c4565b3480156103e457600080fd5b506103ed6109ed565b6040516103299796959493929190612db8565b34801561040c57600080fd5b506103cb610a2d565b34801561042157600080fd5b5061042a610bca565b005b34801561043857600080fd5b506103cb610d4c565b34801561044d57600080fd5b5061031c610d67565b34801561046257600080fd5b5061031c610df1565b34801561047757600080fd5b5061031c6104863660046127c1565b610df7565b34801561049757600080fd5b5061042a6104a63660046127c1565b610e49565b3480156104b757600080fd5b5061031c6104c6366004612606565b610f4e565b3480156104d757600080fd5b506103cb6104e6366004612606565b610f60565b3480156104f757600080fd5b5061031c610f75565b34801561050c57600080fd5b5061031c610f7b565b34801561052157600080fd5b5061042a610f7f565b34801561053657600080fd5b5061042a610fa6565b34801561054b57600080fd5b5061031c61055a366004612622565b61111d565b34801561056b57600080fd5b506103696113b8565b34801561058057600080fd5b5061031c6113c7565b34801561059557600080fd5b5061031c61158c565b3480156105aa57600080fd5b5061031c611592565b3480156105bf57600080fd5b5061042a611598565b3480156105d457600080fd5b5061042a6105e3366004612606565b6116ef565b3480156105f457600080fd5b50610369611a90565b34801561060957600080fd5b5061031c6106183660046127c1565b611a9f565b34801561062957600080fd5b5061063d6106383660046127c1565b611b30565b604051610329939291906128a3565b34801561065857600080fd5b5061031c611b5b565b34801561066d57600080fd5b5061031c611b6f565b34801561068257600080fd5b506103cb610691366004612606565b611b75565b3480156106a257600080fd5b5061031c611b93565b3480156106b757600080fd5b5061042a611b99565b3480156106cc57600080fd5b5061031c611cc2565b3480156106e157600080fd5b5061031c611cc8565b3480156106f657600080fd5b506106ff611d87565b604051610329989796959493929190612d20565b34801561071f57600080fd5b50610369611dab565b34801561073457600080fd5b5061031c611dba565b34801561074957600080fd5b5061031c610758366004612606565b611e4c565b34801561076957600080fd5b5061042a611e67565b34801561077e57600080fd5b5061031c61078d3660046127c1565b61212b565b34801561079e57600080fd5b5061031c61216c565b601254600090819060ff1660098111156107bd57fe5b1180156107db575060125460059060ff1660098111156107d957fe5b105b156108745760006107ea611cc8565b600854909150610100900460ff168110610815576012805460ff191660011790556000601a55610872565b600854610100900460ff16811180159061083a575060085462010000900460ff168110155b15610851576012805460ff19166002179055610872565b60085462010000900460ff16811015610872576012805460ff191660031790555b505b60125460ff16600981111561088557fe5b90505b90565b60125460ff1681565b6001546001600160a01b031681565b600554600654600754600854600954600a5460ff80841693610100810482169362010000820483169363010000008304909316926001600160a01b03600160201b90930483169291821691168a565b601254600090819060ff16600981111561090857fe5b118015610926575060125460089060ff16600981111561092457fe5b105b156109b057600654601554600091610944919063ffffffff61217216565b9050600660125460ff16600981111561095957fe5b1480156109665750804311155b1561097b5761097481610df7565b915061099e565b60185415610992576109746104866018544361219e565b61099b43610df7565b91505b478211156109aa574791505b50610888565b50600090565b60065460155460009182916109d09163ffffffff61217216565b90508043116109e3576001915050610888565b6000915050610888565b60135460145460ff808216916101008104821691620100008204811691630100000081049091169061ffff600160201b8204811691600160301b90041687565b600060026000541415610a525760405162461bcd60e51b81526004016102be90612c90565b600260005560125460ff166009811115610a6857fe5b600414610a875760405162461bcd60e51b81526004016102be90612b2b565b601a5460009015801590610aaf5750600754601a54610aab9163ffffffff61217216565b4310155b15610bc057600c54601454600091610ad291600160301b900461ffff16906121b4565b905047600080838310610b4b57601454610b0890606490610afc908790610100900460ff166121b4565b9063ffffffff6121ee16565b601454909250610b2990606490610afc90879062010000900460ff166121b4565b601254909150610b469060ff166009811115610b4157fe5b612230565b610b97565b601454610b6890606490610afc908690610100900460ff166121b4565b9150610b7a838363ffffffff61228516565b601254909150610b979060ff166009811115610b9257fe5b6122c7565b60019450610ba533836122df565b600254610bbb906001600160a01b0316826122df565b505050505b9050600160005590565b6001546001600160a01b03163314610bf45760405162461bcd60e51b81526004016102be90612abe565b600560030160049054906101000a90046001600160a01b03166001600160a01b0316634fd758796040518163ffffffff1660e01b81526004016101406040518083038186803b158015610c4657600080fd5b505afa158015610c5a573d6000803e3d6000fd5b505050506040513d601f19601f82011682018060405250810190610c7e91906126ff565b805160055560208101516006556040810151600755606081015160088054608084015160a085015160c086015160e087015160ff1990941660ff9687161761ff00191661010093871684021762ff0000191662010000928716929092029190911763ff00000019166301000000959091169490940293909317640100000000600160c01b031916600160201b6001600160a01b03928316021790915590820151600980546001600160a01b031990811692841692909217905561012090920151600a80549093169116179055565b6000600660125460ff166009811115610d6157fe5b14905090565b600854600f54604051631334f8cd60e11b8152600092600160201b90046001600160a01b031691632669f19a91610da19190600401612cc7565b60206040518083038186803b158015610db957600080fd5b505afa158015610dcd573d6000803e3d6000fd5b505050506040513d601f19601f8201168201806040525081019061088591906127d9565b60195481565b6000601954821015610e1b5760405162461bcd60e51b81526004016102be90612bd5565b600c54601954610e439190610e3790859063ffffffff61228516565b9063ffffffff6121b416565b92915050565b60026000541415610e6c5760405162461bcd60e51b81526004016102be90612c90565b60026000556003546001600160a01b03163314610e9b5760405162461bcd60e51b81526004016102be90612a48565b6000610ea56107a7565b90506001811115610ec85760405162461bcd60e51b81526004016102be90612b8e565b600854600090610ee1906301000000900460ff16611a9f565b905080831115610f035760405162461bcd60e51b81526004016102be9061295b565b610f0d33846122df565b7ffc226bcc04f8f8905af4229a5d361773b6bb568167898414274c713c6179e6cb83604051610f3c9190612cc7565b60405180910390a15050600160005550565b601e6020526000908152604090205481565b601d6020526000908152604090205460ff1681565b60175481565b4790565b600060125460ff166009811115610f9257fe5b1415610fa457610fa0611cc8565b600d555b565b60026000541415610fc95760405162461bcd60e51b81526004016102be90612c90565b60026000908155610fd86107a7565b90508060021480610fe95750806003145b6110055760405162461bcd60e51b81526004016102be906129ee565b6000816002141561103c57600c5460145461102c91600160201b90910461ffff16906121b4565b905061103782612371565b611063565b600c5460145461105891600160301b90910461ffff16906121b4565b905061106382612230565b43601655476000808383106110b75760145461108f90606490610afc908790610100900460ff166121b4565b6014549092506110b090606490610afc90879062010000900460ff166121b4565b90506110f1565b6014546110d490606490610afc908690610100900460ff166121b4565b91506110e6838363ffffffff61228516565b90506110f1856122c7565b6110fb33836122df565b600254611111906001600160a01b0316826122df565b50506001600055505050565b6000600260005414156111425760405162461bcd60e51b81526004016102be90612c90565b600260005561115033611b75565b61116c5760405162461bcd60e51b81526004016102be906129c8565b600061117733611e4c565b9050600081116111995760405162461bcd60e51b81526004016102be90612c4c565b6000818152601c60205260409020600101548311156111ca5760405162461bcd60e51b81526004016102be90612ae1565b6006546015540143116111ef5760405162461bcd60e51b81526004016102be90612c00565b60006111f96108f2565b905060015b601f548160ff16116112385760ff81166000908152601c6020526040902054611230906001600160a01b0316836123a4565b6001016111fe565b506000828152601c602052604090206001015461125b908563ffffffff61228516565b6000838152601c602052604090206001015561127685611b75565b61131557601f5461128e90600163ffffffff61217216565b601f818155604080516060810182526001600160a01b0389811680835260208084018b8152438587019081526000988952601c8352868920955186546001600160a01b03191695169490941785555160018086019190915592516002909401939093558552601d8252828520805460ff191690911790559154601e9092529091205561139b565b600061132086611e4c565b6000818152601c6020526040902060010154909150611345908663ffffffff61217216565b6000828152601c6020526040808220600181019390935543600290930192909255905186916001600160a01b038916917f54f902ae1377e1ef1cab3eedb2bea3c964c6351a6b506ddca5ffdaddb919d3999190a3505b4360195560006113a96107a7565b60016000559695505050505050565b6003546001600160a01b031681565b6000600260005414156113ec5760405162461bcd60e51b81526004016102be90612c90565b6002600090815560125460ff16600981111561140457fe5b118015611422575060125460089060ff16600981111561142057fe5b105b61143e5760405162461bcd60e51b81526004016102be90612a6b565b60125460009060ff16600981111561145257fe5b905047600061145f6108f2565b90508082106114c25760015b601f548160ff16116114a55760ff81166000908152601c602052604090205461149d906001600160a01b0316836123a4565b60010161146b565b5043601955600383116114bd576114ba6107a7565b92505b611549565b811580156114d457506114d433611b75565b156114e2576114bd836122c7565b60015b601f548160ff161161151f5760ff81166000908152601c6020526040902054611517906001600160a01b0316846123a4565b6001016114e5565b504360198190556018556012805460ff19166008179081905560ff16600981111561154657fe5b92505b7ff33d854b742e78ac685b76a9d8ba08da4c16f567a3d4464742ccfb706c1f08bb816040516115789190612cc7565b60405180910390a150506001600055919050565b601f5481565b60165481565b6001546001600160a01b031633146115c25760405162461bcd60e51b81526004016102be90612abe565b600560030160049054906101000a90046001600160a01b03166001600160a01b0316631a55d9e96040518163ffffffff1660e01b815260040160e06040518083038186803b15801561161357600080fd5b505afa158015611627573d6000803e3d6000fd5b505050506040513d601f19601f8201168201806040525081019061164b919061266d565b805160135560208101516014805460408401516060850151608086015160a087015160c09097015160ff1990941660ff9687161761ff001916610100938716939093029290921762ff0000191662010000918616919091021763ff0000001916630100000094909116939093029290921765ffff000000001916600160201b61ffff948516021767ffff0000000000001916600160301b9390921692909202179055565b600260005414156117125760405162461bcd60e51b81526004016102be90612c90565b60026000556004546001600160a01b038281169116146117445760405162461bcd60e51b81526004016102be90612c6e565b600060125460ff16600981111561175757fe5b146117745760405162461bcd60e51b81526004016102be9061297c565b60095460105460405163bd0d151f60e01b81526001600160a01b039092169163bd0d151f916117ac913391869130919060040161283c565b60206040518083038186803b1580156117c457600080fd5b505afa1580156117d8573d6000803e3d6000fd5b505050506040513d601f19601f820116820180604052508101906117fc919061264d565b6118185760405162461bcd60e51b81526004016102be90612bb1565b6001601f8181556040805160608101825233808252606460208084019182526015548486019081526000888152601c835294517f6de76108811faf2f94afbe5ac6c98e8393206cd093932de1fbfd61bbeec43a0280546001600160a01b0319166001600160a01b0390921691909117905591517f6de76108811faf2f94afbe5ac6c98e8393206cd093932de1fbfd61bbeec43a035590517f6de76108811faf2f94afbe5ac6c98e8393206cd093932de1fbfd61bbeec43a0455908252601d8152828220805460ff1990811687179091559354601e90915291902055601280549091168280021790555043601581905560195560045460035460105461192d926001600160a01b0390811692339291169061243a565b600854600f5460105460405163c175771b60e01b8152600093600160201b90046001600160a01b03169263c175771b92611969926004016128e3565b60206040518083038186803b15801561198157600080fd5b505afa158015611995573d6000803e3d6000fd5b505050506040513d601f19601f820116820180604052508101906119b991906127d9565b600854604051632976f2fb60e11b8152919250600091600160201b9091046001600160a01b0316906352ede5f6906119f5908590600401612cc7565b60206040518083038186803b158015611a0d57600080fd5b505afa158015611a21573d6000803e3d6000fd5b505050506040513d601f19601f82011682018060405250810190611a4591906127d9565b600254909150611a5e906001600160a01b0316826122df565b601254600080516020612e648339815191529060009060ff166009811115611a8257fe5b604051610f3c9291906128e3565b6002546001600160a01b031681565b600854600f5460105460405163ad87c71d60e01b8152600093600160201b90046001600160a01b03169263ad87c71d92611ae0928792913091600401612cfc565b60206040518083038186803b158015611af857600080fd5b505afa158015611b0c573d6000803e3d6000fd5b505050506040513d601f19601f82011682018060405250810190610e4391906127d9565b601c602052600090815260409020805460018201546002909201546001600160a01b03909116919083565b60125460009060ff16600981111561088557fe5b60155481565b6001600160a01b03166000908152601d602052604090205460ff1690565b601a5481565b60026000541415611bbc5760405162461bcd60e51b81526004016102be90612c90565b60026000556003546001600160a01b03163314611beb5760405162461bcd60e51b81526004016102be90612a48565b60125460ff166009811115611bfc57fe5b15611c195760405162461bcd60e51b81526004016102be9061297c565b601454600090611c3b90606490610afc9047906301000000900460ff166121b4565b90506000611c4f478363ffffffff61228516565b6012805460ff19166009179055600254909150611c75906001600160a01b0316836122df565b611c7f33826122df565b601254600080516020612e648339815191529060009060ff166009811115611ca357fe5b604051611cb19291906128e3565b60405180910390a150506001600055565b60185481565b600080611cd36108f2565b600854600f54601254929350600160201b9091046001600160a01b031691630daf18779190309060ff166009811115611d0857fe5b6010546040516001600160e01b031960e087901b168152611d3194939291908890600401612cd0565b60206040518083038186803b158015611d4957600080fd5b505afa158015611d5d573d6000803e3d6000fd5b505050506040513d601f19601f82011682018060405250810190611d8191906127d9565b91505090565b600b54600c54600d54600e54600f5460105460115460ff8082169161010090041688565b6004546001600160a01b031681565b600854600f54604051632bd61f0560e11b8152600092600160201b90046001600160a01b0316916357ac3e0a91611df49190600401612cc7565b60206040518083038186803b158015611e0c57600080fd5b505afa158015611e20573d6000803e3d6000fd5b505050506040513d601f19601f82011682018060405250810190611e4491906127f1565b60ff16905090565b6001600160a01b03166000908152601e602052604090205490565b60026000541415611e8a5760405162461bcd60e51b81526004016102be90612c90565b60026000556003546001600160a01b03163314611eb95760405162461bcd60e51b81526004016102be90612a48565b6000611ec36107a7565b9050600081118015611ed6575060048111155b611ef25760405162461bcd60e51b81526004016102be90612b08565b6009546004805460105460405163bd0d151f60e01b81526001600160a01b039485169463bd0d151f94611f2d9433949216923092910161283c565b60206040518083038186803b158015611f4557600080fd5b505afa158015611f59573d6000803e3d6000fd5b505050506040513d601f19601f82011682018060405250810190611f7d919061264d565b611f995760405162461bcd60e51b81526004016102be9061299e565b60065460155460009101431015611fb957611fb261252b565b9050611fc4565b611fc16108f2565b90505b6000600660125460ff166009811115611fd957fe5b1415611ff757600c54601354611ff49163ffffffff6121b416565b90505b47600061200a848463ffffffff61217216565b436017556012805460ff191660071790559050600081831061203957612036838363ffffffff61228516565b90505b60015b601f548160ff16116120c45760ff81166000908152601c60205260408120546001600160a01b03169061206e82611e4c565b6000818152601c602052604090206001015460045460105492935090916120b9916001600160a01b031690339086906120b490606490610afc908863ffffffff6121b416565b61243a565b50505060010161203c565b506120cf33826122df565b6002546120e5906001600160a01b0316856122df565b601254600080516020612e6483398151915290879060ff16600981111561210857fe5b6040516121169291906128e3565b60405180910390a15050600160005550505050565b600854600f5460105460405163dd9ffdb560e01b8152600093600160201b90046001600160a01b03169263dd9ffdb592611ae0928792913091600401612cfc565b601b5481565b6000828201838110156121975760405162461bcd60e51b81526004016102be90612a11565b9392505050565b60008183106121ad5781612197565b5090919050565b6000826121c357506000610e43565b828202828482816121d057fe5b04146121975760405162461bcd60e51b81526004016102be90612b4d565b600061219783836040518060400160405280601a81526020017f536166654d6174683a206469766973696f6e206279207a65726f000000000000815250612575565b43601b55601280546005919060ff19166001835b0217905550601254600080516020612e6483398151915290829060ff16600981111561226c57fe5b60405161227a9291906128e3565b60405180910390a150565b600061219783836040518060400160405280601e81526020017f536166654d6174683a207375627472616374696f6e206f766572666c6f7700008152506125ac565b43601855601280546008919060ff1916600183612244565b604080516000808252602082019092526001600160a01b038416908390604051612309919061280c565b60006040518083038185875af1925050503d8060008114612346576040519150601f19603f3d011682016040523d82523d6000602084013e61234b565b606091505b505090508061236c5760405162461bcd60e51b81526004016102be90612a8e565b505050565b6012805460ff19166004179081905543601a55600080516020612e6483398151915290829060ff16600981111561226c57fe5b6123ad82611b75565b6123c95760405162461bcd60e51b81526004016102be906129c8565b60015b601f548160ff161161236c5760ff81166000908152601c60205260408120546123fd906001600160a01b0316611e4c565b6000818152601c60205260409020600101549091506124308561242b6064610afc888663ffffffff6121b416565b6122df565b50506001016123cc565b60006060856001600160a01b03166323b872dd8686866040516024016124629392919061287f565b6040516020818303038152906040529060e01b6020820180516001600160e01b03838183161783525050505060405161249b919061280c565b6000604051808303816000865af19150503d80600081146124d8576040519150601f19603f3d011682016040523d82523d6000602084013e6124dd565b606091505b5091509150818015612507575080511580612507575080806020019051810190612507919061264d565b6125235760405162461bcd60e51b81526004016102be90612924565b505050505050565b6006546015546000910143106125535760405162461bcd60e51b81526004016102be90612c25565b6012805460ff19166006908117909155600c549054600091611d8191906121b4565b600081836125965760405162461bcd60e51b81526004016102be91906128f1565b5060008385816125a257fe5b0495945050505050565b600081848411156125d05760405162461bcd60e51b81526004016102be91906128f1565b505050900390565b8051610e4381612e4b565b805161ffff81168114610e4357600080fd5b805160ff81168114610e4357600080fd5b600060208284031215612617578081fd5b813561219781612e4b565b60008060408385031215612634578081fd5b823561263f81612e4b565b946020939093013593505050565b60006020828403121561265e578081fd5b81518015158114612197578182fd5b600060e0828403121561267e578081fd5b61268860e0612df4565b8251815261269984602085016125f5565b60208201526126ab84604085016125f5565b60408201526126bd84606085016125f5565b60608201526126cf84608085016125f5565b60808201526126e18460a085016125e3565b60a08201526126f38460c085016125e3565b60c08201529392505050565b6000610140808385031215612712578182fd5b61271b81612df4565b83518152602084015160208201526040840151604082015261274085606086016125f5565b606082015261275285608086016125f5565b60808201526127648560a086016125f5565b60a08201526127768560c086016125f5565b60c08201526127888560e086016125d8565b60e0820152610100915061279e858386016125d8565b8282015261012091506127b3858386016125d8565b918101919091529392505050565b6000602082840312156127d2578081fd5b5035919050565b6000602082840312156127ea578081fd5b5051919050565b600060208284031215612802578081fd5b61219783836125f5565b6000825161281e818460208701612e1b565b9190910192915050565b6001600160a01b0391909116815260200190565b6001600160a01b039485168152928416602084015292166040820152606081019190915260800190565b6001600160a01b03929092168252602082015260400190565b6001600160a01b039384168152919092166020820152604081019190915260600190565b6001600160a01b039390931683526020830191909152604082015260600190565b901515815260200190565b60208101600a83106128dd57fe5b91905290565b918252602082015260400190565b6000602082528251806020840152612910816040850160208701612e1b565b601f01601f19169190910160400192915050565b60208082526017908201527f5448205452414e534645525f46524f4d5f4641494c4544000000000000000000604082015260600190565b6020808252600790820152660a8dede9aeac6d60cb1b604082015260600190565b602080825260089082015267021537461747573360c41b604082015260600190565b60208082526010908201526f21616c6c6f77616e6365536574746c6560801b604082015260600190565b6020808252600c908201526b10b9b430b932b437b63232b960a11b604082015260600190565b60208082526009908201526821537461747573323360b81b604082015260600190565b6020808252601b908201527f536166654d6174683a206164646974696f6e206f766572666c6f770000000000604082015260600190565b60208082526009908201526810b137b93937bbb2b960b91b604082015260600190565b60208082526009908201526821537461747573313760b81b604082015260600190565b60208082526016908201527515120811551217d514905394d1915497d1905253115160521b604082015260600190565b60208082526009908201526810b232b83637bcb2b960b91b604082015260600190565b6020808252600d908201526c21656e6f75676853686172657360981b604082015260600190565b6020808252600990820152680854dd185d1d5ccc4d60ba1b604082015260600190565b6020808252600890820152670854dd185d1d5ccd60c21b604082015260600190565b60208082526021908201527f536166654d6174683a206d756c7469706c69636174696f6e206f766572666c6f6040820152607760f81b606082015260800190565b60208082526009908201526821537461747573303160b81b604082015260600190565b6020808252600a908201526921616c6c6f77616e636560b01b604082015260600190565b60208082526011908201527010bb30b634b2213637b1b5a73ab6b132b960791b604082015260600190565b6020808252600b908201526a6561726c7957696e646f7760a81b604082015260600190565b6020808252600d908201526c214561726c79436c6f73696e6760981b604082015260600190565b602080825260089082015267217368506c61636560c01b604082015260600190565b60208082526008908201526721546f6b656e4f6b60c01b604082015260600190565b6020808252601f908201527f5265656e7472616e637947756172643a207265656e7472616e742063616c6c00604082015260600190565b90815260200190565b9485526001600160a01b0393909316602085015260408401919091526060830152608082015260a00190565b93845260208401929092526001600160a01b03166040830152606082015260800190565b978852602088019690965260408701949094526060860192909252608085015260a084015260ff90811660c08401521660e08201526101000190565b998a5260208a0198909852604089019690965260ff9485166060890152928416608088015290831660a087015290911660c08501526001600160a01b0390811660e0850152908116610100840152166101208201526101400190565b96875260ff958616602088015293851660408701529184166060860152909216608084015261ffff91821660a08401521660c082015260e00190565b60405181810167ffffffffffffffff81118282101715612e1357600080fd5b604052919050565b60005b83811015612e36578181015183820152602001612e1e565b83811115612e45576000848401525b50505050565b6001600160a01b0381168114612e6057600080fd5b5056fe6ea22590bbdb5ddd54c29fb4352c2b0117b3cfa557bb7ad1b7277431a2bb75bca2646970667358221220b8b6da9a3280da1cd9c9a6d18b009fe72e870157032e01b9f15bde14ed1aade864736f6c634300060b0033",
  "immutableReferences": {},
  "source": "// SPDX-License-Identifier: MIT\n\npragma solidity 0.6.11;\npragma experimental ABIEncoderV2;\n\nimport \"@openzeppelin/contracts/math/SafeMath.sol\";\nimport \"@openzeppelin/contracts/math/Math.sol\";\nimport \"@openzeppelin/contracts/utils/ReentrancyGuard.sol\";\nimport \"./IJLoanCommons.sol\";\nimport \"./IJLoanEth.sol\";\nimport \"./IJFactory.sol\";\nimport \"./TransferHelper.sol\";\nimport \"./IJLoanEthDeployer.sol\";\n\n\ncontract JLoanEth is ReentrancyGuard, IJLoanCommons {\n    using SafeMath for uint;\n\n    address public ethDeployer;\n    address payable public feesCollector;\n\n    address public borrowerAddress;\n\n    address public lentToken;\n\n    GeneralParams public loanParams;\n    ContractParams public commonParams;\n    Status public loanStatus;\n    FeesParams public loanFees;\n    \n    uint public loanActiveBlock;\n    uint public loanInitiateForecloseBlock;\n    uint public loanClosingBlock;\n    uint public loanClosedBlock;\n    uint public lastInterestWithdrawalBlock;\n    uint public loanForeclosingBlock;\n    uint public loanForeclosedBlock;\n\n    struct Shareholder {\n        address holder;\n        uint shares;\n        uint ownerBlockNumber;\n    }\n\n    mapping(uint => Shareholder) public shareholders;\n    mapping(address => bool) public shareholdersAddress;\n    mapping(address => uint) public shareholdersPlace;\n    uint public shareholdersCounter;\n\n    event EthReceived(address sender, uint value);\n    event WithdrawCollateral(uint amount);\n    event LoanForeclosing(address indexed sender, uint blockNumber);\n    event LoanStatusChanged(uint oldStatus, uint newStatus);\n    event AddShareholderShares(address indexed sharesBuyer, uint indexed amount);\n    event InterestsWithdrawed(uint accruedInterests);\n\n    //// Status = 0\n    constructor(address _sender,\n                uint _id, \n                uint _pairId, \n                uint _borrowedAskAmount, \n                uint _rpbRate, \n                address _factoryAddress,\n                address _lendCrypto,\n                address payable _ethFeesCollector) public payable {\n        ethDeployer = msg.sender;\n        require(_sender!=address(0), \"_senderZeroAddress\");\n        borrowerAddress = _sender;\n        loanParams = IJFactory(_factoryAddress).getGeneralParams();\n        loanFees = IJFactory(_factoryAddress).getGeneralFees();\n        uint256 totalCollateralRequest = IJFactory(_factoryAddress).calcMinCollateralWithFeesAmount(_pairId, _borrowedAskAmount);\n        require(msg.value >= totalCollateralRequest, \"!EnoughEth\");\n        feesCollector = _ethFeesCollector;\n        require(_rpbRate >= loanParams.minRpbRate, \"RPBTooLow\");\n        commonParams.loanId = _id;\n        commonParams.rpbRate = _rpbRate;\n        commonParams.pairId = _pairId;\n        lentToken = _lendCrypto; //DAI\n        commonParams.borrowedAskAmount = _borrowedAskAmount;\n        commonParams.collDecimals = uint8(18); //eth decimals\n        commonParams.lendDecimals = IJFactory(_factoryAddress).getPairQuoteDecimals(_pairId); //lend token decimals\n        commonParams.creationBlock = block.number;\n        loanStatus = Status.pending;\n    }\n\n    modifier onlyEthDeployer() {\n        require(msg.sender == ethDeployer, \"!deployer\");\n        _;\n    }\n\n    receive() external payable { //deposit eth\n        require(loanStatus >= Status.active && loanStatus <= Status.foreclosing, \"!Status14\");\n        emit EthReceived(msg.sender, msg.value);\n    }\n\n    //// Utility functions\n    /**\n    * @dev set common parameters in loan contract, reading them from factory\n    */\n    function setNewCommonParams() external onlyEthDeployer {\n        loanParams = IJFactory(loanParams.factoryAddress).getGeneralParams();\n    }\n\n    /**\n    * @dev set common parameters in loan contract, reading them from factory\n    */\n    function setNewFeesParams() external onlyEthDeployer {\n        loanFees = IJFactory(loanParams.factoryAddress).getGeneralFees();\n    }\n\n    /**\n    * @dev withdraw ethers from contract, every shareholder with his percentage\n    */\n    function withdrawCollateral(uint _amount) public nonReentrant {\n        require(msg.sender == borrowerAddress, \"!borrower\");\n        uint status = setLoanStatusOnCollRatio();\n        require(status <= 1, \"!Status01\");\n        uint withdrawalAmount = calcDiffCollAmountForRatio(loanParams.limitCollRatioForWithdraw);\n        require(_amount <= withdrawalAmount, \"TooMuch\");\n        TransferHelper.safeTransferETH(msg.sender, _amount);\n        emit WithdrawCollateral(_amount);\n    }\n\n    /**\n    * @dev get contract balance\n    * @return balance\n    */\n    function getContractBalance() external view returns (uint) {\n        return address(this).balance;\n    }\n\n    /**\n    * @dev get contract status\n    * @return status\n    */\n    function getLoanStatus() external view returns (uint){\n        return uint(loanStatus);\n    }\n\n    /**\n    * @dev get pair price\n    * @return price\n    */\n    function getPairPrice() public view returns (uint){\n        return IJFactory(loanParams.factoryAddress).getPairValue(commonParams.pairId);\n    }\n\n    /**\n    * @dev get pair decimals\n    * @return number of decimals\n    */\n    function getPairDecimals() public view returns (uint){\n        return IJFactory(loanParams.factoryAddress).getPairDecimals(commonParams.pairId);\n    }\n\n    /**\n    * @dev check if loan is in early settlement period\n    * @return boolean\n    */\n    function checkLoanInEarlySettlementWindow() external view returns (bool) {\n        uint lastEarlyBlock = loanActiveBlock.add(loanParams.earlySettlementWindow);\n        if (block.number <= lastEarlyBlock)\n            return true;\n        else\n            return false;\n    }\n\n    /**\n    * @dev check if loan is settled in early settlement period\n    * @return boolean\n    */\n    function checkEarlySettledLoan() external view returns (bool) {\n        return loanStatus == Status.earlyClosing;\n    }\n\n    /**\n    * @dev set initial collateral ratio of the loan\n    */\n    function setInitalCollateralRatio() external {\n        if (loanStatus == Status.pending)\n            commonParams.initialCollateralRatio = getActualCollateralRatio();\n    }\n\n    /**\n    * @dev get the collateral ratio of the loan (subtracting the accrued interests)\n    * @return newCollRatio collateral ratio\n    */\n    function getActualCollateralRatio() public view returns (uint newCollRatio) {\n        uint accruedInterests = getAccruedInterests();\n        newCollRatio = IJFactory(loanParams.factoryAddress).getActualCollateralRatio(commonParams.pairId, \n                address(this), uint(loanStatus), commonParams.borrowedAskAmount, accruedInterests);\n        return newCollRatio;\n    }\n\n    /**\n    * @dev calc a new ratio if collateral amount has added to contract balance\n    * @param _amount collateral amount to add\n    * @return ratio new collateral ratio, percentage with no decimals\n    */\n    function calcRatioAddingCollateral(uint _amount) external view returns (uint ratio) {\n        ratio = IJFactory(loanParams.factoryAddress).calcRatioAddingCollateral(_amount, commonParams.pairId, address(this), commonParams.borrowedAskAmount);\n        return ratio;\n    }\n\n    /**\n    * @dev calc how much collateral amount has to be added to have a ratio\n    * @param _ratio ratio to reach, percentage with no decimals (180 means 180%)\n    * @return collDiff collateral amount to add or to subtract to reach that ratio\n    */\n    function calcDiffCollAmountForRatio(uint _ratio) public view returns (uint collDiff) {\n        collDiff = IJFactory(loanParams.factoryAddress).calcDiffCollAmountForRatio(_ratio, commonParams.pairId, address(this), commonParams.borrowedAskAmount);\n        return collDiff;\n    }\n\n    //// Status 0 -> 1\n    /**\n    * @dev lender sends required stable coins to borrower and set the initial lender as a stakeholder (100%)\n    * @param _stableAddr, address of the stabl coin address\n    */\n    function lenderSendStableCoins(address _stableAddr) external nonReentrant {\n        require(_stableAddr == lentToken, \"!TokenOk\");\n        require(loanStatus == Status.pending, \"!Status0\");\n        require(IJLoanEthDeployer(loanParams.ethDeployerAddress).checkAllowance(msg.sender, _stableAddr, address(this), commonParams.borrowedAskAmount), \"!allowance\");\n        shareholdersCounter = 1;\n        shareholders[shareholdersCounter] = Shareholder({holder: msg.sender, shares: 100, ownerBlockNumber: loanActiveBlock});\n        shareholdersAddress[msg.sender] = true;\n        shareholdersPlace[msg.sender] = shareholdersCounter;\n        loanStatus = Status.active;\n        loanActiveBlock = block.number;\n        lastInterestWithdrawalBlock = block.number;\n        TransferHelper.safeTransferFrom(lentToken, msg.sender, borrowerAddress, commonParams.borrowedAskAmount);\n        // move factory fees only when loan becomes active\n        uint minCollateralEth = IJFactory(loanParams.factoryAddress).calcMinCollateralAmount(commonParams.pairId, commonParams.borrowedAskAmount);\n        uint fees4Factory = IJFactory(loanParams.factoryAddress).calculateCollFeesOnActivation(minCollateralEth); // 5/1000 = 0,5%\n        TransferHelper.safeTransferETH(payable(feesCollector), fees4Factory);\n        emit LoanStatusChanged(0, uint(loanStatus)); // Old status was 0(pending)\n    }\n\n    //// Status 1 or 2 or 3, based on collateral ratio\n    /**\n    * @dev set the status of the loan based on collateral ratio, applied only in states allowed \n    * @return loan status\n    */\n    function setLoanStatusOnCollRatio() public returns (uint){\n        if (uint(loanStatus) > 0 && uint(loanStatus) < 5) {     //not allowed if loan not active or foreclosed or in closing status or closed\n            uint newCollRatio = getActualCollateralRatio(); // (i.e. 180 means 180%)\n            if ( newCollRatio >= loanParams.foreclosingRatio ) {\n                loanStatus = Status(1);\n                loanForeclosingBlock = 0;   //reset foreclosing block\n            } else if ( newCollRatio <= loanParams.foreclosingRatio && newCollRatio >= loanParams.instantForeclosureRatio ) {\n                loanStatus = Status(2);\n            } else if ( newCollRatio < loanParams.instantForeclosureRatio ) {\n                loanStatus = Status(3);\n            }  \n        }\n        // else no change on status\n        return uint(loanStatus);\n    }\n\n    //// Status 4 or 5, starting from 2 or 3, depending on collateral ratio\n    /**\n    * @dev set the loan in foreclosure state for undercollateralized loans\n    */\n    function initiateLoanForeclose() external nonReentrant {\n        uint status = setLoanStatusOnCollRatio();\n        require(status == 2 || status == 3, \"!Status23\");\n        uint reward;\n        if (status == 2) {\n            reward = uint(loanFees.undercollateralizedForeclosingMultiple).mul(commonParams.rpbRate);\n            setLoanForeclosing(status);\n        } else {\n            reward = uint(loanFees.atRiskForeclosedMultiple).mul(commonParams.rpbRate);\n            setLoanForeclosed(status);\n        }\n        uint bal = address(this).balance;\n        loanInitiateForecloseBlock = block.number;\n        uint userFees;\n        uint vaultFees;\n        if (bal >= reward) {\n            userFees = reward.mul(loanFees.userRewardShare).div(100);\n            vaultFees = reward.mul(loanFees.vaultShare).div(100);\n        } else {\n            userFees = bal.mul(loanFees.userRewardShare).div(100);\n            vaultFees = bal.sub(userFees);\n            setLoanClosed(status);\n        }\n        TransferHelper.safeTransferETH(msg.sender, userFees);\n        TransferHelper.safeTransferETH(payable(feesCollector), vaultFees);\n    }\n\n    //// Status 2 -> 4\n    /**\n    * @dev set the loan in foreclosure state for undercollateralized loans\n    */\n    function setLoanForeclosing(uint oldStatus) internal {\n        loanStatus = Status.foreclosing;\n        // get the block to calculate time to set it in foreclosed if no actions from the borrower\n        loanForeclosingBlock = block.number;\n        emit LoanStatusChanged(oldStatus, uint(loanStatus));\n    }\n\n    /**\n    * @dev set the loan in foreclosed state when foreclosureWindow time passed\n    */\n    function setLoanInForeclosedByTime() external nonReentrant returns (bool) {\n        require(uint(loanStatus) == 4, \"!Status4\");\n        bool result = false;\n        if (loanForeclosingBlock != 0 && block.number >= loanForeclosingBlock.add(loanParams.foreclosureWindow)) {\n            uint reward = uint(loanFees.atRiskForeclosedMultiple).mul(commonParams.rpbRate);\n            uint bal = address(this).balance;\n            uint userFees;\n            uint vaultFees;\n            if (bal >= reward) {\n                userFees = reward.mul(loanFees.userRewardShare).div(100);\n                vaultFees = reward.mul(loanFees.vaultShare).div(100);\n                setLoanForeclosed(uint(loanStatus));\n            } else {\n                userFees = bal.mul(loanFees.userRewardShare).div(100);\n                vaultFees = bal.sub(userFees);\n                setLoanClosed(uint(loanStatus));\n            }\n            result = true;\n            TransferHelper.safeTransferETH(msg.sender, userFees);\n            TransferHelper.safeTransferETH(payable(feesCollector), vaultFees);\n        }\n        return result;\n    }\n\n    //// Status 2 -> 5\n    /**\n    * @dev set the loan in foreclosure state for undercollateralized loans\n    */\n    function setLoanForeclosed(uint oldStatus) internal {\n        loanForeclosedBlock = block.number;\n        loanStatus = Status.foreclosed;\n        emit LoanStatusChanged(oldStatus, uint(loanStatus));\n    }\n\n    //// Status = 6\n    function loanEarlyClosing() internal returns (uint) {\n        require(block.number < loanActiveBlock + loanParams.earlySettlementWindow, \"!EarlyClosing\");\n        loanStatus = Status.earlyClosing;\n        uint balanceRequested = (loanParams.earlySettlementWindow).mul(commonParams.rpbRate);\n        return balanceRequested;\n    }\n\n    //// Status = 7\n    /**\n    * @dev settle the loan in normal closing state by borrower\n    */\n    function loanClosingByBorrower() external nonReentrant {\n        require(msg.sender == borrowerAddress, \"!borrower\");\n        uint status = setLoanStatusOnCollRatio();\n        require(status > 0 && status <= 4, \"!Status14\");\n        // check that borrower gives back the loaned stable coin amount\n        require(IJLoanEthDeployer(loanParams.ethDeployerAddress).checkAllowance(msg.sender, lentToken, address(this), commonParams.borrowedAskAmount), \"!allowanceSettle\");\n        uint balanceRequested;\n        if (block.number < loanActiveBlock + loanParams.earlySettlementWindow)\n            balanceRequested = loanEarlyClosing();\n        else\n            balanceRequested = getAccruedInterests();\n        uint feesAmount = 0;\n        if (loanStatus == Status.earlyClosing) \n            feesAmount = (loanFees.earlySettlementFee).mul(commonParams.rpbRate);\n        // check if there are enough collateral\n        uint bal = address(this).balance;\n        uint requestedAmount = balanceRequested.add(feesAmount);\n        loanClosingBlock = block.number;\n        loanStatus = Status.closing;\n        uint withdrawalBalance = 0;\n        if (bal >= requestedAmount) {\n            // borrower receives back collateral\n            withdrawalBalance = bal.sub(requestedAmount); \n        }\n        for (uint8 i = 1; i <= shareholdersCounter; i++) {\n            address shAddress = shareholders[i].holder;\n            uint shPlace = getShareholderPlace(shareholders[i].holder);\n            uint shShares = shareholders[shPlace].shares;\n            TransferHelper.safeTransferFrom(lentToken, msg.sender, shAddress, (commonParams.borrowedAskAmount).mul(shShares).div(100));\n        }\n        TransferHelper.safeTransferETH(msg.sender, withdrawalBalance);\n        TransferHelper.safeTransferETH(payable(feesCollector), feesAmount);\n        emit LoanStatusChanged(status, uint(loanStatus));\n    }\n\n    //// Status = 8\n    /**\n    * @dev set the loan in closed state, let shareholders to withdraw the stable coins back\n    */\n    function setLoanClosed(uint oldStatus) internal {\n        //require(uint(loanStatus) >= 6, \"Loan status not compatible with closed actions\");\n        loanClosedBlock = block.number;\n        loanStatus = Status.closed;\n        emit LoanStatusChanged(oldStatus, uint(loanStatus));\n    }\n\n    //// Status = 9\n    /**\n    * @dev set the loan in cancelled state (only if pending)\n    */\n    function setLoanCancelled() external nonReentrant {\n        require(msg.sender == borrowerAddress, \"!borrower\");\n        require(uint(loanStatus) == 0, \"!Status0\");\n        uint feeCanc = (address(this).balance).mul(loanFees.cancellationFees).div(100);\n        uint withdrawalBalance = (address(this).balance).sub(feeCanc);\n        loanStatus = Status.cancelled;\n        TransferHelper.safeTransferETH(payable(feesCollector), feeCanc);\n        TransferHelper.safeTransferETH(msg.sender, withdrawalBalance);\n        emit LoanStatusChanged(0, uint(loanStatus)); // Previous status was 0(pending)\n    }\n\n\n    //// Calculating interests functions\n    /**\n    * @dev calculate accrued interests of the contract\n    * @return accrued interests\n    */\n    function calculatingAccruedInterests(uint _calcBlk) public view returns (uint) {\n        require(_calcBlk >= lastInterestWithdrawalBlock, \"!validBlockNumber\");\n        return _calcBlk.sub(lastInterestWithdrawalBlock).mul(commonParams.rpbRate);  \n    }\n\n    /**\n    * @dev get accrued interests of the contract\n    * @return accruedInterests total accrued interests\n    */\n    function getAccruedInterests() public view returns (uint accruedInterests) {\n        if (uint(loanStatus) > 0 && uint(loanStatus) < 8) {\n            uint lastEarlyBlock = loanActiveBlock.add(loanParams.earlySettlementWindow);\n            if (loanStatus == Status.earlyClosing && block.number <= lastEarlyBlock) {\n                accruedInterests = calculatingAccruedInterests(lastEarlyBlock);\n            } else {\n                if (loanClosedBlock != 0)\n                    accruedInterests = calculatingAccruedInterests(Math.min(loanClosedBlock, block.number));\n                else\n                    accruedInterests = calculatingAccruedInterests(block.number);\n            }\n            if ( accruedInterests > address(this).balance )\n                accruedInterests = address(this).balance;\n        } else \n            accruedInterests = 0;\n        return accruedInterests;\n    }\n\n    /**\n    * @dev withdraw accreud interests for all shareholders and set the status after interests withdrawal\n    * @return new status\n    */\n    function withdrawInterests() public nonReentrant returns (uint) {\n        // interests of all shareholders must be withdrawn with their shares amount\n        require(uint(loanStatus) > 0 && uint(loanStatus) < 8, \"!Status17\" );\n        uint status = uint(loanStatus);\n        uint bal = address(this).balance;\n        uint accruedTotalInterests = getAccruedInterests();\n        if (bal >= accruedTotalInterests) {\n            for (uint8 i = 1; i <= shareholdersCounter; i++) {\n                shareholderWithdrawInterests(shareholders[i].holder, accruedTotalInterests);\n            }\n            lastInterestWithdrawalBlock = block.number;\n            if (status <= 3)\n                status = setLoanStatusOnCollRatio();\n        } else if (bal == 0 && isShareholder(msg.sender)) {\n            setLoanClosed(status);\n        } else {\n            for (uint8 i = 1; i <= shareholdersCounter; i++) {\n                shareholderWithdrawInterests(shareholders[i].holder, bal);\n            }\n            lastInterestWithdrawalBlock = block.number;\n            loanClosedBlock = block.number;\n            loanStatus = Status.closed;\n            status = uint(loanStatus);\n        }\n        emit InterestsWithdrawed(accruedTotalInterests);\n        return status;\n    }\n\n    //// shareholders functions\n    /**\n    * @dev withdraw accreud interests for a shareholder\n    * @param _shareholder shareholder address\n    */\n    function shareholderWithdrawInterests(address _shareholder, uint _accruedTotalInterests) internal {\n        require(isShareholder(_shareholder), \"!shareholder\"); \n        for (uint8 i = 1; i <= shareholdersCounter; i++) {\n            uint shPlace = getShareholderPlace(shareholders[i].holder);\n            uint shShares = shareholders[shPlace].shares;\n            TransferHelper.safeTransferETH(payable(_shareholder), _accruedTotalInterests.mul(shShares).div(100));\n        }\n    }\n\n    /**\n    * @dev check if an address is a shareholder\n    * @return boolean\n    */\n    function isShareholder(address _holder) public view returns (bool) {\n        return shareholdersAddress[_holder];\n    }\n\n    /**\n    * @dev get a shareholder place in shareholders array\n    * @return boolean\n    */\n    function getShareholderPlace(address _holder) public view returns (uint) {\n        return shareholdersPlace[_holder];\n    }\n\n    /**\n    * @dev add shareholder in shareholders arrays\n    * @param _newShareholder buyer address\n    * @param _amount amount of shares\n    * @return new status\n    */\n    function addLoanshareholders(address _newShareholder, uint _amount) external nonReentrant returns (uint) {\n        require(isShareholder(msg.sender), \"!shareholder\");\n        uint shPlace = getShareholderPlace(msg.sender);\n        require(shPlace > 0, \"!shPlace\");\n        require(shareholders[shPlace].shares >= _amount, \"!enoughShares\");\n        //before shares could be selled, interests of all shareholders must be withdrawn with old shares amount, in order to start with a new situation\n        require(block.number > loanActiveBlock + loanParams.earlySettlementWindow, \"earlyWindow\");\n        uint interestsAmount = getAccruedInterests();\n        for (uint8 i = 1; i <= shareholdersCounter; i++) {\n            shareholderWithdrawInterests(shareholders[i].holder, interestsAmount);\n        }\n\n        shareholders[shPlace].shares = shareholders[shPlace].shares.sub(_amount);\n        if(!isShareholder(_newShareholder)) {\n            shareholdersCounter = shareholdersCounter.add(1);\n            shareholders[shareholdersCounter] = Shareholder({holder: _newShareholder, shares: _amount, ownerBlockNumber: block.number});\n            shareholdersAddress[_newShareholder] = true;\n            shareholdersPlace[_newShareholder] = shareholdersCounter;\n        } else {\n            uint shPlaceNew = getShareholderPlace(_newShareholder);\n            shareholders[shPlaceNew].shares = shareholders[shPlaceNew].shares.add(_amount);\n            shareholders[shPlaceNew].ownerBlockNumber = block.number;\n            emit AddShareholderShares(_newShareholder, _amount);\n        }\n\n        lastInterestWithdrawalBlock = block.number;\n        uint status = setLoanStatusOnCollRatio();\n        return status;\n    }\n}\n",
  "sourcePath": "C:\\Users\\saurabh\\code\\Jibrel\\defi-smartcontracts\\LoansFactoryV1\\contracts\\JLoanEth.sol",
  "compiler": {
    "name": "solc",
    "version": "0.6.11+commit.5ef660b1.Emscripten.clang"
  },
  "schemaVersion": "3.3.1",
  "updatedAt": "2020-10-22T17:59:23.830Z",
  "networkType": "ethereum",
  "devdoc": {
    "kind": "dev",
    "methods": {
      "addLoanshareholders(address,uint256)": {
        "details": "add shareholder in shareholders arrays",
        "params": {
          "_amount": "amount of shares",
          "_newShareholder": "buyer address"
        },
        "returns": {
          "_0": "new status"
        }
      },
      "calcDiffCollAmountForRatio(uint256)": {
        "details": "calc how much collateral amount has to be added to have a ratio",
        "params": {
          "_ratio": "ratio to reach, percentage with no decimals (180 means 180%)"
        },
        "returns": {
          "collDiff": "collateral amount to add or to subtract to reach that ratio"
        }
      },
      "calcRatioAddingCollateral(uint256)": {
        "details": "calc a new ratio if collateral amount has added to contract balance",
        "params": {
          "_amount": "collateral amount to add"
        },
        "returns": {
          "ratio": "new collateral ratio, percentage with no decimals"
        }
      },
      "calculatingAccruedInterests(uint256)": {
        "details": "calculate accrued interests of the contract",
        "returns": {
          "_0": "accrued interests"
        }
      },
      "checkEarlySettledLoan()": {
        "details": "check if loan is settled in early settlement period",
        "returns": {
          "_0": "boolean"
        }
      },
      "checkLoanInEarlySettlementWindow()": {
        "details": "check if loan is in early settlement period",
        "returns": {
          "_0": "boolean"
        }
      },
      "getAccruedInterests()": {
        "details": "get accrued interests of the contract",
        "returns": {
          "accruedInterests": "total accrued interests"
        }
      },
      "getActualCollateralRatio()": {
        "details": "get the collateral ratio of the loan (subtracting the accrued interests)",
        "returns": {
          "newCollRatio": "collateral ratio"
        }
      },
      "getContractBalance()": {
        "details": "get contract balance",
        "returns": {
          "_0": "balance"
        }
      },
      "getLoanStatus()": {
        "details": "get contract status",
        "returns": {
          "_0": "status"
        }
      },
      "getPairDecimals()": {
        "details": "get pair decimals",
        "returns": {
          "_0": "number of decimals"
        }
      },
      "getPairPrice()": {
        "details": "get pair price",
        "returns": {
          "_0": "price"
        }
      },
      "getShareholderPlace(address)": {
        "details": "get a shareholder place in shareholders array",
        "returns": {
          "_0": "boolean"
        }
      },
      "initiateLoanForeclose()": {
        "details": "set the loan in foreclosure state for undercollateralized loans"
      },
      "isShareholder(address)": {
        "details": "check if an address is a shareholder",
        "returns": {
          "_0": "boolean"
        }
      },
      "lenderSendStableCoins(address)": {
        "details": "lender sends required stable coins to borrower and set the initial lender as a stakeholder (100%)",
        "params": {
          "_stableAddr": ", address of the stabl coin address"
        }
      },
      "loanClosingByBorrower()": {
        "details": "settle the loan in normal closing state by borrower"
      },
      "setInitalCollateralRatio()": {
        "details": "set initial collateral ratio of the loan"
      },
      "setLoanCancelled()": {
        "details": "set the loan in cancelled state (only if pending)"
      },
      "setLoanInForeclosedByTime()": {
        "details": "set the loan in foreclosed state when foreclosureWindow time passed"
      },
      "setLoanStatusOnCollRatio()": {
        "details": "set the status of the loan based on collateral ratio, applied only in states allowed ",
        "returns": {
          "_0": "loan status"
        }
      },
      "setNewCommonParams()": {
        "details": "set common parameters in loan contract, reading them from factory"
      },
      "setNewFeesParams()": {
        "details": "set common parameters in loan contract, reading them from factory"
      },
      "withdrawCollateral(uint256)": {
        "details": "withdraw ethers from contract, every shareholder with his percentage"
      },
      "withdrawInterests()": {
        "details": "withdraw accreud interests for all shareholders and set the status after interests withdrawal",
        "returns": {
          "_0": "new status"
        }
      }
    },
    "version": 1
  },
  "userdoc": {
    "kind": "user",
    "methods": {},
    "version": 1
  }
}