{
  "contractName": "JLoanDeployer",
  "abi": [
    {
      "inputs": [],
      "stateMutability": "nonpayable",
      "type": "constructor"
    },
    {
      "anonymous": false,
      "inputs": [
        {
          "indexed": true,
          "internalType": "address",
          "name": "previousOwner",
          "type": "address"
        },
        {
          "indexed": true,
          "internalType": "address",
          "name": "newOwner",
          "type": "address"
        }
      ],
      "name": "OwnershipTransferred",
      "type": "event"
    },
    {
      "inputs": [],
      "name": "loanParams",
      "outputs": [
        {
          "internalType": "uint256",
          "name": "minRpbRate",
          "type": "uint256"
        },
        {
          "internalType": "uint256",
          "name": "earlySettlementWindow",
          "type": "uint256"
        },
        {
          "internalType": "uint256",
          "name": "foreclosureWindow",
          "type": "uint256"
        },
        {
          "internalType": "uint8",
          "name": "requiredCollateralRatio",
          "type": "uint8"
        },
        {
          "internalType": "uint8",
          "name": "foreclosingRatio",
          "type": "uint8"
        },
        {
          "internalType": "uint8",
          "name": "instantForeclosureRatio",
          "type": "uint8"
        },
        {
          "internalType": "uint8",
          "name": "limitCollRatioForWithdraw",
          "type": "uint8"
        },
        {
          "internalType": "address",
          "name": "factoryAddress",
          "type": "address"
        },
        {
          "internalType": "address",
          "name": "pairLoanDeployerAddress",
          "type": "address"
        },
        {
          "internalType": "address",
          "name": "pairPriceOracleAddress",
          "type": "address"
        },
        {
          "internalType": "uint8",
          "name": "collDecimals",
          "type": "uint8"
        },
        {
          "internalType": "uint8",
          "name": "lendDecimals",
          "type": "uint8"
        },
        {
          "internalType": "uint256",
          "name": "pairId",
          "type": "uint256"
        }
      ],
      "stateMutability": "view",
      "type": "function",
      "constant": true
    },
    {
      "inputs": [],
      "name": "owner",
      "outputs": [
        {
          "internalType": "address",
          "name": "",
          "type": "address"
        }
      ],
      "stateMutability": "view",
      "type": "function",
      "constant": true
    },
    {
      "inputs": [],
      "name": "renounceOwnership",
      "outputs": [],
      "stateMutability": "nonpayable",
      "type": "function"
    },
    {
      "inputs": [
        {
          "internalType": "address",
          "name": "newOwner",
          "type": "address"
        }
      ],
      "name": "transferOwnership",
      "outputs": [],
      "stateMutability": "nonpayable",
      "type": "function"
    },
    {
      "inputs": [
        {
          "internalType": "address",
          "name": "_factAddr",
          "type": "address"
        }
      ],
      "name": "setLoanFactory",
      "outputs": [],
      "stateMutability": "nonpayable",
      "type": "function"
    },
    {
      "inputs": [
        {
          "internalType": "uint256",
          "name": "_pairId",
          "type": "uint256"
        },
        {
          "internalType": "address",
          "name": "_factAddr",
          "type": "address"
        },
        {
          "internalType": "address",
          "name": "_collToken",
          "type": "address"
        },
        {
          "internalType": "address",
          "name": "_lendToken",
          "type": "address"
        }
      ],
      "name": "deployNewLoanContract",
      "outputs": [
        {
          "internalType": "address",
          "name": "",
          "type": "address"
        }
      ],
      "stateMutability": "nonpayable",
      "type": "function"
    },
    {
      "inputs": [
        {
          "internalType": "address",
          "name": "_feeColl",
          "type": "address"
        }
      ],
      "name": "setFeesCollector",
      "outputs": [],
      "stateMutability": "nonpayable",
      "type": "function"
    },
    {
      "inputs": [],
      "name": "getFeesCollector",
      "outputs": [
        {
          "internalType": "address",
          "name": "",
          "type": "address"
        }
      ],
      "stateMutability": "view",
      "type": "function",
      "constant": true
    }
  ],
  "bytecode": "0x608060405234801561001057600080fd5b5060006100246001600160e01b0361007316565b600080546001600160a01b0319166001600160a01b0383169081178255604051929350917f8be0079c531659141344cd1fd0a4f28419497f9722a3daafe3b4186f6b6457e0908290a350610077565b3390565b615b1d806100866000396000f3fe60806040523480156200001157600080fd5b5060043610620000945760003560e01c80638da5cb5b11620000635780638da5cb5b146200010157806392f26f05146200011a578063bca4698c1462000131578063f2fde38b146200013b5762000094565b806309e94d981462000099578063373071f214620000c7578063715018a614620000e057806386a3199814620000ea575b600080fd5b620000a362000152565b604051620000be9d9c9b9a999897969594939291906200061a565b60405180910390f35b620000de620000d8366004620004ac565b620001b9565b005b620000de6200021e565b620000de620000fb366004620004ac565b620002a2565b6200010b6200030a565b604051620000be91906200053b565b6200010b6200012b366004620004d1565b62000319565b6200010b620003af565b620000de6200014c366004620004ac565b620003be565b60025460035460045460055460065460075460085460ff808516946101008104821694620100008204831694630100000083048416946001600160a01b0364010000000090940484169492841693821692600160a01b8304811692600160a81b900416908d565b620001c36200047c565b6000546001600160a01b03908116911614620001fc5760405162461bcd60e51b8152600401620001f390620005b7565b60405180910390fd5b600180546001600160a01b0319166001600160a01b0392909216919091179055565b620002286200047c565b6000546001600160a01b03908116911614620002585760405162461bcd60e51b8152600401620001f390620005b7565b600080546040516001600160a01b03909116907f8be0079c531659141344cd1fd0a4f28419497f9722a3daafe3b4186f6b6457e0908390a3600080546001600160a01b0319169055565b620002ac6200047c565b6000546001600160a01b03908116911614620002dc5760405162461bcd60e51b8152600401620001f390620005b7565b600580546001600160a01b0390921664010000000002640100000000600160c01b0319909216919091179055565b6000546001600160a01b031690565b60055460009064010000000090046001600160a01b03163314620003515760405162461bcd60e51b8152600401620001f39062000595565b60015460405160009187918791879187916001600160a01b031690620003779062000480565b62000387959493929190620005ec565b604051809103906000f080158015620003a4573d6000803e3d6000fd5b509695505050505050565b6001546001600160a01b031690565b620003c86200047c565b6000546001600160a01b03908116911614620003f85760405162461bcd60e51b8152600401620001f390620005b7565b6001600160a01b038116620004215760405162461bcd60e51b8152600401620001f3906200054f565b600080546040516001600160a01b03808516939216917f8be0079c531659141344cd1fd0a4f28419497f9722a3daafe3b4186f6b6457e091a3600080546001600160a01b0319166001600160a01b0392909216919091179055565b3390565b61542e80620006ba83390190565b80356001600160a01b0381168114620004a657600080fd5b92915050565b600060208284031215620004be578081fd5b620004ca83836200048e565b9392505050565b60008060008060808587031215620004e7578283fd5b84359350620004fa86602087016200048e565b92506200050b86604087016200048e565b91506200051c86606087016200048e565b905092959194509250565b6001600160a01b03169052565b60ff169052565b6001600160a01b0391909116815260200190565b60208082526026908201527f4f776e61626c653a206e6577206f776e657220697320746865207a65726f206160408201526564647265737360d01b606082015260800190565b60208082526008908201526721666163746f727960c01b604082015260600190565b6020808252818101527f4f776e61626c653a2063616c6c6572206973206e6f7420746865206f776e6572604082015260600190565b9485526001600160a01b03938416602086015291831660408501528216606084015216608082015260a00190565b8d8152602081018d9052604081018c905260ff8b811660608301528a8116608083015289811660a0830152881660c08201526001600160a01b03871660e08201526101a081016200067061010083018862000527565b6200068061012083018762000527565b6200069061014083018662000534565b620006a061016083018562000534565b826101808301529e9d505050505050505050505050505056fe60806040526040516200542e3803806200542e8339810160408190526200002691620008a0565b60006200003b6001600160e01b036200055416565b600080546001600160a01b0319166001600160a01b0383169081178255604051929350917f8be0079c531659141344cd1fd0a4f28419497f9722a3daafe3b4186f6b6457e0908290a35060018081905550836001600160a01b0316634fd758796040518163ffffffff1660e01b81526004016101a06040518083038186803b158015620000c757600080fd5b505afa158015620000dc573d6000803e3d6000fd5b505050506040513d601f19601f8201168201806040525081019062000102919062000792565b8051600b556020810151600c55604080820151600d556060820151600e8054608085015160a086015160c087015160e08089015160ff1990951660ff9788161761ff00191661010094881685021762ff0000191662010000938816939093029290921763ff000000191663010000009187169190910217600160201b600160c01b0319166401000000006001600160a01b039485160217909355850151600f80546001600160a01b0319908116928416929092179055610120860151601080546101408901516101608a0151919094169285169290921760ff60a01b1916600160a01b938716939093029290921760ff60a81b1916600160a81b919095160293909317909255610180909301516011558151631a55d9e960e01b8152915190871692631a55d9e99260048082019391829003018186803b1580156200024657600080fd5b505afa1580156200025b573d6000803e3d6000fd5b505050506040513d601f19601f82011682018060405250810190620002819190620006f1565b80516012556020810151601380546040808501516060860151608087015160a088015160c09098015160ff1990951660ff9788161761ff001916610100938816939093029290921762ff0000191662010000918716919091021763ff0000001916630100000095909116949094029390931761ffff60201b191664010000000061ffff958616021761ffff60301b191666010000000000009490911693909302929092179091556010549051636549bf5360e11b81526001600160a01b039091169063ca937ea690620003599088906004016200092f565b60006040518083038186803b1580156200037257600080fd5b505afa15801562000387573d6000803e3d6000fd5b505050506040513d6000823e601f3d908101601f19168201604052620003b191908101906200063e565b8051620003c79160099160209091019062000559565b50600280546001600160a01b038084166001600160a01b031992831617909255600780548684169083161790556008805485841692169190911790556011869055601054604051630404ea8960e21b8152911690631013aa2490620004319088906004016200092f565b60206040518083038186803b1580156200044a57600080fd5b505afa1580156200045f573d6000803e3d6000fd5b505050506040513d601f19601f820116820180604052508101906200048591906200090a565b6010805460ff92909216600160a01b0260ff60a01b199092169190911790819055604051633e17bdcb60e11b81526001600160a01b0390911690637c2f7b9690620004d59088906004016200092f565b60206040518083038186803b158015620004ee57600080fd5b505afa15801562000503573d6000803e3d6000fd5b505050506040513d601f19601f820116820180604052508101906200052991906200090a565b6010805460ff92909216600160a81b0260ff60a81b19909216919091179055506200095f9350505050565b335b90565b828054600181600116156101000203166002900490600052602060002090601f016020900481019282601f106200059c57805160ff1916838001178555620005cc565b82800160010185558215620005cc579182015b82811115620005cc578251825591602001919060010190620005af565b50620005da929150620005de565b5090565b6200055691905b80821115620005da5760008155600101620005e5565b80516001600160a01b03811681146200061357600080fd5b92915050565b805161ffff811681146200061357600080fd5b805160ff811681146200061357600080fd5b6000602080838503121562000651578182fd5b82516001600160401b038082111562000668578384fd5b81850186601f8201126200067a578485fd5b80519250818311156200068b578485fd5b6200069f601f8401601f1916850162000938565b91508282528684848301011115620006b5578485fd5b845b83811015620006d4578181018501518382018601528401620006b7565b83811115620006e557858585850101525b50909695505050505050565b600060e0828403121562000703578081fd5b6200070f60e062000938565b825181526200072284602085016200062c565b60208201526200073684604085016200062c565b60408201526200074a84606085016200062c565b60608201526200075e84608085016200062c565b6080820152620007728460a0850162000619565b60a0820152620007868460c0850162000619565b60c08201529392505050565b60006101a0808385031215620007a6578182fd5b620007b18162000938565b835181526020840151602082015260408401516040820152620007d885606086016200062c565b6060820152620007ec85608086016200062c565b6080820152620008008560a086016200062c565b60a0820152620008148560c086016200062c565b60c0820152620008288560e08601620005fb565b60e082015261010091506200084085838601620005fb565b8282015261012091506200085785838601620005fb565b8282015261014091506200086e858386016200062c565b82820152610160915062000885858386016200062c565b91810191909152610180928301519281019290925250919050565b600080600080600060a08688031215620008b8578081fd5b85519450620008cb8760208801620005fb565b9350620008dc8760408801620005fb565b9250620008ed8760608801620005fb565b9150620008fe8760808801620005fb565b90509295509295909350565b6000602082840312156200091c578081fd5b6200092883836200062c565b9392505050565b90815260200190565b6040518181016001600160401b03811182821017156200095757600080fd5b604052919050565b614abf806200096f6000396000f3fe60806040526004361061038c5760003560e01c80638da5cb5b116101dc578063db954efd11610102578063ec13db27116100a0578063f2fde38b1161006f578063f2fde38b14610a7c578063f699f10714610a9c578063fcb37bd814610abc578063fd11a90214610adc5761038c565b8063ec13db2714610a07578063ec7014fe14610a27578063f0435b1414610a47578063f0ad5fd814610a5c5761038c565b8063e4b4de8d116100dc578063e4b4de8d14610992578063e5525536146109b2578063e936e44a146109d2578063eaad7971146109e75761038c565b8063db954efd14610930578063dcc9e14e14610950578063e1c7111a1461097d5761038c565b8063bf5d50c41161017a578063c975fab411610149578063c975fab4146108b0578063d2a66d97146108d0578063d4cb74fc146108f0578063d89fbac4146109105761038c565b8063bf5d50c414610839578063c028eeb014610859578063c6e52d2b1461087b578063c95669a51461089b5761038c565b8063a42979d7116101b6578063a42979d7146107c4578063a4c924d5146107e4578063a89c542314610804578063b2016bd4146108245761038c565b80638da5cb5b14610778578063918c3dbd1461079a5780639cf160f6146107af5761038c565b8063378ef1ef116102c15780636e4ae18f1161025f5780637511d17a1161022e5780637511d17a146106e9578063767a7b051461071857806385b6f2e3146107385780638c6d00fa146107585761038c565b80636e4ae18f1461067f5780636f9fb98a1461069f578063715018a6146106b457806374275f93146106c95761038c565b8063470876ea1161029b578063470876ea146105fe5780635586f0391461061e5780635a9f4d851461064c5780635d2c45c01461066c5761038c565b8063378ef1ef1461059c5780633872f2ad146105c957806342ac3379146105e95761038c565b8063216c24901161032e5780632eccd204116103085780632eccd2041461051c5780632f20a5e71461053c57806333e289311461055c57806336a250971461057c5761038c565b8063216c2490146104a5578063249e4bb0146104cd57806324ddf1e2146104fc5761038c565b8063106f313b1161036a578063106f313b1461043057806316b673211461045057806317c54a65146104705780631c4fd41c146104855761038c565b80630154eeca146103ba5780630412739f146103f05780630b89616714610410575b34801561039857600080fd5b5060405162461bcd60e51b81526004016103b190614734565b60405180910390fd5b3480156103c657600080fd5b506103da6103d536600461413f565b610afc565b6040516103e791906148cf565b60405180910390f35b3480156103fc57600080fd5b506103da61040b3660046141d5565b610b0e565b34801561041c57600080fd5b506103da61042b3660046141d5565b610c70565b34801561043c57600080fd5b506103da61044b36600461413f565b610cd6565b34801561045c57600080fd5b506103da61046b36600461413f565b610ce8565b61048361047e36600461413f565b610cfa565b005b34801561049157600080fd5b506103da6104a036600461413f565b610e3f565b3480156104b157600080fd5b506104ba610e64565b6040516103e797969594939291906149b7565b3480156104d957600080fd5b506104ed6104e83660046141d5565b610ea4565b6040516103e7939291906142e4565b34801561050857600080fd5b506103da61051736600461413f565b610eda565b34801561052857600080fd5b506103da61053736600461413f565b61103a565b34801561054857600080fd5b506103da61055736600461413f565b611288565b34801561056857600080fd5b506103da61057736600461413f565b61129a565b34801561058857600080fd5b5061048361059736600461413f565b6112ac565b3480156105a857600080fd5b506105bc6105b736600461416f565b611488565b6040516103e79190614305565b3480156105d557600080fd5b506103da6105e436600461413f565b6114a6565b3480156105f557600080fd5b506103da6114b8565b34801561060a57600080fd5b5061048361061936600461413f565b611541565b34801561062a57600080fd5b50610633611767565b6040516103e79d9c9b9a99989796959493929190614920565b34801561065857600080fd5b506103da61066736600461416f565b6117cd565b61048361067a3660046141d5565b6117f5565b34801561068b57600080fd5b5061048361069a36600461416f565b611afc565b3480156106ab57600080fd5b506103da611f64565b3480156106c057600080fd5b50610483612005565b3480156106d557600080fd5b506103da6106e436600461419e565b612084565b3480156106f557600080fd5b5061070961070436600461413f565b6123ce565b6040516103e7939291906148fc565b34801561072457600080fd5b506104836107333660046141d5565b6123ef565b34801561074457600080fd5b506103da61075336600461413f565b61256e565b34801561076457600080fd5b506103da61077336600461413f565b612580565b34801561078457600080fd5b5061078d612592565b6040516103e79190614279565b3480156107a657600080fd5b506104836125a1565b3480156107bb57600080fd5b5061078d6126ff565b3480156107d057600080fd5b506105bc6107df36600461413f565b61270e565b3480156107f057600080fd5b506103da6107ff36600461413f565b612970565b34801561081057600080fd5b506103da61081f36600461413f565b612a9c565b34801561083057600080fd5b5061078d612aae565b34801561084557600080fd5b506105bc610854366004613f7c565b612abd565b34801561086557600080fd5b5061086e612ad2565b6040516103e79190614324565b34801561088757600080fd5b506103da61089636600461413f565b612b60565b3480156108a757600080fd5b506103da612b72565b3480156108bc57600080fd5b506103da6108cb36600461413f565b612b78565b3480156108dc57600080fd5b5061078d6108eb36600461413f565b612b8a565b3480156108fc57600080fd5b5061048361090b3660046141d5565b612ba5565b34801561091c57600080fd5b506103da61092b36600461416f565b612c0d565b34801561093c57600080fd5b5061048361094b36600461413f565b612c2a565b34801561095c57600080fd5b5061097061096b36600461413f565b612c6c565b6040516103e79190614310565b34801561098957600080fd5b5061078d612c81565b34801561099e57600080fd5b506105bc6109ad36600461416f565b612c90565b3480156109be57600080fd5b506103da6109cd3660046141f6565b612cb9565b3480156109de57600080fd5b506103da612e14565b3480156109f357600080fd5b50610483610a0236600461419e565b612e9f565b348015610a1357600080fd5b506105bc610a2236600461413f565b6130b9565b348015610a3357600080fd5b506103da610a4236600461413f565b6130e1565b348015610a5357600080fd5b506104836130f3565b348015610a6857600080fd5b506105bc610a7736600461413f565b6132c0565b348015610a8857600080fd5b50610483610a97366004613f7c565b613302565b348015610aa857600080fd5b506103da610ab736600461413f565b6133b8565b348015610ac857600080fd5b506103da610ad736600461413f565b6133ca565b348015610ae857600080fd5b50610483610af736600461413f565b6134f4565b60186020526000908152604090205481565b600080610b196114b8565b90506000610b25612e14565b600086815260066020526040812054919250610b40876133b8565b90506000610b68600a85900a610b5c858a63ffffffff6138d116565b9063ffffffff6138d116565b90506000610b7d86606463ffffffff6138d116565b60105490915060009060ff600160a81b82048116600160a01b9092041610610bf057601054600090610bc29060ff600160a01b8204811691600160a81b90041661390b565b9050610be883610bdc86600a85900a63ffffffff6138d116565b9063ffffffff61394d16565b915050610c31565b601054600090610c139060ff600160a81b8204811691600160a01b90041661390b565b9050610c2d600a82900a610bdc868663ffffffff61394d16565b9150505b838110610c4f57610c48818563ffffffff61390b16565b9750610c62565b610c5f848263ffffffff61390b16565b97505b505050505050505b92915050565b6000828152601c6020526040812054821015610c9e5760405162461bcd60e51b81526004016103b19061475f565b600083815260146020908152604080832054601c90925290912054610ccf9190610b5c90859063ffffffff61390b16565b9392505050565b60196020526000908152604090205481565b601b6020526000908152604090205481565b60026001541415610d1d5760405162461bcd60e51b81526004016103b190614841565b60026001556007546001600160a01b031615610d4b5760405162461bcd60e51b81526004016103b1906147af565b600160008281526015602052604090205460ff166009811115610d6a57fe5b10158015610d955750600460008281526015602052604090205460ff166009811115610d9257fe5b11155b610db15760405162461bcd60e51b81526004016103b19061460e565b600081815260056020526040902054610dd0903463ffffffff61398f16565b60008281526005602090815260408083209390935560179052908120439055610df8826133ca565b90507fb5fc3d506c41cd40561721384de79a1f60100fa35772ca7e200e100cabba7cee82333484604051610e2f94939291906148d8565b60405180910390a1505060018055565b60008181526015602052604081205460ff166009811115610e5c57fe5b90505b919050565b60125460135460ff808216916101008104821691620100008204811691630100000081049091169061ffff600160201b8204811691600160301b90041687565b601f6020908152600092835260408084209091529082529020805460018201546002909201546001600160a01b03909116919083565b600080610ee56114b8565b90506000610ef1612e14565b6000858152600660205260408120549192508060008781526015602052604090205460ff166009811115610f2157fe5b1415610f3757610f30866133b8565b9050610f5b565b610f58610f4387612970565b610f4c886133b8565b9063ffffffff61390b16565b90505b6000610f726064610b5c848863ffffffff6138d116565b90506000610f8a84600a87900a63ffffffff6138d116565b60105490915060ff600160a81b82048116600160a01b9092041610610fee57601054600090610fcc9060ff600160a01b8204811691600160a81b90041661390b565b9050610fe6600a82900a610bdc858563ffffffff61394d16565b97505061102f565b6010546000906110119060ff600160a81b8204811691600160a01b90041661390b565b905061102b82610bdc85600a85900a63ffffffff6138d116565b9750505b505050505050919050565b60006002600154141561105f5760405162461bcd60e51b81526004016103b190614841565b600260015560008281526015602052604081205460ff16600981111561108157fe5b1180156110ab575060008281526015602052604090205460089060ff1660098111156110a957fe5b105b6110c75760405162461bcd60e51b81526004016103b19061452c565b60008281526015602052604081205460ff1660098111156110e457fe5b6000848152600560205260408120549192506110ff85612970565b90508082106111885760015b60008681526022602052604090205460ff82161161115d576000868152601f6020908152604080832060ff851684529091529020546111559087906001600160a01b0316846139b4565b60010161110b565b506000858152601c602052604090204390556003831161118357611180856133ca565b92505b611243565b8115801561119b575061119b8533612c90565b156111aa576111838584613ad3565b60015b60008681526022602052604090205460ff8216116111ff576000868152601f6020908152604080832060ff851684529091529020546111f79087906001600160a01b0316856139b4565b6001016111ad565b506000858152601c602090815260408083204390819055601b83528184205560159091529020805460ff19166008179081905560ff16600981111561124057fe5b92505b7fdec1686054df57da892459d2ee005662e0454e2a360400e54fab99d3c383b28c8582604051611274929190614912565b60405180910390a150506001805592915050565b60176020526000908152604090205481565b601e6020526000908152604090205481565b600260015414156112cf5760405162461bcd60e51b81526004016103b190614841565b60026001556000818152600460205260409020546001600160a01b0316331461130a5760405162461bcd60e51b81526004016103b190614509565b60008181526015602052604090205460ff16600981111561132757fe5b156113445760405162461bcd60e51b81526004016103b1906143d3565b60008181526005602052604081205460135490919061137590606490610bdc9085906301000000900460ff166138d1565b90506000611389838363ffffffff61390b16565b6000858152601560209081526040808320805460ff1916600917905560059091529020549091506113c0908390610f4c908461390b565b6000858152600560205260409020556007546001600160a01b0316611404576002546113f5906001600160a01b031683613b4d565b6113ff3382613b4d565b611438565b600754600254611421916001600160a01b03908116911684613bdf565b600754611438906001600160a01b03163383613bdf565b600084815260156020526040812054600080516020614a6a83398151915291869160ff16600981111561146757fe5b604051611476939291906148fc565b60405180910390a15050600180555050565b60208080526000928352604080842090915290825290205460ff1681565b60066020526000908152604090205481565b601054601154604051631334f8cd60e11b81526000926001600160a01b031691632669f19a916114eb91906004016148cf565b60206040518083038186803b15801561150357600080fd5b505afa158015611517573d6000803e3d6000fd5b505050506040513d601f19601f8201168201806040525081019061153b9190614157565b90505b90565b600260015414156115645760405162461bcd60e51b81526004016103b190614841565b60026001556000611574826133ca565b905080600214806115855750806003145b6115a15760405162461bcd60e51b81526004016103b190614445565b600081600214156115e5576000838152601460205260409020546013546115d491600160201b90910461ffff16906138d1565b90506115e08383613ccd565b611619565b60008381526014602052604090205460135461160d91600160301b90910461ffff16906138d1565b90506116198383613d16565b6000838152600560209081526040808320546019909252822043905590808383106116835760135461165b90606490610bdc908790610100900460ff166138d1565b60135490925061167c90606490610bdc90879062010000900460ff166138d1565b90506116be565b6013546116a090606490610bdc908690610100900460ff166138d1565b91506116b2838363ffffffff61390b16565b90506116be8686613ad3565b6000868152600560205260409020546116e3908290610f4c908563ffffffff61390b16565b6000878152600560205260409020556007546001600160a01b03166117275761170c3383613b4d565b600254611722906001600160a01b031682613b4d565b61175b565b60075461173e906001600160a01b03163384613bdf565b60075460025461175b916001600160a01b03908116911683613bdf565b50506001805550505050565b600b54600c54600d54600e54600f5460105460115460ff808516946101008104821694620100008204831694630100000083048416946001600160a01b03600160201b90940484169492841693821692600160a01b8304811692600160a81b900416908d565b60009182526021602090815260408084206001600160a01b0393909316845291905290205490565b600260015414156118185760405162461bcd60e51b81526004016103b190614841565b6002600155600b5481101561183f5760405162461bcd60e51b81526004016103b1906145eb565b3361185c5760405162461bcd60e51b81526004016103b1906147f3565b600e546011546040516310f15c6760e21b8152600092600160201b90046001600160a01b0316916343c5719c9161189891908790600401614912565b60206040518083038186803b1580156118b057600080fd5b505afa1580156118c4573d6000803e3d6000fd5b505050506040513d601f19601f820116820180604052508101906118e89190614157565b60075490915060009081906001600160a01b031661192857349150828210156119235760405162461bcd60e51b81526004016103b1906144ae565b6119cf565b600754604051636eb1769f60e11b81528493506001600160a01b039091169063dd62ed3e9061195d903390309060040161428d565b60206040518083038186803b15801561197557600080fd5b505afa158015611989573d6000803e3d6000fd5b505050506040513d601f19601f820116820180604052508101906119ad9190614157565b9050828110156119cf5760405162461bcd60e51b81526004016103b190614710565b3360008181526003602090815260408083208054600160ff199182168117909255600a805486526004855283862080546001600160a01b03191690971790965585548552600584528285208890558554855260148085528386208b905586548652600685528386208c9055865486528452828520436002909101558554855260159093529220805490911690559054611a679161398f565b600a8190556000818152601560205260409020547fb5fc3d506c41cd40561721384de79a1f60100fa35772ca7e200e100cabba7cee91903390859060ff166009811115611ab057fe5b604051611ac094939291906148d8565b60405180910390a16007546001600160a01b031615611af157600754611af1906001600160a01b0316333086613d43565b505060018055505050565b60026001541415611b1f5760405162461bcd60e51b81526004016103b190614841565b60026001556008546001600160a01b03828116911614611b515760405162461bcd60e51b81526004016103b19061481f565b60008281526015602052604081205460ff166009811115611b6e57fe5b14611b8b5760405162461bcd60e51b81526004016103b1906143d3565b6000611b9683610eda565b600e549091506301000000900460ff16811015611bc55760405162461bcd60e51b81526004016103b190614878565b600854604051636eb1769f60e11b81526000916001600160a01b03169063dd62ed3e90611bf8903390309060040161428d565b60206040518083038186803b158015611c1057600080fd5b505afa158015611c24573d6000803e3d6000fd5b505050506040513d601f19601f82011682018060405250810190611c489190614157565b600085815260066020526040902054909150811015611c795760405162461bcd60e51b81526004016103b190614710565b6000848152602260209081526040808320600180825582516060810184523380825260648287019081528b88526016875285882080548488019081528d8a52601f8952878a20868b528952878a20945185546001600160a01b0319166001600160a01b03918216178655925185870155516002909401939093558b88528680528588208289528752858820805460ff1990811686179091558c8952945460218852868920928952918752858820919091558a87526015865284872080549094169092179092554391829055601c845282852091909155600e54601154600690945282852054925163c175771b60e01b8152600160201b9091049091169263c175771b92611d8892600401614912565b60206040518083038186803b158015611da057600080fd5b505afa158015611db4573d6000803e3d6000fd5b505050506040513d601f19601f82011682018060405250810190611dd89190614157565b600e54604051632976f2fb60e11b8152919250600091600160201b9091046001600160a01b0316906352ede5f690611e149085906004016148cf565b60206040518083038186803b158015611e2c57600080fd5b505afa158015611e40573d6000803e3d6000fd5b505050506040513d601f19601f82011682018060405250810190611e649190614157565b600087815260056020526040902054909150611e86908263ffffffff61390b16565b600087815260056020908152604080832093909355600854600482528383205460069092529290912054611eca926001600160a01b03908116923392911690613d43565b6007546001600160a01b0316611ef557600254611ef0906001600160a01b031682613b4d565b611f12565b600754600254611f12916001600160a01b03908116911683613bdf565b600086815260156020526040812054600080516020614a6a83398151915291889160ff166009811115611f4157fe5b604051611f50939291906148fc565b60405180910390a150506001805550505050565b6007546000906001600160a01b0316611f7e57504761153e565b6007546040516370a0823160e01b81526001600160a01b03909116906370a0823190611fae903090600401614279565b60206040518083038186803b158015611fc657600080fd5b505afa158015611fda573d6000803e3d6000fd5b505050506040513d601f19601f82011682018060405250810190611ffe9190614157565b905061153e565b61200d613e34565b6000546001600160a01b0390811691161461203a5760405162461bcd60e51b81526004016103b1906146db565b600080546040516001600160a01b03909116907f8be0079c531659141344cd1fd0a4f28419497f9722a3daafe3b4186f6b6457e0908390a3600080546001600160a01b0319169055565b6000600260015414156120a95760405162461bcd60e51b81526004016103b190614841565b60026001556120b88433612c90565b6120d45760405162461bcd60e51b81526004016103b19061441f565b60006120e085336117cd565b9050600081116121025760405162461bcd60e51b81526004016103b1906147d1565b6000858152601f6020908152604080832084845290915290206001015483111561213e5760405162461bcd60e51b81526004016103b1906145c4565b600c5460008681526016602052604090205401431161216f5760405162461bcd60e51b81526004016103b19061478a565b600061217a86612970565b905060015b60008781526022602052604090205460ff8216116121d1576000878152601f6020908152604080832060ff851684529091529020546121c99088906001600160a01b0316846139b4565b60010161217f565b506000868152601f602090815260408083208584529091529020600101546121ff908563ffffffff61390b16565b6000878152601f602090815260408083208684529091529020600101556122268686612c90565b6122f75760008681526022602052604090205461224a90600163ffffffff61398f16565b600087815260226020908152604080832084815581516060810183526001600160a01b038b81168083528286018c8152438487019081528f8952601f8852868920998952988752858820935184546001600160a01b0319169316929092178355905160018084019190915596516002909201919091558b85528380528285208186528452828520805460ff19169096179095558a84525460218352818420948452939091529020556123a5565b600061230387876117cd565b6000888152601f60209081526040808320848452909152902060010154909150612333908663ffffffff61398f16565b6000888152601f60209081526040808320858452909152908190206001810192909255436002909201919091555185906001600160a01b038816907f200a94727a4449569a7ab17cf3a0a0ad23bf65d2081ec1da2f37aaac779ac50e9061239b908b906148cf565b60405180910390a3505b6000868152601c602052604081204390556123bf876133ca565b60018055979650505050505050565b60146020526000908152604090208054600182015460029092015490919083565b600260015414156124125760405162461bcd60e51b81526004016103b190614841565b60026001556000828152600460205260409020546001600160a01b0316331461244d5760405162461bcd60e51b81526004016103b190614509565b6000612458836133ca565b9050600181111561247b5760405162461bcd60e51b81526004016103b1906146b8565b600e546000906124969085906301000000900460ff16610b0e565b9050808311156124b85760405162461bcd60e51b81526004016103b1906143b2565b6000848152600560205260409020546124d7908463ffffffff61390b16565b60008581526005602090815260408083209390935560189052819020439055517f6c0ea3bea9dd66afa8f9d39d6eb93d833466190330813b42835efc650dca4cb9906125269086908690614912565b60405180910390a16007546001600160a01b031661254d576125483384613b4d565b612564565b600754612564906001600160a01b03163385613bdf565b5050600180555050565b60166020526000908152604090205481565b601d6020526000908152604090205481565b6000546001600160a01b031690565b600e54600160201b90046001600160a01b031633146125d25760405162461bcd60e51b81526004016103b1906145a2565b600b60030160049054906101000a90046001600160a01b03166001600160a01b0316631a55d9e96040518163ffffffff1660e01b815260040160e06040518083038186803b15801561262357600080fd5b505afa158015612637573d6000803e3d6000fd5b505050506040513d601f19601f8201168201806040525081019061265b9190613fb4565b805160125560208101516013805460408401516060850151608086015160a087015160c09097015160ff1990941660ff9687161761ff001916610100938716939093029290921762ff0000191662010000918616919091021763ff0000001916630100000094909116939093029290921765ffff000000001916600160201b61ffff948516021767ffff0000000000001916600160301b9390921692909202179055565b6002546001600160a01b031681565b6000600260015414156127335760405162461bcd60e51b81526004016103b190614841565b600260015560008281526015602052604090205460ff16600981111561275557fe5b6004146127745760405162461bcd60e51b81526004016103b190614655565b6000828152601d6020526040812054158015906127b15750600d546000848152601d60205260409020546127ad9163ffffffff61398f16565b4310155b15612966576000838152601460205260408120546013546127de91600160301b90910461ffff16906138d1565b600085815260056020526040812054919250808383106128665760135461281590606490610bdc908790610100900460ff166138d1565b60135490925061283690606490610bdc90879062010000900460ff166138d1565b60008881526015602052604090205490915061286190889060ff16600981111561285c57fe5b613d16565b6128c0565b60135461288390606490610bdc908690610100900460ff166138d1565b9150612895838363ffffffff61390b16565b6000888152601560205260409020549091506128c090889060ff1660098111156128bb57fe5b613ad3565b6000878152600560205260409020546128e5908290610f4c908563ffffffff61390b16565b600088815260056020526040902055600754600195506001600160a01b031661292d576129123383613b4d565b600254612928906001600160a01b031682613b4d565b612961565b600754612944906001600160a01b03163384613bdf565b600754600254612961916001600160a01b03908116911683613bdf565b505050505b6001805592915050565b600081815260156020526040812054819060ff16600981111561298f57fe5b1180156129b9575060008281526015602052604090205460089060ff1660098111156129b757fe5b105b15612a9457600c5460008381526016602052604081205490916129e2919063ffffffff61398f16565b9050600660008481526015602052604090205460ff166009811115612a0357fe5b148015612a105750804311155b15612a2657612a1f8382610c70565b9150612a66565b6000838152601b602052604090205415612a59576000838152601b6020526040902054612a1f90849061042b9043613e38565b612a638343610c70565b91505b600083815260056020526040902054821115612a8e5760008381526005602052604090205491505b50610e5f565b506000919050565b601a6020526000908152604090205481565b6007546001600160a01b031681565b60036020526000908152604090205460ff1681565b6009805460408051602060026001851615610100026000190190941693909304601f81018490048402820184019092528181529291830182828015612b585780601f10612b2d57610100808354040283529160200191612b58565b820191906000526020600020905b815481529060010190602001808311612b3b57829003601f168201915b505050505081565b60056020526000908152604090205481565b600a5481565b60226020526000908152604090205481565b6004602052600090815260409020546001600160a01b031681565b600e54600160201b90046001600160a01b03163314612bd65760405162461bcd60e51b81526004016103b1906145a2565b806009811115612be257fe5b6000838152601560205260409020805460ff19166001836009811115612c0457fe5b02179055505050565b602160209081526000928352604080842090915290825290205481565b60008181526015602052604081205460ff166009811115612c4757fe5b1415612c6957612c5681610eda565b6000828152601460205260409020600101555b50565b60156020526000908152604090205460ff1681565b6008546001600160a01b031681565b6000918252602080805260408084206001600160a01b0393909316845291905290205460ff1690565b600080612cc46114b8565b90506000612cd0612e14565b600087815260066020526040812054919250612ceb886133b8565b905060008615612d0c57612d05828963ffffffff61398f16565b9050612d32565b81881015612d2457612d05828963ffffffff61390b16565b600095505050505050610ccf565b6000612d496064610b5c848963ffffffff6138d116565b90506000612d6185600a88900a63ffffffff6138d116565b60105490915060ff600160a81b82048116600160a01b9092041610612dc557601054600090612da39060ff600160a01b8204811691600160a81b90041661390b565b9050612dbd600a82900a610bdc858563ffffffff61394d16565b985050612e06565b601054600090612de89060ff600160a81b8204811691600160a01b90041661390b565b9050612e0282610bdc85600a85900a63ffffffff6138d116565b9850505b505050505050509392505050565b601054601154604051632bd61f0560e11b81526000926001600160a01b0316916357ac3e0a91612e4791906004016148cf565b60206040518083038186803b158015612e5f57600080fd5b505afa158015612e73573d6000803e3d6000fd5b505050506040513d601f19601f82011682018060405250810190612e97919061422e565b60ff16905090565b60026001541415612ec25760405162461bcd60e51b81526004016103b190614841565b60026001556007546001600160a01b0316612eef5760405162461bcd60e51b81526004016103b190614631565b600160008481526015602052604090205460ff166009811115612f0e57fe5b10158015612f395750600460008481526015602052604090205460ff166009811115612f3657fe5b11155b612f555760405162461bcd60e51b81526004016103b19061460e565b6007546001600160a01b03838116911614612f825760405162461bcd60e51b81526004016103b190614357565b600754604051636eb1769f60e11b81526000916001600160a01b03169063dd62ed3e90612fb5903390309060040161428d565b60206040518083038186803b158015612fcd57600080fd5b505afa158015612fe1573d6000803e3d6000fd5b505050506040513d601f19601f820116820180604052508101906130059190614157565b9050818110156130275760405162461bcd60e51b81526004016103b190614710565b600084815260056020526040902054613046908363ffffffff61398f16565b6000858152600560209081526040808320939093556017905290812043905561306e856133ca565b90507fb5fc3d506c41cd40561721384de79a1f60100fa35772ca7e200e100cabba7cee853385846040516130a594939291906148d8565b60405180910390a1611af184333086613d43565b6000600660008381526015602052604090205460ff1660098111156130da57fe5b1492915050565b601c6020526000908152604090205481565b600e54600160201b90046001600160a01b031633146131245760405162461bcd60e51b81526004016103b1906145a2565b600b60030160049054906101000a90046001600160a01b03166001600160a01b0316634fd758796040518163ffffffff1660e01b81526004016101a06040518083038186803b15801561317657600080fd5b505afa15801561318a573d6000803e3d6000fd5b505050506040513d601f19601f820116820180604052508101906131ae9190614046565b8051600b556020810151600c556040810151600d556060810151600e8054608084015160a085015160c086015160e087015160ff1990941660ff9687161761ff00191661010093871684021762ff0000191662010000928716929092029190911763ff000000191663010000009186169190910217640100000000600160c01b031916600160201b6001600160a01b03938416021790925590830151600f80546001600160a01b03199081169284169290921790556101208401516010805461014087015161016088015191909416929094169190911760ff60a01b1916600160a01b928516929092029190911760ff60a81b1916600160a81b92909316919091029190911790556101800151601155565b600c54600082815260166020526040812054909182916132e59163ffffffff61398f16565b90508043116132f8576001915050610e5f565b6000915050610e5f565b61330a613e34565b6000546001600160a01b039081169116146133375760405162461bcd60e51b81526004016103b1906146db565b6001600160a01b03811661335d5760405162461bcd60e51b81526004016103b190614468565b600080546040516001600160a01b03808516939216917f8be0079c531659141344cd1fd0a4f28419497f9722a3daafe3b4186f6b6457e091a3600080546001600160a01b0319166001600160a01b0392909216919091179055565b60009081526005602052604090205490565b600081815260156020526040812054819060ff1660098111156133e957fe5b118015613413575060008281526015602052604090205460059060ff16600981111561341157fe5b105b156134d757600061342383610eda565b600e54909150610100900460ff168110613460576000838152601560209081526040808320805460ff19166001179055601d9091528120556134d5565b600e54610100900460ff1681118015906134855750600e5462010000900460ff168110155b156134a8576000838152601560205260409020805460ff191660021790556134d5565b600e5462010000900460ff168110156134d5576000838152601560205260409020805460ff191660031790555b505b60008281526015602052604090205460ff166009811115610e5c57fe5b600260015414156135175760405162461bcd60e51b81526004016103b190614841565b60026001556000818152600460205260409020546001600160a01b031633146135525760405162461bcd60e51b81526004016103b190614509565b600061355d826133ca565b9050600081118015613570575060038111155b61358c5760405162461bcd60e51b81526004016103b19061457f565b600854604051636eb1769f60e11b81526000916001600160a01b03169063dd62ed3e906135bf903390309060040161428d565b60206040518083038186803b1580156135d757600080fd5b505afa1580156135eb573d6000803e3d6000fd5b505050506040513d601f19601f8201168201806040525081019061360f9190614157565b6000848152600660205260409020549091508110156136405760405162461bcd60e51b81526004016103b1906143f5565b600c5460008481526016602052604081205490910143101561366c5761366584613e4e565b9050613678565b61367584612970565b90505b6000600660008681526015602052604090205460ff16600981111561369957fe5b14156136c3576000858152601460205260409020546012546136c09163ffffffff6138d116565b90505b600085815260056020526040812054906136e3848463ffffffff61398f16565b6000888152601a6020908152604080832043905560159091528120805460ff1916600717905590915081831061372657613723838363ffffffff61390b16565b90505b60015b60008981526022602052604090205460ff8216116137dd576000898152601f6020908152604080832060ff851684529091528120546001600160a01b0316906137728b836117cd565b60008c8152601f60209081526040808320848452825280832060010154600854600a548552600690935292205492935090916137d2916001600160a01b031690339086906137cd90606490610bdc908863ffffffff6138d116565b613d43565b505050600101613729565b50600088815260056020526040902054613803908590610f4c908463ffffffff61390b16565b6000898152600560205260409020556007546001600160a01b03166138475761382c3382613b4d565b600254613842906001600160a01b031685613b4d565b61387b565b60075461385e906001600160a01b03163383613bdf565b60075460025461387b916001600160a01b03908116911686613bdf565b600088815260156020526040902054600080516020614a6a833981519152908990899060ff1660098111156138ac57fe5b6040516138bb939291906148fc565b60405180910390a1505060018055505050505050565b6000826138e057506000610c6a565b828202828482816138ed57fe5b0414610ccf5760405162461bcd60e51b81526004016103b190614677565b6000610ccf83836040518060400160405280601e81526020017f536166654d6174683a207375627472616374696f6e206f766572666c6f770000815250613eeb565b6000610ccf83836040518060400160405280601a81526020017f536166654d6174683a206469766973696f6e206279207a65726f000000000000815250613f17565b600082820183811015610ccf5760405162461bcd60e51b81526004016103b1906144d2565b6139be8383612c90565b6139da5760405162461bcd60e51b81526004016103b19061441f565b60015b60008481526022602052604090205460ff821611613acd576000848152601f6020908152604080832060ff85168452909152812054613a269086906001600160a01b03166117cd565b6000868152601f60209081526040808320848452909152812060010154919250613a5b6064610bdc878563ffffffff6138d116565b600088815260056020526040902054909150613a7d908263ffffffff61390b16565b6000888152600560205260409020556007546001600160a01b0316613aab57613aa68682613b4d565b613ac2565b600754613ac2906001600160a01b03168783613bdf565b5050506001016139dd565b50505050565b6000828152601b602090815260408083204390556015909152902080546008919060ff19166001835b0217905550600082815260156020526040902054600080516020614a6a833981519152908390839060ff166009811115613b3257fe5b604051613b41939291906148fc565b60405180910390a15050565b604080516000808252602082019092526001600160a01b038416908390604051613b77919061425d565b60006040518083038185875af1925050503d8060008114613bb4576040519150601f19603f3d011682016040523d82523d6000602084013e613bb9565b606091505b5050905080613bda5760405162461bcd60e51b81526004016103b19061454f565b505050565b60006060846001600160a01b031663a9059cbb8585604051602401613c059291906142cb565b6040516020818303038152906040529060e01b6020820180516001600160e01b038381831617835250505050604051613c3e919061425d565b6000604051808303816000865af19150503d8060008114613c7b576040519150601f19603f3d011682016040523d82523d6000602084013e613c80565b606091505b5091509150818015613caa575080511580613caa575080806020019051810190613caa9190613f98565b613cc65760405162461bcd60e51b81526004016103b1906148a3565b5050505050565b6000828152601560208181526040808420805460ff19166004178155601d835293204390555254600080516020614a6a833981519152908390839060ff166009811115613b3257fe5b6000828152601e602090815260408083204390556015909152902080546005919060ff1916600183613afc565b60006060856001600160a01b03166323b872dd868686604051602401613d6b939291906142a7565b6040516020818303038152906040529060e01b6020820180516001600160e01b038381831617835250505050604051613da4919061425d565b6000604051808303816000865af19150503d8060008114613de1576040519150601f19603f3d011682016040523d82523d6000602084013e613de6565b606091505b5091509150818015613e10575080511580613e10575080806020019051810190613e109190613f98565b613e2c5760405162461bcd60e51b81526004016103b19061437b565b505050505050565b3390565b6000818310613e475781610ccf565b5090919050565b6000818152601560209081526040808320805460ff19166006179055600c54601c909252822054829015613ebf57600084815260166020908152604080832054601c90925290912054613ea69163ffffffff61390b16565b600c54909150613ebc908263ffffffff61390b16565b91505b600084815260146020526040812054613ee290610b5c858563ffffffff61390b16565b95945050505050565b60008184841115613f0f5760405162461bcd60e51b81526004016103b19190614324565b505050900390565b60008183613f385760405162461bcd60e51b81526004016103b19190614324565b506000838581613f4457fe5b0495945050505050565b8051610c6a81614a46565b805161ffff81168114610c6a57600080fd5b805160ff81168114610c6a57600080fd5b600060208284031215613f8d578081fd5b8135610ccf81614a46565b600060208284031215613fa9578081fd5b8151610ccf81614a5b565b600060e08284031215613fc5578081fd5b613fcf60e06149f3565b82518152613fe08460208501613f6b565b6020820152613ff28460408501613f6b565b60408201526140048460608501613f6b565b60608201526140168460808501613f6b565b60808201526140288460a08501613f59565b60a082015261403a8460c08501613f59565b60c08201529392505050565b60006101a0808385031215614059578182fd5b614062816149f3565b8351815260208401516020820152604084015160408201526140878560608601613f6b565b60608201526140998560808601613f6b565b60808201526140ab8560a08601613f6b565b60a08201526140bd8560c08601613f6b565b60c08201526140cf8560e08601613f4e565b60e082015261010091506140e585838601613f4e565b8282015261012091506140fa85838601613f4e565b82820152610140915061410f85838601613f6b565b82820152610160915061412485838601613f6b565b91810191909152610180928301519281019290925250919050565b600060208284031215614150578081fd5b5035919050565b600060208284031215614168578081fd5b5051919050565b60008060408385031215614181578081fd5b82359150602083013561419381614a46565b809150509250929050565b6000806000606084860312156141b2578081fd5b8335925060208401356141c481614a46565b929592945050506040919091013590565b600080604083850312156141e7578182fd5b50508035926020909101359150565b60008060006060848603121561420a578283fd5b8335925060208401359150604084013561422381614a5b565b809150509250925092565b60006020828403121561423f578081fd5b610ccf8383613f6b565b6001600160a01b03169052565b60ff169052565b6000825161426f818460208701614a1a565b9190910192915050565b6001600160a01b0391909116815260200190565b6001600160a01b0392831681529116602082015260400190565b6001600160a01b039384168152919092166020820152604081019190915260600190565b6001600160a01b03929092168252602082015260400190565b6001600160a01b039390931683526020830191909152604082015260600190565b901515815260200190565b60208101600a831061431e57fe5b91905290565b6000602082528251806020840152614343816040850160208701614a1a565b601f01601f19169190910160400192915050565b6020808252600a908201526910b1b7b6362a37b5b2b760b11b604082015260600190565b60208082526017908201527f5448205452414e534645525f46524f4d5f4641494c4544000000000000000000604082015260600190565b6020808252600790820152660a8dede9aeac6d60cb1b604082015260600190565b602080825260089082015267021537461747573360c41b604082015260600190565b60208082526010908201526f21616c6c6f77616e6365536574746c6560801b604082015260600190565b6020808252600c908201526b10b9b430b932b437b63232b960a11b604082015260600190565b60208082526009908201526821537461747573323360b81b604082015260600190565b60208082526026908201527f4f776e61626c653a206e6577206f776e657220697320746865207a65726f206160408201526564647265737360d01b606082015260800190565b6020808252600a90820152690428adcdeeaced08ae8d60b31b604082015260600190565b6020808252601b908201527f536166654d6174683a206164646974696f6e206f766572666c6f770000000000604082015260600190565b60208082526009908201526810b137b93937bbb2b960b91b604082015260600190565b60208082526009908201526821537461747573313760b81b604082015260600190565b60208082526016908201527515120811551217d514905394d1915497d1905253115160521b604082015260600190565b60208082526009908201526821537461747573313360b81b604082015260600190565b60208082526008908201526721666163746f727960c01b604082015260600190565b6020808252600d908201526c21656e6f75676853686172657360981b604082015260600190565b602080825260099082015268525042546f6f4c6f7760b81b604082015260600190565b6020808252600990820152680854dd185d1d5ccc4d60ba1b604082015260600190565b6020808252600a908201526910aa37b5b2b72637b0b760b11b604082015260600190565b6020808252600890820152670854dd185d1d5ccd60c21b604082015260600190565b60208082526021908201527f536166654d6174683a206d756c7469706c69636174696f6e206f766572666c6f6040820152607760f81b606082015260800190565b60208082526009908201526821537461747573303160b81b604082015260600190565b6020808252818101527f4f776e61626c653a2063616c6c6572206973206e6f7420746865206f776e6572604082015260600190565b6020808252600a908201526921616c6c6f77616e636560b01b604082015260600190565b602080825260119082015270455448206e6f742061636365707465642160781b604082015260600190565b60208082526011908201527010bb30b634b2213637b1b5a73ab6b132b960791b604082015260600190565b6020808252600b908201526a6561726c7957696e646f7760a81b604082015260600190565b60208082526008908201526710a2aa242637b0b760c11b604082015260600190565b602080825260089082015267217368506c61636560c01b604082015260600190565b6020808252601290820152715f73656e6465725a65726f4164647265737360701b604082015260600190565b60208082526008908201526721546f6b656e4f6b60c01b604082015260600190565b6020808252601f908201527f5265656e7472616e637947756172643a207265656e7472616e742063616c6c00604082015260600190565b60208082526011908201527008515b9bdd59da10dbdb1b185d195c985b607a1b604082015260600190565b6020808252601290820152711512081514905394d1915497d1905253115160721b604082015260600190565b90815260200190565b9384526001600160a01b039290921660208401526040830152606082015260800190565b9283526020830191909152604082015260600190565b918252602082015260400190565b8d8152602081018d9052604081018c905260ff8b811660608301528a8116608083015289811660a0830152881660c08201526001600160a01b03871660e08201526101a08101614974610100830188614249565b614982610120830187614249565b614990610140830186614256565b61499e610160830185614256565b826101808301529e9d5050505050505050505050505050565b96875260ff958616602088015293851660408701529184166060860152909216608084015261ffff91821660a08401521660c082015260e00190565b60405181810167ffffffffffffffff81118282101715614a1257600080fd5b604052919050565b60005b83811015614a35578181015183820152602001614a1d565b83811115613acd5750506000910152565b6001600160a01b0381168114612c6957600080fd5b8015158114612c6957600080fdfeddb3cb0edd8e6f88df033616b55512cf2d794cbfb6569e383a80654252561b19a26469706673582212208972d7e54a371423229748a88ea1dc659a9eb8671e1ca3c6e787f11a4199294264736f6c634300060b0033a2646970667358221220c955dd2d0822523f812862331d70a28aa56d4a46b732ebb63f9facb4605114d864736f6c634300060b0033",
  "immutableReferences": {},
  "source": "// SPDX-License-Identifier: MIT\n/**\n * Created on 2020-10-23\n * @summary: Jibrel Loan Deployer\n * @author: Jibrel Team\n */\npragma solidity 0.6.11;\npragma experimental ABIEncoderV2;\n\nimport \"@openzeppelin/contracts/access/Ownable.sol\";\nimport \"./IJFactory.sol\";\nimport \"./IJLoanCommons.sol\";\nimport \"./JLoan.sol\";\n\n\ncontract JLoanDeployer is Ownable {\n    address private feesCollector;\n\n    IJLoanCommons.GeneralParams public loanParams;\n\n    constructor() public { }\n\n    modifier onlyLoanFactory() {\n        require(msg.sender == loanParams.factoryAddress, \"!factory\");\n        _;\n    }\n\n    /**\n    * @dev set loan factory contract address\n    * @param _factAddr, address of loan factory contract to add\n    */\n    function setLoanFactory(address _factAddr) external onlyOwner {\n        loanParams.factoryAddress = _factAddr;\n    }\n\n     /**\n    * @dev deploy a new eth loan contract, add its address to internal variables\n    * @param _pairId, id of the pair\n    * @param _factAddr, factory address\n    * @param _collToken, collateral token address\n    * @param _lendToken, lender token address\n    * @return address of new pair contract\n    */              \n    function deployNewLoanContract(uint _pairId, address _factAddr, address _collToken, address _lendToken) external onlyLoanFactory returns (address) {\n        address newLoanContract = address(new JLoan(_pairId, _factAddr, _collToken, _lendToken, feesCollector));\n        return newLoanContract;\n    }\n\n\n    /**\n    * @dev set the fee collector contract address\n    * @param _feeColl fees collectro address\n    */\n    function setFeesCollector(address _feeColl) external onlyOwner {\n        feesCollector = _feeColl;\n    }\n\n    /**\n    * @dev get the fee collector contract address\n    * @return fee collector address\n    */\n    function getFeesCollector() external view returns(address) {\n        return feesCollector;\n    }\n\n}\n",
  "sourcePath": "C:/Users/saurabh/code/Jibrel/defi-smartcontracts/LoansFactoryV2/contracts/JLoanDeployer.sol",
  "compiler": {
    "name": "solc",
    "version": "0.6.11+commit.5ef660b1.Emscripten.clang"
  },
  "schemaVersion": "3.3.1",
  "updatedAt": "2020-11-01T10:47:33.964Z",
  "networkType": "ethereum",
  "devdoc": {
    "kind": "dev",
    "methods": {
      "deployNewLoanContract(uint256,address,address,address)": {
        "details": "deploy a new eth loan contract, add its address to internal variables",
        "params": {
          "_collToken": ", collateral token address",
          "_factAddr": ", factory address",
          "_lendToken": ", lender token address",
          "_pairId": ", id of the pair"
        },
        "returns": {
          "_0": "address of new pair contract"
        }
      },
      "getFeesCollector()": {
        "details": "get the fee collector contract address",
        "returns": {
          "_0": "fee collector address"
        }
      },
      "owner()": {
        "details": "Returns the address of the current owner."
      },
      "renounceOwnership()": {
        "details": "Leaves the contract without owner. It will not be possible to call `onlyOwner` functions anymore. Can only be called by the current owner. NOTE: Renouncing ownership will leave the contract without an owner, thereby removing any functionality that is only available to the owner."
      },
      "setFeesCollector(address)": {
        "details": "set the fee collector contract address",
        "params": {
          "_feeColl": "fees collectro address"
        }
      },
      "setLoanFactory(address)": {
        "details": "set loan factory contract address",
        "params": {
          "_factAddr": ", address of loan factory contract to add"
        }
      },
      "transferOwnership(address)": {
        "details": "Transfers ownership of the contract to a new account (`newOwner`). Can only be called by the current owner."
      }
    },
    "version": 1
  },
  "userdoc": {
    "kind": "user",
    "methods": {},
    "version": 1
  }
}