{
  "contractName": "JLoanDeployer",
  "abi": [
    {
      "inputs": [],
      "stateMutability": "nonpayable",
      "type": "constructor"
    },
    {
      "anonymous": false,
      "inputs": [
        {
          "indexed": true,
          "internalType": "address",
          "name": "previousOwner",
          "type": "address"
        },
        {
          "indexed": true,
          "internalType": "address",
          "name": "newOwner",
          "type": "address"
        }
      ],
      "name": "OwnershipTransferred",
      "type": "event"
    },
    {
      "inputs": [],
      "name": "loanParams",
      "outputs": [
        {
          "internalType": "uint256",
          "name": "earlySettlementWindow",
          "type": "uint256"
        },
        {
          "internalType": "uint256",
          "name": "foreclosureWindow",
          "type": "uint256"
        },
        {
          "internalType": "uint8",
          "name": "requiredCollateralRatio",
          "type": "uint8"
        },
        {
          "internalType": "uint8",
          "name": "foreclosingRatio",
          "type": "uint8"
        },
        {
          "internalType": "uint8",
          "name": "instantForeclosureRatio",
          "type": "uint8"
        },
        {
          "internalType": "uint8",
          "name": "limitCollRatioForWithdraw",
          "type": "uint8"
        },
        {
          "internalType": "address",
          "name": "factoryAddress",
          "type": "address"
        },
        {
          "internalType": "address",
          "name": "pairLoanDeployerAddress",
          "type": "address"
        },
        {
          "internalType": "address",
          "name": "pairPriceOracleAddress",
          "type": "address"
        },
        {
          "internalType": "uint8",
          "name": "collDecimals",
          "type": "uint8"
        },
        {
          "internalType": "uint8",
          "name": "lendDecimals",
          "type": "uint8"
        },
        {
          "internalType": "uint256",
          "name": "pairId",
          "type": "uint256"
        }
      ],
      "stateMutability": "view",
      "type": "function",
      "constant": true
    },
    {
      "inputs": [],
      "name": "owner",
      "outputs": [
        {
          "internalType": "address",
          "name": "",
          "type": "address"
        }
      ],
      "stateMutability": "view",
      "type": "function",
      "constant": true
    },
    {
      "inputs": [],
      "name": "renounceOwnership",
      "outputs": [],
      "stateMutability": "nonpayable",
      "type": "function"
    },
    {
      "inputs": [
        {
          "internalType": "address",
          "name": "newOwner",
          "type": "address"
        }
      ],
      "name": "transferOwnership",
      "outputs": [],
      "stateMutability": "nonpayable",
      "type": "function"
    },
    {
      "inputs": [
        {
          "internalType": "address",
          "name": "_factAddr",
          "type": "address"
        }
      ],
      "name": "setLoanFactory",
      "outputs": [],
      "stateMutability": "nonpayable",
      "type": "function"
    },
    {
      "inputs": [
        {
          "internalType": "uint256",
          "name": "_pairId",
          "type": "uint256"
        },
        {
          "internalType": "address",
          "name": "_factAddr",
          "type": "address"
        },
        {
          "internalType": "address",
          "name": "_collToken",
          "type": "address"
        },
        {
          "internalType": "address",
          "name": "_lendToken",
          "type": "address"
        }
      ],
      "name": "deployNewLoanContract",
      "outputs": [
        {
          "internalType": "address",
          "name": "",
          "type": "address"
        }
      ],
      "stateMutability": "nonpayable",
      "type": "function"
    },
    {
      "inputs": [
        {
          "internalType": "address",
          "name": "_feeColl",
          "type": "address"
        }
      ],
      "name": "setFeesCollector",
      "outputs": [],
      "stateMutability": "nonpayable",
      "type": "function"
    },
    {
      "inputs": [],
      "name": "getFeesCollector",
      "outputs": [
        {
          "internalType": "address",
          "name": "",
          "type": "address"
        }
      ],
      "stateMutability": "view",
      "type": "function",
      "constant": true
    }
  ],
  "bytecode": "0x608060405234801561001057600080fd5b5060006100246001600160e01b0361007316565b600080546001600160a01b0319166001600160a01b0383169081178255604051929350917f8be0079c531659141344cd1fd0a4f28419497f9722a3daafe3b4186f6b6457e0908290a350610077565b3390565b615a66806100866000396000f3fe60806040523480156200001157600080fd5b5060043610620000945760003560e01c80638da5cb5b11620000635780638da5cb5b146200010057806392f26f051462000119578063bca4698c1462000130578063f2fde38b146200013a5762000094565b806309e94d981462000099578063373071f214620000c6578063715018a614620000df57806386a3199814620000e9575b600080fd5b620000a362000151565b604051620000bd9c9b9a9998979695949392919062000609565b60405180910390f35b620000dd620000d7366004620004a8565b620001b5565b005b620000dd6200021a565b620000dd620000fa366004620004a8565b6200029e565b6200010a62000306565b604051620000bd91906200052a565b6200010a6200012a366004620004cd565b62000315565b6200010a620003ab565b620000dd6200014b366004620004a8565b620003ba565b60025460035460045460055460065460075460ff808516946101008104821694620100008204831694630100000083048416946001600160a01b0364010000000090940484169492841693821692600160a01b8304811692600160a81b900416908c565b620001bf62000478565b6000546001600160a01b03908116911614620001f85760405162461bcd60e51b8152600401620001ef90620005a6565b60405180910390fd5b600180546001600160a01b0319166001600160a01b0392909216919091179055565b6200022462000478565b6000546001600160a01b03908116911614620002545760405162461bcd60e51b8152600401620001ef90620005a6565b600080546040516001600160a01b03909116907f8be0079c531659141344cd1fd0a4f28419497f9722a3daafe3b4186f6b6457e0908390a3600080546001600160a01b0319169055565b620002a862000478565b6000546001600160a01b03908116911614620002d85760405162461bcd60e51b8152600401620001ef90620005a6565b600480546001600160a01b0390921664010000000002640100000000600160c01b0319909216919091179055565b6000546001600160a01b031690565b60045460009064010000000090046001600160a01b031633146200034d5760405162461bcd60e51b8152600401620001ef9062000584565b60015460405160009187918791879187916001600160a01b03169062000373906200047c565b62000383959493929190620005db565b604051809103906000f080158015620003a0573d6000803e3d6000fd5b509695505050505050565b6001546001600160a01b031690565b620003c462000478565b6000546001600160a01b03908116911614620003f45760405162461bcd60e51b8152600401620001ef90620005a6565b6001600160a01b0381166200041d5760405162461bcd60e51b8152600401620001ef906200053e565b600080546040516001600160a01b03808516939216917f8be0079c531659141344cd1fd0a4f28419497f9722a3daafe3b4186f6b6457e091a3600080546001600160a01b0319166001600160a01b0392909216919091179055565b3390565b6153a6806200068b83390190565b80356001600160a01b0381168114620004a257600080fd5b92915050565b600060208284031215620004ba578081fd5b620004c683836200048a565b9392505050565b60008060008060808587031215620004e3578283fd5b84359350620004f686602087016200048a565b92506200050786604087016200048a565b91506200051886606087016200048a565b905092959194509250565b60ff169052565b6001600160a01b0391909116815260200190565b60208082526026908201527f4f776e61626c653a206e6577206f776e657220697320746865207a65726f206160408201526564647265737360d01b606082015260800190565b60208082526008908201526721666163746f727960c01b604082015260600190565b6020808252818101527f4f776e61626c653a2063616c6c6572206973206e6f7420746865206f776e6572604082015260600190565b9485526001600160a01b03938416602086015291831660408501528216606084015216608082015260a00190565b8c8152602081018c905260ff8b811660408301528a81166060830152898116608083015288811660a08301526001600160a01b0388811660c084015287811660e08401528616610100830152841661012082015261018081016200067261014083018562000523565b826101608301529d9c5050505050505050505050505056fe6080604052604051620053a6380380620053a683398101604081905262000026916200088c565b60006200003b6001600160e01b036200054d16565b600080546001600160a01b0319166001600160a01b0383169081178255604051929350917f8be0079c531659141344cd1fd0a4f28419497f9722a3daafe3b4186f6b6457e0908290a35060018081905550836001600160a01b0316634fd758796040518163ffffffff1660e01b81526004016101806040518083038186803b158015620000c757600080fd5b505afa158015620000dc573d6000803e3d6000fd5b505050506040513d601f19601f820116820180604052508101906200010291906200078b565b8051600b556020810151600c55604080820151600d80546060850151608086015160a087015160c088015160ff1990941660ff9687161761ff00191661010093871684021762ff0000191662010000928716929092029190911763ff000000191663010000009186169190910217600160201b600160c01b0319166401000000006001600160a01b03938416021790925560e080860151600e80546001600160a01b031990811692851692909217905592860151600f80546101208901516101408a0151919096169285169290921760ff60a01b1916600160a01b958716959095029490941760ff60a81b1916600160a81b919095160293909317909155610160909301516010558151631a55d9e960e01b8152915192871692631a55d9e9926004808201939291829003018186803b1580156200023f57600080fd5b505afa15801562000254573d6000803e3d6000fd5b505050506040513d601f19601f820116820180604052508101906200027a9190620006ea565b80516011556020810151601280546040808501516060860151608087015160a088015160c09098015160ff1990951660ff9788161761ff001916610100938816939093029290921762ff0000191662010000918716919091021763ff0000001916630100000095909116949094029390931761ffff60201b191664010000000061ffff958616021761ffff60301b19166601000000000000949091169390930292909217909155600f549051636549bf5360e11b81526001600160a01b039091169063ca937ea690620003529088906004016200091b565b60006040518083038186803b1580156200036b57600080fd5b505afa15801562000380573d6000803e3d6000fd5b505050506040513d6000823e601f3d908101601f19168201604052620003aa919081019062000637565b8051620003c09160099160209091019062000552565b50600280546001600160a01b038084166001600160a01b031992831617909255600780548684169083161790556008805485841692169190911790556010869055600f54604051630404ea8960e21b8152911690631013aa24906200042a9088906004016200091b565b60206040518083038186803b1580156200044357600080fd5b505afa15801562000458573d6000803e3d6000fd5b505050506040513d601f19601f820116820180604052508101906200047e9190620008f6565b600f805460ff92909216600160a01b0260ff60a01b199092169190911790819055604051633e17bdcb60e11b81526001600160a01b0390911690637c2f7b9690620004ce9088906004016200091b565b60206040518083038186803b158015620004e757600080fd5b505afa158015620004fc573d6000803e3d6000fd5b505050506040513d601f19601f82011682018060405250810190620005229190620008f6565b600f805460ff92909216600160a81b0260ff60a81b19909216919091179055506200094b9350505050565b335b90565b828054600181600116156101000203166002900490600052602060002090601f016020900481019282601f106200059557805160ff1916838001178555620005c5565b82800160010185558215620005c5579182015b82811115620005c5578251825591602001919060010190620005a8565b50620005d3929150620005d7565b5090565b6200054f91905b80821115620005d35760008155600101620005de565b80516001600160a01b03811681146200060c57600080fd5b92915050565b805161ffff811681146200060c57600080fd5b805160ff811681146200060c57600080fd5b600060208083850312156200064a578182fd5b82516001600160401b038082111562000661578384fd5b81850186601f82011262000673578485fd5b805192508183111562000684578485fd5b62000698601f8401601f1916850162000924565b91508282528684848301011115620006ae578485fd5b845b83811015620006cd578181018501518382018601528401620006b0565b83811115620006de57858585850101525b50909695505050505050565b600060e08284031215620006fc578081fd5b6200070860e062000924565b825181526200071b846020850162000625565b60208201526200072f846040850162000625565b604082015262000743846060850162000625565b606082015262000757846080850162000625565b60808201526200076b8460a0850162000612565b60a08201526200077f8460c0850162000612565b60c08201529392505050565b60006101808083850312156200079f578182fd5b620007aa8162000924565b8351815260208401516020820152620007c7856040860162000625565b6040820152620007db856060860162000625565b6060820152620007ef856080860162000625565b6080820152620008038560a0860162000625565b60a0820152620008178560c08601620005f4565b60c08201526200082b8560e08601620005f4565b60e082015261010091506200084385838601620005f4565b8282015261012091506200085a8583860162000625565b828201526101409150620008718583860162000625565b91810191909152610160928301519281019290925250919050565b600080600080600060a08688031215620008a4578081fd5b85519450620008b78760208801620005f4565b9350620008c88760408801620005f4565b9250620008d98760608801620005f4565b9150620008ea8760808801620005f4565b90509295509295909350565b60006020828403121562000908578081fd5b62000914838362000625565b9392505050565b90815260200190565b6040518181016001600160401b03811182821017156200094357600080fd5b604052919050565b614a4b806200095b6000396000f3fe60806040526004361061038c5760003560e01c80638da5cb5b116101dc578063db954efd11610102578063ec13db27116100a0578063f2fde38b1161006f578063f2fde38b14610a7b578063f699f10714610a9b578063fcb37bd814610abb578063fd11a90214610adb5761038c565b8063ec13db2714610a06578063ec7014fe14610a26578063f0435b1414610a46578063f0ad5fd814610a5b5761038c565b8063e4b4de8d116100dc578063e4b4de8d14610991578063e5525536146109b1578063e936e44a146109d1578063eaad7971146109e65761038c565b8063db954efd1461092f578063dcc9e14e1461094f578063e1c7111a1461097c5761038c565b8063bf5d50c41161017a578063c975fab411610149578063c975fab4146108af578063d2a66d97146108cf578063d4cb74fc146108ef578063d89fbac41461090f5761038c565b8063bf5d50c414610838578063c028eeb014610858578063c6e52d2b1461087a578063c95669a51461089a5761038c565b8063a42979d7116101b6578063a42979d7146107c3578063a4c924d5146107e3578063a89c542314610803578063b2016bd4146108235761038c565b80638da5cb5b14610777578063918c3dbd146107995780639cf160f6146107ae5761038c565b8063378ef1ef116102c15780636e4ae18f1161025f5780637511d17a1161022e5780637511d17a146106e8578063767a7b051461071757806385b6f2e3146107375780638c6d00fa146107575761038c565b80636e4ae18f1461067e5780636f9fb98a1461069e578063715018a6146106b357806374275f93146106c85761038c565b8063470876ea1161029b578063470876ea146105fe5780635586f0391461061e5780635a9f4d851461064b5780635d2c45c01461066b5761038c565b8063378ef1ef1461059c5780633872f2ad146105c957806342ac3379146105e95761038c565b8063216c24901161032e5780632eccd204116103085780632eccd2041461051c5780632f20a5e71461053c57806333e289311461055c57806336a250971461057c5761038c565b8063216c2490146104a5578063249e4bb0146104cd57806324ddf1e2146104fc5761038c565b8063106f313b1161036a578063106f313b1461043057806316b673211461045057806317c54a65146104705780631c4fd41c146104855761038c565b80630154eeca146103ba5780630412739f146103f05780630b89616714610410575b34801561039857600080fd5b5060405162461bcd60e51b81526004016103b1906146ce565b60405180910390fd5b3480156103c657600080fd5b506103da6103d53660046140fc565b610afb565b6040516103e79190614869565b60405180910390f35b3480156103fc57600080fd5b506103da61040b366004614192565b610b0d565b34801561041c57600080fd5b506103da61042b366004614192565b610c6f565b34801561043c57600080fd5b506103da61044b3660046140fc565b610cd5565b34801561045c57600080fd5b506103da61046b3660046140fc565b610ce7565b61048361047e3660046140fc565b610cf9565b005b34801561049157600080fd5b506103da6104a03660046140fc565b610e3e565b3480156104b157600080fd5b506104ba610e63565b6040516103e79796959493929190614943565b3480156104d957600080fd5b506104ed6104e8366004614192565b610ea3565b6040516103e7939291906142a1565b34801561050857600080fd5b506103da6105173660046140fc565b610ed9565b34801561052857600080fd5b506103da6105373660046140fc565b611039565b34801561054857600080fd5b506103da6105573660046140fc565b611287565b34801561056857600080fd5b506103da6105773660046140fc565b611299565b34801561058857600080fd5b506104836105973660046140fc565b6112ab565b3480156105a857600080fd5b506105bc6105b736600461412c565b611487565b6040516103e791906142c2565b3480156105d557600080fd5b506103da6105e43660046140fc565b6114a7565b3480156105f557600080fd5b506103da6114b9565b34801561060a57600080fd5b506104836106193660046140fc565b611542565b34801561062a57600080fd5b50610633611768565b6040516103e79c9b9a999897969594939291906148ba565b34801561065757600080fd5b506103da61066636600461412c565b6117cb565b610483610679366004614192565b6117f1565b34801561068a57600080fd5b5061048361069936600461412c565b611ad2565b3480156106aa57600080fd5b506103da611f3a565b3480156106bf57600080fd5b50610483611fdb565b3480156106d457600080fd5b506103da6106e336600461415b565b61205a565b3480156106f457600080fd5b506107086107033660046140fc565b6123a4565b6040516103e793929190614896565b34801561072357600080fd5b50610483610732366004614192565b6123c5565b34801561074357600080fd5b506103da6107523660046140fc565b612544565b34801561076357600080fd5b506103da6107723660046140fc565b612556565b34801561078357600080fd5b5061078c612568565b6040516103e79190614236565b3480156107a557600080fd5b50610483612577565b3480156107ba57600080fd5b5061078c6126d5565b3480156107cf57600080fd5b506105bc6107de3660046140fc565b6126e4565b3480156107ef57600080fd5b506103da6107fe3660046140fc565b612946565b34801561080f57600080fd5b506103da61081e3660046140fc565b612a72565b34801561082f57600080fd5b5061078c612a84565b34801561084457600080fd5b506105bc610853366004613f46565b612a93565b34801561086457600080fd5b5061086d612aa8565b6040516103e791906142e1565b34801561088657600080fd5b506103da6108953660046140fc565b612b36565b3480156108a657600080fd5b506103da612b48565b3480156108bb57600080fd5b506103da6108ca3660046140fc565b612b4e565b3480156108db57600080fd5b5061078c6108ea3660046140fc565b612b60565b3480156108fb57600080fd5b5061048361090a366004614192565b612b7b565b34801561091b57600080fd5b506103da61092a36600461412c565b612be3565b34801561093b57600080fd5b5061048361094a3660046140fc565b612bfe565b34801561095b57600080fd5b5061096f61096a3660046140fc565b612c40565b6040516103e791906142cd565b34801561098857600080fd5b5061078c612c55565b34801561099d57600080fd5b506105bc6109ac36600461412c565b612c64565b3480156109bd57600080fd5b506103da6109cc3660046141b3565b612c8f565b3480156109dd57600080fd5b506103da612dea565b3480156109f257600080fd5b50610483610a0136600461415b565b612e75565b348015610a1257600080fd5b506105bc610a213660046140fc565b61308f565b348015610a3257600080fd5b506103da610a413660046140fc565b6130b7565b348015610a5257600080fd5b506104836130c9565b348015610a6757600080fd5b506105bc610a763660046140fc565b61328a565b348015610a8757600080fd5b50610483610a96366004613f46565b6132cc565b348015610aa757600080fd5b506103da610ab63660046140fc565b613382565b348015610ac757600080fd5b506103da610ad63660046140fc565b613394565b348015610ae757600080fd5b50610483610af63660046140fc565b6134be565b60176020526000908152604090205481565b600080610b186114b9565b90506000610b24612dea565b600086815260066020526040812054919250610b3f87613382565b90506000610b67600a85900a610b5b858a63ffffffff61389b16565b9063ffffffff61389b16565b90506000610b7c86606463ffffffff61389b16565b600f5490915060009060ff600160a81b82048116600160a01b9092041610610bef57600f54600090610bc19060ff600160a01b8204811691600160a81b9004166138d5565b9050610be783610bdb86600a85900a63ffffffff61389b16565b9063ffffffff61391716565b915050610c30565b600f54600090610c129060ff600160a81b8204811691600160a01b9004166138d5565b9050610c2c600a82900a610bdb868663ffffffff61391716565b9150505b838110610c4e57610c47818563ffffffff6138d516565b9750610c61565b610c5e848263ffffffff6138d516565b97505b505050505050505b92915050565b6000828152601b6020526040812054821015610c9d5760405162461bcd60e51b81526004016103b1906146f9565b600083815260136020908152604080832054601b90925290912054610cce9190610b5b90859063ffffffff6138d516565b9392505050565b60186020526000908152604090205481565b601a6020526000908152604090205481565b60026001541415610d1c5760405162461bcd60e51b81526004016103b1906147db565b60026001556007546001600160a01b031615610d4a5760405162461bcd60e51b81526004016103b190614749565b600160008281526014602052604090205460ff166009811115610d6957fe5b10158015610d945750600460008281526014602052604090205460ff166009811115610d9157fe5b11155b610db05760405162461bcd60e51b81526004016103b1906145a8565b600081815260056020526040902054610dcf903463ffffffff61395916565b60008281526005602090815260408083209390935560169052908120439055610df782613394565b90507fb5fc3d506c41cd40561721384de79a1f60100fa35772ca7e200e100cabba7cee82333484604051610e2e9493929190614872565b60405180910390a1505060018055565b60008181526014602052604081205460ff166009811115610e5b57fe5b90505b919050565b60115460125460ff808216916101008104821691620100008204811691630100000081049091169061ffff600160201b8204811691600160301b90041687565b601e6020908152600092835260408084209091529082529020805460018201546002909201546001600160a01b03909116919083565b600080610ee46114b9565b90506000610ef0612dea565b6000858152600660205260408120549192508060008781526014602052604090205460ff166009811115610f2057fe5b1415610f3657610f2f86613382565b9050610f5a565b610f57610f4287612946565b610f4b88613382565b9063ffffffff6138d516565b90505b6000610f716064610b5b848863ffffffff61389b16565b90506000610f8984600a87900a63ffffffff61389b16565b600f5490915060ff600160a81b82048116600160a01b9092041610610fed57600f54600090610fcb9060ff600160a01b8204811691600160a81b9004166138d5565b9050610fe5600a82900a610bdb858563ffffffff61391716565b97505061102e565b600f546000906110109060ff600160a81b8204811691600160a01b9004166138d5565b905061102a82610bdb85600a85900a63ffffffff61389b16565b9750505b505050505050919050565b60006002600154141561105e5760405162461bcd60e51b81526004016103b1906147db565b600260015560008281526014602052604081205460ff16600981111561108057fe5b1180156110aa575060008281526014602052604090205460089060ff1660098111156110a857fe5b105b6110c65760405162461bcd60e51b81526004016103b1906144e9565b60008281526014602052604081205460ff1660098111156110e357fe5b6000848152600560205260408120549192506110fe85612946565b90508082106111875760015b60008681526021602052604090205460ff82161161115c576000868152601e6020908152604080832060ff851684529091529020546111549087906001600160a01b03168461397e565b60010161110a565b506000858152601b60205260409020439055600383116111825761117f85613394565b92505b611242565b8115801561119a575061119a8533612c64565b156111a9576111828584613a9d565b60015b60008681526021602052604090205460ff8216116111fe576000868152601e6020908152604080832060ff851684529091529020546111f69087906001600160a01b03168561397e565b6001016111ac565b506000858152601b602090815260408083204390819055601a83528184205560149091529020805460ff19166008179081905560ff16600981111561123f57fe5b92505b7fdec1686054df57da892459d2ee005662e0454e2a360400e54fab99d3c383b28c85826040516112739291906148ac565b60405180910390a150506001805592915050565b60166020526000908152604090205481565b601d6020526000908152604090205481565b600260015414156112ce5760405162461bcd60e51b81526004016103b1906147db565b60026001556000818152600460205260409020546001600160a01b031633146113095760405162461bcd60e51b81526004016103b1906144c6565b60008181526014602052604090205460ff16600981111561132657fe5b156113435760405162461bcd60e51b81526004016103b190614390565b60008181526005602052604081205460125490919061137490606490610bdb9085906301000000900460ff1661389b565b90506000611388838363ffffffff6138d516565b6000858152601460209081526040808320805460ff1916600917905560059091529020549091506113bf908390610f4b90846138d5565b6000858152600560205260409020556007546001600160a01b0316611403576002546113f4906001600160a01b031683613b17565b6113fe3382613b17565b611437565b600754600254611420916001600160a01b03908116911684613ba9565b600754611437906001600160a01b03163383613ba9565b6000848152601460205260408120546000805160206149f683398151915291869160ff16600981111561146657fe5b60405161147593929190614896565b60405180910390a15050600180555050565b601f60209081526000928352604080842090915290825290205460ff1681565b60066020526000908152604090205481565b600f54601054604051631334f8cd60e11b81526000926001600160a01b031691632669f19a916114ec9190600401614869565b60206040518083038186803b15801561150457600080fd5b505afa158015611518573d6000803e3d6000fd5b505050506040513d601f19601f8201168201806040525081019061153c9190614114565b90505b90565b600260015414156115655760405162461bcd60e51b81526004016103b1906147db565b6002600155600061157582613394565b905080600214806115865750806003145b6115a25760405162461bcd60e51b81526004016103b190614402565b600081600214156115e6576000838152601360205260409020546012546115d591600160201b90910461ffff169061389b565b90506115e18383613c97565b61161a565b60008381526013602052604090205460125461160e91600160301b90910461ffff169061389b565b905061161a8383613ce0565b6000838152600560209081526040808320546018909252822043905590808383106116845760125461165c90606490610bdb908790610100900460ff1661389b565b60125490925061167d90606490610bdb90879062010000900460ff1661389b565b90506116bf565b6012546116a190606490610bdb908690610100900460ff1661389b565b91506116b3838363ffffffff6138d516565b90506116bf8686613a9d565b6000868152600560205260409020546116e4908290610f4b908563ffffffff6138d516565b6000878152600560205260409020556007546001600160a01b03166117285761170d3383613b17565b600254611723906001600160a01b031682613b17565b61175c565b60075461173f906001600160a01b03163384613ba9565b60075460025461175c916001600160a01b03908116911683613ba9565b50506001805550505050565b600b54600c54600d54600e54600f5460105460ff808516946101008104821694620100008204831694630100000083048416946001600160a01b03600160201b90940484169492841693821692600160a01b8304811692600160a81b900416908c565b6000918252602080805260408084206001600160a01b0393909316845291905290205490565b600260015414156118145760405162461bcd60e51b81526004016103b1906147db565b6002600155336118365760405162461bcd60e51b81526004016103b19061478d565b600d546010546040516310f15c6760e21b8152600092600160201b90046001600160a01b0316916343c5719c91611872919087906004016148ac565b60206040518083038186803b15801561188a57600080fd5b505afa15801561189e573d6000803e3d6000fd5b505050506040513d601f19601f820116820180604052508101906118c29190614114565b60075490915060009081906001600160a01b031661190257349150828210156118fd5760405162461bcd60e51b81526004016103b19061446b565b6119a9565b600754604051636eb1769f60e11b81528493506001600160a01b039091169063dd62ed3e90611937903390309060040161424a565b60206040518083038186803b15801561194f57600080fd5b505afa158015611963573d6000803e3d6000fd5b505050506040513d601f19601f820116820180604052508101906119879190614114565b9050828110156119a95760405162461bcd60e51b81526004016103b1906146aa565b336000818152600360209081526040808320805460ff19908116600117909155600a805485526004845282852080546001600160a01b0319168717905580548552600584528285208890558054855260138085528386208b905581548652600685528386208c9055815486528452828520436002909101558054855260149093528184208054909116905590548083529120547fb5fc3d506c41cd40561721384de79a1f60100fa35772ca7e200e100cabba7cee9290859060ff166009811115611a6f57fe5b604051611a7f9493929190614872565b60405180910390a1600a54611a9b90600163ffffffff61395916565b600a556007546001600160a01b031615611ac757600754611ac7906001600160a01b0316333086613d0d565b505060018055505050565b60026001541415611af55760405162461bcd60e51b81526004016103b1906147db565b60026001556008546001600160a01b03828116911614611b275760405162461bcd60e51b81526004016103b1906147b9565b60008281526014602052604081205460ff166009811115611b4457fe5b14611b615760405162461bcd60e51b81526004016103b190614390565b6000611b6c83610ed9565b600d549091506301000000900460ff16811015611b9b5760405162461bcd60e51b81526004016103b190614812565b600854604051636eb1769f60e11b81526000916001600160a01b03169063dd62ed3e90611bce903390309060040161424a565b60206040518083038186803b158015611be657600080fd5b505afa158015611bfa573d6000803e3d6000fd5b505050506040513d601f19601f82011682018060405250810190611c1e9190614114565b600085815260066020526040902054909150811015611c4f5760405162461bcd60e51b81526004016103b1906146aa565b6000848152602160209081526040808320600180825582516060810184523380825260648287019081528b88526015875285882080548488019081528d8a52601e8952878a20868b528952878a20945185546001600160a01b0319166001600160a01b03918216178655925185870155516002909401939093558b8852601f87528588208289528752858820805460ff1990811686179091558c89529454878052868920928952918752858820919091558a87526014865284872080549094169092179092554391829055601b845282852091909155600d54601054600690945282852054925163c175771b60e01b8152600160201b9091049091169263c175771b92611d5e926004016148ac565b60206040518083038186803b158015611d7657600080fd5b505afa158015611d8a573d6000803e3d6000fd5b505050506040513d601f19601f82011682018060405250810190611dae9190614114565b600d54604051632976f2fb60e11b8152919250600091600160201b9091046001600160a01b0316906352ede5f690611dea908590600401614869565b60206040518083038186803b158015611e0257600080fd5b505afa158015611e16573d6000803e3d6000fd5b505050506040513d601f19601f82011682018060405250810190611e3a9190614114565b600087815260056020526040902054909150611e5c908263ffffffff6138d516565b600087815260056020908152604080832093909355600854600482528383205460069092529290912054611ea0926001600160a01b03908116923392911690613d0d565b6007546001600160a01b0316611ecb57600254611ec6906001600160a01b031682613b17565b611ee8565b600754600254611ee8916001600160a01b03908116911683613ba9565b6000868152601460205260408120546000805160206149f683398151915291889160ff166009811115611f1757fe5b604051611f2693929190614896565b60405180910390a150506001805550505050565b6007546000906001600160a01b0316611f5457504761153f565b6007546040516370a0823160e01b81526001600160a01b03909116906370a0823190611f84903090600401614236565b60206040518083038186803b158015611f9c57600080fd5b505afa158015611fb0573d6000803e3d6000fd5b505050506040513d601f19601f82011682018060405250810190611fd49190614114565b905061153f565b611fe3613dfe565b6000546001600160a01b039081169116146120105760405162461bcd60e51b81526004016103b190614675565b600080546040516001600160a01b03909116907f8be0079c531659141344cd1fd0a4f28419497f9722a3daafe3b4186f6b6457e0908390a3600080546001600160a01b0319169055565b60006002600154141561207f5760405162461bcd60e51b81526004016103b1906147db565b600260015561208e8433612c64565b6120aa5760405162461bcd60e51b81526004016103b1906143dc565b60006120b685336117cb565b9050600081116120d85760405162461bcd60e51b81526004016103b19061476b565b6000858152601e602090815260408083208484529091529020600101548311156121145760405162461bcd60e51b81526004016103b190614581565b600b546000868152601560205260409020540143116121455760405162461bcd60e51b81526004016103b190614724565b600061215086612946565b905060015b60008781526021602052604090205460ff8216116121a7576000878152601e6020908152604080832060ff8516845290915290205461219f9088906001600160a01b03168461397e565b600101612155565b506000868152601e602090815260408083208584529091529020600101546121d5908563ffffffff6138d516565b6000878152601e602090815260408083208684529091529020600101556121fc8686612c64565b6122cd5760008681526021602052604090205461222090600163ffffffff61395916565b600087815260216020908152604080832084815581516060810183526001600160a01b038b81168083528286018c8152438487019081528f8952601e8852868920998952988752858820935184546001600160a01b0319169316929092178355905160018084019190915596516002909201919091558b8552601f84528285208186528452828520805460ff19169096179095558a8452548280528184209484529390915290205561237b565b60006122d987876117cb565b6000888152601e60209081526040808320848452909152902060010154909150612309908663ffffffff61395916565b6000888152601e60209081526040808320858452909152908190206001810192909255436002909201919091555185906001600160a01b038816907f200a94727a4449569a7ab17cf3a0a0ad23bf65d2081ec1da2f37aaac779ac50e90612371908b90614869565b60405180910390a3505b6000868152601b6020526040812043905561239587613394565b60018055979650505050505050565b60136020526000908152604090208054600182015460029092015490919083565b600260015414156123e85760405162461bcd60e51b81526004016103b1906147db565b60026001556000828152600460205260409020546001600160a01b031633146124235760405162461bcd60e51b81526004016103b1906144c6565b600061242e83613394565b905060018111156124515760405162461bcd60e51b81526004016103b190614652565b600d5460009061246c9085906301000000900460ff16610b0d565b90508083111561248e5760405162461bcd60e51b81526004016103b19061436f565b6000848152600560205260409020546124ad908463ffffffff6138d516565b60008581526005602090815260408083209390935560179052819020439055517f6c0ea3bea9dd66afa8f9d39d6eb93d833466190330813b42835efc650dca4cb9906124fc90869086906148ac565b60405180910390a16007546001600160a01b03166125235761251e3384613b17565b61253a565b60075461253a906001600160a01b03163385613ba9565b5050600180555050565b60156020526000908152604090205481565b601c6020526000908152604090205481565b6000546001600160a01b031690565b600d54600160201b90046001600160a01b031633146125a85760405162461bcd60e51b81526004016103b19061455f565b600b60020160049054906101000a90046001600160a01b03166001600160a01b0316631a55d9e96040518163ffffffff1660e01b815260040160e06040518083038186803b1580156125f957600080fd5b505afa15801561260d573d6000803e3d6000fd5b505050506040513d601f19601f820116820180604052508101906126319190613f7e565b805160115560208101516012805460408401516060850151608086015160a087015160c09097015160ff1990941660ff9687161761ff001916610100938716939093029290921762ff0000191662010000918616919091021763ff0000001916630100000094909116939093029290921765ffff000000001916600160201b61ffff948516021767ffff0000000000001916600160301b9390921692909202179055565b6002546001600160a01b031681565b6000600260015414156127095760405162461bcd60e51b81526004016103b1906147db565b600260015560008281526014602052604090205460ff16600981111561272b57fe5b60041461274a5760405162461bcd60e51b81526004016103b1906145ef565b6000828152601c6020526040812054158015906127875750600c546000848152601c60205260409020546127839163ffffffff61395916565b4310155b1561293c576000838152601360205260408120546012546127b491600160301b90910461ffff169061389b565b6000858152600560205260408120549192508083831061283c576012546127eb90606490610bdb908790610100900460ff1661389b565b60125490925061280c90606490610bdb90879062010000900460ff1661389b565b60008881526014602052604090205490915061283790889060ff16600981111561283257fe5b613ce0565b612896565b60125461285990606490610bdb908690610100900460ff1661389b565b915061286b838363ffffffff6138d516565b60008881526014602052604090205490915061289690889060ff16600981111561289157fe5b613a9d565b6000878152600560205260409020546128bb908290610f4b908563ffffffff6138d516565b600088815260056020526040902055600754600195506001600160a01b0316612903576128e83383613b17565b6002546128fe906001600160a01b031682613b17565b612937565b60075461291a906001600160a01b03163384613ba9565b600754600254612937916001600160a01b03908116911683613ba9565b505050505b6001805592915050565b600081815260146020526040812054819060ff16600981111561296557fe5b11801561298f575060008281526014602052604090205460089060ff16600981111561298d57fe5b105b15612a6a57600b5460008381526015602052604081205490916129b8919063ffffffff61395916565b9050600660008481526014602052604090205460ff1660098111156129d957fe5b1480156129e65750804311155b156129fc576129f58382610c6f565b9150612a3c565b6000838152601a602052604090205415612a2f576000838152601a60205260409020546129f590849061042b9043613e02565b612a398343610c6f565b91505b600083815260056020526040902054821115612a645760008381526005602052604090205491505b50610e5e565b506000919050565b60196020526000908152604090205481565b6007546001600160a01b031681565b60036020526000908152604090205460ff1681565b6009805460408051602060026001851615610100026000190190941693909304601f81018490048402820184019092528181529291830182828015612b2e5780601f10612b0357610100808354040283529160200191612b2e565b820191906000526020600020905b815481529060010190602001808311612b1157829003601f168201915b505050505081565b60056020526000908152604090205481565b600a5481565b60216020526000908152604090205481565b6004602052600090815260409020546001600160a01b031681565b600d54600160201b90046001600160a01b03163314612bac5760405162461bcd60e51b81526004016103b19061455f565b806009811115612bb857fe5b6000838152601460205260409020805460ff19166001836009811115612bda57fe5b02179055505050565b60208080526000928352604080842090915290825290205481565b60008181526014602052604081205460ff166009811115612c1b57fe5b1415612c3d57612c2a81610ed9565b6000828152601360205260409020600101555b50565b60146020526000908152604090205460ff1681565b6008546001600160a01b031681565b6000918252601f602090815260408084206001600160a01b0393909316845291905290205460ff1690565b600080612c9a6114b9565b90506000612ca6612dea565b600087815260066020526040812054919250612cc188613382565b905060008615612ce257612cdb828963ffffffff61395916565b9050612d08565b81881015612cfa57612cdb828963ffffffff6138d516565b600095505050505050610cce565b6000612d1f6064610b5b848963ffffffff61389b16565b90506000612d3785600a88900a63ffffffff61389b16565b600f5490915060ff600160a81b82048116600160a01b9092041610612d9b57600f54600090612d799060ff600160a01b8204811691600160a81b9004166138d5565b9050612d93600a82900a610bdb858563ffffffff61391716565b985050612ddc565b600f54600090612dbe9060ff600160a81b8204811691600160a01b9004166138d5565b9050612dd882610bdb85600a85900a63ffffffff61389b16565b9850505b505050505050509392505050565b600f54601054604051632bd61f0560e11b81526000926001600160a01b0316916357ac3e0a91612e1d9190600401614869565b60206040518083038186803b158015612e3557600080fd5b505afa158015612e49573d6000803e3d6000fd5b505050506040513d601f19601f82011682018060405250810190612e6d91906141eb565b60ff16905090565b60026001541415612e985760405162461bcd60e51b81526004016103b1906147db565b60026001556007546001600160a01b0316612ec55760405162461bcd60e51b81526004016103b1906145cb565b600160008481526014602052604090205460ff166009811115612ee457fe5b10158015612f0f5750600460008481526014602052604090205460ff166009811115612f0c57fe5b11155b612f2b5760405162461bcd60e51b81526004016103b1906145a8565b6007546001600160a01b03838116911614612f585760405162461bcd60e51b81526004016103b190614314565b600754604051636eb1769f60e11b81526000916001600160a01b03169063dd62ed3e90612f8b903390309060040161424a565b60206040518083038186803b158015612fa357600080fd5b505afa158015612fb7573d6000803e3d6000fd5b505050506040513d601f19601f82011682018060405250810190612fdb9190614114565b905081811015612ffd5760405162461bcd60e51b81526004016103b1906146aa565b60008481526005602052604090205461301c908363ffffffff61395916565b6000858152600560209081526040808320939093556016905290812043905561304485613394565b90507fb5fc3d506c41cd40561721384de79a1f60100fa35772ca7e200e100cabba7cee8533858460405161307b9493929190614872565b60405180910390a1611ac784333086613d0d565b6000600660008381526014602052604090205460ff1660098111156130b057fe5b1492915050565b601b6020526000908152604090205481565b600d54600160201b90046001600160a01b031633146130fa5760405162461bcd60e51b81526004016103b19061455f565b600b60020160049054906101000a90046001600160a01b03166001600160a01b0316634fd758796040518163ffffffff1660e01b81526004016101806040518083038186803b15801561314c57600080fd5b505afa158015613160573d6000803e3d6000fd5b505050506040513d601f19601f820116820180604052508101906131849190614010565b8051600b556020810151600c556040810151600d80546060840151608085015160a086015160c087015160ff1990941660ff9687161761ff00191661010093871684021762ff0000191662010000928716929092029190911763ff000000191663010000009186169190910217640100000000600160c01b031916600160201b6001600160a01b03938416021790925560e0840151600e80546001600160a01b031990811692841692909217905591840151600f805461012087015161014088015191909516929093169190911760ff60a01b1916600160a01b938516939093029290921760ff60a81b1916600160a81b91909316029190911790556101600151601055565b600b54600082815260156020526040812054909182916132af9163ffffffff61395916565b90508043116132c2576001915050610e5e565b6000915050610e5e565b6132d4613dfe565b6000546001600160a01b039081169116146133015760405162461bcd60e51b81526004016103b190614675565b6001600160a01b0381166133275760405162461bcd60e51b81526004016103b190614425565b600080546040516001600160a01b03808516939216917f8be0079c531659141344cd1fd0a4f28419497f9722a3daafe3b4186f6b6457e091a3600080546001600160a01b0319166001600160a01b0392909216919091179055565b60009081526005602052604090205490565b600081815260146020526040812054819060ff1660098111156133b357fe5b1180156133dd575060008281526014602052604090205460059060ff1660098111156133db57fe5b105b156134a15760006133ed83610ed9565b600d54909150610100900460ff16811061342a576000838152601460209081526040808320805460ff19166001179055601c90915281205561349f565b600d54610100900460ff16811180159061344f5750600d5462010000900460ff168110155b15613472576000838152601460205260409020805460ff1916600217905561349f565b600d5462010000900460ff1681101561349f576000838152601460205260409020805460ff191660031790555b505b60008281526014602052604090205460ff166009811115610e5b57fe5b600260015414156134e15760405162461bcd60e51b81526004016103b1906147db565b60026001556000818152600460205260409020546001600160a01b0316331461351c5760405162461bcd60e51b81526004016103b1906144c6565b600061352782613394565b905060008111801561353a575060038111155b6135565760405162461bcd60e51b81526004016103b19061453c565b600854604051636eb1769f60e11b81526000916001600160a01b03169063dd62ed3e90613589903390309060040161424a565b60206040518083038186803b1580156135a157600080fd5b505afa1580156135b5573d6000803e3d6000fd5b505050506040513d601f19601f820116820180604052508101906135d99190614114565b60008481526006602052604090205490915081101561360a5760405162461bcd60e51b81526004016103b1906143b2565b600b546000848152601560205260408120549091014310156136365761362f84613e18565b9050613642565b61363f84612946565b90505b6000600660008681526014602052604090205460ff16600981111561366357fe5b141561368d5760008581526013602052604090205460115461368a9163ffffffff61389b16565b90505b600085815260056020526040812054906136ad848463ffffffff61395916565b600088815260196020908152604080832043905560149091528120805460ff191660071790559091508183106136f0576136ed838363ffffffff6138d516565b90505b60015b60008981526021602052604090205460ff8216116137a7576000898152601e6020908152604080832060ff851684529091528120546001600160a01b03169061373c8b836117cb565b60008c8152601e60209081526040808320848452825280832060010154600854600a5485526006909352922054929350909161379c916001600160a01b0316903390869061379790606490610bdb908863ffffffff61389b16565b613d0d565b5050506001016136f3565b506000888152600560205260409020546137cd908590610f4b908463ffffffff6138d516565b6000898152600560205260409020556007546001600160a01b0316613811576137f63382613b17565b60025461380c906001600160a01b031685613b17565b613845565b600754613828906001600160a01b03163383613ba9565b600754600254613845916001600160a01b03908116911686613ba9565b6000888152601460205260409020546000805160206149f6833981519152908990899060ff16600981111561387657fe5b60405161388593929190614896565b60405180910390a1505060018055505050505050565b6000826138aa57506000610c69565b828202828482816138b757fe5b0414610cce5760405162461bcd60e51b81526004016103b190614611565b6000610cce83836040518060400160405280601e81526020017f536166654d6174683a207375627472616374696f6e206f766572666c6f770000815250613eb5565b6000610cce83836040518060400160405280601a81526020017f536166654d6174683a206469766973696f6e206279207a65726f000000000000815250613ee1565b600082820183811015610cce5760405162461bcd60e51b81526004016103b19061448f565b6139888383612c64565b6139a45760405162461bcd60e51b81526004016103b1906143dc565b60015b60008481526021602052604090205460ff821611613a97576000848152601e6020908152604080832060ff851684529091528120546139f09086906001600160a01b03166117cb565b6000868152601e60209081526040808320848452909152812060010154919250613a256064610bdb878563ffffffff61389b16565b600088815260056020526040902054909150613a47908263ffffffff6138d516565b6000888152600560205260409020556007546001600160a01b0316613a7557613a708682613b17565b613a8c565b600754613a8c906001600160a01b03168783613ba9565b5050506001016139a7565b50505050565b6000828152601a602090815260408083204390556014909152902080546008919060ff19166001835b02179055506000828152601460205260409020546000805160206149f6833981519152908390839060ff166009811115613afc57fe5b604051613b0b93929190614896565b60405180910390a15050565b604080516000808252602082019092526001600160a01b038416908390604051613b41919061421a565b60006040518083038185875af1925050503d8060008114613b7e576040519150601f19603f3d011682016040523d82523d6000602084013e613b83565b606091505b5050905080613ba45760405162461bcd60e51b81526004016103b19061450c565b505050565b60006060846001600160a01b031663a9059cbb8585604051602401613bcf929190614288565b6040516020818303038152906040529060e01b6020820180516001600160e01b038381831617835250505050604051613c08919061421a565b6000604051808303816000865af19150503d8060008114613c45576040519150601f19603f3d011682016040523d82523d6000602084013e613c4a565b606091505b5091509150818015613c74575080511580613c74575080806020019051810190613c749190613f62565b613c905760405162461bcd60e51b81526004016103b19061483d565b5050505050565b6000828152601460208181526040808420805460ff19166004178155601c8352932043905552546000805160206149f6833981519152908390839060ff166009811115613afc57fe5b6000828152601d602090815260408083204390556014909152902080546005919060ff1916600183613ac6565b60006060856001600160a01b03166323b872dd868686604051602401613d3593929190614264565b6040516020818303038152906040529060e01b6020820180516001600160e01b038381831617835250505050604051613d6e919061421a565b6000604051808303816000865af19150503d8060008114613dab576040519150601f19603f3d011682016040523d82523d6000602084013e613db0565b606091505b5091509150818015613dda575080511580613dda575080806020019051810190613dda9190613f62565b613df65760405162461bcd60e51b81526004016103b190614338565b505050505050565b3390565b6000818310613e115781610cce565b5090919050565b6000818152601460209081526040808320805460ff19166006179055600b54601b909252822054829015613e8957600084815260156020908152604080832054601b90925290912054613e709163ffffffff6138d516565b600b54909150613e86908263ffffffff6138d516565b91505b600084815260136020526040812054613eac90610b5b858563ffffffff6138d516565b95945050505050565b60008184841115613ed95760405162461bcd60e51b81526004016103b191906142e1565b505050900390565b60008183613f025760405162461bcd60e51b81526004016103b191906142e1565b506000838581613f0e57fe5b0495945050505050565b8051610c69816149d2565b805161ffff81168114610c6957600080fd5b805160ff81168114610c6957600080fd5b600060208284031215613f57578081fd5b8135610cce816149d2565b600060208284031215613f73578081fd5b8151610cce816149e7565b600060e08284031215613f8f578081fd5b613f9960e061497f565b82518152613faa8460208501613f35565b6020820152613fbc8460408501613f35565b6040820152613fce8460608501613f35565b6060820152613fe08460808501613f35565b6080820152613ff28460a08501613f23565b60a08201526140048460c08501613f23565b60c08201529392505050565b6000610180808385031215614023578182fd5b61402c8161497f565b83518152602084015160208201526140478560408601613f35565b60408201526140598560608601613f35565b606082015261406b8560808601613f35565b608082015261407d8560a08601613f35565b60a082015261408f8560c08601613f18565b60c08201526140a18560e08601613f18565b60e082015261010091506140b785838601613f18565b8282015261012091506140cc85838601613f35565b8282015261014091506140e185838601613f35565b91810191909152610160928301519281019290925250919050565b60006020828403121561410d578081fd5b5035919050565b600060208284031215614125578081fd5b5051919050565b6000806040838503121561413e578081fd5b823591506020830135614150816149d2565b809150509250929050565b60008060006060848603121561416f578081fd5b833592506020840135614181816149d2565b929592945050506040919091013590565b600080604083850312156141a4578182fd5b50508035926020909101359150565b6000806000606084860312156141c7578283fd5b833592506020840135915060408401356141e0816149e7565b809150509250925092565b6000602082840312156141fc578081fd5b610cce8383613f35565b6001600160a01b03169052565b60ff169052565b6000825161422c8184602087016149a6565b9190910192915050565b6001600160a01b0391909116815260200190565b6001600160a01b0392831681529116602082015260400190565b6001600160a01b039384168152919092166020820152604081019190915260600190565b6001600160a01b03929092168252602082015260400190565b6001600160a01b039390931683526020830191909152604082015260600190565b901515815260200190565b60208101600a83106142db57fe5b91905290565b60006020825282518060208401526143008160408501602087016149a6565b601f01601f19169190910160400192915050565b6020808252600a908201526910b1b7b6362a37b5b2b760b11b604082015260600190565b60208082526017908201527f5448205452414e534645525f46524f4d5f4641494c4544000000000000000000604082015260600190565b6020808252600790820152660a8dede9aeac6d60cb1b604082015260600190565b602080825260089082015267021537461747573360c41b604082015260600190565b60208082526010908201526f21616c6c6f77616e6365536574746c6560801b604082015260600190565b6020808252600c908201526b10b9b430b932b437b63232b960a11b604082015260600190565b60208082526009908201526821537461747573323360b81b604082015260600190565b60208082526026908201527f4f776e61626c653a206e6577206f776e657220697320746865207a65726f206160408201526564647265737360d01b606082015260800190565b6020808252600a90820152690428adcdeeaced08ae8d60b31b604082015260600190565b6020808252601b908201527f536166654d6174683a206164646974696f6e206f766572666c6f770000000000604082015260600190565b60208082526009908201526810b137b93937bbb2b960b91b604082015260600190565b60208082526009908201526821537461747573313760b81b604082015260600190565b60208082526016908201527515120811551217d514905394d1915497d1905253115160521b604082015260600190565b60208082526009908201526821537461747573313360b81b604082015260600190565b60208082526008908201526721666163746f727960c01b604082015260600190565b6020808252600d908201526c21656e6f75676853686172657360981b604082015260600190565b6020808252600990820152680854dd185d1d5ccc4d60ba1b604082015260600190565b6020808252600a908201526910aa37b5b2b72637b0b760b11b604082015260600190565b6020808252600890820152670854dd185d1d5ccd60c21b604082015260600190565b60208082526021908201527f536166654d6174683a206d756c7469706c69636174696f6e206f766572666c6f6040820152607760f81b606082015260800190565b60208082526009908201526821537461747573303160b81b604082015260600190565b6020808252818101527f4f776e61626c653a2063616c6c6572206973206e6f7420746865206f776e6572604082015260600190565b6020808252600a908201526921616c6c6f77616e636560b01b604082015260600190565b602080825260119082015270455448206e6f742061636365707465642160781b604082015260600190565b60208082526011908201527010bb30b634b2213637b1b5a73ab6b132b960791b604082015260600190565b6020808252600b908201526a6561726c7957696e646f7760a81b604082015260600190565b60208082526008908201526710a2aa242637b0b760c11b604082015260600190565b602080825260089082015267217368506c61636560c01b604082015260600190565b6020808252601290820152715f73656e6465725a65726f4164647265737360701b604082015260600190565b60208082526008908201526721546f6b656e4f6b60c01b604082015260600190565b6020808252601f908201527f5265656e7472616e637947756172643a207265656e7472616e742063616c6c00604082015260600190565b60208082526011908201527008515b9bdd59da10dbdb1b185d195c985b607a1b604082015260600190565b6020808252601290820152711512081514905394d1915497d1905253115160721b604082015260600190565b90815260200190565b9384526001600160a01b039290921660208401526040830152606082015260800190565b9283526020830191909152604082015260600190565b918252602082015260400190565b8c8152602081018c905260ff8b811660408301528a811660608301528981166080830152881660a08201526001600160a01b0387811660c0830152861660e0820152610180810161490f610100830187614206565b61491d610120830186614213565b61492b610140830185614213565b826101608301529d9c50505050505050505050505050565b96875260ff958616602088015293851660408701529184166060860152909216608084015261ffff91821660a08401521660c082015260e00190565b60405181810167ffffffffffffffff8111828210171561499e57600080fd5b604052919050565b60005b838110156149c15781810151838201526020016149a9565b83811115613a975750506000910152565b6001600160a01b0381168114612c3d57600080fd5b8015158114612c3d57600080fdfeddb3cb0edd8e6f88df033616b55512cf2d794cbfb6569e383a80654252561b19a26469706673582212206d7a10e1037ecbf1b83b25ba8c1b1e65d6c0027c2b6888975451c0d11b0938ac64736f6c634300060b0033a26469706673582212208ae7954500bc947394a6fa2df532d69fc6e5c4ae243d3468ed58288df56d559f64736f6c634300060b0033",
  "immutableReferences": {},
  "source": "// SPDX-License-Identifier: MIT\n/**\n * Created on 2020-10-23\n * @summary: Jibrel Loan Deployer\n * @author: Jibrel Team\n */\npragma solidity 0.6.11;\npragma experimental ABIEncoderV2;\n\nimport \"@openzeppelin/contracts/access/Ownable.sol\";\nimport \"./IJFactory.sol\";\nimport \"./IJLoanCommons.sol\";\nimport \"./JLoan.sol\";\n\n\ncontract JLoanDeployer is Ownable {\n    address private feesCollector;\n\n    IJLoanCommons.GeneralParams public loanParams;\n\n    constructor() public { }\n\n    modifier onlyLoanFactory() {\n        require(msg.sender == loanParams.factoryAddress, \"!factory\");\n        _;\n    }\n\n    /**\n    * @dev set loan factory contract address\n    * @param _factAddr, address of loan factory contract to add\n    */\n    function setLoanFactory(address _factAddr) external onlyOwner {\n        loanParams.factoryAddress = _factAddr;\n    }\n\n     /**\n    * @dev deploy a new eth loan contract, add its address to internal variables\n    * @param _pairId, id of the pair\n    * @param _factAddr, factory address\n    * @param _collToken, collateral token address\n    * @param _lendToken, lender token address\n    * @return address of new pair contract\n    */              \n    function deployNewLoanContract(uint _pairId, address _factAddr, address _collToken, address _lendToken) external onlyLoanFactory returns (address) {\n        address newLoanContract = address(new JLoan(_pairId, _factAddr, _collToken, _lendToken, feesCollector));\n        return newLoanContract;\n    }\n\n\n    /**\n    * @dev set the fee collector contract address\n    * @param _feeColl fees collectro address\n    */\n    function setFeesCollector(address _feeColl) external onlyOwner {\n        feesCollector = _feeColl;\n    }\n\n    /**\n    * @dev get the fee collector contract address\n    * @return fee collector address\n    */\n    function getFeesCollector() external view returns(address) {\n        return feesCollector;\n    }\n\n}\n",
  "sourcePath": "C:/Users/saurabh/code/Jibrel/defi-smartcontracts/LoansFactoryV2/contracts/JLoanDeployer.sol",
  "compiler": {
    "name": "solc",
    "version": "0.6.11+commit.5ef660b1.Emscripten.clang"
  },
  "schemaVersion": "3.3.1",
  "updatedAt": "2020-11-02T06:59:30.064Z",
  "networkType": "ethereum",
  "devdoc": {
    "kind": "dev",
    "methods": {
      "deployNewLoanContract(uint256,address,address,address)": {
        "details": "deploy a new eth loan contract, add its address to internal variables",
        "params": {
          "_collToken": ", collateral token address",
          "_factAddr": ", factory address",
          "_lendToken": ", lender token address",
          "_pairId": ", id of the pair"
        },
        "returns": {
          "_0": "address of new pair contract"
        }
      },
      "getFeesCollector()": {
        "details": "get the fee collector contract address",
        "returns": {
          "_0": "fee collector address"
        }
      },
      "owner()": {
        "details": "Returns the address of the current owner."
      },
      "renounceOwnership()": {
        "details": "Leaves the contract without owner. It will not be possible to call `onlyOwner` functions anymore. Can only be called by the current owner. NOTE: Renouncing ownership will leave the contract without an owner, thereby removing any functionality that is only available to the owner."
      },
      "setFeesCollector(address)": {
        "details": "set the fee collector contract address",
        "params": {
          "_feeColl": "fees collectro address"
        }
      },
      "setLoanFactory(address)": {
        "details": "set loan factory contract address",
        "params": {
          "_factAddr": ", address of loan factory contract to add"
        }
      },
      "transferOwnership(address)": {
        "details": "Transfers ownership of the contract to a new account (`newOwner`). Can only be called by the current owner."
      }
    },
    "version": 1
  },
  "userdoc": {
    "kind": "user",
    "methods": {},
    "version": 1
  }
}