{
  "contractName": "JLoanTokenDeployer",
  "abi": [
    {
      "inputs": [],
      "stateMutability": "nonpayable",
      "type": "constructor"
    },
    {
      "anonymous": false,
      "inputs": [
        {
          "indexed": true,
          "internalType": "address",
          "name": "previousOwner",
          "type": "address"
        },
        {
          "indexed": true,
          "internalType": "address",
          "name": "newOwner",
          "type": "address"
        }
      ],
      "name": "OwnershipTransferred",
      "type": "event"
    },
    {
      "anonymous": false,
      "inputs": [
        {
          "indexed": false,
          "internalType": "uint256",
          "name": "idx",
          "type": "uint256"
        },
        {
          "indexed": false,
          "internalType": "uint256",
          "name": "oldStatus",
          "type": "uint256"
        },
        {
          "indexed": false,
          "internalType": "uint256",
          "name": "newStatus",
          "type": "uint256"
        }
      ],
      "name": "SetNewStatus",
      "type": "event"
    },
    {
      "inputs": [],
      "name": "borrowerLength",
      "outputs": [
        {
          "internalType": "uint256",
          "name": "",
          "type": "uint256"
        }
      ],
      "stateMutability": "view",
      "type": "function",
      "constant": true
    },
    {
      "inputs": [
        {
          "internalType": "uint256",
          "name": "",
          "type": "uint256"
        }
      ],
      "name": "borrowerList",
      "outputs": [
        {
          "internalType": "address",
          "name": "",
          "type": "address"
        }
      ],
      "stateMutability": "view",
      "type": "function",
      "constant": true
    },
    {
      "inputs": [
        {
          "internalType": "address",
          "name": "",
          "type": "address"
        }
      ],
      "name": "borrowers",
      "outputs": [
        {
          "internalType": "bool",
          "name": "",
          "type": "bool"
        }
      ],
      "stateMutability": "view",
      "type": "function",
      "constant": true
    },
    {
      "inputs": [],
      "name": "loanParams",
      "outputs": [
        {
          "internalType": "uint256",
          "name": "minRpbRate",
          "type": "uint256"
        },
        {
          "internalType": "uint256",
          "name": "earlySettlementWindow",
          "type": "uint256"
        },
        {
          "internalType": "uint256",
          "name": "foreclosureWindow",
          "type": "uint256"
        },
        {
          "internalType": "uint8",
          "name": "requiredCollateralRatio",
          "type": "uint8"
        },
        {
          "internalType": "uint8",
          "name": "foreclosingRatio",
          "type": "uint8"
        },
        {
          "internalType": "uint8",
          "name": "instantForeclosureRatio",
          "type": "uint8"
        },
        {
          "internalType": "uint8",
          "name": "limitCollRatioForWithdraw",
          "type": "uint8"
        },
        {
          "internalType": "address",
          "name": "factoryAddress",
          "type": "address"
        },
        {
          "internalType": "address",
          "name": "ethDeployerAddress",
          "type": "address"
        },
        {
          "internalType": "address",
          "name": "tokenDeployerAddress",
          "type": "address"
        }
      ],
      "stateMutability": "view",
      "type": "function",
      "constant": true
    },
    {
      "inputs": [],
      "name": "owner",
      "outputs": [
        {
          "internalType": "address",
          "name": "",
          "type": "address"
        }
      ],
      "stateMutability": "view",
      "type": "function",
      "constant": true
    },
    {
      "inputs": [],
      "name": "renounceOwnership",
      "outputs": [],
      "stateMutability": "nonpayable",
      "type": "function"
    },
    {
      "inputs": [
        {
          "internalType": "address",
          "name": "newOwner",
          "type": "address"
        }
      ],
      "name": "transferOwnership",
      "outputs": [],
      "stateMutability": "nonpayable",
      "type": "function"
    },
    {
      "inputs": [
        {
          "internalType": "address",
          "name": "_factAddr",
          "type": "address"
        }
      ],
      "name": "setLoanFactory",
      "outputs": [],
      "stateMutability": "nonpayable",
      "type": "function"
    },
    {
      "inputs": [
        {
          "internalType": "uint256",
          "name": "_newValue",
          "type": "uint256"
        }
      ],
      "name": "setTokenLoansCounter",
      "outputs": [],
      "stateMutability": "nonpayable",
      "type": "function"
    },
    {
      "inputs": [],
      "name": "getDeployedTokenLoansCounter",
      "outputs": [
        {
          "internalType": "uint256",
          "name": "",
          "type": "uint256"
        }
      ],
      "stateMutability": "view",
      "type": "function",
      "constant": true
    },
    {
      "inputs": [
        {
          "internalType": "uint256",
          "name": "idx",
          "type": "uint256"
        }
      ],
      "name": "getDeployedTokenLoanAddress",
      "outputs": [
        {
          "internalType": "address",
          "name": "",
          "type": "address"
        }
      ],
      "stateMutability": "view",
      "type": "function",
      "constant": true
    },
    {
      "inputs": [
        {
          "internalType": "address",
          "name": "_loanAddr",
          "type": "address"
        }
      ],
      "name": "isTokenLoanDeployed",
      "outputs": [
        {
          "internalType": "bool",
          "name": "",
          "type": "bool"
        }
      ],
      "stateMutability": "view",
      "type": "function",
      "constant": true
    },
    {
      "inputs": [
        {
          "internalType": "address",
          "name": "_sender",
          "type": "address"
        },
        {
          "internalType": "uint256",
          "name": "_id",
          "type": "uint256"
        },
        {
          "internalType": "uint256",
          "name": "_pairId",
          "type": "uint256"
        },
        {
          "internalType": "uint256",
          "name": "_borrowedAskAmount",
          "type": "uint256"
        },
        {
          "internalType": "uint256",
          "name": "_rpbRate",
          "type": "uint256"
        },
        {
          "internalType": "address",
          "name": "_factAddr",
          "type": "address"
        },
        {
          "internalType": "address",
          "name": "_collToken",
          "type": "address"
        },
        {
          "internalType": "address",
          "name": "_lendToken",
          "type": "address"
        },
        {
          "internalType": "uint256",
          "name": "_contractAmount",
          "type": "uint256"
        }
      ],
      "name": "deployNewTokenLoanContract",
      "outputs": [
        {
          "internalType": "address",
          "name": "",
          "type": "address"
        }
      ],
      "stateMutability": "nonpayable",
      "type": "function"
    },
    {
      "inputs": [
        {
          "internalType": "uint256",
          "name": "_idx",
          "type": "uint256"
        }
      ],
      "name": "setTokenLoanCommonParamsInContract",
      "outputs": [],
      "stateMutability": "nonpayable",
      "type": "function"
    },
    {
      "inputs": [
        {
          "internalType": "uint256",
          "name": "_idx",
          "type": "uint256"
        }
      ],
      "name": "setTokenLoanFeesParamsInContract",
      "outputs": [],
      "stateMutability": "nonpayable",
      "type": "function"
    },
    {
      "inputs": [
        {
          "internalType": "uint256",
          "name": "_idx",
          "type": "uint256"
        },
        {
          "internalType": "uint256",
          "name": "_newStatus",
          "type": "uint256"
        }
      ],
      "name": "setTokenStatusInTokenContract",
      "outputs": [],
      "stateMutability": "nonpayable",
      "type": "function"
    },
    {
      "inputs": [
        {
          "internalType": "address",
          "name": "_borr",
          "type": "address"
        }
      ],
      "name": "isBorrower",
      "outputs": [
        {
          "internalType": "bool",
          "name": "",
          "type": "bool"
        }
      ],
      "stateMutability": "view",
      "type": "function",
      "constant": true
    },
    {
      "inputs": [
        {
          "internalType": "address payable",
          "name": "_feeColl",
          "type": "address"
        }
      ],
      "name": "setFeesCollector",
      "outputs": [],
      "stateMutability": "nonpayable",
      "type": "function"
    },
    {
      "inputs": [],
      "name": "getFeesCollector",
      "outputs": [
        {
          "internalType": "address",
          "name": "",
          "type": "address"
        }
      ],
      "stateMutability": "view",
      "type": "function",
      "constant": true
    },
    {
      "inputs": [
        {
          "internalType": "address",
          "name": "_sender",
          "type": "address"
        },
        {
          "internalType": "address",
          "name": "_tokenAddr",
          "type": "address"
        },
        {
          "internalType": "address",
          "name": "_loanContract",
          "type": "address"
        },
        {
          "internalType": "uint256",
          "name": "_borrowedAskAmount",
          "type": "uint256"
        }
      ],
      "name": "checkAllowance",
      "outputs": [
        {
          "internalType": "bool",
          "name": "",
          "type": "bool"
        }
      ],
      "stateMutability": "view",
      "type": "function",
      "constant": true
    }
  ],
  "bytecode": "0x608060405234801561001057600080fd5b5060006100246001600160e01b0361007316565b600080546001600160a01b0319166001600160a01b0383169081178255604051929350917f8be0079c531659141344cd1fd0a4f28419497f9722a3daafe3b4186f6b6457e0908290a350610077565b3390565b614dbe806100866000396000f3fe60806040523480156200001157600080fd5b5060043610620001485760003560e01c8063b57a8a6e11620000bd578063dab1f5e9116200007b578063dab1f5e914620002a8578063e56c013f14620002bf578063eaf6e48314620002d6578063f2fde38b14620002ed578063f5a23a2514620003045762000148565b8063b57a8a6e1462000233578063bca4698c146200024a578063bd0d151f1462000254578063bf5d50c4146200027a578063d7693c4514620002915762000148565b806374faec72116200010b57806374faec7214620001be57806379952a0a14620001e457806386a3199814620001fb5780638da5cb5b1462000212578063b3a66524146200021c5762000148565b806302768a80146200014d57806309e94d98146200016f57806328964fef1462000191578063373071f2146200019b578063715018a614620001b4575b600080fd5b620001576200031b565b60405162000166919062001147565b60405180910390f35b6200017962000321565b604051620001669a9998979695949392919062001166565b6200015762000371565b620001b2620001ac36600462000d62565b62000377565b005b620001b2620003dc565b620001d5620001cf36600462000dd8565b62000460565b60405162000166919062000f21565b620001b2620001f536600462000e91565b62000604565b620001b26200020c36600462000d62565b62000643565b620001d5620006ab565b620001d56200022d36600462000e91565b620006ba565b620001b26200024436600462000ec3565b620006e2565b620001d562000910565b6200026b6200026536600462000d81565b6200091f565b60405162000166919062000fc5565b6200026b6200028b36600462000d62565b620009cf565b620001b2620002a236600462000e91565b620009e4565b6200026b620002b936600462000d62565b62000a87565b620001b2620002d036600462000e91565b62000aa5565b6200026b620002e736600462000d62565b62000b2c565b620001b2620002fe36600462000d62565b62000b4a565b620001d56200031536600462000e91565b62000c08565b60015490565b600854600954600a54600b54600c54600d5460ff80841693610100810482169362010000820483169363010000008304909316926001600160a01b0364010000000090930483169291821691168a565b60055481565b6200038162000c23565b6000546001600160a01b03908116911614620003ba5760405162461bcd60e51b8152600401620003b190620010c9565b60405180910390fd5b600280546001600160a01b0319166001600160a01b0392909216919091179055565b620003e662000c23565b6000546001600160a01b03908116911614620004165760405162461bcd60e51b8152600401620003b190620010c9565b600080546040516001600160a01b03909116907f8be0079c531659141344cd1fd0a4f28419497f9722a3daafe3b4186f6b6457e0908390a3600080546001600160a01b0319169055565b600b5460009064010000000090046001600160a01b03163314620004985760405162461bcd60e51b8152600401620003b19062001084565b6001600160a01b038a16620004c15760405162461bcd60e51b8152600401620003b190620010fe565b6001600160a01b03808b16600081815260076020526040808220805460ff191660019081179091556006805491820181558084527ff652222313e28459528d920b65115c16c04f3efc82aaedc97be59f3f377c0d3f90910180546001600160a01b0319169094179093559154600555600254915190928d928d928d928d928d928d928d928d92911690620005559062000d54565b620005699998979695949392919062000f73565b604051809103906000f08015801562000586573d6000803e3d6000fd5b506001600160a01b0381166000818152600460209081526040808320805460ff1916600190811790915580548452600390925290912080546001600160a01b0319169092179091558054919250620005e5919063ffffffff62000c2716565b600155620005f6858c838662000c56565b9a9950505050505050505050565b6200060e62000c23565b6000546001600160a01b039081169116146200063e5760405162461bcd60e51b8152600401620003b190620010c9565b600155565b6200064d62000c23565b6000546001600160a01b039081169116146200067d5760405162461bcd60e51b8152600401620003b190620010c9565b600b80546001600160a01b0390921664010000000002640100000000600160c01b0319909216919091179055565b6000546001600160a01b031690565b60068181548110620006c857fe5b6000918252602090912001546001600160a01b0316905081565b620006ec62000c23565b6000546001600160a01b039081169116146200071c5760405162461bcd60e51b8152600401620003b190620010c9565b6007811115620007405760405162461bcd60e51b8152600401620003b190620010a6565b600082815260036020908152604080832054815163acc1ab1360e01b815291516001600160a01b039091169392849263acc1ab139260048083019392829003018186803b1580156200079157600080fd5b505afa158015620007a6573d6000803e3d6000fd5b505050506040513d601f19601f82011682018060405250810190620007cc919062000eaa565b905080831415620007f15760405162461bcd60e51b8152600401620003b19062001123565b604051633840cb5760e11b81526001600160a01b0383169063708196ae906200081f90869060040162001147565b600060405180830381600087803b1580156200083a57600080fd5b505af11580156200084f573d6000803e3d6000fd5b505050506000826001600160a01b031663acc1ab136040518163ffffffff1660e01b815260040160206040518083038186803b1580156200088f57600080fd5b505afa158015620008a4573d6000803e3d6000fd5b505050506040513d601f19601f82011682018060405250810190620008ca919062000eaa565b90507ff3fc2195268d1fa656d8e1bfd4601a9921ba9fdfccce82ef96ed57a2e13ce488858383604051620009019392919062001150565b60405180910390a15050505050565b6002546001600160a01b031690565b604051636eb1769f60e11b8152600090829082906001600160a01b0387169063dd62ed3e9062000956908a90899060040162000f35565b60206040518083038186803b1580156200096f57600080fd5b505afa15801562000984573d6000803e3d6000fd5b505050506040513d601f19601f82011682018060405250810190620009aa919062000eaa565b9050818110620009c057600192505050620009c7565b6000925050505b949350505050565b60076020526000908152604090205460ff1681565b620009ee62000c23565b6000546001600160a01b0390811691161462000a1e5760405162461bcd60e51b8152600401620003b190620010c9565b60008181526003602052604080822054815163918c3dbd60e01b815291516001600160a01b039091169263918c3dbd926004808201939182900301818387803b15801562000a6b57600080fd5b505af115801562000a80573d6000803e3d6000fd5b5050505050565b6001600160a01b031660009081526004602052604090205460ff1690565b62000aaf62000c23565b6000546001600160a01b0390811691161462000adf5760405162461bcd60e51b8152600401620003b190620010c9565b60008181526003602052604080822054815163150f9e6d60e11b815291516001600160a01b0390911692632a1f3cda926004808201939182900301818387803b15801562000a6b57600080fd5b6001600160a01b031660009081526007602052604090205460ff1690565b62000b5462000c23565b6000546001600160a01b0390811691161462000b845760405162461bcd60e51b8152600401620003b190620010c9565b6001600160a01b03811662000bad5760405162461bcd60e51b8152600401620003b19062001007565b600080546040516001600160a01b03808516939216917f8be0079c531659141344cd1fd0a4f28419497f9722a3daafe3b4186f6b6457e091a3600080546001600160a01b0319166001600160a01b0392909216919091179055565b6000908152600360205260409020546001600160a01b031690565b3390565b60008282018381101562000c4f5760405162461bcd60e51b8152600401620003b1906200104d565b9392505050565b60006060856001600160a01b03166323b872dd86868660405160240162000c809392919062000f4f565b6040516020818303038152906040529060e01b6020820180516001600160e01b03838183161783525050505060405162000cbb919062000ee5565b6000604051808303816000865af19150503d806000811462000cfa576040519150601f19603f3d011682016040523d82523d6000602084013e62000cff565b606091505b509150915081801562000d2d57508051158062000d2d57508080602001905181019062000d2d919062000e6f565b62000d4c5760405162461bcd60e51b8152600401620003b19062000fd0565b505050505050565b613bad80620011dc83390190565b60006020828403121562000d74578081fd5b813562000c4f81620011c2565b6000806000806080858703121562000d97578283fd5b843562000da481620011c2565b9350602085013562000db681620011c2565b9250604085013562000dc881620011c2565b9396929550929360600135925050565b60008060008060008060008060006101208a8c03121562000df7578485fd5b893562000e0481620011c2565b985060208a0135975060408a0135965060608a0135955060808a0135945060a08a013562000e3281620011c2565b935060c08a013562000e4481620011c2565b925060e08a013562000e5681620011c2565b809250506101008a013590509295985092959850929598565b60006020828403121562000e81578081fd5b8151801515811462000c4f578182fd5b60006020828403121562000ea3578081fd5b5035919050565b60006020828403121562000ebc578081fd5b5051919050565b6000806040838503121562000ed6578182fd5b50508035926020909101359150565b60008251815b8181101562000f07576020818601810151858301520162000eeb565b8181111562000f165782828501525b509190910192915050565b6001600160a01b0391909116815260200190565b6001600160a01b0392831681529116602082015260400190565b6001600160a01b039384168152919092166020820152604081019190915260600190565b6001600160a01b03998a1681526020810198909852604088019690965260608701949094526080860192909252851660a0850152841660c0840152831660e08301529091166101008201526101200190565b901515815260200190565b60208082526017908201527f5448205452414e534645525f46524f4d5f4641494c4544000000000000000000604082015260600190565b60208082526026908201527f4f776e61626c653a206e6577206f776e657220697320746865207a65726f206160408201526564647265737360d01b606082015260800190565b6020808252601b908201527f536166654d6174683a206164646974696f6e206f766572666c6f770000000000604082015260600190565b60208082526008908201526721666163746f727960c01b604082015260600190565b60208082526009908201526821537461747573303760b81b604082015260600190565b6020808252818101527f4f776e61626c653a2063616c6c6572206973206e6f7420746865206f776e6572604082015260600190565b6020808252600b908201526a5a65726f4164647265737360a81b604082015260600190565b6020808252600a9082015269216e657753746174757360b01b604082015260600190565b90815260200190565b9283526020830191909152604082015260600190565b998a5260208a0198909852604089019690965260ff9485166060890152928416608088015290831660a087015290911660c08501526001600160a01b0390811660e0850152908116610100840152166101208201526101400190565b6001600160a01b0381168114620011d857600080fd5b5056fe60806040523480156200001157600080fd5b5060405162003bad38038062003bad8339810160408190526200003491620004e8565b6001600081905580546001600160a01b031916331790556001600160a01b0389166200007d5760405162461bcd60e51b815260040162000074906200073f565b60405180910390fd5b600380546001600160a01b03199081166001600160a01b038c811691909117909255600480548216868416178155600580548316868516179055600280549092168484161790915560408051634fd7587960e01b8152905192871692634fd758799282810192610140929190829003018186803b158015620000fe57600080fd5b505afa15801562000113573d6000803e3d6000fd5b505050506040513d601f19601f8201168201806040525081019062000139919062000624565b80516006556020810151600755604080820151600855606082015160098054608085015160a086015160c087015160e08089015160ff1990951660ff9788161761ff00191661010094881685021762ff0000191662010000938816939093029290921763ff00000019166301000000969091169590950294909417600160201b600160c01b0319166401000000006001600160a01b03938416021790925590840151600a80546001600160a01b031990811692841692909217905561012090940151600b8054909516908216179093558151631a55d9e960e01b8152915192871692631a55d9e9926004808201939291829003018186803b1580156200023e57600080fd5b505afa15801562000253573d6000803e3d6000fd5b505050506040513d601f19601f8201168201806040525081019062000279919062000583565b805160145560208101516015805460408401516060850151608086015160a087015160c09097015160ff1990941660ff9687161761ff001916610100938716939093029290921762ff0000191662010000918616919091021763ff0000001916630100000094909116939093029290921761ffff60201b191664010000000061ffff948516021761ffff60301b191666010000000000009390921692909202179055600654851015620003405760405162461bcd60e51b815260040162000074906200071c565b600c889055600d85905560108790556011869055604051630404ea8960e21b81526001600160a01b03851690631013aa249062000382908a906004016200076b565b60206040518083038186803b1580156200039b57600080fd5b505afa158015620003b0573d6000803e3d6000fd5b505050506040513d601f19601f82011682018060405250810190620003d69190620006f7565b6012805460ff191660ff92909216919091179055604051633e17bdcb60e11b81526001600160a01b03851690637c2f7b969062000418908a906004016200076b565b60206040518083038186803b1580156200043157600080fd5b505afa15801562000446573d6000803e3d6000fd5b505050506040513d601f19601f820116820180604052508101906200046c9190620006f7565b6012805460ff929092166101000261ff0019909216919091179055505043600f5550506013805460ff19169055506200079b9350505050565b80516001600160a01b0381168114620004bd57600080fd5b92915050565b805161ffff81168114620004bd57600080fd5b805160ff81168114620004bd57600080fd5b60008060008060008060008060006101208a8c03121562000507578485fd5b620005138b8b620004a5565b985060208a0151975060408a0151965060608a0151955060808a01519450620005408b60a08c01620004a5565b9350620005518b60c08c01620004a5565b9250620005628b60e08c01620004a5565b9150620005748b6101008c01620004a5565b90509295985092959850929598565b600060e0828403121562000595578081fd5b620005a160e062000774565b82518152620005b48460208501620004d6565b6020820152620005c88460408501620004d6565b6040820152620005dc8460608501620004d6565b6060820152620005f08460808501620004d6565b6080820152620006048460a08501620004c3565b60a0820152620006188460c08501620004c3565b60c08201529392505050565b600061014080838503121562000638578182fd5b620006438162000774565b8351815260208401516020820152604084015160408201526200066a8560608601620004d6565b60608201526200067e8560808601620004d6565b6080820152620006928560a08601620004d6565b60a0820152620006a68560c08601620004d6565b60c0820152620006ba8560e08601620004a5565b60e08201526101009150620006d285838601620004a5565b828201526101209150620006e985838601620004a5565b918101919091529392505050565b60006020828403121562000709578081fd5b620007158383620004d6565b9392505050565b602080825260099082015268525042546f6f4c6f7760b81b604082015260600190565b6020808252601290820152715f73656e6465725a65726f4164647265737360701b604082015260600190565b90815260200190565b6040518181016001600160401b03811182821017156200079357600080fd5b604052919050565b61340280620007ab6000396000f3fe608060405234801561001057600080fd5b50600436106102955760003560e01c806385b4169611610167578063c0b27cc5116100ce578063e1c7111a11610087578063e1c7111a146104db578063e936e44a146104e3578063e9f33c5f146104eb578063ec98362e146104fe578063fb6222e814610506578063ff0d69a61461051957610295565b8063c0b27cc51461048c578063c2b0bf5814610494578063c55d2a471461049c578063d20fbeb6146104a4578063d5138948146104ac578063d75e1bd8146104c857610295565b8063a5d5db0c11610120578063a5d5db0c1461042c578063ab377daa1461043f578063acc1ab1314610461578063b2016bd414610469578063b2ca180514610471578063b89a73cb1461047957610295565b806385b41696146103e65780638b8141e1146103ee578063918c3dbd146103f657806395dcc255146103fe5780639cf160f614610411578063a41969e51461041957610295565b806342ac33791161020b5780636dd167f8116101c45780636dd167f8146103b65780636f9fb98a146103be57806372ef1031146103c657806374014c4d146103ce5780637ba61ea5146103d657806382f0c81c146103de57610295565b806342ac33791461035a57806347c865df146103625780635ced2a111461036a5780636112fe2e1461037d57806363aebb281461039057806363ce2287146103a357610295565b8063216c24901161025d578063216c24901461030857806328899423146103235780632a1f3cda1461032b5780632a2dae0a146103355780632a3d7c811461034a5780633cf348c31461035257610295565b806306bb531e1461029a578063074ca966146102b857806309e94d98146102cd57806318ad714a146102eb5780631daeaaa9146102f3575b600080fd5b6102a2610521565b6040516102af9190613202565b60405180910390f35b6102c061063b565b6040516102af9190612db4565b6102d5610644565b6040516102af9a999897969594939291906132a5565b6102a2610693565b6102fb610853565b6040516102af9190612da9565b61031061088a565b6040516102af9796959493929190613301565b6102fb6108ca565b610333610ae2565b005b61033d610c64565b6040516102af9190612d0d565b6102a2610c73565b6102fb610c79565b6102a2610c94565b6102a2610d1e565b6102a2610378366004612ca6565b610d24565b61033361038b366004612ca6565b610d76565b6102a261039e366004612aeb565b610e88565b6102fb6103b1366004612aeb565b610e99565b6102a2610eae565b6102a2610eb4565b610333610ee6565b610333610f0d565b61033d61114e565b6102a261115d565b6102a2611378565b6102a261137e565b610333611384565b61033361040c366004612aeb565b6114db565b61033d611875565b6102a2610427366004612ca6565b611884565b61033361043a366004612b07565b611915565b61045261044d366004612ca6565b611b49565b6040516102af93929190612d88565b6102a2611b74565b61033d611b88565b6102a2611b97565b6102fb610487366004612aeb565b611b9d565b6102a2611bbb565b610333611bc1565b6102a2611df5565b6102a2611dfb565b6104b4611eb9565b6040516102af989796959493929190613269565b6102a26104d6366004612b07565b611edd565b61033d612177565b6102a2612186565b6102a26104f9366004612aeb565b612218565b610333612232565b6102a2610514366004612ca6565b61258c565b6102a26125cd565b601354600090819060ff16600981111561053757fe5b118015610555575060135460059060ff16600981111561055357fe5b105b156105ee576000610564611dfb565b600954909150610100900460ff16811061058f576013805460ff191660011790556000601c556105ec565b600954610100900460ff1681118015906105b4575060095462010000900460ff168110155b156105cb576013805460ff191660021790556105ec565b60095462010000900460ff168110156105ec576013805460ff191660031790555b505b6013546000805160206133ad8339815191529060ff16600981111561060f57fe5b60405161061c9190613202565b60405180910390a160135460ff16600981111561063557fe5b90505b90565b60135460ff1681565b600654600754600854600954600a54600b5460ff80841693610100810482169362010000820483169363010000008304909316926001600160a01b03600160201b90930483169291821691168a565b601354600090819060ff1660098111156106a957fe5b1180156106c7575060135460089060ff1660098111156106c557fe5b105b1561084d576007546016546000916106e5919063ffffffff6125d316565b9050600660135460ff1660098111156106fa57fe5b1480156107075750804310155b1561071c5761071581610d24565b915061073f565b6019541561073357610715610378601954436125ff565b61073c43610d24565b91505b600480546040516370a0823160e01b81526001600160a01b03909116916370a082319161076e91309101612d0d565b60206040518083038186803b15801561078657600080fd5b505afa15801561079a573d6000803e3d6000fd5b505050506040513d601f19601f820116820180604052508101906107be9190612cbe565b82111561084757600480546040516370a0823160e01b81526001600160a01b03909116916370a08231916107f491309101612d0d565b60206040518083038186803b15801561080c57600080fd5b505afa158015610820573d6000803e3d6000fd5b505050506040513d601f19601f820116820180604052508101906108449190612cbe565b91505b50610638565b50600090565b600754601654600091829161086d9163ffffffff6125d316565b9050804311610880576001915050610638565b6000915050610638565b60145460155460ff808216916101008104821691620100008204811691630100000081049091169061ffff600160201b8204811691600160301b90041687565b6000600260005414156108f85760405162461bcd60e51b81526004016108ef9061319f565b60405180910390fd5b600260005560135460ff16600981111561090e57fe5b60041461092d5760405162461bcd60e51b81526004016108ef906130ed565b601c54600090158015906109555750600854601c546109519163ffffffff6125d316565b4310155b15610ad857600d5460155460009161097891600160301b900461ffff1690612615565b600480546040516370a0823160e01b81529293506000926001600160a01b03909116916370a08231916109ad91309101612d0d565b60206040518083038186803b1580156109c557600080fd5b505afa1580156109d9573d6000803e3d6000fd5b505050506040513d601f19601f820116820180604052508101906109fd9190612cbe565b9050600080838310610a6257601554610a3290606490610a26908790610100900460ff16612615565b9063ffffffff61264f16565b601554909250610a5390606490610a2690879062010000900460ff16612615565b9050610a5d612691565b610a9b565b601554610a7f90606490610a26908690610100900460ff16612615565b9150610a91838363ffffffff6126e216565b9050610a9b612724565b60045460019550610ab6906001600160a01b0316338461273c565b600454600254610ad3916001600160a01b0390811691168361273c565b505050505b9050600160005590565b6001546001600160a01b03163314610b0c5760405162461bcd60e51b81526004016108ef90612fb0565b600660030160049054906101000a90046001600160a01b03166001600160a01b0316634fd758796040518163ffffffff1660e01b81526004016101406040518083038186803b158015610b5e57600080fd5b505afa158015610b72573d6000803e3d6000fd5b505050506040513d601f19601f82011682018060405250810190610b969190612be4565b805160065560208101516007556040810151600855606081015160098054608084015160a085015160c086015160e087015160ff1990941660ff9687161761ff00191661010093871684021762ff0000191662010000928716929092029190911763ff00000019166301000000959091169490940293909317640100000000600160c01b031916600160201b6001600160a01b03928316021790915590820151600a80546001600160a01b031990811692841692909217905561012090920151600b80549093169116179055565b6001546001600160a01b031681565b601a5481565b6000600660135460ff166009811115610c8e57fe5b14905090565b600954601054604051631334f8cd60e11b8152600092600160201b90046001600160a01b031691632669f19a91610cce9190600401613202565b60206040518083038186803b158015610ce657600080fd5b505afa158015610cfa573d6000803e3d6000fd5b505050506040513d601f19601f820116820180604052508101906106359190612cbe565b601b5481565b6000601b54821015610d485760405162461bcd60e51b81526004016108ef90613132565b600d54601b54610d709190610d6490859063ffffffff6126e216565b9063ffffffff61261516565b92915050565b60026000541415610d995760405162461bcd60e51b81526004016108ef9061319f565b60026000556003546001600160a01b03163314610dc85760405162461bcd60e51b81526004016108ef90612f6a565b6000610dd2610521565b90506001811115610df55760405162461bcd60e51b81526004016108ef9061305e565b600954600090610e0e906301000000900460ff16611884565b905080831115610e305760405162461bcd60e51b81526004016108ef90612e7d565b600454610e47906001600160a01b0316338561273c565b7ffc226bcc04f8f8905af4229a5d361773b6bb568167898414274c713c6179e6cb83604051610e769190613202565b60405180910390a15050600160005550565b602080526000908152604090205481565b601f6020526000908152604090205460ff1681565b60185481565b600480546040516370a0823160e01b81526000926001600160a01b03909216916370a0823191610cce91309101612d0d565b600060135460ff166009811115610ef957fe5b1415610f0b57610f07611dfb565b600e555b565b60026000541415610f305760405162461bcd60e51b81526004016108ef9061319f565b60026000908155610f3f610521565b90508060021480610f505750806003145b610f6c5760405162461bcd60e51b81526004016108ef90612f10565b60008160021415610fa257600d54601554610f9391600160201b90910461ffff1690612615565b9050610f9d61282a565b610fc8565b600d54601554610fbe91600160301b90910461ffff1690612615565b9050610fc8612691565b600480546040516370a0823160e01b81526000926001600160a01b03909216916370a0823191610ffa91309101612d0d565b60206040518083038186803b15801561101257600080fd5b505afa158015611026573d6000803e3d6000fd5b505050506040513d601f19601f8201168201806040525081019061104a9190612cbe565b43601755905060008083831061109f5760155461107790606490610a26908790610100900460ff16612615565b60155490925061109890606490610a2690879062010000900460ff16612615565b90506110d8565b6015546110bc90606490610a26908690610100900460ff16612615565b91506110ce838363ffffffff6126e216565b90506110d8612724565b6013546000805160206133ad8339815191529060ff1660098111156110f957fe5b6040516111069190613202565b60405180910390a1600454611125906001600160a01b0316338461273c565b600454600254611142916001600160a01b0390811691168361273c565b50506001600055505050565b6003546001600160a01b031681565b6000600260005414156111825760405162461bcd60e51b81526004016108ef9061319f565b6002600090815560135460ff16600981111561119a57fe5b1180156111b8575060135460089060ff1660098111156111b657fe5b105b6111d45760405162461bcd60e51b81526004016108ef90613081565b60135460009060ff1660098111156111e857fe5b600480546040516370a0823160e01b81529293506000926001600160a01b03909116916370a082319161121d91309101612d0d565b60206040518083038186803b15801561123557600080fd5b505afa158015611249573d6000803e3d6000fd5b505050506040513d601f19601f8201168201806040525081019061126d9190612cbe565b90506000611279610693565b90508082106112dc5760015b6021548160ff16116112bf5760ff81166000908152601e60205260409020546112b7906001600160a01b031683612878565b600101611285565b5043601b55600383116112d7576112d4610521565b92505b611335565b816112e9576112d7612724565b60015b6021548160ff16116113265760ff81166000908152601e602052604090205461131e906001600160a01b031684612878565b6001016112ec565b5043601b819055601955600892505b7ff33d854b742e78ac685b76a9d8ba08da4c16f567a3d4464742ccfb706c1f08bb816040516113649190613202565b60405180910390a150506001600055919050565b60215481565b60175481565b6001546001600160a01b031633146113ae5760405162461bcd60e51b81526004016108ef90612fb0565b600660030160049054906101000a90046001600160a01b03166001600160a01b0316631a55d9e96040518163ffffffff1660e01b815260040160e06040518083038186803b1580156113ff57600080fd5b505afa158015611413573d6000803e3d6000fd5b505050506040513d601f19601f820116820180604052508101906114379190612b52565b805160145560208101516015805460408401516060850151608086015160a087015160c09097015160ff1990941660ff9687161761ff001916610100938716939093029290921762ff0000191662010000918616919091021763ff0000001916630100000094909116939093029290921765ffff000000001916600160201b61ffff948516021767ffff0000000000001916600160301b9390921692909202179055565b600260005414156114fe5760405162461bcd60e51b81526004016108ef9061319f565b60026000556005546001600160a01b038281169116146115305760405162461bcd60e51b81526004016108ef90613157565b600060135460ff16600981111561154357fe5b146115605760405162461bcd60e51b81526004016108ef90612e9e565b600b5460115460405163bd0d151f60e01b81526001600160a01b039092169163bd0d151f916115989133918691309190600401612d21565b60206040518083038186803b1580156115b057600080fd5b505afa1580156115c4573d6000803e3d6000fd5b505050506040513d601f19601f820116820180604052508101906115e89190612b32565b6116045760405162461bcd60e51b81526004016108ef906130a4565b43601655601380546001919060ff191682800217905550600160218181556040805160608101825233808252606460208084019182526016548486019081526000888152601e835294517f873299c6a6c39b8b92f01922bb622df4a3236ea2876aac2da76f6c092cf7e98f80546001600160a01b0319166001600160a01b0392831617905592517f873299c6a6c39b8b92f01922bb622df4a3236ea2876aac2da76f6c092cf7e99055517f873299c6a6c39b8b92f01922bb622df4a3236ea2876aac2da76f6c092cf7e99155918352601f8252838320805460ff191690961790955592549280528181209290925543601b55600954601054601154925163c175771b60e01b81529394600160201b9092049091169263c175771b9261172c9291600401613237565b60206040518083038186803b15801561174457600080fd5b505afa158015611758573d6000803e3d6000fd5b505050506040513d601f19601f8201168201806040525081019061177c9190612cbe565b600954604051632976f2fb60e11b8152919250600091600160201b9091046001600160a01b0316906352ede5f6906117b8908590600401613202565b60206040518083038186803b1580156117d057600080fd5b505afa1580156117e4573d6000803e3d6000fd5b505050506040513d601f19601f820116820180604052508101906118089190612cbe565b60035460115491925061182a91859133916001600160a01b0390911690612921565b600454600254611847916001600160a01b0390811691168361273c565b6013546000805160206133ad8339815191529060ff16600981111561186857fe5b604051610e769190613202565b6002546001600160a01b031681565b60095460105460115460405163ad87c71d60e01b8152600093600160201b90046001600160a01b03169263ad87c71d926118c5928792913091600401613245565b60206040518083038186803b1580156118dd57600080fd5b505afa1580156118f1573d6000803e3d6000fd5b505050506040513d601f19601f82011682018060405250810190610d709190612cbe565b600260005414156119385760405162461bcd60e51b81526004016108ef9061319f565b6002600055600160135460ff16600981111561195057fe5b1015801561196f5750600460135460ff16600981111561196c57fe5b11155b61198b5760405162461bcd60e51b81526004016108ef90612ffa565b6004546001600160a01b038381169116146119b85760405162461bcd60e51b81526004016108ef90612e22565b600480546040516370a0823160e01b815283926001600160a01b03909216916370a08231916119e991339101612d0d565b60206040518083038186803b158015611a0157600080fd5b505afa158015611a15573d6000803e3d6000fd5b505050506040513d601f19601f82011682018060405250810190611a399190612cbe565b1015611a575760405162461bcd60e51b81526004016108ef90612dfb565b600b546004805460405163bd0d151f60e01b81526001600160a01b039384169363bd0d151f93611a909333939216913091889101612d21565b60206040518083038186803b158015611aa857600080fd5b505afa158015611abc573d6000803e3d6000fd5b505050506040513d601f19601f82011682018060405250810190611ae09190612b32565b611afc5760405162461bcd60e51b81526004016108ef906130a4565b43601a55611b0c82333084612921565b6000611b16610521565b90507f078c599f5cd71dc8637a680b058c73d883fa16e7282ff35ed71f6584560d30698282604051610e76929190613237565b601e602052600090815260409020805460018201546002909201546001600160a01b03909116919083565b60135460009060ff16600981111561063557fe5b6004546001600160a01b031681565b60165481565b6001600160a01b03166000908152601f602052604090205460ff1690565b601c5481565b60026000541415611be45760405162461bcd60e51b81526004016108ef9061319f565b60026000556003546001600160a01b03163314611c135760405162461bcd60e51b81526004016108ef90612f6a565b60135460ff166009811115611c2457fe5b15611c415760405162461bcd60e51b81526004016108ef90612e9e565b601554600480546040516370a0823160e01b8152600093611cdd93606493610a2693630100000090930460ff16926001600160a01b03909116916370a0823191611c8d91309101612d0d565b60206040518083038186803b158015611ca557600080fd5b505afa158015611cb9573d6000803e3d6000fd5b505050506040513d601f19601f82011682018060405250810190610d649190612cbe565b600480546040516370a0823160e01b8152929350600092611d729285926001600160a01b0316916370a0823191611d1691309101612d0d565b60206040518083038186803b158015611d2e57600080fd5b505afa158015611d42573d6000803e3d6000fd5b505050506040513d601f19601f82011682018060405250810190611d669190612cbe565b9063ffffffff6126e216565b6013805460ff19166009179055600454600254919250611d9f916001600160a01b0391821691168461273c565b600454611db6906001600160a01b0316338361273c565b6013546000805160206133ad8339815191529060ff166009811115611dd757fe5b604051611de49190613202565b60405180910390a150506001600055565b60195481565b600080611e06610693565b60098054601054601354939450600160201b9091046001600160a01b031692630daf187792309160ff1690811115611e3a57fe5b6011546040516001600160e01b031960e087901b168152611e639493929190889060040161320b565b60206040518083038186803b158015611e7b57600080fd5b505afa158015611e8f573d6000803e3d6000fd5b505050506040513d601f19601f82011682018060405250810190611eb39190612cbe565b91505090565b600c54600d54600e54600f5460105460115460125460ff8082169161010090041688565b600060026000541415611f025760405162461bcd60e51b81526004016108ef9061319f565b6002600055611f1033611b9d565b611f2c5760405162461bcd60e51b81526004016108ef90612eea565b6000611f3733612218565b905060008111611f595760405162461bcd60e51b81526004016108ef90613110565b6000818152601e6020526040902060010154831115611f8a5760405162461bcd60e51b81526004016108ef90612fd3565b600754601654014311611faf5760405162461bcd60e51b81526004016108ef906130c8565b6000611fb9610693565b905060015b6021548160ff1611611ff85760ff81166000908152601e6020526040902054611ff0906001600160a01b031683612878565b600101611fbe565b506000828152601e602052604090206001015461201b908563ffffffff6126e216565b6000838152601e602052604090206001015561203685611b9d565b6120d35760215461204e90600163ffffffff6125d316565b6021818155604080516060810182526001600160a01b0389811680835260208084018b8152438587019081526000988952601e8352868920955186546001600160a01b03191695169490941785555160018086019190915592516002909401939093558552601f8252828520805460ff19169091179055915491805290912055612122565b60006120de86612218565b6000818152601e6020526040902060010154909150612103908663ffffffff6125d316565b6000918252601e60205260409091206001810191909155436002909101555b43601b556000612130610521565b905084866001600160a01b03167f54f902ae1377e1ef1cab3eedb2bea3c964c6351a6b506ddca5ffdaddb919d39960405160405180910390a3600160005595945050505050565b6005546001600160a01b031681565b600954601054604051632bd61f0560e11b8152600092600160201b90046001600160a01b0316916357ac3e0a916121c09190600401613202565b60206040518083038186803b1580156121d857600080fd5b505afa1580156121ec573d6000803e3d6000fd5b505050506040513d601f19601f820116820180604052508101906122109190612cd6565b60ff16905090565b6001600160a01b0316600090815260208052604090205490565b600260005414156122555760405162461bcd60e51b81526004016108ef9061319f565b60026000556003546001600160a01b031633146122845760405162461bcd60e51b81526004016108ef90612f6a565b600061228e610521565b90506000811180156122a1575060038111155b6122bd5760405162461bcd60e51b81526004016108ef90612f8d565b600b5460055460115460405163bd0d151f60e01b81526001600160a01b039384169363bd0d151f936122fa93339391909216913091600401612d21565b60206040518083038186803b15801561231257600080fd5b505afa158015612326573d6000803e3d6000fd5b505050506040513d601f19601f8201168201806040525081019061234a9190612b32565b6123665760405162461bcd60e51b81526004016108ef90612ec0565b600754601654600091014310156123865761237f612a12565b9050612391565b61238e610693565b90505b6000600660135460ff1660098111156123a657fe5b14156123c457600d546014546123c19163ffffffff61261516565b90505b600480546040516370a0823160e01b81526000926001600160a01b03909216916370a08231916123f691309101612d0d565b60206040518083038186803b15801561240e57600080fd5b505afa158015612422573d6000803e3d6000fd5b505050506040513d601f19601f820116820180604052508101906124469190612cbe565b9050600061245a848463ffffffff6125d316565b436018556013805460ff191660071790559050600081831061248957612486838363ffffffff6126e216565b90505b60015b6021548160ff16116125145760ff81166000908152601e60205260408120546001600160a01b0316906124be82612218565b6000818152601e60205260409020600101546005546011549293509091612509916001600160a01b0316903390869061250490606490610a26908863ffffffff61261516565b612921565b50505060010161248c565b5060045461252c906001600160a01b0316338361273c565b600454600254612549916001600160a01b0390811691168661273c565b6013546000805160206133ad8339815191529060ff16600981111561256a57fe5b6040516125779190613202565b60405180910390a15050600160005550505050565b60095460105460115460405163dd9ffdb560e01b8152600093600160201b90046001600160a01b03169263dd9ffdb5926118c5928792913091600401613245565b601d5481565b6000828201838110156125f85760405162461bcd60e51b81526004016108ef90612f33565b9392505050565b600081831061260e57816125f8565b5090919050565b60008261262457506000610d70565b8282028284828161263157fe5b04146125f85760405162461bcd60e51b81526004016108ef9061301d565b60006125f883836040518060400160405280601a81526020017f536166654d6174683a206469766973696f6e206279207a65726f000000000000815250612a5a565b43601d55601380546005919060ff19166001835b02179055506013546000805160206133ad8339815191529060ff1660098111156126cb57fe5b6040516126d89190613202565b60405180910390a1565b60006125f883836040518060400160405280601e81526020017f536166654d6174683a207375627472616374696f6e206f766572666c6f770000815250612a91565b43601955601380546008919060ff19166001836126a5565b60006060846001600160a01b031663a9059cbb8585604051602401612762929190612d6f565b6040516020818303038152906040529060e01b6020820180516001600160e01b03838183161783525050505060405161279b9190612cf1565b6000604051808303816000865af19150503d80600081146127d8576040519150601f19603f3d011682016040523d82523d6000602084013e6127dd565b606091505b50915091508180156128075750805115806128075750808060200190518101906128079190612b32565b6128235760405162461bcd60e51b81526004016108ef906131d6565b5050505050565b6013805460ff1916600417905543601c81905560405133917ff542b84b1e49b5bef195e1e1949cf1eb789fbe49c059b62a89f24af3c6f71d8f9161286e9190613202565b60405180910390a2565b61288182611b9d565b61289d5760405162461bcd60e51b81526004016108ef90612eea565b60015b6021548160ff161161291c5760ff81166000908152601e60205260408120546128d1906001600160a01b0316612218565b6000818152601e602052604090206001015460045491925090612912906001600160a01b03168661290d6064610a26898763ffffffff61261516565b61273c565b50506001016128a0565b505050565b60006060856001600160a01b03166323b872dd86868660405160240161294993929190612d4b565b6040516020818303038152906040529060e01b6020820180516001600160e01b0383818316178352505050506040516129829190612cf1565b6000604051808303816000865af19150503d80600081146129bf576040519150601f19603f3d011682016040523d82523d6000602084013e6129c4565b606091505b50915091508180156129ee5750805115806129ee5750808060200190518101906129ee9190612b32565b612a0a5760405162461bcd60e51b81526004016108ef90612e46565b505050505050565b600754601654600091014310612a3a5760405162461bcd60e51b81526004016108ef90613179565b6013805460ff19166006179055600d54600754600091611eb39190612615565b60008183612a7b5760405162461bcd60e51b81526004016108ef9190612dc8565b506000838581612a8757fe5b0495945050505050565b60008184841115612ab55760405162461bcd60e51b81526004016108ef9190612dc8565b505050900390565b8051610d7081613394565b805161ffff81168114610d7057600080fd5b805160ff81168114610d7057600080fd5b600060208284031215612afc578081fd5b81356125f881613394565b60008060408385031215612b19578081fd5b8235612b2481613394565b946020939093013593505050565b600060208284031215612b43578081fd5b815180151581146125f8578182fd5b600060e08284031215612b63578081fd5b612b6d60e061333d565b82518152612b7e8460208501612ada565b6020820152612b908460408501612ada565b6040820152612ba28460608501612ada565b6060820152612bb48460808501612ada565b6080820152612bc68460a08501612ac8565b60a0820152612bd88460c08501612ac8565b60c08201529392505050565b6000610140808385031215612bf7578182fd5b612c008161333d565b835181526020840151602082015260408401516040820152612c258560608601612ada565b6060820152612c378560808601612ada565b6080820152612c498560a08601612ada565b60a0820152612c5b8560c08601612ada565b60c0820152612c6d8560e08601612abd565b60e08201526101009150612c8385838601612abd565b828201526101209150612c9885838601612abd565b918101919091529392505050565b600060208284031215612cb7578081fd5b5035919050565b600060208284031215612ccf578081fd5b5051919050565b600060208284031215612ce7578081fd5b6125f88383612ada565b60008251612d03818460208701613364565b9190910192915050565b6001600160a01b0391909116815260200190565b6001600160a01b039485168152928416602084015292166040820152606081019190915260800190565b6001600160a01b039384168152919092166020820152604081019190915260600190565b6001600160a01b03929092168252602082015260400190565b6001600160a01b039390931683526020830191909152604082015260600190565b901515815260200190565b60208101600a8310612dc257fe5b91905290565b6000602082528251806020840152612de7816040850160208701613364565b601f01601f19169190910160400192915050565b6020808252600d908201526c21656e6f756768546f6b656e7360981b604082015260600190565b6020808252600a908201526910b1b7b6362a37b5b2b760b11b604082015260600190565b60208082526017908201527f5448205452414e534645525f46524f4d5f4641494c4544000000000000000000604082015260600190565b6020808252600790820152660a8dede9aeac6d60cb1b604082015260600190565b602080825260089082015267021537461747573360c41b604082015260600190565b60208082526010908201526f21616c6c6f77616e6365536574746c6560801b604082015260600190565b6020808252600c908201526b10b9b430b932b437b63232b960a11b604082015260600190565b60208082526009908201526821537461747573323360b81b604082015260600190565b6020808252601b908201527f536166654d6174683a206164646974696f6e206f766572666c6f770000000000604082015260600190565b60208082526009908201526810b137b93937bbb2b960b91b604082015260600190565b60208082526009908201526821537461747573313360b81b604082015260600190565b60208082526009908201526810b232b83637bcb2b960b91b604082015260600190565b6020808252600d908201526c21656e6f75676853686172657360981b604082015260600190565b6020808252600990820152680854dd185d1d5ccc4d60ba1b604082015260600190565b60208082526021908201527f536166654d6174683a206d756c7469706c69636174696f6e206f766572666c6f6040820152607760f81b606082015260800190565b60208082526009908201526821537461747573303160b81b604082015260600190565b602080825260099082015268042a6e8c2e8eae662760bb1b604082015260600190565b6020808252600a908201526921616c6c6f77616e636560b01b604082015260600190565b6020808252600b908201526a6561726c7957696e646f7760a81b604082015260600190565b602080825260099082015268215374617475734f6b60b81b604082015260600190565b602080825260089082015267217368506c61636560c01b604082015260600190565b6020808252600b908201526a21426c6f636b4e756d4f6b60a81b604082015260600190565b60208082526008908201526721546f6b656e4f6b60c01b604082015260600190565b6020808252600c908201526b216561726c7957696e646f7760a01b604082015260600190565b6020808252601f908201527f5265656e7472616e637947756172643a207265656e7472616e742063616c6c00604082015260600190565b6020808252601290820152711512081514905394d1915497d1905253115160721b604082015260600190565b90815260200190565b9485526001600160a01b0393909316602085015260408401919091526060830152608082015260a00190565b918252602082015260400190565b93845260208401929092526001600160a01b03166040830152606082015260800190565b978852602088019690965260408701949094526060860192909252608085015260a084015260ff90811660c08401521660e08201526101000190565b998a5260208a0198909852604089019690965260ff9485166060890152928416608088015290831660a087015290911660c08501526001600160a01b0390811660e0850152908116610100840152166101208201526101400190565b96875260ff958616602088015293851660408701529184166060860152909216608084015261ffff91821660a08401521660c082015260e00190565b60405181810167ffffffffffffffff8111828210171561335c57600080fd5b604052919050565b60005b8381101561337f578181015183820152602001613367565b8381111561338e576000848401525b50505050565b6001600160a01b03811681146133a957600080fd5b5056fee096f951d62ec2072f7a4b5b750e0f9b7a55b9c4cbfa1f516b496cb58d7dff6fa26469706673582212208aac572fdd6695e2682558f8fba0772f6ba2195bad3a2aa93d4b233d209de8a164736f6c634300060b0033a26469706673582212205dcb0a7b7b340caab57336aa4e3062582a0791a2b2a4a9db53fb1049a05490dd64736f6c634300060b0033",
  "immutableReferences": {},
  "source": "// SPDX-License-Identifier: MIT\n\npragma solidity 0.6.11;\npragma experimental ABIEncoderV2;\n\nimport \"@openzeppelin/contracts/math/SafeMath.sol\";\nimport \"@openzeppelin/contracts/token/ERC20/IERC20.sol\";\nimport \"@openzeppelin/contracts/access/Ownable.sol\";\n//import \"./Ownable.sol\";\nimport \"./IJFactory.sol\";\nimport \"./IJLoanCommons.sol\";\nimport \"./JLoanToken.sol\";\nimport \"./TransferHelper.sol\";\n\n\ncontract JLoanTokenDeployer is Ownable {\n    using SafeMath for uint256;\n\n    uint private tokenLoansCounter;\n    address private tokenFeesCollector;\n\n    mapping(uint => address) private tokenLoanContractsList;\n    mapping(address => bool) private tokenLoanContracts;\n\n    uint public borrowerLength;\n    address[] public borrowerList;\n    mapping(address => bool) public borrowers;\n\n    IJLoanCommons.GeneralParams public loanParams;\n\n    event SetNewStatus(uint idx, uint oldStatus, uint newStatus);\n\n    constructor() public { }\n\n    modifier onlyLoanFactory() {\n        require(msg.sender == loanParams.factoryAddress, \"!factory\");\n        _;\n    }\n\n    /**\n    * @dev set loan factory contract address\n    * @param _factAddr, address of loan factory contract to add\n    */\n    function setLoanFactory(address _factAddr) external onlyOwner {\n        loanParams.factoryAddress = _factAddr;\n    }\n\n    /**\n    * @dev set token loans contract counter\n    * @param _newValue, new counter value\n    */\n    function setTokenLoansCounter(uint _newValue) external onlyOwner {\n        tokenLoansCounter = _newValue;\n    }\n\n    /**\n    * @dev get deployed token loans contract counter\n    * @return number of deployed token loans contracts\n    */\n    function getDeployedTokenLoansCounter() external view returns(uint) {\n        return tokenLoansCounter;\n    }\n\n    /**\n    * @dev get deployed token loan contract address as an item of an array\n    * @return address of idx-th fund contract address\n    */\n    function getDeployedTokenLoanAddress(uint idx) external view returns(address) {\n        return tokenLoanContractsList[idx];\n    }\n\n    /**\n    * @dev check if an fund contract address was deployed by this deployer\n    * @param _loanAddr, address to check\n    * @return true if fund address was deployed, otherwise false\n    */\n    function isTokenLoanDeployed(address _loanAddr) external view returns (bool) {\n        return tokenLoanContracts[_loanAddr];\n    }\n\n     /**\n    * @dev deploy a new token loan contract, add its address to internal variables\n    * @param _sender, address of the borrower\n    * @param _id, number of the token loan contract\n    * @param _pairId, name of the crypto the borrower would like to receive\n    * @param _borrowedAskAmount, amount of crypto the borrower would like to receive\n    * @param _rpbRate, rate per block the borrower would like to pay as interest\n    * @param _factAddr, factory address\n    * @param _collToken, collateral token address\n    * @param _lendToken, lending token address\n    */      //msg.sender, loanID, _pairId, _borrowedAskAmount, _rpbRate, address(this), _collToken, _lendToken)\n    function deployNewTokenLoanContract(address _sender, \n                uint _id, \n                uint _pairId, \n                uint _borrowedAskAmount, \n                uint _rpbRate, \n                address _factAddr,\n                address _collToken,\n                address _lendToken,\n                uint _contractAmount) external onlyLoanFactory returns (address) {\n        require(_sender != address(0), \"ZeroAddress\");\n        borrowers[_sender] = true;\n        borrowerList.push(_sender);\n        borrowerLength = borrowerList.length;\n        address newTokenLoanContract = address(new JLoanToken(_sender, _id, _pairId, _borrowedAskAmount,\n                            _rpbRate, _factAddr, _collToken, _lendToken, tokenFeesCollector));\n        tokenLoanContracts[newTokenLoanContract] = true;\n        tokenLoanContractsList[tokenLoansCounter] = newTokenLoanContract;\n        tokenLoansCounter = tokenLoansCounter.add(1);\n        TransferHelper.safeTransferFrom(_collToken, _sender, newTokenLoanContract, _contractAmount);\n        return newTokenLoanContract;\n    }\n\n    /**\n    * @dev set new common GeneralParams in single token loans contract\n    * @param _idx, index of the loan contract\n    */\n    function setTokenLoanCommonParamsInContract (uint _idx) external onlyOwner {\n        IJLoanToken(tokenLoanContractsList[_idx]).setNewCommonParams();\n    }\n\n    /**\n    * @dev set new common GeneralParams in single token loans contract\n    * @param _idx, index of the loan contract\n    */\n    function setTokenLoanFeesParamsInContract (uint _idx) external onlyOwner {\n        IJLoanToken(tokenLoanContractsList[_idx]).setNewFeesParams();\n    }\n\n    /**\n    * @dev set new status in single token loans contract\n    * @param _idx, index of the loan contract\n    * @param _newStatus, new status\n    */\n    function setTokenStatusInTokenContract (uint _idx, uint _newStatus) external onlyOwner {\n        require(_newStatus <= 7, \"!Status07\");\n        IJLoanToken tokenContract = IJLoanToken(tokenLoanContractsList[_idx]);\n        uint oldStatus = tokenContract.getLoanStatus();\n        require(_newStatus != oldStatus, \"!newStatus\");\n        tokenContract.setNewStatus(_newStatus);\n        uint newStatus = tokenContract.getLoanStatus();\n        emit SetNewStatus(_idx, oldStatus, newStatus);\n    }\n\n    /**\n    * @dev get if an address is a borrower\n    * @return boolean\n    */\n    function isBorrower(address _borr) external view returns (bool) {\n        return borrowers[_borr];\n    }\n\n    /**\n    * @dev set the fee collector contract address\n    */\n    function setFeesCollector(address payable _feeColl) external onlyOwner {\n        tokenFeesCollector = _feeColl;\n    }\n\n    /**\n    * @dev get the fee collector contract address\n    * @return fee collector address\n    */\n    function getFeesCollector() external view returns(address) {\n        return tokenFeesCollector;\n    }\n\n    /**\n    * @dev check for allowance\n    * @param _sender, address of the sender\n    * @param _tokenAddr, address of the stable coin token\n    * @param _loanContract, address of the loan contract\n    * @param _borrowedAskAmount, amount of stable coins request by the borrower\n    * @return bool\n    */\n    function checkAllowance(address _sender, address _tokenAddr, address _loanContract, uint _borrowedAskAmount) external view returns (bool) {\n        uint askAmount = _borrowedAskAmount;\n        uint allowance = IERC20(_tokenAddr).allowance(_sender, _loanContract);\n        if (allowance >= askAmount)\n            return true;\n        else\n            return false;\n    }\n\n}\n",
  "sourcePath": "C:/Users/saurabh/code/Jibrel/defi-smartcontracts/LoansFactoryV1/contracts/JLoanTokenDeployer.sol",
  "compiler": {
    "name": "solc",
    "version": "0.6.11+commit.5ef660b1.Emscripten.clang"
  },
  "schemaVersion": "3.3.1",
  "updatedAt": "2020-10-22T09:23:50.427Z",
  "networkType": "ethereum",
  "devdoc": {
    "kind": "dev",
    "methods": {
      "checkAllowance(address,address,address,uint256)": {
        "details": "check for allowance",
        "params": {
          "_borrowedAskAmount": ", amount of stable coins request by the borrower",
          "_loanContract": ", address of the loan contract",
          "_sender": ", address of the sender",
          "_tokenAddr": ", address of the stable coin token"
        },
        "returns": {
          "_0": "bool"
        }
      },
      "deployNewTokenLoanContract(address,uint256,uint256,uint256,uint256,address,address,address,uint256)": {
        "details": "deploy a new token loan contract, add its address to internal variables",
        "params": {
          "_borrowedAskAmount": ", amount of crypto the borrower would like to receive",
          "_collToken": ", collateral token address",
          "_factAddr": ", factory address",
          "_id": ", number of the token loan contract",
          "_lendToken": ", lending token address",
          "_pairId": ", name of the crypto the borrower would like to receive",
          "_rpbRate": ", rate per block the borrower would like to pay as interest",
          "_sender": ", address of the borrower"
        }
      },
      "getDeployedTokenLoanAddress(uint256)": {
        "details": "get deployed token loan contract address as an item of an array",
        "returns": {
          "_0": "address of idx-th fund contract address"
        }
      },
      "getDeployedTokenLoansCounter()": {
        "details": "get deployed token loans contract counter",
        "returns": {
          "_0": "number of deployed token loans contracts"
        }
      },
      "getFeesCollector()": {
        "details": "get the fee collector contract address",
        "returns": {
          "_0": "fee collector address"
        }
      },
      "isBorrower(address)": {
        "details": "get if an address is a borrower",
        "returns": {
          "_0": "boolean"
        }
      },
      "isTokenLoanDeployed(address)": {
        "details": "check if an fund contract address was deployed by this deployer",
        "params": {
          "_loanAddr": ", address to check"
        },
        "returns": {
          "_0": "true if fund address was deployed, otherwise false"
        }
      },
      "owner()": {
        "details": "Returns the address of the current owner."
      },
      "renounceOwnership()": {
        "details": "Leaves the contract without owner. It will not be possible to call `onlyOwner` functions anymore. Can only be called by the current owner. NOTE: Renouncing ownership will leave the contract without an owner, thereby removing any functionality that is only available to the owner."
      },
      "setFeesCollector(address)": {
        "details": "set the fee collector contract address"
      },
      "setLoanFactory(address)": {
        "details": "set loan factory contract address",
        "params": {
          "_factAddr": ", address of loan factory contract to add"
        }
      },
      "setTokenLoanCommonParamsInContract(uint256)": {
        "details": "set new common GeneralParams in single token loans contract",
        "params": {
          "_idx": ", index of the loan contract"
        }
      },
      "setTokenLoanFeesParamsInContract(uint256)": {
        "details": "set new common GeneralParams in single token loans contract",
        "params": {
          "_idx": ", index of the loan contract"
        }
      },
      "setTokenLoansCounter(uint256)": {
        "details": "set token loans contract counter",
        "params": {
          "_newValue": ", new counter value"
        }
      },
      "setTokenStatusInTokenContract(uint256,uint256)": {
        "details": "set new status in single token loans contract",
        "params": {
          "_idx": ", index of the loan contract",
          "_newStatus": ", new status"
        }
      },
      "transferOwnership(address)": {
        "details": "Transfers ownership of the contract to a new account (`newOwner`). Can only be called by the current owner."
      }
    },
    "version": 1
  },
  "userdoc": {
    "kind": "user",
    "methods": {},
    "version": 1
  }
}