{
  "contractName": "JLoanEth",
  "abi": [
    {
      "inputs": [
        {
          "internalType": "address",
          "name": "_sender",
          "type": "address"
        },
        {
          "internalType": "uint256",
          "name": "_id",
          "type": "uint256"
        },
        {
          "internalType": "uint256",
          "name": "_pairId",
          "type": "uint256"
        },
        {
          "internalType": "uint256",
          "name": "_borrowedAskAmount",
          "type": "uint256"
        },
        {
          "internalType": "uint256",
          "name": "_rpbRate",
          "type": "uint256"
        },
        {
          "internalType": "address",
          "name": "_factoryAddress",
          "type": "address"
        },
        {
          "internalType": "address",
          "name": "_lendCrypto",
          "type": "address"
        },
        {
          "internalType": "address payable",
          "name": "_ethFeesCollector",
          "type": "address"
        }
      ],
      "stateMutability": "payable",
      "type": "constructor"
    },
    {
      "anonymous": false,
      "inputs": [
        {
          "indexed": true,
          "internalType": "address",
          "name": "sharesSeller",
          "type": "address"
        },
        {
          "indexed": true,
          "internalType": "address",
          "name": "sharesBuyer",
          "type": "address"
        },
        {
          "indexed": true,
          "internalType": "uint256",
          "name": "amount",
          "type": "uint256"
        },
        {
          "indexed": false,
          "internalType": "uint256",
          "name": "blockNumber",
          "type": "uint256"
        }
      ],
      "name": "AddShareHolderShares",
      "type": "event"
    },
    {
      "anonymous": false,
      "inputs": [
        {
          "indexed": false,
          "internalType": "address",
          "name": "sender",
          "type": "address"
        },
        {
          "indexed": false,
          "internalType": "uint256",
          "name": "value",
          "type": "uint256"
        }
      ],
      "name": "EthReceived",
      "type": "event"
    },
    {
      "anonymous": false,
      "inputs": [
        {
          "indexed": false,
          "internalType": "uint256",
          "name": "blockNumber",
          "type": "uint256"
        }
      ],
      "name": "EthWithdraw",
      "type": "event"
    },
    {
      "anonymous": false,
      "inputs": [
        {
          "indexed": true,
          "internalType": "address",
          "name": "sender",
          "type": "address"
        },
        {
          "indexed": false,
          "internalType": "uint256",
          "name": "blockNumber",
          "type": "uint256"
        }
      ],
      "name": "InitiateForeClosure",
      "type": "event"
    },
    {
      "anonymous": false,
      "inputs": [
        {
          "indexed": false,
          "internalType": "uint256",
          "name": "accruedInterests",
          "type": "uint256"
        },
        {
          "indexed": false,
          "internalType": "uint256",
          "name": "blockNumber",
          "type": "uint256"
        }
      ],
      "name": "InterestsWithdrawed",
      "type": "event"
    },
    {
      "anonymous": false,
      "inputs": [
        {
          "indexed": true,
          "internalType": "address",
          "name": "lenderAddress",
          "type": "address"
        },
        {
          "indexed": false,
          "internalType": "uint256",
          "name": "factoryFees",
          "type": "uint256"
        },
        {
          "indexed": false,
          "internalType": "uint256",
          "name": "loanActiveBlock",
          "type": "uint256"
        }
      ],
      "name": "LenderAccepted",
      "type": "event"
    },
    {
      "anonymous": false,
      "inputs": [
        {
          "indexed": true,
          "internalType": "address",
          "name": "sender",
          "type": "address"
        },
        {
          "indexed": false,
          "internalType": "uint256",
          "name": "blockNumber",
          "type": "uint256"
        }
      ],
      "name": "LoanAtRiskFromForeclosing",
      "type": "event"
    },
    {
      "anonymous": false,
      "inputs": [
        {
          "indexed": true,
          "internalType": "address",
          "name": "sender",
          "type": "address"
        },
        {
          "indexed": true,
          "internalType": "uint256",
          "name": "loanId",
          "type": "uint256"
        },
        {
          "indexed": false,
          "internalType": "uint256",
          "name": "blockNumber",
          "type": "uint256"
        }
      ],
      "name": "LoanCancelled",
      "type": "event"
    },
    {
      "anonymous": false,
      "inputs": [
        {
          "indexed": false,
          "internalType": "uint256",
          "name": "blockNumber",
          "type": "uint256"
        }
      ],
      "name": "LoanClosed",
      "type": "event"
    },
    {
      "anonymous": false,
      "inputs": [
        {
          "indexed": false,
          "internalType": "uint256",
          "name": "blockNumber",
          "type": "uint256"
        }
      ],
      "name": "LoanClosingByBorrower",
      "type": "event"
    },
    {
      "anonymous": false,
      "inputs": [
        {
          "indexed": false,
          "internalType": "uint256",
          "name": "creationBlock",
          "type": "uint256"
        },
        {
          "indexed": false,
          "internalType": "uint256",
          "name": "value",
          "type": "uint256"
        },
        {
          "indexed": false,
          "internalType": "string",
          "name": "eth",
          "type": "string"
        }
      ],
      "name": "LoanContractDeployed",
      "type": "event"
    },
    {
      "anonymous": false,
      "inputs": [
        {
          "indexed": true,
          "internalType": "address",
          "name": "sender",
          "type": "address"
        },
        {
          "indexed": false,
          "internalType": "uint256",
          "name": "blockNumber",
          "type": "uint256"
        }
      ],
      "name": "LoanForeclosed",
      "type": "event"
    },
    {
      "anonymous": false,
      "inputs": [
        {
          "indexed": true,
          "internalType": "address",
          "name": "sender",
          "type": "address"
        },
        {
          "indexed": false,
          "internalType": "uint256",
          "name": "blockNumber",
          "type": "uint256"
        }
      ],
      "name": "LoanForeclosing",
      "type": "event"
    },
    {
      "anonymous": false,
      "inputs": [
        {
          "indexed": false,
          "internalType": "uint256",
          "name": "depositAmount",
          "type": "uint256"
        }
      ],
      "name": "NewDeposit",
      "type": "event"
    },
    {
      "anonymous": false,
      "inputs": [
        {
          "indexed": false,
          "internalType": "uint256",
          "name": "loanStatus",
          "type": "uint256"
        }
      ],
      "name": "NewLoanStatus",
      "type": "event"
    },
    {
      "anonymous": false,
      "inputs": [
        {
          "indexed": true,
          "internalType": "address",
          "name": "sharesSeller",
          "type": "address"
        },
        {
          "indexed": true,
          "internalType": "address",
          "name": "newShareholder",
          "type": "address"
        },
        {
          "indexed": true,
          "internalType": "uint256",
          "name": "amount",
          "type": "uint256"
        },
        {
          "indexed": false,
          "internalType": "uint256",
          "name": "blockNumber",
          "type": "uint256"
        }
      ],
      "name": "NewShareHolder",
      "type": "event"
    },
    {
      "anonymous": false,
      "inputs": [
        {
          "indexed": true,
          "internalType": "address",
          "name": "previousOwner",
          "type": "address"
        },
        {
          "indexed": true,
          "internalType": "address",
          "name": "newOwner",
          "type": "address"
        }
      ],
      "name": "OwnershipTransferred",
      "type": "event"
    },
    {
      "stateMutability": "payable",
      "type": "fallback"
    },
    {
      "inputs": [],
      "name": "borrowerAddress",
      "outputs": [
        {
          "internalType": "address",
          "name": "",
          "type": "address"
        }
      ],
      "stateMutability": "view",
      "type": "function"
    },
    {
      "inputs": [],
      "name": "commonParams",
      "outputs": [
        {
          "internalType": "uint256",
          "name": "loanId",
          "type": "uint256"
        },
        {
          "internalType": "uint256",
          "name": "rpbRate",
          "type": "uint256"
        },
        {
          "internalType": "uint256",
          "name": "initialCollateralRatio",
          "type": "uint256"
        },
        {
          "internalType": "uint256",
          "name": "creationBlock",
          "type": "uint256"
        },
        {
          "internalType": "uint256",
          "name": "pairId",
          "type": "uint256"
        },
        {
          "internalType": "uint256",
          "name": "borrowedAskAmount",
          "type": "uint256"
        },
        {
          "internalType": "uint8",
          "name": "collDecimals",
          "type": "uint8"
        },
        {
          "internalType": "uint8",
          "name": "lendDecimals",
          "type": "uint8"
        }
      ],
      "stateMutability": "view",
      "type": "function"
    },
    {
      "inputs": [],
      "name": "ethDeployer",
      "outputs": [
        {
          "internalType": "address",
          "name": "",
          "type": "address"
        }
      ],
      "stateMutability": "view",
      "type": "function"
    },
    {
      "inputs": [],
      "name": "feesCollector",
      "outputs": [
        {
          "internalType": "address payable",
          "name": "",
          "type": "address"
        }
      ],
      "stateMutability": "view",
      "type": "function"
    },
    {
      "inputs": [],
      "name": "lastDepositBlock",
      "outputs": [
        {
          "internalType": "uint256",
          "name": "",
          "type": "uint256"
        }
      ],
      "stateMutability": "view",
      "type": "function"
    },
    {
      "inputs": [],
      "name": "lastInterestWithdrawalBlock",
      "outputs": [
        {
          "internalType": "uint256",
          "name": "",
          "type": "uint256"
        }
      ],
      "stateMutability": "view",
      "type": "function"
    },
    {
      "inputs": [],
      "name": "lentToken",
      "outputs": [
        {
          "internalType": "contract IERC20",
          "name": "",
          "type": "address"
        }
      ],
      "stateMutability": "view",
      "type": "function"
    },
    {
      "inputs": [],
      "name": "loanActiveBlock",
      "outputs": [
        {
          "internalType": "uint256",
          "name": "",
          "type": "uint256"
        }
      ],
      "stateMutability": "view",
      "type": "function"
    },
    {
      "inputs": [],
      "name": "loanClosedBlock",
      "outputs": [
        {
          "internalType": "uint256",
          "name": "",
          "type": "uint256"
        }
      ],
      "stateMutability": "view",
      "type": "function"
    },
    {
      "inputs": [],
      "name": "loanClosingBlock",
      "outputs": [
        {
          "internalType": "uint256",
          "name": "",
          "type": "uint256"
        }
      ],
      "stateMutability": "view",
      "type": "function"
    },
    {
      "inputs": [],
      "name": "loanFees",
      "outputs": [
        {
          "internalType": "uint256",
          "name": "factoryFees",
          "type": "uint256"
        },
        {
          "internalType": "uint256",
          "name": "earlySettlementFee",
          "type": "uint256"
        },
        {
          "internalType": "uint256",
          "name": "userRewardShare",
          "type": "uint256"
        },
        {
          "internalType": "uint256",
          "name": "vaultShare",
          "type": "uint256"
        },
        {
          "internalType": "uint256",
          "name": "undercollateralizedForeclosingMultiple",
          "type": "uint256"
        },
        {
          "internalType": "uint256",
          "name": "atRiskForeclosedMultiple",
          "type": "uint256"
        },
        {
          "internalType": "uint256",
          "name": "cancellationFees",
          "type": "uint256"
        }
      ],
      "stateMutability": "view",
      "type": "function"
    },
    {
      "inputs": [],
      "name": "loanForeclosedBlock",
      "outputs": [
        {
          "internalType": "uint256",
          "name": "",
          "type": "uint256"
        }
      ],
      "stateMutability": "view",
      "type": "function"
    },
    {
      "inputs": [],
      "name": "loanForeclosingBlock",
      "outputs": [
        {
          "internalType": "uint256",
          "name": "",
          "type": "uint256"
        }
      ],
      "stateMutability": "view",
      "type": "function"
    },
    {
      "inputs": [],
      "name": "loanInitiateForeCloseBlock",
      "outputs": [
        {
          "internalType": "uint256",
          "name": "",
          "type": "uint256"
        }
      ],
      "stateMutability": "view",
      "type": "function"
    },
    {
      "inputs": [],
      "name": "loanParams",
      "outputs": [
        {
          "internalType": "uint256",
          "name": "minRpbRate",
          "type": "uint256"
        },
        {
          "internalType": "uint256",
          "name": "earlySettlementWindow",
          "type": "uint256"
        },
        {
          "internalType": "uint256",
          "name": "foreclosureWindow",
          "type": "uint256"
        },
        {
          "internalType": "uint256",
          "name": "requiredCollateralRatio",
          "type": "uint256"
        },
        {
          "internalType": "uint256",
          "name": "foreclosingRatio",
          "type": "uint256"
        },
        {
          "internalType": "uint256",
          "name": "instantForeclosureRatio",
          "type": "uint256"
        },
        {
          "internalType": "address",
          "name": "factoryAddress",
          "type": "address"
        },
        {
          "internalType": "address",
          "name": "ethDeployerAddress",
          "type": "address"
        },
        {
          "internalType": "address",
          "name": "tokenDeployerAddress",
          "type": "address"
        }
      ],
      "stateMutability": "view",
      "type": "function"
    },
    {
      "inputs": [],
      "name": "loanStatus",
      "outputs": [
        {
          "internalType": "enum IJLoanCommons.Status",
          "name": "",
          "type": "uint8"
        }
      ],
      "stateMutability": "view",
      "type": "function"
    },
    {
      "inputs": [],
      "name": "owner",
      "outputs": [
        {
          "internalType": "address",
          "name": "",
          "type": "address"
        }
      ],
      "stateMutability": "view",
      "type": "function"
    },
    {
      "inputs": [],
      "name": "renounceOwnership",
      "outputs": [],
      "stateMutability": "nonpayable",
      "type": "function"
    },
    {
      "inputs": [
        {
          "internalType": "uint256",
          "name": "",
          "type": "uint256"
        }
      ],
      "name": "shareHolders",
      "outputs": [
        {
          "internalType": "address",
          "name": "holder",
          "type": "address"
        },
        {
          "internalType": "uint256",
          "name": "shares",
          "type": "uint256"
        },
        {
          "internalType": "uint256",
          "name": "ownerBlockNumber",
          "type": "uint256"
        }
      ],
      "stateMutability": "view",
      "type": "function"
    },
    {
      "inputs": [
        {
          "internalType": "address",
          "name": "",
          "type": "address"
        }
      ],
      "name": "shareHoldersAddress",
      "outputs": [
        {
          "internalType": "bool",
          "name": "",
          "type": "bool"
        }
      ],
      "stateMutability": "view",
      "type": "function"
    },
    {
      "inputs": [],
      "name": "shareHoldersCounter",
      "outputs": [
        {
          "internalType": "uint256",
          "name": "",
          "type": "uint256"
        }
      ],
      "stateMutability": "view",
      "type": "function"
    },
    {
      "inputs": [
        {
          "internalType": "address",
          "name": "",
          "type": "address"
        }
      ],
      "name": "shareHoldersPlace",
      "outputs": [
        {
          "internalType": "uint256",
          "name": "",
          "type": "uint256"
        }
      ],
      "stateMutability": "view",
      "type": "function"
    },
    {
      "inputs": [
        {
          "internalType": "address",
          "name": "newOwner",
          "type": "address"
        }
      ],
      "name": "transferOwnership",
      "outputs": [],
      "stateMutability": "nonpayable",
      "type": "function"
    },
    {
      "stateMutability": "payable",
      "type": "receive"
    },
    {
      "inputs": [],
      "name": "setNewCommonParams",
      "outputs": [],
      "stateMutability": "nonpayable",
      "type": "function"
    },
    {
      "inputs": [],
      "name": "setNewFeesParams",
      "outputs": [],
      "stateMutability": "nonpayable",
      "type": "function"
    },
    {
      "inputs": [],
      "name": "getContractBalance",
      "outputs": [
        {
          "internalType": "uint256",
          "name": "",
          "type": "uint256"
        }
      ],
      "stateMutability": "view",
      "type": "function"
    },
    {
      "inputs": [],
      "name": "getLoanStatus",
      "outputs": [
        {
          "internalType": "uint256",
          "name": "",
          "type": "uint256"
        }
      ],
      "stateMutability": "view",
      "type": "function"
    },
    {
      "inputs": [],
      "name": "getPairPrice",
      "outputs": [
        {
          "internalType": "uint256",
          "name": "",
          "type": "uint256"
        }
      ],
      "stateMutability": "view",
      "type": "function"
    },
    {
      "inputs": [],
      "name": "getPairDecimals",
      "outputs": [
        {
          "internalType": "uint256",
          "name": "",
          "type": "uint256"
        }
      ],
      "stateMutability": "view",
      "type": "function"
    },
    {
      "inputs": [],
      "name": "checkEarlySettledLoan",
      "outputs": [
        {
          "internalType": "bool",
          "name": "",
          "type": "bool"
        }
      ],
      "stateMutability": "view",
      "type": "function"
    },
    {
      "inputs": [],
      "name": "getActualCollateralRatio",
      "outputs": [
        {
          "internalType": "uint256",
          "name": "newCollRatio",
          "type": "uint256"
        }
      ],
      "stateMutability": "view",
      "type": "function"
    },
    {
      "inputs": [
        {
          "internalType": "uint256",
          "name": "_amount",
          "type": "uint256"
        }
      ],
      "name": "calcRatioAddingCollateral",
      "outputs": [
        {
          "internalType": "uint256",
          "name": "ratio",
          "type": "uint256"
        }
      ],
      "stateMutability": "view",
      "type": "function"
    },
    {
      "inputs": [
        {
          "internalType": "uint256",
          "name": "_ratio",
          "type": "uint256"
        }
      ],
      "name": "calcDiffCollAmountForRatio",
      "outputs": [
        {
          "internalType": "uint256",
          "name": "collDiff",
          "type": "uint256"
        }
      ],
      "stateMutability": "view",
      "type": "function"
    },
    {
      "inputs": [
        {
          "internalType": "address",
          "name": "_stableAddr",
          "type": "address"
        }
      ],
      "name": "lenderSendStableCoins",
      "outputs": [],
      "stateMutability": "nonpayable",
      "type": "function"
    },
    {
      "inputs": [],
      "name": "setLoanStatusOnCollRatio",
      "outputs": [
        {
          "internalType": "uint256",
          "name": "",
          "type": "uint256"
        }
      ],
      "stateMutability": "nonpayable",
      "type": "function"
    },
    {
      "inputs": [],
      "name": "initiateLoanForeClose",
      "outputs": [],
      "stateMutability": "nonpayable",
      "type": "function"
    },
    {
      "inputs": [],
      "name": "setLoanInForeclosedByTime",
      "outputs": [
        {
          "internalType": "bool",
          "name": "",
          "type": "bool"
        }
      ],
      "stateMutability": "nonpayable",
      "type": "function"
    },
    {
      "inputs": [],
      "name": "loanClosingByBorrower",
      "outputs": [],
      "stateMutability": "nonpayable",
      "type": "function"
    },
    {
      "inputs": [],
      "name": "setLoanCancelled",
      "outputs": [],
      "stateMutability": "nonpayable",
      "type": "function"
    },
    {
      "inputs": [
        {
          "internalType": "uint256",
          "name": "_calcBlk",
          "type": "uint256"
        }
      ],
      "name": "calculatingAccruedInterests",
      "outputs": [
        {
          "internalType": "uint256",
          "name": "",
          "type": "uint256"
        }
      ],
      "stateMutability": "view",
      "type": "function"
    },
    {
      "inputs": [],
      "name": "getAccruedInterests",
      "outputs": [
        {
          "internalType": "uint256",
          "name": "accruedInterests",
          "type": "uint256"
        }
      ],
      "stateMutability": "view",
      "type": "function"
    },
    {
      "inputs": [],
      "name": "withdrawInterests",
      "outputs": [
        {
          "internalType": "uint256",
          "name": "",
          "type": "uint256"
        }
      ],
      "stateMutability": "nonpayable",
      "type": "function"
    },
    {
      "inputs": [
        {
          "internalType": "address",
          "name": "_holder",
          "type": "address"
        }
      ],
      "name": "isShareHolder",
      "outputs": [
        {
          "internalType": "bool",
          "name": "",
          "type": "bool"
        }
      ],
      "stateMutability": "view",
      "type": "function"
    },
    {
      "inputs": [
        {
          "internalType": "address",
          "name": "_holder",
          "type": "address"
        }
      ],
      "name": "getShareHolderPlace",
      "outputs": [
        {
          "internalType": "uint256",
          "name": "",
          "type": "uint256"
        }
      ],
      "stateMutability": "view",
      "type": "function"
    },
    {
      "inputs": [
        {
          "internalType": "address",
          "name": "_newShareholder",
          "type": "address"
        },
        {
          "internalType": "uint256",
          "name": "_amount",
          "type": "uint256"
        }
      ],
      "name": "addLoanShareHolders",
      "outputs": [
        {
          "internalType": "uint256",
          "name": "",
          "type": "uint256"
        }
      ],
      "stateMutability": "nonpayable",
      "type": "function"
    }
  ],
  "bytecode": "0x60806040526040516200436238038062004362833981016040819052620000269162000b7f565b60006200003b6001600160e01b036200051416565b600080546001600160a01b0319166001600160a01b03831690811782556040519293509160008051602062004342833981519152908290a3506001805533620000a15760405162461bcd60e51b8152600401620000989062000fbd565b60405180910390fd5b600280546001600160a01b031916331790556001600160a01b038816620000dc5760405162461bcd60e51b8152600401620000989062000fbd565b87600460006101000a8154816001600160a01b0302191690836001600160a01b03160217905550826001600160a01b0316634fd758796040518163ffffffff1660e01b81526004016101206040518083038186803b1580156200013e57600080fd5b505afa15801562000153573d6000803e3d6000fd5b505050506040513d601f19601f8201168201806040525081019062000179919062000c78565b8051600655602081015160075560408082015160085560608201516009556080820151600a5560a0820151600b5560c0820151600c80546001600160a01b03199081166001600160a01b039384161790915560e080850151600d8054841691851691909117905561010090940151600e80549092169083161790558151631a55d9e960e01b8152915190861692631a55d9e99260048082019391829003018186803b1580156200022857600080fd5b505afa1580156200023d573d6000803e3d6000fd5b505050506040513d601f19601f8201168201806040525081019062000263919062000c10565b805160175560208101516018556040808201516019556060820151601a556080820151601b5560a0820151601c5560c090910151601d55516310f15c6760e21b81526000906001600160a01b038516906343c5719c90620002cb908a908a9060040162000ffd565b60206040518083038186803b158015620002e457600080fd5b505afa158015620002f9573d6000803e3d6000fd5b505050506040513d601f19601f820116820180604052508101906200031f919062000d16565b6004549091506001600160a01b031631811115620003515760405162461bcd60e51b8152600401620000989062000f4e565b80341015620003745760405162461bcd60e51b8152600401620000989062000e6a565b600380546001600160a01b0319166001600160a01b038416179055600654851015620003b45760405162461bcd60e51b8152600401620000989062000f92565b600f88905560108590556013879055600580546001600160a01b038086166001600160a01b03199092169190911790915560148790556015805460ff19166012179055604051633e17bdcb60e11b815290851690637c2f7b96906200041e908a9060040162000ff4565b60206040518083038186803b1580156200043757600080fd5b505afa1580156200044c573d6000803e3d6000fd5b505050506040513d601f19601f8201168201806040525081019062000472919062000d2f565b6015805460ff929092166101000261ff0019909216919091179055620004a06001600160e01b036200051816565b601155436012556016805460ff19169055600c54620004c8906001600160a01b0316620006ad565b6012546040517fdeee932c8cb731a2276d9e4cab46b8dca799c35ee3992e7822b321020f6c5f3891620004fd9134906200100b565b60405180910390a150505050505050505062001074565b3390565b6000806200052e6001600160e01b036200076316565b90506000620005456001600160e01b03620007f116565b60145490915060008060165460ff1660098111156200056057fe5b14156200056f5750476200059e565b6200059b620005866001600160e01b036200088216565b476200099e60201b620023071790919060201c565b90505b60155460ff610100820481169116106200064357601554600090620005db9060ff808216916101009004166200099e602090811b6200230717901c565b90506200063a81600a0a6200061286600a0a6200061260646200062689620006128d8b620009f160201b620023501790919060201c565b62000a3160201b6200238a1790919060201c565b620009f160201b620023501790919060201c565b955050620006a6565b6015546000906200066b9060ff6101008204811691166200099e602090811b6200230717901c565b9050620006a281600a0a6200062686600a0a6200061260646200062689620006128d8b620009f160201b620023501790919060201c565b9550505b5050505090565b620006c06001600160e01b036200051416565b6000546001600160a01b03908116911614620006f05760405162461bcd60e51b8152600401620000989062000ee2565b6001600160a01b038116620007195760405162461bcd60e51b8152600401620000989062000ded565b600080546040516001600160a01b03808516939216916000805160206200434283398151915291a3600080546001600160a01b0319166001600160a01b0392909216919091179055565b600c54601354604051631334f8cd60e11b81526000926001600160a01b031691632669f19a9162000798919060040162000ff4565b60206040518083038186803b158015620007b157600080fd5b505afa158015620007c6573d6000803e3d6000fd5b505050506040513d601f19601f82011682018060405250810190620007ec919062000d16565b905090565b600c54601354604051632bd61f0560e11b81526000926001600160a01b0316916357ac3e0a9162000826919060040162000ff4565b60206040518083038186803b1580156200083f57600080fd5b505afa15801562000854573d6000803e3d6000fd5b505050506040513d601f19601f820116820180604052508101906200087a919062000d2f565b60ff16905090565b601654600090819060ff1660098111156200089957fe5b118015620008b9575060165460089060ff166009811115620008b757fe5b105b620008d85760405162461bcd60e51b8152600401620000989062000da8565b6000620008fb600660010154601e5462000a7b60201b620023cc1790919060201c565b9050600660165460ff1660098111156200091157fe5b1480156200091f5750804311155b15620009415762000939816001600160e01b0362000aa316565b91506200098d565b60215415620009765762000939620009676021544362000af060201b620023f11760201c565b6001600160e01b0362000aa316565b6200098a436001600160e01b0362000aa316565b91505b478211156200099a574791505b5090565b6000620009e883836040518060400160405280601e81526020017f536166654d6174683a207375627472616374696f6e206f766572666c6f77000081525062000b0860201b60201c565b90505b92915050565b60008262000a0257506000620009eb565b8282028284828162000a1057fe5b0414620009e85760405162461bcd60e51b8152600401620000989062000ea1565b6000620009e883836040518060400160405280601a81526020017f536166654d6174683a206469766973696f6e206279207a65726f00000000000081525062000b3760201b60201c565b600082820183811015620009e85760405162461bcd60e51b8152600401620000989062000e33565b600060235482101562000aca5760405162461bcd60e51b8152600401620000989062000f17565b620009eb600f6001015462000626602354856200099e60201b620023071790919060201c565b600081831062000b015781620009e8565b5090919050565b6000818484111562000b2f5760405162461bcd60e51b815260040162000098919062000d52565b505050900390565b6000818362000b5b5760405162461bcd60e51b815260040162000098919062000d52565b50600083858162000b6857fe5b0495945050505050565b8051620009eb816200105b565b600080600080600080600080610100898b03121562000b9c578384fd5b885162000ba9816200105b565b809850506020890151965060408901519550606089015194506080890151935060a089015162000bd9816200105b565b60c08a015190935062000bec816200105b565b60e08a015190925062000bff816200105b565b809150509295985092959890939650565b600060e0828403121562000c22578081fd5b62000c2e60e062001034565b825181526020830151602082015260408301516040820152606083015160608201526080830151608082015260a083015160a082015260c083015160c08201528091505092915050565b600061012080838503121562000c8c578182fd5b62000c978162001034565b835181526020840151602082015260408401516040820152606084015160608201526080840151608082015260a084015160a082015262000cdc8560c0860162000b72565b60c082015262000cf08560e0860162000b72565b60e0820152610100915062000d088583860162000b72565b918101919091529392505050565b60006020828403121562000d28578081fd5b5051919050565b60006020828403121562000d41578081fd5b815160ff81168114620009e8578182fd5b6000602080835283518082850152825b8181101562000d805785810183015185820160400152820162000d62565b8181111562000d925783604083870101525b50601f01601f1916929092016040019392505050565b60208082526025908201527f4c6f616e20737461747573206e6f742063616c63756c6174696e6720696e7465604082015264726573747360d81b606082015260800190565b60208082526026908201527f4f776e61626c653a206e6577206f776e657220697320746865207a65726f206160408201526564647265737360d01b606082015260800190565b6020808252601b908201527f536166654d6174683a206164646974696f6e206f766572666c6f770000000000604082015260600190565b60208082526017908201527f506c656173652073656e64206d6f726520657468657273000000000000000000604082015260600190565b60208082526021908201527f536166654d6174683a206d756c7469706c69636174696f6e206f766572666c6f6040820152607760f81b606082015260800190565b6020808252818101527f4f776e61626c653a2063616c6c6572206973206e6f7420746865206f776e6572604082015260600190565b60208082526018908201527f426c6f636b206e756d626572206e6f7420616c6c6f7765640000000000000000604082015260600190565b60208082526024908201527f426f72726f77657220646f6573206e6f74206861766520656e6f7567682065746040820152636865727360e01b606082015260800190565b602080825260119082015270496e74657265737420746f6f206c6f772160781b604082015260600190565b6020808252601a908201527f53656e6465722061646472657373206e6f7420616c6c6f776564000000000000604082015260600190565b90815260200190565b918252602082015260400190565b9182526020820152606060408201819052600390820152620cae8d60eb1b608082015260a00190565b6040518181016001600160401b03811182821017156200105357600080fd5b604052919050565b6001600160a01b03811681146200107157600080fd5b50565b6132be80620010846000396000f3fe6080604052600436106102765760003560e01c80637427a40c1161014f578063c0b27cc5116100c1578063e1c7111a1161007a578063e1c7111a14610735578063e936e44a1461074a578063ec98362e1461075f578063f2fde38b14610774578063fb6222e814610794578063ff0d69a6146107b45761030e565b8063c0b27cc514610698578063c2b0bf58146106ad578063c55d2a47146106c2578063d20fbeb6146106d7578063d5138948146106ec578063d75e1bd8146107155761030e565b8063918c3dbd11610113578063918c3dbd1461060457806395dcc255146106195780639cf160f614610639578063a41969e51461064e578063acc1ab131461066e578063b2ca1805146106835761030e565b80637427a40c146105765780637a33f63c146105a55780637ba61ea5146105c557806382f0c81c146105da5780638da5cb5b146105ef5761030e565b80633ba2ee40116101e857806356f4aee0116101ac57806356f4aee0146104d75780635ced2a11146104f75780635f4975f0146105175780636dd167f8146105375780636f9fb98a1461054c578063715018a6146105615761030e565b80633ba2ee40146104635780633cf348c31461047857806342ac33791461048d57806347c865df146104a25780634cdb79b4146104b75761030e565b80631aa118d91161023a5780631aa118d9146103c357806320a73ab7146103d8578063216c2490146103ed57806328899423146104155780632a1f3cda146104375780632a3d7c811461044e5761030e565b806306bb531e14610315578063074ca966146103405780630896962c1461036257806309e94d981461038457806318ad714a146103ae5761030e565b3661030e5760015b60165460ff16600981111561028f57fe5b101580156102ae5750600460165460ff1660098111156102ab57fe5b11155b6102d35760405162461bcd60e51b81526004016102ca90612a69565b60405180910390fd5b7f85177f287940f2f05425a4029951af0e047a7f9c4eaa9a6e6917bcd869f8669533346040516103049291906129b9565b60405180910390a1005b600161027e565b34801561032157600080fd5b5061032a6107c9565b6040516103379190613128565b60405180910390f35b34801561034c57600080fd5b506103556108d2565b6040516103379190612a22565b34801561036e57600080fd5b506103776108db565b604051610337919061298b565b34801561039057600080fd5b506103996108ea565b6040516103379998979695949392919061313f565b3480156103ba57600080fd5b5061032a610919565b3480156103cf57600080fd5b5061032a6109ec565b3480156103e457600080fd5b5061032a6109f2565b3480156103f957600080fd5b506104026109f8565b604051610337979695949392919061318d565b34801561042157600080fd5b5061042a610a10565b6040516103379190612a17565b34801561044357600080fd5b5061044c610ba7565b005b34801561045a57600080fd5b5061032a610cc9565b34801561046f57600080fd5b5061044c610ccf565b34801561048457600080fd5b5061042a610e95565b34801561049957600080fd5b5061032a610eb0565b3480156104ae57600080fd5b5061032a610f33565b3480156104c357600080fd5b5061042a6104d23660046127bd565b610f39565b3480156104e357600080fd5b5061032a6104f23660046127bd565b610f4e565b34801561050357600080fd5b5061032a61051236600461291e565b610f69565b34801561052357600080fd5b5061032a6105323660046127bd565b610fbb565b34801561054357600080fd5b5061032a610fcd565b34801561055857600080fd5b5061032a610fd3565b34801561056d57600080fd5b5061044c610fd7565b34801561058257600080fd5b5061059661059136600461291e565b611056565b604051610337939291906129f6565b3480156105b157600080fd5b5061042a6105c03660046127bd565b611081565b3480156105d157600080fd5b5061037761109f565b3480156105e657600080fd5b5061032a6110ae565b3480156105fb57600080fd5b50610377611274565b34801561061057600080fd5b5061044c611283565b34801561062557600080fd5b5061044c6106343660046127bd565b611360565b34801561064557600080fd5b506103776117bd565b34801561065a57600080fd5b5061032a61066936600461291e565b6117cc565b34801561067a57600080fd5b5061032a6118de565b34801561068f57600080fd5b5061032a6118f2565b3480156106a457600080fd5b5061032a6118f8565b3480156106b957600080fd5b5061044c6118fe565b3480156106ce57600080fd5b5061032a6119fa565b3480156106e357600080fd5b5061032a611a00565b3480156106f857600080fd5b50610701611b12565b6040516103379897969594939291906131bd565b34801561072157600080fd5b5061032a6107303660046127d9565b611b36565b34801561074157600080fd5b50610377611de1565b34801561075657600080fd5b5061032a611df0565b34801561076b57600080fd5b5061044c611e7b565b34801561078057600080fd5b5061044c61078f3660046127bd565b612160565b3480156107a057600080fd5b5061032a6107af36600461291e565b612216565b3480156107c057600080fd5b5061032a612301565b601654600090819060ff1660098111156107df57fe5b1180156107fd575060165460059060ff1660098111156107fb57fe5b105b1561087457600061080c611a00565b600a54909150811061082f576016805460ff191660011790556000602455610872565b600a5481118015906108435750600b548110155b1561085a576016805460ff19166002179055610872565b600b54811015610872576016805460ff191660031790555b505b6016547fe096f951d62ec2072f7a4b5b750e0f9b7a55b9c4cbfa1f516b496cb58d7dff6f9060ff1660098111156108a757fe5b6040516108b49190613128565b60405180910390a160165460ff1660098111156108cd57fe5b905090565b60165460ff1681565b6002546001600160a01b031681565b600654600754600854600954600a54600b54600c54600d54600e546001600160a01b0392831692918216911689565b601654600090819060ff16600981111561092f57fe5b11801561094d575060165460089060ff16600981111561094b57fe5b105b6109695760405162461bcd60e51b81526004016102ca90612aae565b600754601e54600091610982919063ffffffff6123cc16565b9050600660165460ff16600981111561099757fe5b1480156109a45750804311155b156109b9576109b281610f69565b91506109dc565b602154156109d0576109b2610512602154436123f1565b6109d943610f69565b91505b478211156109e8574791505b5090565b60295481565b601f5481565b601754601854601954601a54601b54601c54601d5487565b600060026001541415610a355760405162461bcd60e51b81526004016102ca9061309b565b600260015560165460ff166009811115610a4b57fe5b600414610a6a5760405162461bcd60e51b81526004016102ca90612c48565b60245460009015801590610a925750600854602454610a8e9163ffffffff6123cc16565b4310155b15610b9e57601054601c54600091610ab0919063ffffffff61235016565b905047818110610b37576000610ae56064610ad96017600201548661235090919063ffffffff16565b9063ffffffff61238a16565b90506000610b066064610ad96017600301548761235090919063ffffffff16565b9050610b123383612407565b600354610b28906001600160a01b031682612407565b610b30612499565b5050610b97565b6000610b566064610ad96017600201548561235090919063ffffffff16565b90506000610b6a838363ffffffff61230716565b9050610b763383612407565b600354610b8c906001600160a01b031682612407565b610b946124e7565b50505b6001925050505b90506001805590565b6002546001600160a01b03163314610bd15760405162461bcd60e51b81526004016102ca90612af3565b600c5460408051634fd7587960e01b815290516001600160a01b0390921691634fd758799160048082019261012092909190829003018186803b158015610c1757600080fd5b505afa158015610c2b573d6000803e3d6000fd5b505050506040513d601f19601f82011682018060405250810190610c4f9190612889565b80516006556020810151600755604081015160085560608101516009556080810151600a5560a0810151600b5560c0810151600c80546001600160a01b03199081166001600160a01b039384161790915560e0830151600d8054831691841691909117905561010090920151600e80549093169116179055565b60225481565b60026001541415610cf25760405162461bcd60e51b81526004016102ca9061309b565b60026001556000610d016107c9565b90508060021480610d125750806003145b610d2e5760405162461bcd60e51b81526004016102ca90612df8565b60008160021415610d5d57601054601b54610d4e9163ffffffff61235016565b9050610d58612532565b610d7c565b601054601c54610d729163ffffffff61235016565b9050610d7c612499565b47818110610ded576000610da36064610ad96017600201548661235090919063ffffffff16565b90506000610dc46064610ad96017600301548761235090919063ffffffff16565b9050610dd03383612407565b600354610de6906001600160a01b031682612407565b5050610e4d565b6000610e0c6064610ad96017600201548561235090919063ffffffff16565b90506000610e20838363ffffffff61230716565b9050610e2c3383612407565b600354610e42906001600160a01b031682612407565b610e4a6124e7565b50505b43601f81905560405133917f9c216942fb53599e3610164be0d173eb8b00a4613afdb41d524f00091a819abc91610e849190613128565b60405180910390a250506001805550565b6000600660165460ff166009811115610eaa57fe5b14905090565b600c54601354604051631334f8cd60e11b81526000926001600160a01b031691632669f19a91610ee39190600401613128565b60206040518083038186803b158015610efb57600080fd5b505afa158015610f0f573d6000803e3d6000fd5b505050506040513d601f19601f820116820180604052508101906108cd9190612936565b60235481565b60276020526000908152604090205460ff1681565b6001600160a01b031660009081526028602052604090205490565b6000602354821015610f8d5760405162461bcd60e51b81526004016102ca90612fdd565b601054602354610fb59190610fa990859063ffffffff61230716565b9063ffffffff61235016565b92915050565b60286020526000908152604090205481565b60205481565b4790565b610fdf612576565b6000546001600160a01b0390811691161461100c5760405162461bcd60e51b81526004016102ca90612eb1565b600080546040516001600160a01b03909116907f8be0079c531659141344cd1fd0a4f28419497f9722a3daafe3b4186f6b6457e0908390a3600080546001600160a01b0319169055565b6026602052600090815260409020805460018201546002909201546001600160a01b03909116919083565b6001600160a01b031660009081526027602052604090205460ff1690565b6004546001600160a01b031681565b6000600260015414156110d35760405162461bcd60e51b81526004016102ca9061309b565b600260015560165460009060ff1660098111156110ec57fe5b11801561110a575060165460089060ff16600981111561110857fe5b105b6111265760405162461bcd60e51b81526004016102ca906130d2565b60165460009060ff16600981111561113a57fe5b9050476000611147610919565b90508082106111aa5760015b6029548160ff161161118d5760ff8116600090815260266020526040902054611185906001600160a01b03168361257a565b600101611153565b5043602355600383116111a5576111a26107c9565b92505b611230565b811580156111bc57506111bc33611081565b156111c9576111a56124e7565b60015b6029548160ff16116112065760ff81166000908152602660205260409020546111fe906001600160a01b03168461257a565b6001016111cc565b504360238190556021556016805460ff19166008179081905560ff16600981111561122d57fe5b92505b7fdec1686054df57da892459d2ee005662e0454e2a360400e54fab99d3c383b28c8143604051611261929190613131565b60405180910390a1505060018055919050565b6000546001600160a01b031690565b6002546001600160a01b031633146112ad5760405162461bcd60e51b81526004016102ca90612af3565b600c5460408051631a55d9e960e01b815290516001600160a01b0390921691631a55d9e99160048082019260e092909190829003018186803b1580156112f257600080fd5b505afa158015611306573d6000803e3d6000fd5b505050506040513d601f19601f8201168201806040525081019061132a9190612824565b8051601755602081015160185560408101516019556060810151601a556080810151601b5560a0810151601c5560c00151601d55565b600260015414156113835760405162461bcd60e51b81526004016102ca9061309b565b6002600155336113a55760405162461bcd60e51b81526004016102ca90612d14565b6005546001600160a01b038281169116146113d25760405162461bcd60e51b81526004016102ca90612f32565b6014546005546040516370a0823160e01b81526001600160a01b03909116906370a082319061140590339060040161298b565b60206040518083038186803b15801561141d57600080fd5b505afa158015611431573d6000803e3d6000fd5b505050506040513d601f19601f820116820180604052508101906114559190612936565b10156114735760405162461bcd60e51b81526004016102ca90612d41565b600060165460ff16600981111561148657fe5b146114a35760405162461bcd60e51b81526004016102ca90612c77565b601454600554604051636eb1769f60e11b81526000916001600160a01b03169063dd62ed3e906114d9903390309060040161299f565b60206040518083038186803b1580156114f157600080fd5b505afa158015611505573d6000803e3d6000fd5b505050506040513d601f19601f820116820180604052508101906115299190612936565b90508181101561154b5760405162461bcd60e51b81526004016102ca90612d84565b60016029818155604080516060810182523380825260646020808401918252601e805485870190815260008981526026845295517f5db1dfd2ced311e642486f0e890a646498a1bdee1ad9403b0a73141af8a4c41180546001600160a01b0319166001600160a01b0392831617905593517f5db1dfd2ced311e642486f0e890a646498a1bdee1ad9403b0a73141af8a4c41255517f5db1dfd2ced311e642486f0e890a646498a1bdee1ad9403b0a73141af8a4c4135583855260278252858520805460ff199081168a1790915596546028909252949093209290925560168054909416909417909255439081905560235560055460045461165193918316921685612610565b600c5460135460145460405163c175771b60e01b81526000936001600160a01b03169263c175771b9261168692600401613131565b60206040518083038186803b15801561169e57600080fd5b505afa1580156116b2573d6000803e3d6000fd5b505050506040513d601f19601f820116820180604052508101906116d69190612936565b600c54604051632976f2fb60e11b81529192506000916001600160a01b03909116906352ede5f69061170c908590600401613128565b60206040518083038186803b15801561172457600080fd5b505afa158015611738573d6000803e3d6000fd5b505050506040513d601f19601f8201168201806040525081019061175c9190612936565b600354909150611775906001600160a01b031682612407565b601e5460405133917f8da312eaac37817e0ccf8bd45912080260bec10b5dac7e4ab7a438e96a605921916117aa918591613131565b60405180910390a2505060018055505050565b6003546001600160a01b031681565b600047816117d8610eb0565b905060006117e4611df0565b60145460155491925060009187919060ff61010082048116911610611858576015546000906118249060ff8082169161010090041663ffffffff61230716565b905061185081600a0a610fa96064610ad98a610ad98b600a0a610fa98b8b61235090919063ffffffff16565b9350506118a2565b6015546000906118729060ff610100820481169116612307565b905061189e81600a0a610ad96064610ad98a610ad98b600a0a610fa98b8b61235090919063ffffffff16565b9350505b8583106118c0576118b9838763ffffffff61230716565b96506118d3565b6118d0868463ffffffff61230716565b96505b505050505050919050565b60165460009060ff1660098111156108cd57fe5b601e5481565b60245481565b6004546001600160a01b031633146119285760405162461bcd60e51b81526004016102ca90612e7a565b60165460ff16600981111561193957fe5b156119565760405162461bcd60e51b81526004016102ca90612cd8565b60006119756064610ad96017600601544761235090919063ffffffff16565b60035490915061198e906001600160a01b031682612407565b60006119a0478363ffffffff61230716565b90506119ac3382612407565b6016805460ff19166009179055600f5460405133907f976729a22a1f27f055a6f0ffa92bd9d2944c972f1d0e25d1b3517bfa523cf498906119ee904390613128565b60405180910390a35050565b60215481565b600080611a0b610eb0565b90506000611a17611df0565b60145490915060008060165460ff166009811115611a3157fe5b1415611a3e575047611a59565b611a56611a49610919565b479063ffffffff61230716565b90505b60155460ff61010082048116911610611ac157601554600090611a8d9060ff8082169161010090041663ffffffff61230716565b9050611ab981600a0a610ad986600a0a610ad96064610fa989610ad98d8b61235090919063ffffffff16565b955050611b0b565b601554600090611adb9060ff610100820481169116612307565b9050611b0781600a0a610fa986600a0a610ad96064610fa989610ad98d8b61235090919063ffffffff16565b9550505b5050505090565b600f5460105460115460125460135460145460155460ff8082169161010090041688565b600060026001541415611b5b5760405162461bcd60e51b81526004016102ca9061309b565b6002600155611b6933611081565b611b855760405162461bcd60e51b81526004016102ca90612ca1565b6000611b9033610f4e565b905060008111611bb25760405162461bcd60e51b81526004016102ca90612bb6565b600081815260266020526040902060010154831115611be35760405162461bcd60e51b81526004016102ca90612f94565b600754601e54014311611c085760405162461bcd60e51b81526004016102ca90612b2a565b6000611c12610919565b905060015b6029548160ff1611611c515760ff8116600090815260266020526040902054611c49906001600160a01b03168361257a565b600101611c17565b50600082815260266020526040902060010154611c74908563ffffffff61230716565b600083815260266020526040902060010155611c8f85611081565b611d2e57602954611ca790600163ffffffff6123cc16565b6029818155604080516060810182526001600160a01b0389811680835260208084018b815243858701908152600098895260268352868920955186546001600160a01b0319169516949094178555516001808601919091559251600290940193909355855260278252828520805460ff191690911790559154602890925290912055611dc5565b6000611d3986610f4e565b600081815260266020526040902060010154909150611d5e908663ffffffff6123cc16565b6000828152602660205260409081902060018101929092554360029092018290555186916001600160a01b0389169133917fb510f1f825ef2a9b3a0fa1d56d8461062ee721c12409714d52332b44b82e6afc91611dbb9190613128565b60405180910390a4505b436023556000611dd36107c9565b600180559695505050505050565b6005546001600160a01b031681565b600c54601354604051632bd61f0560e11b81526000926001600160a01b0316916357ac3e0a91611e239190600401613128565b60206040518083038186803b158015611e3b57600080fd5b505afa158015611e4f573d6000803e3d6000fd5b505050506040513d601f19601f82011682018060405250810190611e73919061294e565b60ff16905090565b60026001541415611e9e5760405162461bcd60e51b81526004016102ca9061309b565b60026001556004546001600160a01b03163314611ecd5760405162461bcd60e51b81526004016102ca90612f5d565b6000611ed76107c9565b9050600081118015611eea575060048111155b611f065760405162461bcd60e51b81526004016102ca90612dbb565b600554604051636eb1769f60e11b81526000916001600160a01b03169063dd62ed3e90611f39903390309060040161299f565b60206040518083038186803b158015611f5157600080fd5b505afa158015611f65573d6000803e3d6000fd5b505050506040513d601f19601f82011682018060405250810190611f899190612936565b601454909150811015611fae5760405162461bcd60e51b81526004016102ca90612ee6565b60015b6029548160ff16116120395760ff81166000908152602660205260408120546001600160a01b031690611fe382610f4e565b600081815260266020526040902060010154600554601454929350909161202e916001600160a01b0316903390869061202990606490610ad9908863ffffffff61235016565b612610565b505050600101611fb1565b50600754601e546000910143101561205a57612053612701565b9050612065565b612062610919565b90505b6000600660165460ff16600981111561207a57fe5b1415612098576010546018546120959163ffffffff61235016565b90505b4760006120ab848463ffffffff6123cc16565b90508082106120ee576003546120ca906001600160a01b031684612407565b60006120dc838363ffffffff61230716565b90506120e83382612407565b5061210b565b82821061210b5760035461210b906001600160a01b031684612407565b4360208190556016805460ff191660071790556040517fd81de7231bf1ee8484c8d4a7f114d29a312842bf7d0eb187ffec71b5b94d22309161214c91613128565b60405180910390a150506001805550505050565b612168612576565b6000546001600160a01b039081169116146121955760405162461bcd60e51b81526004016102ca90612eb1565b6001600160a01b0381166121bb5760405162461bcd60e51b81526004016102ca90612b70565b600080546040516001600160a01b03808516939216917f8be0079c531659141344cd1fd0a4f28419497f9722a3daafe3b4186f6b6457e091a3600080546001600160a01b0319166001600160a01b0392909216919091179055565b6000478161222a828563ffffffff6123cc16565b90506000612236610eb0565b90506000612242611df0565b6014546015549192509060ff610100820481169116106122b15760155460009061227d9060ff8082169161010090041663ffffffff61230716565b90506122a981600a0a610ad985600a0a610ad96064610fa988610ad98c8e61235090919063ffffffff16565b9650506122f7565b6015546000906122cb9060ff610100820481169116612307565b90506118d081600a0a610fa985600a0a610ad96064610fa988610ad98c8e61235090919063ffffffff16565b5050505050919050565b60255481565b600061234983836040518060400160405280601e81526020017f536166654d6174683a207375627472616374696f6e206f766572666c6f77000081525061274f565b9392505050565b60008261235f57506000610fb5565b8282028284828161236c57fe5b04146123495760405162461bcd60e51b81526004016102ca90612e39565b600061234983836040518060400160405280601a81526020017f536166654d6174683a206469766973696f6e206279207a65726f00000000000081525061277b565b6000828201838110156123495760405162461bcd60e51b81526004016102ca90612be5565b60008183106124005781612349565b5090919050565b604080516000808252602082019092526001600160a01b038416908390604051612431919061296f565b60006040518083038185875af1925050503d806000811461246e576040519150601f19603f3d011682016040523d82523d6000602084013e612473565b606091505b50509050806124945760405162461bcd60e51b81526004016102ca90613014565b505050565b4360258190556016805460ff1916600517905560405133917f9501cc045c1358e5e6d1aef6f29cb9b1ffb3ea567a4795bffce3050ed74f4d1b916124dd9190613128565b60405180910390a2565b4360218190556016805460ff191660081790556040517f50d3f9b87161fe68d44f1df9c50ec05198e280f710299688dccdd0dea547266c9161252891613128565b60405180910390a1565b6016805460ff1916600417905543602481905560405133917ff542b84b1e49b5bef195e1e1949cf1eb789fbe49c059b62a89f24af3c6f71d8f916124dd9190613128565b3390565b61258382611081565b61259f5760405162461bcd60e51b81526004016102ca90612ca1565b60015b6029548160ff16116124945760ff81166000908152602660205260408120546125d3906001600160a01b0316610f4e565b600081815260266020526040902060010154909150612606856126016064610ad9888663ffffffff61235016565b612407565b50506001016125a2565b60006060856001600160a01b03166323b872dd868686604051602401612638939291906129d2565b6040516020818303038152906040529060e01b6020820180516001600160e01b038381831617835250505050604051612671919061296f565b6000604051808303816000865af19150503d80600081146126ae576040519150601f19603f3d011682016040523d82523d6000602084013e6126b3565b606091505b50915091508180156126dd5750805115806126dd5750808060200190518101906126dd9190612804565b6126f95760405162461bcd60e51b81526004016102ca90613057565b505050505050565b600754601e546000910143106127295760405162461bcd60e51b81526004016102ca90612c1c565b6016805460ff191660061790556010546007546000916127499190612350565b91505090565b600081848411156127735760405162461bcd60e51b81526004016102ca9190612a36565b505050900390565b6000818361279c5760405162461bcd60e51b81526004016102ca9190612a36565b5060008385816127a857fe5b0495945050505050565b8051610fb581613250565b6000602082840312156127ce578081fd5b813561234981613250565b600080604083850312156127eb578081fd5b82356127f681613250565b946020939093013593505050565b600060208284031215612815578081fd5b81518015158114612349578182fd5b600060e08284031215612835578081fd5b61283f60e06131f9565b825181526020830151602082015260408301516040820152606083015160608201526080830151608082015260a083015160a082015260c083015160c08201528091505092915050565b600061012080838503121561289c578182fd5b6128a5816131f9565b835181526020840151602082015260408401516040820152606084015160608201526080840151608082015260a084015160a08201526128e88560c086016127b2565b60c08201526128fa8560e086016127b2565b60e08201526101009150612910858386016127b2565b918101919091529392505050565b60006020828403121561292f578081fd5b5035919050565b600060208284031215612947578081fd5b5051919050565b60006020828403121561295f578081fd5b815160ff81168114612349578182fd5b60008251612981818460208701613220565b9190910192915050565b6001600160a01b0391909116815260200190565b6001600160a01b0392831681529116602082015260400190565b6001600160a01b03929092168252602082015260400190565b6001600160a01b039384168152919092166020820152604081019190915260600190565b6001600160a01b039390931683526020830191909152604082015260600190565b901515815260200190565b60208101600a8310612a3057fe5b91905290565b6000602082528251806020840152612a55816040850160208701613220565b601f01601f19169190910160400192915050565b60208082526025908201527f4c6f616e207374617475732063616e6e6f74207265636569766520636f6c6c616040820152641d195c985b60da1b606082015260800190565b60208082526025908201527f4c6f616e20737461747573206e6f742063616c63756c6174696e6720696e7465604082015264726573747360d81b606082015260800190565b6020808252601f908201527f43616c6c6572206973206e6f7420612076616c6964206465706c6f7965722100604082015260600190565b60208082526026908201527f546f6f2073686f727420706572696f64206166746572206c6f616e20616374696040820152653b30ba34b7b760d11b606082015260800190565b60208082526026908201527f4f776e61626c653a206e6577206f776e657220697320746865207a65726f206160408201526564647265737360d01b606082015260800190565b60208082526015908201527414da185c995a1bdb19195c881b9bdd08199bdd5b99605a1b604082015260600190565b6020808252601b908201527f536166654d6174683a206164646974696f6e206f766572666c6f770000000000604082015260600190565b602080825260129082015271496e636f6e677275656e742073746174757360701b604082015260600190565b602080825260159082015274131bd85b8814dd185d1d5cc81a5b98dbdc9c9958dd605a1b604082015260600190565b60208082526010908201526f496e636f72726563742073746174757360801b604082015260600190565b6020808252601c908201527f41646472657373206973206e6f742061207368617265686f6c64657200000000604082015260600190565b6020808252602e9082015260008051602061326983398151915260408201526d63616e63656c20616374696f6e7360901b606082015260800190565b6020808252601390820152721059191c995cdcc81b9bdd08185b1b1bddd959606a1b604082015260600190565b60208082526023908201527f4e6f7420656e6f75676820746f6b656e73206f6e206c656e6465722062616c616040820152626e636560e81b606082015260800190565b60208082526019908201527f436865636b2074686520746f6b656e20616c6c6f77616e636500000000000000604082015260600190565b6020808252602f9082015260008051602061326983398151915260408201526e636c6f73696e6720616374696f6e7360881b606082015260800190565b6020808252603390820152600080516020613269833981519152604082015272666f7265636c6f73696e6720616374696f6e7360681b606082015260800190565b60208082526021908201527f536166654d6174683a206d756c7469706c69636174696f6e206f766572666c6f6040820152607760f81b606082015260800190565b6020808252601a908201527f43616e63656c2072657175657374206e6f7420616c6c6f776564000000000000604082015260600190565b6020808252818101527f4f776e61626c653a2063616c6c6572206973206e6f7420746865206f776e6572604082015260600190565b6020808252602c908201527f436865636b2074686520746f6b656e20616c6c6f77616e636520746f2073657460408201526b3a3632903a3432903637b0b760a11b606082015260800190565b602080825260119082015270151bdad95b881b9bdd08185b1b1bddd959607a1b604082015260600190565b60208082526017908201527f43616c6c6572206e6f742074686520626f72726f776572000000000000000000604082015260600190565b60208082526029908201527f5368617265686f6c64657220686173206e6f7420656e6f7567682073686172656040820152681cc81d1bc81cd95b1b60ba1b606082015260800190565b60208082526018908201527f426c6f636b206e756d626572206e6f7420616c6c6f7765640000000000000000604082015260600190565b60208082526023908201527f5472616e7366657248656c7065723a204554485f5452414e534645525f46414960408201526213115160ea1b606082015260800190565b60208082526024908201527f5472616e7366657248656c7065723a205452414e534645525f46524f4d5f46416040820152631253115160e21b606082015260800190565b6020808252601f908201527f5265656e7472616e637947756172643a207265656e7472616e742063616c6c00604082015260600190565b602080825260429082015260008051602061326983398151915260408201527f7769746864726177206163637275656420696e7465726573747320616374696f6060820152616e7360f01b608082015260a00190565b90815260200190565b918252602082015260400190565b988952602089019790975260408801959095526060870193909352608086019190915260a08501526001600160a01b0390811660c085015290811660e0840152166101008201526101200190565b968752602087019590955260408601939093526060850191909152608084015260a083015260c082015260e00190565b978852602088019690965260408701949094526060860192909252608085015260a084015260ff90811660c08401521660e08201526101000190565b60405181810167ffffffffffffffff8111828210171561321857600080fd5b604052919050565b60005b8381101561323b578181015183820152602001613223565b8381111561324a576000848401525b50505050565b6001600160a01b038116811461326557600080fd5b5056fe4c6f616e20737461747573206e6f7420636f6d70617469626c65207769746820a2646970667358221220e262cc94b22801f26fd39a7845c9c0c8f8c8a50173e4931dfe8b5cbf5e1f47f764736f6c634300060b00338be0079c531659141344cd1fd0a4f28419497f9722a3daafe3b4186f6b6457e0",
  "immutableReferences": {},
  "source": "// SPDX-License-Identifier: MIT\n\npragma solidity ^0.6.11;\npragma experimental ABIEncoderV2;\n\nimport \"@openzeppelin/contracts/math/SafeMath.sol\";\nimport \"@openzeppelin/contracts/math/Math.sol\";\nimport \"@openzeppelin/contracts/access/Ownable.sol\";\nimport \"@openzeppelin/contracts/token/ERC20/IERC20.sol\";\nimport \"@openzeppelin/contracts/utils/ReentrancyGuard.sol\";\nimport \"./IJLoanCommons.sol\";\nimport \"./IJLoanEth.sol\";\nimport \"./IJFactory.sol\";\nimport \"./TransferHelper.sol\";\n\ncontract JLoanEth is Ownable, ReentrancyGuard, IJLoanCommons {\n    using SafeMath for uint;\n\n    address public ethDeployer;\n    address payable public feesCollector;\n\n    address public borrowerAddress;\n\n    IERC20 public lentToken;\n\n    params public loanParams;\n    contractParams public commonParams;\n    Status public loanStatus;\n    feesParams public loanFees;\n    \n    uint public loanActiveBlock;\n    uint public loanInitiateForeCloseBlock;\n    uint public loanClosingBlock;\n    uint public loanClosedBlock;\n    uint public lastDepositBlock;\n    uint public lastInterestWithdrawalBlock;\n    uint public loanForeclosingBlock;\n    uint public loanForeclosedBlock;\n\n    struct ShareHolder {\n        address holder;\n        uint shares;\n        uint ownerBlockNumber;\n    }\n\n    mapping(uint => ShareHolder) public shareHolders;\n    mapping(address => bool) public shareHoldersAddress;\n    mapping(address => uint) public shareHoldersPlace;\n    uint public shareHoldersCounter;\n\n    event LoanContractDeployed(uint creationBlock, uint value, string eth);\n    event NewDeposit(uint depositAmount);\n    event EthReceived(address sender, uint value);\n    event EthWithdraw(uint blockNumber);\n    event LenderAccepted(address indexed lenderAddress, uint factoryFees, uint loanActiveBlock);\n    event InitiateForeClosure(address indexed sender, uint blockNumber);\n    event LoanAtRiskFromForeclosing(address indexed sender, uint blockNumber);\n    event LoanForeclosing(address indexed sender, uint blockNumber);\n    event LoanForeclosed(address indexed sender, uint blockNumber);\n    event LoanCancelled(address indexed sender, uint indexed loanId, uint blockNumber);\n    event NewLoanStatus(uint loanStatus);\n    event NewShareHolder(address indexed sharesSeller, address indexed newShareholder, uint indexed amount, uint blockNumber);\n    event AddShareHolderShares(address indexed sharesSeller, address indexed sharesBuyer, uint indexed amount, uint blockNumber);\n    event LoanClosingByBorrower(uint blockNumber);\n    event LoanClosed(uint blockNumber);\n    event InterestsWithdrawed(uint accruedInterests, uint blockNumber);\n\n    //// Status = 0\n    constructor(address _sender,\n                uint _id, \n                uint _pairId, \n                uint _borrowedAskAmount, \n                uint _rpbRate, \n                address _factoryAddress,\n                address _lendCrypto,\n                address payable _ethFeesCollector) public payable {  \n        require(msg.sender!=address(0), \"Sender address not allowed\");\n        ethDeployer = msg.sender;\n        require(_sender!=address(0), \"Sender address not allowed\");\n        borrowerAddress = _sender;\n        loanParams = IJFactory(_factoryAddress).getGeneralParams();\n        loanFees = IJFactory(_factoryAddress).getGeneralFees();\n        uint totalCollateralRequest = IJFactory(_factoryAddress).calcMinCollateralWithFeesAmount(_pairId, _borrowedAskAmount);\n        require(borrowerAddress.balance >= totalCollateralRequest, \"Borrower does not have enough ethers\");\n        require(msg.value >= totalCollateralRequest, \"Please send more ethers\");\n        feesCollector = _ethFeesCollector;\n        require(_rpbRate >= loanParams.minRpbRate, \"Interest too low!\");\n        commonParams.loanId = _id;\n        commonParams.rpbRate = _rpbRate;\n        commonParams.pairId = _pairId;\n        lentToken = IERC20(_lendCrypto); //DAI\n        commonParams.borrowedAskAmount = _borrowedAskAmount;\n        commonParams.collDecimals = 18; //eth decimals\n        commonParams.lendDecimals = IJFactory(_factoryAddress).getPairQuoteDecimals(_pairId); //lend token decimals\n        commonParams.initialCollateralRatio = getActualCollateralRatio();\n        commonParams.creationBlock = block.number;\n        loanStatus = Status.pending;\n        //Transfer ownership to factory address\n        transferOwnership(loanParams.factoryAddress);\n        emit LoanContractDeployed(commonParams.creationBlock, msg.value, \"eth\");\n    }\n\n    modifier onlyEthDeployer() {\n        require(msg.sender == ethDeployer, \"Caller is not a valid deployer!\");\n        _;\n    }\n\n    fallback() external payable {\n        require(loanStatus >= Status.active && loanStatus <= Status.foreClosing, \"Loan status cannot receive collateral\");\n        emit EthReceived(msg.sender, msg.value);\n    }\n\n    receive() external payable { //deposit eth\n        require(loanStatus >= Status.active && loanStatus <= Status.foreClosing, \"Loan status cannot receive collateral\");\n        emit EthReceived(msg.sender, msg.value);\n    }\n\n    //// Utility functions\n    /**\n    * @dev set common parameters in loan contract, reading them from factory\n    */\n    function setNewCommonParams() external onlyEthDeployer {\n        loanParams = IJFactory(loanParams.factoryAddress).getGeneralParams();\n    }\n\n    /**\n    * @dev set common parameters in loan contract, reading them from factory\n    */\n    function setNewFeesParams() external onlyEthDeployer {\n        loanFees = IJFactory(loanParams.factoryAddress).getGeneralFees();\n    }\n\n    /**\n    * @dev withdraw ethers from contract, every shareholder with his percentage\n    */\n    /*function withdrawEth() public nonReentrant {\n        require(loanStatus >= Status.closed, \"Loan status not compatible with foreclosing actions\" );\n        require(isShareHolder(msg.sender), \"Address requiring interest withdraw not allow\");\n        for (uint8 i = 1; i <= shareHoldersCounter; i++) {\n            address shAddress = shareHolders[i].holder;\n            uint shPlace = getShareHolderPlace(shareHolders[i].holder);\n            uint shShares = shareHolders[shPlace].shares;\n            uint withdrawAmount = address(this).balance.mul(shShares).div(100);\n            shareHolders[shPlace].shares = 0;\n            TransferHelper.safeTransferETH(shAddress, withdrawAmount);\n        }\n        emit EthWithdraw(block.number);\n    }*/\n\n    /**\n    * @dev get contract balance\n    * @return balance\n    */\n    function getContractBalance() public view returns (uint) {\n        return address(this).balance;\n    }\n\n    /**\n    * @dev get contract status\n    * @return status\n    */\n    function getLoanStatus() external view returns (uint){\n        return uint(loanStatus);\n    }\n\n    /**\n    * @dev get pair price\n    * @return price\n    */\n    function getPairPrice() public view returns (uint){\n        return IJFactory(loanParams.factoryAddress).getPairValue(commonParams.pairId);\n    }\n\n    /**\n    * @dev get pair decimals\n    * @return number of decimals\n    */\n    function getPairDecimals() public view returns (uint){\n        return IJFactory(loanParams.factoryAddress).getPairDecimals(commonParams.pairId);\n    }\n\n    /**\n    * @dev check if loan is in early settlement period\n    * @return boolean\n    */\n    function checkEarlySettledLoan() public view returns (bool) {\n        return loanStatus == Status.earlyClosing;\n    }\n\n    /**\n    * @dev get the collateral ratio of the loan (subtracting the accrued interests)\n    * @return newCollRatio collateral ratio\n    */\n    function getActualCollateralRatio() public view returns (uint newCollRatio) {\n        uint newPrice = getPairPrice();\n        uint pairDecimals = getPairDecimals();\n        uint borrAmnt = commonParams.borrowedAskAmount;\n        uint loanBalance;\n        if (loanStatus == Status.pending)\n            loanBalance = address(this).balance;\n        else\n            loanBalance = (address(this).balance).sub(getAccruedInterests());\n        if (commonParams.collDecimals >= commonParams.lendDecimals) {\n            uint diffBaseQuoteDecimals = uint(commonParams.collDecimals).sub(uint(commonParams.lendDecimals));\n            newCollRatio = loanBalance.mul(newPrice).div(borrAmnt).mul(100).div(10 ** pairDecimals).div(10 ** diffBaseQuoteDecimals);\n        } else {\n            uint diffBaseQuoteDecimals = uint(commonParams.lendDecimals).sub(uint(commonParams.collDecimals));\n            newCollRatio = loanBalance.mul(newPrice).div(borrAmnt).mul(100).div(10 ** pairDecimals).mul(10 ** diffBaseQuoteDecimals);\n        }\n        return newCollRatio;\n    }\n\n    /**\n    * @dev calc a new ratio if collateral amount has added to contract balance\n    * @param _amount collateral amount to add\n    * @return ratio new collateral ratio, percentage with no decimals\n    */\n    function calcRatioAddingCollateral(uint _amount) external view returns (uint ratio) {\n        uint bal = address(this).balance;\n        uint newBal = bal.add(_amount);\n        uint actualPrice = getPairPrice();\n        uint pairDecimals = getPairDecimals();\n        uint borrAmnt = commonParams.borrowedAskAmount;\n        if (commonParams.collDecimals >= commonParams.lendDecimals) {\n            uint diffBaseQuoteDecimals = uint(commonParams.collDecimals).sub(uint(commonParams.lendDecimals));\n            ratio = newBal.mul(actualPrice).div(borrAmnt).mul(100).div(10 ** pairDecimals).div(10 ** diffBaseQuoteDecimals);\n        } else {\n            uint diffBaseQuoteDecimals = uint(commonParams.lendDecimals).sub(uint(commonParams.collDecimals));\n            ratio = newBal.mul(actualPrice).div(borrAmnt).mul(100).div(10 ** pairDecimals).mul(10 ** diffBaseQuoteDecimals);\n        }\n        return ratio;\n    }\n\n    /**\n    * @dev calc how much collateral amount has to be added to have a ratio\n    * @param _ratio ratio to reach, percentage with no decimals (180 means 180%)\n    * @return collDiff collateral amount to add or to subtract to reach that ratio\n    */\n    function calcDiffCollAmountForRatio(uint _ratio) external view returns (uint collDiff) {\n        uint bal = address(this).balance;\n        uint actualPrice = getPairPrice();\n        uint pairDecimals = getPairDecimals();\n        uint newBal;\n        uint newRatio = _ratio;\n        uint borrAmnt = commonParams.borrowedAskAmount;\n        if (commonParams.collDecimals >= commonParams.lendDecimals) {\n            uint diffBaseQuoteDecimals = uint(commonParams.collDecimals).sub(uint(commonParams.lendDecimals));\n            newBal = borrAmnt.mul(newRatio).mul(10 ** pairDecimals).div(actualPrice).div(100).mul(10 ** diffBaseQuoteDecimals);\n        } else {\n            uint diffBaseQuoteDecimals = uint(commonParams.lendDecimals).sub(uint(commonParams.collDecimals));\n            newBal = borrAmnt.mul(newRatio).mul(10 ** pairDecimals).div(actualPrice).div(100).div(10 ** diffBaseQuoteDecimals);\n        }\n        if (newBal >= bal)\n            collDiff = newBal.sub(bal);\n        else\n            collDiff = bal.sub(newBal);\n        return collDiff;\n    }\n\n    //// Status 0 -> 1\n    /**\n    * @dev lender sends required stable coins to borrower and set the initial lender as a stakeholder (100%)\n    * @param _stableAddr, address of the stabl coin address\n    */\n    function lenderSendStableCoins(address _stableAddr) external nonReentrant {\n        require(msg.sender != address(0), \"Address not allowed\");\n        require(_stableAddr == address(lentToken), \"Token not allowed\");\n        require(lentToken.balanceOf(msg.sender) >= commonParams.borrowedAskAmount, \"Not enough tokens on lender balance\");\n        require(loanStatus == Status.pending, \"Incorrect status\");\n        uint askAmount = commonParams.borrowedAskAmount;\n        uint256 allowance = lentToken.allowance(msg.sender, address(this));\n        require(allowance >= askAmount, \"Check the token allowance\");\n        shareHoldersCounter = 1;\n        shareHolders[shareHoldersCounter] = ShareHolder({holder: msg.sender, shares: 100, ownerBlockNumber: loanActiveBlock});\n        shareHoldersAddress[msg.sender] = true;\n        shareHoldersPlace[msg.sender] = shareHoldersCounter;\n        loanStatus = Status.active;\n        loanActiveBlock = block.number;\n        lastInterestWithdrawalBlock = block.number;\n        TransferHelper.safeTransferFrom(address(lentToken), msg.sender, borrowerAddress, askAmount);\n        // move factory fees only when loan becomes active\n        uint minCollateralEth = IJFactory(loanParams.factoryAddress).calcMinCollateralAmount(commonParams.pairId, commonParams.borrowedAskAmount);\n        uint fees4Factory = IJFactory(loanParams.factoryAddress).calculateCollFeesOnActivation(minCollateralEth); // 5/1000 = 0,5%\n        TransferHelper.safeTransferETH(payable(feesCollector), fees4Factory);\n        emit LenderAccepted(msg.sender, fees4Factory, loanActiveBlock);\n    }\n\n    //// Status 1 or 2 or 3, based on collateral ratio\n    /**\n    * @dev set the status of the loan based on collateral ratio, applied only in states allowed \n    * @return loan status\n    */\n    function setLoanStatusOnCollRatio() public returns (uint){\n        if (uint(loanStatus) > 0 && uint(loanStatus) < 5) {     //not allowed if loan not active or foreclosed or in closing status or closed\n            uint newCollRatio = getActualCollateralRatio(); // (i.e. 180 means 180%)\n            if ( newCollRatio >= loanParams.foreclosingRatio ) {\n                loanStatus = Status(1);\n                loanForeclosingBlock = 0;   //reset foreclosing block\n            } else if ( newCollRatio <= loanParams.foreclosingRatio && newCollRatio >= loanParams.instantForeclosureRatio ) {\n                loanStatus = Status(2);\n            } else if ( newCollRatio < loanParams.instantForeclosureRatio ) {\n                loanStatus = Status(3);\n            }  \n        }\n        // else no change on status\n        emit NewLoanStatus(uint(loanStatus));\n        return uint(loanStatus);\n    }\n\n    //// Status 4 or 5, starting from 2 or 3, depending on collateral ratio\n    /**\n    * @dev set the loan in foreclosure state for undercollateralized loans\n    */\n    function initiateLoanForeClose() external nonReentrant {\n        uint status = setLoanStatusOnCollRatio();\n        require(status == 2 || status == 3, \"Loan status not compatible with foreclosing actions\");\n        uint reward;\n        if (status == 2) {\n            reward = (loanFees.undercollateralizedForeclosingMultiple).mul(commonParams.rpbRate);\n            setLoanForeclosing();\n        } else {\n            reward = (loanFees.atRiskForeclosedMultiple).mul(commonParams.rpbRate);\n            setLoanForeclosed();\n        }\n        uint bal = address(this).balance;\n        if (bal >= reward) {\n            uint userFees = reward.mul(loanFees.userRewardShare).div(100);\n            uint vaultFees = reward.mul(loanFees.vaultShare).div(100);\n            TransferHelper.safeTransferETH(msg.sender, userFees);\n            TransferHelper.safeTransferETH(payable(feesCollector), vaultFees);\n        } else {\n            uint userFees = bal.mul(loanFees.userRewardShare).div(100);\n            uint vaultFees = bal.sub(userFees);\n            TransferHelper.safeTransferETH(msg.sender, userFees);\n            TransferHelper.safeTransferETH(payable(feesCollector), vaultFees);\n            setLoanClosed();\n        }\n        loanInitiateForeCloseBlock = block.number;\n        emit InitiateForeClosure(msg.sender, loanInitiateForeCloseBlock);\n    }\n\n    //// Status 2 -> 4\n    /**\n    * @dev set the loan in foreclosure state for undercollateralized loans\n    */\n    function setLoanForeclosing() internal {\n        loanStatus = Status.foreClosing;\n        // get the block to calculate time to set it in foreclosed if no actions from the borrower\n        loanForeclosingBlock = block.number;\n        emit LoanForeclosing(msg.sender, block.number);\n    }\n\n    /**\n    * @dev set the loan in foreclosed state when foreclosureWindow time passed\n    */\n    function setLoanInForeclosedByTime() external nonReentrant returns (bool) {\n        require(uint(loanStatus) == 4, \"Loan Status incorrect\");\n        bool result = false;\n        if (loanForeclosingBlock != 0 && block.number >= loanForeclosingBlock.add(loanParams.foreclosureWindow)) {\n            uint reward = (loanFees.atRiskForeclosedMultiple).mul(commonParams.rpbRate);\n            uint bal = address(this).balance;\n            if (bal >= reward) {\n                uint userFees = reward.mul(loanFees.userRewardShare).div(100);\n                uint vaultFees = reward.mul(loanFees.vaultShare).div(100);\n                TransferHelper.safeTransferETH(msg.sender, userFees);\n                TransferHelper.safeTransferETH(payable(feesCollector), vaultFees);\n                setLoanForeclosed();\n            } else {\n                uint userFees = bal.mul(loanFees.userRewardShare).div(100);\n                uint vaultFees = bal.sub(userFees);\n                TransferHelper.safeTransferETH(msg.sender, userFees);\n                TransferHelper.safeTransferETH(payable(feesCollector), vaultFees);\n                setLoanClosed();\n            }\n            result = true;\n        }\n        return result;\n    }\n\n    //// Status 2 -> 5\n    /**\n    * @dev set the loan in foreclosure state for undercollateralized loans\n    */\n    function setLoanForeclosed() internal {\n        loanForeclosedBlock = block.number;\n        loanStatus = Status.foreClosed;\n        emit LoanForeclosed(msg.sender, block.number);\n    }\n\n    //// Status = 6\n    function loanEarlyClosing() internal returns (uint) {\n        require(block.number < loanActiveBlock + loanParams.earlySettlementWindow, \"Incongruent status\");\n        loanStatus = Status.earlyClosing;\n        uint balanceRequested = (loanParams.earlySettlementWindow).mul(commonParams.rpbRate);\n        return balanceRequested;\n    }\n\n    //// Status = 7\n    /**\n    * @dev settle the loan in normal closing state by borrower\n    */\n    function loanClosingByBorrower() external nonReentrant {\n        require(msg.sender == borrowerAddress, \"Caller not the borrower\");\n        uint status = setLoanStatusOnCollRatio();\n        require(status > 0 && status <= 4, \"Loan status not compatible with closing actions\");\n         // check that borrower gives back the loaned stable coin amount\n        uint256 allowance = lentToken.allowance(msg.sender, address(this));\n        require(allowance >= commonParams.borrowedAskAmount, \"Check the token allowance to settle the loan\");\n        //TransferHelper.safeTransferFrom(address(lentToken), msg.sender, address(this), commonParams.borrowedAskAmount);\n        for (uint8 i = 1; i <= shareHoldersCounter; i++) {\n            address shAddress = shareHolders[i].holder;\n            uint shPlace = getShareHolderPlace(shareHolders[i].holder);\n            uint shShares = shareHolders[shPlace].shares;\n            //shareHolders[shPlace].shares = 0;\n            //shareHoldersAddress[shareHolders[i].holder] = false;\n            TransferHelper.safeTransferFrom(address(lentToken), msg.sender, shAddress, (commonParams.borrowedAskAmount).mul(shShares).div(100));\n        }\n        uint balanceRequested;\n        if (block.number < loanActiveBlock + loanParams.earlySettlementWindow)\n            balanceRequested = loanEarlyClosing();\n        else\n            balanceRequested = getAccruedInterests();\n        uint feesAmount = 0;\n        if (loanStatus == Status.earlyClosing) \n            feesAmount = (loanFees.earlySettlementFee).mul(commonParams.rpbRate);\n        // check if there are enough collateral\n        uint bal = address(this).balance;\n        uint requestedAmount = balanceRequested.add(feesAmount);\n        if (bal >= requestedAmount) {\n            TransferHelper.safeTransferETH(payable(feesCollector), feesAmount);\n            // borrower receive back collateral\n            uint withdrawalBalance = bal.sub(requestedAmount); \n            TransferHelper.safeTransferETH(msg.sender, withdrawalBalance);\n        } else if (bal >= feesAmount) {\n            TransferHelper.safeTransferETH(payable(feesCollector), feesAmount);\n            // borrower doesnt receive any collateral, what reamins it is ditributed to lender(s) as the RPB\n        }\n        loanClosingBlock = block.number;\n        loanStatus = Status.closing;\n        emit LoanClosingByBorrower(loanClosingBlock);\n    }\n\n\n    //// Status = 8\n    /**\n    * @dev set the loan in closed state, let Shareholders to withdraw the stable coins back\n    */\n    function setLoanClosed() internal {\n        //require(uint(loanStatus) >= 6, \"Loan status not compatible with closed actions\");\n        loanClosedBlock = block.number;\n        loanStatus = Status.closed;\n        emit LoanClosed(loanClosedBlock);\n    }\n\n    //// Status = 9\n    /**\n    * @dev set the loan in cancelled state (only if pending)\n    */\n    function setLoanCancelled() external {\n        require(msg.sender == borrowerAddress, \"Cancel request not allowed\");\n        require(uint(loanStatus) == 0, \"Loan status not compatible with cancel actions\");\n        uint feeCanc = (address(this).balance).mul(loanFees.cancellationFees).div(100);\n        TransferHelper.safeTransferETH(payable(feesCollector), feeCanc);\n        uint withdrawalBalance = (address(this).balance).sub(feeCanc);\n        TransferHelper.safeTransferETH(msg.sender, withdrawalBalance);\n        loanStatus = Status.cancelled;\n        emit LoanCancelled(msg.sender, commonParams.loanId, block.number);\n    }\n\n\n    //// Calculating interests functions\n    /**\n    * @dev calculate accrued interests of the contract\n    * @return accrued interests\n    */\n    function calculatingAccruedInterests(uint _calcBlk) public view returns (uint) {\n        require(_calcBlk >= lastInterestWithdrawalBlock, \"Block number not allowed\");\n        return _calcBlk.sub(lastInterestWithdrawalBlock).mul(commonParams.rpbRate);  \n    }\n\n    /**\n    * @dev get accrued interests of the contract\n    * @return accruedInterests total accrued interests\n    */\n    function getAccruedInterests() public view returns (uint accruedInterests) {\n        require(uint(loanStatus) > 0 && uint(loanStatus) < 8, \"Loan status not calculating interests\");\n        //require(isShareHolder(msg.sender), \"Caller not allowed\");\n        uint lastEarlyBlock = loanActiveBlock.add(loanParams.earlySettlementWindow);\n        if (loanStatus == Status.earlyClosing && block.number <= lastEarlyBlock) {\n            accruedInterests = calculatingAccruedInterests(lastEarlyBlock);\n        } else {\n             if (loanClosedBlock != 0)\n                accruedInterests = calculatingAccruedInterests(Math.min(loanClosedBlock, block.number));\n            else\n                accruedInterests = calculatingAccruedInterests(block.number);\n        }\n        if ( accruedInterests > address(this).balance )\n            accruedInterests = address(this).balance;\n        return accruedInterests;\n    }\n\n    /**\n    * @dev withdraw accreud interests for all shareholders and set the status after interests withdrawal\n    * @return new status\n    */\n    function withdrawInterests() public nonReentrant returns (uint) {\n        // interests of all shareholders must be withdrawn with their shares amount\n        require(uint(loanStatus) > 0 && uint(loanStatus) < 8, \"Loan status not compatible with withdraw accrued interests actions\" );\n        uint status = uint(loanStatus);\n        uint bal = address(this).balance;\n        uint accruedTotalInterests = getAccruedInterests();\n        if (bal >= accruedTotalInterests) {\n            for (uint8 i = 1; i <= shareHoldersCounter; i++) {\n                shareholderWithdrawInterests(shareHolders[i].holder, accruedTotalInterests);\n            }\n            lastInterestWithdrawalBlock = block.number;\n            if (status <= 3)\n                status = setLoanStatusOnCollRatio();\n        } else if (bal == 0 && isShareHolder(msg.sender)) {\n            setLoanClosed();\n        } else {\n            for (uint8 i = 1; i <= shareHoldersCounter; i++) {\n                shareholderWithdrawInterests(shareHolders[i].holder, bal);\n            }\n            lastInterestWithdrawalBlock = block.number;\n            loanClosedBlock = block.number;\n            loanStatus = Status.closed;\n            status = uint(loanStatus);\n        }\n        emit InterestsWithdrawed(accruedTotalInterests, block.number);\n        return status;\n    }\n\n    //// Shareholders functions\n    /**\n    * @dev withdraw accreud interests for a shareholder\n    * @param _shareHolder shareholder address\n    */\n    function shareholderWithdrawInterests(address _shareHolder, uint _accruedTotalInterests) internal {\n        require(isShareHolder(_shareHolder), \"Address is not a shareholder\"); \n        for (uint8 i = 1; i <= shareHoldersCounter; i++) {\n            uint shPlace = getShareHolderPlace(shareHolders[i].holder);\n            uint shShares = shareHolders[shPlace].shares;\n            TransferHelper.safeTransferETH(payable(_shareHolder), _accruedTotalInterests.mul(shShares).div(100));\n        }\n    }\n\n    /**\n    * @dev check if an address is a shareholder\n    * @return boolean\n    */\n    function isShareHolder(address _holder) public view returns (bool) {\n        return shareHoldersAddress[_holder];\n    }\n\n    /**\n    * @dev get a shareholder place in shareholders array\n    * @return boolean\n    */\n    function getShareHolderPlace(address _holder) public view returns (uint) {\n        return shareHoldersPlace[_holder];\n    }\n\n    /**\n    * @dev add shareholder in shareholders arrays\n    * @param _newShareholder buyer address\n    * @param _amount amount of shares\n    * @return new status\n    */\n    function addLoanShareHolders(address _newShareholder, uint _amount) public nonReentrant returns (uint) {\n        require(isShareHolder(msg.sender), \"Address is not a shareholder\");\n        uint shPlace = getShareHolderPlace(msg.sender);\n        require(shPlace > 0, \"Shareholder not found\");\n        require(shareHolders[shPlace].shares >= _amount, \"Shareholder has not enough shares to sell\");\n        //before shares could be selled, interests of all shareholders must be withdrawn with old shares amount, in order to start with a new situation\n        require(block.number > loanActiveBlock + loanParams.earlySettlementWindow, \"Too short period after loan activation\");\n        uint interestsAmount = getAccruedInterests();\n        for (uint8 i = 1; i <= shareHoldersCounter; i++) {\n            shareholderWithdrawInterests(shareHolders[i].holder, interestsAmount);\n        }\n\n        shareHolders[shPlace].shares = shareHolders[shPlace].shares.sub(_amount);\n        if(!isShareHolder(_newShareholder)) {\n            shareHoldersCounter = shareHoldersCounter.add(1);\n            shareHolders[shareHoldersCounter] = ShareHolder({holder: _newShareholder, shares: _amount, ownerBlockNumber: block.number});\n            shareHoldersAddress[_newShareholder] = true;\n            shareHoldersPlace[_newShareholder] = shareHoldersCounter;\n        } else {\n            uint shPlaceNew = getShareHolderPlace(_newShareholder);\n            shareHolders[shPlaceNew].shares = shareHolders[shPlaceNew].shares.add(_amount);\n            shareHolders[shPlaceNew].ownerBlockNumber = block.number;\n            emit AddShareHolderShares(msg.sender, _newShareholder, _amount, block.number);\n        }\n\n        lastInterestWithdrawalBlock = block.number;\n        uint status = setLoanStatusOnCollRatio();\n        return status;\n    }\n\n}",
  "sourcePath": "C:\\Users\\saurabh\\code\\Jibrel\\defi-smartcontracts\\LoansFactoryV2\\contracts\\JLoanEth.sol",
  "compiler": {
    "name": "solc",
    "version": "0.6.11+commit.5ef660b1.Emscripten.clang"
  },
  "schemaVersion": "3.2.5",
  "updatedAt": "2020-10-13T18:16:22.790Z",
  "networkType": "ethereum",
  "devdoc": {
    "kind": "dev",
    "methods": {
      "addLoanShareHolders(address,uint256)": {
        "details": "add shareholder in shareholders arrays",
        "params": {
          "_amount": "amount of shares",
          "_newShareholder": "buyer address"
        },
        "returns": {
          "_0": "new status"
        }
      },
      "calcDiffCollAmountForRatio(uint256)": {
        "details": "calc how much collateral amount has to be added to have a ratio",
        "params": {
          "_ratio": "ratio to reach, percentage with no decimals (180 means 180%)"
        },
        "returns": {
          "collDiff": "collateral amount to add or to subtract to reach that ratio"
        }
      },
      "calcRatioAddingCollateral(uint256)": {
        "details": "calc a new ratio if collateral amount has added to contract balance",
        "params": {
          "_amount": "collateral amount to add"
        },
        "returns": {
          "ratio": "new collateral ratio, percentage with no decimals"
        }
      },
      "calculatingAccruedInterests(uint256)": {
        "details": "calculate accrued interests of the contract",
        "returns": {
          "_0": "accrued interests"
        }
      },
      "checkEarlySettledLoan()": {
        "details": "check if loan is in early settlement period",
        "returns": {
          "_0": "boolean"
        }
      },
      "getAccruedInterests()": {
        "details": "get accrued interests of the contract",
        "returns": {
          "accruedInterests": "total accrued interests"
        }
      },
      "getActualCollateralRatio()": {
        "details": "get the collateral ratio of the loan (subtracting the accrued interests)",
        "returns": {
          "newCollRatio": "collateral ratio"
        }
      },
      "getContractBalance()": {
        "details": "get contract balance",
        "returns": {
          "_0": "balance"
        }
      },
      "getLoanStatus()": {
        "details": "get contract status",
        "returns": {
          "_0": "status"
        }
      },
      "getPairDecimals()": {
        "details": "get pair decimals",
        "returns": {
          "_0": "number of decimals"
        }
      },
      "getPairPrice()": {
        "details": "get pair price",
        "returns": {
          "_0": "price"
        }
      },
      "getShareHolderPlace(address)": {
        "details": "get a shareholder place in shareholders array",
        "returns": {
          "_0": "boolean"
        }
      },
      "initiateLoanForeClose()": {
        "details": "set the loan in foreclosure state for undercollateralized loans"
      },
      "isShareHolder(address)": {
        "details": "check if an address is a shareholder",
        "returns": {
          "_0": "boolean"
        }
      },
      "lenderSendStableCoins(address)": {
        "details": "lender sends required stable coins to borrower and set the initial lender as a stakeholder (100%)",
        "params": {
          "_stableAddr": ", address of the stabl coin address"
        }
      },
      "loanClosingByBorrower()": {
        "details": "settle the loan in normal closing state by borrower"
      },
      "owner()": {
        "details": "Returns the address of the current owner."
      },
      "renounceOwnership()": {
        "details": "Leaves the contract without owner. It will not be possible to call `onlyOwner` functions anymore. Can only be called by the current owner. NOTE: Renouncing ownership will leave the contract without an owner, thereby removing any functionality that is only available to the owner."
      },
      "setLoanCancelled()": {
        "details": "set the loan in cancelled state (only if pending)"
      },
      "setLoanInForeclosedByTime()": {
        "details": "set the loan in foreclosed state when foreclosureWindow time passed"
      },
      "setLoanStatusOnCollRatio()": {
        "details": "set the status of the loan based on collateral ratio, applied only in states allowed ",
        "returns": {
          "_0": "loan status"
        }
      },
      "setNewCommonParams()": {
        "details": "set common parameters in loan contract, reading them from factory"
      },
      "setNewFeesParams()": {
        "details": "set common parameters in loan contract, reading them from factory"
      },
      "transferOwnership(address)": {
        "details": "Transfers ownership of the contract to a new account (`newOwner`). Can only be called by the current owner."
      },
      "withdrawInterests()": {
        "details": "withdraw accreud interests for all shareholders and set the status after interests withdrawal",
        "returns": {
          "_0": "new status"
        }
      }
    },
    "version": 1
  },
  "userdoc": {
    "kind": "user",
    "methods": {},
    "version": 1
  }
}