{
  "contractName": "JLoanToken",
  "abi": [
    {
      "inputs": [
        {
          "internalType": "address",
          "name": "_sender",
          "type": "address"
        },
        {
          "internalType": "uint256",
          "name": "_id",
          "type": "uint256"
        },
        {
          "internalType": "uint256",
          "name": "_pairId",
          "type": "uint256"
        },
        {
          "internalType": "uint256",
          "name": "_borrowedAskAmount",
          "type": "uint256"
        },
        {
          "internalType": "uint256",
          "name": "_rpbRate",
          "type": "uint256"
        },
        {
          "internalType": "address",
          "name": "_factoryAddress",
          "type": "address"
        },
        {
          "internalType": "address",
          "name": "_collToken",
          "type": "address"
        },
        {
          "internalType": "address",
          "name": "_lendToken",
          "type": "address"
        },
        {
          "internalType": "address",
          "name": "_tokenFeesCollector",
          "type": "address"
        }
      ],
      "stateMutability": "nonpayable",
      "type": "constructor"
    },
    {
      "anonymous": false,
      "inputs": [
        {
          "indexed": true,
          "internalType": "address",
          "name": "sharesSeller",
          "type": "address"
        },
        {
          "indexed": true,
          "internalType": "address",
          "name": "sharesBuyer",
          "type": "address"
        },
        {
          "indexed": true,
          "internalType": "uint256",
          "name": "amount",
          "type": "uint256"
        },
        {
          "indexed": false,
          "internalType": "uint256",
          "name": "blockNumber",
          "type": "uint256"
        }
      ],
      "name": "AddShareHolderShares",
      "type": "event"
    },
    {
      "anonymous": false,
      "inputs": [
        {
          "indexed": true,
          "internalType": "address",
          "name": "sender",
          "type": "address"
        },
        {
          "indexed": false,
          "internalType": "uint256",
          "name": "blockNumber",
          "type": "uint256"
        }
      ],
      "name": "InitiateForeClosure",
      "type": "event"
    },
    {
      "anonymous": false,
      "inputs": [
        {
          "indexed": false,
          "internalType": "uint256",
          "name": "blockNumber",
          "type": "uint256"
        }
      ],
      "name": "InterestsWithdrawed",
      "type": "event"
    },
    {
      "anonymous": false,
      "inputs": [
        {
          "indexed": true,
          "internalType": "address",
          "name": "lenderAddress",
          "type": "address"
        },
        {
          "indexed": false,
          "internalType": "uint256",
          "name": "factoryFees",
          "type": "uint256"
        },
        {
          "indexed": false,
          "internalType": "uint256",
          "name": "loanActiveBlock",
          "type": "uint256"
        }
      ],
      "name": "LenderAccepted",
      "type": "event"
    },
    {
      "anonymous": false,
      "inputs": [
        {
          "indexed": true,
          "internalType": "address",
          "name": "sender",
          "type": "address"
        },
        {
          "indexed": false,
          "internalType": "uint256",
          "name": "blockNumber",
          "type": "uint256"
        }
      ],
      "name": "LoanAtRiskFromForeclosing",
      "type": "event"
    },
    {
      "anonymous": false,
      "inputs": [
        {
          "indexed": true,
          "internalType": "address",
          "name": "sender",
          "type": "address"
        },
        {
          "indexed": true,
          "internalType": "uint256",
          "name": "loanId",
          "type": "uint256"
        },
        {
          "indexed": false,
          "internalType": "uint256",
          "name": "blockNumber",
          "type": "uint256"
        }
      ],
      "name": "LoanCancelled",
      "type": "event"
    },
    {
      "anonymous": false,
      "inputs": [
        {
          "indexed": false,
          "internalType": "uint256",
          "name": "blockNumber",
          "type": "uint256"
        }
      ],
      "name": "LoanClosed",
      "type": "event"
    },
    {
      "anonymous": false,
      "inputs": [
        {
          "indexed": false,
          "internalType": "uint256",
          "name": "blockNumber",
          "type": "uint256"
        }
      ],
      "name": "LoanClosingByBorrower",
      "type": "event"
    },
    {
      "anonymous": false,
      "inputs": [
        {
          "indexed": false,
          "internalType": "uint256",
          "name": "creationBlock",
          "type": "uint256"
        },
        {
          "indexed": false,
          "internalType": "uint256",
          "name": "value",
          "type": "uint256"
        },
        {
          "indexed": false,
          "internalType": "address",
          "name": "token",
          "type": "address"
        }
      ],
      "name": "LoanContractDeployed",
      "type": "event"
    },
    {
      "anonymous": false,
      "inputs": [
        {
          "indexed": true,
          "internalType": "address",
          "name": "sender",
          "type": "address"
        },
        {
          "indexed": false,
          "internalType": "uint256",
          "name": "blockNumber",
          "type": "uint256"
        }
      ],
      "name": "LoanForeclosed",
      "type": "event"
    },
    {
      "anonymous": false,
      "inputs": [
        {
          "indexed": true,
          "internalType": "address",
          "name": "sender",
          "type": "address"
        },
        {
          "indexed": false,
          "internalType": "uint256",
          "name": "blockNumber",
          "type": "uint256"
        }
      ],
      "name": "LoanForeclosing",
      "type": "event"
    },
    {
      "anonymous": false,
      "inputs": [
        {
          "indexed": false,
          "internalType": "uint256",
          "name": "depositAmount",
          "type": "uint256"
        },
        {
          "indexed": false,
          "internalType": "uint256",
          "name": "status",
          "type": "uint256"
        }
      ],
      "name": "NewDeposit",
      "type": "event"
    },
    {
      "anonymous": false,
      "inputs": [
        {
          "indexed": false,
          "internalType": "uint256",
          "name": "loanStatus",
          "type": "uint256"
        }
      ],
      "name": "NewLoanStatus",
      "type": "event"
    },
    {
      "anonymous": false,
      "inputs": [
        {
          "indexed": true,
          "internalType": "address",
          "name": "sharesSeller",
          "type": "address"
        },
        {
          "indexed": true,
          "internalType": "address",
          "name": "newShareholder",
          "type": "address"
        },
        {
          "indexed": true,
          "internalType": "uint256",
          "name": "amount",
          "type": "uint256"
        },
        {
          "indexed": false,
          "internalType": "uint256",
          "name": "blockNumber",
          "type": "uint256"
        }
      ],
      "name": "NewShareHolder",
      "type": "event"
    },
    {
      "anonymous": false,
      "inputs": [
        {
          "indexed": true,
          "internalType": "address",
          "name": "previousOwner",
          "type": "address"
        },
        {
          "indexed": true,
          "internalType": "address",
          "name": "newOwner",
          "type": "address"
        }
      ],
      "name": "OwnershipTransferred",
      "type": "event"
    },
    {
      "anonymous": false,
      "inputs": [
        {
          "indexed": false,
          "internalType": "address",
          "name": "sender",
          "type": "address"
        },
        {
          "indexed": false,
          "internalType": "uint256",
          "name": "value",
          "type": "uint256"
        }
      ],
      "name": "TokenReceived",
      "type": "event"
    },
    {
      "anonymous": false,
      "inputs": [
        {
          "indexed": false,
          "internalType": "uint256",
          "name": "blockNumber",
          "type": "uint256"
        }
      ],
      "name": "TokenWithdraw",
      "type": "event"
    },
    {
      "inputs": [],
      "name": "borrowerAddress",
      "outputs": [
        {
          "internalType": "address",
          "name": "",
          "type": "address"
        }
      ],
      "stateMutability": "view",
      "type": "function"
    },
    {
      "inputs": [],
      "name": "collateralToken",
      "outputs": [
        {
          "internalType": "contract IERC20",
          "name": "",
          "type": "address"
        }
      ],
      "stateMutability": "view",
      "type": "function"
    },
    {
      "inputs": [],
      "name": "commonParams",
      "outputs": [
        {
          "internalType": "uint256",
          "name": "loanId",
          "type": "uint256"
        },
        {
          "internalType": "uint256",
          "name": "rpbRate",
          "type": "uint256"
        },
        {
          "internalType": "uint256",
          "name": "initialCollateralRatio",
          "type": "uint256"
        },
        {
          "internalType": "uint256",
          "name": "creationBlock",
          "type": "uint256"
        },
        {
          "internalType": "uint256",
          "name": "pairId",
          "type": "uint256"
        },
        {
          "internalType": "uint256",
          "name": "borrowedAskAmount",
          "type": "uint256"
        },
        {
          "internalType": "uint8",
          "name": "collDecimals",
          "type": "uint8"
        },
        {
          "internalType": "uint8",
          "name": "lendDecimals",
          "type": "uint8"
        }
      ],
      "stateMutability": "view",
      "type": "function"
    },
    {
      "inputs": [],
      "name": "feesCollector",
      "outputs": [
        {
          "internalType": "address",
          "name": "",
          "type": "address"
        }
      ],
      "stateMutability": "view",
      "type": "function"
    },
    {
      "inputs": [],
      "name": "lastDepositBlock",
      "outputs": [
        {
          "internalType": "uint256",
          "name": "",
          "type": "uint256"
        }
      ],
      "stateMutability": "view",
      "type": "function"
    },
    {
      "inputs": [],
      "name": "lastInterestWithdrawalBlock",
      "outputs": [
        {
          "internalType": "uint256",
          "name": "",
          "type": "uint256"
        }
      ],
      "stateMutability": "view",
      "type": "function"
    },
    {
      "inputs": [],
      "name": "lentToken",
      "outputs": [
        {
          "internalType": "contract IERC20",
          "name": "",
          "type": "address"
        }
      ],
      "stateMutability": "view",
      "type": "function"
    },
    {
      "inputs": [],
      "name": "loanActiveBlock",
      "outputs": [
        {
          "internalType": "uint256",
          "name": "",
          "type": "uint256"
        }
      ],
      "stateMutability": "view",
      "type": "function"
    },
    {
      "inputs": [],
      "name": "loanClosedBlock",
      "outputs": [
        {
          "internalType": "uint256",
          "name": "",
          "type": "uint256"
        }
      ],
      "stateMutability": "view",
      "type": "function"
    },
    {
      "inputs": [],
      "name": "loanClosingBlock",
      "outputs": [
        {
          "internalType": "uint256",
          "name": "",
          "type": "uint256"
        }
      ],
      "stateMutability": "view",
      "type": "function"
    },
    {
      "inputs": [],
      "name": "loanFees",
      "outputs": [
        {
          "internalType": "uint256",
          "name": "factoryFees",
          "type": "uint256"
        },
        {
          "internalType": "uint256",
          "name": "earlySettlementFee",
          "type": "uint256"
        },
        {
          "internalType": "uint256",
          "name": "userRewardShare",
          "type": "uint256"
        },
        {
          "internalType": "uint256",
          "name": "vaultShare",
          "type": "uint256"
        },
        {
          "internalType": "uint256",
          "name": "undercollateralizedForeclosingMultiple",
          "type": "uint256"
        },
        {
          "internalType": "uint256",
          "name": "atRiskForeclosedMultiple",
          "type": "uint256"
        },
        {
          "internalType": "uint256",
          "name": "cancellationFees",
          "type": "uint256"
        }
      ],
      "stateMutability": "view",
      "type": "function"
    },
    {
      "inputs": [],
      "name": "loanForeclosedBlock",
      "outputs": [
        {
          "internalType": "uint256",
          "name": "",
          "type": "uint256"
        }
      ],
      "stateMutability": "view",
      "type": "function"
    },
    {
      "inputs": [],
      "name": "loanForeclosingBlock",
      "outputs": [
        {
          "internalType": "uint256",
          "name": "",
          "type": "uint256"
        }
      ],
      "stateMutability": "view",
      "type": "function"
    },
    {
      "inputs": [],
      "name": "loanInitiateForeCloseBlock",
      "outputs": [
        {
          "internalType": "uint256",
          "name": "",
          "type": "uint256"
        }
      ],
      "stateMutability": "view",
      "type": "function"
    },
    {
      "inputs": [],
      "name": "loanParams",
      "outputs": [
        {
          "internalType": "uint256",
          "name": "minRpbRate",
          "type": "uint256"
        },
        {
          "internalType": "uint256",
          "name": "earlySettlementWindow",
          "type": "uint256"
        },
        {
          "internalType": "uint256",
          "name": "foreclosureWindow",
          "type": "uint256"
        },
        {
          "internalType": "uint256",
          "name": "requiredCollateralRatio",
          "type": "uint256"
        },
        {
          "internalType": "uint256",
          "name": "foreclosingRatio",
          "type": "uint256"
        },
        {
          "internalType": "uint256",
          "name": "instantForeclosureRatio",
          "type": "uint256"
        },
        {
          "internalType": "address",
          "name": "factoryAddress",
          "type": "address"
        },
        {
          "internalType": "address",
          "name": "ethDeployerAddress",
          "type": "address"
        },
        {
          "internalType": "address",
          "name": "tokenDeployerAddress",
          "type": "address"
        }
      ],
      "stateMutability": "view",
      "type": "function"
    },
    {
      "inputs": [],
      "name": "loanStatus",
      "outputs": [
        {
          "internalType": "enum IJLoanCommons.Status",
          "name": "",
          "type": "uint8"
        }
      ],
      "stateMutability": "view",
      "type": "function"
    },
    {
      "inputs": [],
      "name": "owner",
      "outputs": [
        {
          "internalType": "address",
          "name": "",
          "type": "address"
        }
      ],
      "stateMutability": "view",
      "type": "function"
    },
    {
      "inputs": [],
      "name": "renounceOwnership",
      "outputs": [],
      "stateMutability": "nonpayable",
      "type": "function"
    },
    {
      "inputs": [
        {
          "internalType": "uint256",
          "name": "",
          "type": "uint256"
        }
      ],
      "name": "shareHolders",
      "outputs": [
        {
          "internalType": "address",
          "name": "holder",
          "type": "address"
        },
        {
          "internalType": "uint256",
          "name": "shares",
          "type": "uint256"
        },
        {
          "internalType": "uint256",
          "name": "ownerBlockNumber",
          "type": "uint256"
        }
      ],
      "stateMutability": "view",
      "type": "function"
    },
    {
      "inputs": [
        {
          "internalType": "address",
          "name": "",
          "type": "address"
        }
      ],
      "name": "shareHoldersAddress",
      "outputs": [
        {
          "internalType": "bool",
          "name": "",
          "type": "bool"
        }
      ],
      "stateMutability": "view",
      "type": "function"
    },
    {
      "inputs": [],
      "name": "shareHoldersCounter",
      "outputs": [
        {
          "internalType": "uint256",
          "name": "",
          "type": "uint256"
        }
      ],
      "stateMutability": "view",
      "type": "function"
    },
    {
      "inputs": [
        {
          "internalType": "address",
          "name": "",
          "type": "address"
        }
      ],
      "name": "shareHoldersPlace",
      "outputs": [
        {
          "internalType": "uint256",
          "name": "",
          "type": "uint256"
        }
      ],
      "stateMutability": "view",
      "type": "function"
    },
    {
      "inputs": [],
      "name": "tokenDeployer",
      "outputs": [
        {
          "internalType": "address",
          "name": "",
          "type": "address"
        }
      ],
      "stateMutability": "view",
      "type": "function"
    },
    {
      "inputs": [
        {
          "internalType": "address",
          "name": "newOwner",
          "type": "address"
        }
      ],
      "name": "transferOwnership",
      "outputs": [],
      "stateMutability": "nonpayable",
      "type": "function"
    },
    {
      "inputs": [],
      "name": "setNewCommonParams",
      "outputs": [],
      "stateMutability": "nonpayable",
      "type": "function"
    },
    {
      "inputs": [],
      "name": "setNewFeesParams",
      "outputs": [],
      "stateMutability": "nonpayable",
      "type": "function"
    },
    {
      "inputs": [
        {
          "internalType": "address",
          "name": "_tok",
          "type": "address"
        },
        {
          "internalType": "uint256",
          "name": "_tokAmount",
          "type": "uint256"
        }
      ],
      "name": "depositCollateral",
      "outputs": [],
      "stateMutability": "nonpayable",
      "type": "function"
    },
    {
      "inputs": [],
      "name": "getContractBalance",
      "outputs": [
        {
          "internalType": "uint256",
          "name": "",
          "type": "uint256"
        }
      ],
      "stateMutability": "view",
      "type": "function"
    },
    {
      "inputs": [],
      "name": "getLoanStatus",
      "outputs": [
        {
          "internalType": "uint256",
          "name": "",
          "type": "uint256"
        }
      ],
      "stateMutability": "view",
      "type": "function"
    },
    {
      "inputs": [],
      "name": "getPairPrice",
      "outputs": [
        {
          "internalType": "uint256",
          "name": "",
          "type": "uint256"
        }
      ],
      "stateMutability": "view",
      "type": "function"
    },
    {
      "inputs": [],
      "name": "getPairDecimals",
      "outputs": [
        {
          "internalType": "uint256",
          "name": "",
          "type": "uint256"
        }
      ],
      "stateMutability": "view",
      "type": "function"
    },
    {
      "inputs": [],
      "name": "checkLoanInEarlySettlementWindow",
      "outputs": [
        {
          "internalType": "bool",
          "name": "",
          "type": "bool"
        }
      ],
      "stateMutability": "view",
      "type": "function"
    },
    {
      "inputs": [],
      "name": "checkEarlySettledLoan",
      "outputs": [
        {
          "internalType": "bool",
          "name": "",
          "type": "bool"
        }
      ],
      "stateMutability": "view",
      "type": "function"
    },
    {
      "inputs": [],
      "name": "setInitalCollateralRatio",
      "outputs": [],
      "stateMutability": "nonpayable",
      "type": "function"
    },
    {
      "inputs": [],
      "name": "getActualCollateralRatio",
      "outputs": [
        {
          "internalType": "uint256",
          "name": "newCollRatio",
          "type": "uint256"
        }
      ],
      "stateMutability": "view",
      "type": "function"
    },
    {
      "inputs": [
        {
          "internalType": "uint256",
          "name": "_amount",
          "type": "uint256"
        }
      ],
      "name": "calcRatioAddingCollateral",
      "outputs": [
        {
          "internalType": "uint256",
          "name": "ratio",
          "type": "uint256"
        }
      ],
      "stateMutability": "view",
      "type": "function"
    },
    {
      "inputs": [
        {
          "internalType": "uint256",
          "name": "_ratio",
          "type": "uint256"
        }
      ],
      "name": "calcCollAmountForRatio",
      "outputs": [
        {
          "internalType": "uint256",
          "name": "collDiff",
          "type": "uint256"
        }
      ],
      "stateMutability": "view",
      "type": "function"
    },
    {
      "inputs": [
        {
          "internalType": "address",
          "name": "_stableAddr",
          "type": "address"
        }
      ],
      "name": "lenderSendStableCoins",
      "outputs": [],
      "stateMutability": "nonpayable",
      "type": "function"
    },
    {
      "inputs": [],
      "name": "setLoanStatusOnCollRatio",
      "outputs": [
        {
          "internalType": "uint256",
          "name": "",
          "type": "uint256"
        }
      ],
      "stateMutability": "nonpayable",
      "type": "function"
    },
    {
      "inputs": [],
      "name": "initiateLoanForeClose",
      "outputs": [],
      "stateMutability": "nonpayable",
      "type": "function"
    },
    {
      "inputs": [],
      "name": "setLoanInForeclosedByTime",
      "outputs": [
        {
          "internalType": "bool",
          "name": "",
          "type": "bool"
        }
      ],
      "stateMutability": "nonpayable",
      "type": "function"
    },
    {
      "inputs": [],
      "name": "loanClosingByBorrower",
      "outputs": [],
      "stateMutability": "nonpayable",
      "type": "function"
    },
    {
      "inputs": [],
      "name": "setLoanCancelled",
      "outputs": [],
      "stateMutability": "nonpayable",
      "type": "function"
    },
    {
      "inputs": [
        {
          "internalType": "uint256",
          "name": "_calcBlk",
          "type": "uint256"
        }
      ],
      "name": "calculatingAccruedInterests",
      "outputs": [
        {
          "internalType": "uint256",
          "name": "",
          "type": "uint256"
        }
      ],
      "stateMutability": "view",
      "type": "function"
    },
    {
      "inputs": [],
      "name": "getAccruedInterests",
      "outputs": [
        {
          "internalType": "uint256",
          "name": "accruedInterests",
          "type": "uint256"
        }
      ],
      "stateMutability": "view",
      "type": "function"
    },
    {
      "inputs": [],
      "name": "withdrawInterests",
      "outputs": [
        {
          "internalType": "uint256",
          "name": "",
          "type": "uint256"
        }
      ],
      "stateMutability": "nonpayable",
      "type": "function"
    },
    {
      "inputs": [
        {
          "internalType": "address",
          "name": "_holder",
          "type": "address"
        }
      ],
      "name": "isShareHolder",
      "outputs": [
        {
          "internalType": "bool",
          "name": "",
          "type": "bool"
        }
      ],
      "stateMutability": "view",
      "type": "function"
    },
    {
      "inputs": [
        {
          "internalType": "address",
          "name": "_holder",
          "type": "address"
        }
      ],
      "name": "getShareHolderPlace",
      "outputs": [
        {
          "internalType": "uint256",
          "name": "",
          "type": "uint256"
        }
      ],
      "stateMutability": "view",
      "type": "function"
    },
    {
      "inputs": [
        {
          "internalType": "address",
          "name": "_newShareholder",
          "type": "address"
        },
        {
          "internalType": "uint256",
          "name": "_amount",
          "type": "uint256"
        }
      ],
      "name": "addLoanShareHolders",
      "outputs": [
        {
          "internalType": "uint256",
          "name": "",
          "type": "uint256"
        }
      ],
      "stateMutability": "nonpayable",
      "type": "function"
    }
  ],
  "bytecode": "0x60806040523480156200001157600080fd5b5060405162003faa38038062003faa83398101604081905262000034916200057c565b6000620000496001600160e01b03620004a416565b600080546001600160a01b0319166001600160a01b03831690811782556040519293509160008051602062003f8a833981519152908290a3506001805533620000af5760405162461bcd60e51b8152600401620000a690620007e5565b60405180910390fd5b600280546001600160a01b031916331790556001600160a01b038916620000ea5760405162461bcd60e51b8152600401620000a6906200080a565b600480546001600160a01b03199081166001600160a01b038c8116919091178355600580548316878316179055600680548316868316179055600380549092168482161790915560408051634fd7587960e01b8152905191871692634fd7587992828201926101209290829003018186803b1580156200016957600080fd5b505afa1580156200017e573d6000803e3d6000fd5b505050506040513d601f19601f82011682018060405250810190620001a491906200067f565b805160075560208101516008556040808201516009556060820151600a556080820151600b5560a0820151600c5560c0820151600d80546001600160a01b03199081166001600160a01b039384161790915560e080850151600e8054841691851691909117905561010090940151600f80549092169083161790558151631a55d9e960e01b8152915190871692631a55d9e99260048082019391829003018186803b1580156200025357600080fd5b505afa15801562000268573d6000803e3d6000fd5b505050506040513d601f19601f820116820180604052508101906200028e919062000617565b805160185560208101516019556040810151601a556060810151601b556080810151601c5560a0810151601d5560c00151601e55600754851015620002e75760405162461bcd60e51b8152600401620000a6906200078d565b6010889055601185905560148790556015869055604051630404ea8960e21b81526001600160a01b03851690631013aa249062000329908a9060040162000836565b60206040518083038186803b1580156200034257600080fd5b505afa15801562000357573d6000803e3d6000fd5b505050506040513d601f19601f820116820180604052508101906200037d91906200071d565b6016805460ff191660ff92909216919091179055604051633e17bdcb60e11b81526001600160a01b03851690637c2f7b9690620003bf908a9060040162000836565b60206040518083038186803b158015620003d857600080fd5b505afa158015620003ed573d6000803e3d6000fd5b505050506040513d601f19601f820116820180604052508101906200041391906200071d565b6016805460ff929092166101000261ff0019909216919091179055436013556017805460ff19169055600d5462000453906001600160a01b0316620004a8565b6013546015546040517f6b6fa9d5c06988661c31cf3707bc0272b4bbd725cb6c2b92446bfc33d2e8dec1926200048d92909187906200083f565b60405180910390a150505050505050505062000885565b3390565b620004bb6001600160e01b03620004a416565b6000546001600160a01b03908116911614620004eb5760405162461bcd60e51b8152600401620000a690620007b0565b6001600160a01b038116620005145760405162461bcd60e51b8152600401620000a69062000747565b600080546040516001600160a01b038085169392169160008051602062003f8a83398151915291a3600080546001600160a01b0319166001600160a01b0392909216919091179055565b80516001600160a01b03811681146200057657600080fd5b92915050565b60008060008060008060008060006101208a8c0312156200059b578485fd5b620005a78b8b6200055e565b985060208a0151975060408a0151965060608a0151955060808a01519450620005d48b60a08c016200055e565b9350620005e58b60c08c016200055e565b9250620005f68b60e08c016200055e565b9150620006088b6101008c016200055e565b90509295985092959850929598565b600060e0828403121562000629578081fd5b6200063560e06200085e565b825181526020830151602082015260408301516040820152606083015160608201526080830151608082015260a083015160a082015260c083015160c08201528091505092915050565b600061012080838503121562000693578182fd5b6200069e816200085e565b835181526020840151602082015260408401516040820152606084015160608201526080840151608082015260a084015160a0820152620006e38560c086016200055e565b60c0820152620006f78560e086016200055e565b60e082015261010091506200070f858386016200055e565b918101919091529392505050565b6000602082840312156200072f578081fd5b815160ff8116811462000740578182fd5b9392505050565b60208082526026908201527f4f776e61626c653a206e6577206f776e657220697320746865207a65726f206160408201526564647265737360d01b606082015260800190565b602080825260099082015268525042546f6f4c6f7760b81b604082015260600190565b6020808252818101527f4f776e61626c653a2063616c6c6572206973206e6f7420746865206f776e6572604082015260600190565b6020808252600b908201526a5a65726f4164647265737360a81b604082015260600190565b6020808252601290820152715f73656e6465725a65726f4164647265737360701b604082015260600190565b90815260200190565b92835260208301919091526001600160a01b0316604082015260600190565b6040518181016001600160401b03811182821017156200087d57600080fd5b604052919050565b6136f580620008956000396000f3fe608060405234801561001057600080fd5b50600436106102bb5760003560e01c80637427a40c11610182578063b2ca1805116100e9578063d75e1bd8116100a2578063ec98362e1161007c578063ec98362e14610520578063f2fde38b14610528578063fb6222e81461053b578063ff0d69a61461054e576102bb565b8063d75e1bd8146104fd578063e1c7111a14610510578063e936e44a14610518576102bb565b8063b2ca1805146104b9578063c0b27cc5146104c1578063c2b0bf58146104c9578063c55d2a47146104d1578063d20fbeb6146104d9578063d5138948146104e1576102bb565b8063918c3dbd1161013b578063918c3dbd1461047357806395dcc2551461047b5780639cf160f61461048e578063a5d5db0c14610496578063acc1ab13146104a9578063b2016bd4146104b1576102bb565b80637427a40c146104135780637a33f63c146104355780637ba61ea51461044857806381714f0f1461045057806382f0c81c146104635780638da5cb5b1461046b576102bb565b80633ba2ee40116102265780635ced2a11116101df5780635ced2a11146103cd5780635f4975f0146103e05780636dd167f8146103f35780636f9fb98a146103fb578063715018a61461040357806372ef10311461040b576102bb565b80633ba2ee40146103875780633cf348c31461038f57806342ac33791461039757806347c865df1461039f5780634cdb79b4146103a757806356f4aee0146103ba576102bb565b806320a73ab71161027857806320a73ab714610335578063216c24901461033d57806328899423146103585780632a1f3cda146103605780632a2dae0a1461036a5780632a3d7c811461037f576102bb565b806306bb531e146102c0578063074ca966146102de57806309e94d98146102f357806318ad714a146103105780631aa118d9146103185780631daeaaa914610320575b600080fd5b6102c8610556565b6040516102d5919061357f565b60405180910390f35b6102e6610660565b6040516102d59190612fed565b6102fb610669565b6040516102d599989796959493929190613596565b6102c8610698565b6102c8610872565b610328610878565b6040516102d59190612fe2565b6102c86108af565b6103456108b5565b6040516102d597969594939291906135e4565b6103286108cd565b610368610b11565b005b610372610c33565b6040516102d59190612f56565b6102c8610c42565b610368610c48565b610328610ec8565b6102c8610ee3565b6102c8610f66565b6103286103b5366004612d88565b610f6c565b6102c86103c8366004612d88565b610f81565b6102c86103db366004612ee9565b610f9c565b6102c86103ee366004612d88565b610fee565b6102c8611000565b6102c8611006565b610368611037565b6103686110b6565b610426610421366004612ee9565b6110dd565b6040516102d593929190612fc1565b610328610443366004612d88565b611108565b610372611126565b6102c861045e366004612ee9565b611135565b6102c8611247565b6103726113de565b6103686113ed565b610368610489366004612d88565b6114ca565b61037261188d565b6103686104a4366004612da4565b61189c565b6102c8611ae1565b610372611af5565b6102c8611b04565b6102c8611b0a565b610368611b10565b6102c8611d41565b6102c8611d47565b6104e9611efc565b6040516102d5989796959493929190613614565b6102c861050b366004612da4565b611f20565b61037261220a565b6102c8612219565b6103686122a4565b610368610536366004612d88565b61263d565b6102c8610549366004612ee9565b6126f3565b6102c8612863565b601754600090819060ff16600981111561056c57fe5b11801561058a575060175460059060ff16600981111561058857fe5b105b15610601576000610599611d47565b600b5490915081106105bc576017805460ff1916600117905560006025556105ff565b600b5481118015906105d05750600c548110155b156105e7576017805460ff191660021790556105ff565b600c548110156105ff576017805460ff191660031790555b505b6017547fe096f951d62ec2072f7a4b5b750e0f9b7a55b9c4cbfa1f516b496cb58d7dff6f9060ff16600981111561063457fe5b604051610641919061357f565b60405180910390a160175460ff16600981111561065a57fe5b90505b90565b60175460ff1681565b600754600854600954600a54600b54600c54600d54600e54600f546001600160a01b0392831692918216911689565b601754600090819060ff1660098111156106ae57fe5b1180156106cc575060175460089060ff1660098111156106ca57fe5b105b6106f15760405162461bcd60e51b81526004016106e8906130b6565b60405180910390fd5b600854601f5460009161070a919063ffffffff61286916565b9050600660175460ff16600981111561071f57fe5b14801561072c5750804310155b156107415761073a81610f9c565b9150610764565b602254156107585761073a6103db60225443612895565b61076143610f9c565b91505b6005546040516370a0823160e01b81526001600160a01b03909116906370a0823190610794903090600401612f56565b60206040518083038186803b1580156107ac57600080fd5b505afa1580156107c0573d6000803e3d6000fd5b505050506040513d601f19601f820116820180604052508101906107e49190612f01565b82111561086e576005546040516370a0823160e01b81526001600160a01b03909116906370a082319061081b903090600401612f56565b60206040518083038186803b15801561083357600080fd5b505afa158015610847573d6000803e3d6000fd5b505050506040513d601f19601f8201168201806040525081019061086b9190612f01565b91505b5090565b602a5481565b600854601f5460009182916108929163ffffffff61286916565b90508043116108a557600191505061065d565b600091505061065d565b60205481565b601854601954601a54601b54601c54601d54601e5487565b6000600260015414156108f25760405162461bcd60e51b81526004016106e89061351c565b600260015560175460ff16600981111561090857fe5b6004146109275760405162461bcd60e51b81526004016106e89061320d565b6025546000901580159061094f575060095460255461094b9163ffffffff61286916565b4310155b15610b0857601154601d5460009161096d919063ffffffff6128ab16565b6005546040516370a0823160e01b81529192506000916001600160a01b03909116906370a08231906109a3903090600401612f56565b60206040518083038186803b1580156109bb57600080fd5b505afa1580156109cf573d6000803e3d6000fd5b505050506040513d601f19601f820116820180604052508101906109f39190612f01565b9050818110610a8d576000610a276064610a1b601860020154866128ab90919063ffffffff16565b9063ffffffff6128e516565b90506000610a486064610a1b601860030154876128ab90919063ffffffff16565b9050610a52612927565b600554610a69906001600160a01b03163384612975565b600554600354610a86916001600160a01b03908116911683612975565b5050610b01565b6000610aac6064610a1b601860020154856128ab90919063ffffffff16565b90506000610ac0838363ffffffff612a6316565b9050610aca612aa5565b600554610ae1906001600160a01b03163384612975565b600554600354610afe916001600160a01b03908116911683612975565b50505b6001925050505b90506001805590565b6002546001600160a01b03163314610b3b5760405162461bcd60e51b81526004016106e8906132d0565b600d5460408051634fd7587960e01b815290516001600160a01b0390921691634fd758799160048082019261012092909190829003018186803b158015610b8157600080fd5b505afa158015610b95573d6000803e3d6000fd5b505050506040513d601f19601f82011682018060405250810190610bb99190612e54565b8051600755602081015160085560408101516009556060810151600a556080810151600b5560a0810151600c5560c0810151600d80546001600160a01b03199081166001600160a01b039384161790915560e0830151600e8054831691841691909117905561010090920151600f80549093169116179055565b6002546001600160a01b031681565b60235481565b60026001541415610c6b5760405162461bcd60e51b81526004016106e89061351c565b60026001556000610c7a610556565b90508060021480610c8b5750806003145b610ca75760405162461bcd60e51b81526004016106e89061316d565b60008160021415610cd657601154601c54610cc79163ffffffff6128ab16565b9050610cd1612af0565b610cf5565b601154601d54610ceb9163ffffffff6128ab16565b9050610cf5612927565b6005546040516370a0823160e01b81526000916001600160a01b0316906370a0823190610d26903090600401612f56565b60206040518083038186803b158015610d3e57600080fd5b505afa158015610d52573d6000803e3d6000fd5b505050506040513d601f19601f82011682018060405250810190610d769190612f01565b436020559050818110610e08576000610da26064610a1b601860020154866128ab90919063ffffffff16565b90506000610dc36064610a1b601860030154876128ab90919063ffffffff16565b9050610dcd612927565b600554610de4906001600160a01b03163384612975565b600554600354610e01916001600160a01b03908116911683612975565b5050610e7c565b6000610e276064610a1b601860020154856128ab90919063ffffffff16565b90506000610e3b838363ffffffff612a6316565b9050610e45612aa5565b600554610e5c906001600160a01b03163384612975565b600554600354610e79916001600160a01b03908116911683612975565b50505b336001600160a01b03167f9c216942fb53599e3610164be0d173eb8b00a4613afdb41d524f00091a819abc602054604051610eb7919061357f565b60405180910390a250506001805550565b6000600660175460ff166009811115610edd57fe5b14905090565b600d54601454604051631334f8cd60e11b81526000926001600160a01b031691632669f19a91610f16919060040161357f565b60206040518083038186803b158015610f2e57600080fd5b505afa158015610f42573d6000803e3d6000fd5b505050506040513d601f19601f8201168201806040525081019061065a9190612f01565b60245481565b60286020526000908152604090205460ff1681565b6001600160a01b031660009081526029602052604090205490565b6000602454821015610fc05760405162461bcd60e51b81526004016106e89061349d565b601154602454610fe89190610fdc90859063ffffffff612a6316565b9063ffffffff6128ab16565b92915050565b60296020526000908152604090205481565b60215481565b6005546040516370a0823160e01b81526000916001600160a01b0316906370a0823190610f16903090600401612f56565b61103f612b34565b6000546001600160a01b0390811691161461106c5760405162461bcd60e51b81526004016106e8906133b5565b600080546040516001600160a01b03909116907f8be0079c531659141344cd1fd0a4f28419497f9722a3daafe3b4186f6b6457e0908390a3600080546001600160a01b0319169055565b600060175460ff1660098111156110c957fe5b14156110db576110d7611d47565b6012555b565b6027602052600090815260409020805460018201546002909201546001600160a01b03909116919083565b6001600160a01b031660009081526028602052604090205460ff1690565b6004546001600160a01b031681565b60004781611141610ee3565b9050600061114d612219565b60155460165491925060009187919060ff610100820481169116106111c15760165460009061118d9060ff8082169161010090041663ffffffff612a6316565b90506111b981600a0a610fdc6064610a1b8a610a1b8b600a0a610fdc8b8b6128ab90919063ffffffff16565b93505061120b565b6016546000906111db9060ff610100820481169116612a63565b905061120781600a0a610a1b6064610a1b8a610a1b8b600a0a610fdc8b8b6128ab90919063ffffffff16565b9350505b85831061122957611222838763ffffffff612a6316565b965061123c565b611239868463ffffffff612a6316565b96505b505050505050919050565b60006002600154141561126c5760405162461bcd60e51b81526004016106e89061351c565b600260015560175460009060ff16600981111561128557fe5b1180156112a3575060175460089060ff1660098111156112a157fe5b105b6112bf5760405162461bcd60e51b81526004016106e8906133ea565b60175460009060ff1660098111156112d357fe5b90504760006112e0610698565b90508082106113435760015b602a548160ff16116113265760ff811660009081526027602052604090205461131e906001600160a01b031683612b38565b6001016112ec565b50436024556003831161133e5761133b610556565b92505b61139c565b816113505761133e612aa5565b60015b602a548160ff161161138d5760ff8116600090815260276020526040902054611385906001600160a01b031684612b38565b600101611353565b50436024819055602255600892505b7ff33d854b742e78ac685b76a9d8ba08da4c16f567a3d4464742ccfb706c1f08bb436040516113cb919061357f565b60405180910390a1505060018055919050565b6000546001600160a01b031690565b6002546001600160a01b031633146114175760405162461bcd60e51b81526004016106e8906132d0565b600d5460408051631a55d9e960e01b815290516001600160a01b0390921691631a55d9e99160048082019260e092909190829003018186803b15801561145c57600080fd5b505afa158015611470573d6000803e3d6000fd5b505050506040513d601f19601f820116820180604052508101906114949190612def565b805160185560208101516019556040810151601a556060810151601b556080810151601c5560a0810151601d5560c00151601e55565b600260015414156114ed5760405162461bcd60e51b81526004016106e89061351c565b60026001553361150f5760405162461bcd60e51b81526004016106e890613431565b6006546001600160a01b0382811691161461153c5760405162461bcd60e51b81526004016106e8906134d4565b600060175460ff16600981111561154f57fe5b1461156c5760405162461bcd60e51b81526004016106e8906130fb565b601554604051636eb1769f60e11b81526000906001600160a01b0384169063dd62ed3e906115a09033903090600401612f6a565b60206040518083038186803b1580156115b857600080fd5b505afa1580156115cc573d6000803e3d6000fd5b505050506040513d601f19601f820116820180604052508101906115f09190612f01565b9050818110156116125760405162461bcd60e51b81526004016106e89061340d565b43601f55601780546001919060ff1916828002179055506001602a818155604080516060810182523380825260646020808401918252601f5484860190815260008881526027835294517fb6915e519d5f9dd23c62986e48578ddfa8cde5c92608222904fd87ad04df4ffd80546001600160a01b0319166001600160a01b0392831617905592517fb6915e519d5f9dd23c62986e48578ddfa8cde5c92608222904fd87ad04df4ffe55517fb6915e519d5f9dd23c62986e48578ddfa8cde5c92608222904fd87ad04df4fff5591835260288252838320805460ff1916909617909555925460299093528181209290925543602455600d54601454601554925163c175771b60e01b81529394919091169263c175771b926117359291600401613588565b60206040518083038186803b15801561174d57600080fd5b505afa158015611761573d6000803e3d6000fd5b505050506040513d601f19601f820116820180604052508101906117859190612f01565b600d54604051632976f2fb60e11b81529192506000916001600160a01b03909116906352ede5f6906117bb90859060040161357f565b60206040518083038186803b1580156117d357600080fd5b505afa1580156117e7573d6000803e3d6000fd5b505050506040513d601f19601f8201168201806040525081019061180b9190612f01565b60045490915061182890869033906001600160a01b031687612be1565b600554600354611845916001600160a01b03908116911683612975565b601f5460405133917f8da312eaac37817e0ccf8bd45912080260bec10b5dac7e4ab7a438e96a6059219161187a918591613588565b60405180910390a2505060018055505050565b6003546001600160a01b031681565b600260015414156118bf5760405162461bcd60e51b81526004016106e89061351c565b6002600190815560175460ff1660098111156118d757fe5b101580156118f65750600460175460ff1660098111156118f357fe5b11155b6119125760405162461bcd60e51b81526004016106e89061331a565b6005546001600160a01b0383811691161461193f5760405162461bcd60e51b81526004016106e89061305b565b6005546040516370a0823160e01b815282916001600160a01b0316906370a082319061196f903390600401612f56565b60206040518083038186803b15801561198757600080fd5b505afa15801561199b573d6000803e3d6000fd5b505050506040513d601f19601f820116820180604052508101906119bf9190612f01565b10156119dd5760405162461bcd60e51b81526004016106e890613034565b600554604051636eb1769f60e11b81526000916001600160a01b03169063dd62ed3e90611a109033903090600401612f6a565b60206040518083038186803b158015611a2857600080fd5b505afa158015611a3c573d6000803e3d6000fd5b505050506040513d601f19601f82011682018060405250810190611a609190612f01565b905081811015611a825760405162461bcd60e51b81526004016106e89061340d565b43602355611a9283333085612be1565b6000611a9c610556565b90507f078c599f5cd71dc8637a680b058c73d883fa16e7282ff35ed71f6584560d30698382604051611acf929190613588565b60405180910390a15050600180555050565b60175460009060ff16600981111561065a57fe5b6005546001600160a01b031681565b601f5481565b60255481565b60026001541415611b335760405162461bcd60e51b81526004016106e89061351c565b60026001556004546001600160a01b03163314611b625760405162461bcd60e51b81526004016106e89061337e565b60175460ff166009811115611b7357fe5b15611b905760405162461bcd60e51b81526004016106e890613282565b601e546005546040516370a0823160e01b8152600092611c2092606492610a1b92916001600160a01b0316906370a0823190611bd0903090600401612f56565b60206040518083038186803b158015611be857600080fd5b505afa158015611bfc573d6000803e3d6000fd5b505050506040513d601f19601f82011682018060405250810190610fdc9190612f01565b6005546040516370a0823160e01b8152919250600091611cb89184916001600160a01b03909116906370a0823190611c5c903090600401612f56565b60206040518083038186803b158015611c7457600080fd5b505afa158015611c88573d6000803e3d6000fd5b505050506040513d601f19601f82011682018060405250810190611cac9190612f01565b9063ffffffff612a6316565b6017805460ff19166009179055600554600354919250611ce5916001600160a01b03918216911684612975565b600554611cfc906001600160a01b03163383612975565b60105460405133907f976729a22a1f27f055a6f0ffa92bd9d2944c972f1d0e25d1b3517bfa523cf49890611d3190439061357f565b60405180910390a3505060018055565b60225481565b600080611d52610ee3565b90506000611d5e612219565b60155490915060008060175460ff166009811115611d7857fe5b1415611e05576005546040516370a0823160e01b81526001600160a01b03909116906370a0823190611dae903090600401612f56565b60206040518083038186803b158015611dc657600080fd5b505afa158015611dda573d6000803e3d6000fd5b505050506040513d601f19601f82011682018060405250810190611dfe9190612f01565b9050611e43565b611e40611e10610698565b6005546040516370a0823160e01b81526001600160a01b03909116906370a0823190611c5c903090600401612f56565b90505b60165460ff61010082048116911610611eab57601654600090611e779060ff8082169161010090041663ffffffff612a6316565b9050611ea381600a0a610a1b86600a0a610a1b6064610fdc89610a1b8d8b6128ab90919063ffffffff16565b955050611ef5565b601654600090611ec59060ff610100820481169116612a63565b9050611ef181600a0a610fdc86600a0a610a1b6064610fdc89610a1b8d8b6128ab90919063ffffffff16565b9550505b5050505090565b60105460115460125460135460145460155460165460ff8082169161010090041688565b600060026001541415611f455760405162461bcd60e51b81526004016106e89061351c565b6002600155611f5333611108565b611f6f5760405162461bcd60e51b81526004016106e890613147565b6000611f7a33610f81565b905060008111611f9c5760405162461bcd60e51b81526004016106e89061347b565b600081815260276020526040902060010154831115611fcd5760405162461bcd60e51b81526004016106e8906132f3565b600854601f54014311611ff25760405162461bcd60e51b81526004016106e890613456565b6000611ffc610698565b905060015b602a548160ff161161203b5760ff8116600090815260276020526040902054612033906001600160a01b031683612b38565b600101612001565b5060008281526027602052604090206001015461205e908563ffffffff612a6316565b60008381526027602052604090206001015561207985611108565b61215757602a5461209190600163ffffffff61286916565b602a818155604080516060810182526001600160a01b0389811680835260208084018b8152438587018181526000998a5260278452878a20965187546001600160a01b03191696169590951786559051600180870191909155935160029095019490945581875260288152848720805460ff191690931790925593546029909152938290209390935551869233917fed7ee45f75e10dfcc3019d0500825dd990b1949080215ea4894d7ed780073e6f9161214a9161357f565b60405180910390a46121ee565b600061216286610f81565b600081815260276020526040902060010154909150612187908663ffffffff61286916565b6000828152602760205260409081902060018101929092554360029092018290555186916001600160a01b0389169133917fb510f1f825ef2a9b3a0fa1d56d8461062ee721c12409714d52332b44b82e6afc916121e4919061357f565b60405180910390a4505b4360245560006121fc610556565b600180559695505050505050565b6006546001600160a01b031681565b600d54601454604051632bd61f0560e11b81526000926001600160a01b0316916357ac3e0a9161224c919060040161357f565b60206040518083038186803b15801561226457600080fd5b505afa158015612278573d6000803e3d6000fd5b505050506040513d601f19601f8201168201806040525081019061229c9190612f19565b60ff16905090565b600260015414156122c75760405162461bcd60e51b81526004016106e89061351c565b60026001556004546001600160a01b031633146122f65760405162461bcd60e51b81526004016106e89061323c565b60175460009060ff16600981111561230a57fe5b118015612329575060175460039060ff16600981111561232657fe5b11155b6123455760405162461bcd60e51b81526004016106e89061325f565b600654604051636eb1769f60e11b81526000916001600160a01b03169063dd62ed3e906123789033903090600401612f6a565b60206040518083038186803b15801561239057600080fd5b505afa1580156123a4573d6000803e3d6000fd5b505050506040513d601f19601f820116820180604052508101906123c89190612f01565b6015549091508110156123ed5760405162461bcd60e51b81526004016106e89061311d565b600854601f546000910143101561240d57612406612cd2565b9050612418565b612415610698565b90505b6000600660175460ff16600981111561242d57fe5b141561244b576011546019546124489163ffffffff6128ab16565b90505b6005546040516370a0823160e01b81526000916001600160a01b0316906370a082319061247c903090600401612f56565b60206040518083038186803b15801561249457600080fd5b505afa1580156124a8573d6000803e3d6000fd5b505050506040513d601f19601f820116820180604052508101906124cc9190612f01565b905060006124e0848463ffffffff61286916565b436021556017805460ff19166007179055905080821061254957600061250c838363ffffffff612a6316565b600554909150612526906001600160a01b03163383612975565b600554600354612543916001600160a01b03908116911686612975565b5061256d565b82821061256d5760055460035461256d916001600160a01b03908116911685612975565b60015b602a548160ff16116125f85760ff81166000908152602760205260408120546001600160a01b0316906125a282610f81565b60008181526027602052604090206001015460065460155492935090916125ed916001600160a01b031690339086906125e890606490610a1b908863ffffffff6128ab16565b612be1565b505050600101612570565b507fd81de7231bf1ee8484c8d4a7f114d29a312842bf7d0eb187ffec71b5b94d223060215460405161262a919061357f565b60405180910390a1505060018055505050565b612645612b34565b6000546001600160a01b039081169116146126725760405162461bcd60e51b81526004016106e8906133b5565b6001600160a01b0381166126985760405162461bcd60e51b81526004016106e890613190565b600080546040516001600160a01b03808516939216917f8be0079c531659141344cd1fd0a4f28419497f9722a3daafe3b4186f6b6457e091a3600080546001600160a01b0319166001600160a01b0392909216919091179055565b6005546040516370a0823160e01b815260009182916001600160a01b03909116906370a0823190612728903090600401612f56565b60206040518083038186803b15801561274057600080fd5b505afa158015612754573d6000803e3d6000fd5b505050506040513d601f19601f820116820180604052508101906127789190612f01565b9050600061278c828563ffffffff61286916565b90506000612798610ee3565b905060006127a4612219565b6015546016549192509060ff61010082048116911610612813576016546000906127df9060ff8082169161010090041663ffffffff612a6316565b905061280b81600a0a610a1b85600a0a610a1b6064610fdc88610a1b8c8e6128ab90919063ffffffff16565b965050612859565b60165460009061282d9060ff610100820481169116612a63565b905061123981600a0a610fdc85600a0a610a1b6064610fdc88610a1b8c8e6128ab90919063ffffffff16565b5050505050919050565b60265481565b60008282018381101561288e5760405162461bcd60e51b81526004016106e8906131d6565b9392505050565b60008183106128a4578161288e565b5090919050565b6000826128ba57506000610fe8565b828202828482816128c757fe5b041461288e5760405162461bcd60e51b81526004016106e89061333d565b600061288e83836040518060400160405280601a81526020017f536166654d6174683a206469766973696f6e206279207a65726f000000000000815250612d1a565b4360268190556017805460ff1916600517905560405133917f9501cc045c1358e5e6d1aef6f29cb9b1ffb3ea567a4795bffce3050ed74f4d1b9161296b919061357f565b60405180910390a2565b60006060846001600160a01b031663a9059cbb858560405160240161299b929190612fa8565b6040516020818303038152906040529060e01b6020820180516001600160e01b0383818316178352505050506040516129d49190612f3a565b6000604051808303816000865af19150503d8060008114612a11576040519150601f19603f3d011682016040523d82523d6000602084013e612a16565b606091505b5091509150818015612a40575080511580612a40575080806020019051810190612a409190612dcf565b612a5c5760405162461bcd60e51b81526004016106e890613553565b5050505050565b600061288e83836040518060400160405280601e81526020017f536166654d6174683a207375627472616374696f6e206f766572666c6f770000815250612d51565b4360228190556017805460ff191660081790556040517f50d3f9b87161fe68d44f1df9c50ec05198e280f710299688dccdd0dea547266c91612ae69161357f565b60405180910390a1565b6017805460ff1916600417905543602581905560405133917ff542b84b1e49b5bef195e1e1949cf1eb789fbe49c059b62a89f24af3c6f71d8f9161296b919061357f565b3390565b612b4182611108565b612b5d5760405162461bcd60e51b81526004016106e890613147565b60015b602a548160ff1611612bdc5760ff8116600090815260276020526040812054612b91906001600160a01b0316610f81565b60008181526027602052604090206001015460055491925090612bd2906001600160a01b031686612bcd6064610a1b898763ffffffff6128ab16565b612975565b5050600101612b60565b505050565b60006060856001600160a01b03166323b872dd868686604051602401612c0993929190612f84565b6040516020818303038152906040529060e01b6020820180516001600160e01b038381831617835250505050604051612c429190612f3a565b6000604051808303816000865af19150503d8060008114612c7f576040519150601f19603f3d011682016040523d82523d6000602084013e612c84565b606091505b5091509150818015612cae575080511580612cae575080806020019051810190612cae9190612dcf565b612cca5760405162461bcd60e51b81526004016106e89061307f565b505050505050565b600854601f54600091014310612cfa5760405162461bcd60e51b81526004016106e8906134f6565b6017805460ff1916600617905560115460085460009161086b91906128ab565b60008183612d3b5760405162461bcd60e51b81526004016106e89190613001565b506000838581612d4757fe5b0495945050505050565b60008184841115612d755760405162461bcd60e51b81526004016106e89190613001565b505050900390565b8051610fe8816136a7565b600060208284031215612d99578081fd5b813561288e816136a7565b60008060408385031215612db6578081fd5b8235612dc1816136a7565b946020939093013593505050565b600060208284031215612de0578081fd5b8151801515811461288e578182fd5b600060e08284031215612e00578081fd5b612e0a60e0613650565b825181526020830151602082015260408301516040820152606083015160608201526080830151608082015260a083015160a082015260c083015160c08201528091505092915050565b6000610120808385031215612e67578182fd5b612e7081613650565b835181526020840151602082015260408401516040820152606084015160608201526080840151608082015260a084015160a0820152612eb38560c08601612d7d565b60c0820152612ec58560e08601612d7d565b60e08201526101009150612edb85838601612d7d565b918101919091529392505050565b600060208284031215612efa578081fd5b5035919050565b600060208284031215612f12578081fd5b5051919050565b600060208284031215612f2a578081fd5b815160ff8116811461288e578182fd5b60008251612f4c818460208701613677565b9190910192915050565b6001600160a01b0391909116815260200190565b6001600160a01b0392831681529116602082015260400190565b6001600160a01b039384168152919092166020820152604081019190915260600190565b6001600160a01b03929092168252602082015260400190565b6001600160a01b039390931683526020830191909152604082015260600190565b901515815260200190565b60208101600a8310612ffb57fe5b91905290565b6000602082528251806020840152613020816040850160208701613677565b601f01601f19169190910160400192915050565b6020808252600d908201526c21656e6f756768546f6b656e7360981b604082015260600190565b6020808252600a908201526910b1b7b6362a37b5b2b760b11b604082015260600190565b60208082526017908201527f5448205452414e534645525f46524f4d5f4641494c4544000000000000000000604082015260600190565b60208082526025908201527f4c6f616e20737461747573206e6f742063616c63756c6174696e6720696e7465604082015264726573747360d81b606082015260800190565b602080825260089082015267021537461747573360c41b604082015260600190565b60208082526010908201526f21616c6c6f77616e6365536574746c6560801b604082015260600190565b6020808252600c908201526b10b9b430b932b437b63232b960a11b604082015260600190565b60208082526009908201526821537461747573323360b81b604082015260600190565b60208082526026908201527f4f776e61626c653a206e6577206f776e657220697320746865207a65726f206160408201526564647265737360d01b606082015260800190565b6020808252601b908201527f536166654d6174683a206164646974696f6e206f766572666c6f770000000000604082015260600190565b602080825260159082015274131bd85b8814dd185d1d5cc81a5b98dbdc9c9958dd605a1b604082015260600190565b60208082526009908201526810b137b93937bbb2b960b91b604082015260600190565b60208082526009908201526821537461747573313360b81b604082015260600190565b6020808252602e908201527f4c6f616e20737461747573206e6f7420636f6d70617469626c6520776974682060408201526d63616e63656c20616374696f6e7360901b606082015260800190565b60208082526009908201526810b232b83637bcb2b960b91b604082015260600190565b6020808252600d908201526c21656e6f75676853686172657360981b604082015260600190565b6020808252600990820152680854dd185d1d5ccc4d60ba1b604082015260600190565b60208082526021908201527f536166654d6174683a206d756c7469706c69636174696f6e206f766572666c6f6040820152607760f81b606082015260800190565b6020808252601a908201527f43616e63656c2072657175657374206e6f7420616c6c6f776564000000000000604082015260600190565b6020808252818101527f4f776e61626c653a2063616c6c6572206973206e6f7420746865206f776e6572604082015260600190565b602080825260099082015268042a6e8c2e8eae662760bb1b604082015260600190565b6020808252600a908201526921616c6c6f77616e636560b01b604082015260600190565b6020808252600b908201526a5a65726f4164647265737360a81b604082015260600190565b6020808252600b908201526a6561726c7957696e646f7760a81b604082015260600190565b602080825260089082015267217368506c61636560c01b604082015260600190565b60208082526018908201527f426c6f636b206e756d626572206e6f7420616c6c6f7765640000000000000000604082015260600190565b60208082526008908201526721546f6b656e4f6b60c01b604082015260600190565b6020808252600c908201526b216561726c7957696e646f7760a01b604082015260600190565b6020808252601f908201527f5265656e7472616e637947756172643a207265656e7472616e742063616c6c00604082015260600190565b6020808252601290820152711512081514905394d1915497d1905253115160721b604082015260600190565b90815260200190565b918252602082015260400190565b988952602089019790975260408801959095526060870193909352608086019190915260a08501526001600160a01b0390811660c085015290811660e0840152166101008201526101200190565b968752602087019590955260408601939093526060850191909152608084015260a083015260c082015260e00190565b978852602088019690965260408701949094526060860192909252608085015260a084015260ff90811660c08401521660e08201526101000190565b60405181810167ffffffffffffffff8111828210171561366f57600080fd5b604052919050565b60005b8381101561369257818101518382015260200161367a565b838111156136a1576000848401525b50505050565b6001600160a01b03811681146136bc57600080fd5b5056fea264697066735822122018981c5e24969635997e52e18b87666e6a478a5319497e492514c1781deff3ab64736f6c634300060b00338be0079c531659141344cd1fd0a4f28419497f9722a3daafe3b4186f6b6457e0",
  "immutableReferences": {},
  "source": "// SPDX-License-Identifier: MIT\n\npragma solidity ^0.6.11;\npragma experimental ABIEncoderV2;\n\nimport \"@openzeppelin/contracts/math/SafeMath.sol\";\nimport \"@openzeppelin/contracts/math/Math.sol\";\nimport \"@openzeppelin/contracts/access/Ownable.sol\";\nimport \"@openzeppelin/contracts/token/ERC20/IERC20.sol\";\nimport \"@openzeppelin/contracts/utils/ReentrancyGuard.sol\";\nimport \"./IJLoanCommons.sol\";\nimport \"./IJLoanToken.sol\";\nimport \"./IJFactory.sol\";\nimport \"./TransferHelper.sol\";\n\n\ncontract JLoanToken is Ownable, ReentrancyGuard, IJLoanCommons {\n    using SafeMath for uint;\n\n    address public tokenDeployer;\n    address public feesCollector;\n    \n    address public borrowerAddress;\n\n    IERC20 public collateralToken;\n    IERC20 public lentToken;\n\n    params public loanParams;\n    contractParams public commonParams;\n    Status public loanStatus;\n    feesParams public loanFees;\n\n    uint public loanActiveBlock;\n    uint public loanInitiateForeCloseBlock;\n    uint public loanClosingBlock;\n    uint public loanClosedBlock;\n    uint public lastDepositBlock;\n    uint public lastInterestWithdrawalBlock;\n    uint public loanForeclosingBlock;\n    uint public loanForeclosedBlock;\n\n    struct ShareHolder {\n        address holder;\n        uint shares;\n        uint ownerBlockNumber;\n    }\n\n    mapping(uint => ShareHolder) public shareHolders;\n    mapping(address => bool) public shareHoldersAddress;\n    mapping(address => uint) public shareHoldersPlace;\n    uint public shareHoldersCounter;\n\n    event LoanContractDeployed(uint creationBlock, uint value, address token);\n    event NewDeposit(uint depositAmount, uint status);\n    event TokenReceived(address sender, uint value);\n    event TokenWithdraw(uint blockNumber);\n    event LenderAccepted(address indexed lenderAddress, uint factoryFees, uint loanActiveBlock);\n    event InitiateForeClosure(address indexed sender, uint blockNumber);\n    event LoanAtRiskFromForeclosing(address indexed sender, uint blockNumber);\n    event LoanForeclosed(address indexed sender, uint blockNumber);\n    event LoanForeclosing(address indexed sender, uint blockNumber);\n    event LoanCancelled(address indexed sender, uint indexed loanId, uint blockNumber);\n    event NewLoanStatus(uint loanStatus);\n    event NewShareHolder(address indexed sharesSeller, address indexed newShareholder, uint indexed amount, uint blockNumber);\n    event AddShareHolderShares(address indexed sharesSeller, address indexed sharesBuyer, uint indexed amount, uint blockNumber);\n    event LoanClosingByBorrower(uint blockNumber);\n    event LoanClosed(uint blockNumber);\n    event InterestsWithdrawed(uint blockNumber);\n\n    //// Status = 0\n    constructor(address _sender,\n                uint _id, \n                uint _pairId, \n                uint _borrowedAskAmount, // as many decimals as the price is expressed\n                uint _rpbRate, \n                address _factoryAddress,\n                address _collToken,\n                address _lendToken,\n                address _tokenFeesCollector) public {\n        require(msg.sender!=address(0), \"ZeroAddress\");\n        tokenDeployer = msg.sender;\n        require(_sender!=address(0), \"_senderZeroAddress\");\n        borrowerAddress = _sender;\n        collateralToken = IERC20(_collToken); //i.e. JNT\n        lentToken = IERC20(_lendToken); //i.e. USDC\n        feesCollector = _tokenFeesCollector;\n        loanParams = IJFactory(_factoryAddress).getGeneralParams();\n        loanFees = IJFactory(_factoryAddress).getGeneralFees();\n        require(_rpbRate >= loanParams.minRpbRate, \"RPBTooLow\");\n        commonParams.loanId = _id;\n        commonParams.rpbRate = _rpbRate;\n        commonParams.pairId = _pairId;\n        commonParams.borrowedAskAmount = _borrowedAskAmount;\n        commonParams.collDecimals = IJFactory(_factoryAddress).getPairBaseDecimals(_pairId); //collateral token decimals\n        commonParams.lendDecimals = IJFactory(_factoryAddress).getPairQuoteDecimals(_pairId); //lend token decimals\n        //commonParams.initialCollateralRatio = getActualCollateralRatio();\n        commonParams.creationBlock = block.number;\n        loanStatus = Status.pending;\n        //Transfer ownership to facory address\n        transferOwnership(loanParams.factoryAddress);\n        emit LoanContractDeployed(commonParams.creationBlock, commonParams.borrowedAskAmount, _collToken);\n    }\n\n    modifier onlyTokenDeployer() {\n        require(msg.sender == tokenDeployer, \"!deployer\");\n        _;\n    }\n\n    //// Other functions\n    /**\n    * @dev set common parameters in loan contract, reading them from factory\n    */\n    function setNewCommonParams() external onlyTokenDeployer {\n        loanParams = IJFactory(loanParams.factoryAddress).getGeneralParams();\n    }\n\n    /**\n    * @dev set common parameters in loan contract, reading them from factory\n    */\n    function setNewFeesParams() external onlyTokenDeployer {\n        loanFees = IJFactory(loanParams.factoryAddress).getGeneralFees();\n    }\n\n    /**\n    * @dev deposit collateral tokens\n    * @param _tok ERC20 address\n    * @param _tokAmount token amount\n    */\n    function depositCollateral(address _tok, uint _tokAmount) external nonReentrant {\n        require(loanStatus >= Status.active && loanStatus <= Status.foreClosing, \"!Status14\");\n        require ( address(collateralToken) == address(_tok), \"!collToken\" );\n        require(collateralToken.balanceOf(msg.sender) >= _tokAmount, \"!enoughTokens\");\n        uint256 allowance = collateralToken.allowance(msg.sender, address(this));\n        require(allowance >= _tokAmount, \"!allowance\");\n        lastDepositBlock = block.number;\n        TransferHelper.safeTransferFrom(_tok, msg.sender, address(this), _tokAmount);\n        uint status = setLoanStatusOnCollRatio();\n        emit NewDeposit(_tokAmount, status);\n    }\n\n    /**\n    * @dev withdraw ethers from contract, every shareholder with his percentage\n    * in closing, in cancelled, in foreclosed\n    */\n    /*function withdrawTokens() public nonReentrant {\n        require(loanStatus >= Status.closed, \"Loan status not compatible with foreclosing actions\" );\n        require(isShareHolder(msg.sender), \"Address requiring interest withdraw not allow\"); \n        //require(block.number > loanActiveBlock + loanParams.earlySettlementWindow, \"Too short period after loan activation\");\n        for (uint8 i = 1; i <= shareHoldersCounter; i++) {\n            address shAddress = shareHolders[i].holder;\n            uint shPlace = getShareHolderPlace(shAddress);\n            uint shShares = shareHolders[shPlace].shares;\n            uint tokAmount = collateralToken.balanceOf(address(this)).mul(shShares).div(100);\n            shareHolders[shPlace].shares = 0;\n            TransferHelper.safeTransfer(address(collateralToken), shAddress, tokAmount);\n        }\n        emit TokenWithdraw(block.number);\n    }*/\n\n    /**\n    * @dev get contract balance\n    * @return balance\n    */\n    function getContractBalance() external view returns (uint) {\n        return collateralToken.balanceOf(address(this));\n    }\n\n    /**\n    * @dev get contract status\n    * @return status\n    */\n    function getLoanStatus() external view returns (uint) {\n        return uint(loanStatus);\n    }\n\n    /**\n    * @dev get pair price\n    * @return price\n    */\n    function getPairPrice() public view returns (uint) {\n        return IJFactory(loanParams.factoryAddress).getPairValue(commonParams.pairId);\n    }\n\n    /**\n    * @dev get pair decimals\n    * @return number of decimals\n    */\n    function getPairDecimals() public view returns (uint){\n        return IJFactory(loanParams.factoryAddress).getPairDecimals(commonParams.pairId);\n    }\n\n    /**\n    * @dev check if loan is in early settlement period\n    * @return boolean\n    */\n    function checkLoanInEarlySettlementWindow() external view returns (bool) {\n        uint lastEarlyBlock = loanActiveBlock.add(loanParams.earlySettlementWindow);\n        if (block.number <= lastEarlyBlock)\n            return true;\n        else\n            return false;\n    }\n\n    /**\n    * @dev check if loan is in early settlement period\n    * @return boolean\n    */\n    function checkEarlySettledLoan() external view returns (bool) {\n        return loanStatus == Status.earlyClosing;\n    }\n\n    /**\n    * @dev set initial collateral ratio of the loan\n    */\n    function setInitalCollateralRatio() external {\n        if (loanStatus == Status.pending)\n            commonParams.initialCollateralRatio = getActualCollateralRatio();\n    }\n\n    /**\n    * @dev get the collateral ratio of the loan (subtracting the accrued interests)\n    * @return newCollRatio collateral ratio\n    */\n    function getActualCollateralRatio() public view returns (uint newCollRatio) {\n        //require(uint(loanStatus) >= 1, \"Loan status not allowed\");\n        uint newPrice = getPairPrice();\n        uint pairDecimals = getPairDecimals();\n        uint borrAmnt = commonParams.borrowedAskAmount;\n        uint loanBalance;\n        if (loanStatus == Status.pending)\n            loanBalance = collateralToken.balanceOf(address(this));\n        else\n            loanBalance = (collateralToken.balanceOf(address(this))).sub(getAccruedInterests());\n        if (commonParams.collDecimals >= commonParams.lendDecimals) {\n            uint diffBaseQuoteDecimals = uint(commonParams.collDecimals).sub(uint(commonParams.lendDecimals));\n            newCollRatio = loanBalance.mul(newPrice).div(borrAmnt).mul(100).div(10 ** pairDecimals).div(10 ** diffBaseQuoteDecimals);\n        } else {\n            uint diffBaseQuoteDecimals = uint(commonParams.lendDecimals).sub(uint(commonParams.collDecimals));\n            newCollRatio = loanBalance.mul(newPrice).div(borrAmnt).mul(100).div(10 ** pairDecimals).mul(10 ** diffBaseQuoteDecimals);\n        }\n        return newCollRatio;\n    }\n\n    /**\n    * @dev calc a new ratio if collateral amount has added to contract balance\n    * @param _amount collateral amount to add\n    * @return ratio new collateral ratio\n    */\n    function calcRatioAddingCollateral(uint _amount) external view returns (uint ratio) {\n        uint bal = collateralToken.balanceOf(address(this));\n        uint newBal = bal.add(_amount);\n        uint actualPrice = getPairPrice();\n        uint pairDecimals = getPairDecimals();\n        uint borrAmnt = commonParams.borrowedAskAmount;\n        if (commonParams.collDecimals >= commonParams.lendDecimals) {\n            uint diffBaseQuoteDecimals = uint(commonParams.collDecimals).sub(uint(commonParams.lendDecimals));\n            ratio = newBal.mul(actualPrice).div(borrAmnt).mul(100).div(10 ** pairDecimals).div(10 ** diffBaseQuoteDecimals);\n        } else {\n            uint diffBaseQuoteDecimals = uint(commonParams.lendDecimals).sub(uint(commonParams.collDecimals));\n            ratio = newBal.mul(actualPrice).div(borrAmnt).mul(100).div(10 ** pairDecimals).mul(10 ** diffBaseQuoteDecimals);\n        }\n        return ratio;\n    }\n\n    /**\n    * @dev calc how much collateral amount has to be added to have a ratio\n    * @param _ratio ratio to reach, percentage with no decimals (180 means 180%)\n    * @return collDiff collateral amount to add or to subtract to reach that ratio\n    */\n    function calcCollAmountForRatio(uint _ratio) external view returns (uint collDiff) {\n        uint bal = address(this).balance;\n        uint actualPrice = getPairPrice();\n        uint pairDecimals = getPairDecimals();\n        uint newBal;\n        uint newRatio = _ratio;\n        uint borrAmnt = commonParams.borrowedAskAmount;\n        if (commonParams.collDecimals >= commonParams.lendDecimals) {\n            uint diffBaseQuoteDecimals = uint(commonParams.collDecimals).sub(uint(commonParams.lendDecimals));\n            newBal = borrAmnt.mul(newRatio).mul(10 ** pairDecimals).div(actualPrice).div(100).mul(10 ** diffBaseQuoteDecimals);\n        } else {\n            uint diffBaseQuoteDecimals = uint(commonParams.lendDecimals).sub(uint(commonParams.collDecimals));\n            newBal = borrAmnt.mul(newRatio).mul(10 ** pairDecimals).div(actualPrice).div(100).div(10 ** diffBaseQuoteDecimals);\n        }\n        if (newBal >= bal)\n            collDiff = newBal.sub(bal);\n        else\n            collDiff = bal.sub(newBal);\n        return collDiff;\n    }\n\n    //// Status 0 -> 1\n    /**\n    * @dev lender sends required stable coins to borrower and set the initial lender as a stakeholder (100%)\n    * @param _stableAddr, address of the stabl coin address\n    */\n    function lenderSendStableCoins(address _stableAddr) external nonReentrant {\n        require(msg.sender != address(0), \"ZeroAddress\");\n        require(_stableAddr == address(lentToken), \"!TokenOk\");\n        //require(lentToken.balanceOf(msg.sender) >= commonParams.borrowedAskAmount, \"Not enough tokens on lender balance\");\n        require(loanStatus == Status.pending, \"!Status0\");\n        uint askAmount = commonParams.borrowedAskAmount;\n        uint256 allowance = IERC20(_stableAddr).allowance(msg.sender, address(this));\n        require(allowance >= askAmount, \"!allowance\");\n        loanActiveBlock = block.number;\n        loanStatus = Status.active;\n        shareHoldersCounter = 1;\n        shareHolders[shareHoldersCounter] = ShareHolder({holder: msg.sender, shares: 100, ownerBlockNumber: loanActiveBlock});\n        shareHoldersAddress[msg.sender] = true;\n        shareHoldersPlace[msg.sender] = shareHoldersCounter;\n        lastInterestWithdrawalBlock = block.number;\n        // move factory fees only when loan becomes active\n        uint contractCollateralAmount = IJFactory(loanParams.factoryAddress).calcMinCollateralAmount(commonParams.pairId, commonParams.borrowedAskAmount);\n        uint feesCollateralAmount = IJFactory(loanParams.factoryAddress).calculateCollFeesOnActivation(contractCollateralAmount);\n        TransferHelper.safeTransferFrom(_stableAddr, msg.sender, borrowerAddress, askAmount);\n        TransferHelper.safeTransfer(address(collateralToken), feesCollector, feesCollateralAmount);\n        emit LenderAccepted(msg.sender, feesCollateralAmount, loanActiveBlock);\n    }\n\n    //// Status 1 or 2 or 3, based on collateral ratio\n    /**\n    * @dev set the status of the loan based on collateral ratio\n    * @return loan status\n    */\n    function setLoanStatusOnCollRatio() public returns (uint){\n        if (uint(loanStatus) > 0 && uint(loanStatus) < 5) {     //Loan not active or foreclosed or in closing status or closed\n            uint newCollRatio = getActualCollateralRatio(); // it leaves only 3 significant digits (i.e. 180 means 180%)\n            if ( newCollRatio >= loanParams.foreclosingRatio) {\n                loanStatus = Status(1);\n                loanForeclosingBlock = 0;   //reset foreclosing block\n            } else if ( newCollRatio <= loanParams.foreclosingRatio && newCollRatio >= loanParams.instantForeclosureRatio ) {\n                loanStatus = Status(2);\n            } else if ( newCollRatio < loanParams.instantForeclosureRatio ) {\n                loanStatus = Status(3);\n            }  \n        }\n        // else no change on status\n        emit NewLoanStatus(uint(loanStatus));\n        return uint(loanStatus);\n    }\n\n    //// Status 4 or 5 or 8, starting from 2 or 3, depending on collateral ratio\n    /**\n    * @dev set the loan in foreclosure state for undercollateralized loans (tbd: reward for caller)\n    */\n    function initiateLoanForeClose() external nonReentrant {\n        uint status = setLoanStatusOnCollRatio();\n        require(status == 2 || status == 3, \"!Status23\");\n        uint reward;\n        if (status == 2) {\n            reward = (loanFees.undercollateralizedForeclosingMultiple).mul(commonParams.rpbRate);\n            setLoanForeclosing();\n        } else {\n            reward = (loanFees.atRiskForeclosedMultiple).mul(commonParams.rpbRate);\n            setLoanForeclosed();\n        }\n        uint bal = collateralToken.balanceOf(address(this));\n        loanInitiateForeCloseBlock = block.number;\n        if (bal >= reward) {\n            uint userReward = reward.mul(loanFees.userRewardShare).div(100);\n            uint vaultReward = reward.mul(loanFees.vaultShare).div(100);\n            setLoanForeclosed();\n            TransferHelper.safeTransfer(address(collateralToken), msg.sender, userReward);\n            TransferHelper.safeTransfer(address(collateralToken), feesCollector, vaultReward);\n        } else {\n            uint userReward = bal.mul(loanFees.userRewardShare).div(100);\n            uint vaultReward = bal.sub(userReward);\n            setLoanClosed();\n            TransferHelper.safeTransfer(address(collateralToken), msg.sender, userReward);\n            TransferHelper.safeTransfer(address(collateralToken), feesCollector, vaultReward);\n        }\n        emit InitiateForeClosure(msg.sender, loanInitiateForeCloseBlock);\n    }\n\n    //// Status 2 -> 4\n    /**\n    * @dev set the loan in foreclosure state for undercollateralized loans\n    */\n    function setLoanForeclosing() internal {\n        loanStatus = Status.foreClosing;\n        // get the block to calculate time to set it in foreclosed if no actions from the borrower\n        loanForeclosingBlock = block.number;\n        emit LoanForeclosing(msg.sender, block.number);\n    }\n\n    /**\n    * @dev set the loan in foreclosed state when foreclosureWindow time passed\n    */\n    function setLoanInForeclosedByTime() external nonReentrant returns (bool) {\n        require(uint(loanStatus) == 4, \"Loan Status incorrect\");\n        bool result = false;\n        if (loanForeclosingBlock != 0 && block.number >= loanForeclosingBlock.add(loanParams.foreclosureWindow)) {\n            uint reward = (loanFees.atRiskForeclosedMultiple).mul(commonParams.rpbRate);\n            uint bal = collateralToken.balanceOf(address(this));\n            if (bal >= reward) {\n                uint userReward = reward.mul(loanFees.userRewardShare).div(100);\n                uint vaultReward = reward.mul(loanFees.vaultShare).div(100);\n                setLoanForeclosed();\n                TransferHelper.safeTransfer(address(collateralToken), msg.sender, userReward);\n                TransferHelper.safeTransfer(address(collateralToken), feesCollector, vaultReward);\n            } else {\n                uint userReward = bal.mul(loanFees.userRewardShare).div(100);\n                uint vaultReward = bal.sub(userReward);\n                setLoanClosed();\n                TransferHelper.safeTransfer(address(collateralToken), msg.sender, userReward);\n                TransferHelper.safeTransfer(address(collateralToken), feesCollector, vaultReward);\n            }\n            result = true;\n        }\n        return result;\n    }\n\n    //// Status 2 -> 5\n    /**\n    * @dev set the loan in foreclosure state for undercollateralized loans\n    */\n    function setLoanForeclosed() internal {\n        loanForeclosedBlock = block.number;\n        loanStatus = Status.foreClosed;\n        emit LoanForeclosed(msg.sender, block.number);\n    }\n\n    //// Status = 6\n    function loanEarlyClosing() internal returns (uint) {\n        require(block.number < loanActiveBlock + loanParams.earlySettlementWindow, \"!earlyWindow\");\n        loanStatus = Status.earlyClosing;\n        uint balanceRequested = (loanParams.earlySettlementWindow).mul(commonParams.rpbRate);\n        return balanceRequested;\n    }\n\n    //// Status = 7\n    /**\n    * @dev settle the loan in normal closing state by borrower\n    */\n    function loanClosingByBorrower() external nonReentrant {\n        require(msg.sender == borrowerAddress, \"!borrower\");\n        require(uint(loanStatus) > 0 && uint(loanStatus) <= 3, \"!Status13\");\n        // check that borrower gives back the loaned stable coin amount and transfer collateral to borrower\n        uint256 allowance = lentToken.allowance(msg.sender, address(this));\n        require(allowance >= commonParams.borrowedAskAmount, \"!allowanceSettle\");\n        uint balanceRequested;\n        if (block.number < loanActiveBlock + loanParams.earlySettlementWindow)\n            balanceRequested = loanEarlyClosing();\n        else\n            balanceRequested = getAccruedInterests();\n        uint feesAmount = 0;\n        if (loanStatus == Status.earlyClosing)\n            feesAmount = (loanFees.earlySettlementFee).mul(commonParams.rpbRate);\n        uint bal = collateralToken.balanceOf(address(this));\n        uint requestedAmount = balanceRequested.add(feesAmount);\n        loanClosingBlock = block.number;\n        loanStatus = Status.closing;\n        // check if there are enough collateral\n        if (bal >= requestedAmount) {\n            // borrower receive back collateral\n            uint withdrawalBalance = bal.sub(requestedAmount); \n            TransferHelper.safeTransfer(address(collateralToken), msg.sender, withdrawalBalance);\n            TransferHelper.safeTransfer(address(collateralToken), feesCollector, feesAmount);\n        } else if (bal >= feesAmount) {\n            TransferHelper.safeTransfer(address(collateralToken), feesCollector, feesAmount);\n            // borrower doesnt receive any collateral, what reamins it is ditributed to lender(s) as the RPB\n        }\n        for (uint8 i = 1; i <= shareHoldersCounter; i++) {\n            address shAddress = shareHolders[i].holder;\n            uint shPlace = getShareHolderPlace(shareHolders[i].holder);\n            uint shShares = shareHolders[shPlace].shares;\n            TransferHelper.safeTransferFrom(address(lentToken), msg.sender, shAddress, (commonParams.borrowedAskAmount).mul(shShares).div(100));\n        }\n        emit LoanClosingByBorrower(loanClosingBlock);\n    }\n\n    //// Status = 8\n    /**\n    * @dev set the loan in closed state, let Shareholders to withdraw the stable coins back\n    */\n    function setLoanClosed() internal {\n        //require(uint(loanStatus) >= 6, \"Loan status not compatible with close actions\");\n        loanClosedBlock = block.number;\n        loanStatus = Status.closed;\n        emit LoanClosed(loanClosedBlock);\n    }\n\n    //// Status = 9\n    /**\n    * @dev set the loan in cancelled state (only if pending)\n    */\n    function setLoanCancelled() external nonReentrant {\n        require(msg.sender == borrowerAddress, \"Cancel request not allowed\");\n        require(uint(loanStatus) == 0, \"Loan status not compatible with cancel actions\");\n        uint feeCanc = (collateralToken.balanceOf(address(this))).mul(loanFees.cancellationFees).div(100);\n        uint withdrawalBalance = (collateralToken.balanceOf(address(this))).sub(feeCanc);\n        loanStatus = Status.cancelled;\n        TransferHelper.safeTransfer(address(collateralToken), feesCollector, feeCanc);\n        TransferHelper.safeTransfer(address(collateralToken), msg.sender, withdrawalBalance);\n        emit LoanCancelled(msg.sender, commonParams.loanId, block.number);\n    }\n\n    \n    //// Calculating interests functions\n    /**\n    * @dev calculate accrued interests of the contract\n    * @return accrued interests\n    */\n    function calculatingAccruedInterests(uint _calcBlk) public view returns (uint) {\n        require(_calcBlk >= lastInterestWithdrawalBlock, \"Block number not allowed\");\n        return _calcBlk.sub(lastInterestWithdrawalBlock).mul(commonParams.rpbRate);  \n    }\n\n    /**\n    * @dev get accrued interests of the contract\n    * @return accruedInterests total accrued interests\n    */\n    function getAccruedInterests() public view returns (uint accruedInterests) {\n        require(uint(loanStatus) > 0 && uint(loanStatus) < 8, \"Loan status not calculating interests\");\n        //require(isShareHolder(msg.sender), \"Caller not allowed\");\n        uint lastEarlyBlock = loanActiveBlock.add(loanParams.earlySettlementWindow);\n        if (loanStatus == Status.earlyClosing && block.number >= lastEarlyBlock) {\n            accruedInterests = calculatingAccruedInterests(lastEarlyBlock);\n        } else {\n            if (loanClosedBlock != 0)\n                accruedInterests = calculatingAccruedInterests(Math.min(loanClosedBlock, block.number));\n            else\n                accruedInterests = calculatingAccruedInterests(block.number);\n        }\n        if ( accruedInterests > collateralToken.balanceOf(address(this)) )\n            accruedInterests = collateralToken.balanceOf(address(this));\n        return accruedInterests;\n    }\n\n    /**\n    * @dev withdraw accreud interests for all shareholders and set the status after interests withdrawal\n    * @return new status\n    */\n    function withdrawInterests() external nonReentrant returns (uint) {\n        // interests of all shareholders must be withdrawn with their shares amount\n        require(uint(loanStatus) > 0 && uint(loanStatus) < 8, \"!Status18\" );\n        //require(block.number > loanActiveBlock + loanParams.earlySettlementWindow, \"Too short period after loan activation\");\n        uint status = uint(loanStatus);\n        uint bal = address(this).balance;\n        uint accruedTotalInterests = getAccruedInterests();\n        if (bal >= accruedTotalInterests) {\n            for (uint8 i = 1; i <= shareHoldersCounter; i++) {\n                shareholderWithdrawInterests(shareHolders[i].holder, accruedTotalInterests);\n            }\n            lastInterestWithdrawalBlock = block.number;\n            if (status <= 3)\n                status = setLoanStatusOnCollRatio();\n        } else if (bal == 0) {\n            setLoanClosed();\n        } else {\n            for (uint8 i = 1; i <= shareHoldersCounter; i++) {\n                shareholderWithdrawInterests(shareHolders[i].holder, bal);\n            }\n            lastInterestWithdrawalBlock = block.number;\n            loanClosedBlock = block.number;\n            status = uint(Status.closed);\n        }\n        emit InterestsWithdrawed(block.number);\n        return status;\n    }\n\n    /**\n    * @dev withdraw accreud interests and set the status after interests withdrawal\n    * @param _shareHolder shareholder address\n    */\n    function shareholderWithdrawInterests(address _shareHolder, uint _accruedTotalInterests) internal {\n        require(isShareHolder(_shareHolder), \"!shareholder\"); \n        for (uint8 i = 1; i <= shareHoldersCounter; i++) {\n            uint shPlace = getShareHolderPlace(shareHolders[i].holder);\n            uint shShares = shareHolders[shPlace].shares;\n            TransferHelper.safeTransfer(address(collateralToken), _shareHolder, _accruedTotalInterests.mul(shShares).div(100));\n        } \n    }\n\n    //// Shareholders functions\n    /**\n    * @dev check if an address is a shareholder\n    * @return boolean\n    */\n    function isShareHolder(address _holder) public view returns (bool) {\n        return shareHoldersAddress[_holder];\n    }\n\n    /**\n    * @dev get a shareholder place in shareholders array\n    * @return boolean\n    */\n    function getShareHolderPlace(address _holder) public view returns (uint) {\n        return shareHoldersPlace[_holder];\n    }\n\n    /**\n    * @dev add shareholder in shareholders arrays\n    * @param _newShareholder buyer address\n    * @param _amount amount of shares\n    * @return new status\n    */\n    function addLoanShareHolders(address _newShareholder, uint _amount) public nonReentrant returns (uint) {\n        require(isShareHolder(msg.sender), \"!shareholder\");\n        uint shPlace = getShareHolderPlace(msg.sender);\n        require(shPlace > 0, \"!shPlace\");\n        require(shareHolders[shPlace].shares >= _amount, \"!enoughShares\");\n        //before shares could be selled, interests of all shareholders must be withdrawn with old shares amount, in order to start with a new situation\n        require(block.number > loanActiveBlock + loanParams.earlySettlementWindow, \"earlyWindow\");\n        uint interestsAmount = getAccruedInterests();\n        for (uint8 i = 1; i <= shareHoldersCounter; i++) {\n            shareholderWithdrawInterests(shareHolders[i].holder, interestsAmount);\n        }\n\n        shareHolders[shPlace].shares = shareHolders[shPlace].shares.sub(_amount);\n        if(!isShareHolder(_newShareholder)) {\n            shareHoldersCounter = shareHoldersCounter.add(1);\n            shareHolders[shareHoldersCounter] = ShareHolder({holder: _newShareholder, shares: _amount, ownerBlockNumber: block.number});\n            shareHoldersAddress[_newShareholder] = true;\n            shareHoldersPlace[_newShareholder] = shareHoldersCounter;\n            emit NewShareHolder(msg.sender, _newShareholder, _amount, block.number);\n        } else {\n            uint shPlaceNew = getShareHolderPlace(_newShareholder);\n            shareHolders[shPlaceNew].shares = shareHolders[shPlaceNew].shares.add(_amount);\n            shareHolders[shPlaceNew].ownerBlockNumber = block.number;\n            emit AddShareHolderShares(msg.sender, _newShareholder, _amount, block.number);\n        }  \n\n        lastInterestWithdrawalBlock = block.number;\n        uint status = setLoanStatusOnCollRatio();\n        return status;\n    }\n\n}",
  "sourcePath": "C:\\Users\\saurabh\\code\\Jibrel\\defi-smartcontracts\\LoansFactoryV2\\contracts\\JLoanToken.sol",
  "compiler": {
    "name": "solc",
    "version": "0.6.11+commit.5ef660b1.Emscripten.clang"
  },
  "schemaVersion": "3.3.1",
  "updatedAt": "2020-10-18T18:33:14.137Z",
  "networkType": "ethereum",
  "devdoc": {
    "kind": "dev",
    "methods": {
      "addLoanShareHolders(address,uint256)": {
        "details": "add shareholder in shareholders arrays",
        "params": {
          "_amount": "amount of shares",
          "_newShareholder": "buyer address"
        },
        "returns": {
          "_0": "new status"
        }
      },
      "calcCollAmountForRatio(uint256)": {
        "details": "calc how much collateral amount has to be added to have a ratio",
        "params": {
          "_ratio": "ratio to reach, percentage with no decimals (180 means 180%)"
        },
        "returns": {
          "collDiff": "collateral amount to add or to subtract to reach that ratio"
        }
      },
      "calcRatioAddingCollateral(uint256)": {
        "details": "calc a new ratio if collateral amount has added to contract balance",
        "params": {
          "_amount": "collateral amount to add"
        },
        "returns": {
          "ratio": "new collateral ratio"
        }
      },
      "calculatingAccruedInterests(uint256)": {
        "details": "calculate accrued interests of the contract",
        "returns": {
          "_0": "accrued interests"
        }
      },
      "checkEarlySettledLoan()": {
        "details": "check if loan is in early settlement period",
        "returns": {
          "_0": "boolean"
        }
      },
      "checkLoanInEarlySettlementWindow()": {
        "details": "check if loan is in early settlement period",
        "returns": {
          "_0": "boolean"
        }
      },
      "depositCollateral(address,uint256)": {
        "details": "deposit collateral tokens",
        "params": {
          "_tok": "ERC20 address",
          "_tokAmount": "token amount"
        }
      },
      "getAccruedInterests()": {
        "details": "get accrued interests of the contract",
        "returns": {
          "accruedInterests": "total accrued interests"
        }
      },
      "getActualCollateralRatio()": {
        "details": "get the collateral ratio of the loan (subtracting the accrued interests)",
        "returns": {
          "newCollRatio": "collateral ratio"
        }
      },
      "getContractBalance()": {
        "details": "get contract balance",
        "returns": {
          "_0": "balance"
        }
      },
      "getLoanStatus()": {
        "details": "get contract status",
        "returns": {
          "_0": "status"
        }
      },
      "getPairDecimals()": {
        "details": "get pair decimals",
        "returns": {
          "_0": "number of decimals"
        }
      },
      "getPairPrice()": {
        "details": "get pair price",
        "returns": {
          "_0": "price"
        }
      },
      "getShareHolderPlace(address)": {
        "details": "get a shareholder place in shareholders array",
        "returns": {
          "_0": "boolean"
        }
      },
      "initiateLoanForeClose()": {
        "details": "set the loan in foreclosure state for undercollateralized loans (tbd: reward for caller)"
      },
      "isShareHolder(address)": {
        "details": "check if an address is a shareholder",
        "returns": {
          "_0": "boolean"
        }
      },
      "lenderSendStableCoins(address)": {
        "details": "lender sends required stable coins to borrower and set the initial lender as a stakeholder (100%)",
        "params": {
          "_stableAddr": ", address of the stabl coin address"
        }
      },
      "loanClosingByBorrower()": {
        "details": "settle the loan in normal closing state by borrower"
      },
      "owner()": {
        "details": "Returns the address of the current owner."
      },
      "renounceOwnership()": {
        "details": "Leaves the contract without owner. It will not be possible to call `onlyOwner` functions anymore. Can only be called by the current owner. NOTE: Renouncing ownership will leave the contract without an owner, thereby removing any functionality that is only available to the owner."
      },
      "setInitalCollateralRatio()": {
        "details": "set initial collateral ratio of the loan"
      },
      "setLoanCancelled()": {
        "details": "set the loan in cancelled state (only if pending)"
      },
      "setLoanInForeclosedByTime()": {
        "details": "set the loan in foreclosed state when foreclosureWindow time passed"
      },
      "setLoanStatusOnCollRatio()": {
        "details": "set the status of the loan based on collateral ratio",
        "returns": {
          "_0": "loan status"
        }
      },
      "setNewCommonParams()": {
        "details": "set common parameters in loan contract, reading them from factory"
      },
      "setNewFeesParams()": {
        "details": "set common parameters in loan contract, reading them from factory"
      },
      "transferOwnership(address)": {
        "details": "Transfers ownership of the contract to a new account (`newOwner`). Can only be called by the current owner."
      },
      "withdrawInterests()": {
        "details": "withdraw accreud interests for all shareholders and set the status after interests withdrawal",
        "returns": {
          "_0": "new status"
        }
      }
    },
    "version": 1
  },
  "userdoc": {
    "kind": "user",
    "methods": {},
    "version": 1
  }
}