{
  "contractName": "JLoanEth",
  "abi": [
    {
      "inputs": [
        {
          "internalType": "address",
          "name": "_sender",
          "type": "address"
        },
        {
          "internalType": "uint256",
          "name": "_id",
          "type": "uint256"
        },
        {
          "internalType": "uint256",
          "name": "_pairId",
          "type": "uint256"
        },
        {
          "internalType": "uint256",
          "name": "_borrowedAskAmount",
          "type": "uint256"
        },
        {
          "internalType": "uint256",
          "name": "_rpbRate",
          "type": "uint256"
        },
        {
          "internalType": "address",
          "name": "_factoryAddress",
          "type": "address"
        },
        {
          "internalType": "address",
          "name": "_lendCrypto",
          "type": "address"
        },
        {
          "internalType": "address payable",
          "name": "_ethFeesCollector",
          "type": "address"
        }
      ],
      "stateMutability": "payable",
      "type": "constructor"
    },
    {
      "anonymous": false,
      "inputs": [
        {
          "indexed": true,
          "internalType": "address",
          "name": "sharesBuyer",
          "type": "address"
        },
        {
          "indexed": true,
          "internalType": "uint256",
          "name": "amount",
          "type": "uint256"
        }
      ],
      "name": "AddShareholderShares",
      "type": "event"
    },
    {
      "anonymous": false,
      "inputs": [
        {
          "indexed": false,
          "internalType": "address",
          "name": "sender",
          "type": "address"
        },
        {
          "indexed": false,
          "internalType": "uint256",
          "name": "value",
          "type": "uint256"
        }
      ],
      "name": "EthReceived",
      "type": "event"
    },
    {
      "anonymous": false,
      "inputs": [
        {
          "indexed": false,
          "internalType": "uint256",
          "name": "accruedInterests",
          "type": "uint256"
        }
      ],
      "name": "InterestsWithdrawed",
      "type": "event"
    },
    {
      "anonymous": false,
      "inputs": [
        {
          "indexed": true,
          "internalType": "address",
          "name": "sender",
          "type": "address"
        },
        {
          "indexed": false,
          "internalType": "uint256",
          "name": "blockNumber",
          "type": "uint256"
        }
      ],
      "name": "LoanForeclosing",
      "type": "event"
    },
    {
      "anonymous": false,
      "inputs": [
        {
          "indexed": false,
          "internalType": "uint256",
          "name": "loanStatus",
          "type": "uint256"
        }
      ],
      "name": "NewLoanStatus",
      "type": "event"
    },
    {
      "anonymous": false,
      "inputs": [
        {
          "indexed": false,
          "internalType": "uint256",
          "name": "amount",
          "type": "uint256"
        }
      ],
      "name": "WithdrawCollateral",
      "type": "event"
    },
    {
      "inputs": [],
      "name": "borrowerAddress",
      "outputs": [
        {
          "internalType": "address",
          "name": "",
          "type": "address"
        }
      ],
      "stateMutability": "view",
      "type": "function"
    },
    {
      "inputs": [],
      "name": "commonParams",
      "outputs": [
        {
          "internalType": "uint256",
          "name": "loanId",
          "type": "uint256"
        },
        {
          "internalType": "uint256",
          "name": "rpbRate",
          "type": "uint256"
        },
        {
          "internalType": "uint256",
          "name": "initialCollateralRatio",
          "type": "uint256"
        },
        {
          "internalType": "uint256",
          "name": "creationBlock",
          "type": "uint256"
        },
        {
          "internalType": "uint256",
          "name": "pairId",
          "type": "uint256"
        },
        {
          "internalType": "uint256",
          "name": "borrowedAskAmount",
          "type": "uint256"
        },
        {
          "internalType": "uint8",
          "name": "collDecimals",
          "type": "uint8"
        },
        {
          "internalType": "uint8",
          "name": "lendDecimals",
          "type": "uint8"
        }
      ],
      "stateMutability": "view",
      "type": "function"
    },
    {
      "inputs": [],
      "name": "ethDeployer",
      "outputs": [
        {
          "internalType": "address",
          "name": "",
          "type": "address"
        }
      ],
      "stateMutability": "view",
      "type": "function"
    },
    {
      "inputs": [],
      "name": "feesCollector",
      "outputs": [
        {
          "internalType": "address payable",
          "name": "",
          "type": "address"
        }
      ],
      "stateMutability": "view",
      "type": "function"
    },
    {
      "inputs": [],
      "name": "lastInterestWithdrawalBlock",
      "outputs": [
        {
          "internalType": "uint256",
          "name": "",
          "type": "uint256"
        }
      ],
      "stateMutability": "view",
      "type": "function"
    },
    {
      "inputs": [],
      "name": "lentToken",
      "outputs": [
        {
          "internalType": "address",
          "name": "",
          "type": "address"
        }
      ],
      "stateMutability": "view",
      "type": "function"
    },
    {
      "inputs": [],
      "name": "loanActiveBlock",
      "outputs": [
        {
          "internalType": "uint256",
          "name": "",
          "type": "uint256"
        }
      ],
      "stateMutability": "view",
      "type": "function"
    },
    {
      "inputs": [],
      "name": "loanClosedBlock",
      "outputs": [
        {
          "internalType": "uint256",
          "name": "",
          "type": "uint256"
        }
      ],
      "stateMutability": "view",
      "type": "function"
    },
    {
      "inputs": [],
      "name": "loanClosingBlock",
      "outputs": [
        {
          "internalType": "uint256",
          "name": "",
          "type": "uint256"
        }
      ],
      "stateMutability": "view",
      "type": "function"
    },
    {
      "inputs": [],
      "name": "loanFees",
      "outputs": [
        {
          "internalType": "uint256",
          "name": "earlySettlementFee",
          "type": "uint256"
        },
        {
          "internalType": "uint8",
          "name": "factoryFees",
          "type": "uint8"
        },
        {
          "internalType": "uint8",
          "name": "userRewardShare",
          "type": "uint8"
        },
        {
          "internalType": "uint8",
          "name": "vaultShare",
          "type": "uint8"
        },
        {
          "internalType": "uint8",
          "name": "cancellationFees",
          "type": "uint8"
        },
        {
          "internalType": "uint16",
          "name": "undercollateralizedForeclosingMultiple",
          "type": "uint16"
        },
        {
          "internalType": "uint16",
          "name": "atRiskForeclosedMultiple",
          "type": "uint16"
        }
      ],
      "stateMutability": "view",
      "type": "function"
    },
    {
      "inputs": [],
      "name": "loanForeclosedBlock",
      "outputs": [
        {
          "internalType": "uint256",
          "name": "",
          "type": "uint256"
        }
      ],
      "stateMutability": "view",
      "type": "function"
    },
    {
      "inputs": [],
      "name": "loanForeclosingBlock",
      "outputs": [
        {
          "internalType": "uint256",
          "name": "",
          "type": "uint256"
        }
      ],
      "stateMutability": "view",
      "type": "function"
    },
    {
      "inputs": [],
      "name": "loanInitiateForecloseBlock",
      "outputs": [
        {
          "internalType": "uint256",
          "name": "",
          "type": "uint256"
        }
      ],
      "stateMutability": "view",
      "type": "function"
    },
    {
      "inputs": [],
      "name": "loanParams",
      "outputs": [
        {
          "internalType": "uint256",
          "name": "minRpbRate",
          "type": "uint256"
        },
        {
          "internalType": "uint256",
          "name": "earlySettlementWindow",
          "type": "uint256"
        },
        {
          "internalType": "uint256",
          "name": "foreclosureWindow",
          "type": "uint256"
        },
        {
          "internalType": "uint8",
          "name": "requiredCollateralRatio",
          "type": "uint8"
        },
        {
          "internalType": "uint8",
          "name": "foreclosingRatio",
          "type": "uint8"
        },
        {
          "internalType": "uint8",
          "name": "instantForeclosureRatio",
          "type": "uint8"
        },
        {
          "internalType": "uint8",
          "name": "limitCollRatioForWithdraw",
          "type": "uint8"
        },
        {
          "internalType": "address",
          "name": "factoryAddress",
          "type": "address"
        },
        {
          "internalType": "address",
          "name": "ethDeployerAddress",
          "type": "address"
        },
        {
          "internalType": "address",
          "name": "tokenDeployerAddress",
          "type": "address"
        }
      ],
      "stateMutability": "view",
      "type": "function"
    },
    {
      "inputs": [],
      "name": "loanStatus",
      "outputs": [
        {
          "internalType": "enum IJLoanCommons.Status",
          "name": "",
          "type": "uint8"
        }
      ],
      "stateMutability": "view",
      "type": "function"
    },
    {
      "inputs": [
        {
          "internalType": "uint256",
          "name": "",
          "type": "uint256"
        }
      ],
      "name": "shareholders",
      "outputs": [
        {
          "internalType": "address",
          "name": "holder",
          "type": "address"
        },
        {
          "internalType": "uint256",
          "name": "shares",
          "type": "uint256"
        },
        {
          "internalType": "uint256",
          "name": "ownerBlockNumber",
          "type": "uint256"
        }
      ],
      "stateMutability": "view",
      "type": "function"
    },
    {
      "inputs": [
        {
          "internalType": "address",
          "name": "",
          "type": "address"
        }
      ],
      "name": "shareholdersAddress",
      "outputs": [
        {
          "internalType": "bool",
          "name": "",
          "type": "bool"
        }
      ],
      "stateMutability": "view",
      "type": "function"
    },
    {
      "inputs": [],
      "name": "shareholdersCounter",
      "outputs": [
        {
          "internalType": "uint256",
          "name": "",
          "type": "uint256"
        }
      ],
      "stateMutability": "view",
      "type": "function"
    },
    {
      "inputs": [
        {
          "internalType": "address",
          "name": "",
          "type": "address"
        }
      ],
      "name": "shareholdersPlace",
      "outputs": [
        {
          "internalType": "uint256",
          "name": "",
          "type": "uint256"
        }
      ],
      "stateMutability": "view",
      "type": "function"
    },
    {
      "stateMutability": "payable",
      "type": "receive"
    },
    {
      "inputs": [],
      "name": "setNewCommonParams",
      "outputs": [],
      "stateMutability": "nonpayable",
      "type": "function"
    },
    {
      "inputs": [],
      "name": "setNewFeesParams",
      "outputs": [],
      "stateMutability": "nonpayable",
      "type": "function"
    },
    {
      "inputs": [
        {
          "internalType": "uint256",
          "name": "_amount",
          "type": "uint256"
        }
      ],
      "name": "withdrawCollateral",
      "outputs": [],
      "stateMutability": "nonpayable",
      "type": "function"
    },
    {
      "inputs": [],
      "name": "getContractBalance",
      "outputs": [
        {
          "internalType": "uint256",
          "name": "",
          "type": "uint256"
        }
      ],
      "stateMutability": "view",
      "type": "function"
    },
    {
      "inputs": [],
      "name": "getLoanStatus",
      "outputs": [
        {
          "internalType": "uint256",
          "name": "",
          "type": "uint256"
        }
      ],
      "stateMutability": "view",
      "type": "function"
    },
    {
      "inputs": [],
      "name": "getPairPrice",
      "outputs": [
        {
          "internalType": "uint256",
          "name": "",
          "type": "uint256"
        }
      ],
      "stateMutability": "view",
      "type": "function"
    },
    {
      "inputs": [],
      "name": "getPairDecimals",
      "outputs": [
        {
          "internalType": "uint256",
          "name": "",
          "type": "uint256"
        }
      ],
      "stateMutability": "view",
      "type": "function"
    },
    {
      "inputs": [],
      "name": "checkLoanInEarlySettlementWindow",
      "outputs": [
        {
          "internalType": "bool",
          "name": "",
          "type": "bool"
        }
      ],
      "stateMutability": "view",
      "type": "function"
    },
    {
      "inputs": [],
      "name": "checkEarlySettledLoan",
      "outputs": [
        {
          "internalType": "bool",
          "name": "",
          "type": "bool"
        }
      ],
      "stateMutability": "view",
      "type": "function"
    },
    {
      "inputs": [],
      "name": "setInitalCollateralRatio",
      "outputs": [],
      "stateMutability": "nonpayable",
      "type": "function"
    },
    {
      "inputs": [],
      "name": "getActualCollateralRatio",
      "outputs": [
        {
          "internalType": "uint256",
          "name": "newCollRatio",
          "type": "uint256"
        }
      ],
      "stateMutability": "view",
      "type": "function"
    },
    {
      "inputs": [
        {
          "internalType": "uint256",
          "name": "_amount",
          "type": "uint256"
        }
      ],
      "name": "calcRatioAddingCollateral",
      "outputs": [
        {
          "internalType": "uint256",
          "name": "ratio",
          "type": "uint256"
        }
      ],
      "stateMutability": "view",
      "type": "function"
    },
    {
      "inputs": [
        {
          "internalType": "uint256",
          "name": "_ratio",
          "type": "uint256"
        }
      ],
      "name": "calcDiffCollAmountForRatio",
      "outputs": [
        {
          "internalType": "uint256",
          "name": "collDiff",
          "type": "uint256"
        }
      ],
      "stateMutability": "view",
      "type": "function"
    },
    {
      "inputs": [
        {
          "internalType": "address",
          "name": "_stableAddr",
          "type": "address"
        }
      ],
      "name": "lenderSendStableCoins",
      "outputs": [],
      "stateMutability": "nonpayable",
      "type": "function"
    },
    {
      "inputs": [],
      "name": "setLoanStatusOnCollRatio",
      "outputs": [
        {
          "internalType": "uint256",
          "name": "",
          "type": "uint256"
        }
      ],
      "stateMutability": "nonpayable",
      "type": "function"
    },
    {
      "inputs": [],
      "name": "initiateLoanForeclose",
      "outputs": [],
      "stateMutability": "nonpayable",
      "type": "function"
    },
    {
      "inputs": [],
      "name": "setLoanInForeclosedByTime",
      "outputs": [
        {
          "internalType": "bool",
          "name": "",
          "type": "bool"
        }
      ],
      "stateMutability": "nonpayable",
      "type": "function"
    },
    {
      "inputs": [],
      "name": "loanClosingByBorrower",
      "outputs": [],
      "stateMutability": "nonpayable",
      "type": "function"
    },
    {
      "inputs": [],
      "name": "setLoanCancelled",
      "outputs": [],
      "stateMutability": "nonpayable",
      "type": "function"
    },
    {
      "inputs": [
        {
          "internalType": "uint256",
          "name": "_calcBlk",
          "type": "uint256"
        }
      ],
      "name": "calculatingAccruedInterests",
      "outputs": [
        {
          "internalType": "uint256",
          "name": "",
          "type": "uint256"
        }
      ],
      "stateMutability": "view",
      "type": "function"
    },
    {
      "inputs": [],
      "name": "getAccruedInterests",
      "outputs": [
        {
          "internalType": "uint256",
          "name": "accruedInterests",
          "type": "uint256"
        }
      ],
      "stateMutability": "view",
      "type": "function"
    },
    {
      "inputs": [],
      "name": "withdrawInterests",
      "outputs": [
        {
          "internalType": "uint256",
          "name": "",
          "type": "uint256"
        }
      ],
      "stateMutability": "nonpayable",
      "type": "function"
    },
    {
      "inputs": [
        {
          "internalType": "address",
          "name": "_holder",
          "type": "address"
        }
      ],
      "name": "isShareholder",
      "outputs": [
        {
          "internalType": "bool",
          "name": "",
          "type": "bool"
        }
      ],
      "stateMutability": "view",
      "type": "function"
    },
    {
      "inputs": [
        {
          "internalType": "address",
          "name": "_holder",
          "type": "address"
        }
      ],
      "name": "getShareholderPlace",
      "outputs": [
        {
          "internalType": "uint256",
          "name": "",
          "type": "uint256"
        }
      ],
      "stateMutability": "view",
      "type": "function"
    },
    {
      "inputs": [
        {
          "internalType": "address",
          "name": "_newShareholder",
          "type": "address"
        },
        {
          "internalType": "uint256",
          "name": "_amount",
          "type": "uint256"
        }
      ],
      "name": "addLoanshareholders",
      "outputs": [
        {
          "internalType": "uint256",
          "name": "",
          "type": "uint256"
        }
      ],
      "stateMutability": "nonpayable",
      "type": "function"
    }
  ],
  "bytecode": "0x60806040526040516200372d3803806200372d833981016040819052620000269162000509565b6001600081905580546001600160a01b031916331790556001600160a01b0388166200006f5760405162461bcd60e51b8152600401620000669062000793565b60405180910390fd5b87600360006101000a8154816001600160a01b0302191690836001600160a01b03160217905550826001600160a01b0316634fd758796040518163ffffffff1660e01b81526004016101406040518083038186803b158015620000d157600080fd5b505afa158015620000e6573d6000803e3d6000fd5b505050506040513d601f19601f820116820180604052508101906200010c91906200063b565b80516005556020810151600655604080820151600755606082015160088054608085015160a086015160c087015160e08089015160ff1990951660ff9788161761ff00191661010094881685021762ff0000191662010000938816939093029290921763ff00000019166301000000969091169590950294909417600160201b600160c01b0319166401000000006001600160a01b03938416021790925590840151600980546001600160a01b031990811692841692909217905561012090940151600a8054909516908216179093558151631a55d9e960e01b8152915192861692631a55d9e9926004808201939291829003018186803b1580156200021157600080fd5b505afa15801562000226573d6000803e3d6000fd5b505050506040513d601f19601f820116820180604052508101906200024c91906200059a565b80516013556020810151601480546040808501516060860151608087015160a088015160c09098015160ff1990951660ff9788161761ff001916610100938816939093029290921762ff0000191662010000918716919091021763ff0000001916630100000095909116949094029390931761ffff60201b191664010000000061ffff958616021761ffff60301b19166601000000000000949091169390930292909217909155516310f15c6760e21b81526000906001600160a01b038516906343c5719c9062000324908a908a90600401620007c8565b60206040518083038186803b1580156200033d57600080fd5b505afa15801562000352573d6000803e3d6000fd5b505050506040513d601f19601f820116820180604052508101906200037891906200070e565b9050803410156200039d5760405162461bcd60e51b815260040162000066906200074c565b600280546001600160a01b0319166001600160a01b038416179055600554851015620003dd5760405162461bcd60e51b8152600401620000669062000770565b600b889055600c859055600f879055600480546001600160a01b038086166001600160a01b031990921691909117825560108890556011805460ff19166012179055604051633e17bdcb60e11b815290861691637c2f7b969162000444918b9101620007bf565b60206040518083038186803b1580156200045d57600080fd5b505afa15801562000472573d6000803e3d6000fd5b505050506040513d601f19601f8201168201806040525081019062000498919062000727565b6011805460ff929092166101000261ff0019909216919091179055505043600e5550506012805460ff1916905550620008169350505050565b8051620004de81620007fd565b92915050565b805161ffff81168114620004de57600080fd5b805160ff81168114620004de57600080fd5b600080600080600080600080610100898b03121562000526578384fd5b88516200053381620007fd565b809850506020890151965060408901519550606089015194506080890151935060a08901516200056381620007fd565b60c08a01519093506200057681620007fd565b60e08a01519092506200058981620007fd565b809150509295985092959890939650565b600060e08284031215620005ac578081fd5b620005b860e0620007d6565b82518152620005cb8460208501620004f7565b6020820152620005df8460408501620004f7565b6040820152620005f38460608501620004f7565b6060820152620006078460808501620004f7565b60808201526200061b8460a08501620004e4565b60a08201526200062f8460c08501620004e4565b60c08201529392505050565b60006101408083850312156200064f578182fd5b6200065a81620007d6565b835181526020840151602082015260408401516040820152620006818560608601620004f7565b6060820152620006958560808601620004f7565b6080820152620006a98560a08601620004f7565b60a0820152620006bd8560c08601620004f7565b60c0820152620006d18560e08601620004d1565b60e08201526101009150620006e985838601620004d1565b8282015261012091506200070085838601620004d1565b918101919091529392505050565b60006020828403121562000720578081fd5b5051919050565b60006020828403121562000739578081fd5b620007458383620004f7565b9392505050565b6020808252600a90820152690428adcdeeaced08ae8d60b31b604082015260600190565b602080825260099082015268525042546f6f4c6f7760b81b604082015260600190565b6020808252601290820152715f73656e6465725a65726f4164647265737360701b604082015260600190565b90815260200190565b918252602082015260400190565b6040518181016001600160401b0381118282101715620007f557600080fd5b604052919050565b6001600160a01b03811681146200081357600080fd5b50565b612f0780620008266000396000f3fe60806040526004361061026b5760003560e01c806382f0c81c11610144578063c0b27cc5116100b6578063e1c7111a1161007a578063e1c7111a14610713578063e936e44a14610728578063e9f33c5f1461073d578063ec98362e1461075d578063fb6222e814610772578063ff0d69a61461079257610302565b8063c0b27cc514610696578063c2b0bf58146106ab578063c55d2a47146106c0578063d20fbeb6146106d5578063d5138948146106ea57610302565b80639cf160f6116101085780639cf160f6146105e8578063a41969e5146105fd578063ab377daa1461061d578063acc1ab131461064c578063b2ca180514610661578063b89a73cb1461067657610302565b806382f0c81c1461057457806385b41696146105895780638b8141e11461059e578063918c3dbd146105b357806395dcc255146105c857610302565b806347c865df116101dd5780636dd167f8116101a15780636dd167f8146104eb5780636f9fb98a1461050057806372ef10311461051557806374014c4d1461052a5780637afb4b2f1461053f5780637ba61ea51461055f57610302565b806347c865df146104565780635ced2a111461046b5780636112fe2e1461048b57806363aebb28146104ab57806363ce2287146104cb57610302565b80631daeaaa91161022f5780631daeaaa9146103b6578063216c2490146103d857806328899423146104005780632a1f3cda146104155780633cf348c31461042c57806342ac33791461044157610302565b806306bb531e14610307578063074ca966146103325780630896962c1461035457806309e94d981461037657806318ad714a146103a157610302565b3661030257600160125460ff16600981111561028357fe5b101580156102a25750600460125460ff16600981111561029f57fe5b11155b6102c75760405162461bcd60e51b81526004016102be90612b48565b60405180910390fd5b7f85177f287940f2f05425a4029951af0e047a7f9c4eaa9a6e6917bcd869f8669533346040516102f89291906128b4565b60405180910390a1005b600080fd5b34801561031357600080fd5b5061031c6107a7565b6040516103299190612d07565b60405180910390f35b34801561033e57600080fd5b506103476108c1565b604051610329919061291d565b34801561036057600080fd5b506103696108ca565b6040516103299190612876565b34801561038257600080fd5b5061038b6108d9565b6040516103299a99989796959493929190612daa565b3480156103ad57600080fd5b5061031c610928565b3480156103c257600080fd5b506103cb6109ec565b6040516103299190612912565b3480156103e457600080fd5b506103ed610a23565b6040516103299796959493929190612e06565b34801561040c57600080fd5b506103cb610a63565b34801561042157600080fd5b5061042a610bda565b005b34801561043857600080fd5b506103cb610d5c565b34801561044d57600080fd5b5061031c610d77565b34801561046257600080fd5b5061031c610e01565b34801561047757600080fd5b5061031c61048636600461280f565b610e07565b34801561049757600080fd5b5061042a6104a636600461280f565b610e59565b3480156104b757600080fd5b5061031c6104c6366004612654565b610f5e565b3480156104d757600080fd5b506103cb6104e6366004612654565b610f70565b3480156104f757600080fd5b5061031c610f85565b34801561050c57600080fd5b5061031c610f8b565b34801561052157600080fd5b5061042a610f8f565b34801561053657600080fd5b5061042a610fb6565b34801561054b57600080fd5b5061031c61055a366004612670565b611160565b34801561056b57600080fd5b506103696113fb565b34801561058057600080fd5b5061031c61140a565b34801561059557600080fd5b5061031c6115ce565b3480156105aa57600080fd5b5061031c6115d4565b3480156105bf57600080fd5b5061042a6115da565b3480156105d457600080fd5b5061042a6105e3366004612654565b611731565b3480156105f457600080fd5b50610369611ace565b34801561060957600080fd5b5061031c61061836600461280f565b611add565b34801561062957600080fd5b5061063d61063836600461280f565b611b6e565b604051610329939291906128f1565b34801561065857600080fd5b5061031c611b99565b34801561066d57600080fd5b5061031c611bad565b34801561068257600080fd5b506103cb610691366004612654565b611bb3565b3480156106a257600080fd5b5061031c611bd1565b3480156106b757600080fd5b5061042a611bd7565b3480156106cc57600080fd5b5061031c611cfc565b3480156106e157600080fd5b5061031c611d02565b3480156106f657600080fd5b506106ff611dc1565b604051610329989796959493929190612d6e565b34801561071f57600080fd5b50610369611de5565b34801561073457600080fd5b5061031c611df4565b34801561074957600080fd5b5061031c610758366004612654565b611e86565b34801561076957600080fd5b5061042a611ea1565b34801561077e57600080fd5b5061031c61078d36600461280f565b612162565b34801561079e57600080fd5b5061031c6121a3565b601254600090819060ff1660098111156107bd57fe5b1180156107db575060125460059060ff1660098111156107d957fe5b105b156108745760006107ea611d02565b600854909150610100900460ff168110610815576012805460ff191660011790556000601a55610872565b600854610100900460ff16811180159061083a575060085462010000900460ff168110155b15610851576012805460ff19166002179055610872565b60085462010000900460ff16811015610872576012805460ff191660031790555b505b601254600080516020612eb28339815191529060ff16600981111561089557fe5b6040516108a29190612d07565b60405180910390a160125460ff1660098111156108bb57fe5b90505b90565b60125460ff1681565b6001546001600160a01b031681565b600554600654600754600854600954600a5460ff80841693610100810482169362010000820483169363010000008304909316926001600160a01b03600160201b90930483169291821691168a565b601254600090819060ff16600981111561093e57fe5b11801561095c575060125460089060ff16600981111561095a57fe5b105b156109e65760065460155460009161097a919063ffffffff6121a916565b9050600660125460ff16600981111561098f57fe5b14801561099c5750804311155b156109b1576109aa81610e07565b91506109d4565b601854156109c8576109aa610486601854436121d5565b6109d143610e07565b91505b478211156109e0574791505b506108be565b50600090565b6006546015546000918291610a069163ffffffff6121a916565b9050804311610a195760019150506108be565b60009150506108be565b60135460145460ff808216916101008104821691620100008204811691630100000081049091169061ffff600160201b8204811691600160301b90041687565b600060026000541415610a885760405162461bcd60e51b81526004016102be90612cd0565b600260005560125460ff166009811115610a9e57fe5b600414610abd5760405162461bcd60e51b81526004016102be90612b6b565b601a5460009015801590610ae55750600754601a54610ae19163ffffffff6121a916565b4310155b15610bd057600c54601454600091610b0891600160301b900461ffff16906121eb565b905047600080838310610b6e57601454610b3e90606490610b32908790610100900460ff166121eb565b9063ffffffff61222516565b601454909250610b5f90606490610b3290879062010000900460ff166121eb565b9050610b69612267565b610ba7565b601454610b8b90606490610b32908690610100900460ff166121eb565b9150610b9d838363ffffffff6122b816565b9050610ba76122fa565b60019450610bb53383612312565b600254610bcb906001600160a01b031682612312565b505050505b9050600160005590565b6001546001600160a01b03163314610c045760405162461bcd60e51b81526004016102be90612afe565b600560030160049054906101000a90046001600160a01b03166001600160a01b0316634fd758796040518163ffffffff1660e01b81526004016101406040518083038186803b158015610c5657600080fd5b505afa158015610c6a573d6000803e3d6000fd5b505050506040513d601f19601f82011682018060405250810190610c8e919061274d565b805160055560208101516006556040810151600755606081015160088054608084015160a085015160c086015160e087015160ff1990941660ff9687161761ff00191661010093871684021762ff0000191662010000928716929092029190911763ff00000019166301000000959091169490940293909317640100000000600160c01b031916600160201b6001600160a01b03928316021790915590820151600980546001600160a01b031990811692841692909217905561012090920151600a80549093169116179055565b6000600660125460ff166009811115610d7157fe5b14905090565b600854600f54604051631334f8cd60e11b8152600092600160201b90046001600160a01b031691632669f19a91610db19190600401612d07565b60206040518083038186803b158015610dc957600080fd5b505afa158015610ddd573d6000803e3d6000fd5b505050506040513d601f19601f820116820180604052508101906108bb9190612827565b60195481565b6000601954821015610e2b5760405162461bcd60e51b81526004016102be90612c15565b600c54601954610e539190610e4790859063ffffffff6122b816565b9063ffffffff6121eb16565b92915050565b60026000541415610e7c5760405162461bcd60e51b81526004016102be90612cd0565b60026000556003546001600160a01b03163314610eab5760405162461bcd60e51b81526004016102be90612a88565b6000610eb56107a7565b90506001811115610ed85760405162461bcd60e51b81526004016102be90612bce565b600854600090610ef1906301000000900460ff16611add565b905080831115610f135760405162461bcd60e51b81526004016102be9061299b565b610f1d3384612312565b7ffc226bcc04f8f8905af4229a5d361773b6bb568167898414274c713c6179e6cb83604051610f4c9190612d07565b60405180910390a15050600160005550565b601e6020526000908152604090205481565b601d6020526000908152604090205460ff1681565b60175481565b4790565b600060125460ff166009811115610fa257fe5b1415610fb457610fb0611d02565b600d555b565b60026000541415610fd95760405162461bcd60e51b81526004016102be90612cd0565b60026000908155610fe86107a7565b90508060021480610ff95750806003145b6110155760405162461bcd60e51b81526004016102be90612a2e565b6000816002141561104b57600c5460145461103c91600160201b90910461ffff16906121eb565b90506110466123a4565b611071565b600c5460145461106791600160301b90910461ffff16906121eb565b9050611071612267565b43601655476000808383106110c55760145461109d90606490610b32908790610100900460ff166121eb565b6014549092506110be90606490610b3290879062010000900460ff166121eb565b90506110fe565b6014546110e290606490610b32908690610100900460ff166121eb565b91506110f4838363ffffffff6122b816565b90506110fe6122fa565b601254600080516020612eb28339815191529060ff16600981111561111f57fe5b60405161112c9190612d07565b60405180910390a161113e3383612312565b600254611154906001600160a01b031682612312565b50506001600055505050565b6000600260005414156111855760405162461bcd60e51b81526004016102be90612cd0565b600260005561119333611bb3565b6111af5760405162461bcd60e51b81526004016102be90612a08565b60006111ba33611e86565b9050600081116111dc5760405162461bcd60e51b81526004016102be90612c8c565b6000818152601c602052604090206001015483111561120d5760405162461bcd60e51b81526004016102be90612b21565b6006546015540143116112325760405162461bcd60e51b81526004016102be90612c40565b600061123c610928565b905060015b601f548160ff161161127b5760ff81166000908152601c6020526040902054611273906001600160a01b0316836123f2565b600101611241565b506000828152601c602052604090206001015461129e908563ffffffff6122b816565b6000838152601c60205260409020600101556112b985611bb3565b61135857601f546112d190600163ffffffff6121a916565b601f818155604080516060810182526001600160a01b0389811680835260208084018b8152438587019081526000988952601c8352868920955186546001600160a01b03191695169490941785555160018086019190915592516002909401939093558552601d8252828520805460ff191690911790559154601e909252909120556113de565b600061136386611e86565b6000818152601c6020526040902060010154909150611388908663ffffffff6121a916565b6000828152601c6020526040808220600181019390935543600290930192909255905186916001600160a01b038916917f54f902ae1377e1ef1cab3eedb2bea3c964c6351a6b506ddca5ffdaddb919d3999190a3505b4360195560006113ec6107a7565b60016000559695505050505050565b6003546001600160a01b031681565b60006002600054141561142f5760405162461bcd60e51b81526004016102be90612cd0565b6002600090815560125460ff16600981111561144757fe5b118015611465575060125460089060ff16600981111561146357fe5b105b6114815760405162461bcd60e51b81526004016102be90612aab565b60125460009060ff16600981111561149557fe5b90504760006114a2610928565b90508082106115055760015b601f548160ff16116114e85760ff81166000908152601c60205260409020546114e0906001600160a01b0316836123f2565b6001016114ae565b504360195560038311611500576114fd6107a7565b92505b61158b565b81158015611517575061151733611bb3565b15611524576115006122fa565b60015b601f548160ff16116115615760ff81166000908152601c6020526040902054611559906001600160a01b0316846123f2565b600101611527565b504360198190556018556012805460ff19166008179081905560ff16600981111561158857fe5b92505b7ff33d854b742e78ac685b76a9d8ba08da4c16f567a3d4464742ccfb706c1f08bb816040516115ba9190612d07565b60405180910390a150506001600055919050565b601f5481565b60165481565b6001546001600160a01b031633146116045760405162461bcd60e51b81526004016102be90612afe565b600560030160049054906101000a90046001600160a01b03166001600160a01b0316631a55d9e96040518163ffffffff1660e01b815260040160e06040518083038186803b15801561165557600080fd5b505afa158015611669573d6000803e3d6000fd5b505050506040513d601f19601f8201168201806040525081019061168d91906126bb565b805160135560208101516014805460408401516060850151608086015160a087015160c09097015160ff1990941660ff9687161761ff001916610100938716939093029290921762ff0000191662010000918616919091021763ff0000001916630100000094909116939093029290921765ffff000000001916600160201b61ffff948516021767ffff0000000000001916600160301b9390921692909202179055565b600260005414156117545760405162461bcd60e51b81526004016102be90612cd0565b60026000556004546001600160a01b038281169116146117865760405162461bcd60e51b81526004016102be90612cae565b600060125460ff16600981111561179957fe5b146117b65760405162461bcd60e51b81526004016102be906129bc565b60095460105460405163bd0d151f60e01b81526001600160a01b039092169163bd0d151f916117ee913391869130919060040161288a565b60206040518083038186803b15801561180657600080fd5b505afa15801561181a573d6000803e3d6000fd5b505050506040513d601f19601f8201168201806040525081019061183e919061269b565b61185a5760405162461bcd60e51b81526004016102be90612bf1565b6001601f8181556040805160608101825233808252606460208084019182526015548486019081526000888152601c835294517f6de76108811faf2f94afbe5ac6c98e8393206cd093932de1fbfd61bbeec43a0280546001600160a01b0319166001600160a01b0390921691909117905591517f6de76108811faf2f94afbe5ac6c98e8393206cd093932de1fbfd61bbeec43a035590517f6de76108811faf2f94afbe5ac6c98e8393206cd093932de1fbfd61bbeec43a0455908252601d8152828220805460ff1990811687179091559354601e90915291902055601280549091168280021790555043601581905560195560045460035460105461196f926001600160a01b03908116923392911690612488565b600854600f5460105460405163c175771b60e01b8152600093600160201b90046001600160a01b03169263c175771b926119ab92600401612d3c565b60206040518083038186803b1580156119c357600080fd5b505afa1580156119d7573d6000803e3d6000fd5b505050506040513d601f19601f820116820180604052508101906119fb9190612827565b600854604051632976f2fb60e11b8152919250600091600160201b9091046001600160a01b0316906352ede5f690611a37908590600401612d07565b60206040518083038186803b158015611a4f57600080fd5b505afa158015611a63573d6000803e3d6000fd5b505050506040513d601f19601f82011682018060405250810190611a879190612827565b600254909150611aa0906001600160a01b031682612312565b601254600080516020612eb28339815191529060ff166009811115611ac157fe5b604051610f4c9190612d07565b6002546001600160a01b031681565b600854600f5460105460405163ad87c71d60e01b8152600093600160201b90046001600160a01b03169263ad87c71d92611b1e928792913091600401612d4a565b60206040518083038186803b158015611b3657600080fd5b505afa158015611b4a573d6000803e3d6000fd5b505050506040513d601f19601f82011682018060405250810190610e539190612827565b601c602052600090815260409020805460018201546002909201546001600160a01b03909116919083565b60125460009060ff1660098111156108bb57fe5b60155481565b6001600160a01b03166000908152601d602052604090205460ff1690565b601a5481565b60026000541415611bfa5760405162461bcd60e51b81526004016102be90612cd0565b60026000556003546001600160a01b03163314611c295760405162461bcd60e51b81526004016102be90612a88565b60125460ff166009811115611c3a57fe5b15611c575760405162461bcd60e51b81526004016102be906129bc565b601454600090611c7990606490610b329047906301000000900460ff166121eb565b90506000611c8d478363ffffffff6122b816565b6012805460ff19166009179055600254909150611cb3906001600160a01b031683612312565b611cbd3382612312565b601254600080516020612eb28339815191529060ff166009811115611cde57fe5b604051611ceb9190612d07565b60405180910390a150506001600055565b60185481565b600080611d0d610928565b600854600f54601254929350600160201b9091046001600160a01b031691630daf18779190309060ff166009811115611d4257fe5b6010546040516001600160e01b031960e087901b168152611d6b94939291908890600401612d10565b60206040518083038186803b158015611d8357600080fd5b505afa158015611d97573d6000803e3d6000fd5b505050506040513d601f19601f82011682018060405250810190611dbb9190612827565b91505090565b600b54600c54600d54600e54600f5460105460115460ff8082169161010090041688565b6004546001600160a01b031681565b600854600f54604051632bd61f0560e11b8152600092600160201b90046001600160a01b0316916357ac3e0a91611e2e9190600401612d07565b60206040518083038186803b158015611e4657600080fd5b505afa158015611e5a573d6000803e3d6000fd5b505050506040513d601f19601f82011682018060405250810190611e7e919061283f565b60ff16905090565b6001600160a01b03166000908152601e602052604090205490565b60026000541415611ec45760405162461bcd60e51b81526004016102be90612cd0565b60026000556003546001600160a01b03163314611ef35760405162461bcd60e51b81526004016102be90612a88565b6000611efd6107a7565b9050600081118015611f10575060048111155b611f2c5760405162461bcd60e51b81526004016102be90612b48565b6009546004805460105460405163bd0d151f60e01b81526001600160a01b039485169463bd0d151f94611f679433949216923092910161288a565b60206040518083038186803b158015611f7f57600080fd5b505afa158015611f93573d6000803e3d6000fd5b505050506040513d601f19601f82011682018060405250810190611fb7919061269b565b611fd35760405162461bcd60e51b81526004016102be906129de565b60065460155460009101431015611ff357611fec612579565b9050611ffe565b611ffb610928565b90505b6000600660125460ff16600981111561201357fe5b141561203157600c5460135461202e9163ffffffff6121eb16565b90505b476000612044848463ffffffff6121a916565b436017556012805460ff191660071790559050600081831061207357612070838363ffffffff6122b816565b90505b60015b601f548160ff16116120fe5760ff81166000908152601c60205260408120546001600160a01b0316906120a882611e86565b6000818152601c602052604090206001015460045460105492935090916120f3916001600160a01b031690339086906120ee90606490610b32908863ffffffff6121eb16565b612488565b505050600101612076565b506121093382612312565b60025461211f906001600160a01b031685612312565b601254600080516020612eb28339815191529060ff16600981111561214057fe5b60405161214d9190612d07565b60405180910390a15050600160005550505050565b600854600f5460105460405163dd9ffdb560e01b8152600093600160201b90046001600160a01b03169263dd9ffdb592611b1e928792913091600401612d4a565b601b5481565b6000828201838110156121ce5760405162461bcd60e51b81526004016102be90612a51565b9392505050565b60008183106121e457816121ce565b5090919050565b6000826121fa57506000610e53565b8282028284828161220757fe5b04146121ce5760405162461bcd60e51b81526004016102be90612b8d565b60006121ce83836040518060400160405280601a81526020017f536166654d6174683a206469766973696f6e206279207a65726f0000000000008152506125c3565b43601b55601280546005919060ff19166001835b0217905550601254600080516020612eb28339815191529060ff1660098111156122a157fe5b6040516122ae9190612d07565b60405180910390a1565b60006121ce83836040518060400160405280601e81526020017f536166654d6174683a207375627472616374696f6e206f766572666c6f7700008152506125fa565b43601855601280546008919060ff191660018361227b565b604080516000808252602082019092526001600160a01b03841690839060405161233c919061285a565b60006040518083038185875af1925050503d8060008114612379576040519150601f19603f3d011682016040523d82523d6000602084013e61237e565b606091505b505090508061239f5760405162461bcd60e51b81526004016102be90612ace565b505050565b6012805460ff1916600417905543601a81905560405133917ff542b84b1e49b5bef195e1e1949cf1eb789fbe49c059b62a89f24af3c6f71d8f916123e89190612d07565b60405180910390a2565b6123fb82611bb3565b6124175760405162461bcd60e51b81526004016102be90612a08565b60015b601f548160ff161161239f5760ff81166000908152601c602052604081205461244b906001600160a01b0316611e86565b6000818152601c602052604090206001015490915061247e856124796064610b32888663ffffffff6121eb16565b612312565b505060010161241a565b60006060856001600160a01b03166323b872dd8686866040516024016124b0939291906128cd565b6040516020818303038152906040529060e01b6020820180516001600160e01b0383818316178352505050506040516124e9919061285a565b6000604051808303816000865af19150503d8060008114612526576040519150601f19603f3d011682016040523d82523d6000602084013e61252b565b606091505b5091509150818015612555575080511580612555575080806020019051810190612555919061269b565b6125715760405162461bcd60e51b81526004016102be90612964565b505050505050565b6006546015546000910143106125a15760405162461bcd60e51b81526004016102be90612c65565b6012805460ff19166006908117909155600c549054600091611dbb91906121eb565b600081836125e45760405162461bcd60e51b81526004016102be9190612931565b5060008385816125f057fe5b0495945050505050565b6000818484111561261e5760405162461bcd60e51b81526004016102be9190612931565b505050900390565b8051610e5381612e99565b805161ffff81168114610e5357600080fd5b805160ff81168114610e5357600080fd5b600060208284031215612665578081fd5b81356121ce81612e99565b60008060408385031215612682578081fd5b823561268d81612e99565b946020939093013593505050565b6000602082840312156126ac578081fd5b815180151581146121ce578182fd5b600060e082840312156126cc578081fd5b6126d660e0612e42565b825181526126e78460208501612643565b60208201526126f98460408501612643565b604082015261270b8460608501612643565b606082015261271d8460808501612643565b608082015261272f8460a08501612631565b60a08201526127418460c08501612631565b60c08201529392505050565b6000610140808385031215612760578182fd5b61276981612e42565b83518152602084015160208201526040840151604082015261278e8560608601612643565b60608201526127a08560808601612643565b60808201526127b28560a08601612643565b60a08201526127c48560c08601612643565b60c08201526127d68560e08601612626565b60e082015261010091506127ec85838601612626565b82820152610120915061280185838601612626565b918101919091529392505050565b600060208284031215612820578081fd5b5035919050565b600060208284031215612838578081fd5b5051919050565b600060208284031215612850578081fd5b6121ce8383612643565b6000825161286c818460208701612e69565b9190910192915050565b6001600160a01b0391909116815260200190565b6001600160a01b039485168152928416602084015292166040820152606081019190915260800190565b6001600160a01b03929092168252602082015260400190565b6001600160a01b039384168152919092166020820152604081019190915260600190565b6001600160a01b039390931683526020830191909152604082015260600190565b901515815260200190565b60208101600a831061292b57fe5b91905290565b6000602082528251806020840152612950816040850160208701612e69565b601f01601f19169190910160400192915050565b60208082526017908201527f5448205452414e534645525f46524f4d5f4641494c4544000000000000000000604082015260600190565b6020808252600790820152660a8dede9aeac6d60cb1b604082015260600190565b602080825260089082015267021537461747573360c41b604082015260600190565b60208082526010908201526f21616c6c6f77616e6365536574746c6560801b604082015260600190565b6020808252600c908201526b10b9b430b932b437b63232b960a11b604082015260600190565b60208082526009908201526821537461747573323360b81b604082015260600190565b6020808252601b908201527f536166654d6174683a206164646974696f6e206f766572666c6f770000000000604082015260600190565b60208082526009908201526810b137b93937bbb2b960b91b604082015260600190565b60208082526009908201526821537461747573313760b81b604082015260600190565b60208082526016908201527515120811551217d514905394d1915497d1905253115160521b604082015260600190565b60208082526009908201526810b232b83637bcb2b960b91b604082015260600190565b6020808252600d908201526c21656e6f75676853686172657360981b604082015260600190565b6020808252600990820152680854dd185d1d5ccc4d60ba1b604082015260600190565b6020808252600890820152670854dd185d1d5ccd60c21b604082015260600190565b60208082526021908201527f536166654d6174683a206d756c7469706c69636174696f6e206f766572666c6f6040820152607760f81b606082015260800190565b60208082526009908201526821537461747573303160b81b604082015260600190565b6020808252600a908201526921616c6c6f77616e636560b01b604082015260600190565b60208082526011908201527010bb30b634b2213637b1b5a73ab6b132b960791b604082015260600190565b6020808252600b908201526a6561726c7957696e646f7760a81b604082015260600190565b6020808252600d908201526c214561726c79436c6f73696e6760981b604082015260600190565b602080825260089082015267217368506c61636560c01b604082015260600190565b60208082526008908201526721546f6b656e4f6b60c01b604082015260600190565b6020808252601f908201527f5265656e7472616e637947756172643a207265656e7472616e742063616c6c00604082015260600190565b90815260200190565b9485526001600160a01b0393909316602085015260408401919091526060830152608082015260a00190565b918252602082015260400190565b93845260208401929092526001600160a01b03166040830152606082015260800190565b978852602088019690965260408701949094526060860192909252608085015260a084015260ff90811660c08401521660e08201526101000190565b998a5260208a0198909852604089019690965260ff9485166060890152928416608088015290831660a087015290911660c08501526001600160a01b0390811660e0850152908116610100840152166101208201526101400190565b96875260ff958616602088015293851660408701529184166060860152909216608084015261ffff91821660a08401521660c082015260e00190565b60405181810167ffffffffffffffff81118282101715612e6157600080fd5b604052919050565b60005b83811015612e84578181015183820152602001612e6c565b83811115612e93576000848401525b50505050565b6001600160a01b0381168114612eae57600080fd5b5056fee096f951d62ec2072f7a4b5b750e0f9b7a55b9c4cbfa1f516b496cb58d7dff6fa2646970667358221220622afe267ac0486ddcb7b8e0ea7a1695ff39eebbcdaef7f93f2776e2fcb89b1864736f6c634300060b0033",
  "immutableReferences": {},
  "source": "// SPDX-License-Identifier: MIT\n\npragma solidity 0.6.11;\npragma experimental ABIEncoderV2;\n\nimport \"@openzeppelin/contracts/math/SafeMath.sol\";\nimport \"@openzeppelin/contracts/math/Math.sol\";\nimport \"@openzeppelin/contracts/utils/ReentrancyGuard.sol\";\nimport \"./IJLoanCommons.sol\";\nimport \"./IJLoanEth.sol\";\nimport \"./IJFactory.sol\";\nimport \"./TransferHelper.sol\";\nimport \"./IJLoanEthDeployer.sol\";\n\n\ncontract JLoanEth is ReentrancyGuard, IJLoanCommons {\n    using SafeMath for uint;\n\n    address public ethDeployer;\n    address payable public feesCollector;\n\n    address public borrowerAddress;\n\n    address public lentToken;\n\n    GeneralParams public loanParams;\n    ContractParams public commonParams;\n    Status public loanStatus;\n    FeesParams public loanFees;\n    \n    uint public loanActiveBlock;\n    uint public loanInitiateForecloseBlock;\n    uint public loanClosingBlock;\n    uint public loanClosedBlock;\n    uint public lastInterestWithdrawalBlock;\n    uint public loanForeclosingBlock;\n    uint public loanForeclosedBlock;\n\n    struct Shareholder {\n        address holder;\n        uint shares;\n        uint ownerBlockNumber;\n    }\n\n    mapping(uint => Shareholder) public shareholders;\n    mapping(address => bool) public shareholdersAddress;\n    mapping(address => uint) public shareholdersPlace;\n    uint public shareholdersCounter;\n\n    event EthReceived(address sender, uint value);\n    event WithdrawCollateral(uint amount);\n    event LoanForeclosing(address indexed sender, uint blockNumber);\n    event NewLoanStatus(uint loanStatus);\n    event AddShareholderShares(address indexed sharesBuyer, uint indexed amount);\n    event InterestsWithdrawed(uint accruedInterests);\n\n    //// Status = 0\n    constructor(address _sender,\n                uint _id, \n                uint _pairId, \n                uint _borrowedAskAmount, \n                uint _rpbRate, \n                address _factoryAddress,\n                address _lendCrypto,\n                address payable _ethFeesCollector) public payable {\n        ethDeployer = msg.sender;\n        require(_sender!=address(0), \"_senderZeroAddress\");\n        borrowerAddress = _sender;\n        loanParams = IJFactory(_factoryAddress).getGeneralParams();\n        loanFees = IJFactory(_factoryAddress).getGeneralFees();\n        uint256 totalCollateralRequest = IJFactory(_factoryAddress).calcMinCollateralWithFeesAmount(_pairId, _borrowedAskAmount);\n        require(msg.value >= totalCollateralRequest, \"!EnoughEth\");\n        feesCollector = _ethFeesCollector;\n        require(_rpbRate >= loanParams.minRpbRate, \"RPBTooLow\");\n        commonParams.loanId = _id;\n        commonParams.rpbRate = _rpbRate;\n        commonParams.pairId = _pairId;\n        lentToken = _lendCrypto; //DAI\n        commonParams.borrowedAskAmount = _borrowedAskAmount;\n        commonParams.collDecimals = uint8(18); //eth decimals\n        commonParams.lendDecimals = IJFactory(_factoryAddress).getPairQuoteDecimals(_pairId); //lend token decimals\n        commonParams.creationBlock = block.number;\n        loanStatus = Status.pending;\n    }\n\n    modifier onlyEthDeployer() {\n        require(msg.sender == ethDeployer, \"!deployer\");\n        _;\n    }\n\n    receive() external payable { //deposit eth\n        require(loanStatus >= Status.active && loanStatus <= Status.foreclosing, \"!Status14\");\n        emit EthReceived(msg.sender, msg.value);\n    }\n\n    //// Utility functions\n    /**\n    * @dev set common parameters in loan contract, reading them from factory\n    */\n    function setNewCommonParams() external onlyEthDeployer {\n        loanParams = IJFactory(loanParams.factoryAddress).getGeneralParams();\n    }\n\n    /**\n    * @dev set common parameters in loan contract, reading them from factory\n    */\n    function setNewFeesParams() external onlyEthDeployer {\n        loanFees = IJFactory(loanParams.factoryAddress).getGeneralFees();\n    }\n\n    /**\n    * @dev withdraw ethers from contract, every shareholder with his percentage\n    */\n    function withdrawCollateral(uint _amount) public nonReentrant {\n        require(msg.sender == borrowerAddress, \"!borrower\");\n        uint status = setLoanStatusOnCollRatio();\n        require(status <= 1, \"!Status01\");\n        uint withdrawalAmount = calcDiffCollAmountForRatio(loanParams.limitCollRatioForWithdraw);\n        require(_amount <= withdrawalAmount, \"TooMuch\");\n        TransferHelper.safeTransferETH(msg.sender, _amount);\n        emit WithdrawCollateral(_amount);\n    }\n\n    /**\n    * @dev get contract balance\n    * @return balance\n    */\n    function getContractBalance() external view returns (uint) {\n        return address(this).balance;\n    }\n\n    /**\n    * @dev get contract status\n    * @return status\n    */\n    function getLoanStatus() external view returns (uint){\n        return uint(loanStatus);\n    }\n\n    /**\n    * @dev get pair price\n    * @return price\n    */\n    function getPairPrice() public view returns (uint){\n        return IJFactory(loanParams.factoryAddress).getPairValue(commonParams.pairId);\n    }\n\n    /**\n    * @dev get pair decimals\n    * @return number of decimals\n    */\n    function getPairDecimals() public view returns (uint){\n        return IJFactory(loanParams.factoryAddress).getPairDecimals(commonParams.pairId);\n    }\n\n    /**\n    * @dev check if loan is in early settlement period\n    * @return boolean\n    */\n    function checkLoanInEarlySettlementWindow() external view returns (bool) {\n        uint lastEarlyBlock = loanActiveBlock.add(loanParams.earlySettlementWindow);\n        if (block.number <= lastEarlyBlock)\n            return true;\n        else\n            return false;\n    }\n\n    /**\n    * @dev check if loan is settled in early settlement period\n    * @return boolean\n    */\n    function checkEarlySettledLoan() external view returns (bool) {\n        return loanStatus == Status.earlyClosing;\n    }\n\n    /**\n    * @dev set initial collateral ratio of the loan\n    */\n    function setInitalCollateralRatio() external {\n        if (loanStatus == Status.pending)\n            commonParams.initialCollateralRatio = getActualCollateralRatio();\n    }\n\n    /**\n    * @dev get the collateral ratio of the loan (subtracting the accrued interests)\n    * @return newCollRatio collateral ratio\n    */\n    function getActualCollateralRatio() public view returns (uint newCollRatio) {\n        uint accruedInterests = getAccruedInterests();\n        newCollRatio = IJFactory(loanParams.factoryAddress).getActualCollateralRatio(commonParams.pairId, \n                address(this), uint(loanStatus), commonParams.borrowedAskAmount, accruedInterests);\n        return newCollRatio;\n    }\n\n    /**\n    * @dev calc a new ratio if collateral amount has added to contract balance\n    * @param _amount collateral amount to add\n    * @return ratio new collateral ratio, percentage with no decimals\n    */\n    function calcRatioAddingCollateral(uint _amount) external view returns (uint ratio) {\n        ratio = IJFactory(loanParams.factoryAddress).calcRatioAddingCollateral(_amount, commonParams.pairId, address(this), commonParams.borrowedAskAmount);\n        return ratio;\n    }\n\n    /**\n    * @dev calc how much collateral amount has to be added to have a ratio\n    * @param _ratio ratio to reach, percentage with no decimals (180 means 180%)\n    * @return collDiff collateral amount to add or to subtract to reach that ratio\n    */\n    function calcDiffCollAmountForRatio(uint _ratio) public view returns (uint collDiff) {\n        collDiff = IJFactory(loanParams.factoryAddress).calcDiffCollAmountForRatio(_ratio, commonParams.pairId, address(this), commonParams.borrowedAskAmount);\n        return collDiff;\n    }\n\n    //// Status 0 -> 1\n    /**\n    * @dev lender sends required stable coins to borrower and set the initial lender as a stakeholder (100%)\n    * @param _stableAddr, address of the stabl coin address\n    */\n    function lenderSendStableCoins(address _stableAddr) external nonReentrant {\n        require(_stableAddr == lentToken, \"!TokenOk\");\n        require(loanStatus == Status.pending, \"!Status0\");\n        require(IJLoanEthDeployer(loanParams.ethDeployerAddress).checkAllowance(msg.sender, _stableAddr, address(this), commonParams.borrowedAskAmount), \"!allowance\");\n        shareholdersCounter = 1;\n        shareholders[shareholdersCounter] = Shareholder({holder: msg.sender, shares: 100, ownerBlockNumber: loanActiveBlock});\n        shareholdersAddress[msg.sender] = true;\n        shareholdersPlace[msg.sender] = shareholdersCounter;\n        loanStatus = Status.active;\n        loanActiveBlock = block.number;\n        lastInterestWithdrawalBlock = block.number;\n        TransferHelper.safeTransferFrom(lentToken, msg.sender, borrowerAddress, commonParams.borrowedAskAmount);\n        // move factory fees only when loan becomes active\n        uint minCollateralEth = IJFactory(loanParams.factoryAddress).calcMinCollateralAmount(commonParams.pairId, commonParams.borrowedAskAmount);\n        uint fees4Factory = IJFactory(loanParams.factoryAddress).calculateCollFeesOnActivation(minCollateralEth); // 5/1000 = 0,5%\n        TransferHelper.safeTransferETH(payable(feesCollector), fees4Factory);\n        emit NewLoanStatus(uint(loanStatus));\n    }\n\n    //// Status 1 or 2 or 3, based on collateral ratio\n    /**\n    * @dev set the status of the loan based on collateral ratio, applied only in states allowed \n    * @return loan status\n    */\n    function setLoanStatusOnCollRatio() public returns (uint){\n        if (uint(loanStatus) > 0 && uint(loanStatus) < 5) {     //not allowed if loan not active or foreclosed or in closing status or closed\n            uint newCollRatio = getActualCollateralRatio(); // (i.e. 180 means 180%)\n            if ( newCollRatio >= loanParams.foreclosingRatio ) {\n                loanStatus = Status(1);\n                loanForeclosingBlock = 0;   //reset foreclosing block\n            } else if ( newCollRatio <= loanParams.foreclosingRatio && newCollRatio >= loanParams.instantForeclosureRatio ) {\n                loanStatus = Status(2);\n            } else if ( newCollRatio < loanParams.instantForeclosureRatio ) {\n                loanStatus = Status(3);\n            }  \n        }\n        // else no change on status\n        emit NewLoanStatus(uint(loanStatus));\n        return uint(loanStatus);\n    }\n\n    //// Status 4 or 5, starting from 2 or 3, depending on collateral ratio\n    /**\n    * @dev set the loan in foreclosure state for undercollateralized loans\n    */\n    function initiateLoanForeclose() external nonReentrant {\n        uint status = setLoanStatusOnCollRatio();\n        require(status == 2 || status == 3, \"!Status23\");\n        uint reward;\n        if (status == 2) {\n            reward = uint(loanFees.undercollateralizedForeclosingMultiple).mul(commonParams.rpbRate);\n            setLoanForeclosing();\n        } else {\n            reward = uint(loanFees.atRiskForeclosedMultiple).mul(commonParams.rpbRate);\n            setLoanForeclosed();\n        }\n        uint bal = address(this).balance;\n        loanInitiateForecloseBlock = block.number;\n        uint userFees;\n        uint vaultFees;\n        if (bal >= reward) {\n            userFees = reward.mul(loanFees.userRewardShare).div(100);\n            vaultFees = reward.mul(loanFees.vaultShare).div(100);\n        } else {\n            userFees = bal.mul(loanFees.userRewardShare).div(100);\n            vaultFees = bal.sub(userFees);\n            setLoanClosed();\n        }\n        emit NewLoanStatus(uint(loanStatus));\n        TransferHelper.safeTransferETH(msg.sender, userFees);\n        TransferHelper.safeTransferETH(payable(feesCollector), vaultFees);\n    }\n\n    //// Status 2 -> 4\n    /**\n    * @dev set the loan in foreclosure state for undercollateralized loans\n    */\n    function setLoanForeclosing() internal {\n        loanStatus = Status.foreclosing;\n        // get the block to calculate time to set it in foreclosed if no actions from the borrower\n        loanForeclosingBlock = block.number;\n        emit LoanForeclosing(msg.sender, block.number);\n    }\n\n    /**\n    * @dev set the loan in foreclosed state when foreclosureWindow time passed\n    */\n    function setLoanInForeclosedByTime() external nonReentrant returns (bool) {\n        require(uint(loanStatus) == 4, \"!Status4\");\n        bool result = false;\n        if (loanForeclosingBlock != 0 && block.number >= loanForeclosingBlock.add(loanParams.foreclosureWindow)) {\n            uint reward = uint(loanFees.atRiskForeclosedMultiple).mul(commonParams.rpbRate);\n            uint bal = address(this).balance;\n            uint userFees;\n            uint vaultFees;\n            if (bal >= reward) {\n                userFees = reward.mul(loanFees.userRewardShare).div(100);\n                vaultFees = reward.mul(loanFees.vaultShare).div(100);\n                setLoanForeclosed();\n            } else {\n                userFees = bal.mul(loanFees.userRewardShare).div(100);\n                vaultFees = bal.sub(userFees);\n                setLoanClosed();\n            }\n            result = true;\n            TransferHelper.safeTransferETH(msg.sender, userFees);\n            TransferHelper.safeTransferETH(payable(feesCollector), vaultFees);\n        }\n        return result;\n    }\n\n    //// Status 2 -> 5\n    /**\n    * @dev set the loan in foreclosure state for undercollateralized loans\n    */\n    function setLoanForeclosed() internal {\n        loanForeclosedBlock = block.number;\n        loanStatus = Status.foreclosed;\n        emit NewLoanStatus(uint(loanStatus));\n    }\n\n    //// Status = 6\n    function loanEarlyClosing() internal returns (uint) {\n        require(block.number < loanActiveBlock + loanParams.earlySettlementWindow, \"!EarlyClosing\");\n        loanStatus = Status.earlyClosing;\n        uint balanceRequested = (loanParams.earlySettlementWindow).mul(commonParams.rpbRate);\n        return balanceRequested;\n    }\n\n    //// Status = 7\n    /**\n    * @dev settle the loan in normal closing state by borrower\n    */\n    function loanClosingByBorrower() external nonReentrant {\n        require(msg.sender == borrowerAddress, \"!borrower\");\n        uint status = setLoanStatusOnCollRatio();\n        require(status > 0 && status <= 4, \"!Status14\");\n        // check that borrower gives back the loaned stable coin amount\n        require(IJLoanEthDeployer(loanParams.ethDeployerAddress).checkAllowance(msg.sender, lentToken, address(this), commonParams.borrowedAskAmount), \"!allowanceSettle\");\n        uint balanceRequested;\n        if (block.number < loanActiveBlock + loanParams.earlySettlementWindow)\n            balanceRequested = loanEarlyClosing();\n        else\n            balanceRequested = getAccruedInterests();\n        uint feesAmount = 0;\n        if (loanStatus == Status.earlyClosing) \n            feesAmount = (loanFees.earlySettlementFee).mul(commonParams.rpbRate);\n        // check if there are enough collateral\n        uint bal = address(this).balance;\n        uint requestedAmount = balanceRequested.add(feesAmount);\n        loanClosingBlock = block.number;\n        loanStatus = Status.closing;\n        uint withdrawalBalance = 0;\n        if (bal >= requestedAmount) {\n            // borrower receives back collateral\n            withdrawalBalance = bal.sub(requestedAmount); \n        }\n        for (uint8 i = 1; i <= shareholdersCounter; i++) {\n            address shAddress = shareholders[i].holder;\n            uint shPlace = getShareholderPlace(shareholders[i].holder);\n            uint shShares = shareholders[shPlace].shares;\n            TransferHelper.safeTransferFrom(lentToken, msg.sender, shAddress, (commonParams.borrowedAskAmount).mul(shShares).div(100));\n        }\n        TransferHelper.safeTransferETH(msg.sender, withdrawalBalance);\n        TransferHelper.safeTransferETH(payable(feesCollector), feesAmount);\n        emit NewLoanStatus(uint(loanStatus));\n    }\n\n    //// Status = 8\n    /**\n    * @dev set the loan in closed state, let shareholders to withdraw the stable coins back\n    */\n    function setLoanClosed() internal {\n        //require(uint(loanStatus) >= 6, \"Loan status not compatible with closed actions\");\n        loanClosedBlock = block.number;\n        loanStatus = Status.closed;\n        emit NewLoanStatus(uint(loanStatus));\n    }\n\n    //// Status = 9\n    /**\n    * @dev set the loan in cancelled state (only if pending)\n    */\n    function setLoanCancelled() external nonReentrant {\n        require(msg.sender == borrowerAddress, \"!borrower\");\n        require(uint(loanStatus) == 0, \"!Status0\");\n        uint feeCanc = (address(this).balance).mul(loanFees.cancellationFees).div(100);\n        uint withdrawalBalance = (address(this).balance).sub(feeCanc);\n        loanStatus = Status.cancelled;\n        TransferHelper.safeTransferETH(payable(feesCollector), feeCanc);\n        TransferHelper.safeTransferETH(msg.sender, withdrawalBalance);\n        emit NewLoanStatus(uint(loanStatus));\n    }\n\n\n    //// Calculating interests functions\n    /**\n    * @dev calculate accrued interests of the contract\n    * @return accrued interests\n    */\n    function calculatingAccruedInterests(uint _calcBlk) public view returns (uint) {\n        require(_calcBlk >= lastInterestWithdrawalBlock, \"!validBlockNumber\");\n        return _calcBlk.sub(lastInterestWithdrawalBlock).mul(commonParams.rpbRate);  \n    }\n\n    /**\n    * @dev get accrued interests of the contract\n    * @return accruedInterests total accrued interests\n    */\n    function getAccruedInterests() public view returns (uint accruedInterests) {\n        if (uint(loanStatus) > 0 && uint(loanStatus) < 8) {\n            uint lastEarlyBlock = loanActiveBlock.add(loanParams.earlySettlementWindow);\n            if (loanStatus == Status.earlyClosing && block.number <= lastEarlyBlock) {\n                accruedInterests = calculatingAccruedInterests(lastEarlyBlock);\n            } else {\n                if (loanClosedBlock != 0)\n                    accruedInterests = calculatingAccruedInterests(Math.min(loanClosedBlock, block.number));\n                else\n                    accruedInterests = calculatingAccruedInterests(block.number);\n            }\n            if ( accruedInterests > address(this).balance )\n                accruedInterests = address(this).balance;\n        } else \n            accruedInterests = 0;\n        return accruedInterests;\n    }\n\n    /**\n    * @dev withdraw accreud interests for all shareholders and set the status after interests withdrawal\n    * @return new status\n    */\n    function withdrawInterests() public nonReentrant returns (uint) {\n        // interests of all shareholders must be withdrawn with their shares amount\n        require(uint(loanStatus) > 0 && uint(loanStatus) < 8, \"!Status17\" );\n        uint status = uint(loanStatus);\n        uint bal = address(this).balance;\n        uint accruedTotalInterests = getAccruedInterests();\n        if (bal >= accruedTotalInterests) {\n            for (uint8 i = 1; i <= shareholdersCounter; i++) {\n                shareholderWithdrawInterests(shareholders[i].holder, accruedTotalInterests);\n            }\n            lastInterestWithdrawalBlock = block.number;\n            if (status <= 3)\n                status = setLoanStatusOnCollRatio();\n        } else if (bal == 0 && isShareholder(msg.sender)) {\n            setLoanClosed();\n        } else {\n            for (uint8 i = 1; i <= shareholdersCounter; i++) {\n                shareholderWithdrawInterests(shareholders[i].holder, bal);\n            }\n            lastInterestWithdrawalBlock = block.number;\n            loanClosedBlock = block.number;\n            loanStatus = Status.closed;\n            status = uint(loanStatus);\n        }\n        emit InterestsWithdrawed(accruedTotalInterests);\n        return status;\n    }\n\n    //// shareholders functions\n    /**\n    * @dev withdraw accreud interests for a shareholder\n    * @param _shareholder shareholder address\n    */\n    function shareholderWithdrawInterests(address _shareholder, uint _accruedTotalInterests) internal {\n        require(isShareholder(_shareholder), \"!shareholder\"); \n        for (uint8 i = 1; i <= shareholdersCounter; i++) {\n            uint shPlace = getShareholderPlace(shareholders[i].holder);\n            uint shShares = shareholders[shPlace].shares;\n            TransferHelper.safeTransferETH(payable(_shareholder), _accruedTotalInterests.mul(shShares).div(100));\n        }\n    }\n\n    /**\n    * @dev check if an address is a shareholder\n    * @return boolean\n    */\n    function isShareholder(address _holder) public view returns (bool) {\n        return shareholdersAddress[_holder];\n    }\n\n    /**\n    * @dev get a shareholder place in shareholders array\n    * @return boolean\n    */\n    function getShareholderPlace(address _holder) public view returns (uint) {\n        return shareholdersPlace[_holder];\n    }\n\n    /**\n    * @dev add shareholder in shareholders arrays\n    * @param _newShareholder buyer address\n    * @param _amount amount of shares\n    * @return new status\n    */\n    function addLoanshareholders(address _newShareholder, uint _amount) external nonReentrant returns (uint) {\n        require(isShareholder(msg.sender), \"!shareholder\");\n        uint shPlace = getShareholderPlace(msg.sender);\n        require(shPlace > 0, \"!shPlace\");\n        require(shareholders[shPlace].shares >= _amount, \"!enoughShares\");\n        //before shares could be selled, interests of all shareholders must be withdrawn with old shares amount, in order to start with a new situation\n        require(block.number > loanActiveBlock + loanParams.earlySettlementWindow, \"earlyWindow\");\n        uint interestsAmount = getAccruedInterests();\n        for (uint8 i = 1; i <= shareholdersCounter; i++) {\n            shareholderWithdrawInterests(shareholders[i].holder, interestsAmount);\n        }\n\n        shareholders[shPlace].shares = shareholders[shPlace].shares.sub(_amount);\n        if(!isShareholder(_newShareholder)) {\n            shareholdersCounter = shareholdersCounter.add(1);\n            shareholders[shareholdersCounter] = Shareholder({holder: _newShareholder, shares: _amount, ownerBlockNumber: block.number});\n            shareholdersAddress[_newShareholder] = true;\n            shareholdersPlace[_newShareholder] = shareholdersCounter;\n        } else {\n            uint shPlaceNew = getShareholderPlace(_newShareholder);\n            shareholders[shPlaceNew].shares = shareholders[shPlaceNew].shares.add(_amount);\n            shareholders[shPlaceNew].ownerBlockNumber = block.number;\n            emit AddShareholderShares(_newShareholder, _amount);\n        }\n\n        lastInterestWithdrawalBlock = block.number;\n        uint status = setLoanStatusOnCollRatio();\n        return status;\n    }\n}\n",
  "sourcePath": "C:\\Users\\saurabh\\code\\Jibrel\\defi-smartcontracts\\LoansFactoryV1\\contracts\\JLoanEth.sol",
  "compiler": {
    "name": "solc",
    "version": "0.6.11+commit.5ef660b1.Emscripten.clang"
  },
  "schemaVersion": "3.3.1",
  "updatedAt": "2020-10-22T09:23:50.488Z",
  "networkType": "ethereum",
  "devdoc": {
    "kind": "dev",
    "methods": {
      "addLoanshareholders(address,uint256)": {
        "details": "add shareholder in shareholders arrays",
        "params": {
          "_amount": "amount of shares",
          "_newShareholder": "buyer address"
        },
        "returns": {
          "_0": "new status"
        }
      },
      "calcDiffCollAmountForRatio(uint256)": {
        "details": "calc how much collateral amount has to be added to have a ratio",
        "params": {
          "_ratio": "ratio to reach, percentage with no decimals (180 means 180%)"
        },
        "returns": {
          "collDiff": "collateral amount to add or to subtract to reach that ratio"
        }
      },
      "calcRatioAddingCollateral(uint256)": {
        "details": "calc a new ratio if collateral amount has added to contract balance",
        "params": {
          "_amount": "collateral amount to add"
        },
        "returns": {
          "ratio": "new collateral ratio, percentage with no decimals"
        }
      },
      "calculatingAccruedInterests(uint256)": {
        "details": "calculate accrued interests of the contract",
        "returns": {
          "_0": "accrued interests"
        }
      },
      "checkEarlySettledLoan()": {
        "details": "check if loan is settled in early settlement period",
        "returns": {
          "_0": "boolean"
        }
      },
      "checkLoanInEarlySettlementWindow()": {
        "details": "check if loan is in early settlement period",
        "returns": {
          "_0": "boolean"
        }
      },
      "getAccruedInterests()": {
        "details": "get accrued interests of the contract",
        "returns": {
          "accruedInterests": "total accrued interests"
        }
      },
      "getActualCollateralRatio()": {
        "details": "get the collateral ratio of the loan (subtracting the accrued interests)",
        "returns": {
          "newCollRatio": "collateral ratio"
        }
      },
      "getContractBalance()": {
        "details": "get contract balance",
        "returns": {
          "_0": "balance"
        }
      },
      "getLoanStatus()": {
        "details": "get contract status",
        "returns": {
          "_0": "status"
        }
      },
      "getPairDecimals()": {
        "details": "get pair decimals",
        "returns": {
          "_0": "number of decimals"
        }
      },
      "getPairPrice()": {
        "details": "get pair price",
        "returns": {
          "_0": "price"
        }
      },
      "getShareholderPlace(address)": {
        "details": "get a shareholder place in shareholders array",
        "returns": {
          "_0": "boolean"
        }
      },
      "initiateLoanForeclose()": {
        "details": "set the loan in foreclosure state for undercollateralized loans"
      },
      "isShareholder(address)": {
        "details": "check if an address is a shareholder",
        "returns": {
          "_0": "boolean"
        }
      },
      "lenderSendStableCoins(address)": {
        "details": "lender sends required stable coins to borrower and set the initial lender as a stakeholder (100%)",
        "params": {
          "_stableAddr": ", address of the stabl coin address"
        }
      },
      "loanClosingByBorrower()": {
        "details": "settle the loan in normal closing state by borrower"
      },
      "setInitalCollateralRatio()": {
        "details": "set initial collateral ratio of the loan"
      },
      "setLoanCancelled()": {
        "details": "set the loan in cancelled state (only if pending)"
      },
      "setLoanInForeclosedByTime()": {
        "details": "set the loan in foreclosed state when foreclosureWindow time passed"
      },
      "setLoanStatusOnCollRatio()": {
        "details": "set the status of the loan based on collateral ratio, applied only in states allowed ",
        "returns": {
          "_0": "loan status"
        }
      },
      "setNewCommonParams()": {
        "details": "set common parameters in loan contract, reading them from factory"
      },
      "setNewFeesParams()": {
        "details": "set common parameters in loan contract, reading them from factory"
      },
      "withdrawCollateral(uint256)": {
        "details": "withdraw ethers from contract, every shareholder with his percentage"
      },
      "withdrawInterests()": {
        "details": "withdraw accreud interests for all shareholders and set the status after interests withdrawal",
        "returns": {
          "_0": "new status"
        }
      }
    },
    "version": 1
  },
  "userdoc": {
    "kind": "user",
    "methods": {},
    "version": 1
  }
}