{
  "contractName": "JLoanEth",
  "abi": [
    {
      "inputs": [
        {
          "internalType": "address",
          "name": "_sender",
          "type": "address"
        },
        {
          "internalType": "uint256",
          "name": "_id",
          "type": "uint256"
        },
        {
          "internalType": "uint256",
          "name": "_pairId",
          "type": "uint256"
        },
        {
          "internalType": "uint256",
          "name": "_borrowedAskAmount",
          "type": "uint256"
        },
        {
          "internalType": "uint256",
          "name": "_rpbRate",
          "type": "uint256"
        },
        {
          "internalType": "address",
          "name": "_factoryAddress",
          "type": "address"
        },
        {
          "internalType": "address",
          "name": "_lendCrypto",
          "type": "address"
        },
        {
          "internalType": "address payable",
          "name": "_ethFeesCollector",
          "type": "address"
        }
      ],
      "stateMutability": "payable",
      "type": "constructor"
    },
    {
      "anonymous": false,
      "inputs": [
        {
          "indexed": true,
          "internalType": "address",
          "name": "sharesSeller",
          "type": "address"
        },
        {
          "indexed": true,
          "internalType": "address",
          "name": "sharesBuyer",
          "type": "address"
        },
        {
          "indexed": true,
          "internalType": "uint256",
          "name": "amount",
          "type": "uint256"
        },
        {
          "indexed": false,
          "internalType": "uint256",
          "name": "blockNumber",
          "type": "uint256"
        }
      ],
      "name": "AddShareHolderShares",
      "type": "event"
    },
    {
      "anonymous": false,
      "inputs": [
        {
          "indexed": false,
          "internalType": "address",
          "name": "sender",
          "type": "address"
        },
        {
          "indexed": false,
          "internalType": "uint256",
          "name": "value",
          "type": "uint256"
        }
      ],
      "name": "EthReceived",
      "type": "event"
    },
    {
      "anonymous": false,
      "inputs": [
        {
          "indexed": false,
          "internalType": "uint256",
          "name": "blockNumber",
          "type": "uint256"
        }
      ],
      "name": "EthWithdraw",
      "type": "event"
    },
    {
      "anonymous": false,
      "inputs": [
        {
          "indexed": true,
          "internalType": "address",
          "name": "sender",
          "type": "address"
        },
        {
          "indexed": false,
          "internalType": "uint256",
          "name": "blockNumber",
          "type": "uint256"
        }
      ],
      "name": "InitiateForeClosure",
      "type": "event"
    },
    {
      "anonymous": false,
      "inputs": [
        {
          "indexed": true,
          "internalType": "address",
          "name": "lenderAddress",
          "type": "address"
        },
        {
          "indexed": false,
          "internalType": "uint256",
          "name": "factoryFees",
          "type": "uint256"
        },
        {
          "indexed": false,
          "internalType": "uint256",
          "name": "loanActiveBlock",
          "type": "uint256"
        }
      ],
      "name": "LenderAccepted",
      "type": "event"
    },
    {
      "anonymous": false,
      "inputs": [
        {
          "indexed": true,
          "internalType": "address",
          "name": "sender",
          "type": "address"
        },
        {
          "indexed": false,
          "internalType": "uint256",
          "name": "blockNumber",
          "type": "uint256"
        }
      ],
      "name": "LoanAtRiskFromForeclosing",
      "type": "event"
    },
    {
      "anonymous": false,
      "inputs": [
        {
          "indexed": true,
          "internalType": "address",
          "name": "sender",
          "type": "address"
        },
        {
          "indexed": true,
          "internalType": "uint256",
          "name": "loanId",
          "type": "uint256"
        },
        {
          "indexed": false,
          "internalType": "uint256",
          "name": "blockNumber",
          "type": "uint256"
        }
      ],
      "name": "LoanCancelled",
      "type": "event"
    },
    {
      "anonymous": false,
      "inputs": [
        {
          "indexed": false,
          "internalType": "uint256",
          "name": "blockNumber",
          "type": "uint256"
        }
      ],
      "name": "LoanClosingByBorrower",
      "type": "event"
    },
    {
      "anonymous": false,
      "inputs": [
        {
          "indexed": false,
          "internalType": "uint256",
          "name": "creationBlock",
          "type": "uint256"
        },
        {
          "indexed": false,
          "internalType": "uint256",
          "name": "value",
          "type": "uint256"
        },
        {
          "indexed": false,
          "internalType": "string",
          "name": "eth",
          "type": "string"
        }
      ],
      "name": "LoanContractDeployed",
      "type": "event"
    },
    {
      "anonymous": false,
      "inputs": [
        {
          "indexed": true,
          "internalType": "address",
          "name": "sender",
          "type": "address"
        },
        {
          "indexed": false,
          "internalType": "uint256",
          "name": "blockNumber",
          "type": "uint256"
        }
      ],
      "name": "LoanForeclosed",
      "type": "event"
    },
    {
      "anonymous": false,
      "inputs": [
        {
          "indexed": true,
          "internalType": "address",
          "name": "sender",
          "type": "address"
        },
        {
          "indexed": false,
          "internalType": "uint256",
          "name": "blockNumber",
          "type": "uint256"
        }
      ],
      "name": "LoanForeclosing",
      "type": "event"
    },
    {
      "anonymous": false,
      "inputs": [
        {
          "indexed": false,
          "internalType": "uint256",
          "name": "depositAmount",
          "type": "uint256"
        }
      ],
      "name": "NewDeposit",
      "type": "event"
    },
    {
      "anonymous": false,
      "inputs": [
        {
          "indexed": false,
          "internalType": "uint256",
          "name": "loanStatus",
          "type": "uint256"
        }
      ],
      "name": "NewLoanStatus",
      "type": "event"
    },
    {
      "anonymous": false,
      "inputs": [
        {
          "indexed": true,
          "internalType": "address",
          "name": "sharesSeller",
          "type": "address"
        },
        {
          "indexed": true,
          "internalType": "address",
          "name": "newShareholder",
          "type": "address"
        },
        {
          "indexed": true,
          "internalType": "uint256",
          "name": "amount",
          "type": "uint256"
        },
        {
          "indexed": false,
          "internalType": "uint256",
          "name": "blockNumber",
          "type": "uint256"
        }
      ],
      "name": "NewShareHolder",
      "type": "event"
    },
    {
      "anonymous": false,
      "inputs": [
        {
          "indexed": true,
          "internalType": "address",
          "name": "previousOwner",
          "type": "address"
        },
        {
          "indexed": true,
          "internalType": "address",
          "name": "newOwner",
          "type": "address"
        }
      ],
      "name": "OwnershipTransferred",
      "type": "event"
    },
    {
      "stateMutability": "payable",
      "type": "fallback"
    },
    {
      "inputs": [],
      "name": "borrowerAddress",
      "outputs": [
        {
          "internalType": "address",
          "name": "",
          "type": "address"
        }
      ],
      "stateMutability": "view",
      "type": "function"
    },
    {
      "inputs": [],
      "name": "commonParams",
      "outputs": [
        {
          "internalType": "uint256",
          "name": "loanId",
          "type": "uint256"
        },
        {
          "internalType": "uint256",
          "name": "rpbRate",
          "type": "uint256"
        },
        {
          "internalType": "uint256",
          "name": "initialCollateralRatio",
          "type": "uint256"
        },
        {
          "internalType": "uint256",
          "name": "creationBlock",
          "type": "uint256"
        },
        {
          "internalType": "uint256",
          "name": "pairId",
          "type": "uint256"
        },
        {
          "internalType": "uint256",
          "name": "borrowedAskAmount",
          "type": "uint256"
        },
        {
          "internalType": "uint8",
          "name": "collDecimals",
          "type": "uint8"
        },
        {
          "internalType": "uint8",
          "name": "lendDecimals",
          "type": "uint8"
        }
      ],
      "stateMutability": "view",
      "type": "function"
    },
    {
      "inputs": [],
      "name": "ethDeployer",
      "outputs": [
        {
          "internalType": "address",
          "name": "",
          "type": "address"
        }
      ],
      "stateMutability": "view",
      "type": "function"
    },
    {
      "inputs": [],
      "name": "feesCollector",
      "outputs": [
        {
          "internalType": "address payable",
          "name": "",
          "type": "address"
        }
      ],
      "stateMutability": "view",
      "type": "function"
    },
    {
      "inputs": [],
      "name": "lastDepositBlock",
      "outputs": [
        {
          "internalType": "uint256",
          "name": "",
          "type": "uint256"
        }
      ],
      "stateMutability": "view",
      "type": "function"
    },
    {
      "inputs": [],
      "name": "lastInterestWithdrawalBlock",
      "outputs": [
        {
          "internalType": "uint256",
          "name": "",
          "type": "uint256"
        }
      ],
      "stateMutability": "view",
      "type": "function"
    },
    {
      "inputs": [],
      "name": "lentToken",
      "outputs": [
        {
          "internalType": "contract IERC20",
          "name": "",
          "type": "address"
        }
      ],
      "stateMutability": "view",
      "type": "function"
    },
    {
      "inputs": [],
      "name": "loanActiveBlock",
      "outputs": [
        {
          "internalType": "uint256",
          "name": "",
          "type": "uint256"
        }
      ],
      "stateMutability": "view",
      "type": "function"
    },
    {
      "inputs": [],
      "name": "loanClosedBlock",
      "outputs": [
        {
          "internalType": "uint256",
          "name": "",
          "type": "uint256"
        }
      ],
      "stateMutability": "view",
      "type": "function"
    },
    {
      "inputs": [],
      "name": "loanClosingBlock",
      "outputs": [
        {
          "internalType": "uint256",
          "name": "",
          "type": "uint256"
        }
      ],
      "stateMutability": "view",
      "type": "function"
    },
    {
      "inputs": [],
      "name": "loanFees",
      "outputs": [
        {
          "internalType": "uint256",
          "name": "factoryFees",
          "type": "uint256"
        },
        {
          "internalType": "uint256",
          "name": "earlySettlementFee",
          "type": "uint256"
        },
        {
          "internalType": "uint256",
          "name": "userRewardShare",
          "type": "uint256"
        },
        {
          "internalType": "uint256",
          "name": "vaultShare",
          "type": "uint256"
        },
        {
          "internalType": "uint256",
          "name": "undercollateralizedForeclosingMultiple",
          "type": "uint256"
        },
        {
          "internalType": "uint256",
          "name": "atRiskForeclosedMultiple",
          "type": "uint256"
        },
        {
          "internalType": "uint256",
          "name": "cancellationFees",
          "type": "uint256"
        }
      ],
      "stateMutability": "view",
      "type": "function"
    },
    {
      "inputs": [],
      "name": "loanForeclosedBlock",
      "outputs": [
        {
          "internalType": "uint256",
          "name": "",
          "type": "uint256"
        }
      ],
      "stateMutability": "view",
      "type": "function"
    },
    {
      "inputs": [],
      "name": "loanForeclosingBlock",
      "outputs": [
        {
          "internalType": "uint256",
          "name": "",
          "type": "uint256"
        }
      ],
      "stateMutability": "view",
      "type": "function"
    },
    {
      "inputs": [],
      "name": "loanInitiateForeCloseBlock",
      "outputs": [
        {
          "internalType": "uint256",
          "name": "",
          "type": "uint256"
        }
      ],
      "stateMutability": "view",
      "type": "function"
    },
    {
      "inputs": [],
      "name": "loanParams",
      "outputs": [
        {
          "internalType": "uint256",
          "name": "minRpbRate",
          "type": "uint256"
        },
        {
          "internalType": "uint256",
          "name": "earlySettlementWindow",
          "type": "uint256"
        },
        {
          "internalType": "uint256",
          "name": "foreclosureWindow",
          "type": "uint256"
        },
        {
          "internalType": "uint256",
          "name": "requiredCollateralRatio",
          "type": "uint256"
        },
        {
          "internalType": "uint256",
          "name": "foreclosingRatio",
          "type": "uint256"
        },
        {
          "internalType": "uint256",
          "name": "instantForeclosureRatio",
          "type": "uint256"
        },
        {
          "internalType": "address",
          "name": "factoryAddress",
          "type": "address"
        },
        {
          "internalType": "address",
          "name": "ethDeployerAddress",
          "type": "address"
        },
        {
          "internalType": "address",
          "name": "tokenDeployerAddress",
          "type": "address"
        }
      ],
      "stateMutability": "view",
      "type": "function"
    },
    {
      "inputs": [],
      "name": "loanStatus",
      "outputs": [
        {
          "internalType": "enum IJLoanCommons.Status",
          "name": "",
          "type": "uint8"
        }
      ],
      "stateMutability": "view",
      "type": "function"
    },
    {
      "inputs": [],
      "name": "owner",
      "outputs": [
        {
          "internalType": "address",
          "name": "",
          "type": "address"
        }
      ],
      "stateMutability": "view",
      "type": "function"
    },
    {
      "inputs": [],
      "name": "renounceOwnership",
      "outputs": [],
      "stateMutability": "nonpayable",
      "type": "function"
    },
    {
      "inputs": [
        {
          "internalType": "uint256",
          "name": "",
          "type": "uint256"
        }
      ],
      "name": "shareHolders",
      "outputs": [
        {
          "internalType": "address",
          "name": "holder",
          "type": "address"
        },
        {
          "internalType": "uint256",
          "name": "shares",
          "type": "uint256"
        },
        {
          "internalType": "uint256",
          "name": "ownerBlockNumber",
          "type": "uint256"
        }
      ],
      "stateMutability": "view",
      "type": "function"
    },
    {
      "inputs": [
        {
          "internalType": "address",
          "name": "",
          "type": "address"
        }
      ],
      "name": "shareHoldersAddress",
      "outputs": [
        {
          "internalType": "bool",
          "name": "",
          "type": "bool"
        }
      ],
      "stateMutability": "view",
      "type": "function"
    },
    {
      "inputs": [],
      "name": "shareHoldersCounter",
      "outputs": [
        {
          "internalType": "uint256",
          "name": "",
          "type": "uint256"
        }
      ],
      "stateMutability": "view",
      "type": "function"
    },
    {
      "inputs": [
        {
          "internalType": "address",
          "name": "",
          "type": "address"
        }
      ],
      "name": "shareHoldersPlace",
      "outputs": [
        {
          "internalType": "uint256",
          "name": "",
          "type": "uint256"
        }
      ],
      "stateMutability": "view",
      "type": "function"
    },
    {
      "inputs": [
        {
          "internalType": "address",
          "name": "newOwner",
          "type": "address"
        }
      ],
      "name": "transferOwnership",
      "outputs": [],
      "stateMutability": "nonpayable",
      "type": "function"
    },
    {
      "stateMutability": "payable",
      "type": "receive"
    },
    {
      "inputs": [],
      "name": "setNewCommonParams",
      "outputs": [],
      "stateMutability": "nonpayable",
      "type": "function"
    },
    {
      "inputs": [],
      "name": "setNewFeesParams",
      "outputs": [],
      "stateMutability": "nonpayable",
      "type": "function"
    },
    {
      "inputs": [],
      "name": "getContractBalance",
      "outputs": [
        {
          "internalType": "uint256",
          "name": "",
          "type": "uint256"
        }
      ],
      "stateMutability": "view",
      "type": "function"
    },
    {
      "inputs": [],
      "name": "getLoanStatus",
      "outputs": [
        {
          "internalType": "uint256",
          "name": "",
          "type": "uint256"
        }
      ],
      "stateMutability": "view",
      "type": "function"
    },
    {
      "inputs": [],
      "name": "getPairPrice",
      "outputs": [
        {
          "internalType": "uint256",
          "name": "",
          "type": "uint256"
        }
      ],
      "stateMutability": "view",
      "type": "function"
    },
    {
      "inputs": [],
      "name": "getPairDecimals",
      "outputs": [
        {
          "internalType": "uint256",
          "name": "",
          "type": "uint256"
        }
      ],
      "stateMutability": "view",
      "type": "function"
    },
    {
      "inputs": [],
      "name": "checkEarlySettledLoan",
      "outputs": [
        {
          "internalType": "bool",
          "name": "",
          "type": "bool"
        }
      ],
      "stateMutability": "view",
      "type": "function"
    },
    {
      "inputs": [
        {
          "internalType": "uint256",
          "name": "_amount",
          "type": "uint256"
        }
      ],
      "name": "calcAddCollForRatio",
      "outputs": [
        {
          "internalType": "uint256",
          "name": "",
          "type": "uint256"
        }
      ],
      "stateMutability": "view",
      "type": "function"
    },
    {
      "inputs": [
        {
          "internalType": "address",
          "name": "_stableAddr",
          "type": "address"
        }
      ],
      "name": "lenderSendStableCoins",
      "outputs": [],
      "stateMutability": "nonpayable",
      "type": "function"
    },
    {
      "inputs": [],
      "name": "setLoanStatusOnCollRatio",
      "outputs": [
        {
          "internalType": "uint256",
          "name": "",
          "type": "uint256"
        }
      ],
      "stateMutability": "nonpayable",
      "type": "function"
    },
    {
      "inputs": [],
      "name": "initiateLoanForeClose",
      "outputs": [],
      "stateMutability": "nonpayable",
      "type": "function"
    },
    {
      "inputs": [],
      "name": "setLoanInForeclosedByTime",
      "outputs": [
        {
          "internalType": "bool",
          "name": "",
          "type": "bool"
        }
      ],
      "stateMutability": "nonpayable",
      "type": "function"
    },
    {
      "inputs": [],
      "name": "loanClosingByBorrower",
      "outputs": [],
      "stateMutability": "nonpayable",
      "type": "function"
    },
    {
      "inputs": [],
      "name": "setLoanCancelled",
      "outputs": [],
      "stateMutability": "nonpayable",
      "type": "function"
    },
    {
      "inputs": [],
      "name": "getActualCollateralRatio",
      "outputs": [
        {
          "internalType": "uint256",
          "name": "newCollRatio",
          "type": "uint256"
        }
      ],
      "stateMutability": "view",
      "type": "function"
    },
    {
      "inputs": [
        {
          "internalType": "uint256",
          "name": "_calcBlk",
          "type": "uint256"
        }
      ],
      "name": "calculatingAccruedInterests",
      "outputs": [
        {
          "internalType": "uint256",
          "name": "",
          "type": "uint256"
        }
      ],
      "stateMutability": "view",
      "type": "function"
    },
    {
      "inputs": [],
      "name": "getAccruedInterests",
      "outputs": [
        {
          "internalType": "uint256",
          "name": "accruedInterests",
          "type": "uint256"
        }
      ],
      "stateMutability": "view",
      "type": "function"
    },
    {
      "inputs": [],
      "name": "withdrawInterests",
      "outputs": [
        {
          "internalType": "uint256",
          "name": "",
          "type": "uint256"
        }
      ],
      "stateMutability": "nonpayable",
      "type": "function"
    },
    {
      "inputs": [
        {
          "internalType": "address",
          "name": "_holder",
          "type": "address"
        }
      ],
      "name": "isShareHolder",
      "outputs": [
        {
          "internalType": "bool",
          "name": "",
          "type": "bool"
        }
      ],
      "stateMutability": "view",
      "type": "function"
    },
    {
      "inputs": [
        {
          "internalType": "address",
          "name": "_holder",
          "type": "address"
        }
      ],
      "name": "getShareHolderPlace",
      "outputs": [
        {
          "internalType": "uint256",
          "name": "",
          "type": "uint256"
        }
      ],
      "stateMutability": "view",
      "type": "function"
    },
    {
      "inputs": [
        {
          "internalType": "address",
          "name": "_newShareholder",
          "type": "address"
        },
        {
          "internalType": "uint256",
          "name": "_amount",
          "type": "uint256"
        }
      ],
      "name": "addLoanShareHolders",
      "outputs": [
        {
          "internalType": "uint256",
          "name": "",
          "type": "uint256"
        }
      ],
      "stateMutability": "nonpayable",
      "type": "function"
    }
  ],
  "bytecode": "0x60806040526040516200404d3803806200404d833981016040819052620000269162000b7f565b60006200003b6001600160e01b036200051416565b600080546001600160a01b0319166001600160a01b0383169081178255604051929350916000805160206200402d833981519152908290a3506001805533620000a15760405162461bcd60e51b8152600401620000989062000fbd565b60405180910390fd5b600280546001600160a01b031916331790556001600160a01b038816620000dc5760405162461bcd60e51b8152600401620000989062000fbd565b87600460006101000a8154816001600160a01b0302191690836001600160a01b03160217905550826001600160a01b0316634fd758796040518163ffffffff1660e01b81526004016101206040518083038186803b1580156200013e57600080fd5b505afa15801562000153573d6000803e3d6000fd5b505050506040513d601f19601f8201168201806040525081019062000179919062000c78565b8051600655602081015160075560408082015160085560608201516009556080820151600a5560a0820151600b5560c0820151600c80546001600160a01b03199081166001600160a01b039384161790915560e080850151600d8054841691851691909117905561010090940151600e80549092169083161790558151631a55d9e960e01b8152915190861692631a55d9e99260048082019391829003018186803b1580156200022857600080fd5b505afa1580156200023d573d6000803e3d6000fd5b505050506040513d601f19601f8201168201806040525081019062000263919062000c10565b805160175560208101516018556040808201516019556060820151601a556080820151601b5560a0820151601c5560c090910151601d55516310f15c6760e21b81526000906001600160a01b038516906343c5719c90620002cb908a908a9060040162000ffd565b60206040518083038186803b158015620002e457600080fd5b505afa158015620002f9573d6000803e3d6000fd5b505050506040513d601f19601f820116820180604052508101906200031f919062000d16565b6004549091506001600160a01b031631811115620003515760405162461bcd60e51b8152600401620000989062000f4e565b80341015620003745760405162461bcd60e51b8152600401620000989062000e6a565b600380546001600160a01b0319166001600160a01b038416179055600654851015620003b45760405162461bcd60e51b8152600401620000989062000f92565b600f88905560108590556013879055600580546001600160a01b038086166001600160a01b03199092169190911790915560148790556015805460ff19166012179055604051633e17bdcb60e11b815290851690637c2f7b96906200041e908a9060040162000ff4565b60206040518083038186803b1580156200043757600080fd5b505afa1580156200044c573d6000803e3d6000fd5b505050506040513d601f19601f8201168201806040525081019062000472919062000d2f565b6015805460ff929092166101000261ff0019909216919091179055620004a06001600160e01b036200051816565b601155436012556016805460ff19169055600c54620004c8906001600160a01b0316620006ad565b6012546040517fdeee932c8cb731a2276d9e4cab46b8dca799c35ee3992e7822b321020f6c5f3891620004fd9134906200100b565b60405180910390a150505050505050505062001074565b3390565b6000806200052e6001600160e01b036200076316565b90506000620005456001600160e01b03620007f116565b60145490915060008060165460ff1660098111156200056057fe5b14156200056f5750476200059e565b6200059b620005866001600160e01b036200088216565b476200099e60201b62001f6b1790919060201c565b90505b60155460ff610100820481169116106200064357601554600090620005db9060ff808216916101009004166200099e602090811b62001f6b17901c565b90506200063a81600a0a6200061286600a0a6200061260646200062689620006128d8b620009f160201b62001fb41790919060201c565b62000a3160201b62001fee1790919060201c565b620009f160201b62001fb41790919060201c565b955050620006a6565b6015546000906200066b9060ff6101008204811691166200099e602090811b62001f6b17901c565b9050620006a281600a0a6200062686600a0a6200061260646200062689620006128d8b620009f160201b62001fb41790919060201c565b9550505b5050505090565b620006c06001600160e01b036200051416565b6000546001600160a01b03908116911614620006f05760405162461bcd60e51b8152600401620000989062000ee2565b6001600160a01b038116620007195760405162461bcd60e51b8152600401620000989062000ded565b600080546040516001600160a01b03808516939216916000805160206200402d83398151915291a3600080546001600160a01b0319166001600160a01b0392909216919091179055565b600c54601354604051631334f8cd60e11b81526000926001600160a01b031691632669f19a9162000798919060040162000ff4565b60206040518083038186803b158015620007b157600080fd5b505afa158015620007c6573d6000803e3d6000fd5b505050506040513d601f19601f82011682018060405250810190620007ec919062000d16565b905090565b600c54601354604051632bd61f0560e11b81526000926001600160a01b0316916357ac3e0a9162000826919060040162000ff4565b60206040518083038186803b1580156200083f57600080fd5b505afa15801562000854573d6000803e3d6000fd5b505050506040513d601f19601f820116820180604052508101906200087a919062000d2f565b60ff16905090565b601654600090819060ff1660098111156200089957fe5b118015620008b9575060165460089060ff166009811115620008b757fe5b105b620008d85760405162461bcd60e51b8152600401620000989062000da8565b6000620008fb600660010154601e5462000a7b60201b620020301790919060201c565b9050600660165460ff1660098111156200091157fe5b1480156200091f5750804311155b15620009415762000939816001600160e01b0362000aa316565b91506200098d565b60215415620009765762000939620009676021544362000af060201b620020551760201c565b6001600160e01b0362000aa316565b6200098a436001600160e01b0362000aa316565b91505b478211156200099a574791505b5090565b6000620009e883836040518060400160405280601e81526020017f536166654d6174683a207375627472616374696f6e206f766572666c6f77000081525062000b0860201b60201c565b90505b92915050565b60008262000a0257506000620009eb565b8282028284828162000a1057fe5b0414620009e85760405162461bcd60e51b8152600401620000989062000ea1565b6000620009e883836040518060400160405280601a81526020017f536166654d6174683a206469766973696f6e206279207a65726f00000000000081525062000b3760201b60201c565b600082820183811015620009e85760405162461bcd60e51b8152600401620000989062000e33565b600060235482101562000aca5760405162461bcd60e51b8152600401620000989062000f17565b620009eb600f6001015462000626602354856200099e60201b62001f6b1790919060201c565b600081831062000b015781620009e8565b5090919050565b6000818484111562000b2f5760405162461bcd60e51b815260040162000098919062000d52565b505050900390565b6000818362000b5b5760405162461bcd60e51b815260040162000098919062000d52565b50600083858162000b6857fe5b0495945050505050565b8051620009eb816200105b565b600080600080600080600080610100898b03121562000b9c578384fd5b885162000ba9816200105b565b809850506020890151965060408901519550606089015194506080890151935060a089015162000bd9816200105b565b60c08a015190935062000bec816200105b565b60e08a015190925062000bff816200105b565b809150509295985092959890939650565b600060e0828403121562000c22578081fd5b62000c2e60e062001034565b825181526020830151602082015260408301516040820152606083015160608201526080830151608082015260a083015160a082015260c083015160c08201528091505092915050565b600061012080838503121562000c8c578182fd5b62000c978162001034565b835181526020840151602082015260408401516040820152606084015160608201526080840151608082015260a084015160a082015262000cdc8560c0860162000b72565b60c082015262000cf08560e0860162000b72565b60e0820152610100915062000d088583860162000b72565b918101919091529392505050565b60006020828403121562000d28578081fd5b5051919050565b60006020828403121562000d41578081fd5b815160ff81168114620009e8578182fd5b6000602080835283518082850152825b8181101562000d805785810183015185820160400152820162000d62565b8181111562000d925783604083870101525b50601f01601f1916929092016040019392505050565b60208082526025908201527f4c6f616e20737461747573206e6f742063616c63756c6174696e6720696e7465604082015264726573747360d81b606082015260800190565b60208082526026908201527f4f776e61626c653a206e6577206f776e657220697320746865207a65726f206160408201526564647265737360d01b606082015260800190565b6020808252601b908201527f536166654d6174683a206164646974696f6e206f766572666c6f770000000000604082015260600190565b60208082526017908201527f506c656173652073656e64206d6f726520657468657273000000000000000000604082015260600190565b60208082526021908201527f536166654d6174683a206d756c7469706c69636174696f6e206f766572666c6f6040820152607760f81b606082015260800190565b6020808252818101527f4f776e61626c653a2063616c6c6572206973206e6f7420746865206f776e6572604082015260600190565b60208082526018908201527f426c6f636b206e756d626572206e6f7420616c6c6f7765640000000000000000604082015260600190565b60208082526024908201527f426f72726f77657220646f6573206e6f74206861766520656e6f7567682065746040820152636865727360e01b606082015260800190565b602080825260119082015270496e74657265737420746f6f206c6f772160781b604082015260600190565b6020808252601a908201527f53656e6465722061646472657373206e6f7420616c6c6f776564000000000000604082015260600190565b90815260200190565b918252602082015260400190565b9182526020820152606060408201819052600390820152620cae8d60eb1b608082015260a00190565b6040518181016001600160401b03811182821017156200105357600080fd5b604052919050565b6001600160a01b03811681146200107157600080fd5b50565b612fa980620010846000396000f3fe60806040526004361061026b5760003560e01c80637427a40c11610144578063c2b0bf58116100b6578063d75e1bd81161007a578063d75e1bd81461070a578063e1c7111a1461072a578063e936e44a1461073f578063ec98362e14610754578063f2fde38b14610769578063ff0d69a61461078957610303565b8063c2b0bf5814610682578063c55d2a4714610697578063d20fbeb6146106ac578063d4a978da146106c1578063d5138948146106e157610303565b8063918c3dbd11610108578063918c3dbd146105f957806395dcc2551461060e5780639cf160f61461062e578063acc1ab1314610643578063b2ca180514610658578063c0b27cc51461066d57610303565b80637427a40c1461056b5780637a33f63c1461059a5780637ba61ea5146105ba57806382f0c81c146105cf5780638da5cb5b146105e457610303565b80633ba2ee40116101dd57806356f4aee0116101a157806356f4aee0146104cc5780635ced2a11146104ec5780635f4975f01461050c5780636dd167f81461052c5780636f9fb98a14610541578063715018a61461055657610303565b80633ba2ee40146104585780633cf348c31461046d57806342ac33791461048257806347c865df146104975780634cdb79b4146104ac57610303565b80631aa118d91161022f5780631aa118d9146103b857806320a73ab7146103cd578063216c2490146103e2578063288994231461040a5780632a1f3cda1461042c5780632a3d7c811461044357610303565b806306bb531e1461030a578063074ca966146103355780630896962c1461035757806309e94d981461037957806318ad714a146103a357610303565b366103035760015b60165460ff16600981111561028457fe5b101580156102a35750600460165460ff1660098111156102a057fe5b11155b6102c85760405162461bcd60e51b81526004016102bf906126e7565b60405180910390fd5b7f85177f287940f2f05425a4029951af0e047a7f9c4eaa9a6e6917bcd869f8669533346040516102f9929190612637565b60405180910390a1005b6001610273565b34801561031657600080fd5b5061031f61079e565b60405161032c9190612e13565b60405180910390f35b34801561034157600080fd5b5061034a6108a7565b60405161032c91906126a0565b34801561036357600080fd5b5061036c6108b0565b60405161032c9190612609565b34801561038557600080fd5b5061038e6108bf565b60405161032c99989796959493929190612e2a565b3480156103af57600080fd5b5061031f6108ee565b3480156103c457600080fd5b5061031f6109c1565b3480156103d957600080fd5b5061031f6109c7565b3480156103ee57600080fd5b506103f76109cd565b60405161032c9796959493929190612e78565b34801561041657600080fd5b5061041f6109e5565b60405161032c9190612695565b34801561043857600080fd5b50610441610a55565b005b34801561044f57600080fd5b5061031f610b77565b34801561046457600080fd5b50610441610b7d565b34801561047957600080fd5b5061041f610cc3565b34801561048e57600080fd5b5061031f610cde565b3480156104a357600080fd5b5061031f610d61565b3480156104b857600080fd5b5061041f6104c736600461243b565b610d67565b3480156104d857600080fd5b5061031f6104e736600461243b565b610d7c565b3480156104f857600080fd5b5061031f61050736600461259c565b610d97565b34801561051857600080fd5b5061031f61052736600461243b565b610de9565b34801561053857600080fd5b5061031f610dfb565b34801561054d57600080fd5b5061031f610e01565b34801561056257600080fd5b50610441610e05565b34801561057757600080fd5b5061058b61058636600461259c565b610e84565b60405161032c93929190612674565b3480156105a657600080fd5b5061041f6105b536600461243b565b610eaf565b3480156105c657600080fd5b5061036c610ecd565b3480156105db57600080fd5b5061031f610edc565b3480156105f057600080fd5b5061036c611057565b34801561060557600080fd5b50610441611066565b34801561061a57600080fd5b5061044161062936600461243b565b611143565b34801561063a57600080fd5b5061036c6115a0565b34801561064f57600080fd5b5061031f6115af565b34801561066457600080fd5b5061031f6115c3565b34801561067957600080fd5b5061031f6115c9565b34801561068e57600080fd5b506104416115cf565b3480156106a357600080fd5b5061031f6116cb565b3480156106b857600080fd5b5061031f6116d1565b3480156106cd57600080fd5b5061031f6106dc36600461259c565b6117e3565b3480156106ed57600080fd5b506106f6611839565b60405161032c989796959493929190612ea8565b34801561071657600080fd5b5061031f610725366004612457565b61185d565b34801561073657600080fd5b5061036c611b08565b34801561074b57600080fd5b5061031f611b17565b34801561076057600080fd5b50610441611ba2565b34801561077557600080fd5b5061044161078436600461243b565b611eaf565b34801561079557600080fd5b5061031f611f65565b601654600090819060ff1660098111156107b457fe5b1180156107d2575060165460059060ff1660098111156107d057fe5b105b156108495760006107e16116d1565b600a549091508110610804576016805460ff191660011790556000602455610847565b600a5481118015906108185750600b548110155b1561082f576016805460ff19166002179055610847565b600b54811015610847576016805460ff191660031790555b505b6016547fe096f951d62ec2072f7a4b5b750e0f9b7a55b9c4cbfa1f516b496cb58d7dff6f9060ff16600981111561087c57fe5b6040516108899190612e13565b60405180910390a160165460ff1660098111156108a257fe5b905090565b60165460ff1681565b6002546001600160a01b031681565b600654600754600854600954600a54600b54600c54600d54600e546001600160a01b0392831692918216911689565b601654600090819060ff16600981111561090457fe5b118015610922575060165460089060ff16600981111561092057fe5b105b61093e5760405162461bcd60e51b81526004016102bf9061272c565b600754601e54600091610957919063ffffffff61203016565b9050600660165460ff16600981111561096c57fe5b1480156109795750804311155b1561098e5761098781610d97565b91506109b1565b602154156109a55761098761050760215443612055565b6109ae43610d97565b91505b478211156109bd574791505b5090565b60295481565b601f5481565b601754601854601954601a54601b54601c54601d5487565b60165460009060ff1660098111156109f957fe5b600414610a185760405162461bcd60e51b81526004016102bf906128c6565b60245460009015801590610a405750600854602454610a3c9163ffffffff61203016565b4310155b156108a257610a4d61206b565b506001905090565b6002546001600160a01b03163314610a7f5760405162461bcd60e51b81526004016102bf90612771565b600c5460408051634fd7587960e01b815290516001600160a01b0390921691634fd758799160048082019261012092909190829003018186803b158015610ac557600080fd5b505afa158015610ad9573d6000803e3d6000fd5b505050506040513d601f19601f82011682018060405250810190610afd9190612507565b80516006556020810151600755604081015160085560608101516009556080810151600a5560a0810151600b5560c0810151600c80546001600160a01b03199081166001600160a01b039384161790915560e0830151600d8054831691841691909117905561010090920151600e80549093169116179055565b60225481565b6000610b8761079e565b90508060021480610b985750806003145b610bb45760405162461bcd60e51b81526004016102bf90612aa7565b60008160021415610be357601054601b54610bd49163ffffffff611fb416565b9050610bde6120b9565b610c02565b601054601c54610bf89163ffffffff611fb416565b9050610c0261206b565b80471015610c225760405162461bcd60e51b81526004016102bf906129fd565b610c5433610c4f6064610c4360176002015486611fb490919063ffffffff16565b9063ffffffff611fee16565b6120fd565b600354601a54610c80916001600160a01b031690610c4f90606490610c4390869063ffffffff611fb416565b43601f81905560405133917f9c216942fb53599e3610164be0d173eb8b00a4613afdb41d524f00091a819abc91610cb79190612e13565b60405180910390a25050565b6000600660165460ff166009811115610cd857fe5b14905090565b600c54601354604051631334f8cd60e11b81526000926001600160a01b031691632669f19a91610d119190600401612e13565b60206040518083038186803b158015610d2957600080fd5b505afa158015610d3d573d6000803e3d6000fd5b505050506040513d601f19601f820116820180604052508101906108a291906125b4565b60235481565b60276020526000908152604090205460ff1681565b6001600160a01b031660009081526028602052604090205490565b6000602354821015610dbb5760405162461bcd60e51b81526004016102bf90612c8c565b601054602354610de39190610dd790859063ffffffff611f6b16565b9063ffffffff611fb416565b92915050565b60286020526000908152604090205481565b60205481565b4790565b610e0d61218f565b6000546001600160a01b03908116911614610e3a5760405162461bcd60e51b81526004016102bf90612b60565b600080546040516001600160a01b03909116907f8be0079c531659141344cd1fd0a4f28419497f9722a3daafe3b4186f6b6457e0908390a3600080546001600160a01b0319169055565b6026602052600090815260409020805460018201546002909201546001600160a01b03909116919083565b6001600160a01b031660009081526027602052604090205460ff1690565b6004546001600160a01b031681565b600060026001541415610f015760405162461bcd60e51b81526004016102bf90612d86565b600260015560165460009060ff166009811115610f1a57fe5b118015610f38575060165460089060ff166009811115610f3657fe5b105b610f545760405162461bcd60e51b81526004016102bf90612dbd565b60165460009060ff166009811115610f6857fe5b9050476000610f756108ee565b9050808210610fd85760015b6029548160ff1611610fbb5760ff8116600090815260266020526040902054610fb3906001600160a01b031683612193565b600101610f81565b504360235560038311610fd357610fd061079e565b92505b61104c565b81610fe557610fd3612224565b60015b6029548160ff16116110225760ff811660009081526026602052604090205461101a906001600160a01b031684612193565b600101610fe8565b504360238190556021556016805460ff19166008179081905560ff16600981111561104957fe5b92505b505060018055919050565b6000546001600160a01b031690565b6002546001600160a01b031633146110905760405162461bcd60e51b81526004016102bf90612771565b600c5460408051631a55d9e960e01b815290516001600160a01b0390921691631a55d9e99160048082019260e092909190829003018186803b1580156110d557600080fd5b505afa1580156110e9573d6000803e3d6000fd5b505050506040513d601f19601f8201168201806040525081019061110d91906124a2565b8051601755602081015160185560408101516019556060810151601a556080810151601b5560a0810151601c5560c00151601d55565b600260015414156111665760405162461bcd60e51b81526004016102bf90612d86565b6002600155336111885760405162461bcd60e51b81526004016102bf90612956565b6005546001600160a01b038281169116146111b55760405162461bcd60e51b81526004016102bf90612be1565b6014546005546040516370a0823160e01b81526001600160a01b03909116906370a08231906111e8903390600401612609565b60206040518083038186803b15801561120057600080fd5b505afa158015611214573d6000803e3d6000fd5b505050506040513d601f19601f8201168201806040525081019061123891906125b4565b10156112565760405162461bcd60e51b81526004016102bf90612983565b600060165460ff16600981111561126957fe5b146112865760405162461bcd60e51b81526004016102bf906128f5565b601454600554604051636eb1769f60e11b81526000916001600160a01b03169063dd62ed3e906112bc903390309060040161261d565b60206040518083038186803b1580156112d457600080fd5b505afa1580156112e8573d6000803e3d6000fd5b505050506040513d601f19601f8201168201806040525081019061130c91906125b4565b90508181101561132e5760405162461bcd60e51b81526004016102bf906129c6565b60016029818155604080516060810182523380825260646020808401918252601e805485870190815260008981526026845295517f5db1dfd2ced311e642486f0e890a646498a1bdee1ad9403b0a73141af8a4c41180546001600160a01b0319166001600160a01b0392831617905593517f5db1dfd2ced311e642486f0e890a646498a1bdee1ad9403b0a73141af8a4c41255517f5db1dfd2ced311e642486f0e890a646498a1bdee1ad9403b0a73141af8a4c4135583855260278252858520805460ff199081168a179091559654602890925294909320929092556016805490941690941790925543908190556023556005546004546114349391831692168561228e565b600c5460135460145460405163c175771b60e01b81526000936001600160a01b03169263c175771b9261146992600401612e1c565b60206040518083038186803b15801561148157600080fd5b505afa158015611495573d6000803e3d6000fd5b505050506040513d601f19601f820116820180604052508101906114b991906125b4565b600c54604051632976f2fb60e11b81529192506000916001600160a01b03909116906352ede5f6906114ef908590600401612e13565b60206040518083038186803b15801561150757600080fd5b505afa15801561151b573d6000803e3d6000fd5b505050506040513d601f19601f8201168201806040525081019061153f91906125b4565b600354909150611558906001600160a01b0316826120fd565b601e5460405133917f8da312eaac37817e0ccf8bd45912080260bec10b5dac7e4ab7a438e96a6059219161158d918591612e1c565b60405180910390a2505060018055505050565b6003546001600160a01b031681565b60165460009060ff1660098111156108a257fe5b601e5481565b60245481565b6004546001600160a01b031633146115f95760405162461bcd60e51b81526004016102bf90612b29565b60165460ff16600981111561160a57fe5b156116275760405162461bcd60e51b81526004016102bf90612aa7565b60006116466064610c4360176006015447611fb490919063ffffffff16565b60035490915061165f906001600160a01b0316826120fd565b6000611671478363ffffffff611f6b16565b905061167d33826120fd565b6016805460ff19166009179055600f5460405133907f976729a22a1f27f055a6f0ffa92bd9d2944c972f1d0e25d1b3517bfa523cf498906116bf904390612e13565b60405180910390a35050565b60215481565b6000806116dc610cde565b905060006116e8611b17565b60145490915060008060165460ff16600981111561170257fe5b141561170f57504761172a565b61172761171a6108ee565b479063ffffffff611f6b16565b90505b60155460ff610100820481169116106117925760155460009061175e9060ff8082169161010090041663ffffffff611f6b16565b905061178a81600a0a610c4386600a0a610c436064610dd789610c438d8b611fb490919063ffffffff16565b9550506117dc565b6015546000906117ac9060ff610100820481169116611f6b565b90506117d881600a0a610dd786600a0a610c436064610dd789610c438d8b611fb490919063ffffffff16565b9550505b5050505090565b600047816117f7828563ffffffff61203016565b90506000611803610cde565b9050600061180f611b17565b60145490915060009061182e90610c438481888863ffffffff611fb416565b979650505050505050565b600f5460105460115460125460135460145460155460ff8082169161010090041688565b6000600260015414156118825760405162461bcd60e51b81526004016102bf90612d86565b600260015561189033610eaf565b6118ac5760405162461bcd60e51b81526004016102bf9061291f565b60006118b733610d7c565b9050600081116118d95760405162461bcd60e51b81526004016102bf90612834565b60008181526026602052604090206001015483111561190a5760405162461bcd60e51b81526004016102bf90612c43565b600754601e5401431161192f5760405162461bcd60e51b81526004016102bf906127a8565b60006119396108ee565b905060015b6029548160ff16116119785760ff8116600090815260266020526040902054611970906001600160a01b031683612193565b60010161193e565b5060008281526026602052604090206001015461199b908563ffffffff611f6b16565b6000838152602660205260409020600101556119b685610eaf565b611a55576029546119ce90600163ffffffff61203016565b6029818155604080516060810182526001600160a01b0389811680835260208084018b815243858701908152600098895260268352868920955186546001600160a01b0319169516949094178555516001808601919091559251600290940193909355855260278252828520805460ff191690911790559154602890925290912055611aec565b6000611a6086610d7c565b600081815260266020526040902060010154909150611a85908663ffffffff61203016565b6000828152602660205260409081902060018101929092554360029092018290555186916001600160a01b0389169133917fb510f1f825ef2a9b3a0fa1d56d8461062ee721c12409714d52332b44b82e6afc91611ae29190612e13565b60405180910390a4505b436023556000611afa61079e565b600180559695505050505050565b6005546001600160a01b031681565b600c54601354604051632bd61f0560e11b81526000926001600160a01b0316916357ac3e0a91611b4a9190600401612e13565b60206040518083038186803b158015611b6257600080fd5b505afa158015611b76573d6000803e3d6000fd5b505050506040513d601f19601f82011682018060405250810190611b9a91906125cc565b60ff16905090565b60026001541415611bc55760405162461bcd60e51b81526004016102bf90612d86565b60026001556004546001600160a01b03163314611bf45760405162461bcd60e51b81526004016102bf90612c0c565b6000611bfe61079e565b9050600081118015611c11575060048111155b611c2d5760405162461bcd60e51b81526004016102bf90612a6a565b600554604051636eb1769f60e11b81526000916001600160a01b03169063dd62ed3e90611c60903390309060040161261d565b60206040518083038186803b158015611c7857600080fd5b505afa158015611c8c573d6000803e3d6000fd5b505050506040513d601f19601f82011682018060405250810190611cb091906125b4565b601454909150811015611cd55760405162461bcd60e51b81526004016102bf90612b95565b60015b6029548160ff1611611d885760ff81166000908152602660205260408120546001600160a01b031690611d0a82610d7c565b600081815260266020908152604080832060010180549084905560ff88168452818420546001600160a01b03908116855260279093529220805460ff191690556005546014549394509192611d7d929091169033908690611d7890606490610c43908863ffffffff611fb416565b61228e565b505050600101611cd8565b50600754601e5460009101431015611da957611da261237f565b9050611db4565b611db16108ee565b90505b6000600660165460ff166009811115611dc957fe5b1415611de757601054601854611de49163ffffffff611fb416565b90505b476000611dfa848463ffffffff61203016565b9050808210611e3d57600354611e19906001600160a01b0316846120fd565b6000611e2b838363ffffffff611f6b16565b9050611e3733826120fd565b50611e5a565b828210611e5a57600354611e5a906001600160a01b0316846120fd565b4360208190556016805460ff191660071790556040517fd81de7231bf1ee8484c8d4a7f114d29a312842bf7d0eb187ffec71b5b94d223091611e9b91612e13565b60405180910390a150506001805550505050565b611eb761218f565b6000546001600160a01b03908116911614611ee45760405162461bcd60e51b81526004016102bf90612b60565b6001600160a01b038116611f0a5760405162461bcd60e51b81526004016102bf906127ee565b600080546040516001600160a01b03808516939216917f8be0079c531659141344cd1fd0a4f28419497f9722a3daafe3b4186f6b6457e091a3600080546001600160a01b0319166001600160a01b0392909216919091179055565b60255481565b6000611fad83836040518060400160405280601e81526020017f536166654d6174683a207375627472616374696f6e206f766572666c6f7700008152506123cd565b9392505050565b600082611fc357506000610de3565b82820282848281611fd057fe5b0414611fad5760405162461bcd60e51b81526004016102bf90612ae8565b6000611fad83836040518060400160405280601a81526020017f536166654d6174683a206469766973696f6e206279207a65726f0000000000008152506123f9565b600082820183811015611fad5760405162461bcd60e51b81526004016102bf90612863565b60008183106120645781611fad565b5090919050565b4360258190556016805460ff1916600517905560405133917f9501cc045c1358e5e6d1aef6f29cb9b1ffb3ea567a4795bffce3050ed74f4d1b916120af9190612e13565b60405180910390a2565b6016805460ff1916600417905543602481905560405133917ff542b84b1e49b5bef195e1e1949cf1eb789fbe49c059b62a89f24af3c6f71d8f916120af9190612e13565b604080516000808252602082019092526001600160a01b03841690839060405161212791906125ed565b60006040518083038185875af1925050503d8060008114612164576040519150601f19603f3d011682016040523d82523d6000602084013e612169565b606091505b505090508061218a5760405162461bcd60e51b81526004016102bf90612cc3565b505050565b3390565b61219c82610eaf565b6121b85760405162461bcd60e51b81526004016102bf9061291f565b60015b6029548160ff161161218a5760ff81166000908152602660205260408120546121ec906001600160a01b0316610d7c565b60008181526026602052604090206001015490915061221a85610c4f6064610c43888663ffffffff611fb416565b50506001016121bb565b61222d33610eaf565b6122495760405162461bcd60e51b81526004016102bf90612a3f565b60165460069060ff16600981111561225d57fe5b101561227b5760405162461bcd60e51b81526004016102bf90612d06565b436021556016805460ff19166008179055565b60006060856001600160a01b03166323b872dd8686866040516024016122b693929190612650565b6040516020818303038152906040529060e01b6020820180516001600160e01b0383818316178352505050506040516122ef91906125ed565b6000604051808303816000865af19150503d806000811461232c576040519150601f19603f3d011682016040523d82523d6000602084013e612331565b606091505b509150915081801561235b57508051158061235b57508080602001905181019061235b9190612482565b6123775760405162461bcd60e51b81526004016102bf90612d42565b505050505050565b600754601e546000910143106123a75760405162461bcd60e51b81526004016102bf9061289a565b6016805460ff191660061790556010546007546000916123c79190611fb4565b91505090565b600081848411156123f15760405162461bcd60e51b81526004016102bf91906126b4565b505050900390565b6000818361241a5760405162461bcd60e51b81526004016102bf91906126b4565b50600083858161242657fe5b0495945050505050565b8051610de381612f3b565b60006020828403121561244c578081fd5b8135611fad81612f3b565b60008060408385031215612469578081fd5b823561247481612f3b565b946020939093013593505050565b600060208284031215612493578081fd5b81518015158114611fad578182fd5b600060e082840312156124b3578081fd5b6124bd60e0612ee4565b825181526020830151602082015260408301516040820152606083015160608201526080830151608082015260a083015160a082015260c083015160c08201528091505092915050565b600061012080838503121561251a578182fd5b61252381612ee4565b835181526020840151602082015260408401516040820152606084015160608201526080840151608082015260a084015160a08201526125668560c08601612430565b60c08201526125788560e08601612430565b60e0820152610100915061258e85838601612430565b918101919091529392505050565b6000602082840312156125ad578081fd5b5035919050565b6000602082840312156125c5578081fd5b5051919050565b6000602082840312156125dd578081fd5b815160ff81168114611fad578182fd5b600082516125ff818460208701612f0b565b9190910192915050565b6001600160a01b0391909116815260200190565b6001600160a01b0392831681529116602082015260400190565b6001600160a01b03929092168252602082015260400190565b6001600160a01b039384168152919092166020820152604081019190915260600190565b6001600160a01b039390931683526020830191909152604082015260600190565b901515815260200190565b60208101600a83106126ae57fe5b91905290565b60006020825282518060208401526126d3816040850160208701612f0b565b601f01601f19169190910160400192915050565b60208082526025908201527f4c6f616e207374617475732063616e6e6f74207265636569766520636f6c6c616040820152641d195c985b60da1b606082015260800190565b60208082526025908201527f4c6f616e20737461747573206e6f742063616c63756c6174696e6720696e7465604082015264726573747360d81b606082015260800190565b6020808252601f908201527f43616c6c6572206973206e6f7420612076616c6964206465706c6f7965722100604082015260600190565b60208082526026908201527f546f6f2073686f727420706572696f64206166746572206c6f616e20616374696040820152653b30ba34b7b760d11b606082015260800190565b60208082526026908201527f4f776e61626c653a206e6577206f776e657220697320746865207a65726f206160408201526564647265737360d01b606082015260800190565b60208082526015908201527414da185c995a1bdb19195c881b9bdd08199bdd5b99605a1b604082015260600190565b6020808252601b908201527f536166654d6174683a206164646974696f6e206f766572666c6f770000000000604082015260600190565b602080825260129082015271496e636f6e677275656e742073746174757360701b604082015260600190565b602080825260159082015274131bd85b8814dd185d1d5cc81a5b98dbdc9c9958dd605a1b604082015260600190565b60208082526010908201526f496e636f72726563742073746174757360801b604082015260600190565b6020808252601c908201527f41646472657373206973206e6f742061207368617265686f6c64657200000000604082015260600190565b6020808252601390820152721059191c995cdcc81b9bdd08185b1b1bddd959606a1b604082015260600190565b60208082526023908201527f4e6f7420656e6f75676820746f6b656e73206f6e206c656e6465722062616c616040820152626e636560e81b606082015260800190565b60208082526019908201527f436865636b2074686520746f6b656e20616c6c6f77616e636500000000000000604082015260600190565b60208082526022908201527f4e6f7420656e6f75676820746f6b656e7320696e206c6f616e20636f6e74726160408201526118dd60f21b606082015260800190565b6020808252601190820152702737ba10309039b430b932b437b63232b960791b604082015260600190565b6020808252602f90820152600080516020612f5483398151915260408201526e636c6f73696e6720616374696f6e7360881b606082015260800190565b6020808252603390820152600080516020612f54833981519152604082015272666f7265636c6f73696e6720616374696f6e7360681b606082015260800190565b60208082526021908201527f536166654d6174683a206d756c7469706c69636174696f6e206f766572666c6f6040820152607760f81b606082015260800190565b6020808252601a908201527f43616e63656c2072657175657374206e6f7420616c6c6f776564000000000000604082015260600190565b6020808252818101527f4f776e61626c653a2063616c6c6572206973206e6f7420746865206f776e6572604082015260600190565b6020808252602c908201527f436865636b2074686520746f6b656e20616c6c6f77616e636520746f2073657460408201526b3a3632903a3432903637b0b760a11b606082015260800190565b602080825260119082015270151bdad95b881b9bdd08185b1b1bddd959607a1b604082015260600190565b60208082526017908201527f43616c6c6572206e6f742074686520626f72726f776572000000000000000000604082015260600190565b60208082526029908201527f5368617265686f6c64657220686173206e6f7420656e6f7567682073686172656040820152681cc81d1bc81cd95b1b60ba1b606082015260800190565b60208082526018908201527f426c6f636b206e756d626572206e6f7420616c6c6f7765640000000000000000604082015260600190565b60208082526023908201527f5472616e7366657248656c7065723a204554485f5452414e534645525f46414960408201526213115160ea1b606082015260800190565b6020808252602e90820152600080516020612f5483398151915260408201526d636c6f73656420616374696f6e7360901b606082015260800190565b60208082526024908201527f5472616e7366657248656c7065723a205452414e534645525f46524f4d5f46416040820152631253115160e21b606082015260800190565b6020808252601f908201527f5265656e7472616e637947756172643a207265656e7472616e742063616c6c00604082015260600190565b6020808252604290820152600080516020612f5483398151915260408201527f7769746864726177206163637275656420696e7465726573747320616374696f6060820152616e7360f01b608082015260a00190565b90815260200190565b918252602082015260400190565b988952602089019790975260408801959095526060870193909352608086019190915260a08501526001600160a01b0390811660c085015290811660e0840152166101008201526101200190565b968752602087019590955260408601939093526060850191909152608084015260a083015260c082015260e00190565b978852602088019690965260408701949094526060860192909252608085015260a084015260ff90811660c08401521660e08201526101000190565b60405181810167ffffffffffffffff81118282101715612f0357600080fd5b604052919050565b60005b83811015612f26578181015183820152602001612f0e565b83811115612f35576000848401525b50505050565b6001600160a01b0381168114612f5057600080fd5b5056fe4c6f616e20737461747573206e6f7420636f6d70617469626c65207769746820a2646970667358221220acac0c3fcc55159e3bedb181498b6a58f61953a1b8bedded54d411e8808d87fe64736f6c634300060b00338be0079c531659141344cd1fd0a4f28419497f9722a3daafe3b4186f6b6457e0",
  "immutableReferences": {},
  "source": "// SPDX-License-Identifier: MIT\n\npragma solidity ^0.6.11;\npragma experimental ABIEncoderV2;\n\nimport \"@openzeppelin/contracts/math/SafeMath.sol\";\nimport \"@openzeppelin/contracts/math/Math.sol\";\nimport \"@openzeppelin/contracts/access/Ownable.sol\";\nimport \"@openzeppelin/contracts/token/ERC20/IERC20.sol\";\nimport \"@openzeppelin/contracts/utils/ReentrancyGuard.sol\";\nimport \"./IJLoanCommons.sol\";\nimport \"./IJLoanEth.sol\";\nimport \"./IJFactory.sol\";\nimport \"./TransferHelper.sol\";\n\ncontract JLoanEth is Ownable, ReentrancyGuard, IJLoanCommons {\n    using SafeMath for uint;\n\n    address public ethDeployer;\n    address payable public feesCollector;\n\n    address public borrowerAddress;\n\n    IERC20 public lentToken;\n\n    params public loanParams;\n    contractParams public commonParams;\n    Status public loanStatus;\n    feesParams public loanFees;\n    \n    uint public loanActiveBlock;\n    uint public loanInitiateForeCloseBlock;\n    uint public loanClosingBlock;\n    uint public loanClosedBlock;\n    uint public lastDepositBlock;\n    uint public lastInterestWithdrawalBlock;\n    uint public loanForeclosingBlock;\n    uint public loanForeclosedBlock;\n\n    struct ShareHolder {\n        address holder;\n        uint shares;\n        uint ownerBlockNumber;\n    }\n\n    mapping(uint => ShareHolder) public shareHolders;\n    mapping(address => bool) public shareHoldersAddress;\n    mapping(address => uint) public shareHoldersPlace;\n    uint public shareHoldersCounter;\n\n    event LoanContractDeployed(uint creationBlock, uint value, string eth);\n    event NewDeposit(uint depositAmount);\n    event EthReceived(address sender, uint value);\n    event EthWithdraw(uint blockNumber);\n    event LenderAccepted(address indexed lenderAddress, uint factoryFees, uint loanActiveBlock);\n    event InitiateForeClosure(address indexed sender, uint blockNumber);\n    event LoanAtRiskFromForeclosing(address indexed sender, uint blockNumber);\n    event LoanForeclosing(address indexed sender, uint blockNumber);\n    event LoanForeclosed(address indexed sender, uint blockNumber);\n    event LoanCancelled(address indexed sender, uint indexed loanId, uint blockNumber);\n    event NewLoanStatus(uint loanStatus);\n    event NewShareHolder(address indexed sharesSeller, address indexed newShareholder, uint indexed amount, uint blockNumber);\n    event AddShareHolderShares(address indexed sharesSeller, address indexed sharesBuyer, uint indexed amount, uint blockNumber);\n    event LoanClosingByBorrower(uint blockNumber);\n\n    //// Status = 0\n    constructor(address _sender,\n                uint _id, \n                uint _pairId, \n                uint _borrowedAskAmount, \n                uint _rpbRate, \n                address _factoryAddress,\n                address _lendCrypto,\n                address payable _ethFeesCollector) public payable {  \n        require(msg.sender!=address(0), \"Sender address not allowed\");\n        ethDeployer = msg.sender;\n        require(_sender!=address(0), \"Sender address not allowed\");\n        borrowerAddress = _sender;\n        loanParams = IJFactory(_factoryAddress).getGeneralParams();\n        loanFees = IJFactory(_factoryAddress).getGeneralFees();\n        uint totalCollateralRequest = IJFactory(_factoryAddress).calcMinCollateralWithFeesAmount(_pairId, _borrowedAskAmount);\n        require(borrowerAddress.balance >= totalCollateralRequest, \"Borrower does not have enough ethers\");\n        require(msg.value >= totalCollateralRequest, \"Please send more ethers\");\n        feesCollector = _ethFeesCollector;\n        require(_rpbRate >= loanParams.minRpbRate, \"Interest too low!\");\n        commonParams.loanId = _id;\n        commonParams.rpbRate = _rpbRate;\n        commonParams.pairId = _pairId;\n        lentToken = IERC20(_lendCrypto); //DAI\n        commonParams.borrowedAskAmount = _borrowedAskAmount;\n        commonParams.collDecimals = 18; //eth decimals\n        commonParams.lendDecimals = IJFactory(_factoryAddress).getPairQuoteDecimals(_pairId); //lend token decimals\n        commonParams.initialCollateralRatio = getActualCollateralRatio();\n        commonParams.creationBlock = block.number;\n        loanStatus = Status.pending;\n        //Transfer ownership to factory address\n        transferOwnership(loanParams.factoryAddress);\n        emit LoanContractDeployed(commonParams.creationBlock, msg.value, \"eth\");\n    }\n\n    modifier onlyEthDeployer() {\n        require(msg.sender == ethDeployer, \"Caller is not a valid deployer!\");\n        _;\n    }\n\n    fallback() external payable {\n        require(loanStatus >= Status.active && loanStatus <= Status.foreClosing, \"Loan status cannot receive collateral\");\n        emit EthReceived(msg.sender, msg.value);\n    }\n\n    receive() external payable { //deposit eth\n        require(loanStatus >= Status.active && loanStatus <= Status.foreClosing, \"Loan status cannot receive collateral\");\n        emit EthReceived(msg.sender, msg.value);\n    }\n\n    //// Utility functions\n    /**\n    * @dev set common parameters in loan contract, reading them from factory\n    */\n    function setNewCommonParams() external onlyEthDeployer {\n        loanParams = IJFactory(loanParams.factoryAddress).getGeneralParams();\n    }\n\n    /**\n    * @dev set common parameters in loan contract, reading them from factory\n    */\n    function setNewFeesParams() external onlyEthDeployer {\n        loanFees = IJFactory(loanParams.factoryAddress).getGeneralFees();\n    }\n\n    /**\n    * @dev withdraw ethers from contract, every shareholder with his percentage\n    */\n    /*function withdrawEth() public nonReentrant {\n        require(loanStatus >= Status.closed, \"Loan status not compatible with foreclosing actions\" );\n        require(isShareHolder(msg.sender), \"Address requiring interest withdraw not allow\");\n        for (uint8 i = 1; i <= shareHoldersCounter; i++) {\n            address shAddress = shareHolders[i].holder;\n            uint shPlace = getShareHolderPlace(shareHolders[i].holder);\n            uint shShares = shareHolders[shPlace].shares;\n            uint withdrawAmount = address(this).balance.mul(shShares).div(100);\n            shareHolders[shPlace].shares = 0;\n            TransferHelper.safeTransferETH(shAddress, withdrawAmount);\n        }\n        emit EthWithdraw(block.number);\n    }*/\n\n    /**\n    * @dev get contract balance\n    * @return balance\n    */\n    function getContractBalance() public view returns (uint) {\n        return address(this).balance;\n    }\n\n    /**\n    * @dev get contract status\n    * @return status\n    */\n    function getLoanStatus() external view returns (uint){\n        return uint(loanStatus);\n    }\n\n    /**\n    * @dev get pair price\n    * @return price\n    */\n    function getPairPrice() public view returns (uint){\n        return IJFactory(loanParams.factoryAddress).getPairValue(commonParams.pairId);\n    }\n\n    /**\n    * @dev get pair decimals\n    * @return number of decimals\n    */\n    function getPairDecimals() public view returns (uint){\n        return IJFactory(loanParams.factoryAddress).getPairDecimals(commonParams.pairId);\n    }\n\n    /**\n    * @dev check if loan is in early settlement period\n    * @return boolean\n    */\n    function checkEarlySettledLoan() public view returns (bool) {\n        return loanStatus == Status.earlyClosing;\n    }\n\n    /**\n    * @dev calc a new ratio if collateral amount has added to contract balance\n    * @param _amount amount to add\n    * @return ratio new collateral ratio\n    */\n    function calcAddCollForRatio(uint _amount) external view returns (uint) {\n        uint bal = address(this).balance;\n        uint newBal = bal.add(_amount);\n        uint actualPrice = getPairPrice();\n        uint pairDecimals = getPairDecimals();\n        uint ratio = newBal.mul(actualPrice).div(pairDecimals).div(commonParams.borrowedAskAmount);\n        return ratio;\n    }\n\n    //// Status 0 -> 1\n    /**\n    * @dev lender sends required stable coins to borrower and set the initial lender as a stakeholder (100%)\n    * @param _stableAddr, address of the stabl coin address\n    */\n    function lenderSendStableCoins(address _stableAddr) external nonReentrant {\n        require(msg.sender != address(0), \"Address not allowed\");\n        require(_stableAddr == address(lentToken), \"Token not allowed\");\n        require(lentToken.balanceOf(msg.sender) >= commonParams.borrowedAskAmount, \"Not enough tokens on lender balance\");\n        require(loanStatus == Status.pending, \"Incorrect status\");\n        uint askAmount = commonParams.borrowedAskAmount;\n        uint256 allowance = lentToken.allowance(msg.sender, address(this));\n        require(allowance >= askAmount, \"Check the token allowance\");\n        shareHoldersCounter = 1;\n        shareHolders[shareHoldersCounter] = ShareHolder({holder: msg.sender, shares: 100, ownerBlockNumber: loanActiveBlock});\n        shareHoldersAddress[msg.sender] = true;\n        shareHoldersPlace[msg.sender] = shareHoldersCounter;\n        loanStatus = Status.active;\n        loanActiveBlock = block.number;\n        lastInterestWithdrawalBlock = block.number;\n        TransferHelper.safeTransferFrom(address(lentToken), msg.sender, borrowerAddress, askAmount);\n        // move factory fees only when loan becomes active\n        uint minCollateralEth = IJFactory(loanParams.factoryAddress).calcMinCollateralAmount(commonParams.pairId, commonParams.borrowedAskAmount);\n        uint fees4Factory = IJFactory(loanParams.factoryAddress).calculateCollFeesOnActivation(minCollateralEth); // 5/1000 = 0,5%\n        TransferHelper.safeTransferETH(payable(feesCollector), fees4Factory);\n        emit LenderAccepted(msg.sender, fees4Factory, loanActiveBlock);\n    }\n\n    //// Status 1 or 2 or 3, based on collateral ratio\n    /**\n    * @dev set the status of the loan based on collateral ratio, applied only in states allowed \n    * @return loan status\n    */\n    function setLoanStatusOnCollRatio() public returns (uint){\n        if (uint(loanStatus) > 0 && uint(loanStatus) < 5) {     //not allowed if loan not active or foreclosed or in closing status or closed\n            uint newCollRatio = getActualCollateralRatio(); // (i.e. 180 means 180%)\n            if ( newCollRatio >= loanParams.foreclosingRatio ) {\n                loanStatus = Status(1);\n                loanForeclosingBlock = 0;   //reset foreclosing block\n            } else if ( newCollRatio <= loanParams.foreclosingRatio && newCollRatio >= loanParams.instantForeclosureRatio ) {\n                loanStatus = Status(2);\n            } else if ( newCollRatio < loanParams.instantForeclosureRatio ) {\n                loanStatus = Status(3);\n            }  \n        }\n        // else no change on status\n        emit NewLoanStatus(uint(loanStatus));\n        return uint(loanStatus);\n    }\n\n    //// Status 4 or 5, starting from 2 or 3, depending on collateral ratio\n    /**\n    * @dev set the loan in foreclosure state for undercollateralized loans (tbd: reward for caller)\n    */\n    function initiateLoanForeClose() external {\n        uint status = setLoanStatusOnCollRatio();\n        require(status == 2 || status == 3, \"Loan status not compatible with foreclosing actions\");\n        uint reward;\n        if (status == 2) {\n            reward = (loanFees.undercollateralizedForeclosingMultiple).mul(commonParams.rpbRate);\n            setLoanForeclosing();\n        } else {\n            reward = (loanFees.atRiskForeclosedMultiple).mul(commonParams.rpbRate);\n            setLoanForeclosed();\n        }\n        require(address(this).balance >= reward, \"Not enough tokens in loan contract\");\n        TransferHelper.safeTransferETH(msg.sender, reward.mul(loanFees.userRewardShare).div(100));\n        TransferHelper.safeTransferETH(payable(feesCollector), reward.mul(loanFees.vaultShare).div(100));\n        loanInitiateForeCloseBlock = block.number;\n        emit InitiateForeClosure(msg.sender, loanInitiateForeCloseBlock);\n    }\n\n    //// Status 2 -> 4\n    /**\n    * @dev set the loan in foreclosure state for undercollateralized loans\n    */\n    function setLoanForeclosing() internal {\n        loanStatus = Status.foreClosing;\n        // get the block to calculate time to set it in foreclosed if no actions from the borrower\n        loanForeclosingBlock = block.number;\n        emit LoanForeclosing(msg.sender, block.number);\n    }\n\n    function setLoanInForeclosedByTime() external returns (bool) {\n        require(uint(loanStatus) == 4, \"Loan Status incorrect\");\n        bool result = false;\n        if (loanForeclosingBlock != 0 && block.number >= loanForeclosingBlock.add(loanParams.foreclosureWindow)) {\n            setLoanForeclosed();\n            result = true;\n        }\n        return result;\n    }\n\n    //// Status 2 -> 5\n    /**\n    * @dev set the loan in foreclosure state for undercollateralized loans\n    */\n    function setLoanForeclosed() internal {\n        /*uint interestsAmount = getAccruedInterests();\n        for (uint8 i = 1; i <= shareHoldersCounter; i++) {\n            uint shPlace = getShareHolderPlace(shareHolders[i].holder);\n            uint shShares = shareHolders[shPlace].shares;\n            TransferHelper.safeTransferETH(payable(shareHolders[i].holder), interestsAmount.mul(shShares).div(100));\n        }*/\n        loanForeclosedBlock = block.number;\n        loanStatus = Status.foreClosed;\n        emit LoanForeclosed(msg.sender, block.number);\n    }\n\n    //// Status = 6\n    function loanEarlyClosing() internal returns (uint) {\n        require(block.number < loanActiveBlock + loanParams.earlySettlementWindow, \"Incongruent status\");\n        loanStatus = Status.earlyClosing;\n        uint balanceRequested = (loanParams.earlySettlementWindow).mul(commonParams.rpbRate);\n        return balanceRequested;\n    }\n\n    //// Status = 7\n    /**\n    * @dev settle the loan in normal closing state by borrower\n    */\n    function loanClosingByBorrower() external nonReentrant {\n        require(msg.sender == borrowerAddress, \"Caller not the borrower\");\n        uint status = setLoanStatusOnCollRatio();\n        require(status > 0 && status <= 4, \"Loan status not compatible with closing actions\");\n         // check that borrower gives back the loaned stable coin amount\n        uint256 allowance = lentToken.allowance(msg.sender, address(this));\n        require(allowance >= commonParams.borrowedAskAmount, \"Check the token allowance to settle the loan\");\n        //TransferHelper.safeTransferFrom(address(lentToken), msg.sender, address(this), commonParams.borrowedAskAmount);\n        for (uint8 i = 1; i <= shareHoldersCounter; i++) {\n            address shAddress = shareHolders[i].holder;\n            uint shPlace = getShareHolderPlace(shareHolders[i].holder);\n            uint shShares = shareHolders[shPlace].shares;\n            shareHolders[shPlace].shares = 0;\n            shareHoldersAddress[shareHolders[i].holder] = false;\n            TransferHelper.safeTransferFrom(address(lentToken), msg.sender, shAddress, (commonParams.borrowedAskAmount).mul(shShares).div(100));\n        }\n        uint balanceRequested;\n        if (block.number < loanActiveBlock + loanParams.earlySettlementWindow)\n            balanceRequested = loanEarlyClosing();\n        else\n            balanceRequested = getAccruedInterests();\n        uint feesAmount = 0;\n        if (loanStatus == Status.earlyClosing) \n            feesAmount = (loanFees.earlySettlementFee).mul(commonParams.rpbRate);\n        // check if there are enough collateral\n        uint bal = address(this).balance;\n        uint requestedAmount = balanceRequested.add(feesAmount);\n        if (bal >= requestedAmount) {\n            TransferHelper.safeTransferETH(payable(feesCollector), feesAmount);\n            // borrower receive back collateral\n            uint withdrawalBalance = bal.sub(requestedAmount); \n            TransferHelper.safeTransferETH(msg.sender, withdrawalBalance);\n        } else if (bal >= feesAmount) {\n            TransferHelper.safeTransferETH(payable(feesCollector), feesAmount);\n            // borrower doesnt receive any collateral, what reamins it is ditributed to lender(s) as the RPB\n        }\n        loanClosingBlock = block.number;\n        loanStatus = Status.closing;\n        emit LoanClosingByBorrower(loanClosingBlock);\n    }\n\n\n    //// Status = 8\n    /**\n    * @dev set the loan in closed state, let Shareholders to withdraw the stable coins back\n    */\n    function setLoanClosed() internal {\n        require(isShareHolder(msg.sender), \"Not a shareholder\");\n        require(uint(loanStatus) >= 6, \"Loan status not compatible with closed actions\");\n        loanClosedBlock = block.number;\n        loanStatus = Status.closed;\n    }\n\n    //// Status = 9\n    /**\n    * @dev set the loan in cancelled state (only if pending)\n    */\n    function setLoanCancelled() external {\n        require(msg.sender == borrowerAddress, \"Cancel request not allowed\");\n        require(uint(loanStatus) == 0, \"Loan status not compatible with foreclosing actions\");\n        uint feeCanc = (address(this).balance).mul(loanFees.cancellationFees).div(100);\n        TransferHelper.safeTransferETH(payable(feesCollector), feeCanc);\n        uint withdrawalBalance = (address(this).balance).sub(feeCanc);\n        TransferHelper.safeTransferETH(msg.sender, withdrawalBalance);\n        loanStatus = Status.cancelled;\n        emit LoanCancelled(msg.sender, commonParams.loanId, block.number);\n    }\n\n\n    /**\n    * @dev get the collateral ratio of the loan (subtracting the accrued interests)\n    * @return newCollRatio collateral ratio\n    */\n    function getActualCollateralRatio() public view returns (uint newCollRatio) {\n        uint newPrice = getPairPrice();\n        uint pairDecimals = getPairDecimals();\n        uint borrAmnt = commonParams.borrowedAskAmount;\n        uint loanBalance;\n        if (loanStatus == Status.pending)\n            loanBalance = address(this).balance;\n        else\n            loanBalance = (address(this).balance).sub(getAccruedInterests());\n        if (commonParams.collDecimals >= commonParams.lendDecimals) {\n            uint diffBaseQuoteDecimals = uint(commonParams.collDecimals).sub(uint(commonParams.lendDecimals));\n            newCollRatio = loanBalance.mul(newPrice).div(borrAmnt).mul(100).div(10 ** pairDecimals).div(10 ** diffBaseQuoteDecimals);\n        } else {\n            uint diffBaseQuoteDecimals = uint(commonParams.lendDecimals).sub(uint(commonParams.collDecimals));\n            newCollRatio = loanBalance.mul(newPrice).div(borrAmnt).mul(100).div(10 ** pairDecimals).mul(10 ** diffBaseQuoteDecimals);\n        }\n        return newCollRatio;\n    }\n\n    //// Calculating interests functions\n    /**\n    * @dev calculate accrued interests of the contract\n    * @return accrued interests\n    */\n    function calculatingAccruedInterests(uint _calcBlk) public view returns (uint) {\n        require(_calcBlk >= lastInterestWithdrawalBlock, \"Block number not allowed\");\n        return _calcBlk.sub(lastInterestWithdrawalBlock).mul(commonParams.rpbRate);  \n    }\n\n    /**\n    * @dev get accrued interests of the contract\n    * @return accruedInterests total accrued interests\n    */\n    function getAccruedInterests() public view returns (uint accruedInterests) {\n        require(uint(loanStatus) > 0 && uint(loanStatus) < 8, \"Loan status not calculating interests\");\n        //require(isShareHolder(msg.sender), \"Caller not allowed\");\n        uint lastEarlyBlock = loanActiveBlock.add(loanParams.earlySettlementWindow);\n        if (loanStatus == Status.earlyClosing && block.number <= lastEarlyBlock) {\n            accruedInterests = calculatingAccruedInterests(lastEarlyBlock);\n        } else {\n             if (loanClosedBlock != 0)\n                accruedInterests = calculatingAccruedInterests(Math.min(loanClosedBlock, block.number));\n            else\n                accruedInterests = calculatingAccruedInterests(block.number);\n        }\n        if ( accruedInterests > address(this).balance )\n            accruedInterests = address(this).balance;\n        return accruedInterests;\n    }\n\n    /**\n    * @dev withdraw accreud interests for all shareholders and set the status after interests withdrawal\n    * @return new status\n    */\n    function withdrawInterests() public nonReentrant returns (uint) {\n        // interests of all shareholders must be withdrawn with their shares amount\n        require(uint(loanStatus) > 0 && uint(loanStatus) < 8, \"Loan status not compatible with withdraw accrued interests actions\" );\n        uint status = uint(loanStatus);\n        uint bal = address(this).balance;\n        uint accruedTotalInterests = getAccruedInterests();\n        if (bal >= accruedTotalInterests) {\n            for (uint8 i = 1; i <= shareHoldersCounter; i++) {\n                shareholderWithdrawInterests(shareHolders[i].holder, accruedTotalInterests);\n            }\n            lastInterestWithdrawalBlock = block.number;\n            if (status <= 3)\n                status = setLoanStatusOnCollRatio();\n        } else if (bal == 0) {\n            setLoanClosed();\n        } else {\n            for (uint8 i = 1; i <= shareHoldersCounter; i++) {\n                shareholderWithdrawInterests(shareHolders[i].holder, bal);\n            }\n            lastInterestWithdrawalBlock = block.number;\n            loanClosedBlock = block.number;\n            loanStatus = Status.closed;\n            status = uint(loanStatus);\n        }\n        return status;\n    }\n\n    //// Shareholders functions\n    /**\n    * @dev withdraw accreud interests for a shareholder\n    * @param _shareHolder shareholder address\n    */\n    function shareholderWithdrawInterests(address _shareHolder, uint _accruedTotalInterests) internal {\n        require(isShareHolder(_shareHolder), \"Address is not a shareholder\"); \n        for (uint8 i = 1; i <= shareHoldersCounter; i++) {\n            uint shPlace = getShareHolderPlace(shareHolders[i].holder);\n            uint shShares = shareHolders[shPlace].shares;\n            TransferHelper.safeTransferETH(payable(_shareHolder), _accruedTotalInterests.mul(shShares).div(100));\n        }\n    }\n\n    /**\n    * @dev check if an address is a shareholder\n    * @return boolean\n    */\n    function isShareHolder(address _holder) public view returns (bool) {\n        return shareHoldersAddress[_holder];\n    }\n\n    /**\n    * @dev get a shareholder place in shareholders array\n    * @return boolean\n    */\n    function getShareHolderPlace(address _holder) public view returns (uint) {\n        return shareHoldersPlace[_holder];\n    }\n\n    /**\n    * @dev add shareholder in shareholders arrays\n    * @param _newShareholder buyer address\n    * @param _amount amount of shares\n    * @return new status\n    */\n    function addLoanShareHolders(address _newShareholder, uint _amount) public nonReentrant returns (uint) {\n        require(isShareHolder(msg.sender), \"Address is not a shareholder\");\n        uint shPlace = getShareHolderPlace(msg.sender);\n        require(shPlace > 0, \"Shareholder not found\");\n        require(shareHolders[shPlace].shares >= _amount, \"Shareholder has not enough shares to sell\");\n        //before shares could be selled, interests of all shareholders must be withdrawn with old shares amount, in order to start with a new situation\n        require(block.number > loanActiveBlock + loanParams.earlySettlementWindow, \"Too short period after loan activation\");\n        uint interestsAmount = getAccruedInterests();\n        for (uint8 i = 1; i <= shareHoldersCounter; i++) {\n            shareholderWithdrawInterests(shareHolders[i].holder, interestsAmount);\n        }\n\n        shareHolders[shPlace].shares = shareHolders[shPlace].shares.sub(_amount);\n        if(!isShareHolder(_newShareholder)) {\n            shareHoldersCounter = shareHoldersCounter.add(1);\n            shareHolders[shareHoldersCounter] = ShareHolder({holder: _newShareholder, shares: _amount, ownerBlockNumber: block.number});\n            shareHoldersAddress[_newShareholder] = true;\n            shareHoldersPlace[_newShareholder] = shareHoldersCounter;\n        } else {\n            uint shPlaceNew = getShareHolderPlace(_newShareholder);\n            shareHolders[shPlaceNew].shares = shareHolders[shPlaceNew].shares.add(_amount);\n            shareHolders[shPlaceNew].ownerBlockNumber = block.number;\n            emit AddShareHolderShares(msg.sender, _newShareholder, _amount, block.number);\n        }\n\n        lastInterestWithdrawalBlock = block.number;\n        uint status = setLoanStatusOnCollRatio();\n        return status;\n    }\n\n}",
  "sourcePath": "C:\\Users\\saurabh\\code\\Jibrel\\defi-smartcontracts\\LoansFactoryV2\\contracts\\JLoanEth.sol",
  "compiler": {
    "name": "solc",
    "version": "0.6.11+commit.5ef660b1.Emscripten.clang"
  },
  "schemaVersion": "3.2.5",
  "updatedAt": "2020-10-08T09:44:33.682Z",
  "devdoc": {
    "kind": "dev",
    "methods": {
      "addLoanShareHolders(address,uint256)": {
        "details": "add shareholder in shareholders arrays",
        "params": {
          "_amount": "amount of shares",
          "_newShareholder": "buyer address"
        },
        "returns": {
          "_0": "new status"
        }
      },
      "calcAddCollForRatio(uint256)": {
        "details": "calc a new ratio if collateral amount has added to contract balance",
        "params": {
          "_amount": "amount to add"
        },
        "returns": {
          "_0": "ratio new collateral ratio"
        }
      },
      "calculatingAccruedInterests(uint256)": {
        "details": "calculate accrued interests of the contract",
        "returns": {
          "_0": "accrued interests"
        }
      },
      "checkEarlySettledLoan()": {
        "details": "check if loan is in early settlement period",
        "returns": {
          "_0": "boolean"
        }
      },
      "getAccruedInterests()": {
        "details": "get accrued interests of the contract",
        "returns": {
          "accruedInterests": "total accrued interests"
        }
      },
      "getActualCollateralRatio()": {
        "details": "get the collateral ratio of the loan (subtracting the accrued interests)",
        "returns": {
          "newCollRatio": "collateral ratio"
        }
      },
      "getContractBalance()": {
        "details": "get contract balance",
        "returns": {
          "_0": "balance"
        }
      },
      "getLoanStatus()": {
        "details": "get contract status",
        "returns": {
          "_0": "status"
        }
      },
      "getPairDecimals()": {
        "details": "get pair decimals",
        "returns": {
          "_0": "number of decimals"
        }
      },
      "getPairPrice()": {
        "details": "get pair price",
        "returns": {
          "_0": "price"
        }
      },
      "getShareHolderPlace(address)": {
        "details": "get a shareholder place in shareholders array",
        "returns": {
          "_0": "boolean"
        }
      },
      "initiateLoanForeClose()": {
        "details": "set the loan in foreclosure state for undercollateralized loans (tbd: reward for caller)"
      },
      "isShareHolder(address)": {
        "details": "check if an address is a shareholder",
        "returns": {
          "_0": "boolean"
        }
      },
      "lenderSendStableCoins(address)": {
        "details": "lender sends required stable coins to borrower and set the initial lender as a stakeholder (100%)",
        "params": {
          "_stableAddr": ", address of the stabl coin address"
        }
      },
      "loanClosingByBorrower()": {
        "details": "settle the loan in normal closing state by borrower"
      },
      "owner()": {
        "details": "Returns the address of the current owner."
      },
      "renounceOwnership()": {
        "details": "Leaves the contract without owner. It will not be possible to call `onlyOwner` functions anymore. Can only be called by the current owner. NOTE: Renouncing ownership will leave the contract without an owner, thereby removing any functionality that is only available to the owner."
      },
      "setLoanCancelled()": {
        "details": "set the loan in cancelled state (only if pending)"
      },
      "setLoanStatusOnCollRatio()": {
        "details": "set the status of the loan based on collateral ratio, applied only in states allowed ",
        "returns": {
          "_0": "loan status"
        }
      },
      "setNewCommonParams()": {
        "details": "set common parameters in loan contract, reading them from factory"
      },
      "setNewFeesParams()": {
        "details": "set common parameters in loan contract, reading them from factory"
      },
      "transferOwnership(address)": {
        "details": "Transfers ownership of the contract to a new account (`newOwner`). Can only be called by the current owner."
      },
      "withdrawInterests()": {
        "details": "withdraw accreud interests for all shareholders and set the status after interests withdrawal",
        "returns": {
          "_0": "new status"
        }
      }
    },
    "version": 1
  },
  "userdoc": {
    "kind": "user",
    "methods": {},
    "version": 1
  }
}