{
  "contractName": "JLoanEth",
  "abi": [
    {
      "inputs": [
        {
          "internalType": "address",
          "name": "_sender",
          "type": "address"
        },
        {
          "internalType": "uint256",
          "name": "_id",
          "type": "uint256"
        },
        {
          "internalType": "uint256",
          "name": "_pairId",
          "type": "uint256"
        },
        {
          "internalType": "uint256",
          "name": "_borrowedAskAmount",
          "type": "uint256"
        },
        {
          "internalType": "uint256",
          "name": "_rpbRate",
          "type": "uint256"
        },
        {
          "internalType": "address",
          "name": "_factoryAddress",
          "type": "address"
        },
        {
          "internalType": "address",
          "name": "_lendCrypto",
          "type": "address"
        },
        {
          "internalType": "address payable",
          "name": "_ethFeesCollector",
          "type": "address"
        }
      ],
      "stateMutability": "payable",
      "type": "constructor"
    },
    {
      "anonymous": false,
      "inputs": [
        {
          "indexed": true,
          "internalType": "address",
          "name": "sharesSeller",
          "type": "address"
        },
        {
          "indexed": true,
          "internalType": "address",
          "name": "sharesBuyer",
          "type": "address"
        },
        {
          "indexed": true,
          "internalType": "uint256",
          "name": "amount",
          "type": "uint256"
        },
        {
          "indexed": false,
          "internalType": "uint256",
          "name": "blockNumber",
          "type": "uint256"
        }
      ],
      "name": "AddShareHolderShares",
      "type": "event"
    },
    {
      "anonymous": false,
      "inputs": [
        {
          "indexed": false,
          "internalType": "address",
          "name": "sender",
          "type": "address"
        },
        {
          "indexed": false,
          "internalType": "uint256",
          "name": "value",
          "type": "uint256"
        }
      ],
      "name": "EthReceived",
      "type": "event"
    },
    {
      "anonymous": false,
      "inputs": [
        {
          "indexed": false,
          "internalType": "uint256",
          "name": "blockNumber",
          "type": "uint256"
        }
      ],
      "name": "EthWithdraw",
      "type": "event"
    },
    {
      "anonymous": false,
      "inputs": [
        {
          "indexed": true,
          "internalType": "address",
          "name": "sender",
          "type": "address"
        },
        {
          "indexed": false,
          "internalType": "uint256",
          "name": "blockNumber",
          "type": "uint256"
        }
      ],
      "name": "InitiateForeClosure",
      "type": "event"
    },
    {
      "anonymous": false,
      "inputs": [
        {
          "indexed": true,
          "internalType": "address",
          "name": "lenderAddress",
          "type": "address"
        },
        {
          "indexed": false,
          "internalType": "uint256",
          "name": "factoryFees",
          "type": "uint256"
        },
        {
          "indexed": false,
          "internalType": "uint256",
          "name": "loanActiveBlock",
          "type": "uint256"
        }
      ],
      "name": "LenderAccepted",
      "type": "event"
    },
    {
      "anonymous": false,
      "inputs": [
        {
          "indexed": true,
          "internalType": "address",
          "name": "sender",
          "type": "address"
        },
        {
          "indexed": false,
          "internalType": "uint256",
          "name": "blockNumber",
          "type": "uint256"
        }
      ],
      "name": "LoanAtRiskFromForeclosing",
      "type": "event"
    },
    {
      "anonymous": false,
      "inputs": [
        {
          "indexed": true,
          "internalType": "address",
          "name": "sender",
          "type": "address"
        },
        {
          "indexed": true,
          "internalType": "uint256",
          "name": "loanId",
          "type": "uint256"
        },
        {
          "indexed": false,
          "internalType": "uint256",
          "name": "blockNumber",
          "type": "uint256"
        }
      ],
      "name": "LoanCancelled",
      "type": "event"
    },
    {
      "anonymous": false,
      "inputs": [
        {
          "indexed": false,
          "internalType": "uint256",
          "name": "creationBlock",
          "type": "uint256"
        },
        {
          "indexed": false,
          "internalType": "uint256",
          "name": "value",
          "type": "uint256"
        },
        {
          "indexed": false,
          "internalType": "string",
          "name": "eth",
          "type": "string"
        }
      ],
      "name": "LoanContractDeployed",
      "type": "event"
    },
    {
      "anonymous": false,
      "inputs": [
        {
          "indexed": true,
          "internalType": "address",
          "name": "sender",
          "type": "address"
        },
        {
          "indexed": false,
          "internalType": "uint256",
          "name": "blockNumber",
          "type": "uint256"
        }
      ],
      "name": "LoanForeclosed",
      "type": "event"
    },
    {
      "anonymous": false,
      "inputs": [
        {
          "indexed": true,
          "internalType": "address",
          "name": "sender",
          "type": "address"
        },
        {
          "indexed": false,
          "internalType": "uint256",
          "name": "blockNumber",
          "type": "uint256"
        }
      ],
      "name": "LoanForeclosing",
      "type": "event"
    },
    {
      "anonymous": false,
      "inputs": [
        {
          "indexed": false,
          "internalType": "uint256",
          "name": "depositAmount",
          "type": "uint256"
        }
      ],
      "name": "NewDeposit",
      "type": "event"
    },
    {
      "anonymous": false,
      "inputs": [
        {
          "indexed": false,
          "internalType": "uint256",
          "name": "loanStatus",
          "type": "uint256"
        }
      ],
      "name": "NewLoanStatus",
      "type": "event"
    },
    {
      "anonymous": false,
      "inputs": [
        {
          "indexed": true,
          "internalType": "address",
          "name": "sharesSeller",
          "type": "address"
        },
        {
          "indexed": true,
          "internalType": "address",
          "name": "newShareholder",
          "type": "address"
        },
        {
          "indexed": true,
          "internalType": "uint256",
          "name": "amount",
          "type": "uint256"
        },
        {
          "indexed": false,
          "internalType": "uint256",
          "name": "blockNumber",
          "type": "uint256"
        }
      ],
      "name": "NewShareHolder",
      "type": "event"
    },
    {
      "anonymous": false,
      "inputs": [
        {
          "indexed": true,
          "internalType": "address",
          "name": "previousOwner",
          "type": "address"
        },
        {
          "indexed": true,
          "internalType": "address",
          "name": "newOwner",
          "type": "address"
        }
      ],
      "name": "OwnershipTransferred",
      "type": "event"
    },
    {
      "stateMutability": "payable",
      "type": "fallback"
    },
    {
      "inputs": [],
      "name": "borrowerAddress",
      "outputs": [
        {
          "internalType": "address",
          "name": "",
          "type": "address"
        }
      ],
      "stateMutability": "view",
      "type": "function"
    },
    {
      "inputs": [],
      "name": "commonParams",
      "outputs": [
        {
          "internalType": "uint256",
          "name": "loanId",
          "type": "uint256"
        },
        {
          "internalType": "uint256",
          "name": "rpbRate",
          "type": "uint256"
        },
        {
          "internalType": "uint256",
          "name": "initialCollateralRatio",
          "type": "uint256"
        },
        {
          "internalType": "uint256",
          "name": "creationBlock",
          "type": "uint256"
        },
        {
          "internalType": "uint256",
          "name": "pairId",
          "type": "uint256"
        },
        {
          "internalType": "uint256",
          "name": "borrowedAskAmount",
          "type": "uint256"
        },
        {
          "internalType": "uint8",
          "name": "collDecimals",
          "type": "uint8"
        },
        {
          "internalType": "uint8",
          "name": "lendDecimals",
          "type": "uint8"
        }
      ],
      "stateMutability": "view",
      "type": "function"
    },
    {
      "inputs": [],
      "name": "cryptoFromLender",
      "outputs": [
        {
          "internalType": "contract IERC20",
          "name": "",
          "type": "address"
        }
      ],
      "stateMutability": "view",
      "type": "function"
    },
    {
      "inputs": [],
      "name": "ethDeployer",
      "outputs": [
        {
          "internalType": "address",
          "name": "",
          "type": "address"
        }
      ],
      "stateMutability": "view",
      "type": "function"
    },
    {
      "inputs": [],
      "name": "feesCollector",
      "outputs": [
        {
          "internalType": "address payable",
          "name": "",
          "type": "address"
        }
      ],
      "stateMutability": "view",
      "type": "function"
    },
    {
      "inputs": [],
      "name": "lastDepositBlock",
      "outputs": [
        {
          "internalType": "uint256",
          "name": "",
          "type": "uint256"
        }
      ],
      "stateMutability": "view",
      "type": "function"
    },
    {
      "inputs": [],
      "name": "lastInterestWithdrawalBlock",
      "outputs": [
        {
          "internalType": "uint256",
          "name": "",
          "type": "uint256"
        }
      ],
      "stateMutability": "view",
      "type": "function"
    },
    {
      "inputs": [],
      "name": "loanActiveBlock",
      "outputs": [
        {
          "internalType": "uint256",
          "name": "",
          "type": "uint256"
        }
      ],
      "stateMutability": "view",
      "type": "function"
    },
    {
      "inputs": [],
      "name": "loanClosedBlock",
      "outputs": [
        {
          "internalType": "uint256",
          "name": "",
          "type": "uint256"
        }
      ],
      "stateMutability": "view",
      "type": "function"
    },
    {
      "inputs": [],
      "name": "loanClosingBlock",
      "outputs": [
        {
          "internalType": "uint256",
          "name": "",
          "type": "uint256"
        }
      ],
      "stateMutability": "view",
      "type": "function"
    },
    {
      "inputs": [],
      "name": "loanFees",
      "outputs": [
        {
          "internalType": "uint256",
          "name": "factoryFees",
          "type": "uint256"
        },
        {
          "internalType": "uint256",
          "name": "earlySettlementFee",
          "type": "uint256"
        },
        {
          "internalType": "uint256",
          "name": "userRewardShare",
          "type": "uint256"
        },
        {
          "internalType": "uint256",
          "name": "vaultShare",
          "type": "uint256"
        },
        {
          "internalType": "uint256",
          "name": "undercollateralizedForeclosingMultiple",
          "type": "uint256"
        },
        {
          "internalType": "uint256",
          "name": "atRiskForeclosedMultiple",
          "type": "uint256"
        },
        {
          "internalType": "uint256",
          "name": "cancellationFees",
          "type": "uint256"
        }
      ],
      "stateMutability": "view",
      "type": "function"
    },
    {
      "inputs": [],
      "name": "loanInitiateForeCloseBlock",
      "outputs": [
        {
          "internalType": "uint256",
          "name": "",
          "type": "uint256"
        }
      ],
      "stateMutability": "view",
      "type": "function"
    },
    {
      "inputs": [],
      "name": "loanParams",
      "outputs": [
        {
          "internalType": "uint256",
          "name": "minRpbRate",
          "type": "uint256"
        },
        {
          "internalType": "uint256",
          "name": "earlySettlementWindow",
          "type": "uint256"
        },
        {
          "internalType": "uint256",
          "name": "foreclosureWindow",
          "type": "uint256"
        },
        {
          "internalType": "uint256",
          "name": "requiredCollateralRatio",
          "type": "uint256"
        },
        {
          "internalType": "uint256",
          "name": "foreclosingRatio",
          "type": "uint256"
        },
        {
          "internalType": "uint256",
          "name": "instantForeclosureRatio",
          "type": "uint256"
        },
        {
          "internalType": "address",
          "name": "factoryAddress",
          "type": "address"
        },
        {
          "internalType": "address",
          "name": "ethDeployerAddress",
          "type": "address"
        },
        {
          "internalType": "address",
          "name": "tokenDeployerAddress",
          "type": "address"
        }
      ],
      "stateMutability": "view",
      "type": "function"
    },
    {
      "inputs": [],
      "name": "loanStatus",
      "outputs": [
        {
          "internalType": "enum IJLoanCommons.Status",
          "name": "",
          "type": "uint8"
        }
      ],
      "stateMutability": "view",
      "type": "function"
    },
    {
      "inputs": [],
      "name": "owner",
      "outputs": [
        {
          "internalType": "address",
          "name": "",
          "type": "address"
        }
      ],
      "stateMutability": "view",
      "type": "function"
    },
    {
      "inputs": [],
      "name": "renounceOwnership",
      "outputs": [],
      "stateMutability": "nonpayable",
      "type": "function"
    },
    {
      "inputs": [
        {
          "internalType": "uint256",
          "name": "",
          "type": "uint256"
        }
      ],
      "name": "shareHolders",
      "outputs": [
        {
          "internalType": "address",
          "name": "holder",
          "type": "address"
        },
        {
          "internalType": "uint256",
          "name": "shares",
          "type": "uint256"
        },
        {
          "internalType": "uint256",
          "name": "ownerBlockNumber",
          "type": "uint256"
        }
      ],
      "stateMutability": "view",
      "type": "function"
    },
    {
      "inputs": [
        {
          "internalType": "address",
          "name": "",
          "type": "address"
        }
      ],
      "name": "shareHoldersAddress",
      "outputs": [
        {
          "internalType": "bool",
          "name": "",
          "type": "bool"
        }
      ],
      "stateMutability": "view",
      "type": "function"
    },
    {
      "inputs": [],
      "name": "shareHoldersCounter",
      "outputs": [
        {
          "internalType": "uint256",
          "name": "",
          "type": "uint256"
        }
      ],
      "stateMutability": "view",
      "type": "function"
    },
    {
      "inputs": [
        {
          "internalType": "address",
          "name": "",
          "type": "address"
        }
      ],
      "name": "shareHoldersPlace",
      "outputs": [
        {
          "internalType": "uint256",
          "name": "",
          "type": "uint256"
        }
      ],
      "stateMutability": "view",
      "type": "function"
    },
    {
      "inputs": [],
      "name": "stopInterestsBlock",
      "outputs": [
        {
          "internalType": "uint256",
          "name": "",
          "type": "uint256"
        }
      ],
      "stateMutability": "view",
      "type": "function"
    },
    {
      "inputs": [
        {
          "internalType": "address",
          "name": "newOwner",
          "type": "address"
        }
      ],
      "name": "transferOwnership",
      "outputs": [],
      "stateMutability": "nonpayable",
      "type": "function"
    },
    {
      "stateMutability": "payable",
      "type": "receive"
    },
    {
      "inputs": [],
      "name": "setNewCommonParams",
      "outputs": [],
      "stateMutability": "nonpayable",
      "type": "function"
    },
    {
      "inputs": [],
      "name": "setNewFeesParams",
      "outputs": [],
      "stateMutability": "nonpayable",
      "type": "function"
    },
    {
      "inputs": [],
      "name": "withdrawEth",
      "outputs": [],
      "stateMutability": "nonpayable",
      "type": "function"
    },
    {
      "inputs": [],
      "name": "getContractBalance",
      "outputs": [
        {
          "internalType": "uint256",
          "name": "",
          "type": "uint256"
        }
      ],
      "stateMutability": "view",
      "type": "function"
    },
    {
      "inputs": [],
      "name": "getLoanStatus",
      "outputs": [
        {
          "internalType": "uint256",
          "name": "",
          "type": "uint256"
        }
      ],
      "stateMutability": "view",
      "type": "function"
    },
    {
      "inputs": [],
      "name": "getPairPrice",
      "outputs": [
        {
          "internalType": "uint256",
          "name": "",
          "type": "uint256"
        }
      ],
      "stateMutability": "view",
      "type": "function"
    },
    {
      "inputs": [],
      "name": "getPairDecimals",
      "outputs": [
        {
          "internalType": "uint256",
          "name": "",
          "type": "uint256"
        }
      ],
      "stateMutability": "view",
      "type": "function"
    },
    {
      "inputs": [],
      "name": "checkEarlySettledLoan",
      "outputs": [
        {
          "internalType": "bool",
          "name": "",
          "type": "bool"
        }
      ],
      "stateMutability": "view",
      "type": "function"
    },
    {
      "inputs": [
        {
          "internalType": "address",
          "name": "_stableAddr",
          "type": "address"
        }
      ],
      "name": "lenderSendStableCoins",
      "outputs": [],
      "stateMutability": "nonpayable",
      "type": "function"
    },
    {
      "inputs": [],
      "name": "setLoanStatusOnCollRatio",
      "outputs": [
        {
          "internalType": "uint256",
          "name": "",
          "type": "uint256"
        }
      ],
      "stateMutability": "nonpayable",
      "type": "function"
    },
    {
      "inputs": [],
      "name": "initiateLoanForeClose",
      "outputs": [],
      "stateMutability": "nonpayable",
      "type": "function"
    },
    {
      "inputs": [],
      "name": "loanClosing",
      "outputs": [],
      "stateMutability": "nonpayable",
      "type": "function"
    },
    {
      "inputs": [],
      "name": "loanClosed",
      "outputs": [],
      "stateMutability": "nonpayable",
      "type": "function"
    },
    {
      "inputs": [],
      "name": "setLoanCancelled",
      "outputs": [],
      "stateMutability": "nonpayable",
      "type": "function"
    },
    {
      "inputs": [],
      "name": "getActualCollateralRatio",
      "outputs": [
        {
          "internalType": "uint256",
          "name": "newCollRatio",
          "type": "uint256"
        }
      ],
      "stateMutability": "view",
      "type": "function"
    },
    {
      "inputs": [
        {
          "internalType": "uint256",
          "name": "_calcBlk",
          "type": "uint256"
        }
      ],
      "name": "calculatingAccruedInterests",
      "outputs": [
        {
          "internalType": "uint256",
          "name": "",
          "type": "uint256"
        }
      ],
      "stateMutability": "view",
      "type": "function"
    },
    {
      "inputs": [],
      "name": "getAccruedInterests",
      "outputs": [
        {
          "internalType": "uint256",
          "name": "accruedInterests",
          "type": "uint256"
        }
      ],
      "stateMutability": "view",
      "type": "function"
    },
    {
      "inputs": [],
      "name": "withdrawInterests",
      "outputs": [
        {
          "internalType": "uint256",
          "name": "",
          "type": "uint256"
        }
      ],
      "stateMutability": "nonpayable",
      "type": "function"
    },
    {
      "inputs": [
        {
          "internalType": "address",
          "name": "_holder",
          "type": "address"
        }
      ],
      "name": "isShareHolder",
      "outputs": [
        {
          "internalType": "bool",
          "name": "",
          "type": "bool"
        }
      ],
      "stateMutability": "view",
      "type": "function"
    },
    {
      "inputs": [
        {
          "internalType": "address",
          "name": "_holder",
          "type": "address"
        }
      ],
      "name": "getShareHolderPlace",
      "outputs": [
        {
          "internalType": "uint256",
          "name": "",
          "type": "uint256"
        }
      ],
      "stateMutability": "view",
      "type": "function"
    },
    {
      "inputs": [
        {
          "internalType": "address",
          "name": "_newShareholder",
          "type": "address"
        },
        {
          "internalType": "uint256",
          "name": "_amount",
          "type": "uint256"
        }
      ],
      "name": "addLoanShareHolders",
      "outputs": [
        {
          "internalType": "uint256",
          "name": "",
          "type": "uint256"
        }
      ],
      "stateMutability": "nonpayable",
      "type": "function"
    }
  ],
  "bytecode": "0x60806040526040516200429738038062004297833981016040819052620000269162000b7e565b60006200003b6001600160e01b036200051416565b600080546001600160a01b0319166001600160a01b03831690811782556040519293509160008051602062004277833981519152908290a3506001805533620000a15760405162461bcd60e51b8152600401620000989062000fbc565b60405180910390fd5b600280546001600160a01b031916331790556001600160a01b038816620000dc5760405162461bcd60e51b8152600401620000989062000fbc565b87600460006101000a8154816001600160a01b0302191690836001600160a01b03160217905550826001600160a01b0316634fd758796040518163ffffffff1660e01b81526004016101206040518083038186803b1580156200013e57600080fd5b505afa15801562000153573d6000803e3d6000fd5b505050506040513d601f19601f8201168201806040525081019062000179919062000c77565b8051600655602081015160075560408082015160085560608201516009556080820151600a5560a0820151600b5560c0820151600c80546001600160a01b03199081166001600160a01b039384161790915560e080850151600d8054841691851691909117905561010090940151600e80549092169083161790558151631a55d9e960e01b8152915190861692631a55d9e99260048082019391829003018186803b1580156200022857600080fd5b505afa1580156200023d573d6000803e3d6000fd5b505050506040513d601f19601f8201168201806040525081019062000263919062000c0f565b805160175560208101516018556040808201516019556060820151601a556080820151601b5560a0820151601c5560c090910151601d55516310f15c6760e21b81526000906001600160a01b038516906343c5719c90620002cb908a908a9060040162000ffc565b60206040518083038186803b158015620002e457600080fd5b505afa158015620002f9573d6000803e3d6000fd5b505050506040513d601f19601f820116820180604052508101906200031f919062000d15565b6004549091506001600160a01b031631811115620003515760405162461bcd60e51b8152600401620000989062000f4d565b80341015620003745760405162461bcd60e51b8152600401620000989062000e69565b600380546001600160a01b0319166001600160a01b038416179055600654851015620003b45760405162461bcd60e51b8152600401620000989062000f91565b600f88905560108590556013879055600580546001600160a01b038086166001600160a01b03199092169190911790915560148790556015805460ff19166012179055604051633e17bdcb60e11b815290851690637c2f7b96906200041e908a9060040162000ff3565b60206040518083038186803b1580156200043757600080fd5b505afa1580156200044c573d6000803e3d6000fd5b505050506040513d601f19601f8201168201806040525081019062000472919062000d2e565b6015805460ff929092166101000261ff0019909216919091179055620004a06001600160e01b036200051816565b601155436012556016805460ff19169055600c54620004c8906001600160a01b0316620006ad565b6012546040517fdeee932c8cb731a2276d9e4cab46b8dca799c35ee3992e7822b321020f6c5f3891620004fd9134906200100a565b60405180910390a150505050505050505062001073565b3390565b6000806200052e6001600160e01b036200076316565b90506000620005456001600160e01b03620007f116565b60145490915060008060165460ff1660098111156200056057fe5b14156200056f5750476200059e565b6200059b620005866001600160e01b036200088216565b476200099d60201b62001fa11790919060201c565b90505b60155460ff610100820481169116106200064357601554600090620005db9060ff808216916101009004166200099d602090811b62001fa117901c565b90506200063a81600a0a6200061286600a0a6200061260646200062689620006128d8b620009f060201b62001fea1790919060201c565b62000a3060201b620020241790919060201c565b620009f060201b62001fea1790919060201c565b955050620006a6565b6015546000906200066b9060ff6101008204811691166200099d602090811b62001fa117901c565b9050620006a281600a0a6200062686600a0a6200061260646200062689620006128d8b620009f060201b62001fea1790919060201c565b9550505b5050505090565b620006c06001600160e01b036200051416565b6000546001600160a01b03908116911614620006f05760405162461bcd60e51b8152600401620000989062000ee1565b6001600160a01b038116620007195760405162461bcd60e51b8152600401620000989062000dec565b600080546040516001600160a01b03808516939216916000805160206200427783398151915291a3600080546001600160a01b0319166001600160a01b0392909216919091179055565b600c54601354604051631334f8cd60e11b81526000926001600160a01b031691632669f19a9162000798919060040162000ff3565b60206040518083038186803b158015620007b157600080fd5b505afa158015620007c6573d6000803e3d6000fd5b505050506040513d601f19601f82011682018060405250810190620007ec919062000d15565b905090565b600c54601354604051632bd61f0560e11b81526000926001600160a01b0316916357ac3e0a9162000826919060040162000ff3565b60206040518083038186803b1580156200083f57600080fd5b505afa15801562000854573d6000803e3d6000fd5b505050506040513d601f19601f820116820180604052508101906200087a919062000d2e565b60ff16905090565b601654600090819060ff1660098111156200089957fe5b118015620008b8575060165460099060ff1681811115620008b657fe5b105b620008d75760405162461bcd60e51b8152600401620000989062000da7565b6000620008fa600660010154601e5462000a7a60201b620020661790919060201c565b9050600660165460ff1660098111156200091057fe5b1480156200091e5750804311155b15620009405762000938816001600160e01b0362000aa216565b91506200098c565b60215415620009755762000938620009666021544362000aef60201b6200208b1760201c565b6001600160e01b0362000aa216565b62000989436001600160e01b0362000aa216565b91505b4782111562000999574791505b5090565b6000620009e783836040518060400160405280601e81526020017f536166654d6174683a207375627472616374696f6e206f766572666c6f77000081525062000b0760201b60201c565b90505b92915050565b60008262000a0157506000620009ea565b8282028284828162000a0f57fe5b0414620009e75760405162461bcd60e51b8152600401620000989062000ea0565b6000620009e783836040518060400160405280601a81526020017f536166654d6174683a206469766973696f6e206279207a65726f00000000000081525062000b3660201b60201c565b600082820183811015620009e75760405162461bcd60e51b8152600401620000989062000e32565b600060235482101562000ac95760405162461bcd60e51b8152600401620000989062000f16565b620009ea600f6001015462000626602354856200099d60201b62001fa11790919060201c565b600081831062000b005781620009e7565b5090919050565b6000818484111562000b2e5760405162461bcd60e51b815260040162000098919062000d51565b505050900390565b6000818362000b5a5760405162461bcd60e51b815260040162000098919062000d51565b50600083858162000b6757fe5b0495945050505050565b8051620009ea816200105a565b600080600080600080600080610100898b03121562000b9b578384fd5b885162000ba8816200105a565b809850506020890151965060408901519550606089015194506080890151935060a089015162000bd8816200105a565b60c08a015190935062000beb816200105a565b60e08a015190925062000bfe816200105a565b809150509295985092959890939650565b600060e0828403121562000c21578081fd5b62000c2d60e062001033565b825181526020830151602082015260408301516040820152606083015160608201526080830151608082015260a083015160a082015260c083015160c08201528091505092915050565b600061012080838503121562000c8b578182fd5b62000c968162001033565b835181526020840151602082015260408401516040820152606084015160608201526080840151608082015260a084015160a082015262000cdb8560c0860162000b71565b60c082015262000cef8560e0860162000b71565b60e0820152610100915062000d078583860162000b71565b918101919091529392505050565b60006020828403121562000d27578081fd5b5051919050565b60006020828403121562000d40578081fd5b815160ff81168114620009e7578182fd5b6000602080835283518082850152825b8181101562000d7f5785810183015185820160400152820162000d61565b8181111562000d915783604083870101525b50601f01601f1916929092016040019392505050565b60208082526025908201527f4c6f616e20737461747573206e6f742063616c63756c6174696e6720696e7465604082015264726573747360d81b606082015260800190565b60208082526026908201527f4f776e61626c653a206e6577206f776e657220697320746865207a65726f206160408201526564647265737360d01b606082015260800190565b6020808252601b908201527f536166654d6174683a206164646974696f6e206f766572666c6f770000000000604082015260600190565b60208082526017908201527f506c656173652073656e64206d6f726520657468657273000000000000000000604082015260600190565b60208082526021908201527f536166654d6174683a206d756c7469706c69636174696f6e206f766572666c6f6040820152607760f81b606082015260800190565b6020808252818101527f4f776e61626c653a2063616c6c6572206973206e6f7420746865206f776e6572604082015260600190565b60208082526018908201527f426c6f636b206e756d626572206e6f7420616c6c6f7765640000000000000000604082015260600190565b60208082526024908201527f426f72726f77657220646f6573206e6f74206861766520656e6f7567682065746040820152636865727360e01b606082015260800190565b602080825260119082015270496e74657265737420746f6f206c6f772160781b604082015260600190565b6020808252601a908201527f53656e6465722061646472657373206e6f7420616c6c6f776564000000000000604082015260600190565b90815260200190565b918252602082015260400190565b9182526020820152606060408201819052600390820152620cae8d60eb1b608082015260a00190565b6040518181016001600160401b03811182821017156200105257600080fd5b604052919050565b6001600160a01b03811681146200107057600080fd5b50565b6131f480620010836000396000f3fe6080604052600436106102605760003560e01c80636dd167f8116101445780639cf160f6116100b6578063c55d2a471161007a578063c55d2a47146106cb578063d20fbeb6146106e0578063d5138948146106f5578063d75e1bd81461071e578063e936e44a1461073e578063f2fde38b14610753576102f8565b80639cf160f614610662578063a0ef91df14610677578063acc1ab131461068c578063b2ca1805146106a1578063c2b0bf58146106b6576102f8565b80637ba61ea5116101085780637ba61ea5146105d957806382f0c81c146105ee578063838dfaa4146106035780638da5cb5b14610618578063918c3dbd1461062d57806395dcc25514610642576102f8565b80636dd167f81461054b5780636f9fb98a14610560578063715018a6146105755780637427a40c1461058a5780637a33f63c146105b9576102f8565b80632a3d7c81116101dd578063479d61a0116101a1578063479d61a0146104a157806347c865df146104b65780634cdb79b4146104cb57806356f4aee0146104eb5780635ced2a111461050b5780635f4975f01461052b576102f8565b80632a3d7c811461042b5780633ba2ee40146104405780633cf348c31461045557806342ac33791461047757806344dc7fbc1461048c576102f8565b806318ad714a1161022457806318ad714a146103af5780631aa118d9146103c457806320a73ab7146103d9578063216c2490146103ee5780632a1f3cda14610416576102f8565b806306bb531e146102ff578063074ca9661461032a5780630896962c1461034c57806309e94d981461036e578063176f1c6314610398576102f8565b366102f85760015b60165460ff16600981111561027957fe5b101580156102985750600460165460ff16600981111561029557fe5b11155b6102bd5760405162461bcd60e51b81526004016102b490612863565b60405180910390fd5b7f85177f287940f2f05425a4029951af0e047a7f9c4eaa9a6e6917bcd869f8669533346040516102ee92919061277c565b60405180910390a1005b6001610268565b34801561030b57600080fd5b50610314610773565b604051610321919061305e565b60405180910390f35b34801561033657600080fd5b5061033f61087d565b60405161032191906127e5565b34801561035857600080fd5b50610361610886565b604051610321919061274e565b34801561037a57600080fd5b50610383610895565b60405161032199989796959493929190613075565b3480156103a457600080fd5b506103ad6108c4565b005b3480156103bb57600080fd5b50610314610af7565b3480156103d057600080fd5b50610314610bc9565b3480156103e557600080fd5b50610314610bcf565b3480156103fa57600080fd5b50610403610bd5565b60405161032197969594939291906130c3565b34801561042257600080fd5b506103ad610bed565b34801561043757600080fd5b50610314610d0f565b34801561044c57600080fd5b506103ad610d15565b34801561046157600080fd5b5061046a610e5b565b60405161032191906127da565b34801561048357600080fd5b50610314610e76565b34801561049857600080fd5b50610361610ef9565b3480156104ad57600080fd5b50610314610f08565b3480156104c257600080fd5b50610314610f0e565b3480156104d757600080fd5b5061046a6104e6366004612580565b610f14565b3480156104f757600080fd5b50610314610506366004612580565b610f29565b34801561051757600080fd5b506103146105263660046126e1565b610f44565b34801561053757600080fd5b50610314610546366004612580565b610f96565b34801561055757600080fd5b50610314610fa8565b34801561056c57600080fd5b50610314610fae565b34801561058157600080fd5b506103ad610fb2565b34801561059657600080fd5b506105aa6105a53660046126e1565b611031565b604051610321939291906127b9565b3480156105c557600080fd5b5061046a6105d4366004612580565b61105c565b3480156105e557600080fd5b5061036161107a565b3480156105fa57600080fd5b50610314611089565b34801561060f57600080fd5b506103ad611155565b34801561062457600080fd5b506103616112d0565b34801561063957600080fd5b506103ad6112df565b34801561064e57600080fd5b506103ad61065d366004612580565b6113bc565b34801561066e57600080fd5b50610361611819565b34801561068357600080fd5b506103ad611828565b34801561069857600080fd5b50610314611971565b3480156106ad57600080fd5b50610314611985565b3480156106c257600080fd5b506103ad61198b565b3480156106d757600080fd5b50610314611a87565b3480156106ec57600080fd5b50610314611a8d565b34801561070157600080fd5b5061070a611b9f565b6040516103219897969594939291906130f3565b34801561072a57600080fd5b5061031461073936600461259c565b611bc3565b34801561074a57600080fd5b50610314611e60565b34801561075f57600080fd5b506103ad61076e366004612580565b611eeb565b601654600090819060ff16600981111561078957fe5b1180156107a7575060165460059060ff1660098111156107a557fe5b105b1561081f5760006107b6611a8d565b600a5490915081106107e55760015b6016805460ff191660018360098111156107db57fe5b021790555061081d565b600a5481118015906107f95750600b548110155b156108055760026107c5565b600b5481101561081d576016805460ff191660031790555b505b6016547fe096f951d62ec2072f7a4b5b750e0f9b7a55b9c4cbfa1f516b496cb58d7dff6f9060ff16600981111561085257fe5b60405161085f919061305e565b60405180910390a160165460ff16600981111561087857fe5b905090565b60165460ff1681565b6002546001600160a01b031681565b600654600754600854600954600a54600b54600c54600d54600e546001600160a01b0392831692918216911689565b600260015414156108e75760405162461bcd60e51b81526004016102b490612fd1565b60026001556004546001600160a01b031633146109165760405162461bcd60e51b81526004016102b490612e03565b6000610920610773565b9050600081118015610933575060068111155b61094f5760405162461bcd60e51b81526004016102b490612c14565b600554604051636eb1769f60e11b81526000916001600160a01b03169063dd62ed3e906109829033903090600401612762565b60206040518083038186803b15801561099a57600080fd5b505afa1580156109ae573d6000803e3d6000fd5b505050506040513d601f19601f820116820180604052508101906109d291906126f9565b6014549091508110156109f75760405162461bcd60e51b81526004016102b490612d8c565b600754601e5460009101431015610a1757610a106120a1565b9050610a22565b610a1f610af7565b90505b6000600660165460ff166009811115610a3757fe5b1415610a5557601054601854610a529163ffffffff611fea16565b90505b6000610a67838363ffffffff61206616565b905080471015610a895760405162461bcd60e51b81526004016102b490612b4a565b600554601454610aa6916001600160a01b031690339030906120ef565b600354610abc906001600160a01b0316836121e0565b6000610ace478363ffffffff611fa116565b9050610ada33826121e0565b50504360205550506016805460ff19166007179055505060018055565b601654600090819060ff166009811115610b0d57fe5b118015610b2a575060165460099060ff1681811115610b2857fe5b105b610b465760405162461bcd60e51b81526004016102b4906128a8565b600754601e54600091610b5f919063ffffffff61206616565b9050600660165460ff166009811115610b7457fe5b148015610b815750804311155b15610b9657610b8f81610f44565b9150610bb9565b60215415610bad57610b8f6105266021544361208b565b610bb643610f44565b91505b47821115610bc5574791505b5090565b60285481565b601f5481565b601754601854601954601a54601b54601c54601d5487565b6002546001600160a01b03163314610c175760405162461bcd60e51b81526004016102b4906128ed565b600c5460408051634fd7587960e01b815290516001600160a01b0390921691634fd758799160048082019261012092909190829003018186803b158015610c5d57600080fd5b505afa158015610c71573d6000803e3d6000fd5b505050506040513d601f19601f82011682018060405250810190610c95919061264c565b80516006556020810151600755604081015160085560608101516009556080810151600a5560a0810151600b5560c0810151600c80546001600160a01b03199081166001600160a01b039384161790915560e0830151600d8054831691841691909117905561010090920151600e80549093169116179055565b60225481565b6000610d1f610773565b90508060021480610d305750806003145b610d4c5760405162461bcd60e51b81526004016102b490612c51565b60008160021415610d7b57601054601b54610d6c9163ffffffff611fea16565b9050610d76612272565b610d9a565b601054601c54610d909163ffffffff611fea16565b9050610d9a6122eb565b80471015610dba5760405162461bcd60e51b81526004016102b490612ba7565b610dec33610de76064610ddb60176002015486611fea90919063ffffffff16565b9063ffffffff61202416565b6121e0565b600354601a54610e18916001600160a01b031690610de790606490610ddb90869063ffffffff611fea16565b43601f81905560405133917f9c216942fb53599e3610164be0d173eb8b00a4613afdb41d524f00091a819abc91610e4f919061305e565b60405180910390a25050565b6000600660165460ff166009811115610e7057fe5b14905090565b600c54601354604051631334f8cd60e11b81526000926001600160a01b031691632669f19a91610ea9919060040161305e565b60206040518083038186803b158015610ec157600080fd5b505afa158015610ed5573d6000803e3d6000fd5b505050506040513d601f19601f8201168201806040525081019061087891906126f9565b6005546001600160a01b031681565b60245481565b60235481565b60266020526000908152604090205460ff1681565b6001600160a01b031660009081526027602052604090205490565b6000602354821015610f685760405162461bcd60e51b81526004016102b490612e83565b601054602354610f909190610f8490859063ffffffff611fa116565b9063ffffffff611fea16565b92915050565b60276020526000908152604090205481565b60205481565b4790565b610fba61235a565b6000546001600160a01b03908116911614610fe75760405162461bcd60e51b81526004016102b490612d0a565b600080546040516001600160a01b03909116907f8be0079c531659141344cd1fd0a4f28419497f9722a3daafe3b4186f6b6457e0908390a3600080546001600160a01b0319169055565b6025602052600090815260409020805460018201546002909201546001600160a01b03909116919083565b6001600160a01b031660009081526026602052604090205460ff1690565b6004546001600160a01b031681565b6000600260015414156110ae5760405162461bcd60e51b81526004016102b490612fd1565b600260015560165460009060ff1660098111156110c757fe5b1180156110e4575060165460099060ff16818111156110e257fe5b105b6111005760405162461bcd60e51b81526004016102b490613008565b60015b6028548160ff161161113c5760ff8116600090815260256020526040902054611134906001600160a01b031661235e565b600101611103565b5043602355600061114b610773565b9150506001805590565b600260015414156111785760405162461bcd60e51b81526004016102b490612fd1565b60026001556111863361105c565b6111a25760405162461bcd60e51b81526004016102b490612be9565b60006111ac610773565b905060068110156111cf5760405162461bcd60e51b81526004016102b490612efd565b60015b6028548160ff16116112b75760ff8116600090815260256020526040812054611203906001600160a01b0316610f29565b600081815260256020908152604080832060010180549084905560ff87168452818420546001600160a01b031684526026909252909120805460ff1916905590915061125e33610de76064610ddb478663ffffffff611fea16565b60055433600081815260276020908152604080832054835260259091529020600101546112ad926001600160a01b031691906112a890606490610ddb90479063ffffffff611fea16565b612424565b50506001016111d2565b5050436021556016805460ff1916600817905560018055565b6000546001600160a01b031690565b6002546001600160a01b031633146113095760405162461bcd60e51b81526004016102b4906128ed565b600c5460408051631a55d9e960e01b815290516001600160a01b0390921691631a55d9e99160048082019260e092909190829003018186803b15801561134e57600080fd5b505afa158015611362573d6000803e3d6000fd5b505050506040513d601f19601f8201168201806040525081019061138691906125e7565b8051601755602081015160185560408101516019556060810151601a556080810151601b5560a0810151601c5560c00151601d55565b600260015414156113df5760405162461bcd60e51b81526004016102b490612fd1565b6002600155336114015760405162461bcd60e51b81526004016102b490612aa3565b6005546001600160a01b0382811691161461142e5760405162461bcd60e51b81526004016102b490612dd8565b6014546005546040516370a0823160e01b81526001600160a01b03909116906370a082319061146190339060040161274e565b60206040518083038186803b15801561147957600080fd5b505afa15801561148d573d6000803e3d6000fd5b505050506040513d601f19601f820116820180604052508101906114b191906126f9565b10156114cf5760405162461bcd60e51b81526004016102b490612ad0565b600060165460ff1660098111156114e257fe5b146114ff5760405162461bcd60e51b81526004016102b490612a42565b601454600554604051636eb1769f60e11b81526000916001600160a01b03169063dd62ed3e906115359033903090600401612762565b60206040518083038186803b15801561154d57600080fd5b505afa158015611561573d6000803e3d6000fd5b505050506040513d601f19601f8201168201806040525081019061158591906126f9565b9050818110156115a75760405162461bcd60e51b81526004016102b490612b13565b60016028818155604080516060810182523380825260646020808401918252601e805485870190815260008981526025845295517f20a3e2dd35f58e582c5288344c035e137cace924bb9daf3762b8ef5a58327e2680546001600160a01b0319166001600160a01b0392831617905593517f20a3e2dd35f58e582c5288344c035e137cace924bb9daf3762b8ef5a58327e2755517f20a3e2dd35f58e582c5288344c035e137cace924bb9daf3762b8ef5a58327e285583855260268252858520805460ff199081168a179091559654602790925294909320929092556016805490941690941790925543908190556023556005546004546116ad939183169216856120ef565b600c5460135460145460405163c175771b60e01b81526000936001600160a01b03169263c175771b926116e292600401613067565b60206040518083038186803b1580156116fa57600080fd5b505afa15801561170e573d6000803e3d6000fd5b505050506040513d601f19601f8201168201806040525081019061173291906126f9565b600c54604051632976f2fb60e11b81529192506000916001600160a01b03909116906352ede5f69061176890859060040161305e565b60206040518083038186803b15801561178057600080fd5b505afa158015611794573d6000803e3d6000fd5b505050506040513d601f19601f820116820180604052508101906117b891906126f9565b6003549091506117d1906001600160a01b0316826121e0565b601e5460405133917f8da312eaac37817e0ccf8bd45912080260bec10b5dac7e4ab7a438e96a60592191611806918591613067565b60405180910390a2505060018055505050565b6003546001600160a01b031681565b6002600154141561184b5760405162461bcd60e51b81526004016102b490612fd1565b6002600155600760165460ff16600981111561186357fe5b10156118815760405162461bcd60e51b81526004016102b490612c51565b61188a3361105c565b6118a65760405162461bcd60e51b81526004016102b490612d3f565b60015b6028548160ff16116119335760ff81166000908152602560205260408120546001600160a01b0316906118db82610f29565b6000818152602560205260408120600101549192506119056064610ddb478563ffffffff611fea16565b600084815260256020526040812060010155905061192384826121e0565b5050600190920191506118a99050565b507f5dfcd77c1d2e4b9f1f7875aef13b161e0756d81673a6c0707d78d8beef3dcf7b43604051611963919061305e565b60405180910390a160018055565b60165460009060ff16600981111561087857fe5b601e5481565b6004546001600160a01b031633146119b55760405162461bcd60e51b81526004016102b490612cd3565b60165460ff1660098111156119c657fe5b156119e35760405162461bcd60e51b81526004016102b490612c51565b6000611a026064610ddb60176006015447611fea90919063ffffffff16565b90506000611a16478363ffffffff611fa116565b600354909150611a2f906001600160a01b0316836121e0565b611a3933826121e0565b6016805460ff19166009179055600f5460405133907f976729a22a1f27f055a6f0ffa92bd9d2944c972f1d0e25d1b3517bfa523cf49890611a7b90439061305e565b60405180910390a35050565b60215481565b600080611a98610e76565b90506000611aa4611e60565b60145490915060008060165460ff166009811115611abe57fe5b1415611acb575047611ae6565b611ae3611ad6610af7565b479063ffffffff611fa116565b90505b60155460ff61010082048116911610611b4e57601554600090611b1a9060ff8082169161010090041663ffffffff611fa116565b9050611b4681600a0a610ddb86600a0a610ddb6064610f8489610ddb8d8b611fea90919063ffffffff16565b955050611b98565b601554600090611b689060ff610100820481169116611fa1565b9050611b9481600a0a610f8486600a0a610ddb6064610f8489610ddb8d8b611fea90919063ffffffff16565b9550505b5050505090565b600f5460105460115460125460135460145460155460ff8082169161010090041688565b600060026001541415611be85760405162461bcd60e51b81526004016102b490612fd1565b6002600155611bf63361105c565b611c125760405162461bcd60e51b81526004016102b490612a6c565b6000611c1d33610f29565b905060008111611c3f5760405162461bcd60e51b81526004016102b4906129b0565b600081815260256020526040902060010154831115611c705760405162461bcd60e51b81526004016102b490612e3a565b600754601e54014311611c955760405162461bcd60e51b81526004016102b490612924565b60015b6028548160ff1611611cd15760ff8116600090815260256020526040902054611cc9906001600160a01b031661235e565b600101611c98565b50600081815260256020526040902060010154611cf4908463ffffffff611fa116565b600082815260256020526040902060010155611d0f8461105c565b611dae57602854611d2790600163ffffffff61206616565b6028818155604080516060810182526001600160a01b0388811680835260208084018a815243858701908152600098895260258352868920955186546001600160a01b0319169516949094178555516001808601919091559251600290940193909355855260268252828520805460ff191690911790559154602790925290912055611e45565b6000611db985610f29565b600081815260256020526040902060010154909150611dde908563ffffffff61206616565b6000828152602560205260409081902060018101929092554360029092018290555185916001600160a01b0388169133917fb510f1f825ef2a9b3a0fa1d56d8461062ee721c12409714d52332b44b82e6afc91611e3b919061305e565b60405180910390a4505b436023556000611e53610773565b6001805595945050505050565b600c54601354604051632bd61f0560e11b81526000926001600160a01b0316916357ac3e0a91611e93919060040161305e565b60206040518083038186803b158015611eab57600080fd5b505afa158015611ebf573d6000803e3d6000fd5b505050506040513d601f19601f82011682018060405250810190611ee39190612711565b60ff16905090565b611ef361235a565b6000546001600160a01b03908116911614611f205760405162461bcd60e51b81526004016102b490612d0a565b6001600160a01b038116611f465760405162461bcd60e51b81526004016102b49061296a565b600080546040516001600160a01b03808516939216917f8be0079c531659141344cd1fd0a4f28419497f9722a3daafe3b4186f6b6457e091a3600080546001600160a01b0319166001600160a01b0392909216919091179055565b6000611fe383836040518060400160405280601e81526020017f536166654d6174683a207375627472616374696f6e206f766572666c6f770000815250612512565b9392505050565b600082611ff957506000610f90565b8282028284828161200657fe5b0414611fe35760405162461bcd60e51b81526004016102b490612c92565b6000611fe383836040518060400160405280601a81526020017f536166654d6174683a206469766973696f6e206279207a65726f00000000000081525061253e565b600082820183811015611fe35760405162461bcd60e51b81526004016102b4906129df565b600081831061209a5781611fe3565b5090919050565b600754601e546000910143106120c95760405162461bcd60e51b81526004016102b490612a16565b6016805460ff191660061790556010546007546000916120e99190611fea565b91505090565b60006060856001600160a01b03166323b872dd86868660405160240161211793929190612795565b6040516020818303038152906040529060e01b6020820180516001600160e01b0383818316178352505050506040516121509190612732565b6000604051808303816000865af19150503d806000811461218d576040519150601f19603f3d011682016040523d82523d6000602084013e612192565b606091505b50915091508180156121bc5750805115806121bc5750808060200190518101906121bc91906125c7565b6121d85760405162461bcd60e51b81526004016102b490612f8d565b505050505050565b604080516000808252602082019092526001600160a01b03841690839060405161220a9190612732565b60006040518083038185875af1925050503d8060008114612247576040519150601f19603f3d011682016040523d82523d6000602084013e61224c565b606091505b505090508061226d5760405162461bcd60e51b81526004016102b490612eba565b505050565b60165460ff16600981111561228357fe5b6002146122a25760405162461bcd60e51b81526004016102b490612c51565b6016805460ff1916600417905560405133907ff542b84b1e49b5bef195e1e1949cf1eb789fbe49c059b62a89f24af3c6f71d8f906122e190439061305e565b60405180910390a2565b60165460ff1660098111156122fc57fe5b60031461231b5760405162461bcd60e51b81526004016102b490612c51565b6016805460ff1916600517905560405133907f9501cc045c1358e5e6d1aef6f29cb9b1ffb3ea567a4795bffce3050ed74f4d1b906122e190439061305e565b3390565b6123678161105c565b6123835760405162461bcd60e51b81526004016102b490612a6c565b60015b6028548160ff16116124205760ff81166000908152602560205260408120546123b7906001600160a01b0316610f29565b6000818152602560205260408120600101549192506123d4610af7565b90506123de610fae565b81106123fc5760405162461bcd60e51b81526004016102b490612f39565b61241585610de76064610ddb858763ffffffff611fea16565b505050600101612386565b5050565b60006060846001600160a01b031663a9059cbb858560405160240161244a92919061277c565b6040516020818303038152906040529060e01b6020820180516001600160e01b0383818316178352505050506040516124839190612732565b6000604051808303816000865af19150503d80600081146124c0576040519150601f19603f3d011682016040523d82523d6000602084013e6124c5565b606091505b50915091508180156124ef5750805115806124ef5750808060200190518101906124ef91906125c7565b61250b5760405162461bcd60e51b81526004016102b49061282c565b5050505050565b600081848411156125365760405162461bcd60e51b81526004016102b491906127f9565b505050900390565b6000818361255f5760405162461bcd60e51b81526004016102b491906127f9565b50600083858161256b57fe5b0495945050505050565b8051610f9081613186565b600060208284031215612591578081fd5b8135611fe381613186565b600080604083850312156125ae578081fd5b82356125b981613186565b946020939093013593505050565b6000602082840312156125d8578081fd5b81518015158114611fe3578182fd5b600060e082840312156125f8578081fd5b61260260e061312f565b825181526020830151602082015260408301516040820152606083015160608201526080830151608082015260a083015160a082015260c083015160c08201528091505092915050565b600061012080838503121561265f578182fd5b6126688161312f565b835181526020840151602082015260408401516040820152606084015160608201526080840151608082015260a084015160a08201526126ab8560c08601612575565b60c08201526126bd8560e08601612575565b60e082015261010091506126d385838601612575565b918101919091529392505050565b6000602082840312156126f2578081fd5b5035919050565b60006020828403121561270a578081fd5b5051919050565b600060208284031215612722578081fd5b815160ff81168114611fe3578182fd5b60008251612744818460208701613156565b9190910192915050565b6001600160a01b0391909116815260200190565b6001600160a01b0392831681529116602082015260400190565b6001600160a01b03929092168252602082015260400190565b6001600160a01b039384168152919092166020820152604081019190915260600190565b6001600160a01b039390931683526020830191909152604082015260600190565b901515815260200190565b60208101600a83106127f357fe5b91905290565b6000602082528251806020840152612818816040850160208701613156565b601f01601f19169190910160400192915050565b6020808252601f908201527f5472616e7366657248656c7065723a205452414e534645525f4641494c454400604082015260600190565b60208082526025908201527f4c6f616e207374617475732063616e6e6f74207265636569766520636f6c6c616040820152641d195c985b60da1b606082015260800190565b60208082526025908201527f4c6f616e20737461747573206e6f742063616c63756c6174696e6720696e7465604082015264726573747360d81b606082015260800190565b6020808252601f908201527f43616c6c6572206973206e6f7420612076616c6964206465706c6f7965722100604082015260600190565b60208082526026908201527f546f6f2073686f727420706572696f64206166746572206c6f616e20616374696040820152653b30ba34b7b760d11b606082015260800190565b60208082526026908201527f4f776e61626c653a206e6577206f776e657220697320746865207a65726f206160408201526564647265737360d01b606082015260800190565b60208082526015908201527414da185c995a1bdb19195c881b9bdd08199bdd5b99605a1b604082015260600190565b6020808252601b908201527f536166654d6174683a206164646974696f6e206f766572666c6f770000000000604082015260600190565b602080825260129082015271496e636f6e677275656e742073746174757360701b604082015260600190565b60208082526010908201526f496e636f72726563742073746174757360801b604082015260600190565b6020808252601c908201527f41646472657373206973206e6f742061207368617265686f6c64657200000000604082015260600190565b6020808252601390820152721059191c995cdcc81b9bdd08185b1b1bddd959606a1b604082015260600190565b60208082526023908201527f4e6f7420656e6f75676820746f6b656e73206f6e206c656e6465722062616c616040820152626e636560e81b606082015260800190565b60208082526019908201527f436865636b2074686520746f6b656e20616c6c6f77616e636500000000000000604082015260600190565b60208082526039908201527f506c6561736520616464206d6f726520636f6c6c61746572616c20696620796f60408201527f752077616e7420746f20736574746c6520746865206c6f616e00000000000000606082015260800190565b60208082526022908201527f4e6f7420656e6f75676820746f6b656e7320696e206c6f616e20636f6e74726160408201526118dd60f21b606082015260800190565b6020808252601190820152702737ba10309039b430b932b437b63232b960791b604082015260600190565b6020808252602f9082015260008051602061319f83398151915260408201526e636c6f73696e6720616374696f6e7360881b606082015260800190565b602080825260339082015260008051602061319f833981519152604082015272666f7265636c6f73696e6720616374696f6e7360681b606082015260800190565b60208082526021908201527f536166654d6174683a206d756c7469706c69636174696f6e206f766572666c6f6040820152607760f81b606082015260800190565b6020808252601a908201527f43616e63656c2072657175657374206e6f7420616c6c6f776564000000000000604082015260600190565b6020808252818101527f4f776e61626c653a2063616c6c6572206973206e6f7420746865206f776e6572604082015260600190565b6020808252602d908201527f4164647265737320726571756972696e6720696e74657265737420776974686460408201526c726177206e6f7420616c6c6f7760981b606082015260800190565b6020808252602c908201527f436865636b2074686520746f6b656e20616c6c6f77616e636520746f2073657460408201526b3a3632903a3432903637b0b760a11b606082015260800190565b602080825260119082015270151bdad95b881b9bdd08185b1b1bddd959607a1b604082015260600190565b60208082526017908201527f43616c6c6572206e6f742074686520626f72726f776572000000000000000000604082015260600190565b60208082526029908201527f5368617265686f6c64657220686173206e6f7420656e6f7567682073686172656040820152681cc81d1bc81cd95b1b60ba1b606082015260800190565b60208082526018908201527f426c6f636b206e756d626572206e6f7420616c6c6f7765640000000000000000604082015260600190565b60208082526023908201527f5472616e7366657248656c7065723a204554485f5452414e534645525f46414960408201526213115160ea1b606082015260800190565b6020808252602e9082015260008051602061319f83398151915260408201526d636c6f73656420616374696f6e7360901b606082015260800190565b60208082526034908201527f4163637275656420696e7465726573747320617265206d6f7265207468616e2060408201527374686520636f6e74726163742062616c616e636560601b606082015260800190565b60208082526024908201527f5472616e7366657248656c7065723a205452414e534645525f46524f4d5f46416040820152631253115160e21b606082015260800190565b6020808252601f908201527f5265656e7472616e637947756172643a207265656e7472616e742063616c6c00604082015260600190565b602080825260429082015260008051602061319f83398151915260408201527f7769746864726177206163637275656420696e7465726573747320616374696f6060820152616e7360f01b608082015260a00190565b90815260200190565b918252602082015260400190565b988952602089019790975260408801959095526060870193909352608086019190915260a08501526001600160a01b0390811660c085015290811660e0840152166101008201526101200190565b968752602087019590955260408601939093526060850191909152608084015260a083015260c082015260e00190565b978852602088019690965260408701949094526060860192909252608085015260a084015260ff90811660c08401521660e08201526101000190565b60405181810167ffffffffffffffff8111828210171561314e57600080fd5b604052919050565b60005b83811015613171578181015183820152602001613159565b83811115613180576000848401525b50505050565b6001600160a01b038116811461319b57600080fd5b5056fe4c6f616e20737461747573206e6f7420636f6d70617469626c65207769746820a264697066735822122093b3538c400c6f5b44b181c17cc71eac4c540ef57bbfcb9af926512964dabd4064736f6c634300060b00338be0079c531659141344cd1fd0a4f28419497f9722a3daafe3b4186f6b6457e0",
  "immutableReferences": {},
  "source": "// SPDX-License-Identifier: MIT\n\npragma solidity ^0.6.11;\npragma experimental ABIEncoderV2;\n\nimport \"@openzeppelin/contracts/math/SafeMath.sol\";\nimport \"@openzeppelin/contracts/math/Math.sol\";\nimport \"@openzeppelin/contracts/access/Ownable.sol\";\nimport \"@openzeppelin/contracts/token/ERC20/IERC20.sol\";\nimport \"@openzeppelin/contracts/utils/ReentrancyGuard.sol\";\nimport \"./IJLoanCommons.sol\";\nimport \"./IJLoanEth.sol\";\nimport \"./IJFactory.sol\";\nimport \"./TransferHelper.sol\";\n\ncontract JLoanEth is Ownable, ReentrancyGuard, IJLoanCommons {\n    using SafeMath for uint;\n\n    address public ethDeployer;\n    address payable public feesCollector;\n\n    address public borrowerAddress;\n\n    IERC20 public cryptoFromLender;\n\n    params public loanParams;\n    contractParams public commonParams;\n    Status public loanStatus;\n    feesParams public loanFees;\n    \n    uint public loanActiveBlock;\n    uint public loanInitiateForeCloseBlock;\n    uint public loanClosingBlock;\n    uint public loanClosedBlock;\n    uint public lastDepositBlock;\n    uint public lastInterestWithdrawalBlock;\n    uint public stopInterestsBlock;\n\n    struct ShareHolder {\n        address holder;\n        uint shares;\n        uint ownerBlockNumber;\n    }\n\n    mapping(uint => ShareHolder) public shareHolders;\n    mapping(address => bool) public shareHoldersAddress;\n    mapping(address => uint) public shareHoldersPlace;\n    uint public shareHoldersCounter;\n\n    event LoanContractDeployed(uint creationBlock, uint value, string eth);\n    event NewDeposit(uint depositAmount);\n    event EthReceived(address sender, uint value);\n    event EthWithdraw(uint blockNumber);\n    event LenderAccepted(address indexed lenderAddress, uint factoryFees, uint loanActiveBlock);\n    event InitiateForeClosure(address indexed sender, uint blockNumber);\n    event LoanAtRiskFromForeclosing(address indexed sender, uint blockNumber);\n    event LoanForeclosing(address indexed sender, uint blockNumber);\n    event LoanForeclosed(address indexed sender, uint blockNumber);\n    event LoanCancelled(address indexed sender, uint indexed loanId, uint blockNumber);\n    event NewLoanStatus(uint loanStatus);\n    event NewShareHolder(address indexed sharesSeller, address indexed newShareholder, uint indexed amount, uint blockNumber);\n    event AddShareHolderShares(address indexed sharesSeller, address indexed sharesBuyer, uint indexed amount, uint blockNumber);\n\n    //// Status = 0\n    constructor(address _sender,\n                uint _id, \n                uint _pairId, \n                uint _borrowedAskAmount, \n                uint _rpbRate, \n                address _factoryAddress,\n                address _lendCrypto,\n                address payable _ethFeesCollector) public payable {  \n        require(msg.sender!=address(0), \"Sender address not allowed\");\n        ethDeployer = msg.sender;\n        require(_sender!=address(0), \"Sender address not allowed\");\n        borrowerAddress = _sender;\n        loanParams = IJFactory(_factoryAddress).getGeneralParams();\n        loanFees = IJFactory(_factoryAddress).getGeneralFees();\n        uint totalCollateralRequest = IJFactory(_factoryAddress).calcMinCollateralWithFeesAmount(_pairId, _borrowedAskAmount);\n        require(borrowerAddress.balance >= totalCollateralRequest, \"Borrower does not have enough ethers\");\n        require(msg.value >= totalCollateralRequest, \"Please send more ethers\");\n        feesCollector = _ethFeesCollector;\n        require(_rpbRate >= loanParams.minRpbRate, \"Interest too low!\");\n        commonParams.loanId = _id;\n        commonParams.rpbRate = _rpbRate;\n        commonParams.pairId = _pairId;\n        cryptoFromLender = IERC20(_lendCrypto); //DAI\n        commonParams.borrowedAskAmount = _borrowedAskAmount;\n        commonParams.collDecimals = 18; //eth decimals\n        commonParams.lendDecimals = IJFactory(_factoryAddress).getPairQuoteDecimals(_pairId); //lend token decimals\n        commonParams.initialCollateralRatio = getActualCollateralRatio();\n        commonParams.creationBlock = block.number;\n        loanStatus = Status.pending;\n        //Transfer ownership to factory address\n        transferOwnership(loanParams.factoryAddress);\n        emit LoanContractDeployed(commonParams.creationBlock, msg.value, \"eth\");\n    }\n\n    modifier onlyEthDeployer() {\n        require(msg.sender == ethDeployer, \"Caller is not a valid deployer!\");\n        _;\n    }\n\n    fallback() external payable {\n        require(loanStatus >= Status.active && loanStatus <= Status.foreClosing, \"Loan status cannot receive collateral\");\n        emit EthReceived(msg.sender, msg.value);\n    }\n\n    receive() external payable { //deposit eth\n        require(loanStatus >= Status.active && loanStatus <= Status.foreClosing, \"Loan status cannot receive collateral\");\n        //uint newStatus = setLoanStatusOnCollRatio();\n        //lastDepositBlock = block.number;\n        emit EthReceived(msg.sender, msg.value);\n    }\n\n    //// Utility functions\n    /**\n    * @dev set common parameters in loan contract, reading them from factory\n    */\n    function setNewCommonParams() external onlyEthDeployer {\n        loanParams = IJFactory(loanParams.factoryAddress).getGeneralParams();\n    }\n\n    /**\n    * @dev set common parameters in loan contract, reading them from factory\n    */\n    function setNewFeesParams() external onlyEthDeployer {\n        loanFees = IJFactory(loanParams.factoryAddress).getGeneralFees();\n    }\n\n    /**\n    * @dev withdraw ethers from contract, every shareholder with his percentage\n    */\n    function withdrawEth() public nonReentrant {\n        require(loanStatus >= Status.closing, \"Loan status not compatible with foreclosing actions\" );\n        require(isShareHolder(msg.sender), \"Address requiring interest withdraw not allow\"); \n        //require(block.number > loanActiveBlock + loanParams.earlySettlementWindow, \"Too short period after loan activation\");\n        for (uint8 i = 1; i <= shareHoldersCounter; i++) {\n            address shAddress = shareHolders[i].holder;\n            uint shPlace = getShareHolderPlace(shareHolders[i].holder);\n            uint shShares = shareHolders[shPlace].shares;\n            uint withdrawAmount = address(this).balance.mul(shShares).div(100);\n            shareHolders[shPlace].shares = 0;\n            TransferHelper.safeTransferETH(shAddress, withdrawAmount);\n        }\n        emit EthWithdraw(block.number);\n    }\n\n    /**\n    * @dev get contract balance\n    * @return balance\n    */\n    function getContractBalance() public view returns (uint) {\n        return address(this).balance;\n    }\n\n    /**\n    * @dev get contract status\n    * @return status\n    */\n    function getLoanStatus() external view returns (uint){\n        return uint(loanStatus);\n    }\n\n    /**\n    * @dev get pair price\n    * @return price\n    */\n    function getPairPrice() public view returns (uint){\n        return IJFactory(loanParams.factoryAddress).getPairValue(commonParams.pairId);\n    }\n\n    /**\n    * @dev get pair decimals\n    * @return number of decimals\n    */\n    function getPairDecimals() public view returns (uint){\n        return IJFactory(loanParams.factoryAddress).getPairDecimals(commonParams.pairId);\n    }\n\n    /**\n    * @dev check if loan is in early settlement period\n    * @return boolean\n    */\n    function checkEarlySettledLoan() public view returns (bool) {\n        return loanStatus == Status.earlyClosing;\n    }\n\n    //// Status 0 -> 1\n    /**\n    * @dev lender sends required stable coins to borrower and set the initial lender as a stakeholder (100%)\n    * @param _stableAddr, address of the stabl coin address\n    */\n    function lenderSendStableCoins(address _stableAddr) external nonReentrant {\n        require(msg.sender != address(0), \"Address not allowed\");\n        require(_stableAddr == address(cryptoFromLender), \"Token not allowed\");\n        require(cryptoFromLender.balanceOf(msg.sender) >= commonParams.borrowedAskAmount, \"Not enough tokens on lender balance\");\n        require(loanStatus == Status.pending, \"Incorrect status\");\n        uint askAmount = commonParams.borrowedAskAmount;\n        uint256 allowance = cryptoFromLender.allowance(msg.sender, address(this));\n        require(allowance >= askAmount, \"Check the token allowance\");\n        shareHoldersCounter = 1;\n        shareHolders[shareHoldersCounter] = ShareHolder({holder: msg.sender, shares: 100, ownerBlockNumber: loanActiveBlock});\n        shareHoldersAddress[msg.sender] = true;\n        shareHoldersPlace[msg.sender] = shareHoldersCounter;\n        loanStatus = Status.active;\n        loanActiveBlock = block.number;\n        lastInterestWithdrawalBlock = block.number;\n        TransferHelper.safeTransferFrom(address(cryptoFromLender), msg.sender, borrowerAddress, askAmount);\n        // move factory fees only when loan becomes active\n        uint minCollateralEth = IJFactory(loanParams.factoryAddress).calcMinCollateralAmount(commonParams.pairId, commonParams.borrowedAskAmount);\n        uint fees4Factory = IJFactory(loanParams.factoryAddress).calculateCollFeesOnActivation(minCollateralEth); // 5/1000 = 0,5%\n        TransferHelper.safeTransferETH(payable(feesCollector), fees4Factory);\n        //payable(feesCollector).transfer(fees4Factory);\n        emit LenderAccepted(msg.sender, fees4Factory, loanActiveBlock);\n    }\n\n    //// Status 1 or 2 or 3, based on collateral ratio\n    /**\n    * @dev set the status of the loan based on collateral ratio, applied only in states allowed \n    * @return loan status\n    */\n    function setLoanStatusOnCollRatio() public returns (uint){\n        if (uint(loanStatus) > 0 && uint(loanStatus) < 5) {     //not allowed if loan not active or foreclosed or in closing status or closed\n            uint newCollRatio = getActualCollateralRatio(); // (i.e. 180 means 180%)\n            if ( newCollRatio >= loanParams.foreclosingRatio )\n                loanStatus = Status(1);\n            else if ( newCollRatio <= loanParams.foreclosingRatio && newCollRatio >= loanParams.instantForeclosureRatio )\n                loanStatus = Status(2);\n            else if ( newCollRatio < loanParams.instantForeclosureRatio )\n                loanStatus = Status(3);\n        }\n        // else no change on status\n        emit NewLoanStatus(uint(loanStatus));\n        return uint(loanStatus);\n    }\n\n    //// Status 4 or 5, starting from 2 or 3, depending on collateral ratio\n    /**\n    * @dev set the loan in foreclosure state for undercollateralized loans (tbd: reward for caller)\n    */\n    function initiateLoanForeClose() external {\n        uint status = setLoanStatusOnCollRatio();\n        require(status == 2 || status == 3, \"Loan status not compatible with foreclosing actions\");\n        uint reward;\n        if (status == 2) {\n            reward = (loanFees.undercollateralizedForeclosingMultiple).mul(commonParams.rpbRate);\n            setLoanForeclosing();\n        } else {\n            reward = (loanFees.atRiskForeclosedMultiple).mul(commonParams.rpbRate);\n            setLoanForeclosed();\n        }\n        require(address(this).balance >= reward, \"Not enough tokens in loan contract\");\n        TransferHelper.safeTransferETH(msg.sender, reward.mul(loanFees.userRewardShare).div(100));\n        TransferHelper.safeTransferETH(payable(feesCollector), reward.mul(loanFees.vaultShare).div(100));\n        loanInitiateForeCloseBlock = block.number;\n        emit InitiateForeClosure(msg.sender, loanInitiateForeCloseBlock);\n    }\n\n    //// Status 2 -> 4\n    /**\n    * @dev set the loan in foreclosure state for undercollateralized loans (tbd: reward for caller)\n    */\n    function setLoanForeclosing() internal {\n        require(uint(loanStatus) == 2, \"Loan status not compatible with foreclosing actions\");\n        loanStatus = Status.foreClosing;\n        emit LoanForeclosing(msg.sender, block.number);\n    }\n\n    //// Status 2 -> 5\n    /**\n    * @dev set the loan in foreclosure state for undercollateralized loans (tbd: reward for caller)\n    */\n    function setLoanForeclosed() internal {\n        require(uint(loanStatus) == 3, \"Loan status not compatible with foreclosing actions\");\n        loanStatus = Status.foreClosed;\n        emit LoanForeclosed(msg.sender, block.number);\n    }\n\n    //// Status = 6\n    function loanEarlyClosing() internal returns (uint) {\n        require(block.number < loanActiveBlock + loanParams.earlySettlementWindow, \"Incongruent status\");\n        loanStatus = Status.earlyClosing;\n        uint balanceRequested = (loanParams.earlySettlementWindow).mul(commonParams.rpbRate);\n        return balanceRequested;\n    }\n\n    //// Status = 7\n    /**\n    * @dev set the loan in normal closing state \n    */\n    function loanClosing() external nonReentrant {\n        require(msg.sender == borrowerAddress, \"Caller not the borrower\");\n        uint status = setLoanStatusOnCollRatio();\n        require(status > 0 && status <= 6, \"Loan status not compatible with closing actions\");\n         // check that borrower gives back the loaned stable coin amount\n        uint256 allowance = cryptoFromLender.allowance(msg.sender, address(this));\n        require(allowance >= commonParams.borrowedAskAmount, \"Check the token allowance to settle the loan\");\n        uint balanceRequested;\n        if (block.number < loanActiveBlock + loanParams.earlySettlementWindow)\n            balanceRequested = loanEarlyClosing();\n        else\n            balanceRequested = getAccruedInterests();\n        uint feesAmount = 0;\n        if (loanStatus == Status.earlyClosing) \n            feesAmount = (loanFees.earlySettlementFee).mul(commonParams.rpbRate);\n        uint requestedAmount = balanceRequested.add(feesAmount);\n        require(address(this).balance >= requestedAmount, \"Please add more collateral if you want to settle the loan\");\n        TransferHelper.safeTransferFrom(address(cryptoFromLender), msg.sender, address(this), commonParams.borrowedAskAmount);\n        TransferHelper.safeTransferETH(payable(feesCollector), feesAmount);\n        //payable(feesCollector).transfer(feesAmount);\n        uint withdrawalBalance = (address(this).balance).sub(requestedAmount); \n        TransferHelper.safeTransferETH(msg.sender, withdrawalBalance);\n        //(msg.sender).transfer(withdrawalBalance);\n        loanClosingBlock = block.number;\n        loanStatus = Status.closing;\n    }\n\n\n    //// Status = 8\n    /**\n    * @dev set the loan in closed state, let Shareholders to withdraw the stable coins back\n    */\n    function loanClosed() external nonReentrant {\n        require(isShareHolder(msg.sender), \"Not a shareholder\");\n        uint status = setLoanStatusOnCollRatio();\n        require(status >= 6, \"Loan status not compatible with closed actions\");\n        for (uint8 i = 1; i <= shareHoldersCounter; i++) {\n            uint shPlace = getShareHolderPlace(shareHolders[i].holder);\n            uint shShares = shareHolders[shPlace].shares;\n            shareHolders[shPlace].shares = 0;\n            shareHoldersAddress[shareHolders[i].holder] = false;\n            TransferHelper.safeTransferETH(msg.sender, address(this).balance.mul(shShares).div(100));\n            //(msg.sender).transfer(address(this).balance.mul(shShares).div(100));\n            TransferHelper.safeTransfer(address(cryptoFromLender), msg.sender, (address(this).balance).mul(shareHolders[shareHoldersPlace[msg.sender]].shares).div(100));\n        }\n        loanClosedBlock = block.number;\n        loanStatus = Status.closed;\n    }\n\n    //// Status = 9\n    /**\n    * @dev set the loan in cancelled state (only if pending)\n    */\n    function setLoanCancelled() external {\n        require(msg.sender == borrowerAddress, \"Cancel request not allowed\");\n        require(uint(loanStatus) == 0, \"Loan status not compatible with foreclosing actions\");\n        uint feeCalc = (address(this).balance).mul(loanFees.cancellationFees).div(100);\n        uint withdrawalBalance = (address(this).balance).sub(feeCalc);\n        TransferHelper.safeTransferETH(payable(feesCollector), feeCalc);\n        TransferHelper.safeTransferETH(msg.sender, withdrawalBalance);\n        //feesCollector.transfer(feeCalc);\n        //(msg.sender).transfer(withdrawalBalance);\n        loanStatus = Status.cancelled;\n        emit LoanCancelled(msg.sender, commonParams.loanId, block.number);\n    }\n\n\n    /**\n    * @dev get the collateral ratio of the loan (subtracting the accrued interests)\n    * @return newCollRatio collateral ratio\n    */\n    function getActualCollateralRatio() public view returns (uint newCollRatio) {\n        //require(uint(loanStatus) >= 1, \"Loan status not allowed\");\n        uint newPrice = getPairPrice();\n        uint pairDecimals = getPairDecimals();\n        uint borrAmnt = commonParams.borrowedAskAmount;\n        uint loanBalance;\n        if (loanStatus == Status.pending)\n            loanBalance = address(this).balance;\n        else\n            loanBalance = (address(this).balance).sub(getAccruedInterests());\n        if (commonParams.collDecimals >= commonParams.lendDecimals) {\n            uint diffBaseQuoteDecimals = uint(commonParams.collDecimals).sub(uint(commonParams.lendDecimals));\n            newCollRatio = loanBalance.mul(newPrice).div(borrAmnt).mul(100).div(10 ** pairDecimals).div(10 ** diffBaseQuoteDecimals);\n        } else {\n            uint diffBaseQuoteDecimals = uint(commonParams.lendDecimals).sub(uint(commonParams.collDecimals));\n            newCollRatio = loanBalance.mul(newPrice).div(borrAmnt).mul(100).div(10 ** pairDecimals).mul(10 ** diffBaseQuoteDecimals);\n        }\n        return newCollRatio;\n    }\n\n    //// Calculating interests functions\n    /**\n    * @dev calculate accrued interests of the contract\n    * @return accrued interests\n    */\n    function calculatingAccruedInterests(uint _calcBlk) public view returns (uint) {\n        require(_calcBlk >= lastInterestWithdrawalBlock, \"Block number not allowed\");\n        return _calcBlk.sub(lastInterestWithdrawalBlock).mul(commonParams.rpbRate);  \n    }\n\n    /**\n    * @dev get accrued interests of the contract\n    * @return accruedInterests total accrued interests\n    */\n    function getAccruedInterests() public view returns (uint accruedInterests) {\n        require(uint(loanStatus) > 0 && uint(loanStatus) < 9, \"Loan status not calculating interests\");\n        //require(isShareHolder(msg.sender), \"Caller not allowed\");\n        uint lastEarlyBlock = loanActiveBlock.add(loanParams.earlySettlementWindow);\n        if (loanStatus == Status.earlyClosing && block.number <= lastEarlyBlock) {\n            accruedInterests = calculatingAccruedInterests(lastEarlyBlock);\n        } else {\n             if (loanClosedBlock != 0)\n                accruedInterests = calculatingAccruedInterests(Math.min(loanClosedBlock, block.number));\n            else\n                accruedInterests = calculatingAccruedInterests(block.number);\n        }\n        if ( accruedInterests > address(this).balance )\n            accruedInterests = address(this).balance;\n        return accruedInterests;\n    }\n\n    /**\n    * @dev withdraw accreud interests for all shareholders and set the status after interests withdrawal\n    * @return new status\n    */\n    function withdrawInterests() public nonReentrant returns (uint) {\n        // interests of all shareholders must be withdrawn with their shares amount\n        require(uint(loanStatus) > 0 && uint(loanStatus) < 9, \"Loan status not compatible with withdraw accrued interests actions\" );\n        //require(block.number > loanActiveBlock + loanParams.earlySettlementWindow, \"Too short period after loan activation\");\n        for (uint8 i = 1; i <= shareHoldersCounter; i++) {\n            shareholderWithdrawInterests(shareHolders[i].holder);\n        }\n        lastInterestWithdrawalBlock = block.number;\n        uint status = setLoanStatusOnCollRatio();\n        return status;\n    }\n\n    //// Shareholders functions\n    /**\n    * @dev withdraw accreud interests for a shareholder\n    * @param _shareHolder shareholder address\n    */\n    function shareholderWithdrawInterests(address _shareHolder) internal {\n        require(isShareHolder(_shareHolder), \"Address is not a shareholder\"); \n        for (uint8 i = 1; i <= shareHoldersCounter; i++) {\n            uint shPlace = getShareHolderPlace(shareHolders[i].holder);\n            uint shShares = shareHolders[shPlace].shares;\n            uint accruedTotalInterests = getAccruedInterests();\n            require(accruedTotalInterests < getContractBalance(), \"Accrued interests are more than the contract balance\");\n            TransferHelper.safeTransferETH(payable(_shareHolder), accruedTotalInterests.mul(shShares).div(100));\n            //payable(_shareHolder).transfer(accruedTotalInterests.mul(shShares).div(100));\n        }\n    }\n\n    /**\n    * @dev check if an address is a shareholder\n    * @return boolean\n    */\n    function isShareHolder(address _holder) public view returns (bool) {\n        return shareHoldersAddress[_holder];\n    }\n\n    /**\n    * @dev get a shareholder place in shareholders array\n    * @return boolean\n    */\n    function getShareHolderPlace(address _holder) public view returns (uint) {\n        return shareHoldersPlace[_holder];\n    }\n\n    /**\n    * @dev add shareholder in shareholders arrays\n    * @param _newShareholder buyer address\n    * @param _amount amount of shares\n    * @return new status\n    */\n    function addLoanShareHolders(address _newShareholder, uint _amount) public nonReentrant returns (uint) {\n        require(isShareHolder(msg.sender), \"Address is not a shareholder\");\n        uint shPlace = getShareHolderPlace(msg.sender);\n        require(shPlace > 0, \"Shareholder not found\");\n        require(shareHolders[shPlace].shares >= _amount, \"Shareholder has not enough shares to sell\");\n        //before shares could be selled, interests of all shareholders must be withdrawn with old shares amount, in order to start with a new situation\n        require(block.number > loanActiveBlock + loanParams.earlySettlementWindow, \"Too short period after loan activation\");\n        for (uint8 i = 1; i <= shareHoldersCounter; i++) {\n            shareholderWithdrawInterests(shareHolders[i].holder);\n        }\n\n        shareHolders[shPlace].shares = shareHolders[shPlace].shares.sub(_amount);\n        if(!isShareHolder(_newShareholder)) {\n            shareHoldersCounter = shareHoldersCounter.add(1);\n            shareHolders[shareHoldersCounter] = ShareHolder({holder: _newShareholder, shares: _amount, ownerBlockNumber: block.number});\n            shareHoldersAddress[_newShareholder] = true;\n            shareHoldersPlace[_newShareholder] = shareHoldersCounter;\n        } else {\n            uint shPlaceNew = getShareHolderPlace(_newShareholder);\n            shareHolders[shPlaceNew].shares = shareHolders[shPlaceNew].shares.add(_amount);\n            shareHolders[shPlaceNew].ownerBlockNumber = block.number;\n            emit AddShareHolderShares(msg.sender, _newShareholder, _amount, block.number);\n        }\n\n        lastInterestWithdrawalBlock = block.number;\n        uint status = setLoanStatusOnCollRatio();\n        return status;\n    }\n\n}",
  "sourcePath": "C:\\Users\\saurabh\\code\\Jibrel\\defi-smartcontracts\\LoansFactoryV2\\contracts\\JLoanEth.sol",
  "compiler": {
    "name": "solc",
    "version": "0.6.11+commit.5ef660b1.Emscripten.clang"
  },
  "schemaVersion": "3.2.5",
  "updatedAt": "2020-10-07T06:42:49.026Z",
  "devdoc": {
    "kind": "dev",
    "methods": {
      "addLoanShareHolders(address,uint256)": {
        "details": "add shareholder in shareholders arrays",
        "params": {
          "_amount": "amount of shares",
          "_newShareholder": "buyer address"
        },
        "returns": {
          "_0": "new status"
        }
      },
      "calculatingAccruedInterests(uint256)": {
        "details": "calculate accrued interests of the contract",
        "returns": {
          "_0": "accrued interests"
        }
      },
      "checkEarlySettledLoan()": {
        "details": "check if loan is in early settlement period",
        "returns": {
          "_0": "boolean"
        }
      },
      "getAccruedInterests()": {
        "details": "get accrued interests of the contract",
        "returns": {
          "accruedInterests": "total accrued interests"
        }
      },
      "getActualCollateralRatio()": {
        "details": "get the collateral ratio of the loan (subtracting the accrued interests)",
        "returns": {
          "newCollRatio": "collateral ratio"
        }
      },
      "getContractBalance()": {
        "details": "get contract balance",
        "returns": {
          "_0": "balance"
        }
      },
      "getLoanStatus()": {
        "details": "get contract status",
        "returns": {
          "_0": "status"
        }
      },
      "getPairDecimals()": {
        "details": "get pair decimals",
        "returns": {
          "_0": "number of decimals"
        }
      },
      "getPairPrice()": {
        "details": "get pair price",
        "returns": {
          "_0": "price"
        }
      },
      "getShareHolderPlace(address)": {
        "details": "get a shareholder place in shareholders array",
        "returns": {
          "_0": "boolean"
        }
      },
      "initiateLoanForeClose()": {
        "details": "set the loan in foreclosure state for undercollateralized loans (tbd: reward for caller)"
      },
      "isShareHolder(address)": {
        "details": "check if an address is a shareholder",
        "returns": {
          "_0": "boolean"
        }
      },
      "lenderSendStableCoins(address)": {
        "details": "lender sends required stable coins to borrower and set the initial lender as a stakeholder (100%)",
        "params": {
          "_stableAddr": ", address of the stabl coin address"
        }
      },
      "loanClosed()": {
        "details": "set the loan in closed state, let Shareholders to withdraw the stable coins back"
      },
      "loanClosing()": {
        "details": "set the loan in normal closing state "
      },
      "owner()": {
        "details": "Returns the address of the current owner."
      },
      "renounceOwnership()": {
        "details": "Leaves the contract without owner. It will not be possible to call `onlyOwner` functions anymore. Can only be called by the current owner. NOTE: Renouncing ownership will leave the contract without an owner, thereby removing any functionality that is only available to the owner."
      },
      "setLoanCancelled()": {
        "details": "set the loan in cancelled state (only if pending)"
      },
      "setLoanStatusOnCollRatio()": {
        "details": "set the status of the loan based on collateral ratio, applied only in states allowed ",
        "returns": {
          "_0": "loan status"
        }
      },
      "setNewCommonParams()": {
        "details": "set common parameters in loan contract, reading them from factory"
      },
      "setNewFeesParams()": {
        "details": "set common parameters in loan contract, reading them from factory"
      },
      "transferOwnership(address)": {
        "details": "Transfers ownership of the contract to a new account (`newOwner`). Can only be called by the current owner."
      },
      "withdrawEth()": {
        "details": "withdraw ethers from contract, every shareholder with his percentage"
      },
      "withdrawInterests()": {
        "details": "withdraw accreud interests for all shareholders and set the status after interests withdrawal",
        "returns": {
          "_0": "new status"
        }
      }
    },
    "version": 1
  },
  "userdoc": {
    "kind": "user",
    "methods": {},
    "version": 1
  }
}