{
  "contractName": "JLoanTokenDeployer",
  "abi": [
    {
      "inputs": [],
      "stateMutability": "nonpayable",
      "type": "constructor"
    },
    {
      "anonymous": false,
      "inputs": [
        {
          "indexed": true,
          "internalType": "uint256",
          "name": "loanId",
          "type": "uint256"
        },
        {
          "indexed": true,
          "internalType": "address",
          "name": "sender",
          "type": "address"
        },
        {
          "indexed": true,
          "internalType": "address",
          "name": "newLoan",
          "type": "address"
        },
        {
          "indexed": false,
          "internalType": "uint256",
          "name": "borrowerLength",
          "type": "uint256"
        }
      ],
      "name": "NewTokenLoanCreated",
      "type": "event"
    },
    {
      "anonymous": false,
      "inputs": [
        {
          "indexed": true,
          "internalType": "address",
          "name": "previousOwner",
          "type": "address"
        },
        {
          "indexed": true,
          "internalType": "address",
          "name": "newOwner",
          "type": "address"
        }
      ],
      "name": "OwnershipTransferred",
      "type": "event"
    },
    {
      "anonymous": false,
      "inputs": [
        {
          "indexed": false,
          "internalType": "uint256",
          "name": "idx",
          "type": "uint256"
        },
        {
          "indexed": false,
          "internalType": "uint256",
          "name": "oldStatus",
          "type": "uint256"
        },
        {
          "indexed": false,
          "internalType": "uint256",
          "name": "newStatus",
          "type": "uint256"
        }
      ],
      "name": "SetNewStatus",
      "type": "event"
    },
    {
      "inputs": [],
      "name": "borrowerLength",
      "outputs": [
        {
          "internalType": "uint256",
          "name": "",
          "type": "uint256"
        }
      ],
      "stateMutability": "view",
      "type": "function",
      "constant": true
    },
    {
      "inputs": [
        {
          "internalType": "uint256",
          "name": "",
          "type": "uint256"
        }
      ],
      "name": "borrowerList",
      "outputs": [
        {
          "internalType": "address",
          "name": "",
          "type": "address"
        }
      ],
      "stateMutability": "view",
      "type": "function",
      "constant": true
    },
    {
      "inputs": [
        {
          "internalType": "address",
          "name": "",
          "type": "address"
        }
      ],
      "name": "borrowers",
      "outputs": [
        {
          "internalType": "bool",
          "name": "",
          "type": "bool"
        }
      ],
      "stateMutability": "view",
      "type": "function",
      "constant": true
    },
    {
      "inputs": [],
      "name": "loanParams",
      "outputs": [
        {
          "internalType": "uint256",
          "name": "minRpbRate",
          "type": "uint256"
        },
        {
          "internalType": "uint256",
          "name": "earlySettlementWindow",
          "type": "uint256"
        },
        {
          "internalType": "uint256",
          "name": "foreclosureWindow",
          "type": "uint256"
        },
        {
          "internalType": "uint256",
          "name": "requiredCollateralRatio",
          "type": "uint256"
        },
        {
          "internalType": "uint256",
          "name": "foreclosingRatio",
          "type": "uint256"
        },
        {
          "internalType": "uint256",
          "name": "instantForeclosureRatio",
          "type": "uint256"
        },
        {
          "internalType": "address",
          "name": "factoryAddress",
          "type": "address"
        },
        {
          "internalType": "address",
          "name": "ethDeployerAddress",
          "type": "address"
        },
        {
          "internalType": "address",
          "name": "tokenDeployerAddress",
          "type": "address"
        }
      ],
      "stateMutability": "view",
      "type": "function",
      "constant": true
    },
    {
      "inputs": [],
      "name": "owner",
      "outputs": [
        {
          "internalType": "address",
          "name": "",
          "type": "address"
        }
      ],
      "stateMutability": "view",
      "type": "function",
      "constant": true
    },
    {
      "inputs": [],
      "name": "renounceOwnership",
      "outputs": [],
      "stateMutability": "nonpayable",
      "type": "function"
    },
    {
      "inputs": [
        {
          "internalType": "address",
          "name": "newOwner",
          "type": "address"
        }
      ],
      "name": "transferOwnership",
      "outputs": [],
      "stateMutability": "nonpayable",
      "type": "function"
    },
    {
      "inputs": [
        {
          "internalType": "address",
          "name": "_factAddr",
          "type": "address"
        }
      ],
      "name": "setLoanFactory",
      "outputs": [],
      "stateMutability": "nonpayable",
      "type": "function"
    },
    {
      "inputs": [
        {
          "internalType": "uint256",
          "name": "_newValue",
          "type": "uint256"
        }
      ],
      "name": "setTokenLoansCounter",
      "outputs": [],
      "stateMutability": "nonpayable",
      "type": "function"
    },
    {
      "inputs": [],
      "name": "getDeployedTokenLoansCounter",
      "outputs": [
        {
          "internalType": "uint256",
          "name": "",
          "type": "uint256"
        }
      ],
      "stateMutability": "view",
      "type": "function",
      "constant": true
    },
    {
      "inputs": [
        {
          "internalType": "uint256",
          "name": "idx",
          "type": "uint256"
        }
      ],
      "name": "getDeployedTokenLoanAddress",
      "outputs": [
        {
          "internalType": "address",
          "name": "",
          "type": "address"
        }
      ],
      "stateMutability": "view",
      "type": "function",
      "constant": true
    },
    {
      "inputs": [
        {
          "internalType": "address",
          "name": "_loanAddr",
          "type": "address"
        }
      ],
      "name": "isTokenLoanDeployed",
      "outputs": [
        {
          "internalType": "bool",
          "name": "",
          "type": "bool"
        }
      ],
      "stateMutability": "view",
      "type": "function",
      "constant": true
    },
    {
      "inputs": [
        {
          "internalType": "address",
          "name": "_sender",
          "type": "address"
        },
        {
          "internalType": "uint256",
          "name": "_id",
          "type": "uint256"
        },
        {
          "internalType": "uint256",
          "name": "_pairId",
          "type": "uint256"
        },
        {
          "internalType": "uint256",
          "name": "_borrowedAskAmount",
          "type": "uint256"
        },
        {
          "internalType": "uint256",
          "name": "_rpbRate",
          "type": "uint256"
        },
        {
          "internalType": "address",
          "name": "_factAddr",
          "type": "address"
        },
        {
          "internalType": "address",
          "name": "_collToken",
          "type": "address"
        },
        {
          "internalType": "address",
          "name": "_lendToken",
          "type": "address"
        },
        {
          "internalType": "uint256",
          "name": "_contractAmount",
          "type": "uint256"
        }
      ],
      "name": "deployNewTokenLoanContract",
      "outputs": [
        {
          "internalType": "address",
          "name": "",
          "type": "address"
        }
      ],
      "stateMutability": "nonpayable",
      "type": "function"
    },
    {
      "inputs": [
        {
          "internalType": "uint256",
          "name": "_idx",
          "type": "uint256"
        }
      ],
      "name": "setTokenLoanCommonParamsInContract",
      "outputs": [],
      "stateMutability": "nonpayable",
      "type": "function"
    },
    {
      "inputs": [
        {
          "internalType": "uint256",
          "name": "_idx",
          "type": "uint256"
        }
      ],
      "name": "setTokenLoanFeesParamsInContract",
      "outputs": [],
      "stateMutability": "nonpayable",
      "type": "function"
    },
    {
      "inputs": [
        {
          "internalType": "uint256",
          "name": "_idx",
          "type": "uint256"
        },
        {
          "internalType": "uint256",
          "name": "_newStatus",
          "type": "uint256"
        }
      ],
      "name": "setTokenStatusInTokenContract",
      "outputs": [],
      "stateMutability": "nonpayable",
      "type": "function"
    },
    {
      "inputs": [
        {
          "internalType": "address",
          "name": "_borr",
          "type": "address"
        }
      ],
      "name": "isBorrower",
      "outputs": [
        {
          "internalType": "bool",
          "name": "",
          "type": "bool"
        }
      ],
      "stateMutability": "view",
      "type": "function",
      "constant": true
    },
    {
      "inputs": [
        {
          "internalType": "address payable",
          "name": "_feeColl",
          "type": "address"
        }
      ],
      "name": "setFeesCollector",
      "outputs": [],
      "stateMutability": "nonpayable",
      "type": "function"
    },
    {
      "inputs": [],
      "name": "getFeesCollector",
      "outputs": [
        {
          "internalType": "address",
          "name": "",
          "type": "address"
        }
      ],
      "stateMutability": "view",
      "type": "function",
      "constant": true
    }
  ],
  "bytecode": "0x608060405234801561001057600080fd5b5060006100246001600160e01b0361007816565b600080546001600160a01b0319166001600160a01b0383169081178255604051929350917f8be0079c531659141344cd1fd0a4f28419497f9722a3daafe3b4186f6b6457e0908290a350600060015561007c565b3390565b61580c8061008b6000396000f3fe60806040523480156200001157600080fd5b50600436106200013c5760003560e01c8063b3a6652411620000bd578063dab1f5e9116200007b578063dab1f5e91462000284578063e56c013f146200029b578063eaf6e48314620002b2578063f2fde38b14620002c9578063f5a23a2514620002e0576200013c565b8063b3a66524146200020f578063b57a8a6e1462000226578063bca4698c146200023d578063bf5d50c41462000247578063d7693c45146200026d576200013c565b8063715018a6116200010b578063715018a614620001a757806374faec7214620001b157806379952a0a14620001d757806386a3199814620001ee5780638da5cb5b1462000205576200013c565b806302768a80146200014157806309e94d98146200016357806328964fef1462000184578063373071f2146200018e575b600080fd5b6200014b620002f7565b6040516200015a9190620010c8565b60405180910390f35b6200016d620002fd565b6040516200015a99989796959493929190620010e7565b6200014b6200032c565b620001a56200019f36600462000ccd565b62000332565b005b620001a5620003c0565b620001c8620001c236600462000cec565b62000444565b6040516200015a919062000e35565b620001a5620001e836600462000da5565b6200062b565b620001a5620001ff36600462000ccd565b6200066a565b620001c8620006c6565b620001c86200022036600462000da5565b620006d5565b620001a56200023736600462000dd7565b620006fd565b620001c86200092b565b6200025e6200025836600462000ccd565b6200093a565b6040516200015a919062000ebf565b620001a56200027e36600462000da5565b6200094f565b6200025e6200029536600462000ccd565b620009f2565b620001a5620002ac36600462000da5565b62000a10565b6200025e620002c336600462000ccd565b62000a97565b620001a5620002da36600462000ccd565b62000ab5565b620001c8620002f136600462000da5565b62000b73565b60015490565b600854600954600a54600b54600c54600d54600e54600f546010546001600160a01b0392831692918216911689565b60055481565b6200033c62000b8e565b6000546001600160a01b03908116911614620003755760405162461bcd60e51b81526004016200036c9062000fd1565b60405180910390fd5b6001600160a01b0381166200039e5760405162461bcd60e51b81526004016200036c9062000f47565b600280546001600160a01b0319166001600160a01b0392909216919091179055565b620003ca62000b8e565b6000546001600160a01b03908116911614620003fa5760405162461bcd60e51b81526004016200036c9062000fd1565b600080546040516001600160a01b03909116907f8be0079c531659141344cd1fd0a4f28419497f9722a3daafe3b4186f6b6457e0908390a3600080546001600160a01b0319169055565b600e546000906001600160a01b03163314620004745760405162461bcd60e51b81526004016200036c9062001006565b6001600160a01b038a166200049d5760405162461bcd60e51b81526004016200036c9062000f74565b6001600160a01b03808b16600081815260076020526040808220805460ff191660019081179091556006805491820181558084527ff652222313e28459528d920b65115c16c04f3efc82aaedc97be59f3f377c0d3f90910180546001600160a01b0319169094179093559154600555600254915190928d928d928d928d928d928d928d928d92911690620005319062000cbf565b620005459998979695949392919062000e6d565b604051809103906000f08015801562000562573d6000803e3d6000fd5b506001600160a01b0381166000818152600460209081526040808320805460ff191660019081179091555483526003909152902080546001600160a01b03191690911790559050620005b7858c838662000b92565b806001600160a01b03168b6001600160a01b03168b7ffa37902f90ff8b9a4fc9462f549734b8e8cdb8e50458850dacecd687cc6bb318600554604051620005ff9190620010c8565b60405180910390a4600180546200061c9163ffffffff62000c9016565b509a9950505050505050505050565b6200063562000b8e565b6000546001600160a01b03908116911614620006655760405162461bcd60e51b81526004016200036c9062000fd1565b600155565b6200067462000b8e565b6000546001600160a01b03908116911614620006a45760405162461bcd60e51b81526004016200036c9062000fd1565b600e80546001600160a01b0319166001600160a01b0392909216919091179055565b6000546001600160a01b031690565b60068181548110620006e357fe5b6000918252602090912001546001600160a01b0316905081565b6200070762000b8e565b6000546001600160a01b03908116911614620007375760405162461bcd60e51b81526004016200036c9062000fd1565b60078111156200075b5760405162461bcd60e51b81526004016200036c9062000fa4565b600082815260036020908152604080832054815163acc1ab1360e01b815291516001600160a01b039091169392849263acc1ab139260048083019392829003018186803b158015620007ac57600080fd5b505afa158015620007c1573d6000803e3d6000fd5b505050506040513d601f19601f82011682018060405250810190620007e7919062000dbe565b9050808314156200080c5760405162461bcd60e51b81526004016200036c906200103d565b604051633840cb5760e11b81526001600160a01b0383169063708196ae906200083a908690600401620010c8565b600060405180830381600087803b1580156200085557600080fd5b505af11580156200086a573d6000803e3d6000fd5b505050506000826001600160a01b031663acc1ab136040518163ffffffff1660e01b815260040160206040518083038186803b158015620008aa57600080fd5b505afa158015620008bf573d6000803e3d6000fd5b505050506040513d601f19601f82011682018060405250810190620008e5919062000dbe565b90507ff3fc2195268d1fa656d8e1bfd4601a9921ba9fdfccce82ef96ed57a2e13ce4888583836040516200091c93929190620010d1565b60405180910390a15050505050565b6002546001600160a01b031690565b60076020526000908152604090205460ff1681565b6200095962000b8e565b6000546001600160a01b03908116911614620009895760405162461bcd60e51b81526004016200036c9062000fd1565b60008181526003602052604080822054815163918c3dbd60e01b815291516001600160a01b039091169263918c3dbd926004808201939182900301818387803b158015620009d657600080fd5b505af1158015620009eb573d6000803e3d6000fd5b5050505050565b6001600160a01b031660009081526004602052604090205460ff1690565b62000a1a62000b8e565b6000546001600160a01b0390811691161462000a4a5760405162461bcd60e51b81526004016200036c9062000fd1565b60008181526003602052604080822054815163150f9e6d60e11b815291516001600160a01b0390911692632a1f3cda926004808201939182900301818387803b158015620009d657600080fd5b6001600160a01b031660009081526007602052604090205460ff1690565b62000abf62000b8e565b6000546001600160a01b0390811691161462000aef5760405162461bcd60e51b81526004016200036c9062000fd1565b6001600160a01b03811662000b185760405162461bcd60e51b81526004016200036c9062000eca565b600080546040516001600160a01b03808516939216917f8be0079c531659141344cd1fd0a4f28419497f9722a3daafe3b4186f6b6457e091a3600080546001600160a01b0319166001600160a01b0392909216919091179055565b6000908152600360205260409020546001600160a01b031690565b3390565b60006060856001600160a01b03166323b872dd86868660405160240162000bbc9392919062000e49565b6040516020818303038152906040529060e01b6020820180516001600160e01b03838183161783525050505060405162000bf7919062000df9565b6000604051808303816000865af19150503d806000811462000c36576040519150601f19603f3d011682016040523d82523d6000602084013e62000c3b565b606091505b509150915081801562000c6957508051158062000c6957508080602001905181019062000c69919062000d83565b62000c885760405162461bcd60e51b81526004016200036c9062001084565b505050505050565b60008282018381101562000cb85760405162461bcd60e51b81526004016200036c9062000f10565b9392505050565b614688806200114f83390190565b60006020828403121562000cdf578081fd5b813562000cb88162001135565b60008060008060008060008060006101208a8c03121562000d0b578485fd5b893562000d188162001135565b985060208a0135975060408a0135965060608a0135955060808a0135945060a08a013562000d468162001135565b935060c08a013562000d588162001135565b925060e08a013562000d6a8162001135565b809250506101008a013590509295985092959850929598565b60006020828403121562000d95578081fd5b8151801515811462000cb8578182fd5b60006020828403121562000db7578081fd5b5035919050565b60006020828403121562000dd0578081fd5b5051919050565b6000806040838503121562000dea578182fd5b50508035926020909101359150565b60008251815b8181101562000e1b576020818601810151858301520162000dff565b8181111562000e2a5782828501525b509190910192915050565b6001600160a01b0391909116815260200190565b6001600160a01b039384168152919092166020820152604081019190915260600190565b6001600160a01b03998a1681526020810198909852604088019690965260608701949094526080860192909252851660a0850152841660c0840152831660e08301529091166101008201526101200190565b901515815260200190565b60208082526026908201527f4f776e61626c653a206e6577206f776e657220697320746865207a65726f206160408201526564647265737360d01b606082015260800190565b6020808252601b908201527f536166654d6174683a206164646974696f6e206f766572666c6f770000000000604082015260600190565b6020808252601390820152721059191c995cdcc81b9bdd08185b1b1bddd959606a1b604082015260600190565b60208082526016908201527553656e6465722041646472657373206973207a65726f60501b604082015260600190565b60208082526013908201527213995dc81cdd185d19481b9bdd081d985b1a59606a1b604082015260600190565b6020808252818101527f4f776e61626c653a2063616c6c6572206973206e6f7420746865206f776e6572604082015260600190565b6020808252601d908201527f43616c6c6572206973206e6f742061204c6f616e20466163746f727921000000604082015260600190565b60208082526027908201527f4e657720737461747573206973207468652073616d65206c696b652070726573604082015266656e74206f6e6560c81b606082015260800190565b60208082526024908201527f5472616e7366657248656c7065723a205452414e534645525f46524f4d5f46416040820152631253115160e21b606082015260800190565b90815260200190565b9283526020830191909152604082015260600190565b988952602089019790975260408801959095526060870193909352608086019190915260a08501526001600160a01b0390811660c085015290811660e0840152166101008201526101200190565b6001600160a01b03811681146200114b57600080fd5b5056fe60806040523480156200001157600080fd5b506040516200468838038062004688833981016040819052620000349162000d45565b6000620000496001600160e01b03620004ba16565b600080546001600160a01b0319166001600160a01b03831690811782556040519293509160008051602062004668833981519152908290a3506001805533620000af5760405162461bcd60e51b8152600401620000a69062001126565b60405180910390fd5b600280546001600160a01b031916331790556001600160a01b038916620000ea5760405162461bcd60e51b8152600401620000a69062001126565b600480546001600160a01b03199081166001600160a01b038c8116919091178355600580548316878316179055600680548316868316179055600380549092168482161790915560408051634fd7587960e01b8152905191871692634fd7587992828201926101209290829003018186803b1580156200016957600080fd5b505afa1580156200017e573d6000803e3d6000fd5b505050506040513d601f19601f82011682018060405250810190620001a4919062000e48565b805160075560208101516008556040808201516009556060820151600a556080820151600b5560a0820151600c5560c0820151600d80546001600160a01b03199081166001600160a01b039384161790915560e080850151600e8054841691851691909117905561010090940151600f80549092169083161790558151631a55d9e960e01b8152915190871692631a55d9e99260048082019391829003018186803b1580156200025357600080fd5b505afa15801562000268573d6000803e3d6000fd5b505050506040513d601f19601f820116820180604052508101906200028e919062000de0565b805160185560208101516019556040810151601a556060810151601b556080810151601c5560a0810151601d5560c00151601e55600754851015620002e75760405162461bcd60e51b8152600401620000a690620010fb565b6010889055601185905560148790556015869055604051630404ea8960e21b81526001600160a01b03851690631013aa249062000329908a906004016200115d565b60206040518083038186803b1580156200034257600080fd5b505afa15801562000357573d6000803e3d6000fd5b505050506040513d601f19601f820116820180604052508101906200037d919062000eff565b6016805460ff191660ff92909216919091179055604051633e17bdcb60e11b81526001600160a01b03851690637c2f7b9690620003bf908a906004016200115d565b60206040518083038186803b158015620003d857600080fd5b505afa158015620003ed573d6000803e3d6000fd5b505050506040513d601f19601f8201168201806040525081019062000413919062000eff565b6016805460ff929092166101000261ff0019909216919091179055620004416001600160e01b03620004be16565b601255436013556017805460ff19169055600d5462000469906001600160a01b03166200075e565b6013546015546040517f6b6fa9d5c06988661c31cf3707bc0272b4bbd725cb6c2b92446bfc33d2e8dec192620004a3929091879062001166565b60405180910390a1505050505050505050620011ac565b3390565b600080620004d46001600160e01b036200081416565b90506000620004eb6001600160e01b03620008a216565b60155490915060008060175460ff1660098111156200050657fe5b14156200059b576005546040516370a0823160e01b81526001600160a01b03909116906370a08231906200053f90309060040162000f22565b60206040518083038186803b1580156200055857600080fd5b505afa1580156200056d573d6000803e3d6000fd5b505050506040513d601f19601f8201168201806040525081019062000593919062000ee6565b90506200064f565b6200064c620005b26001600160e01b036200093316565b6005546040516370a0823160e01b81526001600160a01b03909116906370a0823190620005e490309060040162000f22565b60206040518083038186803b158015620005fd57600080fd5b505afa15801562000612573d6000803e3d6000fd5b505050506040513d601f19601f8201168201806040525081019062000638919062000ee6565b62000b5960201b620023c51790919060201c565b90505b60165460ff61010082048116911610620006f4576016546000906200068c9060ff8082169161010090041662000b59602090811b620023c517901c565b9050620006eb81600a0a620006c386600a0a620006c36064620006d789620006c38d8b62000bac60201b6200240e1790919060201c565b62000bec60201b620024481790919060201c565b62000bac60201b6200240e1790919060201c565b95505062000757565b6016546000906200071c9060ff61010082048116911662000b59602090811b620023c517901c565b90506200075381600a0a620006d786600a0a620006c36064620006d789620006c38d8b62000bac60201b6200240e1790919060201c565b9550505b5050505090565b620007716001600160e01b03620004ba16565b6000546001600160a01b03908116911614620007a15760405162461bcd60e51b8152600401620000a6906200108f565b6001600160a01b038116620007ca5760405162461bcd60e51b8152600401620000a69062000fd1565b600080546040516001600160a01b03808516939216916000805160206200466883398151915291a3600080546001600160a01b0319166001600160a01b0392909216919091179055565b600d54601454604051631334f8cd60e11b81526000926001600160a01b031691632669f19a916200084991906004016200115d565b60206040518083038186803b1580156200086257600080fd5b505afa15801562000877573d6000803e3d6000fd5b505050506040513d601f19601f820116820180604052508101906200089d919062000ee6565b905090565b600d54601454604051632bd61f0560e11b81526000926001600160a01b0316916357ac3e0a91620008d791906004016200115d565b60206040518083038186803b158015620008f057600080fd5b505afa15801562000905573d6000803e3d6000fd5b505050506040513d601f19601f820116820180604052508101906200092b919062000eff565b60ff16905090565b601754600090819060ff1660098111156200094a57fe5b1180156200096a575060175460089060ff1660098111156200096857fe5b105b620009895760405162461bcd60e51b8152600401620000a69062000f8c565b6000620009ac600760010154601f5462000c3660201b6200248a1790919060201c565b9050600660175460ff166009811115620009c257fe5b148015620009d05750804310155b15620009f257620009ea816001600160e01b0362000c5e16565b915062000a3e565b6022541562000a2757620009ea62000a186022544362000cab60201b620024af1760201c565b6001600160e01b0362000c5e16565b62000a3b436001600160e01b0362000c5e16565b91505b6005546040516370a0823160e01b81526001600160a01b03909116906370a082319062000a7090309060040162000f22565b60206040518083038186803b15801562000a8957600080fd5b505afa15801562000a9e573d6000803e3d6000fd5b505050506040513d601f19601f8201168201806040525081019062000ac4919062000ee6565b82111562000b55576005546040516370a0823160e01b81526001600160a01b03909116906370a082319062000afe90309060040162000f22565b60206040518083038186803b15801562000b1757600080fd5b505afa15801562000b2c573d6000803e3d6000fd5b505050506040513d601f19601f8201168201806040525081019062000b52919062000ee6565b91505b5090565b600062000ba383836040518060400160405280601e81526020017f536166654d6174683a207375627472616374696f6e206f766572666c6f77000081525062000cc360201b60201c565b90505b92915050565b60008262000bbd5750600062000ba6565b8282028284828162000bcb57fe5b041462000ba35760405162461bcd60e51b8152600401620000a6906200104e565b600062000ba383836040518060400160405280601a81526020017f536166654d6174683a206469766973696f6e206279207a65726f00000000000081525062000cf260201b60201c565b60008282018381101562000ba35760405162461bcd60e51b8152600401620000a69062001017565b600060245482101562000c855760405162461bcd60e51b8152600401620000a690620010c4565b62000ba6601060010154620006d76024548562000b5960201b620023c51790919060201c565b600081831062000cbc578162000ba3565b5090919050565b6000818484111562000cea5760405162461bcd60e51b8152600401620000a6919062000f36565b505050900390565b6000818362000d165760405162461bcd60e51b8152600401620000a6919062000f36565b50600083858162000d2357fe5b0495945050505050565b80516001600160a01b038116811462000ba657600080fd5b60008060008060008060008060006101208a8c03121562000d64578485fd5b62000d708b8b62000d2d565b985060208a0151975060408a0151965060608a0151955060808a0151945062000d9d8b60a08c0162000d2d565b935062000dae8b60c08c0162000d2d565b925062000dbf8b60e08c0162000d2d565b915062000dd18b6101008c0162000d2d565b90509295985092959850929598565b600060e0828403121562000df2578081fd5b62000dfe60e062001185565b825181526020830151602082015260408301516040820152606083015160608201526080830151608082015260a083015160a082015260c083015160c08201528091505092915050565b600061012080838503121562000e5c578182fd5b62000e678162001185565b835181526020840151602082015260408401516040820152606084015160608201526080840151608082015260a084015160a082015262000eac8560c0860162000d2d565b60c082015262000ec08560e0860162000d2d565b60e0820152610100915062000ed88583860162000d2d565b918101919091529392505050565b60006020828403121562000ef8578081fd5b5051919050565b60006020828403121562000f11578081fd5b815160ff8116811462000ba3578182fd5b6001600160a01b0391909116815260200190565b6000602080835283518082850152825b8181101562000f645785810183015185820160400152820162000f46565b8181111562000f765783604083870101525b50601f01601f1916929092016040019392505050565b60208082526025908201527f4c6f616e20737461747573206e6f742063616c63756c6174696e6720696e7465604082015264726573747360d81b606082015260800190565b60208082526026908201527f4f776e61626c653a206e6577206f776e657220697320746865207a65726f206160408201526564647265737360d01b606082015260800190565b6020808252601b908201527f536166654d6174683a206164646974696f6e206f766572666c6f770000000000604082015260600190565b60208082526021908201527f536166654d6174683a206d756c7469706c69636174696f6e206f766572666c6f6040820152607760f81b606082015260800190565b6020808252818101527f4f776e61626c653a2063616c6c6572206973206e6f7420746865206f776e6572604082015260600190565b60208082526018908201527f426c6f636b206e756d626572206e6f7420616c6c6f7765640000000000000000604082015260600190565b602080825260119082015270496e74657265737420746f6f206c6f772160781b604082015260600190565b6020808252601a908201527f53656e6465722061646472657373206e6f7420616c6c6f776564000000000000604082015260600190565b90815260200190565b92835260208301919091526001600160a01b0316604082015260600190565b6040518181016001600160401b0381118282101715620011a457600080fd5b604052919050565b6134ac80620011bc6000396000f3fe608060405234801561001057600080fd5b506004361061028a5760003560e01c80637a33f63c1161015c578063c0b27cc5116100ce578063d75e1bd811610087578063d75e1bd8146104bc578063e1c7111a146104cf578063e936e44a146104d7578063ec98362e146104df578063f2fde38b146104e7578063ff0d69a6146104fa5761028a565b8063c0b27cc51461046d578063c2b0bf5814610475578063c55d2a471461047d578063d20fbeb614610485578063d4a978da1461048d578063d5138948146104a05761028a565b806395dcc2551161012057806395dcc255146104275780639cf160f61461043a578063a5d5db0c14610442578063acc1ab1314610455578063b2016bd41461045d578063b2ca1805146104655761028a565b80637a33f63c146103f45780637ba61ea51461040757806382f0c81c1461040f5780638da5cb5b14610417578063918c3dbd1461041f5761028a565b80633ba2ee40116102005780635ced2a11116101b95780635ced2a11146103945780635f4975f0146103a75780636dd167f8146103ba5780636f9fb98a146103c2578063715018a6146103ca5780637427a40c146103d25761028a565b80633ba2ee401461034e5780633cf348c31461035657806342ac33791461035e57806347c865df146103665780634cdb79b41461036e57806356f4aee0146103815761028a565b806320a73ab71161025257806320a73ab7146102ef578063216c2490146102f757806328899423146103125780632a1f3cda146103275780632a2dae0a146103315780632a3d7c81146103465761028a565b806306bb531e1461028f578063074ca966146102ad57806309e94d98146102c257806318ad714a146102df5780631aa118d9146102e7575b600080fd5b610297610502565b6040516102a49190613336565b60405180910390f35b6102b561060b565b6040516102a49190612b63565b6102ca610614565b6040516102a49998979695949392919061334d565b610297610643565b61029761081d565b610297610823565b6102ff610829565b6040516102a4979695949392919061339b565b61031a610841565b6040516102a49190612b58565b61032f6108b1565b005b6103396109d3565b6040516102a49190612acc565b6102976109e2565b61032f6109e8565b61031a610bbb565b610297610bd6565b610297610c59565b61031a61037c3660046128fe565b610c5f565b61029761038f3660046128fe565b610c74565b6102976103a2366004612a5f565b610c8f565b6102976103b53660046128fe565b610ce1565b610297610cf3565b610297610cf9565b61032f610d2a565b6103e56103e0366004612a5f565b610da9565b6040516102a493929190612b37565b61031a6104023660046128fe565b610dd4565b610339610df2565b610297610e01565b610339610f61565b61032f610f70565b61032f6104353660046128fe565b61104d565b6103396114af565b61032f61045036600461291a565b6114be565b6102976116d9565b6103396116ed565b6102976116fc565b610297611702565b61032f611708565b61029761190b565b610297611911565b61029761049b366004612a5f565b611ac6565b6104a8611ba1565b6040516102a49897969594939291906133cb565b6102976104ca36600461291a565b611bc5565b610339611eaf565b610297611ebe565b61032f611f49565b61032f6104f53660046128fe565b612309565b6102976123bf565b601754600090819060ff16600981111561051857fe5b118015610536575060175460059060ff16600981111561053457fe5b105b156105ad576000610545611911565b600b549091508110610568576017805460ff1916600117905560006025556105ab565b600b54811180159061057c5750600c548110155b15610593576017805460ff191660021790556105ab565b600c548110156105ab576017805460ff191660031790555b505b6017547fe096f951d62ec2072f7a4b5b750e0f9b7a55b9c4cbfa1f516b496cb58d7dff6f9060ff1660098111156105e057fe5b6040516105ed9190613336565b60405180910390a160175460ff16600981111561060657fe5b905090565b60175460ff1681565b600754600854600954600a54600b54600c54600d54600e54600f546001600160a01b0392831692918216911689565b601754600090819060ff16600981111561065957fe5b118015610677575060175460089060ff16600981111561067557fe5b105b61069c5760405162461bcd60e51b815260040161069390612c26565b60405180910390fd5b600854601f546000916106b5919063ffffffff61248a16565b9050600660175460ff1660098111156106ca57fe5b1480156106d75750804310155b156106ec576106e581610c8f565b915061070f565b60225415610703576106e56103a2602254436124af565b61070c43610c8f565b91505b6005546040516370a0823160e01b81526001600160a01b03909116906370a082319061073f903090600401612acc565b60206040518083038186803b15801561075757600080fd5b505afa15801561076b573d6000803e3d6000fd5b505050506040513d601f19601f8201168201806040525081019061078f9190612a77565b821115610819576005546040516370a0823160e01b81526001600160a01b03909116906370a08231906107c6903090600401612acc565b60206040518083038186803b1580156107de57600080fd5b505afa1580156107f2573d6000803e3d6000fd5b505050506040513d601f19601f820116820180604052508101906108169190612a77565b91505b5090565b602a5481565b60205481565b601854601954601a54601b54601c54601d54601e5487565b60175460009060ff16600981111561085557fe5b6004146108745760405162461bcd60e51b815260040161069390612dc0565b6025546000901580159061089c57506009546025546108989163ffffffff61248a16565b4310155b15610606576108a96124c5565b506001905090565b6002546001600160a01b031633146108db5760405162461bcd60e51b815260040161069390612c6b565b600d5460408051634fd7587960e01b815290516001600160a01b0390921691634fd758799160048082019261012092909190829003018186803b15801561092157600080fd5b505afa158015610935573d6000803e3d6000fd5b505050506040513d601f19601f8201168201806040525081019061095991906129ca565b8051600755602081015160085560408101516009556060810151600a556080810151600b5560a0810151600c5560c0810151600d80546001600160a01b03199081166001600160a01b039384161790915560e0830151600e8054831691841691909117905561010090920151600f80549093169116179055565b6002546001600160a01b031681565b60235481565b60006109f2610502565b90508060021480610a035750806003145b610a1f5760405162461bcd60e51b815260040161069390612fb3565b60008160021415610a4e57601154601c54610a3f9163ffffffff61240e16565b9050610a49612513565b610a6d565b601154601d54610a639163ffffffff61240e16565b9050610a6d6124c5565b6005546040516370a0823160e01b815282916001600160a01b0316906370a0823190610a9d903090600401612acc565b60206040518083038186803b158015610ab557600080fd5b505afa158015610ac9573d6000803e3d6000fd5b505050506040513d601f19601f82011682018060405250810190610aed9190612a77565b1015610b0b5760405162461bcd60e51b815260040161069390612ef7565b600554601a54610b4a916001600160a01b0316903390610b4590606490610b3990879063ffffffff61240e16565b9063ffffffff61244816565b612557565b600554601b54610b78916001600160a01b0316903390610b4590606490610b3990879063ffffffff61240e16565b43602081905560405133917f9c216942fb53599e3610164be0d173eb8b00a4613afdb41d524f00091a819abc91610baf9190613336565b60405180910390a25050565b6000600660175460ff166009811115610bd057fe5b14905090565b600d54601454604051631334f8cd60e11b81526000926001600160a01b031691632669f19a91610c099190600401613336565b60206040518083038186803b158015610c2157600080fd5b505afa158015610c35573d6000803e3d6000fd5b505050506040513d601f19601f820116820180604052508101906106069190612a77565b60245481565b60286020526000908152604090205460ff1681565b6001600160a01b031660009081526029602052604090205490565b6000602454821015610cb35760405162461bcd60e51b8152600401610693906131da565b601154602454610cdb9190610ccf90859063ffffffff6123c516565b9063ffffffff61240e16565b92915050565b60296020526000908152604090205481565b60215481565b6005546040516370a0823160e01b81526000916001600160a01b0316906370a0823190610c09903090600401612acc565b610d32612645565b6000546001600160a01b03908116911614610d5f5760405162461bcd60e51b81526004016106939061307e565b600080546040516001600160a01b03909116907f8be0079c531659141344cd1fd0a4f28419497f9722a3daafe3b4186f6b6457e0908390a3600080546001600160a01b0319169055565b6027602052600090815260409020805460018201546002909201546001600160a01b03909116919083565b6001600160a01b031660009081526028602052604090205460ff1690565b6004546001600160a01b031681565b600060026001541415610e265760405162461bcd60e51b815260040161069390613255565b600260015560175460009060ff166009811115610e3f57fe5b118015610e5d575060175460089060ff166009811115610e5b57fe5b105b610e795760405162461bcd60e51b81526004016106939061328c565b60175460009060ff166009811115610e8d57fe5b9050476000610e9a610643565b9050808210610efd5760015b602a548160ff1611610ee05760ff8116600090815260276020526040902054610ed8906001600160a01b031683612649565b600101610ea6565b504360245560038311610ef857610ef5610502565b92505b610f56565b81610f0a57610ef86126ed565b60015b602a548160ff1611610f475760ff8116600090815260276020526040902054610f3f906001600160a01b031684612649565b600101610f0d565b50436024819055602255600892505b505060018055919050565b6000546001600160a01b031690565b6002546001600160a01b03163314610f9a5760405162461bcd60e51b815260040161069390612c6b565b600d5460408051631a55d9e960e01b815290516001600160a01b0390921691631a55d9e99160048082019260e092909190829003018186803b158015610fdf57600080fd5b505afa158015610ff3573d6000803e3d6000fd5b505050506040513d601f19601f820116820180604052508101906110179190612965565b805160185560208101516019556040810151601a556060810151601b556080810151601c5560a0810151601d5560c00151601e55565b600260015414156110705760405162461bcd60e51b815260040161069390613255565b6002600155336110925760405162461bcd60e51b815260040161069390612e50565b6006546001600160a01b038281169116146110bf5760405162461bcd60e51b81526004016106939061312f565b6015546006546040516370a0823160e01b81526001600160a01b03909116906370a08231906110f2903390600401612acc565b60206040518083038186803b15801561110a57600080fd5b505afa15801561111e573d6000803e3d6000fd5b505050506040513d601f19601f820116820180604052508101906111429190612a77565b10156111605760405162461bcd60e51b815260040161069390612e7d565b600060175460ff16600981111561117357fe5b146111905760405162461bcd60e51b815260040161069390612def565b601554604051636eb1769f60e11b81526000906001600160a01b0384169063dd62ed3e906111c49033903090600401612ae0565b60206040518083038186803b1580156111dc57600080fd5b505afa1580156111f0573d6000803e3d6000fd5b505050506040513d601f19601f820116820180604052508101906112149190612a77565b9050818110156112365760405162461bcd60e51b815260040161069390612ec0565b43601f55601780546001919060ff1916828002179055506001602a818155604080516060810182523380825260646020808401918252601f5484860190815260008881526027835294517fb6915e519d5f9dd23c62986e48578ddfa8cde5c92608222904fd87ad04df4ffd80546001600160a01b0319166001600160a01b0392831617905592517fb6915e519d5f9dd23c62986e48578ddfa8cde5c92608222904fd87ad04df4ffe55517fb6915e519d5f9dd23c62986e48578ddfa8cde5c92608222904fd87ad04df4fff5582845260288152848420805460ff191690971790965593546029909552919020929092554360245560045461133c92869290911685612757565b600d5460145460155460405163c175771b60e01b81526000936001600160a01b03169263c175771b926113719260040161333f565b60206040518083038186803b15801561138957600080fd5b505afa15801561139d573d6000803e3d6000fd5b505050506040513d601f19601f820116820180604052508101906113c19190612a77565b600d54604051632976f2fb60e11b81529192506000916001600160a01b03909116906352ede5f6906113f7908590600401613336565b60206040518083038186803b15801561140f57600080fd5b505afa158015611423573d6000803e3d6000fd5b505050506040513d601f19601f820116820180604052508101906114479190612a77565b600554600354919250611467916001600160a01b03918216911683612557565b601f5460405133917f8da312eaac37817e0ccf8bd45912080260bec10b5dac7e4ab7a438e96a6059219161149c91859161333f565b60405180910390a2505060018055505050565b6003546001600160a01b031681565b600160175460ff1660098111156114d157fe5b101580156114f05750600460175460ff1660098111156114ed57fe5b11155b61150c5760405162461bcd60e51b815260040161069390612be1565b6005546001600160a01b038381169116146115395760405162461bcd60e51b8152600401610693906130b3565b6005546040516370a0823160e01b815282916001600160a01b0316906370a0823190611569903390600401612acc565b60206040518083038186803b15801561158157600080fd5b505afa158015611595573d6000803e3d6000fd5b505050506040513d601f19601f820116820180604052508101906115b99190612a77565b10156115d75760405162461bcd60e51b8152600401610693906132f4565b600554604051636eb1769f60e11b81526000916001600160a01b03169063dd62ed3e9061160a9033903090600401612ae0565b60206040518083038186803b15801561162257600080fd5b505afa158015611636573d6000803e3d6000fd5b505050506040513d601f19601f8201168201806040525081019061165a9190612a77565b90508181101561167c5760405162461bcd60e51b815260040161069390612ec0565b61168883333085612757565b6000611692610502565b436023556040519091507f078c599f5cd71dc8637a680b058c73d883fa16e7282ff35ed71f6584560d3069906116cb908590849061333f565b60405180910390a150505050565b60175460009060ff16600981111561060657fe5b6005546001600160a01b031681565b601f5481565b60255481565b6004546001600160a01b031633146117325760405162461bcd60e51b815260040161069390613047565b60175460ff16600981111561174357fe5b156117605760405162461bcd60e51b815260040161069390612fb3565b601e546006546040516370a0823160e01b81526000926117f092606492610b3992916001600160a01b0316906370a08231906117a0903090600401612acc565b60206040518083038186803b1580156117b857600080fd5b505afa1580156117cc573d6000803e3d6000fd5b505050506040513d601f19601f82011682018060405250810190610ccf9190612a77565b600654600354919250611810916001600160a01b03918216911683612557565b6006546040516370a0823160e01b81526000916118a39184916001600160a01b0316906370a0823190611847903090600401612acc565b60206040518083038186803b15801561185f57600080fd5b505afa158015611873573d6000803e3d6000fd5b505050506040513d601f19601f820116820180604052508101906118979190612a77565b9063ffffffff6123c516565b6006549091506118bd906001600160a01b03163383612557565b6017805460ff1916600917905560105460405133907f976729a22a1f27f055a6f0ffa92bd9d2944c972f1d0e25d1b3517bfa523cf498906118ff904390613336565b60405180910390a35050565b60225481565b60008061191c610bd6565b90506000611928611ebe565b60155490915060008060175460ff16600981111561194257fe5b14156119cf576005546040516370a0823160e01b81526001600160a01b03909116906370a0823190611978903090600401612acc565b60206040518083038186803b15801561199057600080fd5b505afa1580156119a4573d6000803e3d6000fd5b505050506040513d601f19601f820116820180604052508101906119c89190612a77565b9050611a0d565b611a0a6119da610643565b6005546040516370a0823160e01b81526001600160a01b03909116906370a0823190611847903090600401612acc565b90505b60165460ff61010082048116911610611a7557601654600090611a419060ff8082169161010090041663ffffffff6123c516565b9050611a6d81600a0a610b3986600a0a610b396064610ccf89610b398d8b61240e90919063ffffffff16565b955050611abf565b601654600090611a8f9060ff6101008204811691166123c5565b9050611abb81600a0a610ccf86600a0a610b396064610ccf89610b398d8b61240e90919063ffffffff16565b9550505b5050505090565b6005546040516370a0823160e01b815260009182916001600160a01b03909116906370a0823190611afb903090600401612acc565b60206040518083038186803b158015611b1357600080fd5b505afa158015611b27573d6000803e3d6000fd5b505050506040513d601f19601f82011682018060405250810190611b4b9190612a77565b90506000611b5f828563ffffffff61248a16565b90506000611b6b610bd6565b90506000611b77611ebe565b601554909150600090611b9690610b398481888863ffffffff61240e16565b979650505050505050565b60105460115460125460135460145460155460165460ff8082169161010090041688565b600060026001541415611bea5760405162461bcd60e51b815260040161069390613255565b6002600155611bf833610dd4565b611c145760405162461bcd60e51b815260040161069390612e19565b6000611c1f33610c74565b905060008111611c415760405162461bcd60e51b815260040161069390612d2e565b600081815260276020526040902060010154831115611c725760405162461bcd60e51b815260040161069390613191565b600854601f54014311611c975760405162461bcd60e51b815260040161069390612ca2565b6000611ca1610643565b905060015b602a548160ff1611611ce05760ff8116600090815260276020526040902054611cd8906001600160a01b031683612649565b600101611ca6565b50600082815260276020526040902060010154611d03908563ffffffff6123c516565b600083815260276020526040902060010155611d1e85610dd4565b611dfc57602a54611d3690600163ffffffff61248a16565b602a818155604080516060810182526001600160a01b0389811680835260208084018b8152438587018181526000998a5260278452878a20965187546001600160a01b03191696169590951786559051600180870191909155935160029095019490945581875260288152848720805460ff191690931790925593546029909152938290209390935551869233917fed7ee45f75e10dfcc3019d0500825dd990b1949080215ea4894d7ed780073e6f91611def91613336565b60405180910390a4611e93565b6000611e0786610c74565b600081815260276020526040902060010154909150611e2c908663ffffffff61248a16565b6000828152602760205260409081902060018101929092554360029092018290555186916001600160a01b0389169133917fb510f1f825ef2a9b3a0fa1d56d8461062ee721c12409714d52332b44b82e6afc91611e899190613336565b60405180910390a4505b436024556000611ea1610502565b600180559695505050505050565b6006546001600160a01b031681565b600d54601454604051632bd61f0560e11b81526000926001600160a01b0316916357ac3e0a91611ef19190600401613336565b60206040518083038186803b158015611f0957600080fd5b505afa158015611f1d573d6000803e3d6000fd5b505050506040513d601f19601f82011682018060405250810190611f419190612a8f565b60ff16905090565b60026001541415611f6c5760405162461bcd60e51b815260040161069390613255565b60026001556004546001600160a01b03163314611f9b5760405162461bcd60e51b81526004016106939061315a565b60175460009060ff166009811115611faf57fe5b118015611fce575060175460039060ff166009811115611fcb57fe5b11155b611fea5760405162461bcd60e51b815260040161069390612f64565b600654604051636eb1769f60e11b81526000916001600160a01b03169063dd62ed3e9061201d9033903090600401612ae0565b60206040518083038186803b15801561203557600080fd5b505afa158015612049573d6000803e3d6000fd5b505050506040513d601f19601f8201168201806040525081019061206d9190612a77565b6015549091508110156120925760405162461bcd60e51b8152600401610693906130e3565b60015b602a548160ff16116121455760ff81166000908152602760205260408120546001600160a01b0316906120c782610c74565b600081815260276020908152604080832060010180549084905560ff88168452818420546001600160a01b03908116855260289093529220805460ff19169055600654601554939450919261213a92909116903390869061213590606490610b39908863ffffffff61240e16565b612757565b505050600101612095565b50600854601f54600091014310156121665761215f612848565b9050612171565b61216e610643565b90505b6000600660175460ff16600981111561218657fe5b14156121a4576011546019546121a19163ffffffff61240e16565b90505b6005546040516370a0823160e01b81526000916001600160a01b0316906370a08231906121d5903090600401612acc565b60206040518083038186803b1580156121ed57600080fd5b505afa158015612201573d6000803e3d6000fd5b505050506040513d601f19601f820116820180604052508101906122259190612a77565b90506000612239848463ffffffff61248a16565b90508082106122915760055460035461225f916001600160a01b03908116911685612557565b6000612271838363ffffffff6123c516565b60055490915061228b906001600160a01b03163383612557565b506122b5565b8282106122b5576005546003546122b5916001600160a01b03908116911685612557565b4360218190556017805460ff191660071790556040517fd81de7231bf1ee8484c8d4a7f114d29a312842bf7d0eb187ffec71b5b94d2230916122f691613336565b60405180910390a1505060018055505050565b612311612645565b6000546001600160a01b0390811691161461233e5760405162461bcd60e51b81526004016106939061307e565b6001600160a01b0381166123645760405162461bcd60e51b815260040161069390612ce8565b600080546040516001600160a01b03808516939216917f8be0079c531659141344cd1fd0a4f28419497f9722a3daafe3b4186f6b6457e091a3600080546001600160a01b0319166001600160a01b0392909216919091179055565b60265481565b600061240783836040518060400160405280601e81526020017f536166654d6174683a207375627472616374696f6e206f766572666c6f770000815250612890565b9392505050565b60008261241d57506000610cdb565b8282028284828161242a57fe5b04146124075760405162461bcd60e51b815260040161069390613006565b600061240783836040518060400160405280601a81526020017f536166654d6174683a206469766973696f6e206279207a65726f0000000000008152506128bc565b6000828201838110156124075760405162461bcd60e51b815260040161069390612d5d565b60008183106124be5781612407565b5090919050565b4360268190556017805460ff1916600517905560405133917f9501cc045c1358e5e6d1aef6f29cb9b1ffb3ea567a4795bffce3050ed74f4d1b916125099190613336565b60405180910390a2565b6017805460ff1916600417905543602581905560405133917ff542b84b1e49b5bef195e1e1949cf1eb789fbe49c059b62a89f24af3c6f71d8f916125099190613336565b60006060846001600160a01b031663a9059cbb858560405160240161257d929190612b1e565b6040516020818303038152906040529060e01b6020820180516001600160e01b0383818316178352505050506040516125b69190612ab0565b6000604051808303816000865af19150503d80600081146125f3576040519150601f19603f3d011682016040523d82523d6000602084013e6125f8565b606091505b50915091508180156126225750805115806126225750808060200190518101906126229190612945565b61263e5760405162461bcd60e51b815260040161069390612baa565b5050505050565b3390565b61265282610dd4565b61266e5760405162461bcd60e51b815260040161069390612e19565b60015b602a548160ff16116126e85760ff81166000908152602760205260408120546126a2906001600160a01b0316610c74565b600081815260276020526040902060010154600554919250906126de906001600160a01b031686610b456064610b39898763ffffffff61240e16565b5050600101612671565b505050565b6126f633610dd4565b6127125760405162461bcd60e51b815260040161069390612f39565b60175460069060ff16600981111561272657fe5b10156127445760405162461bcd60e51b815260040161069390612fb3565b436022556017805460ff19166008179055565b60006060856001600160a01b03166323b872dd86868660405160240161277f93929190612afa565b6040516020818303038152906040529060e01b6020820180516001600160e01b0383818316178352505050506040516127b89190612ab0565b6000604051808303816000865af19150503d80600081146127f5576040519150601f19603f3d011682016040523d82523d6000602084013e6127fa565b606091505b50915091508180156128245750805115806128245750808060200190518101906128249190612945565b6128405760405162461bcd60e51b815260040161069390613211565b505050505050565b600854601f546000910143106128705760405162461bcd60e51b815260040161069390612d94565b6017805460ff19166006179055601154600854600091610816919061240e565b600081848411156128b45760405162461bcd60e51b81526004016106939190612b77565b505050900390565b600081836128dd5760405162461bcd60e51b81526004016106939190612b77565b5060008385816128e957fe5b0495945050505050565b8051610cdb8161345e565b60006020828403121561290f578081fd5b81356124078161345e565b6000806040838503121561292c578081fd5b82356129378161345e565b946020939093013593505050565b600060208284031215612956578081fd5b81518015158114612407578182fd5b600060e08284031215612976578081fd5b61298060e0613407565b825181526020830151602082015260408301516040820152606083015160608201526080830151608082015260a083015160a082015260c083015160c08201528091505092915050565b60006101208083850312156129dd578182fd5b6129e681613407565b835181526020840151602082015260408401516040820152606084015160608201526080840151608082015260a084015160a0820152612a298560c086016128f3565b60c0820152612a3b8560e086016128f3565b60e08201526101009150612a51858386016128f3565b918101919091529392505050565b600060208284031215612a70578081fd5b5035919050565b600060208284031215612a88578081fd5b5051919050565b600060208284031215612aa0578081fd5b815160ff81168114612407578182fd5b60008251612ac281846020870161342e565b9190910192915050565b6001600160a01b0391909116815260200190565b6001600160a01b0392831681529116602082015260400190565b6001600160a01b039384168152919092166020820152604081019190915260600190565b6001600160a01b03929092168252602082015260400190565b6001600160a01b039390931683526020830191909152604082015260600190565b901515815260200190565b60208101600a8310612b7157fe5b91905290565b6000602082528251806020840152612b9681604085016020870161342e565b601f01601f19169190910160400192915050565b6020808252601f908201527f5472616e7366657248656c7065723a205452414e534645525f4641494c454400604082015260600190565b60208082526025908201527f4c6f616e207374617475732063616e6e6f74207265636569766520636f6c6c616040820152641d195c985b60da1b606082015260800190565b60208082526025908201527f4c6f616e20737461747573206e6f742063616c63756c6174696e6720696e7465604082015264726573747360d81b606082015260800190565b6020808252601f908201527f43616c6c6572206973206e6f7420612076616c6964206465706c6f7965722100604082015260600190565b60208082526026908201527f546f6f2073686f727420706572696f64206166746572206c6f616e20616374696040820152653b30ba34b7b760d11b606082015260800190565b60208082526026908201527f4f776e61626c653a206e6577206f776e657220697320746865207a65726f206160408201526564647265737360d01b606082015260800190565b60208082526015908201527414da185c995a1bdb19195c881b9bdd08199bdd5b99605a1b604082015260600190565b6020808252601b908201527f536166654d6174683a206164646974696f6e206f766572666c6f770000000000604082015260600190565b602080825260129082015271496e636f6e677275656e742073746174757360701b604082015260600190565b602080825260159082015274131bd85b8814dd185d1d5cc81a5b98dbdc9c9958dd605a1b604082015260600190565b60208082526010908201526f496e636f72726563742073746174757360801b604082015260600190565b6020808252601c908201527f41646472657373206973206e6f742061207368617265686f6c64657200000000604082015260600190565b6020808252601390820152721059191c995cdcc81b9bdd08185b1b1bddd959606a1b604082015260600190565b60208082526023908201527f4e6f7420656e6f75676820746f6b656e73206f6e206c656e6465722062616c616040820152626e636560e81b606082015260800190565b60208082526019908201527f436865636b2074686520746f6b656e20616c6c6f77616e636500000000000000604082015260600190565b60208082526022908201527f4e6f7420656e6f75676820746f6b656e7320696e206c6f616e20636f6e74726160408201526118dd60f21b606082015260800190565b6020808252601190820152702737ba10309039b430b932b437b63232b960791b604082015260600190565b6020808252602f908201527f4c6f616e20737461747573206e6f7420636f6d70617469626c6520776974682060408201526e636c6f73696e6720616374696f6e7360881b606082015260800190565b60208082526033908201527f4c6f616e20737461747573206e6f7420636f6d70617469626c65207769746820604082015272666f7265636c6f73696e6720616374696f6e7360681b606082015260800190565b60208082526021908201527f536166654d6174683a206d756c7469706c69636174696f6e206f766572666c6f6040820152607760f81b606082015260800190565b6020808252601a908201527f43616e63656c2072657175657374206e6f7420616c6c6f776564000000000000604082015260600190565b6020808252818101527f4f776e61626c653a2063616c6c6572206973206e6f7420746865206f776e6572604082015260600190565b602080825260169082015275151bdad95b881d1e5c19481b9bdd0818dbdc9c9958dd60521b604082015260600190565b6020808252602c908201527f436865636b2074686520746f6b656e20616c6c6f77616e636520746f2073657460408201526b3a3632903a3432903637b0b760a11b606082015260800190565b602080825260119082015270151bdad95b881b9bdd08185b1b1bddd959607a1b604082015260600190565b60208082526017908201527f43616c6c6572206e6f742074686520626f72726f776572000000000000000000604082015260600190565b60208082526029908201527f5368617265686f6c64657220686173206e6f7420656e6f7567682073686172656040820152681cc81d1bc81cd95b1b60ba1b606082015260800190565b60208082526018908201527f426c6f636b206e756d626572206e6f7420616c6c6f7765640000000000000000604082015260600190565b60208082526024908201527f5472616e7366657248656c7065723a205452414e534645525f46524f4d5f46416040820152631253115160e21b606082015260800190565b6020808252601f908201527f5265656e7472616e637947756172643a207265656e7472616e742063616c6c00604082015260600190565b60208082526042908201527f4c6f616e20737461747573206e6f7420636f6d70617469626c6520776974682060408201527f7769746864726177206163637275656420696e7465726573747320616374696f6060820152616e7360f01b608082015260a00190565b60208082526022908201527f4e6f7420656e6f75676820746f6b656e7320696e2073656e6465722077616c6c604082015261195d60f21b606082015260800190565b90815260200190565b918252602082015260400190565b988952602089019790975260408801959095526060870193909352608086019190915260a08501526001600160a01b0390811660c085015290811660e0840152166101008201526101200190565b968752602087019590955260408601939093526060850191909152608084015260a083015260c082015260e00190565b978852602088019690965260408701949094526060860192909252608085015260a084015260ff90811660c08401521660e08201526101000190565b60405181810167ffffffffffffffff8111828210171561342657600080fd5b604052919050565b60005b83811015613449578181015183820152602001613431565b83811115613458576000848401525b50505050565b6001600160a01b038116811461347357600080fd5b5056fea2646970667358221220ffc98c0f242f5eb64c1db03a6001c81ea34b4d5c45aab1b0e56719048661ce6c64736f6c634300060b00338be0079c531659141344cd1fd0a4f28419497f9722a3daafe3b4186f6b6457e0a2646970667358221220c449c3fb3a95fc126cc04bca11a1d4388c0a7700419fc43a6f75d94741c3b5d164736f6c634300060b0033",
  "immutableReferences": {},
  "source": "// SPDX-License-Identifier: MIT\n\npragma solidity ^0.6.11;\npragma experimental ABIEncoderV2;\n\n//import \"./lib/DydxFlashloanBase.sol\";\n//import \"./lib/ICallee.sol\";\n\n//import \"@openzeppelin/contracts/token/ERC20/IERC20.sol\";\n\nimport \"@openzeppelin/contracts/math/SafeMath.sol\";\nimport \"@openzeppelin/contracts/access/Ownable.sol\";\nimport \"./IJFactory.sol\";\nimport \"./IJLoanCommons.sol\";\nimport \"./JLoanToken.sol\";\nimport \"./TransferHelper.sol\";\n\ncontract JLoanTokenDeployer is Ownable {\n    using SafeMath for uint256;\n\n    uint private tokenLoansCounter;\n    address private tokenFeesCollector;\n\n    mapping(uint => address) private tokenLoanContractsList;\n    mapping(address => bool) private tokenLoanContracts;\n\n    uint public borrowerLength;\n    address[] public borrowerList;\n    mapping(address => bool) public borrowers;\n\n    IJLoanCommons.params public loanParams;\n\n    event NewTokenLoanCreated(\n        uint indexed loanId,\n        address indexed sender,\n        address indexed newLoan,\n        uint borrowerLength\n    );\n    event SetNewStatus(uint idx, uint oldStatus, uint newStatus);\n\n    constructor() public {\n        tokenLoansCounter = 0;\n    }\n\n    modifier onlyLoanFactory() {\n        require(msg.sender == loanParams.factoryAddress, \"Caller is not a Loan Factory!\");\n        _;\n    }\n\n    /**\n    * @dev set loan factory contract address\n    * @param _factAddr, address of loan factory contract to add\n    */\n    function setLoanFactory(address _factAddr) external onlyOwner {\n        loanParams.factoryAddress = _factAddr;\n    }\n\n    /**\n    * @dev set token loans contract counter\n    * @param _newValue, new counter value\n    */\n    function setTokenLoansCounter(uint _newValue) external onlyOwner {\n        tokenLoansCounter = _newValue;\n    }\n\n    /**\n    * @dev get deployed token loans contract counter\n    * @return number of deployed token loans contracts\n    */\n    function getDeployedTokenLoansCounter() external view returns(uint) {\n        return tokenLoansCounter;\n    }\n\n    /**\n    * @dev get deployed token loan contract address as an item of an array\n    * @return address of idx-th fund contract address\n    */\n    function getDeployedTokenLoanAddress(uint idx) external view returns(address) {\n        return tokenLoanContractsList[idx];\n    }\n\n    /**\n    * @dev check if an fund contract address was deployed by this deployer\n    * @param _loanAddr, address to check\n    * @return true if fund address was deployed, otherwise false\n    */\n    function isTokenLoanDeployed(address _loanAddr) external view returns (bool) {\n        return tokenLoanContracts[_loanAddr];\n    }\n\n     /**\n    * @dev deploy a new token loan contract, add its address to internal variables\n    * @param _sender, address of the borrower\n    * @param _id, number of the token loan contract\n    * @param _pairId, name of the crypto the borrower would like to receive\n    * @param _borrowedAskAmount, amount of crypto the borrower would like to receive\n    * @param _rpbRate, rate per block the borrower would like to pay as interest\n    * @param _factAddr, factory address\n    * @param _collToken, collateral token address\n    * @param _lendToken, lending token address\n    */      //msg.sender, loanID, _pairId, _borrowedAskAmount, _rpbRate, address(this), _collToken, _lendToken)\n    function deployNewTokenLoanContract(address _sender, \n                uint _id, \n                uint _pairId, \n                uint _borrowedAskAmount, \n                uint _rpbRate, \n                address _factAddr,\n                address _collToken,\n                address _lendToken,\n                uint _contractAmount) public onlyLoanFactory returns (address) {\n        require(_sender != address(0), \"Sender Address is zero\");\n        borrowers[_sender] = true;\n        borrowerList.push(_sender);\n        borrowerLength = borrowerList.length;\n        address newTokenLoanContract = address(new JLoanToken(_sender, _id, _pairId, _borrowedAskAmount,\n                            _rpbRate, _factAddr, _collToken, _lendToken, tokenFeesCollector));\n        tokenLoanContracts[newTokenLoanContract] = true;\n        tokenLoanContractsList[tokenLoansCounter] = newTokenLoanContract;\n        TransferHelper.safeTransferFrom(_collToken, _sender, newTokenLoanContract, _contractAmount);\n        //TransferHelper.safeTransferFrom(_collToken, _sender, tokenFeesCollector, _feesAmount);\n        emit NewTokenLoanCreated(_id, _sender, newTokenLoanContract, borrowerLength);\n        tokenLoansCounter.add(1);\n        return newTokenLoanContract;\n    }\n\n    /**\n    * @dev set new common params in single token loans contract\n    * @param _idx, index of the loan contract\n    */\n    function setTokenLoanCommonParamsInContract (uint _idx) external onlyOwner {\n        IJLoanToken(tokenLoanContractsList[_idx]).setNewCommonParams();\n    }\n\n    /**\n    * @dev set new common params in single token loans contract\n    * @param _idx, index of the loan contract\n    */\n    function setTokenLoanFeesParamsInContract (uint _idx) external onlyOwner {\n        IJLoanToken(tokenLoanContractsList[_idx]).setNewFeesParams();\n    }\n\n    /**\n    * @dev set new status in single token loans contract\n    * @param _idx, index of the loan contract\n    * @param _newStatus, new status\n    */\n    function setTokenStatusInTokenContract (uint _idx, uint _newStatus) external onlyOwner {\n        require(_newStatus >= 0 && _newStatus <= 7, \"New state not valid\");\n        IJLoanToken tokenContract = IJLoanToken(tokenLoanContractsList[_idx]);\n        uint oldStatus = tokenContract.getLoanStatus();\n        require(_newStatus != oldStatus, \"New status is the same like present one\");\n        tokenContract.setNewStatus(_newStatus);\n        uint newStatus = tokenContract.getLoanStatus();\n        emit SetNewStatus(_idx, oldStatus, newStatus);\n    }\n\n    /**\n    * @dev get if an address is a borrower\n    * @return boolean\n    */\n    function isBorrower(address _borr) external view returns (bool) {\n        return borrowers[_borr];\n    }\n\n    /**\n    * @dev set the fee collector contract address\n    */\n    function setFeesCollector(address payable _feeColl) external onlyOwner {\n        require(_feeColl != address(0), \"Address not allowed\");\n        tokenFeesCollector = _feeColl;\n    }\n\n    /**\n    * @dev get the fee collector contract address\n    * @return fee collector address\n    */\n    function getFeesCollector() external view returns(address) {\n        return tokenFeesCollector;\n    }\n\n}",
  "sourcePath": "C:/Users/saurabh/code/Jibrel/defi-smartcontracts/LoansFactoryV2/contracts/JLoanTokenDeployer.sol",
  "compiler": {
    "name": "solc",
    "version": "0.6.11+commit.5ef660b1.Emscripten.clang"
  },
  "schemaVersion": "3.2.5",
  "updatedAt": "2020-10-08T09:46:10.993Z",
  "networkType": "ethereum",
  "devdoc": {
    "kind": "dev",
    "methods": {
      "deployNewTokenLoanContract(address,uint256,uint256,uint256,uint256,address,address,address,uint256)": {
        "details": "deploy a new token loan contract, add its address to internal variables",
        "params": {
          "_borrowedAskAmount": ", amount of crypto the borrower would like to receive",
          "_collToken": ", collateral token address",
          "_factAddr": ", factory address",
          "_id": ", number of the token loan contract",
          "_lendToken": ", lending token address",
          "_pairId": ", name of the crypto the borrower would like to receive",
          "_rpbRate": ", rate per block the borrower would like to pay as interest",
          "_sender": ", address of the borrower"
        }
      },
      "getDeployedTokenLoanAddress(uint256)": {
        "details": "get deployed token loan contract address as an item of an array",
        "returns": {
          "_0": "address of idx-th fund contract address"
        }
      },
      "getDeployedTokenLoansCounter()": {
        "details": "get deployed token loans contract counter",
        "returns": {
          "_0": "number of deployed token loans contracts"
        }
      },
      "getFeesCollector()": {
        "details": "get the fee collector contract address",
        "returns": {
          "_0": "fee collector address"
        }
      },
      "isBorrower(address)": {
        "details": "get if an address is a borrower",
        "returns": {
          "_0": "boolean"
        }
      },
      "isTokenLoanDeployed(address)": {
        "details": "check if an fund contract address was deployed by this deployer",
        "params": {
          "_loanAddr": ", address to check"
        },
        "returns": {
          "_0": "true if fund address was deployed, otherwise false"
        }
      },
      "owner()": {
        "details": "Returns the address of the current owner."
      },
      "renounceOwnership()": {
        "details": "Leaves the contract without owner. It will not be possible to call `onlyOwner` functions anymore. Can only be called by the current owner. NOTE: Renouncing ownership will leave the contract without an owner, thereby removing any functionality that is only available to the owner."
      },
      "setFeesCollector(address)": {
        "details": "set the fee collector contract address"
      },
      "setLoanFactory(address)": {
        "details": "set loan factory contract address",
        "params": {
          "_factAddr": ", address of loan factory contract to add"
        }
      },
      "setTokenLoanCommonParamsInContract(uint256)": {
        "details": "set new common params in single token loans contract",
        "params": {
          "_idx": ", index of the loan contract"
        }
      },
      "setTokenLoanFeesParamsInContract(uint256)": {
        "details": "set new common params in single token loans contract",
        "params": {
          "_idx": ", index of the loan contract"
        }
      },
      "setTokenLoansCounter(uint256)": {
        "details": "set token loans contract counter",
        "params": {
          "_newValue": ", new counter value"
        }
      },
      "setTokenStatusInTokenContract(uint256,uint256)": {
        "details": "set new status in single token loans contract",
        "params": {
          "_idx": ", index of the loan contract",
          "_newStatus": ", new status"
        }
      },
      "transferOwnership(address)": {
        "details": "Transfers ownership of the contract to a new account (`newOwner`). Can only be called by the current owner."
      }
    },
    "version": 1
  },
  "userdoc": {
    "kind": "user",
    "methods": {},
    "version": 1
  }
}