{
  "contractName": "JLoanToken",
  "abi": [
    {
      "inputs": [
        {
          "internalType": "address",
          "name": "_sender",
          "type": "address"
        },
        {
          "internalType": "uint256",
          "name": "_id",
          "type": "uint256"
        },
        {
          "internalType": "uint256",
          "name": "_pairId",
          "type": "uint256"
        },
        {
          "internalType": "uint256",
          "name": "_borrowedAskAmount",
          "type": "uint256"
        },
        {
          "internalType": "uint256",
          "name": "_rpbRate",
          "type": "uint256"
        },
        {
          "internalType": "address",
          "name": "_factoryAddress",
          "type": "address"
        },
        {
          "internalType": "address",
          "name": "_collToken",
          "type": "address"
        },
        {
          "internalType": "address",
          "name": "_lendToken",
          "type": "address"
        },
        {
          "internalType": "address",
          "name": "_tokenFeesCollector",
          "type": "address"
        }
      ],
      "stateMutability": "nonpayable",
      "type": "constructor"
    },
    {
      "anonymous": false,
      "inputs": [
        {
          "indexed": true,
          "internalType": "address",
          "name": "sharesSeller",
          "type": "address"
        },
        {
          "indexed": true,
          "internalType": "address",
          "name": "sharesBuyer",
          "type": "address"
        },
        {
          "indexed": true,
          "internalType": "uint256",
          "name": "amount",
          "type": "uint256"
        },
        {
          "indexed": false,
          "internalType": "uint256",
          "name": "blockNumber",
          "type": "uint256"
        }
      ],
      "name": "AddShareHolderShares",
      "type": "event"
    },
    {
      "anonymous": false,
      "inputs": [
        {
          "indexed": true,
          "internalType": "address",
          "name": "sender",
          "type": "address"
        },
        {
          "indexed": false,
          "internalType": "uint256",
          "name": "blockNumber",
          "type": "uint256"
        }
      ],
      "name": "InitiateForeClosure",
      "type": "event"
    },
    {
      "anonymous": false,
      "inputs": [
        {
          "indexed": true,
          "internalType": "address",
          "name": "lenderAddress",
          "type": "address"
        },
        {
          "indexed": false,
          "internalType": "uint256",
          "name": "factoryFees",
          "type": "uint256"
        },
        {
          "indexed": false,
          "internalType": "uint256",
          "name": "loanActiveBlock",
          "type": "uint256"
        }
      ],
      "name": "LenderAccepted",
      "type": "event"
    },
    {
      "anonymous": false,
      "inputs": [
        {
          "indexed": true,
          "internalType": "address",
          "name": "sender",
          "type": "address"
        },
        {
          "indexed": false,
          "internalType": "uint256",
          "name": "blockNumber",
          "type": "uint256"
        }
      ],
      "name": "LoanAtRiskFromForeclosing",
      "type": "event"
    },
    {
      "anonymous": false,
      "inputs": [
        {
          "indexed": true,
          "internalType": "address",
          "name": "sender",
          "type": "address"
        },
        {
          "indexed": true,
          "internalType": "uint256",
          "name": "loanId",
          "type": "uint256"
        },
        {
          "indexed": false,
          "internalType": "uint256",
          "name": "blockNumber",
          "type": "uint256"
        }
      ],
      "name": "LoanCancelled",
      "type": "event"
    },
    {
      "anonymous": false,
      "inputs": [
        {
          "indexed": false,
          "internalType": "uint256",
          "name": "creationBlock",
          "type": "uint256"
        },
        {
          "indexed": false,
          "internalType": "uint256",
          "name": "value",
          "type": "uint256"
        },
        {
          "indexed": false,
          "internalType": "address",
          "name": "token",
          "type": "address"
        }
      ],
      "name": "LoanContractDeployed",
      "type": "event"
    },
    {
      "anonymous": false,
      "inputs": [
        {
          "indexed": true,
          "internalType": "address",
          "name": "sender",
          "type": "address"
        },
        {
          "indexed": false,
          "internalType": "uint256",
          "name": "blockNumber",
          "type": "uint256"
        }
      ],
      "name": "LoanForeclosed",
      "type": "event"
    },
    {
      "anonymous": false,
      "inputs": [
        {
          "indexed": true,
          "internalType": "address",
          "name": "sender",
          "type": "address"
        },
        {
          "indexed": false,
          "internalType": "uint256",
          "name": "blockNumber",
          "type": "uint256"
        }
      ],
      "name": "LoanForeclosing",
      "type": "event"
    },
    {
      "anonymous": false,
      "inputs": [
        {
          "indexed": false,
          "internalType": "uint256",
          "name": "depositAmount",
          "type": "uint256"
        },
        {
          "indexed": false,
          "internalType": "uint256",
          "name": "status",
          "type": "uint256"
        }
      ],
      "name": "NewDeposit",
      "type": "event"
    },
    {
      "anonymous": false,
      "inputs": [
        {
          "indexed": false,
          "internalType": "uint256",
          "name": "loanStatus",
          "type": "uint256"
        }
      ],
      "name": "NewLoanStatus",
      "type": "event"
    },
    {
      "anonymous": false,
      "inputs": [
        {
          "indexed": true,
          "internalType": "address",
          "name": "sharesSeller",
          "type": "address"
        },
        {
          "indexed": true,
          "internalType": "address",
          "name": "newShareholder",
          "type": "address"
        },
        {
          "indexed": true,
          "internalType": "uint256",
          "name": "amount",
          "type": "uint256"
        },
        {
          "indexed": false,
          "internalType": "uint256",
          "name": "blockNumber",
          "type": "uint256"
        }
      ],
      "name": "NewShareHolder",
      "type": "event"
    },
    {
      "anonymous": false,
      "inputs": [
        {
          "indexed": true,
          "internalType": "address",
          "name": "previousOwner",
          "type": "address"
        },
        {
          "indexed": true,
          "internalType": "address",
          "name": "newOwner",
          "type": "address"
        }
      ],
      "name": "OwnershipTransferred",
      "type": "event"
    },
    {
      "anonymous": false,
      "inputs": [
        {
          "indexed": false,
          "internalType": "address",
          "name": "sender",
          "type": "address"
        },
        {
          "indexed": false,
          "internalType": "uint256",
          "name": "value",
          "type": "uint256"
        }
      ],
      "name": "TokenReceived",
      "type": "event"
    },
    {
      "anonymous": false,
      "inputs": [
        {
          "indexed": false,
          "internalType": "uint256",
          "name": "blockNumber",
          "type": "uint256"
        }
      ],
      "name": "TokenWithdraw",
      "type": "event"
    },
    {
      "inputs": [],
      "name": "borrowerAddress",
      "outputs": [
        {
          "internalType": "address",
          "name": "",
          "type": "address"
        }
      ],
      "stateMutability": "view",
      "type": "function"
    },
    {
      "inputs": [],
      "name": "commonParams",
      "outputs": [
        {
          "internalType": "uint256",
          "name": "loanId",
          "type": "uint256"
        },
        {
          "internalType": "uint256",
          "name": "rpbRate",
          "type": "uint256"
        },
        {
          "internalType": "uint256",
          "name": "initialCollateralRatio",
          "type": "uint256"
        },
        {
          "internalType": "uint256",
          "name": "creationBlock",
          "type": "uint256"
        },
        {
          "internalType": "uint256",
          "name": "pairId",
          "type": "uint256"
        },
        {
          "internalType": "uint256",
          "name": "borrowedAskAmount",
          "type": "uint256"
        },
        {
          "internalType": "uint8",
          "name": "collDecimals",
          "type": "uint8"
        },
        {
          "internalType": "uint8",
          "name": "lendDecimals",
          "type": "uint8"
        }
      ],
      "stateMutability": "view",
      "type": "function"
    },
    {
      "inputs": [],
      "name": "cryptoFromBorrower",
      "outputs": [
        {
          "internalType": "contract IERC20",
          "name": "",
          "type": "address"
        }
      ],
      "stateMutability": "view",
      "type": "function"
    },
    {
      "inputs": [],
      "name": "cryptoFromLender",
      "outputs": [
        {
          "internalType": "contract IERC20",
          "name": "",
          "type": "address"
        }
      ],
      "stateMutability": "view",
      "type": "function"
    },
    {
      "inputs": [],
      "name": "feesCollector",
      "outputs": [
        {
          "internalType": "address",
          "name": "",
          "type": "address"
        }
      ],
      "stateMutability": "view",
      "type": "function"
    },
    {
      "inputs": [],
      "name": "lastDepositBlock",
      "outputs": [
        {
          "internalType": "uint256",
          "name": "",
          "type": "uint256"
        }
      ],
      "stateMutability": "view",
      "type": "function"
    },
    {
      "inputs": [],
      "name": "lastInterestWithdrawalBlock",
      "outputs": [
        {
          "internalType": "uint256",
          "name": "",
          "type": "uint256"
        }
      ],
      "stateMutability": "view",
      "type": "function"
    },
    {
      "inputs": [],
      "name": "loanActiveBlock",
      "outputs": [
        {
          "internalType": "uint256",
          "name": "",
          "type": "uint256"
        }
      ],
      "stateMutability": "view",
      "type": "function"
    },
    {
      "inputs": [],
      "name": "loanClosedBlock",
      "outputs": [
        {
          "internalType": "uint256",
          "name": "",
          "type": "uint256"
        }
      ],
      "stateMutability": "view",
      "type": "function"
    },
    {
      "inputs": [],
      "name": "loanClosingBlock",
      "outputs": [
        {
          "internalType": "uint256",
          "name": "",
          "type": "uint256"
        }
      ],
      "stateMutability": "view",
      "type": "function"
    },
    {
      "inputs": [],
      "name": "loanFees",
      "outputs": [
        {
          "internalType": "uint256",
          "name": "factoryFees",
          "type": "uint256"
        },
        {
          "internalType": "uint256",
          "name": "earlySettlementFee",
          "type": "uint256"
        },
        {
          "internalType": "uint256",
          "name": "userRewardShare",
          "type": "uint256"
        },
        {
          "internalType": "uint256",
          "name": "vaultShare",
          "type": "uint256"
        },
        {
          "internalType": "uint256",
          "name": "undercollateralizedForeclosingMultiple",
          "type": "uint256"
        },
        {
          "internalType": "uint256",
          "name": "atRiskForeclosedMultiple",
          "type": "uint256"
        },
        {
          "internalType": "uint256",
          "name": "cancellationFees",
          "type": "uint256"
        }
      ],
      "stateMutability": "view",
      "type": "function"
    },
    {
      "inputs": [],
      "name": "loanInitiateForeCloseBlock",
      "outputs": [
        {
          "internalType": "uint256",
          "name": "",
          "type": "uint256"
        }
      ],
      "stateMutability": "view",
      "type": "function"
    },
    {
      "inputs": [],
      "name": "loanParams",
      "outputs": [
        {
          "internalType": "uint256",
          "name": "minRpbRate",
          "type": "uint256"
        },
        {
          "internalType": "uint256",
          "name": "earlySettlementWindow",
          "type": "uint256"
        },
        {
          "internalType": "uint256",
          "name": "foreclosureWindow",
          "type": "uint256"
        },
        {
          "internalType": "uint256",
          "name": "requiredCollateralRatio",
          "type": "uint256"
        },
        {
          "internalType": "uint256",
          "name": "foreclosingRatio",
          "type": "uint256"
        },
        {
          "internalType": "uint256",
          "name": "instantForeclosureRatio",
          "type": "uint256"
        },
        {
          "internalType": "address",
          "name": "factoryAddress",
          "type": "address"
        },
        {
          "internalType": "address",
          "name": "ethDeployerAddress",
          "type": "address"
        },
        {
          "internalType": "address",
          "name": "tokenDeployerAddress",
          "type": "address"
        }
      ],
      "stateMutability": "view",
      "type": "function"
    },
    {
      "inputs": [],
      "name": "loanStatus",
      "outputs": [
        {
          "internalType": "enum IJLoanCommons.Status",
          "name": "",
          "type": "uint8"
        }
      ],
      "stateMutability": "view",
      "type": "function"
    },
    {
      "inputs": [],
      "name": "owner",
      "outputs": [
        {
          "internalType": "address",
          "name": "",
          "type": "address"
        }
      ],
      "stateMutability": "view",
      "type": "function"
    },
    {
      "inputs": [],
      "name": "renounceOwnership",
      "outputs": [],
      "stateMutability": "nonpayable",
      "type": "function"
    },
    {
      "inputs": [
        {
          "internalType": "uint256",
          "name": "",
          "type": "uint256"
        }
      ],
      "name": "shareHolders",
      "outputs": [
        {
          "internalType": "address",
          "name": "holder",
          "type": "address"
        },
        {
          "internalType": "uint256",
          "name": "shares",
          "type": "uint256"
        },
        {
          "internalType": "uint256",
          "name": "ownerBlockNumber",
          "type": "uint256"
        }
      ],
      "stateMutability": "view",
      "type": "function"
    },
    {
      "inputs": [
        {
          "internalType": "address",
          "name": "",
          "type": "address"
        }
      ],
      "name": "shareHoldersAddress",
      "outputs": [
        {
          "internalType": "bool",
          "name": "",
          "type": "bool"
        }
      ],
      "stateMutability": "view",
      "type": "function"
    },
    {
      "inputs": [],
      "name": "shareHoldersCounter",
      "outputs": [
        {
          "internalType": "uint256",
          "name": "",
          "type": "uint256"
        }
      ],
      "stateMutability": "view",
      "type": "function"
    },
    {
      "inputs": [
        {
          "internalType": "address",
          "name": "",
          "type": "address"
        }
      ],
      "name": "shareHoldersPlace",
      "outputs": [
        {
          "internalType": "uint256",
          "name": "",
          "type": "uint256"
        }
      ],
      "stateMutability": "view",
      "type": "function"
    },
    {
      "inputs": [],
      "name": "stopInterestsBlock",
      "outputs": [
        {
          "internalType": "uint256",
          "name": "",
          "type": "uint256"
        }
      ],
      "stateMutability": "view",
      "type": "function"
    },
    {
      "inputs": [],
      "name": "tokenDeployer",
      "outputs": [
        {
          "internalType": "address",
          "name": "",
          "type": "address"
        }
      ],
      "stateMutability": "view",
      "type": "function"
    },
    {
      "inputs": [
        {
          "internalType": "address",
          "name": "newOwner",
          "type": "address"
        }
      ],
      "name": "transferOwnership",
      "outputs": [],
      "stateMutability": "nonpayable",
      "type": "function"
    },
    {
      "inputs": [],
      "name": "setNewCommonParams",
      "outputs": [],
      "stateMutability": "nonpayable",
      "type": "function"
    },
    {
      "inputs": [],
      "name": "setNewFeesParams",
      "outputs": [],
      "stateMutability": "nonpayable",
      "type": "function"
    },
    {
      "inputs": [
        {
          "internalType": "address",
          "name": "_tok",
          "type": "address"
        },
        {
          "internalType": "uint256",
          "name": "_tokAmount",
          "type": "uint256"
        }
      ],
      "name": "depositCollateral",
      "outputs": [],
      "stateMutability": "nonpayable",
      "type": "function"
    },
    {
      "inputs": [],
      "name": "withdrawTokens",
      "outputs": [],
      "stateMutability": "nonpayable",
      "type": "function"
    },
    {
      "inputs": [],
      "name": "getContractBalance",
      "outputs": [
        {
          "internalType": "uint256",
          "name": "",
          "type": "uint256"
        }
      ],
      "stateMutability": "view",
      "type": "function"
    },
    {
      "inputs": [],
      "name": "getLoanStatus",
      "outputs": [
        {
          "internalType": "uint256",
          "name": "",
          "type": "uint256"
        }
      ],
      "stateMutability": "view",
      "type": "function"
    },
    {
      "inputs": [],
      "name": "getPairPrice",
      "outputs": [
        {
          "internalType": "uint256",
          "name": "",
          "type": "uint256"
        }
      ],
      "stateMutability": "view",
      "type": "function"
    },
    {
      "inputs": [],
      "name": "getPairDecimals",
      "outputs": [
        {
          "internalType": "uint256",
          "name": "",
          "type": "uint256"
        }
      ],
      "stateMutability": "view",
      "type": "function"
    },
    {
      "inputs": [],
      "name": "checkEarlySettledLoan",
      "outputs": [
        {
          "internalType": "bool",
          "name": "",
          "type": "bool"
        }
      ],
      "stateMutability": "view",
      "type": "function"
    },
    {
      "inputs": [
        {
          "internalType": "address",
          "name": "_stableAddr",
          "type": "address"
        }
      ],
      "name": "lenderSendStableCoins",
      "outputs": [],
      "stateMutability": "nonpayable",
      "type": "function"
    },
    {
      "inputs": [],
      "name": "initiateLoanForeClose",
      "outputs": [],
      "stateMutability": "nonpayable",
      "type": "function"
    },
    {
      "inputs": [],
      "name": "loanClosing",
      "outputs": [],
      "stateMutability": "nonpayable",
      "type": "function"
    },
    {
      "inputs": [],
      "name": "loanClosed",
      "outputs": [],
      "stateMutability": "nonpayable",
      "type": "function"
    },
    {
      "inputs": [],
      "name": "setLoanCancelled",
      "outputs": [],
      "stateMutability": "nonpayable",
      "type": "function"
    },
    {
      "inputs": [],
      "name": "getActualCollateralRatio",
      "outputs": [
        {
          "internalType": "uint256",
          "name": "newCollRatio",
          "type": "uint256"
        }
      ],
      "stateMutability": "view",
      "type": "function"
    },
    {
      "inputs": [],
      "name": "setLoanStatusOnCollRatio",
      "outputs": [
        {
          "internalType": "uint256",
          "name": "",
          "type": "uint256"
        }
      ],
      "stateMutability": "nonpayable",
      "type": "function"
    },
    {
      "inputs": [
        {
          "internalType": "uint256",
          "name": "_calcBlk",
          "type": "uint256"
        }
      ],
      "name": "calculatingAccruedInterests",
      "outputs": [
        {
          "internalType": "uint256",
          "name": "",
          "type": "uint256"
        }
      ],
      "stateMutability": "view",
      "type": "function"
    },
    {
      "inputs": [],
      "name": "getAccruedInterests",
      "outputs": [
        {
          "internalType": "uint256",
          "name": "accruedInterests",
          "type": "uint256"
        }
      ],
      "stateMutability": "view",
      "type": "function"
    },
    {
      "inputs": [],
      "name": "withdrawInterests",
      "outputs": [
        {
          "internalType": "uint256",
          "name": "",
          "type": "uint256"
        }
      ],
      "stateMutability": "nonpayable",
      "type": "function"
    },
    {
      "inputs": [
        {
          "internalType": "address",
          "name": "_holder",
          "type": "address"
        }
      ],
      "name": "isShareHolder",
      "outputs": [
        {
          "internalType": "bool",
          "name": "",
          "type": "bool"
        }
      ],
      "stateMutability": "view",
      "type": "function"
    },
    {
      "inputs": [
        {
          "internalType": "address",
          "name": "_holder",
          "type": "address"
        }
      ],
      "name": "getShareHolderPlace",
      "outputs": [
        {
          "internalType": "uint256",
          "name": "",
          "type": "uint256"
        }
      ],
      "stateMutability": "view",
      "type": "function"
    },
    {
      "inputs": [
        {
          "internalType": "address",
          "name": "_newShareholder",
          "type": "address"
        },
        {
          "internalType": "uint256",
          "name": "_amount",
          "type": "uint256"
        }
      ],
      "name": "addLoanShareHolders",
      "outputs": [
        {
          "internalType": "uint256",
          "name": "",
          "type": "uint256"
        }
      ],
      "stateMutability": "nonpayable",
      "type": "function"
    }
  ],
  "bytecode": "0x60806040523480156200001157600080fd5b506040516200478d3803806200478d833981016040819052620000349162000d44565b6000620000496001600160e01b03620004ba16565b600080546001600160a01b0319166001600160a01b0383169081178255604051929350916000805160206200476d833981519152908290a3506001805533620000af5760405162461bcd60e51b8152600401620000a69062001125565b60405180910390fd5b600280546001600160a01b031916331790556001600160a01b038916620000ea5760405162461bcd60e51b8152600401620000a69062001125565b600480546001600160a01b03199081166001600160a01b038c8116919091178355600580548316878316179055600680548316868316179055600380549092168482161790915560408051634fd7587960e01b8152905191871692634fd7587992828201926101209290829003018186803b1580156200016957600080fd5b505afa1580156200017e573d6000803e3d6000fd5b505050506040513d601f19601f82011682018060405250810190620001a4919062000e47565b805160075560208101516008556040808201516009556060820151600a556080820151600b5560a0820151600c5560c0820151600d80546001600160a01b03199081166001600160a01b039384161790915560e080850151600e8054841691851691909117905561010090940151600f80549092169083161790558151631a55d9e960e01b8152915190871692631a55d9e99260048082019391829003018186803b1580156200025357600080fd5b505afa15801562000268573d6000803e3d6000fd5b505050506040513d601f19601f820116820180604052508101906200028e919062000ddf565b805160185560208101516019556040810151601a556060810151601b556080810151601c5560a0810151601d5560c00151601e55600754851015620002e75760405162461bcd60e51b8152600401620000a690620010fa565b6010889055601185905560148790556015869055604051630404ea8960e21b81526001600160a01b03851690631013aa249062000329908a906004016200115c565b60206040518083038186803b1580156200034257600080fd5b505afa15801562000357573d6000803e3d6000fd5b505050506040513d601f19601f820116820180604052508101906200037d919062000efe565b6016805460ff191660ff92909216919091179055604051633e17bdcb60e11b81526001600160a01b03851690637c2f7b9690620003bf908a906004016200115c565b60206040518083038186803b158015620003d857600080fd5b505afa158015620003ed573d6000803e3d6000fd5b505050506040513d601f19601f8201168201806040525081019062000413919062000efe565b6016805460ff929092166101000261ff0019909216919091179055620004416001600160e01b03620004be16565b601255436013556017805460ff19169055600d5462000469906001600160a01b03166200075e565b6013546015546040517f6b6fa9d5c06988661c31cf3707bc0272b4bbd725cb6c2b92446bfc33d2e8dec192620004a3929091879062001165565b60405180910390a1505050505050505050620011ab565b3390565b600080620004d46001600160e01b036200081416565b90506000620004eb6001600160e01b03620008a216565b60155490915060008060175460ff1660098111156200050657fe5b14156200059b576005546040516370a0823160e01b81526001600160a01b03909116906370a08231906200053f90309060040162000f21565b60206040518083038186803b1580156200055857600080fd5b505afa1580156200056d573d6000803e3d6000fd5b505050506040513d601f19601f8201168201806040525081019062000593919062000ee5565b90506200064f565b6200064c620005b26001600160e01b036200093316565b6005546040516370a0823160e01b81526001600160a01b03909116906370a0823190620005e490309060040162000f21565b60206040518083038186803b158015620005fd57600080fd5b505afa15801562000612573d6000803e3d6000fd5b505050506040513d601f19601f8201168201806040525081019062000638919062000ee5565b62000b5860201b620023e31790919060201c565b90505b60165460ff61010082048116911610620006f4576016546000906200068c9060ff8082169161010090041662000b58602090811b620023e317901c565b9050620006eb81600a0a620006c386600a0a620006c36064620006d789620006c38d8b62000bab60201b6200242c1790919060201c565b62000beb60201b620024661790919060201c565b62000bab60201b6200242c1790919060201c565b95505062000757565b6016546000906200071c9060ff61010082048116911662000b58602090811b620023e317901c565b90506200075381600a0a620006d786600a0a620006c36064620006d789620006c38d8b62000bab60201b6200242c1790919060201c565b9550505b5050505090565b620007716001600160e01b03620004ba16565b6000546001600160a01b03908116911614620007a15760405162461bcd60e51b8152600401620000a6906200108e565b6001600160a01b038116620007ca5760405162461bcd60e51b8152600401620000a69062000fd0565b600080546040516001600160a01b03808516939216916000805160206200476d83398151915291a3600080546001600160a01b0319166001600160a01b0392909216919091179055565b600d54601454604051631334f8cd60e11b81526000926001600160a01b031691632669f19a916200084991906004016200115c565b60206040518083038186803b1580156200086257600080fd5b505afa15801562000877573d6000803e3d6000fd5b505050506040513d601f19601f820116820180604052508101906200089d919062000ee5565b905090565b600d54601454604051632bd61f0560e11b81526000926001600160a01b0316916357ac3e0a91620008d791906004016200115c565b60206040518083038186803b158015620008f057600080fd5b505afa15801562000905573d6000803e3d6000fd5b505050506040513d601f19601f820116820180604052508101906200092b919062000efe565b60ff16905090565b601754600090819060ff1660098111156200094a57fe5b11801562000969575060175460099060ff16818111156200096757fe5b105b620009885760405162461bcd60e51b8152600401620000a69062000f8b565b6000620009ab600760010154601f5462000c3560201b620024a81790919060201c565b9050600660175460ff166009811115620009c157fe5b148015620009cf5750804310155b15620009f157620009e9816001600160e01b0362000c5d16565b915062000a3d565b6022541562000a2657620009e962000a176022544362000caa60201b620024cd1760201c565b6001600160e01b0362000c5d16565b62000a3a436001600160e01b0362000c5d16565b91505b6005546040516370a0823160e01b81526001600160a01b03909116906370a082319062000a6f90309060040162000f21565b60206040518083038186803b15801562000a8857600080fd5b505afa15801562000a9d573d6000803e3d6000fd5b505050506040513d601f19601f8201168201806040525081019062000ac3919062000ee5565b82111562000b54576005546040516370a0823160e01b81526001600160a01b03909116906370a082319062000afd90309060040162000f21565b60206040518083038186803b15801562000b1657600080fd5b505afa15801562000b2b573d6000803e3d6000fd5b505050506040513d601f19601f8201168201806040525081019062000b51919062000ee5565b91505b5090565b600062000ba283836040518060400160405280601e81526020017f536166654d6174683a207375627472616374696f6e206f766572666c6f77000081525062000cc260201b60201c565b90505b92915050565b60008262000bbc5750600062000ba5565b8282028284828162000bca57fe5b041462000ba25760405162461bcd60e51b8152600401620000a6906200104d565b600062000ba283836040518060400160405280601a81526020017f536166654d6174683a206469766973696f6e206279207a65726f00000000000081525062000cf160201b60201c565b60008282018381101562000ba25760405162461bcd60e51b8152600401620000a69062001016565b600060245482101562000c845760405162461bcd60e51b8152600401620000a690620010c3565b62000ba5601060010154620006d76024548562000b5860201b620023e31790919060201c565b600081831062000cbb578162000ba2565b5090919050565b6000818484111562000ce95760405162461bcd60e51b8152600401620000a6919062000f35565b505050900390565b6000818362000d155760405162461bcd60e51b8152600401620000a6919062000f35565b50600083858162000d2257fe5b0495945050505050565b80516001600160a01b038116811462000ba557600080fd5b60008060008060008060008060006101208a8c03121562000d63578485fd5b62000d6f8b8b62000d2c565b985060208a0151975060408a0151965060608a0151955060808a0151945062000d9c8b60a08c0162000d2c565b935062000dad8b60c08c0162000d2c565b925062000dbe8b60e08c0162000d2c565b915062000dd08b6101008c0162000d2c565b90509295985092959850929598565b600060e0828403121562000df1578081fd5b62000dfd60e062001184565b825181526020830151602082015260408301516040820152606083015160608201526080830151608082015260a083015160a082015260c083015160c08201528091505092915050565b600061012080838503121562000e5b578182fd5b62000e668162001184565b835181526020840151602082015260408401516040820152606084015160608201526080840151608082015260a084015160a082015262000eab8560c0860162000d2c565b60c082015262000ebf8560e0860162000d2c565b60e0820152610100915062000ed78583860162000d2c565b918101919091529392505050565b60006020828403121562000ef7578081fd5b5051919050565b60006020828403121562000f10578081fd5b815160ff8116811462000ba2578182fd5b6001600160a01b0391909116815260200190565b6000602080835283518082850152825b8181101562000f635785810183015185820160400152820162000f45565b8181111562000f755783604083870101525b50601f01601f1916929092016040019392505050565b60208082526025908201527f4c6f616e20737461747573206e6f742063616c63756c6174696e6720696e7465604082015264726573747360d81b606082015260800190565b60208082526026908201527f4f776e61626c653a206e6577206f776e657220697320746865207a65726f206160408201526564647265737360d01b606082015260800190565b6020808252601b908201527f536166654d6174683a206164646974696f6e206f766572666c6f770000000000604082015260600190565b60208082526021908201527f536166654d6174683a206d756c7469706c69636174696f6e206f766572666c6f6040820152607760f81b606082015260800190565b6020808252818101527f4f776e61626c653a2063616c6c6572206973206e6f7420746865206f776e6572604082015260600190565b60208082526018908201527f426c6f636b206e756d626572206e6f7420616c6c6f7765640000000000000000604082015260600190565b602080825260119082015270496e74657265737420746f6f206c6f772160781b604082015260600190565b6020808252601a908201527f53656e6465722061646472657373206e6f7420616c6c6f776564000000000000604082015260600190565b90815260200190565b92835260208301919091526001600160a01b0316604082015260600190565b6040518181016001600160401b0381118282101715620011a357600080fd5b604052919050565b6135b280620011bb6000396000f3fe608060405234801561001057600080fd5b506004361061027f5760003560e01c80636dd167f81161015c57806395dcc255116100ce578063c55d2a4711610087578063c55d2a471461048a578063d20fbeb614610492578063d51389481461049a578063d75e1bd8146104b6578063e936e44a146104c9578063f2fde38b146104d15761027f565b806395dcc255146104445780639cf160f614610457578063a5d5db0c1461045f578063acc1ab1314610472578063b2ca18051461047a578063c2b0bf58146104825761027f565b80637ba61ea5116101205780637ba61ea51461041457806382f0c81c1461041c578063838dfaa4146104245780638d8f2adb1461042c5780638da5cb5b14610434578063918c3dbd1461043c5761027f565b80636dd167f8146103c75780636f9fb98a146103cf578063715018a6146103d75780637427a40c146103df5780637a33f63c146104015761027f565b80633ba2ee40116101f5578063479d61a0116101b9578063479d61a01461036b57806347c865df146103735780634cdb79b41461037b57806356f4aee01461038e5780635ced2a11146103a15780635f4975f0146103b45761027f565b80633ba2ee40146103365780633cb852251461033e5780633cf348c31461034657806342ac33791461035b57806344dc7fbc146103635761027f565b80631aa118d9116102475780631aa118d9146102e657806320a73ab7146102ee578063216c2490146102f65780632a1f3cda146103115780632a2dae0a146103195780632a3d7c811461032e5761027f565b806306bb531e14610284578063074ca966146102a257806309e94d98146102b7578063176f1c63146102d457806318ad714a146102de575b600080fd5b61028c6104e4565b604051610299919061343c565b60405180910390f35b6102aa6105e4565b6040516102999190612b9a565b6102bf6105ed565b60405161029999989796959493929190613453565b6102dc61061c565b005b61028c610984565b61028c610b54565b61028c610b5a565b6102fe610b60565b60405161029997969594939291906134a1565b6102dc610b78565b610321610c9a565b6040516102999190612b03565b61028c610ca9565b6102dc610caf565b610321610e82565b61034e610e91565b6040516102999190612b8f565b61028c610eac565b610321610f2f565b61028c610f3e565b61028c610f44565b61034e610389366004612935565b610f4a565b61028c61039c366004612935565b610f5f565b61028c6103af366004612a96565b610f7a565b61028c6103c2366004612935565b610fcc565b61028c610fde565b61028c610fe4565b6102dc611015565b6103f26103ed366004612a96565b611094565b60405161029993929190612b6e565b61034e61040f366004612935565b6110bf565b6103216110dd565b61028c6110ec565b6102dc6111b9565b6102dc61132b565b6103216114fb565b6102dc61150a565b6102dc610452366004612935565b6115e7565b610321611a49565b6102dc61046d366004612951565b611a58565b61028c611c73565b61028c611c87565b6102dc611c8d565b61028c611de6565b61028c611dec565b6104a2611fa1565b6040516102999897969594939291906134d1565b61028c6104c4366004612951565b611fc5565b61028c6122a2565b6102dc6104df366004612935565b61232d565b601754600090819060ff1660098111156104fa57fe5b118015610518575060175460059060ff16600981111561051657fe5b105b15610586576000610527611dec565b600b5490915081106105565760015b6017805460ff1916600183600981111561054c57fe5b0217905550610584565b600b54811180159061056a5750600c548110155b15610576576002610536565b6017805460ff191660031790555b505b6017547fe096f951d62ec2072f7a4b5b750e0f9b7a55b9c4cbfa1f516b496cb58d7dff6f9060ff1660098111156105b957fe5b6040516105c6919061343c565b60405180910390a160175460ff1660098111156105df57fe5b905090565b60175460ff1681565b600754600854600954600a54600b54600c54600d54600e54600f546001600160a01b0392831692918216911689565b600260015414156106485760405162461bcd60e51b815260040161063f9061335b565b60405180910390fd5b60026001556004546001600160a01b031633146106775760405162461bcd60e51b815260040161063f9061320c565b60175460009060ff16600981111561068b57fe5b1180156106aa575060175460039060ff1660098111156106a757fe5b11155b6106c65760405162461bcd60e51b815260040161063f90612fc9565b600654604051636eb1769f60e11b81526000916001600160a01b03169063dd62ed3e906106f99033903090600401612b17565b60206040518083038186803b15801561071157600080fd5b505afa158015610725573d6000803e3d6000fd5b505050506040513d601f19601f820116820180604052508101906107499190612aae565b60155490915081101561076e5760405162461bcd60e51b815260040161063f90613195565b600854601f546000910143101561078e576107876124e3565b9050610799565b610796610984565b90505b6000600660175460ff1660098111156107ae57fe5b14156107cc576011546019546107c99163ffffffff61242c16565b90505b60006107de838363ffffffff6124a816565b6005546040516370a0823160e01b815291925082916001600160a01b03909116906370a0823190610813903090600401612b03565b60206040518083038186803b15801561082b57600080fd5b505afa15801561083f573d6000803e3d6000fd5b505050506040513d601f19601f820116820180604052508101906108639190612aae565b10156108815760405162461bcd60e51b815260040161063f90612eff565b60065460155461089e916001600160a01b0316903390309061252b565b6005546003546108bb916001600160a01b0390811691168461261c565b6005546040516370a0823160e01b815260009161094e9184916001600160a01b0316906370a08231906108f2903090600401612b03565b60206040518083038186803b15801561090a57600080fd5b505afa15801561091e573d6000803e3d6000fd5b505050506040513d601f19601f820116820180604052508101906109429190612aae565b9063ffffffff6123e316565b600554909150610968906001600160a01b0316338361261c565b50504360215550506017805460ff191660071790555060018055565b601754600090819060ff16600981111561099a57fe5b1180156109b7575060175460099060ff16818111156109b557fe5b105b6109d35760405162461bcd60e51b815260040161063f90612c5d565b600854601f546000916109ec919063ffffffff6124a816565b9050600660175460ff166009811115610a0157fe5b148015610a0e5750804310155b15610a2357610a1c81610f7a565b9150610a46565b60225415610a3a57610a1c6103af602254436124cd565b610a4343610f7a565b91505b6005546040516370a0823160e01b81526001600160a01b03909116906370a0823190610a76903090600401612b03565b60206040518083038186803b158015610a8e57600080fd5b505afa158015610aa2573d6000803e3d6000fd5b505050506040513d601f19601f82011682018060405250810190610ac69190612aae565b821115610b50576005546040516370a0823160e01b81526001600160a01b03909116906370a0823190610afd903090600401612b03565b60206040518083038186803b158015610b1557600080fd5b505afa158015610b29573d6000803e3d6000fd5b505050506040513d601f19601f82011682018060405250810190610b4d9190612aae565b91505b5090565b60295481565b60205481565b601854601954601a54601b54601c54601d54601e5487565b6002546001600160a01b03163314610ba25760405162461bcd60e51b815260040161063f90612ca2565b600d5460408051634fd7587960e01b815290516001600160a01b0390921691634fd758799160048082019261012092909190829003018186803b158015610be857600080fd5b505afa158015610bfc573d6000803e3d6000fd5b505050506040513d601f19601f82011682018060405250810190610c209190612a01565b8051600755602081015160085560408101516009556060810151600a556080810151600b5560a0810151600c5560c0810151600d80546001600160a01b03199081166001600160a01b039384161790915560e0830151600e8054831691841691909117905561010090920151600f80549093169116179055565b6002546001600160a01b031681565b60235481565b6000610cb96104e4565b90508060021480610cca5750806003145b610ce65760405162461bcd60e51b815260040161063f90613018565b60008160021415610d1557601154601c54610d069163ffffffff61242c16565b9050610d1061270a565b610d34565b601154601d54610d2a9163ffffffff61242c16565b9050610d34612783565b6005546040516370a0823160e01b815282916001600160a01b0316906370a0823190610d64903090600401612b03565b60206040518083038186803b158015610d7c57600080fd5b505afa158015610d90573d6000803e3d6000fd5b505050506040513d601f19601f82011682018060405250810190610db49190612aae565b1015610dd25760405162461bcd60e51b815260040161063f90612f5c565b600554601a54610e11916001600160a01b0316903390610e0c90606490610e0090879063ffffffff61242c16565b9063ffffffff61246616565b61261c565b600554601b54610e3f916001600160a01b0316903390610e0c90606490610e0090879063ffffffff61242c16565b43602081905560405133917f9c216942fb53599e3610164be0d173eb8b00a4613afdb41d524f00091a819abc91610e76919061343c565b60405180910390a25050565b6005546001600160a01b031681565b6000600660175460ff166009811115610ea657fe5b14905090565b600d54601454604051631334f8cd60e11b81526000926001600160a01b031691632669f19a91610edf919060040161343c565b60206040518083038186803b158015610ef757600080fd5b505afa158015610f0b573d6000803e3d6000fd5b505050506040513d601f19601f820116820180604052508101906105df9190612aae565b6006546001600160a01b031681565b60255481565b60245481565b60276020526000908152604090205460ff1681565b6001600160a01b031660009081526028602052604090205490565b6000602454821015610f9e5760405162461bcd60e51b815260040161063f9061328c565b601154602454610fc69190610fba90859063ffffffff6123e316565b9063ffffffff61242c16565b92915050565b60286020526000908152604090205481565b60215481565b6005546040516370a0823160e01b81526000916001600160a01b0316906370a0823190610edf903090600401612b03565b61101d6127f2565b6000546001600160a01b0390811691161461104a5760405162461bcd60e51b815260040161063f906130e3565b600080546040516001600160a01b03909116907f8be0079c531659141344cd1fd0a4f28419497f9722a3daafe3b4186f6b6457e0908390a3600080546001600160a01b0319169055565b6026602052600090815260409020805460018201546002909201546001600160a01b03909116919083565b6001600160a01b031660009081526027602052604090205460ff1690565b6004546001600160a01b031681565b6000600260015414156111115760405162461bcd60e51b815260040161063f9061335b565b600260015560175460009060ff16600981111561112a57fe5b118015611147575060175460099060ff168181111561114557fe5b105b6111635760405162461bcd60e51b815260040161063f90613392565b60015b6029548160ff16116111a05760ff8116600090815260266020526040902054611197906001600160a01b03166127f6565b50600101611166565b504360245560006111af6104e4565b9150506001805590565b6111c2336110bf565b6111de5760405162461bcd60e51b815260040161063f90612f9e565b60175460069060ff1660098111156111f257fe5b10156112105760405162461bcd60e51b815260040161063f90613018565b60015b6029548160ff16116113175760ff8116600090815260266020526040812054611244906001600160a01b0316610f5f565b600081815260266020908152604080832060010180549084905560ff87168452818420546001600160a01b031684526027909252909120805460ff19169055909150336108fc61129f6064610e00478663ffffffff61242c16565b6040518115909202916000818181858888f193505050501580156112c7573d6000803e3d6000fd5b50600654336000818152602860209081526040808320548352602690915290206001015461130d926001600160a01b03169190610e0c90606490610e0090610fba610fe4565b5050600101611213565b50436022556017805460ff19166008179055565b6002600154141561134e5760405162461bcd60e51b815260040161063f9061335b565b6002600155600760175460ff16600981111561136657fe5b10156113845760405162461bcd60e51b815260040161063f90613018565b61138d336110bf565b6113a95760405162461bcd60e51b815260040161063f90613148565b60015b6029548160ff16116114bd5760ff81166000908152602660205260408120546001600160a01b0316906113de82610f5f565b6000818152602660205260408082206001015460055491516370a0823160e01b81529394509261148191606491610e009186916001600160a01b03909116906370a0823190611431903090600401612b03565b60206040518083038186803b15801561144957600080fd5b505afa15801561145d573d6000803e3d6000fd5b505050506040513d601f19601f82011682018060405250810190610fba9190612aae565b6000848152602660205260408120600101556005549091506114ad906001600160a01b0316858361261c565b5050600190920191506113ac9050565b507f3267ae1d278db604a5c3df6b64c145041a9d2ee7fc353633ded47f38c8ad3885436040516114ed919061343c565b60405180910390a160018055565b6000546001600160a01b031690565b6002546001600160a01b031633146115345760405162461bcd60e51b815260040161063f90612ca2565b600d5460408051631a55d9e960e01b815290516001600160a01b0390921691631a55d9e99160048082019260e092909190829003018186803b15801561157957600080fd5b505afa15801561158d573d6000803e3d6000fd5b505050506040513d601f19601f820116820180604052508101906115b1919061299c565b805160185560208101516019556040810151601a556060810151601b556080810151601c5560a0810151601d5560c00151601e55565b6002600154141561160a5760405162461bcd60e51b815260040161063f9061335b565b60026001553361162c5760405162461bcd60e51b815260040161063f90612e58565b6006546001600160a01b038281169116146116595760405162461bcd60e51b815260040161063f906131e1565b6015546006546040516370a0823160e01b81526001600160a01b03909116906370a082319061168c903390600401612b03565b60206040518083038186803b1580156116a457600080fd5b505afa1580156116b8573d6000803e3d6000fd5b505050506040513d601f19601f820116820180604052508101906116dc9190612aae565b10156116fa5760405162461bcd60e51b815260040161063f90612e85565b600060175460ff16600981111561170d57fe5b1461172a5760405162461bcd60e51b815260040161063f90612df7565b601554604051636eb1769f60e11b81526000906001600160a01b0384169063dd62ed3e9061175e9033903090600401612b17565b60206040518083038186803b15801561177657600080fd5b505afa15801561178a573d6000803e3d6000fd5b505050506040513d601f19601f820116820180604052508101906117ae9190612aae565b9050818110156117d05760405162461bcd60e51b815260040161063f90612ec8565b43601f55601780546001919060ff19168280021790555060016029818155604080516060810182523380825260646020808401918252601f5484860190815260008881526026835294517f5db1dfd2ced311e642486f0e890a646498a1bdee1ad9403b0a73141af8a4c41180546001600160a01b0319166001600160a01b0392831617905592517f5db1dfd2ced311e642486f0e890a646498a1bdee1ad9403b0a73141af8a4c41255517f5db1dfd2ced311e642486f0e890a646498a1bdee1ad9403b0a73141af8a4c4135582845260278152848420805460ff19169097179096559354602890955291902092909255436024556004546118d69286929091168561252b565b600d5460145460155460405163c175771b60e01b81526000936001600160a01b03169263c175771b9261190b92600401613445565b60206040518083038186803b15801561192357600080fd5b505afa158015611937573d6000803e3d6000fd5b505050506040513d601f19601f8201168201806040525081019061195b9190612aae565b600d54604051632976f2fb60e11b81529192506000916001600160a01b03909116906352ede5f69061199190859060040161343c565b60206040518083038186803b1580156119a957600080fd5b505afa1580156119bd573d6000803e3d6000fd5b505050506040513d601f19601f820116820180604052508101906119e19190612aae565b600554600354919250611a01916001600160a01b0391821691168361261c565b601f5460405133917f8da312eaac37817e0ccf8bd45912080260bec10b5dac7e4ab7a438e96a60592191611a36918591613445565b60405180910390a2505060018055505050565b6003546001600160a01b031681565b600160175460ff166009811115611a6b57fe5b10158015611a8a5750600460175460ff166009811115611a8757fe5b11155b611aa65760405162461bcd60e51b815260040161063f90612c18565b6005546001600160a01b03838116911614611ad35760405162461bcd60e51b815260040161063f90613118565b6005546040516370a0823160e01b815282916001600160a01b0316906370a0823190611b03903390600401612b03565b60206040518083038186803b158015611b1b57600080fd5b505afa158015611b2f573d6000803e3d6000fd5b505050506040513d601f19601f82011682018060405250810190611b539190612aae565b1015611b715760405162461bcd60e51b815260040161063f906133fa565b600554604051636eb1769f60e11b81526000916001600160a01b03169063dd62ed3e90611ba49033903090600401612b17565b60206040518083038186803b158015611bbc57600080fd5b505afa158015611bd0573d6000803e3d6000fd5b505050506040513d601f19601f82011682018060405250810190611bf49190612aae565b905081811015611c165760405162461bcd60e51b815260040161063f90612ec8565b611c228333308561252b565b6000611c2c6104e4565b436023556040519091507f078c599f5cd71dc8637a680b058c73d883fa16e7282ff35ed71f6584560d306990611c659085908490613445565b60405180910390a150505050565b60175460009060ff1660098111156105df57fe5b601f5481565b6004546001600160a01b03163314611cb75760405162461bcd60e51b815260040161063f906130ac565b60175460ff166009811115611cc857fe5b15611ce55760405162461bcd60e51b815260040161063f90613018565b601e546006546040516370a0823160e01b8152600092611d2592606492610e0092916001600160a01b0316906370a0823190611431903090600401612b03565b6006546040516370a0823160e01b8152919250600091611d619184916001600160a01b03909116906370a08231906108f2903090600401612b03565b600654600354919250611d81916001600160a01b0391821691168461261c565b600654611d98906001600160a01b0316338361261c565b6017805460ff1916600917905560105460405133907f976729a22a1f27f055a6f0ffa92bd9d2944c972f1d0e25d1b3517bfa523cf49890611dda90439061343c565b60405180910390a35050565b60225481565b600080611df7610eac565b90506000611e036122a2565b60155490915060008060175460ff166009811115611e1d57fe5b1415611eaa576005546040516370a0823160e01b81526001600160a01b03909116906370a0823190611e53903090600401612b03565b60206040518083038186803b158015611e6b57600080fd5b505afa158015611e7f573d6000803e3d6000fd5b505050506040513d601f19601f82011682018060405250810190611ea39190612aae565b9050611ee8565b611ee5611eb5610984565b6005546040516370a0823160e01b81526001600160a01b03909116906370a08231906108f2903090600401612b03565b90505b60165460ff61010082048116911610611f5057601654600090611f1c9060ff8082169161010090041663ffffffff6123e316565b9050611f4881600a0a610e0086600a0a610e006064610fba89610e008d8b61242c90919063ffffffff16565b955050611f9a565b601654600090611f6a9060ff6101008204811691166123e3565b9050611f9681600a0a610fba86600a0a610e006064610fba89610e008d8b61242c90919063ffffffff16565b9550505b5050505090565b60105460115460125460135460145460155460165460ff8082169161010090041688565b600060026001541415611fea5760405162461bcd60e51b815260040161063f9061335b565b6002600155611ff8336110bf565b6120145760405162461bcd60e51b815260040161063f90612e21565b600061201f33610f5f565b9050600081116120415760405162461bcd60e51b815260040161063f90612d65565b6000818152602660205260409020600101548311156120725760405162461bcd60e51b815260040161063f90613243565b600854601f540143116120975760405162461bcd60e51b815260040161063f90612cd9565b60015b6029548160ff16116120d45760ff81166000908152602660205260409020546120cb906001600160a01b03166127f6565b5060010161209a565b506000818152602660205260409020600101546120f7908463ffffffff6123e316565b600082815260266020526040902060010155612112846110bf565b6121f05760295461212a90600163ffffffff6124a816565b6029818155604080516060810182526001600160a01b0388811680835260208084018a8152438587018181526000998a5260268452878a20965187546001600160a01b03191696169590951786559051600180870191909155935160029095019490945581875260278152848720805460ff191690931790925593546028909152938290209390935551859233917fed7ee45f75e10dfcc3019d0500825dd990b1949080215ea4894d7ed780073e6f916121e39161343c565b60405180910390a4612287565b60006121fb85610f5f565b600081815260266020526040902060010154909150612220908563ffffffff6124a816565b6000828152602660205260409081902060018101929092554360029092018290555185916001600160a01b0388169133917fb510f1f825ef2a9b3a0fa1d56d8461062ee721c12409714d52332b44b82e6afc9161227d919061343c565b60405180910390a4505b4360245560006122956104e4565b6001805595945050505050565b600d54601454604051632bd61f0560e11b81526000926001600160a01b0316916357ac3e0a916122d5919060040161343c565b60206040518083038186803b1580156122ed57600080fd5b505afa158015612301573d6000803e3d6000fd5b505050506040513d601f19601f820116820180604052508101906123259190612ac6565b60ff16905090565b6123356127f2565b6000546001600160a01b039081169116146123625760405162461bcd60e51b815260040161063f906130e3565b6001600160a01b0381166123885760405162461bcd60e51b815260040161063f90612d1f565b600080546040516001600160a01b03808516939216917f8be0079c531659141344cd1fd0a4f28419497f9722a3daafe3b4186f6b6457e091a3600080546001600160a01b0319166001600160a01b0392909216919091179055565b600061242583836040518060400160405280601e81526020017f536166654d6174683a207375627472616374696f6e206f766572666c6f7700008152506128c7565b9392505050565b60008261243b57506000610fc6565b8282028284828161244857fe5b04146124255760405162461bcd60e51b815260040161063f9061306b565b600061242583836040518060400160405280601a81526020017f536166654d6174683a206469766973696f6e206279207a65726f0000000000008152506128f3565b6000828201838110156124255760405162461bcd60e51b815260040161063f90612d94565b60008183106124dc5781612425565b5090919050565b600854601f5460009101431061250b5760405162461bcd60e51b815260040161063f90612dcb565b6017805460ff19166006179055601154600854600091610b4d919061242c565b60006060856001600160a01b03166323b872dd86868660405160240161255393929190612b31565b6040516020818303038152906040529060e01b6020820180516001600160e01b03838183161783525050505060405161258c9190612ae7565b6000604051808303816000865af19150503d80600081146125c9576040519150601f19603f3d011682016040523d82523d6000602084013e6125ce565b606091505b50915091508180156125f85750805115806125f85750808060200190518101906125f8919061297c565b6126145760405162461bcd60e51b815260040161063f90613317565b505050505050565b60006060846001600160a01b031663a9059cbb8585604051602401612642929190612b55565b6040516020818303038152906040529060e01b6020820180516001600160e01b03838183161783525050505060405161267b9190612ae7565b6000604051808303816000865af19150503d80600081146126b8576040519150601f19603f3d011682016040523d82523d6000602084013e6126bd565b606091505b50915091508180156126e75750805115806126e75750808060200190518101906126e7919061297c565b6127035760405162461bcd60e51b815260040161063f90612be1565b5050505050565b60175460ff16600981111561271b57fe5b60021461273a5760405162461bcd60e51b815260040161063f90613018565b6017805460ff1916600417905560405133907ff542b84b1e49b5bef195e1e1949cf1eb789fbe49c059b62a89f24af3c6f71d8f9061277990439061343c565b60405180910390a2565b60175460ff16600981111561279457fe5b6003146127b35760405162461bcd60e51b815260040161063f90613018565b6017805460ff1916600517905560405133907f9501cc045c1358e5e6d1aef6f29cb9b1ffb3ea567a4795bffce3050ed74f4d1b9061277990439061343c565b3390565b60006002600154141561281b5760405162461bcd60e51b815260040161063f9061335b565b6002600155612829826110bf565b6128455760405162461bcd60e51b815260040161063f90612e21565b600061285083610f5f565b60008181526026602052604081206001015491925061286d610984565b9050612877610fe4565b81106128955760405162461bcd60e51b815260040161063f906132c3565b6005546128bb906001600160a01b031686610e0c6064610e00868863ffffffff61242c16565b50506001805550919050565b600081848411156128eb5760405162461bcd60e51b815260040161063f9190612bae565b505050900390565b600081836129145760405162461bcd60e51b815260040161063f9190612bae565b50600083858161292057fe5b0495945050505050565b8051610fc681613564565b600060208284031215612946578081fd5b813561242581613564565b60008060408385031215612963578081fd5b823561296e81613564565b946020939093013593505050565b60006020828403121561298d578081fd5b81518015158114612425578182fd5b600060e082840312156129ad578081fd5b6129b760e061350d565b825181526020830151602082015260408301516040820152606083015160608201526080830151608082015260a083015160a082015260c083015160c08201528091505092915050565b6000610120808385031215612a14578182fd5b612a1d8161350d565b835181526020840151602082015260408401516040820152606084015160608201526080840151608082015260a084015160a0820152612a608560c0860161292a565b60c0820152612a728560e0860161292a565b60e08201526101009150612a888583860161292a565b918101919091529392505050565b600060208284031215612aa7578081fd5b5035919050565b600060208284031215612abf578081fd5b5051919050565b600060208284031215612ad7578081fd5b815160ff81168114612425578182fd5b60008251612af9818460208701613534565b9190910192915050565b6001600160a01b0391909116815260200190565b6001600160a01b0392831681529116602082015260400190565b6001600160a01b039384168152919092166020820152604081019190915260600190565b6001600160a01b03929092168252602082015260400190565b6001600160a01b039390931683526020830191909152604082015260600190565b901515815260200190565b60208101600a8310612ba857fe5b91905290565b6000602082528251806020840152612bcd816040850160208701613534565b601f01601f19169190910160400192915050565b6020808252601f908201527f5472616e7366657248656c7065723a205452414e534645525f4641494c454400604082015260600190565b60208082526025908201527f4c6f616e207374617475732063616e6e6f74207265636569766520636f6c6c616040820152641d195c985b60da1b606082015260800190565b60208082526025908201527f4c6f616e20737461747573206e6f742063616c63756c6174696e6720696e7465604082015264726573747360d81b606082015260800190565b6020808252601f908201527f43616c6c6572206973206e6f7420612076616c6964206465706c6f7965722100604082015260600190565b60208082526026908201527f546f6f2073686f727420706572696f64206166746572206c6f616e20616374696040820152653b30ba34b7b760d11b606082015260800190565b60208082526026908201527f4f776e61626c653a206e6577206f776e657220697320746865207a65726f206160408201526564647265737360d01b606082015260800190565b60208082526015908201527414da185c995a1bdb19195c881b9bdd08199bdd5b99605a1b604082015260600190565b6020808252601b908201527f536166654d6174683a206164646974696f6e206f766572666c6f770000000000604082015260600190565b602080825260129082015271496e636f6e677275656e742073746174757360701b604082015260600190565b60208082526010908201526f496e636f72726563742073746174757360801b604082015260600190565b6020808252601c908201527f41646472657373206973206e6f742061207368617265686f6c64657200000000604082015260600190565b6020808252601390820152721059191c995cdcc81b9bdd08185b1b1bddd959606a1b604082015260600190565b60208082526023908201527f4e6f7420656e6f75676820746f6b656e73206f6e206c656e6465722062616c616040820152626e636560e81b606082015260800190565b60208082526019908201527f436865636b2074686520746f6b656e20616c6c6f77616e636500000000000000604082015260600190565b60208082526039908201527f506c6561736520616464206d6f726520636f6c6c61746572616c20696620796f60408201527f752077616e7420746f20736574746c6520746865206c6f616e00000000000000606082015260800190565b60208082526022908201527f4e6f7420656e6f75676820746f6b656e7320696e206c6f616e20636f6e74726160408201526118dd60f21b606082015260800190565b6020808252601190820152702737ba10309039b430b932b437b63232b960791b604082015260600190565b6020808252602f908201527f4c6f616e20737461747573206e6f7420636f6d70617469626c6520776974682060408201526e636c6f73696e6720616374696f6e7360881b606082015260800190565b60208082526033908201527f4c6f616e20737461747573206e6f7420636f6d70617469626c65207769746820604082015272666f7265636c6f73696e6720616374696f6e7360681b606082015260800190565b60208082526021908201527f536166654d6174683a206d756c7469706c69636174696f6e206f766572666c6f6040820152607760f81b606082015260800190565b6020808252601a908201527f43616e63656c2072657175657374206e6f7420616c6c6f776564000000000000604082015260600190565b6020808252818101527f4f776e61626c653a2063616c6c6572206973206e6f7420746865206f776e6572604082015260600190565b602080825260169082015275151bdad95b881d1e5c19481b9bdd0818dbdc9c9958dd60521b604082015260600190565b6020808252602d908201527f4164647265737320726571756972696e6720696e74657265737420776974686460408201526c726177206e6f7420616c6c6f7760981b606082015260800190565b6020808252602c908201527f436865636b2074686520746f6b656e20616c6c6f77616e636520746f2073657460408201526b3a3632903a3432903637b0b760a11b606082015260800190565b602080825260119082015270151bdad95b881b9bdd08185b1b1bddd959607a1b604082015260600190565b60208082526017908201527f43616c6c6572206e6f742074686520626f72726f776572000000000000000000604082015260600190565b60208082526029908201527f5368617265686f6c64657220686173206e6f7420656e6f7567682073686172656040820152681cc81d1bc81cd95b1b60ba1b606082015260800190565b60208082526018908201527f426c6f636b206e756d626572206e6f7420616c6c6f7765640000000000000000604082015260600190565b60208082526034908201527f4163637275656420696e7465726573747320617265206d6f7265207468616e2060408201527374686520636f6e74726163742062616c616e636560601b606082015260800190565b60208082526024908201527f5472616e7366657248656c7065723a205452414e534645525f46524f4d5f46416040820152631253115160e21b606082015260800190565b6020808252601f908201527f5265656e7472616e637947756172643a207265656e7472616e742063616c6c00604082015260600190565b60208082526042908201527f4c6f616e20737461747573206e6f7420636f6d70617469626c6520776974682060408201527f7769746864726177206163637275656420696e7465726573747320616374696f6060820152616e7360f01b608082015260a00190565b60208082526022908201527f4e6f7420656e6f75676820746f6b656e7320696e2073656e6465722077616c6c604082015261195d60f21b606082015260800190565b90815260200190565b918252602082015260400190565b988952602089019790975260408801959095526060870193909352608086019190915260a08501526001600160a01b0390811660c085015290811660e0840152166101008201526101200190565b968752602087019590955260408601939093526060850191909152608084015260a083015260c082015260e00190565b978852602088019690965260408701949094526060860192909252608085015260a084015260ff90811660c08401521660e08201526101000190565b60405181810167ffffffffffffffff8111828210171561352c57600080fd5b604052919050565b60005b8381101561354f578181015183820152602001613537565b8381111561355e576000848401525b50505050565b6001600160a01b038116811461357957600080fd5b5056fea264697066735822122020e9d31136580db9e86d006e6d9f0bcdacc9af2076b139bd8d1b82fd0ea2e4cd64736f6c634300060b00338be0079c531659141344cd1fd0a4f28419497f9722a3daafe3b4186f6b6457e0",
  "immutableReferences": {},
  "source": "// SPDX-License-Identifier: MIT\n\npragma solidity ^0.6.11;\npragma experimental ABIEncoderV2;\n\nimport \"@openzeppelin/contracts/math/SafeMath.sol\";\nimport \"@openzeppelin/contracts/math/Math.sol\";\nimport \"@openzeppelin/contracts/access/Ownable.sol\";\nimport \"@openzeppelin/contracts/token/ERC20/IERC20.sol\";\nimport \"@openzeppelin/contracts/utils/ReentrancyGuard.sol\";\nimport \"./IJLoanCommons.sol\";\nimport \"./IJLoanToken.sol\";\nimport \"./IJFactory.sol\";\nimport \"./TransferHelper.sol\";\n\n\ncontract JLoanToken is Ownable, ReentrancyGuard, IJLoanCommons {\n    using SafeMath for uint;\n\n    address public tokenDeployer;\n    address public feesCollector;\n    \n    address public borrowerAddress;\n\n    IERC20 public cryptoFromBorrower;\n    IERC20 public cryptoFromLender;\n\n    params public loanParams;\n    contractParams public commonParams;\n    Status public loanStatus;\n    feesParams public loanFees;\n\n    uint public loanActiveBlock;\n    uint public loanInitiateForeCloseBlock;\n    uint public loanClosingBlock;\n    uint public loanClosedBlock;\n    uint public lastDepositBlock;\n    uint public lastInterestWithdrawalBlock;\n    uint public stopInterestsBlock;\n\n    struct ShareHolder {\n        address holder;\n        uint shares;\n        uint ownerBlockNumber;\n    }\n\n    mapping(uint => ShareHolder) public shareHolders;\n    mapping(address => bool) public shareHoldersAddress;\n    mapping(address => uint) public shareHoldersPlace;\n    uint public shareHoldersCounter;\n\n    event LoanContractDeployed(uint creationBlock, uint value, address token);\n    event NewDeposit(uint depositAmount, uint status);\n    event TokenReceived(address sender, uint value);\n    event TokenWithdraw(uint blockNumber);\n    event LenderAccepted(address indexed lenderAddress, uint factoryFees, uint loanActiveBlock);\n    event InitiateForeClosure(address indexed sender, uint blockNumber);\n    event LoanAtRiskFromForeclosing(address indexed sender, uint blockNumber);\n    event LoanForeclosed(address indexed sender, uint blockNumber);\n    event LoanForeclosing(address indexed sender, uint blockNumber);\n    event LoanCancelled(address indexed sender, uint indexed loanId, uint blockNumber);\n    event NewLoanStatus(uint loanStatus);\n    event NewShareHolder(address indexed sharesSeller, address indexed newShareholder, uint indexed amount, uint blockNumber);\n    event AddShareHolderShares(address indexed sharesSeller, address indexed sharesBuyer, uint indexed amount, uint blockNumber);\n\n    //// Status = 0\n    constructor(address _sender,\n                uint _id, \n                uint _pairId, \n                uint _borrowedAskAmount, // as many decimals as the price is expressed\n                uint _rpbRate, \n                address _factoryAddress,\n                address _collToken,\n                address _lendToken,\n                address _tokenFeesCollector) public {\n        require(msg.sender!=address(0), \"Sender address not allowed\");\n        tokenDeployer = msg.sender;\n        require(_sender!=address(0), \"Sender address not allowed\");\n        borrowerAddress = _sender;\n        cryptoFromBorrower = IERC20(_collToken); //i.e. JNT\n        cryptoFromLender = IERC20(_lendToken); //i.e. USDC\n        feesCollector = _tokenFeesCollector;\n        loanParams = IJFactory(_factoryAddress).getGeneralParams();\n        loanFees = IJFactory(_factoryAddress).getGeneralFees();\n        require(_rpbRate >= loanParams.minRpbRate, \"Interest too low!\");\n        commonParams.loanId = _id;\n        commonParams.rpbRate = _rpbRate;\n        commonParams.pairId = _pairId;\n        commonParams.borrowedAskAmount = _borrowedAskAmount;\n        commonParams.collDecimals = IJFactory(_factoryAddress).getPairBaseDecimals(_pairId); //collateral token decimals\n        commonParams.lendDecimals = IJFactory(_factoryAddress).getPairQuoteDecimals(_pairId); //lend token decimals\n        commonParams.initialCollateralRatio = getActualCollateralRatio();\n        commonParams.creationBlock = block.number;\n        loanStatus = Status.pending;\n        //Transfer ownership to facory address\n        transferOwnership(loanParams.factoryAddress);\n        emit LoanContractDeployed(commonParams.creationBlock, commonParams.borrowedAskAmount, _collToken);\n    }\n\n    modifier onlyTokenDeployer() {\n        require(msg.sender == tokenDeployer, \"Caller is not a valid deployer!\");\n        _;\n    }\n\n    //// Other functions\n    /**\n    * @dev set common parameters in loan contract, reading them from factory\n    */\n    function setNewCommonParams() external onlyTokenDeployer {\n        loanParams = IJFactory(loanParams.factoryAddress).getGeneralParams();\n    }\n\n    /**\n    * @dev set common parameters in loan contract, reading them from factory\n    */\n    function setNewFeesParams() external onlyTokenDeployer {\n        loanFees = IJFactory(loanParams.factoryAddress).getGeneralFees();\n    }\n\n    /**\n    * @dev deposit collateral tokens\n    * @param _tok ERC20 address\n    * @param _tokAmount token amount\n    */\n    function depositCollateral(address _tok, uint _tokAmount) public {\n        require(loanStatus >= Status.active && loanStatus <= Status.foreClosing, \"Loan status cannot receive collateral\");\n        require ( address(cryptoFromBorrower) == address(_tok), \"Token type not correct\" );\n        require(cryptoFromBorrower.balanceOf(msg.sender) >= _tokAmount, \"Not enough tokens in sender wallet\");\n        uint256 allowance = cryptoFromBorrower.allowance(msg.sender, address(this));\n        require(allowance >= _tokAmount, \"Check the token allowance\");\n        TransferHelper.safeTransferFrom(_tok, msg.sender, address(this), _tokAmount);\n        uint status = setLoanStatusOnCollRatio();\n        lastDepositBlock = block.number;\n        emit NewDeposit(_tokAmount, status);\n    }\n\n    /**\n    * @dev withdraw ethers from contract, every shareholder with his percentage\n    * in closing, in cancelled, in foreclosed\n    */\n    function withdrawTokens() public nonReentrant {\n        require(loanStatus >= Status.closing, \"Loan status not compatible with foreclosing actions\" );\n        require(isShareHolder(msg.sender), \"Address requiring interest withdraw not allow\"); \n        //require(block.number > loanActiveBlock + loanParams.earlySettlementWindow, \"Too short period after loan activation\");\n        for (uint8 i = 1; i <= shareHoldersCounter; i++) {\n            address shAddress = shareHolders[i].holder;\n            uint shPlace = getShareHolderPlace(shAddress);\n            uint shShares = shareHolders[shPlace].shares;\n            uint tokAmount = cryptoFromBorrower.balanceOf(address(this)).mul(shShares).div(100);\n            shareHolders[shPlace].shares = 0;\n            TransferHelper.safeTransfer(address(cryptoFromBorrower), shAddress, tokAmount);\n        }\n        emit TokenWithdraw(block.number);\n    }\n\n    /**\n    * @dev get contract balance\n    * @return balance\n    */\n    function getContractBalance() public view returns (uint) {\n        return IERC20(cryptoFromBorrower).balanceOf(address(this));\n    }\n\n    /**\n    * @dev get contract status\n    * @return status\n    */\n    function getLoanStatus() external view returns (uint) {\n        return uint(loanStatus);\n    }\n\n    /**\n    * @dev get pair price\n    * @return price\n    */\n    function getPairPrice() public view returns (uint) {\n        return IJFactory(loanParams.factoryAddress).getPairValue(commonParams.pairId);\n    }\n\n    /**\n    * @dev get pair decimals\n    * @return number of decimals\n    */\n    function getPairDecimals() public view returns (uint){\n        return IJFactory(loanParams.factoryAddress).getPairDecimals(commonParams.pairId);\n    }\n\n    /**\n    * @dev check if loan is in early settlement period\n    * @return boolean\n    */\n    function checkEarlySettledLoan() public view returns (bool) {\n        return loanStatus == Status.earlyClosing;\n    }\n\n\n    //// Status 0 -> 1\n    /**\n    * @dev lender sends required stable coins to borrower and set the initial lender as a stakeholder (100%)\n    * @param _stableAddr, address of the stabl coin address\n    */\n    function lenderSendStableCoins(address _stableAddr) external nonReentrant {\n        require(msg.sender != address(0), \"Address not allowed\");\n        require(_stableAddr == address(cryptoFromLender), \"Token not allowed\");\n        require(cryptoFromLender.balanceOf(msg.sender) >= commonParams.borrowedAskAmount, \"Not enough tokens on lender balance\");\n        require(loanStatus == Status.pending, \"Incorrect status\");\n        uint askAmount = commonParams.borrowedAskAmount;\n        uint256 allowance = IERC20(_stableAddr).allowance(msg.sender, address(this));\n        require(allowance >= askAmount, \"Check the token allowance\");\n        loanActiveBlock = block.number;\n        loanStatus = Status.active;\n        shareHoldersCounter = 1;\n        shareHolders[shareHoldersCounter] = ShareHolder({holder: msg.sender, shares: 100, ownerBlockNumber: loanActiveBlock});\n        shareHoldersAddress[msg.sender] = true;\n        shareHoldersPlace[msg.sender] = shareHoldersCounter;\n        lastInterestWithdrawalBlock = block.number;\n        TransferHelper.safeTransferFrom(_stableAddr, msg.sender, borrowerAddress, askAmount);\n        // move factory fees only when loan becomes active\n        uint contractCollateralAmount = IJFactory(loanParams.factoryAddress).calcMinCollateralAmount(commonParams.pairId, commonParams.borrowedAskAmount);\n        uint feesCollateralAmount = IJFactory(loanParams.factoryAddress).calculateCollFeesOnActivation(contractCollateralAmount);\n        TransferHelper.safeTransfer(address(cryptoFromBorrower), feesCollector, feesCollateralAmount);\n        emit LenderAccepted(msg.sender, feesCollateralAmount, loanActiveBlock);\n    }\n\n    //// Status 4 or 5, starting from 2 or 3, depending on collateral ratio\n    /**\n    * @dev set the loan in foreclosure state for undercollateralized loans (tbd: reward for caller)\n    */\n    function initiateLoanForeClose() external {\n        uint status = setLoanStatusOnCollRatio();\n        require(status == 2 || status == 3, \"Loan status not compatible with foreclosing actions\");\n        uint reward;\n        if (status == 2) {\n            reward = (loanFees.undercollateralizedForeclosingMultiple).mul(commonParams.rpbRate);\n            setLoanForeclosing();\n        } else {\n            reward = (loanFees.atRiskForeclosedMultiple).mul(commonParams.rpbRate);\n            setLoanForeclosed();\n        }\n        require(cryptoFromBorrower.balanceOf(address(this)) >= reward, \"Not enough tokens in loan contract\");\n        TransferHelper.safeTransfer(address(cryptoFromBorrower), msg.sender, reward.mul(loanFees.userRewardShare).div(100));\n        TransferHelper.safeTransfer(address(cryptoFromBorrower), msg.sender, reward.mul(loanFees.vaultShare).div(100));\n        loanInitiateForeCloseBlock = block.number;\n        emit InitiateForeClosure(msg.sender, loanInitiateForeCloseBlock);\n    }\n\n    //// Status 2 -> 4\n    /**\n    * @dev set the loan in foreclosure state for undercollateralized loans (tbd: reward for caller)\n    */\n    function setLoanForeclosing() internal {\n        require(uint(loanStatus) == 2, \"Loan status not compatible with foreclosing actions\");\n        loanStatus = Status.foreClosing;\n        emit LoanForeclosing(msg.sender, block.number);\n    }\n\n    //// Status 2 -> 5\n    /**\n    * @dev set the loan in foreclosure state for undercollateralized loans (tbd: reward for caller)\n    */\n    function setLoanForeclosed() internal {\n        require(uint(loanStatus) == 3, \"Loan status not compatible with foreclosing actions\");\n\n        loanStatus = Status.foreClosed;\n        emit LoanForeclosed(msg.sender, block.number);\n    }\n\n    //// Status = 6\n    function loanEarlyClosing() internal returns (uint) {\n        require(block.number < loanActiveBlock + loanParams.earlySettlementWindow, \"Incongruent status\");\n        loanStatus = Status.earlyClosing;\n        uint balanceRequested = (loanParams.earlySettlementWindow).mul(commonParams.rpbRate);\n        return balanceRequested;\n    }\n\n    //// Status = 7\n    /**\n    * @dev set the loan in normal closing state \n    */\n    function loanClosing() external nonReentrant {\n        require(msg.sender == borrowerAddress, \"Caller not the borrower\");\n        require(uint(loanStatus) > 0 && uint(loanStatus) <= 3, \"Loan status not compatible with closing actions\");\n        // check that borrower gives back the loaned stable coin amount and transfer collateral to borrower\n        uint256 allowance = cryptoFromLender.allowance(msg.sender, address(this));\n        require(allowance >= commonParams.borrowedAskAmount, \"Check the token allowance to settle the loan\");\n        uint balanceRequested;\n        if (block.number < loanActiveBlock + loanParams.earlySettlementWindow)\n            balanceRequested = loanEarlyClosing();\n        else\n            balanceRequested = getAccruedInterests();\n        uint feesAmount = 0;\n        if (loanStatus == Status.earlyClosing)\n            feesAmount = (loanFees.earlySettlementFee).mul(commonParams.rpbRate);\n        uint requestedAmount = balanceRequested.add(feesAmount);\n        require(cryptoFromBorrower.balanceOf(address(this)) >= requestedAmount, \"Please add more collateral if you want to settle the loan\"); \n        TransferHelper.safeTransferFrom(address(cryptoFromLender), msg.sender, address(this), commonParams.borrowedAskAmount);\n        TransferHelper.safeTransfer(address(cryptoFromBorrower), feesCollector, feesAmount);\n        uint withdrawalBalance = (cryptoFromBorrower.balanceOf(address(this))).sub(requestedAmount);\n        TransferHelper.safeTransfer(address(cryptoFromBorrower), msg.sender, withdrawalBalance);\n        loanClosingBlock = block.number;\n        loanStatus = Status.closing;\n    }\n\n    //// Status = 8\n    /**\n    * @dev set the loan in closed state, let Shareholders to withdraw the stable coins back\n    */\n    function loanClosed() external {\n        require(isShareHolder(msg.sender), \"Not a shareholder\");\n        //uint status = setLoanStatusOnCollRatio();\n        require(uint(loanStatus) >= 6, \"Loan status not compatible with foreclosing actions\");\n        for (uint8 i = 1; i <= shareHoldersCounter; i++) {\n            uint shPlace = getShareHolderPlace(shareHolders[i].holder);\n            uint shShares = shareHolders[shPlace].shares;\n            shareHolders[shPlace].shares = 0;\n            shareHoldersAddress[shareHolders[i].holder] = false;\n            (msg.sender).transfer(address(this).balance.mul(shShares).div(100));\n            TransferHelper.safeTransfer(address(cryptoFromLender), msg.sender, (getContractBalance()).mul(shareHolders[shareHoldersPlace[msg.sender]].shares).div(100));\n        }\n        loanClosedBlock = block.number;\n        loanStatus = Status.closed;\n    }\n\n    //// Status = 9\n    /**\n    * @dev set the loan in cancelled state (only if pending)\n    */\n    function setLoanCancelled() external {\n        require(msg.sender == borrowerAddress, \"Cancel request not allowed\");\n        require(uint(loanStatus) == 0, \"Loan status not compatible with foreclosing actions\");\n        uint feeCalc = (cryptoFromLender.balanceOf(address(this))).mul(loanFees.cancellationFees).div(100);\n        uint withdrawalBalance = (cryptoFromLender.balanceOf(address(this))).sub(feeCalc);\n        TransferHelper.safeTransfer(address(cryptoFromLender), feesCollector, feeCalc);\n        TransferHelper.safeTransfer(address(cryptoFromLender), msg.sender, withdrawalBalance);\n        loanStatus = Status.cancelled;\n        emit LoanCancelled(msg.sender, commonParams.loanId, block.number);\n    }\n\n    /**\n    * @dev get the collateral ratio of the loan (subtracting the accrued interests)\n    * @return newCollRatio collateral ratio\n    */\n    function getActualCollateralRatio() public view returns (uint newCollRatio) {\n        //require(uint(loanStatus) >= 1, \"Loan status not allowed\");\n        uint newPrice = getPairPrice();\n        uint pairDecimals = getPairDecimals();\n        uint borrAmnt = commonParams.borrowedAskAmount;\n        uint loanBalance;\n        if (loanStatus == Status.pending)\n            loanBalance = cryptoFromBorrower.balanceOf(address(this));\n        else\n            loanBalance = (cryptoFromBorrower.balanceOf(address(this))).sub(getAccruedInterests());\n        if (commonParams.collDecimals >= commonParams.lendDecimals) {\n            uint diffBaseQuoteDecimals = uint(commonParams.collDecimals).sub(uint(commonParams.lendDecimals));\n            newCollRatio = loanBalance.mul(newPrice).div(borrAmnt).mul(100).div(10 ** pairDecimals).div(10 ** diffBaseQuoteDecimals);\n        } else {\n            uint diffBaseQuoteDecimals = uint(commonParams.lendDecimals).sub(uint(commonParams.collDecimals));\n            newCollRatio = loanBalance.mul(newPrice).div(borrAmnt).mul(100).div(10 ** pairDecimals).mul(10 ** diffBaseQuoteDecimals);\n        }\n        return newCollRatio;\n    }\n\n    /**\n    * @dev set the status of the loan based on collateral ratio\n    * @return loan status\n    */\n    function setLoanStatusOnCollRatio() public returns (uint){\n        if (uint(loanStatus) > 0 && uint(loanStatus) < 5) {     //Loan not active or foreclosed or in closing status or closed\n            uint newCollRatio = getActualCollateralRatio(); // it leaves only 3 significant digits (i.e. 180 means 180%)\n            if ( newCollRatio >= loanParams.foreclosingRatio )\n                loanStatus = Status(1);\n            else if ( newCollRatio <= loanParams.foreclosingRatio && newCollRatio >= loanParams.instantForeclosureRatio )\n                loanStatus = Status(2);\n            else \n                loanStatus = Status(3);\n        }\n        // else no change on status\n        emit NewLoanStatus(uint(loanStatus));\n        return uint(loanStatus);\n    }\n\n    //// Calculating interests functions\n    /**\n    * @dev calculate accrued interests of the contract\n    * @return accrued interests\n    */\n    function calculatingAccruedInterests(uint _calcBlk) public view returns (uint) {\n        require(_calcBlk >= lastInterestWithdrawalBlock, \"Block number not allowed\");\n        return _calcBlk.sub(lastInterestWithdrawalBlock).mul(commonParams.rpbRate);  \n    }\n\n    /**\n    * @dev get accrued interests of the contract\n    * @return accruedInterests total accrued interests\n    */\n    function getAccruedInterests() public view returns (uint accruedInterests) {\n        require(uint(loanStatus) > 0 && uint(loanStatus) < 9, \"Loan status not calculating interests\");\n        //require(isShareHolder(msg.sender), \"Caller not allowed\");\n        uint lastEarlyBlock = loanActiveBlock.add(loanParams.earlySettlementWindow);\n        if (loanStatus == Status.earlyClosing && block.number >= lastEarlyBlock) {\n            accruedInterests = calculatingAccruedInterests(lastEarlyBlock);\n        } else {\n            if (loanClosedBlock != 0)\n                accruedInterests = calculatingAccruedInterests(Math.min(loanClosedBlock, block.number));\n            else\n                accruedInterests = calculatingAccruedInterests(block.number);\n        }\n        if ( accruedInterests > cryptoFromBorrower.balanceOf(address(this)) )\n            accruedInterests = cryptoFromBorrower.balanceOf(address(this));\n        return accruedInterests;\n    }\n\n    /**\n    * @dev withdraw accreud interests for all shareholders and set the status after interests withdrawal\n    * @return new status\n    */\n    function withdrawInterests() public nonReentrant returns (uint) {\n        // interests of all shareholders must be withdrawn with their shares amount\n        require(uint(loanStatus) > 0 && uint(loanStatus) < 9, \"Loan status not compatible with withdraw accrued interests actions\" );\n        //require(block.number > loanActiveBlock + loanParams.earlySettlementWindow, \"Too short period after loan activation\");\n        for (uint8 i = 1; i <= shareHoldersCounter; i++) {\n             shareholderWithdrawInterests(shareHolders[i].holder);\n        }\n        lastInterestWithdrawalBlock = block.number;\n        uint status = setLoanStatusOnCollRatio();\n        return status;\n    }\n\n    /**\n    * @dev withdraw accreud interests and set the status after interests withdrawal\n    * @param _shareHolder shareholder address\n    */\n    function shareholderWithdrawInterests(address _shareHolder) internal nonReentrant returns (uint) {\n        require(isShareHolder(_shareHolder), \"Address is not a shareholder\"); \n        uint shPlace = getShareHolderPlace(_shareHolder);\n        uint shShares = shareHolders[shPlace].shares;\n        uint accruedTotalInterests = getAccruedInterests();\n        require(accruedTotalInterests < getContractBalance(), \"Accrued interests are more than the contract balance\");\n        TransferHelper.safeTransfer(address(cryptoFromBorrower), _shareHolder, accruedTotalInterests.mul(shShares).div(100));\n    }\n\n    //// Shareholders functions\n    /**\n    * @dev check if an address is a shareholder\n    * @return boolean\n    */\n    function isShareHolder(address _holder) public view returns (bool) {\n        return shareHoldersAddress[_holder];\n    }\n\n    /**\n    * @dev get a shareholder place in shareholders array\n    * @return boolean\n    */\n    function getShareHolderPlace(address _holder) public view returns (uint) {\n        return shareHoldersPlace[_holder];\n    }\n\n    /**\n    * @dev add shareholder in shareholders arrays\n    * @param _newShareholder buyer address\n    * @param _amount amount of shares\n    * @return new status\n    */\n    function addLoanShareHolders(address _newShareholder, uint _amount) public nonReentrant returns (uint) {\n        require(isShareHolder(msg.sender), \"Address is not a shareholder\");\n        uint shPlace = getShareHolderPlace(msg.sender);\n        require(shPlace > 0, \"Shareholder not found\");\n        require(shareHolders[shPlace].shares >= _amount, \"Shareholder has not enough shares to sell\");\n        //before shares could be selled, interests of all shareholders must be withdrawn with old shares amount, in order to start with a new situation\n        require(block.number > loanActiveBlock + loanParams.earlySettlementWindow, \"Too short period after loan activation\");\n        for (uint8 i = 1; i <= shareHoldersCounter; i++) {\n            shareholderWithdrawInterests(shareHolders[i].holder);\n        }\n\n        shareHolders[shPlace].shares = shareHolders[shPlace].shares.sub(_amount);\n        if(!isShareHolder(_newShareholder)) {\n            shareHoldersCounter = shareHoldersCounter.add(1);\n            shareHolders[shareHoldersCounter] = ShareHolder({holder: _newShareholder, shares: _amount, ownerBlockNumber: block.number});\n            shareHoldersAddress[_newShareholder] = true;\n            shareHoldersPlace[_newShareholder] = shareHoldersCounter;\n            emit NewShareHolder(msg.sender, _newShareholder, _amount, block.number);\n        } else {\n            uint shPlaceNew = getShareHolderPlace(_newShareholder);\n            shareHolders[shPlaceNew].shares = shareHolders[shPlaceNew].shares.add(_amount);\n            shareHolders[shPlaceNew].ownerBlockNumber = block.number;\n            emit AddShareHolderShares(msg.sender, _newShareholder, _amount, block.number);\n        }  \n\n        lastInterestWithdrawalBlock = block.number;\n        uint status = setLoanStatusOnCollRatio();\n        return status;\n    }\n\n}",
  "sourcePath": "C:\\Users\\saurabh\\code\\Jibrel\\defi-smartcontracts\\LoansFactoryV2\\contracts\\JLoanToken.sol",
  "compiler": {
    "name": "solc",
    "version": "0.6.11+commit.5ef660b1.Emscripten.clang"
  },
  "schemaVersion": "3.2.5",
  "updatedAt": "2020-10-07T06:42:49.090Z",
  "devdoc": {
    "kind": "dev",
    "methods": {
      "addLoanShareHolders(address,uint256)": {
        "details": "add shareholder in shareholders arrays",
        "params": {
          "_amount": "amount of shares",
          "_newShareholder": "buyer address"
        },
        "returns": {
          "_0": "new status"
        }
      },
      "calculatingAccruedInterests(uint256)": {
        "details": "calculate accrued interests of the contract",
        "returns": {
          "_0": "accrued interests"
        }
      },
      "checkEarlySettledLoan()": {
        "details": "check if loan is in early settlement period",
        "returns": {
          "_0": "boolean"
        }
      },
      "depositCollateral(address,uint256)": {
        "details": "deposit collateral tokens",
        "params": {
          "_tok": "ERC20 address",
          "_tokAmount": "token amount"
        }
      },
      "getAccruedInterests()": {
        "details": "get accrued interests of the contract",
        "returns": {
          "accruedInterests": "total accrued interests"
        }
      },
      "getActualCollateralRatio()": {
        "details": "get the collateral ratio of the loan (subtracting the accrued interests)",
        "returns": {
          "newCollRatio": "collateral ratio"
        }
      },
      "getContractBalance()": {
        "details": "get contract balance",
        "returns": {
          "_0": "balance"
        }
      },
      "getLoanStatus()": {
        "details": "get contract status",
        "returns": {
          "_0": "status"
        }
      },
      "getPairDecimals()": {
        "details": "get pair decimals",
        "returns": {
          "_0": "number of decimals"
        }
      },
      "getPairPrice()": {
        "details": "get pair price",
        "returns": {
          "_0": "price"
        }
      },
      "getShareHolderPlace(address)": {
        "details": "get a shareholder place in shareholders array",
        "returns": {
          "_0": "boolean"
        }
      },
      "initiateLoanForeClose()": {
        "details": "set the loan in foreclosure state for undercollateralized loans (tbd: reward for caller)"
      },
      "isShareHolder(address)": {
        "details": "check if an address is a shareholder",
        "returns": {
          "_0": "boolean"
        }
      },
      "lenderSendStableCoins(address)": {
        "details": "lender sends required stable coins to borrower and set the initial lender as a stakeholder (100%)",
        "params": {
          "_stableAddr": ", address of the stabl coin address"
        }
      },
      "loanClosed()": {
        "details": "set the loan in closed state, let Shareholders to withdraw the stable coins back"
      },
      "loanClosing()": {
        "details": "set the loan in normal closing state "
      },
      "owner()": {
        "details": "Returns the address of the current owner."
      },
      "renounceOwnership()": {
        "details": "Leaves the contract without owner. It will not be possible to call `onlyOwner` functions anymore. Can only be called by the current owner. NOTE: Renouncing ownership will leave the contract without an owner, thereby removing any functionality that is only available to the owner."
      },
      "setLoanCancelled()": {
        "details": "set the loan in cancelled state (only if pending)"
      },
      "setLoanStatusOnCollRatio()": {
        "details": "set the status of the loan based on collateral ratio",
        "returns": {
          "_0": "loan status"
        }
      },
      "setNewCommonParams()": {
        "details": "set common parameters in loan contract, reading them from factory"
      },
      "setNewFeesParams()": {
        "details": "set common parameters in loan contract, reading them from factory"
      },
      "transferOwnership(address)": {
        "details": "Transfers ownership of the contract to a new account (`newOwner`). Can only be called by the current owner."
      },
      "withdrawInterests()": {
        "details": "withdraw accreud interests for all shareholders and set the status after interests withdrawal",
        "returns": {
          "_0": "new status"
        }
      },
      "withdrawTokens()": {
        "details": "withdraw ethers from contract, every shareholder with his percentage in closing, in cancelled, in foreclosed"
      }
    },
    "version": 1
  },
  "userdoc": {
    "kind": "user",
    "methods": {},
    "version": 1
  }
}