{
  "contractName": "JLoanToken",
  "abi": [
    {
      "inputs": [
        {
          "internalType": "address",
          "name": "_sender",
          "type": "address"
        },
        {
          "internalType": "uint256",
          "name": "_id",
          "type": "uint256"
        },
        {
          "internalType": "uint256",
          "name": "_pairId",
          "type": "uint256"
        },
        {
          "internalType": "uint256",
          "name": "_borrowedAskAmount",
          "type": "uint256"
        },
        {
          "internalType": "uint256",
          "name": "_rpbRate",
          "type": "uint256"
        },
        {
          "internalType": "address",
          "name": "_factoryAddress",
          "type": "address"
        },
        {
          "internalType": "address",
          "name": "_collToken",
          "type": "address"
        },
        {
          "internalType": "address",
          "name": "_lendToken",
          "type": "address"
        },
        {
          "internalType": "address",
          "name": "_tokenFeesCollector",
          "type": "address"
        }
      ],
      "stateMutability": "nonpayable",
      "type": "constructor"
    },
    {
      "anonymous": false,
      "inputs": [
        {
          "indexed": true,
          "internalType": "address",
          "name": "sharesSeller",
          "type": "address"
        },
        {
          "indexed": true,
          "internalType": "address",
          "name": "sharesBuyer",
          "type": "address"
        },
        {
          "indexed": true,
          "internalType": "uint256",
          "name": "amount",
          "type": "uint256"
        },
        {
          "indexed": false,
          "internalType": "uint256",
          "name": "blockNumber",
          "type": "uint256"
        }
      ],
      "name": "AddShareHolderShares",
      "type": "event"
    },
    {
      "anonymous": false,
      "inputs": [
        {
          "indexed": true,
          "internalType": "address",
          "name": "sender",
          "type": "address"
        },
        {
          "indexed": false,
          "internalType": "uint256",
          "name": "blockNumber",
          "type": "uint256"
        }
      ],
      "name": "InitiateForeClosure",
      "type": "event"
    },
    {
      "anonymous": false,
      "inputs": [
        {
          "indexed": true,
          "internalType": "address",
          "name": "lenderAddress",
          "type": "address"
        },
        {
          "indexed": false,
          "internalType": "uint256",
          "name": "factoryFees",
          "type": "uint256"
        },
        {
          "indexed": false,
          "internalType": "uint256",
          "name": "loanActiveBlock",
          "type": "uint256"
        }
      ],
      "name": "LenderAccepted",
      "type": "event"
    },
    {
      "anonymous": false,
      "inputs": [
        {
          "indexed": true,
          "internalType": "address",
          "name": "sender",
          "type": "address"
        },
        {
          "indexed": false,
          "internalType": "uint256",
          "name": "blockNumber",
          "type": "uint256"
        }
      ],
      "name": "LoanAtRiskFromForeclosing",
      "type": "event"
    },
    {
      "anonymous": false,
      "inputs": [
        {
          "indexed": true,
          "internalType": "address",
          "name": "sender",
          "type": "address"
        },
        {
          "indexed": true,
          "internalType": "uint256",
          "name": "loanId",
          "type": "uint256"
        },
        {
          "indexed": false,
          "internalType": "uint256",
          "name": "blockNumber",
          "type": "uint256"
        }
      ],
      "name": "LoanCancelled",
      "type": "event"
    },
    {
      "anonymous": false,
      "inputs": [
        {
          "indexed": false,
          "internalType": "uint256",
          "name": "blockNumber",
          "type": "uint256"
        }
      ],
      "name": "LoanClosingByBorrower",
      "type": "event"
    },
    {
      "anonymous": false,
      "inputs": [
        {
          "indexed": false,
          "internalType": "uint256",
          "name": "creationBlock",
          "type": "uint256"
        },
        {
          "indexed": false,
          "internalType": "uint256",
          "name": "value",
          "type": "uint256"
        },
        {
          "indexed": false,
          "internalType": "address",
          "name": "token",
          "type": "address"
        }
      ],
      "name": "LoanContractDeployed",
      "type": "event"
    },
    {
      "anonymous": false,
      "inputs": [
        {
          "indexed": true,
          "internalType": "address",
          "name": "sender",
          "type": "address"
        },
        {
          "indexed": false,
          "internalType": "uint256",
          "name": "blockNumber",
          "type": "uint256"
        }
      ],
      "name": "LoanForeclosed",
      "type": "event"
    },
    {
      "anonymous": false,
      "inputs": [
        {
          "indexed": true,
          "internalType": "address",
          "name": "sender",
          "type": "address"
        },
        {
          "indexed": false,
          "internalType": "uint256",
          "name": "blockNumber",
          "type": "uint256"
        }
      ],
      "name": "LoanForeclosing",
      "type": "event"
    },
    {
      "anonymous": false,
      "inputs": [
        {
          "indexed": false,
          "internalType": "uint256",
          "name": "depositAmount",
          "type": "uint256"
        },
        {
          "indexed": false,
          "internalType": "uint256",
          "name": "status",
          "type": "uint256"
        }
      ],
      "name": "NewDeposit",
      "type": "event"
    },
    {
      "anonymous": false,
      "inputs": [
        {
          "indexed": false,
          "internalType": "uint256",
          "name": "loanStatus",
          "type": "uint256"
        }
      ],
      "name": "NewLoanStatus",
      "type": "event"
    },
    {
      "anonymous": false,
      "inputs": [
        {
          "indexed": true,
          "internalType": "address",
          "name": "sharesSeller",
          "type": "address"
        },
        {
          "indexed": true,
          "internalType": "address",
          "name": "newShareholder",
          "type": "address"
        },
        {
          "indexed": true,
          "internalType": "uint256",
          "name": "amount",
          "type": "uint256"
        },
        {
          "indexed": false,
          "internalType": "uint256",
          "name": "blockNumber",
          "type": "uint256"
        }
      ],
      "name": "NewShareHolder",
      "type": "event"
    },
    {
      "anonymous": false,
      "inputs": [
        {
          "indexed": true,
          "internalType": "address",
          "name": "previousOwner",
          "type": "address"
        },
        {
          "indexed": true,
          "internalType": "address",
          "name": "newOwner",
          "type": "address"
        }
      ],
      "name": "OwnershipTransferred",
      "type": "event"
    },
    {
      "anonymous": false,
      "inputs": [
        {
          "indexed": false,
          "internalType": "address",
          "name": "sender",
          "type": "address"
        },
        {
          "indexed": false,
          "internalType": "uint256",
          "name": "value",
          "type": "uint256"
        }
      ],
      "name": "TokenReceived",
      "type": "event"
    },
    {
      "anonymous": false,
      "inputs": [
        {
          "indexed": false,
          "internalType": "uint256",
          "name": "blockNumber",
          "type": "uint256"
        }
      ],
      "name": "TokenWithdraw",
      "type": "event"
    },
    {
      "inputs": [],
      "name": "borrowerAddress",
      "outputs": [
        {
          "internalType": "address",
          "name": "",
          "type": "address"
        }
      ],
      "stateMutability": "view",
      "type": "function"
    },
    {
      "inputs": [],
      "name": "collateralToken",
      "outputs": [
        {
          "internalType": "contract IERC20",
          "name": "",
          "type": "address"
        }
      ],
      "stateMutability": "view",
      "type": "function"
    },
    {
      "inputs": [],
      "name": "commonParams",
      "outputs": [
        {
          "internalType": "uint256",
          "name": "loanId",
          "type": "uint256"
        },
        {
          "internalType": "uint256",
          "name": "rpbRate",
          "type": "uint256"
        },
        {
          "internalType": "uint256",
          "name": "initialCollateralRatio",
          "type": "uint256"
        },
        {
          "internalType": "uint256",
          "name": "creationBlock",
          "type": "uint256"
        },
        {
          "internalType": "uint256",
          "name": "pairId",
          "type": "uint256"
        },
        {
          "internalType": "uint256",
          "name": "borrowedAskAmount",
          "type": "uint256"
        },
        {
          "internalType": "uint8",
          "name": "collDecimals",
          "type": "uint8"
        },
        {
          "internalType": "uint8",
          "name": "lendDecimals",
          "type": "uint8"
        }
      ],
      "stateMutability": "view",
      "type": "function"
    },
    {
      "inputs": [],
      "name": "feesCollector",
      "outputs": [
        {
          "internalType": "address",
          "name": "",
          "type": "address"
        }
      ],
      "stateMutability": "view",
      "type": "function"
    },
    {
      "inputs": [],
      "name": "lastDepositBlock",
      "outputs": [
        {
          "internalType": "uint256",
          "name": "",
          "type": "uint256"
        }
      ],
      "stateMutability": "view",
      "type": "function"
    },
    {
      "inputs": [],
      "name": "lastInterestWithdrawalBlock",
      "outputs": [
        {
          "internalType": "uint256",
          "name": "",
          "type": "uint256"
        }
      ],
      "stateMutability": "view",
      "type": "function"
    },
    {
      "inputs": [],
      "name": "lentToken",
      "outputs": [
        {
          "internalType": "contract IERC20",
          "name": "",
          "type": "address"
        }
      ],
      "stateMutability": "view",
      "type": "function"
    },
    {
      "inputs": [],
      "name": "loanActiveBlock",
      "outputs": [
        {
          "internalType": "uint256",
          "name": "",
          "type": "uint256"
        }
      ],
      "stateMutability": "view",
      "type": "function"
    },
    {
      "inputs": [],
      "name": "loanClosedBlock",
      "outputs": [
        {
          "internalType": "uint256",
          "name": "",
          "type": "uint256"
        }
      ],
      "stateMutability": "view",
      "type": "function"
    },
    {
      "inputs": [],
      "name": "loanClosingBlock",
      "outputs": [
        {
          "internalType": "uint256",
          "name": "",
          "type": "uint256"
        }
      ],
      "stateMutability": "view",
      "type": "function"
    },
    {
      "inputs": [],
      "name": "loanFees",
      "outputs": [
        {
          "internalType": "uint256",
          "name": "factoryFees",
          "type": "uint256"
        },
        {
          "internalType": "uint256",
          "name": "earlySettlementFee",
          "type": "uint256"
        },
        {
          "internalType": "uint256",
          "name": "userRewardShare",
          "type": "uint256"
        },
        {
          "internalType": "uint256",
          "name": "vaultShare",
          "type": "uint256"
        },
        {
          "internalType": "uint256",
          "name": "undercollateralizedForeclosingMultiple",
          "type": "uint256"
        },
        {
          "internalType": "uint256",
          "name": "atRiskForeclosedMultiple",
          "type": "uint256"
        },
        {
          "internalType": "uint256",
          "name": "cancellationFees",
          "type": "uint256"
        }
      ],
      "stateMutability": "view",
      "type": "function"
    },
    {
      "inputs": [],
      "name": "loanForeclosedBlock",
      "outputs": [
        {
          "internalType": "uint256",
          "name": "",
          "type": "uint256"
        }
      ],
      "stateMutability": "view",
      "type": "function"
    },
    {
      "inputs": [],
      "name": "loanForeclosingBlock",
      "outputs": [
        {
          "internalType": "uint256",
          "name": "",
          "type": "uint256"
        }
      ],
      "stateMutability": "view",
      "type": "function"
    },
    {
      "inputs": [],
      "name": "loanInitiateForeCloseBlock",
      "outputs": [
        {
          "internalType": "uint256",
          "name": "",
          "type": "uint256"
        }
      ],
      "stateMutability": "view",
      "type": "function"
    },
    {
      "inputs": [],
      "name": "loanParams",
      "outputs": [
        {
          "internalType": "uint256",
          "name": "minRpbRate",
          "type": "uint256"
        },
        {
          "internalType": "uint256",
          "name": "earlySettlementWindow",
          "type": "uint256"
        },
        {
          "internalType": "uint256",
          "name": "foreclosureWindow",
          "type": "uint256"
        },
        {
          "internalType": "uint256",
          "name": "requiredCollateralRatio",
          "type": "uint256"
        },
        {
          "internalType": "uint256",
          "name": "foreclosingRatio",
          "type": "uint256"
        },
        {
          "internalType": "uint256",
          "name": "instantForeclosureRatio",
          "type": "uint256"
        },
        {
          "internalType": "address",
          "name": "factoryAddress",
          "type": "address"
        },
        {
          "internalType": "address",
          "name": "ethDeployerAddress",
          "type": "address"
        },
        {
          "internalType": "address",
          "name": "tokenDeployerAddress",
          "type": "address"
        }
      ],
      "stateMutability": "view",
      "type": "function"
    },
    {
      "inputs": [],
      "name": "loanStatus",
      "outputs": [
        {
          "internalType": "enum IJLoanCommons.Status",
          "name": "",
          "type": "uint8"
        }
      ],
      "stateMutability": "view",
      "type": "function"
    },
    {
      "inputs": [],
      "name": "owner",
      "outputs": [
        {
          "internalType": "address",
          "name": "",
          "type": "address"
        }
      ],
      "stateMutability": "view",
      "type": "function"
    },
    {
      "inputs": [],
      "name": "renounceOwnership",
      "outputs": [],
      "stateMutability": "nonpayable",
      "type": "function"
    },
    {
      "inputs": [
        {
          "internalType": "uint256",
          "name": "",
          "type": "uint256"
        }
      ],
      "name": "shareHolders",
      "outputs": [
        {
          "internalType": "address",
          "name": "holder",
          "type": "address"
        },
        {
          "internalType": "uint256",
          "name": "shares",
          "type": "uint256"
        },
        {
          "internalType": "uint256",
          "name": "ownerBlockNumber",
          "type": "uint256"
        }
      ],
      "stateMutability": "view",
      "type": "function"
    },
    {
      "inputs": [
        {
          "internalType": "address",
          "name": "",
          "type": "address"
        }
      ],
      "name": "shareHoldersAddress",
      "outputs": [
        {
          "internalType": "bool",
          "name": "",
          "type": "bool"
        }
      ],
      "stateMutability": "view",
      "type": "function"
    },
    {
      "inputs": [],
      "name": "shareHoldersCounter",
      "outputs": [
        {
          "internalType": "uint256",
          "name": "",
          "type": "uint256"
        }
      ],
      "stateMutability": "view",
      "type": "function"
    },
    {
      "inputs": [
        {
          "internalType": "address",
          "name": "",
          "type": "address"
        }
      ],
      "name": "shareHoldersPlace",
      "outputs": [
        {
          "internalType": "uint256",
          "name": "",
          "type": "uint256"
        }
      ],
      "stateMutability": "view",
      "type": "function"
    },
    {
      "inputs": [],
      "name": "tokenDeployer",
      "outputs": [
        {
          "internalType": "address",
          "name": "",
          "type": "address"
        }
      ],
      "stateMutability": "view",
      "type": "function"
    },
    {
      "inputs": [
        {
          "internalType": "address",
          "name": "newOwner",
          "type": "address"
        }
      ],
      "name": "transferOwnership",
      "outputs": [],
      "stateMutability": "nonpayable",
      "type": "function"
    },
    {
      "inputs": [],
      "name": "setNewCommonParams",
      "outputs": [],
      "stateMutability": "nonpayable",
      "type": "function"
    },
    {
      "inputs": [],
      "name": "setNewFeesParams",
      "outputs": [],
      "stateMutability": "nonpayable",
      "type": "function"
    },
    {
      "inputs": [
        {
          "internalType": "address",
          "name": "_tok",
          "type": "address"
        },
        {
          "internalType": "uint256",
          "name": "_tokAmount",
          "type": "uint256"
        }
      ],
      "name": "depositCollateral",
      "outputs": [],
      "stateMutability": "nonpayable",
      "type": "function"
    },
    {
      "inputs": [],
      "name": "getContractBalance",
      "outputs": [
        {
          "internalType": "uint256",
          "name": "",
          "type": "uint256"
        }
      ],
      "stateMutability": "view",
      "type": "function"
    },
    {
      "inputs": [],
      "name": "getLoanStatus",
      "outputs": [
        {
          "internalType": "uint256",
          "name": "",
          "type": "uint256"
        }
      ],
      "stateMutability": "view",
      "type": "function"
    },
    {
      "inputs": [],
      "name": "getPairPrice",
      "outputs": [
        {
          "internalType": "uint256",
          "name": "",
          "type": "uint256"
        }
      ],
      "stateMutability": "view",
      "type": "function"
    },
    {
      "inputs": [],
      "name": "getPairDecimals",
      "outputs": [
        {
          "internalType": "uint256",
          "name": "",
          "type": "uint256"
        }
      ],
      "stateMutability": "view",
      "type": "function"
    },
    {
      "inputs": [],
      "name": "checkEarlySettledLoan",
      "outputs": [
        {
          "internalType": "bool",
          "name": "",
          "type": "bool"
        }
      ],
      "stateMutability": "view",
      "type": "function"
    },
    {
      "inputs": [],
      "name": "getActualCollateralRatio",
      "outputs": [
        {
          "internalType": "uint256",
          "name": "newCollRatio",
          "type": "uint256"
        }
      ],
      "stateMutability": "view",
      "type": "function"
    },
    {
      "inputs": [
        {
          "internalType": "uint256",
          "name": "_amount",
          "type": "uint256"
        }
      ],
      "name": "calcRatioAddingCollateral",
      "outputs": [
        {
          "internalType": "uint256",
          "name": "ratio",
          "type": "uint256"
        }
      ],
      "stateMutability": "view",
      "type": "function"
    },
    {
      "inputs": [
        {
          "internalType": "uint256",
          "name": "_ratio",
          "type": "uint256"
        }
      ],
      "name": "calcCollAmountForRatio",
      "outputs": [
        {
          "internalType": "uint256",
          "name": "collDiff",
          "type": "uint256"
        }
      ],
      "stateMutability": "view",
      "type": "function"
    },
    {
      "inputs": [
        {
          "internalType": "address",
          "name": "_stableAddr",
          "type": "address"
        }
      ],
      "name": "lenderSendStableCoins",
      "outputs": [],
      "stateMutability": "nonpayable",
      "type": "function"
    },
    {
      "inputs": [],
      "name": "setLoanStatusOnCollRatio",
      "outputs": [
        {
          "internalType": "uint256",
          "name": "",
          "type": "uint256"
        }
      ],
      "stateMutability": "nonpayable",
      "type": "function"
    },
    {
      "inputs": [],
      "name": "initiateLoanForeClose",
      "outputs": [],
      "stateMutability": "nonpayable",
      "type": "function"
    },
    {
      "inputs": [],
      "name": "setLoanInForeclosedByTime",
      "outputs": [
        {
          "internalType": "bool",
          "name": "",
          "type": "bool"
        }
      ],
      "stateMutability": "nonpayable",
      "type": "function"
    },
    {
      "inputs": [],
      "name": "loanClosingByBorrower",
      "outputs": [],
      "stateMutability": "nonpayable",
      "type": "function"
    },
    {
      "inputs": [],
      "name": "setLoanCancelled",
      "outputs": [],
      "stateMutability": "nonpayable",
      "type": "function"
    },
    {
      "inputs": [
        {
          "internalType": "uint256",
          "name": "_calcBlk",
          "type": "uint256"
        }
      ],
      "name": "calculatingAccruedInterests",
      "outputs": [
        {
          "internalType": "uint256",
          "name": "",
          "type": "uint256"
        }
      ],
      "stateMutability": "view",
      "type": "function"
    },
    {
      "inputs": [],
      "name": "getAccruedInterests",
      "outputs": [
        {
          "internalType": "uint256",
          "name": "accruedInterests",
          "type": "uint256"
        }
      ],
      "stateMutability": "view",
      "type": "function"
    },
    {
      "inputs": [],
      "name": "withdrawInterests",
      "outputs": [
        {
          "internalType": "uint256",
          "name": "",
          "type": "uint256"
        }
      ],
      "stateMutability": "nonpayable",
      "type": "function"
    },
    {
      "inputs": [
        {
          "internalType": "address",
          "name": "_holder",
          "type": "address"
        }
      ],
      "name": "isShareHolder",
      "outputs": [
        {
          "internalType": "bool",
          "name": "",
          "type": "bool"
        }
      ],
      "stateMutability": "view",
      "type": "function"
    },
    {
      "inputs": [
        {
          "internalType": "address",
          "name": "_holder",
          "type": "address"
        }
      ],
      "name": "getShareHolderPlace",
      "outputs": [
        {
          "internalType": "uint256",
          "name": "",
          "type": "uint256"
        }
      ],
      "stateMutability": "view",
      "type": "function"
    },
    {
      "inputs": [
        {
          "internalType": "address",
          "name": "_newShareholder",
          "type": "address"
        },
        {
          "internalType": "uint256",
          "name": "_amount",
          "type": "uint256"
        }
      ],
      "name": "addLoanShareHolders",
      "outputs": [
        {
          "internalType": "uint256",
          "name": "",
          "type": "uint256"
        }
      ],
      "stateMutability": "nonpayable",
      "type": "function"
    }
  ],
  "bytecode": "0x60806040523480156200001157600080fd5b50604051620048ae380380620048ae833981016040819052620000349162000d45565b6000620000496001600160e01b03620004ba16565b600080546001600160a01b0319166001600160a01b0383169081178255604051929350916000805160206200488e833981519152908290a3506001805533620000af5760405162461bcd60e51b8152600401620000a69062001126565b60405180910390fd5b600280546001600160a01b031916331790556001600160a01b038916620000ea5760405162461bcd60e51b8152600401620000a69062001126565b600480546001600160a01b03199081166001600160a01b038c8116919091178355600580548316878316179055600680548316868316179055600380549092168482161790915560408051634fd7587960e01b8152905191871692634fd7587992828201926101209290829003018186803b1580156200016957600080fd5b505afa1580156200017e573d6000803e3d6000fd5b505050506040513d601f19601f82011682018060405250810190620001a4919062000e48565b805160075560208101516008556040808201516009556060820151600a556080820151600b5560a0820151600c5560c0820151600d80546001600160a01b03199081166001600160a01b039384161790915560e080850151600e8054841691851691909117905561010090940151600f80549092169083161790558151631a55d9e960e01b8152915190871692631a55d9e99260048082019391829003018186803b1580156200025357600080fd5b505afa15801562000268573d6000803e3d6000fd5b505050506040513d601f19601f820116820180604052508101906200028e919062000de0565b805160185560208101516019556040810151601a556060810151601b556080810151601c5560a0810151601d5560c00151601e55600754851015620002e75760405162461bcd60e51b8152600401620000a690620010fb565b6010889055601185905560148790556015869055604051630404ea8960e21b81526001600160a01b03851690631013aa249062000329908a906004016200115d565b60206040518083038186803b1580156200034257600080fd5b505afa15801562000357573d6000803e3d6000fd5b505050506040513d601f19601f820116820180604052508101906200037d919062000eff565b6016805460ff191660ff92909216919091179055604051633e17bdcb60e11b81526001600160a01b03851690637c2f7b9690620003bf908a906004016200115d565b60206040518083038186803b158015620003d857600080fd5b505afa158015620003ed573d6000803e3d6000fd5b505050506040513d601f19601f8201168201806040525081019062000413919062000eff565b6016805460ff929092166101000261ff0019909216919091179055620004416001600160e01b03620004be16565b601255436013556017805460ff19169055600d5462000469906001600160a01b03166200075e565b6013546015546040517f6b6fa9d5c06988661c31cf3707bc0272b4bbd725cb6c2b92446bfc33d2e8dec192620004a3929091879062001166565b60405180910390a1505050505050505050620011ac565b3390565b600080620004d46001600160e01b036200081416565b90506000620004eb6001600160e01b03620008a216565b60155490915060008060175460ff1660098111156200050657fe5b14156200059b576005546040516370a0823160e01b81526001600160a01b03909116906370a08231906200053f90309060040162000f22565b60206040518083038186803b1580156200055857600080fd5b505afa1580156200056d573d6000803e3d6000fd5b505050506040513d601f19601f8201168201806040525081019062000593919062000ee6565b90506200064f565b6200064c620005b26001600160e01b036200093316565b6005546040516370a0823160e01b81526001600160a01b03909116906370a0823190620005e490309060040162000f22565b60206040518083038186803b158015620005fd57600080fd5b505afa15801562000612573d6000803e3d6000fd5b505050506040513d601f19601f8201168201806040525081019062000638919062000ee6565b62000b5960201b6200258a1790919060201c565b90505b60165460ff61010082048116911610620006f4576016546000906200068c9060ff8082169161010090041662000b59602090811b6200258a17901c565b9050620006eb81600a0a620006c386600a0a620006c36064620006d789620006c38d8b62000bac60201b620025d31790919060201c565b62000bec60201b6200260d1790919060201c565b62000bac60201b620025d31790919060201c565b95505062000757565b6016546000906200071c9060ff61010082048116911662000b59602090811b6200258a17901c565b90506200075381600a0a620006d786600a0a620006c36064620006d789620006c38d8b62000bac60201b620025d31790919060201c565b9550505b5050505090565b620007716001600160e01b03620004ba16565b6000546001600160a01b03908116911614620007a15760405162461bcd60e51b8152600401620000a6906200108f565b6001600160a01b038116620007ca5760405162461bcd60e51b8152600401620000a69062000fd1565b600080546040516001600160a01b03808516939216916000805160206200488e83398151915291a3600080546001600160a01b0319166001600160a01b0392909216919091179055565b600d54601454604051631334f8cd60e11b81526000926001600160a01b031691632669f19a916200084991906004016200115d565b60206040518083038186803b1580156200086257600080fd5b505afa15801562000877573d6000803e3d6000fd5b505050506040513d601f19601f820116820180604052508101906200089d919062000ee6565b905090565b600d54601454604051632bd61f0560e11b81526000926001600160a01b0316916357ac3e0a91620008d791906004016200115d565b60206040518083038186803b158015620008f057600080fd5b505afa15801562000905573d6000803e3d6000fd5b505050506040513d601f19601f820116820180604052508101906200092b919062000eff565b60ff16905090565b601754600090819060ff1660098111156200094a57fe5b1180156200096a575060175460089060ff1660098111156200096857fe5b105b620009895760405162461bcd60e51b8152600401620000a69062000f8c565b6000620009ac600760010154601f5462000c3660201b6200264f1790919060201c565b9050600660175460ff166009811115620009c257fe5b148015620009d05750804310155b15620009f257620009ea816001600160e01b0362000c5e16565b915062000a3e565b6022541562000a2757620009ea62000a186022544362000cab60201b620026741760201c565b6001600160e01b0362000c5e16565b62000a3b436001600160e01b0362000c5e16565b91505b6005546040516370a0823160e01b81526001600160a01b03909116906370a082319062000a7090309060040162000f22565b60206040518083038186803b15801562000a8957600080fd5b505afa15801562000a9e573d6000803e3d6000fd5b505050506040513d601f19601f8201168201806040525081019062000ac4919062000ee6565b82111562000b55576005546040516370a0823160e01b81526001600160a01b03909116906370a082319062000afe90309060040162000f22565b60206040518083038186803b15801562000b1757600080fd5b505afa15801562000b2c573d6000803e3d6000fd5b505050506040513d601f19601f8201168201806040525081019062000b52919062000ee6565b91505b5090565b600062000ba383836040518060400160405280601e81526020017f536166654d6174683a207375627472616374696f6e206f766572666c6f77000081525062000cc360201b60201c565b90505b92915050565b60008262000bbd5750600062000ba6565b8282028284828162000bcb57fe5b041462000ba35760405162461bcd60e51b8152600401620000a6906200104e565b600062000ba383836040518060400160405280601a81526020017f536166654d6174683a206469766973696f6e206279207a65726f00000000000081525062000cf260201b60201c565b60008282018381101562000ba35760405162461bcd60e51b8152600401620000a69062001017565b600060245482101562000c855760405162461bcd60e51b8152600401620000a690620010c4565b62000ba6601060010154620006d76024548562000b5960201b6200258a1790919060201c565b600081831062000cbc578162000ba3565b5090919050565b6000818484111562000cea5760405162461bcd60e51b8152600401620000a6919062000f36565b505050900390565b6000818362000d165760405162461bcd60e51b8152600401620000a6919062000f36565b50600083858162000d2357fe5b0495945050505050565b80516001600160a01b038116811462000ba657600080fd5b60008060008060008060008060006101208a8c03121562000d64578485fd5b62000d708b8b62000d2d565b985060208a0151975060408a0151965060608a0151955060808a0151945062000d9d8b60a08c0162000d2d565b935062000dae8b60c08c0162000d2d565b925062000dbf8b60e08c0162000d2d565b915062000dd18b6101008c0162000d2d565b90509295985092959850929598565b600060e0828403121562000df2578081fd5b62000dfe60e062001185565b825181526020830151602082015260408301516040820152606083015160608201526080830151608082015260a083015160a082015260c083015160c08201528091505092915050565b600061012080838503121562000e5c578182fd5b62000e678162001185565b835181526020840151602082015260408401516040820152606084015160608201526080840151608082015260a084015160a082015262000eac8560c0860162000d2d565b60c082015262000ec08560e0860162000d2d565b60e0820152610100915062000ed88583860162000d2d565b918101919091529392505050565b60006020828403121562000ef8578081fd5b5051919050565b60006020828403121562000f11578081fd5b815160ff8116811462000ba3578182fd5b6001600160a01b0391909116815260200190565b6000602080835283518082850152825b8181101562000f645785810183015185820160400152820162000f46565b8181111562000f765783604083870101525b50601f01601f1916929092016040019392505050565b60208082526025908201527f4c6f616e20737461747573206e6f742063616c63756c6174696e6720696e7465604082015264726573747360d81b606082015260800190565b60208082526026908201527f4f776e61626c653a206e6577206f776e657220697320746865207a65726f206160408201526564647265737360d01b606082015260800190565b6020808252601b908201527f536166654d6174683a206164646974696f6e206f766572666c6f770000000000604082015260600190565b60208082526021908201527f536166654d6174683a206d756c7469706c69636174696f6e206f766572666c6f6040820152607760f81b606082015260800190565b6020808252818101527f4f776e61626c653a2063616c6c6572206973206e6f7420746865206f776e6572604082015260600190565b60208082526018908201527f426c6f636b206e756d626572206e6f7420616c6c6f7765640000000000000000604082015260600190565b602080825260119082015270496e74657265737420746f6f206c6f772160781b604082015260600190565b6020808252601a908201527f53656e6465722061646472657373206e6f7420616c6c6f776564000000000000604082015260600190565b90815260200190565b92835260208301919091526001600160a01b0316604082015260600190565b6040518181016001600160401b0381118282101715620011a457600080fd5b604052919050565b6136d280620011bc6000396000f3fe608060405234801561001057600080fd5b50600436106102955760003560e01c80637a33f63c11610167578063c0b27cc5116100ce578063e1c7111a11610087578063e1c7111a146104da578063e936e44a146104e2578063ec98362e146104ea578063f2fde38b146104f2578063fb6222e814610505578063ff0d69a61461051857610295565b8063c0b27cc51461048b578063c2b0bf5814610493578063c55d2a471461049b578063d20fbeb6146104a3578063d5138948146104ab578063d75e1bd8146104c757610295565b806395dcc2551161012057806395dcc255146104455780639cf160f614610458578063a5d5db0c14610460578063acc1ab1314610473578063b2016bd41461047b578063b2ca18051461048357610295565b80637a33f63c146103ff5780637ba61ea51461041257806381714f0f1461041a57806382f0c81c1461042d5780638da5cb5b14610435578063918c3dbd1461043d57610295565b80633ba2ee401161020b5780635ced2a11116101c45780635ced2a111461039f5780635f4975f0146103b25780636dd167f8146103c55780636f9fb98a146103cd578063715018a6146103d55780637427a40c146103dd57610295565b80633ba2ee40146103595780633cf348c31461036157806342ac33791461036957806347c865df146103715780634cdb79b41461037957806356f4aee01461038c57610295565b806320a73ab71161025d57806320a73ab7146102fa578063216c249014610302578063288994231461031d5780632a1f3cda146103325780632a2dae0a1461033c5780632a3d7c811461035157610295565b806306bb531e1461029a578063074ca966146102b857806309e94d98146102cd57806318ad714a146102ea5780631aa118d9146102f2575b600080fd5b6102a2610520565b6040516102af919061353c565b60405180910390f35b6102c0610629565b6040516102af9190612d28565b6102d5610632565b6040516102af99989796959493929190613553565b6102a2610661565b6102a261083b565b6102a2610841565b61030a610847565b6040516102af97969594939291906135a1565b61032561085f565b6040516102af9190612d1d565b61033a6108cf565b005b6103446109f1565b6040516102af9190612c91565b6102a2610a00565b61033a610a06565b610325610bd9565b6102a2610bf4565b6102a2610c77565b610325610387366004612ac3565b610c7d565b6102a261039a366004612ac3565b610c92565b6102a26103ad366004612c24565b610cad565b6102a26103c0366004612ac3565b610cff565b6102a2610d11565b6102a2610d17565b61033a610d48565b6103f06103eb366004612c24565b610dc7565b6040516102af93929190612cfc565b61032561040d366004612ac3565b610df2565b610344610e10565b6102a2610428366004612c24565b610e1f565b6102a2610f31565b610344611091565b61033a6110a0565b61033a610453366004612ac3565b61117d565b6103446115df565b61033a61046e366004612adf565b6115ee565b6102a2611809565b61034461181d565b6102a261182c565b6102a2611832565b61033a611838565b6102a2611a3b565b6102a2611a41565b6104b3611bf6565b6040516102af9897969594939291906135d1565b6102a26104d5366004612adf565b611c1a565b610344611f04565b6102a2611f13565b61033a611f9e565b61033a610500366004612ac3565b61235e565b6102a2610513366004612c24565b612414565b6102a2612584565b601754600090819060ff16600981111561053657fe5b118015610554575060175460059060ff16600981111561055257fe5b105b156105cb576000610563611a41565b600b549091508110610586576017805460ff1916600117905560006025556105c9565b600b54811180159061059a5750600c548110155b156105b1576017805460ff191660021790556105c9565b600c548110156105c9576017805460ff191660031790555b505b6017547fe096f951d62ec2072f7a4b5b750e0f9b7a55b9c4cbfa1f516b496cb58d7dff6f9060ff1660098111156105fe57fe5b60405161060b919061353c565b60405180910390a160175460ff16600981111561062457fe5b905090565b60175460ff1681565b600754600854600954600a54600b54600c54600d54600e54600f546001600160a01b0392831692918216911689565b601754600090819060ff16600981111561067757fe5b118015610695575060175460089060ff16600981111561069357fe5b105b6106ba5760405162461bcd60e51b81526004016106b190612deb565b60405180910390fd5b600854601f546000916106d3919063ffffffff61264f16565b9050600660175460ff1660098111156106e857fe5b1480156106f55750804310155b1561070a5761070381610cad565b915061072d565b60225415610721576107036103ad60225443612674565b61072a43610cad565b91505b6005546040516370a0823160e01b81526001600160a01b03909116906370a082319061075d903090600401612c91565b60206040518083038186803b15801561077557600080fd5b505afa158015610789573d6000803e3d6000fd5b505050506040513d601f19601f820116820180604052508101906107ad9190612c3c565b821115610837576005546040516370a0823160e01b81526001600160a01b03909116906370a08231906107e4903090600401612c91565b60206040518083038186803b1580156107fc57600080fd5b505afa158015610810573d6000803e3d6000fd5b505050506040513d601f19601f820116820180604052508101906108349190612c3c565b91505b5090565b602a5481565b60205481565b601854601954601a54601b54601c54601d54601e5487565b60175460009060ff16600981111561087357fe5b6004146108925760405162461bcd60e51b81526004016106b190612f85565b602554600090158015906108ba57506009546025546108b69163ffffffff61264f16565b4310155b15610624576108c761268a565b506001905090565b6002546001600160a01b031633146108f95760405162461bcd60e51b81526004016106b190612e30565b600d5460408051634fd7587960e01b815290516001600160a01b0390921691634fd758799160048082019261012092909190829003018186803b15801561093f57600080fd5b505afa158015610953573d6000803e3d6000fd5b505050506040513d601f19601f820116820180604052508101906109779190612b8f565b8051600755602081015160085560408101516009556060810151600a556080810151600b5560a0810151600c5560c0810151600d80546001600160a01b03199081166001600160a01b039384161790915560e0830151600e8054831691841691909117905561010090920151600f80549093169116179055565b6002546001600160a01b031681565b60235481565b6000610a10610520565b90508060021480610a215750806003145b610a3d5760405162461bcd60e51b81526004016106b1906131a2565b60008160021415610a6c57601154601c54610a5d9163ffffffff6125d316565b9050610a676126d8565b610a8b565b601154601d54610a819163ffffffff6125d316565b9050610a8b61268a565b6005546040516370a0823160e01b815282916001600160a01b0316906370a0823190610abb903090600401612c91565b60206040518083038186803b158015610ad357600080fd5b505afa158015610ae7573d6000803e3d6000fd5b505050506040513d601f19601f82011682018060405250810190610b0b9190612c3c565b1015610b295760405162461bcd60e51b81526004016106b1906130f8565b600554601a54610b68916001600160a01b0316903390610b6390606490610b5790879063ffffffff6125d316565b9063ffffffff61260d16565b61271c565b600554601b54610b96916001600160a01b0316903390610b6390606490610b5790879063ffffffff6125d316565b43602081905560405133917f9c216942fb53599e3610164be0d173eb8b00a4613afdb41d524f00091a819abc91610bcd919061353c565b60405180910390a25050565b6000600660175460ff166009811115610bee57fe5b14905090565b600d54601454604051631334f8cd60e11b81526000926001600160a01b031691632669f19a91610c27919060040161353c565b60206040518083038186803b158015610c3f57600080fd5b505afa158015610c53573d6000803e3d6000fd5b505050506040513d601f19601f820116820180604052508101906106249190612c3c565b60245481565b60286020526000908152604090205460ff1681565b6001600160a01b031660009081526029602052604090205490565b6000602454821015610cd15760405162461bcd60e51b81526004016106b1906133f2565b601154602454610cf99190610ced90859063ffffffff61258a16565b9063ffffffff6125d316565b92915050565b60296020526000908152604090205481565b60215481565b6005546040516370a0823160e01b81526000916001600160a01b0316906370a0823190610c27903090600401612c91565b610d5061280a565b6000546001600160a01b03908116911614610d7d5760405162461bcd60e51b81526004016106b19061325b565b600080546040516001600160a01b03909116907f8be0079c531659141344cd1fd0a4f28419497f9722a3daafe3b4186f6b6457e0908390a3600080546001600160a01b0319169055565b6027602052600090815260409020805460018201546002909201546001600160a01b03909116919083565b6001600160a01b031660009081526028602052604090205460ff1690565b6004546001600160a01b031681565b60004781610e2b610bf4565b90506000610e37611f13565b60155460165491925060009187919060ff61010082048116911610610eab57601654600090610e779060ff8082169161010090041663ffffffff61258a16565b9050610ea381600a0a610ced6064610b578a610b578b600a0a610ced8b8b6125d390919063ffffffff16565b935050610ef5565b601654600090610ec59060ff61010082048116911661258a565b9050610ef181600a0a610b576064610b578a610b578b600a0a610ced8b8b6125d390919063ffffffff16565b9350505b858310610f1357610f0c838763ffffffff61258a16565b9650610f26565b610f23868463ffffffff61258a16565b96505b505050505050919050565b600060026001541415610f565760405162461bcd60e51b81526004016106b19061346d565b600260015560175460009060ff166009811115610f6f57fe5b118015610f8d575060175460089060ff166009811115610f8b57fe5b105b610fa95760405162461bcd60e51b81526004016106b1906134a4565b60175460009060ff166009811115610fbd57fe5b9050476000610fca610661565b905080821061102d5760015b602a548160ff16116110105760ff8116600090815260276020526040902054611008906001600160a01b03168361280e565b600101610fd6565b50436024556003831161102857611025610520565b92505b611086565b8161103a576110286128b2565b60015b602a548160ff16116110775760ff811660009081526027602052604090205461106f906001600160a01b03168461280e565b60010161103d565b50436024819055602255600892505b505060018055919050565b6000546001600160a01b031690565b6002546001600160a01b031633146110ca5760405162461bcd60e51b81526004016106b190612e30565b600d5460408051631a55d9e960e01b815290516001600160a01b0390921691631a55d9e99160048082019260e092909190829003018186803b15801561110f57600080fd5b505afa158015611123573d6000803e3d6000fd5b505050506040513d601f19601f820116820180604052508101906111479190612b2a565b805160185560208101516019556040810151601a556060810151601b556080810151601c5560a0810151601d5560c00151601e55565b600260015414156111a05760405162461bcd60e51b81526004016106b19061346d565b6002600155336111c25760405162461bcd60e51b81526004016106b190613051565b6006546001600160a01b038281169116146111ef5760405162461bcd60e51b81526004016106b19061330c565b6015546006546040516370a0823160e01b81526001600160a01b03909116906370a0823190611222903390600401612c91565b60206040518083038186803b15801561123a57600080fd5b505afa15801561124e573d6000803e3d6000fd5b505050506040513d601f19601f820116820180604052508101906112729190612c3c565b10156112905760405162461bcd60e51b81526004016106b19061307e565b600060175460ff1660098111156112a357fe5b146112c05760405162461bcd60e51b81526004016106b190612fb4565b601554604051636eb1769f60e11b81526000906001600160a01b0384169063dd62ed3e906112f49033903090600401612ca5565b60206040518083038186803b15801561130c57600080fd5b505afa158015611320573d6000803e3d6000fd5b505050506040513d601f19601f820116820180604052508101906113449190612c3c565b9050818110156113665760405162461bcd60e51b81526004016106b1906130c1565b43601f55601780546001919060ff1916828002179055506001602a818155604080516060810182523380825260646020808401918252601f5484860190815260008881526027835294517fb6915e519d5f9dd23c62986e48578ddfa8cde5c92608222904fd87ad04df4ffd80546001600160a01b0319166001600160a01b0392831617905592517fb6915e519d5f9dd23c62986e48578ddfa8cde5c92608222904fd87ad04df4ffe55517fb6915e519d5f9dd23c62986e48578ddfa8cde5c92608222904fd87ad04df4fff5582845260288152848420805460ff191690971790965593546029909552919020929092554360245560045461146c9286929091168561291c565b600d5460145460155460405163c175771b60e01b81526000936001600160a01b03169263c175771b926114a192600401613545565b60206040518083038186803b1580156114b957600080fd5b505afa1580156114cd573d6000803e3d6000fd5b505050506040513d601f19601f820116820180604052508101906114f19190612c3c565b600d54604051632976f2fb60e11b81529192506000916001600160a01b03909116906352ede5f69061152790859060040161353c565b60206040518083038186803b15801561153f57600080fd5b505afa158015611553573d6000803e3d6000fd5b505050506040513d601f19601f820116820180604052508101906115779190612c3c565b600554600354919250611597916001600160a01b0391821691168361271c565b601f5460405133917f8da312eaac37817e0ccf8bd45912080260bec10b5dac7e4ab7a438e96a605921916115cc918591613545565b60405180910390a2505060018055505050565b6003546001600160a01b031681565b600160175460ff16600981111561160157fe5b101580156116205750600460175460ff16600981111561161d57fe5b11155b61163c5760405162461bcd60e51b81526004016106b190612da6565b6005546001600160a01b038381169116146116695760405162461bcd60e51b81526004016106b190613290565b6005546040516370a0823160e01b815282916001600160a01b0316906370a0823190611699903390600401612c91565b60206040518083038186803b1580156116b157600080fd5b505afa1580156116c5573d6000803e3d6000fd5b505050506040513d601f19601f820116820180604052508101906116e99190612c3c565b10156117075760405162461bcd60e51b81526004016106b1906134fa565b600554604051636eb1769f60e11b81526000916001600160a01b03169063dd62ed3e9061173a9033903090600401612ca5565b60206040518083038186803b15801561175257600080fd5b505afa158015611766573d6000803e3d6000fd5b505050506040513d601f19601f8201168201806040525081019061178a9190612c3c565b9050818110156117ac5760405162461bcd60e51b81526004016106b1906130c1565b6117b88333308561291c565b60006117c2610520565b436023556040519091507f078c599f5cd71dc8637a680b058c73d883fa16e7282ff35ed71f6584560d3069906117fb9085908490613545565b60405180910390a150505050565b60175460009060ff16600981111561062457fe5b6005546001600160a01b031681565b601f5481565b60255481565b6004546001600160a01b031633146118625760405162461bcd60e51b81526004016106b190613224565b60175460ff16600981111561187357fe5b156118905760405162461bcd60e51b81526004016106b190613015565b601e546006546040516370a0823160e01b815260009261192092606492610b5792916001600160a01b0316906370a08231906118d0903090600401612c91565b60206040518083038186803b1580156118e857600080fd5b505afa1580156118fc573d6000803e3d6000fd5b505050506040513d601f19601f82011682018060405250810190610ced9190612c3c565b600654600354919250611940916001600160a01b0391821691168361271c565b6006546040516370a0823160e01b81526000916119d39184916001600160a01b0316906370a0823190611977903090600401612c91565b60206040518083038186803b15801561198f57600080fd5b505afa1580156119a3573d6000803e3d6000fd5b505050506040513d601f19601f820116820180604052508101906119c79190612c3c565b9063ffffffff61258a16565b6006549091506119ed906001600160a01b0316338361271c565b6017805460ff1916600917905560105460405133907f976729a22a1f27f055a6f0ffa92bd9d2944c972f1d0e25d1b3517bfa523cf49890611a2f90439061353c565b60405180910390a35050565b60225481565b600080611a4c610bf4565b90506000611a58611f13565b60155490915060008060175460ff166009811115611a7257fe5b1415611aff576005546040516370a0823160e01b81526001600160a01b03909116906370a0823190611aa8903090600401612c91565b60206040518083038186803b158015611ac057600080fd5b505afa158015611ad4573d6000803e3d6000fd5b505050506040513d601f19601f82011682018060405250810190611af89190612c3c565b9050611b3d565b611b3a611b0a610661565b6005546040516370a0823160e01b81526001600160a01b03909116906370a0823190611977903090600401612c91565b90505b60165460ff61010082048116911610611ba557601654600090611b719060ff8082169161010090041663ffffffff61258a16565b9050611b9d81600a0a610b5786600a0a610b576064610ced89610b578d8b6125d390919063ffffffff16565b955050611bef565b601654600090611bbf9060ff61010082048116911661258a565b9050611beb81600a0a610ced86600a0a610b576064610ced89610b578d8b6125d390919063ffffffff16565b9550505b5050505090565b60105460115460125460135460145460155460165460ff8082169161010090041688565b600060026001541415611c3f5760405162461bcd60e51b81526004016106b19061346d565b6002600155611c4d33610df2565b611c695760405162461bcd60e51b81526004016106b190612fde565b6000611c7433610c92565b905060008111611c965760405162461bcd60e51b81526004016106b190612ef3565b600081815260276020526040902060010154831115611cc75760405162461bcd60e51b81526004016106b1906133a9565b600854601f54014311611cec5760405162461bcd60e51b81526004016106b190612e67565b6000611cf6610661565b905060015b602a548160ff1611611d355760ff8116600090815260276020526040902054611d2d906001600160a01b03168361280e565b600101611cfb565b50600082815260276020526040902060010154611d58908563ffffffff61258a16565b600083815260276020526040902060010155611d7385610df2565b611e5157602a54611d8b90600163ffffffff61264f16565b602a818155604080516060810182526001600160a01b0389811680835260208084018b8152438587018181526000998a5260278452878a20965187546001600160a01b03191696169590951786559051600180870191909155935160029095019490945581875260288152848720805460ff191690931790925593546029909152938290209390935551869233917fed7ee45f75e10dfcc3019d0500825dd990b1949080215ea4894d7ed780073e6f91611e449161353c565b60405180910390a4611ee8565b6000611e5c86610c92565b600081815260276020526040902060010154909150611e81908663ffffffff61264f16565b6000828152602760205260409081902060018101929092554360029092018290555186916001600160a01b0389169133917fb510f1f825ef2a9b3a0fa1d56d8461062ee721c12409714d52332b44b82e6afc91611ede919061353c565b60405180910390a4505b436024556000611ef6610520565b600180559695505050505050565b6006546001600160a01b031681565b600d54601454604051632bd61f0560e11b81526000926001600160a01b0316916357ac3e0a91611f46919060040161353c565b60206040518083038186803b158015611f5e57600080fd5b505afa158015611f72573d6000803e3d6000fd5b505050506040513d601f19601f82011682018060405250810190611f969190612c54565b60ff16905090565b60026001541415611fc15760405162461bcd60e51b81526004016106b19061346d565b60026001556004546001600160a01b03163314611ff05760405162461bcd60e51b81526004016106b190613372565b60175460009060ff16600981111561200457fe5b118015612023575060175460039060ff16600981111561202057fe5b11155b61203f5760405162461bcd60e51b81526004016106b190613165565b600654604051636eb1769f60e11b81526000916001600160a01b03169063dd62ed3e906120729033903090600401612ca5565b60206040518083038186803b15801561208a57600080fd5b505afa15801561209e573d6000803e3d6000fd5b505050506040513d601f19601f820116820180604052508101906120c29190612c3c565b6015549091508110156120e75760405162461bcd60e51b81526004016106b1906132c0565b60015b602a548160ff161161219a5760ff81166000908152602760205260408120546001600160a01b03169061211c82610c92565b600081815260276020908152604080832060010180549084905560ff88168452818420546001600160a01b03908116855260289093529220805460ff19169055600654601554939450919261218f92909116903390869061218a90606490610b57908863ffffffff6125d316565b61291c565b5050506001016120ea565b50600854601f54600091014310156121bb576121b4612a0d565b90506121c6565b6121c3610661565b90505b6000600660175460ff1660098111156121db57fe5b14156121f9576011546019546121f69163ffffffff6125d316565b90505b6005546040516370a0823160e01b81526000916001600160a01b0316906370a082319061222a903090600401612c91565b60206040518083038186803b15801561224257600080fd5b505afa158015612256573d6000803e3d6000fd5b505050506040513d601f19601f8201168201806040525081019061227a9190612c3c565b9050600061228e848463ffffffff61264f16565b90508082106122e6576005546003546122b4916001600160a01b0390811691168561271c565b60006122c6838363ffffffff61258a16565b6005549091506122e0906001600160a01b0316338361271c565b5061230a565b82821061230a5760055460035461230a916001600160a01b0390811691168561271c565b4360218190556017805460ff191660071790556040517fd81de7231bf1ee8484c8d4a7f114d29a312842bf7d0eb187ffec71b5b94d22309161234b9161353c565b60405180910390a1505060018055505050565b61236661280a565b6000546001600160a01b039081169116146123935760405162461bcd60e51b81526004016106b19061325b565b6001600160a01b0381166123b95760405162461bcd60e51b81526004016106b190612ead565b600080546040516001600160a01b03808516939216917f8be0079c531659141344cd1fd0a4f28419497f9722a3daafe3b4186f6b6457e091a3600080546001600160a01b0319166001600160a01b0392909216919091179055565b6005546040516370a0823160e01b815260009182916001600160a01b03909116906370a0823190612449903090600401612c91565b60206040518083038186803b15801561246157600080fd5b505afa158015612475573d6000803e3d6000fd5b505050506040513d601f19601f820116820180604052508101906124999190612c3c565b905060006124ad828563ffffffff61264f16565b905060006124b9610bf4565b905060006124c5611f13565b6015546016549192509060ff61010082048116911610612534576016546000906125009060ff8082169161010090041663ffffffff61258a16565b905061252c81600a0a610b5785600a0a610b576064610ced88610b578c8e6125d390919063ffffffff16565b96505061257a565b60165460009061254e9060ff61010082048116911661258a565b9050610f2381600a0a610ced85600a0a610b576064610ced88610b578c8e6125d390919063ffffffff16565b5050505050919050565b60265481565b60006125cc83836040518060400160405280601e81526020017f536166654d6174683a207375627472616374696f6e206f766572666c6f770000815250612a55565b9392505050565b6000826125e257506000610cf9565b828202828482816125ef57fe5b04146125cc5760405162461bcd60e51b81526004016106b1906131e3565b60006125cc83836040518060400160405280601a81526020017f536166654d6174683a206469766973696f6e206279207a65726f000000000000815250612a81565b6000828201838110156125cc5760405162461bcd60e51b81526004016106b190612f22565b600081831061268357816125cc565b5090919050565b4360268190556017805460ff1916600517905560405133917f9501cc045c1358e5e6d1aef6f29cb9b1ffb3ea567a4795bffce3050ed74f4d1b916126ce919061353c565b60405180910390a2565b6017805460ff1916600417905543602581905560405133917ff542b84b1e49b5bef195e1e1949cf1eb789fbe49c059b62a89f24af3c6f71d8f916126ce919061353c565b60006060846001600160a01b031663a9059cbb8585604051602401612742929190612ce3565b6040516020818303038152906040529060e01b6020820180516001600160e01b03838183161783525050505060405161277b9190612c75565b6000604051808303816000865af19150503d80600081146127b8576040519150601f19603f3d011682016040523d82523d6000602084013e6127bd565b606091505b50915091508180156127e75750805115806127e75750808060200190518101906127e79190612b0a565b6128035760405162461bcd60e51b81526004016106b190612d6f565b5050505050565b3390565b61281782610df2565b6128335760405162461bcd60e51b81526004016106b190612fde565b60015b602a548160ff16116128ad5760ff8116600090815260276020526040812054612867906001600160a01b0316610c92565b600081815260276020526040902060010154600554919250906128a3906001600160a01b031686610b636064610b57898763ffffffff6125d316565b5050600101612836565b505050565b6128bb33610df2565b6128d75760405162461bcd60e51b81526004016106b19061313a565b60175460069060ff1660098111156128eb57fe5b10156129095760405162461bcd60e51b81526004016106b190613337565b436022556017805460ff19166008179055565b60006060856001600160a01b03166323b872dd86868660405160240161294493929190612cbf565b6040516020818303038152906040529060e01b6020820180516001600160e01b03838183161783525050505060405161297d9190612c75565b6000604051808303816000865af19150503d80600081146129ba576040519150601f19603f3d011682016040523d82523d6000602084013e6129bf565b606091505b50915091508180156129e95750805115806129e95750808060200190518101906129e99190612b0a565b612a055760405162461bcd60e51b81526004016106b190613429565b505050505050565b600854601f54600091014310612a355760405162461bcd60e51b81526004016106b190612f59565b6017805460ff1916600617905560115460085460009161083491906125d3565b60008184841115612a795760405162461bcd60e51b81526004016106b19190612d3c565b505050900390565b60008183612aa25760405162461bcd60e51b81526004016106b19190612d3c565b506000838581612aae57fe5b0495945050505050565b8051610cf981613664565b600060208284031215612ad4578081fd5b81356125cc81613664565b60008060408385031215612af1578081fd5b8235612afc81613664565b946020939093013593505050565b600060208284031215612b1b578081fd5b815180151581146125cc578182fd5b600060e08284031215612b3b578081fd5b612b4560e061360d565b825181526020830151602082015260408301516040820152606083015160608201526080830151608082015260a083015160a082015260c083015160c08201528091505092915050565b6000610120808385031215612ba2578182fd5b612bab8161360d565b835181526020840151602082015260408401516040820152606084015160608201526080840151608082015260a084015160a0820152612bee8560c08601612ab8565b60c0820152612c008560e08601612ab8565b60e08201526101009150612c1685838601612ab8565b918101919091529392505050565b600060208284031215612c35578081fd5b5035919050565b600060208284031215612c4d578081fd5b5051919050565b600060208284031215612c65578081fd5b815160ff811681146125cc578182fd5b60008251612c87818460208701613634565b9190910192915050565b6001600160a01b0391909116815260200190565b6001600160a01b0392831681529116602082015260400190565b6001600160a01b039384168152919092166020820152604081019190915260600190565b6001600160a01b03929092168252602082015260400190565b6001600160a01b039390931683526020830191909152604082015260600190565b901515815260200190565b60208101600a8310612d3657fe5b91905290565b6000602082528251806020840152612d5b816040850160208701613634565b601f01601f19169190910160400192915050565b6020808252601f908201527f5472616e7366657248656c7065723a205452414e534645525f4641494c454400604082015260600190565b60208082526025908201527f4c6f616e207374617475732063616e6e6f74207265636569766520636f6c6c616040820152641d195c985b60da1b606082015260800190565b60208082526025908201527f4c6f616e20737461747573206e6f742063616c63756c6174696e6720696e7465604082015264726573747360d81b606082015260800190565b6020808252601f908201527f43616c6c6572206973206e6f7420612076616c6964206465706c6f7965722100604082015260600190565b60208082526026908201527f546f6f2073686f727420706572696f64206166746572206c6f616e20616374696040820152653b30ba34b7b760d11b606082015260800190565b60208082526026908201527f4f776e61626c653a206e6577206f776e657220697320746865207a65726f206160408201526564647265737360d01b606082015260800190565b60208082526015908201527414da185c995a1bdb19195c881b9bdd08199bdd5b99605a1b604082015260600190565b6020808252601b908201527f536166654d6174683a206164646974696f6e206f766572666c6f770000000000604082015260600190565b602080825260129082015271496e636f6e677275656e742073746174757360701b604082015260600190565b602080825260159082015274131bd85b8814dd185d1d5cc81a5b98dbdc9c9958dd605a1b604082015260600190565b60208082526010908201526f496e636f72726563742073746174757360801b604082015260600190565b6020808252601c908201527f41646472657373206973206e6f742061207368617265686f6c64657200000000604082015260600190565b6020808252602e9082015260008051602061367d83398151915260408201526d63616e63656c20616374696f6e7360901b606082015260800190565b6020808252601390820152721059191c995cdcc81b9bdd08185b1b1bddd959606a1b604082015260600190565b60208082526023908201527f4e6f7420656e6f75676820746f6b656e73206f6e206c656e6465722062616c616040820152626e636560e81b606082015260800190565b60208082526019908201527f436865636b2074686520746f6b656e20616c6c6f77616e636500000000000000604082015260600190565b60208082526022908201527f4e6f7420656e6f75676820746f6b656e7320696e206c6f616e20636f6e74726160408201526118dd60f21b606082015260800190565b6020808252601190820152702737ba10309039b430b932b437b63232b960791b604082015260600190565b6020808252602f9082015260008051602061367d83398151915260408201526e636c6f73696e6720616374696f6e7360881b606082015260800190565b602080825260339082015260008051602061367d833981519152604082015272666f7265636c6f73696e6720616374696f6e7360681b606082015260800190565b60208082526021908201527f536166654d6174683a206d756c7469706c69636174696f6e206f766572666c6f6040820152607760f81b606082015260800190565b6020808252601a908201527f43616e63656c2072657175657374206e6f7420616c6c6f776564000000000000604082015260600190565b6020808252818101527f4f776e61626c653a2063616c6c6572206973206e6f7420746865206f776e6572604082015260600190565b602080825260169082015275151bdad95b881d1e5c19481b9bdd0818dbdc9c9958dd60521b604082015260600190565b6020808252602c908201527f436865636b2074686520746f6b656e20616c6c6f77616e636520746f2073657460408201526b3a3632903a3432903637b0b760a11b606082015260800190565b602080825260119082015270151bdad95b881b9bdd08185b1b1bddd959607a1b604082015260600190565b6020808252602d9082015260008051602061367d83398151915260408201526c636c6f736520616374696f6e7360981b606082015260800190565b60208082526017908201527f43616c6c6572206e6f742074686520626f72726f776572000000000000000000604082015260600190565b60208082526029908201527f5368617265686f6c64657220686173206e6f7420656e6f7567682073686172656040820152681cc81d1bc81cd95b1b60ba1b606082015260800190565b60208082526018908201527f426c6f636b206e756d626572206e6f7420616c6c6f7765640000000000000000604082015260600190565b60208082526024908201527f5472616e7366657248656c7065723a205452414e534645525f46524f4d5f46416040820152631253115160e21b606082015260800190565b6020808252601f908201527f5265656e7472616e637947756172643a207265656e7472616e742063616c6c00604082015260600190565b602080825260429082015260008051602061367d83398151915260408201527f7769746864726177206163637275656420696e7465726573747320616374696f6060820152616e7360f01b608082015260a00190565b60208082526022908201527f4e6f7420656e6f75676820746f6b656e7320696e2073656e6465722077616c6c604082015261195d60f21b606082015260800190565b90815260200190565b918252602082015260400190565b988952602089019790975260408801959095526060870193909352608086019190915260a08501526001600160a01b0390811660c085015290811660e0840152166101008201526101200190565b968752602087019590955260408601939093526060850191909152608084015260a083015260c082015260e00190565b978852602088019690965260408701949094526060860192909252608085015260a084015260ff90811660c08401521660e08201526101000190565b60405181810167ffffffffffffffff8111828210171561362c57600080fd5b604052919050565b60005b8381101561364f578181015183820152602001613637565b8381111561365e576000848401525b50505050565b6001600160a01b038116811461367957600080fd5b5056fe4c6f616e20737461747573206e6f7420636f6d70617469626c65207769746820a2646970667358221220c3a5412274fe1fceafc636a9a4ded80f247def26daa2cf83170fed2ae9d68aad64736f6c634300060b00338be0079c531659141344cd1fd0a4f28419497f9722a3daafe3b4186f6b6457e0",
  "immutableReferences": {},
  "source": "// SPDX-License-Identifier: MIT\n\npragma solidity ^0.6.11;\npragma experimental ABIEncoderV2;\n\nimport \"@openzeppelin/contracts/math/SafeMath.sol\";\nimport \"@openzeppelin/contracts/math/Math.sol\";\nimport \"@openzeppelin/contracts/access/Ownable.sol\";\nimport \"@openzeppelin/contracts/token/ERC20/IERC20.sol\";\nimport \"@openzeppelin/contracts/utils/ReentrancyGuard.sol\";\nimport \"./IJLoanCommons.sol\";\nimport \"./IJLoanToken.sol\";\nimport \"./IJFactory.sol\";\nimport \"./TransferHelper.sol\";\n\n\ncontract JLoanToken is Ownable, ReentrancyGuard, IJLoanCommons {\n    using SafeMath for uint;\n\n    address public tokenDeployer;\n    address public feesCollector;\n    \n    address public borrowerAddress;\n\n    IERC20 public collateralToken;\n    IERC20 public lentToken;\n\n    params public loanParams;\n    contractParams public commonParams;\n    Status public loanStatus;\n    feesParams public loanFees;\n\n    uint public loanActiveBlock;\n    uint public loanInitiateForeCloseBlock;\n    uint public loanClosingBlock;\n    uint public loanClosedBlock;\n    uint public lastDepositBlock;\n    uint public lastInterestWithdrawalBlock;\n    uint public loanForeclosingBlock;\n    uint public loanForeclosedBlock;\n\n    struct ShareHolder {\n        address holder;\n        uint shares;\n        uint ownerBlockNumber;\n    }\n\n    mapping(uint => ShareHolder) public shareHolders;\n    mapping(address => bool) public shareHoldersAddress;\n    mapping(address => uint) public shareHoldersPlace;\n    uint public shareHoldersCounter;\n\n    event LoanContractDeployed(uint creationBlock, uint value, address token);\n    event NewDeposit(uint depositAmount, uint status);\n    event TokenReceived(address sender, uint value);\n    event TokenWithdraw(uint blockNumber);\n    event LenderAccepted(address indexed lenderAddress, uint factoryFees, uint loanActiveBlock);\n    event InitiateForeClosure(address indexed sender, uint blockNumber);\n    event LoanAtRiskFromForeclosing(address indexed sender, uint blockNumber);\n    event LoanForeclosed(address indexed sender, uint blockNumber);\n    event LoanForeclosing(address indexed sender, uint blockNumber);\n    event LoanCancelled(address indexed sender, uint indexed loanId, uint blockNumber);\n    event NewLoanStatus(uint loanStatus);\n    event NewShareHolder(address indexed sharesSeller, address indexed newShareholder, uint indexed amount, uint blockNumber);\n    event AddShareHolderShares(address indexed sharesSeller, address indexed sharesBuyer, uint indexed amount, uint blockNumber);\n    event LoanClosingByBorrower(uint blockNumber);\n\n    //// Status = 0\n    constructor(address _sender,\n                uint _id, \n                uint _pairId, \n                uint _borrowedAskAmount, // as many decimals as the price is expressed\n                uint _rpbRate, \n                address _factoryAddress,\n                address _collToken,\n                address _lendToken,\n                address _tokenFeesCollector) public {\n        require(msg.sender!=address(0), \"Sender address not allowed\");\n        tokenDeployer = msg.sender;\n        require(_sender!=address(0), \"Sender address not allowed\");\n        borrowerAddress = _sender;\n        collateralToken = IERC20(_collToken); //i.e. JNT\n        lentToken = IERC20(_lendToken); //i.e. USDC\n        feesCollector = _tokenFeesCollector;\n        loanParams = IJFactory(_factoryAddress).getGeneralParams();\n        loanFees = IJFactory(_factoryAddress).getGeneralFees();\n        require(_rpbRate >= loanParams.minRpbRate, \"Interest too low!\");\n        commonParams.loanId = _id;\n        commonParams.rpbRate = _rpbRate;\n        commonParams.pairId = _pairId;\n        commonParams.borrowedAskAmount = _borrowedAskAmount;\n        commonParams.collDecimals = IJFactory(_factoryAddress).getPairBaseDecimals(_pairId); //collateral token decimals\n        commonParams.lendDecimals = IJFactory(_factoryAddress).getPairQuoteDecimals(_pairId); //lend token decimals\n        commonParams.initialCollateralRatio = getActualCollateralRatio();\n        commonParams.creationBlock = block.number;\n        loanStatus = Status.pending;\n        //Transfer ownership to facory address\n        transferOwnership(loanParams.factoryAddress);\n        emit LoanContractDeployed(commonParams.creationBlock, commonParams.borrowedAskAmount, _collToken);\n    }\n\n    modifier onlyTokenDeployer() {\n        require(msg.sender == tokenDeployer, \"Caller is not a valid deployer!\");\n        _;\n    }\n\n    //// Other functions\n    /**\n    * @dev set common parameters in loan contract, reading them from factory\n    */\n    function setNewCommonParams() external onlyTokenDeployer {\n        loanParams = IJFactory(loanParams.factoryAddress).getGeneralParams();\n    }\n\n    /**\n    * @dev set common parameters in loan contract, reading them from factory\n    */\n    function setNewFeesParams() external onlyTokenDeployer {\n        loanFees = IJFactory(loanParams.factoryAddress).getGeneralFees();\n    }\n\n    /**\n    * @dev deposit collateral tokens\n    * @param _tok ERC20 address\n    * @param _tokAmount token amount\n    */\n    function depositCollateral(address _tok, uint _tokAmount) public {\n        require(loanStatus >= Status.active && loanStatus <= Status.foreClosing, \"Loan status cannot receive collateral\");\n        require ( address(collateralToken) == address(_tok), \"Token type not correct\" );\n        require(collateralToken.balanceOf(msg.sender) >= _tokAmount, \"Not enough tokens in sender wallet\");\n        uint256 allowance = collateralToken.allowance(msg.sender, address(this));\n        require(allowance >= _tokAmount, \"Check the token allowance\");\n        TransferHelper.safeTransferFrom(_tok, msg.sender, address(this), _tokAmount);\n        uint status = setLoanStatusOnCollRatio();\n        lastDepositBlock = block.number;\n        emit NewDeposit(_tokAmount, status);\n    }\n\n    /**\n    * @dev withdraw ethers from contract, every shareholder with his percentage\n    * in closing, in cancelled, in foreclosed\n    */\n    /*function withdrawTokens() public nonReentrant {\n        require(loanStatus >= Status.closed, \"Loan status not compatible with foreclosing actions\" );\n        require(isShareHolder(msg.sender), \"Address requiring interest withdraw not allow\"); \n        //require(block.number > loanActiveBlock + loanParams.earlySettlementWindow, \"Too short period after loan activation\");\n        for (uint8 i = 1; i <= shareHoldersCounter; i++) {\n            address shAddress = shareHolders[i].holder;\n            uint shPlace = getShareHolderPlace(shAddress);\n            uint shShares = shareHolders[shPlace].shares;\n            uint tokAmount = collateralToken.balanceOf(address(this)).mul(shShares).div(100);\n            shareHolders[shPlace].shares = 0;\n            TransferHelper.safeTransfer(address(collateralToken), shAddress, tokAmount);\n        }\n        emit TokenWithdraw(block.number);\n    }*/\n\n    /**\n    * @dev get contract balance\n    * @return balance\n    */\n    function getContractBalance() public view returns (uint) {\n        return collateralToken.balanceOf(address(this));\n    }\n\n    /**\n    * @dev get contract status\n    * @return status\n    */\n    function getLoanStatus() external view returns (uint) {\n        return uint(loanStatus);\n    }\n\n    /**\n    * @dev get pair price\n    * @return price\n    */\n    function getPairPrice() public view returns (uint) {\n        return IJFactory(loanParams.factoryAddress).getPairValue(commonParams.pairId);\n    }\n\n    /**\n    * @dev get pair decimals\n    * @return number of decimals\n    */\n    function getPairDecimals() public view returns (uint){\n        return IJFactory(loanParams.factoryAddress).getPairDecimals(commonParams.pairId);\n    }\n\n    /**\n    * @dev check if loan is in early settlement period\n    * @return boolean\n    */\n    function checkEarlySettledLoan() public view returns (bool) {\n        return loanStatus == Status.earlyClosing;\n    }\n\n    /**\n    * @dev get the collateral ratio of the loan (subtracting the accrued interests)\n    * @return newCollRatio collateral ratio\n    */\n    function getActualCollateralRatio() public view returns (uint newCollRatio) {\n        //require(uint(loanStatus) >= 1, \"Loan status not allowed\");\n        uint newPrice = getPairPrice();\n        uint pairDecimals = getPairDecimals();\n        uint borrAmnt = commonParams.borrowedAskAmount;\n        uint loanBalance;\n        if (loanStatus == Status.pending)\n            loanBalance = collateralToken.balanceOf(address(this));\n        else\n            loanBalance = (collateralToken.balanceOf(address(this))).sub(getAccruedInterests());\n        if (commonParams.collDecimals >= commonParams.lendDecimals) {\n            uint diffBaseQuoteDecimals = uint(commonParams.collDecimals).sub(uint(commonParams.lendDecimals));\n            newCollRatio = loanBalance.mul(newPrice).div(borrAmnt).mul(100).div(10 ** pairDecimals).div(10 ** diffBaseQuoteDecimals);\n        } else {\n            uint diffBaseQuoteDecimals = uint(commonParams.lendDecimals).sub(uint(commonParams.collDecimals));\n            newCollRatio = loanBalance.mul(newPrice).div(borrAmnt).mul(100).div(10 ** pairDecimals).mul(10 ** diffBaseQuoteDecimals);\n        }\n        return newCollRatio;\n    }\n\n    /**\n    * @dev calc a new ratio if collateral amount has added to contract balance\n    * @param _amount collateral amount to add\n    * @return ratio new collateral ratio\n    */\n    function calcRatioAddingCollateral(uint _amount) external view returns (uint ratio) {\n        uint bal = collateralToken.balanceOf(address(this));\n        uint newBal = bal.add(_amount);\n        uint actualPrice = getPairPrice();\n        uint pairDecimals = getPairDecimals();\n        uint borrAmnt = commonParams.borrowedAskAmount;\n        if (commonParams.collDecimals >= commonParams.lendDecimals) {\n            uint diffBaseQuoteDecimals = uint(commonParams.collDecimals).sub(uint(commonParams.lendDecimals));\n            ratio = newBal.mul(actualPrice).div(borrAmnt).mul(100).div(10 ** pairDecimals).div(10 ** diffBaseQuoteDecimals);\n        } else {\n            uint diffBaseQuoteDecimals = uint(commonParams.lendDecimals).sub(uint(commonParams.collDecimals));\n            ratio = newBal.mul(actualPrice).div(borrAmnt).mul(100).div(10 ** pairDecimals).mul(10 ** diffBaseQuoteDecimals);\n        }\n        return ratio;\n    }\n\n    /**\n    * @dev calc how much collateral amount has to be added to have a ratio\n    * @param _ratio ratio to reach, percentage with no decimals (180 means 180%)\n    * @return collDiff collateral amount to add or to subtract to reach that ratio\n    */\n    function calcCollAmountForRatio(uint _ratio) external view returns (uint collDiff) {\n        uint bal = address(this).balance;\n        uint actualPrice = getPairPrice();\n        uint pairDecimals = getPairDecimals();\n        uint newBal;\n        uint newRatio = _ratio;\n        uint borrAmnt = commonParams.borrowedAskAmount;\n        if (commonParams.collDecimals >= commonParams.lendDecimals) {\n            uint diffBaseQuoteDecimals = uint(commonParams.collDecimals).sub(uint(commonParams.lendDecimals));\n            newBal = borrAmnt.mul(newRatio).mul(10 ** pairDecimals).div(actualPrice).div(100).mul(10 ** diffBaseQuoteDecimals);\n        } else {\n            uint diffBaseQuoteDecimals = uint(commonParams.lendDecimals).sub(uint(commonParams.collDecimals));\n            newBal = borrAmnt.mul(newRatio).mul(10 ** pairDecimals).div(actualPrice).div(100).div(10 ** diffBaseQuoteDecimals);\n        }\n        if (newBal >= bal)\n            collDiff = newBal.sub(bal);\n        else\n            collDiff = bal.sub(newBal);\n        return collDiff;\n    }\n\n    //// Status 0 -> 1\n    /**\n    * @dev lender sends required stable coins to borrower and set the initial lender as a stakeholder (100%)\n    * @param _stableAddr, address of the stabl coin address\n    */\n    function lenderSendStableCoins(address _stableAddr) external nonReentrant {\n        require(msg.sender != address(0), \"Address not allowed\");\n        require(_stableAddr == address(lentToken), \"Token not allowed\");\n        require(lentToken.balanceOf(msg.sender) >= commonParams.borrowedAskAmount, \"Not enough tokens on lender balance\");\n        require(loanStatus == Status.pending, \"Incorrect status\");\n        uint askAmount = commonParams.borrowedAskAmount;\n        uint256 allowance = IERC20(_stableAddr).allowance(msg.sender, address(this));\n        require(allowance >= askAmount, \"Check the token allowance\");\n        loanActiveBlock = block.number;\n        loanStatus = Status.active;\n        shareHoldersCounter = 1;\n        shareHolders[shareHoldersCounter] = ShareHolder({holder: msg.sender, shares: 100, ownerBlockNumber: loanActiveBlock});\n        shareHoldersAddress[msg.sender] = true;\n        shareHoldersPlace[msg.sender] = shareHoldersCounter;\n        lastInterestWithdrawalBlock = block.number;\n        TransferHelper.safeTransferFrom(_stableAddr, msg.sender, borrowerAddress, askAmount);\n        // move factory fees only when loan becomes active\n        uint contractCollateralAmount = IJFactory(loanParams.factoryAddress).calcMinCollateralAmount(commonParams.pairId, commonParams.borrowedAskAmount);\n        uint feesCollateralAmount = IJFactory(loanParams.factoryAddress).calculateCollFeesOnActivation(contractCollateralAmount);\n        TransferHelper.safeTransfer(address(collateralToken), feesCollector, feesCollateralAmount);\n        emit LenderAccepted(msg.sender, feesCollateralAmount, loanActiveBlock);\n    }\n\n    //// Status 1 or 2 or 3, based on collateral ratio\n    /**\n    * @dev set the status of the loan based on collateral ratio\n    * @return loan status\n    */\n    function setLoanStatusOnCollRatio() public returns (uint){\n        if (uint(loanStatus) > 0 && uint(loanStatus) < 5) {     //Loan not active or foreclosed or in closing status or closed\n            uint newCollRatio = getActualCollateralRatio(); // it leaves only 3 significant digits (i.e. 180 means 180%)\n            if ( newCollRatio >= loanParams.foreclosingRatio) {\n                loanStatus = Status(1);\n                loanForeclosingBlock = 0;   //reset foreclosing block\n            } else if ( newCollRatio <= loanParams.foreclosingRatio && newCollRatio >= loanParams.instantForeclosureRatio ) {\n                loanStatus = Status(2);\n            } else if ( newCollRatio < loanParams.instantForeclosureRatio ) {\n                loanStatus = Status(3);\n            }  \n        }\n        // else no change on status\n        emit NewLoanStatus(uint(loanStatus));\n        return uint(loanStatus);\n    }\n\n    //// Status 4 or 5, starting from 2 or 3, depending on collateral ratio\n    /**\n    * @dev set the loan in foreclosure state for undercollateralized loans (tbd: reward for caller)\n    */\n    function initiateLoanForeClose() external {\n        uint status = setLoanStatusOnCollRatio();\n        require(status == 2 || status == 3, \"Loan status not compatible with foreclosing actions\");\n        uint reward;\n        if (status == 2) {\n            reward = (loanFees.undercollateralizedForeclosingMultiple).mul(commonParams.rpbRate);\n            setLoanForeclosing();\n        } else {\n            reward = (loanFees.atRiskForeclosedMultiple).mul(commonParams.rpbRate);\n            setLoanForeclosed();\n        }\n        require(collateralToken.balanceOf(address(this)) >= reward, \"Not enough tokens in loan contract\");\n        TransferHelper.safeTransfer(address(collateralToken), msg.sender, reward.mul(loanFees.userRewardShare).div(100));\n        TransferHelper.safeTransfer(address(collateralToken), msg.sender, reward.mul(loanFees.vaultShare).div(100));\n        loanInitiateForeCloseBlock = block.number;\n        emit InitiateForeClosure(msg.sender, loanInitiateForeCloseBlock);\n    }\n\n    //// Status 2 -> 4\n    /**\n    * @dev set the loan in foreclosure state for undercollateralized loans\n    */\n    function setLoanForeclosing() internal {\n        loanStatus = Status.foreClosing;\n        // get the block to calculate time to set it in foreclosed if no actions from the borrower\n        loanForeclosingBlock = block.number;\n        emit LoanForeclosing(msg.sender, block.number);\n    }\n\n    /**\n    * @dev set the loan in foreclosed state when foreclosureWindow time passed\n    */\n    function setLoanInForeclosedByTime() external returns (bool) {\n        require(uint(loanStatus) == 4, \"Loan Status incorrect\");\n        bool result = false;\n        if (loanForeclosingBlock != 0 && block.number >= loanForeclosingBlock.add(loanParams.foreclosureWindow)) {\n            setLoanForeclosed();\n            result = true;\n        }\n        return result;\n    }\n\n    //// Status 2 -> 5\n    /**\n    * @dev set the loan in foreclosure state for undercollateralized loans\n    */\n    function setLoanForeclosed() internal {\n        /*uint interestsAmount = getAccruedInterests();\n        for (uint8 i = 1; i <= shareHoldersCounter; i++) {\n            uint shPlace = getShareHolderPlace(shareHolders[i].holder);\n            uint shShares = shareHolders[shPlace].shares;\n            TransferHelper.safeTransfer(address(collateralToken), shareHolders[i].holder, interestsAmount.mul(shShares).div(100));\n        }*/\n        loanForeclosedBlock = block.number;\n        loanStatus = Status.foreClosed;\n        emit LoanForeclosed(msg.sender, block.number);\n    }\n\n    //// Status = 6\n    function loanEarlyClosing() internal returns (uint) {\n        require(block.number < loanActiveBlock + loanParams.earlySettlementWindow, \"Incongruent status\");\n        loanStatus = Status.earlyClosing;\n        uint balanceRequested = (loanParams.earlySettlementWindow).mul(commonParams.rpbRate);\n        return balanceRequested;\n    }\n\n    //// Status = 7\n    /**\n    * @dev settle the loan in normal closing state by borrower\n    */\n    function loanClosingByBorrower() external nonReentrant {\n        require(msg.sender == borrowerAddress, \"Caller not the borrower\");\n        require(uint(loanStatus) > 0 && uint(loanStatus) <= 3, \"Loan status not compatible with closing actions\");\n        // check that borrower gives back the loaned stable coin amount and transfer collateral to borrower\n        uint256 allowance = lentToken.allowance(msg.sender, address(this));\n        require(allowance >= commonParams.borrowedAskAmount, \"Check the token allowance to settle the loan\");\n        //TransferHelper.safeTransferFrom(address(lentToken), msg.sender, address(this), commonParams.borrowedAskAmount);\n        for (uint8 i = 1; i <= shareHoldersCounter; i++) {\n            address shAddress = shareHolders[i].holder;\n            uint shPlace = getShareHolderPlace(shareHolders[i].holder);\n            uint shShares = shareHolders[shPlace].shares;\n            shareHolders[shPlace].shares = 0;\n            shareHoldersAddress[shareHolders[i].holder] = false;\n            TransferHelper.safeTransferFrom(address(lentToken), msg.sender, shAddress, (commonParams.borrowedAskAmount).mul(shShares).div(100));\n        }\n        uint balanceRequested;\n        if (block.number < loanActiveBlock + loanParams.earlySettlementWindow)\n            balanceRequested = loanEarlyClosing();\n        else\n            balanceRequested = getAccruedInterests();\n        uint feesAmount = 0;\n        if (loanStatus == Status.earlyClosing)\n            feesAmount = (loanFees.earlySettlementFee).mul(commonParams.rpbRate);\n        uint bal = collateralToken.balanceOf(address(this));\n        uint requestedAmount = balanceRequested.add(feesAmount);\n        // check if there are enough collateral\n        if (bal >= requestedAmount) {\n            TransferHelper.safeTransfer(address(collateralToken), feesCollector, feesAmount);\n            // borrower receive back collateral\n            uint withdrawalBalance = bal.sub(requestedAmount); \n            TransferHelper.safeTransfer(address(collateralToken), msg.sender, withdrawalBalance);\n        } else if (bal >= feesAmount) {\n            TransferHelper.safeTransfer(address(collateralToken), feesCollector, feesAmount);\n            // borrower doesnt receive any collateral, what reamins it is ditributed to lender(s) as the RPB\n        }\n        loanClosingBlock = block.number;\n        loanStatus = Status.closing;\n        emit LoanClosingByBorrower(loanClosingBlock);\n    }\n\n    //// Status = 8\n    /**\n    * @dev set the loan in closed state, let Shareholders to withdraw the stable coins back\n    */\n    function setLoanClosed() internal {\n        require(isShareHolder(msg.sender), \"Not a shareholder\");\n        require(uint(loanStatus) >= 6, \"Loan status not compatible with close actions\");\n        loanClosedBlock = block.number;\n        loanStatus = Status.closed;\n    }\n\n    //// Status = 9\n    /**\n    * @dev set the loan in cancelled state (only if pending)\n    */\n    function setLoanCancelled() external {\n        require(msg.sender == borrowerAddress, \"Cancel request not allowed\");\n        require(uint(loanStatus) == 0, \"Loan status not compatible with cancel actions\");\n        uint feeCanc = (lentToken.balanceOf(address(this))).mul(loanFees.cancellationFees).div(100);\n        TransferHelper.safeTransfer(address(lentToken), feesCollector, feeCanc);\n        uint withdrawalBalance = (lentToken.balanceOf(address(this))).sub(feeCanc);\n        TransferHelper.safeTransfer(address(lentToken), msg.sender, withdrawalBalance);\n        loanStatus = Status.cancelled;\n        emit LoanCancelled(msg.sender, commonParams.loanId, block.number);\n    }\n\n    \n    //// Calculating interests functions\n    /**\n    * @dev calculate accrued interests of the contract\n    * @return accrued interests\n    */\n    function calculatingAccruedInterests(uint _calcBlk) public view returns (uint) {\n        require(_calcBlk >= lastInterestWithdrawalBlock, \"Block number not allowed\");\n        return _calcBlk.sub(lastInterestWithdrawalBlock).mul(commonParams.rpbRate);  \n    }\n\n    /**\n    * @dev get accrued interests of the contract\n    * @return accruedInterests total accrued interests\n    */\n    function getAccruedInterests() public view returns (uint accruedInterests) {\n        require(uint(loanStatus) > 0 && uint(loanStatus) < 8, \"Loan status not calculating interests\");\n        //require(isShareHolder(msg.sender), \"Caller not allowed\");\n        uint lastEarlyBlock = loanActiveBlock.add(loanParams.earlySettlementWindow);\n        if (loanStatus == Status.earlyClosing && block.number >= lastEarlyBlock) {\n            accruedInterests = calculatingAccruedInterests(lastEarlyBlock);\n        } else {\n            if (loanClosedBlock != 0)\n                accruedInterests = calculatingAccruedInterests(Math.min(loanClosedBlock, block.number));\n            else\n                accruedInterests = calculatingAccruedInterests(block.number);\n        }\n        if ( accruedInterests > collateralToken.balanceOf(address(this)) )\n            accruedInterests = collateralToken.balanceOf(address(this));\n        return accruedInterests;\n    }\n\n    /**\n    * @dev withdraw accreud interests for all shareholders and set the status after interests withdrawal\n    * @return new status\n    */\n    function withdrawInterests() public nonReentrant returns (uint) {\n        // interests of all shareholders must be withdrawn with their shares amount\n        require(uint(loanStatus) > 0 && uint(loanStatus) < 8, \"Loan status not compatible with withdraw accrued interests actions\" );\n        //require(block.number > loanActiveBlock + loanParams.earlySettlementWindow, \"Too short period after loan activation\");\n        uint status = uint(loanStatus);\n        uint bal = address(this).balance;\n        uint accruedTotalInterests = getAccruedInterests();\n        if (bal >= accruedTotalInterests) {\n            for (uint8 i = 1; i <= shareHoldersCounter; i++) {\n                shareholderWithdrawInterests(shareHolders[i].holder, accruedTotalInterests);\n            }\n            lastInterestWithdrawalBlock = block.number;\n            if (status <= 3)\n                status = setLoanStatusOnCollRatio();\n        } else if (bal == 0) {\n            setLoanClosed();\n        } else {\n            for (uint8 i = 1; i <= shareHoldersCounter; i++) {\n                shareholderWithdrawInterests(shareHolders[i].holder, bal);\n            }\n            lastInterestWithdrawalBlock = block.number;\n            loanClosedBlock = block.number;\n            status = uint(Status.closed);\n        }\n        return status;\n    }\n\n    /**\n    * @dev withdraw accreud interests and set the status after interests withdrawal\n    * @param _shareHolder shareholder address\n    */\n    function shareholderWithdrawInterests(address _shareHolder, uint _accruedTotalInterests) internal {\n        require(isShareHolder(_shareHolder), \"Address is not a shareholder\"); \n        for (uint8 i = 1; i <= shareHoldersCounter; i++) {\n            uint shPlace = getShareHolderPlace(shareHolders[i].holder);\n            uint shShares = shareHolders[shPlace].shares;\n            TransferHelper.safeTransfer(address(collateralToken), _shareHolder, _accruedTotalInterests.mul(shShares).div(100));\n        } \n    }\n\n    //// Shareholders functions\n    /**\n    * @dev check if an address is a shareholder\n    * @return boolean\n    */\n    function isShareHolder(address _holder) public view returns (bool) {\n        return shareHoldersAddress[_holder];\n    }\n\n    /**\n    * @dev get a shareholder place in shareholders array\n    * @return boolean\n    */\n    function getShareHolderPlace(address _holder) public view returns (uint) {\n        return shareHoldersPlace[_holder];\n    }\n\n    /**\n    * @dev add shareholder in shareholders arrays\n    * @param _newShareholder buyer address\n    * @param _amount amount of shares\n    * @return new status\n    */\n    function addLoanShareHolders(address _newShareholder, uint _amount) public nonReentrant returns (uint) {\n        require(isShareHolder(msg.sender), \"Address is not a shareholder\");\n        uint shPlace = getShareHolderPlace(msg.sender);\n        require(shPlace > 0, \"Shareholder not found\");\n        require(shareHolders[shPlace].shares >= _amount, \"Shareholder has not enough shares to sell\");\n        //before shares could be selled, interests of all shareholders must be withdrawn with old shares amount, in order to start with a new situation\n        require(block.number > loanActiveBlock + loanParams.earlySettlementWindow, \"Too short period after loan activation\");\n        uint interestsAmount = getAccruedInterests();\n        for (uint8 i = 1; i <= shareHoldersCounter; i++) {\n            shareholderWithdrawInterests(shareHolders[i].holder, interestsAmount);\n        }\n\n        shareHolders[shPlace].shares = shareHolders[shPlace].shares.sub(_amount);\n        if(!isShareHolder(_newShareholder)) {\n            shareHoldersCounter = shareHoldersCounter.add(1);\n            shareHolders[shareHoldersCounter] = ShareHolder({holder: _newShareholder, shares: _amount, ownerBlockNumber: block.number});\n            shareHoldersAddress[_newShareholder] = true;\n            shareHoldersPlace[_newShareholder] = shareHoldersCounter;\n            emit NewShareHolder(msg.sender, _newShareholder, _amount, block.number);\n        } else {\n            uint shPlaceNew = getShareHolderPlace(_newShareholder);\n            shareHolders[shPlaceNew].shares = shareHolders[shPlaceNew].shares.add(_amount);\n            shareHolders[shPlaceNew].ownerBlockNumber = block.number;\n            emit AddShareHolderShares(msg.sender, _newShareholder, _amount, block.number);\n        }  \n\n        lastInterestWithdrawalBlock = block.number;\n        uint status = setLoanStatusOnCollRatio();\n        return status;\n    }\n\n}",
  "sourcePath": "C:\\Users\\saurabh\\code\\Jibrel\\defi-smartcontracts\\LoansFactoryV2\\contracts\\JLoanToken.sol",
  "compiler": {
    "name": "solc",
    "version": "0.6.11+commit.5ef660b1.Emscripten.clang"
  },
  "schemaVersion": "3.2.5",
  "updatedAt": "2020-10-11T06:28:08.821Z",
  "devdoc": {
    "kind": "dev",
    "methods": {
      "addLoanShareHolders(address,uint256)": {
        "details": "add shareholder in shareholders arrays",
        "params": {
          "_amount": "amount of shares",
          "_newShareholder": "buyer address"
        },
        "returns": {
          "_0": "new status"
        }
      },
      "calcCollAmountForRatio(uint256)": {
        "details": "calc how much collateral amount has to be added to have a ratio",
        "params": {
          "_ratio": "ratio to reach, percentage with no decimals (180 means 180%)"
        },
        "returns": {
          "collDiff": "collateral amount to add or to subtract to reach that ratio"
        }
      },
      "calcRatioAddingCollateral(uint256)": {
        "details": "calc a new ratio if collateral amount has added to contract balance",
        "params": {
          "_amount": "collateral amount to add"
        },
        "returns": {
          "ratio": "new collateral ratio"
        }
      },
      "calculatingAccruedInterests(uint256)": {
        "details": "calculate accrued interests of the contract",
        "returns": {
          "_0": "accrued interests"
        }
      },
      "checkEarlySettledLoan()": {
        "details": "check if loan is in early settlement period",
        "returns": {
          "_0": "boolean"
        }
      },
      "depositCollateral(address,uint256)": {
        "details": "deposit collateral tokens",
        "params": {
          "_tok": "ERC20 address",
          "_tokAmount": "token amount"
        }
      },
      "getAccruedInterests()": {
        "details": "get accrued interests of the contract",
        "returns": {
          "accruedInterests": "total accrued interests"
        }
      },
      "getActualCollateralRatio()": {
        "details": "get the collateral ratio of the loan (subtracting the accrued interests)",
        "returns": {
          "newCollRatio": "collateral ratio"
        }
      },
      "getContractBalance()": {
        "details": "get contract balance",
        "returns": {
          "_0": "balance"
        }
      },
      "getLoanStatus()": {
        "details": "get contract status",
        "returns": {
          "_0": "status"
        }
      },
      "getPairDecimals()": {
        "details": "get pair decimals",
        "returns": {
          "_0": "number of decimals"
        }
      },
      "getPairPrice()": {
        "details": "get pair price",
        "returns": {
          "_0": "price"
        }
      },
      "getShareHolderPlace(address)": {
        "details": "get a shareholder place in shareholders array",
        "returns": {
          "_0": "boolean"
        }
      },
      "initiateLoanForeClose()": {
        "details": "set the loan in foreclosure state for undercollateralized loans (tbd: reward for caller)"
      },
      "isShareHolder(address)": {
        "details": "check if an address is a shareholder",
        "returns": {
          "_0": "boolean"
        }
      },
      "lenderSendStableCoins(address)": {
        "details": "lender sends required stable coins to borrower and set the initial lender as a stakeholder (100%)",
        "params": {
          "_stableAddr": ", address of the stabl coin address"
        }
      },
      "loanClosingByBorrower()": {
        "details": "settle the loan in normal closing state by borrower"
      },
      "owner()": {
        "details": "Returns the address of the current owner."
      },
      "renounceOwnership()": {
        "details": "Leaves the contract without owner. It will not be possible to call `onlyOwner` functions anymore. Can only be called by the current owner. NOTE: Renouncing ownership will leave the contract without an owner, thereby removing any functionality that is only available to the owner."
      },
      "setLoanCancelled()": {
        "details": "set the loan in cancelled state (only if pending)"
      },
      "setLoanInForeclosedByTime()": {
        "details": "set the loan in foreclosed state when foreclosureWindow time passed"
      },
      "setLoanStatusOnCollRatio()": {
        "details": "set the status of the loan based on collateral ratio",
        "returns": {
          "_0": "loan status"
        }
      },
      "setNewCommonParams()": {
        "details": "set common parameters in loan contract, reading them from factory"
      },
      "setNewFeesParams()": {
        "details": "set common parameters in loan contract, reading them from factory"
      },
      "transferOwnership(address)": {
        "details": "Transfers ownership of the contract to a new account (`newOwner`). Can only be called by the current owner."
      },
      "withdrawInterests()": {
        "details": "withdraw accreud interests for all shareholders and set the status after interests withdrawal",
        "returns": {
          "_0": "new status"
        }
      }
    },
    "version": 1
  },
  "userdoc": {
    "kind": "user",
    "methods": {},
    "version": 1
  }
}