{
  "contractName": "JLoanEth",
  "abi": [
    {
      "inputs": [
        {
          "internalType": "address",
          "name": "_sender",
          "type": "address"
        },
        {
          "internalType": "uint256",
          "name": "_id",
          "type": "uint256"
        },
        {
          "internalType": "uint256",
          "name": "_pairId",
          "type": "uint256"
        },
        {
          "internalType": "uint256",
          "name": "_borrowedAskAmount",
          "type": "uint256"
        },
        {
          "internalType": "uint256",
          "name": "_rpbRate",
          "type": "uint256"
        },
        {
          "internalType": "address",
          "name": "_factoryAddress",
          "type": "address"
        },
        {
          "internalType": "address",
          "name": "_lendCrypto",
          "type": "address"
        },
        {
          "internalType": "address payable",
          "name": "_ethFeesCollector",
          "type": "address"
        }
      ],
      "stateMutability": "payable",
      "type": "constructor"
    },
    {
      "anonymous": false,
      "inputs": [
        {
          "indexed": true,
          "internalType": "address",
          "name": "sharesSeller",
          "type": "address"
        },
        {
          "indexed": true,
          "internalType": "address",
          "name": "sharesBuyer",
          "type": "address"
        },
        {
          "indexed": true,
          "internalType": "uint256",
          "name": "amount",
          "type": "uint256"
        },
        {
          "indexed": false,
          "internalType": "uint256",
          "name": "blockNumber",
          "type": "uint256"
        }
      ],
      "name": "AddShareHolderShares",
      "type": "event"
    },
    {
      "anonymous": false,
      "inputs": [
        {
          "indexed": false,
          "internalType": "address",
          "name": "sender",
          "type": "address"
        },
        {
          "indexed": false,
          "internalType": "uint256",
          "name": "value",
          "type": "uint256"
        }
      ],
      "name": "EthReceived",
      "type": "event"
    },
    {
      "anonymous": false,
      "inputs": [
        {
          "indexed": false,
          "internalType": "uint256",
          "name": "blockNumber",
          "type": "uint256"
        }
      ],
      "name": "EthWithdraw",
      "type": "event"
    },
    {
      "anonymous": false,
      "inputs": [
        {
          "indexed": true,
          "internalType": "address",
          "name": "sender",
          "type": "address"
        },
        {
          "indexed": false,
          "internalType": "uint256",
          "name": "blockNumber",
          "type": "uint256"
        }
      ],
      "name": "InitiateForeClosure",
      "type": "event"
    },
    {
      "anonymous": false,
      "inputs": [
        {
          "indexed": false,
          "internalType": "uint256",
          "name": "accruedInterests",
          "type": "uint256"
        },
        {
          "indexed": false,
          "internalType": "uint256",
          "name": "blockNumber",
          "type": "uint256"
        }
      ],
      "name": "InterestsWithdrawed",
      "type": "event"
    },
    {
      "anonymous": false,
      "inputs": [
        {
          "indexed": true,
          "internalType": "address",
          "name": "lenderAddress",
          "type": "address"
        },
        {
          "indexed": false,
          "internalType": "uint256",
          "name": "factoryFees",
          "type": "uint256"
        },
        {
          "indexed": false,
          "internalType": "uint256",
          "name": "loanActiveBlock",
          "type": "uint256"
        }
      ],
      "name": "LenderAccepted",
      "type": "event"
    },
    {
      "anonymous": false,
      "inputs": [
        {
          "indexed": true,
          "internalType": "address",
          "name": "sender",
          "type": "address"
        },
        {
          "indexed": false,
          "internalType": "uint256",
          "name": "blockNumber",
          "type": "uint256"
        }
      ],
      "name": "LoanAtRiskFromForeclosing",
      "type": "event"
    },
    {
      "anonymous": false,
      "inputs": [
        {
          "indexed": true,
          "internalType": "address",
          "name": "sender",
          "type": "address"
        },
        {
          "indexed": true,
          "internalType": "uint256",
          "name": "loanId",
          "type": "uint256"
        },
        {
          "indexed": false,
          "internalType": "uint256",
          "name": "blockNumber",
          "type": "uint256"
        }
      ],
      "name": "LoanCancelled",
      "type": "event"
    },
    {
      "anonymous": false,
      "inputs": [
        {
          "indexed": false,
          "internalType": "uint256",
          "name": "blockNumber",
          "type": "uint256"
        }
      ],
      "name": "LoanClosed",
      "type": "event"
    },
    {
      "anonymous": false,
      "inputs": [
        {
          "indexed": false,
          "internalType": "uint256",
          "name": "blockNumber",
          "type": "uint256"
        }
      ],
      "name": "LoanClosingByBorrower",
      "type": "event"
    },
    {
      "anonymous": false,
      "inputs": [
        {
          "indexed": false,
          "internalType": "uint256",
          "name": "creationBlock",
          "type": "uint256"
        },
        {
          "indexed": false,
          "internalType": "uint256",
          "name": "value",
          "type": "uint256"
        },
        {
          "indexed": false,
          "internalType": "uint256",
          "name": "coll",
          "type": "uint256"
        },
        {
          "indexed": false,
          "internalType": "string",
          "name": "eth",
          "type": "string"
        }
      ],
      "name": "LoanContractDeployed",
      "type": "event"
    },
    {
      "anonymous": false,
      "inputs": [
        {
          "indexed": true,
          "internalType": "address",
          "name": "sender",
          "type": "address"
        },
        {
          "indexed": false,
          "internalType": "uint256",
          "name": "blockNumber",
          "type": "uint256"
        }
      ],
      "name": "LoanForeclosed",
      "type": "event"
    },
    {
      "anonymous": false,
      "inputs": [
        {
          "indexed": true,
          "internalType": "address",
          "name": "sender",
          "type": "address"
        },
        {
          "indexed": false,
          "internalType": "uint256",
          "name": "blockNumber",
          "type": "uint256"
        }
      ],
      "name": "LoanForeclosing",
      "type": "event"
    },
    {
      "anonymous": false,
      "inputs": [
        {
          "indexed": false,
          "internalType": "uint256",
          "name": "depositAmount",
          "type": "uint256"
        }
      ],
      "name": "NewDeposit",
      "type": "event"
    },
    {
      "anonymous": false,
      "inputs": [
        {
          "indexed": false,
          "internalType": "uint256",
          "name": "loanStatus",
          "type": "uint256"
        }
      ],
      "name": "NewLoanStatus",
      "type": "event"
    },
    {
      "anonymous": false,
      "inputs": [
        {
          "indexed": true,
          "internalType": "address",
          "name": "sharesSeller",
          "type": "address"
        },
        {
          "indexed": true,
          "internalType": "address",
          "name": "newShareholder",
          "type": "address"
        },
        {
          "indexed": true,
          "internalType": "uint256",
          "name": "amount",
          "type": "uint256"
        },
        {
          "indexed": false,
          "internalType": "uint256",
          "name": "blockNumber",
          "type": "uint256"
        }
      ],
      "name": "NewShareHolder",
      "type": "event"
    },
    {
      "anonymous": false,
      "inputs": [
        {
          "indexed": true,
          "internalType": "address",
          "name": "previousOwner",
          "type": "address"
        },
        {
          "indexed": true,
          "internalType": "address",
          "name": "newOwner",
          "type": "address"
        }
      ],
      "name": "OwnershipTransferred",
      "type": "event"
    },
    {
      "stateMutability": "payable",
      "type": "fallback"
    },
    {
      "inputs": [],
      "name": "borrowerAddress",
      "outputs": [
        {
          "internalType": "address",
          "name": "",
          "type": "address"
        }
      ],
      "stateMutability": "view",
      "type": "function"
    },
    {
      "inputs": [],
      "name": "commonParams",
      "outputs": [
        {
          "internalType": "uint256",
          "name": "loanId",
          "type": "uint256"
        },
        {
          "internalType": "uint256",
          "name": "rpbRate",
          "type": "uint256"
        },
        {
          "internalType": "uint256",
          "name": "initialCollateralRatio",
          "type": "uint256"
        },
        {
          "internalType": "uint256",
          "name": "creationBlock",
          "type": "uint256"
        },
        {
          "internalType": "uint256",
          "name": "pairId",
          "type": "uint256"
        },
        {
          "internalType": "uint256",
          "name": "borrowedAskAmount",
          "type": "uint256"
        },
        {
          "internalType": "uint8",
          "name": "collDecimals",
          "type": "uint8"
        },
        {
          "internalType": "uint8",
          "name": "lendDecimals",
          "type": "uint8"
        }
      ],
      "stateMutability": "view",
      "type": "function"
    },
    {
      "inputs": [],
      "name": "ethDeployer",
      "outputs": [
        {
          "internalType": "address",
          "name": "",
          "type": "address"
        }
      ],
      "stateMutability": "view",
      "type": "function"
    },
    {
      "inputs": [],
      "name": "feesCollector",
      "outputs": [
        {
          "internalType": "address payable",
          "name": "",
          "type": "address"
        }
      ],
      "stateMutability": "view",
      "type": "function"
    },
    {
      "inputs": [],
      "name": "lastDepositBlock",
      "outputs": [
        {
          "internalType": "uint256",
          "name": "",
          "type": "uint256"
        }
      ],
      "stateMutability": "view",
      "type": "function"
    },
    {
      "inputs": [],
      "name": "lastInterestWithdrawalBlock",
      "outputs": [
        {
          "internalType": "uint256",
          "name": "",
          "type": "uint256"
        }
      ],
      "stateMutability": "view",
      "type": "function"
    },
    {
      "inputs": [],
      "name": "lentToken",
      "outputs": [
        {
          "internalType": "contract IERC20",
          "name": "",
          "type": "address"
        }
      ],
      "stateMutability": "view",
      "type": "function"
    },
    {
      "inputs": [],
      "name": "loanActiveBlock",
      "outputs": [
        {
          "internalType": "uint256",
          "name": "",
          "type": "uint256"
        }
      ],
      "stateMutability": "view",
      "type": "function"
    },
    {
      "inputs": [],
      "name": "loanClosedBlock",
      "outputs": [
        {
          "internalType": "uint256",
          "name": "",
          "type": "uint256"
        }
      ],
      "stateMutability": "view",
      "type": "function"
    },
    {
      "inputs": [],
      "name": "loanClosingBlock",
      "outputs": [
        {
          "internalType": "uint256",
          "name": "",
          "type": "uint256"
        }
      ],
      "stateMutability": "view",
      "type": "function"
    },
    {
      "inputs": [],
      "name": "loanFees",
      "outputs": [
        {
          "internalType": "uint256",
          "name": "factoryFees",
          "type": "uint256"
        },
        {
          "internalType": "uint256",
          "name": "earlySettlementFee",
          "type": "uint256"
        },
        {
          "internalType": "uint256",
          "name": "userRewardShare",
          "type": "uint256"
        },
        {
          "internalType": "uint256",
          "name": "vaultShare",
          "type": "uint256"
        },
        {
          "internalType": "uint256",
          "name": "undercollateralizedForeclosingMultiple",
          "type": "uint256"
        },
        {
          "internalType": "uint256",
          "name": "atRiskForeclosedMultiple",
          "type": "uint256"
        },
        {
          "internalType": "uint256",
          "name": "cancellationFees",
          "type": "uint256"
        }
      ],
      "stateMutability": "view",
      "type": "function"
    },
    {
      "inputs": [],
      "name": "loanForeclosedBlock",
      "outputs": [
        {
          "internalType": "uint256",
          "name": "",
          "type": "uint256"
        }
      ],
      "stateMutability": "view",
      "type": "function"
    },
    {
      "inputs": [],
      "name": "loanForeclosingBlock",
      "outputs": [
        {
          "internalType": "uint256",
          "name": "",
          "type": "uint256"
        }
      ],
      "stateMutability": "view",
      "type": "function"
    },
    {
      "inputs": [],
      "name": "loanInitiateForeCloseBlock",
      "outputs": [
        {
          "internalType": "uint256",
          "name": "",
          "type": "uint256"
        }
      ],
      "stateMutability": "view",
      "type": "function"
    },
    {
      "inputs": [],
      "name": "loanParams",
      "outputs": [
        {
          "internalType": "uint256",
          "name": "minRpbRate",
          "type": "uint256"
        },
        {
          "internalType": "uint256",
          "name": "earlySettlementWindow",
          "type": "uint256"
        },
        {
          "internalType": "uint256",
          "name": "foreclosureWindow",
          "type": "uint256"
        },
        {
          "internalType": "uint256",
          "name": "requiredCollateralRatio",
          "type": "uint256"
        },
        {
          "internalType": "uint256",
          "name": "foreclosingRatio",
          "type": "uint256"
        },
        {
          "internalType": "uint256",
          "name": "instantForeclosureRatio",
          "type": "uint256"
        },
        {
          "internalType": "address",
          "name": "factoryAddress",
          "type": "address"
        },
        {
          "internalType": "address",
          "name": "ethDeployerAddress",
          "type": "address"
        },
        {
          "internalType": "address",
          "name": "tokenDeployerAddress",
          "type": "address"
        }
      ],
      "stateMutability": "view",
      "type": "function"
    },
    {
      "inputs": [],
      "name": "loanStatus",
      "outputs": [
        {
          "internalType": "enum IJLoanCommons.Status",
          "name": "",
          "type": "uint8"
        }
      ],
      "stateMutability": "view",
      "type": "function"
    },
    {
      "inputs": [],
      "name": "owner",
      "outputs": [
        {
          "internalType": "address",
          "name": "",
          "type": "address"
        }
      ],
      "stateMutability": "view",
      "type": "function"
    },
    {
      "inputs": [],
      "name": "renounceOwnership",
      "outputs": [],
      "stateMutability": "nonpayable",
      "type": "function"
    },
    {
      "inputs": [
        {
          "internalType": "uint256",
          "name": "",
          "type": "uint256"
        }
      ],
      "name": "shareHolders",
      "outputs": [
        {
          "internalType": "address",
          "name": "holder",
          "type": "address"
        },
        {
          "internalType": "uint256",
          "name": "shares",
          "type": "uint256"
        },
        {
          "internalType": "uint256",
          "name": "ownerBlockNumber",
          "type": "uint256"
        }
      ],
      "stateMutability": "view",
      "type": "function"
    },
    {
      "inputs": [
        {
          "internalType": "address",
          "name": "",
          "type": "address"
        }
      ],
      "name": "shareHoldersAddress",
      "outputs": [
        {
          "internalType": "bool",
          "name": "",
          "type": "bool"
        }
      ],
      "stateMutability": "view",
      "type": "function"
    },
    {
      "inputs": [],
      "name": "shareHoldersCounter",
      "outputs": [
        {
          "internalType": "uint256",
          "name": "",
          "type": "uint256"
        }
      ],
      "stateMutability": "view",
      "type": "function"
    },
    {
      "inputs": [
        {
          "internalType": "address",
          "name": "",
          "type": "address"
        }
      ],
      "name": "shareHoldersPlace",
      "outputs": [
        {
          "internalType": "uint256",
          "name": "",
          "type": "uint256"
        }
      ],
      "stateMutability": "view",
      "type": "function"
    },
    {
      "inputs": [
        {
          "internalType": "address",
          "name": "newOwner",
          "type": "address"
        }
      ],
      "name": "transferOwnership",
      "outputs": [],
      "stateMutability": "nonpayable",
      "type": "function"
    },
    {
      "stateMutability": "payable",
      "type": "receive"
    },
    {
      "inputs": [],
      "name": "setNewCommonParams",
      "outputs": [],
      "stateMutability": "nonpayable",
      "type": "function"
    },
    {
      "inputs": [],
      "name": "setNewFeesParams",
      "outputs": [],
      "stateMutability": "nonpayable",
      "type": "function"
    },
    {
      "inputs": [],
      "name": "getContractBalance",
      "outputs": [
        {
          "internalType": "uint256",
          "name": "",
          "type": "uint256"
        }
      ],
      "stateMutability": "view",
      "type": "function"
    },
    {
      "inputs": [],
      "name": "getLoanStatus",
      "outputs": [
        {
          "internalType": "uint256",
          "name": "",
          "type": "uint256"
        }
      ],
      "stateMutability": "view",
      "type": "function"
    },
    {
      "inputs": [],
      "name": "getPairPrice",
      "outputs": [
        {
          "internalType": "uint256",
          "name": "",
          "type": "uint256"
        }
      ],
      "stateMutability": "view",
      "type": "function"
    },
    {
      "inputs": [],
      "name": "getPairDecimals",
      "outputs": [
        {
          "internalType": "uint256",
          "name": "",
          "type": "uint256"
        }
      ],
      "stateMutability": "view",
      "type": "function"
    },
    {
      "inputs": [],
      "name": "checkLoanInEarlySettlementWindow",
      "outputs": [
        {
          "internalType": "bool",
          "name": "",
          "type": "bool"
        }
      ],
      "stateMutability": "view",
      "type": "function"
    },
    {
      "inputs": [],
      "name": "checkEarlySettledLoan",
      "outputs": [
        {
          "internalType": "bool",
          "name": "",
          "type": "bool"
        }
      ],
      "stateMutability": "view",
      "type": "function"
    },
    {
      "inputs": [],
      "name": "setInitalCollateralRatio",
      "outputs": [],
      "stateMutability": "nonpayable",
      "type": "function"
    },
    {
      "inputs": [],
      "name": "getActualCollateralRatio",
      "outputs": [
        {
          "internalType": "uint256",
          "name": "newCollRatio",
          "type": "uint256"
        }
      ],
      "stateMutability": "view",
      "type": "function"
    },
    {
      "inputs": [
        {
          "internalType": "uint256",
          "name": "_amount",
          "type": "uint256"
        }
      ],
      "name": "calcRatioAddingCollateral",
      "outputs": [
        {
          "internalType": "uint256",
          "name": "ratio",
          "type": "uint256"
        }
      ],
      "stateMutability": "view",
      "type": "function"
    },
    {
      "inputs": [
        {
          "internalType": "uint256",
          "name": "_ratio",
          "type": "uint256"
        }
      ],
      "name": "calcDiffCollAmountForRatio",
      "outputs": [
        {
          "internalType": "uint256",
          "name": "collDiff",
          "type": "uint256"
        }
      ],
      "stateMutability": "view",
      "type": "function"
    },
    {
      "inputs": [
        {
          "internalType": "address",
          "name": "_stableAddr",
          "type": "address"
        }
      ],
      "name": "lenderSendStableCoins",
      "outputs": [],
      "stateMutability": "nonpayable",
      "type": "function"
    },
    {
      "inputs": [],
      "name": "setLoanStatusOnCollRatio",
      "outputs": [
        {
          "internalType": "uint256",
          "name": "",
          "type": "uint256"
        }
      ],
      "stateMutability": "nonpayable",
      "type": "function"
    },
    {
      "inputs": [],
      "name": "initiateLoanForeClose",
      "outputs": [],
      "stateMutability": "nonpayable",
      "type": "function"
    },
    {
      "inputs": [],
      "name": "setLoanInForeclosedByTime",
      "outputs": [
        {
          "internalType": "bool",
          "name": "",
          "type": "bool"
        }
      ],
      "stateMutability": "nonpayable",
      "type": "function"
    },
    {
      "inputs": [],
      "name": "loanClosingByBorrower",
      "outputs": [],
      "stateMutability": "nonpayable",
      "type": "function"
    },
    {
      "inputs": [],
      "name": "setLoanCancelled",
      "outputs": [],
      "stateMutability": "nonpayable",
      "type": "function"
    },
    {
      "inputs": [
        {
          "internalType": "uint256",
          "name": "_calcBlk",
          "type": "uint256"
        }
      ],
      "name": "calculatingAccruedInterests",
      "outputs": [
        {
          "internalType": "uint256",
          "name": "",
          "type": "uint256"
        }
      ],
      "stateMutability": "view",
      "type": "function"
    },
    {
      "inputs": [],
      "name": "getAccruedInterests",
      "outputs": [
        {
          "internalType": "uint256",
          "name": "accruedInterests",
          "type": "uint256"
        }
      ],
      "stateMutability": "view",
      "type": "function"
    },
    {
      "inputs": [],
      "name": "withdrawInterests",
      "outputs": [
        {
          "internalType": "uint256",
          "name": "",
          "type": "uint256"
        }
      ],
      "stateMutability": "nonpayable",
      "type": "function"
    },
    {
      "inputs": [
        {
          "internalType": "address",
          "name": "_holder",
          "type": "address"
        }
      ],
      "name": "isShareHolder",
      "outputs": [
        {
          "internalType": "bool",
          "name": "",
          "type": "bool"
        }
      ],
      "stateMutability": "view",
      "type": "function"
    },
    {
      "inputs": [
        {
          "internalType": "address",
          "name": "_holder",
          "type": "address"
        }
      ],
      "name": "getShareHolderPlace",
      "outputs": [
        {
          "internalType": "uint256",
          "name": "",
          "type": "uint256"
        }
      ],
      "stateMutability": "view",
      "type": "function"
    },
    {
      "inputs": [
        {
          "internalType": "address",
          "name": "_newShareholder",
          "type": "address"
        },
        {
          "internalType": "uint256",
          "name": "_amount",
          "type": "uint256"
        }
      ],
      "name": "addLoanShareHolders",
      "outputs": [
        {
          "internalType": "uint256",
          "name": "",
          "type": "uint256"
        }
      ],
      "stateMutability": "nonpayable",
      "type": "function"
    }
  ],
  "bytecode": "0x6080604052604051620039553803806200395583398101604081905262000026916200059d565b60006200003b6001600160e01b03620004d016565b600080546001600160a01b0319166001600160a01b03831690811782556040519293509160008051602062003935833981519152908290a3506001805533620000a15760405162461bcd60e51b8152600401620000989062000839565b60405180910390fd5b600280546001600160a01b031916331790556001600160a01b038816620000dc5760405162461bcd60e51b815260040162000098906200085e565b87600460006101000a8154816001600160a01b0302191690836001600160a01b03160217905550826001600160a01b0316634fd758796040518163ffffffff1660e01b81526004016101206040518083038186803b1580156200013e57600080fd5b505afa15801562000153573d6000803e3d6000fd5b505050506040513d601f19601f8201168201806040525081019062000179919062000696565b8051600655602081015160075560408082015160085560608201516009556080820151600a5560a0820151600b5560c0820151600c80546001600160a01b03199081166001600160a01b039384161790915560e080850151600d8054841691851691909117905561010090940151600e80549092169083161790558151631a55d9e960e01b8152915190861692631a55d9e99260048082019391829003018186803b1580156200022857600080fd5b505afa1580156200023d573d6000803e3d6000fd5b505050506040513d601f19601f820116820180604052508101906200026391906200062e565b805160175560208101516018556040808201516019556060820151601a556080820151601b5560a0820151601c5560c090910151601d55516310f15c6760e21b81526000906001600160a01b038516906343c5719c90620002cb908a908a9060040162000893565b60206040518083038186803b158015620002e457600080fd5b505afa158015620002f9573d6000803e3d6000fd5b505050506040513d601f19601f820116820180604052508101906200031f919062000734565b905080341015620003445760405162461bcd60e51b81526004016200009890620007bd565b600380546001600160a01b0319166001600160a01b038416179055600654851015620003845760405162461bcd60e51b81526004016200009890620007e1565b600f88905560108590556013879055600580546001600160a01b038086166001600160a01b03199092169190911790915560148790556015805460ff19166012179055604051633e17bdcb60e11b815290851690637c2f7b9690620003ee908a906004016200088a565b60206040518083038186803b1580156200040757600080fd5b505afa1580156200041c573d6000803e3d6000fd5b505050506040513d601f19601f820116820180604052508101906200044291906200074d565b6015805460ff929092166101000261ff0019909216919091179055436012556016805460ff19169055600c5462000482906001600160a01b0316620004d4565b6012546040517fd020cf4faddb252daa596f5417314de5e21213e38321820d2b8fdf3361da555291620004b99134908590620008a1565b60405180910390a150505050505050505062000912565b3390565b620004e76001600160e01b03620004d016565b6000546001600160a01b03908116911614620005175760405162461bcd60e51b8152600401620000989062000804565b6001600160a01b038116620005405760405162461bcd60e51b8152600401620000989062000777565b600080546040516001600160a01b03808516939216916000805160206200393583398151915291a3600080546001600160a01b0319166001600160a01b0392909216919091179055565b80516200059781620008f9565b92915050565b600080600080600080600080610100898b031215620005ba578384fd5b8851620005c781620008f9565b809850506020890151965060408901519550606089015194506080890151935060a0890151620005f781620008f9565b60c08a01519093506200060a81620008f9565b60e08a01519092506200061d81620008f9565b809150509295985092959890939650565b600060e0828403121562000640578081fd5b6200064c60e0620008d2565b825181526020830151602082015260408301516040820152606083015160608201526080830151608082015260a083015160a082015260c083015160c08201528091505092915050565b6000610120808385031215620006aa578182fd5b620006b581620008d2565b835181526020840151602082015260408401516040820152606084015160608201526080840151608082015260a084015160a0820152620006fa8560c086016200058a565b60c08201526200070e8560e086016200058a565b60e0820152610100915062000726858386016200058a565b918101919091529392505050565b60006020828403121562000746578081fd5b5051919050565b6000602082840312156200075f578081fd5b815160ff8116811462000770578182fd5b9392505050565b60208082526026908201527f4f776e61626c653a206e6577206f776e657220697320746865207a65726f206160408201526564647265737360d01b606082015260800190565b6020808252600a90820152690428adcdeeaced08ae8d60b31b604082015260600190565b602080825260099082015268525042546f6f4c6f7760b81b604082015260600190565b6020808252818101527f4f776e61626c653a2063616c6c6572206973206e6f7420746865206f776e6572604082015260600190565b6020808252600b908201526a5a65726f4164647265737360a81b604082015260600190565b6020808252601290820152715f73656e6465725a65726f4164647265737360701b604082015260600190565b90815260200190565b918252602082015260400190565b92835260208301919091526040820152608060608201819052600390820152620cae8d60eb1b60a082015260c00190565b6040518181016001600160401b0381118282101715620008f157600080fd5b604052919050565b6001600160a01b03811681146200090f57600080fd5b50565b61301380620009226000396000f3fe60806040526004361061028c5760003560e01c806372ef10311161015a578063c0b27cc5116100c1578063e1c7111a1161007a578063e1c7111a14610775578063e936e44a1461078a578063ec98362e1461079f578063f2fde38b146107b4578063fb6222e8146107d4578063ff0d69a6146107f457610324565b8063c0b27cc5146106d8578063c2b0bf58146106ed578063c55d2a4714610702578063d20fbeb614610717578063d51389481461072c578063d75e1bd81461075557610324565b8063918c3dbd11610113578063918c3dbd1461064457806395dcc255146106595780639cf160f614610679578063a41969e51461068e578063acc1ab13146106ae578063b2ca1805146106c357610324565b806372ef1031146105a15780637427a40c146105b65780637a33f63c146105e55780637ba61ea51461060557806382f0c81c1461061a5780638da5cb5b1461062f57610324565b80632a3d7c81116101fe57806356f4aee0116101b757806356f4aee0146105025780635ced2a11146105225780635f4975f0146105425780636dd167f8146105625780636f9fb98a14610577578063715018a61461058c57610324565b80632a3d7c81146104795780633ba2ee401461048e5780633cf348c3146104a357806342ac3379146104b857806347c865df146104cd5780634cdb79b4146104e257610324565b80631aa118d9116102505780631aa118d9146103d95780631daeaaa9146103ee57806320a73ab714610410578063216c249014610425578063288994231461044d5780632a1f3cda1461046257610324565b806306bb531e1461032b578063074ca966146103565780630896962c1461037857806309e94d981461039a57806318ad714a146103c457610324565b366103245760015b60165460ff1660098111156102a557fe5b101580156102c45750600460165460ff1660098111156102c157fe5b11155b6102e95760405162461bcd60e51b81526004016102e090612c7b565b60405180910390fd5b7f85177f287940f2f05425a4029951af0e047a7f9c4eaa9a6e6917bcd869f86695333460405161031a9291906129ec565b60405180910390a1005b6001610294565b34801561033757600080fd5b50610340610809565b60405161034d9190612e9d565b60405180910390f35b34801561036257600080fd5b5061036b610913565b60405161034d9190612a55565b34801561038457600080fd5b5061038d61091c565b60405161034d91906129be565b3480156103a657600080fd5b506103af61092b565b60405161034d99989796959493929190612eb4565b3480156103d057600080fd5b5061034061095a565b3480156103e557600080fd5b50610340610a2d565b3480156103fa57600080fd5b50610403610a33565b60405161034d9190612a4a565b34801561041c57600080fd5b50610340610a6a565b34801561043157600080fd5b5061043a610a70565b60405161034d9796959493929190612f02565b34801561045957600080fd5b50610403610a88565b34801561046e57600080fd5b50610477610c1f565b005b34801561048557600080fd5b50610340610d41565b34801561049a57600080fd5b50610477610d47565b3480156104af57600080fd5b50610403610f15565b3480156104c457600080fd5b50610340610f30565b3480156104d957600080fd5b50610340610fb3565b3480156104ee57600080fd5b506104036104fd3660046127f0565b610fb9565b34801561050e57600080fd5b5061034061051d3660046127f0565b610fce565b34801561052e57600080fd5b5061034061053d366004612951565b610fe9565b34801561054e57600080fd5b5061034061055d3660046127f0565b61103b565b34801561056e57600080fd5b5061034061104d565b34801561058357600080fd5b50610340611053565b34801561059857600080fd5b50610477611057565b3480156105ad57600080fd5b506104776110d6565b3480156105c257600080fd5b506105d66105d1366004612951565b6110fd565b60405161034d93929190612a29565b3480156105f157600080fd5b506104036106003660046127f0565b611128565b34801561061157600080fd5b5061038d611146565b34801561062657600080fd5b50610340611155565b34801561063b57600080fd5b5061038d61131b565b34801561065057600080fd5b5061047761132a565b34801561066557600080fd5b506104776106743660046127f0565b611407565b34801561068557600080fd5b5061038d6117c3565b34801561069a57600080fd5b506103406106a9366004612951565b6117d2565b3480156106ba57600080fd5b506103406118e4565b3480156106cf57600080fd5b506103406118f8565b3480156106e457600080fd5b506103406118fe565b3480156106f957600080fd5b50610477611904565b34801561070e57600080fd5b50610340611a2c565b34801561072357600080fd5b50610340611a32565b34801561073857600080fd5b50610741611b44565b60405161034d989796959493929190612f32565b34801561076157600080fd5b5061034061077036600461280c565b611b68565b34801561078157600080fd5b5061038d611e13565b34801561079657600080fd5b50610340611e22565b3480156107ab57600080fd5b50610477611ead565b3480156107c057600080fd5b506104776107cf3660046127f0565b612193565b3480156107e057600080fd5b506103406107ef366004612951565b612249565b34801561080057600080fd5b50610340612334565b601654600090819060ff16600981111561081f57fe5b11801561083d575060165460059060ff16600981111561083b57fe5b105b156108b457600061084c611a32565b600a54909150811061086f576016805460ff1916600117905560006024556108b2565b600a5481118015906108835750600b548110155b1561089a576016805460ff191660021790556108b2565b600b548110156108b2576016805460ff191660031790555b505b6016547fe096f951d62ec2072f7a4b5b750e0f9b7a55b9c4cbfa1f516b496cb58d7dff6f9060ff1660098111156108e757fe5b6040516108f49190612e9d565b60405180910390a160165460ff16600981111561090d57fe5b90505b90565b60165460ff1681565b6002546001600160a01b031681565b600654600754600854600954600a54600b54600c54600d54600e546001600160a01b0392831692918216911689565b601654600090819060ff16600981111561097057fe5b11801561098e575060165460089060ff16600981111561098c57fe5b105b6109aa5760405162461bcd60e51b81526004016102e090612bde565b600754601e546000916109c3919063ffffffff61233a16565b9050600660165460ff1660098111156109d857fe5b1480156109e55750804311155b156109fa576109f381610fe9565b9150610a1d565b60215415610a11576109f361053d60215443612366565b610a1a43610fe9565b91505b47821115610a29574791505b5090565b60295481565b600754601e546000918291610a4d9163ffffffff61233a16565b9050804311610a60576001915050610910565b6000915050610910565b601f5481565b601754601854601954601a54601b54601c54601d5487565b600060026001541415610aad5760405162461bcd60e51b81526004016102e090612e66565b600260015560165460ff166009811115610ac357fe5b600414610ae25760405162461bcd60e51b81526004016102e090612c9e565b60245460009015801590610b0a5750600854602454610b069163ffffffff61233a16565b4310155b15610c1657601054601c54600091610b28919063ffffffff61237c16565b905047818110610baf576000610b5d6064610b516017600201548661237c90919063ffffffff16565b9063ffffffff6123b616565b90506000610b7e6064610b516017600301548761237c90919063ffffffff16565b9050610b8a33836123f8565b600354610ba0906001600160a01b0316826123f8565b610ba861248a565b5050610c0f565b6000610bce6064610b516017600201548561237c90919063ffffffff16565b90506000610be2838363ffffffff6124d816565b9050610bee33836123f8565b600354610c04906001600160a01b0316826123f8565b610c0c61251a565b50505b6001925050505b90506001805590565b6002546001600160a01b03163314610c495760405162461bcd60e51b81526004016102e090612c31565b600c5460408051634fd7587960e01b815290516001600160a01b0390921691634fd758799160048082019261012092909190829003018186803b158015610c8f57600080fd5b505afa158015610ca3573d6000803e3d6000fd5b505050506040513d601f19601f82011682018060405250810190610cc791906128bc565b80516006556020810151600755604081015160085560608101516009556080810151600a5560a0810151600b5560c0810151600c80546001600160a01b03199081166001600160a01b039384161790915560e0830151600d8054831691841691909117905561010090920151600e80549093169116179055565b60225481565b60026001541415610d6a5760405162461bcd60e51b81526004016102e090612e66565b60026001556000610d79610809565b90508060021480610d8a5750806003145b610da65760405162461bcd60e51b81526004016102e090612b1b565b60008160021415610dd557601054601b54610dc69163ffffffff61237c16565b9050610dd0612565565b610df4565b601054601c54610dea9163ffffffff61237c16565b9050610df461248a565b43601f5547818110610e69576000610e1f6064610b516017600201548661237c90919063ffffffff16565b90506000610e406064610b516017600301548761237c90919063ffffffff16565b9050610e4c33836123f8565b600354610e62906001600160a01b0316826123f8565b5050610ec9565b6000610e886064610b516017600201548561237c90919063ffffffff16565b90506000610e9c838363ffffffff6124d816565b9050610ea661251a565b610eb033836123f8565b600354610ec6906001600160a01b0316826123f8565b50505b336001600160a01b03167f9c216942fb53599e3610164be0d173eb8b00a4613afdb41d524f00091a819abc601f54604051610f049190612e9d565b60405180910390a250506001805550565b6000600660165460ff166009811115610f2a57fe5b14905090565b600c54601354604051631334f8cd60e11b81526000926001600160a01b031691632669f19a91610f639190600401612e9d565b60206040518083038186803b158015610f7b57600080fd5b505afa158015610f8f573d6000803e3d6000fd5b505050506040513d601f19601f8201168201806040525081019061090d9190612969565b60235481565b60276020526000908152604090205460ff1681565b6001600160a01b031660009081526028602052604090205490565b600060235482101561100d5760405162461bcd60e51b81526004016102e090612d7f565b601054602354611035919061102990859063ffffffff6124d816565b9063ffffffff61237c16565b92915050565b60286020526000908152604090205481565b60205481565b4790565b61105f6125a9565b6000546001600160a01b0390811691161461108c5760405162461bcd60e51b81526004016102e090612d01565b600080546040516001600160a01b03909116907f8be0079c531659141344cd1fd0a4f28419497f9722a3daafe3b4186f6b6457e0908390a3600080546001600160a01b0319169055565b600060165460ff1660098111156110e957fe5b14156110fb576110f7611a32565b6011555b565b6026602052600090815260409020805460018201546002909201546001600160a01b03909116919083565b6001600160a01b031660009081526027602052604090205460ff1690565b6004546001600160a01b031681565b60006002600154141561117a5760405162461bcd60e51b81526004016102e090612e66565b600260015560165460009060ff16600981111561119357fe5b1180156111b1575060165460089060ff1660098111156111af57fe5b105b6111cd5760405162461bcd60e51b81526004016102e090612bde565b60165460009060ff1660098111156111e157fe5b90504760006111ee61095a565b90508082106112515760015b6029548160ff16116112345760ff811660009081526026602052604090205461122c906001600160a01b0316836125ad565b6001016111fa565b50436023556003831161124c57611249610809565b92505b6112d7565b81158015611263575061126333611128565b156112705761124c61251a565b60015b6029548160ff16116112ad5760ff81166000908152602660205260409020546112a5906001600160a01b0316846125ad565b600101611273565b504360238190556021556016805460ff19166008179081905560ff1660098111156112d457fe5b92505b7fdec1686054df57da892459d2ee005662e0454e2a360400e54fab99d3c383b28c8143604051611308929190612ea6565b60405180910390a1505060018055919050565b6000546001600160a01b031690565b6002546001600160a01b031633146113545760405162461bcd60e51b81526004016102e090612c31565b600c5460408051631a55d9e960e01b815290516001600160a01b0390921691631a55d9e99160048082019260e092909190829003018186803b15801561139957600080fd5b505afa1580156113ad573d6000803e3d6000fd5b505050506040513d601f19601f820116820180604052508101906113d19190612857565b8051601755602081015160185560408101516019556060810151601a556080810151601b5560a0810151601c5560c00151601d55565b6002600154141561142a5760405162461bcd60e51b81526004016102e090612e66565b60026001553361144c5760405162461bcd60e51b81526004016102e090612d5a565b6005546001600160a01b038281169116146114795760405162461bcd60e51b81526004016102e090612e44565b600060165460ff16600981111561148c57fe5b146114a95760405162461bcd60e51b81526004016102e090612ad3565b601454600554604051636eb1769f60e11b81526000916001600160a01b03169063dd62ed3e906114df90339030906004016129d2565b60206040518083038186803b1580156114f757600080fd5b505afa15801561150b573d6000803e3d6000fd5b505050506040513d601f19601f8201168201806040525081019061152f9190612969565b9050818110156115515760405162461bcd60e51b81526004016102e090612d36565b60016029818155604080516060810182523380825260646020808401918252601e805485870190815260008981526026845295517f5db1dfd2ced311e642486f0e890a646498a1bdee1ad9403b0a73141af8a4c41180546001600160a01b0319166001600160a01b0392831617905593517f5db1dfd2ced311e642486f0e890a646498a1bdee1ad9403b0a73141af8a4c41255517f5db1dfd2ced311e642486f0e890a646498a1bdee1ad9403b0a73141af8a4c4135583855260278252858520805460ff199081168a1790915596546028909252949093209290925560168054909416909417909255439081905560235560055460045461165793918316921685612643565b600c5460135460145460405163c175771b60e01b81526000936001600160a01b03169263c175771b9261168c92600401612ea6565b60206040518083038186803b1580156116a457600080fd5b505afa1580156116b8573d6000803e3d6000fd5b505050506040513d601f19601f820116820180604052508101906116dc9190612969565b600c54604051632976f2fb60e11b81529192506000916001600160a01b03909116906352ede5f690611712908590600401612e9d565b60206040518083038186803b15801561172a57600080fd5b505afa15801561173e573d6000803e3d6000fd5b505050506040513d601f19601f820116820180604052508101906117629190612969565b60035490915061177b906001600160a01b0316826123f8565b601e5460405133917f8da312eaac37817e0ccf8bd45912080260bec10b5dac7e4ab7a438e96a605921916117b0918591612ea6565b60405180910390a2505060018055505050565b6003546001600160a01b031681565b600047816117de610f30565b905060006117ea611e22565b60145460155491925060009187919060ff6101008204811691161061185e5760155460009061182a9060ff8082169161010090041663ffffffff6124d816565b905061185681600a0a6110296064610b518a610b518b600a0a6110298b8b61237c90919063ffffffff16565b9350506118a8565b6015546000906118789060ff6101008204811691166124d8565b90506118a481600a0a610b516064610b518a610b518b600a0a6110298b8b61237c90919063ffffffff16565b9350505b8583106118c6576118bf838763ffffffff6124d816565b96506118d9565b6118d6868463ffffffff6124d816565b96505b505050505050919050565b60165460009060ff16600981111561090d57fe5b601e5481565b60245481565b600260015414156119275760405162461bcd60e51b81526004016102e090612e66565b60026001556004546001600160a01b031633146119565760405162461bcd60e51b81526004016102e090612bbb565b60165460ff16600981111561196757fe5b156119845760405162461bcd60e51b81526004016102e090612ad3565b60006119a36064610b516017600601544761237c90919063ffffffff16565b905060006119b7478363ffffffff6124d816565b6016805460ff191660091790556003549091506119dd906001600160a01b0316836123f8565b6119e733826123f8565b600f5460405133907f976729a22a1f27f055a6f0ffa92bd9d2944c972f1d0e25d1b3517bfa523cf49890611a1c904390612e9d565b60405180910390a3505060018055565b60215481565b600080611a3d610f30565b90506000611a49611e22565b60145490915060008060165460ff166009811115611a6357fe5b1415611a70575047611a8b565b611a88611a7b61095a565b479063ffffffff6124d816565b90505b60155460ff61010082048116911610611af357601554600090611abf9060ff8082169161010090041663ffffffff6124d816565b9050611aeb81600a0a610b5186600a0a610b51606461102989610b518d8b61237c90919063ffffffff16565b955050611b3d565b601554600090611b0d9060ff6101008204811691166124d8565b9050611b3981600a0a61102986600a0a610b51606461102989610b518d8b61237c90919063ffffffff16565b9550505b5050505090565b600f5460105460115460125460135460145460155460ff8082169161010090041688565b600060026001541415611b8d5760405162461bcd60e51b81526004016102e090612e66565b6002600155611b9b33611128565b611bb75760405162461bcd60e51b81526004016102e090612af5565b6000611bc233610fce565b905060008111611be45760405162461bcd60e51b81526004016102e090612e22565b600081815260266020526040902060010154831115611c155760405162461bcd60e51b81526004016102e090612c54565b600754601e54014311611c3a5760405162461bcd60e51b81526004016102e090612daa565b6000611c4461095a565b905060015b6029548160ff1611611c835760ff8116600090815260266020526040902054611c7b906001600160a01b0316836125ad565b600101611c49565b50600082815260266020526040902060010154611ca6908563ffffffff6124d816565b600083815260266020526040902060010155611cc185611128565b611d6057602954611cd990600163ffffffff61233a16565b6029818155604080516060810182526001600160a01b0389811680835260208084018b815243858701908152600098895260268352868920955186546001600160a01b0319169516949094178555516001808601919091559251600290940193909355855260278252828520805460ff191690911790559154602890925290912055611df7565b6000611d6b86610fce565b600081815260266020526040902060010154909150611d90908663ffffffff61233a16565b6000828152602660205260409081902060018101929092554360029092018290555186916001600160a01b0389169133917fb510f1f825ef2a9b3a0fa1d56d8461062ee721c12409714d52332b44b82e6afc91611ded9190612e9d565b60405180910390a4505b436023556000611e05610809565b600180559695505050505050565b6005546001600160a01b031681565b600c54601354604051632bd61f0560e11b81526000926001600160a01b0316916357ac3e0a91611e559190600401612e9d565b60206040518083038186803b158015611e6d57600080fd5b505afa158015611e81573d6000803e3d6000fd5b505050506040513d601f19601f82011682018060405250810190611ea59190612981565b60ff16905090565b60026001541415611ed05760405162461bcd60e51b81526004016102e090612e66565b60026001556004546001600160a01b03163314611eff5760405162461bcd60e51b81526004016102e090612bbb565b6000611f09610809565b9050600081118015611f1c575060048111155b611f385760405162461bcd60e51b81526004016102e090612c7b565b600554604051636eb1769f60e11b81526000916001600160a01b03169063dd62ed3e90611f6b90339030906004016129d2565b60206040518083038186803b158015611f8357600080fd5b505afa158015611f97573d6000803e3d6000fd5b505050506040513d601f19601f82011682018060405250810190611fbb9190612969565b601454909150811015611fe05760405162461bcd60e51b81526004016102e090612dcf565b600754601e546000910143101561200057611ff9612734565b905061200b565b61200861095a565b90505b6000600660165460ff16600981111561202057fe5b141561203e5760105460185461203b9163ffffffff61237c16565b90505b476000612051848463ffffffff61233a16565b436020556016805460ff1916600717905590508082106120a557600061207d838363ffffffff6124d816565b905061208933826123f8565b60035461209f906001600160a01b0316856123f8565b506120c2565b8282106120c2576003546120c2906001600160a01b0316846123f8565b60015b6029548160ff161161214d5760ff81166000908152602660205260408120546001600160a01b0316906120f782610fce565b6000818152602660205260409020600101546005546014549293509091612142916001600160a01b0316903390869061213d90606490610b51908863ffffffff61237c16565b612643565b5050506001016120c5565b507fd81de7231bf1ee8484c8d4a7f114d29a312842bf7d0eb187ffec71b5b94d223060205460405161217f9190612e9d565b60405180910390a150506001805550505050565b61219b6125a9565b6000546001600160a01b039081169116146121c85760405162461bcd60e51b81526004016102e090612d01565b6001600160a01b0381166121ee5760405162461bcd60e51b81526004016102e090612b3e565b600080546040516001600160a01b03808516939216917f8be0079c531659141344cd1fd0a4f28419497f9722a3daafe3b4186f6b6457e091a3600080546001600160a01b0319166001600160a01b0392909216919091179055565b6000478161225d828563ffffffff61233a16565b90506000612269610f30565b90506000612275611e22565b6014546015549192509060ff610100820481169116106122e4576015546000906122b09060ff8082169161010090041663ffffffff6124d816565b90506122dc81600a0a610b5185600a0a610b51606461102988610b518c8e61237c90919063ffffffff16565b96505061232a565b6015546000906122fe9060ff6101008204811691166124d8565b90506118d681600a0a61102985600a0a610b51606461102988610b518c8e61237c90919063ffffffff16565b5050505050919050565b60255481565b60008282018381101561235f5760405162461bcd60e51b81526004016102e090612b84565b9392505050565b6000818310612375578161235f565b5090919050565b60008261238b57506000611035565b8282028284828161239857fe5b041461235f5760405162461bcd60e51b81526004016102e090612cc0565b600061235f83836040518060400160405280601a81526020017f536166654d6174683a206469766973696f6e206279207a65726f000000000000815250612782565b604080516000808252602082019092526001600160a01b03841690839060405161242291906129a2565b60006040518083038185875af1925050503d806000811461245f576040519150601f19603f3d011682016040523d82523d6000602084013e612464565b606091505b50509050806124855760405162461bcd60e51b81526004016102e090612c01565b505050565b4360258190556016805460ff1916600517905560405133917f9501cc045c1358e5e6d1aef6f29cb9b1ffb3ea567a4795bffce3050ed74f4d1b916124ce9190612e9d565b60405180910390a2565b600061235f83836040518060400160405280601e81526020017f536166654d6174683a207375627472616374696f6e206f766572666c6f7700008152506127b9565b4360218190556016805460ff191660081790556040517f50d3f9b87161fe68d44f1df9c50ec05198e280f710299688dccdd0dea547266c9161255b91612e9d565b60405180910390a1565b6016805460ff1916600417905543602481905560405133917ff542b84b1e49b5bef195e1e1949cf1eb789fbe49c059b62a89f24af3c6f71d8f916124ce9190612e9d565b3390565b6125b682611128565b6125d25760405162461bcd60e51b81526004016102e090612af5565b60015b6029548160ff16116124855760ff8116600090815260266020526040812054612606906001600160a01b0316610fce565b600081815260266020526040902060010154909150612639856126346064610b51888663ffffffff61237c16565b6123f8565b50506001016125d5565b60006060856001600160a01b03166323b872dd86868660405160240161266b93929190612a05565b6040516020818303038152906040529060e01b6020820180516001600160e01b0383818316178352505050506040516126a491906129a2565b6000604051808303816000865af19150503d80600081146126e1576040519150601f19603f3d011682016040523d82523d6000602084013e6126e6565b606091505b50915091508180156127105750805115806127105750808060200190518101906127109190612837565b61272c5760405162461bcd60e51b81526004016102e090612a9c565b505050505050565b600754601e5460009101431061275c5760405162461bcd60e51b81526004016102e090612dfb565b6016805460ff1916600617905560105460075460009161277c919061237c565b91505090565b600081836127a35760405162461bcd60e51b81526004016102e09190612a69565b5060008385816127af57fe5b0495945050505050565b600081848411156127dd5760405162461bcd60e51b81526004016102e09190612a69565b505050900390565b805161103581612fc5565b600060208284031215612801578081fd5b813561235f81612fc5565b6000806040838503121561281e578081fd5b823561282981612fc5565b946020939093013593505050565b600060208284031215612848578081fd5b8151801515811461235f578182fd5b600060e08284031215612868578081fd5b61287260e0612f6e565b825181526020830151602082015260408301516040820152606083015160608201526080830151608082015260a083015160a082015260c083015160c08201528091505092915050565b60006101208083850312156128cf578182fd5b6128d881612f6e565b835181526020840151602082015260408401516040820152606084015160608201526080840151608082015260a084015160a082015261291b8560c086016127e5565b60c082015261292d8560e086016127e5565b60e08201526101009150612943858386016127e5565b918101919091529392505050565b600060208284031215612962578081fd5b5035919050565b60006020828403121561297a578081fd5b5051919050565b600060208284031215612992578081fd5b815160ff8116811461235f578182fd5b600082516129b4818460208701612f95565b9190910192915050565b6001600160a01b0391909116815260200190565b6001600160a01b0392831681529116602082015260400190565b6001600160a01b03929092168252602082015260400190565b6001600160a01b039384168152919092166020820152604081019190915260600190565b6001600160a01b039390931683526020830191909152604082015260600190565b901515815260200190565b60208101600a8310612a6357fe5b91905290565b6000602082528251806020840152612a88816040850160208701612f95565b601f01601f19169190910160400192915050565b60208082526017908201527f5448205452414e534645525f46524f4d5f4641494c4544000000000000000000604082015260600190565b602080825260089082015267021537461747573360c41b604082015260600190565b6020808252600c908201526b10b9b430b932b437b63232b960a11b604082015260600190565b60208082526009908201526821537461747573323360b81b604082015260600190565b60208082526026908201527f4f776e61626c653a206e6577206f776e657220697320746865207a65726f206160408201526564647265737360d01b606082015260800190565b6020808252601b908201527f536166654d6174683a206164646974696f6e206f766572666c6f770000000000604082015260600190565b60208082526009908201526810b137b93937bbb2b960b91b604082015260600190565b60208082526009908201526821537461747573313760b81b604082015260600190565b60208082526016908201527515120811551217d514905394d1915497d1905253115160521b604082015260600190565b60208082526009908201526810b232b83637bcb2b960b91b604082015260600190565b6020808252600d908201526c21656e6f75676853686172657360981b604082015260600190565b6020808252600990820152680854dd185d1d5ccc4d60ba1b604082015260600190565b6020808252600890820152670854dd185d1d5ccd60c21b604082015260600190565b60208082526021908201527f536166654d6174683a206d756c7469706c69636174696f6e206f766572666c6f6040820152607760f81b606082015260800190565b6020808252818101527f4f776e61626c653a2063616c6c6572206973206e6f7420746865206f776e6572604082015260600190565b6020808252600a908201526921616c6c6f77616e636560b01b604082015260600190565b6020808252600b908201526a5a65726f4164647265737360a81b604082015260600190565b60208082526011908201527010bb30b634b2213637b1b5a73ab6b132b960791b604082015260600190565b6020808252600b908201526a6561726c7957696e646f7760a81b604082015260600190565b60208082526012908201527121616c6c6f77616e6365546f536574746c6560701b604082015260600190565b6020808252600d908201526c214561726c79436c6f73696e6760981b604082015260600190565b602080825260089082015267217368506c61636560c01b604082015260600190565b60208082526008908201526721546f6b656e4f6b60c01b604082015260600190565b6020808252601f908201527f5265656e7472616e637947756172643a207265656e7472616e742063616c6c00604082015260600190565b90815260200190565b918252602082015260400190565b988952602089019790975260408801959095526060870193909352608086019190915260a08501526001600160a01b0390811660c085015290811660e0840152166101008201526101200190565b968752602087019590955260408601939093526060850191909152608084015260a083015260c082015260e00190565b978852602088019690965260408701949094526060860192909252608085015260a084015260ff90811660c08401521660e08201526101000190565b60405181810167ffffffffffffffff81118282101715612f8d57600080fd5b604052919050565b60005b83811015612fb0578181015183820152602001612f98565b83811115612fbf576000848401525b50505050565b6001600160a01b0381168114612fda57600080fd5b5056fea26469706673582212204c6c240f3719f77737de694fee674ced62ed0fc4d346c4d7463592d258f8c78464736f6c634300060b00338be0079c531659141344cd1fd0a4f28419497f9722a3daafe3b4186f6b6457e0",
  "immutableReferences": {},
  "source": "// SPDX-License-Identifier: MIT\n\npragma solidity ^0.6.11;\npragma experimental ABIEncoderV2;\n\nimport \"@openzeppelin/contracts/math/SafeMath.sol\";\nimport \"@openzeppelin/contracts/math/Math.sol\";\nimport \"@openzeppelin/contracts/access/Ownable.sol\";\nimport \"@openzeppelin/contracts/token/ERC20/IERC20.sol\";\nimport \"@openzeppelin/contracts/utils/ReentrancyGuard.sol\";\nimport \"./IJLoanCommons.sol\";\nimport \"./IJLoanEth.sol\";\nimport \"./IJFactory.sol\";\nimport \"./TransferHelper.sol\";\n\ncontract JLoanEth is Ownable, ReentrancyGuard, IJLoanCommons {\n    using SafeMath for uint;\n\n    address public ethDeployer;\n    address payable public feesCollector;\n\n    address public borrowerAddress;\n\n    IERC20 public lentToken;\n\n    params public loanParams;\n    contractParams public commonParams;\n    Status public loanStatus;\n    feesParams public loanFees;\n    \n    uint public loanActiveBlock;\n    uint public loanInitiateForeCloseBlock;\n    uint public loanClosingBlock;\n    uint public loanClosedBlock;\n    uint public lastDepositBlock;\n    uint public lastInterestWithdrawalBlock;\n    uint public loanForeclosingBlock;\n    uint public loanForeclosedBlock;\n\n    struct ShareHolder {\n        address holder;\n        uint shares;\n        uint ownerBlockNumber;\n    }\n\n    mapping(uint => ShareHolder) public shareHolders;\n    mapping(address => bool) public shareHoldersAddress;\n    mapping(address => uint) public shareHoldersPlace;\n    uint public shareHoldersCounter;\n\n    event LoanContractDeployed(uint creationBlock, uint value, uint coll, string eth);\n    event NewDeposit(uint depositAmount);\n    event EthReceived(address sender, uint value);\n    event EthWithdraw(uint blockNumber);\n    event LenderAccepted(address indexed lenderAddress, uint factoryFees, uint loanActiveBlock);\n    event InitiateForeClosure(address indexed sender, uint blockNumber);\n    event LoanAtRiskFromForeclosing(address indexed sender, uint blockNumber);\n    event LoanForeclosing(address indexed sender, uint blockNumber);\n    event LoanForeclosed(address indexed sender, uint blockNumber);\n    event LoanCancelled(address indexed sender, uint indexed loanId, uint blockNumber);\n    event NewLoanStatus(uint loanStatus);\n    event NewShareHolder(address indexed sharesSeller, address indexed newShareholder, uint indexed amount, uint blockNumber);\n    event AddShareHolderShares(address indexed sharesSeller, address indexed sharesBuyer, uint indexed amount, uint blockNumber);\n    event LoanClosingByBorrower(uint blockNumber);\n    event LoanClosed(uint blockNumber);\n    event InterestsWithdrawed(uint accruedInterests, uint blockNumber);\n\n    //// Status = 0\n    constructor(address _sender,\n                uint _id, \n                uint _pairId, \n                uint _borrowedAskAmount, \n                uint _rpbRate, \n                address _factoryAddress,\n                address _lendCrypto,\n                address payable _ethFeesCollector) public payable {  \n        require(msg.sender!=address(0), \"ZeroAddress\");\n        ethDeployer = msg.sender;\n        require(_sender!=address(0), \"_senderZeroAddress\");\n        borrowerAddress = _sender;\n        loanParams = IJFactory(_factoryAddress).getGeneralParams();\n        loanFees = IJFactory(_factoryAddress).getGeneralFees();\n        uint256 totalCollateralRequest = IJFactory(_factoryAddress).calcMinCollateralWithFeesAmount(_pairId, _borrowedAskAmount);\n        //require(borrowerAddress.balance >= totalCollateralRequest, \"Borrower does not have enough ethers\");\n        require(msg.value >= totalCollateralRequest, \"!EnoughEth\");\n        feesCollector = _ethFeesCollector;\n        require(_rpbRate >= loanParams.minRpbRate, \"RPBTooLow\");\n        commonParams.loanId = _id;\n        commonParams.rpbRate = _rpbRate;\n        commonParams.pairId = _pairId;\n        lentToken = IERC20(_lendCrypto); //DAI\n        commonParams.borrowedAskAmount = _borrowedAskAmount;\n        commonParams.collDecimals = uint8(18); //eth decimals\n        commonParams.lendDecimals = IJFactory(_factoryAddress).getPairQuoteDecimals(_pairId); //lend token decimals\n        //commonParams.initialCollateralRatio = getActualCollateralRatio();\n        commonParams.creationBlock = block.number;\n        loanStatus = Status.pending;\n        //Transfer ownership to factory address\n        transferOwnership(loanParams.factoryAddress);\n        emit LoanContractDeployed(commonParams.creationBlock, msg.value, totalCollateralRequest, \"eth\");\n    }\n\n    modifier onlyEthDeployer() {\n        require(msg.sender == ethDeployer, \"!deployer\");\n        _;\n    }\n\n    fallback() external payable {\n        require(loanStatus >= Status.active && loanStatus <= Status.foreClosing, \"!Status14\");\n        emit EthReceived(msg.sender, msg.value);\n    }\n\n    receive() external payable { //deposit eth\n        require(loanStatus >= Status.active && loanStatus <= Status.foreClosing, \"!Status14\");\n        emit EthReceived(msg.sender, msg.value);\n    }\n\n    //// Utility functions\n    /**\n    * @dev set common parameters in loan contract, reading them from factory\n    */\n    function setNewCommonParams() external onlyEthDeployer {\n        loanParams = IJFactory(loanParams.factoryAddress).getGeneralParams();\n    }\n\n    /**\n    * @dev set common parameters in loan contract, reading them from factory\n    */\n    function setNewFeesParams() external onlyEthDeployer {\n        loanFees = IJFactory(loanParams.factoryAddress).getGeneralFees();\n    }\n\n    /**\n    * @dev withdraw ethers from contract, every shareholder with his percentage\n    */\n    /*function withdrawEth() public nonReentrant {\n        require(loanStatus >= Status.closed, \"Loan status not compatible with foreclosing actions\" );\n        require(isShareHolder(msg.sender), \"Address requiring interest withdraw not allow\");\n        for (uint8 i = 1; i <= shareHoldersCounter; i++) {\n            address shAddress = shareHolders[i].holder;\n            uint shPlace = getShareHolderPlace(shareHolders[i].holder);\n            uint shShares = shareHolders[shPlace].shares;\n            uint withdrawAmount = address(this).balance.mul(shShares).div(100);\n            shareHolders[shPlace].shares = 0;\n            TransferHelper.safeTransferETH(shAddress, withdrawAmount);\n        }\n        emit EthWithdraw(block.number);\n    }*/\n\n    /**\n    * @dev get contract balance\n    * @return balance\n    */\n    function getContractBalance() external view returns (uint) {\n        return address(this).balance;\n    }\n\n    /**\n    * @dev get contract status\n    * @return status\n    */\n    function getLoanStatus() external view returns (uint){\n        return uint(loanStatus);\n    }\n\n    /**\n    * @dev get pair price\n    * @return price\n    */\n    function getPairPrice() public view returns (uint){\n        return IJFactory(loanParams.factoryAddress).getPairValue(commonParams.pairId);\n    }\n\n    /**\n    * @dev get pair decimals\n    * @return number of decimals\n    */\n    function getPairDecimals() public view returns (uint){\n        return IJFactory(loanParams.factoryAddress).getPairDecimals(commonParams.pairId);\n    }\n\n    /**\n    * @dev check if loan is in early settlement period\n    * @return boolean\n    */\n    function checkLoanInEarlySettlementWindow() external view returns (bool) {\n        uint lastEarlyBlock = loanActiveBlock.add(loanParams.earlySettlementWindow);\n        if (block.number <= lastEarlyBlock)\n            return true;\n        else\n            return false;\n    }\n\n    /**\n    * @dev check if loan is settled in early settlement period\n    * @return boolean\n    */\n    function checkEarlySettledLoan() external view returns (bool) {\n        return loanStatus == Status.earlyClosing;\n    }\n\n    /**\n    * @dev set initial collateral ratio of the loan\n    */\n    function setInitalCollateralRatio() external {\n        if (loanStatus == Status.pending)\n            commonParams.initialCollateralRatio = getActualCollateralRatio();\n    }\n\n    /**\n    * @dev get the collateral ratio of the loan (subtracting the accrued interests)\n    * @return newCollRatio collateral ratio\n    */\n    function getActualCollateralRatio() public view returns (uint newCollRatio) {\n        uint newPrice = getPairPrice();\n        uint pairDecimals = getPairDecimals();\n        uint borrAmnt = commonParams.borrowedAskAmount;\n        uint loanBalance;\n        if (loanStatus == Status.pending)\n            loanBalance = address(this).balance;\n        else\n            loanBalance = (address(this).balance).sub(getAccruedInterests());\n\n        if (commonParams.collDecimals >= commonParams.lendDecimals) {\n            uint diffBaseQuoteDecimals = uint(commonParams.collDecimals).sub(uint(commonParams.lendDecimals));\n            newCollRatio = loanBalance.mul(newPrice).div(borrAmnt).mul(100).div(10 ** pairDecimals).div(10 ** diffBaseQuoteDecimals);\n        } else {\n            uint diffBaseQuoteDecimals = uint(commonParams.lendDecimals).sub(uint(commonParams.collDecimals));\n            newCollRatio = loanBalance.mul(newPrice).div(borrAmnt).mul(100).div(10 ** pairDecimals).mul(10 ** diffBaseQuoteDecimals);\n        }\n        return newCollRatio;\n    }\n\n    /**\n    * @dev calc a new ratio if collateral amount has added to contract balance\n    * @param _amount collateral amount to add\n    * @return ratio new collateral ratio, percentage with no decimals\n    */\n    function calcRatioAddingCollateral(uint _amount) external view returns (uint ratio) {\n        uint bal = address(this).balance;\n        uint newBal = bal.add(_amount);\n        uint actualPrice = getPairPrice();\n        uint pairDecimals = getPairDecimals();\n        uint borrAmnt = commonParams.borrowedAskAmount;\n        if (commonParams.collDecimals >= commonParams.lendDecimals) {\n            uint diffBaseQuoteDecimals = uint(commonParams.collDecimals).sub(uint(commonParams.lendDecimals));\n            ratio = newBal.mul(actualPrice).div(borrAmnt).mul(100).div(10 ** pairDecimals).div(10 ** diffBaseQuoteDecimals);\n        } else {\n            uint diffBaseQuoteDecimals = uint(commonParams.lendDecimals).sub(uint(commonParams.collDecimals));\n            ratio = newBal.mul(actualPrice).div(borrAmnt).mul(100).div(10 ** pairDecimals).mul(10 ** diffBaseQuoteDecimals);\n        }\n        return ratio;\n    }\n\n    /**\n    * @dev calc how much collateral amount has to be added to have a ratio\n    * @param _ratio ratio to reach, percentage with no decimals (180 means 180%)\n    * @return collDiff collateral amount to add or to subtract to reach that ratio\n    */\n    function calcDiffCollAmountForRatio(uint _ratio) external view returns (uint collDiff) {\n        uint bal = address(this).balance;\n        uint actualPrice = getPairPrice();\n        uint pairDecimals = getPairDecimals();\n        uint newBal;\n        uint newRatio = _ratio;\n        uint borrAmnt = commonParams.borrowedAskAmount;\n        if (commonParams.collDecimals >= commonParams.lendDecimals) {\n            uint diffBaseQuoteDecimals = uint(commonParams.collDecimals).sub(uint(commonParams.lendDecimals));\n            newBal = borrAmnt.mul(newRatio).mul(10 ** pairDecimals).div(actualPrice).div(100).mul(10 ** diffBaseQuoteDecimals);\n        } else {\n            uint diffBaseQuoteDecimals = uint(commonParams.lendDecimals).sub(uint(commonParams.collDecimals));\n            newBal = borrAmnt.mul(newRatio).mul(10 ** pairDecimals).div(actualPrice).div(100).div(10 ** diffBaseQuoteDecimals);\n        }\n        if (newBal >= bal)\n            collDiff = newBal.sub(bal);\n        else\n            collDiff = bal.sub(newBal);\n        return collDiff;\n    }\n\n    //// Status 0 -> 1\n    /**\n    * @dev lender sends required stable coins to borrower and set the initial lender as a stakeholder (100%)\n    * @param _stableAddr, address of the stabl coin address\n    */\n    function lenderSendStableCoins(address _stableAddr) external nonReentrant {\n        require(msg.sender != address(0), \"ZeroAddress\");\n        require(_stableAddr == address(lentToken), \"!TokenOk\");\n        //require(lentToken.balanceOf(msg.sender) >= commonParams.borrowedAskAmount, \"LenderBalTooLow\");\n        require(loanStatus == Status.pending, \"!Status0\");\n        uint askAmount = commonParams.borrowedAskAmount;\n        uint256 allowance = lentToken.allowance(msg.sender, address(this));\n        require(allowance >= askAmount, \"!allowance\");\n        shareHoldersCounter = 1;\n        shareHolders[shareHoldersCounter] = ShareHolder({holder: msg.sender, shares: 100, ownerBlockNumber: loanActiveBlock});\n        shareHoldersAddress[msg.sender] = true;\n        shareHoldersPlace[msg.sender] = shareHoldersCounter;\n        loanStatus = Status.active;\n        loanActiveBlock = block.number;\n        lastInterestWithdrawalBlock = block.number;\n        TransferHelper.safeTransferFrom(address(lentToken), msg.sender, borrowerAddress, askAmount);\n        // move factory fees only when loan becomes active\n        uint minCollateralEth = IJFactory(loanParams.factoryAddress).calcMinCollateralAmount(commonParams.pairId, commonParams.borrowedAskAmount);\n        uint fees4Factory = IJFactory(loanParams.factoryAddress).calculateCollFeesOnActivation(minCollateralEth); // 5/1000 = 0,5%\n        TransferHelper.safeTransferETH(payable(feesCollector), fees4Factory);\n        emit LenderAccepted(msg.sender, fees4Factory, loanActiveBlock);\n    }\n\n    //// Status 1 or 2 or 3, based on collateral ratio\n    /**\n    * @dev set the status of the loan based on collateral ratio, applied only in states allowed \n    * @return loan status\n    */\n    function setLoanStatusOnCollRatio() public returns (uint){\n        if (uint(loanStatus) > 0 && uint(loanStatus) < 5) {     //not allowed if loan not active or foreclosed or in closing status or closed\n            uint newCollRatio = getActualCollateralRatio(); // (i.e. 180 means 180%)\n            if ( newCollRatio >= loanParams.foreclosingRatio ) {\n                loanStatus = Status(1);\n                loanForeclosingBlock = 0;   //reset foreclosing block\n            } else if ( newCollRatio <= loanParams.foreclosingRatio && newCollRatio >= loanParams.instantForeclosureRatio ) {\n                loanStatus = Status(2);\n            } else if ( newCollRatio < loanParams.instantForeclosureRatio ) {\n                loanStatus = Status(3);\n            }  \n        }\n        // else no change on status\n        emit NewLoanStatus(uint(loanStatus));\n        return uint(loanStatus);\n    }\n\n    //// Status 4 or 5, starting from 2 or 3, depending on collateral ratio\n    /**\n    * @dev set the loan in foreclosure state for undercollateralized loans\n    */\n    function initiateLoanForeClose() external nonReentrant {\n        uint status = setLoanStatusOnCollRatio();\n        require(status == 2 || status == 3, \"!Status23\");\n        uint reward;\n        if (status == 2) {\n            reward = (loanFees.undercollateralizedForeclosingMultiple).mul(commonParams.rpbRate);\n            setLoanForeclosing();\n        } else {\n            reward = (loanFees.atRiskForeclosedMultiple).mul(commonParams.rpbRate);\n            setLoanForeclosed();\n        }\n        uint bal = address(this).balance;\n        loanInitiateForeCloseBlock = block.number;\n        if (bal >= reward) {\n            uint userFees = reward.mul(loanFees.userRewardShare).div(100);\n            uint vaultFees = reward.mul(loanFees.vaultShare).div(100);\n            TransferHelper.safeTransferETH(msg.sender, userFees);\n            TransferHelper.safeTransferETH(payable(feesCollector), vaultFees);\n        } else {\n            uint userFees = bal.mul(loanFees.userRewardShare).div(100);\n            uint vaultFees = bal.sub(userFees);\n            setLoanClosed();\n            TransferHelper.safeTransferETH(msg.sender, userFees);\n            TransferHelper.safeTransferETH(payable(feesCollector), vaultFees);\n        }\n        emit InitiateForeClosure(msg.sender, loanInitiateForeCloseBlock);\n    }\n\n    //// Status 2 -> 4\n    /**\n    * @dev set the loan in foreclosure state for undercollateralized loans\n    */\n    function setLoanForeclosing() internal {\n        loanStatus = Status.foreClosing;\n        // get the block to calculate time to set it in foreclosed if no actions from the borrower\n        loanForeclosingBlock = block.number;\n        emit LoanForeclosing(msg.sender, block.number);\n    }\n\n    /**\n    * @dev set the loan in foreclosed state when foreclosureWindow time passed\n    */\n    function setLoanInForeclosedByTime() external nonReentrant returns (bool) {\n        require(uint(loanStatus) == 4, \"!Status4\");\n        bool result = false;\n        if (loanForeclosingBlock != 0 && block.number >= loanForeclosingBlock.add(loanParams.foreclosureWindow)) {\n            uint reward = (loanFees.atRiskForeclosedMultiple).mul(commonParams.rpbRate);\n            uint bal = address(this).balance;\n            if (bal >= reward) {\n                uint userFees = reward.mul(loanFees.userRewardShare).div(100);\n                uint vaultFees = reward.mul(loanFees.vaultShare).div(100);\n                TransferHelper.safeTransferETH(msg.sender, userFees);\n                TransferHelper.safeTransferETH(payable(feesCollector), vaultFees);\n                setLoanForeclosed();\n            } else {\n                uint userFees = bal.mul(loanFees.userRewardShare).div(100);\n                uint vaultFees = bal.sub(userFees);\n                TransferHelper.safeTransferETH(msg.sender, userFees);\n                TransferHelper.safeTransferETH(payable(feesCollector), vaultFees);\n                setLoanClosed();\n            }\n            result = true;\n        }\n        return result;\n    }\n\n    //// Status 2 -> 5\n    /**\n    * @dev set the loan in foreclosure state for undercollateralized loans\n    */\n    function setLoanForeclosed() internal {\n        loanForeclosedBlock = block.number;\n        loanStatus = Status.foreClosed;\n        emit LoanForeclosed(msg.sender, block.number);\n    }\n\n    //// Status = 6\n    function loanEarlyClosing() internal returns (uint) {\n        require(block.number < loanActiveBlock + loanParams.earlySettlementWindow, \"!EarlyClosing\");\n        loanStatus = Status.earlyClosing;\n        uint balanceRequested = (loanParams.earlySettlementWindow).mul(commonParams.rpbRate);\n        return balanceRequested;\n    }\n\n    //// Status = 7\n    /**\n    * @dev settle the loan in normal closing state by borrower\n    */\n    function loanClosingByBorrower() external nonReentrant {\n        require(msg.sender == borrowerAddress, \"!borrower\");\n        uint status = setLoanStatusOnCollRatio();\n        require(status > 0 && status <= 4, \"!Status14\");\n         // check that borrower gives back the loaned stable coin amount\n        uint256 allowance = lentToken.allowance(msg.sender, address(this));\n        require(allowance >= commonParams.borrowedAskAmount, \"!allowanceToSettle\");\n        uint balanceRequested;\n        if (block.number < loanActiveBlock + loanParams.earlySettlementWindow)\n            balanceRequested = loanEarlyClosing();\n        else\n            balanceRequested = getAccruedInterests();\n        uint feesAmount = 0;\n        if (loanStatus == Status.earlyClosing) \n            feesAmount = (loanFees.earlySettlementFee).mul(commonParams.rpbRate);\n        // check if there are enough collateral\n        uint bal = address(this).balance;\n        uint requestedAmount = balanceRequested.add(feesAmount);\n        loanClosingBlock = block.number;\n        loanStatus = Status.closing;\n        if (bal >= requestedAmount) {\n            // borrower receives back collateral\n            uint withdrawalBalance = bal.sub(requestedAmount); \n            TransferHelper.safeTransferETH(msg.sender, withdrawalBalance);\n            TransferHelper.safeTransferETH(payable(feesCollector), feesAmount);\n        } else if (bal >= feesAmount) {\n            TransferHelper.safeTransferETH(payable(feesCollector), feesAmount);\n            // borrower doesn't receive any collateral, what remains inside contract it is ditributed to lender(s) as the RPB\n        }\n        for (uint8 i = 1; i <= shareHoldersCounter; i++) {\n            address shAddress = shareHolders[i].holder;\n            uint shPlace = getShareHolderPlace(shareHolders[i].holder);\n            uint shShares = shareHolders[shPlace].shares;\n            TransferHelper.safeTransferFrom(address(lentToken), msg.sender, shAddress, (commonParams.borrowedAskAmount).mul(shShares).div(100));\n        }\n        emit LoanClosingByBorrower(loanClosingBlock);\n    }\n\n\n    //// Status = 8\n    /**\n    * @dev set the loan in closed state, let Shareholders to withdraw the stable coins back\n    */\n    function setLoanClosed() internal {\n        //require(uint(loanStatus) >= 6, \"Loan status not compatible with closed actions\");\n        loanClosedBlock = block.number;\n        loanStatus = Status.closed;\n        emit LoanClosed(loanClosedBlock);\n    }\n\n    //// Status = 9\n    /**\n    * @dev set the loan in cancelled state (only if pending)\n    */\n    function setLoanCancelled() external nonReentrant {\n        require(msg.sender == borrowerAddress, \"!borrower\");\n        require(uint(loanStatus) == 0, \"!Status0\");\n        uint feeCanc = (address(this).balance).mul(loanFees.cancellationFees).div(100);\n        uint withdrawalBalance = (address(this).balance).sub(feeCanc);\n        loanStatus = Status.cancelled;\n        TransferHelper.safeTransferETH(payable(feesCollector), feeCanc);\n        TransferHelper.safeTransferETH(msg.sender, withdrawalBalance);\n        emit LoanCancelled(msg.sender, commonParams.loanId, block.number);\n    }\n\n\n    //// Calculating interests functions\n    /**\n    * @dev calculate accrued interests of the contract\n    * @return accrued interests\n    */\n    function calculatingAccruedInterests(uint _calcBlk) public view returns (uint) {\n        require(_calcBlk >= lastInterestWithdrawalBlock, \"!validBlockNumber\");\n        return _calcBlk.sub(lastInterestWithdrawalBlock).mul(commonParams.rpbRate);  \n    }\n\n    /**\n    * @dev get accrued interests of the contract\n    * @return accruedInterests total accrued interests\n    */\n    function getAccruedInterests() public view returns (uint accruedInterests) {\n        require(uint(loanStatus) > 0 && uint(loanStatus) < 8, \"!Status17\");\n        //require(isShareHolder(msg.sender), \"Caller not allowed\");\n        uint lastEarlyBlock = loanActiveBlock.add(loanParams.earlySettlementWindow);\n        if (loanStatus == Status.earlyClosing && block.number <= lastEarlyBlock) {\n            accruedInterests = calculatingAccruedInterests(lastEarlyBlock);\n        } else {\n             if (loanClosedBlock != 0)\n                accruedInterests = calculatingAccruedInterests(Math.min(loanClosedBlock, block.number));\n            else\n                accruedInterests = calculatingAccruedInterests(block.number);\n        }\n        if ( accruedInterests > address(this).balance )\n            accruedInterests = address(this).balance;\n        return accruedInterests;\n    }\n\n    /**\n    * @dev withdraw accreud interests for all shareholders and set the status after interests withdrawal\n    * @return new status\n    */\n    function withdrawInterests() public nonReentrant returns (uint) {\n        // interests of all shareholders must be withdrawn with their shares amount\n        require(uint(loanStatus) > 0 && uint(loanStatus) < 8, \"!Status17\" );\n        uint status = uint(loanStatus);\n        uint bal = address(this).balance;\n        uint accruedTotalInterests = getAccruedInterests();\n        if (bal >= accruedTotalInterests) {\n            for (uint8 i = 1; i <= shareHoldersCounter; i++) {\n                shareholderWithdrawInterests(shareHolders[i].holder, accruedTotalInterests);\n            }\n            lastInterestWithdrawalBlock = block.number;\n            if (status <= 3)\n                status = setLoanStatusOnCollRatio();\n        } else if (bal == 0 && isShareHolder(msg.sender)) {\n            setLoanClosed();\n        } else {\n            for (uint8 i = 1; i <= shareHoldersCounter; i++) {\n                shareholderWithdrawInterests(shareHolders[i].holder, bal);\n            }\n            lastInterestWithdrawalBlock = block.number;\n            loanClosedBlock = block.number;\n            loanStatus = Status.closed;\n            status = uint(loanStatus);\n        }\n        emit InterestsWithdrawed(accruedTotalInterests, block.number);\n        return status;\n    }\n\n    //// Shareholders functions\n    /**\n    * @dev withdraw accreud interests for a shareholder\n    * @param _shareHolder shareholder address\n    */\n    function shareholderWithdrawInterests(address _shareHolder, uint _accruedTotalInterests) internal {\n        require(isShareHolder(_shareHolder), \"!shareholder\"); \n        for (uint8 i = 1; i <= shareHoldersCounter; i++) {\n            uint shPlace = getShareHolderPlace(shareHolders[i].holder);\n            uint shShares = shareHolders[shPlace].shares;\n            TransferHelper.safeTransferETH(payable(_shareHolder), _accruedTotalInterests.mul(shShares).div(100));\n        }\n    }\n\n    /**\n    * @dev check if an address is a shareholder\n    * @return boolean\n    */\n    function isShareHolder(address _holder) public view returns (bool) {\n        return shareHoldersAddress[_holder];\n    }\n\n    /**\n    * @dev get a shareholder place in shareholders array\n    * @return boolean\n    */\n    function getShareHolderPlace(address _holder) public view returns (uint) {\n        return shareHoldersPlace[_holder];\n    }\n\n    /**\n    * @dev add shareholder in shareholders arrays\n    * @param _newShareholder buyer address\n    * @param _amount amount of shares\n    * @return new status\n    */\n    function addLoanShareHolders(address _newShareholder, uint _amount) external nonReentrant returns (uint) {\n        require(isShareHolder(msg.sender), \"!shareholder\");\n        uint shPlace = getShareHolderPlace(msg.sender);\n        require(shPlace > 0, \"!shPlace\");\n        require(shareHolders[shPlace].shares >= _amount, \"!enoughShares\");\n        //before shares could be selled, interests of all shareholders must be withdrawn with old shares amount, in order to start with a new situation\n        require(block.number > loanActiveBlock + loanParams.earlySettlementWindow, \"earlyWindow\");\n        uint interestsAmount = getAccruedInterests();\n        for (uint8 i = 1; i <= shareHoldersCounter; i++) {\n            shareholderWithdrawInterests(shareHolders[i].holder, interestsAmount);\n        }\n\n        shareHolders[shPlace].shares = shareHolders[shPlace].shares.sub(_amount);\n        if(!isShareHolder(_newShareholder)) {\n            shareHoldersCounter = shareHoldersCounter.add(1);\n            shareHolders[shareHoldersCounter] = ShareHolder({holder: _newShareholder, shares: _amount, ownerBlockNumber: block.number});\n            shareHoldersAddress[_newShareholder] = true;\n            shareHoldersPlace[_newShareholder] = shareHoldersCounter;\n        } else {\n            uint shPlaceNew = getShareHolderPlace(_newShareholder);\n            shareHolders[shPlaceNew].shares = shareHolders[shPlaceNew].shares.add(_amount);\n            shareHolders[shPlaceNew].ownerBlockNumber = block.number;\n            emit AddShareHolderShares(msg.sender, _newShareholder, _amount, block.number);\n        }\n\n        lastInterestWithdrawalBlock = block.number;\n        uint status = setLoanStatusOnCollRatio();\n        return status;\n    }\n}",
  "sourcePath": "C:\\Users\\saurabh\\code\\Jibrel\\defi-smartcontracts\\LoansFactoryV2\\contracts\\JLoanEth.sol",
  "compiler": {
    "name": "solc",
    "version": "0.6.11+commit.5ef660b1.Emscripten.clang"
  },
  "schemaVersion": "3.3.1",
  "updatedAt": "2020-10-18T18:33:14.093Z",
  "networkType": "ethereum",
  "devdoc": {
    "kind": "dev",
    "methods": {
      "addLoanShareHolders(address,uint256)": {
        "details": "add shareholder in shareholders arrays",
        "params": {
          "_amount": "amount of shares",
          "_newShareholder": "buyer address"
        },
        "returns": {
          "_0": "new status"
        }
      },
      "calcDiffCollAmountForRatio(uint256)": {
        "details": "calc how much collateral amount has to be added to have a ratio",
        "params": {
          "_ratio": "ratio to reach, percentage with no decimals (180 means 180%)"
        },
        "returns": {
          "collDiff": "collateral amount to add or to subtract to reach that ratio"
        }
      },
      "calcRatioAddingCollateral(uint256)": {
        "details": "calc a new ratio if collateral amount has added to contract balance",
        "params": {
          "_amount": "collateral amount to add"
        },
        "returns": {
          "ratio": "new collateral ratio, percentage with no decimals"
        }
      },
      "calculatingAccruedInterests(uint256)": {
        "details": "calculate accrued interests of the contract",
        "returns": {
          "_0": "accrued interests"
        }
      },
      "checkEarlySettledLoan()": {
        "details": "check if loan is settled in early settlement period",
        "returns": {
          "_0": "boolean"
        }
      },
      "checkLoanInEarlySettlementWindow()": {
        "details": "check if loan is in early settlement period",
        "returns": {
          "_0": "boolean"
        }
      },
      "getAccruedInterests()": {
        "details": "get accrued interests of the contract",
        "returns": {
          "accruedInterests": "total accrued interests"
        }
      },
      "getActualCollateralRatio()": {
        "details": "get the collateral ratio of the loan (subtracting the accrued interests)",
        "returns": {
          "newCollRatio": "collateral ratio"
        }
      },
      "getContractBalance()": {
        "details": "get contract balance",
        "returns": {
          "_0": "balance"
        }
      },
      "getLoanStatus()": {
        "details": "get contract status",
        "returns": {
          "_0": "status"
        }
      },
      "getPairDecimals()": {
        "details": "get pair decimals",
        "returns": {
          "_0": "number of decimals"
        }
      },
      "getPairPrice()": {
        "details": "get pair price",
        "returns": {
          "_0": "price"
        }
      },
      "getShareHolderPlace(address)": {
        "details": "get a shareholder place in shareholders array",
        "returns": {
          "_0": "boolean"
        }
      },
      "initiateLoanForeClose()": {
        "details": "set the loan in foreclosure state for undercollateralized loans"
      },
      "isShareHolder(address)": {
        "details": "check if an address is a shareholder",
        "returns": {
          "_0": "boolean"
        }
      },
      "lenderSendStableCoins(address)": {
        "details": "lender sends required stable coins to borrower and set the initial lender as a stakeholder (100%)",
        "params": {
          "_stableAddr": ", address of the stabl coin address"
        }
      },
      "loanClosingByBorrower()": {
        "details": "settle the loan in normal closing state by borrower"
      },
      "owner()": {
        "details": "Returns the address of the current owner."
      },
      "renounceOwnership()": {
        "details": "Leaves the contract without owner. It will not be possible to call `onlyOwner` functions anymore. Can only be called by the current owner. NOTE: Renouncing ownership will leave the contract without an owner, thereby removing any functionality that is only available to the owner."
      },
      "setInitalCollateralRatio()": {
        "details": "set initial collateral ratio of the loan"
      },
      "setLoanCancelled()": {
        "details": "set the loan in cancelled state (only if pending)"
      },
      "setLoanInForeclosedByTime()": {
        "details": "set the loan in foreclosed state when foreclosureWindow time passed"
      },
      "setLoanStatusOnCollRatio()": {
        "details": "set the status of the loan based on collateral ratio, applied only in states allowed ",
        "returns": {
          "_0": "loan status"
        }
      },
      "setNewCommonParams()": {
        "details": "set common parameters in loan contract, reading them from factory"
      },
      "setNewFeesParams()": {
        "details": "set common parameters in loan contract, reading them from factory"
      },
      "transferOwnership(address)": {
        "details": "Transfers ownership of the contract to a new account (`newOwner`). Can only be called by the current owner."
      },
      "withdrawInterests()": {
        "details": "withdraw accreud interests for all shareholders and set the status after interests withdrawal",
        "returns": {
          "_0": "new status"
        }
      }
    },
    "version": 1
  },
  "userdoc": {
    "kind": "user",
    "methods": {},
    "version": 1
  }
}