{
  "contractName": "JPriceOracle",
  "abi": [
    {
      "inputs": [],
      "stateMutability": "nonpayable",
      "type": "constructor"
    },
    {
      "anonymous": false,
      "inputs": [
        {
          "indexed": true,
          "internalType": "uint256",
          "name": "_pairId",
          "type": "uint256"
        },
        {
          "indexed": false,
          "internalType": "string",
          "name": "_pairName",
          "type": "string"
        }
      ],
      "name": "NewPair",
      "type": "event"
    },
    {
      "anonymous": false,
      "inputs": [
        {
          "indexed": true,
          "internalType": "uint256",
          "name": "pairId",
          "type": "uint256"
        },
        {
          "indexed": true,
          "internalType": "string",
          "name": "pairName",
          "type": "string"
        },
        {
          "indexed": false,
          "internalType": "address",
          "name": "baseAddress",
          "type": "address"
        },
        {
          "indexed": false,
          "internalType": "address",
          "name": "quoteAddress",
          "type": "address"
        }
      ],
      "name": "NewPairAddresses",
      "type": "event"
    },
    {
      "anonymous": false,
      "inputs": [
        {
          "indexed": true,
          "internalType": "uint256",
          "name": "pairId",
          "type": "uint256"
        },
        {
          "indexed": true,
          "internalType": "string",
          "name": "pairName",
          "type": "string"
        },
        {
          "indexed": false,
          "internalType": "uint8",
          "name": "baseDecimals",
          "type": "uint8"
        },
        {
          "indexed": false,
          "internalType": "uint8",
          "name": "quoteDecimals",
          "type": "uint8"
        }
      ],
      "name": "NewPairDecimals",
      "type": "event"
    },
    {
      "anonymous": false,
      "inputs": [
        {
          "indexed": true,
          "internalType": "uint256",
          "name": "pairId",
          "type": "uint256"
        },
        {
          "indexed": true,
          "internalType": "string",
          "name": "pairName",
          "type": "string"
        },
        {
          "indexed": false,
          "internalType": "uint256",
          "name": "pairValue",
          "type": "uint256"
        },
        {
          "indexed": false,
          "internalType": "uint8",
          "name": "pairDecimals",
          "type": "uint8"
        }
      ],
      "name": "NewPrice",
      "type": "event"
    },
    {
      "anonymous": false,
      "inputs": [
        {
          "indexed": true,
          "internalType": "address",
          "name": "previousOwner",
          "type": "address"
        },
        {
          "indexed": true,
          "internalType": "address",
          "name": "newOwner",
          "type": "address"
        }
      ],
      "name": "OwnershipTransferred",
      "type": "event"
    },
    {
      "inputs": [],
      "name": "owner",
      "outputs": [
        {
          "internalType": "address",
          "name": "",
          "type": "address"
        }
      ],
      "stateMutability": "view",
      "type": "function",
      "constant": true
    },
    {
      "inputs": [],
      "name": "pairCounter",
      "outputs": [
        {
          "internalType": "uint256",
          "name": "",
          "type": "uint256"
        }
      ],
      "stateMutability": "view",
      "type": "function",
      "constant": true
    },
    {
      "inputs": [
        {
          "internalType": "uint256",
          "name": "",
          "type": "uint256"
        }
      ],
      "name": "pairs",
      "outputs": [
        {
          "internalType": "string",
          "name": "pairName",
          "type": "string"
        },
        {
          "internalType": "uint256",
          "name": "pairValue",
          "type": "uint256"
        },
        {
          "internalType": "uint8",
          "name": "pairDecimals",
          "type": "uint8"
        },
        {
          "internalType": "address",
          "name": "baseAddress",
          "type": "address"
        },
        {
          "internalType": "uint8",
          "name": "baseDecimals",
          "type": "uint8"
        },
        {
          "internalType": "address",
          "name": "quoteAddress",
          "type": "address"
        },
        {
          "internalType": "uint8",
          "name": "quoteDecimals",
          "type": "uint8"
        }
      ],
      "stateMutability": "view",
      "type": "function",
      "constant": true
    },
    {
      "inputs": [],
      "name": "renounceOwnership",
      "outputs": [],
      "stateMutability": "nonpayable",
      "type": "function"
    },
    {
      "inputs": [
        {
          "internalType": "address",
          "name": "newOwner",
          "type": "address"
        }
      ],
      "name": "transferOwnership",
      "outputs": [],
      "stateMutability": "nonpayable",
      "type": "function"
    },
    {
      "inputs": [
        {
          "internalType": "string",
          "name": "_pairName",
          "type": "string"
        },
        {
          "internalType": "uint256",
          "name": "_price",
          "type": "uint256"
        },
        {
          "internalType": "uint8",
          "name": "_pairDecimals",
          "type": "uint8"
        },
        {
          "internalType": "address",
          "name": "_baseAddress",
          "type": "address"
        },
        {
          "internalType": "uint8",
          "name": "_baseDecimals",
          "type": "uint8"
        },
        {
          "internalType": "address",
          "name": "_quoteAddress",
          "type": "address"
        },
        {
          "internalType": "uint8",
          "name": "_quoteDecimals",
          "type": "uint8"
        }
      ],
      "name": "setNewPair",
      "outputs": [],
      "stateMutability": "nonpayable",
      "type": "function"
    },
    {
      "inputs": [
        {
          "internalType": "uint256",
          "name": "_pairId",
          "type": "uint256"
        },
        {
          "internalType": "uint256",
          "name": "_price",
          "type": "uint256"
        },
        {
          "internalType": "uint8",
          "name": "_pairDecimals",
          "type": "uint8"
        }
      ],
      "name": "setPairValue",
      "outputs": [],
      "stateMutability": "nonpayable",
      "type": "function"
    },
    {
      "inputs": [
        {
          "internalType": "uint256",
          "name": "_pairId",
          "type": "uint256"
        },
        {
          "internalType": "uint8",
          "name": "_baseDecimals",
          "type": "uint8"
        },
        {
          "internalType": "uint8",
          "name": "_quoteDecimals",
          "type": "uint8"
        }
      ],
      "name": "setBaseQuoteDecimals",
      "outputs": [],
      "stateMutability": "nonpayable",
      "type": "function"
    },
    {
      "inputs": [],
      "name": "getPairCounter",
      "outputs": [
        {
          "internalType": "uint256",
          "name": "",
          "type": "uint256"
        }
      ],
      "stateMutability": "view",
      "type": "function",
      "constant": true
    },
    {
      "inputs": [
        {
          "internalType": "uint256",
          "name": "_pairId",
          "type": "uint256"
        }
      ],
      "name": "getPairValue",
      "outputs": [
        {
          "internalType": "uint256",
          "name": "",
          "type": "uint256"
        }
      ],
      "stateMutability": "view",
      "type": "function",
      "constant": true
    },
    {
      "inputs": [
        {
          "internalType": "uint256",
          "name": "_pairId",
          "type": "uint256"
        }
      ],
      "name": "getPairName",
      "outputs": [
        {
          "internalType": "string",
          "name": "",
          "type": "string"
        }
      ],
      "stateMutability": "view",
      "type": "function",
      "constant": true
    },
    {
      "inputs": [
        {
          "internalType": "uint256",
          "name": "_pairId",
          "type": "uint256"
        }
      ],
      "name": "getPairDecimals",
      "outputs": [
        {
          "internalType": "uint8",
          "name": "",
          "type": "uint8"
        }
      ],
      "stateMutability": "view",
      "type": "function",
      "constant": true
    },
    {
      "inputs": [
        {
          "internalType": "uint256",
          "name": "_pairId",
          "type": "uint256"
        }
      ],
      "name": "getPairBaseDecimals",
      "outputs": [
        {
          "internalType": "uint8",
          "name": "",
          "type": "uint8"
        }
      ],
      "stateMutability": "view",
      "type": "function",
      "constant": true
    },
    {
      "inputs": [
        {
          "internalType": "uint256",
          "name": "_pairId",
          "type": "uint256"
        }
      ],
      "name": "getPairQuoteDecimals",
      "outputs": [
        {
          "internalType": "uint8",
          "name": "",
          "type": "uint8"
        }
      ],
      "stateMutability": "view",
      "type": "function",
      "constant": true
    },
    {
      "inputs": [
        {
          "internalType": "uint256",
          "name": "_pairId",
          "type": "uint256"
        }
      ],
      "name": "getPairBaseAddress",
      "outputs": [
        {
          "internalType": "address",
          "name": "",
          "type": "address"
        }
      ],
      "stateMutability": "view",
      "type": "function",
      "constant": true
    },
    {
      "inputs": [
        {
          "internalType": "uint256",
          "name": "_pairId",
          "type": "uint256"
        }
      ],
      "name": "getPairQuoteAddress",
      "outputs": [
        {
          "internalType": "address",
          "name": "",
          "type": "address"
        }
      ],
      "stateMutability": "view",
      "type": "function",
      "constant": true
    }
  ],
  "bytecode": "0x608060405234801561001057600080fd5b5060006100246001600160e01b0361007316565b600080546001600160a01b0319166001600160a01b0383169081178255604051929350917f8be0079c531659141344cd1fd0a4f28419497f9722a3daafe3b4186f6b6457e0908290a350610077565b3390565b610f8b806100866000396000f3fe608060405234801561001057600080fd5b50600436106101005760003560e01c80637c2f7b9611610097578063e132d94111610066578063e132d9411461021a578063e5549e2614610222578063f2fde38b14610235578063fc881f251461024857610100565b80637c2f7b96146101b95780638da5cb5b146101cc578063b91ac788146101d4578063ca937ea6146101fa57610100565b806357ac3e0a116100d357806357ac3e0a14610181578063606a04dd14610194578063715018a6146101a95780637451b4f3146101b157610100565b806307585313146101055780631013aa241461012e5780632669f19a1461014e5780634e7e3a0e1461016e575b600080fd5b610118610113366004610c84565b61025b565b6040516101259190610dc0565b60405180910390f35b61014161013c366004610c84565b6102ab565b6040516101259190610f33565b61016161015c366004610c84565b6102ee565b6040516101259190610f19565b61011861017c366004610c84565b610328565b61014161018f366004610c84565b61036a565b6101a76101a2366004610c9c565b6103a6565b005b6101a7610496565b610161610515565b6101416101c7366004610c84565b61051c565b61011861055f565b6101e76101e2366004610c84565b61056e565b6040516101259796959493929190610de7565b61020d610208366004610c84565b610648565b6040516101259190610dd4565b610161610709565b6101a7610230366004610cd1565b61070f565b6101a7610243366004610b69565b610829565b6101a7610256366004610b8b565b6108df565b600060025482106102875760405162461bcd60e51b815260040161027e90610eb6565b60405180910390fd5b5060009081526001602052604090206002015461010090046001600160a01b031690565b600060025482106102ce5760405162461bcd60e51b815260040161027e90610eb6565b50600090815260016020526040902060020154600160a81b900460ff1690565b600060025482106103115760405162461bcd60e51b815260040161027e90610eb6565b506000908152600160208190526040909120015490565b6000600254821061034b5760405162461bcd60e51b815260040161027e90610eb6565b506000908152600160205260409020600301546001600160a01b031690565b6000600254821061038d5760405162461bcd60e51b815260040161027e90610eb6565b5060009081526001602052604090206002015460ff1690565b6103ae610a77565b6000546001600160a01b039081169116146103db5760405162461bcd60e51b815260040161027e90610ee4565b60025483106103fc5760405162461bcd60e51b815260040161027e90610eb6565b60008381526001602081905260409182902090810184905560028101805460ff191660ff851617905590516104319190610d50565b6040805191829003822060008681526001602081905292902091820154600290920154909286927f8faf8b67d977271b82c52dedfc0bf5414b0c347fd7cb985a8661863fb6954c1c926104899260ff90911690610f22565b60405180910390a3505050565b61049e610a77565b6000546001600160a01b039081169116146104cb5760405162461bcd60e51b815260040161027e90610ee4565b600080546040516001600160a01b03909116907f8be0079c531659141344cd1fd0a4f28419497f9722a3daafe3b4186f6b6457e0908390a3600080546001600160a01b0319169055565b6002545b90565b6000600254821061053f5760405162461bcd60e51b815260040161027e90610eb6565b50600090815260016020526040902060030154600160a01b900460ff1690565b6000546001600160a01b031690565b60016020818152600092835260409283902080548451600294821615610100026000190190911693909304601f81018390048302840183019094528383529283918301828280156106005780601f106105d557610100808354040283529160200191610600565b820191906000526020600020905b8154815290600101906020018083116105e357829003601f168201915b505050600184015460028501546003909501549394909360ff80831694506001600160a01b03610100840481169450600160a81b909304811692821691600160a01b90041687565b6060600254821061066b5760405162461bcd60e51b815260040161027e90610eb6565b60008281526001602081815260409283902080548451600294821615610100026000190190911693909304601f81018390048302840183019094528383529192908301828280156106fd5780601f106106d2576101008083540402835291602001916106fd565b820191906000526020600020905b8154815290600101906020018083116106e057829003601f168201915b50505050509050919050565b60025481565b610717610a77565b6000546001600160a01b039081169116146107445760405162461bcd60e51b815260040161027e90610ee4565b60025483106107655760405162461bcd60e51b815260040161027e90610eb6565b6000838152600160205260409081902060028101805460ff808716600160a81b0260ff60a81b1990921691909117909155600382018054918516600160a01b0260ff60a01b1990921691909117905590516107c09190610d50565b6040805191829003822060008681526001602052919091206002810154600390910154919286927f0c7c54329d4708979e5479f990e4abb586ffb676d9b402b2459467c86721efc79261048992600160a81b90910460ff90811692600160a01b90041690610f41565b610831610a77565b6000546001600160a01b0390811691161461085e5760405162461bcd60e51b815260040161027e90610ee4565b6001600160a01b0381166108845760405162461bcd60e51b815260040161027e90610e39565b600080546040516001600160a01b03808516939216917f8be0079c531659141344cd1fd0a4f28419497f9722a3daafe3b4186f6b6457e091a3600080546001600160a01b0319166001600160a01b0392909216919091179055565b6108e7610a77565b6000546001600160a01b039081169116146109145760405162461bcd60e51b815260040161027e90610ee4565b6040805160e081018252888152602080820189905260ff808916838501526001600160a01b0380891660608501528782166080850152861660a0840152841660c083015260025460009081526001825292909220815180519293919261097d9284920190610aa9565b5060208201516001820155604080830151600280840180546060870151608088015160ff1990921660ff95861617610100600160a81b0319166101006001600160a01b03928316021760ff60a81b1916600160a81b928616929092029190911790915560a08601516003909501805460c0909701516001600160a01b0319909716959091169490941760ff60a01b1916600160a01b959092169490940217909155905490517f191c33c4db02b29dcf62df443c1c3a565f4628da46040183c5c24ab61e6e42ae90610a4f908a90610dd4565b60405180910390a2600254610a6b90600163ffffffff610a7b16565b60025550505050505050565b3390565b600082820183811015610aa05760405162461bcd60e51b815260040161027e90610e7f565b90505b92915050565b828054600181600116156101000203166002900490600052602060002090601f016020900481019282601f10610aea57805160ff1916838001178555610b17565b82800160010185558215610b17579182015b82811115610b17578251825591602001919060010190610afc565b50610b23929150610b27565b5090565b61051991905b80821115610b235760008155600101610b2d565b80356001600160a01b0381168114610aa357600080fd5b803560ff81168114610aa357600080fd5b600060208284031215610b7a578081fd5b610b848383610b41565b9392505050565b600080600080600080600060e0888a031215610ba5578283fd5b873567ffffffffffffffff80821115610bbc578485fd5b818a018b601f820112610bcd578586fd5b8035925081831115610bdd578586fd5b6040516020601f8501601f1916820181018481118382101715610bfe578889fd5b60405284825282850181018e1015610c14578788fd5b84818401828401379381018401879052995050508801359550610c3a8960408a01610b58565b9450610c498960608a01610b41565b9350610c588960808a01610b58565b9250610c678960a08a01610b41565b9150610c768960c08a01610b58565b905092959891949750929550565b600060208284031215610c95578081fd5b5035919050565b600080600060608486031215610cb0578283fd5b8335925060208401359150610cc88560408601610b58565b90509250925092565b600080600060608486031215610ce5578283fd5b83359250610cf68560208601610b58565b9150610cc88560408601610b58565b60008151808452815b81811015610d2a57602081850181015186830182015201610d0e565b81811115610d3b5782602083870101525b50601f01601f19169290920160200192915050565b6000808354600180821660008114610d6f5760018114610d8657610db5565b60ff198316865260028304607f1686019350610db5565b600283048786526020808720875b83811015610dad5781548a820152908501908201610d94565b505050860193505b509195945050505050565b6001600160a01b0391909116815260200190565b600060208252610b846020830184610d05565b600060e08252610dfa60e083018a610d05565b60208301989098525060ff95861660408201526001600160a01b0394851660608201529285166080840152921660a0820152911660c090910152919050565b60208082526026908201527f4f776e61626c653a206e6577206f776e657220697320746865207a65726f206160408201526564647265737360d01b606082015260800190565b6020808252601b908201527f536166654d6174683a206164646974696f6e206f766572666c6f770000000000604082015260600190565b6020808252601490820152737061697220646f6573206e6f742065786973747360601b604082015260600190565b6020808252818101527f4f776e61626c653a2063616c6c6572206973206e6f7420746865206f776e6572604082015260600190565b90815260200190565b91825260ff16602082015260400190565b60ff91909116815260200190565b60ff9283168152911660208201526040019056fea26469706673582212207b3ed87cc3c30fd05aa9bc273f03fc8e021dc94c68d9bb1a6430ad1fc9a7ed9564736f6c634300060b0033",
  "immutableReferences": {},
  "source": "// SPDX-License-Identifier: MIT\n/**\n * Created on 2020-10-28\n * @summary: Jibrel Loans Factory\n * @author: Jibrel Team\n */\npragma solidity 0.6.11;\npragma experimental ABIEncoderV2;\n\nimport \"@openzeppelin/contracts/math/SafeMath.sol\";\nimport \"@openzeppelin/contracts/access/Ownable.sol\";\n\n\ncontract JPriceOracle is Ownable { \n    using SafeMath for uint256;\n\n    struct Pair {\n        string pairName;\n        uint pairValue;\n        uint8 pairDecimals;\n        address baseAddress;\n        uint8 baseDecimals;\n        address quoteAddress;\n        uint8 quoteDecimals;\n    }\n    mapping(uint => Pair) public pairs;\n    uint public pairCounter;\n\n    event NewPair(uint indexed _pairId, string _pairName);\n    event NewPrice(uint indexed pairId, string indexed pairName, uint pairValue, uint8 pairDecimals);\n    event NewPairDecimals(uint indexed pairId, string indexed pairName, uint8 baseDecimals, uint8 quoteDecimals);\n    event NewPairAddresses(uint indexed pairId, string indexed pairName, address baseAddress , address quoteAddress);\n\n    constructor () public { }\n\n    /**\n    * @dev set a new pair\n    * @param _pairName string describing the pair (i.e. ETHDAI)\n    * @param _price price of the pair\n    * @param _pairDecimals number of decimals for pair\n    * @param _baseAddress base address token\n    * @param _baseDecimals base decimals token\n    * @param _quoteAddress quote address token\n    * @param _quoteDecimals quote decimals token\n    */\n    function setNewPair(string memory _pairName, uint _price, uint8 _pairDecimals, \n                address _baseAddress, uint8 _baseDecimals, address _quoteAddress, uint8 _quoteDecimals) external onlyOwner {\n        pairs[pairCounter] = Pair({pairName: _pairName, pairValue: _price, pairDecimals: _pairDecimals, \n                baseAddress: _baseAddress, baseDecimals: _baseDecimals, quoteAddress: _quoteAddress, quoteDecimals: _quoteDecimals});\n        emit NewPair(pairCounter, _pairName);\n        pairCounter = pairCounter.add(1);\n    }\n\n    /**\n    * @dev set a price for the specified pair\n    * @param _pairId number of the pair\n    * @param _price price of the pair\n    * @param _pairDecimals number of decimals for pair\n    */\n    function setPairValue(uint _pairId, uint _price, uint8 _pairDecimals) external onlyOwner {\n        require(_pairId < pairCounter, \"pair does not exists\");\n        pairs[_pairId].pairValue = _price;\n        pairs[_pairId].pairDecimals = _pairDecimals;\n        emit NewPrice(_pairId, pairs[_pairId].pairName, pairs[_pairId].pairValue, pairs[_pairId].pairDecimals);\n    }\n\n    /**\n    * @dev set a base and quote decimals for the specified pair\n    * @param _pairId number of the pair\n    * @param _baseDecimals base decimals of the pair\n    * @param _quoteDecimals quote decimals for pair\n    */\n    function setBaseQuoteDecimals(uint _pairId, uint8 _baseDecimals, uint8 _quoteDecimals) external onlyOwner {\n        require(_pairId < pairCounter, \"pair does not exists\");\n        pairs[_pairId].baseDecimals = _baseDecimals;\n        pairs[_pairId].quoteDecimals = _quoteDecimals;\n        emit NewPairDecimals(_pairId, pairs[_pairId].pairName, pairs[_pairId].baseDecimals, pairs[_pairId].quoteDecimals);\n    }\n\n    /**\n    * @dev get a pair price\n    * @return pairs counter\n    */\n    function getPairCounter() external view returns (uint) {\n        return pairCounter;\n    }\n\n    /**\n    * @dev get a pair price\n    * @param _pairId number of the pair\n    * @return price of the pair\n    */\n    function getPairValue(uint _pairId) external view returns (uint) {\n        require(_pairId < pairCounter, \"pair does not exists\");\n        return pairs[_pairId].pairValue;\n    }\n\n    /**\n    * @dev get a pair name\n    * @param _pairId number of the pair\n    * @return name of the pair\n    */\n    function getPairName(uint _pairId) external view returns (string memory) {\n        require(_pairId < pairCounter, \"pair does not exists\");\n        return pairs[_pairId].pairName;\n    }\n\n    /**\n    * @dev get a pair decimals\n    * @param _pairId number of the pair\n    * @return decimals of the pair\n    */\n    function getPairDecimals(uint _pairId) external view returns (uint8) {\n        require(_pairId < pairCounter, \"pair does not exists\");\n        return pairs[_pairId].pairDecimals;\n    }\n\n    /**\n    * @dev get a pair base decimals\n    * @param _pairId number of the pair\n    * @return number of base currency decimals\n    */\n    function getPairBaseDecimals(uint _pairId) external view returns (uint8) {\n        require(_pairId < pairCounter, \"pair does not exists\");\n        return pairs[_pairId].baseDecimals;\n    }\n\n    /**\n    * @dev get a pair quote decimals\n    * @param _pairId number of the pair\n    * @return number of quote currency decimals\n    */\n    function getPairQuoteDecimals(uint _pairId) external view returns (uint8) {\n        require(_pairId < pairCounter, \"pair does not exists\");\n        return pairs[_pairId].quoteDecimals;\n    }\n\n    /**\n    * @dev get a pair base decimals\n    * @param _pairId number of the pair\n    * @return address of base currency decimals\n    */\n    function getPairBaseAddress(uint _pairId) external view returns (address) {\n        require(_pairId < pairCounter, \"pair does not exists\");\n        return pairs[_pairId].baseAddress;\n    }\n\n    /**\n    * @dev get a pair quote decimals\n    * @param _pairId number of the pair\n    * @return address of quote currency decimals\n    */\n    function getPairQuoteAddress(uint _pairId) external view returns (address) {\n        require(_pairId < pairCounter, \"pair does not exists\");\n        return pairs[_pairId].quoteAddress;\n    }\n}",
  "sourcePath": "C:/Users/saurabh/code/Jibrel/defi-smartcontracts/LoansFactoryV2/contracts/JPriceOracle.sol",
  "compiler": {
    "name": "solc",
    "version": "0.6.11+commit.5ef660b1.Emscripten.clang"
  },
  "schemaVersion": "3.3.1",
  "updatedAt": "2020-11-01T07:00:13.206Z",
  "networkType": "ethereum",
  "devdoc": {
    "kind": "dev",
    "methods": {
      "getPairBaseAddress(uint256)": {
        "details": "get a pair base decimals",
        "params": {
          "_pairId": "number of the pair"
        },
        "returns": {
          "_0": "address of base currency decimals"
        }
      },
      "getPairBaseDecimals(uint256)": {
        "details": "get a pair base decimals",
        "params": {
          "_pairId": "number of the pair"
        },
        "returns": {
          "_0": "number of base currency decimals"
        }
      },
      "getPairCounter()": {
        "details": "get a pair price",
        "returns": {
          "_0": "pairs counter"
        }
      },
      "getPairDecimals(uint256)": {
        "details": "get a pair decimals",
        "params": {
          "_pairId": "number of the pair"
        },
        "returns": {
          "_0": "decimals of the pair"
        }
      },
      "getPairName(uint256)": {
        "details": "get a pair name",
        "params": {
          "_pairId": "number of the pair"
        },
        "returns": {
          "_0": "name of the pair"
        }
      },
      "getPairQuoteAddress(uint256)": {
        "details": "get a pair quote decimals",
        "params": {
          "_pairId": "number of the pair"
        },
        "returns": {
          "_0": "address of quote currency decimals"
        }
      },
      "getPairQuoteDecimals(uint256)": {
        "details": "get a pair quote decimals",
        "params": {
          "_pairId": "number of the pair"
        },
        "returns": {
          "_0": "number of quote currency decimals"
        }
      },
      "getPairValue(uint256)": {
        "details": "get a pair price",
        "params": {
          "_pairId": "number of the pair"
        },
        "returns": {
          "_0": "price of the pair"
        }
      },
      "owner()": {
        "details": "Returns the address of the current owner."
      },
      "renounceOwnership()": {
        "details": "Leaves the contract without owner. It will not be possible to call `onlyOwner` functions anymore. Can only be called by the current owner. NOTE: Renouncing ownership will leave the contract without an owner, thereby removing any functionality that is only available to the owner."
      },
      "setBaseQuoteDecimals(uint256,uint8,uint8)": {
        "details": "set a base and quote decimals for the specified pair",
        "params": {
          "_baseDecimals": "base decimals of the pair",
          "_pairId": "number of the pair",
          "_quoteDecimals": "quote decimals for pair"
        }
      },
      "setNewPair(string,uint256,uint8,address,uint8,address,uint8)": {
        "details": "set a new pair",
        "params": {
          "_baseAddress": "base address token",
          "_baseDecimals": "base decimals token",
          "_pairDecimals": "number of decimals for pair",
          "_pairName": "string describing the pair (i.e. ETHDAI)",
          "_price": "price of the pair",
          "_quoteAddress": "quote address token",
          "_quoteDecimals": "quote decimals token"
        }
      },
      "setPairValue(uint256,uint256,uint8)": {
        "details": "set a price for the specified pair",
        "params": {
          "_pairDecimals": "number of decimals for pair",
          "_pairId": "number of the pair",
          "_price": "price of the pair"
        }
      },
      "transferOwnership(address)": {
        "details": "Transfers ownership of the contract to a new account (`newOwner`). Can only be called by the current owner."
      }
    },
    "version": 1
  },
  "userdoc": {
    "kind": "user",
    "methods": {},
    "version": 1
  }
}