{
  "contractName": "JPriceOracle",
  "abi": [
    {
      "inputs": [],
      "stateMutability": "nonpayable",
      "type": "constructor"
    },
    {
      "anonymous": false,
      "inputs": [
        {
          "indexed": true,
          "internalType": "uint256",
          "name": "_pairId",
          "type": "uint256"
        },
        {
          "indexed": false,
          "internalType": "string",
          "name": "_pairName",
          "type": "string"
        }
      ],
      "name": "NewPair",
      "type": "event"
    },
    {
      "anonymous": false,
      "inputs": [
        {
          "indexed": true,
          "internalType": "uint256",
          "name": "pairId",
          "type": "uint256"
        },
        {
          "indexed": true,
          "internalType": "string",
          "name": "pairName",
          "type": "string"
        },
        {
          "indexed": false,
          "internalType": "address",
          "name": "baseAddress",
          "type": "address"
        },
        {
          "indexed": false,
          "internalType": "address",
          "name": "quoteAddress",
          "type": "address"
        }
      ],
      "name": "NewPairAddresses",
      "type": "event"
    },
    {
      "anonymous": false,
      "inputs": [
        {
          "indexed": true,
          "internalType": "uint256",
          "name": "pairId",
          "type": "uint256"
        },
        {
          "indexed": true,
          "internalType": "string",
          "name": "pairName",
          "type": "string"
        },
        {
          "indexed": false,
          "internalType": "uint8",
          "name": "baseDecimals",
          "type": "uint8"
        },
        {
          "indexed": false,
          "internalType": "uint8",
          "name": "quoteDecimals",
          "type": "uint8"
        }
      ],
      "name": "NewPairDecimals",
      "type": "event"
    },
    {
      "anonymous": false,
      "inputs": [
        {
          "indexed": true,
          "internalType": "uint256",
          "name": "pairId",
          "type": "uint256"
        },
        {
          "indexed": true,
          "internalType": "string",
          "name": "pairName",
          "type": "string"
        },
        {
          "indexed": false,
          "internalType": "uint256",
          "name": "pairValue",
          "type": "uint256"
        },
        {
          "indexed": false,
          "internalType": "uint8",
          "name": "pairDecimals",
          "type": "uint8"
        }
      ],
      "name": "NewPrice",
      "type": "event"
    },
    {
      "anonymous": false,
      "inputs": [
        {
          "indexed": true,
          "internalType": "address",
          "name": "previousOwner",
          "type": "address"
        },
        {
          "indexed": true,
          "internalType": "address",
          "name": "newOwner",
          "type": "address"
        }
      ],
      "name": "OwnershipTransferred",
      "type": "event"
    },
    {
      "inputs": [],
      "name": "factoryAddress",
      "outputs": [
        {
          "internalType": "address",
          "name": "",
          "type": "address"
        }
      ],
      "stateMutability": "view",
      "type": "function",
      "constant": true
    },
    {
      "inputs": [],
      "name": "owner",
      "outputs": [
        {
          "internalType": "address",
          "name": "",
          "type": "address"
        }
      ],
      "stateMutability": "view",
      "type": "function",
      "constant": true
    },
    {
      "inputs": [],
      "name": "pairCounter",
      "outputs": [
        {
          "internalType": "uint256",
          "name": "",
          "type": "uint256"
        }
      ],
      "stateMutability": "view",
      "type": "function",
      "constant": true
    },
    {
      "inputs": [
        {
          "internalType": "uint256",
          "name": "",
          "type": "uint256"
        }
      ],
      "name": "pairs",
      "outputs": [
        {
          "internalType": "string",
          "name": "pairName",
          "type": "string"
        },
        {
          "internalType": "uint256",
          "name": "pairValue",
          "type": "uint256"
        },
        {
          "internalType": "uint8",
          "name": "pairDecimals",
          "type": "uint8"
        },
        {
          "internalType": "address",
          "name": "baseAddress",
          "type": "address"
        },
        {
          "internalType": "uint8",
          "name": "baseDecimals",
          "type": "uint8"
        },
        {
          "internalType": "address",
          "name": "quoteAddress",
          "type": "address"
        },
        {
          "internalType": "uint8",
          "name": "quoteDecimals",
          "type": "uint8"
        }
      ],
      "stateMutability": "view",
      "type": "function",
      "constant": true
    },
    {
      "inputs": [],
      "name": "renounceOwnership",
      "outputs": [],
      "stateMutability": "nonpayable",
      "type": "function"
    },
    {
      "inputs": [
        {
          "internalType": "address",
          "name": "newOwner",
          "type": "address"
        }
      ],
      "name": "transferOwnership",
      "outputs": [],
      "stateMutability": "nonpayable",
      "type": "function"
    },
    {
      "inputs": [
        {
          "internalType": "address",
          "name": "_factoryAddress",
          "type": "address"
        }
      ],
      "name": "setFactoryAddress",
      "outputs": [],
      "stateMutability": "nonpayable",
      "type": "function"
    },
    {
      "inputs": [
        {
          "internalType": "string",
          "name": "_pairName",
          "type": "string"
        },
        {
          "internalType": "uint256",
          "name": "_price",
          "type": "uint256"
        },
        {
          "internalType": "uint8",
          "name": "_pairDecimals",
          "type": "uint8"
        },
        {
          "internalType": "address",
          "name": "_baseAddress",
          "type": "address"
        },
        {
          "internalType": "uint8",
          "name": "_baseDecimals",
          "type": "uint8"
        },
        {
          "internalType": "address",
          "name": "_quoteAddress",
          "type": "address"
        },
        {
          "internalType": "uint8",
          "name": "_quoteDecimals",
          "type": "uint8"
        }
      ],
      "name": "setNewPair",
      "outputs": [],
      "stateMutability": "nonpayable",
      "type": "function"
    },
    {
      "inputs": [
        {
          "internalType": "uint256",
          "name": "_pairId",
          "type": "uint256"
        },
        {
          "internalType": "uint256",
          "name": "_price",
          "type": "uint256"
        },
        {
          "internalType": "uint8",
          "name": "_pairDecimals",
          "type": "uint8"
        }
      ],
      "name": "setPairValue",
      "outputs": [],
      "stateMutability": "nonpayable",
      "type": "function"
    },
    {
      "inputs": [
        {
          "internalType": "uint256",
          "name": "_pairId",
          "type": "uint256"
        },
        {
          "internalType": "uint8",
          "name": "_baseDecimals",
          "type": "uint8"
        },
        {
          "internalType": "uint8",
          "name": "_quoteDecimals",
          "type": "uint8"
        }
      ],
      "name": "setBaseQuoteDecimals",
      "outputs": [],
      "stateMutability": "nonpayable",
      "type": "function"
    },
    {
      "inputs": [],
      "name": "getPairCounter",
      "outputs": [
        {
          "internalType": "uint256",
          "name": "",
          "type": "uint256"
        }
      ],
      "stateMutability": "view",
      "type": "function",
      "constant": true
    },
    {
      "inputs": [
        {
          "internalType": "uint256",
          "name": "_pairId",
          "type": "uint256"
        }
      ],
      "name": "getPairValue",
      "outputs": [
        {
          "internalType": "uint256",
          "name": "",
          "type": "uint256"
        }
      ],
      "stateMutability": "view",
      "type": "function",
      "constant": true
    },
    {
      "inputs": [
        {
          "internalType": "uint256",
          "name": "_pairId",
          "type": "uint256"
        }
      ],
      "name": "getPairName",
      "outputs": [
        {
          "internalType": "string",
          "name": "",
          "type": "string"
        }
      ],
      "stateMutability": "view",
      "type": "function",
      "constant": true
    },
    {
      "inputs": [
        {
          "internalType": "uint256",
          "name": "_pairId",
          "type": "uint256"
        }
      ],
      "name": "getPairDecimals",
      "outputs": [
        {
          "internalType": "uint8",
          "name": "",
          "type": "uint8"
        }
      ],
      "stateMutability": "view",
      "type": "function",
      "constant": true
    },
    {
      "inputs": [
        {
          "internalType": "uint256",
          "name": "_pairId",
          "type": "uint256"
        }
      ],
      "name": "getPairBaseDecimals",
      "outputs": [
        {
          "internalType": "uint8",
          "name": "",
          "type": "uint8"
        }
      ],
      "stateMutability": "view",
      "type": "function",
      "constant": true
    },
    {
      "inputs": [
        {
          "internalType": "uint256",
          "name": "_pairId",
          "type": "uint256"
        }
      ],
      "name": "getPairQuoteDecimals",
      "outputs": [
        {
          "internalType": "uint8",
          "name": "",
          "type": "uint8"
        }
      ],
      "stateMutability": "view",
      "type": "function",
      "constant": true
    },
    {
      "inputs": [
        {
          "internalType": "uint256",
          "name": "_pairId",
          "type": "uint256"
        }
      ],
      "name": "getPairBaseAddress",
      "outputs": [
        {
          "internalType": "address",
          "name": "",
          "type": "address"
        }
      ],
      "stateMutability": "view",
      "type": "function",
      "constant": true
    },
    {
      "inputs": [
        {
          "internalType": "uint256",
          "name": "_pairId",
          "type": "uint256"
        }
      ],
      "name": "getPairQuoteAddress",
      "outputs": [
        {
          "internalType": "address",
          "name": "",
          "type": "address"
        }
      ],
      "stateMutability": "view",
      "type": "function",
      "constant": true
    }
  ],
  "bytecode": "0x608060405234801561001057600080fd5b5060006100246001600160e01b0361007316565b600080546001600160a01b0319166001600160a01b0383169081178255604051929350917f8be0079c531659141344cd1fd0a4f28419497f9722a3daafe3b4186f6b6457e0908290a350610077565b3390565b6113d1806100866000396000f3fe608060405234801561001057600080fd5b50600436106101165760003560e01c806383c17c55116100a2578063ca937ea611610071578063ca937ea614610356578063e132d941146103e8578063e5549e26146103f0578063f2fde38b1461041e578063fc881f251461044457610116565b806383c17c551461024b5780638da5cb5b14610271578063966dae0e14610279578063b91ac7881461028157610116565b806357ac3e0a116100e957806357ac3e0a146101d3578063606a04dd146101f0578063715018a61461021e5780637451b4f3146102265780637c2f7b961461022e57610116565b8063075853131461011b5780631013aa24146101545780632669f19a146101875780634e7e3a0e146101b6575b600080fd5b6101386004803603602081101561013157600080fd5b503561051b565b604080516001600160a01b039092168252519081900360200190f35b6101716004803603602081101561016a57600080fd5b5035610586565b6040805160ff9092168252519081900360200190f35b6101a46004803603602081101561019d57600080fd5b50356105ed565b60408051918252519081900360200190f35b610138600480360360208110156101cc57600080fd5b5035610649565b610171600480360360208110156101e957600080fd5b50356106ae565b61021c6004803603606081101561020657600080fd5b508035906020810135906040013560ff1661070e565b005b61021c6108ef565b6101a46109a3565b6101716004803603602081101561024457600080fd5b50356109aa565b61021c6004803603602081101561026157600080fd5b50356001600160a01b0316610a10565b610138610ae7565b610138610af6565b61029e6004803603602081101561029757600080fd5b5035610b05565b60408051602080820189905260ff808916938301939093526001600160a01b0380881660608401528684166080840152851660a083015291831660c082015260e08082528951908201528851909182916101008301918b019080838360005b838110156103155781810151838201526020016102fd565b50505050905090810190601f1680156103425780820380516001836020036101000a031916815260200191505b509850505050505050505060405180910390f35b6103736004803603602081101561036c57600080fd5b5035610bde565b6040805160208082528351818301528351919283929083019185019080838360005b838110156103ad578181015183820152602001610395565b50505050905090810190601f1680156103da5780820380516001836020036101000a031916815260200191505b509250505060405180910390f35b6101a4610cc1565b61021c6004803603606081101561040657600080fd5b5080359060ff60208201358116916040013516610cc7565b61021c6004803603602081101561043457600080fd5b50356001600160a01b0316610ee1565b61021c600480360360e081101561045a57600080fd5b81019060208101813564010000000081111561047557600080fd5b82018360208201111561048757600080fd5b803590602001918460018302840111640100000000831117156104a957600080fd5b91908080601f01602080910402602001604051908101604052809392919081815260200183838082843760009201919091525092955050823593505060ff60208301358116926001600160a01b03604082013581169350606082013583169260808301359091169160a0013516610feb565b60006003548210610561576040805162461bcd60e51b8152602060048201526014602482015260008051602061137c833981519152604482015290519081900360640190fd5b506000908152600260208190526040909120015461010090046001600160a01b031690565b600060035482106105cc576040805162461bcd60e51b8152602060048201526014602482015260008051602061137c833981519152604482015290519081900360640190fd5b5060009081526002602081905260409091200154600160a81b900460ff1690565b60006003548210610633576040805162461bcd60e51b8152602060048201526014602482015260008051602061137c833981519152604482015290519081900360640190fd5b5060009081526002602052604090206001015490565b6000600354821061068f576040805162461bcd60e51b8152602060048201526014602482015260008051602061137c833981519152604482015290519081900360640190fd5b506000908152600260205260409020600301546001600160a01b031690565b600060035482106106f4576040805162461bcd60e51b8152602060048201526014602482015260008051602061137c833981519152604482015290519081900360640190fd5b506000908152600260208190526040909120015460ff1690565b60015460408051630935e01b60e21b815233600482015290516001600160a01b03909216916324d7806c91602480820192602092909190829003018186803b15801561075957600080fd5b505afa15801561076d573d6000803e3d6000fd5b505050506040513d602081101561078357600080fd5b50516107bf576040805162461bcd60e51b815260206004820152600660248201526510a0b236b4b760d11b604482015290519081900360640190fd5b6003548310610803576040805162461bcd60e51b8152602060048201526014602482015260008051602061137c833981519152604482015290519081900360640190fd5b6000838152600260208190526040918290206001808201869055818301805460ff191660ff87161790559251815491939092839285926101009082161502600019011604801561088a5780601f1061086857610100808354040283529182019161088a565b820191906000526020600020905b815481529060010190602001808311610876575b50506040805191829003822060008881526002602081815291849020600181015491015490855260ff169084015281519094508793507f8faf8b67d977271b82c52dedfc0bf5414b0c347fd7cb985a8661863fb6954c1c9281900390910190a3505050565b6108f7611258565b6000546001600160a01b03908116911614610959576040805162461bcd60e51b815260206004820181905260248201527f4f776e61626c653a2063616c6c6572206973206e6f7420746865206f776e6572604482015290519081900360640190fd5b600080546040516001600160a01b03909116907f8be0079c531659141344cd1fd0a4f28419497f9722a3daafe3b4186f6b6457e0908390a3600080546001600160a01b0319169055565b6003545b90565b600060035482106109f0576040805162461bcd60e51b8152602060048201526014602482015260008051602061137c833981519152604482015290519081900360640190fd5b50600090815260026020526040902060030154600160a01b900460ff1690565b610a18611258565b6000546001600160a01b03908116911614610a7a576040805162461bcd60e51b815260206004820181905260248201527f4f776e61626c653a2063616c6c6572206973206e6f7420746865206f776e6572604482015290519081900360640190fd5b6001600160a01b038116610ac5576040805162461bcd60e51b815260206004820152600d60248201526c2176616c69644164647265737360981b604482015290519081900360640190fd5b600180546001600160a01b0319166001600160a01b0392909216919091179055565b6000546001600160a01b031690565b6001546001600160a01b031681565b600260208181526000928352604092839020805484516001821615610100026000190190911693909304601f8101839004830284018301909452838352928391830182828015610b965780601f10610b6b57610100808354040283529160200191610b96565b820191906000526020600020905b815481529060010190602001808311610b7957829003601f168201915b505050600184015460028501546003909501549394909360ff80831694506001600160a01b03610100840481169450600160a81b909304811692821691600160a01b90041687565b60606003548210610c24576040805162461bcd60e51b8152602060048201526014602482015260008051602061137c833981519152604482015290519081900360640190fd5b600082815260026020818152604092839020805484516001821615610100026000190190911693909304601f8101839004830284018301909452838352919290830182828015610cb55780601f10610c8a57610100808354040283529160200191610cb5565b820191906000526020600020905b815481529060010190602001808311610c9857829003601f168201915b50505050509050919050565b60035481565b60015460408051630935e01b60e21b815233600482015290516001600160a01b03909216916324d7806c91602480820192602092909190829003018186803b158015610d1257600080fd5b505afa158015610d26573d6000803e3d6000fd5b505050506040513d6020811015610d3c57600080fd5b5051610d78576040805162461bcd60e51b815260206004820152600660248201526510a0b236b4b760d11b604482015290519081900360640190fd5b6003548310610dbc576040805162461bcd60e51b8152602060048201526014602482015260008051602061137c833981519152604482015290519081900360640190fd5b600083815260026020819052604091829020808201805460ff808816600160a81b0260ff60a81b1990921691909117909155600382018054918616600160a01b0260ff60a01b199092169190911790559151825490918291849160018216156101000260001901909116048015610e6a5780601f10610e48576101008083540402835291820191610e6a565b820191906000526020600020905b815481529060010190602001808311610e56575b505060408051918290038220600088815260026020818152918490209081015460039091015460ff600160a81b90920482168652600160a01b9004169084015281519094508793507f0c7c54329d4708979e5479f990e4abb586ffb676d9b402b2459467c86721efc79281900390910190a3505050565b610ee9611258565b6000546001600160a01b03908116911614610f4b576040805162461bcd60e51b815260206004820181905260248201527f4f776e61626c653a2063616c6c6572206973206e6f7420746865206f776e6572604482015290519081900360640190fd5b6001600160a01b038116610f905760405162461bcd60e51b81526004018080602001828103825260268152602001806113566026913960400191505060405180910390fd5b600080546040516001600160a01b03808516939216917f8be0079c531659141344cd1fd0a4f28419497f9722a3daafe3b4186f6b6457e091a3600080546001600160a01b0319166001600160a01b0392909216919091179055565b60015460408051630935e01b60e21b815233600482015290516001600160a01b03909216916324d7806c91602480820192602092909190829003018186803b15801561103657600080fd5b505afa15801561104a573d6000803e3d6000fd5b505050506040513d602081101561106057600080fd5b505161109c576040805162461bcd60e51b815260206004820152600660248201526510a0b236b4b760d11b604482015290519081900360640190fd5b6040805160e081018252888152602080820189905260ff808916838501526001600160a01b0380891660608501528782166080850152861660a0840152841660c083015260035460009081526002825292909220815180519293919261110592849201906112bd565b5060208281015160018301556040808401516002840180546060870151608088015160ff1990921660ff94851617610100600160a81b0319166101006001600160a01b03928316021760ff60a81b1916600160a81b928516929092029190911790915560a08601516003958601805460c0909801516001600160a01b0319909816919092161760ff60a01b1916600160a01b969092169590950217909355905482518281528a51818401528a5191937f191c33c4db02b29dcf62df443c1c3a565f4628da46040183c5c24ab61e6e42ae938c93839283019185019080838360005b838110156111fe5781810151838201526020016111e6565b50505050905090810190601f16801561122b5780820380516001836020036101000a031916815260200191505b509250505060405180910390a260035461124c90600163ffffffff61125c16565b60035550505050505050565b3390565b6000828201838110156112b6576040805162461bcd60e51b815260206004820152601b60248201527f536166654d6174683a206164646974696f6e206f766572666c6f770000000000604482015290519081900360640190fd5b9392505050565b828054600181600116156101000203166002900490600052602060002090601f016020900481019282601f106112fe57805160ff191683800117855561132b565b8280016001018555821561132b579182015b8281111561132b578251825591602001919060010190611310565b5061133792915061133b565b5090565b6109a791905b80821115611337576000815560010161134156fe4f776e61626c653a206e6577206f776e657220697320746865207a65726f20616464726573737061697220646f6573206e6f7420657869737473000000000000000000000000a2646970667358221220ff0042fb419dddb1e6ba5c30412a507313ed22b897cecf359a40fc3757519cac64736f6c634300060b0033",
  "immutableReferences": {},
  "source": "// SPDX-License-Identifier: MIT\n/**\n * Created on 2020-10-28\n * @summary: Jibrel Loans Factory\n * @author: Jibrel Team\n */\npragma solidity 0.6.11;\n\nimport \"@openzeppelin/contracts/math/SafeMath.sol\";\nimport \"@openzeppelin/contracts/access/Ownable.sol\";\nimport \"./IJFactory.sol\";\n\n\ncontract JPriceOracle is Ownable { \n    using SafeMath for uint256;\n\n    address public factoryAddress;\n\n    struct Pair {\n        string pairName;\n        uint pairValue;\n        uint8 pairDecimals;\n        address baseAddress;\n        uint8 baseDecimals;\n        address quoteAddress;\n        uint8 quoteDecimals;\n    }\n    mapping(uint => Pair) public pairs;\n    uint public pairCounter;\n\n    event NewPair(uint indexed _pairId, string _pairName);\n    event NewPrice(uint indexed pairId, string indexed pairName, uint pairValue, uint8 pairDecimals);\n    event NewPairDecimals(uint indexed pairId, string indexed pairName, uint8 baseDecimals, uint8 quoteDecimals);\n    event NewPairAddresses(uint indexed pairId, string indexed pairName, address baseAddress , address quoteAddress);\n\n    constructor () public { }\n\n    modifier onlyAdmins() {\n        require(IJFactory(factoryAddress).isAdmin(msg.sender), \"!Admin\");\n        _;\n    }\n\n    /**\n    * @dev set factory address\n    * @param _factoryAddress factory address\n    */\n    function setFactoryAddress(address _factoryAddress) external onlyOwner {\n        require(_factoryAddress != address(0), \"!validAddress\");\n        factoryAddress = _factoryAddress;\n    }\n\n    /**\n    * @dev set a new pair\n    * @param _pairName string describing the pair (i.e. ETHDAI)\n    * @param _price price of the pair\n    * @param _pairDecimals number of decimals for pair\n    * @param _baseAddress base address token\n    * @param _baseDecimals base decimals token\n    * @param _quoteAddress quote address token\n    * @param _quoteDecimals quote decimals token\n    */\n    function setNewPair(string memory _pairName, uint _price, uint8 _pairDecimals, \n                address _baseAddress, uint8 _baseDecimals, address _quoteAddress, uint8 _quoteDecimals) external onlyAdmins {\n        pairs[pairCounter] = Pair({pairName: _pairName, pairValue: _price, pairDecimals: _pairDecimals, \n                baseAddress: _baseAddress, baseDecimals: _baseDecimals, quoteAddress: _quoteAddress, quoteDecimals: _quoteDecimals});\n        emit NewPair(pairCounter, _pairName);\n        pairCounter = pairCounter.add(1);\n    }\n\n    /**\n    * @dev set a price for the specified pair\n    * @param _pairId number of the pair\n    * @param _price price of the pair\n    * @param _pairDecimals number of decimals for pair\n    */\n    function setPairValue(uint _pairId, uint _price, uint8 _pairDecimals) external onlyAdmins {\n        require(_pairId < pairCounter, \"pair does not exists\");\n        pairs[_pairId].pairValue = _price;\n        pairs[_pairId].pairDecimals = _pairDecimals;\n        emit NewPrice(_pairId, pairs[_pairId].pairName, pairs[_pairId].pairValue, pairs[_pairId].pairDecimals);\n    }\n\n    /**\n    * @dev set a base and quote decimals for the specified pair\n    * @param _pairId number of the pair\n    * @param _baseDecimals base decimals of the pair\n    * @param _quoteDecimals quote decimals for pair\n    */\n    function setBaseQuoteDecimals(uint _pairId, uint8 _baseDecimals, uint8 _quoteDecimals) external onlyAdmins {\n        require(_pairId < pairCounter, \"pair does not exists\");\n        pairs[_pairId].baseDecimals = _baseDecimals;\n        pairs[_pairId].quoteDecimals = _quoteDecimals;\n        emit NewPairDecimals(_pairId, pairs[_pairId].pairName, pairs[_pairId].baseDecimals, pairs[_pairId].quoteDecimals);\n    }\n\n    /**\n    * @dev get a pair price\n    * @return pairs counter\n    */\n    function getPairCounter() external view returns (uint) {\n        return pairCounter;\n    }\n\n    /**\n    * @dev get a pair price\n    * @param _pairId number of the pair\n    * @return price of the pair\n    */\n    function getPairValue(uint _pairId) external view returns (uint) {\n        require(_pairId < pairCounter, \"pair does not exists\");\n        return pairs[_pairId].pairValue;\n    }\n\n    /**\n    * @dev get a pair name\n    * @param _pairId number of the pair\n    * @return name of the pair\n    */\n    function getPairName(uint _pairId) external view returns (string memory) {\n        require(_pairId < pairCounter, \"pair does not exists\");\n        return pairs[_pairId].pairName;\n    }\n\n    /**\n    * @dev get a pair decimals\n    * @param _pairId number of the pair\n    * @return decimals of the pair\n    */\n    function getPairDecimals(uint _pairId) external view returns (uint8) {\n        require(_pairId < pairCounter, \"pair does not exists\");\n        return pairs[_pairId].pairDecimals;\n    }\n\n    /**\n    * @dev get a pair base decimals\n    * @param _pairId number of the pair\n    * @return number of base currency decimals\n    */\n    function getPairBaseDecimals(uint _pairId) external view returns (uint8) {\n        require(_pairId < pairCounter, \"pair does not exists\");\n        return pairs[_pairId].baseDecimals;\n    }\n\n    /**\n    * @dev get a pair quote decimals\n    * @param _pairId number of the pair\n    * @return number of quote currency decimals\n    */\n    function getPairQuoteDecimals(uint _pairId) external view returns (uint8) {\n        require(_pairId < pairCounter, \"pair does not exists\");\n        return pairs[_pairId].quoteDecimals;\n    }\n\n    /**\n    * @dev get a pair base decimals\n    * @param _pairId number of the pair\n    * @return address of base currency decimals\n    */\n    function getPairBaseAddress(uint _pairId) external view returns (address) {\n        require(_pairId < pairCounter, \"pair does not exists\");\n        return pairs[_pairId].baseAddress;\n    }\n\n    /**\n    * @dev get a pair quote decimals\n    * @param _pairId number of the pair\n    * @return address of quote currency decimals\n    */\n    function getPairQuoteAddress(uint _pairId) external view returns (address) {\n        require(_pairId < pairCounter, \"pair does not exists\");\n        return pairs[_pairId].quoteAddress;\n    }\n}",
  "sourcePath": "C:/Users/saurabh/code/Jibrel/defi-smartcontracts/LoansFactoryV2/contracts/JPriceOracle.sol",
  "compiler": {
    "name": "solc",
    "version": "0.6.11+commit.5ef660b1.Emscripten.clang"
  },
  "schemaVersion": "3.3.1",
  "updatedAt": "2020-11-04T10:30:45.502Z",
  "networkType": "ethereum",
  "devdoc": {
    "kind": "dev",
    "methods": {
      "getPairBaseAddress(uint256)": {
        "details": "get a pair base decimals",
        "params": {
          "_pairId": "number of the pair"
        },
        "returns": {
          "_0": "address of base currency decimals"
        }
      },
      "getPairBaseDecimals(uint256)": {
        "details": "get a pair base decimals",
        "params": {
          "_pairId": "number of the pair"
        },
        "returns": {
          "_0": "number of base currency decimals"
        }
      },
      "getPairCounter()": {
        "details": "get a pair price",
        "returns": {
          "_0": "pairs counter"
        }
      },
      "getPairDecimals(uint256)": {
        "details": "get a pair decimals",
        "params": {
          "_pairId": "number of the pair"
        },
        "returns": {
          "_0": "decimals of the pair"
        }
      },
      "getPairName(uint256)": {
        "details": "get a pair name",
        "params": {
          "_pairId": "number of the pair"
        },
        "returns": {
          "_0": "name of the pair"
        }
      },
      "getPairQuoteAddress(uint256)": {
        "details": "get a pair quote decimals",
        "params": {
          "_pairId": "number of the pair"
        },
        "returns": {
          "_0": "address of quote currency decimals"
        }
      },
      "getPairQuoteDecimals(uint256)": {
        "details": "get a pair quote decimals",
        "params": {
          "_pairId": "number of the pair"
        },
        "returns": {
          "_0": "number of quote currency decimals"
        }
      },
      "getPairValue(uint256)": {
        "details": "get a pair price",
        "params": {
          "_pairId": "number of the pair"
        },
        "returns": {
          "_0": "price of the pair"
        }
      },
      "owner()": {
        "details": "Returns the address of the current owner."
      },
      "renounceOwnership()": {
        "details": "Leaves the contract without owner. It will not be possible to call `onlyOwner` functions anymore. Can only be called by the current owner. NOTE: Renouncing ownership will leave the contract without an owner, thereby removing any functionality that is only available to the owner."
      },
      "setBaseQuoteDecimals(uint256,uint8,uint8)": {
        "details": "set a base and quote decimals for the specified pair",
        "params": {
          "_baseDecimals": "base decimals of the pair",
          "_pairId": "number of the pair",
          "_quoteDecimals": "quote decimals for pair"
        }
      },
      "setFactoryAddress(address)": {
        "details": "set factory address",
        "params": {
          "_factoryAddress": "factory address"
        }
      },
      "setNewPair(string,uint256,uint8,address,uint8,address,uint8)": {
        "details": "set a new pair",
        "params": {
          "_baseAddress": "base address token",
          "_baseDecimals": "base decimals token",
          "_pairDecimals": "number of decimals for pair",
          "_pairName": "string describing the pair (i.e. ETHDAI)",
          "_price": "price of the pair",
          "_quoteAddress": "quote address token",
          "_quoteDecimals": "quote decimals token"
        }
      },
      "setPairValue(uint256,uint256,uint8)": {
        "details": "set a price for the specified pair",
        "params": {
          "_pairDecimals": "number of decimals for pair",
          "_pairId": "number of the pair",
          "_price": "price of the pair"
        }
      },
      "transferOwnership(address)": {
        "details": "Transfers ownership of the contract to a new account (`newOwner`). Can only be called by the current owner."
      }
    },
    "version": 1
  },
  "userdoc": {
    "kind": "user",
    "methods": {},
    "version": 1
  }
}