{"abi":[{"inputs":[{"internalType":"uint256","name":"_initialSupply","type":"uint256"},{"internalType":"uint256","name":"_hardCap","type":"uint256"}],"stateMutability":"nonpayable","type":"constructor"},{"anonymous":false,"inputs":[{"indexed":false,"internalType":"address","name":"_user","type":"address"}],"name":"AddedBlackList","type":"event"},{"anonymous":false,"inputs":[{"indexed":true,"internalType":"address","name":"owner","type":"address"},{"indexed":true,"internalType":"address","name":"spender","type":"address"},{"indexed":false,"internalType":"uint256","name":"value","type":"uint256"}],"name":"Approval","type":"event"},{"anonymous":false,"inputs":[{"indexed":true,"internalType":"address","name":"delegator","type":"address"},{"indexed":true,"internalType":"address","name":"fromDelegate","type":"address"},{"indexed":true,"internalType":"address","name":"toDelegate","type":"address"}],"name":"DelegateChanged","type":"event"},{"anonymous":false,"inputs":[{"indexed":true,"internalType":"address","name":"delegate","type":"address"},{"indexed":false,"internalType":"uint256","name":"previousBalance","type":"uint256"},{"indexed":false,"internalType":"uint256","name":"newBalance","type":"uint256"}],"name":"DelegateVotesChanged","type":"event"},{"anonymous":false,"inputs":[{"indexed":true,"internalType":"address","name":"previousOwner","type":"address"},{"indexed":true,"internalType":"address","name":"newOwner","type":"address"}],"name":"OwnershipTransferred","type":"event"},{"anonymous":false,"inputs":[{"indexed":false,"internalType":"address","name":"account","type":"address"}],"name":"Paused","type":"event"},{"anonymous":false,"inputs":[{"indexed":false,"internalType":"address","name":"_user","type":"address"}],"name":"RemovedBlackList","type":"event"},{"anonymous":false,"inputs":[{"indexed":true,"internalType":"address","name":"from","type":"address"},{"indexed":true,"internalType":"address","name":"to","type":"address"},{"indexed":false,"internalType":"uint256","name":"value","type":"uint256"}],"name":"Transfer","type":"event"},{"anonymous":false,"inputs":[{"indexed":false,"internalType":"address","name":"account","type":"address"}],"name":"Unpaused","type":"event"},{"inputs":[],"name":"DELEGATION_TYPEHASH","outputs":[{"internalType":"bytes32","name":"","type":"bytes32"}],"stateMutability":"view","type":"function"},{"inputs":[],"name":"DOMAIN_TYPEHASH","outputs":[{"internalType":"bytes32","name":"","type":"bytes32"}],"stateMutability":"view","type":"function"},{"inputs":[{"internalType":"address","name":"_evilUser","type":"address"}],"name":"addBlackList","outputs":[],"stateMutability":"nonpayable","type":"function"},{"inputs":[{"internalType":"address","name":"owner","type":"address"},{"internalType":"address","name":"spender","type":"address"}],"name":"allowance","outputs":[{"internalType":"uint256","name":"","type":"uint256"}],"stateMutability":"view","type":"function"},{"inputs":[{"internalType":"address","name":"spender","type":"address"},{"internalType":"uint256","name":"amount","type":"uint256"}],"name":"approve","outputs":[{"internalType":"bool","name":"","type":"bool"}],"stateMutability":"nonpayable","type":"function"},{"inputs":[{"internalType":"address","name":"account","type":"address"}],"name":"balanceOf","outputs":[{"internalType":"uint256","name":"","type":"uint256"}],"stateMutability":"view","type":"function"},{"inputs":[{"internalType":"uint256","name":"_burnVal","type":"uint256"}],"name":"burn","outputs":[],"stateMutability":"nonpayable","type":"function"},{"inputs":[],"name":"cap","outputs":[{"internalType":"uint256","name":"","type":"uint256"}],"stateMutability":"view","type":"function"},{"inputs":[{"internalType":"address","name":"","type":"address"},{"internalType":"uint32","name":"","type":"uint32"}],"name":"checkpoints","outputs":[{"internalType":"uint256","name":"fromBlock","type":"uint256"},{"internalType":"uint256","name":"votes","type":"uint256"}],"stateMutability":"view","type":"function"},{"inputs":[],"name":"decimals","outputs":[{"internalType":"uint8","name":"","type":"uint8"}],"stateMutability":"view","type":"function"},{"inputs":[{"internalType":"address","name":"spender","type":"address"},{"internalType":"uint256","name":"subtractedValue","type":"uint256"}],"name":"decreaseAllowance","outputs":[{"internalType":"bool","name":"","type":"bool"}],"stateMutability":"nonpayable","type":"function"},{"inputs":[{"internalType":"address","name":"delegatee","type":"address"}],"name":"delegate","outputs":[],"stateMutability":"nonpayable","type":"function"},{"inputs":[{"internalType":"address","name":"delegatee","type":"address"},{"internalType":"uint256","name":"nonce","type":"uint256"},{"internalType":"uint256","name":"expiry","type":"uint256"},{"internalType":"uint8","name":"v","type":"uint8"},{"internalType":"bytes32","name":"r","type":"bytes32"},{"internalType":"bytes32","name":"s","type":"bytes32"}],"name":"delegateBySig","outputs":[],"stateMutability":"nonpayable","type":"function"},{"inputs":[{"internalType":"address","name":"delegator","type":"address"}],"name":"delegates","outputs":[{"internalType":"address","name":"","type":"address"}],"stateMutability":"view","type":"function"},{"inputs":[{"internalType":"address","name":"_maker","type":"address"}],"name":"getBlackListStatus","outputs":[{"internalType":"bool","name":"","type":"bool"}],"stateMutability":"view","type":"function"},{"inputs":[{"internalType":"address","name":"account","type":"address"}],"name":"getCurrentVotes","outputs":[{"internalType":"uint256","name":"","type":"uint256"}],"stateMutability":"view","type":"function"},{"inputs":[{"internalType":"address","name":"account","type":"address"},{"internalType":"uint256","name":"blockNumber","type":"uint256"}],"name":"getPriorVotes","outputs":[{"internalType":"uint256","name":"","type":"uint256"}],"stateMutability":"view","type":"function"},{"inputs":[{"internalType":"address","name":"spender","type":"address"},{"internalType":"uint256","name":"addedValue","type":"uint256"}],"name":"increaseAllowance","outputs":[{"internalType":"bool","name":"","type":"bool"}],"stateMutability":"nonpayable","type":"function"},{"inputs":[{"internalType":"address","name":"","type":"address"}],"name":"isBlackListed","outputs":[{"internalType":"bool","name":"","type":"bool"}],"stateMutability":"view","type":"function"},{"inputs":[{"internalType":"address","name":"recipient","type":"address"},{"internalType":"uint256","name":"_mintVal","type":"uint256"}],"name":"mint","outputs":[],"stateMutability":"nonpayable","type":"function"},{"inputs":[],"name":"name","outputs":[{"internalType":"string","name":"","type":"string"}],"stateMutability":"view","type":"function"},{"inputs":[{"internalType":"address","name":"","type":"address"}],"name":"nonces","outputs":[{"internalType":"uint256","name":"","type":"uint256"}],"stateMutability":"view","type":"function"},{"inputs":[{"internalType":"address","name":"","type":"address"}],"name":"numCheckpoints","outputs":[{"internalType":"uint32","name":"","type":"uint32"}],"stateMutability":"view","type":"function"},{"inputs":[],"name":"owner","outputs":[{"internalType":"address","name":"","type":"address"}],"stateMutability":"view","type":"function"},{"inputs":[],"name":"paused","outputs":[{"internalType":"bool","name":"","type":"bool"}],"stateMutability":"view","type":"function"},{"inputs":[{"internalType":"address","name":"_clearedUser","type":"address"}],"name":"removeBlackList","outputs":[],"stateMutability":"nonpayable","type":"function"},{"inputs":[],"name":"renounceOwnership","outputs":[],"stateMutability":"nonpayable","type":"function"},{"inputs":[],"name":"setPause","outputs":[],"stateMutability":"nonpayable","type":"function"},{"inputs":[],"name":"setUnpause","outputs":[],"stateMutability":"nonpayable","type":"function"},{"inputs":[],"name":"symbol","outputs":[{"internalType":"string","name":"","type":"string"}],"stateMutability":"view","type":"function"},{"inputs":[],"name":"totalSupply","outputs":[{"internalType":"uint256","name":"","type":"uint256"}],"stateMutability":"view","type":"function"},{"inputs":[{"internalType":"address","name":"_to","type":"address"},{"internalType":"uint256","name":"_value","type":"uint256"}],"name":"transfer","outputs":[{"internalType":"bool","name":"","type":"bool"}],"stateMutability":"nonpayable","type":"function"},{"inputs":[{"internalType":"address","name":"_from","type":"address"},{"internalType":"address","name":"_to","type":"address"},{"internalType":"uint256","name":"_value","type":"uint256"}],"name":"transferFrom","outputs":[{"internalType":"bool","name":"","type":"bool"}],"stateMutability":"nonpayable","type":"function"},{"inputs":[{"internalType":"address","name":"newOwner","type":"address"}],"name":"transferOwnership","outputs":[],"stateMutability":"nonpayable","type":"function"}],"devdoc":{"events":{"DelegateChanged(address,address,address)":{"details":"An event thats emitted when an account changes its delegate"},"DelegateVotesChanged(address,uint256,uint256)":{"details":"An event thats emitted when a delegate account's vote balance changes"}},"kind":"dev","methods":{"allowance(address,address)":{"details":"See {IERC20-allowance}."},"approve(address,uint256)":{"details":"See {IERC20-approve}. Requirements: - `spender` cannot be the zero address."},"balanceOf(address)":{"details":"See {IERC20-balanceOf}."},"burn(uint256)":{"details":"burns tokens","params":{"_burnVal":"amount to burn"}},"cap()":{"details":"Returns the cap on the token's total supply."},"decimals()":{"details":"Returns the number of decimals used to get its user representation. For example, if `decimals` equals `2`, a balance of `505` tokens should be displayed to a user as `5,05` (`505 / 10 ** 2`). Tokens usually opt for a value of 18, imitating the relationship between Ether and Wei. This is the value {ERC20} uses, unless {_setupDecimals} is called. NOTE: This information is only used for _display_ purposes: it in no way affects any of the arithmetic of the contract, including {IERC20-balanceOf} and {IERC20-transfer}."},"decreaseAllowance(address,uint256)":{"details":"Atomically decreases the allowance granted to `spender` by the caller. This is an alternative to {approve} that can be used as a mitigation for problems described in {IERC20-approve}. Emits an {Approval} event indicating the updated allowance. Requirements: - `spender` cannot be the zero address. - `spender` must have allowance for the caller of at least `subtractedValue`."},"delegate(address)":{"details":"Delegate votes from `msg.sender` to `delegatee`","params":{"delegatee":"The address to delegate votes to"}},"delegateBySig(address,uint256,uint256,uint8,bytes32,bytes32)":{"details":"Delegates votes from signatory to `delegatee`","params":{"delegatee":"The address to delegate votes to","expiry":"The time at which to expire the signature","nonce":"The contract state required to match the signature","r":"Half of the ECDSA signature pair","s":"Half of the ECDSA signature pair","v":"The recovery byte of the signature"}},"delegates(address)":{"params":{"delegator":"The address to get delegatee for"}},"getCurrentVotes(address)":{"details":"Gets the current votes balance for `account`","params":{"account":"The address to get votes balance"},"returns":{"_0":"The number of current votes for `account`"}},"getPriorVotes(address,uint256)":{"details":"Determine the prior number of votes for an account as of a block numberBlock number must be a finalized block or else this function will revert to prevent misinformation.","params":{"account":"The address of the account to check","blockNumber":"The block number to get the vote balance at"},"returns":{"_0":"The number of votes the account had as of the given block"}},"increaseAllowance(address,uint256)":{"details":"Atomically increases the allowance granted to `spender` by the caller. This is an alternative to {approve} that can be used as a mitigation for problems described in {IERC20-approve}. Emits an {Approval} event indicating the updated allowance. Requirements: - `spender` cannot be the zero address."},"mint(address,uint256)":{"details":"Mint new tokens (only owner)","params":{"_mintVal":"amount to mint","recipient":"recipient address"}},"name()":{"details":"Returns the name of the token."},"owner()":{"details":"Returns the address of the current owner."},"paused()":{"details":"Returns true if the contract is paused, and false otherwise."},"renounceOwnership()":{"details":"Leaves the contract without owner. It will not be possible to call `onlyOwner` functions anymore. Can only be called by the current owner. NOTE: Renouncing ownership will leave the contract without an owner, thereby removing any functionality that is only available to the owner."},"setPause()":{"details":"Pause token"},"setUnpause()":{"details":"Unpause token"},"symbol()":{"details":"Returns the symbol of the token, usually a shorter version of the name."},"totalSupply()":{"details":"See {IERC20-totalSupply}."},"transfer(address,uint256)":{"details":"Transfer tokens from one address to another","params":{"_to":"address The address which you want to transfer to","_value":"uint the amount of tokens to be transferred"},"returns":{"_0":"true if success"}},"transferFrom(address,address,uint256)":{"details":"Transfer tokens from one address to another","params":{"_from":"address The address which you want to send tokens from","_to":"address The address which you want to transfer to","_value":"uint the amount of tokens to be transferred"},"returns":{"_0":"true if success"}},"transferOwnership(address)":{"details":"Transfers ownership of the contract to a new account (`newOwner`). Can only be called by the current owner."}},"stateVariables":{"DELEGATION_TYPEHASH":{"details":"The EIP-712 typehash for the delegation struct used by the contract"},"DOMAIN_TYPEHASH":{"details":"The EIP-712 typehash for the contract's domain"},"_delegates":{"details":"A record of each accounts delegate"},"checkpoints":{"details":"A record of votes checkpoints for each account, by index"},"nonces":{"details":"A record of states for signing / validating signatures"},"numCheckpoints":{"details":"The number of checkpoints for each account"}},"title":"JPT Token Contract","version":1},"evm":{"assembly":"    /* \"Contract.sol\":32710:42484  contract JPT is ERC20Capped, Ownable, Pausable, Blacklist {... */\n  mstore(0x40, 0x80)\n    /* \"Contract.sol\":34193:34356  constructor(uint _initialSupply, uint _hardCap) ERC20(\"Jibrel Plaform Token\", \"JPT\") ERC20Capped(_hardCap) public {... */\n  callvalue\n  dup1\n  iszero\n  tag_1\n  jumpi\n  0x00\n  dup1\n  revert\ntag_1:\n  pop\n  mload(0x40)\n  sub(codesize, bytecodeSize)\n  dup1\n  bytecodeSize\n  dup4\n  codecopy\n  dup2\n  dup2\n  add\n  0x40\n  mstore\n  0x40\n  dup2\n  lt\n  iszero\n  tag_2\n  jumpi\n  0x00\n  dup1\n  revert\ntag_2:\n  dup2\n  add\n  swap1\n  dup1\n  dup1\n  mload\n  swap1\n  0x20\n  add\n  swap1\n  swap3\n  swap2\n  swap1\n  dup1\n  mload\n  swap1\n  0x20\n  add\n  swap1\n  swap3\n  swap2\n  swap1\n  pop\n  pop\n  pop\n    /* \"Contract.sol\":34290:34298  _hardCap */\n  dup1\n    /* \"Contract.sol\":19853:19994  constructor (string memory name, string memory symbol) public {... */\n  mload(0x40)\n  dup1\n  0x40\n  add\n  0x40\n  mstore\n  dup1\n  0x14\n  dup2\n  mstore\n  0x20\n  add\n  0x4a696272656c20506c61666f726d20546f6b656e000000000000000000000000\n  dup2\n  mstore\n  pop\n  mload(0x40)\n  dup1\n  0x40\n  add\n  0x40\n  mstore\n  dup1\n  0x03\n  dup2\n  mstore\n  0x20\n  add\n  0x4a50540000000000000000000000000000000000000000000000000000000000\n  dup2\n  mstore\n  pop\n    /* \"Contract.sol\":19933:19937  name */\n  dup2\n    /* \"Contract.sol\":19925:19930  _name */\n  0x03\n    /* \"Contract.sol\":19925:19937  _name = name */\n  swap1\n  dup1\n  mload\n  swap1\n  0x20\n  add\n  swap1\n  tag_9\n  swap3\n  swap2\n  swap1\n  tag_10\n  jump\t// in\ntag_9:\n  pop\n    /* \"Contract.sol\":19957:19963  symbol */\n  dup1\n    /* \"Contract.sol\":19947:19954  _symbol */\n  0x04\n    /* \"Contract.sol\":19947:19963  _symbol = symbol */\n  swap1\n  dup1\n  mload\n  swap1\n  0x20\n  add\n  swap1\n  tag_11\n  swap3\n  swap2\n  swap1\n  tag_10\n  jump\t// in\ntag_11:\n  pop\n    /* \"Contract.sol\":19985:19987  18 */\n  0x12\n    /* \"Contract.sol\":19973:19982  _decimals */\n  0x05\n  0x00\n    /* \"Contract.sol\":19973:19987  _decimals = 18 */\n  0x0100\n  exp\n  dup2\n  sload\n  dup2\n  0xff\n  mul\n  not\n  and\n  swap1\n  dup4\n  0xff\n  and\n  mul\n  or\n  swap1\n  sstore\n  pop\n    /* \"Contract.sol\":19853:19994  constructor (string memory name, string memory symbol) public {... */\n  pop\n  pop\n    /* \"Contract.sol\":31945:31946  0 */\n  0x00\n    /* \"Contract.sol\":31939:31942  cap */\n  dup2\n    /* \"Contract.sol\":31939:31946  cap > 0 */\n  gt\n    /* \"Contract.sol\":31931:31972  require(cap > 0, \"ERC20Capped: cap is 0\") */\n  tag_13\n  jumpi\n  mload(0x40)\n  0x08c379a000000000000000000000000000000000000000000000000000000000\n  dup2\n  mstore\n  0x04\n  add\n  dup1\n  dup1\n  0x20\n  add\n  dup3\n  dup2\n  sub\n  dup3\n  mstore\n  0x15\n  dup2\n  mstore\n  0x20\n  add\n  dup1\n  0x45524332304361707065643a2063617020697320300000000000000000000000\n  dup2\n  mstore\n  pop\n  0x20\n  add\n  swap2\n  pop\n  pop\n  mload(0x40)\n  dup1\n  swap2\n  sub\n  swap1\n  revert\ntag_13:\n    /* \"Contract.sol\":31989:31992  cap */\n  dup1\n    /* \"Contract.sol\":31982:31986  _cap */\n  0x06\n    /* \"Contract.sol\":31982:31992  _cap = cap */\n  dup2\n  swap1\n  sstore\n  pop\n    /* \"Contract.sol\":31888:31999  constructor (uint256 cap) public {... */\n  pop\n    /* \"Contract.sol\":1944:1961  address msgSender */\n  0x00\n    /* \"Contract.sol\":1964:1976  _msgSender() */\n  tag_15\n    /* \"Contract.sol\":1964:1974  _msgSender */\n  shl(0x20, tag_16)\n    /* \"Contract.sol\":1964:1976  _msgSender() */\n  0x20\n  shr\n  jump\t// in\ntag_15:\n    /* \"Contract.sol\":1944:1976  address msgSender = _msgSender() */\n  swap1\n  pop\n    /* \"Contract.sol\":1995:2004  msgSender */\n  dup1\n    /* \"Contract.sol\":1986:1992  _owner */\n  0x07\n  0x00\n    /* \"Contract.sol\":1986:2004  _owner = msgSender */\n  0x0100\n  exp\n  dup2\n  sload\n  dup2\n  0xffffffffffffffffffffffffffffffffffffffff\n  mul\n  not\n  and\n  swap1\n  dup4\n  0xffffffffffffffffffffffffffffffffffffffff\n  and\n  mul\n  or\n  swap1\n  sstore\n  pop\n    /* \"Contract.sol\":2052:2061  msgSender */\n  dup1\n    /* \"Contract.sol\":2019:2062  OwnershipTransferred(address(0), msgSender) */\n  0xffffffffffffffffffffffffffffffffffffffff\n  and\n    /* \"Contract.sol\":2048:2049  0 */\n  0x00\n    /* \"Contract.sol\":2019:2062  OwnershipTransferred(address(0), msgSender) */\n  0xffffffffffffffffffffffffffffffffffffffff\n  and\n  0x8be0079c531659141344cd1fd0a4f28419497f9722a3daafe3b4186f6b6457e0\n  mload(0x40)\n  mload(0x40)\n  dup1\n  swap2\n  sub\n  swap1\n  log3\n    /* \"Contract.sol\":1910:2069  constructor () internal {... */\n  pop\n    /* \"Contract.sol\":29544:29549  false */\n  0x00\n    /* \"Contract.sol\":29534:29541  _paused */\n  0x07\n  0x14\n    /* \"Contract.sol\":29534:29549  _paused = false */\n  0x0100\n  exp\n  dup2\n  sload\n  dup2\n  0xff\n  mul\n  not\n  and\n  swap1\n  dup4\n  iszero\n  iszero\n  mul\n  or\n  swap1\n  sstore\n  pop\n    /* \"Contract.sol\":34317:34349  mint(msg.sender, _initialSupply) */\n  tag_19\n    /* \"Contract.sol\":34322:34332  msg.sender */\n  caller\n    /* \"Contract.sol\":34334:34348  _initialSupply */\n  dup4\n    /* \"Contract.sol\":34317:34321  mint */\n  shl(0x20, tag_20)\n    /* \"Contract.sol\":34317:34349  mint(msg.sender, _initialSupply) */\n  0x20\n  shr\n  jump\t// in\ntag_19:\n    /* \"Contract.sol\":34193:34356  constructor(uint _initialSupply, uint _hardCap) ERC20(\"Jibrel Plaform Token\", \"JPT\") ERC20Capped(_hardCap) public {... */\n  pop\n  pop\n    /* \"Contract.sol\":32710:42484  contract JPT is ERC20Capped, Ownable, Pausable, Blacklist {... */\n  jump(tag_21)\n    /* \"Contract.sol\":769:873  function _msgSender() internal view virtual returns (address payable) {... */\ntag_16:\n    /* \"Contract.sol\":822:837  address payable */\n  0x00\n    /* \"Contract.sol\":856:866  msg.sender */\n  caller\n    /* \"Contract.sol\":849:866  return msg.sender */\n  swap1\n  pop\n    /* \"Contract.sol\":769:873  function _msgSender() internal view virtual returns (address payable) {... */\n  swap1\n  jump\t// out\n    /* \"Contract.sol\":34704:34974  function mint(address recipient, uint _mintVal) public onlyOwner whenNotPaused {... */\ntag_20:\n    /* \"Contract.sol\":2359:2371  _msgSender() */\n  tag_24\n    /* \"Contract.sol\":2359:2369  _msgSender */\n  shl(0x20, tag_16)\n    /* \"Contract.sol\":2359:2371  _msgSender() */\n  0x20\n  shr\n  jump\t// in\ntag_24:\n    /* \"Contract.sol\":2349:2371  _owner == _msgSender() */\n  0xffffffffffffffffffffffffffffffffffffffff\n  and\n    /* \"Contract.sol\":2349:2355  _owner */\n  0x07\n  0x00\n  swap1\n  sload\n  swap1\n  0x0100\n  exp\n  swap1\n  div\n  0xffffffffffffffffffffffffffffffffffffffff\n  and\n    /* \"Contract.sol\":2349:2371  _owner == _msgSender() */\n  0xffffffffffffffffffffffffffffffffffffffff\n  and\n  eq\n    /* \"Contract.sol\":2341:2408  require(_owner == _msgSender(), \"Ownable: caller is not the owner\") */\n  tag_25\n  jumpi\n  mload(0x40)\n  0x08c379a000000000000000000000000000000000000000000000000000000000\n  dup2\n  mstore\n  0x04\n  add\n  dup1\n  dup1\n  0x20\n  add\n  dup3\n  dup2\n  sub\n  dup3\n  mstore\n  0x20\n  dup2\n  mstore\n  0x20\n  add\n  dup1\n  0x4f776e61626c653a2063616c6c6572206973206e6f7420746865206f776e6572\n  dup2\n  mstore\n  pop\n  0x20\n  add\n  swap2\n  pop\n  pop\n  mload(0x40)\n  dup1\n  swap2\n  sub\n  swap1\n  revert\ntag_25:\n    /* \"Contract.sol\":29957:29964  _paused */\n  0x07\n  0x14\n  swap1\n  sload\n  swap1\n  0x0100\n  exp\n  swap1\n  div\n  0xff\n  and\n    /* \"Contract.sol\":29956:29964  !_paused */\n  iszero\n    /* \"Contract.sol\":29948:29985  require(!_paused, \"Pausable: paused\") */\n  tag_27\n  jumpi\n  mload(0x40)\n  0x08c379a000000000000000000000000000000000000000000000000000000000\n  dup2\n  mstore\n  0x04\n  add\n  dup1\n  dup1\n  0x20\n  add\n  dup3\n  dup2\n  sub\n  dup3\n  mstore\n  0x10\n  dup2\n  mstore\n  0x20\n  add\n  dup1\n  0x5061757361626c653a2070617573656400000000000000000000000000000000\n  dup2\n  mstore\n  pop\n  0x20\n  add\n  swap2\n  pop\n  pop\n  mload(0x40)\n  dup1\n  swap2\n  sub\n  swap1\n  revert\ntag_27:\n    /* \"Contract.sol\":34802:34815  isBlackListed */\n  0x08\n    /* \"Contract.sol\":34802:34826  isBlackListed[recipient] */\n  0x00\n    /* \"Contract.sol\":34816:34825  recipient */\n  dup4\n    /* \"Contract.sol\":34802:34826  isBlackListed[recipient] */\n  0xffffffffffffffffffffffffffffffffffffffff\n  and\n  0xffffffffffffffffffffffffffffffffffffffff\n  and\n  dup2\n  mstore\n  0x20\n  add\n  swap1\n  dup2\n  mstore\n  0x20\n  add\n  0x00\n  keccak256\n  0x00\n  swap1\n  sload\n  swap1\n  0x0100\n  exp\n  swap1\n  div\n  0xff\n  and\n    /* \"Contract.sol\":34801:34826  !isBlackListed[recipient] */\n  iszero\n    /* \"Contract.sol\":34793:34862  require(!isBlackListed[recipient], \"Mint - Recipient is blacklisted\") */\n  tag_29\n  jumpi\n  mload(0x40)\n  0x08c379a000000000000000000000000000000000000000000000000000000000\n  dup2\n  mstore\n  0x04\n  add\n  dup1\n  dup1\n  0x20\n  add\n  dup3\n  dup2\n  sub\n  dup3\n  mstore\n  0x1f\n  dup2\n  mstore\n  0x20\n  add\n  dup1\n  0x4d696e74202d20526563697069656e7420697320626c61636b6c697374656400\n  dup2\n  mstore\n  pop\n  0x20\n  add\n  swap2\n  pop\n  pop\n  mload(0x40)\n  dup1\n  swap2\n  sub\n  swap1\n  revert\ntag_29:\n    /* \"Contract.sol\":34872:34898  _mint(recipient, _mintVal) */\n  tag_30\n    /* \"Contract.sol\":34878:34887  recipient */\n  dup3\n    /* \"Contract.sol\":34889:34897  _mintVal */\n  dup3\n    /* \"Contract.sol\":34872:34877  _mint */\n  shl(0x20, tag_31)\n    /* \"Contract.sol\":34872:34898  _mint(recipient, _mintVal) */\n  0x20\n  shr\n  jump\t// in\ntag_30:\n    /* \"Contract.sol\":34908:34967  _moveDelegates(address(0), _delegates[recipient], _mintVal) */\n  tag_32\n    /* \"Contract.sol\":34931:34932  0 */\n  0x00\n    /* \"Contract.sol\":34935:34945  _delegates */\n  0x09\n    /* \"Contract.sol\":34935:34956  _delegates[recipient] */\n  0x00\n    /* \"Contract.sol\":34946:34955  recipient */\n  dup6\n    /* \"Contract.sol\":34935:34956  _delegates[recipient] */\n  0xffffffffffffffffffffffffffffffffffffffff\n  and\n  0xffffffffffffffffffffffffffffffffffffffff\n  and\n  dup2\n  mstore\n  0x20\n  add\n  swap1\n  dup2\n  mstore\n  0x20\n  add\n  0x00\n  keccak256\n  0x00\n  swap1\n  sload\n  swap1\n  0x0100\n  exp\n  swap1\n  div\n  0xffffffffffffffffffffffffffffffffffffffff\n  and\n    /* \"Contract.sol\":34958:34966  _mintVal */\n  dup4\n    /* \"Contract.sol\":34908:34922  _moveDelegates */\n  shl(0x20, tag_33)\n    /* \"Contract.sol\":34908:34967  _moveDelegates(address(0), _delegates[recipient], _mintVal) */\n  0x20\n  shr\n  jump\t// in\ntag_32:\n    /* \"Contract.sol\":34704:34974  function mint(address recipient, uint _mintVal) public onlyOwner whenNotPaused {... */\n  pop\n  pop\n  jump\t// out\n    /* \"Contract.sol\":25675:26045  function _mint(address account, uint256 amount) internal virtual {... */\ntag_31:\n    /* \"Contract.sol\":25777:25778  0 */\n  0x00\n    /* \"Contract.sol\":25758:25779  account != address(0) */\n  0xffffffffffffffffffffffffffffffffffffffff\n  and\n    /* \"Contract.sol\":25758:25765  account */\n  dup3\n    /* \"Contract.sol\":25758:25779  account != address(0) */\n  0xffffffffffffffffffffffffffffffffffffffff\n  and\n  eq\n  iszero\n    /* \"Contract.sol\":25750:25815  require(account != address(0), \"ERC20: mint to the zero address\") */\n  tag_35\n  jumpi\n  mload(0x40)\n  0x08c379a000000000000000000000000000000000000000000000000000000000\n  dup2\n  mstore\n  0x04\n  add\n  dup1\n  dup1\n  0x20\n  add\n  dup3\n  dup2\n  sub\n  dup3\n  mstore\n  0x1f\n  dup2\n  mstore\n  0x20\n  add\n  dup1\n  0x45524332303a206d696e7420746f20746865207a65726f206164647265737300\n  dup2\n  mstore\n  pop\n  0x20\n  add\n  swap2\n  pop\n  pop\n  mload(0x40)\n  dup1\n  swap2\n  sub\n  swap1\n  revert\ntag_35:\n    /* \"Contract.sol\":25826:25875  _beforeTokenTransfer(address(0), account, amount) */\n  tag_36\n    /* \"Contract.sol\":25855:25856  0 */\n  0x00\n    /* \"Contract.sol\":25859:25866  account */\n  dup4\n    /* \"Contract.sol\":25868:25874  amount */\n  dup4\n    /* \"Contract.sol\":25826:25846  _beforeTokenTransfer */\n  shl(0x20, tag_37)\n    /* \"Contract.sol\":25826:25875  _beforeTokenTransfer(address(0), account, amount) */\n  0x20\n  shr\n  jump\t// in\ntag_36:\n    /* \"Contract.sol\":25901:25925  _totalSupply.add(amount) */\n  tag_38\n    /* \"Contract.sol\":25918:25924  amount */\n  dup2\n    /* \"Contract.sol\":25901:25913  _totalSupply */\n  sload(0x02)\n    /* \"Contract.sol\":25901:25917  _totalSupply.add */\n  or(tag_0_142, shl(0x20, tag_39))\n  swap1\n    /* \"Contract.sol\":25901:25925  _totalSupply.add(amount) */\n  swap2\n  swap1\n  0x20\n  shr\n  jump\t// in\ntag_38:\n    /* \"Contract.sol\":25886:25898  _totalSupply */\n  0x02\n    /* \"Contract.sol\":25886:25925  _totalSupply = _totalSupply.add(amount) */\n  dup2\n  swap1\n  sstore\n  pop\n    /* \"Contract.sol\":25956:25986  _balances[account].add(amount) */\n  tag_40\n    /* \"Contract.sol\":25979:25985  amount */\n  dup2\n    /* \"Contract.sol\":25956:25965  _balances */\n  0x00\n    /* \"Contract.sol\":25956:25974  _balances[account] */\n  dup1\n    /* \"Contract.sol\":25966:25973  account */\n  dup6\n    /* \"Contract.sol\":25956:25974  _balances[account] */\n  0xffffffffffffffffffffffffffffffffffffffff\n  and\n  0xffffffffffffffffffffffffffffffffffffffff\n  and\n  dup2\n  mstore\n  0x20\n  add\n  swap1\n  dup2\n  mstore\n  0x20\n  add\n  0x00\n  keccak256\n  sload\n    /* \"Contract.sol\":25956:25978  _balances[account].add */\n  or(tag_0_142, shl(0x20, tag_39))\n  swap1\n    /* \"Contract.sol\":25956:25986  _balances[account].add(amount) */\n  swap2\n  swap1\n  0x20\n  shr\n  jump\t// in\ntag_40:\n    /* \"Contract.sol\":25935:25944  _balances */\n  0x00\n    /* \"Contract.sol\":25935:25953  _balances[account] */\n  dup1\n    /* \"Contract.sol\":25945:25952  account */\n  dup5\n    /* \"Contract.sol\":25935:25953  _balances[account] */\n  0xffffffffffffffffffffffffffffffffffffffff\n  and\n  0xffffffffffffffffffffffffffffffffffffffff\n  and\n  dup2\n  mstore\n  0x20\n  add\n  swap1\n  dup2\n  mstore\n  0x20\n  add\n  0x00\n  keccak256\n    /* \"Contract.sol\":25935:25986  _balances[account] = _balances[account].add(amount) */\n  dup2\n  swap1\n  sstore\n  pop\n    /* \"Contract.sol\":26022:26029  account */\n  dup2\n    /* \"Contract.sol\":26001:26038  Transfer(address(0), account, amount) */\n  0xffffffffffffffffffffffffffffffffffffffff\n  and\n    /* \"Contract.sol\":26018:26019  0 */\n  0x00\n    /* \"Contract.sol\":26001:26038  Transfer(address(0), account, amount) */\n  0xffffffffffffffffffffffffffffffffffffffff\n  and\n  0xddf252ad1be2c89b69c2b068fc378daa952ba7f163c4a11628f55a4df523b3ef\n    /* \"Contract.sol\":26031:26037  amount */\n  dup4\n    /* \"Contract.sol\":26001:26038  Transfer(address(0), account, amount) */\n  mload(0x40)\n  dup1\n  dup3\n  dup2\n  mstore\n  0x20\n  add\n  swap2\n  pop\n  pop\n  mload(0x40)\n  dup1\n  swap2\n  sub\n  swap1\n  log3\n    /* \"Contract.sol\":25675:26045  function _mint(address account, uint256 amount) internal virtual {... */\n  pop\n  pop\n  jump\t// out\n    /* \"Contract.sol\":40951:41771  function _moveDelegates(address srcRep, address dstRep, uint amount) internal {... */\ntag_33:\n    /* \"Contract.sol\":41053:41059  dstRep */\n  dup2\n    /* \"Contract.sol\":41043:41059  srcRep != dstRep */\n  0xffffffffffffffffffffffffffffffffffffffff\n  and\n    /* \"Contract.sol\":41043:41049  srcRep */\n  dup4\n    /* \"Contract.sol\":41043:41059  srcRep != dstRep */\n  0xffffffffffffffffffffffffffffffffffffffff\n  and\n  eq\n  iszero\n    /* \"Contract.sol\":41043:41073  srcRep != dstRep && amount > 0 */\n  dup1\n  iszero\n  tag_42\n  jumpi\n  pop\n    /* \"Contract.sol\":41072:41073  0 */\n  0x00\n    /* \"Contract.sol\":41063:41069  amount */\n  dup2\n    /* \"Contract.sol\":41063:41073  amount > 0 */\n  gt\n    /* \"Contract.sol\":41043:41073  srcRep != dstRep && amount > 0 */\ntag_42:\n    /* \"Contract.sol\":41039:41765  if (srcRep != dstRep && amount > 0) {... */\n  iszero\n  tag_43\n  jumpi\n    /* \"Contract.sol\":41111:41112  0 */\n  0x00\n    /* \"Contract.sol\":41093:41113  srcRep != address(0) */\n  0xffffffffffffffffffffffffffffffffffffffff\n  and\n    /* \"Contract.sol\":41093:41099  srcRep */\n  dup4\n    /* \"Contract.sol\":41093:41113  srcRep != address(0) */\n  0xffffffffffffffffffffffffffffffffffffffff\n  and\n  eq\n    /* \"Contract.sol\":41089:41415  if (srcRep != address(0)) {... */\n  tag_44\n  jumpi\n    /* \"Contract.sol\":41133:41149  uint32 srcRepNum */\n  0x00\n    /* \"Contract.sol\":41152:41166  numCheckpoints */\n  0x0b\n    /* \"Contract.sol\":41152:41174  numCheckpoints[srcRep] */\n  0x00\n    /* \"Contract.sol\":41167:41173  srcRep */\n  dup6\n    /* \"Contract.sol\":41152:41174  numCheckpoints[srcRep] */\n  0xffffffffffffffffffffffffffffffffffffffff\n  and\n  0xffffffffffffffffffffffffffffffffffffffff\n  and\n  dup2\n  mstore\n  0x20\n  add\n  swap1\n  dup2\n  mstore\n  0x20\n  add\n  0x00\n  keccak256\n  0x00\n  swap1\n  sload\n  swap1\n  0x0100\n  exp\n  swap1\n  div\n  0xffffffff\n  and\n    /* \"Contract.sol\":41133:41174  uint32 srcRepNum = numCheckpoints[srcRep] */\n  swap1\n  pop\n    /* \"Contract.sol\":41192:41206  uint srcRepOld */\n  0x00\n    /* \"Contract.sol\":41221:41222  0 */\n  dup1\n    /* \"Contract.sol\":41209:41218  srcRepNum */\n  dup3\n    /* \"Contract.sol\":41209:41222  srcRepNum > 0 */\n  0xffffffff\n  and\n  gt\n    /* \"Contract.sol\":41209:41269  srcRepNum > 0 ? checkpoints[srcRep][srcRepNum - 1].votes : 0 */\n  tag_45\n  jumpi\n    /* \"Contract.sol\":41268:41269  0 */\n  0x00\n    /* \"Contract.sol\":41209:41269  srcRepNum > 0 ? checkpoints[srcRep][srcRepNum - 1].votes : 0 */\n  jump(tag_46)\ntag_45:\n    /* \"Contract.sol\":41225:41236  checkpoints */\n  0x0a\n    /* \"Contract.sol\":41225:41244  checkpoints[srcRep] */\n  0x00\n    /* \"Contract.sol\":41237:41243  srcRep */\n  dup7\n    /* \"Contract.sol\":41225:41244  checkpoints[srcRep] */\n  0xffffffffffffffffffffffffffffffffffffffff\n  and\n  0xffffffffffffffffffffffffffffffffffffffff\n  and\n  dup2\n  mstore\n  0x20\n  add\n  swap1\n  dup2\n  mstore\n  0x20\n  add\n  0x00\n  keccak256\n    /* \"Contract.sol\":41225:41259  checkpoints[srcRep][srcRepNum - 1] */\n  0x00\n    /* \"Contract.sol\":41257:41258  1 */\n  0x01\n    /* \"Contract.sol\":41245:41254  srcRepNum */\n  dup5\n    /* \"Contract.sol\":41245:41258  srcRepNum - 1 */\n  sub\n    /* \"Contract.sol\":41225:41259  checkpoints[srcRep][srcRepNum - 1] */\n  0xffffffff\n  and\n  0xffffffff\n  and\n  dup2\n  mstore\n  0x20\n  add\n  swap1\n  dup2\n  mstore\n  0x20\n  add\n  0x00\n  keccak256\n    /* \"Contract.sol\":41225:41265  checkpoints[srcRep][srcRepNum - 1].votes */\n  0x01\n  add\n  sload\n    /* \"Contract.sol\":41209:41269  srcRepNum > 0 ? checkpoints[srcRep][srcRepNum - 1].votes : 0 */\ntag_46:\n    /* \"Contract.sol\":41192:41269  uint srcRepOld = srcRepNum > 0 ? checkpoints[srcRep][srcRepNum - 1].votes : 0 */\n  swap1\n  pop\n    /* \"Contract.sol\":41287:41301  uint srcRepNew */\n  0x00\n    /* \"Contract.sol\":41304:41325  srcRepOld.sub(amount) */\n  tag_47\n    /* \"Contract.sol\":41318:41324  amount */\n  dup5\n    /* \"Contract.sol\":41304:41313  srcRepOld */\n  dup4\n    /* \"Contract.sol\":41304:41317  srcRepOld.sub */\n  or(tag_0_143, shl(0x20, tag_48))\n  swap1\n    /* \"Contract.sol\":41304:41325  srcRepOld.sub(amount) */\n  swap2\n  swap1\n  0x20\n  shr\n  jump\t// in\ntag_47:\n    /* \"Contract.sol\":41287:41325  uint srcRepNew = srcRepOld.sub(amount) */\n  swap1\n  pop\n    /* \"Contract.sol\":41343:41400  _writeCheckpoint(srcRep, srcRepNum, srcRepOld, srcRepNew) */\n  tag_49\n    /* \"Contract.sol\":41360:41366  srcRep */\n  dup7\n    /* \"Contract.sol\":41368:41377  srcRepNum */\n  dup5\n    /* \"Contract.sol\":41379:41388  srcRepOld */\n  dup5\n    /* \"Contract.sol\":41390:41399  srcRepNew */\n  dup5\n    /* \"Contract.sol\":41343:41359  _writeCheckpoint */\n  shl(0x20, tag_50)\n    /* \"Contract.sol\":41343:41400  _writeCheckpoint(srcRep, srcRepNum, srcRepOld, srcRepNew) */\n  0x20\n  shr\n  jump\t// in\ntag_49:\n    /* \"Contract.sol\":41089:41415  if (srcRep != address(0)) {... */\n  pop\n  pop\n  pop\ntag_44:\n    /* \"Contract.sol\":41451:41452  0 */\n  0x00\n    /* \"Contract.sol\":41433:41453  dstRep != address(0) */\n  0xffffffffffffffffffffffffffffffffffffffff\n  and\n    /* \"Contract.sol\":41433:41439  dstRep */\n  dup3\n    /* \"Contract.sol\":41433:41453  dstRep != address(0) */\n  0xffffffffffffffffffffffffffffffffffffffff\n  and\n  eq\n    /* \"Contract.sol\":41429:41755  if (dstRep != address(0)) {... */\n  tag_51\n  jumpi\n    /* \"Contract.sol\":41473:41489  uint32 dstRepNum */\n  0x00\n    /* \"Contract.sol\":41492:41506  numCheckpoints */\n  0x0b\n    /* \"Contract.sol\":41492:41514  numCheckpoints[dstRep] */\n  0x00\n    /* \"Contract.sol\":41507:41513  dstRep */\n  dup5\n    /* \"Contract.sol\":41492:41514  numCheckpoints[dstRep] */\n  0xffffffffffffffffffffffffffffffffffffffff\n  and\n  0xffffffffffffffffffffffffffffffffffffffff\n  and\n  dup2\n  mstore\n  0x20\n  add\n  swap1\n  dup2\n  mstore\n  0x20\n  add\n  0x00\n  keccak256\n  0x00\n  swap1\n  sload\n  swap1\n  0x0100\n  exp\n  swap1\n  div\n  0xffffffff\n  and\n    /* \"Contract.sol\":41473:41514  uint32 dstRepNum = numCheckpoints[dstRep] */\n  swap1\n  pop\n    /* \"Contract.sol\":41532:41546  uint dstRepOld */\n  0x00\n    /* \"Contract.sol\":41561:41562  0 */\n  dup1\n    /* \"Contract.sol\":41549:41558  dstRepNum */\n  dup3\n    /* \"Contract.sol\":41549:41562  dstRepNum > 0 */\n  0xffffffff\n  and\n  gt\n    /* \"Contract.sol\":41549:41609  dstRepNum > 0 ? checkpoints[dstRep][dstRepNum - 1].votes : 0 */\n  tag_52\n  jumpi\n    /* \"Contract.sol\":41608:41609  0 */\n  0x00\n    /* \"Contract.sol\":41549:41609  dstRepNum > 0 ? checkpoints[dstRep][dstRepNum - 1].votes : 0 */\n  jump(tag_53)\ntag_52:\n    /* \"Contract.sol\":41565:41576  checkpoints */\n  0x0a\n    /* \"Contract.sol\":41565:41584  checkpoints[dstRep] */\n  0x00\n    /* \"Contract.sol\":41577:41583  dstRep */\n  dup6\n    /* \"Contract.sol\":41565:41584  checkpoints[dstRep] */\n  0xffffffffffffffffffffffffffffffffffffffff\n  and\n  0xffffffffffffffffffffffffffffffffffffffff\n  and\n  dup2\n  mstore\n  0x20\n  add\n  swap1\n  dup2\n  mstore\n  0x20\n  add\n  0x00\n  keccak256\n    /* \"Contract.sol\":41565:41599  checkpoints[dstRep][dstRepNum - 1] */\n  0x00\n    /* \"Contract.sol\":41597:41598  1 */\n  0x01\n    /* \"Contract.sol\":41585:41594  dstRepNum */\n  dup5\n    /* \"Contract.sol\":41585:41598  dstRepNum - 1 */\n  sub\n    /* \"Contract.sol\":41565:41599  checkpoints[dstRep][dstRepNum - 1] */\n  0xffffffff\n  and\n  0xffffffff\n  and\n  dup2\n  mstore\n  0x20\n  add\n  swap1\n  dup2\n  mstore\n  0x20\n  add\n  0x00\n  keccak256\n    /* \"Contract.sol\":41565:41605  checkpoints[dstRep][dstRepNum - 1].votes */\n  0x01\n  add\n  sload\n    /* \"Contract.sol\":41549:41609  dstRepNum > 0 ? checkpoints[dstRep][dstRepNum - 1].votes : 0 */\ntag_53:\n    /* \"Contract.sol\":41532:41609  uint dstRepOld = dstRepNum > 0 ? checkpoints[dstRep][dstRepNum - 1].votes : 0 */\n  swap1\n  pop\n    /* \"Contract.sol\":41627:41641  uint dstRepNew */\n  0x00\n    /* \"Contract.sol\":41644:41665  dstRepOld.add(amount) */\n  tag_54\n    /* \"Contract.sol\":41658:41664  amount */\n  dup5\n    /* \"Contract.sol\":41644:41653  dstRepOld */\n  dup4\n    /* \"Contract.sol\":41644:41657  dstRepOld.add */\n  or(tag_0_142, shl(0x20, tag_39))\n  swap1\n    /* \"Contract.sol\":41644:41665  dstRepOld.add(amount) */\n  swap2\n  swap1\n  0x20\n  shr\n  jump\t// in\ntag_54:\n    /* \"Contract.sol\":41627:41665  uint dstRepNew = dstRepOld.add(amount) */\n  swap1\n  pop\n    /* \"Contract.sol\":41683:41740  _writeCheckpoint(dstRep, dstRepNum, dstRepOld, dstRepNew) */\n  tag_55\n    /* \"Contract.sol\":41700:41706  dstRep */\n  dup6\n    /* \"Contract.sol\":41708:41717  dstRepNum */\n  dup5\n    /* \"Contract.sol\":41719:41728  dstRepOld */\n  dup5\n    /* \"Contract.sol\":41730:41739  dstRepNew */\n  dup5\n    /* \"Contract.sol\":41683:41699  _writeCheckpoint */\n  shl(0x20, tag_50)\n    /* \"Contract.sol\":41683:41740  _writeCheckpoint(dstRep, dstRepNum, dstRepOld, dstRepNew) */\n  0x20\n  shr\n  jump\t// in\ntag_55:\n    /* \"Contract.sol\":41429:41755  if (dstRep != address(0)) {... */\n  pop\n  pop\n  pop\ntag_51:\n    /* \"Contract.sol\":41039:41765  if (srcRep != dstRep && amount > 0) {... */\ntag_43:\n    /* \"Contract.sol\":40951:41771  function _moveDelegates(address srcRep, address dstRep, uint amount) internal {... */\n  pop\n  pop\n  pop\n  jump\t// out\n    /* \"Contract.sol\":32329:32641  function _beforeTokenTransfer(address from, address to, uint256 amount) internal virtual override {... */\ntag_37:\n    /* \"Contract.sol\":32437:32481  super._beforeTokenTransfer(from, to, amount) */\n  tag_57\n    /* \"Contract.sol\":32464:32468  from */\n  dup4\n    /* \"Contract.sol\":32470:32472  to */\n  dup4\n    /* \"Contract.sol\":32474:32480  amount */\n  dup4\n    /* \"Contract.sol\":32437:32463  super._beforeTokenTransfer */\n  or(tag_0_144, shl(0x20, tag_58))\n    /* \"Contract.sol\":32437:32481  super._beforeTokenTransfer(from, to, amount) */\n  0x20\n  shr\n  jump\t// in\ntag_57:\n    /* \"Contract.sol\":32512:32513  0 */\n  0x00\n    /* \"Contract.sol\":32496:32514  from == address(0) */\n  0xffffffffffffffffffffffffffffffffffffffff\n  and\n    /* \"Contract.sol\":32496:32500  from */\n  dup4\n    /* \"Contract.sol\":32496:32514  from == address(0) */\n  0xffffffffffffffffffffffffffffffffffffffff\n  and\n  eq\n    /* \"Contract.sol\":32492:32635  if (from == address(0)) { // When minting tokens... */\n  iszero\n  tag_59\n  jumpi\n    /* \"Contract.sol\":32590:32594  _cap */\n  sload(0x06)\n    /* \"Contract.sol\":32561:32586  totalSupply().add(amount) */\n  tag_60\n    /* \"Contract.sol\":32579:32585  amount */\n  dup3\n    /* \"Contract.sol\":32561:32574  totalSupply() */\n  tag_61\n    /* \"Contract.sol\":32561:32572  totalSupply */\n  shl(0x20, tag_62)\n    /* \"Contract.sol\":32561:32574  totalSupply() */\n  0x20\n  shr\n  jump\t// in\ntag_61:\n    /* \"Contract.sol\":32561:32578  totalSupply().add */\n  or(tag_0_142, shl(0x20, tag_39))\n  swap1\n    /* \"Contract.sol\":32561:32586  totalSupply().add(amount) */\n  swap2\n  swap1\n  0x20\n  shr\n  jump\t// in\ntag_60:\n    /* \"Contract.sol\":32561:32594  totalSupply().add(amount) <= _cap */\n  gt\n  iszero\n    /* \"Contract.sol\":32553:32624  require(totalSupply().add(amount) <= _cap, \"ERC20Capped: cap exceeded\") */\n  tag_63\n  jumpi\n  mload(0x40)\n  0x08c379a000000000000000000000000000000000000000000000000000000000\n  dup2\n  mstore\n  0x04\n  add\n  dup1\n  dup1\n  0x20\n  add\n  dup3\n  dup2\n  sub\n  dup3\n  mstore\n  0x19\n  dup2\n  mstore\n  0x20\n  add\n  dup1\n  0x45524332304361707065643a2063617020657863656564656400000000000000\n  dup2\n  mstore\n  pop\n  0x20\n  add\n  swap2\n  pop\n  pop\n  mload(0x40)\n  dup1\n  swap2\n  sub\n  swap1\n  revert\ntag_63:\n    /* \"Contract.sol\":32492:32635  if (from == address(0)) { // When minting tokens... */\ntag_59:\n    /* \"Contract.sol\":32329:32641  function _beforeTokenTransfer(address from, address to, uint256 amount) internal virtual override {... */\n  pop\n  pop\n  pop\n  jump\t// out\n    /* \"Contract.sol\":7539:7715  function add(uint256 a, uint256 b) internal pure returns (uint256) {... */\ntag_39:\n    /* \"Contract.sol\":7597:7604  uint256 */\n  0x00\n    /* \"Contract.sol\":7616:7625  uint256 c */\n  dup1\n    /* \"Contract.sol\":7632:7633  b */\n  dup3\n    /* \"Contract.sol\":7628:7629  a */\n  dup5\n    /* \"Contract.sol\":7628:7633  a + b */\n  add\n    /* \"Contract.sol\":7616:7633  uint256 c = a + b */\n  swap1\n  pop\n    /* \"Contract.sol\":7656:7657  a */\n  dup4\n    /* \"Contract.sol\":7651:7652  c */\n  dup2\n    /* \"Contract.sol\":7651:7657  c >= a */\n  lt\n  iszero\n    /* \"Contract.sol\":7643:7689  require(c >= a, \"SafeMath: addition overflow\") */\n  tag_65\n  jumpi\n  mload(0x40)\n  0x08c379a000000000000000000000000000000000000000000000000000000000\n  dup2\n  mstore\n  0x04\n  add\n  dup1\n  dup1\n  0x20\n  add\n  dup3\n  dup2\n  sub\n  dup3\n  mstore\n  0x1b\n  dup2\n  mstore\n  0x20\n  add\n  dup1\n  0x536166654d6174683a206164646974696f6e206f766572666c6f770000000000\n  dup2\n  mstore\n  pop\n  0x20\n  add\n  swap2\n  pop\n  pop\n  mload(0x40)\n  dup1\n  swap2\n  sub\n  swap1\n  revert\ntag_65:\n    /* \"Contract.sol\":7707:7708  c */\n  dup1\n    /* \"Contract.sol\":7700:7708  return c */\n  swap2\n  pop\n  pop\n    /* \"Contract.sol\":7539:7715  function add(uint256 a, uint256 b) internal pure returns (uint256) {... */\n  swap3\n  swap2\n  pop\n  pop\n  jump\t// out\n    /* \"Contract.sol\":7986:8120  function sub(uint256 a, uint256 b) internal pure returns (uint256) {... */\ntag_48:\n    /* \"Contract.sol\":8044:8051  uint256 */\n  0x00\n    /* \"Contract.sol\":8070:8113  sub(a, b, \"SafeMath: subtraction overflow\") */\n  tag_67\n    /* \"Contract.sol\":8074:8075  a */\n  dup4\n    /* \"Contract.sol\":8077:8078  b */\n  dup4\n    /* \"Contract.sol\":8070:8113  sub(a, b, \"SafeMath: subtraction overflow\") */\n  mload(0x40)\n  dup1\n  0x40\n  add\n  0x40\n  mstore\n  dup1\n  0x1e\n  dup2\n  mstore\n  0x20\n  add\n  0x536166654d6174683a207375627472616374696f6e206f766572666c6f770000\n  dup2\n  mstore\n  pop\n    /* \"Contract.sol\":8070:8073  sub */\n  shl(0x20, tag_68)\n    /* \"Contract.sol\":8070:8113  sub(a, b, \"SafeMath: subtraction overflow\") */\n  0x20\n  shr\n  jump\t// in\ntag_67:\n    /* \"Contract.sol\":8063:8113  return sub(a, b, \"SafeMath: subtraction overflow\") */\n  swap1\n  pop\n    /* \"Contract.sol\":7986:8120  function sub(uint256 a, uint256 b) internal pure returns (uint256) {... */\n  swap3\n  swap2\n  pop\n  pop\n  jump\t// out\n    /* \"Contract.sol\":41777:42325  function _writeCheckpoint(address delegatee, uint32 nCheckpoints, uint oldVotes, uint newVotes) internal {... */\ntag_50:\n    /* \"Contract.sol\":41890:41906  uint blockNumber */\n  0x00\n    /* \"Contract.sol\":41909:41921  block.number */\n  number\n    /* \"Contract.sol\":41890:41921  uint blockNumber = block.number */\n  swap1\n  pop\n    /* \"Contract.sol\":41949:41950  0 */\n  0x00\n    /* \"Contract.sol\":41934:41946  nCheckpoints */\n  dup5\n    /* \"Contract.sol\":41934:41950  nCheckpoints > 0 */\n  0xffffffff\n  and\n  gt\n    /* \"Contract.sol\":41934:42019  nCheckpoints > 0 && checkpoints[delegatee][nCheckpoints - 1].fromBlock == blockNumber */\n  dup1\n  iszero\n  tag_70\n  jumpi\n  pop\n    /* \"Contract.sol\":42008:42019  blockNumber */\n  dup1\n    /* \"Contract.sol\":41954:41965  checkpoints */\n  0x0a\n    /* \"Contract.sol\":41954:41976  checkpoints[delegatee] */\n  0x00\n    /* \"Contract.sol\":41966:41975  delegatee */\n  dup8\n    /* \"Contract.sol\":41954:41976  checkpoints[delegatee] */\n  0xffffffffffffffffffffffffffffffffffffffff\n  and\n  0xffffffffffffffffffffffffffffffffffffffff\n  and\n  dup2\n  mstore\n  0x20\n  add\n  swap1\n  dup2\n  mstore\n  0x20\n  add\n  0x00\n  keccak256\n    /* \"Contract.sol\":41954:41994  checkpoints[delegatee][nCheckpoints - 1] */\n  0x00\n    /* \"Contract.sol\":41992:41993  1 */\n  0x01\n    /* \"Contract.sol\":41977:41989  nCheckpoints */\n  dup8\n    /* \"Contract.sol\":41977:41993  nCheckpoints - 1 */\n  sub\n    /* \"Contract.sol\":41954:41994  checkpoints[delegatee][nCheckpoints - 1] */\n  0xffffffff\n  and\n  0xffffffff\n  and\n  dup2\n  mstore\n  0x20\n  add\n  swap1\n  dup2\n  mstore\n  0x20\n  add\n  0x00\n  keccak256\n    /* \"Contract.sol\":41954:42004  checkpoints[delegatee][nCheckpoints - 1].fromBlock */\n  0x00\n  add\n  sload\n    /* \"Contract.sol\":41954:42019  checkpoints[delegatee][nCheckpoints - 1].fromBlock == blockNumber */\n  eq\n    /* \"Contract.sol\":41934:42019  nCheckpoints > 0 && checkpoints[delegatee][nCheckpoints - 1].fromBlock == blockNumber */\ntag_70:\n    /* \"Contract.sol\":41930:42254  if (nCheckpoints > 0 && checkpoints[delegatee][nCheckpoints - 1].fromBlock == blockNumber) {... */\n  iszero\n  tag_71\n  jumpi\n    /* \"Contract.sol\":42082:42090  newVotes */\n  dup2\n    /* \"Contract.sol\":42033:42044  checkpoints */\n  0x0a\n    /* \"Contract.sol\":42033:42055  checkpoints[delegatee] */\n  0x00\n    /* \"Contract.sol\":42045:42054  delegatee */\n  dup8\n    /* \"Contract.sol\":42033:42055  checkpoints[delegatee] */\n  0xffffffffffffffffffffffffffffffffffffffff\n  and\n  0xffffffffffffffffffffffffffffffffffffffff\n  and\n  dup2\n  mstore\n  0x20\n  add\n  swap1\n  dup2\n  mstore\n  0x20\n  add\n  0x00\n  keccak256\n    /* \"Contract.sol\":42033:42073  checkpoints[delegatee][nCheckpoints - 1] */\n  0x00\n    /* \"Contract.sol\":42071:42072  1 */\n  0x01\n    /* \"Contract.sol\":42056:42068  nCheckpoints */\n  dup8\n    /* \"Contract.sol\":42056:42072  nCheckpoints - 1 */\n  sub\n    /* \"Contract.sol\":42033:42073  checkpoints[delegatee][nCheckpoints - 1] */\n  0xffffffff\n  and\n  0xffffffff\n  and\n  dup2\n  mstore\n  0x20\n  add\n  swap1\n  dup2\n  mstore\n  0x20\n  add\n  0x00\n  keccak256\n    /* \"Contract.sol\":42033:42079  checkpoints[delegatee][nCheckpoints - 1].votes */\n  0x01\n  add\n    /* \"Contract.sol\":42033:42090  checkpoints[delegatee][nCheckpoints - 1].votes = newVotes */\n  dup2\n  swap1\n  sstore\n  pop\n    /* \"Contract.sol\":41930:42254  if (nCheckpoints > 0 && checkpoints[delegatee][nCheckpoints - 1].fromBlock == blockNumber) {... */\n  jump(tag_72)\ntag_71:\n    /* \"Contract.sol\":42156:42189  Checkpoint(blockNumber, newVotes) */\n  mload(0x40)\n  dup1\n  0x40\n  add\n  0x40\n  mstore\n  dup1\n    /* \"Contract.sol\":42167:42178  blockNumber */\n  dup3\n    /* \"Contract.sol\":42156:42189  Checkpoint(blockNumber, newVotes) */\n  dup2\n  mstore\n  0x20\n  add\n    /* \"Contract.sol\":42180:42188  newVotes */\n  dup4\n    /* \"Contract.sol\":42156:42189  Checkpoint(blockNumber, newVotes) */\n  dup2\n  mstore\n  pop\n    /* \"Contract.sol\":42117:42128  checkpoints */\n  0x0a\n    /* \"Contract.sol\":42117:42139  checkpoints[delegatee] */\n  0x00\n    /* \"Contract.sol\":42129:42138  delegatee */\n  dup8\n    /* \"Contract.sol\":42117:42139  checkpoints[delegatee] */\n  0xffffffffffffffffffffffffffffffffffffffff\n  and\n  0xffffffffffffffffffffffffffffffffffffffff\n  and\n  dup2\n  mstore\n  0x20\n  add\n  swap1\n  dup2\n  mstore\n  0x20\n  add\n  0x00\n  keccak256\n    /* \"Contract.sol\":42117:42153  checkpoints[delegatee][nCheckpoints] */\n  0x00\n    /* \"Contract.sol\":42140:42152  nCheckpoints */\n  dup7\n    /* \"Contract.sol\":42117:42153  checkpoints[delegatee][nCheckpoints] */\n  0xffffffff\n  and\n  0xffffffff\n  and\n  dup2\n  mstore\n  0x20\n  add\n  swap1\n  dup2\n  mstore\n  0x20\n  add\n  0x00\n  keccak256\n    /* \"Contract.sol\":42117:42189  checkpoints[delegatee][nCheckpoints] = Checkpoint(blockNumber, newVotes) */\n  0x00\n  dup3\n  add\n  mload\n  dup2\n  0x00\n  add\n  sstore\n  0x20\n  dup3\n  add\n  mload\n  dup2\n  0x01\n  add\n  sstore\n  swap1\n  pop\n  pop\n    /* \"Contract.sol\":42244:42245  1 */\n  0x01\n    /* \"Contract.sol\":42229:42241  nCheckpoints */\n  dup5\n    /* \"Contract.sol\":42229:42245  nCheckpoints + 1 */\n  add\n    /* \"Contract.sol\":42201:42215  numCheckpoints */\n  0x0b\n    /* \"Contract.sol\":42201:42226  numCheckpoints[delegatee] */\n  0x00\n    /* \"Contract.sol\":42216:42225  delegatee */\n  dup8\n    /* \"Contract.sol\":42201:42226  numCheckpoints[delegatee] */\n  0xffffffffffffffffffffffffffffffffffffffff\n  and\n  0xffffffffffffffffffffffffffffffffffffffff\n  and\n  dup2\n  mstore\n  0x20\n  add\n  swap1\n  dup2\n  mstore\n  0x20\n  add\n  0x00\n  keccak256\n  0x00\n    /* \"Contract.sol\":42201:42245  numCheckpoints[delegatee] = nCheckpoints + 1 */\n  0x0100\n  exp\n  dup2\n  sload\n  dup2\n  0xffffffff\n  mul\n  not\n  and\n  swap1\n  dup4\n  0xffffffff\n  and\n  mul\n  or\n  swap1\n  sstore\n  pop\n    /* \"Contract.sol\":41930:42254  if (nCheckpoints > 0 && checkpoints[delegatee][nCheckpoints - 1].fromBlock == blockNumber) {... */\ntag_72:\n    /* \"Contract.sol\":42288:42297  delegatee */\n  dup5\n    /* \"Contract.sol\":42267:42318  DelegateVotesChanged(delegatee, oldVotes, newVotes) */\n  0xffffffffffffffffffffffffffffffffffffffff\n  and\n  0xdec2bacdd2f05b59de34da9b523dff8be42e5e38e818c82fdb0bae774387a724\n    /* \"Contract.sol\":42299:42307  oldVotes */\n  dup5\n    /* \"Contract.sol\":42309:42317  newVotes */\n  dup5\n    /* \"Contract.sol\":42267:42318  DelegateVotesChanged(delegatee, oldVotes, newVotes) */\n  mload(0x40)\n  dup1\n  dup4\n  dup2\n  mstore\n  0x20\n  add\n  dup3\n  dup2\n  mstore\n  0x20\n  add\n  swap3\n  pop\n  pop\n  pop\n  mload(0x40)\n  dup1\n  swap2\n  sub\n  swap1\n  log2\n    /* \"Contract.sol\":41777:42325  function _writeCheckpoint(address delegatee, uint32 nCheckpoints, uint oldVotes, uint newVotes) internal {... */\n  pop\n  pop\n  pop\n  pop\n  pop\n  jump\t// out\n    /* \"Contract.sol\":28537:28629  function _beforeTokenTransfer(address from, address to, uint256 amount) internal virtual { } */\ntag_58:\n  pop\n  pop\n  pop\n  jump\t// out\n    /* \"Contract.sol\":21102:21200  function totalSupply() public view override returns (uint256) {... */\ntag_62:\n    /* \"Contract.sol\":21155:21162  uint256 */\n  0x00\n    /* \"Contract.sol\":21181:21193  _totalSupply */\n  sload(0x02)\n    /* \"Contract.sol\":21174:21193  return _totalSupply */\n  swap1\n  pop\n    /* \"Contract.sol\":21102:21200  function totalSupply() public view override returns (uint256) {... */\n  swap1\n  jump\t// out\n    /* \"Contract.sol\":8411:8598  function sub(uint256 a, uint256 b, string memory errorMessage) internal pure returns (uint256) {... */\ntag_68:\n    /* \"Contract.sol\":8497:8504  uint256 */\n  0x00\n    /* \"Contract.sol\":8529:8530  a */\n  dup4\n    /* \"Contract.sol\":8524:8525  b */\n  dup4\n    /* \"Contract.sol\":8524:8530  b <= a */\n  gt\n  iszero\n    /* \"Contract.sol\":8532:8544  errorMessage */\n  dup3\n    /* \"Contract.sol\":8516:8545  require(b <= a, errorMessage) */\n  swap1\n  tag_76\n  jumpi\n  mload(0x40)\n  0x08c379a000000000000000000000000000000000000000000000000000000000\n  dup2\n  mstore\n  0x04\n  add\n  dup1\n  dup1\n  0x20\n  add\n  dup3\n  dup2\n  sub\n  dup3\n  mstore\n  dup4\n  dup2\n  dup2\n  mload\n  dup2\n  mstore\n  0x20\n  add\n  swap2\n  pop\n  dup1\n  mload\n  swap1\n  0x20\n  add\n  swap1\n  dup1\n  dup4\n  dup4\n  0x00\ntag_77:\n  dup4\n  dup2\n  lt\n  iszero\n  tag_79\n  jumpi\n  dup1\n  dup3\n  add\n  mload\n  dup2\n  dup5\n  add\n  mstore\n  0x20\n  dup2\n  add\n  swap1\n  pop\n  jump(tag_77)\ntag_79:\n  pop\n  pop\n  pop\n  pop\n  swap1\n  pop\n  swap1\n  dup2\n  add\n  swap1\n  0x1f\n  and\n  dup1\n  iszero\n  tag_80\n  jumpi\n  dup1\n  dup3\n  sub\n  dup1\n  mload\n  0x01\n  dup4\n  0x20\n  sub\n  0x0100\n  exp\n  sub\n  not\n  and\n  dup2\n  mstore\n  0x20\n  add\n  swap2\n  pop\ntag_80:\n  pop\n  swap3\n  pop\n  pop\n  pop\n  mload(0x40)\n  dup1\n  swap2\n  sub\n  swap1\n  revert\ntag_76:\n  pop\n    /* \"Contract.sol\":8555:8564  uint256 c */\n  0x00\n    /* \"Contract.sol\":8571:8572  b */\n  dup4\n    /* \"Contract.sol\":8567:8568  a */\n  dup6\n    /* \"Contract.sol\":8567:8572  a - b */\n  sub\n    /* \"Contract.sol\":8555:8572  uint256 c = a - b */\n  swap1\n  pop\n    /* \"Contract.sol\":8590:8591  c */\n  dup1\n    /* \"Contract.sol\":8583:8591  return c */\n  swap2\n  pop\n  pop\n    /* \"Contract.sol\":8411:8598  function sub(uint256 a, uint256 b, string memory errorMessage) internal pure returns (uint256) {... */\n  swap4\n  swap3\n  pop\n  pop\n  pop\n  jump\t// out\n    /* \"Contract.sol\":32710:42484  contract JPT is ERC20Capped, Ownable, Pausable, Blacklist {... */\ntag_10:\n  dup3\n  dup1\n  sload\n  0x01\n  dup2\n  0x01\n  and\n  iszero\n  0x0100\n  mul\n  sub\n  and\n  0x02\n  swap1\n  div\n  swap1\n  0x00\n  mstore\n  keccak256(0x00, 0x20)\n  swap1\n  0x1f\n  add\n  0x20\n  swap1\n  div\n  dup2\n  add\n  swap3\n  dup3\n  0x1f\n  lt\n  tag_82\n  jumpi\n  dup1\n  mload\n  not(0xff)\n  and\n  dup4\n  dup1\n  add\n  or\n  dup6\n  sstore\n  jump(tag_81)\ntag_82:\n  dup3\n  dup1\n  add\n  0x01\n  add\n  dup6\n  sstore\n  dup3\n  iszero\n  tag_81\n  jumpi\n  swap2\n  dup3\n  add\ntag_83:\n  dup3\n  dup2\n  gt\n  iszero\n  tag_84\n  jumpi\n  dup3\n  mload\n  dup3\n  sstore\n  swap2\n  0x20\n  add\n  swap2\n  swap1\n  0x01\n  add\n  swap1\n  jump(tag_83)\ntag_84:\ntag_81:\n  pop\n  swap1\n  pop\n  tag_85\n  swap2\n  swap1\n  tag_86\n  jump\t// in\ntag_85:\n  pop\n  swap1\n  jump\t// out\ntag_86:\ntag_87:\n  dup1\n  dup3\n  gt\n  iszero\n  tag_88\n  jumpi\n  0x00\n  dup2\n  0x00\n  swap1\n  sstore\n  pop\n  0x01\n  add\n  jump(tag_87)\ntag_88:\n  pop\n  swap1\n  jump\t// out\ntag_21:\n  dataSize(sub_0)\n  dup1\n  dataOffset(sub_0)\n  0x00\n  codecopy\n  0x00\n  return\nstop\n\nsub_0: assembly {\n        /* \"Contract.sol\":32710:42484  contract JPT is ERC20Capped, Ownable, Pausable, Blacklist {... */\n      mstore(0x40, 0x80)\n      callvalue\n      dup1\n      iszero\n      tag_1\n      jumpi\n      0x00\n      dup1\n      revert\n    tag_1:\n      pop\n      jumpi(tag_2, lt(calldatasize, 0x04))\n      shr(0xe0, calldataload(0x00))\n      dup1\n      0x715018a6\n      gt\n      tag_37\n      jumpi\n      dup1\n      0xb4b5ea57\n      gt\n      tag_38\n      jumpi\n      dup1\n      0xe47d6060\n      gt\n      tag_39\n      jumpi\n      dup1\n      0xe47d6060\n      eq\n      tag_32\n      jumpi\n      dup1\n      0xe4997dc5\n      eq\n      tag_33\n      jumpi\n      dup1\n      0xe7a324dc\n      eq\n      tag_34\n      jumpi\n      dup1\n      0xf1127ed8\n      eq\n      tag_35\n      jumpi\n      dup1\n      0xf2fde38b\n      eq\n      tag_36\n      jumpi\n      jump(tag_2)\n    tag_39:\n      dup1\n      0xb4b5ea57\n      eq\n      tag_28\n      jumpi\n      dup1\n      0xc3cda520\n      eq\n      tag_29\n      jumpi\n      dup1\n      0xd431b1ac\n      eq\n      tag_30\n      jumpi\n      dup1\n      0xdd62ed3e\n      eq\n      tag_31\n      jumpi\n      jump(tag_2)\n    tag_38:\n      dup1\n      0x8da5cb5b\n      gt\n      tag_40\n      jumpi\n      dup1\n      0x8da5cb5b\n      eq\n      tag_24\n      jumpi\n      dup1\n      0x95d89b41\n      eq\n      tag_25\n      jumpi\n      dup1\n      0xa457c2d7\n      eq\n      tag_26\n      jumpi\n      dup1\n      0xa9059cbb\n      eq\n      tag_27\n      jumpi\n      jump(tag_2)\n    tag_40:\n      dup1\n      0x715018a6\n      eq\n      tag_20\n      jumpi\n      dup1\n      0x782d6fe1\n      eq\n      tag_21\n      jumpi\n      dup1\n      0x7ecebe00\n      eq\n      tag_22\n      jumpi\n      dup1\n      0x848cb5c6\n      eq\n      tag_23\n      jumpi\n      jump(tag_2)\n    tag_37:\n      dup1\n      0x39509351\n      gt\n      tag_41\n      jumpi\n      dup1\n      0x59bf1abe\n      gt\n      tag_42\n      jumpi\n      dup1\n      0x59bf1abe\n      eq\n      tag_15\n      jumpi\n      dup1\n      0x5c19a95c\n      eq\n      tag_16\n      jumpi\n      dup1\n      0x5c975abb\n      eq\n      tag_17\n      jumpi\n      dup1\n      0x6fcfff45\n      eq\n      tag_18\n      jumpi\n      dup1\n      0x70a08231\n      eq\n      tag_19\n      jumpi\n      jump(tag_2)\n    tag_42:\n      dup1\n      0x39509351\n      eq\n      tag_11\n      jumpi\n      dup1\n      0x40c10f19\n      eq\n      tag_12\n      jumpi\n      dup1\n      0x42966c68\n      eq\n      tag_13\n      jumpi\n      dup1\n      0x587cde1e\n      eq\n      tag_14\n      jumpi\n      jump(tag_2)\n    tag_41:\n      dup1\n      0x20606b70\n      gt\n      tag_43\n      jumpi\n      dup1\n      0x20606b70\n      eq\n      tag_7\n      jumpi\n      dup1\n      0x23b872dd\n      eq\n      tag_8\n      jumpi\n      dup1\n      0x313ce567\n      eq\n      tag_9\n      jumpi\n      dup1\n      0x355274ea\n      eq\n      tag_10\n      jumpi\n      jump(tag_2)\n    tag_43:\n      dup1\n      0x06fdde03\n      eq\n      tag_3\n      jumpi\n      dup1\n      0x095ea7b3\n      eq\n      tag_4\n      jumpi\n      dup1\n      0x0ecb93c0\n      eq\n      tag_5\n      jumpi\n      dup1\n      0x18160ddd\n      eq\n      tag_6\n      jumpi\n    tag_2:\n      0x00\n      dup1\n      revert\n        /* \"Contract.sol\":20059:20140  function name() public view returns (string memory) {... */\n    tag_3:\n      tag_44\n      tag_45\n      jump\t// in\n    tag_44:\n      mload(0x40)\n      dup1\n      dup1\n      0x20\n      add\n      dup3\n      dup2\n      sub\n      dup3\n      mstore\n      dup4\n      dup2\n      dup2\n      mload\n      dup2\n      mstore\n      0x20\n      add\n      swap2\n      pop\n      dup1\n      mload\n      swap1\n      0x20\n      add\n      swap1\n      dup1\n      dup4\n      dup4\n      0x00\n    tag_46:\n      dup4\n      dup2\n      lt\n      iszero\n      tag_48\n      jumpi\n      dup1\n      dup3\n      add\n      mload\n      dup2\n      dup5\n      add\n      mstore\n      0x20\n      dup2\n      add\n      swap1\n      pop\n      jump(tag_46)\n    tag_48:\n      pop\n      pop\n      pop\n      pop\n      swap1\n      pop\n      swap1\n      dup2\n      add\n      swap1\n      0x1f\n      and\n      dup1\n      iszero\n      tag_49\n      jumpi\n      dup1\n      dup3\n      sub\n      dup1\n      mload\n      0x01\n      dup4\n      0x20\n      sub\n      0x0100\n      exp\n      sub\n      not\n      and\n      dup2\n      mstore\n      0x20\n      add\n      swap2\n      pop\n    tag_49:\n      pop\n      swap3\n      pop\n      pop\n      pop\n      mload(0x40)\n      dup1\n      swap2\n      sub\n      swap1\n      return\n        /* \"Contract.sol\":22095:22261  function approve(address spender, uint256 amount) public virtual override returns (bool) {... */\n    tag_4:\n      tag_50\n      0x04\n      dup1\n      calldatasize\n      sub\n      0x40\n      dup2\n      lt\n      iszero\n      tag_51\n      jumpi\n      0x00\n      dup1\n      revert\n    tag_51:\n      dup2\n      add\n      swap1\n      dup1\n      dup1\n      calldataload\n      0xffffffffffffffffffffffffffffffffffffffff\n      and\n      swap1\n      0x20\n      add\n      swap1\n      swap3\n      swap2\n      swap1\n      dup1\n      calldataload\n      swap1\n      0x20\n      add\n      swap1\n      swap3\n      swap2\n      swap1\n      pop\n      pop\n      pop\n      tag_52\n      jump\t// in\n    tag_50:\n      mload(0x40)\n      dup1\n      dup3\n      iszero\n      iszero\n      dup2\n      mstore\n      0x20\n      add\n      swap2\n      pop\n      pop\n      mload(0x40)\n      dup1\n      swap2\n      sub\n      swap1\n      return\n        /* \"Contract.sol\":3639:3781  function addBlackList (address _evilUser) public onlyOwner {... */\n    tag_5:\n      tag_53\n      0x04\n      dup1\n      calldatasize\n      sub\n      0x20\n      dup2\n      lt\n      iszero\n      tag_54\n      jumpi\n      0x00\n      dup1\n      revert\n    tag_54:\n      dup2\n      add\n      swap1\n      dup1\n      dup1\n      calldataload\n      0xffffffffffffffffffffffffffffffffffffffff\n      and\n      swap1\n      0x20\n      add\n      swap1\n      swap3\n      swap2\n      swap1\n      pop\n      pop\n      pop\n      tag_55\n      jump\t// in\n    tag_53:\n      stop\n        /* \"Contract.sol\":21102:21200  function totalSupply() public view override returns (uint256) {... */\n    tag_6:\n      tag_56\n      tag_57\n      jump\t// in\n    tag_56:\n      mload(0x40)\n      dup1\n      dup3\n      dup2\n      mstore\n      0x20\n      add\n      swap2\n      pop\n      pop\n      mload(0x40)\n      dup1\n      swap2\n      sub\n      swap1\n      return\n        /* \"Contract.sol\":33377:33499  bytes32 public constant DOMAIN_TYPEHASH = keccak256(\"EIP712Domain(string name,uint256 chainId,address verifyingContract)\") */\n    tag_7:\n      tag_58\n      tag_59\n      jump\t// in\n    tag_58:\n      mload(0x40)\n      dup1\n      dup3\n      dup2\n      mstore\n      0x20\n      add\n      swap2\n      pop\n      pop\n      mload(0x40)\n      dup1\n      swap2\n      sub\n      swap1\n      return\n        /* \"Contract.sol\":36092:36508  function transferFrom(address _from, address _to, uint _value) public override onlyPayloadSize(3 * 32) whenNotPaused returns (bool) {... */\n    tag_8:\n      tag_60\n      0x04\n      dup1\n      calldatasize\n      sub\n      0x60\n      dup2\n      lt\n      iszero\n      tag_61\n      jumpi\n      0x00\n      dup1\n      revert\n    tag_61:\n      dup2\n      add\n      swap1\n      dup1\n      dup1\n      calldataload\n      0xffffffffffffffffffffffffffffffffffffffff\n      and\n      swap1\n      0x20\n      add\n      swap1\n      swap3\n      swap2\n      swap1\n      dup1\n      calldataload\n      0xffffffffffffffffffffffffffffffffffffffff\n      and\n      swap1\n      0x20\n      add\n      swap1\n      swap3\n      swap2\n      swap1\n      dup1\n      calldataload\n      swap1\n      0x20\n      add\n      swap1\n      swap3\n      swap2\n      swap1\n      pop\n      pop\n      pop\n      tag_62\n      jump\t// in\n    tag_60:\n      mload(0x40)\n      dup1\n      dup3\n      iszero\n      iszero\n      dup2\n      mstore\n      0x20\n      add\n      swap2\n      pop\n      pop\n      mload(0x40)\n      dup1\n      swap2\n      sub\n      swap1\n      return\n        /* \"Contract.sol\":20961:21042  function decimals() public view returns (uint8) {... */\n    tag_9:\n      tag_63\n      tag_64\n      jump\t// in\n    tag_63:\n      mload(0x40)\n      dup1\n      dup3\n      0xff\n      and\n      dup2\n      mstore\n      0x20\n      add\n      swap2\n      pop\n      pop\n      mload(0x40)\n      dup1\n      swap2\n      sub\n      swap1\n      return\n        /* \"Contract.sol\":32078:32151  function cap() public view returns (uint256) {... */\n    tag_10:\n      tag_65\n      tag_66\n      jump\t// in\n    tag_65:\n      mload(0x40)\n      dup1\n      dup3\n      dup2\n      mstore\n      0x20\n      add\n      swap2\n      pop\n      pop\n      mload(0x40)\n      dup1\n      swap2\n      sub\n      swap1\n      return\n        /* \"Contract.sol\":23433:23648  function increaseAllowance(address spender, uint256 addedValue) public virtual returns (bool) {... */\n    tag_11:\n      tag_67\n      0x04\n      dup1\n      calldatasize\n      sub\n      0x40\n      dup2\n      lt\n      iszero\n      tag_68\n      jumpi\n      0x00\n      dup1\n      revert\n    tag_68:\n      dup2\n      add\n      swap1\n      dup1\n      dup1\n      calldataload\n      0xffffffffffffffffffffffffffffffffffffffff\n      and\n      swap1\n      0x20\n      add\n      swap1\n      swap3\n      swap2\n      swap1\n      dup1\n      calldataload\n      swap1\n      0x20\n      add\n      swap1\n      swap3\n      swap2\n      swap1\n      pop\n      pop\n      pop\n      tag_69\n      jump\t// in\n    tag_67:\n      mload(0x40)\n      dup1\n      dup3\n      iszero\n      iszero\n      dup2\n      mstore\n      0x20\n      add\n      swap2\n      pop\n      pop\n      mload(0x40)\n      dup1\n      swap2\n      sub\n      swap1\n      return\n        /* \"Contract.sol\":34704:34974  function mint(address recipient, uint _mintVal) public onlyOwner whenNotPaused {... */\n    tag_12:\n      tag_70\n      0x04\n      dup1\n      calldatasize\n      sub\n      0x40\n      dup2\n      lt\n      iszero\n      tag_71\n      jumpi\n      0x00\n      dup1\n      revert\n    tag_71:\n      dup2\n      add\n      swap1\n      dup1\n      dup1\n      calldataload\n      0xffffffffffffffffffffffffffffffffffffffff\n      and\n      swap1\n      0x20\n      add\n      swap1\n      swap3\n      swap2\n      swap1\n      dup1\n      calldataload\n      swap1\n      0x20\n      add\n      swap1\n      swap3\n      swap2\n      swap1\n      pop\n      pop\n      pop\n      tag_72\n      jump\t// in\n    tag_70:\n      stop\n        /* \"Contract.sol\":35059:35153  function burn(uint _burnVal) public whenNotPaused {... */\n    tag_13:\n      tag_73\n      0x04\n      dup1\n      calldatasize\n      sub\n      0x20\n      dup2\n      lt\n      iszero\n      tag_74\n      jumpi\n      0x00\n      dup1\n      revert\n    tag_74:\n      dup2\n      add\n      swap1\n      dup1\n      dup1\n      calldataload\n      swap1\n      0x20\n      add\n      swap1\n      swap3\n      swap2\n      swap1\n      pop\n      pop\n      pop\n      tag_75\n      jump\t// in\n    tag_73:\n      stop\n        /* \"Contract.sol\":36995:37110  function delegates(address delegator) external view returns (address) {... */\n    tag_14:\n      tag_76\n      0x04\n      dup1\n      calldatasize\n      sub\n      0x20\n      dup2\n      lt\n      iszero\n      tag_77\n      jumpi\n      0x00\n      dup1\n      revert\n    tag_77:\n      dup2\n      add\n      swap1\n      dup1\n      dup1\n      calldataload\n      0xffffffffffffffffffffffffffffffffffffffff\n      and\n      swap1\n      0x20\n      add\n      swap1\n      swap3\n      swap2\n      swap1\n      pop\n      pop\n      pop\n      tag_78\n      jump\t// in\n    tag_76:\n      mload(0x40)\n      dup1\n      dup3\n      0xffffffffffffffffffffffffffffffffffffffff\n      and\n      dup2\n      mstore\n      0x20\n      add\n      swap2\n      pop\n      pop\n      mload(0x40)\n      dup1\n      swap2\n      sub\n      swap1\n      return\n        /* \"Contract.sol\":3515:3633  function getBlackListStatus(address _maker) external view returns (bool) {... */\n    tag_15:\n      tag_79\n      0x04\n      dup1\n      calldatasize\n      sub\n      0x20\n      dup2\n      lt\n      iszero\n      tag_80\n      jumpi\n      0x00\n      dup1\n      revert\n    tag_80:\n      dup2\n      add\n      swap1\n      dup1\n      dup1\n      calldataload\n      0xffffffffffffffffffffffffffffffffffffffff\n      and\n      swap1\n      0x20\n      add\n      swap1\n      swap3\n      swap2\n      swap1\n      pop\n      pop\n      pop\n      tag_81\n      jump\t// in\n    tag_79:\n      mload(0x40)\n      dup1\n      dup3\n      iszero\n      iszero\n      dup2\n      mstore\n      0x20\n      add\n      swap2\n      pop\n      pop\n      mload(0x40)\n      dup1\n      swap2\n      sub\n      swap1\n      return\n        /* \"Contract.sol\":37249:37349  function delegate(address delegatee) public {... */\n    tag_16:\n      tag_82\n      0x04\n      dup1\n      calldatasize\n      sub\n      0x20\n      dup2\n      lt\n      iszero\n      tag_83\n      jumpi\n      0x00\n      dup1\n      revert\n    tag_83:\n      dup2\n      add\n      swap1\n      dup1\n      dup1\n      calldataload\n      0xffffffffffffffffffffffffffffffffffffffff\n      and\n      swap1\n      0x20\n      add\n      swap1\n      swap3\n      swap2\n      swap1\n      pop\n      pop\n      pop\n      tag_84\n      jump\t// in\n    tag_82:\n      stop\n        /* \"Contract.sol\":29651:29727  function paused() public view returns (bool) {... */\n    tag_17:\n      tag_85\n      tag_86\n      jump\t// in\n    tag_85:\n      mload(0x40)\n      dup1\n      dup3\n      iszero\n      iszero\n      dup2\n      mstore\n      0x20\n      add\n      swap2\n      pop\n      pop\n      mload(0x40)\n      dup1\n      swap2\n      sub\n      swap1\n      return\n        /* \"Contract.sol\":33261:33310  mapping (address => uint32) public numCheckpoints */\n    tag_18:\n      tag_87\n      0x04\n      dup1\n      calldatasize\n      sub\n      0x20\n      dup2\n      lt\n      iszero\n      tag_88\n      jumpi\n      0x00\n      dup1\n      revert\n    tag_88:\n      dup2\n      add\n      swap1\n      dup1\n      dup1\n      calldataload\n      0xffffffffffffffffffffffffffffffffffffffff\n      and\n      swap1\n      0x20\n      add\n      swap1\n      swap3\n      swap2\n      swap1\n      pop\n      pop\n      pop\n      tag_89\n      jump\t// in\n    tag_87:\n      mload(0x40)\n      dup1\n      dup3\n      0xffffffff\n      and\n      dup2\n      mstore\n      0x20\n      add\n      swap2\n      pop\n      pop\n      mload(0x40)\n      dup1\n      swap2\n      sub\n      swap1\n      return\n        /* \"Contract.sol\":21258:21375  function balanceOf(address account) public view override returns (uint256) {... */\n    tag_19:\n      tag_90\n      0x04\n      dup1\n      calldatasize\n      sub\n      0x20\n      dup2\n      lt\n      iszero\n      tag_91\n      jumpi\n      0x00\n      dup1\n      revert\n    tag_91:\n      dup2\n      add\n      swap1\n      dup1\n      dup1\n      calldataload\n      0xffffffffffffffffffffffffffffffffffffffff\n      and\n      swap1\n      0x20\n      add\n      swap1\n      swap3\n      swap2\n      swap1\n      pop\n      pop\n      pop\n      tag_92\n      jump\t// in\n    tag_90:\n      mload(0x40)\n      dup1\n      dup3\n      dup2\n      mstore\n      0x20\n      add\n      swap2\n      pop\n      pop\n      mload(0x40)\n      dup1\n      swap2\n      sub\n      swap1\n      return\n        /* \"Contract.sol\":2768:2913  function renounceOwnership() public virtual onlyOwner {... */\n    tag_20:\n      tag_93\n      tag_94\n      jump\t// in\n    tag_93:\n      stop\n        /* \"Contract.sol\":39386:40570  function getPriorVotes(address account, uint blockNumber) public view returns (uint) {... */\n    tag_21:\n      tag_95\n      0x04\n      dup1\n      calldatasize\n      sub\n      0x40\n      dup2\n      lt\n      iszero\n      tag_96\n      jumpi\n      0x00\n      dup1\n      revert\n    tag_96:\n      dup2\n      add\n      swap1\n      dup1\n      dup1\n      calldataload\n      0xffffffffffffffffffffffffffffffffffffffff\n      and\n      swap1\n      0x20\n      add\n      swap1\n      swap3\n      swap2\n      swap1\n      dup1\n      calldataload\n      swap1\n      0x20\n      add\n      swap1\n      swap3\n      swap2\n      swap1\n      pop\n      pop\n      pop\n      tag_97\n      jump\t// in\n    tag_95:\n      mload(0x40)\n      dup1\n      dup3\n      dup2\n      mstore\n      0x20\n      add\n      swap2\n      pop\n      pop\n      mload(0x40)\n      dup1\n      swap2\n      sub\n      swap1\n      return\n        /* \"Contract.sol\":33779:33818  mapping (address => uint) public nonces */\n    tag_22:\n      tag_98\n      0x04\n      dup1\n      calldatasize\n      sub\n      0x20\n      dup2\n      lt\n      iszero\n      tag_99\n      jumpi\n      0x00\n      dup1\n      revert\n    tag_99:\n      dup2\n      add\n      swap1\n      dup1\n      dup1\n      calldataload\n      0xffffffffffffffffffffffffffffffffffffffff\n      and\n      swap1\n      0x20\n      add\n      swap1\n      swap3\n      swap2\n      swap1\n      pop\n      pop\n      pop\n      tag_100\n      jump\t// in\n    tag_98:\n      mload(0x40)\n      dup1\n      dup3\n      dup2\n      mstore\n      0x20\n      add\n      swap2\n      pop\n      pop\n      mload(0x40)\n      dup1\n      swap2\n      sub\n      swap1\n      return\n        /* \"Contract.sol\":36680:36762  function setUnpause() external whenNotPaused onlyOwner {... */\n    tag_23:\n      tag_101\n      tag_102\n      jump\t// in\n    tag_101:\n      stop\n        /* \"Contract.sol\":2145:2222  function owner() public view returns (address) {... */\n    tag_24:\n      tag_103\n      tag_104\n      jump\t// in\n    tag_103:\n      mload(0x40)\n      dup1\n      dup3\n      0xffffffffffffffffffffffffffffffffffffffff\n      and\n      dup2\n      mstore\n      0x20\n      add\n      swap2\n      pop\n      pop\n      mload(0x40)\n      dup1\n      swap2\n      sub\n      swap1\n      return\n        /* \"Contract.sol\":20253:20338  function symbol() public view returns (string memory) {... */\n    tag_25:\n      tag_105\n      tag_106\n      jump\t// in\n    tag_105:\n      mload(0x40)\n      dup1\n      dup1\n      0x20\n      add\n      dup3\n      dup2\n      sub\n      dup3\n      mstore\n      dup4\n      dup2\n      dup2\n      mload\n      dup2\n      mstore\n      0x20\n      add\n      swap2\n      pop\n      dup1\n      mload\n      swap1\n      0x20\n      add\n      swap1\n      dup1\n      dup4\n      dup4\n      0x00\n    tag_107:\n      dup4\n      dup2\n      lt\n      iszero\n      tag_109\n      jumpi\n      dup1\n      dup3\n      add\n      mload\n      dup2\n      dup5\n      add\n      mstore\n      0x20\n      dup2\n      add\n      swap1\n      pop\n      jump(tag_107)\n    tag_109:\n      pop\n      pop\n      pop\n      pop\n      swap1\n      pop\n      swap1\n      dup2\n      add\n      swap1\n      0x1f\n      and\n      dup1\n      iszero\n      tag_110\n      jumpi\n      dup1\n      dup3\n      sub\n      dup1\n      mload\n      0x01\n      dup4\n      0x20\n      sub\n      0x0100\n      exp\n      sub\n      not\n      and\n      dup2\n      mstore\n      0x20\n      add\n      swap2\n      pop\n    tag_110:\n      pop\n      swap3\n      pop\n      pop\n      pop\n      mload(0x40)\n      dup1\n      swap2\n      sub\n      swap1\n      return\n        /* \"Contract.sol\":24135:24401  function decreaseAllowance(address spender, uint256 subtractedValue) public virtual returns (bool) {... */\n    tag_26:\n      tag_111\n      0x04\n      dup1\n      calldatasize\n      sub\n      0x40\n      dup2\n      lt\n      iszero\n      tag_112\n      jumpi\n      0x00\n      dup1\n      revert\n    tag_112:\n      dup2\n      add\n      swap1\n      dup1\n      dup1\n      calldataload\n      0xffffffffffffffffffffffffffffffffffffffff\n      and\n      swap1\n      0x20\n      add\n      swap1\n      swap3\n      swap2\n      swap1\n      dup1\n      calldataload\n      swap1\n      0x20\n      add\n      swap1\n      swap3\n      swap2\n      swap1\n      pop\n      pop\n      pop\n      tag_113\n      jump\t// in\n    tag_111:\n      mload(0x40)\n      dup1\n      dup3\n      iszero\n      iszero\n      dup2\n      mstore\n      0x20\n      add\n      swap2\n      pop\n      pop\n      mload(0x40)\n      dup1\n      swap2\n      sub\n      swap1\n      return\n        /* \"Contract.sol\":35390:35781  function transfer(address _to, uint256 _value) public override onlyPayloadSize(2 * 32) whenNotPaused returns (bool) {... */\n    tag_27:\n      tag_114\n      0x04\n      dup1\n      calldatasize\n      sub\n      0x40\n      dup2\n      lt\n      iszero\n      tag_115\n      jumpi\n      0x00\n      dup1\n      revert\n    tag_115:\n      dup2\n      add\n      swap1\n      dup1\n      dup1\n      calldataload\n      0xffffffffffffffffffffffffffffffffffffffff\n      and\n      swap1\n      0x20\n      add\n      swap1\n      swap3\n      swap2\n      swap1\n      dup1\n      calldataload\n      swap1\n      0x20\n      add\n      swap1\n      swap3\n      swap2\n      swap1\n      pop\n      pop\n      pop\n      tag_116\n      jump\t// in\n    tag_114:\n      mload(0x40)\n      dup1\n      dup3\n      iszero\n      iszero\n      dup2\n      mstore\n      0x20\n      add\n      swap2\n      pop\n      pop\n      mload(0x40)\n      dup1\n      swap2\n      sub\n      swap1\n      return\n        /* \"Contract.sol\":38750:38967  function getCurrentVotes(address account) external view returns (uint) {... */\n    tag_28:\n      tag_117\n      0x04\n      dup1\n      calldatasize\n      sub\n      0x20\n      dup2\n      lt\n      iszero\n      tag_118\n      jumpi\n      0x00\n      dup1\n      revert\n    tag_118:\n      dup2\n      add\n      swap1\n      dup1\n      dup1\n      calldataload\n      0xffffffffffffffffffffffffffffffffffffffff\n      and\n      swap1\n      0x20\n      add\n      swap1\n      swap3\n      swap2\n      swap1\n      pop\n      pop\n      pop\n      tag_119\n      jump\t// in\n    tag_117:\n      mload(0x40)\n      dup1\n      dup3\n      dup2\n      mstore\n      0x20\n      add\n      swap2\n      pop\n      pop\n      mload(0x40)\n      dup1\n      swap2\n      sub\n      swap1\n      return\n        /* \"Contract.sol\":37769:38559  function delegateBySig(address delegatee, uint nonce, uint expiry, uint8 v, bytes32 r, bytes32 s) public {... */\n    tag_29:\n      tag_120\n      0x04\n      dup1\n      calldatasize\n      sub\n      0xc0\n      dup2\n      lt\n      iszero\n      tag_121\n      jumpi\n      0x00\n      dup1\n      revert\n    tag_121:\n      dup2\n      add\n      swap1\n      dup1\n      dup1\n      calldataload\n      0xffffffffffffffffffffffffffffffffffffffff\n      and\n      swap1\n      0x20\n      add\n      swap1\n      swap3\n      swap2\n      swap1\n      dup1\n      calldataload\n      swap1\n      0x20\n      add\n      swap1\n      swap3\n      swap2\n      swap1\n      dup1\n      calldataload\n      swap1\n      0x20\n      add\n      swap1\n      swap3\n      swap2\n      swap1\n      dup1\n      calldataload\n      0xff\n      and\n      swap1\n      0x20\n      add\n      swap1\n      swap3\n      swap2\n      swap1\n      dup1\n      calldataload\n      swap1\n      0x20\n      add\n      swap1\n      swap3\n      swap2\n      swap1\n      dup1\n      calldataload\n      swap1\n      0x20\n      add\n      swap1\n      swap3\n      swap2\n      swap1\n      pop\n      pop\n      pop\n      tag_122\n      jump\t// in\n    tag_120:\n      stop\n        /* \"Contract.sol\":36552:36630  function setPause() external whenNotPaused onlyOwner {... */\n    tag_30:\n      tag_123\n      tag_124\n      jump\t// in\n    tag_123:\n      stop\n        /* \"Contract.sol\":21808:21957  function allowance(address owner, address spender) public view virtual override returns (uint256) {... */\n    tag_31:\n      tag_125\n      0x04\n      dup1\n      calldatasize\n      sub\n      0x40\n      dup2\n      lt\n      iszero\n      tag_126\n      jumpi\n      0x00\n      dup1\n      revert\n    tag_126:\n      dup2\n      add\n      swap1\n      dup1\n      dup1\n      calldataload\n      0xffffffffffffffffffffffffffffffffffffffff\n      and\n      swap1\n      0x20\n      add\n      swap1\n      swap3\n      swap2\n      swap1\n      dup1\n      calldataload\n      0xffffffffffffffffffffffffffffffffffffffff\n      and\n      swap1\n      0x20\n      add\n      swap1\n      swap3\n      swap2\n      swap1\n      pop\n      pop\n      pop\n      tag_127\n      jump\t// in\n    tag_125:\n      mload(0x40)\n      dup1\n      dup3\n      dup2\n      mstore\n      0x20\n      add\n      swap2\n      pop\n      pop\n      mload(0x40)\n      dup1\n      swap2\n      sub\n      swap1\n      return\n        /* \"Contract.sol\":3377:3423  mapping (address => bool) public isBlackListed */\n    tag_32:\n      tag_128\n      0x04\n      dup1\n      calldatasize\n      sub\n      0x20\n      dup2\n      lt\n      iszero\n      tag_129\n      jumpi\n      0x00\n      dup1\n      revert\n    tag_129:\n      dup2\n      add\n      swap1\n      dup1\n      dup1\n      calldataload\n      0xffffffffffffffffffffffffffffffffffffffff\n      and\n      swap1\n      0x20\n      add\n      swap1\n      swap3\n      swap2\n      swap1\n      pop\n      pop\n      pop\n      tag_130\n      jump\t// in\n    tag_128:\n      mload(0x40)\n      dup1\n      dup3\n      iszero\n      iszero\n      dup2\n      mstore\n      0x20\n      add\n      swap2\n      pop\n      pop\n      mload(0x40)\n      dup1\n      swap2\n      sub\n      swap1\n      return\n        /* \"Contract.sol\":3787:3944  function removeBlackList (address _clearedUser) public onlyOwner {... */\n    tag_33:\n      tag_131\n      0x04\n      dup1\n      calldatasize\n      sub\n      0x20\n      dup2\n      lt\n      iszero\n      tag_132\n      jumpi\n      0x00\n      dup1\n      revert\n    tag_132:\n      dup2\n      add\n      swap1\n      dup1\n      dup1\n      calldataload\n      0xffffffffffffffffffffffffffffffffffffffff\n      and\n      swap1\n      0x20\n      add\n      swap1\n      swap3\n      swap2\n      swap1\n      pop\n      pop\n      pop\n      tag_133\n      jump\t// in\n    tag_131:\n      stop\n        /* \"Contract.sol\":33587:33704  bytes32 public constant DELEGATION_TYPEHASH = keccak256(\"Delegation(address delegatee,uint256 nonce,uint256 expiry)\") */\n    tag_34:\n      tag_134\n      tag_135\n      jump\t// in\n    tag_134:\n      mload(0x40)\n      dup1\n      dup3\n      dup2\n      mstore\n      0x20\n      add\n      swap2\n      pop\n      pop\n      mload(0x40)\n      dup1\n      swap2\n      sub\n      swap1\n      return\n        /* \"Contract.sol\":33128:33198  mapping (address => mapping (uint32 => Checkpoint)) public checkpoints */\n    tag_35:\n      tag_136\n      0x04\n      dup1\n      calldatasize\n      sub\n      0x40\n      dup2\n      lt\n      iszero\n      tag_137\n      jumpi\n      0x00\n      dup1\n      revert\n    tag_137:\n      dup2\n      add\n      swap1\n      dup1\n      dup1\n      calldataload\n      0xffffffffffffffffffffffffffffffffffffffff\n      and\n      swap1\n      0x20\n      add\n      swap1\n      swap3\n      swap2\n      swap1\n      dup1\n      calldataload\n      0xffffffff\n      and\n      swap1\n      0x20\n      add\n      swap1\n      swap3\n      swap2\n      swap1\n      pop\n      pop\n      pop\n      tag_138\n      jump\t// in\n    tag_136:\n      mload(0x40)\n      dup1\n      dup4\n      dup2\n      mstore\n      0x20\n      add\n      dup3\n      dup2\n      mstore\n      0x20\n      add\n      swap3\n      pop\n      pop\n      pop\n      mload(0x40)\n      dup1\n      swap2\n      sub\n      swap1\n      return\n        /* \"Contract.sol\":3062:3302  function transferOwnership(address newOwner) public virtual onlyOwner {... */\n    tag_36:\n      tag_139\n      0x04\n      dup1\n      calldatasize\n      sub\n      0x20\n      dup2\n      lt\n      iszero\n      tag_140\n      jumpi\n      0x00\n      dup1\n      revert\n    tag_140:\n      dup2\n      add\n      swap1\n      dup1\n      dup1\n      calldataload\n      0xffffffffffffffffffffffffffffffffffffffff\n      and\n      swap1\n      0x20\n      add\n      swap1\n      swap3\n      swap2\n      swap1\n      pop\n      pop\n      pop\n      tag_141\n      jump\t// in\n    tag_139:\n      stop\n        /* \"Contract.sol\":20059:20140  function name() public view returns (string memory) {... */\n    tag_45:\n        /* \"Contract.sol\":20096:20109  string memory */\n      0x60\n        /* \"Contract.sol\":20128:20133  _name */\n      0x03\n        /* \"Contract.sol\":20121:20133  return _name */\n      dup1\n      sload\n      0x01\n      dup2\n      0x01\n      and\n      iszero\n      0x0100\n      mul\n      sub\n      and\n      0x02\n      swap1\n      div\n      dup1\n      0x1f\n      add\n      0x20\n      dup1\n      swap2\n      div\n      mul\n      0x20\n      add\n      mload(0x40)\n      swap1\n      dup2\n      add\n      0x40\n      mstore\n      dup1\n      swap3\n      swap2\n      swap1\n      dup2\n      dup2\n      mstore\n      0x20\n      add\n      dup3\n      dup1\n      sload\n      0x01\n      dup2\n      0x01\n      and\n      iszero\n      0x0100\n      mul\n      sub\n      and\n      0x02\n      swap1\n      div\n      dup1\n      iszero\n      tag_146\n      jumpi\n      dup1\n      0x1f\n      lt\n      tag_147\n      jumpi\n      0x0100\n      dup1\n      dup4\n      sload\n      div\n      mul\n      dup4\n      mstore\n      swap2\n      0x20\n      add\n      swap2\n      jump(tag_146)\n    tag_147:\n      dup3\n      add\n      swap2\n      swap1\n      0x00\n      mstore\n      keccak256(0x00, 0x20)\n      swap1\n    tag_148:\n      dup2\n      sload\n      dup2\n      mstore\n      swap1\n      0x01\n      add\n      swap1\n      0x20\n      add\n      dup1\n      dup4\n      gt\n      tag_148\n      jumpi\n      dup3\n      swap1\n      sub\n      0x1f\n      and\n      dup3\n      add\n      swap2\n    tag_146:\n      pop\n      pop\n      pop\n      pop\n      pop\n      swap1\n      pop\n        /* \"Contract.sol\":20059:20140  function name() public view returns (string memory) {... */\n      swap1\n      jump\t// out\n        /* \"Contract.sol\":22095:22261  function approve(address spender, uint256 amount) public virtual override returns (bool) {... */\n    tag_52:\n        /* \"Contract.sol\":22178:22182  bool */\n      0x00\n        /* \"Contract.sol\":22194:22233  _approve(_msgSender(), spender, amount) */\n      tag_150\n        /* \"Contract.sol\":22203:22215  _msgSender() */\n      tag_151\n        /* \"Contract.sol\":22203:22213  _msgSender */\n      tag_152\n        /* \"Contract.sol\":22203:22215  _msgSender() */\n      jump\t// in\n    tag_151:\n        /* \"Contract.sol\":22217:22224  spender */\n      dup5\n        /* \"Contract.sol\":22226:22232  amount */\n      dup5\n        /* \"Contract.sol\":22194:22202  _approve */\n      tag_153\n        /* \"Contract.sol\":22194:22233  _approve(_msgSender(), spender, amount) */\n      jump\t// in\n    tag_150:\n        /* \"Contract.sol\":22250:22254  true */\n      0x01\n        /* \"Contract.sol\":22243:22254  return true */\n      swap1\n      pop\n        /* \"Contract.sol\":22095:22261  function approve(address spender, uint256 amount) public virtual override returns (bool) {... */\n      swap3\n      swap2\n      pop\n      pop\n      jump\t// out\n        /* \"Contract.sol\":3639:3781  function addBlackList (address _evilUser) public onlyOwner {... */\n    tag_55:\n        /* \"Contract.sol\":2359:2371  _msgSender() */\n      tag_155\n        /* \"Contract.sol\":2359:2369  _msgSender */\n      tag_152\n        /* \"Contract.sol\":2359:2371  _msgSender() */\n      jump\t// in\n    tag_155:\n        /* \"Contract.sol\":2349:2371  _owner == _msgSender() */\n      0xffffffffffffffffffffffffffffffffffffffff\n      and\n        /* \"Contract.sol\":2349:2355  _owner */\n      0x07\n      0x00\n      swap1\n      sload\n      swap1\n      0x0100\n      exp\n      swap1\n      div\n      0xffffffffffffffffffffffffffffffffffffffff\n      and\n        /* \"Contract.sol\":2349:2371  _owner == _msgSender() */\n      0xffffffffffffffffffffffffffffffffffffffff\n      and\n      eq\n        /* \"Contract.sol\":2341:2408  require(_owner == _msgSender(), \"Ownable: caller is not the owner\") */\n      tag_156\n      jumpi\n      mload(0x40)\n      0x08c379a000000000000000000000000000000000000000000000000000000000\n      dup2\n      mstore\n      0x04\n      add\n      dup1\n      dup1\n      0x20\n      add\n      dup3\n      dup2\n      sub\n      dup3\n      mstore\n      0x20\n      dup2\n      mstore\n      0x20\n      add\n      dup1\n      0x4f776e61626c653a2063616c6c6572206973206e6f7420746865206f776e6572\n      dup2\n      mstore\n      pop\n      0x20\n      add\n      swap2\n      pop\n      pop\n      mload(0x40)\n      dup1\n      swap2\n      sub\n      swap1\n      revert\n    tag_156:\n        /* \"Contract.sol\":3735:3739  true */\n      0x01\n        /* \"Contract.sol\":3708:3721  isBlackListed */\n      0x08\n        /* \"Contract.sol\":3708:3732  isBlackListed[_evilUser] */\n      0x00\n        /* \"Contract.sol\":3722:3731  _evilUser */\n      dup4\n        /* \"Contract.sol\":3708:3732  isBlackListed[_evilUser] */\n      0xffffffffffffffffffffffffffffffffffffffff\n      and\n      0xffffffffffffffffffffffffffffffffffffffff\n      and\n      dup2\n      mstore\n      0x20\n      add\n      swap1\n      dup2\n      mstore\n      0x20\n      add\n      0x00\n      keccak256\n      0x00\n        /* \"Contract.sol\":3708:3739  isBlackListed[_evilUser] = true */\n      0x0100\n      exp\n      dup2\n      sload\n      dup2\n      0xff\n      mul\n      not\n      and\n      swap1\n      dup4\n      iszero\n      iszero\n      mul\n      or\n      swap1\n      sstore\n      pop\n        /* \"Contract.sol\":3749:3774  AddedBlackList(_evilUser) */\n      0x42e160154868087d6bfdc0ca23d96a1c1cfa32f1b72ba9ba27b69b98a0d819dc\n        /* \"Contract.sol\":3764:3773  _evilUser */\n      dup2\n        /* \"Contract.sol\":3749:3774  AddedBlackList(_evilUser) */\n      mload(0x40)\n      dup1\n      dup3\n      0xffffffffffffffffffffffffffffffffffffffff\n      and\n      dup2\n      mstore\n      0x20\n      add\n      swap2\n      pop\n      pop\n      mload(0x40)\n      dup1\n      swap2\n      sub\n      swap1\n      log1\n        /* \"Contract.sol\":3639:3781  function addBlackList (address _evilUser) public onlyOwner {... */\n      pop\n      jump\t// out\n        /* \"Contract.sol\":21102:21200  function totalSupply() public view override returns (uint256) {... */\n    tag_57:\n        /* \"Contract.sol\":21155:21162  uint256 */\n      0x00\n        /* \"Contract.sol\":21181:21193  _totalSupply */\n      sload(0x02)\n        /* \"Contract.sol\":21174:21193  return _totalSupply */\n      swap1\n      pop\n        /* \"Contract.sol\":21102:21200  function totalSupply() public view override returns (uint256) {... */\n      swap1\n      jump\t// out\n        /* \"Contract.sol\":33377:33499  bytes32 public constant DOMAIN_TYPEHASH = keccak256(\"EIP712Domain(string name,uint256 chainId,address verifyingContract)\") */\n    tag_59:\n        /* \"Contract.sol\":33419:33499  keccak256(\"EIP712Domain(string name,uint256 chainId,address verifyingContract)\") */\n      0x8cad95687ba82c2ce50e74f7b754645e5117c3a5bec8151c0726d5857980a866\n        /* \"Contract.sol\":33377:33499  bytes32 public constant DOMAIN_TYPEHASH = keccak256(\"EIP712Domain(string name,uint256 chainId,address verifyingContract)\") */\n      dup2\n      jump\t// out\n        /* \"Contract.sol\":36092:36508  function transferFrom(address _from, address _to, uint _value) public override onlyPayloadSize(3 * 32) whenNotPaused returns (bool) {... */\n    tag_62:\n        /* \"Contract.sol\":36218:36222  bool */\n      0x00\n        /* \"Contract.sol\":36187:36193  3 * 32 */\n      0x60\n        /* \"Contract.sol\":34512:34513  4 */\n      0x04\n        /* \"Contract.sol\":34505:34509  size */\n      dup2\n        /* \"Contract.sol\":34505:34513  size + 4 */\n      add\n        /* \"Contract.sol\":34486:34494  msg.data */\n      0x00\n      calldatasize\n        /* \"Contract.sol\":34486:34501  msg.data.length */\n      swap1\n      pop\n        /* \"Contract.sol\":34486:34513  msg.data.length >= size + 4 */\n      lt\n      iszero\n        /* \"Contract.sol\":34478:34543  require(msg.data.length >= size + 4, \"Address type not allowed!\") */\n      tag_160\n      jumpi\n      mload(0x40)\n      0x08c379a000000000000000000000000000000000000000000000000000000000\n      dup2\n      mstore\n      0x04\n      add\n      dup1\n      dup1\n      0x20\n      add\n      dup3\n      dup2\n      sub\n      dup3\n      mstore\n      0x19\n      dup2\n      mstore\n      0x20\n      add\n      dup1\n      0x416464726573732074797065206e6f7420616c6c6f7765642100000000000000\n      dup2\n      mstore\n      pop\n      0x20\n      add\n      swap2\n      pop\n      pop\n      mload(0x40)\n      dup1\n      swap2\n      sub\n      swap1\n      revert\n    tag_160:\n        /* \"Contract.sol\":29957:29964  _paused */\n      0x07\n      0x14\n      swap1\n      sload\n      swap1\n      0x0100\n      exp\n      swap1\n      div\n      0xff\n      and\n        /* \"Contract.sol\":29956:29964  !_paused */\n      iszero\n        /* \"Contract.sol\":29948:29985  require(!_paused, \"Pausable: paused\") */\n      tag_162\n      jumpi\n      mload(0x40)\n      0x08c379a000000000000000000000000000000000000000000000000000000000\n      dup2\n      mstore\n      0x04\n      add\n      dup1\n      dup1\n      0x20\n      add\n      dup3\n      dup2\n      sub\n      dup3\n      mstore\n      0x10\n      dup2\n      mstore\n      0x20\n      add\n      dup1\n      0x5061757361626c653a2070617573656400000000000000000000000000000000\n      dup2\n      mstore\n      pop\n      0x20\n      add\n      swap2\n      pop\n      pop\n      mload(0x40)\n      dup1\n      swap2\n      sub\n      swap1\n      revert\n    tag_162:\n        /* \"Contract.sol\":36243:36256  isBlackListed */\n      0x08\n        /* \"Contract.sol\":36243:36263  isBlackListed[_from] */\n      0x00\n        /* \"Contract.sol\":36257:36262  _from */\n      dup7\n        /* \"Contract.sol\":36243:36263  isBlackListed[_from] */\n      0xffffffffffffffffffffffffffffffffffffffff\n      and\n      0xffffffffffffffffffffffffffffffffffffffff\n      and\n      dup2\n      mstore\n      0x20\n      add\n      swap1\n      dup2\n      mstore\n      0x20\n      add\n      0x00\n      keccak256\n      0x00\n      swap1\n      sload\n      swap1\n      0x0100\n      exp\n      swap1\n      div\n      0xff\n      and\n        /* \"Contract.sol\":36242:36263  !isBlackListed[_from] */\n      iszero\n        /* \"Contract.sol\":36234:36304  require(!isBlackListed[_from], \"TransferFrom - Sender is blacklisted\") */\n      tag_164\n      jumpi\n      mload(0x40)\n      0x08c379a000000000000000000000000000000000000000000000000000000000\n      dup2\n      mstore\n      0x04\n      add\n      dup1\n      dup1\n      0x20\n      add\n      dup3\n      dup2\n      sub\n      dup3\n      mstore\n      0x24\n      dup2\n      mstore\n      0x20\n      add\n      dup1\n      data_8984d367e2704da78941e58a8a62bd9fddd40a3a2c84662f2309576e4a741076\n      0x24\n      swap2\n      codecopy\n      0x40\n      add\n      swap2\n      pop\n      pop\n      mload(0x40)\n      dup1\n      swap2\n      sub\n      swap1\n      revert\n    tag_164:\n        /* \"Contract.sol\":36323:36336  isBlackListed */\n      0x08\n        /* \"Contract.sol\":36323:36341  isBlackListed[_to] */\n      0x00\n        /* \"Contract.sol\":36337:36340  _to */\n      dup6\n        /* \"Contract.sol\":36323:36341  isBlackListed[_to] */\n      0xffffffffffffffffffffffffffffffffffffffff\n      and\n      0xffffffffffffffffffffffffffffffffffffffff\n      and\n      dup2\n      mstore\n      0x20\n      add\n      swap1\n      dup2\n      mstore\n      0x20\n      add\n      0x00\n      keccak256\n      0x00\n      swap1\n      sload\n      swap1\n      0x0100\n      exp\n      swap1\n      div\n      0xff\n      and\n        /* \"Contract.sol\":36322:36341  !isBlackListed[_to] */\n      iszero\n        /* \"Contract.sol\":36314:36385  require(!isBlackListed[_to], \"TransferFrom - Recipient is blacklisted\") */\n      tag_165\n      jumpi\n      mload(0x40)\n      0x08c379a000000000000000000000000000000000000000000000000000000000\n      dup2\n      mstore\n      0x04\n      add\n      dup1\n      dup1\n      0x20\n      add\n      dup3\n      dup2\n      sub\n      dup3\n      mstore\n      0x27\n      dup2\n      mstore\n      0x20\n      add\n      dup1\n      data_2e2e13840b5b21c495172810ddd7cab32cabe3b60cf324537af2f4ed770cc46e\n      0x27\n      swap2\n      codecopy\n      0x40\n      add\n      swap2\n      pop\n      pop\n      mload(0x40)\n      dup1\n      swap2\n      sub\n      swap1\n      revert\n    tag_165:\n        /* \"Contract.sol\":36395:36433  super.transferFrom(_from, _to, _value) */\n      tag_166\n        /* \"Contract.sol\":36414:36419  _from */\n      dup6\n        /* \"Contract.sol\":36421:36424  _to */\n      dup6\n        /* \"Contract.sol\":36426:36432  _value */\n      dup6\n        /* \"Contract.sol\":36395:36413  super.transferFrom */\n      tag_167\n        /* \"Contract.sol\":36395:36433  super.transferFrom(_from, _to, _value) */\n      jump\t// in\n    tag_166:\n      pop\n        /* \"Contract.sol\":36443:36501  _moveDelegates(_delegates[_from], _delegates[_to], _value) */\n      tag_168\n        /* \"Contract.sol\":36458:36468  _delegates */\n      0x09\n        /* \"Contract.sol\":36458:36475  _delegates[_from] */\n      0x00\n        /* \"Contract.sol\":36469:36474  _from */\n      dup8\n        /* \"Contract.sol\":36458:36475  _delegates[_from] */\n      0xffffffffffffffffffffffffffffffffffffffff\n      and\n      0xffffffffffffffffffffffffffffffffffffffff\n      and\n      dup2\n      mstore\n      0x20\n      add\n      swap1\n      dup2\n      mstore\n      0x20\n      add\n      0x00\n      keccak256\n      0x00\n      swap1\n      sload\n      swap1\n      0x0100\n      exp\n      swap1\n      div\n      0xffffffffffffffffffffffffffffffffffffffff\n      and\n        /* \"Contract.sol\":36477:36487  _delegates */\n      0x09\n        /* \"Contract.sol\":36477:36492  _delegates[_to] */\n      0x00\n        /* \"Contract.sol\":36488:36491  _to */\n      dup8\n        /* \"Contract.sol\":36477:36492  _delegates[_to] */\n      0xffffffffffffffffffffffffffffffffffffffff\n      and\n      0xffffffffffffffffffffffffffffffffffffffff\n      and\n      dup2\n      mstore\n      0x20\n      add\n      swap1\n      dup2\n      mstore\n      0x20\n      add\n      0x00\n      keccak256\n      0x00\n      swap1\n      sload\n      swap1\n      0x0100\n      exp\n      swap1\n      div\n      0xffffffffffffffffffffffffffffffffffffffff\n      and\n        /* \"Contract.sol\":36494:36500  _value */\n      dup6\n        /* \"Contract.sol\":36443:36457  _moveDelegates */\n      tag_169\n        /* \"Contract.sol\":36443:36501  _moveDelegates(_delegates[_from], _delegates[_to], _value) */\n      jump\t// in\n    tag_168:\n        /* \"Contract.sol\":36092:36508  function transferFrom(address _from, address _to, uint _value) public override onlyPayloadSize(3 * 32) whenNotPaused returns (bool) {... */\n      pop\n      swap4\n      swap3\n      pop\n      pop\n      pop\n      jump\t// out\n        /* \"Contract.sol\":20961:21042  function decimals() public view returns (uint8) {... */\n    tag_64:\n        /* \"Contract.sol\":21002:21007  uint8 */\n      0x00\n        /* \"Contract.sol\":21026:21035  _decimals */\n      0x05\n      0x00\n      swap1\n      sload\n      swap1\n      0x0100\n      exp\n      swap1\n      div\n      0xff\n      and\n        /* \"Contract.sol\":21019:21035  return _decimals */\n      swap1\n      pop\n        /* \"Contract.sol\":20961:21042  function decimals() public view returns (uint8) {... */\n      swap1\n      jump\t// out\n        /* \"Contract.sol\":32078:32151  function cap() public view returns (uint256) {... */\n    tag_66:\n        /* \"Contract.sol\":32114:32121  uint256 */\n      0x00\n        /* \"Contract.sol\":32140:32144  _cap */\n      sload(0x06)\n        /* \"Contract.sol\":32133:32144  return _cap */\n      swap1\n      pop\n        /* \"Contract.sol\":32078:32151  function cap() public view returns (uint256) {... */\n      swap1\n      jump\t// out\n        /* \"Contract.sol\":23433:23648  function increaseAllowance(address spender, uint256 addedValue) public virtual returns (bool) {... */\n    tag_69:\n        /* \"Contract.sol\":23521:23525  bool */\n      0x00\n        /* \"Contract.sol\":23537:23620  _approve(_msgSender(), spender, _allowances[_msgSender()][spender].add(addedValue)) */\n      tag_173\n        /* \"Contract.sol\":23546:23558  _msgSender() */\n      tag_174\n        /* \"Contract.sol\":23546:23556  _msgSender */\n      tag_152\n        /* \"Contract.sol\":23546:23558  _msgSender() */\n      jump\t// in\n    tag_174:\n        /* \"Contract.sol\":23560:23567  spender */\n      dup5\n        /* \"Contract.sol\":23569:23619  _allowances[_msgSender()][spender].add(addedValue) */\n      tag_175\n        /* \"Contract.sol\":23608:23618  addedValue */\n      dup6\n        /* \"Contract.sol\":23569:23580  _allowances */\n      0x01\n        /* \"Contract.sol\":23569:23594  _allowances[_msgSender()] */\n      0x00\n        /* \"Contract.sol\":23581:23593  _msgSender() */\n      tag_176\n        /* \"Contract.sol\":23581:23591  _msgSender */\n      tag_152\n        /* \"Contract.sol\":23581:23593  _msgSender() */\n      jump\t// in\n    tag_176:\n        /* \"Contract.sol\":23569:23594  _allowances[_msgSender()] */\n      0xffffffffffffffffffffffffffffffffffffffff\n      and\n      0xffffffffffffffffffffffffffffffffffffffff\n      and\n      dup2\n      mstore\n      0x20\n      add\n      swap1\n      dup2\n      mstore\n      0x20\n      add\n      0x00\n      keccak256\n        /* \"Contract.sol\":23569:23603  _allowances[_msgSender()][spender] */\n      0x00\n        /* \"Contract.sol\":23595:23602  spender */\n      dup10\n        /* \"Contract.sol\":23569:23603  _allowances[_msgSender()][spender] */\n      0xffffffffffffffffffffffffffffffffffffffff\n      and\n      0xffffffffffffffffffffffffffffffffffffffff\n      and\n      dup2\n      mstore\n      0x20\n      add\n      swap1\n      dup2\n      mstore\n      0x20\n      add\n      0x00\n      keccak256\n      sload\n        /* \"Contract.sol\":23569:23607  _allowances[_msgSender()][spender].add */\n      tag_142\n      swap1\n        /* \"Contract.sol\":23569:23619  _allowances[_msgSender()][spender].add(addedValue) */\n      swap2\n      swap1\n      0xffffffff\n      and\n      jump\t// in\n    tag_175:\n        /* \"Contract.sol\":23537:23545  _approve */\n      tag_153\n        /* \"Contract.sol\":23537:23620  _approve(_msgSender(), spender, _allowances[_msgSender()][spender].add(addedValue)) */\n      jump\t// in\n    tag_173:\n        /* \"Contract.sol\":23637:23641  true */\n      0x01\n        /* \"Contract.sol\":23630:23641  return true */\n      swap1\n      pop\n        /* \"Contract.sol\":23433:23648  function increaseAllowance(address spender, uint256 addedValue) public virtual returns (bool) {... */\n      swap3\n      swap2\n      pop\n      pop\n      jump\t// out\n        /* \"Contract.sol\":34704:34974  function mint(address recipient, uint _mintVal) public onlyOwner whenNotPaused {... */\n    tag_72:\n        /* \"Contract.sol\":2359:2371  _msgSender() */\n      tag_178\n        /* \"Contract.sol\":2359:2369  _msgSender */\n      tag_152\n        /* \"Contract.sol\":2359:2371  _msgSender() */\n      jump\t// in\n    tag_178:\n        /* \"Contract.sol\":2349:2371  _owner == _msgSender() */\n      0xffffffffffffffffffffffffffffffffffffffff\n      and\n        /* \"Contract.sol\":2349:2355  _owner */\n      0x07\n      0x00\n      swap1\n      sload\n      swap1\n      0x0100\n      exp\n      swap1\n      div\n      0xffffffffffffffffffffffffffffffffffffffff\n      and\n        /* \"Contract.sol\":2349:2371  _owner == _msgSender() */\n      0xffffffffffffffffffffffffffffffffffffffff\n      and\n      eq\n        /* \"Contract.sol\":2341:2408  require(_owner == _msgSender(), \"Ownable: caller is not the owner\") */\n      tag_179\n      jumpi\n      mload(0x40)\n      0x08c379a000000000000000000000000000000000000000000000000000000000\n      dup2\n      mstore\n      0x04\n      add\n      dup1\n      dup1\n      0x20\n      add\n      dup3\n      dup2\n      sub\n      dup3\n      mstore\n      0x20\n      dup2\n      mstore\n      0x20\n      add\n      dup1\n      0x4f776e61626c653a2063616c6c6572206973206e6f7420746865206f776e6572\n      dup2\n      mstore\n      pop\n      0x20\n      add\n      swap2\n      pop\n      pop\n      mload(0x40)\n      dup1\n      swap2\n      sub\n      swap1\n      revert\n    tag_179:\n        /* \"Contract.sol\":29957:29964  _paused */\n      0x07\n      0x14\n      swap1\n      sload\n      swap1\n      0x0100\n      exp\n      swap1\n      div\n      0xff\n      and\n        /* \"Contract.sol\":29956:29964  !_paused */\n      iszero\n        /* \"Contract.sol\":29948:29985  require(!_paused, \"Pausable: paused\") */\n      tag_181\n      jumpi\n      mload(0x40)\n      0x08c379a000000000000000000000000000000000000000000000000000000000\n      dup2\n      mstore\n      0x04\n      add\n      dup1\n      dup1\n      0x20\n      add\n      dup3\n      dup2\n      sub\n      dup3\n      mstore\n      0x10\n      dup2\n      mstore\n      0x20\n      add\n      dup1\n      0x5061757361626c653a2070617573656400000000000000000000000000000000\n      dup2\n      mstore\n      pop\n      0x20\n      add\n      swap2\n      pop\n      pop\n      mload(0x40)\n      dup1\n      swap2\n      sub\n      swap1\n      revert\n    tag_181:\n        /* \"Contract.sol\":34802:34815  isBlackListed */\n      0x08\n        /* \"Contract.sol\":34802:34826  isBlackListed[recipient] */\n      0x00\n        /* \"Contract.sol\":34816:34825  recipient */\n      dup4\n        /* \"Contract.sol\":34802:34826  isBlackListed[recipient] */\n      0xffffffffffffffffffffffffffffffffffffffff\n      and\n      0xffffffffffffffffffffffffffffffffffffffff\n      and\n      dup2\n      mstore\n      0x20\n      add\n      swap1\n      dup2\n      mstore\n      0x20\n      add\n      0x00\n      keccak256\n      0x00\n      swap1\n      sload\n      swap1\n      0x0100\n      exp\n      swap1\n      div\n      0xff\n      and\n        /* \"Contract.sol\":34801:34826  !isBlackListed[recipient] */\n      iszero\n        /* \"Contract.sol\":34793:34862  require(!isBlackListed[recipient], \"Mint - Recipient is blacklisted\") */\n      tag_183\n      jumpi\n      mload(0x40)\n      0x08c379a000000000000000000000000000000000000000000000000000000000\n      dup2\n      mstore\n      0x04\n      add\n      dup1\n      dup1\n      0x20\n      add\n      dup3\n      dup2\n      sub\n      dup3\n      mstore\n      0x1f\n      dup2\n      mstore\n      0x20\n      add\n      dup1\n      0x4d696e74202d20526563697069656e7420697320626c61636b6c697374656400\n      dup2\n      mstore\n      pop\n      0x20\n      add\n      swap2\n      pop\n      pop\n      mload(0x40)\n      dup1\n      swap2\n      sub\n      swap1\n      revert\n    tag_183:\n        /* \"Contract.sol\":34872:34898  _mint(recipient, _mintVal) */\n      tag_184\n        /* \"Contract.sol\":34878:34887  recipient */\n      dup3\n        /* \"Contract.sol\":34889:34897  _mintVal */\n      dup3\n        /* \"Contract.sol\":34872:34877  _mint */\n      tag_185\n        /* \"Contract.sol\":34872:34898  _mint(recipient, _mintVal) */\n      jump\t// in\n    tag_184:\n        /* \"Contract.sol\":34908:34967  _moveDelegates(address(0), _delegates[recipient], _mintVal) */\n      tag_186\n        /* \"Contract.sol\":34931:34932  0 */\n      0x00\n        /* \"Contract.sol\":34935:34945  _delegates */\n      0x09\n        /* \"Contract.sol\":34935:34956  _delegates[recipient] */\n      0x00\n        /* \"Contract.sol\":34946:34955  recipient */\n      dup6\n        /* \"Contract.sol\":34935:34956  _delegates[recipient] */\n      0xffffffffffffffffffffffffffffffffffffffff\n      and\n      0xffffffffffffffffffffffffffffffffffffffff\n      and\n      dup2\n      mstore\n      0x20\n      add\n      swap1\n      dup2\n      mstore\n      0x20\n      add\n      0x00\n      keccak256\n      0x00\n      swap1\n      sload\n      swap1\n      0x0100\n      exp\n      swap1\n      div\n      0xffffffffffffffffffffffffffffffffffffffff\n      and\n        /* \"Contract.sol\":34958:34966  _mintVal */\n      dup4\n        /* \"Contract.sol\":34908:34922  _moveDelegates */\n      tag_169\n        /* \"Contract.sol\":34908:34967  _moveDelegates(address(0), _delegates[recipient], _mintVal) */\n      jump\t// in\n    tag_186:\n        /* \"Contract.sol\":34704:34974  function mint(address recipient, uint _mintVal) public onlyOwner whenNotPaused {... */\n      pop\n      pop\n      jump\t// out\n        /* \"Contract.sol\":35059:35153  function burn(uint _burnVal) public whenNotPaused {... */\n    tag_75:\n        /* \"Contract.sol\":29957:29964  _paused */\n      0x07\n      0x14\n      swap1\n      sload\n      swap1\n      0x0100\n      exp\n      swap1\n      div\n      0xff\n      and\n        /* \"Contract.sol\":29956:29964  !_paused */\n      iszero\n        /* \"Contract.sol\":29948:29985  require(!_paused, \"Pausable: paused\") */\n      tag_188\n      jumpi\n      mload(0x40)\n      0x08c379a000000000000000000000000000000000000000000000000000000000\n      dup2\n      mstore\n      0x04\n      add\n      dup1\n      dup1\n      0x20\n      add\n      dup3\n      dup2\n      sub\n      dup3\n      mstore\n      0x10\n      dup2\n      mstore\n      0x20\n      add\n      dup1\n      0x5061757361626c653a2070617573656400000000000000000000000000000000\n      dup2\n      mstore\n      pop\n      0x20\n      add\n      swap2\n      pop\n      pop\n      mload(0x40)\n      dup1\n      swap2\n      sub\n      swap1\n      revert\n    tag_188:\n        /* \"Contract.sol\":35119:35146  _burn(msg.sender, _burnVal) */\n      tag_190\n        /* \"Contract.sol\":35125:35135  msg.sender */\n      caller\n        /* \"Contract.sol\":35137:35145  _burnVal */\n      dup3\n        /* \"Contract.sol\":35119:35124  _burn */\n      tag_191\n        /* \"Contract.sol\":35119:35146  _burn(msg.sender, _burnVal) */\n      jump\t// in\n    tag_190:\n        /* \"Contract.sol\":35059:35153  function burn(uint _burnVal) public whenNotPaused {... */\n      pop\n      jump\t// out\n        /* \"Contract.sol\":36995:37110  function delegates(address delegator) external view returns (address) {... */\n    tag_78:\n        /* \"Contract.sol\":37056:37063  address */\n      0x00\n        /* \"Contract.sol\":37082:37092  _delegates */\n      0x09\n        /* \"Contract.sol\":37082:37103  _delegates[delegator] */\n      0x00\n        /* \"Contract.sol\":37093:37102  delegator */\n      dup4\n        /* \"Contract.sol\":37082:37103  _delegates[delegator] */\n      0xffffffffffffffffffffffffffffffffffffffff\n      and\n      0xffffffffffffffffffffffffffffffffffffffff\n      and\n      dup2\n      mstore\n      0x20\n      add\n      swap1\n      dup2\n      mstore\n      0x20\n      add\n      0x00\n      keccak256\n      0x00\n      swap1\n      sload\n      swap1\n      0x0100\n      exp\n      swap1\n      div\n      0xffffffffffffffffffffffffffffffffffffffff\n      and\n        /* \"Contract.sol\":37075:37103  return _delegates[delegator] */\n      swap1\n      pop\n        /* \"Contract.sol\":36995:37110  function delegates(address delegator) external view returns (address) {... */\n      swap2\n      swap1\n      pop\n      jump\t// out\n        /* \"Contract.sol\":3515:3633  function getBlackListStatus(address _maker) external view returns (bool) {... */\n    tag_81:\n        /* \"Contract.sol\":3582:3586  bool */\n      0x00\n        /* \"Contract.sol\":3605:3618  isBlackListed */\n      0x08\n        /* \"Contract.sol\":3605:3626  isBlackListed[_maker] */\n      0x00\n        /* \"Contract.sol\":3619:3625  _maker */\n      dup4\n        /* \"Contract.sol\":3605:3626  isBlackListed[_maker] */\n      0xffffffffffffffffffffffffffffffffffffffff\n      and\n      0xffffffffffffffffffffffffffffffffffffffff\n      and\n      dup2\n      mstore\n      0x20\n      add\n      swap1\n      dup2\n      mstore\n      0x20\n      add\n      0x00\n      keccak256\n      0x00\n      swap1\n      sload\n      swap1\n      0x0100\n      exp\n      swap1\n      div\n      0xff\n      and\n        /* \"Contract.sol\":3598:3626  return isBlackListed[_maker] */\n      swap1\n      pop\n        /* \"Contract.sol\":3515:3633  function getBlackListStatus(address _maker) external view returns (bool) {... */\n      swap2\n      swap1\n      pop\n      jump\t// out\n        /* \"Contract.sol\":37249:37349  function delegate(address delegatee) public {... */\n    tag_84:\n        /* \"Contract.sol\":37310:37342  _delegate(msg.sender, delegatee) */\n      tag_195\n        /* \"Contract.sol\":37320:37330  msg.sender */\n      caller\n        /* \"Contract.sol\":37332:37341  delegatee */\n      dup3\n        /* \"Contract.sol\":37310:37319  _delegate */\n      tag_196\n        /* \"Contract.sol\":37310:37342  _delegate(msg.sender, delegatee) */\n      jump\t// in\n    tag_195:\n        /* \"Contract.sol\":37249:37349  function delegate(address delegatee) public {... */\n      pop\n      jump\t// out\n        /* \"Contract.sol\":29651:29727  function paused() public view returns (bool) {... */\n    tag_86:\n        /* \"Contract.sol\":29690:29694  bool */\n      0x00\n        /* \"Contract.sol\":29713:29720  _paused */\n      0x07\n      0x14\n      swap1\n      sload\n      swap1\n      0x0100\n      exp\n      swap1\n      div\n      0xff\n      and\n        /* \"Contract.sol\":29706:29720  return _paused */\n      swap1\n      pop\n        /* \"Contract.sol\":29651:29727  function paused() public view returns (bool) {... */\n      swap1\n      jump\t// out\n        /* \"Contract.sol\":33261:33310  mapping (address => uint32) public numCheckpoints */\n    tag_89:\n      mstore(0x20, 0x0b)\n      dup1\n      0x00\n      mstore\n      keccak256(0x00, 0x40)\n      0x00\n      swap2\n      pop\n      sload\n      swap1\n      0x0100\n      exp\n      swap1\n      div\n      0xffffffff\n      and\n      dup2\n      jump\t// out\n        /* \"Contract.sol\":21258:21375  function balanceOf(address account) public view override returns (uint256) {... */\n    tag_92:\n        /* \"Contract.sol\":21324:21331  uint256 */\n      0x00\n        /* \"Contract.sol\":21350:21359  _balances */\n      dup1\n        /* \"Contract.sol\":21350:21368  _balances[account] */\n      0x00\n        /* \"Contract.sol\":21360:21367  account */\n      dup4\n        /* \"Contract.sol\":21350:21368  _balances[account] */\n      0xffffffffffffffffffffffffffffffffffffffff\n      and\n      0xffffffffffffffffffffffffffffffffffffffff\n      and\n      dup2\n      mstore\n      0x20\n      add\n      swap1\n      dup2\n      mstore\n      0x20\n      add\n      0x00\n      keccak256\n      sload\n        /* \"Contract.sol\":21343:21368  return _balances[account] */\n      swap1\n      pop\n        /* \"Contract.sol\":21258:21375  function balanceOf(address account) public view override returns (uint256) {... */\n      swap2\n      swap1\n      pop\n      jump\t// out\n        /* \"Contract.sol\":2768:2913  function renounceOwnership() public virtual onlyOwner {... */\n    tag_94:\n        /* \"Contract.sol\":2359:2371  _msgSender() */\n      tag_200\n        /* \"Contract.sol\":2359:2369  _msgSender */\n      tag_152\n        /* \"Contract.sol\":2359:2371  _msgSender() */\n      jump\t// in\n    tag_200:\n        /* \"Contract.sol\":2349:2371  _owner == _msgSender() */\n      0xffffffffffffffffffffffffffffffffffffffff\n      and\n        /* \"Contract.sol\":2349:2355  _owner */\n      0x07\n      0x00\n      swap1\n      sload\n      swap1\n      0x0100\n      exp\n      swap1\n      div\n      0xffffffffffffffffffffffffffffffffffffffff\n      and\n        /* \"Contract.sol\":2349:2371  _owner == _msgSender() */\n      0xffffffffffffffffffffffffffffffffffffffff\n      and\n      eq\n        /* \"Contract.sol\":2341:2408  require(_owner == _msgSender(), \"Ownable: caller is not the owner\") */\n      tag_201\n      jumpi\n      mload(0x40)\n      0x08c379a000000000000000000000000000000000000000000000000000000000\n      dup2\n      mstore\n      0x04\n      add\n      dup1\n      dup1\n      0x20\n      add\n      dup3\n      dup2\n      sub\n      dup3\n      mstore\n      0x20\n      dup2\n      mstore\n      0x20\n      add\n      dup1\n      0x4f776e61626c653a2063616c6c6572206973206e6f7420746865206f776e6572\n      dup2\n      mstore\n      pop\n      0x20\n      add\n      swap2\n      pop\n      pop\n      mload(0x40)\n      dup1\n      swap2\n      sub\n      swap1\n      revert\n    tag_201:\n        /* \"Contract.sol\":2874:2875  0 */\n      0x00\n        /* \"Contract.sol\":2837:2877  OwnershipTransferred(_owner, address(0)) */\n      0xffffffffffffffffffffffffffffffffffffffff\n      and\n        /* \"Contract.sol\":2858:2864  _owner */\n      0x07\n      0x00\n      swap1\n      sload\n      swap1\n      0x0100\n      exp\n      swap1\n      div\n      0xffffffffffffffffffffffffffffffffffffffff\n      and\n        /* \"Contract.sol\":2837:2877  OwnershipTransferred(_owner, address(0)) */\n      0xffffffffffffffffffffffffffffffffffffffff\n      and\n      0x8be0079c531659141344cd1fd0a4f28419497f9722a3daafe3b4186f6b6457e0\n      mload(0x40)\n      mload(0x40)\n      dup1\n      swap2\n      sub\n      swap1\n      log3\n        /* \"Contract.sol\":2904:2905  0 */\n      0x00\n        /* \"Contract.sol\":2887:2893  _owner */\n      0x07\n      0x00\n        /* \"Contract.sol\":2887:2906  _owner = address(0) */\n      0x0100\n      exp\n      dup2\n      sload\n      dup2\n      0xffffffffffffffffffffffffffffffffffffffff\n      mul\n      not\n      and\n      swap1\n      dup4\n      0xffffffffffffffffffffffffffffffffffffffff\n      and\n      mul\n      or\n      swap1\n      sstore\n      pop\n        /* \"Contract.sol\":2768:2913  function renounceOwnership() public virtual onlyOwner {... */\n      jump\t// out\n        /* \"Contract.sol\":39386:40570  function getPriorVotes(address account, uint blockNumber) public view returns (uint) {... */\n    tag_97:\n        /* \"Contract.sol\":39465:39469  uint */\n      0x00\n        /* \"Contract.sol\":39503:39515  block.number */\n      number\n        /* \"Contract.sol\":39489:39500  blockNumber */\n      dup3\n        /* \"Contract.sol\":39489:39515  blockNumber < block.number */\n      lt\n        /* \"Contract.sol\":39481:39559  require(blockNumber < block.number, \"Comp::getPriorVotes: not yet determined\") */\n      tag_204\n      jumpi\n      mload(0x40)\n      0x08c379a000000000000000000000000000000000000000000000000000000000\n      dup2\n      mstore\n      0x04\n      add\n      dup1\n      dup1\n      0x20\n      add\n      dup3\n      dup2\n      sub\n      dup3\n      mstore\n      0x27\n      dup2\n      mstore\n      0x20\n      add\n      dup1\n      data_49387db7fef935f0f28be8b61df0527ef3c11db5acad132a74e4fb5d480e55d0\n      0x27\n      swap2\n      codecopy\n      0x40\n      add\n      swap2\n      pop\n      pop\n      mload(0x40)\n      dup1\n      swap2\n      sub\n      swap1\n      revert\n    tag_204:\n        /* \"Contract.sol\":39570:39589  uint32 nCheckpoints */\n      0x00\n        /* \"Contract.sol\":39592:39606  numCheckpoints */\n      0x0b\n        /* \"Contract.sol\":39592:39615  numCheckpoints[account] */\n      0x00\n        /* \"Contract.sol\":39607:39614  account */\n      dup6\n        /* \"Contract.sol\":39592:39615  numCheckpoints[account] */\n      0xffffffffffffffffffffffffffffffffffffffff\n      and\n      0xffffffffffffffffffffffffffffffffffffffff\n      and\n      dup2\n      mstore\n      0x20\n      add\n      swap1\n      dup2\n      mstore\n      0x20\n      add\n      0x00\n      keccak256\n      0x00\n      swap1\n      sload\n      swap1\n      0x0100\n      exp\n      swap1\n      div\n      0xffffffff\n      and\n        /* \"Contract.sol\":39570:39615  uint32 nCheckpoints = numCheckpoints[account] */\n      swap1\n      pop\n        /* \"Contract.sol\":39645:39646  0 */\n      0x00\n        /* \"Contract.sol\":39629:39641  nCheckpoints */\n      dup2\n        /* \"Contract.sol\":39629:39646  nCheckpoints == 0 */\n      0xffffffff\n      and\n      eq\n        /* \"Contract.sol\":39625:39681  if (nCheckpoints == 0) {... */\n      iszero\n      tag_205\n      jumpi\n        /* \"Contract.sol\":39669:39670  0 */\n      0x00\n        /* \"Contract.sol\":39662:39670  return 0 */\n      swap2\n      pop\n      pop\n      jump(tag_203)\n        /* \"Contract.sol\":39625:39681  if (nCheckpoints == 0) {... */\n    tag_205:\n        /* \"Contract.sol\":39790:39801  blockNumber */\n      dup3\n        /* \"Contract.sol\":39738:39749  checkpoints */\n      0x0a\n        /* \"Contract.sol\":39738:39758  checkpoints[account] */\n      0x00\n        /* \"Contract.sol\":39750:39757  account */\n      dup7\n        /* \"Contract.sol\":39738:39758  checkpoints[account] */\n      0xffffffffffffffffffffffffffffffffffffffff\n      and\n      0xffffffffffffffffffffffffffffffffffffffff\n      and\n      dup2\n      mstore\n      0x20\n      add\n      swap1\n      dup2\n      mstore\n      0x20\n      add\n      0x00\n      keccak256\n        /* \"Contract.sol\":39738:39776  checkpoints[account][nCheckpoints - 1] */\n      0x00\n        /* \"Contract.sol\":39774:39775  1 */\n      0x01\n        /* \"Contract.sol\":39759:39771  nCheckpoints */\n      dup5\n        /* \"Contract.sol\":39759:39775  nCheckpoints - 1 */\n      sub\n        /* \"Contract.sol\":39738:39776  checkpoints[account][nCheckpoints - 1] */\n      0xffffffff\n      and\n      0xffffffff\n      and\n      dup2\n      mstore\n      0x20\n      add\n      swap1\n      dup2\n      mstore\n      0x20\n      add\n      0x00\n      keccak256\n        /* \"Contract.sol\":39738:39786  checkpoints[account][nCheckpoints - 1].fromBlock */\n      0x00\n      add\n      sload\n        /* \"Contract.sol\":39738:39801  checkpoints[account][nCheckpoints - 1].fromBlock <= blockNumber */\n      gt\n        /* \"Contract.sol\":39734:39879  if (checkpoints[account][nCheckpoints - 1].fromBlock <= blockNumber) {... */\n      tag_206\n      jumpi\n        /* \"Contract.sol\":39824:39835  checkpoints */\n      0x0a\n        /* \"Contract.sol\":39824:39844  checkpoints[account] */\n      0x00\n        /* \"Contract.sol\":39836:39843  account */\n      dup6\n        /* \"Contract.sol\":39824:39844  checkpoints[account] */\n      0xffffffffffffffffffffffffffffffffffffffff\n      and\n      0xffffffffffffffffffffffffffffffffffffffff\n      and\n      dup2\n      mstore\n      0x20\n      add\n      swap1\n      dup2\n      mstore\n      0x20\n      add\n      0x00\n      keccak256\n        /* \"Contract.sol\":39824:39862  checkpoints[account][nCheckpoints - 1] */\n      0x00\n        /* \"Contract.sol\":39860:39861  1 */\n      0x01\n        /* \"Contract.sol\":39845:39857  nCheckpoints */\n      dup4\n        /* \"Contract.sol\":39845:39861  nCheckpoints - 1 */\n      sub\n        /* \"Contract.sol\":39824:39862  checkpoints[account][nCheckpoints - 1] */\n      0xffffffff\n      and\n      0xffffffff\n      and\n      dup2\n      mstore\n      0x20\n      add\n      swap1\n      dup2\n      mstore\n      0x20\n      add\n      0x00\n      keccak256\n        /* \"Contract.sol\":39824:39868  checkpoints[account][nCheckpoints - 1].votes */\n      0x01\n      add\n      sload\n        /* \"Contract.sol\":39817:39868  return checkpoints[account][nCheckpoints - 1].votes */\n      swap2\n      pop\n      pop\n      jump(tag_203)\n        /* \"Contract.sol\":39734:39879  if (checkpoints[account][nCheckpoints - 1].fromBlock <= blockNumber) {... */\n    tag_206:\n        /* \"Contract.sol\":39973:39984  blockNumber */\n      dup3\n        /* \"Contract.sol\":39937:39948  checkpoints */\n      0x0a\n        /* \"Contract.sol\":39937:39957  checkpoints[account] */\n      0x00\n        /* \"Contract.sol\":39949:39956  account */\n      dup7\n        /* \"Contract.sol\":39937:39957  checkpoints[account] */\n      0xffffffffffffffffffffffffffffffffffffffff\n      and\n      0xffffffffffffffffffffffffffffffffffffffff\n      and\n      dup2\n      mstore\n      0x20\n      add\n      swap1\n      dup2\n      mstore\n      0x20\n      add\n      0x00\n      keccak256\n        /* \"Contract.sol\":39937:39960  checkpoints[account][0] */\n      0x00\n        /* \"Contract.sol\":39958:39959  0 */\n      dup1\n        /* \"Contract.sol\":39937:39960  checkpoints[account][0] */\n      0xffffffff\n      and\n      dup2\n      mstore\n      0x20\n      add\n      swap1\n      dup2\n      mstore\n      0x20\n      add\n      0x00\n      keccak256\n        /* \"Contract.sol\":39937:39970  checkpoints[account][0].fromBlock */\n      0x00\n      add\n      sload\n        /* \"Contract.sol\":39937:39984  checkpoints[account][0].fromBlock > blockNumber */\n      gt\n        /* \"Contract.sol\":39933:40019  if (checkpoints[account][0].fromBlock > blockNumber) {... */\n      iszero\n      tag_207\n      jumpi\n        /* \"Contract.sol\":40007:40008  0 */\n      0x00\n        /* \"Contract.sol\":40000:40008  return 0 */\n      swap2\n      pop\n      pop\n      jump(tag_203)\n        /* \"Contract.sol\":39933:40019  if (checkpoints[account][0].fromBlock > blockNumber) {... */\n    tag_207:\n        /* \"Contract.sol\":40029:40041  uint32 lower */\n      0x00\n        /* \"Contract.sol\":40055:40067  uint32 upper */\n      dup1\n        /* \"Contract.sol\":40085:40086  1 */\n      0x01\n        /* \"Contract.sol\":40070:40082  nCheckpoints */\n      dup4\n        /* \"Contract.sol\":40070:40086  nCheckpoints - 1 */\n      sub\n        /* \"Contract.sol\":40055:40086  uint32 upper = nCheckpoints - 1 */\n      swap1\n      pop\n        /* \"Contract.sol\":40096:40514  while (upper > lower) {... */\n    tag_208:\n        /* \"Contract.sol\":40111:40116  lower */\n      dup2\n        /* \"Contract.sol\":40103:40116  upper > lower */\n      0xffffffff\n      and\n        /* \"Contract.sol\":40103:40108  upper */\n      dup2\n        /* \"Contract.sol\":40103:40116  upper > lower */\n      0xffffffff\n      and\n      gt\n        /* \"Contract.sol\":40096:40514  while (upper > lower) {... */\n      iszero\n      tag_209\n      jumpi\n        /* \"Contract.sol\":40132:40145  uint32 center */\n      0x00\n        /* \"Contract.sol\":40174:40175  2 */\n      0x02\n        /* \"Contract.sol\":40165:40170  lower */\n      dup4\n        /* \"Contract.sol\":40157:40162  upper */\n      dup4\n        /* \"Contract.sol\":40157:40170  upper - lower */\n      sub\n        /* \"Contract.sol\":40156:40175  (upper - lower) / 2 */\n      0xffffffff\n      and\n      dup2\n      tag_210\n      jumpi\n      invalid\n    tag_210:\n      div\n        /* \"Contract.sol\":40148:40153  upper */\n      dup3\n        /* \"Contract.sol\":40148:40175  upper - (upper - lower) / 2 */\n      sub\n        /* \"Contract.sol\":40132:40175  uint32 center = upper - (upper - lower) / 2 */\n      swap1\n      pop\n        /* \"Contract.sol\":40216:40236  Checkpoint memory cp */\n      tag_211\n      tag_212\n      jump\t// in\n    tag_211:\n        /* \"Contract.sol\":40239:40250  checkpoints */\n      0x0a\n        /* \"Contract.sol\":40239:40259  checkpoints[account] */\n      0x00\n        /* \"Contract.sol\":40251:40258  account */\n      dup10\n        /* \"Contract.sol\":40239:40259  checkpoints[account] */\n      0xffffffffffffffffffffffffffffffffffffffff\n      and\n      0xffffffffffffffffffffffffffffffffffffffff\n      and\n      dup2\n      mstore\n      0x20\n      add\n      swap1\n      dup2\n      mstore\n      0x20\n      add\n      0x00\n      keccak256\n        /* \"Contract.sol\":40239:40267  checkpoints[account][center] */\n      0x00\n        /* \"Contract.sol\":40260:40266  center */\n      dup4\n        /* \"Contract.sol\":40239:40267  checkpoints[account][center] */\n      0xffffffff\n      and\n      0xffffffff\n      and\n      dup2\n      mstore\n      0x20\n      add\n      swap1\n      dup2\n      mstore\n      0x20\n      add\n      0x00\n      keccak256\n        /* \"Contract.sol\":40216:40267  Checkpoint memory cp = checkpoints[account][center] */\n      mload(0x40)\n      dup1\n      0x40\n      add\n      0x40\n      mstore\n      swap1\n      dup2\n      0x00\n      dup3\n      add\n      sload\n      dup2\n      mstore\n      0x20\n      add\n      0x01\n      dup3\n      add\n      sload\n      dup2\n      mstore\n      pop\n      pop\n      swap1\n      pop\n        /* \"Contract.sol\":40301:40312  blockNumber */\n      dup7\n        /* \"Contract.sol\":40285:40287  cp */\n      dup2\n        /* \"Contract.sol\":40285:40297  cp.fromBlock */\n      0x00\n      add\n      mload\n        /* \"Contract.sol\":40285:40312  cp.fromBlock == blockNumber */\n      eq\n        /* \"Contract.sol\":40281:40504  if (cp.fromBlock == blockNumber) {... */\n      iszero\n      tag_213\n      jumpi\n        /* \"Contract.sol\":40339:40341  cp */\n      dup1\n        /* \"Contract.sol\":40339:40347  cp.votes */\n      0x20\n      add\n      mload\n        /* \"Contract.sol\":40332:40347  return cp.votes */\n      swap6\n      pop\n      pop\n      pop\n      pop\n      pop\n      pop\n      jump(tag_203)\n        /* \"Contract.sol\":40281:40504  if (cp.fromBlock == blockNumber) {... */\n    tag_213:\n        /* \"Contract.sol\":40387:40398  blockNumber */\n      dup7\n        /* \"Contract.sol\":40372:40374  cp */\n      dup2\n        /* \"Contract.sol\":40372:40384  cp.fromBlock */\n      0x00\n      add\n      mload\n        /* \"Contract.sol\":40372:40398  cp.fromBlock < blockNumber */\n      lt\n        /* \"Contract.sol\":40368:40504  if (cp.fromBlock < blockNumber) {... */\n      iszero\n      tag_215\n      jumpi\n        /* \"Contract.sol\":40426:40432  center */\n      dup2\n        /* \"Contract.sol\":40418:40432  lower = center */\n      swap4\n      pop\n        /* \"Contract.sol\":40368:40504  if (cp.fromBlock < blockNumber) {... */\n      jump(tag_216)\n    tag_215:\n        /* \"Contract.sol\":40488:40489  1 */\n      0x01\n        /* \"Contract.sol\":40479:40485  center */\n      dup3\n        /* \"Contract.sol\":40479:40489  center - 1 */\n      sub\n        /* \"Contract.sol\":40471:40489  upper = center - 1 */\n      swap3\n      pop\n        /* \"Contract.sol\":40368:40504  if (cp.fromBlock < blockNumber) {... */\n    tag_216:\n        /* \"Contract.sol\":40096:40514  while (upper > lower) {... */\n      pop\n      pop\n      jump(tag_208)\n    tag_209:\n        /* \"Contract.sol\":40530:40541  checkpoints */\n      0x0a\n        /* \"Contract.sol\":40530:40550  checkpoints[account] */\n      0x00\n        /* \"Contract.sol\":40542:40549  account */\n      dup8\n        /* \"Contract.sol\":40530:40550  checkpoints[account] */\n      0xffffffffffffffffffffffffffffffffffffffff\n      and\n      0xffffffffffffffffffffffffffffffffffffffff\n      and\n      dup2\n      mstore\n      0x20\n      add\n      swap1\n      dup2\n      mstore\n      0x20\n      add\n      0x00\n      keccak256\n        /* \"Contract.sol\":40530:40557  checkpoints[account][lower] */\n      0x00\n        /* \"Contract.sol\":40551:40556  lower */\n      dup4\n        /* \"Contract.sol\":40530:40557  checkpoints[account][lower] */\n      0xffffffff\n      and\n      0xffffffff\n      and\n      dup2\n      mstore\n      0x20\n      add\n      swap1\n      dup2\n      mstore\n      0x20\n      add\n      0x00\n      keccak256\n        /* \"Contract.sol\":40530:40563  checkpoints[account][lower].votes */\n      0x01\n      add\n      sload\n        /* \"Contract.sol\":40523:40563  return checkpoints[account][lower].votes */\n      swap4\n      pop\n      pop\n      pop\n      pop\n        /* \"Contract.sol\":39386:40570  function getPriorVotes(address account, uint blockNumber) public view returns (uint) {... */\n    tag_203:\n      swap3\n      swap2\n      pop\n      pop\n      jump\t// out\n        /* \"Contract.sol\":33779:33818  mapping (address => uint) public nonces */\n    tag_100:\n      mstore(0x20, 0x0c)\n      dup1\n      0x00\n      mstore\n      keccak256(0x00, 0x40)\n      0x00\n      swap2\n      pop\n      swap1\n      pop\n      sload\n      dup2\n      jump\t// out\n        /* \"Contract.sol\":36680:36762  function setUnpause() external whenNotPaused onlyOwner {... */\n    tag_102:\n        /* \"Contract.sol\":29957:29964  _paused */\n      0x07\n      0x14\n      swap1\n      sload\n      swap1\n      0x0100\n      exp\n      swap1\n      div\n      0xff\n      and\n        /* \"Contract.sol\":29956:29964  !_paused */\n      iszero\n        /* \"Contract.sol\":29948:29985  require(!_paused, \"Pausable: paused\") */\n      tag_218\n      jumpi\n      mload(0x40)\n      0x08c379a000000000000000000000000000000000000000000000000000000000\n      dup2\n      mstore\n      0x04\n      add\n      dup1\n      dup1\n      0x20\n      add\n      dup3\n      dup2\n      sub\n      dup3\n      mstore\n      0x10\n      dup2\n      mstore\n      0x20\n      add\n      dup1\n      0x5061757361626c653a2070617573656400000000000000000000000000000000\n      dup2\n      mstore\n      pop\n      0x20\n      add\n      swap2\n      pop\n      pop\n      mload(0x40)\n      dup1\n      swap2\n      sub\n      swap1\n      revert\n    tag_218:\n        /* \"Contract.sol\":2359:2371  _msgSender() */\n      tag_220\n        /* \"Contract.sol\":2359:2369  _msgSender */\n      tag_152\n        /* \"Contract.sol\":2359:2371  _msgSender() */\n      jump\t// in\n    tag_220:\n        /* \"Contract.sol\":2349:2371  _owner == _msgSender() */\n      0xffffffffffffffffffffffffffffffffffffffff\n      and\n        /* \"Contract.sol\":2349:2355  _owner */\n      0x07\n      0x00\n      swap1\n      sload\n      swap1\n      0x0100\n      exp\n      swap1\n      div\n      0xffffffffffffffffffffffffffffffffffffffff\n      and\n        /* \"Contract.sol\":2349:2371  _owner == _msgSender() */\n      0xffffffffffffffffffffffffffffffffffffffff\n      and\n      eq\n        /* \"Contract.sol\":2341:2408  require(_owner == _msgSender(), \"Ownable: caller is not the owner\") */\n      tag_221\n      jumpi\n      mload(0x40)\n      0x08c379a000000000000000000000000000000000000000000000000000000000\n      dup2\n      mstore\n      0x04\n      add\n      dup1\n      dup1\n      0x20\n      add\n      dup3\n      dup2\n      sub\n      dup3\n      mstore\n      0x20\n      dup2\n      mstore\n      0x20\n      add\n      dup1\n      0x4f776e61626c653a2063616c6c6572206973206e6f7420746865206f776e6572\n      dup2\n      mstore\n      pop\n      0x20\n      add\n      swap2\n      pop\n      pop\n      mload(0x40)\n      dup1\n      swap2\n      sub\n      swap1\n      revert\n    tag_221:\n        /* \"Contract.sol\":36745:36755  _unpause() */\n      tag_223\n        /* \"Contract.sol\":36745:36753  _unpause */\n      tag_224\n        /* \"Contract.sol\":36745:36755  _unpause() */\n      jump\t// in\n    tag_223:\n        /* \"Contract.sol\":36680:36762  function setUnpause() external whenNotPaused onlyOwner {... */\n      jump\t// out\n        /* \"Contract.sol\":2145:2222  function owner() public view returns (address) {... */\n    tag_104:\n        /* \"Contract.sol\":2183:2190  address */\n      0x00\n        /* \"Contract.sol\":2209:2215  _owner */\n      0x07\n      0x00\n      swap1\n      sload\n      swap1\n      0x0100\n      exp\n      swap1\n      div\n      0xffffffffffffffffffffffffffffffffffffffff\n      and\n        /* \"Contract.sol\":2202:2215  return _owner */\n      swap1\n      pop\n        /* \"Contract.sol\":2145:2222  function owner() public view returns (address) {... */\n      swap1\n      jump\t// out\n        /* \"Contract.sol\":20253:20338  function symbol() public view returns (string memory) {... */\n    tag_106:\n        /* \"Contract.sol\":20292:20305  string memory */\n      0x60\n        /* \"Contract.sol\":20324:20331  _symbol */\n      0x04\n        /* \"Contract.sol\":20317:20331  return _symbol */\n      dup1\n      sload\n      0x01\n      dup2\n      0x01\n      and\n      iszero\n      0x0100\n      mul\n      sub\n      and\n      0x02\n      swap1\n      div\n      dup1\n      0x1f\n      add\n      0x20\n      dup1\n      swap2\n      div\n      mul\n      0x20\n      add\n      mload(0x40)\n      swap1\n      dup2\n      add\n      0x40\n      mstore\n      dup1\n      swap3\n      swap2\n      swap1\n      dup2\n      dup2\n      mstore\n      0x20\n      add\n      dup3\n      dup1\n      sload\n      0x01\n      dup2\n      0x01\n      and\n      iszero\n      0x0100\n      mul\n      sub\n      and\n      0x02\n      swap1\n      div\n      dup1\n      iszero\n      tag_227\n      jumpi\n      dup1\n      0x1f\n      lt\n      tag_228\n      jumpi\n      0x0100\n      dup1\n      dup4\n      sload\n      div\n      mul\n      dup4\n      mstore\n      swap2\n      0x20\n      add\n      swap2\n      jump(tag_227)\n    tag_228:\n      dup3\n      add\n      swap2\n      swap1\n      0x00\n      mstore\n      keccak256(0x00, 0x20)\n      swap1\n    tag_229:\n      dup2\n      sload\n      dup2\n      mstore\n      swap1\n      0x01\n      add\n      swap1\n      0x20\n      add\n      dup1\n      dup4\n      gt\n      tag_229\n      jumpi\n      dup3\n      swap1\n      sub\n      0x1f\n      and\n      dup3\n      add\n      swap2\n    tag_227:\n      pop\n      pop\n      pop\n      pop\n      pop\n      swap1\n      pop\n        /* \"Contract.sol\":20253:20338  function symbol() public view returns (string memory) {... */\n      swap1\n      jump\t// out\n        /* \"Contract.sol\":24135:24401  function decreaseAllowance(address spender, uint256 subtractedValue) public virtual returns (bool) {... */\n    tag_113:\n        /* \"Contract.sol\":24228:24232  bool */\n      0x00\n        /* \"Contract.sol\":24244:24373  _approve(_msgSender(), spender, _allowances[_msgSender()][spender].sub(subtractedValue, \"ERC20: decreased allowance below zero\")) */\n      tag_231\n        /* \"Contract.sol\":24253:24265  _msgSender() */\n      tag_232\n        /* \"Contract.sol\":24253:24263  _msgSender */\n      tag_152\n        /* \"Contract.sol\":24253:24265  _msgSender() */\n      jump\t// in\n    tag_232:\n        /* \"Contract.sol\":24267:24274  spender */\n      dup5\n        /* \"Contract.sol\":24276:24372  _allowances[_msgSender()][spender].sub(subtractedValue, \"ERC20: decreased allowance below zero\") */\n      tag_233\n        /* \"Contract.sol\":24315:24330  subtractedValue */\n      dup6\n        /* \"Contract.sol\":24276:24372  _allowances[_msgSender()][spender].sub(subtractedValue, \"ERC20: decreased allowance below zero\") */\n      mload(0x40)\n      dup1\n      0x60\n      add\n      0x40\n      mstore\n      dup1\n      0x25\n      dup2\n      mstore\n      0x20\n      add\n      data_f8b476f7d28209d77d4a4ac1fe36b9f8259aa1bb6bddfa6e89de7e51615cf8a8\n      0x25\n      swap2\n      codecopy\n        /* \"Contract.sol\":24276:24287  _allowances */\n      0x01\n        /* \"Contract.sol\":24276:24301  _allowances[_msgSender()] */\n      0x00\n        /* \"Contract.sol\":24288:24300  _msgSender() */\n      tag_234\n        /* \"Contract.sol\":24288:24298  _msgSender */\n      tag_152\n        /* \"Contract.sol\":24288:24300  _msgSender() */\n      jump\t// in\n    tag_234:\n        /* \"Contract.sol\":24276:24301  _allowances[_msgSender()] */\n      0xffffffffffffffffffffffffffffffffffffffff\n      and\n      0xffffffffffffffffffffffffffffffffffffffff\n      and\n      dup2\n      mstore\n      0x20\n      add\n      swap1\n      dup2\n      mstore\n      0x20\n      add\n      0x00\n      keccak256\n        /* \"Contract.sol\":24276:24310  _allowances[_msgSender()][spender] */\n      0x00\n        /* \"Contract.sol\":24302:24309  spender */\n      dup11\n        /* \"Contract.sol\":24276:24310  _allowances[_msgSender()][spender] */\n      0xffffffffffffffffffffffffffffffffffffffff\n      and\n      0xffffffffffffffffffffffffffffffffffffffff\n      and\n      dup2\n      mstore\n      0x20\n      add\n      swap1\n      dup2\n      mstore\n      0x20\n      add\n      0x00\n      keccak256\n      sload\n        /* \"Contract.sol\":24276:24314  _allowances[_msgSender()][spender].sub */\n      tag_235\n      swap1\n        /* \"Contract.sol\":24276:24372  _allowances[_msgSender()][spender].sub(subtractedValue, \"ERC20: decreased allowance below zero\") */\n      swap3\n      swap2\n      swap1\n      0xffffffff\n      and\n      jump\t// in\n    tag_233:\n        /* \"Contract.sol\":24244:24252  _approve */\n      tag_153\n        /* \"Contract.sol\":24244:24373  _approve(_msgSender(), spender, _allowances[_msgSender()][spender].sub(subtractedValue, \"ERC20: decreased allowance below zero\")) */\n      jump\t// in\n    tag_231:\n        /* \"Contract.sol\":24390:24394  true */\n      0x01\n        /* \"Contract.sol\":24383:24394  return true */\n      swap1\n      pop\n        /* \"Contract.sol\":24135:24401  function decreaseAllowance(address spender, uint256 subtractedValue) public virtual returns (bool) {... */\n      swap3\n      swap2\n      pop\n      pop\n      jump\t// out\n        /* \"Contract.sol\":35390:35781  function transfer(address _to, uint256 _value) public override onlyPayloadSize(2 * 32) whenNotPaused returns (bool) {... */\n    tag_116:\n        /* \"Contract.sol\":35500:35504  bool */\n      0x00\n        /* \"Contract.sol\":35469:35475  2 * 32 */\n      0x40\n        /* \"Contract.sol\":34512:34513  4 */\n      0x04\n        /* \"Contract.sol\":34505:34509  size */\n      dup2\n        /* \"Contract.sol\":34505:34513  size + 4 */\n      add\n        /* \"Contract.sol\":34486:34494  msg.data */\n      0x00\n      calldatasize\n        /* \"Contract.sol\":34486:34501  msg.data.length */\n      swap1\n      pop\n        /* \"Contract.sol\":34486:34513  msg.data.length >= size + 4 */\n      lt\n      iszero\n        /* \"Contract.sol\":34478:34543  require(msg.data.length >= size + 4, \"Address type not allowed!\") */\n      tag_237\n      jumpi\n      mload(0x40)\n      0x08c379a000000000000000000000000000000000000000000000000000000000\n      dup2\n      mstore\n      0x04\n      add\n      dup1\n      dup1\n      0x20\n      add\n      dup3\n      dup2\n      sub\n      dup3\n      mstore\n      0x19\n      dup2\n      mstore\n      0x20\n      add\n      dup1\n      0x416464726573732074797065206e6f7420616c6c6f7765642100000000000000\n      dup2\n      mstore\n      pop\n      0x20\n      add\n      swap2\n      pop\n      pop\n      mload(0x40)\n      dup1\n      swap2\n      sub\n      swap1\n      revert\n    tag_237:\n        /* \"Contract.sol\":29957:29964  _paused */\n      0x07\n      0x14\n      swap1\n      sload\n      swap1\n      0x0100\n      exp\n      swap1\n      div\n      0xff\n      and\n        /* \"Contract.sol\":29956:29964  !_paused */\n      iszero\n        /* \"Contract.sol\":29948:29985  require(!_paused, \"Pausable: paused\") */\n      tag_239\n      jumpi\n      mload(0x40)\n      0x08c379a000000000000000000000000000000000000000000000000000000000\n      dup2\n      mstore\n      0x04\n      add\n      dup1\n      dup1\n      0x20\n      add\n      dup3\n      dup2\n      sub\n      dup3\n      mstore\n      0x10\n      dup2\n      mstore\n      0x20\n      add\n      dup1\n      0x5061757361626c653a2070617573656400000000000000000000000000000000\n      dup2\n      mstore\n      pop\n      0x20\n      add\n      swap2\n      pop\n      pop\n      mload(0x40)\n      dup1\n      swap2\n      sub\n      swap1\n      revert\n    tag_239:\n        /* \"Contract.sol\":35525:35538  isBlackListed */\n      0x08\n        /* \"Contract.sol\":35525:35550  isBlackListed[msg.sender] */\n      0x00\n        /* \"Contract.sol\":35539:35549  msg.sender */\n      caller\n        /* \"Contract.sol\":35525:35550  isBlackListed[msg.sender] */\n      0xffffffffffffffffffffffffffffffffffffffff\n      and\n      0xffffffffffffffffffffffffffffffffffffffff\n      and\n      dup2\n      mstore\n      0x20\n      add\n      swap1\n      dup2\n      mstore\n      0x20\n      add\n      0x00\n      keccak256\n      0x00\n      swap1\n      sload\n      swap1\n      0x0100\n      exp\n      swap1\n      div\n      0xff\n      and\n        /* \"Contract.sol\":35524:35550  !isBlackListed[msg.sender] */\n      iszero\n        /* \"Contract.sol\":35516:35587  require(!isBlackListed[msg.sender], \"Transfer - Sender is blacklisted\") */\n      tag_241\n      jumpi\n      mload(0x40)\n      0x08c379a000000000000000000000000000000000000000000000000000000000\n      dup2\n      mstore\n      0x04\n      add\n      dup1\n      dup1\n      0x20\n      add\n      dup3\n      dup2\n      sub\n      dup3\n      mstore\n      0x20\n      dup2\n      mstore\n      0x20\n      add\n      dup1\n      0x5472616e73666572202d2053656e64657220697320626c61636b6c6973746564\n      dup2\n      mstore\n      pop\n      0x20\n      add\n      swap2\n      pop\n      pop\n      mload(0x40)\n      dup1\n      swap2\n      sub\n      swap1\n      revert\n    tag_241:\n        /* \"Contract.sol\":35606:35619  isBlackListed */\n      0x08\n        /* \"Contract.sol\":35606:35624  isBlackListed[_to] */\n      0x00\n        /* \"Contract.sol\":35620:35623  _to */\n      dup6\n        /* \"Contract.sol\":35606:35624  isBlackListed[_to] */\n      0xffffffffffffffffffffffffffffffffffffffff\n      and\n      0xffffffffffffffffffffffffffffffffffffffff\n      and\n      dup2\n      mstore\n      0x20\n      add\n      swap1\n      dup2\n      mstore\n      0x20\n      add\n      0x00\n      keccak256\n      0x00\n      swap1\n      sload\n      swap1\n      0x0100\n      exp\n      swap1\n      div\n      0xff\n      and\n        /* \"Contract.sol\":35605:35624  !isBlackListed[_to] */\n      iszero\n        /* \"Contract.sol\":35597:35664  require(!isBlackListed[_to], \"Transfer - Recipient is blacklisted\") */\n      tag_242\n      jumpi\n      mload(0x40)\n      0x08c379a000000000000000000000000000000000000000000000000000000000\n      dup2\n      mstore\n      0x04\n      add\n      dup1\n      dup1\n      0x20\n      add\n      dup3\n      dup2\n      sub\n      dup3\n      mstore\n      0x23\n      dup2\n      mstore\n      0x20\n      add\n      dup1\n      data_fe4565bcf4b7a01c613fbab5e6165d1de5c0341542d3a9e2147b663befca66ac\n      0x23\n      swap2\n      codecopy\n      0x40\n      add\n      swap2\n      pop\n      pop\n      mload(0x40)\n      dup1\n      swap2\n      sub\n      swap1\n      revert\n    tag_242:\n        /* \"Contract.sol\":35674:35701  super.transfer(_to, _value) */\n      tag_243\n        /* \"Contract.sol\":35689:35692  _to */\n      dup5\n        /* \"Contract.sol\":35694:35700  _value */\n      dup5\n        /* \"Contract.sol\":35674:35688  super.transfer */\n      tag_244\n        /* \"Contract.sol\":35674:35701  super.transfer(_to, _value) */\n      jump\t// in\n    tag_243:\n      pop\n        /* \"Contract.sol\":35711:35774  _moveDelegates(_delegates[msg.sender], _delegates[_to], _value) */\n      tag_245\n        /* \"Contract.sol\":35726:35736  _delegates */\n      0x09\n        /* \"Contract.sol\":35726:35748  _delegates[msg.sender] */\n      0x00\n        /* \"Contract.sol\":35737:35747  msg.sender */\n      caller\n        /* \"Contract.sol\":35726:35748  _delegates[msg.sender] */\n      0xffffffffffffffffffffffffffffffffffffffff\n      and\n      0xffffffffffffffffffffffffffffffffffffffff\n      and\n      dup2\n      mstore\n      0x20\n      add\n      swap1\n      dup2\n      mstore\n      0x20\n      add\n      0x00\n      keccak256\n      0x00\n      swap1\n      sload\n      swap1\n      0x0100\n      exp\n      swap1\n      div\n      0xffffffffffffffffffffffffffffffffffffffff\n      and\n        /* \"Contract.sol\":35750:35760  _delegates */\n      0x09\n        /* \"Contract.sol\":35750:35765  _delegates[_to] */\n      0x00\n        /* \"Contract.sol\":35761:35764  _to */\n      dup8\n        /* \"Contract.sol\":35750:35765  _delegates[_to] */\n      0xffffffffffffffffffffffffffffffffffffffff\n      and\n      0xffffffffffffffffffffffffffffffffffffffff\n      and\n      dup2\n      mstore\n      0x20\n      add\n      swap1\n      dup2\n      mstore\n      0x20\n      add\n      0x00\n      keccak256\n      0x00\n      swap1\n      sload\n      swap1\n      0x0100\n      exp\n      swap1\n      div\n      0xffffffffffffffffffffffffffffffffffffffff\n      and\n        /* \"Contract.sol\":35767:35773  _value */\n      dup6\n        /* \"Contract.sol\":35711:35725  _moveDelegates */\n      tag_169\n        /* \"Contract.sol\":35711:35774  _moveDelegates(_delegates[msg.sender], _delegates[_to], _value) */\n      jump\t// in\n    tag_245:\n        /* \"Contract.sol\":35390:35781  function transfer(address _to, uint256 _value) public override onlyPayloadSize(2 * 32) whenNotPaused returns (bool) {... */\n      pop\n      swap3\n      swap2\n      pop\n      pop\n      jump\t// out\n        /* \"Contract.sol\":38750:38967  function getCurrentVotes(address account) external view returns (uint) {... */\n    tag_119:\n        /* \"Contract.sol\":38815:38819  uint */\n      0x00\n        /* \"Contract.sol\":38831:38850  uint32 nCheckpoints */\n      dup1\n        /* \"Contract.sol\":38853:38867  numCheckpoints */\n      0x0b\n        /* \"Contract.sol\":38853:38876  numCheckpoints[account] */\n      0x00\n        /* \"Contract.sol\":38868:38875  account */\n      dup5\n        /* \"Contract.sol\":38853:38876  numCheckpoints[account] */\n      0xffffffffffffffffffffffffffffffffffffffff\n      and\n      0xffffffffffffffffffffffffffffffffffffffff\n      and\n      dup2\n      mstore\n      0x20\n      add\n      swap1\n      dup2\n      mstore\n      0x20\n      add\n      0x00\n      keccak256\n      0x00\n      swap1\n      sload\n      swap1\n      0x0100\n      exp\n      swap1\n      div\n      0xffffffff\n      and\n        /* \"Contract.sol\":38831:38876  uint32 nCheckpoints = numCheckpoints[account] */\n      swap1\n      pop\n        /* \"Contract.sol\":38908:38909  0 */\n      0x00\n        /* \"Contract.sol\":38893:38905  nCheckpoints */\n      dup2\n        /* \"Contract.sol\":38893:38909  nCheckpoints > 0 */\n      0xffffffff\n      and\n      gt\n        /* \"Contract.sol\":38893:38960  nCheckpoints > 0 ? checkpoints[account][nCheckpoints - 1].votes : 0 */\n      tag_247\n      jumpi\n        /* \"Contract.sol\":38959:38960  0 */\n      0x00\n        /* \"Contract.sol\":38893:38960  nCheckpoints > 0 ? checkpoints[account][nCheckpoints - 1].votes : 0 */\n      jump(tag_248)\n    tag_247:\n        /* \"Contract.sol\":38912:38923  checkpoints */\n      0x0a\n        /* \"Contract.sol\":38912:38932  checkpoints[account] */\n      0x00\n        /* \"Contract.sol\":38924:38931  account */\n      dup5\n        /* \"Contract.sol\":38912:38932  checkpoints[account] */\n      0xffffffffffffffffffffffffffffffffffffffff\n      and\n      0xffffffffffffffffffffffffffffffffffffffff\n      and\n      dup2\n      mstore\n      0x20\n      add\n      swap1\n      dup2\n      mstore\n      0x20\n      add\n      0x00\n      keccak256\n        /* \"Contract.sol\":38912:38950  checkpoints[account][nCheckpoints - 1] */\n      0x00\n        /* \"Contract.sol\":38948:38949  1 */\n      0x01\n        /* \"Contract.sol\":38933:38945  nCheckpoints */\n      dup4\n        /* \"Contract.sol\":38933:38949  nCheckpoints - 1 */\n      sub\n        /* \"Contract.sol\":38912:38950  checkpoints[account][nCheckpoints - 1] */\n      0xffffffff\n      and\n      0xffffffff\n      and\n      dup2\n      mstore\n      0x20\n      add\n      swap1\n      dup2\n      mstore\n      0x20\n      add\n      0x00\n      keccak256\n        /* \"Contract.sol\":38912:38956  checkpoints[account][nCheckpoints - 1].votes */\n      0x01\n      add\n      sload\n        /* \"Contract.sol\":38893:38960  nCheckpoints > 0 ? checkpoints[account][nCheckpoints - 1].votes : 0 */\n    tag_248:\n        /* \"Contract.sol\":38886:38960  return nCheckpoints > 0 ? checkpoints[account][nCheckpoints - 1].votes : 0 */\n      swap2\n      pop\n      pop\n        /* \"Contract.sol\":38750:38967  function getCurrentVotes(address account) external view returns (uint) {... */\n      swap2\n      swap1\n      pop\n      jump\t// out\n        /* \"Contract.sol\":37769:38559  function delegateBySig(address delegatee, uint nonce, uint expiry, uint8 v, bytes32 r, bytes32 s) public {... */\n    tag_122:\n        /* \"Contract.sol\":37884:37907  bytes32 domainSeparator */\n      0x00\n        /* \"Contract.sol\":33419:33499  keccak256(\"EIP712Domain(string name,uint256 chainId,address verifyingContract)\") */\n      0x8cad95687ba82c2ce50e74f7b754645e5117c3a5bec8151c0726d5857980a866\n        /* \"Contract.sol\":37971:37977  name() */\n      tag_250\n        /* \"Contract.sol\":37971:37975  name */\n      tag_45\n        /* \"Contract.sol\":37971:37977  name() */\n      jump\t// in\n    tag_250:\n        /* \"Contract.sol\":37948:37980  keccak256(bytes(string(name()))) */\n      dup1\n      mload\n      swap1\n      0x20\n      add\n      keccak256\n        /* \"Contract.sol\":37982:37994  getChainId() */\n      tag_251\n        /* \"Contract.sol\":37982:37992  getChainId */\n      tag_252\n        /* \"Contract.sol\":37982:37994  getChainId() */\n      jump\t// in\n    tag_251:\n        /* \"Contract.sol\":38004:38008  this */\n      address\n        /* \"Contract.sol\":37920:38010  abi.encode(DOMAIN_TYPEHASH, keccak256(bytes(string(name()))), getChainId(), address(this)) */\n      add(0x20, mload(0x40))\n      dup1\n      dup6\n      dup2\n      mstore\n      0x20\n      add\n      dup5\n      dup2\n      mstore\n      0x20\n      add\n      dup4\n      dup2\n      mstore\n      0x20\n      add\n      dup3\n      0xffffffffffffffffffffffffffffffffffffffff\n      and\n      dup2\n      mstore\n      0x20\n      add\n      swap5\n      pop\n      pop\n      pop\n      pop\n      pop\n      mload(0x40)\n      0x20\n      dup2\n      dup4\n      sub\n      sub\n      dup2\n      mstore\n      swap1\n      0x40\n      mstore\n        /* \"Contract.sol\":37910:38011  keccak256(abi.encode(DOMAIN_TYPEHASH, keccak256(bytes(string(name()))), getChainId(), address(this))) */\n      dup1\n      mload\n      swap1\n      0x20\n      add\n      keccak256\n        /* \"Contract.sol\":37884:38011  bytes32 domainSeparator = keccak256(abi.encode(DOMAIN_TYPEHASH, keccak256(bytes(string(name()))), getChainId(), address(this))) */\n      swap1\n      pop\n        /* \"Contract.sol\":38021:38039  bytes32 structHash */\n      0x00\n        /* \"Contract.sol\":33633:33704  keccak256(\"Delegation(address delegatee,uint256 nonce,uint256 expiry)\") */\n      0xe48329057bfd03d55e49b547132e39cffd9c1820ad7b9d4c5307691425d15adf\n        /* \"Contract.sol\":38084:38093  delegatee */\n      dup9\n        /* \"Contract.sol\":38095:38100  nonce */\n      dup9\n        /* \"Contract.sol\":38102:38108  expiry */\n      dup9\n        /* \"Contract.sol\":38052:38109  abi.encode(DELEGATION_TYPEHASH, delegatee, nonce, expiry) */\n      add(0x20, mload(0x40))\n      dup1\n      dup6\n      dup2\n      mstore\n      0x20\n      add\n      dup5\n      0xffffffffffffffffffffffffffffffffffffffff\n      and\n      dup2\n      mstore\n      0x20\n      add\n      dup4\n      dup2\n      mstore\n      0x20\n      add\n      dup3\n      dup2\n      mstore\n      0x20\n      add\n      swap5\n      pop\n      pop\n      pop\n      pop\n      pop\n      mload(0x40)\n      0x20\n      dup2\n      dup4\n      sub\n      sub\n      dup2\n      mstore\n      swap1\n      0x40\n      mstore\n        /* \"Contract.sol\":38042:38110  keccak256(abi.encode(DELEGATION_TYPEHASH, delegatee, nonce, expiry)) */\n      dup1\n      mload\n      swap1\n      0x20\n      add\n      keccak256\n        /* \"Contract.sol\":38021:38110  bytes32 structHash = keccak256(abi.encode(DELEGATION_TYPEHASH, delegatee, nonce, expiry)) */\n      swap1\n      pop\n        /* \"Contract.sol\":38120:38134  bytes32 digest */\n      0x00\n        /* \"Contract.sol\":38176:38191  domainSeparator */\n      dup3\n        /* \"Contract.sol\":38193:38203  structHash */\n      dup3\n        /* \"Contract.sol\":38147:38204  abi.encodePacked(\"\\x19\\x01\", domainSeparator, structHash) */\n      add(0x20, mload(0x40))\n      dup1\n      dup1\n      0x1901000000000000000000000000000000000000000000000000000000000000\n      dup2\n      mstore\n      pop\n      0x02\n      add\n      dup4\n      dup2\n      mstore\n      0x20\n      add\n      dup3\n      dup2\n      mstore\n      0x20\n      add\n      swap3\n      pop\n      pop\n      pop\n      mload(0x40)\n      0x20\n      dup2\n      dup4\n      sub\n      sub\n      dup2\n      mstore\n      swap1\n      0x40\n      mstore\n        /* \"Contract.sol\":38137:38205  keccak256(abi.encodePacked(\"\\x19\\x01\", domainSeparator, structHash)) */\n      dup1\n      mload\n      swap1\n      0x20\n      add\n      keccak256\n        /* \"Contract.sol\":38120:38205  bytes32 digest = keccak256(abi.encodePacked(\"\\x19\\x01\", domainSeparator, structHash)) */\n      swap1\n      pop\n        /* \"Contract.sol\":38215:38232  address signatory */\n      0x00\n        /* \"Contract.sol\":38235:38261  ecrecover(digest, v, r, s) */\n      0x01\n        /* \"Contract.sol\":38245:38251  digest */\n      dup3\n        /* \"Contract.sol\":38253:38254  v */\n      dup9\n        /* \"Contract.sol\":38256:38257  r */\n      dup9\n        /* \"Contract.sol\":38259:38260  s */\n      dup9\n        /* \"Contract.sol\":38235:38261  ecrecover(digest, v, r, s) */\n      mload(0x40)\n      0x00\n      dup2\n      mstore\n      0x20\n      add\n      0x40\n      mstore\n      mload(0x40)\n      dup1\n      dup6\n      dup2\n      mstore\n      0x20\n      add\n      dup5\n      0xff\n      and\n      dup2\n      mstore\n      0x20\n      add\n      dup4\n      dup2\n      mstore\n      0x20\n      add\n      dup3\n      dup2\n      mstore\n      0x20\n      add\n      swap5\n      pop\n      pop\n      pop\n      pop\n      pop\n      0x20\n      mload(0x40)\n      0x20\n      dup2\n      sub\n      swap1\n      dup1\n      dup5\n      sub\n      swap1\n      dup6\n      gas\n      staticcall\n      iszero\n      dup1\n      iszero\n      tag_254\n      jumpi\n      returndatasize\n      0x00\n      dup1\n      returndatacopy\n      revert(0x00, returndatasize)\n    tag_254:\n      pop\n      pop\n      pop\n      mload(sub(mload(0x40), 0x20))\n        /* \"Contract.sol\":38215:38261  address signatory = ecrecover(digest, v, r, s) */\n      swap1\n      pop\n        /* \"Contract.sol\":38300:38301  0 */\n      0x00\n        /* \"Contract.sol\":38279:38302  signatory != address(0) */\n      0xffffffffffffffffffffffffffffffffffffffff\n      and\n        /* \"Contract.sol\":38279:38288  signatory */\n      dup2\n        /* \"Contract.sol\":38279:38302  signatory != address(0) */\n      0xffffffffffffffffffffffffffffffffffffffff\n      and\n      eq\n      iszero\n        /* \"Contract.sol\":38271:38345  require(signatory != address(0), \"Comp::delegateBySig: invalid signature\") */\n      tag_255\n      jumpi\n      mload(0x40)\n      0x08c379a000000000000000000000000000000000000000000000000000000000\n      dup2\n      mstore\n      0x04\n      add\n      dup1\n      dup1\n      0x20\n      add\n      dup3\n      dup2\n      sub\n      dup3\n      mstore\n      0x26\n      dup2\n      mstore\n      0x20\n      add\n      dup1\n      data_2af9d25b44c3e789cf7d12e941fc7ef1e32cecdd98da61996de7571027751bd3\n      0x26\n      swap2\n      codecopy\n      0x40\n      add\n      swap2\n      pop\n      pop\n      mload(0x40)\n      dup1\n      swap2\n      sub\n      swap1\n      revert\n    tag_255:\n        /* \"Contract.sol\":38372:38378  nonces */\n      0x0c\n        /* \"Contract.sol\":38372:38389  nonces[signatory] */\n      0x00\n        /* \"Contract.sol\":38379:38388  signatory */\n      dup3\n        /* \"Contract.sol\":38372:38389  nonces[signatory] */\n      0xffffffffffffffffffffffffffffffffffffffff\n      and\n      0xffffffffffffffffffffffffffffffffffffffff\n      and\n      dup2\n      mstore\n      0x20\n      add\n      swap1\n      dup2\n      mstore\n      0x20\n      add\n      0x00\n      keccak256\n      0x00\n        /* \"Contract.sol\":38372:38391  nonces[signatory]++ */\n      dup2\n      sload\n      dup1\n      swap3\n      swap2\n      swap1\n      0x01\n      add\n      swap2\n      swap1\n      pop\n      sstore\n        /* \"Contract.sol\":38363:38368  nonce */\n      dup10\n        /* \"Contract.sol\":38363:38391  nonce == nonces[signatory]++ */\n      eq\n        /* \"Contract.sol\":38355:38430  require(nonce == nonces[signatory]++, \"Comp::delegateBySig: invalid nonce\") */\n      tag_256\n      jumpi\n      mload(0x40)\n      0x08c379a000000000000000000000000000000000000000000000000000000000\n      dup2\n      mstore\n      0x04\n      add\n      dup1\n      dup1\n      0x20\n      add\n      dup3\n      dup2\n      sub\n      dup3\n      mstore\n      0x22\n      dup2\n      mstore\n      0x20\n      add\n      dup1\n      data_646cb63637df51b5cf3e35b8d418574ca2fa5dde981ba9f8f5779cfcbbc8a355\n      0x22\n      swap2\n      codecopy\n      0x40\n      add\n      swap2\n      pop\n      pop\n      mload(0x40)\n      dup1\n      swap2\n      sub\n      swap1\n      revert\n    tag_256:\n        /* \"Contract.sol\":38455:38461  expiry */\n      dup8\n        /* \"Contract.sol\":38448:38451  now */\n      timestamp\n        /* \"Contract.sol\":38448:38461  now <= expiry */\n      gt\n      iszero\n        /* \"Contract.sol\":38440:38504  require(now <= expiry, \"Comp::delegateBySig: signature expired\") */\n      tag_257\n      jumpi\n      mload(0x40)\n      0x08c379a000000000000000000000000000000000000000000000000000000000\n      dup2\n      mstore\n      0x04\n      add\n      dup1\n      dup1\n      0x20\n      add\n      dup3\n      dup2\n      sub\n      dup3\n      mstore\n      0x26\n      dup2\n      mstore\n      0x20\n      add\n      dup1\n      data_2e8a87756e5afc73b82eff32f16bb6b10740f4f70e3e129eab06194e30ad3059\n      0x26\n      swap2\n      codecopy\n      0x40\n      add\n      swap2\n      pop\n      pop\n      mload(0x40)\n      dup1\n      swap2\n      sub\n      swap1\n      revert\n    tag_257:\n        /* \"Contract.sol\":38521:38552  _delegate(signatory, delegatee) */\n      tag_258\n        /* \"Contract.sol\":38531:38540  signatory */\n      dup2\n        /* \"Contract.sol\":38542:38551  delegatee */\n      dup12\n        /* \"Contract.sol\":38521:38530  _delegate */\n      tag_196\n        /* \"Contract.sol\":38521:38552  _delegate(signatory, delegatee) */\n      jump\t// in\n    tag_258:\n        /* \"Contract.sol\":38514:38552  return _delegate(signatory, delegatee) */\n      pop\n      pop\n      pop\n      pop\n        /* \"Contract.sol\":37769:38559  function delegateBySig(address delegatee, uint nonce, uint expiry, uint8 v, bytes32 r, bytes32 s) public {... */\n      pop\n      pop\n      pop\n      pop\n      pop\n      pop\n      jump\t// out\n        /* \"Contract.sol\":36552:36630  function setPause() external whenNotPaused onlyOwner {... */\n    tag_124:\n        /* \"Contract.sol\":29957:29964  _paused */\n      0x07\n      0x14\n      swap1\n      sload\n      swap1\n      0x0100\n      exp\n      swap1\n      div\n      0xff\n      and\n        /* \"Contract.sol\":29956:29964  !_paused */\n      iszero\n        /* \"Contract.sol\":29948:29985  require(!_paused, \"Pausable: paused\") */\n      tag_260\n      jumpi\n      mload(0x40)\n      0x08c379a000000000000000000000000000000000000000000000000000000000\n      dup2\n      mstore\n      0x04\n      add\n      dup1\n      dup1\n      0x20\n      add\n      dup3\n      dup2\n      sub\n      dup3\n      mstore\n      0x10\n      dup2\n      mstore\n      0x20\n      add\n      dup1\n      0x5061757361626c653a2070617573656400000000000000000000000000000000\n      dup2\n      mstore\n      pop\n      0x20\n      add\n      swap2\n      pop\n      pop\n      mload(0x40)\n      dup1\n      swap2\n      sub\n      swap1\n      revert\n    tag_260:\n        /* \"Contract.sol\":2359:2371  _msgSender() */\n      tag_262\n        /* \"Contract.sol\":2359:2369  _msgSender */\n      tag_152\n        /* \"Contract.sol\":2359:2371  _msgSender() */\n      jump\t// in\n    tag_262:\n        /* \"Contract.sol\":2349:2371  _owner == _msgSender() */\n      0xffffffffffffffffffffffffffffffffffffffff\n      and\n        /* \"Contract.sol\":2349:2355  _owner */\n      0x07\n      0x00\n      swap1\n      sload\n      swap1\n      0x0100\n      exp\n      swap1\n      div\n      0xffffffffffffffffffffffffffffffffffffffff\n      and\n        /* \"Contract.sol\":2349:2371  _owner == _msgSender() */\n      0xffffffffffffffffffffffffffffffffffffffff\n      and\n      eq\n        /* \"Contract.sol\":2341:2408  require(_owner == _msgSender(), \"Ownable: caller is not the owner\") */\n      tag_263\n      jumpi\n      mload(0x40)\n      0x08c379a000000000000000000000000000000000000000000000000000000000\n      dup2\n      mstore\n      0x04\n      add\n      dup1\n      dup1\n      0x20\n      add\n      dup3\n      dup2\n      sub\n      dup3\n      mstore\n      0x20\n      dup2\n      mstore\n      0x20\n      add\n      dup1\n      0x4f776e61626c653a2063616c6c6572206973206e6f7420746865206f776e6572\n      dup2\n      mstore\n      pop\n      0x20\n      add\n      swap2\n      pop\n      pop\n      mload(0x40)\n      dup1\n      swap2\n      sub\n      swap1\n      revert\n    tag_263:\n        /* \"Contract.sol\":36615:36623  _pause() */\n      tag_265\n        /* \"Contract.sol\":36615:36621  _pause */\n      tag_266\n        /* \"Contract.sol\":36615:36623  _pause() */\n      jump\t// in\n    tag_265:\n        /* \"Contract.sol\":36552:36630  function setPause() external whenNotPaused onlyOwner {... */\n      jump\t// out\n        /* \"Contract.sol\":21808:21957  function allowance(address owner, address spender) public view virtual override returns (uint256) {... */\n    tag_127:\n        /* \"Contract.sol\":21897:21904  uint256 */\n      0x00\n        /* \"Contract.sol\":21923:21934  _allowances */\n      0x01\n        /* \"Contract.sol\":21923:21941  _allowances[owner] */\n      0x00\n        /* \"Contract.sol\":21935:21940  owner */\n      dup5\n        /* \"Contract.sol\":21923:21941  _allowances[owner] */\n      0xffffffffffffffffffffffffffffffffffffffff\n      and\n      0xffffffffffffffffffffffffffffffffffffffff\n      and\n      dup2\n      mstore\n      0x20\n      add\n      swap1\n      dup2\n      mstore\n      0x20\n      add\n      0x00\n      keccak256\n        /* \"Contract.sol\":21923:21950  _allowances[owner][spender] */\n      0x00\n        /* \"Contract.sol\":21942:21949  spender */\n      dup4\n        /* \"Contract.sol\":21923:21950  _allowances[owner][spender] */\n      0xffffffffffffffffffffffffffffffffffffffff\n      and\n      0xffffffffffffffffffffffffffffffffffffffff\n      and\n      dup2\n      mstore\n      0x20\n      add\n      swap1\n      dup2\n      mstore\n      0x20\n      add\n      0x00\n      keccak256\n      sload\n        /* \"Contract.sol\":21916:21950  return _allowances[owner][spender] */\n      swap1\n      pop\n        /* \"Contract.sol\":21808:21957  function allowance(address owner, address spender) public view virtual override returns (uint256) {... */\n      swap3\n      swap2\n      pop\n      pop\n      jump\t// out\n        /* \"Contract.sol\":3377:3423  mapping (address => bool) public isBlackListed */\n    tag_130:\n      mstore(0x20, 0x08)\n      dup1\n      0x00\n      mstore\n      keccak256(0x00, 0x40)\n      0x00\n      swap2\n      pop\n      sload\n      swap1\n      0x0100\n      exp\n      swap1\n      div\n      0xff\n      and\n      dup2\n      jump\t// out\n        /* \"Contract.sol\":3787:3944  function removeBlackList (address _clearedUser) public onlyOwner {... */\n    tag_133:\n        /* \"Contract.sol\":2359:2371  _msgSender() */\n      tag_269\n        /* \"Contract.sol\":2359:2369  _msgSender */\n      tag_152\n        /* \"Contract.sol\":2359:2371  _msgSender() */\n      jump\t// in\n    tag_269:\n        /* \"Contract.sol\":2349:2371  _owner == _msgSender() */\n      0xffffffffffffffffffffffffffffffffffffffff\n      and\n        /* \"Contract.sol\":2349:2355  _owner */\n      0x07\n      0x00\n      swap1\n      sload\n      swap1\n      0x0100\n      exp\n      swap1\n      div\n      0xffffffffffffffffffffffffffffffffffffffff\n      and\n        /* \"Contract.sol\":2349:2371  _owner == _msgSender() */\n      0xffffffffffffffffffffffffffffffffffffffff\n      and\n      eq\n        /* \"Contract.sol\":2341:2408  require(_owner == _msgSender(), \"Ownable: caller is not the owner\") */\n      tag_270\n      jumpi\n      mload(0x40)\n      0x08c379a000000000000000000000000000000000000000000000000000000000\n      dup2\n      mstore\n      0x04\n      add\n      dup1\n      dup1\n      0x20\n      add\n      dup3\n      dup2\n      sub\n      dup3\n      mstore\n      0x20\n      dup2\n      mstore\n      0x20\n      add\n      dup1\n      0x4f776e61626c653a2063616c6c6572206973206e6f7420746865206f776e6572\n      dup2\n      mstore\n      pop\n      0x20\n      add\n      swap2\n      pop\n      pop\n      mload(0x40)\n      dup1\n      swap2\n      sub\n      swap1\n      revert\n    tag_270:\n        /* \"Contract.sol\":3892:3897  false */\n      0x00\n        /* \"Contract.sol\":3862:3875  isBlackListed */\n      0x08\n        /* \"Contract.sol\":3862:3889  isBlackListed[_clearedUser] */\n      0x00\n        /* \"Contract.sol\":3876:3888  _clearedUser */\n      dup4\n        /* \"Contract.sol\":3862:3889  isBlackListed[_clearedUser] */\n      0xffffffffffffffffffffffffffffffffffffffff\n      and\n      0xffffffffffffffffffffffffffffffffffffffff\n      and\n      dup2\n      mstore\n      0x20\n      add\n      swap1\n      dup2\n      mstore\n      0x20\n      add\n      0x00\n      keccak256\n      0x00\n        /* \"Contract.sol\":3862:3897  isBlackListed[_clearedUser] = false */\n      0x0100\n      exp\n      dup2\n      sload\n      dup2\n      0xff\n      mul\n      not\n      and\n      swap1\n      dup4\n      iszero\n      iszero\n      mul\n      or\n      swap1\n      sstore\n      pop\n        /* \"Contract.sol\":3907:3937  RemovedBlackList(_clearedUser) */\n      0xd7e9ec6e6ecd65492dce6bf513cd6867560d49544421d0783ddf06e76c24470c\n        /* \"Contract.sol\":3924:3936  _clearedUser */\n      dup2\n        /* \"Contract.sol\":3907:3937  RemovedBlackList(_clearedUser) */\n      mload(0x40)\n      dup1\n      dup3\n      0xffffffffffffffffffffffffffffffffffffffff\n      and\n      dup2\n      mstore\n      0x20\n      add\n      swap2\n      pop\n      pop\n      mload(0x40)\n      dup1\n      swap2\n      sub\n      swap1\n      log1\n        /* \"Contract.sol\":3787:3944  function removeBlackList (address _clearedUser) public onlyOwner {... */\n      pop\n      jump\t// out\n        /* \"Contract.sol\":33587:33704  bytes32 public constant DELEGATION_TYPEHASH = keccak256(\"Delegation(address delegatee,uint256 nonce,uint256 expiry)\") */\n    tag_135:\n        /* \"Contract.sol\":33633:33704  keccak256(\"Delegation(address delegatee,uint256 nonce,uint256 expiry)\") */\n      0xe48329057bfd03d55e49b547132e39cffd9c1820ad7b9d4c5307691425d15adf\n        /* \"Contract.sol\":33587:33704  bytes32 public constant DELEGATION_TYPEHASH = keccak256(\"Delegation(address delegatee,uint256 nonce,uint256 expiry)\") */\n      dup2\n      jump\t// out\n        /* \"Contract.sol\":33128:33198  mapping (address => mapping (uint32 => Checkpoint)) public checkpoints */\n    tag_138:\n      mstore(0x20, 0x0a)\n      dup2\n      0x00\n      mstore\n      mstore(0x20, keccak256(0x00, 0x40))\n      dup1\n      0x00\n      mstore\n      keccak256(0x00, 0x40)\n      0x00\n      swap2\n      pop\n      swap2\n      pop\n      pop\n      dup1\n      0x00\n      add\n      sload\n      swap1\n      dup1\n      0x01\n      add\n      sload\n      swap1\n      pop\n      dup3\n      jump\t// out\n        /* \"Contract.sol\":3062:3302  function transferOwnership(address newOwner) public virtual onlyOwner {... */\n    tag_141:\n        /* \"Contract.sol\":2359:2371  _msgSender() */\n      tag_273\n        /* \"Contract.sol\":2359:2369  _msgSender */\n      tag_152\n        /* \"Contract.sol\":2359:2371  _msgSender() */\n      jump\t// in\n    tag_273:\n        /* \"Contract.sol\":2349:2371  _owner == _msgSender() */\n      0xffffffffffffffffffffffffffffffffffffffff\n      and\n        /* \"Contract.sol\":2349:2355  _owner */\n      0x07\n      0x00\n      swap1\n      sload\n      swap1\n      0x0100\n      exp\n      swap1\n      div\n      0xffffffffffffffffffffffffffffffffffffffff\n      and\n        /* \"Contract.sol\":2349:2371  _owner == _msgSender() */\n      0xffffffffffffffffffffffffffffffffffffffff\n      and\n      eq\n        /* \"Contract.sol\":2341:2408  require(_owner == _msgSender(), \"Ownable: caller is not the owner\") */\n      tag_274\n      jumpi\n      mload(0x40)\n      0x08c379a000000000000000000000000000000000000000000000000000000000\n      dup2\n      mstore\n      0x04\n      add\n      dup1\n      dup1\n      0x20\n      add\n      dup3\n      dup2\n      sub\n      dup3\n      mstore\n      0x20\n      dup2\n      mstore\n      0x20\n      add\n      dup1\n      0x4f776e61626c653a2063616c6c6572206973206e6f7420746865206f776e6572\n      dup2\n      mstore\n      pop\n      0x20\n      add\n      swap2\n      pop\n      pop\n      mload(0x40)\n      dup1\n      swap2\n      sub\n      swap1\n      revert\n    tag_274:\n        /* \"Contract.sol\":3170:3171  0 */\n      0x00\n        /* \"Contract.sol\":3150:3172  newOwner != address(0) */\n      0xffffffffffffffffffffffffffffffffffffffff\n      and\n        /* \"Contract.sol\":3150:3158  newOwner */\n      dup2\n        /* \"Contract.sol\":3150:3172  newOwner != address(0) */\n      0xffffffffffffffffffffffffffffffffffffffff\n      and\n      eq\n      iszero\n        /* \"Contract.sol\":3142:3215  require(newOwner != address(0), \"Ownable: new owner is the zero address\") */\n      tag_276\n      jumpi\n      mload(0x40)\n      0x08c379a000000000000000000000000000000000000000000000000000000000\n      dup2\n      mstore\n      0x04\n      add\n      dup1\n      dup1\n      0x20\n      add\n      dup3\n      dup2\n      sub\n      dup3\n      mstore\n      0x26\n      dup2\n      mstore\n      0x20\n      add\n      dup1\n      data_245f15ff17f551913a7a18385165551503906a406f905ac1c2437281a7cd0cfe\n      0x26\n      swap2\n      codecopy\n      0x40\n      add\n      swap2\n      pop\n      pop\n      mload(0x40)\n      dup1\n      swap2\n      sub\n      swap1\n      revert\n    tag_276:\n        /* \"Contract.sol\":3259:3267  newOwner */\n      dup1\n        /* \"Contract.sol\":3230:3268  OwnershipTransferred(_owner, newOwner) */\n      0xffffffffffffffffffffffffffffffffffffffff\n      and\n        /* \"Contract.sol\":3251:3257  _owner */\n      0x07\n      0x00\n      swap1\n      sload\n      swap1\n      0x0100\n      exp\n      swap1\n      div\n      0xffffffffffffffffffffffffffffffffffffffff\n      and\n        /* \"Contract.sol\":3230:3268  OwnershipTransferred(_owner, newOwner) */\n      0xffffffffffffffffffffffffffffffffffffffff\n      and\n      0x8be0079c531659141344cd1fd0a4f28419497f9722a3daafe3b4186f6b6457e0\n      mload(0x40)\n      mload(0x40)\n      dup1\n      swap2\n      sub\n      swap1\n      log3\n        /* \"Contract.sol\":3287:3295  newOwner */\n      dup1\n        /* \"Contract.sol\":3278:3284  _owner */\n      0x07\n      0x00\n        /* \"Contract.sol\":3278:3295  _owner = newOwner */\n      0x0100\n      exp\n      dup2\n      sload\n      dup2\n      0xffffffffffffffffffffffffffffffffffffffff\n      mul\n      not\n      and\n      swap1\n      dup4\n      0xffffffffffffffffffffffffffffffffffffffff\n      and\n      mul\n      or\n      swap1\n      sstore\n      pop\n        /* \"Contract.sol\":3062:3302  function transferOwnership(address newOwner) public virtual onlyOwner {... */\n      pop\n      jump\t// out\n        /* \"Contract.sol\":7539:7715  function add(uint256 a, uint256 b) internal pure returns (uint256) {... */\n    tag_142:\n        /* \"Contract.sol\":7597:7604  uint256 */\n      0x00\n        /* \"Contract.sol\":7616:7625  uint256 c */\n      dup1\n        /* \"Contract.sol\":7632:7633  b */\n      dup3\n        /* \"Contract.sol\":7628:7629  a */\n      dup5\n        /* \"Contract.sol\":7628:7633  a + b */\n      add\n        /* \"Contract.sol\":7616:7633  uint256 c = a + b */\n      swap1\n      pop\n        /* \"Contract.sol\":7656:7657  a */\n      dup4\n        /* \"Contract.sol\":7651:7652  c */\n      dup2\n        /* \"Contract.sol\":7651:7657  c >= a */\n      lt\n      iszero\n        /* \"Contract.sol\":7643:7689  require(c >= a, \"SafeMath: addition overflow\") */\n      tag_278\n      jumpi\n      mload(0x40)\n      0x08c379a000000000000000000000000000000000000000000000000000000000\n      dup2\n      mstore\n      0x04\n      add\n      dup1\n      dup1\n      0x20\n      add\n      dup3\n      dup2\n      sub\n      dup3\n      mstore\n      0x1b\n      dup2\n      mstore\n      0x20\n      add\n      dup1\n      0x536166654d6174683a206164646974696f6e206f766572666c6f770000000000\n      dup2\n      mstore\n      pop\n      0x20\n      add\n      swap2\n      pop\n      pop\n      mload(0x40)\n      dup1\n      swap2\n      sub\n      swap1\n      revert\n    tag_278:\n        /* \"Contract.sol\":7707:7708  c */\n      dup1\n        /* \"Contract.sol\":7700:7708  return c */\n      swap2\n      pop\n      pop\n        /* \"Contract.sol\":7539:7715  function add(uint256 a, uint256 b) internal pure returns (uint256) {... */\n      swap3\n      swap2\n      pop\n      pop\n      jump\t// out\n        /* \"Contract.sol\":7986:8120  function sub(uint256 a, uint256 b) internal pure returns (uint256) {... */\n    tag_143:\n        /* \"Contract.sol\":8044:8051  uint256 */\n      0x00\n        /* \"Contract.sol\":8070:8113  sub(a, b, \"SafeMath: subtraction overflow\") */\n      tag_280\n        /* \"Contract.sol\":8074:8075  a */\n      dup4\n        /* \"Contract.sol\":8077:8078  b */\n      dup4\n        /* \"Contract.sol\":8070:8113  sub(a, b, \"SafeMath: subtraction overflow\") */\n      mload(0x40)\n      dup1\n      0x40\n      add\n      0x40\n      mstore\n      dup1\n      0x1e\n      dup2\n      mstore\n      0x20\n      add\n      0x536166654d6174683a207375627472616374696f6e206f766572666c6f770000\n      dup2\n      mstore\n      pop\n        /* \"Contract.sol\":8070:8073  sub */\n      tag_235\n        /* \"Contract.sol\":8070:8113  sub(a, b, \"SafeMath: subtraction overflow\") */\n      jump\t// in\n    tag_280:\n        /* \"Contract.sol\":8063:8113  return sub(a, b, \"SafeMath: subtraction overflow\") */\n      swap1\n      pop\n        /* \"Contract.sol\":7986:8120  function sub(uint256 a, uint256 b) internal pure returns (uint256) {... */\n      swap3\n      swap2\n      pop\n      pop\n      jump\t// out\n        /* \"Contract.sol\":28537:28629  function _beforeTokenTransfer(address from, address to, uint256 amount) internal virtual { } */\n    tag_144:\n      pop\n      pop\n      pop\n      jump\t// out\n        /* \"Contract.sol\":769:873  function _msgSender() internal view virtual returns (address payable) {... */\n    tag_152:\n        /* \"Contract.sol\":822:837  address payable */\n      0x00\n        /* \"Contract.sol\":856:866  msg.sender */\n      caller\n        /* \"Contract.sol\":849:866  return msg.sender */\n      swap1\n      pop\n        /* \"Contract.sol\":769:873  function _msgSender() internal view virtual returns (address payable) {... */\n      swap1\n      jump\t// out\n        /* \"Contract.sol\":27199:27539  function _approve(address owner, address spender, uint256 amount) internal virtual {... */\n    tag_153:\n        /* \"Contract.sol\":27317:27318  0 */\n      0x00\n        /* \"Contract.sol\":27300:27319  owner != address(0) */\n      0xffffffffffffffffffffffffffffffffffffffff\n      and\n        /* \"Contract.sol\":27300:27305  owner */\n      dup4\n        /* \"Contract.sol\":27300:27319  owner != address(0) */\n      0xffffffffffffffffffffffffffffffffffffffff\n      and\n      eq\n      iszero\n        /* \"Contract.sol\":27292:27360  require(owner != address(0), \"ERC20: approve from the zero address\") */\n      tag_284\n      jumpi\n      mload(0x40)\n      0x08c379a000000000000000000000000000000000000000000000000000000000\n      dup2\n      mstore\n      0x04\n      add\n      dup1\n      dup1\n      0x20\n      add\n      dup3\n      dup2\n      sub\n      dup3\n      mstore\n      0x24\n      dup2\n      mstore\n      0x20\n      add\n      dup1\n      data_c953f4879035ed60e766b34720f656aab5c697b141d924c283124ecedb91c208\n      0x24\n      swap2\n      codecopy\n      0x40\n      add\n      swap2\n      pop\n      pop\n      mload(0x40)\n      dup1\n      swap2\n      sub\n      swap1\n      revert\n    tag_284:\n        /* \"Contract.sol\":27397:27398  0 */\n      0x00\n        /* \"Contract.sol\":27378:27399  spender != address(0) */\n      0xffffffffffffffffffffffffffffffffffffffff\n      and\n        /* \"Contract.sol\":27378:27385  spender */\n      dup3\n        /* \"Contract.sol\":27378:27399  spender != address(0) */\n      0xffffffffffffffffffffffffffffffffffffffff\n      and\n      eq\n      iszero\n        /* \"Contract.sol\":27370:27438  require(spender != address(0), \"ERC20: approve to the zero address\") */\n      tag_285\n      jumpi\n      mload(0x40)\n      0x08c379a000000000000000000000000000000000000000000000000000000000\n      dup2\n      mstore\n      0x04\n      add\n      dup1\n      dup1\n      0x20\n      add\n      dup3\n      dup2\n      sub\n      dup3\n      mstore\n      0x22\n      dup2\n      mstore\n      0x20\n      add\n      dup1\n      data_24883cc5fe64ace9d0df1893501ecb93c77180f0ff69cca79affb3c316dc8029\n      0x22\n      swap2\n      codecopy\n      0x40\n      add\n      swap2\n      pop\n      pop\n      mload(0x40)\n      dup1\n      swap2\n      sub\n      swap1\n      revert\n    tag_285:\n        /* \"Contract.sol\":27479:27485  amount */\n      dup1\n        /* \"Contract.sol\":27449:27460  _allowances */\n      0x01\n        /* \"Contract.sol\":27449:27467  _allowances[owner] */\n      0x00\n        /* \"Contract.sol\":27461:27466  owner */\n      dup6\n        /* \"Contract.sol\":27449:27467  _allowances[owner] */\n      0xffffffffffffffffffffffffffffffffffffffff\n      and\n      0xffffffffffffffffffffffffffffffffffffffff\n      and\n      dup2\n      mstore\n      0x20\n      add\n      swap1\n      dup2\n      mstore\n      0x20\n      add\n      0x00\n      keccak256\n        /* \"Contract.sol\":27449:27476  _allowances[owner][spender] */\n      0x00\n        /* \"Contract.sol\":27468:27475  spender */\n      dup5\n        /* \"Contract.sol\":27449:27476  _allowances[owner][spender] */\n      0xffffffffffffffffffffffffffffffffffffffff\n      and\n      0xffffffffffffffffffffffffffffffffffffffff\n      and\n      dup2\n      mstore\n      0x20\n      add\n      swap1\n      dup2\n      mstore\n      0x20\n      add\n      0x00\n      keccak256\n        /* \"Contract.sol\":27449:27485  _allowances[owner][spender] = amount */\n      dup2\n      swap1\n      sstore\n      pop\n        /* \"Contract.sol\":27516:27523  spender */\n      dup2\n        /* \"Contract.sol\":27500:27532  Approval(owner, spender, amount) */\n      0xffffffffffffffffffffffffffffffffffffffff\n      and\n        /* \"Contract.sol\":27509:27514  owner */\n      dup4\n        /* \"Contract.sol\":27500:27532  Approval(owner, spender, amount) */\n      0xffffffffffffffffffffffffffffffffffffffff\n      and\n      0x8c5be1e5ebec7d5bd14f71427d1e84f3dd0314c0f7b2291e5b200ac8c7c3b925\n        /* \"Contract.sol\":27525:27531  amount */\n      dup4\n        /* \"Contract.sol\":27500:27532  Approval(owner, spender, amount) */\n      mload(0x40)\n      dup1\n      dup3\n      dup2\n      mstore\n      0x20\n      add\n      swap2\n      pop\n      pop\n      mload(0x40)\n      dup1\n      swap2\n      sub\n      swap1\n      log3\n        /* \"Contract.sol\":27199:27539  function _approve(address owner, address spender, uint256 amount) internal virtual {... */\n      pop\n      pop\n      pop\n      jump\t// out\n        /* \"Contract.sol\":22721:23038  function transferFrom(address sender, address recipient, uint256 amount) public virtual override returns (bool) {... */\n    tag_167:\n        /* \"Contract.sol\":22827:22831  bool */\n      0x00\n        /* \"Contract.sol\":22843:22879  _transfer(sender, recipient, amount) */\n      tag_287\n        /* \"Contract.sol\":22853:22859  sender */\n      dup5\n        /* \"Contract.sol\":22861:22870  recipient */\n      dup5\n        /* \"Contract.sol\":22872:22878  amount */\n      dup5\n        /* \"Contract.sol\":22843:22852  _transfer */\n      tag_288\n        /* \"Contract.sol\":22843:22879  _transfer(sender, recipient, amount) */\n      jump\t// in\n    tag_287:\n        /* \"Contract.sol\":22889:23010  _approve(sender, _msgSender(), _allowances[sender][_msgSender()].sub(amount, \"ERC20: transfer amount exceeds allowance\")) */\n      tag_289\n        /* \"Contract.sol\":22898:22904  sender */\n      dup5\n        /* \"Contract.sol\":22906:22918  _msgSender() */\n      tag_290\n        /* \"Contract.sol\":22906:22916  _msgSender */\n      tag_152\n        /* \"Contract.sol\":22906:22918  _msgSender() */\n      jump\t// in\n    tag_290:\n        /* \"Contract.sol\":22920:23009  _allowances[sender][_msgSender()].sub(amount, \"ERC20: transfer amount exceeds allowance\") */\n      tag_291\n        /* \"Contract.sol\":22958:22964  amount */\n      dup6\n        /* \"Contract.sol\":22920:23009  _allowances[sender][_msgSender()].sub(amount, \"ERC20: transfer amount exceeds allowance\") */\n      mload(0x40)\n      dup1\n      0x60\n      add\n      0x40\n      mstore\n      dup1\n      0x28\n      dup2\n      mstore\n      0x20\n      add\n      data_974d1b4421da69cc60b481194f0dad36a5bb4e23da810da7a7fb30cdba178330\n      0x28\n      swap2\n      codecopy\n        /* \"Contract.sol\":22920:22931  _allowances */\n      0x01\n        /* \"Contract.sol\":22920:22939  _allowances[sender] */\n      0x00\n        /* \"Contract.sol\":22932:22938  sender */\n      dup12\n        /* \"Contract.sol\":22920:22939  _allowances[sender] */\n      0xffffffffffffffffffffffffffffffffffffffff\n      and\n      0xffffffffffffffffffffffffffffffffffffffff\n      and\n      dup2\n      mstore\n      0x20\n      add\n      swap1\n      dup2\n      mstore\n      0x20\n      add\n      0x00\n      keccak256\n        /* \"Contract.sol\":22920:22953  _allowances[sender][_msgSender()] */\n      0x00\n        /* \"Contract.sol\":22940:22952  _msgSender() */\n      tag_292\n        /* \"Contract.sol\":22940:22950  _msgSender */\n      tag_152\n        /* \"Contract.sol\":22940:22952  _msgSender() */\n      jump\t// in\n    tag_292:\n        /* \"Contract.sol\":22920:22953  _allowances[sender][_msgSender()] */\n      0xffffffffffffffffffffffffffffffffffffffff\n      and\n      0xffffffffffffffffffffffffffffffffffffffff\n      and\n      dup2\n      mstore\n      0x20\n      add\n      swap1\n      dup2\n      mstore\n      0x20\n      add\n      0x00\n      keccak256\n      sload\n        /* \"Contract.sol\":22920:22957  _allowances[sender][_msgSender()].sub */\n      tag_235\n      swap1\n        /* \"Contract.sol\":22920:23009  _allowances[sender][_msgSender()].sub(amount, \"ERC20: transfer amount exceeds allowance\") */\n      swap3\n      swap2\n      swap1\n      0xffffffff\n      and\n      jump\t// in\n    tag_291:\n        /* \"Contract.sol\":22889:22897  _approve */\n      tag_153\n        /* \"Contract.sol\":22889:23010  _approve(sender, _msgSender(), _allowances[sender][_msgSender()].sub(amount, \"ERC20: transfer amount exceeds allowance\")) */\n      jump\t// in\n    tag_289:\n        /* \"Contract.sol\":23027:23031  true */\n      0x01\n        /* \"Contract.sol\":23020:23031  return true */\n      swap1\n      pop\n        /* \"Contract.sol\":22721:23038  function transferFrom(address sender, address recipient, uint256 amount) public virtual override returns (bool) {... */\n      swap4\n      swap3\n      pop\n      pop\n      pop\n      jump\t// out\n        /* \"Contract.sol\":40951:41771  function _moveDelegates(address srcRep, address dstRep, uint amount) internal {... */\n    tag_169:\n        /* \"Contract.sol\":41053:41059  dstRep */\n      dup2\n        /* \"Contract.sol\":41043:41059  srcRep != dstRep */\n      0xffffffffffffffffffffffffffffffffffffffff\n      and\n        /* \"Contract.sol\":41043:41049  srcRep */\n      dup4\n        /* \"Contract.sol\":41043:41059  srcRep != dstRep */\n      0xffffffffffffffffffffffffffffffffffffffff\n      and\n      eq\n      iszero\n        /* \"Contract.sol\":41043:41073  srcRep != dstRep && amount > 0 */\n      dup1\n      iszero\n      tag_294\n      jumpi\n      pop\n        /* \"Contract.sol\":41072:41073  0 */\n      0x00\n        /* \"Contract.sol\":41063:41069  amount */\n      dup2\n        /* \"Contract.sol\":41063:41073  amount > 0 */\n      gt\n        /* \"Contract.sol\":41043:41073  srcRep != dstRep && amount > 0 */\n    tag_294:\n        /* \"Contract.sol\":41039:41765  if (srcRep != dstRep && amount > 0) {... */\n      iszero\n      tag_295\n      jumpi\n        /* \"Contract.sol\":41111:41112  0 */\n      0x00\n        /* \"Contract.sol\":41093:41113  srcRep != address(0) */\n      0xffffffffffffffffffffffffffffffffffffffff\n      and\n        /* \"Contract.sol\":41093:41099  srcRep */\n      dup4\n        /* \"Contract.sol\":41093:41113  srcRep != address(0) */\n      0xffffffffffffffffffffffffffffffffffffffff\n      and\n      eq\n        /* \"Contract.sol\":41089:41415  if (srcRep != address(0)) {... */\n      tag_296\n      jumpi\n        /* \"Contract.sol\":41133:41149  uint32 srcRepNum */\n      0x00\n        /* \"Contract.sol\":41152:41166  numCheckpoints */\n      0x0b\n        /* \"Contract.sol\":41152:41174  numCheckpoints[srcRep] */\n      0x00\n        /* \"Contract.sol\":41167:41173  srcRep */\n      dup6\n        /* \"Contract.sol\":41152:41174  numCheckpoints[srcRep] */\n      0xffffffffffffffffffffffffffffffffffffffff\n      and\n      0xffffffffffffffffffffffffffffffffffffffff\n      and\n      dup2\n      mstore\n      0x20\n      add\n      swap1\n      dup2\n      mstore\n      0x20\n      add\n      0x00\n      keccak256\n      0x00\n      swap1\n      sload\n      swap1\n      0x0100\n      exp\n      swap1\n      div\n      0xffffffff\n      and\n        /* \"Contract.sol\":41133:41174  uint32 srcRepNum = numCheckpoints[srcRep] */\n      swap1\n      pop\n        /* \"Contract.sol\":41192:41206  uint srcRepOld */\n      0x00\n        /* \"Contract.sol\":41221:41222  0 */\n      dup1\n        /* \"Contract.sol\":41209:41218  srcRepNum */\n      dup3\n        /* \"Contract.sol\":41209:41222  srcRepNum > 0 */\n      0xffffffff\n      and\n      gt\n        /* \"Contract.sol\":41209:41269  srcRepNum > 0 ? checkpoints[srcRep][srcRepNum - 1].votes : 0 */\n      tag_297\n      jumpi\n        /* \"Contract.sol\":41268:41269  0 */\n      0x00\n        /* \"Contract.sol\":41209:41269  srcRepNum > 0 ? checkpoints[srcRep][srcRepNum - 1].votes : 0 */\n      jump(tag_298)\n    tag_297:\n        /* \"Contract.sol\":41225:41236  checkpoints */\n      0x0a\n        /* \"Contract.sol\":41225:41244  checkpoints[srcRep] */\n      0x00\n        /* \"Contract.sol\":41237:41243  srcRep */\n      dup7\n        /* \"Contract.sol\":41225:41244  checkpoints[srcRep] */\n      0xffffffffffffffffffffffffffffffffffffffff\n      and\n      0xffffffffffffffffffffffffffffffffffffffff\n      and\n      dup2\n      mstore\n      0x20\n      add\n      swap1\n      dup2\n      mstore\n      0x20\n      add\n      0x00\n      keccak256\n        /* \"Contract.sol\":41225:41259  checkpoints[srcRep][srcRepNum - 1] */\n      0x00\n        /* \"Contract.sol\":41257:41258  1 */\n      0x01\n        /* \"Contract.sol\":41245:41254  srcRepNum */\n      dup5\n        /* \"Contract.sol\":41245:41258  srcRepNum - 1 */\n      sub\n        /* \"Contract.sol\":41225:41259  checkpoints[srcRep][srcRepNum - 1] */\n      0xffffffff\n      and\n      0xffffffff\n      and\n      dup2\n      mstore\n      0x20\n      add\n      swap1\n      dup2\n      mstore\n      0x20\n      add\n      0x00\n      keccak256\n        /* \"Contract.sol\":41225:41265  checkpoints[srcRep][srcRepNum - 1].votes */\n      0x01\n      add\n      sload\n        /* \"Contract.sol\":41209:41269  srcRepNum > 0 ? checkpoints[srcRep][srcRepNum - 1].votes : 0 */\n    tag_298:\n        /* \"Contract.sol\":41192:41269  uint srcRepOld = srcRepNum > 0 ? checkpoints[srcRep][srcRepNum - 1].votes : 0 */\n      swap1\n      pop\n        /* \"Contract.sol\":41287:41301  uint srcRepNew */\n      0x00\n        /* \"Contract.sol\":41304:41325  srcRepOld.sub(amount) */\n      tag_299\n        /* \"Contract.sol\":41318:41324  amount */\n      dup5\n        /* \"Contract.sol\":41304:41313  srcRepOld */\n      dup4\n        /* \"Contract.sol\":41304:41317  srcRepOld.sub */\n      tag_143\n      swap1\n        /* \"Contract.sol\":41304:41325  srcRepOld.sub(amount) */\n      swap2\n      swap1\n      0xffffffff\n      and\n      jump\t// in\n    tag_299:\n        /* \"Contract.sol\":41287:41325  uint srcRepNew = srcRepOld.sub(amount) */\n      swap1\n      pop\n        /* \"Contract.sol\":41343:41400  _writeCheckpoint(srcRep, srcRepNum, srcRepOld, srcRepNew) */\n      tag_300\n        /* \"Contract.sol\":41360:41366  srcRep */\n      dup7\n        /* \"Contract.sol\":41368:41377  srcRepNum */\n      dup5\n        /* \"Contract.sol\":41379:41388  srcRepOld */\n      dup5\n        /* \"Contract.sol\":41390:41399  srcRepNew */\n      dup5\n        /* \"Contract.sol\":41343:41359  _writeCheckpoint */\n      tag_301\n        /* \"Contract.sol\":41343:41400  _writeCheckpoint(srcRep, srcRepNum, srcRepOld, srcRepNew) */\n      jump\t// in\n    tag_300:\n        /* \"Contract.sol\":41089:41415  if (srcRep != address(0)) {... */\n      pop\n      pop\n      pop\n    tag_296:\n        /* \"Contract.sol\":41451:41452  0 */\n      0x00\n        /* \"Contract.sol\":41433:41453  dstRep != address(0) */\n      0xffffffffffffffffffffffffffffffffffffffff\n      and\n        /* \"Contract.sol\":41433:41439  dstRep */\n      dup3\n        /* \"Contract.sol\":41433:41453  dstRep != address(0) */\n      0xffffffffffffffffffffffffffffffffffffffff\n      and\n      eq\n        /* \"Contract.sol\":41429:41755  if (dstRep != address(0)) {... */\n      tag_302\n      jumpi\n        /* \"Contract.sol\":41473:41489  uint32 dstRepNum */\n      0x00\n        /* \"Contract.sol\":41492:41506  numCheckpoints */\n      0x0b\n        /* \"Contract.sol\":41492:41514  numCheckpoints[dstRep] */\n      0x00\n        /* \"Contract.sol\":41507:41513  dstRep */\n      dup5\n        /* \"Contract.sol\":41492:41514  numCheckpoints[dstRep] */\n      0xffffffffffffffffffffffffffffffffffffffff\n      and\n      0xffffffffffffffffffffffffffffffffffffffff\n      and\n      dup2\n      mstore\n      0x20\n      add\n      swap1\n      dup2\n      mstore\n      0x20\n      add\n      0x00\n      keccak256\n      0x00\n      swap1\n      sload\n      swap1\n      0x0100\n      exp\n      swap1\n      div\n      0xffffffff\n      and\n        /* \"Contract.sol\":41473:41514  uint32 dstRepNum = numCheckpoints[dstRep] */\n      swap1\n      pop\n        /* \"Contract.sol\":41532:41546  uint dstRepOld */\n      0x00\n        /* \"Contract.sol\":41561:41562  0 */\n      dup1\n        /* \"Contract.sol\":41549:41558  dstRepNum */\n      dup3\n        /* \"Contract.sol\":41549:41562  dstRepNum > 0 */\n      0xffffffff\n      and\n      gt\n        /* \"Contract.sol\":41549:41609  dstRepNum > 0 ? checkpoints[dstRep][dstRepNum - 1].votes : 0 */\n      tag_303\n      jumpi\n        /* \"Contract.sol\":41608:41609  0 */\n      0x00\n        /* \"Contract.sol\":41549:41609  dstRepNum > 0 ? checkpoints[dstRep][dstRepNum - 1].votes : 0 */\n      jump(tag_304)\n    tag_303:\n        /* \"Contract.sol\":41565:41576  checkpoints */\n      0x0a\n        /* \"Contract.sol\":41565:41584  checkpoints[dstRep] */\n      0x00\n        /* \"Contract.sol\":41577:41583  dstRep */\n      dup6\n        /* \"Contract.sol\":41565:41584  checkpoints[dstRep] */\n      0xffffffffffffffffffffffffffffffffffffffff\n      and\n      0xffffffffffffffffffffffffffffffffffffffff\n      and\n      dup2\n      mstore\n      0x20\n      add\n      swap1\n      dup2\n      mstore\n      0x20\n      add\n      0x00\n      keccak256\n        /* \"Contract.sol\":41565:41599  checkpoints[dstRep][dstRepNum - 1] */\n      0x00\n        /* \"Contract.sol\":41597:41598  1 */\n      0x01\n        /* \"Contract.sol\":41585:41594  dstRepNum */\n      dup5\n        /* \"Contract.sol\":41585:41598  dstRepNum - 1 */\n      sub\n        /* \"Contract.sol\":41565:41599  checkpoints[dstRep][dstRepNum - 1] */\n      0xffffffff\n      and\n      0xffffffff\n      and\n      dup2\n      mstore\n      0x20\n      add\n      swap1\n      dup2\n      mstore\n      0x20\n      add\n      0x00\n      keccak256\n        /* \"Contract.sol\":41565:41605  checkpoints[dstRep][dstRepNum - 1].votes */\n      0x01\n      add\n      sload\n        /* \"Contract.sol\":41549:41609  dstRepNum > 0 ? checkpoints[dstRep][dstRepNum - 1].votes : 0 */\n    tag_304:\n        /* \"Contract.sol\":41532:41609  uint dstRepOld = dstRepNum > 0 ? checkpoints[dstRep][dstRepNum - 1].votes : 0 */\n      swap1\n      pop\n        /* \"Contract.sol\":41627:41641  uint dstRepNew */\n      0x00\n        /* \"Contract.sol\":41644:41665  dstRepOld.add(amount) */\n      tag_305\n        /* \"Contract.sol\":41658:41664  amount */\n      dup5\n        /* \"Contract.sol\":41644:41653  dstRepOld */\n      dup4\n        /* \"Contract.sol\":41644:41657  dstRepOld.add */\n      tag_142\n      swap1\n        /* \"Contract.sol\":41644:41665  dstRepOld.add(amount) */\n      swap2\n      swap1\n      0xffffffff\n      and\n      jump\t// in\n    tag_305:\n        /* \"Contract.sol\":41627:41665  uint dstRepNew = dstRepOld.add(amount) */\n      swap1\n      pop\n        /* \"Contract.sol\":41683:41740  _writeCheckpoint(dstRep, dstRepNum, dstRepOld, dstRepNew) */\n      tag_306\n        /* \"Contract.sol\":41700:41706  dstRep */\n      dup6\n        /* \"Contract.sol\":41708:41717  dstRepNum */\n      dup5\n        /* \"Contract.sol\":41719:41728  dstRepOld */\n      dup5\n        /* \"Contract.sol\":41730:41739  dstRepNew */\n      dup5\n        /* \"Contract.sol\":41683:41699  _writeCheckpoint */\n      tag_301\n        /* \"Contract.sol\":41683:41740  _writeCheckpoint(dstRep, dstRepNum, dstRepOld, dstRepNew) */\n      jump\t// in\n    tag_306:\n        /* \"Contract.sol\":41429:41755  if (dstRep != address(0)) {... */\n      pop\n      pop\n      pop\n    tag_302:\n        /* \"Contract.sol\":41039:41765  if (srcRep != dstRep && amount > 0) {... */\n    tag_295:\n        /* \"Contract.sol\":40951:41771  function _moveDelegates(address srcRep, address dstRep, uint amount) internal {... */\n      pop\n      pop\n      pop\n      jump\t// out\n        /* \"Contract.sol\":25675:26045  function _mint(address account, uint256 amount) internal virtual {... */\n    tag_185:\n        /* \"Contract.sol\":25777:25778  0 */\n      0x00\n        /* \"Contract.sol\":25758:25779  account != address(0) */\n      0xffffffffffffffffffffffffffffffffffffffff\n      and\n        /* \"Contract.sol\":25758:25765  account */\n      dup3\n        /* \"Contract.sol\":25758:25779  account != address(0) */\n      0xffffffffffffffffffffffffffffffffffffffff\n      and\n      eq\n      iszero\n        /* \"Contract.sol\":25750:25815  require(account != address(0), \"ERC20: mint to the zero address\") */\n      tag_308\n      jumpi\n      mload(0x40)\n      0x08c379a000000000000000000000000000000000000000000000000000000000\n      dup2\n      mstore\n      0x04\n      add\n      dup1\n      dup1\n      0x20\n      add\n      dup3\n      dup2\n      sub\n      dup3\n      mstore\n      0x1f\n      dup2\n      mstore\n      0x20\n      add\n      dup1\n      0x45524332303a206d696e7420746f20746865207a65726f206164647265737300\n      dup2\n      mstore\n      pop\n      0x20\n      add\n      swap2\n      pop\n      pop\n      mload(0x40)\n      dup1\n      swap2\n      sub\n      swap1\n      revert\n    tag_308:\n        /* \"Contract.sol\":25826:25875  _beforeTokenTransfer(address(0), account, amount) */\n      tag_309\n        /* \"Contract.sol\":25855:25856  0 */\n      0x00\n        /* \"Contract.sol\":25859:25866  account */\n      dup4\n        /* \"Contract.sol\":25868:25874  amount */\n      dup4\n        /* \"Contract.sol\":25826:25846  _beforeTokenTransfer */\n      tag_310\n        /* \"Contract.sol\":25826:25875  _beforeTokenTransfer(address(0), account, amount) */\n      jump\t// in\n    tag_309:\n        /* \"Contract.sol\":25901:25925  _totalSupply.add(amount) */\n      tag_311\n        /* \"Contract.sol\":25918:25924  amount */\n      dup2\n        /* \"Contract.sol\":25901:25913  _totalSupply */\n      sload(0x02)\n        /* \"Contract.sol\":25901:25917  _totalSupply.add */\n      tag_142\n      swap1\n        /* \"Contract.sol\":25901:25925  _totalSupply.add(amount) */\n      swap2\n      swap1\n      0xffffffff\n      and\n      jump\t// in\n    tag_311:\n        /* \"Contract.sol\":25886:25898  _totalSupply */\n      0x02\n        /* \"Contract.sol\":25886:25925  _totalSupply = _totalSupply.add(amount) */\n      dup2\n      swap1\n      sstore\n      pop\n        /* \"Contract.sol\":25956:25986  _balances[account].add(amount) */\n      tag_312\n        /* \"Contract.sol\":25979:25985  amount */\n      dup2\n        /* \"Contract.sol\":25956:25965  _balances */\n      0x00\n        /* \"Contract.sol\":25956:25974  _balances[account] */\n      dup1\n        /* \"Contract.sol\":25966:25973  account */\n      dup6\n        /* \"Contract.sol\":25956:25974  _balances[account] */\n      0xffffffffffffffffffffffffffffffffffffffff\n      and\n      0xffffffffffffffffffffffffffffffffffffffff\n      and\n      dup2\n      mstore\n      0x20\n      add\n      swap1\n      dup2\n      mstore\n      0x20\n      add\n      0x00\n      keccak256\n      sload\n        /* \"Contract.sol\":25956:25978  _balances[account].add */\n      tag_142\n      swap1\n        /* \"Contract.sol\":25956:25986  _balances[account].add(amount) */\n      swap2\n      swap1\n      0xffffffff\n      and\n      jump\t// in\n    tag_312:\n        /* \"Contract.sol\":25935:25944  _balances */\n      0x00\n        /* \"Contract.sol\":25935:25953  _balances[account] */\n      dup1\n        /* \"Contract.sol\":25945:25952  account */\n      dup5\n        /* \"Contract.sol\":25935:25953  _balances[account] */\n      0xffffffffffffffffffffffffffffffffffffffff\n      and\n      0xffffffffffffffffffffffffffffffffffffffff\n      and\n      dup2\n      mstore\n      0x20\n      add\n      swap1\n      dup2\n      mstore\n      0x20\n      add\n      0x00\n      keccak256\n        /* \"Contract.sol\":25935:25986  _balances[account] = _balances[account].add(amount) */\n      dup2\n      swap1\n      sstore\n      pop\n        /* \"Contract.sol\":26022:26029  account */\n      dup2\n        /* \"Contract.sol\":26001:26038  Transfer(address(0), account, amount) */\n      0xffffffffffffffffffffffffffffffffffffffff\n      and\n        /* \"Contract.sol\":26018:26019  0 */\n      0x00\n        /* \"Contract.sol\":26001:26038  Transfer(address(0), account, amount) */\n      0xffffffffffffffffffffffffffffffffffffffff\n      and\n      0xddf252ad1be2c89b69c2b068fc378daa952ba7f163c4a11628f55a4df523b3ef\n        /* \"Contract.sol\":26031:26037  amount */\n      dup4\n        /* \"Contract.sol\":26001:26038  Transfer(address(0), account, amount) */\n      mload(0x40)\n      dup1\n      dup3\n      dup2\n      mstore\n      0x20\n      add\n      swap2\n      pop\n      pop\n      mload(0x40)\n      dup1\n      swap2\n      sub\n      swap1\n      log3\n        /* \"Contract.sol\":25675:26045  function _mint(address account, uint256 amount) internal virtual {... */\n      pop\n      pop\n      jump\t// out\n        /* \"Contract.sol\":26364:26774  function _burn(address account, uint256 amount) internal virtual {... */\n    tag_191:\n        /* \"Contract.sol\":26466:26467  0 */\n      0x00\n        /* \"Contract.sol\":26447:26468  account != address(0) */\n      0xffffffffffffffffffffffffffffffffffffffff\n      and\n        /* \"Contract.sol\":26447:26454  account */\n      dup3\n        /* \"Contract.sol\":26447:26468  account != address(0) */\n      0xffffffffffffffffffffffffffffffffffffffff\n      and\n      eq\n      iszero\n        /* \"Contract.sol\":26439:26506  require(account != address(0), \"ERC20: burn from the zero address\") */\n      tag_314\n      jumpi\n      mload(0x40)\n      0x08c379a000000000000000000000000000000000000000000000000000000000\n      dup2\n      mstore\n      0x04\n      add\n      dup1\n      dup1\n      0x20\n      add\n      dup3\n      dup2\n      sub\n      dup3\n      mstore\n      0x21\n      dup2\n      mstore\n      0x20\n      add\n      dup1\n      data_b16788493b576042bb52c50ed56189e0b250db113c7bfb1c3897d25cf9632d7f\n      0x21\n      swap2\n      codecopy\n      0x40\n      add\n      swap2\n      pop\n      pop\n      mload(0x40)\n      dup1\n      swap2\n      sub\n      swap1\n      revert\n    tag_314:\n        /* \"Contract.sol\":26517:26566  _beforeTokenTransfer(account, address(0), amount) */\n      tag_315\n        /* \"Contract.sol\":26538:26545  account */\n      dup3\n        /* \"Contract.sol\":26555:26556  0 */\n      0x00\n        /* \"Contract.sol\":26559:26565  amount */\n      dup4\n        /* \"Contract.sol\":26517:26537  _beforeTokenTransfer */\n      tag_310\n        /* \"Contract.sol\":26517:26566  _beforeTokenTransfer(account, address(0), amount) */\n      jump\t// in\n    tag_315:\n        /* \"Contract.sol\":26598:26666  _balances[account].sub(amount, \"ERC20: burn amount exceeds balance\") */\n      tag_316\n        /* \"Contract.sol\":26621:26627  amount */\n      dup2\n        /* \"Contract.sol\":26598:26666  _balances[account].sub(amount, \"ERC20: burn amount exceeds balance\") */\n      mload(0x40)\n      dup1\n      0x60\n      add\n      0x40\n      mstore\n      dup1\n      0x22\n      dup2\n      mstore\n      0x20\n      add\n      data_149b126e7125232b4200af45303d04fba8b74653b1a295a6a561a528c33fefdd\n      0x22\n      swap2\n      codecopy\n        /* \"Contract.sol\":26598:26607  _balances */\n      0x00\n        /* \"Contract.sol\":26598:26616  _balances[account] */\n      dup1\n        /* \"Contract.sol\":26608:26615  account */\n      dup7\n        /* \"Contract.sol\":26598:26616  _balances[account] */\n      0xffffffffffffffffffffffffffffffffffffffff\n      and\n      0xffffffffffffffffffffffffffffffffffffffff\n      and\n      dup2\n      mstore\n      0x20\n      add\n      swap1\n      dup2\n      mstore\n      0x20\n      add\n      0x00\n      keccak256\n      sload\n        /* \"Contract.sol\":26598:26620  _balances[account].sub */\n      tag_235\n      swap1\n        /* \"Contract.sol\":26598:26666  _balances[account].sub(amount, \"ERC20: burn amount exceeds balance\") */\n      swap3\n      swap2\n      swap1\n      0xffffffff\n      and\n      jump\t// in\n    tag_316:\n        /* \"Contract.sol\":26577:26586  _balances */\n      0x00\n        /* \"Contract.sol\":26577:26595  _balances[account] */\n      dup1\n        /* \"Contract.sol\":26587:26594  account */\n      dup5\n        /* \"Contract.sol\":26577:26595  _balances[account] */\n      0xffffffffffffffffffffffffffffffffffffffff\n      and\n      0xffffffffffffffffffffffffffffffffffffffff\n      and\n      dup2\n      mstore\n      0x20\n      add\n      swap1\n      dup2\n      mstore\n      0x20\n      add\n      0x00\n      keccak256\n        /* \"Contract.sol\":26577:26666  _balances[account] = _balances[account].sub(amount, \"ERC20: burn amount exceeds balance\") */\n      dup2\n      swap1\n      sstore\n      pop\n        /* \"Contract.sol\":26691:26715  _totalSupply.sub(amount) */\n      tag_317\n        /* \"Contract.sol\":26708:26714  amount */\n      dup2\n        /* \"Contract.sol\":26691:26703  _totalSupply */\n      sload(0x02)\n        /* \"Contract.sol\":26691:26707  _totalSupply.sub */\n      tag_143\n      swap1\n        /* \"Contract.sol\":26691:26715  _totalSupply.sub(amount) */\n      swap2\n      swap1\n      0xffffffff\n      and\n      jump\t// in\n    tag_317:\n        /* \"Contract.sol\":26676:26688  _totalSupply */\n      0x02\n        /* \"Contract.sol\":26676:26715  _totalSupply = _totalSupply.sub(amount) */\n      dup2\n      swap1\n      sstore\n      pop\n        /* \"Contract.sol\":26756:26757  0 */\n      0x00\n        /* \"Contract.sol\":26730:26767  Transfer(account, address(0), amount) */\n      0xffffffffffffffffffffffffffffffffffffffff\n      and\n        /* \"Contract.sol\":26739:26746  account */\n      dup3\n        /* \"Contract.sol\":26730:26767  Transfer(account, address(0), amount) */\n      0xffffffffffffffffffffffffffffffffffffffff\n      and\n      0xddf252ad1be2c89b69c2b068fc378daa952ba7f163c4a11628f55a4df523b3ef\n        /* \"Contract.sol\":26760:26766  amount */\n      dup4\n        /* \"Contract.sol\":26730:26767  Transfer(account, address(0), amount) */\n      mload(0x40)\n      dup1\n      dup3\n      dup2\n      mstore\n      0x20\n      add\n      swap2\n      pop\n      pop\n      mload(0x40)\n      dup1\n      swap2\n      sub\n      swap1\n      log3\n        /* \"Contract.sol\":26364:26774  function _burn(address account, uint256 amount) internal virtual {... */\n      pop\n      pop\n      jump\t// out\n        /* \"Contract.sol\":40576:40944  function _delegate(address delegator, address delegatee) internal {... */\n    tag_196:\n        /* \"Contract.sol\":40652:40675  address currentDelegate */\n      0x00\n        /* \"Contract.sol\":40678:40688  _delegates */\n      0x09\n        /* \"Contract.sol\":40678:40699  _delegates[delegator] */\n      0x00\n        /* \"Contract.sol\":40689:40698  delegator */\n      dup5\n        /* \"Contract.sol\":40678:40699  _delegates[delegator] */\n      0xffffffffffffffffffffffffffffffffffffffff\n      and\n      0xffffffffffffffffffffffffffffffffffffffff\n      and\n      dup2\n      mstore\n      0x20\n      add\n      swap1\n      dup2\n      mstore\n      0x20\n      add\n      0x00\n      keccak256\n      0x00\n      swap1\n      sload\n      swap1\n      0x0100\n      exp\n      swap1\n      div\n      0xffffffffffffffffffffffffffffffffffffffff\n      and\n        /* \"Contract.sol\":40652:40699  address currentDelegate = _delegates[delegator] */\n      swap1\n      pop\n        /* \"Contract.sol\":40709:40730  uint delegatorBalance */\n      0x00\n        /* \"Contract.sol\":40733:40753  balanceOf(delegator) */\n      tag_319\n        /* \"Contract.sol\":40743:40752  delegator */\n      dup5\n        /* \"Contract.sol\":40733:40742  balanceOf */\n      tag_92\n        /* \"Contract.sol\":40733:40753  balanceOf(delegator) */\n      jump\t// in\n    tag_319:\n        /* \"Contract.sol\":40709:40753  uint delegatorBalance = balanceOf(delegator) */\n      swap1\n      pop\n        /* \"Contract.sol\":40787:40796  delegatee */\n      dup3\n        /* \"Contract.sol\":40763:40773  _delegates */\n      0x09\n        /* \"Contract.sol\":40763:40784  _delegates[delegator] */\n      0x00\n        /* \"Contract.sol\":40774:40783  delegator */\n      dup7\n        /* \"Contract.sol\":40763:40784  _delegates[delegator] */\n      0xffffffffffffffffffffffffffffffffffffffff\n      and\n      0xffffffffffffffffffffffffffffffffffffffff\n      and\n      dup2\n      mstore\n      0x20\n      add\n      swap1\n      dup2\n      mstore\n      0x20\n      add\n      0x00\n      keccak256\n      0x00\n        /* \"Contract.sol\":40763:40796  _delegates[delegator] = delegatee */\n      0x0100\n      exp\n      dup2\n      sload\n      dup2\n      0xffffffffffffffffffffffffffffffffffffffff\n      mul\n      not\n      and\n      swap1\n      dup4\n      0xffffffffffffffffffffffffffffffffffffffff\n      and\n      mul\n      or\n      swap1\n      sstore\n      pop\n        /* \"Contract.sol\":40856:40865  delegatee */\n      dup3\n        /* \"Contract.sol\":40812:40866  DelegateChanged(delegator, currentDelegate, delegatee) */\n      0xffffffffffffffffffffffffffffffffffffffff\n      and\n        /* \"Contract.sol\":40839:40854  currentDelegate */\n      dup3\n        /* \"Contract.sol\":40812:40866  DelegateChanged(delegator, currentDelegate, delegatee) */\n      0xffffffffffffffffffffffffffffffffffffffff\n      and\n        /* \"Contract.sol\":40828:40837  delegator */\n      dup6\n        /* \"Contract.sol\":40812:40866  DelegateChanged(delegator, currentDelegate, delegatee) */\n      0xffffffffffffffffffffffffffffffffffffffff\n      and\n      0x3134e8a2e6d97e929a7e54011ea5485d7d196dd5f0ba4d4ef95803e8e3fc257f\n      mload(0x40)\n      mload(0x40)\n      dup1\n      swap2\n      sub\n      swap1\n      log4\n        /* \"Contract.sol\":40877:40937  _moveDelegates(currentDelegate, delegatee, delegatorBalance) */\n      tag_320\n        /* \"Contract.sol\":40892:40907  currentDelegate */\n      dup3\n        /* \"Contract.sol\":40909:40918  delegatee */\n      dup5\n        /* \"Contract.sol\":40920:40936  delegatorBalance */\n      dup4\n        /* \"Contract.sol\":40877:40891  _moveDelegates */\n      tag_169\n        /* \"Contract.sol\":40877:40937  _moveDelegates(currentDelegate, delegatee, delegatorBalance) */\n      jump\t// in\n    tag_320:\n        /* \"Contract.sol\":40576:40944  function _delegate(address delegator, address delegatee) internal {... */\n      pop\n      pop\n      pop\n      pop\n      jump\t// out\n        /* \"Contract.sol\":30653:30770  function _unpause() internal virtual whenPaused {... */\n    tag_224:\n        /* \"Contract.sol\":30221:30228  _paused */\n      0x07\n      0x14\n      swap1\n      sload\n      swap1\n      0x0100\n      exp\n      swap1\n      div\n      0xff\n      and\n        /* \"Contract.sol\":30213:30253  require(_paused, \"Pausable: not paused\") */\n      tag_322\n      jumpi\n      mload(0x40)\n      0x08c379a000000000000000000000000000000000000000000000000000000000\n      dup2\n      mstore\n      0x04\n      add\n      dup1\n      dup1\n      0x20\n      add\n      dup3\n      dup2\n      sub\n      dup3\n      mstore\n      0x14\n      dup2\n      mstore\n      0x20\n      add\n      dup1\n      0x5061757361626c653a206e6f7420706175736564000000000000000000000000\n      dup2\n      mstore\n      pop\n      0x20\n      add\n      swap2\n      pop\n      pop\n      mload(0x40)\n      dup1\n      swap2\n      sub\n      swap1\n      revert\n    tag_322:\n        /* \"Contract.sol\":30721:30726  false */\n      0x00\n        /* \"Contract.sol\":30711:30718  _paused */\n      0x07\n      0x14\n        /* \"Contract.sol\":30711:30726  _paused = false */\n      0x0100\n      exp\n      dup2\n      sload\n      dup2\n      0xff\n      mul\n      not\n      and\n      swap1\n      dup4\n      iszero\n      iszero\n      mul\n      or\n      swap1\n      sstore\n      pop\n        /* \"Contract.sol\":30741:30763  Unpaused(_msgSender()) */\n      0x5db9ee0a495bf2e6ff9c91a7834c1ba4fdd244a5e8aa4e537bd38aeae4b073aa\n        /* \"Contract.sol\":30750:30762  _msgSender() */\n      tag_324\n        /* \"Contract.sol\":30750:30760  _msgSender */\n      tag_152\n        /* \"Contract.sol\":30750:30762  _msgSender() */\n      jump\t// in\n    tag_324:\n        /* \"Contract.sol\":30741:30763  Unpaused(_msgSender()) */\n      mload(0x40)\n      dup1\n      dup3\n      0xffffffffffffffffffffffffffffffffffffffff\n      and\n      dup2\n      mstore\n      0x20\n      add\n      swap2\n      pop\n      pop\n      mload(0x40)\n      dup1\n      swap2\n      sub\n      swap1\n      log1\n        /* \"Contract.sol\":30653:30770  function _unpause() internal virtual whenPaused {... */\n      jump\t// out\n        /* \"Contract.sol\":8411:8598  function sub(uint256 a, uint256 b, string memory errorMessage) internal pure returns (uint256) {... */\n    tag_235:\n        /* \"Contract.sol\":8497:8504  uint256 */\n      0x00\n        /* \"Contract.sol\":8529:8530  a */\n      dup4\n        /* \"Contract.sol\":8524:8525  b */\n      dup4\n        /* \"Contract.sol\":8524:8530  b <= a */\n      gt\n      iszero\n        /* \"Contract.sol\":8532:8544  errorMessage */\n      dup3\n        /* \"Contract.sol\":8516:8545  require(b <= a, errorMessage) */\n      swap1\n      tag_326\n      jumpi\n      mload(0x40)\n      0x08c379a000000000000000000000000000000000000000000000000000000000\n      dup2\n      mstore\n      0x04\n      add\n      dup1\n      dup1\n      0x20\n      add\n      dup3\n      dup2\n      sub\n      dup3\n      mstore\n      dup4\n      dup2\n      dup2\n      mload\n      dup2\n      mstore\n      0x20\n      add\n      swap2\n      pop\n      dup1\n      mload\n      swap1\n      0x20\n      add\n      swap1\n      dup1\n      dup4\n      dup4\n      0x00\n    tag_327:\n      dup4\n      dup2\n      lt\n      iszero\n      tag_329\n      jumpi\n      dup1\n      dup3\n      add\n      mload\n      dup2\n      dup5\n      add\n      mstore\n      0x20\n      dup2\n      add\n      swap1\n      pop\n      jump(tag_327)\n    tag_329:\n      pop\n      pop\n      pop\n      pop\n      swap1\n      pop\n      swap1\n      dup2\n      add\n      swap1\n      0x1f\n      and\n      dup1\n      iszero\n      tag_330\n      jumpi\n      dup1\n      dup3\n      sub\n      dup1\n      mload\n      0x01\n      dup4\n      0x20\n      sub\n      0x0100\n      exp\n      sub\n      not\n      and\n      dup2\n      mstore\n      0x20\n      add\n      swap2\n      pop\n    tag_330:\n      pop\n      swap3\n      pop\n      pop\n      pop\n      mload(0x40)\n      dup1\n      swap2\n      sub\n      swap1\n      revert\n    tag_326:\n      pop\n        /* \"Contract.sol\":8555:8564  uint256 c */\n      0x00\n        /* \"Contract.sol\":8571:8572  b */\n      dup4\n        /* \"Contract.sol\":8567:8568  a */\n      dup6\n        /* \"Contract.sol\":8567:8572  a - b */\n      sub\n        /* \"Contract.sol\":8555:8572  uint256 c = a - b */\n      swap1\n      pop\n        /* \"Contract.sol\":8590:8591  c */\n      dup1\n        /* \"Contract.sol\":8583:8591  return c */\n      swap2\n      pop\n      pop\n        /* \"Contract.sol\":8411:8598  function sub(uint256 a, uint256 b, string memory errorMessage) internal pure returns (uint256) {... */\n      swap4\n      swap3\n      pop\n      pop\n      pop\n      jump\t// out\n        /* \"Contract.sol\":21578:21750  function transfer(address recipient, uint256 amount) public virtual override returns (bool) {... */\n    tag_244:\n        /* \"Contract.sol\":21664:21668  bool */\n      0x00\n        /* \"Contract.sol\":21680:21722  _transfer(_msgSender(), recipient, amount) */\n      tag_332\n        /* \"Contract.sol\":21690:21702  _msgSender() */\n      tag_333\n        /* \"Contract.sol\":21690:21700  _msgSender */\n      tag_152\n        /* \"Contract.sol\":21690:21702  _msgSender() */\n      jump\t// in\n    tag_333:\n        /* \"Contract.sol\":21704:21713  recipient */\n      dup5\n        /* \"Contract.sol\":21715:21721  amount */\n      dup5\n        /* \"Contract.sol\":21680:21689  _transfer */\n      tag_288\n        /* \"Contract.sol\":21680:21722  _transfer(_msgSender(), recipient, amount) */\n      jump\t// in\n    tag_332:\n        /* \"Contract.sol\":21739:21743  true */\n      0x01\n        /* \"Contract.sol\":21732:21743  return true */\n      swap1\n      pop\n        /* \"Contract.sol\":21578:21750  function transfer(address recipient, uint256 amount) public virtual override returns (bool) {... */\n      swap3\n      swap2\n      pop\n      pop\n      jump\t// out\n        /* \"Contract.sol\":42332:42481  function getChainId() internal pure returns (uint) {... */\n    tag_252:\n        /* \"Contract.sol\":42377:42381  uint */\n      0x00\n        /* \"Contract.sol\":42393:42408  uint256 chainId */\n      dup1\n        /* \"Contract.sol\":42440:42449  chainid() */\n      chainid\n        /* \"Contract.sol\":42429:42449  chainId := chainid() */\n      swap1\n      pop\n        /* \"Contract.sol\":42467:42474  chainId */\n      dup1\n        /* \"Contract.sol\":42460:42474  return chainId */\n      swap2\n      pop\n      pop\n        /* \"Contract.sol\":42332:42481  function getChainId() internal pure returns (uint) {... */\n      swap1\n      jump\t// out\n        /* \"Contract.sol\":30406:30521  function _pause() internal virtual whenNotPaused {... */\n    tag_266:\n        /* \"Contract.sol\":29957:29964  _paused */\n      0x07\n      0x14\n      swap1\n      sload\n      swap1\n      0x0100\n      exp\n      swap1\n      div\n      0xff\n      and\n        /* \"Contract.sol\":29956:29964  !_paused */\n      iszero\n        /* \"Contract.sol\":29948:29985  require(!_paused, \"Pausable: paused\") */\n      tag_336\n      jumpi\n      mload(0x40)\n      0x08c379a000000000000000000000000000000000000000000000000000000000\n      dup2\n      mstore\n      0x04\n      add\n      dup1\n      dup1\n      0x20\n      add\n      dup3\n      dup2\n      sub\n      dup3\n      mstore\n      0x10\n      dup2\n      mstore\n      0x20\n      add\n      dup1\n      0x5061757361626c653a2070617573656400000000000000000000000000000000\n      dup2\n      mstore\n      pop\n      0x20\n      add\n      swap2\n      pop\n      pop\n      mload(0x40)\n      dup1\n      swap2\n      sub\n      swap1\n      revert\n    tag_336:\n        /* \"Contract.sol\":30475:30479  true */\n      0x01\n        /* \"Contract.sol\":30465:30472  _paused */\n      0x07\n      0x14\n        /* \"Contract.sol\":30465:30479  _paused = true */\n      0x0100\n      exp\n      dup2\n      sload\n      dup2\n      0xff\n      mul\n      not\n      and\n      swap1\n      dup4\n      iszero\n      iszero\n      mul\n      or\n      swap1\n      sstore\n      pop\n        /* \"Contract.sol\":30494:30514  Paused(_msgSender()) */\n      0x62e78cea01bee320cd4e420270b5ea74000d11b0c9f74754ebdbfc544b05a258\n        /* \"Contract.sol\":30501:30513  _msgSender() */\n      tag_338\n        /* \"Contract.sol\":30501:30511  _msgSender */\n      tag_152\n        /* \"Contract.sol\":30501:30513  _msgSender() */\n      jump\t// in\n    tag_338:\n        /* \"Contract.sol\":30494:30514  Paused(_msgSender()) */\n      mload(0x40)\n      dup1\n      dup3\n      0xffffffffffffffffffffffffffffffffffffffff\n      and\n      dup2\n      mstore\n      0x20\n      add\n      swap2\n      pop\n      pop\n      mload(0x40)\n      dup1\n      swap2\n      sub\n      swap1\n      log1\n        /* \"Contract.sol\":30406:30521  function _pause() internal virtual whenNotPaused {... */\n      jump\t// out\n        /* \"Contract.sol\":24875:25405  function _transfer(address sender, address recipient, uint256 amount) internal virtual {... */\n    tag_288:\n        /* \"Contract.sol\":24998:24999  0 */\n      0x00\n        /* \"Contract.sol\":24980:25000  sender != address(0) */\n      0xffffffffffffffffffffffffffffffffffffffff\n      and\n        /* \"Contract.sol\":24980:24986  sender */\n      dup4\n        /* \"Contract.sol\":24980:25000  sender != address(0) */\n      0xffffffffffffffffffffffffffffffffffffffff\n      and\n      eq\n      iszero\n        /* \"Contract.sol\":24972:25042  require(sender != address(0), \"ERC20: transfer from the zero address\") */\n      tag_340\n      jumpi\n      mload(0x40)\n      0x08c379a000000000000000000000000000000000000000000000000000000000\n      dup2\n      mstore\n      0x04\n      add\n      dup1\n      dup1\n      0x20\n      add\n      dup3\n      dup2\n      sub\n      dup3\n      mstore\n      0x25\n      dup2\n      mstore\n      0x20\n      add\n      dup1\n      data_baecc556b46f4ed0f2b4cb599d60785ac8563dd2dc0a5bf12edea1c39e5e1fea\n      0x25\n      swap2\n      codecopy\n      0x40\n      add\n      swap2\n      pop\n      pop\n      mload(0x40)\n      dup1\n      swap2\n      sub\n      swap1\n      revert\n    tag_340:\n        /* \"Contract.sol\":25081:25082  0 */\n      0x00\n        /* \"Contract.sol\":25060:25083  recipient != address(0) */\n      0xffffffffffffffffffffffffffffffffffffffff\n      and\n        /* \"Contract.sol\":25060:25069  recipient */\n      dup3\n        /* \"Contract.sol\":25060:25083  recipient != address(0) */\n      0xffffffffffffffffffffffffffffffffffffffff\n      and\n      eq\n      iszero\n        /* \"Contract.sol\":25052:25123  require(recipient != address(0), \"ERC20: transfer to the zero address\") */\n      tag_341\n      jumpi\n      mload(0x40)\n      0x08c379a000000000000000000000000000000000000000000000000000000000\n      dup2\n      mstore\n      0x04\n      add\n      dup1\n      dup1\n      0x20\n      add\n      dup3\n      dup2\n      sub\n      dup3\n      mstore\n      0x23\n      dup2\n      mstore\n      0x20\n      add\n      dup1\n      data_0557e210f7a69a685100a7e4e3d0a7024c546085cee28910fd17d0b081d9516f\n      0x23\n      swap2\n      codecopy\n      0x40\n      add\n      swap2\n      pop\n      pop\n      mload(0x40)\n      dup1\n      swap2\n      sub\n      swap1\n      revert\n    tag_341:\n        /* \"Contract.sol\":25134:25181  _beforeTokenTransfer(sender, recipient, amount) */\n      tag_342\n        /* \"Contract.sol\":25155:25161  sender */\n      dup4\n        /* \"Contract.sol\":25163:25172  recipient */\n      dup4\n        /* \"Contract.sol\":25174:25180  amount */\n      dup4\n        /* \"Contract.sol\":25134:25154  _beforeTokenTransfer */\n      tag_310\n        /* \"Contract.sol\":25134:25181  _beforeTokenTransfer(sender, recipient, amount) */\n      jump\t// in\n    tag_342:\n        /* \"Contract.sol\":25212:25283  _balances[sender].sub(amount, \"ERC20: transfer amount exceeds balance\") */\n      tag_343\n        /* \"Contract.sol\":25234:25240  amount */\n      dup2\n        /* \"Contract.sol\":25212:25283  _balances[sender].sub(amount, \"ERC20: transfer amount exceeds balance\") */\n      mload(0x40)\n      dup1\n      0x60\n      add\n      0x40\n      mstore\n      dup1\n      0x26\n      dup2\n      mstore\n      0x20\n      add\n      data_4107e8a8b9e94bf8ff83080ddec1c0bffe897ebc2241b89d44f66b3d274088b6\n      0x26\n      swap2\n      codecopy\n        /* \"Contract.sol\":25212:25221  _balances */\n      0x00\n        /* \"Contract.sol\":25212:25229  _balances[sender] */\n      dup1\n        /* \"Contract.sol\":25222:25228  sender */\n      dup8\n        /* \"Contract.sol\":25212:25229  _balances[sender] */\n      0xffffffffffffffffffffffffffffffffffffffff\n      and\n      0xffffffffffffffffffffffffffffffffffffffff\n      and\n      dup2\n      mstore\n      0x20\n      add\n      swap1\n      dup2\n      mstore\n      0x20\n      add\n      0x00\n      keccak256\n      sload\n        /* \"Contract.sol\":25212:25233  _balances[sender].sub */\n      tag_235\n      swap1\n        /* \"Contract.sol\":25212:25283  _balances[sender].sub(amount, \"ERC20: transfer amount exceeds balance\") */\n      swap3\n      swap2\n      swap1\n      0xffffffff\n      and\n      jump\t// in\n    tag_343:\n        /* \"Contract.sol\":25192:25201  _balances */\n      0x00\n        /* \"Contract.sol\":25192:25209  _balances[sender] */\n      dup1\n        /* \"Contract.sol\":25202:25208  sender */\n      dup6\n        /* \"Contract.sol\":25192:25209  _balances[sender] */\n      0xffffffffffffffffffffffffffffffffffffffff\n      and\n      0xffffffffffffffffffffffffffffffffffffffff\n      and\n      dup2\n      mstore\n      0x20\n      add\n      swap1\n      dup2\n      mstore\n      0x20\n      add\n      0x00\n      keccak256\n        /* \"Contract.sol\":25192:25283  _balances[sender] = _balances[sender].sub(amount, \"ERC20: transfer amount exceeds balance\") */\n      dup2\n      swap1\n      sstore\n      pop\n        /* \"Contract.sol\":25316:25348  _balances[recipient].add(amount) */\n      tag_344\n        /* \"Contract.sol\":25341:25347  amount */\n      dup2\n        /* \"Contract.sol\":25316:25325  _balances */\n      0x00\n        /* \"Contract.sol\":25316:25336  _balances[recipient] */\n      dup1\n        /* \"Contract.sol\":25326:25335  recipient */\n      dup6\n        /* \"Contract.sol\":25316:25336  _balances[recipient] */\n      0xffffffffffffffffffffffffffffffffffffffff\n      and\n      0xffffffffffffffffffffffffffffffffffffffff\n      and\n      dup2\n      mstore\n      0x20\n      add\n      swap1\n      dup2\n      mstore\n      0x20\n      add\n      0x00\n      keccak256\n      sload\n        /* \"Contract.sol\":25316:25340  _balances[recipient].add */\n      tag_142\n      swap1\n        /* \"Contract.sol\":25316:25348  _balances[recipient].add(amount) */\n      swap2\n      swap1\n      0xffffffff\n      and\n      jump\t// in\n    tag_344:\n        /* \"Contract.sol\":25293:25302  _balances */\n      0x00\n        /* \"Contract.sol\":25293:25313  _balances[recipient] */\n      dup1\n        /* \"Contract.sol\":25303:25312  recipient */\n      dup5\n        /* \"Contract.sol\":25293:25313  _balances[recipient] */\n      0xffffffffffffffffffffffffffffffffffffffff\n      and\n      0xffffffffffffffffffffffffffffffffffffffff\n      and\n      dup2\n      mstore\n      0x20\n      add\n      swap1\n      dup2\n      mstore\n      0x20\n      add\n      0x00\n      keccak256\n        /* \"Contract.sol\":25293:25348  _balances[recipient] = _balances[recipient].add(amount) */\n      dup2\n      swap1\n      sstore\n      pop\n        /* \"Contract.sol\":25380:25389  recipient */\n      dup2\n        /* \"Contract.sol\":25363:25398  Transfer(sender, recipient, amount) */\n      0xffffffffffffffffffffffffffffffffffffffff\n      and\n        /* \"Contract.sol\":25372:25378  sender */\n      dup4\n        /* \"Contract.sol\":25363:25398  Transfer(sender, recipient, amount) */\n      0xffffffffffffffffffffffffffffffffffffffff\n      and\n      0xddf252ad1be2c89b69c2b068fc378daa952ba7f163c4a11628f55a4df523b3ef\n        /* \"Contract.sol\":25391:25397  amount */\n      dup4\n        /* \"Contract.sol\":25363:25398  Transfer(sender, recipient, amount) */\n      mload(0x40)\n      dup1\n      dup3\n      dup2\n      mstore\n      0x20\n      add\n      swap2\n      pop\n      pop\n      mload(0x40)\n      dup1\n      swap2\n      sub\n      swap1\n      log3\n        /* \"Contract.sol\":24875:25405  function _transfer(address sender, address recipient, uint256 amount) internal virtual {... */\n      pop\n      pop\n      pop\n      jump\t// out\n        /* \"Contract.sol\":41777:42325  function _writeCheckpoint(address delegatee, uint32 nCheckpoints, uint oldVotes, uint newVotes) internal {... */\n    tag_301:\n        /* \"Contract.sol\":41890:41906  uint blockNumber */\n      0x00\n        /* \"Contract.sol\":41909:41921  block.number */\n      number\n        /* \"Contract.sol\":41890:41921  uint blockNumber = block.number */\n      swap1\n      pop\n        /* \"Contract.sol\":41949:41950  0 */\n      0x00\n        /* \"Contract.sol\":41934:41946  nCheckpoints */\n      dup5\n        /* \"Contract.sol\":41934:41950  nCheckpoints > 0 */\n      0xffffffff\n      and\n      gt\n        /* \"Contract.sol\":41934:42019  nCheckpoints > 0 && checkpoints[delegatee][nCheckpoints - 1].fromBlock == blockNumber */\n      dup1\n      iszero\n      tag_346\n      jumpi\n      pop\n        /* \"Contract.sol\":42008:42019  blockNumber */\n      dup1\n        /* \"Contract.sol\":41954:41965  checkpoints */\n      0x0a\n        /* \"Contract.sol\":41954:41976  checkpoints[delegatee] */\n      0x00\n        /* \"Contract.sol\":41966:41975  delegatee */\n      dup8\n        /* \"Contract.sol\":41954:41976  checkpoints[delegatee] */\n      0xffffffffffffffffffffffffffffffffffffffff\n      and\n      0xffffffffffffffffffffffffffffffffffffffff\n      and\n      dup2\n      mstore\n      0x20\n      add\n      swap1\n      dup2\n      mstore\n      0x20\n      add\n      0x00\n      keccak256\n        /* \"Contract.sol\":41954:41994  checkpoints[delegatee][nCheckpoints - 1] */\n      0x00\n        /* \"Contract.sol\":41992:41993  1 */\n      0x01\n        /* \"Contract.sol\":41977:41989  nCheckpoints */\n      dup8\n        /* \"Contract.sol\":41977:41993  nCheckpoints - 1 */\n      sub\n        /* \"Contract.sol\":41954:41994  checkpoints[delegatee][nCheckpoints - 1] */\n      0xffffffff\n      and\n      0xffffffff\n      and\n      dup2\n      mstore\n      0x20\n      add\n      swap1\n      dup2\n      mstore\n      0x20\n      add\n      0x00\n      keccak256\n        /* \"Contract.sol\":41954:42004  checkpoints[delegatee][nCheckpoints - 1].fromBlock */\n      0x00\n      add\n      sload\n        /* \"Contract.sol\":41954:42019  checkpoints[delegatee][nCheckpoints - 1].fromBlock == blockNumber */\n      eq\n        /* \"Contract.sol\":41934:42019  nCheckpoints > 0 && checkpoints[delegatee][nCheckpoints - 1].fromBlock == blockNumber */\n    tag_346:\n        /* \"Contract.sol\":41930:42254  if (nCheckpoints > 0 && checkpoints[delegatee][nCheckpoints - 1].fromBlock == blockNumber) {... */\n      iszero\n      tag_347\n      jumpi\n        /* \"Contract.sol\":42082:42090  newVotes */\n      dup2\n        /* \"Contract.sol\":42033:42044  checkpoints */\n      0x0a\n        /* \"Contract.sol\":42033:42055  checkpoints[delegatee] */\n      0x00\n        /* \"Contract.sol\":42045:42054  delegatee */\n      dup8\n        /* \"Contract.sol\":42033:42055  checkpoints[delegatee] */\n      0xffffffffffffffffffffffffffffffffffffffff\n      and\n      0xffffffffffffffffffffffffffffffffffffffff\n      and\n      dup2\n      mstore\n      0x20\n      add\n      swap1\n      dup2\n      mstore\n      0x20\n      add\n      0x00\n      keccak256\n        /* \"Contract.sol\":42033:42073  checkpoints[delegatee][nCheckpoints - 1] */\n      0x00\n        /* \"Contract.sol\":42071:42072  1 */\n      0x01\n        /* \"Contract.sol\":42056:42068  nCheckpoints */\n      dup8\n        /* \"Contract.sol\":42056:42072  nCheckpoints - 1 */\n      sub\n        /* \"Contract.sol\":42033:42073  checkpoints[delegatee][nCheckpoints - 1] */\n      0xffffffff\n      and\n      0xffffffff\n      and\n      dup2\n      mstore\n      0x20\n      add\n      swap1\n      dup2\n      mstore\n      0x20\n      add\n      0x00\n      keccak256\n        /* \"Contract.sol\":42033:42079  checkpoints[delegatee][nCheckpoints - 1].votes */\n      0x01\n      add\n        /* \"Contract.sol\":42033:42090  checkpoints[delegatee][nCheckpoints - 1].votes = newVotes */\n      dup2\n      swap1\n      sstore\n      pop\n        /* \"Contract.sol\":41930:42254  if (nCheckpoints > 0 && checkpoints[delegatee][nCheckpoints - 1].fromBlock == blockNumber) {... */\n      jump(tag_348)\n    tag_347:\n        /* \"Contract.sol\":42156:42189  Checkpoint(blockNumber, newVotes) */\n      mload(0x40)\n      dup1\n      0x40\n      add\n      0x40\n      mstore\n      dup1\n        /* \"Contract.sol\":42167:42178  blockNumber */\n      dup3\n        /* \"Contract.sol\":42156:42189  Checkpoint(blockNumber, newVotes) */\n      dup2\n      mstore\n      0x20\n      add\n        /* \"Contract.sol\":42180:42188  newVotes */\n      dup4\n        /* \"Contract.sol\":42156:42189  Checkpoint(blockNumber, newVotes) */\n      dup2\n      mstore\n      pop\n        /* \"Contract.sol\":42117:42128  checkpoints */\n      0x0a\n        /* \"Contract.sol\":42117:42139  checkpoints[delegatee] */\n      0x00\n        /* \"Contract.sol\":42129:42138  delegatee */\n      dup8\n        /* \"Contract.sol\":42117:42139  checkpoints[delegatee] */\n      0xffffffffffffffffffffffffffffffffffffffff\n      and\n      0xffffffffffffffffffffffffffffffffffffffff\n      and\n      dup2\n      mstore\n      0x20\n      add\n      swap1\n      dup2\n      mstore\n      0x20\n      add\n      0x00\n      keccak256\n        /* \"Contract.sol\":42117:42153  checkpoints[delegatee][nCheckpoints] */\n      0x00\n        /* \"Contract.sol\":42140:42152  nCheckpoints */\n      dup7\n        /* \"Contract.sol\":42117:42153  checkpoints[delegatee][nCheckpoints] */\n      0xffffffff\n      and\n      0xffffffff\n      and\n      dup2\n      mstore\n      0x20\n      add\n      swap1\n      dup2\n      mstore\n      0x20\n      add\n      0x00\n      keccak256\n        /* \"Contract.sol\":42117:42189  checkpoints[delegatee][nCheckpoints] = Checkpoint(blockNumber, newVotes) */\n      0x00\n      dup3\n      add\n      mload\n      dup2\n      0x00\n      add\n      sstore\n      0x20\n      dup3\n      add\n      mload\n      dup2\n      0x01\n      add\n      sstore\n      swap1\n      pop\n      pop\n        /* \"Contract.sol\":42244:42245  1 */\n      0x01\n        /* \"Contract.sol\":42229:42241  nCheckpoints */\n      dup5\n        /* \"Contract.sol\":42229:42245  nCheckpoints + 1 */\n      add\n        /* \"Contract.sol\":42201:42215  numCheckpoints */\n      0x0b\n        /* \"Contract.sol\":42201:42226  numCheckpoints[delegatee] */\n      0x00\n        /* \"Contract.sol\":42216:42225  delegatee */\n      dup8\n        /* \"Contract.sol\":42201:42226  numCheckpoints[delegatee] */\n      0xffffffffffffffffffffffffffffffffffffffff\n      and\n      0xffffffffffffffffffffffffffffffffffffffff\n      and\n      dup2\n      mstore\n      0x20\n      add\n      swap1\n      dup2\n      mstore\n      0x20\n      add\n      0x00\n      keccak256\n      0x00\n        /* \"Contract.sol\":42201:42245  numCheckpoints[delegatee] = nCheckpoints + 1 */\n      0x0100\n      exp\n      dup2\n      sload\n      dup2\n      0xffffffff\n      mul\n      not\n      and\n      swap1\n      dup4\n      0xffffffff\n      and\n      mul\n      or\n      swap1\n      sstore\n      pop\n        /* \"Contract.sol\":41930:42254  if (nCheckpoints > 0 && checkpoints[delegatee][nCheckpoints - 1].fromBlock == blockNumber) {... */\n    tag_348:\n        /* \"Contract.sol\":42288:42297  delegatee */\n      dup5\n        /* \"Contract.sol\":42267:42318  DelegateVotesChanged(delegatee, oldVotes, newVotes) */\n      0xffffffffffffffffffffffffffffffffffffffff\n      and\n      0xdec2bacdd2f05b59de34da9b523dff8be42e5e38e818c82fdb0bae774387a724\n        /* \"Contract.sol\":42299:42307  oldVotes */\n      dup5\n        /* \"Contract.sol\":42309:42317  newVotes */\n      dup5\n        /* \"Contract.sol\":42267:42318  DelegateVotesChanged(delegatee, oldVotes, newVotes) */\n      mload(0x40)\n      dup1\n      dup4\n      dup2\n      mstore\n      0x20\n      add\n      dup3\n      dup2\n      mstore\n      0x20\n      add\n      swap3\n      pop\n      pop\n      pop\n      mload(0x40)\n      dup1\n      swap2\n      sub\n      swap1\n      log2\n        /* \"Contract.sol\":41777:42325  function _writeCheckpoint(address delegatee, uint32 nCheckpoints, uint oldVotes, uint newVotes) internal {... */\n      pop\n      pop\n      pop\n      pop\n      pop\n      jump\t// out\n        /* \"Contract.sol\":32329:32641  function _beforeTokenTransfer(address from, address to, uint256 amount) internal virtual override {... */\n    tag_310:\n        /* \"Contract.sol\":32437:32481  super._beforeTokenTransfer(from, to, amount) */\n      tag_350\n        /* \"Contract.sol\":32464:32468  from */\n      dup4\n        /* \"Contract.sol\":32470:32472  to */\n      dup4\n        /* \"Contract.sol\":32474:32480  amount */\n      dup4\n        /* \"Contract.sol\":32437:32463  super._beforeTokenTransfer */\n      tag_144\n        /* \"Contract.sol\":32437:32481  super._beforeTokenTransfer(from, to, amount) */\n      jump\t// in\n    tag_350:\n        /* \"Contract.sol\":32512:32513  0 */\n      0x00\n        /* \"Contract.sol\":32496:32514  from == address(0) */\n      0xffffffffffffffffffffffffffffffffffffffff\n      and\n        /* \"Contract.sol\":32496:32500  from */\n      dup4\n        /* \"Contract.sol\":32496:32514  from == address(0) */\n      0xffffffffffffffffffffffffffffffffffffffff\n      and\n      eq\n        /* \"Contract.sol\":32492:32635  if (from == address(0)) { // When minting tokens... */\n      iszero\n      tag_351\n      jumpi\n        /* \"Contract.sol\":32590:32594  _cap */\n      sload(0x06)\n        /* \"Contract.sol\":32561:32586  totalSupply().add(amount) */\n      tag_352\n        /* \"Contract.sol\":32579:32585  amount */\n      dup3\n        /* \"Contract.sol\":32561:32574  totalSupply() */\n      tag_353\n        /* \"Contract.sol\":32561:32572  totalSupply */\n      tag_57\n        /* \"Contract.sol\":32561:32574  totalSupply() */\n      jump\t// in\n    tag_353:\n        /* \"Contract.sol\":32561:32578  totalSupply().add */\n      tag_142\n      swap1\n        /* \"Contract.sol\":32561:32586  totalSupply().add(amount) */\n      swap2\n      swap1\n      0xffffffff\n      and\n      jump\t// in\n    tag_352:\n        /* \"Contract.sol\":32561:32594  totalSupply().add(amount) <= _cap */\n      gt\n      iszero\n        /* \"Contract.sol\":32553:32624  require(totalSupply().add(amount) <= _cap, \"ERC20Capped: cap exceeded\") */\n      tag_354\n      jumpi\n      mload(0x40)\n      0x08c379a000000000000000000000000000000000000000000000000000000000\n      dup2\n      mstore\n      0x04\n      add\n      dup1\n      dup1\n      0x20\n      add\n      dup3\n      dup2\n      sub\n      dup3\n      mstore\n      0x19\n      dup2\n      mstore\n      0x20\n      add\n      dup1\n      0x45524332304361707065643a2063617020657863656564656400000000000000\n      dup2\n      mstore\n      pop\n      0x20\n      add\n      swap2\n      pop\n      pop\n      mload(0x40)\n      dup1\n      swap2\n      sub\n      swap1\n      revert\n    tag_354:\n        /* \"Contract.sol\":32492:32635  if (from == address(0)) { // When minting tokens... */\n    tag_351:\n        /* \"Contract.sol\":32329:32641  function _beforeTokenTransfer(address from, address to, uint256 amount) internal virtual override {... */\n      pop\n      pop\n      pop\n      jump\t// out\n    tag_212:\n      mload(0x40)\n      dup1\n      0x40\n      add\n      0x40\n      mstore\n      dup1\n      0x00\n      dup2\n      mstore\n      0x20\n      add\n      0x00\n      dup2\n      mstore\n      pop\n      swap1\n      jump\t// out\n    stop\n    data_0557e210f7a69a685100a7e4e3d0a7024c546085cee28910fd17d0b081d9516f 45524332303a207472616e7366657220746f20746865207a65726f2061646472657373\n    data_149b126e7125232b4200af45303d04fba8b74653b1a295a6a561a528c33fefdd 45524332303a206275726e20616d6f756e7420657863656564732062616c616e6365\n    data_245f15ff17f551913a7a18385165551503906a406f905ac1c2437281a7cd0cfe 4f776e61626c653a206e6577206f776e657220697320746865207a65726f2061646472657373\n    data_24883cc5fe64ace9d0df1893501ecb93c77180f0ff69cca79affb3c316dc8029 45524332303a20617070726f766520746f20746865207a65726f2061646472657373\n    data_2af9d25b44c3e789cf7d12e941fc7ef1e32cecdd98da61996de7571027751bd3 436f6d703a3a64656c656761746542795369673a20696e76616c6964207369676e6174757265\n    data_2e2e13840b5b21c495172810ddd7cab32cabe3b60cf324537af2f4ed770cc46e 5472616e7366657246726f6d202d20526563697069656e7420697320626c61636b6c6973746564\n    data_2e8a87756e5afc73b82eff32f16bb6b10740f4f70e3e129eab06194e30ad3059 436f6d703a3a64656c656761746542795369673a207369676e61747572652065787069726564\n    data_4107e8a8b9e94bf8ff83080ddec1c0bffe897ebc2241b89d44f66b3d274088b6 45524332303a207472616e7366657220616d6f756e7420657863656564732062616c616e6365\n    data_49387db7fef935f0f28be8b61df0527ef3c11db5acad132a74e4fb5d480e55d0 436f6d703a3a6765745072696f72566f7465733a206e6f74207965742064657465726d696e6564\n    data_646cb63637df51b5cf3e35b8d418574ca2fa5dde981ba9f8f5779cfcbbc8a355 436f6d703a3a64656c656761746542795369673a20696e76616c6964206e6f6e6365\n    data_8984d367e2704da78941e58a8a62bd9fddd40a3a2c84662f2309576e4a741076 5472616e7366657246726f6d202d2053656e64657220697320626c61636b6c6973746564\n    data_974d1b4421da69cc60b481194f0dad36a5bb4e23da810da7a7fb30cdba178330 45524332303a207472616e7366657220616d6f756e74206578636565647320616c6c6f77616e6365\n    data_b16788493b576042bb52c50ed56189e0b250db113c7bfb1c3897d25cf9632d7f 45524332303a206275726e2066726f6d20746865207a65726f2061646472657373\n    data_baecc556b46f4ed0f2b4cb599d60785ac8563dd2dc0a5bf12edea1c39e5e1fea 45524332303a207472616e736665722066726f6d20746865207a65726f2061646472657373\n    data_c953f4879035ed60e766b34720f656aab5c697b141d924c283124ecedb91c208 45524332303a20617070726f76652066726f6d20746865207a65726f2061646472657373\n    data_f8b476f7d28209d77d4a4ac1fe36b9f8259aa1bb6bddfa6e89de7e51615cf8a8 45524332303a2064656372656173656420616c6c6f77616e63652062656c6f77207a65726f\n    data_fe4565bcf4b7a01c613fbab5e6165d1de5c0341542d3a9e2147b663befca66ac 5472616e73666572202d20526563697069656e7420697320626c61636b6c6973746564\n\n    auxdata: 0xa264697066735822122003ff4a5d4eaba4da7200bf4dbc7df232858ac00873611ea331a54d9db6f5a5a564736f6c634300060c0033\n}\n","bytecode":{"linkReferences":{},"object":"60806040523480156200001157600080fd5b506040516200520738038062005207833981810160405260408110156200003757600080fd5b810190808051906020019092919080519060200190929190505050806040518060400160405280601481526020017f4a696272656c20506c61666f726d20546f6b656e0000000000000000000000008152506040518060400160405280600381526020017f4a505400000000000000000000000000000000000000000000000000000000008152508160039080519060200190620000d792919062000e98565b508060049080519060200190620000f092919062000e98565b506012600560006101000a81548160ff021916908360ff16021790555050506000811162000186576040517f08c379a00000000000000000000000000000000000000000000000000000000081526004018080602001828103825260158152602001807f45524332304361707065643a206361702069732030000000000000000000000081525060200191505060405180910390fd5b80600681905550506000620001a06200027460201b60201c565b905080600760006101000a81548173ffffffffffffffffffffffffffffffffffffffff021916908373ffffffffffffffffffffffffffffffffffffffff1602179055508073ffffffffffffffffffffffffffffffffffffffff16600073ffffffffffffffffffffffffffffffffffffffff167f8be0079c531659141344cd1fd0a4f28419497f9722a3daafe3b4186f6b6457e060405160405180910390a3506000600760146101000a81548160ff0219169083151502179055506200026c33836200027c60201b60201c565b505062000f3e565b600033905090565b6200028c6200027460201b60201c565b73ffffffffffffffffffffffffffffffffffffffff16600760009054906101000a900473ffffffffffffffffffffffffffffffffffffffff1673ffffffffffffffffffffffffffffffffffffffff16146200034f576040517f08c379a00000000000000000000000000000000000000000000000000000000081526004018080602001828103825260208152602001807f4f776e61626c653a2063616c6c6572206973206e6f7420746865206f776e657281525060200191505060405180910390fd5b600760149054906101000a900460ff1615620003d3576040517f08c379a00000000000000000000000000000000000000000000000000000000081526004018080602001828103825260108152602001807f5061757361626c653a207061757365640000000000000000000000000000000081525060200191505060405180910390fd5b600860008373ffffffffffffffffffffffffffffffffffffffff1673ffffffffffffffffffffffffffffffffffffffff16815260200190815260200160002060009054906101000a900460ff161562000494576040517f08c379a000000000000000000000000000000000000000000000000000000000815260040180806020018281038252601f8152602001807f4d696e74202d20526563697069656e7420697320626c61636b6c69737465640081525060200191505060405180910390fd5b620004a682826200051d60201b60201c565b620005196000600960008573ffffffffffffffffffffffffffffffffffffffff1673ffffffffffffffffffffffffffffffffffffffff16815260200190815260200160002060009054906101000a900473ffffffffffffffffffffffffffffffffffffffff1683620006fb60201b60201c565b5050565b600073ffffffffffffffffffffffffffffffffffffffff168273ffffffffffffffffffffffffffffffffffffffff161415620005c1576040517f08c379a000000000000000000000000000000000000000000000000000000000815260040180806020018281038252601f8152602001807f45524332303a206d696e7420746f20746865207a65726f20616464726573730081525060200191505060405180910390fd5b620005d560008383620009be60201b60201c565b620005f18160025462000ab360201b62002c161790919060201c565b6002819055506200064f816000808573ffffffffffffffffffffffffffffffffffffffff1673ffffffffffffffffffffffffffffffffffffffff1681526020019081526020016000205462000ab360201b62002c161790919060201c565b6000808473ffffffffffffffffffffffffffffffffffffffff1673ffffffffffffffffffffffffffffffffffffffff168152602001908152602001600020819055508173ffffffffffffffffffffffffffffffffffffffff16600073ffffffffffffffffffffffffffffffffffffffff167fddf252ad1be2c89b69c2b068fc378daa952ba7f163c4a11628f55a4df523b3ef836040518082815260200191505060405180910390a35050565b8173ffffffffffffffffffffffffffffffffffffffff168373ffffffffffffffffffffffffffffffffffffffff1614158015620007385750600081115b15620009b957600073ffffffffffffffffffffffffffffffffffffffff168373ffffffffffffffffffffffffffffffffffffffff16146200087b576000600b60008573ffffffffffffffffffffffffffffffffffffffff1673ffffffffffffffffffffffffffffffffffffffff16815260200190815260200160002060009054906101000a900463ffffffff1690506000808263ffffffff1611620007df57600062000843565b600a60008673ffffffffffffffffffffffffffffffffffffffff1673ffffffffffffffffffffffffffffffffffffffff16815260200190815260200160002060006001840363ffffffff1663ffffffff168152602001908152602001600020600101545b9050600062000861848362000b3c60201b62002c9e1790919060201c565b9050620008778684848462000b8e60201b60201c565b5050505b600073ffffffffffffffffffffffffffffffffffffffff168273ffffffffffffffffffffffffffffffffffffffff1614620009b8576000600b60008473ffffffffffffffffffffffffffffffffffffffff1673ffffffffffffffffffffffffffffffffffffffff16815260200190815260200160002060009054906101000a900463ffffffff1690506000808263ffffffff16116200091c57600062000980565b600a60008573ffffffffffffffffffffffffffffffffffffffff1673ffffffffffffffffffffffffffffffffffffffff16815260200190815260200160002060006001840363ffffffff1663ffffffff168152602001908152602001600020600101545b905060006200099e848362000ab360201b62002c161790919060201c565b9050620009b48584848462000b8e60201b60201c565b5050505b5b505050565b620009d683838362000dc560201b62002ce81760201c565b600073ffffffffffffffffffffffffffffffffffffffff168373ffffffffffffffffffffffffffffffffffffffff16141562000aae5760065462000a388262000a2462000dca60201b60201c565b62000ab360201b62002c161790919060201c565b111562000aad576040517f08c379a00000000000000000000000000000000000000000000000000000000081526004018080602001828103825260198152602001807f45524332304361707065643a206361702065786365656465640000000000000081525060200191505060405180910390fd5b5b505050565b60008082840190508381101562000b32576040517f08c379a000000000000000000000000000000000000000000000000000000000815260040180806020018281038252601b8152602001807f536166654d6174683a206164646974696f6e206f766572666c6f77000000000081525060200191505060405180910390fd5b8091505092915050565b600062000b8683836040518060400160405280601e81526020017f536166654d6174683a207375627472616374696f6e206f766572666c6f77000081525062000dd460201b60201c565b905092915050565b600043905060008463ffffffff1611801562000c0b575080600a60008773ffffffffffffffffffffffffffffffffffffffff1673ffffffffffffffffffffffffffffffffffffffff16815260200190815260200160002060006001870363ffffffff1663ffffffff16815260200190815260200160002060000154145b1562000c7e5781600a60008773ffffffffffffffffffffffffffffffffffffffff1673ffffffffffffffffffffffffffffffffffffffff16815260200190815260200160002060006001870363ffffffff1663ffffffff1681526020019081526020016000206001018190555062000d68565b604051806040016040528082815260200183815250600a60008773ffffffffffffffffffffffffffffffffffffffff1673ffffffffffffffffffffffffffffffffffffffff16815260200190815260200160002060008663ffffffff1663ffffffff168152602001908152602001600020600082015181600001556020820151816001015590505060018401600b60008773ffffffffffffffffffffffffffffffffffffffff1673ffffffffffffffffffffffffffffffffffffffff16815260200190815260200160002060006101000a81548163ffffffff021916908363ffffffff1602179055505b8473ffffffffffffffffffffffffffffffffffffffff167fdec2bacdd2f05b59de34da9b523dff8be42e5e38e818c82fdb0bae774387a7248484604051808381526020018281526020019250505060405180910390a25050505050565b505050565b6000600254905090565b600083831115829062000e85576040517f08c379a00000000000000000000000000000000000000000000000000000000081526004018080602001828103825283818151815260200191508051906020019080838360005b8381101562000e4957808201518184015260208101905062000e2c565b50505050905090810190601f16801562000e775780820380516001836020036101000a031916815260200191505b509250505060405180910390fd5b5060008385039050809150509392505050565b828054600181600116156101000203166002900490600052602060002090601f016020900481019282601f1062000edb57805160ff191683800117855562000f0c565b8280016001018555821562000f0c579182015b8281111562000f0b57825182559160200191906001019062000eee565b5b50905062000f1b919062000f1f565b5090565b5b8082111562000f3a57600081600090555060010162000f20565b5090565b6142b98062000f4e6000396000f3fe608060405234801561001057600080fd5b50600436106102065760003560e01c8063715018a61161011a578063b4b5ea57116100ad578063e47d60601161007c578063e47d606014610a97578063e4997dc514610af1578063e7a324dc14610b35578063f1127ed814610b53578063f2fde38b14610bc257610206565b8063b4b5ea5714610944578063c3cda5201461099c578063d431b1ac14610a15578063dd62ed3e14610a1f57610206565b80638da5cb5b116100e95780638da5cb5b146107c557806395d89b41146107f9578063a457c2d71461087c578063a9059cbb146108e057610206565b8063715018a6146106f7578063782d6fe1146107015780637ecebe0014610763578063848cb5c6146107bb57610206565b8063395093511161019d57806359bf1abe1161016c57806359bf1abe146105835780635c19a95c146105dd5780635c975abb146106215780636fcfff451461064157806370a082311461069f57610206565b8063395093511461043557806340c10f191461049957806342966c68146104e7578063587cde1e1461051557610206565b806320606b70116101d957806320606b701461035457806323b872dd14610372578063313ce567146103f6578063355274ea1461041757610206565b806306fdde031461020b578063095ea7b31461028e5780630ecb93c0146102f257806318160ddd14610336575b600080fd5b610213610c06565b6040518080602001828103825283818151815260200191508051906020019080838360005b83811015610253578082015181840152602081019050610238565b50505050905090810190601f1680156102805780820380516001836020036101000a031916815260200191505b509250505060405180910390f35b6102da600480360360408110156102a457600080fd5b81019080803573ffffffffffffffffffffffffffffffffffffffff16906020019092919080359060200190929190505050610ca8565b60405180821515815260200191505060405180910390f35b6103346004803603602081101561030857600080fd5b81019080803573ffffffffffffffffffffffffffffffffffffffff169060200190929190505050610cc6565b005b61033e610e38565b6040518082815260200191505060405180910390f35b61035c610e42565b6040518082815260200191505060405180910390f35b6103de6004803603606081101561038857600080fd5b81019080803573ffffffffffffffffffffffffffffffffffffffff169060200190929190803573ffffffffffffffffffffffffffffffffffffffff16906020019092919080359060200190929190505050610e66565b60405180821515815260200191505060405180910390f35b6103fe61118d565b604051808260ff16815260200191505060405180910390f35b61041f6111a4565b6040518082815260200191505060405180910390f35b6104816004803603604081101561044b57600080fd5b81019080803573ffffffffffffffffffffffffffffffffffffffff169060200190929190803590602001909291905050506111ae565b60405180821515815260200191505060405180910390f35b6104e5600480360360408110156104af57600080fd5b81019080803573ffffffffffffffffffffffffffffffffffffffff16906020019092919080359060200190929190505050611261565b005b610513600480360360208110156104fd57600080fd5b81019080803590602001909291905050506114e7565b005b6105576004803603602081101561052b57600080fd5b81019080803573ffffffffffffffffffffffffffffffffffffffff169060200190929190505050611577565b604051808273ffffffffffffffffffffffffffffffffffffffff16815260200191505060405180910390f35b6105c56004803603602081101561059957600080fd5b81019080803573ffffffffffffffffffffffffffffffffffffffff1690602001909291905050506115e0565b60405180821515815260200191505060405180910390f35b61061f600480360360208110156105f357600080fd5b81019080803573ffffffffffffffffffffffffffffffffffffffff169060200190929190505050611636565b005b610629611643565b60405180821515815260200191505060405180910390f35b6106836004803603602081101561065757600080fd5b81019080803573ffffffffffffffffffffffffffffffffffffffff16906020019092919050505061165a565b604051808263ffffffff16815260200191505060405180910390f35b6106e1600480360360208110156106b557600080fd5b81019080803573ffffffffffffffffffffffffffffffffffffffff16906020019092919050505061167d565b6040518082815260200191505060405180910390f35b6106ff6116c5565b005b61074d6004803603604081101561071757600080fd5b81019080803573ffffffffffffffffffffffffffffffffffffffff16906020019092919080359060200190929190505050611850565b6040518082815260200191505060405180910390f35b6107a56004803603602081101561077957600080fd5b81019080803573ffffffffffffffffffffffffffffffffffffffff169060200190929190505050611bbd565b6040518082815260200191505060405180910390f35b6107c3611bd5565b005b6107cd611d2c565b604051808273ffffffffffffffffffffffffffffffffffffffff16815260200191505060405180910390f35b610801611d56565b6040518080602001828103825283818151815260200191508051906020019080838360005b83811015610841578082015181840152602081019050610826565b50505050905090810190601f16801561086e5780820380516001836020036101000a031916815260200191505b509250505060405180910390f35b6108c86004803603604081101561089257600080fd5b81019080803573ffffffffffffffffffffffffffffffffffffffff16906020019092919080359060200190929190505050611df8565b60405180821515815260200191505060405180910390f35b61092c600480360360408110156108f657600080fd5b81019080803573ffffffffffffffffffffffffffffffffffffffff16906020019092919080359060200190929190505050611ec5565b60405180821515815260200191505060405180910390f35b6109866004803603602081101561095a57600080fd5b81019080803573ffffffffffffffffffffffffffffffffffffffff169060200190929190505050612207565b6040518082815260200191505060405180910390f35b610a13600480360360c08110156109b257600080fd5b81019080803573ffffffffffffffffffffffffffffffffffffffff1690602001909291908035906020019092919080359060200190929190803560ff16906020019092919080359060200190929190803590602001909291905050506122dd565b005b610a1d612641565b005b610a8160048036036040811015610a3557600080fd5b81019080803573ffffffffffffffffffffffffffffffffffffffff169060200190929190803573ffffffffffffffffffffffffffffffffffffffff169060200190929190505050612798565b6040518082815260200191505060405180910390f35b610ad960048036036020811015610aad57600080fd5b81019080803573ffffffffffffffffffffffffffffffffffffffff16906020019092919050505061281f565b60405180821515815260200191505060405180910390f35b610b3360048036036020811015610b0757600080fd5b81019080803573ffffffffffffffffffffffffffffffffffffffff16906020019092919050505061283f565b005b610b3d6129b1565b6040518082815260200191505060405180910390f35b610ba560048036036040811015610b6957600080fd5b81019080803573ffffffffffffffffffffffffffffffffffffffff169060200190929190803563ffffffff1690602001909291905050506129d5565b604051808381526020018281526020019250505060405180910390f35b610c0460048036036020811015610bd857600080fd5b81019080803573ffffffffffffffffffffffffffffffffffffffff169060200190929190505050612a06565b005b606060038054600181600116156101000203166002900480601f016020809104026020016040519081016040528092919081815260200182805460018160011615610100020316600290048015610c9e5780601f10610c7357610100808354040283529160200191610c9e565b820191906000526020600020905b815481529060010190602001808311610c8157829003601f168201915b5050505050905090565b6000610cbc610cb5612ced565b8484612cf5565b6001905092915050565b610cce612ced565b73ffffffffffffffffffffffffffffffffffffffff16600760009054906101000a900473ffffffffffffffffffffffffffffffffffffffff1673ffffffffffffffffffffffffffffffffffffffff1614610d90576040517f08c379a00000000000000000000000000000000000000000000000000000000081526004018080602001828103825260208152602001807f4f776e61626c653a2063616c6c6572206973206e6f7420746865206f776e657281525060200191505060405180910390fd5b6001600860008373ffffffffffffffffffffffffffffffffffffffff1673ffffffffffffffffffffffffffffffffffffffff16815260200190815260200160002060006101000a81548160ff0219169083151502179055507f42e160154868087d6bfdc0ca23d96a1c1cfa32f1b72ba9ba27b69b98a0d819dc81604051808273ffffffffffffffffffffffffffffffffffffffff16815260200191505060405180910390a150565b6000600254905090565b7f8cad95687ba82c2ce50e74f7b754645e5117c3a5bec8151c0726d5857980a86681565b600060606004810160003690501015610ee7576040517f08c379a00000000000000000000000000000000000000000000000000000000081526004018080602001828103825260198152602001807f416464726573732074797065206e6f7420616c6c6f776564210000000000000081525060200191505060405180910390fd5b600760149054906101000a900460ff1615610f6a576040517f08c379a00000000000000000000000000000000000000000000000000000000081526004018080602001828103825260108152602001807f5061757361626c653a207061757365640000000000000000000000000000000081525060200191505060405180910390fd5b600860008673ffffffffffffffffffffffffffffffffffffffff1673ffffffffffffffffffffffffffffffffffffffff16815260200190815260200160002060009054906101000a900460ff161561100d576040517f08c379a00000000000000000000000000000000000000000000000000000000081526004018080602001828103825260248152602001806141866024913960400191505060405180910390fd5b600860008573ffffffffffffffffffffffffffffffffffffffff1673ffffffffffffffffffffffffffffffffffffffff16815260200190815260200160002060009054906101000a900460ff16156110b0576040517f08c379a00000000000000000000000000000000000000000000000000000000081526004018080602001828103825260278152602001806140ca6027913960400191505060405180910390fd5b6110bb858585612eec565b50611185600960008773ffffffffffffffffffffffffffffffffffffffff1673ffffffffffffffffffffffffffffffffffffffff16815260200190815260200160002060009054906101000a900473ffffffffffffffffffffffffffffffffffffffff16600960008773ffffffffffffffffffffffffffffffffffffffff1673ffffffffffffffffffffffffffffffffffffffff16815260200190815260200160002060009054906101000a900473ffffffffffffffffffffffffffffffffffffffff1685612fc5565b509392505050565b6000600560009054906101000a900460ff16905090565b6000600654905090565b60006112576111bb612ced565b8461125285600160006111cc612ced565b73ffffffffffffffffffffffffffffffffffffffff1673ffffffffffffffffffffffffffffffffffffffff16815260200190815260200160002060008973ffffffffffffffffffffffffffffffffffffffff1673ffffffffffffffffffffffffffffffffffffffff16815260200190815260200160002054612c1690919063ffffffff16565b612cf5565b6001905092915050565b611269612ced565b73ffffffffffffffffffffffffffffffffffffffff16600760009054906101000a900473ffffffffffffffffffffffffffffffffffffffff1673ffffffffffffffffffffffffffffffffffffffff161461132b576040517f08c379a00000000000000000000000000000000000000000000000000000000081526004018080602001828103825260208152602001807f4f776e61626c653a2063616c6c6572206973206e6f7420746865206f776e657281525060200191505060405180910390fd5b600760149054906101000a900460ff16156113ae576040517f08c379a00000000000000000000000000000000000000000000000000000000081526004018080602001828103825260108152602001807f5061757361626c653a207061757365640000000000000000000000000000000081525060200191505060405180910390fd5b600860008373ffffffffffffffffffffffffffffffffffffffff1673ffffffffffffffffffffffffffffffffffffffff16815260200190815260200160002060009054906101000a900460ff161561146e576040517f08c379a000000000000000000000000000000000000000000000000000000000815260040180806020018281038252601f8152602001807f4d696e74202d20526563697069656e7420697320626c61636b6c69737465640081525060200191505060405180910390fd5b6114788282613262565b6114e36000600960008573ffffffffffffffffffffffffffffffffffffffff1673ffffffffffffffffffffffffffffffffffffffff16815260200190815260200160002060009054906101000a900473ffffffffffffffffffffffffffffffffffffffff1683612fc5565b5050565b600760149054906101000a900460ff161561156a576040517f08c379a00000000000000000000000000000000000000000000000000000000081526004018080602001828103825260108152602001807f5061757361626c653a207061757365640000000000000000000000000000000081525060200191505060405180910390fd5b6115743382613429565b50565b6000600960008373ffffffffffffffffffffffffffffffffffffffff1673ffffffffffffffffffffffffffffffffffffffff16815260200190815260200160002060009054906101000a900473ffffffffffffffffffffffffffffffffffffffff169050919050565b6000600860008373ffffffffffffffffffffffffffffffffffffffff1673ffffffffffffffffffffffffffffffffffffffff16815260200190815260200160002060009054906101000a900460ff169050919050565b61164033826135ed565b50565b6000600760149054906101000a900460ff16905090565b600b6020528060005260406000206000915054906101000a900463ffffffff1681565b60008060008373ffffffffffffffffffffffffffffffffffffffff1673ffffffffffffffffffffffffffffffffffffffff168152602001908152602001600020549050919050565b6116cd612ced565b73ffffffffffffffffffffffffffffffffffffffff16600760009054906101000a900473ffffffffffffffffffffffffffffffffffffffff1673ffffffffffffffffffffffffffffffffffffffff161461178f576040517f08c379a00000000000000000000000000000000000000000000000000000000081526004018080602001828103825260208152602001807f4f776e61626c653a2063616c6c6572206973206e6f7420746865206f776e657281525060200191505060405180910390fd5b600073ffffffffffffffffffffffffffffffffffffffff16600760009054906101000a900473ffffffffffffffffffffffffffffffffffffffff1673ffffffffffffffffffffffffffffffffffffffff167f8be0079c531659141344cd1fd0a4f28419497f9722a3daafe3b4186f6b6457e060405160405180910390a36000600760006101000a81548173ffffffffffffffffffffffffffffffffffffffff021916908373ffffffffffffffffffffffffffffffffffffffff160217905550565b60004382106118aa576040517f08c379a000000000000000000000000000000000000000000000000000000000815260040180806020018281038252602781526020018061413d6027913960400191505060405180910390fd5b6000600b60008573ffffffffffffffffffffffffffffffffffffffff1673ffffffffffffffffffffffffffffffffffffffff16815260200190815260200160002060009054906101000a900463ffffffff16905060008163ffffffff161415611917576000915050611bb7565b82600a60008673ffffffffffffffffffffffffffffffffffffffff1673ffffffffffffffffffffffffffffffffffffffff16815260200190815260200160002060006001840363ffffffff1663ffffffff16815260200190815260200160002060000154116119eb57600a60008573ffffffffffffffffffffffffffffffffffffffff1673ffffffffffffffffffffffffffffffffffffffff16815260200190815260200160002060006001830363ffffffff1663ffffffff16815260200190815260200160002060010154915050611bb7565b82600a60008673ffffffffffffffffffffffffffffffffffffffff1673ffffffffffffffffffffffffffffffffffffffff16815260200190815260200160002060008063ffffffff168152602001908152602001600020600001541115611a56576000915050611bb7565b6000806001830390505b8163ffffffff168163ffffffff161115611b51576000600283830363ffffffff1681611a8857fe5b0482039050611a95613ffc565b600a60008973ffffffffffffffffffffffffffffffffffffffff1673ffffffffffffffffffffffffffffffffffffffff16815260200190815260200160002060008363ffffffff1663ffffffff1681526020019081526020016000206040518060400160405290816000820154815260200160018201548152505090508681600001511415611b2f57806020015195505050505050611bb7565b8681600001511015611b4357819350611b4a565b6001820392505b5050611a60565b600a60008773ffffffffffffffffffffffffffffffffffffffff1673ffffffffffffffffffffffffffffffffffffffff16815260200190815260200160002060008363ffffffff1663ffffffff1681526020019081526020016000206001015493505050505b92915050565b600c6020528060005260406000206000915090505481565b600760149054906101000a900460ff1615611c58576040517f08c379a00000000000000000000000000000000000000000000000000000000081526004018080602001828103825260108152602001807f5061757361626c653a207061757365640000000000000000000000000000000081525060200191505060405180910390fd5b611c60612ced565b73ffffffffffffffffffffffffffffffffffffffff16600760009054906101000a900473ffffffffffffffffffffffffffffffffffffffff1673ffffffffffffffffffffffffffffffffffffffff1614611d22576040517f08c379a00000000000000000000000000000000000000000000000000000000081526004018080602001828103825260208152602001807f4f776e61626c653a2063616c6c6572206973206e6f7420746865206f776e657281525060200191505060405180910390fd5b611d2a61375e565b565b6000600760009054906101000a900473ffffffffffffffffffffffffffffffffffffffff16905090565b606060048054600181600116156101000203166002900480601f016020809104026020016040519081016040528092919081815260200182805460018160011615610100020316600290048015611dee5780601f10611dc357610100808354040283529160200191611dee565b820191906000526020600020905b815481529060010190602001808311611dd157829003601f168201915b5050505050905090565b6000611ebb611e05612ced565b84611eb68560405180606001604052806025815260200161423c6025913960016000611e2f612ced565b73ffffffffffffffffffffffffffffffffffffffff1673ffffffffffffffffffffffffffffffffffffffff16815260200190815260200160002060008a73ffffffffffffffffffffffffffffffffffffffff1673ffffffffffffffffffffffffffffffffffffffff168152602001908152602001600020546138519092919063ffffffff16565b612cf5565b6001905092915050565b600060406004810160003690501015611f46576040517f08c379a00000000000000000000000000000000000000000000000000000000081526004018080602001828103825260198152602001807f416464726573732074797065206e6f7420616c6c6f776564210000000000000081525060200191505060405180910390fd5b600760149054906101000a900460ff1615611fc9576040517f08c379a00000000000000000000000000000000000000000000000000000000081526004018080602001828103825260108152602001807f5061757361626c653a207061757365640000000000000000000000000000000081525060200191505060405180910390fd5b600860003373ffffffffffffffffffffffffffffffffffffffff1673ffffffffffffffffffffffffffffffffffffffff16815260200190815260200160002060009054906101000a900460ff1615612089576040517f08c379a00000000000000000000000000000000000000000000000000000000081526004018080602001828103825260208152602001807f5472616e73666572202d2053656e64657220697320626c61636b6c697374656481525060200191505060405180910390fd5b600860008573ffffffffffffffffffffffffffffffffffffffff1673ffffffffffffffffffffffffffffffffffffffff16815260200190815260200160002060009054906101000a900460ff161561212c576040517f08c379a00000000000000000000000000000000000000000000000000000000081526004018080602001828103825260238152602001806142616023913960400191505060405180910390fd5b6121368484613911565b50612200600960003373ffffffffffffffffffffffffffffffffffffffff1673ffffffffffffffffffffffffffffffffffffffff16815260200190815260200160002060009054906101000a900473ffffffffffffffffffffffffffffffffffffffff16600960008773ffffffffffffffffffffffffffffffffffffffff1673ffffffffffffffffffffffffffffffffffffffff16815260200190815260200160002060009054906101000a900473ffffffffffffffffffffffffffffffffffffffff1685612fc5565b5092915050565b600080600b60008473ffffffffffffffffffffffffffffffffffffffff1673ffffffffffffffffffffffffffffffffffffffff16815260200190815260200160002060009054906101000a900463ffffffff16905060008163ffffffff16116122715760006122d5565b600a60008473ffffffffffffffffffffffffffffffffffffffff1673ffffffffffffffffffffffffffffffffffffffff16815260200190815260200160002060006001830363ffffffff1663ffffffff168152602001908152602001600020600101545b915050919050565b60007f8cad95687ba82c2ce50e74f7b754645e5117c3a5bec8151c0726d5857980a866612308610c06565b8051906020012061231761392f565b30604051602001808581526020018481526020018381526020018273ffffffffffffffffffffffffffffffffffffffff16815260200194505050505060405160208183030381529060405280519060200120905060007fe48329057bfd03d55e49b547132e39cffd9c1820ad7b9d4c5307691425d15adf888888604051602001808581526020018473ffffffffffffffffffffffffffffffffffffffff1681526020018381526020018281526020019450505050506040516020818303038152906040528051906020012090506000828260405160200180807f190100000000000000000000000000000000000000000000000000000000000081525060020183815260200182815260200192505050604051602081830303815290604052805190602001209050600060018288888860405160008152602001604052604051808581526020018460ff1681526020018381526020018281526020019450505050506020604051602081039080840390855afa15801561249b573d6000803e3d6000fd5b505050602060405103519050600073ffffffffffffffffffffffffffffffffffffffff168173ffffffffffffffffffffffffffffffffffffffff16141561252d576040517f08c379a00000000000000000000000000000000000000000000000000000000081526004018080602001828103825260268152602001806140a46026913960400191505060405180910390fd5b600c60008273ffffffffffffffffffffffffffffffffffffffff1673ffffffffffffffffffffffffffffffffffffffff16815260200190815260200160002060008154809291906001019190505589146125d2576040517f08c379a00000000000000000000000000000000000000000000000000000000081526004018080602001828103825260228152602001806141646022913960400191505060405180910390fd5b8742111561262b576040517f08c379a00000000000000000000000000000000000000000000000000000000081526004018080602001828103825260268152602001806140f16026913960400191505060405180910390fd5b612635818b6135ed565b50505050505050505050565b600760149054906101000a900460ff16156126c4576040517f08c379a00000000000000000000000000000000000000000000000000000000081526004018080602001828103825260108152602001807f5061757361626c653a207061757365640000000000000000000000000000000081525060200191505060405180910390fd5b6126cc612ced565b73ffffffffffffffffffffffffffffffffffffffff16600760009054906101000a900473ffffffffffffffffffffffffffffffffffffffff1673ffffffffffffffffffffffffffffffffffffffff161461278e576040517f08c379a00000000000000000000000000000000000000000000000000000000081526004018080602001828103825260208152602001807f4f776e61626c653a2063616c6c6572206973206e6f7420746865206f776e657281525060200191505060405180910390fd5b61279661393c565b565b6000600160008473ffffffffffffffffffffffffffffffffffffffff1673ffffffffffffffffffffffffffffffffffffffff16815260200190815260200160002060008373ffffffffffffffffffffffffffffffffffffffff1673ffffffffffffffffffffffffffffffffffffffff16815260200190815260200160002054905092915050565b60086020528060005260406000206000915054906101000a900460ff1681565b612847612ced565b73ffffffffffffffffffffffffffffffffffffffff16600760009054906101000a900473ffffffffffffffffffffffffffffffffffffffff1673ffffffffffffffffffffffffffffffffffffffff1614612909576040517f08c379a00000000000000000000000000000000000000000000000000000000081526004018080602001828103825260208152602001807f4f776e61626c653a2063616c6c6572206973206e6f7420746865206f776e657281525060200191505060405180910390fd5b6000600860008373ffffffffffffffffffffffffffffffffffffffff1673ffffffffffffffffffffffffffffffffffffffff16815260200190815260200160002060006101000a81548160ff0219169083151502179055507fd7e9ec6e6ecd65492dce6bf513cd6867560d49544421d0783ddf06e76c24470c81604051808273ffffffffffffffffffffffffffffffffffffffff16815260200191505060405180910390a150565b7fe48329057bfd03d55e49b547132e39cffd9c1820ad7b9d4c5307691425d15adf81565b600a602052816000526040600020602052806000526040600020600091509150508060000154908060010154905082565b612a0e612ced565b73ffffffffffffffffffffffffffffffffffffffff16600760009054906101000a900473ffffffffffffffffffffffffffffffffffffffff1673ffffffffffffffffffffffffffffffffffffffff1614612ad0576040517f08c379a00000000000000000000000000000000000000000000000000000000081526004018080602001828103825260208152602001807f4f776e61626c653a2063616c6c6572206973206e6f7420746865206f776e657281525060200191505060405180910390fd5b600073ffffffffffffffffffffffffffffffffffffffff168173ffffffffffffffffffffffffffffffffffffffff161415612b56576040517f08c379a000000000000000000000000000000000000000000000000000000000815260040180806020018281038252602681526020018061405c6026913960400191505060405180910390fd5b8073ffffffffffffffffffffffffffffffffffffffff16600760009054906101000a900473ffffffffffffffffffffffffffffffffffffffff1673ffffffffffffffffffffffffffffffffffffffff167f8be0079c531659141344cd1fd0a4f28419497f9722a3daafe3b4186f6b6457e060405160405180910390a380600760006101000a81548173ffffffffffffffffffffffffffffffffffffffff021916908373ffffffffffffffffffffffffffffffffffffffff16021790555050565b600080828401905083811015612c94576040517f08c379a000000000000000000000000000000000000000000000000000000000815260040180806020018281038252601b8152602001807f536166654d6174683a206164646974696f6e206f766572666c6f77000000000081525060200191505060405180910390fd5b8091505092915050565b6000612ce083836040518060400160405280601e81526020017f536166654d6174683a207375627472616374696f6e206f766572666c6f770000815250613851565b905092915050565b505050565b600033905090565b600073ffffffffffffffffffffffffffffffffffffffff168373ffffffffffffffffffffffffffffffffffffffff161415612d7b576040517f08c379a00000000000000000000000000000000000000000000000000000000081526004018080602001828103825260248152602001806142186024913960400191505060405180910390fd5b600073ffffffffffffffffffffffffffffffffffffffff168273ffffffffffffffffffffffffffffffffffffffff161415612e01576040517f08c379a00000000000000000000000000000000000000000000000000000000081526004018080602001828103825260228152602001806140826022913960400191505060405180910390fd5b80600160008573ffffffffffffffffffffffffffffffffffffffff1673ffffffffffffffffffffffffffffffffffffffff16815260200190815260200160002060008473ffffffffffffffffffffffffffffffffffffffff1673ffffffffffffffffffffffffffffffffffffffff168152602001908152602001600020819055508173ffffffffffffffffffffffffffffffffffffffff168373ffffffffffffffffffffffffffffffffffffffff167f8c5be1e5ebec7d5bd14f71427d1e84f3dd0314c0f7b2291e5b200ac8c7c3b925836040518082815260200191505060405180910390a3505050565b6000612ef9848484613a30565b612fba84612f05612ced565b612fb5856040518060600160405280602881526020016141aa60289139600160008b73ffffffffffffffffffffffffffffffffffffffff1673ffffffffffffffffffffffffffffffffffffffff1681526020019081526020016000206000612f6b612ced565b73ffffffffffffffffffffffffffffffffffffffff1673ffffffffffffffffffffffffffffffffffffffff168152602001908152602001600020546138519092919063ffffffff16565b612cf5565b600190509392505050565b8173ffffffffffffffffffffffffffffffffffffffff168373ffffffffffffffffffffffffffffffffffffffff16141580156130015750600081115b1561325d57600073ffffffffffffffffffffffffffffffffffffffff168373ffffffffffffffffffffffffffffffffffffffff1614613131576000600b60008573ffffffffffffffffffffffffffffffffffffffff1673ffffffffffffffffffffffffffffffffffffffff16815260200190815260200160002060009054906101000a900463ffffffff1690506000808263ffffffff16116130a4576000613108565b600a60008673ffffffffffffffffffffffffffffffffffffffff1673ffffffffffffffffffffffffffffffffffffffff16815260200190815260200160002060006001840363ffffffff1663ffffffff168152602001908152602001600020600101545b9050600061311f8483612c9e90919063ffffffff16565b905061312d86848484613cf1565b5050505b600073ffffffffffffffffffffffffffffffffffffffff168273ffffffffffffffffffffffffffffffffffffffff161461325c576000600b60008473ffffffffffffffffffffffffffffffffffffffff1673ffffffffffffffffffffffffffffffffffffffff16815260200190815260200160002060009054906101000a900463ffffffff1690506000808263ffffffff16116131cf576000613233565b600a60008573ffffffffffffffffffffffffffffffffffffffff1673ffffffffffffffffffffffffffffffffffffffff16815260200190815260200160002060006001840363ffffffff1663ffffffff168152602001908152602001600020600101545b9050600061324a8483612c1690919063ffffffff16565b905061325885848484613cf1565b5050505b5b505050565b600073ffffffffffffffffffffffffffffffffffffffff168273ffffffffffffffffffffffffffffffffffffffff161415613305576040517f08c379a000000000000000000000000000000000000000000000000000000000815260040180806020018281038252601f8152602001807f45524332303a206d696e7420746f20746865207a65726f20616464726573730081525060200191505060405180910390fd5b61331160008383613f25565b61332681600254612c1690919063ffffffff16565b60028190555061337d816000808573ffffffffffffffffffffffffffffffffffffffff1673ffffffffffffffffffffffffffffffffffffffff16815260200190815260200160002054612c1690919063ffffffff16565b6000808473ffffffffffffffffffffffffffffffffffffffff1673ffffffffffffffffffffffffffffffffffffffff168152602001908152602001600020819055508173ffffffffffffffffffffffffffffffffffffffff16600073ffffffffffffffffffffffffffffffffffffffff167fddf252ad1be2c89b69c2b068fc378daa952ba7f163c4a11628f55a4df523b3ef836040518082815260200191505060405180910390a35050565b600073ffffffffffffffffffffffffffffffffffffffff168273ffffffffffffffffffffffffffffffffffffffff1614156134af576040517f08c379a00000000000000000000000000000000000000000000000000000000081526004018080602001828103825260218152602001806141d26021913960400191505060405180910390fd5b6134bb82600083613f25565b6135268160405180606001604052806022815260200161403a602291396000808673ffffffffffffffffffffffffffffffffffffffff1673ffffffffffffffffffffffffffffffffffffffff168152602001908152602001600020546138519092919063ffffffff16565b6000808473ffffffffffffffffffffffffffffffffffffffff1673ffffffffffffffffffffffffffffffffffffffff1681526020019081526020016000208190555061357d81600254612c9e90919063ffffffff16565b600281905550600073ffffffffffffffffffffffffffffffffffffffff168273ffffffffffffffffffffffffffffffffffffffff167fddf252ad1be2c89b69c2b068fc378daa952ba7f163c4a11628f55a4df523b3ef836040518082815260200191505060405180910390a35050565b6000600960008473ffffffffffffffffffffffffffffffffffffffff1673ffffffffffffffffffffffffffffffffffffffff16815260200190815260200160002060009054906101000a900473ffffffffffffffffffffffffffffffffffffffff169050600061365c8461167d565b905082600960008673ffffffffffffffffffffffffffffffffffffffff1673ffffffffffffffffffffffffffffffffffffffff16815260200190815260200160002060006101000a81548173ffffffffffffffffffffffffffffffffffffffff021916908373ffffffffffffffffffffffffffffffffffffffff1602179055508273ffffffffffffffffffffffffffffffffffffffff168273ffffffffffffffffffffffffffffffffffffffff168573ffffffffffffffffffffffffffffffffffffffff167f3134e8a2e6d97e929a7e54011ea5485d7d196dd5f0ba4d4ef95803e8e3fc257f60405160405180910390a4613758828483612fc5565b50505050565b600760149054906101000a900460ff166137e0576040517f08c379a00000000000000000000000000000000000000000000000000000000081526004018080602001828103825260148152602001807f5061757361626c653a206e6f742070617573656400000000000000000000000081525060200191505060405180910390fd5b6000600760146101000a81548160ff0219169083151502179055507f5db9ee0a495bf2e6ff9c91a7834c1ba4fdd244a5e8aa4e537bd38aeae4b073aa613824612ced565b604051808273ffffffffffffffffffffffffffffffffffffffff16815260200191505060405180910390a1565b60008383111582906138fe576040517f08c379a00000000000000000000000000000000000000000000000000000000081526004018080602001828103825283818151815260200191508051906020019080838360005b838110156138c35780820151818401526020810190506138a8565b50505050905090810190601f1680156138f05780820380516001836020036101000a031916815260200191505b509250505060405180910390fd5b5060008385039050809150509392505050565b600061392561391e612ced565b8484613a30565b6001905092915050565b6000804690508091505090565b600760149054906101000a900460ff16156139bf576040517f08c379a00000000000000000000000000000000000000000000000000000000081526004018080602001828103825260108152602001807f5061757361626c653a207061757365640000000000000000000000000000000081525060200191505060405180910390fd5b6001600760146101000a81548160ff0219169083151502179055507f62e78cea01bee320cd4e420270b5ea74000d11b0c9f74754ebdbfc544b05a258613a03612ced565b604051808273ffffffffffffffffffffffffffffffffffffffff16815260200191505060405180910390a1565b600073ffffffffffffffffffffffffffffffffffffffff168373ffffffffffffffffffffffffffffffffffffffff161415613ab6576040517f08c379a00000000000000000000000000000000000000000000000000000000081526004018080602001828103825260258152602001806141f36025913960400191505060405180910390fd5b600073ffffffffffffffffffffffffffffffffffffffff168273ffffffffffffffffffffffffffffffffffffffff161415613b3c576040517f08c379a00000000000000000000000000000000000000000000000000000000081526004018080602001828103825260238152602001806140176023913960400191505060405180910390fd5b613b47838383613f25565b613bb281604051806060016040528060268152602001614117602691396000808773ffffffffffffffffffffffffffffffffffffffff1673ffffffffffffffffffffffffffffffffffffffff168152602001908152602001600020546138519092919063ffffffff16565b6000808573ffffffffffffffffffffffffffffffffffffffff1673ffffffffffffffffffffffffffffffffffffffff16815260200190815260200160002081905550613c45816000808573ffffffffffffffffffffffffffffffffffffffff1673ffffffffffffffffffffffffffffffffffffffff16815260200190815260200160002054612c1690919063ffffffff16565b6000808473ffffffffffffffffffffffffffffffffffffffff1673ffffffffffffffffffffffffffffffffffffffff168152602001908152602001600020819055508173ffffffffffffffffffffffffffffffffffffffff168373ffffffffffffffffffffffffffffffffffffffff167fddf252ad1be2c89b69c2b068fc378daa952ba7f163c4a11628f55a4df523b3ef836040518082815260200191505060405180910390a3505050565b600043905060008463ffffffff16118015613d6d575080600a60008773ffffffffffffffffffffffffffffffffffffffff1673ffffffffffffffffffffffffffffffffffffffff16815260200190815260200160002060006001870363ffffffff1663ffffffff16815260200190815260200160002060000154145b15613dde5781600a60008773ffffffffffffffffffffffffffffffffffffffff1673ffffffffffffffffffffffffffffffffffffffff16815260200190815260200160002060006001870363ffffffff1663ffffffff16815260200190815260200160002060010181905550613ec8565b604051806040016040528082815260200183815250600a60008773ffffffffffffffffffffffffffffffffffffffff1673ffffffffffffffffffffffffffffffffffffffff16815260200190815260200160002060008663ffffffff1663ffffffff168152602001908152602001600020600082015181600001556020820151816001015590505060018401600b60008773ffffffffffffffffffffffffffffffffffffffff1673ffffffffffffffffffffffffffffffffffffffff16815260200190815260200160002060006101000a81548163ffffffff021916908363ffffffff1602179055505b8473ffffffffffffffffffffffffffffffffffffffff167fdec2bacdd2f05b59de34da9b523dff8be42e5e38e818c82fdb0bae774387a7248484604051808381526020018281526020019250505060405180910390a25050505050565b613f30838383612ce8565b600073ffffffffffffffffffffffffffffffffffffffff168373ffffffffffffffffffffffffffffffffffffffff161415613ff757600654613f8282613f74610e38565b612c1690919063ffffffff16565b1115613ff6576040517f08c379a00000000000000000000000000000000000000000000000000000000081526004018080602001828103825260198152602001807f45524332304361707065643a206361702065786365656465640000000000000081525060200191505060405180910390fd5b5b505050565b60405180604001604052806000815260200160008152509056fe45524332303a207472616e7366657220746f20746865207a65726f206164647265737345524332303a206275726e20616d6f756e7420657863656564732062616c616e63654f776e61626c653a206e6577206f776e657220697320746865207a65726f206164647265737345524332303a20617070726f766520746f20746865207a65726f2061646472657373436f6d703a3a64656c656761746542795369673a20696e76616c6964207369676e61747572655472616e7366657246726f6d202d20526563697069656e7420697320626c61636b6c6973746564436f6d703a3a64656c656761746542795369673a207369676e6174757265206578706972656445524332303a207472616e7366657220616d6f756e7420657863656564732062616c616e6365436f6d703a3a6765745072696f72566f7465733a206e6f74207965742064657465726d696e6564436f6d703a3a64656c656761746542795369673a20696e76616c6964206e6f6e63655472616e7366657246726f6d202d2053656e64657220697320626c61636b6c697374656445524332303a207472616e7366657220616d6f756e74206578636565647320616c6c6f77616e636545524332303a206275726e2066726f6d20746865207a65726f206164647265737345524332303a207472616e736665722066726f6d20746865207a65726f206164647265737345524332303a20617070726f76652066726f6d20746865207a65726f206164647265737345524332303a2064656372656173656420616c6c6f77616e63652062656c6f77207a65726f5472616e73666572202d20526563697069656e7420697320626c61636b6c6973746564a264697066735822122003ff4a5d4eaba4da7200bf4dbc7df232858ac00873611ea331a54d9db6f5a5a564736f6c634300060c0033","opcodes":"PUSH1 0x80 PUSH1 0x40 MSTORE CALLVALUE DUP1 ISZERO PUSH3 0x11 JUMPI PUSH1 0x0 DUP1 REVERT JUMPDEST POP PUSH1 0x40 MLOAD PUSH3 0x5207 CODESIZE SUB DUP1 PUSH3 0x5207 DUP4 CODECOPY DUP2 DUP2 ADD PUSH1 0x40 MSTORE PUSH1 0x40 DUP2 LT ISZERO PUSH3 0x37 JUMPI PUSH1 0x0 DUP1 REVERT JUMPDEST DUP2 ADD SWAP1 DUP1 DUP1 MLOAD SWAP1 PUSH1 0x20 ADD SWAP1 SWAP3 SWAP2 SWAP1 DUP1 MLOAD SWAP1 PUSH1 0x20 ADD SWAP1 SWAP3 SWAP2 SWAP1 POP POP POP DUP1 PUSH1 0x40 MLOAD DUP1 PUSH1 0x40 ADD PUSH1 0x40 MSTORE DUP1 PUSH1 0x14 DUP2 MSTORE PUSH1 0x20 ADD PUSH32 0x4A696272656C20506C61666F726D20546F6B656E000000000000000000000000 DUP2 MSTORE POP PUSH1 0x40 MLOAD DUP1 PUSH1 0x40 ADD PUSH1 0x40 MSTORE DUP1 PUSH1 0x3 DUP2 MSTORE PUSH1 0x20 ADD PUSH32 0x4A50540000000000000000000000000000000000000000000000000000000000 DUP2 MSTORE POP DUP2 PUSH1 0x3 SWAP1 DUP1 MLOAD SWAP1 PUSH1 0x20 ADD SWAP1 PUSH3 0xD7 SWAP3 SWAP2 SWAP1 PUSH3 0xE98 JUMP JUMPDEST POP DUP1 PUSH1 0x4 SWAP1 DUP1 MLOAD SWAP1 PUSH1 0x20 ADD SWAP1 PUSH3 0xF0 SWAP3 SWAP2 SWAP1 PUSH3 0xE98 JUMP JUMPDEST POP PUSH1 0x12 PUSH1 0x5 PUSH1 0x0 PUSH2 0x100 EXP DUP2 SLOAD DUP2 PUSH1 0xFF MUL NOT AND SWAP1 DUP4 PUSH1 0xFF AND MUL OR SWAP1 SSTORE POP POP POP PUSH1 0x0 DUP2 GT PUSH3 0x186 JUMPI PUSH1 0x40 MLOAD PUSH32 0x8C379A000000000000000000000000000000000000000000000000000000000 DUP2 MSTORE PUSH1 0x4 ADD DUP1 DUP1 PUSH1 0x20 ADD DUP3 DUP2 SUB DUP3 MSTORE PUSH1 0x15 DUP2 MSTORE PUSH1 0x20 ADD DUP1 PUSH32 0x45524332304361707065643A2063617020697320300000000000000000000000 DUP2 MSTORE POP PUSH1 0x20 ADD SWAP2 POP POP PUSH1 0x40 MLOAD DUP1 SWAP2 SUB SWAP1 REVERT JUMPDEST DUP1 PUSH1 0x6 DUP2 SWAP1 SSTORE POP POP PUSH1 0x0 PUSH3 0x1A0 PUSH3 0x274 PUSH1 0x20 SHL PUSH1 0x20 SHR JUMP JUMPDEST SWAP1 POP DUP1 PUSH1 0x7 PUSH1 0x0 PUSH2 0x100 EXP DUP2 SLOAD DUP2 PUSH20 0xFFFFFFFFFFFFFFFFFFFFFFFFFFFFFFFFFFFFFFFF MUL NOT AND SWAP1 DUP4 PUSH20 0xFFFFFFFFFFFFFFFFFFFFFFFFFFFFFFFFFFFFFFFF AND MUL OR SWAP1 SSTORE POP DUP1 PUSH20 0xFFFFFFFFFFFFFFFFFFFFFFFFFFFFFFFFFFFFFFFF AND PUSH1 0x0 PUSH20 0xFFFFFFFFFFFFFFFFFFFFFFFFFFFFFFFFFFFFFFFF AND PUSH32 0x8BE0079C531659141344CD1FD0A4F28419497F9722A3DAAFE3B4186F6B6457E0 PUSH1 0x40 MLOAD PUSH1 0x40 MLOAD DUP1 SWAP2 SUB SWAP1 LOG3 POP PUSH1 0x0 PUSH1 0x7 PUSH1 0x14 PUSH2 0x100 EXP DUP2 SLOAD DUP2 PUSH1 0xFF MUL NOT AND SWAP1 DUP4 ISZERO ISZERO MUL OR SWAP1 SSTORE POP PUSH3 0x26C CALLER DUP4 PUSH3 0x27C PUSH1 0x20 SHL PUSH1 0x20 SHR JUMP JUMPDEST POP POP PUSH3 0xF3E JUMP JUMPDEST PUSH1 0x0 CALLER SWAP1 POP SWAP1 JUMP JUMPDEST PUSH3 0x28C PUSH3 0x274 PUSH1 0x20 SHL PUSH1 0x20 SHR JUMP JUMPDEST PUSH20 0xFFFFFFFFFFFFFFFFFFFFFFFFFFFFFFFFFFFFFFFF AND PUSH1 0x7 PUSH1 0x0 SWAP1 SLOAD SWAP1 PUSH2 0x100 EXP SWAP1 DIV PUSH20 0xFFFFFFFFFFFFFFFFFFFFFFFFFFFFFFFFFFFFFFFF AND PUSH20 0xFFFFFFFFFFFFFFFFFFFFFFFFFFFFFFFFFFFFFFFF AND EQ PUSH3 0x34F JUMPI PUSH1 0x40 MLOAD PUSH32 0x8C379A000000000000000000000000000000000000000000000000000000000 DUP2 MSTORE PUSH1 0x4 ADD DUP1 DUP1 PUSH1 0x20 ADD DUP3 DUP2 SUB DUP3 MSTORE PUSH1 0x20 DUP2 MSTORE PUSH1 0x20 ADD DUP1 PUSH32 0x4F776E61626C653A2063616C6C6572206973206E6F7420746865206F776E6572 DUP2 MSTORE POP PUSH1 0x20 ADD SWAP2 POP POP PUSH1 0x40 MLOAD DUP1 SWAP2 SUB SWAP1 REVERT JUMPDEST PUSH1 0x7 PUSH1 0x14 SWAP1 SLOAD SWAP1 PUSH2 0x100 EXP SWAP1 DIV PUSH1 0xFF AND ISZERO PUSH3 0x3D3 JUMPI PUSH1 0x40 MLOAD PUSH32 0x8C379A000000000000000000000000000000000000000000000000000000000 DUP2 MSTORE PUSH1 0x4 ADD DUP1 DUP1 PUSH1 0x20 ADD DUP3 DUP2 SUB DUP3 MSTORE PUSH1 0x10 DUP2 MSTORE PUSH1 0x20 ADD DUP1 PUSH32 0x5061757361626C653A2070617573656400000000000000000000000000000000 DUP2 MSTORE POP PUSH1 0x20 ADD SWAP2 POP POP PUSH1 0x40 MLOAD DUP1 SWAP2 SUB SWAP1 REVERT JUMPDEST PUSH1 0x8 PUSH1 0x0 DUP4 PUSH20 0xFFFFFFFFFFFFFFFFFFFFFFFFFFFFFFFFFFFFFFFF AND PUSH20 0xFFFFFFFFFFFFFFFFFFFFFFFFFFFFFFFFFFFFFFFF AND DUP2 MSTORE PUSH1 0x20 ADD SWAP1 DUP2 MSTORE PUSH1 0x20 ADD PUSH1 0x0 KECCAK256 PUSH1 0x0 SWAP1 SLOAD SWAP1 PUSH2 0x100 EXP SWAP1 DIV PUSH1 0xFF AND ISZERO PUSH3 0x494 JUMPI PUSH1 0x40 MLOAD PUSH32 0x8C379A000000000000000000000000000000000000000000000000000000000 DUP2 MSTORE PUSH1 0x4 ADD DUP1 DUP1 PUSH1 0x20 ADD DUP3 DUP2 SUB DUP3 MSTORE PUSH1 0x1F DUP2 MSTORE PUSH1 0x20 ADD DUP1 PUSH32 0x4D696E74202D20526563697069656E7420697320626C61636B6C697374656400 DUP2 MSTORE POP PUSH1 0x20 ADD SWAP2 POP POP PUSH1 0x40 MLOAD DUP1 SWAP2 SUB SWAP1 REVERT JUMPDEST PUSH3 0x4A6 DUP3 DUP3 PUSH3 0x51D PUSH1 0x20 SHL PUSH1 0x20 SHR JUMP JUMPDEST PUSH3 0x519 PUSH1 0x0 PUSH1 0x9 PUSH1 0x0 DUP6 PUSH20 0xFFFFFFFFFFFFFFFFFFFFFFFFFFFFFFFFFFFFFFFF AND PUSH20 0xFFFFFFFFFFFFFFFFFFFFFFFFFFFFFFFFFFFFFFFF AND DUP2 MSTORE PUSH1 0x20 ADD SWAP1 DUP2 MSTORE PUSH1 0x20 ADD PUSH1 0x0 KECCAK256 PUSH1 0x0 SWAP1 SLOAD SWAP1 PUSH2 0x100 EXP SWAP1 DIV PUSH20 0xFFFFFFFFFFFFFFFFFFFFFFFFFFFFFFFFFFFFFFFF AND DUP4 PUSH3 0x6FB PUSH1 0x20 SHL PUSH1 0x20 SHR JUMP JUMPDEST POP POP JUMP JUMPDEST PUSH1 0x0 PUSH20 0xFFFFFFFFFFFFFFFFFFFFFFFFFFFFFFFFFFFFFFFF AND DUP3 PUSH20 0xFFFFFFFFFFFFFFFFFFFFFFFFFFFFFFFFFFFFFFFF AND EQ ISZERO PUSH3 0x5C1 JUMPI PUSH1 0x40 MLOAD PUSH32 0x8C379A000000000000000000000000000000000000000000000000000000000 DUP2 MSTORE PUSH1 0x4 ADD DUP1 DUP1 PUSH1 0x20 ADD DUP3 DUP2 SUB DUP3 MSTORE PUSH1 0x1F DUP2 MSTORE PUSH1 0x20 ADD DUP1 PUSH32 0x45524332303A206D696E7420746F20746865207A65726F206164647265737300 DUP2 MSTORE POP PUSH1 0x20 ADD SWAP2 POP POP PUSH1 0x40 MLOAD DUP1 SWAP2 SUB SWAP1 REVERT JUMPDEST PUSH3 0x5D5 PUSH1 0x0 DUP4 DUP4 PUSH3 0x9BE PUSH1 0x20 SHL PUSH1 0x20 SHR JUMP JUMPDEST PUSH3 0x5F1 DUP2 PUSH1 0x2 SLOAD PUSH3 0xAB3 PUSH1 0x20 SHL PUSH3 0x2C16 OR SWAP1 SWAP2 SWAP1 PUSH1 0x20 SHR JUMP JUMPDEST PUSH1 0x2 DUP2 SWAP1 SSTORE POP PUSH3 0x64F DUP2 PUSH1 0x0 DUP1 DUP6 PUSH20 0xFFFFFFFFFFFFFFFFFFFFFFFFFFFFFFFFFFFFFFFF AND PUSH20 0xFFFFFFFFFFFFFFFFFFFFFFFFFFFFFFFFFFFFFFFF AND DUP2 MSTORE PUSH1 0x20 ADD SWAP1 DUP2 MSTORE PUSH1 0x20 ADD PUSH1 0x0 KECCAK256 SLOAD PUSH3 0xAB3 PUSH1 0x20 SHL PUSH3 0x2C16 OR SWAP1 SWAP2 SWAP1 PUSH1 0x20 SHR JUMP JUMPDEST PUSH1 0x0 DUP1 DUP5 PUSH20 0xFFFFFFFFFFFFFFFFFFFFFFFFFFFFFFFFFFFFFFFF AND PUSH20 0xFFFFFFFFFFFFFFFFFFFFFFFFFFFFFFFFFFFFFFFF AND DUP2 MSTORE PUSH1 0x20 ADD SWAP1 DUP2 MSTORE PUSH1 0x20 ADD PUSH1 0x0 KECCAK256 DUP2 SWAP1 SSTORE POP DUP2 PUSH20 0xFFFFFFFFFFFFFFFFFFFFFFFFFFFFFFFFFFFFFFFF AND PUSH1 0x0 PUSH20 0xFFFFFFFFFFFFFFFFFFFFFFFFFFFFFFFFFFFFFFFF AND PUSH32 0xDDF252AD1BE2C89B69C2B068FC378DAA952BA7F163C4A11628F55A4DF523B3EF DUP4 PUSH1 0x40 MLOAD DUP1 DUP3 DUP2 MSTORE PUSH1 0x20 ADD SWAP2 POP POP PUSH1 0x40 MLOAD DUP1 SWAP2 SUB SWAP1 LOG3 POP POP JUMP JUMPDEST DUP2 PUSH20 0xFFFFFFFFFFFFFFFFFFFFFFFFFFFFFFFFFFFFFFFF AND DUP4 PUSH20 0xFFFFFFFFFFFFFFFFFFFFFFFFFFFFFFFFFFFFFFFF AND EQ ISZERO DUP1 ISZERO PUSH3 0x738 JUMPI POP PUSH1 0x0 DUP2 GT JUMPDEST ISZERO PUSH3 0x9B9 JUMPI PUSH1 0x0 PUSH20 0xFFFFFFFFFFFFFFFFFFFFFFFFFFFFFFFFFFFFFFFF AND DUP4 PUSH20 0xFFFFFFFFFFFFFFFFFFFFFFFFFFFFFFFFFFFFFFFF AND EQ PUSH3 0x87B JUMPI PUSH1 0x0 PUSH1 0xB PUSH1 0x0 DUP6 PUSH20 0xFFFFFFFFFFFFFFFFFFFFFFFFFFFFFFFFFFFFFFFF AND PUSH20 0xFFFFFFFFFFFFFFFFFFFFFFFFFFFFFFFFFFFFFFFF AND DUP2 MSTORE PUSH1 0x20 ADD SWAP1 DUP2 MSTORE PUSH1 0x20 ADD PUSH1 0x0 KECCAK256 PUSH1 0x0 SWAP1 SLOAD SWAP1 PUSH2 0x100 EXP SWAP1 DIV PUSH4 0xFFFFFFFF AND SWAP1 POP PUSH1 0x0 DUP1 DUP3 PUSH4 0xFFFFFFFF AND GT PUSH3 0x7DF JUMPI PUSH1 0x0 PUSH3 0x843 JUMP JUMPDEST PUSH1 0xA PUSH1 0x0 DUP7 PUSH20 0xFFFFFFFFFFFFFFFFFFFFFFFFFFFFFFFFFFFFFFFF AND PUSH20 0xFFFFFFFFFFFFFFFFFFFFFFFFFFFFFFFFFFFFFFFF AND DUP2 MSTORE PUSH1 0x20 ADD SWAP1 DUP2 MSTORE PUSH1 0x20 ADD PUSH1 0x0 KECCAK256 PUSH1 0x0 PUSH1 0x1 DUP5 SUB PUSH4 0xFFFFFFFF AND PUSH4 0xFFFFFFFF AND DUP2 MSTORE PUSH1 0x20 ADD SWAP1 DUP2 MSTORE PUSH1 0x20 ADD PUSH1 0x0 KECCAK256 PUSH1 0x1 ADD SLOAD JUMPDEST SWAP1 POP PUSH1 0x0 PUSH3 0x861 DUP5 DUP4 PUSH3 0xB3C PUSH1 0x20 SHL PUSH3 0x2C9E OR SWAP1 SWAP2 SWAP1 PUSH1 0x20 SHR JUMP JUMPDEST SWAP1 POP PUSH3 0x877 DUP7 DUP5 DUP5 DUP5 PUSH3 0xB8E PUSH1 0x20 SHL PUSH1 0x20 SHR JUMP JUMPDEST POP POP POP JUMPDEST PUSH1 0x0 PUSH20 0xFFFFFFFFFFFFFFFFFFFFFFFFFFFFFFFFFFFFFFFF AND DUP3 PUSH20 0xFFFFFFFFFFFFFFFFFFFFFFFFFFFFFFFFFFFFFFFF AND EQ PUSH3 0x9B8 JUMPI PUSH1 0x0 PUSH1 0xB PUSH1 0x0 DUP5 PUSH20 0xFFFFFFFFFFFFFFFFFFFFFFFFFFFFFFFFFFFFFFFF AND PUSH20 0xFFFFFFFFFFFFFFFFFFFFFFFFFFFFFFFFFFFFFFFF AND DUP2 MSTORE PUSH1 0x20 ADD SWAP1 DUP2 MSTORE PUSH1 0x20 ADD PUSH1 0x0 KECCAK256 PUSH1 0x0 SWAP1 SLOAD SWAP1 PUSH2 0x100 EXP SWAP1 DIV PUSH4 0xFFFFFFFF AND SWAP1 POP PUSH1 0x0 DUP1 DUP3 PUSH4 0xFFFFFFFF AND GT PUSH3 0x91C JUMPI PUSH1 0x0 PUSH3 0x980 JUMP JUMPDEST PUSH1 0xA PUSH1 0x0 DUP6 PUSH20 0xFFFFFFFFFFFFFFFFFFFFFFFFFFFFFFFFFFFFFFFF AND PUSH20 0xFFFFFFFFFFFFFFFFFFFFFFFFFFFFFFFFFFFFFFFF AND DUP2 MSTORE PUSH1 0x20 ADD SWAP1 DUP2 MSTORE PUSH1 0x20 ADD PUSH1 0x0 KECCAK256 PUSH1 0x0 PUSH1 0x1 DUP5 SUB PUSH4 0xFFFFFFFF AND PUSH4 0xFFFFFFFF AND DUP2 MSTORE PUSH1 0x20 ADD SWAP1 DUP2 MSTORE PUSH1 0x20 ADD PUSH1 0x0 KECCAK256 PUSH1 0x1 ADD SLOAD JUMPDEST SWAP1 POP PUSH1 0x0 PUSH3 0x99E DUP5 DUP4 PUSH3 0xAB3 PUSH1 0x20 SHL PUSH3 0x2C16 OR SWAP1 SWAP2 SWAP1 PUSH1 0x20 SHR JUMP JUMPDEST SWAP1 POP PUSH3 0x9B4 DUP6 DUP5 DUP5 DUP5 PUSH3 0xB8E PUSH1 0x20 SHL PUSH1 0x20 SHR JUMP JUMPDEST POP POP POP JUMPDEST JUMPDEST POP POP POP JUMP JUMPDEST PUSH3 0x9D6 DUP4 DUP4 DUP4 PUSH3 0xDC5 PUSH1 0x20 SHL PUSH3 0x2CE8 OR PUSH1 0x20 SHR JUMP JUMPDEST PUSH1 0x0 PUSH20 0xFFFFFFFFFFFFFFFFFFFFFFFFFFFFFFFFFFFFFFFF AND DUP4 PUSH20 0xFFFFFFFFFFFFFFFFFFFFFFFFFFFFFFFFFFFFFFFF AND EQ ISZERO PUSH3 0xAAE JUMPI PUSH1 0x6 SLOAD PUSH3 0xA38 DUP3 PUSH3 0xA24 PUSH3 0xDCA PUSH1 0x20 SHL PUSH1 0x20 SHR JUMP JUMPDEST PUSH3 0xAB3 PUSH1 0x20 SHL PUSH3 0x2C16 OR SWAP1 SWAP2 SWAP1 PUSH1 0x20 SHR JUMP JUMPDEST GT ISZERO PUSH3 0xAAD JUMPI PUSH1 0x40 MLOAD PUSH32 0x8C379A000000000000000000000000000000000000000000000000000000000 DUP2 MSTORE PUSH1 0x4 ADD DUP1 DUP1 PUSH1 0x20 ADD DUP3 DUP2 SUB DUP3 MSTORE PUSH1 0x19 DUP2 MSTORE PUSH1 0x20 ADD DUP1 PUSH32 0x45524332304361707065643A2063617020657863656564656400000000000000 DUP2 MSTORE POP PUSH1 0x20 ADD SWAP2 POP POP PUSH1 0x40 MLOAD DUP1 SWAP2 SUB SWAP1 REVERT JUMPDEST JUMPDEST POP POP POP JUMP JUMPDEST PUSH1 0x0 DUP1 DUP3 DUP5 ADD SWAP1 POP DUP4 DUP2 LT ISZERO PUSH3 0xB32 JUMPI PUSH1 0x40 MLOAD PUSH32 0x8C379A000000000000000000000000000000000000000000000000000000000 DUP2 MSTORE PUSH1 0x4 ADD DUP1 DUP1 PUSH1 0x20 ADD DUP3 DUP2 SUB DUP3 MSTORE PUSH1 0x1B DUP2 MSTORE PUSH1 0x20 ADD DUP1 PUSH32 0x536166654D6174683A206164646974696F6E206F766572666C6F770000000000 DUP2 MSTORE POP PUSH1 0x20 ADD SWAP2 POP POP PUSH1 0x40 MLOAD DUP1 SWAP2 SUB SWAP1 REVERT JUMPDEST DUP1 SWAP2 POP POP SWAP3 SWAP2 POP POP JUMP JUMPDEST PUSH1 0x0 PUSH3 0xB86 DUP4 DUP4 PUSH1 0x40 MLOAD DUP1 PUSH1 0x40 ADD PUSH1 0x40 MSTORE DUP1 PUSH1 0x1E DUP2 MSTORE PUSH1 0x20 ADD PUSH32 0x536166654D6174683A207375627472616374696F6E206F766572666C6F770000 DUP2 MSTORE POP PUSH3 0xDD4 PUSH1 0x20 SHL PUSH1 0x20 SHR JUMP JUMPDEST SWAP1 POP SWAP3 SWAP2 POP POP JUMP JUMPDEST PUSH1 0x0 NUMBER SWAP1 POP PUSH1 0x0 DUP5 PUSH4 0xFFFFFFFF AND GT DUP1 ISZERO PUSH3 0xC0B JUMPI POP DUP1 PUSH1 0xA PUSH1 0x0 DUP8 PUSH20 0xFFFFFFFFFFFFFFFFFFFFFFFFFFFFFFFFFFFFFFFF AND PUSH20 0xFFFFFFFFFFFFFFFFFFFFFFFFFFFFFFFFFFFFFFFF AND DUP2 MSTORE PUSH1 0x20 ADD SWAP1 DUP2 MSTORE PUSH1 0x20 ADD PUSH1 0x0 KECCAK256 PUSH1 0x0 PUSH1 0x1 DUP8 SUB PUSH4 0xFFFFFFFF AND PUSH4 0xFFFFFFFF AND DUP2 MSTORE PUSH1 0x20 ADD SWAP1 DUP2 MSTORE PUSH1 0x20 ADD PUSH1 0x0 KECCAK256 PUSH1 0x0 ADD SLOAD EQ JUMPDEST ISZERO PUSH3 0xC7E JUMPI DUP2 PUSH1 0xA PUSH1 0x0 DUP8 PUSH20 0xFFFFFFFFFFFFFFFFFFFFFFFFFFFFFFFFFFFFFFFF AND PUSH20 0xFFFFFFFFFFFFFFFFFFFFFFFFFFFFFFFFFFFFFFFF AND DUP2 MSTORE PUSH1 0x20 ADD SWAP1 DUP2 MSTORE PUSH1 0x20 ADD PUSH1 0x0 KECCAK256 PUSH1 0x0 PUSH1 0x1 DUP8 SUB PUSH4 0xFFFFFFFF AND PUSH4 0xFFFFFFFF AND DUP2 MSTORE PUSH1 0x20 ADD SWAP1 DUP2 MSTORE PUSH1 0x20 ADD PUSH1 0x0 KECCAK256 PUSH1 0x1 ADD DUP2 SWAP1 SSTORE POP PUSH3 0xD68 JUMP JUMPDEST PUSH1 0x40 MLOAD DUP1 PUSH1 0x40 ADD PUSH1 0x40 MSTORE DUP1 DUP3 DUP2 MSTORE PUSH1 0x20 ADD DUP4 DUP2 MSTORE POP PUSH1 0xA PUSH1 0x0 DUP8 PUSH20 0xFFFFFFFFFFFFFFFFFFFFFFFFFFFFFFFFFFFFFFFF AND PUSH20 0xFFFFFFFFFFFFFFFFFFFFFFFFFFFFFFFFFFFFFFFF AND DUP2 MSTORE PUSH1 0x20 ADD SWAP1 DUP2 MSTORE PUSH1 0x20 ADD PUSH1 0x0 KECCAK256 PUSH1 0x0 DUP7 PUSH4 0xFFFFFFFF AND PUSH4 0xFFFFFFFF AND DUP2 MSTORE PUSH1 0x20 ADD SWAP1 DUP2 MSTORE PUSH1 0x20 ADD PUSH1 0x0 KECCAK256 PUSH1 0x0 DUP3 ADD MLOAD DUP2 PUSH1 0x0 ADD SSTORE PUSH1 0x20 DUP3 ADD MLOAD DUP2 PUSH1 0x1 ADD SSTORE SWAP1 POP POP PUSH1 0x1 DUP5 ADD PUSH1 0xB PUSH1 0x0 DUP8 PUSH20 0xFFFFFFFFFFFFFFFFFFFFFFFFFFFFFFFFFFFFFFFF AND PUSH20 0xFFFFFFFFFFFFFFFFFFFFFFFFFFFFFFFFFFFFFFFF AND DUP2 MSTORE PUSH1 0x20 ADD SWAP1 DUP2 MSTORE PUSH1 0x20 ADD PUSH1 0x0 KECCAK256 PUSH1 0x0 PUSH2 0x100 EXP DUP2 SLOAD DUP2 PUSH4 0xFFFFFFFF MUL NOT AND SWAP1 DUP4 PUSH4 0xFFFFFFFF AND MUL OR SWAP1 SSTORE POP JUMPDEST DUP5 PUSH20 0xFFFFFFFFFFFFFFFFFFFFFFFFFFFFFFFFFFFFFFFF AND PUSH32 0xDEC2BACDD2F05B59DE34DA9B523DFF8BE42E5E38E818C82FDB0BAE774387A724 DUP5 DUP5 PUSH1 0x40 MLOAD DUP1 DUP4 DUP2 MSTORE PUSH1 0x20 ADD DUP3 DUP2 MSTORE PUSH1 0x20 ADD SWAP3 POP POP POP PUSH1 0x40 MLOAD DUP1 SWAP2 SUB SWAP1 LOG2 POP POP POP POP POP JUMP JUMPDEST POP POP POP JUMP JUMPDEST PUSH1 0x0 PUSH1 0x2 SLOAD SWAP1 POP SWAP1 JUMP JUMPDEST PUSH1 0x0 DUP4 DUP4 GT ISZERO DUP3 SWAP1 PUSH3 0xE85 JUMPI PUSH1 0x40 MLOAD PUSH32 0x8C379A000000000000000000000000000000000000000000000000000000000 DUP2 MSTORE PUSH1 0x4 ADD DUP1 DUP1 PUSH1 0x20 ADD DUP3 DUP2 SUB DUP3 MSTORE DUP4 DUP2 DUP2 MLOAD DUP2 MSTORE PUSH1 0x20 ADD SWAP2 POP DUP1 MLOAD SWAP1 PUSH1 0x20 ADD SWAP1 DUP1 DUP4 DUP4 PUSH1 0x0 JUMPDEST DUP4 DUP2 LT ISZERO PUSH3 0xE49 JUMPI DUP1 DUP3 ADD MLOAD DUP2 DUP5 ADD MSTORE PUSH1 0x20 DUP2 ADD SWAP1 POP PUSH3 0xE2C JUMP JUMPDEST POP POP POP POP SWAP1 POP SWAP1 DUP2 ADD SWAP1 PUSH1 0x1F AND DUP1 ISZERO PUSH3 0xE77 JUMPI DUP1 DUP3 SUB DUP1 MLOAD PUSH1 0x1 DUP4 PUSH1 0x20 SUB PUSH2 0x100 EXP SUB NOT AND DUP2 MSTORE PUSH1 0x20 ADD SWAP2 POP JUMPDEST POP SWAP3 POP POP POP PUSH1 0x40 MLOAD DUP1 SWAP2 SUB SWAP1 REVERT JUMPDEST POP PUSH1 0x0 DUP4 DUP6 SUB SWAP1 POP DUP1 SWAP2 POP POP SWAP4 SWAP3 POP POP POP JUMP JUMPDEST DUP3 DUP1 SLOAD PUSH1 0x1 DUP2 PUSH1 0x1 AND ISZERO PUSH2 0x100 MUL SUB AND PUSH1 0x2 SWAP1 DIV SWAP1 PUSH1 0x0 MSTORE PUSH1 0x20 PUSH1 0x0 KECCAK256 SWAP1 PUSH1 0x1F ADD PUSH1 0x20 SWAP1 DIV DUP2 ADD SWAP3 DUP3 PUSH1 0x1F LT PUSH3 0xEDB JUMPI DUP1 MLOAD PUSH1 0xFF NOT AND DUP4 DUP1 ADD OR DUP6 SSTORE PUSH3 0xF0C JUMP JUMPDEST DUP3 DUP1 ADD PUSH1 0x1 ADD DUP6 SSTORE DUP3 ISZERO PUSH3 0xF0C JUMPI SWAP2 DUP3 ADD JUMPDEST DUP3 DUP2 GT ISZERO PUSH3 0xF0B JUMPI DUP3 MLOAD DUP3 SSTORE SWAP2 PUSH1 0x20 ADD SWAP2 SWAP1 PUSH1 0x1 ADD SWAP1 PUSH3 0xEEE JUMP JUMPDEST JUMPDEST POP SWAP1 POP PUSH3 0xF1B SWAP2 SWAP1 PUSH3 0xF1F JUMP JUMPDEST POP SWAP1 JUMP JUMPDEST JUMPDEST DUP1 DUP3 GT ISZERO PUSH3 0xF3A JUMPI PUSH1 0x0 DUP2 PUSH1 0x0 SWAP1 SSTORE POP PUSH1 0x1 ADD PUSH3 0xF20 JUMP JUMPDEST POP SWAP1 JUMP JUMPDEST PUSH2 0x42B9 DUP1 PUSH3 0xF4E PUSH1 0x0 CODECOPY PUSH1 0x0 RETURN INVALID PUSH1 0x80 PUSH1 0x40 MSTORE CALLVALUE DUP1 ISZERO PUSH2 0x10 JUMPI PUSH1 0x0 DUP1 REVERT JUMPDEST POP PUSH1 0x4 CALLDATASIZE LT PUSH2 0x206 JUMPI PUSH1 0x0 CALLDATALOAD PUSH1 0xE0 SHR DUP1 PUSH4 0x715018A6 GT PUSH2 0x11A JUMPI DUP1 PUSH4 0xB4B5EA57 GT PUSH2 0xAD JUMPI DUP1 PUSH4 0xE47D6060 GT PUSH2 0x7C JUMPI DUP1 PUSH4 0xE47D6060 EQ PUSH2 0xA97 JUMPI DUP1 PUSH4 0xE4997DC5 EQ PUSH2 0xAF1 JUMPI DUP1 PUSH4 0xE7A324DC EQ PUSH2 0xB35 JUMPI DUP1 PUSH4 0xF1127ED8 EQ PUSH2 0xB53 JUMPI DUP1 PUSH4 0xF2FDE38B EQ PUSH2 0xBC2 JUMPI PUSH2 0x206 JUMP JUMPDEST DUP1 PUSH4 0xB4B5EA57 EQ PUSH2 0x944 JUMPI DUP1 PUSH4 0xC3CDA520 EQ PUSH2 0x99C JUMPI DUP1 PUSH4 0xD431B1AC EQ PUSH2 0xA15 JUMPI DUP1 PUSH4 0xDD62ED3E EQ PUSH2 0xA1F JUMPI PUSH2 0x206 JUMP JUMPDEST DUP1 PUSH4 0x8DA5CB5B GT PUSH2 0xE9 JUMPI DUP1 PUSH4 0x8DA5CB5B EQ PUSH2 0x7C5 JUMPI DUP1 PUSH4 0x95D89B41 EQ PUSH2 0x7F9 JUMPI DUP1 PUSH4 0xA457C2D7 EQ PUSH2 0x87C JUMPI DUP1 PUSH4 0xA9059CBB EQ PUSH2 0x8E0 JUMPI PUSH2 0x206 JUMP JUMPDEST DUP1 PUSH4 0x715018A6 EQ PUSH2 0x6F7 JUMPI DUP1 PUSH4 0x782D6FE1 EQ PUSH2 0x701 JUMPI DUP1 PUSH4 0x7ECEBE00 EQ PUSH2 0x763 JUMPI DUP1 PUSH4 0x848CB5C6 EQ PUSH2 0x7BB JUMPI PUSH2 0x206 JUMP JUMPDEST DUP1 PUSH4 0x39509351 GT PUSH2 0x19D JUMPI DUP1 PUSH4 0x59BF1ABE GT PUSH2 0x16C JUMPI DUP1 PUSH4 0x59BF1ABE EQ PUSH2 0x583 JUMPI DUP1 PUSH4 0x5C19A95C EQ PUSH2 0x5DD JUMPI DUP1 PUSH4 0x5C975ABB EQ PUSH2 0x621 JUMPI DUP1 PUSH4 0x6FCFFF45 EQ PUSH2 0x641 JUMPI DUP1 PUSH4 0x70A08231 EQ PUSH2 0x69F JUMPI PUSH2 0x206 JUMP JUMPDEST DUP1 PUSH4 0x39509351 EQ PUSH2 0x435 JUMPI DUP1 PUSH4 0x40C10F19 EQ PUSH2 0x499 JUMPI DUP1 PUSH4 0x42966C68 EQ PUSH2 0x4E7 JUMPI DUP1 PUSH4 0x587CDE1E EQ PUSH2 0x515 JUMPI PUSH2 0x206 JUMP JUMPDEST DUP1 PUSH4 0x20606B70 GT PUSH2 0x1D9 JUMPI DUP1 PUSH4 0x20606B70 EQ PUSH2 0x354 JUMPI DUP1 PUSH4 0x23B872DD EQ PUSH2 0x372 JUMPI DUP1 PUSH4 0x313CE567 EQ PUSH2 0x3F6 JUMPI DUP1 PUSH4 0x355274EA EQ PUSH2 0x417 JUMPI PUSH2 0x206 JUMP JUMPDEST DUP1 PUSH4 0x6FDDE03 EQ PUSH2 0x20B JUMPI DUP1 PUSH4 0x95EA7B3 EQ PUSH2 0x28E JUMPI DUP1 PUSH4 0xECB93C0 EQ PUSH2 0x2F2 JUMPI DUP1 PUSH4 0x18160DDD EQ PUSH2 0x336 JUMPI JUMPDEST PUSH1 0x0 DUP1 REVERT JUMPDEST PUSH2 0x213 PUSH2 0xC06 JUMP JUMPDEST PUSH1 0x40 MLOAD DUP1 DUP1 PUSH1 0x20 ADD DUP3 DUP2 SUB DUP3 MSTORE DUP4 DUP2 DUP2 MLOAD DUP2 MSTORE PUSH1 0x20 ADD SWAP2 POP DUP1 MLOAD SWAP1 PUSH1 0x20 ADD SWAP1 DUP1 DUP4 DUP4 PUSH1 0x0 JUMPDEST DUP4 DUP2 LT ISZERO PUSH2 0x253 JUMPI DUP1 DUP3 ADD MLOAD DUP2 DUP5 ADD MSTORE PUSH1 0x20 DUP2 ADD SWAP1 POP PUSH2 0x238 JUMP JUMPDEST POP POP POP POP SWAP1 POP SWAP1 DUP2 ADD SWAP1 PUSH1 0x1F AND DUP1 ISZERO PUSH2 0x280 JUMPI DUP1 DUP3 SUB DUP1 MLOAD PUSH1 0x1 DUP4 PUSH1 0x20 SUB PUSH2 0x100 EXP SUB NOT AND DUP2 MSTORE PUSH1 0x20 ADD SWAP2 POP JUMPDEST POP SWAP3 POP POP POP PUSH1 0x40 MLOAD DUP1 SWAP2 SUB SWAP1 RETURN JUMPDEST PUSH2 0x2DA PUSH1 0x4 DUP1 CALLDATASIZE SUB PUSH1 0x40 DUP2 LT ISZERO PUSH2 0x2A4 JUMPI PUSH1 0x0 DUP1 REVERT JUMPDEST DUP2 ADD SWAP1 DUP1 DUP1 CALLDATALOAD PUSH20 0xFFFFFFFFFFFFFFFFFFFFFFFFFFFFFFFFFFFFFFFF AND SWAP1 PUSH1 0x20 ADD SWAP1 SWAP3 SWAP2 SWAP1 DUP1 CALLDATALOAD SWAP1 PUSH1 0x20 ADD SWAP1 SWAP3 SWAP2 SWAP1 POP POP POP PUSH2 0xCA8 JUMP JUMPDEST PUSH1 0x40 MLOAD DUP1 DUP3 ISZERO ISZERO DUP2 MSTORE PUSH1 0x20 ADD SWAP2 POP POP PUSH1 0x40 MLOAD DUP1 SWAP2 SUB SWAP1 RETURN JUMPDEST PUSH2 0x334 PUSH1 0x4 DUP1 CALLDATASIZE SUB PUSH1 0x20 DUP2 LT ISZERO PUSH2 0x308 JUMPI PUSH1 0x0 DUP1 REVERT JUMPDEST DUP2 ADD SWAP1 DUP1 DUP1 CALLDATALOAD PUSH20 0xFFFFFFFFFFFFFFFFFFFFFFFFFFFFFFFFFFFFFFFF AND SWAP1 PUSH1 0x20 ADD SWAP1 SWAP3 SWAP2 SWAP1 POP POP POP PUSH2 0xCC6 JUMP JUMPDEST STOP JUMPDEST PUSH2 0x33E PUSH2 0xE38 JUMP JUMPDEST PUSH1 0x40 MLOAD DUP1 DUP3 DUP2 MSTORE PUSH1 0x20 ADD SWAP2 POP POP PUSH1 0x40 MLOAD DUP1 SWAP2 SUB SWAP1 RETURN JUMPDEST PUSH2 0x35C PUSH2 0xE42 JUMP JUMPDEST PUSH1 0x40 MLOAD DUP1 DUP3 DUP2 MSTORE PUSH1 0x20 ADD SWAP2 POP POP PUSH1 0x40 MLOAD DUP1 SWAP2 SUB SWAP1 RETURN JUMPDEST PUSH2 0x3DE PUSH1 0x4 DUP1 CALLDATASIZE SUB PUSH1 0x60 DUP2 LT ISZERO PUSH2 0x388 JUMPI PUSH1 0x0 DUP1 REVERT JUMPDEST DUP2 ADD SWAP1 DUP1 DUP1 CALLDATALOAD PUSH20 0xFFFFFFFFFFFFFFFFFFFFFFFFFFFFFFFFFFFFFFFF AND SWAP1 PUSH1 0x20 ADD SWAP1 SWAP3 SWAP2 SWAP1 DUP1 CALLDATALOAD PUSH20 0xFFFFFFFFFFFFFFFFFFFFFFFFFFFFFFFFFFFFFFFF AND SWAP1 PUSH1 0x20 ADD SWAP1 SWAP3 SWAP2 SWAP1 DUP1 CALLDATALOAD SWAP1 PUSH1 0x20 ADD SWAP1 SWAP3 SWAP2 SWAP1 POP POP POP PUSH2 0xE66 JUMP JUMPDEST PUSH1 0x40 MLOAD DUP1 DUP3 ISZERO ISZERO DUP2 MSTORE PUSH1 0x20 ADD SWAP2 POP POP PUSH1 0x40 MLOAD DUP1 SWAP2 SUB SWAP1 RETURN JUMPDEST PUSH2 0x3FE PUSH2 0x118D JUMP JUMPDEST PUSH1 0x40 MLOAD DUP1 DUP3 PUSH1 0xFF AND DUP2 MSTORE PUSH1 0x20 ADD SWAP2 POP POP PUSH1 0x40 MLOAD DUP1 SWAP2 SUB SWAP1 RETURN JUMPDEST PUSH2 0x41F PUSH2 0x11A4 JUMP JUMPDEST PUSH1 0x40 MLOAD DUP1 DUP3 DUP2 MSTORE PUSH1 0x20 ADD SWAP2 POP POP PUSH1 0x40 MLOAD DUP1 SWAP2 SUB SWAP1 RETURN JUMPDEST PUSH2 0x481 PUSH1 0x4 DUP1 CALLDATASIZE SUB PUSH1 0x40 DUP2 LT ISZERO PUSH2 0x44B JUMPI PUSH1 0x0 DUP1 REVERT JUMPDEST DUP2 ADD SWAP1 DUP1 DUP1 CALLDATALOAD PUSH20 0xFFFFFFFFFFFFFFFFFFFFFFFFFFFFFFFFFFFFFFFF AND SWAP1 PUSH1 0x20 ADD SWAP1 SWAP3 SWAP2 SWAP1 DUP1 CALLDATALOAD SWAP1 PUSH1 0x20 ADD SWAP1 SWAP3 SWAP2 SWAP1 POP POP POP PUSH2 0x11AE JUMP JUMPDEST PUSH1 0x40 MLOAD DUP1 DUP3 ISZERO ISZERO DUP2 MSTORE PUSH1 0x20 ADD SWAP2 POP POP PUSH1 0x40 MLOAD DUP1 SWAP2 SUB SWAP1 RETURN JUMPDEST PUSH2 0x4E5 PUSH1 0x4 DUP1 CALLDATASIZE SUB PUSH1 0x40 DUP2 LT ISZERO PUSH2 0x4AF JUMPI PUSH1 0x0 DUP1 REVERT JUMPDEST DUP2 ADD SWAP1 DUP1 DUP1 CALLDATALOAD PUSH20 0xFFFFFFFFFFFFFFFFFFFFFFFFFFFFFFFFFFFFFFFF AND SWAP1 PUSH1 0x20 ADD SWAP1 SWAP3 SWAP2 SWAP1 DUP1 CALLDATALOAD SWAP1 PUSH1 0x20 ADD SWAP1 SWAP3 SWAP2 SWAP1 POP POP POP PUSH2 0x1261 JUMP JUMPDEST STOP JUMPDEST PUSH2 0x513 PUSH1 0x4 DUP1 CALLDATASIZE SUB PUSH1 0x20 DUP2 LT ISZERO PUSH2 0x4FD JUMPI PUSH1 0x0 DUP1 REVERT JUMPDEST DUP2 ADD SWAP1 DUP1 DUP1 CALLDATALOAD SWAP1 PUSH1 0x20 ADD SWAP1 SWAP3 SWAP2 SWAP1 POP POP POP PUSH2 0x14E7 JUMP JUMPDEST STOP JUMPDEST PUSH2 0x557 PUSH1 0x4 DUP1 CALLDATASIZE SUB PUSH1 0x20 DUP2 LT ISZERO PUSH2 0x52B JUMPI PUSH1 0x0 DUP1 REVERT JUMPDEST DUP2 ADD SWAP1 DUP1 DUP1 CALLDATALOAD PUSH20 0xFFFFFFFFFFFFFFFFFFFFFFFFFFFFFFFFFFFFFFFF AND SWAP1 PUSH1 0x20 ADD SWAP1 SWAP3 SWAP2 SWAP1 POP POP POP PUSH2 0x1577 JUMP JUMPDEST PUSH1 0x40 MLOAD DUP1 DUP3 PUSH20 0xFFFFFFFFFFFFFFFFFFFFFFFFFFFFFFFFFFFFFFFF AND DUP2 MSTORE PUSH1 0x20 ADD SWAP2 POP POP PUSH1 0x40 MLOAD DUP1 SWAP2 SUB SWAP1 RETURN JUMPDEST PUSH2 0x5C5 PUSH1 0x4 DUP1 CALLDATASIZE SUB PUSH1 0x20 DUP2 LT ISZERO PUSH2 0x599 JUMPI PUSH1 0x0 DUP1 REVERT JUMPDEST DUP2 ADD SWAP1 DUP1 DUP1 CALLDATALOAD PUSH20 0xFFFFFFFFFFFFFFFFFFFFFFFFFFFFFFFFFFFFFFFF AND SWAP1 PUSH1 0x20 ADD SWAP1 SWAP3 SWAP2 SWAP1 POP POP POP PUSH2 0x15E0 JUMP JUMPDEST PUSH1 0x40 MLOAD DUP1 DUP3 ISZERO ISZERO DUP2 MSTORE PUSH1 0x20 ADD SWAP2 POP POP PUSH1 0x40 MLOAD DUP1 SWAP2 SUB SWAP1 RETURN JUMPDEST PUSH2 0x61F PUSH1 0x4 DUP1 CALLDATASIZE SUB PUSH1 0x20 DUP2 LT ISZERO PUSH2 0x5F3 JUMPI PUSH1 0x0 DUP1 REVERT JUMPDEST DUP2 ADD SWAP1 DUP1 DUP1 CALLDATALOAD PUSH20 0xFFFFFFFFFFFFFFFFFFFFFFFFFFFFFFFFFFFFFFFF AND SWAP1 PUSH1 0x20 ADD SWAP1 SWAP3 SWAP2 SWAP1 POP POP POP PUSH2 0x1636 JUMP JUMPDEST STOP JUMPDEST PUSH2 0x629 PUSH2 0x1643 JUMP JUMPDEST PUSH1 0x40 MLOAD DUP1 DUP3 ISZERO ISZERO DUP2 MSTORE PUSH1 0x20 ADD SWAP2 POP POP PUSH1 0x40 MLOAD DUP1 SWAP2 SUB SWAP1 RETURN JUMPDEST PUSH2 0x683 PUSH1 0x4 DUP1 CALLDATASIZE SUB PUSH1 0x20 DUP2 LT ISZERO PUSH2 0x657 JUMPI PUSH1 0x0 DUP1 REVERT JUMPDEST DUP2 ADD SWAP1 DUP1 DUP1 CALLDATALOAD PUSH20 0xFFFFFFFFFFFFFFFFFFFFFFFFFFFFFFFFFFFFFFFF AND SWAP1 PUSH1 0x20 ADD SWAP1 SWAP3 SWAP2 SWAP1 POP POP POP PUSH2 0x165A JUMP JUMPDEST PUSH1 0x40 MLOAD DUP1 DUP3 PUSH4 0xFFFFFFFF AND DUP2 MSTORE PUSH1 0x20 ADD SWAP2 POP POP PUSH1 0x40 MLOAD DUP1 SWAP2 SUB SWAP1 RETURN JUMPDEST PUSH2 0x6E1 PUSH1 0x4 DUP1 CALLDATASIZE SUB PUSH1 0x20 DUP2 LT ISZERO PUSH2 0x6B5 JUMPI PUSH1 0x0 DUP1 REVERT JUMPDEST DUP2 ADD SWAP1 DUP1 DUP1 CALLDATALOAD PUSH20 0xFFFFFFFFFFFFFFFFFFFFFFFFFFFFFFFFFFFFFFFF AND SWAP1 PUSH1 0x20 ADD SWAP1 SWAP3 SWAP2 SWAP1 POP POP POP PUSH2 0x167D JUMP JUMPDEST PUSH1 0x40 MLOAD DUP1 DUP3 DUP2 MSTORE PUSH1 0x20 ADD SWAP2 POP POP PUSH1 0x40 MLOAD DUP1 SWAP2 SUB SWAP1 RETURN JUMPDEST PUSH2 0x6FF PUSH2 0x16C5 JUMP JUMPDEST STOP JUMPDEST PUSH2 0x74D PUSH1 0x4 DUP1 CALLDATASIZE SUB PUSH1 0x40 DUP2 LT ISZERO PUSH2 0x717 JUMPI PUSH1 0x0 DUP1 REVERT JUMPDEST DUP2 ADD SWAP1 DUP1 DUP1 CALLDATALOAD PUSH20 0xFFFFFFFFFFFFFFFFFFFFFFFFFFFFFFFFFFFFFFFF AND SWAP1 PUSH1 0x20 ADD SWAP1 SWAP3 SWAP2 SWAP1 DUP1 CALLDATALOAD SWAP1 PUSH1 0x20 ADD SWAP1 SWAP3 SWAP2 SWAP1 POP POP POP PUSH2 0x1850 JUMP JUMPDEST PUSH1 0x40 MLOAD DUP1 DUP3 DUP2 MSTORE PUSH1 0x20 ADD SWAP2 POP POP PUSH1 0x40 MLOAD DUP1 SWAP2 SUB SWAP1 RETURN JUMPDEST PUSH2 0x7A5 PUSH1 0x4 DUP1 CALLDATASIZE SUB PUSH1 0x20 DUP2 LT ISZERO PUSH2 0x779 JUMPI PUSH1 0x0 DUP1 REVERT JUMPDEST DUP2 ADD SWAP1 DUP1 DUP1 CALLDATALOAD PUSH20 0xFFFFFFFFFFFFFFFFFFFFFFFFFFFFFFFFFFFFFFFF AND SWAP1 PUSH1 0x20 ADD SWAP1 SWAP3 SWAP2 SWAP1 POP POP POP PUSH2 0x1BBD JUMP JUMPDEST PUSH1 0x40 MLOAD DUP1 DUP3 DUP2 MSTORE PUSH1 0x20 ADD SWAP2 POP POP PUSH1 0x40 MLOAD DUP1 SWAP2 SUB SWAP1 RETURN JUMPDEST PUSH2 0x7C3 PUSH2 0x1BD5 JUMP JUMPDEST STOP JUMPDEST PUSH2 0x7CD PUSH2 0x1D2C JUMP JUMPDEST PUSH1 0x40 MLOAD DUP1 DUP3 PUSH20 0xFFFFFFFFFFFFFFFFFFFFFFFFFFFFFFFFFFFFFFFF AND DUP2 MSTORE PUSH1 0x20 ADD SWAP2 POP POP PUSH1 0x40 MLOAD DUP1 SWAP2 SUB SWAP1 RETURN JUMPDEST PUSH2 0x801 PUSH2 0x1D56 JUMP JUMPDEST PUSH1 0x40 MLOAD DUP1 DUP1 PUSH1 0x20 ADD DUP3 DUP2 SUB DUP3 MSTORE DUP4 DUP2 DUP2 MLOAD DUP2 MSTORE PUSH1 0x20 ADD SWAP2 POP DUP1 MLOAD SWAP1 PUSH1 0x20 ADD SWAP1 DUP1 DUP4 DUP4 PUSH1 0x0 JUMPDEST DUP4 DUP2 LT ISZERO PUSH2 0x841 JUMPI DUP1 DUP3 ADD MLOAD DUP2 DUP5 ADD MSTORE PUSH1 0x20 DUP2 ADD SWAP1 POP PUSH2 0x826 JUMP JUMPDEST POP POP POP POP SWAP1 POP SWAP1 DUP2 ADD SWAP1 PUSH1 0x1F AND DUP1 ISZERO PUSH2 0x86E JUMPI DUP1 DUP3 SUB DUP1 MLOAD PUSH1 0x1 DUP4 PUSH1 0x20 SUB PUSH2 0x100 EXP SUB NOT AND DUP2 MSTORE PUSH1 0x20 ADD SWAP2 POP JUMPDEST POP SWAP3 POP POP POP PUSH1 0x40 MLOAD DUP1 SWAP2 SUB SWAP1 RETURN JUMPDEST PUSH2 0x8C8 PUSH1 0x4 DUP1 CALLDATASIZE SUB PUSH1 0x40 DUP2 LT ISZERO PUSH2 0x892 JUMPI PUSH1 0x0 DUP1 REVERT JUMPDEST DUP2 ADD SWAP1 DUP1 DUP1 CALLDATALOAD PUSH20 0xFFFFFFFFFFFFFFFFFFFFFFFFFFFFFFFFFFFFFFFF AND SWAP1 PUSH1 0x20 ADD SWAP1 SWAP3 SWAP2 SWAP1 DUP1 CALLDATALOAD SWAP1 PUSH1 0x20 ADD SWAP1 SWAP3 SWAP2 SWAP1 POP POP POP PUSH2 0x1DF8 JUMP JUMPDEST PUSH1 0x40 MLOAD DUP1 DUP3 ISZERO ISZERO DUP2 MSTORE PUSH1 0x20 ADD SWAP2 POP POP PUSH1 0x40 MLOAD DUP1 SWAP2 SUB SWAP1 RETURN JUMPDEST PUSH2 0x92C PUSH1 0x4 DUP1 CALLDATASIZE SUB PUSH1 0x40 DUP2 LT ISZERO PUSH2 0x8F6 JUMPI PUSH1 0x0 DUP1 REVERT JUMPDEST DUP2 ADD SWAP1 DUP1 DUP1 CALLDATALOAD PUSH20 0xFFFFFFFFFFFFFFFFFFFFFFFFFFFFFFFFFFFFFFFF AND SWAP1 PUSH1 0x20 ADD SWAP1 SWAP3 SWAP2 SWAP1 DUP1 CALLDATALOAD SWAP1 PUSH1 0x20 ADD SWAP1 SWAP3 SWAP2 SWAP1 POP POP POP PUSH2 0x1EC5 JUMP JUMPDEST PUSH1 0x40 MLOAD DUP1 DUP3 ISZERO ISZERO DUP2 MSTORE PUSH1 0x20 ADD SWAP2 POP POP PUSH1 0x40 MLOAD DUP1 SWAP2 SUB SWAP1 RETURN JUMPDEST PUSH2 0x986 PUSH1 0x4 DUP1 CALLDATASIZE SUB PUSH1 0x20 DUP2 LT ISZERO PUSH2 0x95A JUMPI PUSH1 0x0 DUP1 REVERT JUMPDEST DUP2 ADD SWAP1 DUP1 DUP1 CALLDATALOAD PUSH20 0xFFFFFFFFFFFFFFFFFFFFFFFFFFFFFFFFFFFFFFFF AND SWAP1 PUSH1 0x20 ADD SWAP1 SWAP3 SWAP2 SWAP1 POP POP POP PUSH2 0x2207 JUMP JUMPDEST PUSH1 0x40 MLOAD DUP1 DUP3 DUP2 MSTORE PUSH1 0x20 ADD SWAP2 POP POP PUSH1 0x40 MLOAD DUP1 SWAP2 SUB SWAP1 RETURN JUMPDEST PUSH2 0xA13 PUSH1 0x4 DUP1 CALLDATASIZE SUB PUSH1 0xC0 DUP2 LT ISZERO PUSH2 0x9B2 JUMPI PUSH1 0x0 DUP1 REVERT JUMPDEST DUP2 ADD SWAP1 DUP1 DUP1 CALLDATALOAD PUSH20 0xFFFFFFFFFFFFFFFFFFFFFFFFFFFFFFFFFFFFFFFF AND SWAP1 PUSH1 0x20 ADD SWAP1 SWAP3 SWAP2 SWAP1 DUP1 CALLDATALOAD SWAP1 PUSH1 0x20 ADD SWAP1 SWAP3 SWAP2 SWAP1 DUP1 CALLDATALOAD SWAP1 PUSH1 0x20 ADD SWAP1 SWAP3 SWAP2 SWAP1 DUP1 CALLDATALOAD PUSH1 0xFF AND SWAP1 PUSH1 0x20 ADD SWAP1 SWAP3 SWAP2 SWAP1 DUP1 CALLDATALOAD SWAP1 PUSH1 0x20 ADD SWAP1 SWAP3 SWAP2 SWAP1 DUP1 CALLDATALOAD SWAP1 PUSH1 0x20 ADD SWAP1 SWAP3 SWAP2 SWAP1 POP POP POP PUSH2 0x22DD JUMP JUMPDEST STOP JUMPDEST PUSH2 0xA1D PUSH2 0x2641 JUMP JUMPDEST STOP JUMPDEST PUSH2 0xA81 PUSH1 0x4 DUP1 CALLDATASIZE SUB PUSH1 0x40 DUP2 LT ISZERO PUSH2 0xA35 JUMPI PUSH1 0x0 DUP1 REVERT JUMPDEST DUP2 ADD SWAP1 DUP1 DUP1 CALLDATALOAD PUSH20 0xFFFFFFFFFFFFFFFFFFFFFFFFFFFFFFFFFFFFFFFF AND SWAP1 PUSH1 0x20 ADD SWAP1 SWAP3 SWAP2 SWAP1 DUP1 CALLDATALOAD PUSH20 0xFFFFFFFFFFFFFFFFFFFFFFFFFFFFFFFFFFFFFFFF AND SWAP1 PUSH1 0x20 ADD SWAP1 SWAP3 SWAP2 SWAP1 POP POP POP PUSH2 0x2798 JUMP JUMPDEST PUSH1 0x40 MLOAD DUP1 DUP3 DUP2 MSTORE PUSH1 0x20 ADD SWAP2 POP POP PUSH1 0x40 MLOAD DUP1 SWAP2 SUB SWAP1 RETURN JUMPDEST PUSH2 0xAD9 PUSH1 0x4 DUP1 CALLDATASIZE SUB PUSH1 0x20 DUP2 LT ISZERO PUSH2 0xAAD JUMPI PUSH1 0x0 DUP1 REVERT JUMPDEST DUP2 ADD SWAP1 DUP1 DUP1 CALLDATALOAD PUSH20 0xFFFFFFFFFFFFFFFFFFFFFFFFFFFFFFFFFFFFFFFF AND SWAP1 PUSH1 0x20 ADD SWAP1 SWAP3 SWAP2 SWAP1 POP POP POP PUSH2 0x281F JUMP JUMPDEST PUSH1 0x40 MLOAD DUP1 DUP3 ISZERO ISZERO DUP2 MSTORE PUSH1 0x20 ADD SWAP2 POP POP PUSH1 0x40 MLOAD DUP1 SWAP2 SUB SWAP1 RETURN JUMPDEST PUSH2 0xB33 PUSH1 0x4 DUP1 CALLDATASIZE SUB PUSH1 0x20 DUP2 LT ISZERO PUSH2 0xB07 JUMPI PUSH1 0x0 DUP1 REVERT JUMPDEST DUP2 ADD SWAP1 DUP1 DUP1 CALLDATALOAD PUSH20 0xFFFFFFFFFFFFFFFFFFFFFFFFFFFFFFFFFFFFFFFF AND SWAP1 PUSH1 0x20 ADD SWAP1 SWAP3 SWAP2 SWAP1 POP POP POP PUSH2 0x283F JUMP JUMPDEST STOP JUMPDEST PUSH2 0xB3D PUSH2 0x29B1 JUMP JUMPDEST PUSH1 0x40 MLOAD DUP1 DUP3 DUP2 MSTORE PUSH1 0x20 ADD SWAP2 POP POP PUSH1 0x40 MLOAD DUP1 SWAP2 SUB SWAP1 RETURN JUMPDEST PUSH2 0xBA5 PUSH1 0x4 DUP1 CALLDATASIZE SUB PUSH1 0x40 DUP2 LT ISZERO PUSH2 0xB69 JUMPI PUSH1 0x0 DUP1 REVERT JUMPDEST DUP2 ADD SWAP1 DUP1 DUP1 CALLDATALOAD PUSH20 0xFFFFFFFFFFFFFFFFFFFFFFFFFFFFFFFFFFFFFFFF AND SWAP1 PUSH1 0x20 ADD SWAP1 SWAP3 SWAP2 SWAP1 DUP1 CALLDATALOAD PUSH4 0xFFFFFFFF AND SWAP1 PUSH1 0x20 ADD SWAP1 SWAP3 SWAP2 SWAP1 POP POP POP PUSH2 0x29D5 JUMP JUMPDEST PUSH1 0x40 MLOAD DUP1 DUP4 DUP2 MSTORE PUSH1 0x20 ADD DUP3 DUP2 MSTORE PUSH1 0x20 ADD SWAP3 POP POP POP PUSH1 0x40 MLOAD DUP1 SWAP2 SUB SWAP1 RETURN JUMPDEST PUSH2 0xC04 PUSH1 0x4 DUP1 CALLDATASIZE SUB PUSH1 0x20 DUP2 LT ISZERO PUSH2 0xBD8 JUMPI PUSH1 0x0 DUP1 REVERT JUMPDEST DUP2 ADD SWAP1 DUP1 DUP1 CALLDATALOAD PUSH20 0xFFFFFFFFFFFFFFFFFFFFFFFFFFFFFFFFFFFFFFFF AND SWAP1 PUSH1 0x20 ADD SWAP1 SWAP3 SWAP2 SWAP1 POP POP POP PUSH2 0x2A06 JUMP JUMPDEST STOP JUMPDEST PUSH1 0x60 PUSH1 0x3 DUP1 SLOAD PUSH1 0x1 DUP2 PUSH1 0x1 AND ISZERO PUSH2 0x100 MUL SUB AND PUSH1 0x2 SWAP1 DIV DUP1 PUSH1 0x1F ADD PUSH1 0x20 DUP1 SWAP2 DIV MUL PUSH1 0x20 ADD PUSH1 0x40 MLOAD SWAP1 DUP2 ADD PUSH1 0x40 MSTORE DUP1 SWAP3 SWAP2 SWAP1 DUP2 DUP2 MSTORE PUSH1 0x20 ADD DUP3 DUP1 SLOAD PUSH1 0x1 DUP2 PUSH1 0x1 AND ISZERO PUSH2 0x100 MUL SUB AND PUSH1 0x2 SWAP1 DIV DUP1 ISZERO PUSH2 0xC9E JUMPI DUP1 PUSH1 0x1F LT PUSH2 0xC73 JUMPI PUSH2 0x100 DUP1 DUP4 SLOAD DIV MUL DUP4 MSTORE SWAP2 PUSH1 0x20 ADD SWAP2 PUSH2 0xC9E JUMP JUMPDEST DUP3 ADD SWAP2 SWAP1 PUSH1 0x0 MSTORE PUSH1 0x20 PUSH1 0x0 KECCAK256 SWAP1 JUMPDEST DUP2 SLOAD DUP2 MSTORE SWAP1 PUSH1 0x1 ADD SWAP1 PUSH1 0x20 ADD DUP1 DUP4 GT PUSH2 0xC81 JUMPI DUP3 SWAP1 SUB PUSH1 0x1F AND DUP3 ADD SWAP2 JUMPDEST POP POP POP POP POP SWAP1 POP SWAP1 JUMP JUMPDEST PUSH1 0x0 PUSH2 0xCBC PUSH2 0xCB5 PUSH2 0x2CED JUMP JUMPDEST DUP5 DUP5 PUSH2 0x2CF5 JUMP JUMPDEST PUSH1 0x1 SWAP1 POP SWAP3 SWAP2 POP POP JUMP JUMPDEST PUSH2 0xCCE PUSH2 0x2CED JUMP JUMPDEST PUSH20 0xFFFFFFFFFFFFFFFFFFFFFFFFFFFFFFFFFFFFFFFF AND PUSH1 0x7 PUSH1 0x0 SWAP1 SLOAD SWAP1 PUSH2 0x100 EXP SWAP1 DIV PUSH20 0xFFFFFFFFFFFFFFFFFFFFFFFFFFFFFFFFFFFFFFFF AND PUSH20 0xFFFFFFFFFFFFFFFFFFFFFFFFFFFFFFFFFFFFFFFF AND EQ PUSH2 0xD90 JUMPI PUSH1 0x40 MLOAD PUSH32 0x8C379A000000000000000000000000000000000000000000000000000000000 DUP2 MSTORE PUSH1 0x4 ADD DUP1 DUP1 PUSH1 0x20 ADD DUP3 DUP2 SUB DUP3 MSTORE PUSH1 0x20 DUP2 MSTORE PUSH1 0x20 ADD DUP1 PUSH32 0x4F776E61626C653A2063616C6C6572206973206E6F7420746865206F776E6572 DUP2 MSTORE POP PUSH1 0x20 ADD SWAP2 POP POP PUSH1 0x40 MLOAD DUP1 SWAP2 SUB SWAP1 REVERT JUMPDEST PUSH1 0x1 PUSH1 0x8 PUSH1 0x0 DUP4 PUSH20 0xFFFFFFFFFFFFFFFFFFFFFFFFFFFFFFFFFFFFFFFF AND PUSH20 0xFFFFFFFFFFFFFFFFFFFFFFFFFFFFFFFFFFFFFFFF AND DUP2 MSTORE PUSH1 0x20 ADD SWAP1 DUP2 MSTORE PUSH1 0x20 ADD PUSH1 0x0 KECCAK256 PUSH1 0x0 PUSH2 0x100 EXP DUP2 SLOAD DUP2 PUSH1 0xFF MUL NOT AND SWAP1 DUP4 ISZERO ISZERO MUL OR SWAP1 SSTORE POP PUSH32 0x42E160154868087D6BFDC0CA23D96A1C1CFA32F1B72BA9BA27B69B98A0D819DC DUP2 PUSH1 0x40 MLOAD DUP1 DUP3 PUSH20 0xFFFFFFFFFFFFFFFFFFFFFFFFFFFFFFFFFFFFFFFF AND DUP2 MSTORE PUSH1 0x20 ADD SWAP2 POP POP PUSH1 0x40 MLOAD DUP1 SWAP2 SUB SWAP1 LOG1 POP JUMP JUMPDEST PUSH1 0x0 PUSH1 0x2 SLOAD SWAP1 POP SWAP1 JUMP JUMPDEST PUSH32 0x8CAD95687BA82C2CE50E74F7B754645E5117C3A5BEC8151C0726D5857980A866 DUP2 JUMP JUMPDEST PUSH1 0x0 PUSH1 0x60 PUSH1 0x4 DUP2 ADD PUSH1 0x0 CALLDATASIZE SWAP1 POP LT ISZERO PUSH2 0xEE7 JUMPI PUSH1 0x40 MLOAD PUSH32 0x8C379A000000000000000000000000000000000000000000000000000000000 DUP2 MSTORE PUSH1 0x4 ADD DUP1 DUP1 PUSH1 0x20 ADD DUP3 DUP2 SUB DUP3 MSTORE PUSH1 0x19 DUP2 MSTORE PUSH1 0x20 ADD DUP1 PUSH32 0x416464726573732074797065206E6F7420616C6C6F7765642100000000000000 DUP2 MSTORE POP PUSH1 0x20 ADD SWAP2 POP POP PUSH1 0x40 MLOAD DUP1 SWAP2 SUB SWAP1 REVERT JUMPDEST PUSH1 0x7 PUSH1 0x14 SWAP1 SLOAD SWAP1 PUSH2 0x100 EXP SWAP1 DIV PUSH1 0xFF AND ISZERO PUSH2 0xF6A JUMPI PUSH1 0x40 MLOAD PUSH32 0x8C379A000000000000000000000000000000000000000000000000000000000 DUP2 MSTORE PUSH1 0x4 ADD DUP1 DUP1 PUSH1 0x20 ADD DUP3 DUP2 SUB DUP3 MSTORE PUSH1 0x10 DUP2 MSTORE PUSH1 0x20 ADD DUP1 PUSH32 0x5061757361626C653A2070617573656400000000000000000000000000000000 DUP2 MSTORE POP PUSH1 0x20 ADD SWAP2 POP POP PUSH1 0x40 MLOAD DUP1 SWAP2 SUB SWAP1 REVERT JUMPDEST PUSH1 0x8 PUSH1 0x0 DUP7 PUSH20 0xFFFFFFFFFFFFFFFFFFFFFFFFFFFFFFFFFFFFFFFF AND PUSH20 0xFFFFFFFFFFFFFFFFFFFFFFFFFFFFFFFFFFFFFFFF AND DUP2 MSTORE PUSH1 0x20 ADD SWAP1 DUP2 MSTORE PUSH1 0x20 ADD PUSH1 0x0 KECCAK256 PUSH1 0x0 SWAP1 SLOAD SWAP1 PUSH2 0x100 EXP SWAP1 DIV PUSH1 0xFF AND ISZERO PUSH2 0x100D JUMPI PUSH1 0x40 MLOAD PUSH32 0x8C379A000000000000000000000000000000000000000000000000000000000 DUP2 MSTORE PUSH1 0x4 ADD DUP1 DUP1 PUSH1 0x20 ADD DUP3 DUP2 SUB DUP3 MSTORE PUSH1 0x24 DUP2 MSTORE PUSH1 0x20 ADD DUP1 PUSH2 0x4186 PUSH1 0x24 SWAP2 CODECOPY PUSH1 0x40 ADD SWAP2 POP POP PUSH1 0x40 MLOAD DUP1 SWAP2 SUB SWAP1 REVERT JUMPDEST PUSH1 0x8 PUSH1 0x0 DUP6 PUSH20 0xFFFFFFFFFFFFFFFFFFFFFFFFFFFFFFFFFFFFFFFF AND PUSH20 0xFFFFFFFFFFFFFFFFFFFFFFFFFFFFFFFFFFFFFFFF AND DUP2 MSTORE PUSH1 0x20 ADD SWAP1 DUP2 MSTORE PUSH1 0x20 ADD PUSH1 0x0 KECCAK256 PUSH1 0x0 SWAP1 SLOAD SWAP1 PUSH2 0x100 EXP SWAP1 DIV PUSH1 0xFF AND ISZERO PUSH2 0x10B0 JUMPI PUSH1 0x40 MLOAD PUSH32 0x8C379A000000000000000000000000000000000000000000000000000000000 DUP2 MSTORE PUSH1 0x4 ADD DUP1 DUP1 PUSH1 0x20 ADD DUP3 DUP2 SUB DUP3 MSTORE PUSH1 0x27 DUP2 MSTORE PUSH1 0x20 ADD DUP1 PUSH2 0x40CA PUSH1 0x27 SWAP2 CODECOPY PUSH1 0x40 ADD SWAP2 POP POP PUSH1 0x40 MLOAD DUP1 SWAP2 SUB SWAP1 REVERT JUMPDEST PUSH2 0x10BB DUP6 DUP6 DUP6 PUSH2 0x2EEC JUMP JUMPDEST POP PUSH2 0x1185 PUSH1 0x9 PUSH1 0x0 DUP8 PUSH20 0xFFFFFFFFFFFFFFFFFFFFFFFFFFFFFFFFFFFFFFFF AND PUSH20 0xFFFFFFFFFFFFFFFFFFFFFFFFFFFFFFFFFFFFFFFF AND DUP2 MSTORE PUSH1 0x20 ADD SWAP1 DUP2 MSTORE PUSH1 0x20 ADD PUSH1 0x0 KECCAK256 PUSH1 0x0 SWAP1 SLOAD SWAP1 PUSH2 0x100 EXP SWAP1 DIV PUSH20 0xFFFFFFFFFFFFFFFFFFFFFFFFFFFFFFFFFFFFFFFF AND PUSH1 0x9 PUSH1 0x0 DUP8 PUSH20 0xFFFFFFFFFFFFFFFFFFFFFFFFFFFFFFFFFFFFFFFF AND PUSH20 0xFFFFFFFFFFFFFFFFFFFFFFFFFFFFFFFFFFFFFFFF AND DUP2 MSTORE PUSH1 0x20 ADD SWAP1 DUP2 MSTORE PUSH1 0x20 ADD PUSH1 0x0 KECCAK256 PUSH1 0x0 SWAP1 SLOAD SWAP1 PUSH2 0x100 EXP SWAP1 DIV PUSH20 0xFFFFFFFFFFFFFFFFFFFFFFFFFFFFFFFFFFFFFFFF AND DUP6 PUSH2 0x2FC5 JUMP JUMPDEST POP SWAP4 SWAP3 POP POP POP JUMP JUMPDEST PUSH1 0x0 PUSH1 0x5 PUSH1 0x0 SWAP1 SLOAD SWAP1 PUSH2 0x100 EXP SWAP1 DIV PUSH1 0xFF AND SWAP1 POP SWAP1 JUMP JUMPDEST PUSH1 0x0 PUSH1 0x6 SLOAD SWAP1 POP SWAP1 JUMP JUMPDEST PUSH1 0x0 PUSH2 0x1257 PUSH2 0x11BB PUSH2 0x2CED JUMP JUMPDEST DUP5 PUSH2 0x1252 DUP6 PUSH1 0x1 PUSH1 0x0 PUSH2 0x11CC PUSH2 0x2CED JUMP JUMPDEST PUSH20 0xFFFFFFFFFFFFFFFFFFFFFFFFFFFFFFFFFFFFFFFF AND PUSH20 0xFFFFFFFFFFFFFFFFFFFFFFFFFFFFFFFFFFFFFFFF AND DUP2 MSTORE PUSH1 0x20 ADD SWAP1 DUP2 MSTORE PUSH1 0x20 ADD PUSH1 0x0 KECCAK256 PUSH1 0x0 DUP10 PUSH20 0xFFFFFFFFFFFFFFFFFFFFFFFFFFFFFFFFFFFFFFFF AND PUSH20 0xFFFFFFFFFFFFFFFFFFFFFFFFFFFFFFFFFFFFFFFF AND DUP2 MSTORE PUSH1 0x20 ADD SWAP1 DUP2 MSTORE PUSH1 0x20 ADD PUSH1 0x0 KECCAK256 SLOAD PUSH2 0x2C16 SWAP1 SWAP2 SWAP1 PUSH4 0xFFFFFFFF AND JUMP JUMPDEST PUSH2 0x2CF5 JUMP JUMPDEST PUSH1 0x1 SWAP1 POP SWAP3 SWAP2 POP POP JUMP JUMPDEST PUSH2 0x1269 PUSH2 0x2CED JUMP JUMPDEST PUSH20 0xFFFFFFFFFFFFFFFFFFFFFFFFFFFFFFFFFFFFFFFF AND PUSH1 0x7 PUSH1 0x0 SWAP1 SLOAD SWAP1 PUSH2 0x100 EXP SWAP1 DIV PUSH20 0xFFFFFFFFFFFFFFFFFFFFFFFFFFFFFFFFFFFFFFFF AND PUSH20 0xFFFFFFFFFFFFFFFFFFFFFFFFFFFFFFFFFFFFFFFF AND EQ PUSH2 0x132B JUMPI PUSH1 0x40 MLOAD PUSH32 0x8C379A000000000000000000000000000000000000000000000000000000000 DUP2 MSTORE PUSH1 0x4 ADD DUP1 DUP1 PUSH1 0x20 ADD DUP3 DUP2 SUB DUP3 MSTORE PUSH1 0x20 DUP2 MSTORE PUSH1 0x20 ADD DUP1 PUSH32 0x4F776E61626C653A2063616C6C6572206973206E6F7420746865206F776E6572 DUP2 MSTORE POP PUSH1 0x20 ADD SWAP2 POP POP PUSH1 0x40 MLOAD DUP1 SWAP2 SUB SWAP1 REVERT JUMPDEST PUSH1 0x7 PUSH1 0x14 SWAP1 SLOAD SWAP1 PUSH2 0x100 EXP SWAP1 DIV PUSH1 0xFF AND ISZERO PUSH2 0x13AE JUMPI PUSH1 0x40 MLOAD PUSH32 0x8C379A000000000000000000000000000000000000000000000000000000000 DUP2 MSTORE PUSH1 0x4 ADD DUP1 DUP1 PUSH1 0x20 ADD DUP3 DUP2 SUB DUP3 MSTORE PUSH1 0x10 DUP2 MSTORE PUSH1 0x20 ADD DUP1 PUSH32 0x5061757361626C653A2070617573656400000000000000000000000000000000 DUP2 MSTORE POP PUSH1 0x20 ADD SWAP2 POP POP PUSH1 0x40 MLOAD DUP1 SWAP2 SUB SWAP1 REVERT JUMPDEST PUSH1 0x8 PUSH1 0x0 DUP4 PUSH20 0xFFFFFFFFFFFFFFFFFFFFFFFFFFFFFFFFFFFFFFFF AND PUSH20 0xFFFFFFFFFFFFFFFFFFFFFFFFFFFFFFFFFFFFFFFF AND DUP2 MSTORE PUSH1 0x20 ADD SWAP1 DUP2 MSTORE PUSH1 0x20 ADD PUSH1 0x0 KECCAK256 PUSH1 0x0 SWAP1 SLOAD SWAP1 PUSH2 0x100 EXP SWAP1 DIV PUSH1 0xFF AND ISZERO PUSH2 0x146E JUMPI PUSH1 0x40 MLOAD PUSH32 0x8C379A000000000000000000000000000000000000000000000000000000000 DUP2 MSTORE PUSH1 0x4 ADD DUP1 DUP1 PUSH1 0x20 ADD DUP3 DUP2 SUB DUP3 MSTORE PUSH1 0x1F DUP2 MSTORE PUSH1 0x20 ADD DUP1 PUSH32 0x4D696E74202D20526563697069656E7420697320626C61636B6C697374656400 DUP2 MSTORE POP PUSH1 0x20 ADD SWAP2 POP POP PUSH1 0x40 MLOAD DUP1 SWAP2 SUB SWAP1 REVERT JUMPDEST PUSH2 0x1478 DUP3 DUP3 PUSH2 0x3262 JUMP JUMPDEST PUSH2 0x14E3 PUSH1 0x0 PUSH1 0x9 PUSH1 0x0 DUP6 PUSH20 0xFFFFFFFFFFFFFFFFFFFFFFFFFFFFFFFFFFFFFFFF AND PUSH20 0xFFFFFFFFFFFFFFFFFFFFFFFFFFFFFFFFFFFFFFFF AND DUP2 MSTORE PUSH1 0x20 ADD SWAP1 DUP2 MSTORE PUSH1 0x20 ADD PUSH1 0x0 KECCAK256 PUSH1 0x0 SWAP1 SLOAD SWAP1 PUSH2 0x100 EXP SWAP1 DIV PUSH20 0xFFFFFFFFFFFFFFFFFFFFFFFFFFFFFFFFFFFFFFFF AND DUP4 PUSH2 0x2FC5 JUMP JUMPDEST POP POP JUMP JUMPDEST PUSH1 0x7 PUSH1 0x14 SWAP1 SLOAD SWAP1 PUSH2 0x100 EXP SWAP1 DIV PUSH1 0xFF AND ISZERO PUSH2 0x156A JUMPI PUSH1 0x40 MLOAD PUSH32 0x8C379A000000000000000000000000000000000000000000000000000000000 DUP2 MSTORE PUSH1 0x4 ADD DUP1 DUP1 PUSH1 0x20 ADD DUP3 DUP2 SUB DUP3 MSTORE PUSH1 0x10 DUP2 MSTORE PUSH1 0x20 ADD DUP1 PUSH32 0x5061757361626C653A2070617573656400000000000000000000000000000000 DUP2 MSTORE POP PUSH1 0x20 ADD SWAP2 POP POP PUSH1 0x40 MLOAD DUP1 SWAP2 SUB SWAP1 REVERT JUMPDEST PUSH2 0x1574 CALLER DUP3 PUSH2 0x3429 JUMP JUMPDEST POP JUMP JUMPDEST PUSH1 0x0 PUSH1 0x9 PUSH1 0x0 DUP4 PUSH20 0xFFFFFFFFFFFFFFFFFFFFFFFFFFFFFFFFFFFFFFFF AND PUSH20 0xFFFFFFFFFFFFFFFFFFFFFFFFFFFFFFFFFFFFFFFF AND DUP2 MSTORE PUSH1 0x20 ADD SWAP1 DUP2 MSTORE PUSH1 0x20 ADD PUSH1 0x0 KECCAK256 PUSH1 0x0 SWAP1 SLOAD SWAP1 PUSH2 0x100 EXP SWAP1 DIV PUSH20 0xFFFFFFFFFFFFFFFFFFFFFFFFFFFFFFFFFFFFFFFF AND SWAP1 POP SWAP2 SWAP1 POP JUMP JUMPDEST PUSH1 0x0 PUSH1 0x8 PUSH1 0x0 DUP4 PUSH20 0xFFFFFFFFFFFFFFFFFFFFFFFFFFFFFFFFFFFFFFFF AND PUSH20 0xFFFFFFFFFFFFFFFFFFFFFFFFFFFFFFFFFFFFFFFF AND DUP2 MSTORE PUSH1 0x20 ADD SWAP1 DUP2 MSTORE PUSH1 0x20 ADD PUSH1 0x0 KECCAK256 PUSH1 0x0 SWAP1 SLOAD SWAP1 PUSH2 0x100 EXP SWAP1 DIV PUSH1 0xFF AND SWAP1 POP SWAP2 SWAP1 POP JUMP JUMPDEST PUSH2 0x1640 CALLER DUP3 PUSH2 0x35ED JUMP JUMPDEST POP JUMP JUMPDEST PUSH1 0x0 PUSH1 0x7 PUSH1 0x14 SWAP1 SLOAD SWAP1 PUSH2 0x100 EXP SWAP1 DIV PUSH1 0xFF AND SWAP1 POP SWAP1 JUMP JUMPDEST PUSH1 0xB PUSH1 0x20 MSTORE DUP1 PUSH1 0x0 MSTORE PUSH1 0x40 PUSH1 0x0 KECCAK256 PUSH1 0x0 SWAP2 POP SLOAD SWAP1 PUSH2 0x100 EXP SWAP1 DIV PUSH4 0xFFFFFFFF AND DUP2 JUMP JUMPDEST PUSH1 0x0 DUP1 PUSH1 0x0 DUP4 PUSH20 0xFFFFFFFFFFFFFFFFFFFFFFFFFFFFFFFFFFFFFFFF AND PUSH20 0xFFFFFFFFFFFFFFFFFFFFFFFFFFFFFFFFFFFFFFFF AND DUP2 MSTORE PUSH1 0x20 ADD SWAP1 DUP2 MSTORE PUSH1 0x20 ADD PUSH1 0x0 KECCAK256 SLOAD SWAP1 POP SWAP2 SWAP1 POP JUMP JUMPDEST PUSH2 0x16CD PUSH2 0x2CED JUMP JUMPDEST PUSH20 0xFFFFFFFFFFFFFFFFFFFFFFFFFFFFFFFFFFFFFFFF AND PUSH1 0x7 PUSH1 0x0 SWAP1 SLOAD SWAP1 PUSH2 0x100 EXP SWAP1 DIV PUSH20 0xFFFFFFFFFFFFFFFFFFFFFFFFFFFFFFFFFFFFFFFF AND PUSH20 0xFFFFFFFFFFFFFFFFFFFFFFFFFFFFFFFFFFFFFFFF AND EQ PUSH2 0x178F JUMPI PUSH1 0x40 MLOAD PUSH32 0x8C379A000000000000000000000000000000000000000000000000000000000 DUP2 MSTORE PUSH1 0x4 ADD DUP1 DUP1 PUSH1 0x20 ADD DUP3 DUP2 SUB DUP3 MSTORE PUSH1 0x20 DUP2 MSTORE PUSH1 0x20 ADD DUP1 PUSH32 0x4F776E61626C653A2063616C6C6572206973206E6F7420746865206F776E6572 DUP2 MSTORE POP PUSH1 0x20 ADD SWAP2 POP POP PUSH1 0x40 MLOAD DUP1 SWAP2 SUB SWAP1 REVERT JUMPDEST PUSH1 0x0 PUSH20 0xFFFFFFFFFFFFFFFFFFFFFFFFFFFFFFFFFFFFFFFF AND PUSH1 0x7 PUSH1 0x0 SWAP1 SLOAD SWAP1 PUSH2 0x100 EXP SWAP1 DIV PUSH20 0xFFFFFFFFFFFFFFFFFFFFFFFFFFFFFFFFFFFFFFFF AND PUSH20 0xFFFFFFFFFFFFFFFFFFFFFFFFFFFFFFFFFFFFFFFF AND PUSH32 0x8BE0079C531659141344CD1FD0A4F28419497F9722A3DAAFE3B4186F6B6457E0 PUSH1 0x40 MLOAD PUSH1 0x40 MLOAD DUP1 SWAP2 SUB SWAP1 LOG3 PUSH1 0x0 PUSH1 0x7 PUSH1 0x0 PUSH2 0x100 EXP DUP2 SLOAD DUP2 PUSH20 0xFFFFFFFFFFFFFFFFFFFFFFFFFFFFFFFFFFFFFFFF MUL NOT AND SWAP1 DUP4 PUSH20 0xFFFFFFFFFFFFFFFFFFFFFFFFFFFFFFFFFFFFFFFF AND MUL OR SWAP1 SSTORE POP JUMP JUMPDEST PUSH1 0x0 NUMBER DUP3 LT PUSH2 0x18AA JUMPI PUSH1 0x40 MLOAD PUSH32 0x8C379A000000000000000000000000000000000000000000000000000000000 DUP2 MSTORE PUSH1 0x4 ADD DUP1 DUP1 PUSH1 0x20 ADD DUP3 DUP2 SUB DUP3 MSTORE PUSH1 0x27 DUP2 MSTORE PUSH1 0x20 ADD DUP1 PUSH2 0x413D PUSH1 0x27 SWAP2 CODECOPY PUSH1 0x40 ADD SWAP2 POP POP PUSH1 0x40 MLOAD DUP1 SWAP2 SUB SWAP1 REVERT JUMPDEST PUSH1 0x0 PUSH1 0xB PUSH1 0x0 DUP6 PUSH20 0xFFFFFFFFFFFFFFFFFFFFFFFFFFFFFFFFFFFFFFFF AND PUSH20 0xFFFFFFFFFFFFFFFFFFFFFFFFFFFFFFFFFFFFFFFF AND DUP2 MSTORE PUSH1 0x20 ADD SWAP1 DUP2 MSTORE PUSH1 0x20 ADD PUSH1 0x0 KECCAK256 PUSH1 0x0 SWAP1 SLOAD SWAP1 PUSH2 0x100 EXP SWAP1 DIV PUSH4 0xFFFFFFFF AND SWAP1 POP PUSH1 0x0 DUP2 PUSH4 0xFFFFFFFF AND EQ ISZERO PUSH2 0x1917 JUMPI PUSH1 0x0 SWAP2 POP POP PUSH2 0x1BB7 JUMP JUMPDEST DUP3 PUSH1 0xA PUSH1 0x0 DUP7 PUSH20 0xFFFFFFFFFFFFFFFFFFFFFFFFFFFFFFFFFFFFFFFF AND PUSH20 0xFFFFFFFFFFFFFFFFFFFFFFFFFFFFFFFFFFFFFFFF AND DUP2 MSTORE PUSH1 0x20 ADD SWAP1 DUP2 MSTORE PUSH1 0x20 ADD PUSH1 0x0 KECCAK256 PUSH1 0x0 PUSH1 0x1 DUP5 SUB PUSH4 0xFFFFFFFF AND PUSH4 0xFFFFFFFF AND DUP2 MSTORE PUSH1 0x20 ADD SWAP1 DUP2 MSTORE PUSH1 0x20 ADD PUSH1 0x0 KECCAK256 PUSH1 0x0 ADD SLOAD GT PUSH2 0x19EB JUMPI PUSH1 0xA PUSH1 0x0 DUP6 PUSH20 0xFFFFFFFFFFFFFFFFFFFFFFFFFFFFFFFFFFFFFFFF AND PUSH20 0xFFFFFFFFFFFFFFFFFFFFFFFFFFFFFFFFFFFFFFFF AND DUP2 MSTORE PUSH1 0x20 ADD SWAP1 DUP2 MSTORE PUSH1 0x20 ADD PUSH1 0x0 KECCAK256 PUSH1 0x0 PUSH1 0x1 DUP4 SUB PUSH4 0xFFFFFFFF AND PUSH4 0xFFFFFFFF AND DUP2 MSTORE PUSH1 0x20 ADD SWAP1 DUP2 MSTORE PUSH1 0x20 ADD PUSH1 0x0 KECCAK256 PUSH1 0x1 ADD SLOAD SWAP2 POP POP PUSH2 0x1BB7 JUMP JUMPDEST DUP3 PUSH1 0xA PUSH1 0x0 DUP7 PUSH20 0xFFFFFFFFFFFFFFFFFFFFFFFFFFFFFFFFFFFFFFFF AND PUSH20 0xFFFFFFFFFFFFFFFFFFFFFFFFFFFFFFFFFFFFFFFF AND DUP2 MSTORE PUSH1 0x20 ADD SWAP1 DUP2 MSTORE PUSH1 0x20 ADD PUSH1 0x0 KECCAK256 PUSH1 0x0 DUP1 PUSH4 0xFFFFFFFF AND DUP2 MSTORE PUSH1 0x20 ADD SWAP1 DUP2 MSTORE PUSH1 0x20 ADD PUSH1 0x0 KECCAK256 PUSH1 0x0 ADD SLOAD GT ISZERO PUSH2 0x1A56 JUMPI PUSH1 0x0 SWAP2 POP POP PUSH2 0x1BB7 JUMP JUMPDEST PUSH1 0x0 DUP1 PUSH1 0x1 DUP4 SUB SWAP1 POP JUMPDEST DUP2 PUSH4 0xFFFFFFFF AND DUP2 PUSH4 0xFFFFFFFF AND GT ISZERO PUSH2 0x1B51 JUMPI PUSH1 0x0 PUSH1 0x2 DUP4 DUP4 SUB PUSH4 0xFFFFFFFF AND DUP2 PUSH2 0x1A88 JUMPI INVALID JUMPDEST DIV DUP3 SUB SWAP1 POP PUSH2 0x1A95 PUSH2 0x3FFC JUMP JUMPDEST PUSH1 0xA PUSH1 0x0 DUP10 PUSH20 0xFFFFFFFFFFFFFFFFFFFFFFFFFFFFFFFFFFFFFFFF AND PUSH20 0xFFFFFFFFFFFFFFFFFFFFFFFFFFFFFFFFFFFFFFFF AND DUP2 MSTORE PUSH1 0x20 ADD SWAP1 DUP2 MSTORE PUSH1 0x20 ADD PUSH1 0x0 KECCAK256 PUSH1 0x0 DUP4 PUSH4 0xFFFFFFFF AND PUSH4 0xFFFFFFFF AND DUP2 MSTORE PUSH1 0x20 ADD SWAP1 DUP2 MSTORE PUSH1 0x20 ADD PUSH1 0x0 KECCAK256 PUSH1 0x40 MLOAD DUP1 PUSH1 0x40 ADD PUSH1 0x40 MSTORE SWAP1 DUP2 PUSH1 0x0 DUP3 ADD SLOAD DUP2 MSTORE PUSH1 0x20 ADD PUSH1 0x1 DUP3 ADD SLOAD DUP2 MSTORE POP POP SWAP1 POP DUP7 DUP2 PUSH1 0x0 ADD MLOAD EQ ISZERO PUSH2 0x1B2F JUMPI DUP1 PUSH1 0x20 ADD MLOAD SWAP6 POP POP POP POP POP POP PUSH2 0x1BB7 JUMP JUMPDEST DUP7 DUP2 PUSH1 0x0 ADD MLOAD LT ISZERO PUSH2 0x1B43 JUMPI DUP2 SWAP4 POP PUSH2 0x1B4A JUMP JUMPDEST PUSH1 0x1 DUP3 SUB SWAP3 POP JUMPDEST POP POP PUSH2 0x1A60 JUMP JUMPDEST PUSH1 0xA PUSH1 0x0 DUP8 PUSH20 0xFFFFFFFFFFFFFFFFFFFFFFFFFFFFFFFFFFFFFFFF AND PUSH20 0xFFFFFFFFFFFFFFFFFFFFFFFFFFFFFFFFFFFFFFFF AND DUP2 MSTORE PUSH1 0x20 ADD SWAP1 DUP2 MSTORE PUSH1 0x20 ADD PUSH1 0x0 KECCAK256 PUSH1 0x0 DUP4 PUSH4 0xFFFFFFFF AND PUSH4 0xFFFFFFFF AND DUP2 MSTORE PUSH1 0x20 ADD SWAP1 DUP2 MSTORE PUSH1 0x20 ADD PUSH1 0x0 KECCAK256 PUSH1 0x1 ADD SLOAD SWAP4 POP POP POP POP JUMPDEST SWAP3 SWAP2 POP POP JUMP JUMPDEST PUSH1 0xC PUSH1 0x20 MSTORE DUP1 PUSH1 0x0 MSTORE PUSH1 0x40 PUSH1 0x0 KECCAK256 PUSH1 0x0 SWAP2 POP SWAP1 POP SLOAD DUP2 JUMP JUMPDEST PUSH1 0x7 PUSH1 0x14 SWAP1 SLOAD SWAP1 PUSH2 0x100 EXP SWAP1 DIV PUSH1 0xFF AND ISZERO PUSH2 0x1C58 JUMPI PUSH1 0x40 MLOAD PUSH32 0x8C379A000000000000000000000000000000000000000000000000000000000 DUP2 MSTORE PUSH1 0x4 ADD DUP1 DUP1 PUSH1 0x20 ADD DUP3 DUP2 SUB DUP3 MSTORE PUSH1 0x10 DUP2 MSTORE PUSH1 0x20 ADD DUP1 PUSH32 0x5061757361626C653A2070617573656400000000000000000000000000000000 DUP2 MSTORE POP PUSH1 0x20 ADD SWAP2 POP POP PUSH1 0x40 MLOAD DUP1 SWAP2 SUB SWAP1 REVERT JUMPDEST PUSH2 0x1C60 PUSH2 0x2CED JUMP JUMPDEST PUSH20 0xFFFFFFFFFFFFFFFFFFFFFFFFFFFFFFFFFFFFFFFF AND PUSH1 0x7 PUSH1 0x0 SWAP1 SLOAD SWAP1 PUSH2 0x100 EXP SWAP1 DIV PUSH20 0xFFFFFFFFFFFFFFFFFFFFFFFFFFFFFFFFFFFFFFFF AND PUSH20 0xFFFFFFFFFFFFFFFFFFFFFFFFFFFFFFFFFFFFFFFF AND EQ PUSH2 0x1D22 JUMPI PUSH1 0x40 MLOAD PUSH32 0x8C379A000000000000000000000000000000000000000000000000000000000 DUP2 MSTORE PUSH1 0x4 ADD DUP1 DUP1 PUSH1 0x20 ADD DUP3 DUP2 SUB DUP3 MSTORE PUSH1 0x20 DUP2 MSTORE PUSH1 0x20 ADD DUP1 PUSH32 0x4F776E61626C653A2063616C6C6572206973206E6F7420746865206F776E6572 DUP2 MSTORE POP PUSH1 0x20 ADD SWAP2 POP POP PUSH1 0x40 MLOAD DUP1 SWAP2 SUB SWAP1 REVERT JUMPDEST PUSH2 0x1D2A PUSH2 0x375E JUMP JUMPDEST JUMP JUMPDEST PUSH1 0x0 PUSH1 0x7 PUSH1 0x0 SWAP1 SLOAD SWAP1 PUSH2 0x100 EXP SWAP1 DIV PUSH20 0xFFFFFFFFFFFFFFFFFFFFFFFFFFFFFFFFFFFFFFFF AND SWAP1 POP SWAP1 JUMP JUMPDEST PUSH1 0x60 PUSH1 0x4 DUP1 SLOAD PUSH1 0x1 DUP2 PUSH1 0x1 AND ISZERO PUSH2 0x100 MUL SUB AND PUSH1 0x2 SWAP1 DIV DUP1 PUSH1 0x1F ADD PUSH1 0x20 DUP1 SWAP2 DIV MUL PUSH1 0x20 ADD PUSH1 0x40 MLOAD SWAP1 DUP2 ADD PUSH1 0x40 MSTORE DUP1 SWAP3 SWAP2 SWAP1 DUP2 DUP2 MSTORE PUSH1 0x20 ADD DUP3 DUP1 SLOAD PUSH1 0x1 DUP2 PUSH1 0x1 AND ISZERO PUSH2 0x100 MUL SUB AND PUSH1 0x2 SWAP1 DIV DUP1 ISZERO PUSH2 0x1DEE JUMPI DUP1 PUSH1 0x1F LT PUSH2 0x1DC3 JUMPI PUSH2 0x100 DUP1 DUP4 SLOAD DIV MUL DUP4 MSTORE SWAP2 PUSH1 0x20 ADD SWAP2 PUSH2 0x1DEE JUMP JUMPDEST DUP3 ADD SWAP2 SWAP1 PUSH1 0x0 MSTORE PUSH1 0x20 PUSH1 0x0 KECCAK256 SWAP1 JUMPDEST DUP2 SLOAD DUP2 MSTORE SWAP1 PUSH1 0x1 ADD SWAP1 PUSH1 0x20 ADD DUP1 DUP4 GT PUSH2 0x1DD1 JUMPI DUP3 SWAP1 SUB PUSH1 0x1F AND DUP3 ADD SWAP2 JUMPDEST POP POP POP POP POP SWAP1 POP SWAP1 JUMP JUMPDEST PUSH1 0x0 PUSH2 0x1EBB PUSH2 0x1E05 PUSH2 0x2CED JUMP JUMPDEST DUP5 PUSH2 0x1EB6 DUP6 PUSH1 0x40 MLOAD DUP1 PUSH1 0x60 ADD PUSH1 0x40 MSTORE DUP1 PUSH1 0x25 DUP2 MSTORE PUSH1 0x20 ADD PUSH2 0x423C PUSH1 0x25 SWAP2 CODECOPY PUSH1 0x1 PUSH1 0x0 PUSH2 0x1E2F PUSH2 0x2CED JUMP JUMPDEST PUSH20 0xFFFFFFFFFFFFFFFFFFFFFFFFFFFFFFFFFFFFFFFF AND PUSH20 0xFFFFFFFFFFFFFFFFFFFFFFFFFFFFFFFFFFFFFFFF AND DUP2 MSTORE PUSH1 0x20 ADD SWAP1 DUP2 MSTORE PUSH1 0x20 ADD PUSH1 0x0 KECCAK256 PUSH1 0x0 DUP11 PUSH20 0xFFFFFFFFFFFFFFFFFFFFFFFFFFFFFFFFFFFFFFFF AND PUSH20 0xFFFFFFFFFFFFFFFFFFFFFFFFFFFFFFFFFFFFFFFF AND DUP2 MSTORE PUSH1 0x20 ADD SWAP1 DUP2 MSTORE PUSH1 0x20 ADD PUSH1 0x0 KECCAK256 SLOAD PUSH2 0x3851 SWAP1 SWAP3 SWAP2 SWAP1 PUSH4 0xFFFFFFFF AND JUMP JUMPDEST PUSH2 0x2CF5 JUMP JUMPDEST PUSH1 0x1 SWAP1 POP SWAP3 SWAP2 POP POP JUMP JUMPDEST PUSH1 0x0 PUSH1 0x40 PUSH1 0x4 DUP2 ADD PUSH1 0x0 CALLDATASIZE SWAP1 POP LT ISZERO PUSH2 0x1F46 JUMPI PUSH1 0x40 MLOAD PUSH32 0x8C379A000000000000000000000000000000000000000000000000000000000 DUP2 MSTORE PUSH1 0x4 ADD DUP1 DUP1 PUSH1 0x20 ADD DUP3 DUP2 SUB DUP3 MSTORE PUSH1 0x19 DUP2 MSTORE PUSH1 0x20 ADD DUP1 PUSH32 0x416464726573732074797065206E6F7420616C6C6F7765642100000000000000 DUP2 MSTORE POP PUSH1 0x20 ADD SWAP2 POP POP PUSH1 0x40 MLOAD DUP1 SWAP2 SUB SWAP1 REVERT JUMPDEST PUSH1 0x7 PUSH1 0x14 SWAP1 SLOAD SWAP1 PUSH2 0x100 EXP SWAP1 DIV PUSH1 0xFF AND ISZERO PUSH2 0x1FC9 JUMPI PUSH1 0x40 MLOAD PUSH32 0x8C379A000000000000000000000000000000000000000000000000000000000 DUP2 MSTORE PUSH1 0x4 ADD DUP1 DUP1 PUSH1 0x20 ADD DUP3 DUP2 SUB DUP3 MSTORE PUSH1 0x10 DUP2 MSTORE PUSH1 0x20 ADD DUP1 PUSH32 0x5061757361626C653A2070617573656400000000000000000000000000000000 DUP2 MSTORE POP PUSH1 0x20 ADD SWAP2 POP POP PUSH1 0x40 MLOAD DUP1 SWAP2 SUB SWAP1 REVERT JUMPDEST PUSH1 0x8 PUSH1 0x0 CALLER PUSH20 0xFFFFFFFFFFFFFFFFFFFFFFFFFFFFFFFFFFFFFFFF AND PUSH20 0xFFFFFFFFFFFFFFFFFFFFFFFFFFFFFFFFFFFFFFFF AND DUP2 MSTORE PUSH1 0x20 ADD SWAP1 DUP2 MSTORE PUSH1 0x20 ADD PUSH1 0x0 KECCAK256 PUSH1 0x0 SWAP1 SLOAD SWAP1 PUSH2 0x100 EXP SWAP1 DIV PUSH1 0xFF AND ISZERO PUSH2 0x2089 JUMPI PUSH1 0x40 MLOAD PUSH32 0x8C379A000000000000000000000000000000000000000000000000000000000 DUP2 MSTORE PUSH1 0x4 ADD DUP1 DUP1 PUSH1 0x20 ADD DUP3 DUP2 SUB DUP3 MSTORE PUSH1 0x20 DUP2 MSTORE PUSH1 0x20 ADD DUP1 PUSH32 0x5472616E73666572202D2053656E64657220697320626C61636B6C6973746564 DUP2 MSTORE POP PUSH1 0x20 ADD SWAP2 POP POP PUSH1 0x40 MLOAD DUP1 SWAP2 SUB SWAP1 REVERT JUMPDEST PUSH1 0x8 PUSH1 0x0 DUP6 PUSH20 0xFFFFFFFFFFFFFFFFFFFFFFFFFFFFFFFFFFFFFFFF AND PUSH20 0xFFFFFFFFFFFFFFFFFFFFFFFFFFFFFFFFFFFFFFFF AND DUP2 MSTORE PUSH1 0x20 ADD SWAP1 DUP2 MSTORE PUSH1 0x20 ADD PUSH1 0x0 KECCAK256 PUSH1 0x0 SWAP1 SLOAD SWAP1 PUSH2 0x100 EXP SWAP1 DIV PUSH1 0xFF AND ISZERO PUSH2 0x212C JUMPI PUSH1 0x40 MLOAD PUSH32 0x8C379A000000000000000000000000000000000000000000000000000000000 DUP2 MSTORE PUSH1 0x4 ADD DUP1 DUP1 PUSH1 0x20 ADD DUP3 DUP2 SUB DUP3 MSTORE PUSH1 0x23 DUP2 MSTORE PUSH1 0x20 ADD DUP1 PUSH2 0x4261 PUSH1 0x23 SWAP2 CODECOPY PUSH1 0x40 ADD SWAP2 POP POP PUSH1 0x40 MLOAD DUP1 SWAP2 SUB SWAP1 REVERT JUMPDEST PUSH2 0x2136 DUP5 DUP5 PUSH2 0x3911 JUMP JUMPDEST POP PUSH2 0x2200 PUSH1 0x9 PUSH1 0x0 CALLER PUSH20 0xFFFFFFFFFFFFFFFFFFFFFFFFFFFFFFFFFFFFFFFF AND PUSH20 0xFFFFFFFFFFFFFFFFFFFFFFFFFFFFFFFFFFFFFFFF AND DUP2 MSTORE PUSH1 0x20 ADD SWAP1 DUP2 MSTORE PUSH1 0x20 ADD PUSH1 0x0 KECCAK256 PUSH1 0x0 SWAP1 SLOAD SWAP1 PUSH2 0x100 EXP SWAP1 DIV PUSH20 0xFFFFFFFFFFFFFFFFFFFFFFFFFFFFFFFFFFFFFFFF AND PUSH1 0x9 PUSH1 0x0 DUP8 PUSH20 0xFFFFFFFFFFFFFFFFFFFFFFFFFFFFFFFFFFFFFFFF AND PUSH20 0xFFFFFFFFFFFFFFFFFFFFFFFFFFFFFFFFFFFFFFFF AND DUP2 MSTORE PUSH1 0x20 ADD SWAP1 DUP2 MSTORE PUSH1 0x20 ADD PUSH1 0x0 KECCAK256 PUSH1 0x0 SWAP1 SLOAD SWAP1 PUSH2 0x100 EXP SWAP1 DIV PUSH20 0xFFFFFFFFFFFFFFFFFFFFFFFFFFFFFFFFFFFFFFFF AND DUP6 PUSH2 0x2FC5 JUMP JUMPDEST POP SWAP3 SWAP2 POP POP JUMP JUMPDEST PUSH1 0x0 DUP1 PUSH1 0xB PUSH1 0x0 DUP5 PUSH20 0xFFFFFFFFFFFFFFFFFFFFFFFFFFFFFFFFFFFFFFFF AND PUSH20 0xFFFFFFFFFFFFFFFFFFFFFFFFFFFFFFFFFFFFFFFF AND DUP2 MSTORE PUSH1 0x20 ADD SWAP1 DUP2 MSTORE PUSH1 0x20 ADD PUSH1 0x0 KECCAK256 PUSH1 0x0 SWAP1 SLOAD SWAP1 PUSH2 0x100 EXP SWAP1 DIV PUSH4 0xFFFFFFFF AND SWAP1 POP PUSH1 0x0 DUP2 PUSH4 0xFFFFFFFF AND GT PUSH2 0x2271 JUMPI PUSH1 0x0 PUSH2 0x22D5 JUMP JUMPDEST PUSH1 0xA PUSH1 0x0 DUP5 PUSH20 0xFFFFFFFFFFFFFFFFFFFFFFFFFFFFFFFFFFFFFFFF AND PUSH20 0xFFFFFFFFFFFFFFFFFFFFFFFFFFFFFFFFFFFFFFFF AND DUP2 MSTORE PUSH1 0x20 ADD SWAP1 DUP2 MSTORE PUSH1 0x20 ADD PUSH1 0x0 KECCAK256 PUSH1 0x0 PUSH1 0x1 DUP4 SUB PUSH4 0xFFFFFFFF AND PUSH4 0xFFFFFFFF AND DUP2 MSTORE PUSH1 0x20 ADD SWAP1 DUP2 MSTORE PUSH1 0x20 ADD PUSH1 0x0 KECCAK256 PUSH1 0x1 ADD SLOAD JUMPDEST SWAP2 POP POP SWAP2 SWAP1 POP JUMP JUMPDEST PUSH1 0x0 PUSH32 0x8CAD95687BA82C2CE50E74F7B754645E5117C3A5BEC8151C0726D5857980A866 PUSH2 0x2308 PUSH2 0xC06 JUMP JUMPDEST DUP1 MLOAD SWAP1 PUSH1 0x20 ADD KECCAK256 PUSH2 0x2317 PUSH2 0x392F JUMP JUMPDEST ADDRESS PUSH1 0x40 MLOAD PUSH1 0x20 ADD DUP1 DUP6 DUP2 MSTORE PUSH1 0x20 ADD DUP5 DUP2 MSTORE PUSH1 0x20 ADD DUP4 DUP2 MSTORE PUSH1 0x20 ADD DUP3 PUSH20 0xFFFFFFFFFFFFFFFFFFFFFFFFFFFFFFFFFFFFFFFF AND DUP2 MSTORE PUSH1 0x20 ADD SWAP5 POP POP POP POP POP PUSH1 0x40 MLOAD PUSH1 0x20 DUP2 DUP4 SUB SUB DUP2 MSTORE SWAP1 PUSH1 0x40 MSTORE DUP1 MLOAD SWAP1 PUSH1 0x20 ADD KECCAK256 SWAP1 POP PUSH1 0x0 PUSH32 0xE48329057BFD03D55E49B547132E39CFFD9C1820AD7B9D4C5307691425D15ADF DUP9 DUP9 DUP9 PUSH1 0x40 MLOAD PUSH1 0x20 ADD DUP1 DUP6 DUP2 MSTORE PUSH1 0x20 ADD DUP5 PUSH20 0xFFFFFFFFFFFFFFFFFFFFFFFFFFFFFFFFFFFFFFFF AND DUP2 MSTORE PUSH1 0x20 ADD DUP4 DUP2 MSTORE PUSH1 0x20 ADD DUP3 DUP2 MSTORE PUSH1 0x20 ADD SWAP5 POP POP POP POP POP PUSH1 0x40 MLOAD PUSH1 0x20 DUP2 DUP4 SUB SUB DUP2 MSTORE SWAP1 PUSH1 0x40 MSTORE DUP1 MLOAD SWAP1 PUSH1 0x20 ADD KECCAK256 SWAP1 POP PUSH1 0x0 DUP3 DUP3 PUSH1 0x40 MLOAD PUSH1 0x20 ADD DUP1 DUP1 PUSH32 0x1901000000000000000000000000000000000000000000000000000000000000 DUP2 MSTORE POP PUSH1 0x2 ADD DUP4 DUP2 MSTORE PUSH1 0x20 ADD DUP3 DUP2 MSTORE PUSH1 0x20 ADD SWAP3 POP POP POP PUSH1 0x40 MLOAD PUSH1 0x20 DUP2 DUP4 SUB SUB DUP2 MSTORE SWAP1 PUSH1 0x40 MSTORE DUP1 MLOAD SWAP1 PUSH1 0x20 ADD KECCAK256 SWAP1 POP PUSH1 0x0 PUSH1 0x1 DUP3 DUP9 DUP9 DUP9 PUSH1 0x40 MLOAD PUSH1 0x0 DUP2 MSTORE PUSH1 0x20 ADD PUSH1 0x40 MSTORE PUSH1 0x40 MLOAD DUP1 DUP6 DUP2 MSTORE PUSH1 0x20 ADD DUP5 PUSH1 0xFF AND DUP2 MSTORE PUSH1 0x20 ADD DUP4 DUP2 MSTORE PUSH1 0x20 ADD DUP3 DUP2 MSTORE PUSH1 0x20 ADD SWAP5 POP POP POP POP POP PUSH1 0x20 PUSH1 0x40 MLOAD PUSH1 0x20 DUP2 SUB SWAP1 DUP1 DUP5 SUB SWAP1 DUP6 GAS STATICCALL ISZERO DUP1 ISZERO PUSH2 0x249B JUMPI RETURNDATASIZE PUSH1 0x0 DUP1 RETURNDATACOPY RETURNDATASIZE PUSH1 0x0 REVERT JUMPDEST POP POP POP PUSH1 0x20 PUSH1 0x40 MLOAD SUB MLOAD SWAP1 POP PUSH1 0x0 PUSH20 0xFFFFFFFFFFFFFFFFFFFFFFFFFFFFFFFFFFFFFFFF AND DUP2 PUSH20 0xFFFFFFFFFFFFFFFFFFFFFFFFFFFFFFFFFFFFFFFF AND EQ ISZERO PUSH2 0x252D JUMPI PUSH1 0x40 MLOAD PUSH32 0x8C379A000000000000000000000000000000000000000000000000000000000 DUP2 MSTORE PUSH1 0x4 ADD DUP1 DUP1 PUSH1 0x20 ADD DUP3 DUP2 SUB DUP3 MSTORE PUSH1 0x26 DUP2 MSTORE PUSH1 0x20 ADD DUP1 PUSH2 0x40A4 PUSH1 0x26 SWAP2 CODECOPY PUSH1 0x40 ADD SWAP2 POP POP PUSH1 0x40 MLOAD DUP1 SWAP2 SUB SWAP1 REVERT JUMPDEST PUSH1 0xC PUSH1 0x0 DUP3 PUSH20 0xFFFFFFFFFFFFFFFFFFFFFFFFFFFFFFFFFFFFFFFF AND PUSH20 0xFFFFFFFFFFFFFFFFFFFFFFFFFFFFFFFFFFFFFFFF AND DUP2 MSTORE PUSH1 0x20 ADD SWAP1 DUP2 MSTORE PUSH1 0x20 ADD PUSH1 0x0 KECCAK256 PUSH1 0x0 DUP2 SLOAD DUP1 SWAP3 SWAP2 SWAP1 PUSH1 0x1 ADD SWAP2 SWAP1 POP SSTORE DUP10 EQ PUSH2 0x25D2 JUMPI PUSH1 0x40 MLOAD PUSH32 0x8C379A000000000000000000000000000000000000000000000000000000000 DUP2 MSTORE PUSH1 0x4 ADD DUP1 DUP1 PUSH1 0x20 ADD DUP3 DUP2 SUB DUP3 MSTORE PUSH1 0x22 DUP2 MSTORE PUSH1 0x20 ADD DUP1 PUSH2 0x4164 PUSH1 0x22 SWAP2 CODECOPY PUSH1 0x40 ADD SWAP2 POP POP PUSH1 0x40 MLOAD DUP1 SWAP2 SUB SWAP1 REVERT JUMPDEST DUP8 TIMESTAMP GT ISZERO PUSH2 0x262B JUMPI PUSH1 0x40 MLOAD PUSH32 0x8C379A000000000000000000000000000000000000000000000000000000000 DUP2 MSTORE PUSH1 0x4 ADD DUP1 DUP1 PUSH1 0x20 ADD DUP3 DUP2 SUB DUP3 MSTORE PUSH1 0x26 DUP2 MSTORE PUSH1 0x20 ADD DUP1 PUSH2 0x40F1 PUSH1 0x26 SWAP2 CODECOPY PUSH1 0x40 ADD SWAP2 POP POP PUSH1 0x40 MLOAD DUP1 SWAP2 SUB SWAP1 REVERT JUMPDEST PUSH2 0x2635 DUP2 DUP12 PUSH2 0x35ED JUMP JUMPDEST POP POP POP POP POP POP POP POP POP POP JUMP JUMPDEST PUSH1 0x7 PUSH1 0x14 SWAP1 SLOAD SWAP1 PUSH2 0x100 EXP SWAP1 DIV PUSH1 0xFF AND ISZERO PUSH2 0x26C4 JUMPI PUSH1 0x40 MLOAD PUSH32 0x8C379A000000000000000000000000000000000000000000000000000000000 DUP2 MSTORE PUSH1 0x4 ADD DUP1 DUP1 PUSH1 0x20 ADD DUP3 DUP2 SUB DUP3 MSTORE PUSH1 0x10 DUP2 MSTORE PUSH1 0x20 ADD DUP1 PUSH32 0x5061757361626C653A2070617573656400000000000000000000000000000000 DUP2 MSTORE POP PUSH1 0x20 ADD SWAP2 POP POP PUSH1 0x40 MLOAD DUP1 SWAP2 SUB SWAP1 REVERT JUMPDEST PUSH2 0x26CC PUSH2 0x2CED JUMP JUMPDEST PUSH20 0xFFFFFFFFFFFFFFFFFFFFFFFFFFFFFFFFFFFFFFFF AND PUSH1 0x7 PUSH1 0x0 SWAP1 SLOAD SWAP1 PUSH2 0x100 EXP SWAP1 DIV PUSH20 0xFFFFFFFFFFFFFFFFFFFFFFFFFFFFFFFFFFFFFFFF AND PUSH20 0xFFFFFFFFFFFFFFFFFFFFFFFFFFFFFFFFFFFFFFFF AND EQ PUSH2 0x278E JUMPI PUSH1 0x40 MLOAD PUSH32 0x8C379A000000000000000000000000000000000000000000000000000000000 DUP2 MSTORE PUSH1 0x4 ADD DUP1 DUP1 PUSH1 0x20 ADD DUP3 DUP2 SUB DUP3 MSTORE PUSH1 0x20 DUP2 MSTORE PUSH1 0x20 ADD DUP1 PUSH32 0x4F776E61626C653A2063616C6C6572206973206E6F7420746865206F776E6572 DUP2 MSTORE POP PUSH1 0x20 ADD SWAP2 POP POP PUSH1 0x40 MLOAD DUP1 SWAP2 SUB SWAP1 REVERT JUMPDEST PUSH2 0x2796 PUSH2 0x393C JUMP JUMPDEST JUMP JUMPDEST PUSH1 0x0 PUSH1 0x1 PUSH1 0x0 DUP5 PUSH20 0xFFFFFFFFFFFFFFFFFFFFFFFFFFFFFFFFFFFFFFFF AND PUSH20 0xFFFFFFFFFFFFFFFFFFFFFFFFFFFFFFFFFFFFFFFF AND DUP2 MSTORE PUSH1 0x20 ADD SWAP1 DUP2 MSTORE PUSH1 0x20 ADD PUSH1 0x0 KECCAK256 PUSH1 0x0 DUP4 PUSH20 0xFFFFFFFFFFFFFFFFFFFFFFFFFFFFFFFFFFFFFFFF AND PUSH20 0xFFFFFFFFFFFFFFFFFFFFFFFFFFFFFFFFFFFFFFFF AND DUP2 MSTORE PUSH1 0x20 ADD SWAP1 DUP2 MSTORE PUSH1 0x20 ADD PUSH1 0x0 KECCAK256 SLOAD SWAP1 POP SWAP3 SWAP2 POP POP JUMP JUMPDEST PUSH1 0x8 PUSH1 0x20 MSTORE DUP1 PUSH1 0x0 MSTORE PUSH1 0x40 PUSH1 0x0 KECCAK256 PUSH1 0x0 SWAP2 POP SLOAD SWAP1 PUSH2 0x100 EXP SWAP1 DIV PUSH1 0xFF AND DUP2 JUMP JUMPDEST PUSH2 0x2847 PUSH2 0x2CED JUMP JUMPDEST PUSH20 0xFFFFFFFFFFFFFFFFFFFFFFFFFFFFFFFFFFFFFFFF AND PUSH1 0x7 PUSH1 0x0 SWAP1 SLOAD SWAP1 PUSH2 0x100 EXP SWAP1 DIV PUSH20 0xFFFFFFFFFFFFFFFFFFFFFFFFFFFFFFFFFFFFFFFF AND PUSH20 0xFFFFFFFFFFFFFFFFFFFFFFFFFFFFFFFFFFFFFFFF AND EQ PUSH2 0x2909 JUMPI PUSH1 0x40 MLOAD PUSH32 0x8C379A000000000000000000000000000000000000000000000000000000000 DUP2 MSTORE PUSH1 0x4 ADD DUP1 DUP1 PUSH1 0x20 ADD DUP3 DUP2 SUB DUP3 MSTORE PUSH1 0x20 DUP2 MSTORE PUSH1 0x20 ADD DUP1 PUSH32 0x4F776E61626C653A2063616C6C6572206973206E6F7420746865206F776E6572 DUP2 MSTORE POP PUSH1 0x20 ADD SWAP2 POP POP PUSH1 0x40 MLOAD DUP1 SWAP2 SUB SWAP1 REVERT JUMPDEST PUSH1 0x0 PUSH1 0x8 PUSH1 0x0 DUP4 PUSH20 0xFFFFFFFFFFFFFFFFFFFFFFFFFFFFFFFFFFFFFFFF AND PUSH20 0xFFFFFFFFFFFFFFFFFFFFFFFFFFFFFFFFFFFFFFFF AND DUP2 MSTORE PUSH1 0x20 ADD SWAP1 DUP2 MSTORE PUSH1 0x20 ADD PUSH1 0x0 KECCAK256 PUSH1 0x0 PUSH2 0x100 EXP DUP2 SLOAD DUP2 PUSH1 0xFF MUL NOT AND SWAP1 DUP4 ISZERO ISZERO MUL OR SWAP1 SSTORE POP PUSH32 0xD7E9EC6E6ECD65492DCE6BF513CD6867560D49544421D0783DDF06E76C24470C DUP2 PUSH1 0x40 MLOAD DUP1 DUP3 PUSH20 0xFFFFFFFFFFFFFFFFFFFFFFFFFFFFFFFFFFFFFFFF AND DUP2 MSTORE PUSH1 0x20 ADD SWAP2 POP POP PUSH1 0x40 MLOAD DUP1 SWAP2 SUB SWAP1 LOG1 POP JUMP JUMPDEST PUSH32 0xE48329057BFD03D55E49B547132E39CFFD9C1820AD7B9D4C5307691425D15ADF DUP2 JUMP JUMPDEST PUSH1 0xA PUSH1 0x20 MSTORE DUP2 PUSH1 0x0 MSTORE PUSH1 0x40 PUSH1 0x0 KECCAK256 PUSH1 0x20 MSTORE DUP1 PUSH1 0x0 MSTORE PUSH1 0x40 PUSH1 0x0 KECCAK256 PUSH1 0x0 SWAP2 POP SWAP2 POP POP DUP1 PUSH1 0x0 ADD SLOAD SWAP1 DUP1 PUSH1 0x1 ADD SLOAD SWAP1 POP DUP3 JUMP JUMPDEST PUSH2 0x2A0E PUSH2 0x2CED JUMP JUMPDEST PUSH20 0xFFFFFFFFFFFFFFFFFFFFFFFFFFFFFFFFFFFFFFFF AND PUSH1 0x7 PUSH1 0x0 SWAP1 SLOAD SWAP1 PUSH2 0x100 EXP SWAP1 DIV PUSH20 0xFFFFFFFFFFFFFFFFFFFFFFFFFFFFFFFFFFFFFFFF AND PUSH20 0xFFFFFFFFFFFFFFFFFFFFFFFFFFFFFFFFFFFFFFFF AND EQ PUSH2 0x2AD0 JUMPI PUSH1 0x40 MLOAD PUSH32 0x8C379A000000000000000000000000000000000000000000000000000000000 DUP2 MSTORE PUSH1 0x4 ADD DUP1 DUP1 PUSH1 0x20 ADD DUP3 DUP2 SUB DUP3 MSTORE PUSH1 0x20 DUP2 MSTORE PUSH1 0x20 ADD DUP1 PUSH32 0x4F776E61626C653A2063616C6C6572206973206E6F7420746865206F776E6572 DUP2 MSTORE POP PUSH1 0x20 ADD SWAP2 POP POP PUSH1 0x40 MLOAD DUP1 SWAP2 SUB SWAP1 REVERT JUMPDEST PUSH1 0x0 PUSH20 0xFFFFFFFFFFFFFFFFFFFFFFFFFFFFFFFFFFFFFFFF AND DUP2 PUSH20 0xFFFFFFFFFFFFFFFFFFFFFFFFFFFFFFFFFFFFFFFF AND EQ ISZERO PUSH2 0x2B56 JUMPI PUSH1 0x40 MLOAD PUSH32 0x8C379A000000000000000000000000000000000000000000000000000000000 DUP2 MSTORE PUSH1 0x4 ADD DUP1 DUP1 PUSH1 0x20 ADD DUP3 DUP2 SUB DUP3 MSTORE PUSH1 0x26 DUP2 MSTORE PUSH1 0x20 ADD DUP1 PUSH2 0x405C PUSH1 0x26 SWAP2 CODECOPY PUSH1 0x40 ADD SWAP2 POP POP PUSH1 0x40 MLOAD DUP1 SWAP2 SUB SWAP1 REVERT JUMPDEST DUP1 PUSH20 0xFFFFFFFFFFFFFFFFFFFFFFFFFFFFFFFFFFFFFFFF AND PUSH1 0x7 PUSH1 0x0 SWAP1 SLOAD SWAP1 PUSH2 0x100 EXP SWAP1 DIV PUSH20 0xFFFFFFFFFFFFFFFFFFFFFFFFFFFFFFFFFFFFFFFF AND PUSH20 0xFFFFFFFFFFFFFFFFFFFFFFFFFFFFFFFFFFFFFFFF AND PUSH32 0x8BE0079C531659141344CD1FD0A4F28419497F9722A3DAAFE3B4186F6B6457E0 PUSH1 0x40 MLOAD PUSH1 0x40 MLOAD DUP1 SWAP2 SUB SWAP1 LOG3 DUP1 PUSH1 0x7 PUSH1 0x0 PUSH2 0x100 EXP DUP2 SLOAD DUP2 PUSH20 0xFFFFFFFFFFFFFFFFFFFFFFFFFFFFFFFFFFFFFFFF MUL NOT AND SWAP1 DUP4 PUSH20 0xFFFFFFFFFFFFFFFFFFFFFFFFFFFFFFFFFFFFFFFF AND MUL OR SWAP1 SSTORE POP POP JUMP JUMPDEST PUSH1 0x0 DUP1 DUP3 DUP5 ADD SWAP1 POP DUP4 DUP2 LT ISZERO PUSH2 0x2C94 JUMPI PUSH1 0x40 MLOAD PUSH32 0x8C379A000000000000000000000000000000000000000000000000000000000 DUP2 MSTORE PUSH1 0x4 ADD DUP1 DUP1 PUSH1 0x20 ADD DUP3 DUP2 SUB DUP3 MSTORE PUSH1 0x1B DUP2 MSTORE PUSH1 0x20 ADD DUP1 PUSH32 0x536166654D6174683A206164646974696F6E206F766572666C6F770000000000 DUP2 MSTORE POP PUSH1 0x20 ADD SWAP2 POP POP PUSH1 0x40 MLOAD DUP1 SWAP2 SUB SWAP1 REVERT JUMPDEST DUP1 SWAP2 POP POP SWAP3 SWAP2 POP POP JUMP JUMPDEST PUSH1 0x0 PUSH2 0x2CE0 DUP4 DUP4 PUSH1 0x40 MLOAD DUP1 PUSH1 0x40 ADD PUSH1 0x40 MSTORE DUP1 PUSH1 0x1E DUP2 MSTORE PUSH1 0x20 ADD PUSH32 0x536166654D6174683A207375627472616374696F6E206F766572666C6F770000 DUP2 MSTORE POP PUSH2 0x3851 JUMP JUMPDEST SWAP1 POP SWAP3 SWAP2 POP POP JUMP JUMPDEST POP POP POP JUMP JUMPDEST PUSH1 0x0 CALLER SWAP1 POP SWAP1 JUMP JUMPDEST PUSH1 0x0 PUSH20 0xFFFFFFFFFFFFFFFFFFFFFFFFFFFFFFFFFFFFFFFF AND DUP4 PUSH20 0xFFFFFFFFFFFFFFFFFFFFFFFFFFFFFFFFFFFFFFFF AND EQ ISZERO PUSH2 0x2D7B JUMPI PUSH1 0x40 MLOAD PUSH32 0x8C379A000000000000000000000000000000000000000000000000000000000 DUP2 MSTORE PUSH1 0x4 ADD DUP1 DUP1 PUSH1 0x20 ADD DUP3 DUP2 SUB DUP3 MSTORE PUSH1 0x24 DUP2 MSTORE PUSH1 0x20 ADD DUP1 PUSH2 0x4218 PUSH1 0x24 SWAP2 CODECOPY PUSH1 0x40 ADD SWAP2 POP POP PUSH1 0x40 MLOAD DUP1 SWAP2 SUB SWAP1 REVERT JUMPDEST PUSH1 0x0 PUSH20 0xFFFFFFFFFFFFFFFFFFFFFFFFFFFFFFFFFFFFFFFF AND DUP3 PUSH20 0xFFFFFFFFFFFFFFFFFFFFFFFFFFFFFFFFFFFFFFFF AND EQ ISZERO PUSH2 0x2E01 JUMPI PUSH1 0x40 MLOAD PUSH32 0x8C379A000000000000000000000000000000000000000000000000000000000 DUP2 MSTORE PUSH1 0x4 ADD DUP1 DUP1 PUSH1 0x20 ADD DUP3 DUP2 SUB DUP3 MSTORE PUSH1 0x22 DUP2 MSTORE PUSH1 0x20 ADD DUP1 PUSH2 0x4082 PUSH1 0x22 SWAP2 CODECOPY PUSH1 0x40 ADD SWAP2 POP POP PUSH1 0x40 MLOAD DUP1 SWAP2 SUB SWAP1 REVERT JUMPDEST DUP1 PUSH1 0x1 PUSH1 0x0 DUP6 PUSH20 0xFFFFFFFFFFFFFFFFFFFFFFFFFFFFFFFFFFFFFFFF AND PUSH20 0xFFFFFFFFFFFFFFFFFFFFFFFFFFFFFFFFFFFFFFFF AND DUP2 MSTORE PUSH1 0x20 ADD SWAP1 DUP2 MSTORE PUSH1 0x20 ADD PUSH1 0x0 KECCAK256 PUSH1 0x0 DUP5 PUSH20 0xFFFFFFFFFFFFFFFFFFFFFFFFFFFFFFFFFFFFFFFF AND PUSH20 0xFFFFFFFFFFFFFFFFFFFFFFFFFFFFFFFFFFFFFFFF AND DUP2 MSTORE PUSH1 0x20 ADD SWAP1 DUP2 MSTORE PUSH1 0x20 ADD PUSH1 0x0 KECCAK256 DUP2 SWAP1 SSTORE POP DUP2 PUSH20 0xFFFFFFFFFFFFFFFFFFFFFFFFFFFFFFFFFFFFFFFF AND DUP4 PUSH20 0xFFFFFFFFFFFFFFFFFFFFFFFFFFFFFFFFFFFFFFFF AND PUSH32 0x8C5BE1E5EBEC7D5BD14F71427D1E84F3DD0314C0F7B2291E5B200AC8C7C3B925 DUP4 PUSH1 0x40 MLOAD DUP1 DUP3 DUP2 MSTORE PUSH1 0x20 ADD SWAP2 POP POP PUSH1 0x40 MLOAD DUP1 SWAP2 SUB SWAP1 LOG3 POP POP POP JUMP JUMPDEST PUSH1 0x0 PUSH2 0x2EF9 DUP5 DUP5 DUP5 PUSH2 0x3A30 JUMP JUMPDEST PUSH2 0x2FBA DUP5 PUSH2 0x2F05 PUSH2 0x2CED JUMP JUMPDEST PUSH2 0x2FB5 DUP6 PUSH1 0x40 MLOAD DUP1 PUSH1 0x60 ADD PUSH1 0x40 MSTORE DUP1 PUSH1 0x28 DUP2 MSTORE PUSH1 0x20 ADD PUSH2 0x41AA PUSH1 0x28 SWAP2 CODECOPY PUSH1 0x1 PUSH1 0x0 DUP12 PUSH20 0xFFFFFFFFFFFFFFFFFFFFFFFFFFFFFFFFFFFFFFFF AND PUSH20 0xFFFFFFFFFFFFFFFFFFFFFFFFFFFFFFFFFFFFFFFF AND DUP2 MSTORE PUSH1 0x20 ADD SWAP1 DUP2 MSTORE PUSH1 0x20 ADD PUSH1 0x0 KECCAK256 PUSH1 0x0 PUSH2 0x2F6B PUSH2 0x2CED JUMP JUMPDEST PUSH20 0xFFFFFFFFFFFFFFFFFFFFFFFFFFFFFFFFFFFFFFFF AND PUSH20 0xFFFFFFFFFFFFFFFFFFFFFFFFFFFFFFFFFFFFFFFF AND DUP2 MSTORE PUSH1 0x20 ADD SWAP1 DUP2 MSTORE PUSH1 0x20 ADD PUSH1 0x0 KECCAK256 SLOAD PUSH2 0x3851 SWAP1 SWAP3 SWAP2 SWAP1 PUSH4 0xFFFFFFFF AND JUMP JUMPDEST PUSH2 0x2CF5 JUMP JUMPDEST PUSH1 0x1 SWAP1 POP SWAP4 SWAP3 POP POP POP JUMP JUMPDEST DUP2 PUSH20 0xFFFFFFFFFFFFFFFFFFFFFFFFFFFFFFFFFFFFFFFF AND DUP4 PUSH20 0xFFFFFFFFFFFFFFFFFFFFFFFFFFFFFFFFFFFFFFFF AND EQ ISZERO DUP1 ISZERO PUSH2 0x3001 JUMPI POP PUSH1 0x0 DUP2 GT JUMPDEST ISZERO PUSH2 0x325D JUMPI PUSH1 0x0 PUSH20 0xFFFFFFFFFFFFFFFFFFFFFFFFFFFFFFFFFFFFFFFF AND DUP4 PUSH20 0xFFFFFFFFFFFFFFFFFFFFFFFFFFFFFFFFFFFFFFFF AND EQ PUSH2 0x3131 JUMPI PUSH1 0x0 PUSH1 0xB PUSH1 0x0 DUP6 PUSH20 0xFFFFFFFFFFFFFFFFFFFFFFFFFFFFFFFFFFFFFFFF AND PUSH20 0xFFFFFFFFFFFFFFFFFFFFFFFFFFFFFFFFFFFFFFFF AND DUP2 MSTORE PUSH1 0x20 ADD SWAP1 DUP2 MSTORE PUSH1 0x20 ADD PUSH1 0x0 KECCAK256 PUSH1 0x0 SWAP1 SLOAD SWAP1 PUSH2 0x100 EXP SWAP1 DIV PUSH4 0xFFFFFFFF AND SWAP1 POP PUSH1 0x0 DUP1 DUP3 PUSH4 0xFFFFFFFF AND GT PUSH2 0x30A4 JUMPI PUSH1 0x0 PUSH2 0x3108 JUMP JUMPDEST PUSH1 0xA PUSH1 0x0 DUP7 PUSH20 0xFFFFFFFFFFFFFFFFFFFFFFFFFFFFFFFFFFFFFFFF AND PUSH20 0xFFFFFFFFFFFFFFFFFFFFFFFFFFFFFFFFFFFFFFFF AND DUP2 MSTORE PUSH1 0x20 ADD SWAP1 DUP2 MSTORE PUSH1 0x20 ADD PUSH1 0x0 KECCAK256 PUSH1 0x0 PUSH1 0x1 DUP5 SUB PUSH4 0xFFFFFFFF AND PUSH4 0xFFFFFFFF AND DUP2 MSTORE PUSH1 0x20 ADD SWAP1 DUP2 MSTORE PUSH1 0x20 ADD PUSH1 0x0 KECCAK256 PUSH1 0x1 ADD SLOAD JUMPDEST SWAP1 POP PUSH1 0x0 PUSH2 0x311F DUP5 DUP4 PUSH2 0x2C9E SWAP1 SWAP2 SWAP1 PUSH4 0xFFFFFFFF AND JUMP JUMPDEST SWAP1 POP PUSH2 0x312D DUP7 DUP5 DUP5 DUP5 PUSH2 0x3CF1 JUMP JUMPDEST POP POP POP JUMPDEST PUSH1 0x0 PUSH20 0xFFFFFFFFFFFFFFFFFFFFFFFFFFFFFFFFFFFFFFFF AND DUP3 PUSH20 0xFFFFFFFFFFFFFFFFFFFFFFFFFFFFFFFFFFFFFFFF AND EQ PUSH2 0x325C JUMPI PUSH1 0x0 PUSH1 0xB PUSH1 0x0 DUP5 PUSH20 0xFFFFFFFFFFFFFFFFFFFFFFFFFFFFFFFFFFFFFFFF AND PUSH20 0xFFFFFFFFFFFFFFFFFFFFFFFFFFFFFFFFFFFFFFFF AND DUP2 MSTORE PUSH1 0x20 ADD SWAP1 DUP2 MSTORE PUSH1 0x20 ADD PUSH1 0x0 KECCAK256 PUSH1 0x0 SWAP1 SLOAD SWAP1 PUSH2 0x100 EXP SWAP1 DIV PUSH4 0xFFFFFFFF AND SWAP1 POP PUSH1 0x0 DUP1 DUP3 PUSH4 0xFFFFFFFF AND GT PUSH2 0x31CF JUMPI PUSH1 0x0 PUSH2 0x3233 JUMP JUMPDEST PUSH1 0xA PUSH1 0x0 DUP6 PUSH20 0xFFFFFFFFFFFFFFFFFFFFFFFFFFFFFFFFFFFFFFFF AND PUSH20 0xFFFFFFFFFFFFFFFFFFFFFFFFFFFFFFFFFFFFFFFF AND DUP2 MSTORE PUSH1 0x20 ADD SWAP1 DUP2 MSTORE PUSH1 0x20 ADD PUSH1 0x0 KECCAK256 PUSH1 0x0 PUSH1 0x1 DUP5 SUB PUSH4 0xFFFFFFFF AND PUSH4 0xFFFFFFFF AND DUP2 MSTORE PUSH1 0x20 ADD SWAP1 DUP2 MSTORE PUSH1 0x20 ADD PUSH1 0x0 KECCAK256 PUSH1 0x1 ADD SLOAD JUMPDEST SWAP1 POP PUSH1 0x0 PUSH2 0x324A DUP5 DUP4 PUSH2 0x2C16 SWAP1 SWAP2 SWAP1 PUSH4 0xFFFFFFFF AND JUMP JUMPDEST SWAP1 POP PUSH2 0x3258 DUP6 DUP5 DUP5 DUP5 PUSH2 0x3CF1 JUMP JUMPDEST POP POP POP JUMPDEST JUMPDEST POP POP POP JUMP JUMPDEST PUSH1 0x0 PUSH20 0xFFFFFFFFFFFFFFFFFFFFFFFFFFFFFFFFFFFFFFFF AND DUP3 PUSH20 0xFFFFFFFFFFFFFFFFFFFFFFFFFFFFFFFFFFFFFFFF AND EQ ISZERO PUSH2 0x3305 JUMPI PUSH1 0x40 MLOAD PUSH32 0x8C379A000000000000000000000000000000000000000000000000000000000 DUP2 MSTORE PUSH1 0x4 ADD DUP1 DUP1 PUSH1 0x20 ADD DUP3 DUP2 SUB DUP3 MSTORE PUSH1 0x1F DUP2 MSTORE PUSH1 0x20 ADD DUP1 PUSH32 0x45524332303A206D696E7420746F20746865207A65726F206164647265737300 DUP2 MSTORE POP PUSH1 0x20 ADD SWAP2 POP POP PUSH1 0x40 MLOAD DUP1 SWAP2 SUB SWAP1 REVERT JUMPDEST PUSH2 0x3311 PUSH1 0x0 DUP4 DUP4 PUSH2 0x3F25 JUMP JUMPDEST PUSH2 0x3326 DUP2 PUSH1 0x2 SLOAD PUSH2 0x2C16 SWAP1 SWAP2 SWAP1 PUSH4 0xFFFFFFFF AND JUMP JUMPDEST PUSH1 0x2 DUP2 SWAP1 SSTORE POP PUSH2 0x337D DUP2 PUSH1 0x0 DUP1 DUP6 PUSH20 0xFFFFFFFFFFFFFFFFFFFFFFFFFFFFFFFFFFFFFFFF AND PUSH20 0xFFFFFFFFFFFFFFFFFFFFFFFFFFFFFFFFFFFFFFFF AND DUP2 MSTORE PUSH1 0x20 ADD SWAP1 DUP2 MSTORE PUSH1 0x20 ADD PUSH1 0x0 KECCAK256 SLOAD PUSH2 0x2C16 SWAP1 SWAP2 SWAP1 PUSH4 0xFFFFFFFF AND JUMP JUMPDEST PUSH1 0x0 DUP1 DUP5 PUSH20 0xFFFFFFFFFFFFFFFFFFFFFFFFFFFFFFFFFFFFFFFF AND PUSH20 0xFFFFFFFFFFFFFFFFFFFFFFFFFFFFFFFFFFFFFFFF AND DUP2 MSTORE PUSH1 0x20 ADD SWAP1 DUP2 MSTORE PUSH1 0x20 ADD PUSH1 0x0 KECCAK256 DUP2 SWAP1 SSTORE POP DUP2 PUSH20 0xFFFFFFFFFFFFFFFFFFFFFFFFFFFFFFFFFFFFFFFF AND PUSH1 0x0 PUSH20 0xFFFFFFFFFFFFFFFFFFFFFFFFFFFFFFFFFFFFFFFF AND PUSH32 0xDDF252AD1BE2C89B69C2B068FC378DAA952BA7F163C4A11628F55A4DF523B3EF DUP4 PUSH1 0x40 MLOAD DUP1 DUP3 DUP2 MSTORE PUSH1 0x20 ADD SWAP2 POP POP PUSH1 0x40 MLOAD DUP1 SWAP2 SUB SWAP1 LOG3 POP POP JUMP JUMPDEST PUSH1 0x0 PUSH20 0xFFFFFFFFFFFFFFFFFFFFFFFFFFFFFFFFFFFFFFFF AND DUP3 PUSH20 0xFFFFFFFFFFFFFFFFFFFFFFFFFFFFFFFFFFFFFFFF AND EQ ISZERO PUSH2 0x34AF JUMPI PUSH1 0x40 MLOAD PUSH32 0x8C379A000000000000000000000000000000000000000000000000000000000 DUP2 MSTORE PUSH1 0x4 ADD DUP1 DUP1 PUSH1 0x20 ADD DUP3 DUP2 SUB DUP3 MSTORE PUSH1 0x21 DUP2 MSTORE PUSH1 0x20 ADD DUP1 PUSH2 0x41D2 PUSH1 0x21 SWAP2 CODECOPY PUSH1 0x40 ADD SWAP2 POP POP PUSH1 0x40 MLOAD DUP1 SWAP2 SUB SWAP1 REVERT JUMPDEST PUSH2 0x34BB DUP3 PUSH1 0x0 DUP4 PUSH2 0x3F25 JUMP JUMPDEST PUSH2 0x3526 DUP2 PUSH1 0x40 MLOAD DUP1 PUSH1 0x60 ADD PUSH1 0x40 MSTORE DUP1 PUSH1 0x22 DUP2 MSTORE PUSH1 0x20 ADD PUSH2 0x403A PUSH1 0x22 SWAP2 CODECOPY PUSH1 0x0 DUP1 DUP7 PUSH20 0xFFFFFFFFFFFFFFFFFFFFFFFFFFFFFFFFFFFFFFFF AND PUSH20 0xFFFFFFFFFFFFFFFFFFFFFFFFFFFFFFFFFFFFFFFF AND DUP2 MSTORE PUSH1 0x20 ADD SWAP1 DUP2 MSTORE PUSH1 0x20 ADD PUSH1 0x0 KECCAK256 SLOAD PUSH2 0x3851 SWAP1 SWAP3 SWAP2 SWAP1 PUSH4 0xFFFFFFFF AND JUMP JUMPDEST PUSH1 0x0 DUP1 DUP5 PUSH20 0xFFFFFFFFFFFFFFFFFFFFFFFFFFFFFFFFFFFFFFFF AND PUSH20 0xFFFFFFFFFFFFFFFFFFFFFFFFFFFFFFFFFFFFFFFF AND DUP2 MSTORE PUSH1 0x20 ADD SWAP1 DUP2 MSTORE PUSH1 0x20 ADD PUSH1 0x0 KECCAK256 DUP2 SWAP1 SSTORE POP PUSH2 0x357D DUP2 PUSH1 0x2 SLOAD PUSH2 0x2C9E SWAP1 SWAP2 SWAP1 PUSH4 0xFFFFFFFF AND JUMP JUMPDEST PUSH1 0x2 DUP2 SWAP1 SSTORE POP PUSH1 0x0 PUSH20 0xFFFFFFFFFFFFFFFFFFFFFFFFFFFFFFFFFFFFFFFF AND DUP3 PUSH20 0xFFFFFFFFFFFFFFFFFFFFFFFFFFFFFFFFFFFFFFFF AND PUSH32 0xDDF252AD1BE2C89B69C2B068FC378DAA952BA7F163C4A11628F55A4DF523B3EF DUP4 PUSH1 0x40 MLOAD DUP1 DUP3 DUP2 MSTORE PUSH1 0x20 ADD SWAP2 POP POP PUSH1 0x40 MLOAD DUP1 SWAP2 SUB SWAP1 LOG3 POP POP JUMP JUMPDEST PUSH1 0x0 PUSH1 0x9 PUSH1 0x0 DUP5 PUSH20 0xFFFFFFFFFFFFFFFFFFFFFFFFFFFFFFFFFFFFFFFF AND PUSH20 0xFFFFFFFFFFFFFFFFFFFFFFFFFFFFFFFFFFFFFFFF AND DUP2 MSTORE PUSH1 0x20 ADD SWAP1 DUP2 MSTORE PUSH1 0x20 ADD PUSH1 0x0 KECCAK256 PUSH1 0x0 SWAP1 SLOAD SWAP1 PUSH2 0x100 EXP SWAP1 DIV PUSH20 0xFFFFFFFFFFFFFFFFFFFFFFFFFFFFFFFFFFFFFFFF AND SWAP1 POP PUSH1 0x0 PUSH2 0x365C DUP5 PUSH2 0x167D JUMP JUMPDEST SWAP1 POP DUP3 PUSH1 0x9 PUSH1 0x0 DUP7 PUSH20 0xFFFFFFFFFFFFFFFFFFFFFFFFFFFFFFFFFFFFFFFF AND PUSH20 0xFFFFFFFFFFFFFFFFFFFFFFFFFFFFFFFFFFFFFFFF AND DUP2 MSTORE PUSH1 0x20 ADD SWAP1 DUP2 MSTORE PUSH1 0x20 ADD PUSH1 0x0 KECCAK256 PUSH1 0x0 PUSH2 0x100 EXP DUP2 SLOAD DUP2 PUSH20 0xFFFFFFFFFFFFFFFFFFFFFFFFFFFFFFFFFFFFFFFF MUL NOT AND SWAP1 DUP4 PUSH20 0xFFFFFFFFFFFFFFFFFFFFFFFFFFFFFFFFFFFFFFFF AND MUL OR SWAP1 SSTORE POP DUP3 PUSH20 0xFFFFFFFFFFFFFFFFFFFFFFFFFFFFFFFFFFFFFFFF AND DUP3 PUSH20 0xFFFFFFFFFFFFFFFFFFFFFFFFFFFFFFFFFFFFFFFF AND DUP6 PUSH20 0xFFFFFFFFFFFFFFFFFFFFFFFFFFFFFFFFFFFFFFFF AND PUSH32 0x3134E8A2E6D97E929A7E54011EA5485D7D196DD5F0BA4D4EF95803E8E3FC257F PUSH1 0x40 MLOAD PUSH1 0x40 MLOAD DUP1 SWAP2 SUB SWAP1 LOG4 PUSH2 0x3758 DUP3 DUP5 DUP4 PUSH2 0x2FC5 JUMP JUMPDEST POP POP POP POP JUMP JUMPDEST PUSH1 0x7 PUSH1 0x14 SWAP1 SLOAD SWAP1 PUSH2 0x100 EXP SWAP1 DIV PUSH1 0xFF AND PUSH2 0x37E0 JUMPI PUSH1 0x40 MLOAD PUSH32 0x8C379A000000000000000000000000000000000000000000000000000000000 DUP2 MSTORE PUSH1 0x4 ADD DUP1 DUP1 PUSH1 0x20 ADD DUP3 DUP2 SUB DUP3 MSTORE PUSH1 0x14 DUP2 MSTORE PUSH1 0x20 ADD DUP1 PUSH32 0x5061757361626C653A206E6F7420706175736564000000000000000000000000 DUP2 MSTORE POP PUSH1 0x20 ADD SWAP2 POP POP PUSH1 0x40 MLOAD DUP1 SWAP2 SUB SWAP1 REVERT JUMPDEST PUSH1 0x0 PUSH1 0x7 PUSH1 0x14 PUSH2 0x100 EXP DUP2 SLOAD DUP2 PUSH1 0xFF MUL NOT AND SWAP1 DUP4 ISZERO ISZERO MUL OR SWAP1 SSTORE POP PUSH32 0x5DB9EE0A495BF2E6FF9C91A7834C1BA4FDD244A5E8AA4E537BD38AEAE4B073AA PUSH2 0x3824 PUSH2 0x2CED JUMP JUMPDEST PUSH1 0x40 MLOAD DUP1 DUP3 PUSH20 0xFFFFFFFFFFFFFFFFFFFFFFFFFFFFFFFFFFFFFFFF AND DUP2 MSTORE PUSH1 0x20 ADD SWAP2 POP POP PUSH1 0x40 MLOAD DUP1 SWAP2 SUB SWAP1 LOG1 JUMP JUMPDEST PUSH1 0x0 DUP4 DUP4 GT ISZERO DUP3 SWAP1 PUSH2 0x38FE JUMPI PUSH1 0x40 MLOAD PUSH32 0x8C379A000000000000000000000000000000000000000000000000000000000 DUP2 MSTORE PUSH1 0x4 ADD DUP1 DUP1 PUSH1 0x20 ADD DUP3 DUP2 SUB DUP3 MSTORE DUP4 DUP2 DUP2 MLOAD DUP2 MSTORE PUSH1 0x20 ADD SWAP2 POP DUP1 MLOAD SWAP1 PUSH1 0x20 ADD SWAP1 DUP1 DUP4 DUP4 PUSH1 0x0 JUMPDEST DUP4 DUP2 LT ISZERO PUSH2 0x38C3 JUMPI DUP1 DUP3 ADD MLOAD DUP2 DUP5 ADD MSTORE PUSH1 0x20 DUP2 ADD SWAP1 POP PUSH2 0x38A8 JUMP JUMPDEST POP POP POP POP SWAP1 POP SWAP1 DUP2 ADD SWAP1 PUSH1 0x1F AND DUP1 ISZERO PUSH2 0x38F0 JUMPI DUP1 DUP3 SUB DUP1 MLOAD PUSH1 0x1 DUP4 PUSH1 0x20 SUB PUSH2 0x100 EXP SUB NOT AND DUP2 MSTORE PUSH1 0x20 ADD SWAP2 POP JUMPDEST POP SWAP3 POP POP POP PUSH1 0x40 MLOAD DUP1 SWAP2 SUB SWAP1 REVERT JUMPDEST POP PUSH1 0x0 DUP4 DUP6 SUB SWAP1 POP DUP1 SWAP2 POP POP SWAP4 SWAP3 POP POP POP JUMP JUMPDEST PUSH1 0x0 PUSH2 0x3925 PUSH2 0x391E PUSH2 0x2CED JUMP JUMPDEST DUP5 DUP5 PUSH2 0x3A30 JUMP JUMPDEST PUSH1 0x1 SWAP1 POP SWAP3 SWAP2 POP POP JUMP JUMPDEST PUSH1 0x0 DUP1 CHAINID SWAP1 POP DUP1 SWAP2 POP POP SWAP1 JUMP JUMPDEST PUSH1 0x7 PUSH1 0x14 SWAP1 SLOAD SWAP1 PUSH2 0x100 EXP SWAP1 DIV PUSH1 0xFF AND ISZERO PUSH2 0x39BF JUMPI PUSH1 0x40 MLOAD PUSH32 0x8C379A000000000000000000000000000000000000000000000000000000000 DUP2 MSTORE PUSH1 0x4 ADD DUP1 DUP1 PUSH1 0x20 ADD DUP3 DUP2 SUB DUP3 MSTORE PUSH1 0x10 DUP2 MSTORE PUSH1 0x20 ADD DUP1 PUSH32 0x5061757361626C653A2070617573656400000000000000000000000000000000 DUP2 MSTORE POP PUSH1 0x20 ADD SWAP2 POP POP PUSH1 0x40 MLOAD DUP1 SWAP2 SUB SWAP1 REVERT JUMPDEST PUSH1 0x1 PUSH1 0x7 PUSH1 0x14 PUSH2 0x100 EXP DUP2 SLOAD DUP2 PUSH1 0xFF MUL NOT AND SWAP1 DUP4 ISZERO ISZERO MUL OR SWAP1 SSTORE POP PUSH32 0x62E78CEA01BEE320CD4E420270B5EA74000D11B0C9F74754EBDBFC544B05A258 PUSH2 0x3A03 PUSH2 0x2CED JUMP JUMPDEST PUSH1 0x40 MLOAD DUP1 DUP3 PUSH20 0xFFFFFFFFFFFFFFFFFFFFFFFFFFFFFFFFFFFFFFFF AND DUP2 MSTORE PUSH1 0x20 ADD SWAP2 POP POP PUSH1 0x40 MLOAD DUP1 SWAP2 SUB SWAP1 LOG1 JUMP JUMPDEST PUSH1 0x0 PUSH20 0xFFFFFFFFFFFFFFFFFFFFFFFFFFFFFFFFFFFFFFFF AND DUP4 PUSH20 0xFFFFFFFFFFFFFFFFFFFFFFFFFFFFFFFFFFFFFFFF AND EQ ISZERO PUSH2 0x3AB6 JUMPI PUSH1 0x40 MLOAD PUSH32 0x8C379A000000000000000000000000000000000000000000000000000000000 DUP2 MSTORE PUSH1 0x4 ADD DUP1 DUP1 PUSH1 0x20 ADD DUP3 DUP2 SUB DUP3 MSTORE PUSH1 0x25 DUP2 MSTORE PUSH1 0x20 ADD DUP1 PUSH2 0x41F3 PUSH1 0x25 SWAP2 CODECOPY PUSH1 0x40 ADD SWAP2 POP POP PUSH1 0x40 MLOAD DUP1 SWAP2 SUB SWAP1 REVERT JUMPDEST PUSH1 0x0 PUSH20 0xFFFFFFFFFFFFFFFFFFFFFFFFFFFFFFFFFFFFFFFF AND DUP3 PUSH20 0xFFFFFFFFFFFFFFFFFFFFFFFFFFFFFFFFFFFFFFFF AND EQ ISZERO PUSH2 0x3B3C JUMPI PUSH1 0x40 MLOAD PUSH32 0x8C379A000000000000000000000000000000000000000000000000000000000 DUP2 MSTORE PUSH1 0x4 ADD DUP1 DUP1 PUSH1 0x20 ADD DUP3 DUP2 SUB DUP3 MSTORE PUSH1 0x23 DUP2 MSTORE PUSH1 0x20 ADD DUP1 PUSH2 0x4017 PUSH1 0x23 SWAP2 CODECOPY PUSH1 0x40 ADD SWAP2 POP POP PUSH1 0x40 MLOAD DUP1 SWAP2 SUB SWAP1 REVERT JUMPDEST PUSH2 0x3B47 DUP4 DUP4 DUP4 PUSH2 0x3F25 JUMP JUMPDEST PUSH2 0x3BB2 DUP2 PUSH1 0x40 MLOAD DUP1 PUSH1 0x60 ADD PUSH1 0x40 MSTORE DUP1 PUSH1 0x26 DUP2 MSTORE PUSH1 0x20 ADD PUSH2 0x4117 PUSH1 0x26 SWAP2 CODECOPY PUSH1 0x0 DUP1 DUP8 PUSH20 0xFFFFFFFFFFFFFFFFFFFFFFFFFFFFFFFFFFFFFFFF AND PUSH20 0xFFFFFFFFFFFFFFFFFFFFFFFFFFFFFFFFFFFFFFFF AND DUP2 MSTORE PUSH1 0x20 ADD SWAP1 DUP2 MSTORE PUSH1 0x20 ADD PUSH1 0x0 KECCAK256 SLOAD PUSH2 0x3851 SWAP1 SWAP3 SWAP2 SWAP1 PUSH4 0xFFFFFFFF AND JUMP JUMPDEST PUSH1 0x0 DUP1 DUP6 PUSH20 0xFFFFFFFFFFFFFFFFFFFFFFFFFFFFFFFFFFFFFFFF AND PUSH20 0xFFFFFFFFFFFFFFFFFFFFFFFFFFFFFFFFFFFFFFFF AND DUP2 MSTORE PUSH1 0x20 ADD SWAP1 DUP2 MSTORE PUSH1 0x20 ADD PUSH1 0x0 KECCAK256 DUP2 SWAP1 SSTORE POP PUSH2 0x3C45 DUP2 PUSH1 0x0 DUP1 DUP6 PUSH20 0xFFFFFFFFFFFFFFFFFFFFFFFFFFFFFFFFFFFFFFFF AND PUSH20 0xFFFFFFFFFFFFFFFFFFFFFFFFFFFFFFFFFFFFFFFF AND DUP2 MSTORE PUSH1 0x20 ADD SWAP1 DUP2 MSTORE PUSH1 0x20 ADD PUSH1 0x0 KECCAK256 SLOAD PUSH2 0x2C16 SWAP1 SWAP2 SWAP1 PUSH4 0xFFFFFFFF AND JUMP JUMPDEST PUSH1 0x0 DUP1 DUP5 PUSH20 0xFFFFFFFFFFFFFFFFFFFFFFFFFFFFFFFFFFFFFFFF AND PUSH20 0xFFFFFFFFFFFFFFFFFFFFFFFFFFFFFFFFFFFFFFFF AND DUP2 MSTORE PUSH1 0x20 ADD SWAP1 DUP2 MSTORE PUSH1 0x20 ADD PUSH1 0x0 KECCAK256 DUP2 SWAP1 SSTORE POP DUP2 PUSH20 0xFFFFFFFFFFFFFFFFFFFFFFFFFFFFFFFFFFFFFFFF AND DUP4 PUSH20 0xFFFFFFFFFFFFFFFFFFFFFFFFFFFFFFFFFFFFFFFF AND PUSH32 0xDDF252AD1BE2C89B69C2B068FC378DAA952BA7F163C4A11628F55A4DF523B3EF DUP4 PUSH1 0x40 MLOAD DUP1 DUP3 DUP2 MSTORE PUSH1 0x20 ADD SWAP2 POP POP PUSH1 0x40 MLOAD DUP1 SWAP2 SUB SWAP1 LOG3 POP POP POP JUMP JUMPDEST PUSH1 0x0 NUMBER SWAP1 POP PUSH1 0x0 DUP5 PUSH4 0xFFFFFFFF AND GT DUP1 ISZERO PUSH2 0x3D6D JUMPI POP DUP1 PUSH1 0xA PUSH1 0x0 DUP8 PUSH20 0xFFFFFFFFFFFFFFFFFFFFFFFFFFFFFFFFFFFFFFFF AND PUSH20 0xFFFFFFFFFFFFFFFFFFFFFFFFFFFFFFFFFFFFFFFF AND DUP2 MSTORE PUSH1 0x20 ADD SWAP1 DUP2 MSTORE PUSH1 0x20 ADD PUSH1 0x0 KECCAK256 PUSH1 0x0 PUSH1 0x1 DUP8 SUB PUSH4 0xFFFFFFFF AND PUSH4 0xFFFFFFFF AND DUP2 MSTORE PUSH1 0x20 ADD SWAP1 DUP2 MSTORE PUSH1 0x20 ADD PUSH1 0x0 KECCAK256 PUSH1 0x0 ADD SLOAD EQ JUMPDEST ISZERO PUSH2 0x3DDE JUMPI DUP2 PUSH1 0xA PUSH1 0x0 DUP8 PUSH20 0xFFFFFFFFFFFFFFFFFFFFFFFFFFFFFFFFFFFFFFFF AND PUSH20 0xFFFFFFFFFFFFFFFFFFFFFFFFFFFFFFFFFFFFFFFF AND DUP2 MSTORE PUSH1 0x20 ADD SWAP1 DUP2 MSTORE PUSH1 0x20 ADD PUSH1 0x0 KECCAK256 PUSH1 0x0 PUSH1 0x1 DUP8 SUB PUSH4 0xFFFFFFFF AND PUSH4 0xFFFFFFFF AND DUP2 MSTORE PUSH1 0x20 ADD SWAP1 DUP2 MSTORE PUSH1 0x20 ADD PUSH1 0x0 KECCAK256 PUSH1 0x1 ADD DUP2 SWAP1 SSTORE POP PUSH2 0x3EC8 JUMP JUMPDEST PUSH1 0x40 MLOAD DUP1 PUSH1 0x40 ADD PUSH1 0x40 MSTORE DUP1 DUP3 DUP2 MSTORE PUSH1 0x20 ADD DUP4 DUP2 MSTORE POP PUSH1 0xA PUSH1 0x0 DUP8 PUSH20 0xFFFFFFFFFFFFFFFFFFFFFFFFFFFFFFFFFFFFFFFF AND PUSH20 0xFFFFFFFFFFFFFFFFFFFFFFFFFFFFFFFFFFFFFFFF AND DUP2 MSTORE PUSH1 0x20 ADD SWAP1 DUP2 MSTORE PUSH1 0x20 ADD PUSH1 0x0 KECCAK256 PUSH1 0x0 DUP7 PUSH4 0xFFFFFFFF AND PUSH4 0xFFFFFFFF AND DUP2 MSTORE PUSH1 0x20 ADD SWAP1 DUP2 MSTORE PUSH1 0x20 ADD PUSH1 0x0 KECCAK256 PUSH1 0x0 DUP3 ADD MLOAD DUP2 PUSH1 0x0 ADD SSTORE PUSH1 0x20 DUP3 ADD MLOAD DUP2 PUSH1 0x1 ADD SSTORE SWAP1 POP POP PUSH1 0x1 DUP5 ADD PUSH1 0xB PUSH1 0x0 DUP8 PUSH20 0xFFFFFFFFFFFFFFFFFFFFFFFFFFFFFFFFFFFFFFFF AND PUSH20 0xFFFFFFFFFFFFFFFFFFFFFFFFFFFFFFFFFFFFFFFF AND DUP2 MSTORE PUSH1 0x20 ADD SWAP1 DUP2 MSTORE PUSH1 0x20 ADD PUSH1 0x0 KECCAK256 PUSH1 0x0 PUSH2 0x100 EXP DUP2 SLOAD DUP2 PUSH4 0xFFFFFFFF MUL NOT AND SWAP1 DUP4 PUSH4 0xFFFFFFFF AND MUL OR SWAP1 SSTORE POP JUMPDEST DUP5 PUSH20 0xFFFFFFFFFFFFFFFFFFFFFFFFFFFFFFFFFFFFFFFF AND PUSH32 0xDEC2BACDD2F05B59DE34DA9B523DFF8BE42E5E38E818C82FDB0BAE774387A724 DUP5 DUP5 PUSH1 0x40 MLOAD DUP1 DUP4 DUP2 MSTORE PUSH1 0x20 ADD DUP3 DUP2 MSTORE PUSH1 0x20 ADD SWAP3 POP POP POP PUSH1 0x40 MLOAD DUP1 SWAP2 SUB SWAP1 LOG2 POP POP POP POP POP JUMP JUMPDEST PUSH2 0x3F30 DUP4 DUP4 DUP4 PUSH2 0x2CE8 JUMP JUMPDEST PUSH1 0x0 PUSH20 0xFFFFFFFFFFFFFFFFFFFFFFFFFFFFFFFFFFFFFFFF AND DUP4 PUSH20 0xFFFFFFFFFFFFFFFFFFFFFFFFFFFFFFFFFFFFFFFF AND EQ ISZERO PUSH2 0x3FF7 JUMPI PUSH1 0x6 SLOAD PUSH2 0x3F82 DUP3 PUSH2 0x3F74 PUSH2 0xE38 JUMP JUMPDEST PUSH2 0x2C16 SWAP1 SWAP2 SWAP1 PUSH4 0xFFFFFFFF AND JUMP JUMPDEST GT ISZERO PUSH2 0x3FF6 JUMPI PUSH1 0x40 MLOAD PUSH32 0x8C379A000000000000000000000000000000000000000000000000000000000 DUP2 MSTORE PUSH1 0x4 ADD DUP1 DUP1 PUSH1 0x20 ADD DUP3 DUP2 SUB DUP3 MSTORE PUSH1 0x19 DUP2 MSTORE PUSH1 0x20 ADD DUP1 PUSH32 0x45524332304361707065643A2063617020657863656564656400000000000000 DUP2 MSTORE POP PUSH1 0x20 ADD SWAP2 POP POP PUSH1 0x40 MLOAD DUP1 SWAP2 SUB SWAP1 REVERT JUMPDEST JUMPDEST POP POP POP JUMP JUMPDEST PUSH1 0x40 MLOAD DUP1 PUSH1 0x40 ADD PUSH1 0x40 MSTORE DUP1 PUSH1 0x0 DUP2 MSTORE PUSH1 0x20 ADD PUSH1 0x0 DUP2 MSTORE POP SWAP1 JUMP INVALID GASLIMIT MSTORE NUMBER ORIGIN ADDRESS GASPRICE KECCAK256 PUSH21 0x72616E7366657220746F20746865207A65726F2061 PUSH5 0x6472657373 GASLIMIT MSTORE NUMBER ORIGIN ADDRESS GASPRICE KECCAK256 PUSH3 0x75726E KECCAK256 PUSH2 0x6D6F PUSH22 0x6E7420657863656564732062616C616E63654F776E61 PUSH3 0x6C653A KECCAK256 PUSH15 0x6577206F776E657220697320746865 KECCAK256 PUSH27 0x65726F206164647265737345524332303A20617070726F76652074 PUSH16 0x20746865207A65726F20616464726573 PUSH20 0x436F6D703A3A64656C656761746542795369673A KECCAK256 PUSH10 0x6E76616C696420736967 PUSH15 0x61747572655472616E736665724672 PUSH16 0x6D202D20526563697069656E74206973 KECCAK256 PUSH3 0x6C6163 PUSH12 0x6C6973746564436F6D703A3A PUSH5 0x656C656761 PUSH21 0x6542795369673A207369676E617475726520657870 PUSH10 0x72656445524332303A20 PUSH21 0x72616E7366657220616D6F756E7420657863656564 PUSH20 0x2062616C616E6365436F6D703A3A676574507269 PUSH16 0x72566F7465733A206E6F742079657420 PUSH5 0x657465726D PUSH10 0x6E6564436F6D703A3A64 PUSH6 0x6C6567617465 TIMESTAMP PUSH26 0x5369673A20696E76616C6964206E6F6E63655472616E73666572 CHAINID PUSH19 0x6F6D202D2053656E64657220697320626C6163 PUSH12 0x6C697374656445524332303A KECCAK256 PUSH21 0x72616E7366657220616D6F756E7420657863656564 PUSH20 0x20616C6C6F77616E636545524332303A20627572 PUSH15 0x2066726F6D20746865207A65726F20 PUSH2 0x6464 PUSH19 0x65737345524332303A207472616E7366657220 PUSH7 0x726F6D20746865 KECCAK256 PUSH27 0x65726F206164647265737345524332303A20617070726F76652066 PUSH19 0x6F6D20746865207A65726F2061646472657373 GASLIMIT MSTORE NUMBER ORIGIN ADDRESS GASPRICE KECCAK256 PUSH5 0x6563726561 PUSH20 0x656420616C6C6F77616E63652062656C6F77207A PUSH6 0x726F5472616E PUSH20 0x666572202D20526563697069656E742069732062 PUSH13 0x61636B6C6973746564A2646970 PUSH7 0x735822122003FF 0x4A 0x5D 0x4E 0xAB LOG4 0xDA PUSH19 0xBF4DBC7DF232858AC00873611EA331A54D9D 0xB6 CREATE2 0xA5 0xA5 PUSH5 0x736F6C6343 STOP MOD 0xC STOP CALLER "},"gasEstimates":{"creation":{"codeDepositCost":"3416200","executionCost":"infinite","totalCost":"infinite"},"external":{"DELEGATION_TYPEHASH()":"293","DOMAIN_TYPEHASH()":"251","addBlackList(address)":"23260","allowance(address,address)":"1432","approve(address,uint256)":"infinite","balanceOf(address)":"1329","burn(uint256)":"infinite","cap()":"1125","checkpoints(address,uint32)":"2223","decimals()":"1145","decreaseAllowance(address,uint256)":"infinite","delegate(address)":"infinite","delegateBySig(address,uint256,uint256,uint8,bytes32,bytes32)":"infinite","delegates(address)":"1350","getBlackListStatus(address)":"1283","getCurrentVotes(address)":"2312","getPriorVotes(address,uint256)":"infinite","increaseAllowance(address,uint256)":"infinite","isBlackListed(address)":"1244","mint(address,uint256)":"infinite","name()":"infinite","nonces(address)":"1259","numCheckpoints(address)":"1311","owner()":"1100","paused()":"1194","removeBlackList(address)":"23235","renounceOwnership()":"24343","setPause()":"infinite","setUnpause()":"infinite","symbol()":"infinite","totalSupply()":"1126","transfer(address,uint256)":"infinite","transferFrom(address,address,uint256)":"infinite","transferOwnership(address)":"infinite"},"internal":{"_delegate(address,address)":"infinite","_moveDelegates(address,address,uint256)":"infinite","_writeCheckpoint(address,uint32,uint256,uint256)":"infinite","getChainId()":"35"}},"methodIdentifiers":{"DELEGATION_TYPEHASH()":"e7a324dc","DOMAIN_TYPEHASH()":"20606b70","addBlackList(address)":"0ecb93c0","allowance(address,address)":"dd62ed3e","approve(address,uint256)":"095ea7b3","balanceOf(address)":"70a08231","burn(uint256)":"42966c68","cap()":"355274ea","checkpoints(address,uint32)":"f1127ed8","decimals()":"313ce567","decreaseAllowance(address,uint256)":"a457c2d7","delegate(address)":"5c19a95c","delegateBySig(address,uint256,uint256,uint8,bytes32,bytes32)":"c3cda520","delegates(address)":"587cde1e","getBlackListStatus(address)":"59bf1abe","getCurrentVotes(address)":"b4b5ea57","getPriorVotes(address,uint256)":"782d6fe1","increaseAllowance(address,uint256)":"39509351","isBlackListed(address)":"e47d6060","mint(address,uint256)":"40c10f19","name()":"06fdde03","nonces(address)":"7ecebe00","numCheckpoints(address)":"6fcfff45","owner()":"8da5cb5b","paused()":"5c975abb","removeBlackList(address)":"e4997dc5","renounceOwnership()":"715018a6","setPause()":"d431b1ac","setUnpause()":"848cb5c6","symbol()":"95d89b41","totalSupply()":"18160ddd","transfer(address,uint256)":"a9059cbb","transferFrom(address,address,uint256)":"23b872dd","transferOwnership(address)":"f2fde38b"}},"storageLayout":{"storage":[{"astId":678,"contract":"Contract.sol:JPT","label":"_balances","offset":0,"slot":"0","type":"t_mapping(t_address,t_uint256)"},{"astId":684,"contract":"Contract.sol:JPT","label":"_allowances","offset":0,"slot":"1","type":"t_mapping(t_address,t_mapping(t_address,t_uint256))"},{"astId":686,"contract":"Contract.sol:JPT","label":"_totalSupply","offset":0,"slot":"2","type":"t_uint256"},{"astId":688,"contract":"Contract.sol:JPT","label":"_name","offset":0,"slot":"3","type":"t_string_storage"},{"astId":690,"contract":"Contract.sol:JPT","label":"_symbol","offset":0,"slot":"4","type":"t_string_storage"},{"astId":692,"contract":"Contract.sol:JPT","label":"_decimals","offset":0,"slot":"5","type":"t_uint8"},{"astId":1289,"contract":"Contract.sol:JPT","label":"_cap","offset":0,"slot":"6","type":"t_uint256"},{"astId":27,"contract":"Contract.sol:JPT","label":"_owner","offset":0,"slot":"7","type":"t_address"},{"astId":1179,"contract":"Contract.sol:JPT","label":"_paused","offset":20,"slot":"7","type":"t_bool"},{"astId":134,"contract":"Contract.sol:JPT","label":"isBlackListed","offset":0,"slot":"8","type":"t_mapping(t_address,t_bool)"},{"astId":1373,"contract":"Contract.sol:JPT","label":"_delegates","offset":0,"slot":"9","type":"t_mapping(t_address,t_address)"},{"astId":1385,"contract":"Contract.sol:JPT","label":"checkpoints","offset":0,"slot":"10","type":"t_mapping(t_address,t_mapping(t_uint32,t_struct(Checkpoint)1378_storage))"},{"astId":1390,"contract":"Contract.sol:JPT","label":"numCheckpoints","offset":0,"slot":"11","type":"t_mapping(t_address,t_uint32)"},{"astId":1407,"contract":"Contract.sol:JPT","label":"nonces","offset":0,"slot":"12","type":"t_mapping(t_address,t_uint256)"}],"types":{"t_address":{"encoding":"inplace","label":"address","numberOfBytes":"20"},"t_bool":{"encoding":"inplace","label":"bool","numberOfBytes":"1"},"t_mapping(t_address,t_address)":{"encoding":"mapping","key":"t_address","label":"mapping(address => address)","numberOfBytes":"32","value":"t_address"},"t_mapping(t_address,t_bool)":{"encoding":"mapping","key":"t_address","label":"mapping(address => bool)","numberOfBytes":"32","value":"t_bool"},"t_mapping(t_address,t_mapping(t_address,t_uint256))":{"encoding":"mapping","key":"t_address","label":"mapping(address => mapping(address => uint256))","numberOfBytes":"32","value":"t_mapping(t_address,t_uint256)"},"t_mapping(t_address,t_mapping(t_uint32,t_struct(Checkpoint)1378_storage))":{"encoding":"mapping","key":"t_address","label":"mapping(address => mapping(uint32 => struct JPT.Checkpoint))","numberOfBytes":"32","value":"t_mapping(t_uint32,t_struct(Checkpoint)1378_storage)"},"t_mapping(t_address,t_uint256)":{"encoding":"mapping","key":"t_address","label":"mapping(address => uint256)","numberOfBytes":"32","value":"t_uint256"},"t_mapping(t_address,t_uint32)":{"encoding":"mapping","key":"t_address","label":"mapping(address => uint32)","numberOfBytes":"32","value":"t_uint32"},"t_mapping(t_uint32,t_struct(Checkpoint)1378_storage)":{"encoding":"mapping","key":"t_uint32","label":"mapping(uint32 => struct JPT.Checkpoint)","numberOfBytes":"32","value":"t_struct(Checkpoint)1378_storage"},"t_string_storage":{"encoding":"bytes","label":"string","numberOfBytes":"32"},"t_struct(Checkpoint)1378_storage":{"encoding":"inplace","label":"struct JPT.Checkpoint","members":[{"astId":1375,"contract":"Contract.sol:JPT","label":"fromBlock","offset":0,"slot":"0","type":"t_uint256"},{"astId":1377,"contract":"Contract.sol:JPT","label":"votes","offset":0,"slot":"1","type":"t_uint256"}],"numberOfBytes":"64"},"t_uint256":{"encoding":"inplace","label":"uint256","numberOfBytes":"32"},"t_uint32":{"encoding":"inplace","label":"uint32","numberOfBytes":"4"},"t_uint8":{"encoding":"inplace","label":"uint8","numberOfBytes":"1"}}},"userdoc":{"kind":"user","methods":{"delegates(address)":{"notice":"Delegate votes from `msg.sender` to `delegatee`"}},"version":1}}